{
	"data": {
		"bytecode": {
			"linkReferences": {},
			"object": "60806040523480156200001157600080fd5b5060405162002fdc38038062002fdc8339818101604052810190620000379190620002cf565b620000576200004b620001ec60201b60201c565b620001f460201b60201c565b81600260006101000a81548173ffffffffffffffffffffffffffffffffffffffff021916908373ffffffffffffffffffffffffffffffffffffffff16021790555082600360006101000a81548173ffffffffffffffffffffffffffffffffffffffff021916908373ffffffffffffffffffffffffffffffffffffffff16021790555080600460006101000a81548173ffffffffffffffffffffffffffffffffffffffff021916908373ffffffffffffffffffffffffffffffffffffffff1602179055508173ffffffffffffffffffffffffffffffffffffffff167f7170bf15b246e880b2369cd7c67d057760d8a35149e8c64dde91efa22bcc76d060405160405180910390a28273ffffffffffffffffffffffffffffffffffffffff167f1b98cb79e6f73020175fe87333f1b91ad6a881519c0afe30340c2599b2b4bde060405160405180910390a28073ffffffffffffffffffffffffffffffffffffffff167f2fa8b95c1db7afe99e3398f3792f008135cedc1fa26b0bb2ecd2352cd166d53c60405160405180910390a25050506200037e565b600033905090565b60008060009054906101000a900473ffffffffffffffffffffffffffffffffffffffff169050816000806101000a81548173ffffffffffffffffffffffffffffffffffffffff021916908373ffffffffffffffffffffffffffffffffffffffff1602179055508173ffffffffffffffffffffffffffffffffffffffff168173ffffffffffffffffffffffffffffffffffffffff167f8be0079c531659141344cd1fd0a4f28419497f9722a3daafe3b4186f6b6457e060405160405180910390a35050565b600081519050620002c98162000364565b92915050565b600080600060608486031215620002eb57620002ea6200035f565b5b6000620002fb86828701620002b8565b93505060206200030e86828701620002b8565b92505060406200032186828701620002b8565b9150509250925092565b600062000338826200033f565b9050919050565b600073ffffffffffffffffffffffffffffffffffffffff82169050919050565b600080fd5b6200036f816200032b565b81146200037b57600080fd5b50565b612c4e806200038e6000396000f3fe608060405234801561001057600080fd5b50600436106101585760003560e01c806384e79842116100c3578063b9209e331161007c578063b9209e3314610385578063ce240d9c146103b5578063e744d789146103d1578063f0eb5e54146103ed578063f11abfd81461041d578063f2fde38b1461043b57610158565b806384e79842146102d95780638da5cb5b146102f55780638e098ca11461031357806397a6278e1461032f578063a8d29d1d1461034b578063b4f3fcb71461036757610158565b80635dbe47e8116101155780635dbe47e81461021b5780635e5741f31461024b578063653dc9f114610267578063670af6a914610283578063715018a61461029f5780637e42683b146102a957610158565b80631ffbb0641461015d57806326d941ae1461018d5780633b239a7f146101a95780633b3e12f4146101c5578063454a03e0146101e357806350bc7bda146101ff575b600080fd5b61017760048036038101906101729190611e27565b610457565b604051610184919061248e565b60405180910390f35b6101a760048036038101906101a29190611e27565b610474565b005b6101c360048036038101906101be9190611ee7565b610503565b005b6101cd610626565b6040516101da91906124c4565b60405180910390f35b6101fd60048036038101906101f89190611e94565b610650565b005b61021960048036038101906102149190611e27565b610788565b005b61023560048036038101906102309190611e27565b610794565b604051610242919061248e565b60405180910390f35b61026560048036038101906102609190611e27565b6107e5565b005b610281600480360381019061027c9190611f27565b6107f1565b005b61029d60048036038101906102989190611e27565b61089b565b005b6102a761092a565b005b6102c360048036038101906102be9190611e27565b61093e565b6040516102d09190612643565b60405180910390f35b6102f360048036038101906102ee9190611e27565b6109f2565b005b6102fd610a54565b60405161030a91906123c1565b60405180910390f35b61032d60048036038101906103289190611e54565b610a7d565b005b61034960048036038101906103449190611e27565b610bc0565b005b61036560048036038101906103609190611e27565b610c22565b005b61036f610d5c565b60405161037c9190612568565b60405180910390f35b61039f600480360381019061039a9190611e27565b610d86565b6040516103ac919061248e565b60405180910390f35b6103cf60048036038101906103ca9190611e27565b6114e6565b005b6103eb60048036038101906103e69190611e27565b6114fa565b005b61040760048036038101906104029190611e27565b611589565b60405161041491906124fa565b60405180910390f35b61042561163d565b60405161043291906124df565b60405180910390f35b61045560048036038101906104509190611e27565b611667565b005b600061046d8260016116eb90919063ffffffff16565b9050919050565b61047c6117b3565b80600460006101000a81548173ffffffffffffffffffffffffffffffffffffffff021916908373ffffffffffffffffffffffffffffffffffffffff1602179055508073ffffffffffffffffffffffffffffffffffffffff167f2fa8b95c1db7afe99e3398f3792f008135cedc1fa26b0bb2ecd2352cd166d53c60405160405180910390a250565b61050c33610457565b61054b576040517f08c379a0000000000000000000000000000000000000000000000000000000008152600401610542906125c3565b60405180910390fd5b600460009054906101000a900473ffffffffffffffffffffffffffffffffffffffff1673ffffffffffffffffffffffffffffffffffffffff16639f3418d583836040518363ffffffff1660e01b81526004016105a892919061243c565b600060405180830381600087803b1580156105c257600080fd5b505af11580156105d6573d6000803e3d6000fd5b505050508061ffff168273ffffffffffffffffffffffffffffffffffffffff167f04ed3b726495c2dca1ff1215d9ca54e1a4030abb5e82b0f6ce55702416cee85360405160405180910390a35050565b6000600260009054906101000a900473ffffffffffffffffffffffffffffffffffffffff16905090565b61065933610457565b610698576040517f08c379a000000000000000000000000000000000000000000000000000000000815260040161068f906125c3565b60405180910390fd5b600460009054906101000a900473ffffffffffffffffffffffffffffffffffffffff1673ffffffffffffffffffffffffffffffffffffffff1663a53410dd8484846040518463ffffffff1660e01b81526004016106f793929190612405565b600060405180830381600087803b15801561071157600080fd5b505af1158015610725573d6000803e3d6000fd5b505050508173ffffffffffffffffffffffffffffffffffffffff168373ffffffffffffffffffffffffffffffffffffffff167f6ae73635c50d24a45af6fbd5e016ac4bed179addbc8bf24e04ff0fcc6d33af1960405160405180910390a3505050565b610791816109f2565b50565b60008073ffffffffffffffffffffffffffffffffffffffff166107b683611589565b73ffffffffffffffffffffffffffffffffffffffff1614156107db57600090506107e0565b600190505b919050565b6107ee81610bc0565b50565b60005b868690508110156108925761087f87878381811061081557610814612973565b5b905060200201602081019061082a9190611e27565b86868481811061083d5761083c612973565b5b9050602002016020810190610852919061209a565b85858581811061086557610864612973565b5b905060200201602081019061087a91906120f4565b610650565b808061088a906128fb565b9150506107f4565b50505050505050565b6108a36117b3565b80600260006101000a81548173ffffffffffffffffffffffffffffffffffffffff021916908373ffffffffffffffffffffffffffffffffffffffff1602179055508073ffffffffffffffffffffffffffffffffffffffff167f7170bf15b246e880b2369cd7c67d057760d8a35149e8c64dde91efa22bcc76d060405160405180910390a250565b6109326117b3565b61093c6000611831565b565b6000600460009054906101000a900473ffffffffffffffffffffffffffffffffffffffff1673ffffffffffffffffffffffffffffffffffffffff1663727e13bc836040518263ffffffff1660e01b815260040161099b91906123c1565b60206040518083038186803b1580156109b357600080fd5b505afa1580156109c7573d6000803e3d6000fd5b505050506040513d601f19601f820116820180604052508101906109eb9190612121565b9050919050565b6109fa6117b3565b610a0e8160016118f590919063ffffffff16565b8073ffffffffffffffffffffffffffffffffffffffff167ff68e73cec97f2d70aa641fb26e87a4383686e2efacb648f2165aeb02ac562ec560405160405180910390a250565b60008060009054906101000a900473ffffffffffffffffffffffffffffffffffffffff16905090565b610a8633610457565b610ac5576040517f08c379a0000000000000000000000000000000000000000000000000000000008152600401610abc906125c3565b60405180910390fd5b6000610ad083611589565b9050600460009054906101000a900473ffffffffffffffffffffffffffffffffffffffff1673ffffffffffffffffffffffffffffffffffffffff1663e805cf8684846040518363ffffffff1660e01b8152600401610b2f9291906123dc565b600060405180830381600087803b158015610b4957600080fd5b505af1158015610b5d573d6000803e3d6000fd5b505050508173ffffffffffffffffffffffffffffffffffffffff168173ffffffffffffffffffffffffffffffffffffffff167fe98082932c8056a0f514da9104e4a66bc2cbaef102ad59d90c4b24220ebf601060405160405180910390a3505050565b610bc86117b3565b610bdc81600161199d90919063ffffffff16565b8073ffffffffffffffffffffffffffffffffffffffff167fed9c8ad8d5a0a66898ea49d2956929c93ae2e8bd50281b2ed897c5d1a6737e0b60405160405180910390a250565b610c2b33610457565b610c6a576040517f08c379a0000000000000000000000000000000000000000000000000000000008152600401610c61906125c3565b60405180910390fd5b600460009054906101000a900473ffffffffffffffffffffffffffffffffffffffff1673ffffffffffffffffffffffffffffffffffffffff1663cf191bcd826040518263ffffffff1660e01b8152600401610cc591906123c1565b600060405180830381600087803b158015610cdf57600080fd5b505af1158015610cf3573d6000803e3d6000fd5b50505050610d0081611589565b73ffffffffffffffffffffffffffffffffffffffff168173ffffffffffffffffffffffffffffffffffffffff167f59d6590e225b81befe259af056324092801080acbb7feab310eb34678871f32760405160405180910390a350565b6000600360009054906101000a900473ffffffffffffffffffffffffffffffffffffffff16905090565b60008073ffffffffffffffffffffffffffffffffffffffff16610da883611589565b73ffffffffffffffffffffffffffffffffffffffff161415610dcd57600090506114e1565b6000600260009054906101000a900473ffffffffffffffffffffffffffffffffffffffff1673ffffffffffffffffffffffffffffffffffffffff1663df09d6046040518163ffffffff1660e01b815260040160006040518083038186803b158015610e3757600080fd5b505afa158015610e4b573d6000803e3d6000fd5b505050506040513d6000823e3d601f19601f82011682018060405250810190610e749190612024565b9050600081511415610e8a5760019150506114e1565b600080600060608060005b86518110156114d5576000610ea98a611589565b73ffffffffffffffffffffffffffffffffffffffff166380e9e9e1898481518110610ed757610ed6612973565b5b60200260200101516040518263ffffffff1660e01b8152600401610efb919061265e565b60006040518083038186803b158015610f1357600080fd5b505afa158015610f27573d6000803e3d6000fd5b505050506040513d6000823e3d601f19601f82011682018060405250810190610f509190611fdb565b9050600081511415610f6d576000985050505050505050506114e1565b60005b81518110156114c057610f828b611589565b73ffffffffffffffffffffffffffffffffffffffff1663c9100bcb838381518110610fb057610faf612973565b5b60200260200101516040518263ffffffff1660e01b8152600401610fd491906124a9565b60006040518083038186803b158015610fec57600080fd5b505afa158015611000573d6000803e3d6000fd5b505050506040513d6000823e3d601f19601f82011682018060405250810190611029919061214e565b50809850819950829a50839b50849c5050505050508573ffffffffffffffffffffffffffffffffffffffff1663c0969a6e6110638d611589565b8b868151811061107657611075612973565b5b602002602001015188886040518563ffffffff1660e01b815260040161109f9493929190612515565b60206040518083038186803b1580156110b757600080fd5b505afa9250505080156110e857506040513d601f19601f820116820180604052508101906110e5919061206d565b60015b61111857600182516110fa9190612785565b81141561111357600099505050505050505050506114e1565b6114ad565b8080156111e85750600360009054906101000a900473ffffffffffffffffffffffffffffffffffffffff1673ffffffffffffffffffffffffffffffffffffffff166334a89987888c878151811061117257611171612973565b5b60200260200101516040518363ffffffff1660e01b8152600401611197929190612465565b60206040518083038186803b1580156111af57600080fd5b505afa1580156111c3573d6000803e3d6000fd5b505050506040513d601f19601f820116820180604052508101906111e7919061206d565b5b801561129b5750600360009054906101000a900473ffffffffffffffffffffffffffffffffffffffff1673ffffffffffffffffffffffffffffffffffffffff1663ef2ed1a4886040518263ffffffff1660e01b815260040161124a91906123c1565b60206040518083038186803b15801561126257600080fd5b505afa158015611276573d6000803e3d6000fd5b505050506040513d601f19601f8201168201806040525081019061129a919061206d565b5b156112a557825191505b600360009054906101000a900473ffffffffffffffffffffffffffffffffffffffff1673ffffffffffffffffffffffffffffffffffffffff1663ef2ed1a4886040518263ffffffff1660e01b815260040161130091906123c1565b60206040518083038186803b15801561131857600080fd5b505afa15801561132c573d6000803e3d6000fd5b505050506040513d601f19601f82011682018060405250810190611350919061206d565b1580156113695750600183516113669190612785565b82145b156113815760009a50505050505050505050506114e1565b600360009054906101000a900473ffffffffffffffffffffffffffffffffffffffff1673ffffffffffffffffffffffffffffffffffffffff166334a89987888c87815181106113d3576113d2612973565b5b60200260200101516040518363ffffffff1660e01b81526004016113f8929190612465565b60206040518083038186803b15801561141057600080fd5b505afa158015611424573d6000803e3d6000fd5b505050506040513d601f19601f82011682018060405250810190611448919061206d565b15801561146157506001835161145e9190612785565b82145b156114795760009a50505050505050505050506114e1565b801580156114935750600183516114909190612785565b82145b156114ab5760009a50505050505050505050506114e1565b505b80806114b8906128fb565b915050610f70565b505080806114cd906128fb565b915050610e95565b60019750505050505050505b919050565b6114ee6117b3565b6114f781611667565b50565b6115026117b3565b80600360006101000a81548173ffffffffffffffffffffffffffffffffffffffff021916908373ffffffffffffffffffffffffffffffffffffffff1602179055508073ffffffffffffffffffffffffffffffffffffffff167f1b98cb79e6f73020175fe87333f1b91ad6a881519c0afe30340c2599b2b4bde060405160405180910390a250565b6000600460009054906101000a900473ffffffffffffffffffffffffffffffffffffffff1673ffffffffffffffffffffffffffffffffffffffff16637988d3a5836040518263ffffffff1660e01b81526004016115e691906123c1565b60206040518083038186803b1580156115fe57600080fd5b505afa158015611612573d6000803e3d6000fd5b505050506040513d601f19601f8201168201806040525081019061163691906120c7565b9050919050565b6000600460009054906101000a900473ffffffffffffffffffffffffffffffffffffffff16905090565b61166f6117b3565b600073ffffffffffffffffffffffffffffffffffffffff168173ffffffffffffffffffffffffffffffffffffffff1614156116df576040517f08c379a00000000000000000000000000000000000000000000000000000000081526004016116d6906125a3565b60405180910390fd5b6116e881611831565b50565b60008073ffffffffffffffffffffffffffffffffffffffff168273ffffffffffffffffffffffffffffffffffffffff16141561175c576040517f08c379a000000000000000000000000000000000000000000000000000000000815260040161175390612623565b60405180910390fd5b8260000160008373ffffffffffffffffffffffffffffffffffffffff1673ffffffffffffffffffffffffffffffffffffffff16815260200190815260200160002060009054906101000a900460ff16905092915050565b6117bb611a44565b73ffffffffffffffffffffffffffffffffffffffff166117d9610a54565b73ffffffffffffffffffffffffffffffffffffffff161461182f576040517f08c379a000000000000000000000000000000000000000000000000000000000815260040161182690612603565b60405180910390fd5b565b60008060009054906101000a900473ffffffffffffffffffffffffffffffffffffffff169050816000806101000a81548173ffffffffffffffffffffffffffffffffffffffff021916908373ffffffffffffffffffffffffffffffffffffffff1602179055508173ffffffffffffffffffffffffffffffffffffffff168173ffffffffffffffffffffffffffffffffffffffff167f8be0079c531659141344cd1fd0a4f28419497f9722a3daafe3b4186f6b6457e060405160405180910390a35050565b6118ff82826116eb565b1561193f576040517f08c379a000000000000000000000000000000000000000000000000000000000815260040161193690612583565b60405180910390fd5b60018260000160008373ffffffffffffffffffffffffffffffffffffffff1673ffffffffffffffffffffffffffffffffffffffff16815260200190815260200160002060006101000a81548160ff0219169083151502179055505050565b6119a782826116eb565b6119e6576040517f08c379a00000000000000000000000000000000000000000000000000000000081526004016119dd906125e3565b60405180910390fd5b60008260000160008373ffffffffffffffffffffffffffffffffffffffff1673ffffffffffffffffffffffffffffffffffffffff16815260200190815260200160002060006101000a81548160ff0219169083151502179055505050565b600033905090565b6000611a5f611a5a8461269e565b612679565b90508083825260208201905082856020860282011115611a8257611a816129db565b5b60005b85811015611ab25781611a988882611d4d565b845260208401935060208301925050600181019050611a85565b5050509392505050565b6000611acf611aca846126ca565b612679565b90508083825260208201905082856020860282011115611af257611af16129db565b5b60005b85811015611b225781611b088882611e12565b845260208401935060208301925050600181019050611af5565b5050509392505050565b6000611b3f611b3a846126f6565b612679565b905082815260208101848484011115611b5b57611b5a6129e0565b5b611b66848285612897565b509392505050565b6000611b81611b7c84612727565b612679565b905082815260208101848484011115611b9d57611b9c6129e0565b5b611ba8848285612897565b509392505050565b600081359050611bbf81612b8e565b92915050565b600081519050611bd481612b8e565b92915050565b60008083601f840112611bf057611bef6129d6565b5b8235905067ffffffffffffffff811115611c0d57611c0c6129d1565b5b602083019150836020820283011115611c2957611c286129db565b5b9250929050565b600082601f830112611c4557611c446129d6565b5b8151611c55848260208601611a4c565b91505092915050565b60008083601f840112611c7457611c736129d6565b5b8235905067ffffffffffffffff811115611c9157611c906129d1565b5b602083019150836020820283011115611cad57611cac6129db565b5b9250929050565b60008083601f840112611cca57611cc96129d6565b5b8235905067ffffffffffffffff811115611ce757611ce66129d1565b5b602083019150836020820283011115611d0357611d026129db565b5b9250929050565b600082601f830112611d1f57611d1e6129d6565b5b8151611d2f848260208601611abc565b91505092915050565b600081519050611d4781612ba5565b92915050565b600081519050611d5c81612bbc565b92915050565b600082601f830112611d7757611d766129d6565b5b8151611d87848260208601611b2c565b91505092915050565b600081359050611d9f81612bd3565b92915050565b600081519050611db481612bd3565b92915050565b600082601f830112611dcf57611dce6129d6565b5b8151611ddf848260208601611b6e565b91505092915050565b600081359050611df781612bea565b92915050565b600081519050611e0c81612bea565b92915050565b600081519050611e2181612c01565b92915050565b600060208284031215611e3d57611e3c6129ea565b5b6000611e4b84828501611bb0565b91505092915050565b60008060408385031215611e6b57611e6a6129ea565b5b6000611e7985828601611bb0565b9250506020611e8a85828601611d90565b9150509250929050565b600080600060608486031215611ead57611eac6129ea565b5b6000611ebb86828701611bb0565b9350506020611ecc86828701611d90565b9250506040611edd86828701611de8565b9150509250925092565b60008060408385031215611efe57611efd6129ea565b5b6000611f0c85828601611bb0565b9250506020611f1d85828601611de8565b9150509250929050565b60008060008060008060608789031215611f4457611f436129ea565b5b600087013567ffffffffffffffff811115611f6257611f616129e5565b5b611f6e89828a01611bda565b9650965050602087013567ffffffffffffffff811115611f9157611f906129e5565b5b611f9d89828a01611c5e565b9450945050604087013567ffffffffffffffff811115611fc057611fbf6129e5565b5b611fcc89828a01611cb4565b92509250509295509295509295565b600060208284031215611ff157611ff06129ea565b5b600082015167ffffffffffffffff81111561200f5761200e6129e5565b5b61201b84828501611c30565b91505092915050565b60006020828403121561203a576120396129ea565b5b600082015167ffffffffffffffff811115612058576120576129e5565b5b61206484828501611d0a565b91505092915050565b600060208284031215612083576120826129ea565b5b600061209184828501611d38565b91505092915050565b6000602082840312156120b0576120af6129ea565b5b60006120be84828501611d90565b91505092915050565b6000602082840312156120dd576120dc6129ea565b5b60006120eb84828501611da5565b91505092915050565b60006020828403121561210a576121096129ea565b5b600061211884828501611de8565b91505092915050565b600060208284031215612137576121366129ea565b5b600061214584828501611dfd565b91505092915050565b60008060008060008060c0878903121561216b5761216a6129ea565b5b600061217989828a01611e12565b965050602061218a89828a01611e12565b955050604061219b89828a01611bc5565b945050606087015167ffffffffffffffff8111156121bc576121bb6129e5565b5b6121c889828a01611d62565b935050608087015167ffffffffffffffff8111156121e9576121e86129e5565b5b6121f589828a01611d62565b92505060a087015167ffffffffffffffff811115612216576122156129e5565b5b61222289828a01611dba565b9150509295509295509295565b612238816127b9565b82525050565b612247816127cb565b82525050565b612256816127d7565b82525050565b600061226782612758565b6122718185612763565b9350612281818560208601612897565b61228a816129ef565b840191505092915050565b61229e8161282b565b82525050565b6122ad8161283d565b82525050565b6122bc8161284f565b82525050565b6122cb81612861565b82525050565b60006122de601f83612774565b91506122e982612a00565b602082019050919050565b6000612301602683612774565b915061230c82612a29565b604082019050919050565b6000612324602e83612774565b915061232f82612a78565b604082019050919050565b6000612347602183612774565b915061235282612ac7565b604082019050919050565b600061236a602083612774565b915061237582612b16565b602082019050919050565b600061238d602283612774565b915061239882612b3f565b604082019050919050565b6123ac816127f3565b82525050565b6123bb81612821565b82525050565b60006020820190506123d6600083018461222f565b92915050565b60006040820190506123f1600083018561222f565b6123fe60208301846122b3565b9392505050565b600060608201905061241a600083018661222f565b61242760208301856122b3565b61243460408301846123a3565b949350505050565b6000604082019050612451600083018561222f565b61245e60208301846123a3565b9392505050565b600060408201905061247a600083018561222f565b61248760208301846123b2565b9392505050565b60006020820190506124a3600083018461223e565b92915050565b60006020820190506124be600083018461224d565b92915050565b60006020820190506124d96000830184612295565b92915050565b60006020820190506124f460008301846122a4565b92915050565b600060208201905061250f60008301846122b3565b92915050565b600060808201905061252a60008301876122b3565b61253760208301866123b2565b8181036040830152612549818561225c565b9050818103606083015261255d818461225c565b905095945050505050565b600060208201905061257d60008301846122c2565b92915050565b6000602082019050818103600083015261259c816122d1565b9050919050565b600060208201905081810360008301526125bc816122f4565b9050919050565b600060208201905081810360008301526125dc81612317565b9050919050565b600060208201905081810360008301526125fc8161233a565b9050919050565b6000602082019050818103600083015261261c8161235d565b9050919050565b6000602082019050818103600083015261263c81612380565b9050919050565b600060208201905061265860008301846123a3565b92915050565b600060208201905061267360008301846123b2565b92915050565b6000612683612694565b905061268f82826128ca565b919050565b6000604051905090565b600067ffffffffffffffff8211156126b9576126b86129a2565b5b602082029050602081019050919050565b600067ffffffffffffffff8211156126e5576126e46129a2565b5b602082029050602081019050919050565b600067ffffffffffffffff821115612711576127106129a2565b5b61271a826129ef565b9050602081019050919050565b600067ffffffffffffffff821115612742576127416129a2565b5b61274b826129ef565b9050602081019050919050565b600081519050919050565b600082825260208201905092915050565b600082825260208201905092915050565b600061279082612821565b915061279b83612821565b9250828210156127ae576127ad612944565b5b828203905092915050565b60006127c482612801565b9050919050565b60008115159050919050565b6000819050919050565b60006127ec826127b9565b9050919050565b600061ffff82169050919050565b600073ffffffffffffffffffffffffffffffffffffffff82169050919050565b6000819050919050565b600061283682612873565b9050919050565b600061284882612873565b9050919050565b600061285a82612873565b9050919050565b600061286c82612873565b9050919050565b600061287e82612885565b9050919050565b600061289082612801565b9050919050565b60005b838110156128b557808201518184015260208101905061289a565b838111156128c4576000848401525b50505050565b6128d3826129ef565b810181811067ffffffffffffffff821117156128f2576128f16129a2565b5b80604052505050565b600061290682612821565b91507fffffffffffffffffffffffffffffffffffffffffffffffffffffffffffffffff82141561293957612938612944565b5b600182019050919050565b7f4e487b7100000000000000000000000000000000000000000000000000000000600052601160045260246000fd5b7f4e487b7100000000000000000000000000000000000000000000000000000000600052603260045260246000fd5b7f4e487b7100000000000000000000000000000000000000000000000000000000600052604160045260246000fd5b600080fd5b600080fd5b600080fd5b600080fd5b600080fd5b600080fd5b6000601f19601f8301169050919050565b7f526f6c65733a206163636f756e7420616c72656164792068617320726f6c6500600082015250565b7f4f776e61626c653a206e6577206f776e657220697320746865207a65726f206160008201527f6464726573730000000000000000000000000000000000000000000000000000602082015250565b7f4167656e74526f6c653a2063616c6c657220646f6573206e6f7420686176652060008201527f746865204167656e7420726f6c65000000000000000000000000000000000000602082015250565b7f526f6c65733a206163636f756e7420646f6573206e6f74206861766520726f6c60008201527f6500000000000000000000000000000000000000000000000000000000000000602082015250565b7f4f776e61626c653a2063616c6c6572206973206e6f7420746865206f776e6572600082015250565b7f526f6c65733a206163636f756e7420697320746865207a65726f20616464726560008201527f7373000000000000000000000000000000000000000000000000000000000000602082015250565b612b97816127b9565b8114612ba257600080fd5b50565b612bae816127cb565b8114612bb957600080fd5b50565b612bc5816127d7565b8114612bd057600080fd5b50565b612bdc816127e1565b8114612be757600080fd5b50565b612bf3816127f3565b8114612bfe57600080fd5b50565b612c0a81612821565b8114612c1557600080fd5b5056fea2646970667358221220e36094bf73cb98cb3780119b4522372ae114eb5226472716fbea203f15a5d3a064736f6c63430008070033",
			"opcodes": "PUSH1 0x80 PUSH1 0x40 MSTORE CALLVALUE DUP1 ISZERO PUSH3 0x11 JUMPI PUSH1 0x0 DUP1 REVERT JUMPDEST POP PUSH1 0x40 MLOAD PUSH3 0x2FDC CODESIZE SUB DUP1 PUSH3 0x2FDC DUP4 CODECOPY DUP2 DUP2 ADD PUSH1 0x40 MSTORE DUP2 ADD SWAP1 PUSH3 0x37 SWAP2 SWAP1 PUSH3 0x2CF JUMP JUMPDEST PUSH3 0x57 PUSH3 0x4B PUSH3 0x1EC PUSH1 0x20 SHL PUSH1 0x20 SHR JUMP JUMPDEST PUSH3 0x1F4 PUSH1 0x20 SHL PUSH1 0x20 SHR JUMP JUMPDEST DUP2 PUSH1 0x2 PUSH1 0x0 PUSH2 0x100 EXP DUP2 SLOAD DUP2 PUSH20 0xFFFFFFFFFFFFFFFFFFFFFFFFFFFFFFFFFFFFFFFF MUL NOT AND SWAP1 DUP4 PUSH20 0xFFFFFFFFFFFFFFFFFFFFFFFFFFFFFFFFFFFFFFFF AND MUL OR SWAP1 SSTORE POP DUP3 PUSH1 0x3 PUSH1 0x0 PUSH2 0x100 EXP DUP2 SLOAD DUP2 PUSH20 0xFFFFFFFFFFFFFFFFFFFFFFFFFFFFFFFFFFFFFFFF MUL NOT AND SWAP1 DUP4 PUSH20 0xFFFFFFFFFFFFFFFFFFFFFFFFFFFFFFFFFFFFFFFF AND MUL OR SWAP1 SSTORE POP DUP1 PUSH1 0x4 PUSH1 0x0 PUSH2 0x100 EXP DUP2 SLOAD DUP2 PUSH20 0xFFFFFFFFFFFFFFFFFFFFFFFFFFFFFFFFFFFFFFFF MUL NOT AND SWAP1 DUP4 PUSH20 0xFFFFFFFFFFFFFFFFFFFFFFFFFFFFFFFFFFFFFFFF AND MUL OR SWAP1 SSTORE POP DUP2 PUSH20 0xFFFFFFFFFFFFFFFFFFFFFFFFFFFFFFFFFFFFFFFF AND PUSH32 0x7170BF15B246E880B2369CD7C67D057760D8A35149E8C64DDE91EFA22BCC76D0 PUSH1 0x40 MLOAD PUSH1 0x40 MLOAD DUP1 SWAP2 SUB SWAP1 LOG2 DUP3 PUSH20 0xFFFFFFFFFFFFFFFFFFFFFFFFFFFFFFFFFFFFFFFF AND PUSH32 0x1B98CB79E6F73020175FE87333F1B91AD6A881519C0AFE30340C2599B2B4BDE0 PUSH1 0x40 MLOAD PUSH1 0x40 MLOAD DUP1 SWAP2 SUB SWAP1 LOG2 DUP1 PUSH20 0xFFFFFFFFFFFFFFFFFFFFFFFFFFFFFFFFFFFFFFFF AND PUSH32 0x2FA8B95C1DB7AFE99E3398F3792F008135CEDC1FA26B0BB2ECD2352CD166D53C PUSH1 0x40 MLOAD PUSH1 0x40 MLOAD DUP1 SWAP2 SUB SWAP1 LOG2 POP POP POP PUSH3 0x37E JUMP JUMPDEST PUSH1 0x0 CALLER SWAP1 POP SWAP1 JUMP JUMPDEST PUSH1 0x0 DUP1 PUSH1 0x0 SWAP1 SLOAD SWAP1 PUSH2 0x100 EXP SWAP1 DIV PUSH20 0xFFFFFFFFFFFFFFFFFFFFFFFFFFFFFFFFFFFFFFFF AND SWAP1 POP DUP2 PUSH1 0x0 DUP1 PUSH2 0x100 EXP DUP2 SLOAD DUP2 PUSH20 0xFFFFFFFFFFFFFFFFFFFFFFFFFFFFFFFFFFFFFFFF MUL NOT AND SWAP1 DUP4 PUSH20 0xFFFFFFFFFFFFFFFFFFFFFFFFFFFFFFFFFFFFFFFF AND MUL OR SWAP1 SSTORE POP DUP2 PUSH20 0xFFFFFFFFFFFFFFFFFFFFFFFFFFFFFFFFFFFFFFFF AND DUP2 PUSH20 0xFFFFFFFFFFFFFFFFFFFFFFFFFFFFFFFFFFFFFFFF AND PUSH32 0x8BE0079C531659141344CD1FD0A4F28419497F9722A3DAAFE3B4186F6B6457E0 PUSH1 0x40 MLOAD PUSH1 0x40 MLOAD DUP1 SWAP2 SUB SWAP1 LOG3 POP POP JUMP JUMPDEST PUSH1 0x0 DUP2 MLOAD SWAP1 POP PUSH3 0x2C9 DUP2 PUSH3 0x364 JUMP JUMPDEST SWAP3 SWAP2 POP POP JUMP JUMPDEST PUSH1 0x0 DUP1 PUSH1 0x0 PUSH1 0x60 DUP5 DUP7 SUB SLT ISZERO PUSH3 0x2EB JUMPI PUSH3 0x2EA PUSH3 0x35F JUMP JUMPDEST JUMPDEST PUSH1 0x0 PUSH3 0x2FB DUP7 DUP3 DUP8 ADD PUSH3 0x2B8 JUMP JUMPDEST SWAP4 POP POP PUSH1 0x20 PUSH3 0x30E DUP7 DUP3 DUP8 ADD PUSH3 0x2B8 JUMP JUMPDEST SWAP3 POP POP PUSH1 0x40 PUSH3 0x321 DUP7 DUP3 DUP8 ADD PUSH3 0x2B8 JUMP JUMPDEST SWAP2 POP POP SWAP3 POP SWAP3 POP SWAP3 JUMP JUMPDEST PUSH1 0x0 PUSH3 0x338 DUP3 PUSH3 0x33F JUMP JUMPDEST SWAP1 POP SWAP2 SWAP1 POP JUMP JUMPDEST PUSH1 0x0 PUSH20 0xFFFFFFFFFFFFFFFFFFFFFFFFFFFFFFFFFFFFFFFF DUP3 AND SWAP1 POP SWAP2 SWAP1 POP JUMP JUMPDEST PUSH1 0x0 DUP1 REVERT JUMPDEST PUSH3 0x36F DUP2 PUSH3 0x32B JUMP JUMPDEST DUP2 EQ PUSH3 0x37B JUMPI PUSH1 0x0 DUP1 REVERT JUMPDEST POP JUMP JUMPDEST PUSH2 0x2C4E DUP1 PUSH3 0x38E PUSH1 0x0 CODECOPY PUSH1 0x0 RETURN INVALID PUSH1 0x80 PUSH1 0x40 MSTORE CALLVALUE DUP1 ISZERO PUSH2 0x10 JUMPI PUSH1 0x0 DUP1 REVERT JUMPDEST POP PUSH1 0x4 CALLDATASIZE LT PUSH2 0x158 JUMPI PUSH1 0x0 CALLDATALOAD PUSH1 0xE0 SHR DUP1 PUSH4 0x84E79842 GT PUSH2 0xC3 JUMPI DUP1 PUSH4 0xB9209E33 GT PUSH2 0x7C JUMPI DUP1 PUSH4 0xB9209E33 EQ PUSH2 0x385 JUMPI DUP1 PUSH4 0xCE240D9C EQ PUSH2 0x3B5 JUMPI DUP1 PUSH4 0xE744D789 EQ PUSH2 0x3D1 JUMPI DUP1 PUSH4 0xF0EB5E54 EQ PUSH2 0x3ED JUMPI DUP1 PUSH4 0xF11ABFD8 EQ PUSH2 0x41D JUMPI DUP1 PUSH4 0xF2FDE38B EQ PUSH2 0x43B JUMPI PUSH2 0x158 JUMP JUMPDEST DUP1 PUSH4 0x84E79842 EQ PUSH2 0x2D9 JUMPI DUP1 PUSH4 0x8DA5CB5B EQ PUSH2 0x2F5 JUMPI DUP1 PUSH4 0x8E098CA1 EQ PUSH2 0x313 JUMPI DUP1 PUSH4 0x97A6278E EQ PUSH2 0x32F JUMPI DUP1 PUSH4 0xA8D29D1D EQ PUSH2 0x34B JUMPI DUP1 PUSH4 0xB4F3FCB7 EQ PUSH2 0x367 JUMPI PUSH2 0x158 JUMP JUMPDEST DUP1 PUSH4 0x5DBE47E8 GT PUSH2 0x115 JUMPI DUP1 PUSH4 0x5DBE47E8 EQ PUSH2 0x21B JUMPI DUP1 PUSH4 0x5E5741F3 EQ PUSH2 0x24B JUMPI DUP1 PUSH4 0x653DC9F1 EQ PUSH2 0x267 JUMPI DUP1 PUSH4 0x670AF6A9 EQ PUSH2 0x283 JUMPI DUP1 PUSH4 0x715018A6 EQ PUSH2 0x29F JUMPI DUP1 PUSH4 0x7E42683B EQ PUSH2 0x2A9 JUMPI PUSH2 0x158 JUMP JUMPDEST DUP1 PUSH4 0x1FFBB064 EQ PUSH2 0x15D JUMPI DUP1 PUSH4 0x26D941AE EQ PUSH2 0x18D JUMPI DUP1 PUSH4 0x3B239A7F EQ PUSH2 0x1A9 JUMPI DUP1 PUSH4 0x3B3E12F4 EQ PUSH2 0x1C5 JUMPI DUP1 PUSH4 0x454A03E0 EQ PUSH2 0x1E3 JUMPI DUP1 PUSH4 0x50BC7BDA EQ PUSH2 0x1FF JUMPI JUMPDEST PUSH1 0x0 DUP1 REVERT JUMPDEST PUSH2 0x177 PUSH1 0x4 DUP1 CALLDATASIZE SUB DUP2 ADD SWAP1 PUSH2 0x172 SWAP2 SWAP1 PUSH2 0x1E27 JUMP JUMPDEST PUSH2 0x457 JUMP JUMPDEST PUSH1 0x40 MLOAD PUSH2 0x184 SWAP2 SWAP1 PUSH2 0x248E JUMP JUMPDEST PUSH1 0x40 MLOAD DUP1 SWAP2 SUB SWAP1 RETURN JUMPDEST PUSH2 0x1A7 PUSH1 0x4 DUP1 CALLDATASIZE SUB DUP2 ADD SWAP1 PUSH2 0x1A2 SWAP2 SWAP1 PUSH2 0x1E27 JUMP JUMPDEST PUSH2 0x474 JUMP JUMPDEST STOP JUMPDEST PUSH2 0x1C3 PUSH1 0x4 DUP1 CALLDATASIZE SUB DUP2 ADD SWAP1 PUSH2 0x1BE SWAP2 SWAP1 PUSH2 0x1EE7 JUMP JUMPDEST PUSH2 0x503 JUMP JUMPDEST STOP JUMPDEST PUSH2 0x1CD PUSH2 0x626 JUMP JUMPDEST PUSH1 0x40 MLOAD PUSH2 0x1DA SWAP2 SWAP1 PUSH2 0x24C4 JUMP JUMPDEST PUSH1 0x40 MLOAD DUP1 SWAP2 SUB SWAP1 RETURN JUMPDEST PUSH2 0x1FD PUSH1 0x4 DUP1 CALLDATASIZE SUB DUP2 ADD SWAP1 PUSH2 0x1F8 SWAP2 SWAP1 PUSH2 0x1E94 JUMP JUMPDEST PUSH2 0x650 JUMP JUMPDEST STOP JUMPDEST PUSH2 0x219 PUSH1 0x4 DUP1 CALLDATASIZE SUB DUP2 ADD SWAP1 PUSH2 0x214 SWAP2 SWAP1 PUSH2 0x1E27 JUMP JUMPDEST PUSH2 0x788 JUMP JUMPDEST STOP JUMPDEST PUSH2 0x235 PUSH1 0x4 DUP1 CALLDATASIZE SUB DUP2 ADD SWAP1 PUSH2 0x230 SWAP2 SWAP1 PUSH2 0x1E27 JUMP JUMPDEST PUSH2 0x794 JUMP JUMPDEST PUSH1 0x40 MLOAD PUSH2 0x242 SWAP2 SWAP1 PUSH2 0x248E JUMP JUMPDEST PUSH1 0x40 MLOAD DUP1 SWAP2 SUB SWAP1 RETURN JUMPDEST PUSH2 0x265 PUSH1 0x4 DUP1 CALLDATASIZE SUB DUP2 ADD SWAP1 PUSH2 0x260 SWAP2 SWAP1 PUSH2 0x1E27 JUMP JUMPDEST PUSH2 0x7E5 JUMP JUMPDEST STOP JUMPDEST PUSH2 0x281 PUSH1 0x4 DUP1 CALLDATASIZE SUB DUP2 ADD SWAP1 PUSH2 0x27C SWAP2 SWAP1 PUSH2 0x1F27 JUMP JUMPDEST PUSH2 0x7F1 JUMP JUMPDEST STOP JUMPDEST PUSH2 0x29D PUSH1 0x4 DUP1 CALLDATASIZE SUB DUP2 ADD SWAP1 PUSH2 0x298 SWAP2 SWAP1 PUSH2 0x1E27 JUMP JUMPDEST PUSH2 0x89B JUMP JUMPDEST STOP JUMPDEST PUSH2 0x2A7 PUSH2 0x92A JUMP JUMPDEST STOP JUMPDEST PUSH2 0x2C3 PUSH1 0x4 DUP1 CALLDATASIZE SUB DUP2 ADD SWAP1 PUSH2 0x2BE SWAP2 SWAP1 PUSH2 0x1E27 JUMP JUMPDEST PUSH2 0x93E JUMP JUMPDEST PUSH1 0x40 MLOAD PUSH2 0x2D0 SWAP2 SWAP1 PUSH2 0x2643 JUMP JUMPDEST PUSH1 0x40 MLOAD DUP1 SWAP2 SUB SWAP1 RETURN JUMPDEST PUSH2 0x2F3 PUSH1 0x4 DUP1 CALLDATASIZE SUB DUP2 ADD SWAP1 PUSH2 0x2EE SWAP2 SWAP1 PUSH2 0x1E27 JUMP JUMPDEST PUSH2 0x9F2 JUMP JUMPDEST STOP JUMPDEST PUSH2 0x2FD PUSH2 0xA54 JUMP JUMPDEST PUSH1 0x40 MLOAD PUSH2 0x30A SWAP2 SWAP1 PUSH2 0x23C1 JUMP JUMPDEST PUSH1 0x40 MLOAD DUP1 SWAP2 SUB SWAP1 RETURN JUMPDEST PUSH2 0x32D PUSH1 0x4 DUP1 CALLDATASIZE SUB DUP2 ADD SWAP1 PUSH2 0x328 SWAP2 SWAP1 PUSH2 0x1E54 JUMP JUMPDEST PUSH2 0xA7D JUMP JUMPDEST STOP JUMPDEST PUSH2 0x349 PUSH1 0x4 DUP1 CALLDATASIZE SUB DUP2 ADD SWAP1 PUSH2 0x344 SWAP2 SWAP1 PUSH2 0x1E27 JUMP JUMPDEST PUSH2 0xBC0 JUMP JUMPDEST STOP JUMPDEST PUSH2 0x365 PUSH1 0x4 DUP1 CALLDATASIZE SUB DUP2 ADD SWAP1 PUSH2 0x360 SWAP2 SWAP1 PUSH2 0x1E27 JUMP JUMPDEST PUSH2 0xC22 JUMP JUMPDEST STOP JUMPDEST PUSH2 0x36F PUSH2 0xD5C JUMP JUMPDEST PUSH1 0x40 MLOAD PUSH2 0x37C SWAP2 SWAP1 PUSH2 0x2568 JUMP JUMPDEST PUSH1 0x40 MLOAD DUP1 SWAP2 SUB SWAP1 RETURN JUMPDEST PUSH2 0x39F PUSH1 0x4 DUP1 CALLDATASIZE SUB DUP2 ADD SWAP1 PUSH2 0x39A SWAP2 SWAP1 PUSH2 0x1E27 JUMP JUMPDEST PUSH2 0xD86 JUMP JUMPDEST PUSH1 0x40 MLOAD PUSH2 0x3AC SWAP2 SWAP1 PUSH2 0x248E JUMP JUMPDEST PUSH1 0x40 MLOAD DUP1 SWAP2 SUB SWAP1 RETURN JUMPDEST PUSH2 0x3CF PUSH1 0x4 DUP1 CALLDATASIZE SUB DUP2 ADD SWAP1 PUSH2 0x3CA SWAP2 SWAP1 PUSH2 0x1E27 JUMP JUMPDEST PUSH2 0x14E6 JUMP JUMPDEST STOP JUMPDEST PUSH2 0x3EB PUSH1 0x4 DUP1 CALLDATASIZE SUB DUP2 ADD SWAP1 PUSH2 0x3E6 SWAP2 SWAP1 PUSH2 0x1E27 JUMP JUMPDEST PUSH2 0x14FA JUMP JUMPDEST STOP JUMPDEST PUSH2 0x407 PUSH1 0x4 DUP1 CALLDATASIZE SUB DUP2 ADD SWAP1 PUSH2 0x402 SWAP2 SWAP1 PUSH2 0x1E27 JUMP JUMPDEST PUSH2 0x1589 JUMP JUMPDEST PUSH1 0x40 MLOAD PUSH2 0x414 SWAP2 SWAP1 PUSH2 0x24FA JUMP JUMPDEST PUSH1 0x40 MLOAD DUP1 SWAP2 SUB SWAP1 RETURN JUMPDEST PUSH2 0x425 PUSH2 0x163D JUMP JUMPDEST PUSH1 0x40 MLOAD PUSH2 0x432 SWAP2 SWAP1 PUSH2 0x24DF JUMP JUMPDEST PUSH1 0x40 MLOAD DUP1 SWAP2 SUB SWAP1 RETURN JUMPDEST PUSH2 0x455 PUSH1 0x4 DUP1 CALLDATASIZE SUB DUP2 ADD SWAP1 PUSH2 0x450 SWAP2 SWAP1 PUSH2 0x1E27 JUMP JUMPDEST PUSH2 0x1667 JUMP JUMPDEST STOP JUMPDEST PUSH1 0x0 PUSH2 0x46D DUP3 PUSH1 0x1 PUSH2 0x16EB SWAP1 SWAP2 SWAP1 PUSH4 0xFFFFFFFF AND JUMP JUMPDEST SWAP1 POP SWAP2 SWAP1 POP JUMP JUMPDEST PUSH2 0x47C PUSH2 0x17B3 JUMP JUMPDEST DUP1 PUSH1 0x4 PUSH1 0x0 PUSH2 0x100 EXP DUP2 SLOAD DUP2 PUSH20 0xFFFFFFFFFFFFFFFFFFFFFFFFFFFFFFFFFFFFFFFF MUL NOT AND SWAP1 DUP4 PUSH20 0xFFFFFFFFFFFFFFFFFFFFFFFFFFFFFFFFFFFFFFFF AND MUL OR SWAP1 SSTORE POP DUP1 PUSH20 0xFFFFFFFFFFFFFFFFFFFFFFFFFFFFFFFFFFFFFFFF AND PUSH32 0x2FA8B95C1DB7AFE99E3398F3792F008135CEDC1FA26B0BB2ECD2352CD166D53C PUSH1 0x40 MLOAD PUSH1 0x40 MLOAD DUP1 SWAP2 SUB SWAP1 LOG2 POP JUMP JUMPDEST PUSH2 0x50C CALLER PUSH2 0x457 JUMP JUMPDEST PUSH2 0x54B JUMPI PUSH1 0x40 MLOAD PUSH32 0x8C379A000000000000000000000000000000000000000000000000000000000 DUP2 MSTORE PUSH1 0x4 ADD PUSH2 0x542 SWAP1 PUSH2 0x25C3 JUMP JUMPDEST PUSH1 0x40 MLOAD DUP1 SWAP2 SUB SWAP1 REVERT JUMPDEST PUSH1 0x4 PUSH1 0x0 SWAP1 SLOAD SWAP1 PUSH2 0x100 EXP SWAP1 DIV PUSH20 0xFFFFFFFFFFFFFFFFFFFFFFFFFFFFFFFFFFFFFFFF AND PUSH20 0xFFFFFFFFFFFFFFFFFFFFFFFFFFFFFFFFFFFFFFFF AND PUSH4 0x9F3418D5 DUP4 DUP4 PUSH1 0x40 MLOAD DUP4 PUSH4 0xFFFFFFFF AND PUSH1 0xE0 SHL DUP2 MSTORE PUSH1 0x4 ADD PUSH2 0x5A8 SWAP3 SWAP2 SWAP1 PUSH2 0x243C JUMP JUMPDEST PUSH1 0x0 PUSH1 0x40 MLOAD DUP1 DUP4 SUB DUP2 PUSH1 0x0 DUP8 DUP1 EXTCODESIZE ISZERO DUP1 ISZERO PUSH2 0x5C2 JUMPI PUSH1 0x0 DUP1 REVERT JUMPDEST POP GAS CALL ISZERO DUP1 ISZERO PUSH2 0x5D6 JUMPI RETURNDATASIZE PUSH1 0x0 DUP1 RETURNDATACOPY RETURNDATASIZE PUSH1 0x0 REVERT JUMPDEST POP POP POP POP DUP1 PUSH2 0xFFFF AND DUP3 PUSH20 0xFFFFFFFFFFFFFFFFFFFFFFFFFFFFFFFFFFFFFFFF AND PUSH32 0x4ED3B726495C2DCA1FF1215D9CA54E1A4030ABB5E82B0F6CE55702416CEE853 PUSH1 0x40 MLOAD PUSH1 0x40 MLOAD DUP1 SWAP2 SUB SWAP1 LOG3 POP POP JUMP JUMPDEST PUSH1 0x0 PUSH1 0x2 PUSH1 0x0 SWAP1 SLOAD SWAP1 PUSH2 0x100 EXP SWAP1 DIV PUSH20 0xFFFFFFFFFFFFFFFFFFFFFFFFFFFFFFFFFFFFFFFF AND SWAP1 POP SWAP1 JUMP JUMPDEST PUSH2 0x659 CALLER PUSH2 0x457 JUMP JUMPDEST PUSH2 0x698 JUMPI PUSH1 0x40 MLOAD PUSH32 0x8C379A000000000000000000000000000000000000000000000000000000000 DUP2 MSTORE PUSH1 0x4 ADD PUSH2 0x68F SWAP1 PUSH2 0x25C3 JUMP JUMPDEST PUSH1 0x40 MLOAD DUP1 SWAP2 SUB SWAP1 REVERT JUMPDEST PUSH1 0x4 PUSH1 0x0 SWAP1 SLOAD SWAP1 PUSH2 0x100 EXP SWAP1 DIV PUSH20 0xFFFFFFFFFFFFFFFFFFFFFFFFFFFFFFFFFFFFFFFF AND PUSH20 0xFFFFFFFFFFFFFFFFFFFFFFFFFFFFFFFFFFFFFFFF AND PUSH4 0xA53410DD DUP5 DUP5 DUP5 PUSH1 0x40 MLOAD DUP5 PUSH4 0xFFFFFFFF AND PUSH1 0xE0 SHL DUP2 MSTORE PUSH1 0x4 ADD PUSH2 0x6F7 SWAP4 SWAP3 SWAP2 SWAP1 PUSH2 0x2405 JUMP JUMPDEST PUSH1 0x0 PUSH1 0x40 MLOAD DUP1 DUP4 SUB DUP2 PUSH1 0x0 DUP8 DUP1 EXTCODESIZE ISZERO DUP1 ISZERO PUSH2 0x711 JUMPI PUSH1 0x0 DUP1 REVERT JUMPDEST POP GAS CALL ISZERO DUP1 ISZERO PUSH2 0x725 JUMPI RETURNDATASIZE PUSH1 0x0 DUP1 RETURNDATACOPY RETURNDATASIZE PUSH1 0x0 REVERT JUMPDEST POP POP POP POP DUP2 PUSH20 0xFFFFFFFFFFFFFFFFFFFFFFFFFFFFFFFFFFFFFFFF AND DUP4 PUSH20 0xFFFFFFFFFFFFFFFFFFFFFFFFFFFFFFFFFFFFFFFF AND PUSH32 0x6AE73635C50D24A45AF6FBD5E016AC4BED179ADDBC8BF24E04FF0FCC6D33AF19 PUSH1 0x40 MLOAD PUSH1 0x40 MLOAD DUP1 SWAP2 SUB SWAP1 LOG3 POP POP POP JUMP JUMPDEST PUSH2 0x791 DUP2 PUSH2 0x9F2 JUMP JUMPDEST POP JUMP JUMPDEST PUSH1 0x0 DUP1 PUSH20 0xFFFFFFFFFFFFFFFFFFFFFFFFFFFFFFFFFFFFFFFF AND PUSH2 0x7B6 DUP4 PUSH2 0x1589 JUMP JUMPDEST PUSH20 0xFFFFFFFFFFFFFFFFFFFFFFFFFFFFFFFFFFFFFFFF AND EQ ISZERO PUSH2 0x7DB JUMPI PUSH1 0x0 SWAP1 POP PUSH2 0x7E0 JUMP JUMPDEST PUSH1 0x1 SWAP1 POP JUMPDEST SWAP2 SWAP1 POP JUMP JUMPDEST PUSH2 0x7EE DUP2 PUSH2 0xBC0 JUMP JUMPDEST POP JUMP JUMPDEST PUSH1 0x0 JUMPDEST DUP7 DUP7 SWAP1 POP DUP2 LT ISZERO PUSH2 0x892 JUMPI PUSH2 0x87F DUP8 DUP8 DUP4 DUP2 DUP2 LT PUSH2 0x815 JUMPI PUSH2 0x814 PUSH2 0x2973 JUMP JUMPDEST JUMPDEST SWAP1 POP PUSH1 0x20 MUL ADD PUSH1 0x20 DUP2 ADD SWAP1 PUSH2 0x82A SWAP2 SWAP1 PUSH2 0x1E27 JUMP JUMPDEST DUP7 DUP7 DUP5 DUP2 DUP2 LT PUSH2 0x83D JUMPI PUSH2 0x83C PUSH2 0x2973 JUMP JUMPDEST JUMPDEST SWAP1 POP PUSH1 0x20 MUL ADD PUSH1 0x20 DUP2 ADD SWAP1 PUSH2 0x852 SWAP2 SWAP1 PUSH2 0x209A JUMP JUMPDEST DUP6 DUP6 DUP6 DUP2 DUP2 LT PUSH2 0x865 JUMPI PUSH2 0x864 PUSH2 0x2973 JUMP JUMPDEST JUMPDEST SWAP1 POP PUSH1 0x20 MUL ADD PUSH1 0x20 DUP2 ADD SWAP1 PUSH2 0x87A SWAP2 SWAP1 PUSH2 0x20F4 JUMP JUMPDEST PUSH2 0x650 JUMP JUMPDEST DUP1 DUP1 PUSH2 0x88A SWAP1 PUSH2 0x28FB JUMP JUMPDEST SWAP2 POP POP PUSH2 0x7F4 JUMP JUMPDEST POP POP POP POP POP POP POP JUMP JUMPDEST PUSH2 0x8A3 PUSH2 0x17B3 JUMP JUMPDEST DUP1 PUSH1 0x2 PUSH1 0x0 PUSH2 0x100 EXP DUP2 SLOAD DUP2 PUSH20 0xFFFFFFFFFFFFFFFFFFFFFFFFFFFFFFFFFFFFFFFF MUL NOT AND SWAP1 DUP4 PUSH20 0xFFFFFFFFFFFFFFFFFFFFFFFFFFFFFFFFFFFFFFFF AND MUL OR SWAP1 SSTORE POP DUP1 PUSH20 0xFFFFFFFFFFFFFFFFFFFFFFFFFFFFFFFFFFFFFFFF AND PUSH32 0x7170BF15B246E880B2369CD7C67D057760D8A35149E8C64DDE91EFA22BCC76D0 PUSH1 0x40 MLOAD PUSH1 0x40 MLOAD DUP1 SWAP2 SUB SWAP1 LOG2 POP JUMP JUMPDEST PUSH2 0x932 PUSH2 0x17B3 JUMP JUMPDEST PUSH2 0x93C PUSH1 0x0 PUSH2 0x1831 JUMP JUMPDEST JUMP JUMPDEST PUSH1 0x0 PUSH1 0x4 PUSH1 0x0 SWAP1 SLOAD SWAP1 PUSH2 0x100 EXP SWAP1 DIV PUSH20 0xFFFFFFFFFFFFFFFFFFFFFFFFFFFFFFFFFFFFFFFF AND PUSH20 0xFFFFFFFFFFFFFFFFFFFFFFFFFFFFFFFFFFFFFFFF AND PUSH4 0x727E13BC DUP4 PUSH1 0x40 MLOAD DUP3 PUSH4 0xFFFFFFFF AND PUSH1 0xE0 SHL DUP2 MSTORE PUSH1 0x4 ADD PUSH2 0x99B SWAP2 SWAP1 PUSH2 0x23C1 JUMP JUMPDEST PUSH1 0x20 PUSH1 0x40 MLOAD DUP1 DUP4 SUB DUP2 DUP7 DUP1 EXTCODESIZE ISZERO DUP1 ISZERO PUSH2 0x9B3 JUMPI PUSH1 0x0 DUP1 REVERT JUMPDEST POP GAS STATICCALL ISZERO DUP1 ISZERO PUSH2 0x9C7 JUMPI RETURNDATASIZE PUSH1 0x0 DUP1 RETURNDATACOPY RETURNDATASIZE PUSH1 0x0 REVERT JUMPDEST POP POP POP POP PUSH1 0x40 MLOAD RETURNDATASIZE PUSH1 0x1F NOT PUSH1 0x1F DUP3 ADD AND DUP3 ADD DUP1 PUSH1 0x40 MSTORE POP DUP2 ADD SWAP1 PUSH2 0x9EB SWAP2 SWAP1 PUSH2 0x2121 JUMP JUMPDEST SWAP1 POP SWAP2 SWAP1 POP JUMP JUMPDEST PUSH2 0x9FA PUSH2 0x17B3 JUMP JUMPDEST PUSH2 0xA0E DUP2 PUSH1 0x1 PUSH2 0x18F5 SWAP1 SWAP2 SWAP1 PUSH4 0xFFFFFFFF AND JUMP JUMPDEST DUP1 PUSH20 0xFFFFFFFFFFFFFFFFFFFFFFFFFFFFFFFFFFFFFFFF AND PUSH32 0xF68E73CEC97F2D70AA641FB26E87A4383686E2EFACB648F2165AEB02AC562EC5 PUSH1 0x40 MLOAD PUSH1 0x40 MLOAD DUP1 SWAP2 SUB SWAP1 LOG2 POP JUMP JUMPDEST PUSH1 0x0 DUP1 PUSH1 0x0 SWAP1 SLOAD SWAP1 PUSH2 0x100 EXP SWAP1 DIV PUSH20 0xFFFFFFFFFFFFFFFFFFFFFFFFFFFFFFFFFFFFFFFF AND SWAP1 POP SWAP1 JUMP JUMPDEST PUSH2 0xA86 CALLER PUSH2 0x457 JUMP JUMPDEST PUSH2 0xAC5 JUMPI PUSH1 0x40 MLOAD PUSH32 0x8C379A000000000000000000000000000000000000000000000000000000000 DUP2 MSTORE PUSH1 0x4 ADD PUSH2 0xABC SWAP1 PUSH2 0x25C3 JUMP JUMPDEST PUSH1 0x40 MLOAD DUP1 SWAP2 SUB SWAP1 REVERT JUMPDEST PUSH1 0x0 PUSH2 0xAD0 DUP4 PUSH2 0x1589 JUMP JUMPDEST SWAP1 POP PUSH1 0x4 PUSH1 0x0 SWAP1 SLOAD SWAP1 PUSH2 0x100 EXP SWAP1 DIV PUSH20 0xFFFFFFFFFFFFFFFFFFFFFFFFFFFFFFFFFFFFFFFF AND PUSH20 0xFFFFFFFFFFFFFFFFFFFFFFFFFFFFFFFFFFFFFFFF AND PUSH4 0xE805CF86 DUP5 DUP5 PUSH1 0x40 MLOAD DUP4 PUSH4 0xFFFFFFFF AND PUSH1 0xE0 SHL DUP2 MSTORE PUSH1 0x4 ADD PUSH2 0xB2F SWAP3 SWAP2 SWAP1 PUSH2 0x23DC JUMP JUMPDEST PUSH1 0x0 PUSH1 0x40 MLOAD DUP1 DUP4 SUB DUP2 PUSH1 0x0 DUP8 DUP1 EXTCODESIZE ISZERO DUP1 ISZERO PUSH2 0xB49 JUMPI PUSH1 0x0 DUP1 REVERT JUMPDEST POP GAS CALL ISZERO DUP1 ISZERO PUSH2 0xB5D JUMPI RETURNDATASIZE PUSH1 0x0 DUP1 RETURNDATACOPY RETURNDATASIZE PUSH1 0x0 REVERT JUMPDEST POP POP POP POP DUP2 PUSH20 0xFFFFFFFFFFFFFFFFFFFFFFFFFFFFFFFFFFFFFFFF AND DUP2 PUSH20 0xFFFFFFFFFFFFFFFFFFFFFFFFFFFFFFFFFFFFFFFF AND PUSH32 0xE98082932C8056A0F514DA9104E4A66BC2CBAEF102AD59D90C4B24220EBF6010 PUSH1 0x40 MLOAD PUSH1 0x40 MLOAD DUP1 SWAP2 SUB SWAP1 LOG3 POP POP POP JUMP JUMPDEST PUSH2 0xBC8 PUSH2 0x17B3 JUMP JUMPDEST PUSH2 0xBDC DUP2 PUSH1 0x1 PUSH2 0x199D SWAP1 SWAP2 SWAP1 PUSH4 0xFFFFFFFF AND JUMP JUMPDEST DUP1 PUSH20 0xFFFFFFFFFFFFFFFFFFFFFFFFFFFFFFFFFFFFFFFF AND PUSH32 0xED9C8AD8D5A0A66898EA49D2956929C93AE2E8BD50281B2ED897C5D1A6737E0B PUSH1 0x40 MLOAD PUSH1 0x40 MLOAD DUP1 SWAP2 SUB SWAP1 LOG2 POP JUMP JUMPDEST PUSH2 0xC2B CALLER PUSH2 0x457 JUMP JUMPDEST PUSH2 0xC6A JUMPI PUSH1 0x40 MLOAD PUSH32 0x8C379A000000000000000000000000000000000000000000000000000000000 DUP2 MSTORE PUSH1 0x4 ADD PUSH2 0xC61 SWAP1 PUSH2 0x25C3 JUMP JUMPDEST PUSH1 0x40 MLOAD DUP1 SWAP2 SUB SWAP1 REVERT JUMPDEST PUSH1 0x4 PUSH1 0x0 SWAP1 SLOAD SWAP1 PUSH2 0x100 EXP SWAP1 DIV PUSH20 0xFFFFFFFFFFFFFFFFFFFFFFFFFFFFFFFFFFFFFFFF AND PUSH20 0xFFFFFFFFFFFFFFFFFFFFFFFFFFFFFFFFFFFFFFFF AND PUSH4 0xCF191BCD DUP3 PUSH1 0x40 MLOAD DUP3 PUSH4 0xFFFFFFFF AND PUSH1 0xE0 SHL DUP2 MSTORE PUSH1 0x4 ADD PUSH2 0xCC5 SWAP2 SWAP1 PUSH2 0x23C1 JUMP JUMPDEST PUSH1 0x0 PUSH1 0x40 MLOAD DUP1 DUP4 SUB DUP2 PUSH1 0x0 DUP8 DUP1 EXTCODESIZE ISZERO DUP1 ISZERO PUSH2 0xCDF JUMPI PUSH1 0x0 DUP1 REVERT JUMPDEST POP GAS CALL ISZERO DUP1 ISZERO PUSH2 0xCF3 JUMPI RETURNDATASIZE PUSH1 0x0 DUP1 RETURNDATACOPY RETURNDATASIZE PUSH1 0x0 REVERT JUMPDEST POP POP POP POP PUSH2 0xD00 DUP2 PUSH2 0x1589 JUMP JUMPDEST PUSH20 0xFFFFFFFFFFFFFFFFFFFFFFFFFFFFFFFFFFFFFFFF AND DUP2 PUSH20 0xFFFFFFFFFFFFFFFFFFFFFFFFFFFFFFFFFFFFFFFF AND PUSH32 0x59D6590E225B81BEFE259AF056324092801080ACBB7FEAB310EB34678871F327 PUSH1 0x40 MLOAD PUSH1 0x40 MLOAD DUP1 SWAP2 SUB SWAP1 LOG3 POP JUMP JUMPDEST PUSH1 0x0 PUSH1 0x3 PUSH1 0x0 SWAP1 SLOAD SWAP1 PUSH2 0x100 EXP SWAP1 DIV PUSH20 0xFFFFFFFFFFFFFFFFFFFFFFFFFFFFFFFFFFFFFFFF AND SWAP1 POP SWAP1 JUMP JUMPDEST PUSH1 0x0 DUP1 PUSH20 0xFFFFFFFFFFFFFFFFFFFFFFFFFFFFFFFFFFFFFFFF AND PUSH2 0xDA8 DUP4 PUSH2 0x1589 JUMP JUMPDEST PUSH20 0xFFFFFFFFFFFFFFFFFFFFFFFFFFFFFFFFFFFFFFFF AND EQ ISZERO PUSH2 0xDCD JUMPI PUSH1 0x0 SWAP1 POP PUSH2 0x14E1 JUMP JUMPDEST PUSH1 0x0 PUSH1 0x2 PUSH1 0x0 SWAP1 SLOAD SWAP1 PUSH2 0x100 EXP SWAP1 DIV PUSH20 0xFFFFFFFFFFFFFFFFFFFFFFFFFFFFFFFFFFFFFFFF AND PUSH20 0xFFFFFFFFFFFFFFFFFFFFFFFFFFFFFFFFFFFFFFFF AND PUSH4 0xDF09D604 PUSH1 0x40 MLOAD DUP2 PUSH4 0xFFFFFFFF AND PUSH1 0xE0 SHL DUP2 MSTORE PUSH1 0x4 ADD PUSH1 0x0 PUSH1 0x40 MLOAD DUP1 DUP4 SUB DUP2 DUP7 DUP1 EXTCODESIZE ISZERO DUP1 ISZERO PUSH2 0xE37 JUMPI PUSH1 0x0 DUP1 REVERT JUMPDEST POP GAS STATICCALL ISZERO DUP1 ISZERO PUSH2 0xE4B JUMPI RETURNDATASIZE PUSH1 0x0 DUP1 RETURNDATACOPY RETURNDATASIZE PUSH1 0x0 REVERT JUMPDEST POP POP POP POP PUSH1 0x40 MLOAD RETURNDATASIZE PUSH1 0x0 DUP3 RETURNDATACOPY RETURNDATASIZE PUSH1 0x1F NOT PUSH1 0x1F DUP3 ADD AND DUP3 ADD DUP1 PUSH1 0x40 MSTORE POP DUP2 ADD SWAP1 PUSH2 0xE74 SWAP2 SWAP1 PUSH2 0x2024 JUMP JUMPDEST SWAP1 POP PUSH1 0x0 DUP2 MLOAD EQ ISZERO PUSH2 0xE8A JUMPI PUSH1 0x1 SWAP2 POP POP PUSH2 0x14E1 JUMP JUMPDEST PUSH1 0x0 DUP1 PUSH1 0x0 PUSH1 0x60 DUP1 PUSH1 0x0 JUMPDEST DUP7 MLOAD DUP2 LT ISZERO PUSH2 0x14D5 JUMPI PUSH1 0x0 PUSH2 0xEA9 DUP11 PUSH2 0x1589 JUMP JUMPDEST PUSH20 0xFFFFFFFFFFFFFFFFFFFFFFFFFFFFFFFFFFFFFFFF AND PUSH4 0x80E9E9E1 DUP10 DUP5 DUP2 MLOAD DUP2 LT PUSH2 0xED7 JUMPI PUSH2 0xED6 PUSH2 0x2973 JUMP JUMPDEST JUMPDEST PUSH1 0x20 MUL PUSH1 0x20 ADD ADD MLOAD PUSH1 0x40 MLOAD DUP3 PUSH4 0xFFFFFFFF AND PUSH1 0xE0 SHL DUP2 MSTORE PUSH1 0x4 ADD PUSH2 0xEFB SWAP2 SWAP1 PUSH2 0x265E JUMP JUMPDEST PUSH1 0x0 PUSH1 0x40 MLOAD DUP1 DUP4 SUB DUP2 DUP7 DUP1 EXTCODESIZE ISZERO DUP1 ISZERO PUSH2 0xF13 JUMPI PUSH1 0x0 DUP1 REVERT JUMPDEST POP GAS STATICCALL ISZERO DUP1 ISZERO PUSH2 0xF27 JUMPI RETURNDATASIZE PUSH1 0x0 DUP1 RETURNDATACOPY RETURNDATASIZE PUSH1 0x0 REVERT JUMPDEST POP POP POP POP PUSH1 0x40 MLOAD RETURNDATASIZE PUSH1 0x0 DUP3 RETURNDATACOPY RETURNDATASIZE PUSH1 0x1F NOT PUSH1 0x1F DUP3 ADD AND DUP3 ADD DUP1 PUSH1 0x40 MSTORE POP DUP2 ADD SWAP1 PUSH2 0xF50 SWAP2 SWAP1 PUSH2 0x1FDB JUMP JUMPDEST SWAP1 POP PUSH1 0x0 DUP2 MLOAD EQ ISZERO PUSH2 0xF6D JUMPI PUSH1 0x0 SWAP9 POP POP POP POP POP POP POP POP POP PUSH2 0x14E1 JUMP JUMPDEST PUSH1 0x0 JUMPDEST DUP2 MLOAD DUP2 LT ISZERO PUSH2 0x14C0 JUMPI PUSH2 0xF82 DUP12 PUSH2 0x1589 JUMP JUMPDEST PUSH20 0xFFFFFFFFFFFFFFFFFFFFFFFFFFFFFFFFFFFFFFFF AND PUSH4 0xC9100BCB DUP4 DUP4 DUP2 MLOAD DUP2 LT PUSH2 0xFB0 JUMPI PUSH2 0xFAF PUSH2 0x2973 JUMP JUMPDEST JUMPDEST PUSH1 0x20 MUL PUSH1 0x20 ADD ADD MLOAD PUSH1 0x40 MLOAD DUP3 PUSH4 0xFFFFFFFF AND PUSH1 0xE0 SHL DUP2 MSTORE PUSH1 0x4 ADD PUSH2 0xFD4 SWAP2 SWAP1 PUSH2 0x24A9 JUMP JUMPDEST PUSH1 0x0 PUSH1 0x40 MLOAD DUP1 DUP4 SUB DUP2 DUP7 DUP1 EXTCODESIZE ISZERO DUP1 ISZERO PUSH2 0xFEC JUMPI PUSH1 0x0 DUP1 REVERT JUMPDEST POP GAS STATICCALL ISZERO DUP1 ISZERO PUSH2 0x1000 JUMPI RETURNDATASIZE PUSH1 0x0 DUP1 RETURNDATACOPY RETURNDATASIZE PUSH1 0x0 REVERT JUMPDEST POP POP POP POP PUSH1 0x40 MLOAD RETURNDATASIZE PUSH1 0x0 DUP3 RETURNDATACOPY RETURNDATASIZE PUSH1 0x1F NOT PUSH1 0x1F DUP3 ADD AND DUP3 ADD DUP1 PUSH1 0x40 MSTORE POP DUP2 ADD SWAP1 PUSH2 0x1029 SWAP2 SWAP1 PUSH2 0x214E JUMP JUMPDEST POP DUP1 SWAP9 POP DUP2 SWAP10 POP DUP3 SWAP11 POP DUP4 SWAP12 POP DUP5 SWAP13 POP POP POP POP POP POP DUP6 PUSH20 0xFFFFFFFFFFFFFFFFFFFFFFFFFFFFFFFFFFFFFFFF AND PUSH4 0xC0969A6E PUSH2 0x1063 DUP14 PUSH2 0x1589 JUMP JUMPDEST DUP12 DUP7 DUP2 MLOAD DUP2 LT PUSH2 0x1076 JUMPI PUSH2 0x1075 PUSH2 0x2973 JUMP JUMPDEST JUMPDEST PUSH1 0x20 MUL PUSH1 0x20 ADD ADD MLOAD DUP9 DUP9 PUSH1 0x40 MLOAD DUP6 PUSH4 0xFFFFFFFF AND PUSH1 0xE0 SHL DUP2 MSTORE PUSH1 0x4 ADD PUSH2 0x109F SWAP5 SWAP4 SWAP3 SWAP2 SWAP1 PUSH2 0x2515 JUMP JUMPDEST PUSH1 0x20 PUSH1 0x40 MLOAD DUP1 DUP4 SUB DUP2 DUP7 DUP1 EXTCODESIZE ISZERO DUP1 ISZERO PUSH2 0x10B7 JUMPI PUSH1 0x0 DUP1 REVERT JUMPDEST POP GAS STATICCALL SWAP3 POP POP POP DUP1 ISZERO PUSH2 0x10E8 JUMPI POP PUSH1 0x40 MLOAD RETURNDATASIZE PUSH1 0x1F NOT PUSH1 0x1F DUP3 ADD AND DUP3 ADD DUP1 PUSH1 0x40 MSTORE POP DUP2 ADD SWAP1 PUSH2 0x10E5 SWAP2 SWAP1 PUSH2 0x206D JUMP JUMPDEST PUSH1 0x1 JUMPDEST PUSH2 0x1118 JUMPI PUSH1 0x1 DUP3 MLOAD PUSH2 0x10FA SWAP2 SWAP1 PUSH2 0x2785 JUMP JUMPDEST DUP2 EQ ISZERO PUSH2 0x1113 JUMPI PUSH1 0x0 SWAP10 POP POP POP POP POP POP POP POP POP POP PUSH2 0x14E1 JUMP JUMPDEST PUSH2 0x14AD JUMP JUMPDEST DUP1 DUP1 ISZERO PUSH2 0x11E8 JUMPI POP PUSH1 0x3 PUSH1 0x0 SWAP1 SLOAD SWAP1 PUSH2 0x100 EXP SWAP1 DIV PUSH20 0xFFFFFFFFFFFFFFFFFFFFFFFFFFFFFFFFFFFFFFFF AND PUSH20 0xFFFFFFFFFFFFFFFFFFFFFFFFFFFFFFFFFFFFFFFF AND PUSH4 0x34A89987 DUP9 DUP13 DUP8 DUP2 MLOAD DUP2 LT PUSH2 0x1172 JUMPI PUSH2 0x1171 PUSH2 0x2973 JUMP JUMPDEST JUMPDEST PUSH1 0x20 MUL PUSH1 0x20 ADD ADD MLOAD PUSH1 0x40 MLOAD DUP4 PUSH4 0xFFFFFFFF AND PUSH1 0xE0 SHL DUP2 MSTORE PUSH1 0x4 ADD PUSH2 0x1197 SWAP3 SWAP2 SWAP1 PUSH2 0x2465 JUMP JUMPDEST PUSH1 0x20 PUSH1 0x40 MLOAD DUP1 DUP4 SUB DUP2 DUP7 DUP1 EXTCODESIZE ISZERO DUP1 ISZERO PUSH2 0x11AF JUMPI PUSH1 0x0 DUP1 REVERT JUMPDEST POP GAS STATICCALL ISZERO DUP1 ISZERO PUSH2 0x11C3 JUMPI RETURNDATASIZE PUSH1 0x0 DUP1 RETURNDATACOPY RETURNDATASIZE PUSH1 0x0 REVERT JUMPDEST POP POP POP POP PUSH1 0x40 MLOAD RETURNDATASIZE PUSH1 0x1F NOT PUSH1 0x1F DUP3 ADD AND DUP3 ADD DUP1 PUSH1 0x40 MSTORE POP DUP2 ADD SWAP1 PUSH2 0x11E7 SWAP2 SWAP1 PUSH2 0x206D JUMP JUMPDEST JUMPDEST DUP1 ISZERO PUSH2 0x129B JUMPI POP PUSH1 0x3 PUSH1 0x0 SWAP1 SLOAD SWAP1 PUSH2 0x100 EXP SWAP1 DIV PUSH20 0xFFFFFFFFFFFFFFFFFFFFFFFFFFFFFFFFFFFFFFFF AND PUSH20 0xFFFFFFFFFFFFFFFFFFFFFFFFFFFFFFFFFFFFFFFF AND PUSH4 0xEF2ED1A4 DUP9 PUSH1 0x40 MLOAD DUP3 PUSH4 0xFFFFFFFF AND PUSH1 0xE0 SHL DUP2 MSTORE PUSH1 0x4 ADD PUSH2 0x124A SWAP2 SWAP1 PUSH2 0x23C1 JUMP JUMPDEST PUSH1 0x20 PUSH1 0x40 MLOAD DUP1 DUP4 SUB DUP2 DUP7 DUP1 EXTCODESIZE ISZERO DUP1 ISZERO PUSH2 0x1262 JUMPI PUSH1 0x0 DUP1 REVERT JUMPDEST POP GAS STATICCALL ISZERO DUP1 ISZERO PUSH2 0x1276 JUMPI RETURNDATASIZE PUSH1 0x0 DUP1 RETURNDATACOPY RETURNDATASIZE PUSH1 0x0 REVERT JUMPDEST POP POP POP POP PUSH1 0x40 MLOAD RETURNDATASIZE PUSH1 0x1F NOT PUSH1 0x1F DUP3 ADD AND DUP3 ADD DUP1 PUSH1 0x40 MSTORE POP DUP2 ADD SWAP1 PUSH2 0x129A SWAP2 SWAP1 PUSH2 0x206D JUMP JUMPDEST JUMPDEST ISZERO PUSH2 0x12A5 JUMPI DUP3 MLOAD SWAP2 POP JUMPDEST PUSH1 0x3 PUSH1 0x0 SWAP1 SLOAD SWAP1 PUSH2 0x100 EXP SWAP1 DIV PUSH20 0xFFFFFFFFFFFFFFFFFFFFFFFFFFFFFFFFFFFFFFFF AND PUSH20 0xFFFFFFFFFFFFFFFFFFFFFFFFFFFFFFFFFFFFFFFF AND PUSH4 0xEF2ED1A4 DUP9 PUSH1 0x40 MLOAD DUP3 PUSH4 0xFFFFFFFF AND PUSH1 0xE0 SHL DUP2 MSTORE PUSH1 0x4 ADD PUSH2 0x1300 SWAP2 SWAP1 PUSH2 0x23C1 JUMP JUMPDEST PUSH1 0x20 PUSH1 0x40 MLOAD DUP1 DUP4 SUB DUP2 DUP7 DUP1 EXTCODESIZE ISZERO DUP1 ISZERO PUSH2 0x1318 JUMPI PUSH1 0x0 DUP1 REVERT JUMPDEST POP GAS STATICCALL ISZERO DUP1 ISZERO PUSH2 0x132C JUMPI RETURNDATASIZE PUSH1 0x0 DUP1 RETURNDATACOPY RETURNDATASIZE PUSH1 0x0 REVERT JUMPDEST POP POP POP POP PUSH1 0x40 MLOAD RETURNDATASIZE PUSH1 0x1F NOT PUSH1 0x1F DUP3 ADD AND DUP3 ADD DUP1 PUSH1 0x40 MSTORE POP DUP2 ADD SWAP1 PUSH2 0x1350 SWAP2 SWAP1 PUSH2 0x206D JUMP JUMPDEST ISZERO DUP1 ISZERO PUSH2 0x1369 JUMPI POP PUSH1 0x1 DUP4 MLOAD PUSH2 0x1366 SWAP2 SWAP1 PUSH2 0x2785 JUMP JUMPDEST DUP3 EQ JUMPDEST ISZERO PUSH2 0x1381 JUMPI PUSH1 0x0 SWAP11 POP POP POP POP POP POP POP POP POP POP POP PUSH2 0x14E1 JUMP JUMPDEST PUSH1 0x3 PUSH1 0x0 SWAP1 SLOAD SWAP1 PUSH2 0x100 EXP SWAP1 DIV PUSH20 0xFFFFFFFFFFFFFFFFFFFFFFFFFFFFFFFFFFFFFFFF AND PUSH20 0xFFFFFFFFFFFFFFFFFFFFFFFFFFFFFFFFFFFFFFFF AND PUSH4 0x34A89987 DUP9 DUP13 DUP8 DUP2 MLOAD DUP2 LT PUSH2 0x13D3 JUMPI PUSH2 0x13D2 PUSH2 0x2973 JUMP JUMPDEST JUMPDEST PUSH1 0x20 MUL PUSH1 0x20 ADD ADD MLOAD PUSH1 0x40 MLOAD DUP4 PUSH4 0xFFFFFFFF AND PUSH1 0xE0 SHL DUP2 MSTORE PUSH1 0x4 ADD PUSH2 0x13F8 SWAP3 SWAP2 SWAP1 PUSH2 0x2465 JUMP JUMPDEST PUSH1 0x20 PUSH1 0x40 MLOAD DUP1 DUP4 SUB DUP2 DUP7 DUP1 EXTCODESIZE ISZERO DUP1 ISZERO PUSH2 0x1410 JUMPI PUSH1 0x0 DUP1 REVERT JUMPDEST POP GAS STATICCALL ISZERO DUP1 ISZERO PUSH2 0x1424 JUMPI RETURNDATASIZE PUSH1 0x0 DUP1 RETURNDATACOPY RETURNDATASIZE PUSH1 0x0 REVERT JUMPDEST POP POP POP POP PUSH1 0x40 MLOAD RETURNDATASIZE PUSH1 0x1F NOT PUSH1 0x1F DUP3 ADD AND DUP3 ADD DUP1 PUSH1 0x40 MSTORE POP DUP2 ADD SWAP1 PUSH2 0x1448 SWAP2 SWAP1 PUSH2 0x206D JUMP JUMPDEST ISZERO DUP1 ISZERO PUSH2 0x1461 JUMPI POP PUSH1 0x1 DUP4 MLOAD PUSH2 0x145E SWAP2 SWAP1 PUSH2 0x2785 JUMP JUMPDEST DUP3 EQ JUMPDEST ISZERO PUSH2 0x1479 JUMPI PUSH1 0x0 SWAP11 POP POP POP POP POP POP POP POP POP POP POP PUSH2 0x14E1 JUMP JUMPDEST DUP1 ISZERO DUP1 ISZERO PUSH2 0x1493 JUMPI POP PUSH1 0x1 DUP4 MLOAD PUSH2 0x1490 SWAP2 SWAP1 PUSH2 0x2785 JUMP JUMPDEST DUP3 EQ JUMPDEST ISZERO PUSH2 0x14AB JUMPI PUSH1 0x0 SWAP11 POP POP POP POP POP POP POP POP POP POP POP PUSH2 0x14E1 JUMP JUMPDEST POP JUMPDEST DUP1 DUP1 PUSH2 0x14B8 SWAP1 PUSH2 0x28FB JUMP JUMPDEST SWAP2 POP POP PUSH2 0xF70 JUMP JUMPDEST POP POP DUP1 DUP1 PUSH2 0x14CD SWAP1 PUSH2 0x28FB JUMP JUMPDEST SWAP2 POP POP PUSH2 0xE95 JUMP JUMPDEST PUSH1 0x1 SWAP8 POP POP POP POP POP POP POP POP JUMPDEST SWAP2 SWAP1 POP JUMP JUMPDEST PUSH2 0x14EE PUSH2 0x17B3 JUMP JUMPDEST PUSH2 0x14F7 DUP2 PUSH2 0x1667 JUMP JUMPDEST POP JUMP JUMPDEST PUSH2 0x1502 PUSH2 0x17B3 JUMP JUMPDEST DUP1 PUSH1 0x3 PUSH1 0x0 PUSH2 0x100 EXP DUP2 SLOAD DUP2 PUSH20 0xFFFFFFFFFFFFFFFFFFFFFFFFFFFFFFFFFFFFFFFF MUL NOT AND SWAP1 DUP4 PUSH20 0xFFFFFFFFFFFFFFFFFFFFFFFFFFFFFFFFFFFFFFFF AND MUL OR SWAP1 SSTORE POP DUP1 PUSH20 0xFFFFFFFFFFFFFFFFFFFFFFFFFFFFFFFFFFFFFFFF AND PUSH32 0x1B98CB79E6F73020175FE87333F1B91AD6A881519C0AFE30340C2599B2B4BDE0 PUSH1 0x40 MLOAD PUSH1 0x40 MLOAD DUP1 SWAP2 SUB SWAP1 LOG2 POP JUMP JUMPDEST PUSH1 0x0 PUSH1 0x4 PUSH1 0x0 SWAP1 SLOAD SWAP1 PUSH2 0x100 EXP SWAP1 DIV PUSH20 0xFFFFFFFFFFFFFFFFFFFFFFFFFFFFFFFFFFFFFFFF AND PUSH20 0xFFFFFFFFFFFFFFFFFFFFFFFFFFFFFFFFFFFFFFFF AND PUSH4 0x7988D3A5 DUP4 PUSH1 0x40 MLOAD DUP3 PUSH4 0xFFFFFFFF AND PUSH1 0xE0 SHL DUP2 MSTORE PUSH1 0x4 ADD PUSH2 0x15E6 SWAP2 SWAP1 PUSH2 0x23C1 JUMP JUMPDEST PUSH1 0x20 PUSH1 0x40 MLOAD DUP1 DUP4 SUB DUP2 DUP7 DUP1 EXTCODESIZE ISZERO DUP1 ISZERO PUSH2 0x15FE JUMPI PUSH1 0x0 DUP1 REVERT JUMPDEST POP GAS STATICCALL ISZERO DUP1 ISZERO PUSH2 0x1612 JUMPI RETURNDATASIZE PUSH1 0x0 DUP1 RETURNDATACOPY RETURNDATASIZE PUSH1 0x0 REVERT JUMPDEST POP POP POP POP PUSH1 0x40 MLOAD RETURNDATASIZE PUSH1 0x1F NOT PUSH1 0x1F DUP3 ADD AND DUP3 ADD DUP1 PUSH1 0x40 MSTORE POP DUP2 ADD SWAP1 PUSH2 0x1636 SWAP2 SWAP1 PUSH2 0x20C7 JUMP JUMPDEST SWAP1 POP SWAP2 SWAP1 POP JUMP JUMPDEST PUSH1 0x0 PUSH1 0x4 PUSH1 0x0 SWAP1 SLOAD SWAP1 PUSH2 0x100 EXP SWAP1 DIV PUSH20 0xFFFFFFFFFFFFFFFFFFFFFFFFFFFFFFFFFFFFFFFF AND SWAP1 POP SWAP1 JUMP JUMPDEST PUSH2 0x166F PUSH2 0x17B3 JUMP JUMPDEST PUSH1 0x0 PUSH20 0xFFFFFFFFFFFFFFFFFFFFFFFFFFFFFFFFFFFFFFFF AND DUP2 PUSH20 0xFFFFFFFFFFFFFFFFFFFFFFFFFFFFFFFFFFFFFFFF AND EQ ISZERO PUSH2 0x16DF JUMPI PUSH1 0x40 MLOAD PUSH32 0x8C379A000000000000000000000000000000000000000000000000000000000 DUP2 MSTORE PUSH1 0x4 ADD PUSH2 0x16D6 SWAP1 PUSH2 0x25A3 JUMP JUMPDEST PUSH1 0x40 MLOAD DUP1 SWAP2 SUB SWAP1 REVERT JUMPDEST PUSH2 0x16E8 DUP2 PUSH2 0x1831 JUMP JUMPDEST POP JUMP JUMPDEST PUSH1 0x0 DUP1 PUSH20 0xFFFFFFFFFFFFFFFFFFFFFFFFFFFFFFFFFFFFFFFF AND DUP3 PUSH20 0xFFFFFFFFFFFFFFFFFFFFFFFFFFFFFFFFFFFFFFFF AND EQ ISZERO PUSH2 0x175C JUMPI PUSH1 0x40 MLOAD PUSH32 0x8C379A000000000000000000000000000000000000000000000000000000000 DUP2 MSTORE PUSH1 0x4 ADD PUSH2 0x1753 SWAP1 PUSH2 0x2623 JUMP JUMPDEST PUSH1 0x40 MLOAD DUP1 SWAP2 SUB SWAP1 REVERT JUMPDEST DUP3 PUSH1 0x0 ADD PUSH1 0x0 DUP4 PUSH20 0xFFFFFFFFFFFFFFFFFFFFFFFFFFFFFFFFFFFFFFFF AND PUSH20 0xFFFFFFFFFFFFFFFFFFFFFFFFFFFFFFFFFFFFFFFF AND DUP2 MSTORE PUSH1 0x20 ADD SWAP1 DUP2 MSTORE PUSH1 0x20 ADD PUSH1 0x0 KECCAK256 PUSH1 0x0 SWAP1 SLOAD SWAP1 PUSH2 0x100 EXP SWAP1 DIV PUSH1 0xFF AND SWAP1 POP SWAP3 SWAP2 POP POP JUMP JUMPDEST PUSH2 0x17BB PUSH2 0x1A44 JUMP JUMPDEST PUSH20 0xFFFFFFFFFFFFFFFFFFFFFFFFFFFFFFFFFFFFFFFF AND PUSH2 0x17D9 PUSH2 0xA54 JUMP JUMPDEST PUSH20 0xFFFFFFFFFFFFFFFFFFFFFFFFFFFFFFFFFFFFFFFF AND EQ PUSH2 0x182F JUMPI PUSH1 0x40 MLOAD PUSH32 0x8C379A000000000000000000000000000000000000000000000000000000000 DUP2 MSTORE PUSH1 0x4 ADD PUSH2 0x1826 SWAP1 PUSH2 0x2603 JUMP JUMPDEST PUSH1 0x40 MLOAD DUP1 SWAP2 SUB SWAP1 REVERT JUMPDEST JUMP JUMPDEST PUSH1 0x0 DUP1 PUSH1 0x0 SWAP1 SLOAD SWAP1 PUSH2 0x100 EXP SWAP1 DIV PUSH20 0xFFFFFFFFFFFFFFFFFFFFFFFFFFFFFFFFFFFFFFFF AND SWAP1 POP DUP2 PUSH1 0x0 DUP1 PUSH2 0x100 EXP DUP2 SLOAD DUP2 PUSH20 0xFFFFFFFFFFFFFFFFFFFFFFFFFFFFFFFFFFFFFFFF MUL NOT AND SWAP1 DUP4 PUSH20 0xFFFFFFFFFFFFFFFFFFFFFFFFFFFFFFFFFFFFFFFF AND MUL OR SWAP1 SSTORE POP DUP2 PUSH20 0xFFFFFFFFFFFFFFFFFFFFFFFFFFFFFFFFFFFFFFFF AND DUP2 PUSH20 0xFFFFFFFFFFFFFFFFFFFFFFFFFFFFFFFFFFFFFFFF AND PUSH32 0x8BE0079C531659141344CD1FD0A4F28419497F9722A3DAAFE3B4186F6B6457E0 PUSH1 0x40 MLOAD PUSH1 0x40 MLOAD DUP1 SWAP2 SUB SWAP1 LOG3 POP POP JUMP JUMPDEST PUSH2 0x18FF DUP3 DUP3 PUSH2 0x16EB JUMP JUMPDEST ISZERO PUSH2 0x193F JUMPI PUSH1 0x40 MLOAD PUSH32 0x8C379A000000000000000000000000000000000000000000000000000000000 DUP2 MSTORE PUSH1 0x4 ADD PUSH2 0x1936 SWAP1 PUSH2 0x2583 JUMP JUMPDEST PUSH1 0x40 MLOAD DUP1 SWAP2 SUB SWAP1 REVERT JUMPDEST PUSH1 0x1 DUP3 PUSH1 0x0 ADD PUSH1 0x0 DUP4 PUSH20 0xFFFFFFFFFFFFFFFFFFFFFFFFFFFFFFFFFFFFFFFF AND PUSH20 0xFFFFFFFFFFFFFFFFFFFFFFFFFFFFFFFFFFFFFFFF AND DUP2 MSTORE PUSH1 0x20 ADD SWAP1 DUP2 MSTORE PUSH1 0x20 ADD PUSH1 0x0 KECCAK256 PUSH1 0x0 PUSH2 0x100 EXP DUP2 SLOAD DUP2 PUSH1 0xFF MUL NOT AND SWAP1 DUP4 ISZERO ISZERO MUL OR SWAP1 SSTORE POP POP POP JUMP JUMPDEST PUSH2 0x19A7 DUP3 DUP3 PUSH2 0x16EB JUMP JUMPDEST PUSH2 0x19E6 JUMPI PUSH1 0x40 MLOAD PUSH32 0x8C379A000000000000000000000000000000000000000000000000000000000 DUP2 MSTORE PUSH1 0x4 ADD PUSH2 0x19DD SWAP1 PUSH2 0x25E3 JUMP JUMPDEST PUSH1 0x40 MLOAD DUP1 SWAP2 SUB SWAP1 REVERT JUMPDEST PUSH1 0x0 DUP3 PUSH1 0x0 ADD PUSH1 0x0 DUP4 PUSH20 0xFFFFFFFFFFFFFFFFFFFFFFFFFFFFFFFFFFFFFFFF AND PUSH20 0xFFFFFFFFFFFFFFFFFFFFFFFFFFFFFFFFFFFFFFFF AND DUP2 MSTORE PUSH1 0x20 ADD SWAP1 DUP2 MSTORE PUSH1 0x20 ADD PUSH1 0x0 KECCAK256 PUSH1 0x0 PUSH2 0x100 EXP DUP2 SLOAD DUP2 PUSH1 0xFF MUL NOT AND SWAP1 DUP4 ISZERO ISZERO MUL OR SWAP1 SSTORE POP POP POP JUMP JUMPDEST PUSH1 0x0 CALLER SWAP1 POP SWAP1 JUMP JUMPDEST PUSH1 0x0 PUSH2 0x1A5F PUSH2 0x1A5A DUP5 PUSH2 0x269E JUMP JUMPDEST PUSH2 0x2679 JUMP JUMPDEST SWAP1 POP DUP1 DUP4 DUP3 MSTORE PUSH1 0x20 DUP3 ADD SWAP1 POP DUP3 DUP6 PUSH1 0x20 DUP7 MUL DUP3 ADD GT ISZERO PUSH2 0x1A82 JUMPI PUSH2 0x1A81 PUSH2 0x29DB JUMP JUMPDEST JUMPDEST PUSH1 0x0 JUMPDEST DUP6 DUP2 LT ISZERO PUSH2 0x1AB2 JUMPI DUP2 PUSH2 0x1A98 DUP9 DUP3 PUSH2 0x1D4D JUMP JUMPDEST DUP5 MSTORE PUSH1 0x20 DUP5 ADD SWAP4 POP PUSH1 0x20 DUP4 ADD SWAP3 POP POP PUSH1 0x1 DUP2 ADD SWAP1 POP PUSH2 0x1A85 JUMP JUMPDEST POP POP POP SWAP4 SWAP3 POP POP POP JUMP JUMPDEST PUSH1 0x0 PUSH2 0x1ACF PUSH2 0x1ACA DUP5 PUSH2 0x26CA JUMP JUMPDEST PUSH2 0x2679 JUMP JUMPDEST SWAP1 POP DUP1 DUP4 DUP3 MSTORE PUSH1 0x20 DUP3 ADD SWAP1 POP DUP3 DUP6 PUSH1 0x20 DUP7 MUL DUP3 ADD GT ISZERO PUSH2 0x1AF2 JUMPI PUSH2 0x1AF1 PUSH2 0x29DB JUMP JUMPDEST JUMPDEST PUSH1 0x0 JUMPDEST DUP6 DUP2 LT ISZERO PUSH2 0x1B22 JUMPI DUP2 PUSH2 0x1B08 DUP9 DUP3 PUSH2 0x1E12 JUMP JUMPDEST DUP5 MSTORE PUSH1 0x20 DUP5 ADD SWAP4 POP PUSH1 0x20 DUP4 ADD SWAP3 POP POP PUSH1 0x1 DUP2 ADD SWAP1 POP PUSH2 0x1AF5 JUMP JUMPDEST POP POP POP SWAP4 SWAP3 POP POP POP JUMP JUMPDEST PUSH1 0x0 PUSH2 0x1B3F PUSH2 0x1B3A DUP5 PUSH2 0x26F6 JUMP JUMPDEST PUSH2 0x2679 JUMP JUMPDEST SWAP1 POP DUP3 DUP2 MSTORE PUSH1 0x20 DUP2 ADD DUP5 DUP5 DUP5 ADD GT ISZERO PUSH2 0x1B5B JUMPI PUSH2 0x1B5A PUSH2 0x29E0 JUMP JUMPDEST JUMPDEST PUSH2 0x1B66 DUP5 DUP3 DUP6 PUSH2 0x2897 JUMP JUMPDEST POP SWAP4 SWAP3 POP POP POP JUMP JUMPDEST PUSH1 0x0 PUSH2 0x1B81 PUSH2 0x1B7C DUP5 PUSH2 0x2727 JUMP JUMPDEST PUSH2 0x2679 JUMP JUMPDEST SWAP1 POP DUP3 DUP2 MSTORE PUSH1 0x20 DUP2 ADD DUP5 DUP5 DUP5 ADD GT ISZERO PUSH2 0x1B9D JUMPI PUSH2 0x1B9C PUSH2 0x29E0 JUMP JUMPDEST JUMPDEST PUSH2 0x1BA8 DUP5 DUP3 DUP6 PUSH2 0x2897 JUMP JUMPDEST POP SWAP4 SWAP3 POP POP POP JUMP JUMPDEST PUSH1 0x0 DUP2 CALLDATALOAD SWAP1 POP PUSH2 0x1BBF DUP2 PUSH2 0x2B8E JUMP JUMPDEST SWAP3 SWAP2 POP POP JUMP JUMPDEST PUSH1 0x0 DUP2 MLOAD SWAP1 POP PUSH2 0x1BD4 DUP2 PUSH2 0x2B8E JUMP JUMPDEST SWAP3 SWAP2 POP POP JUMP JUMPDEST PUSH1 0x0 DUP1 DUP4 PUSH1 0x1F DUP5 ADD SLT PUSH2 0x1BF0 JUMPI PUSH2 0x1BEF PUSH2 0x29D6 JUMP JUMPDEST JUMPDEST DUP3 CALLDATALOAD SWAP1 POP PUSH8 0xFFFFFFFFFFFFFFFF DUP2 GT ISZERO PUSH2 0x1C0D JUMPI PUSH2 0x1C0C PUSH2 0x29D1 JUMP JUMPDEST JUMPDEST PUSH1 0x20 DUP4 ADD SWAP2 POP DUP4 PUSH1 0x20 DUP3 MUL DUP4 ADD GT ISZERO PUSH2 0x1C29 JUMPI PUSH2 0x1C28 PUSH2 0x29DB JUMP JUMPDEST JUMPDEST SWAP3 POP SWAP3 SWAP1 POP JUMP JUMPDEST PUSH1 0x0 DUP3 PUSH1 0x1F DUP4 ADD SLT PUSH2 0x1C45 JUMPI PUSH2 0x1C44 PUSH2 0x29D6 JUMP JUMPDEST JUMPDEST DUP2 MLOAD PUSH2 0x1C55 DUP5 DUP3 PUSH1 0x20 DUP7 ADD PUSH2 0x1A4C JUMP JUMPDEST SWAP2 POP POP SWAP3 SWAP2 POP POP JUMP JUMPDEST PUSH1 0x0 DUP1 DUP4 PUSH1 0x1F DUP5 ADD SLT PUSH2 0x1C74 JUMPI PUSH2 0x1C73 PUSH2 0x29D6 JUMP JUMPDEST JUMPDEST DUP3 CALLDATALOAD SWAP1 POP PUSH8 0xFFFFFFFFFFFFFFFF DUP2 GT ISZERO PUSH2 0x1C91 JUMPI PUSH2 0x1C90 PUSH2 0x29D1 JUMP JUMPDEST JUMPDEST PUSH1 0x20 DUP4 ADD SWAP2 POP DUP4 PUSH1 0x20 DUP3 MUL DUP4 ADD GT ISZERO PUSH2 0x1CAD JUMPI PUSH2 0x1CAC PUSH2 0x29DB JUMP JUMPDEST JUMPDEST SWAP3 POP SWAP3 SWAP1 POP JUMP JUMPDEST PUSH1 0x0 DUP1 DUP4 PUSH1 0x1F DUP5 ADD SLT PUSH2 0x1CCA JUMPI PUSH2 0x1CC9 PUSH2 0x29D6 JUMP JUMPDEST JUMPDEST DUP3 CALLDATALOAD SWAP1 POP PUSH8 0xFFFFFFFFFFFFFFFF DUP2 GT ISZERO PUSH2 0x1CE7 JUMPI PUSH2 0x1CE6 PUSH2 0x29D1 JUMP JUMPDEST JUMPDEST PUSH1 0x20 DUP4 ADD SWAP2 POP DUP4 PUSH1 0x20 DUP3 MUL DUP4 ADD GT ISZERO PUSH2 0x1D03 JUMPI PUSH2 0x1D02 PUSH2 0x29DB JUMP JUMPDEST JUMPDEST SWAP3 POP SWAP3 SWAP1 POP JUMP JUMPDEST PUSH1 0x0 DUP3 PUSH1 0x1F DUP4 ADD SLT PUSH2 0x1D1F JUMPI PUSH2 0x1D1E PUSH2 0x29D6 JUMP JUMPDEST JUMPDEST DUP2 MLOAD PUSH2 0x1D2F DUP5 DUP3 PUSH1 0x20 DUP7 ADD PUSH2 0x1ABC JUMP JUMPDEST SWAP2 POP POP SWAP3 SWAP2 POP POP JUMP JUMPDEST PUSH1 0x0 DUP2 MLOAD SWAP1 POP PUSH2 0x1D47 DUP2 PUSH2 0x2BA5 JUMP JUMPDEST SWAP3 SWAP2 POP POP JUMP JUMPDEST PUSH1 0x0 DUP2 MLOAD SWAP1 POP PUSH2 0x1D5C DUP2 PUSH2 0x2BBC JUMP JUMPDEST SWAP3 SWAP2 POP POP JUMP JUMPDEST PUSH1 0x0 DUP3 PUSH1 0x1F DUP4 ADD SLT PUSH2 0x1D77 JUMPI PUSH2 0x1D76 PUSH2 0x29D6 JUMP JUMPDEST JUMPDEST DUP2 MLOAD PUSH2 0x1D87 DUP5 DUP3 PUSH1 0x20 DUP7 ADD PUSH2 0x1B2C JUMP JUMPDEST SWAP2 POP POP SWAP3 SWAP2 POP POP JUMP JUMPDEST PUSH1 0x0 DUP2 CALLDATALOAD SWAP1 POP PUSH2 0x1D9F DUP2 PUSH2 0x2BD3 JUMP JUMPDEST SWAP3 SWAP2 POP POP JUMP JUMPDEST PUSH1 0x0 DUP2 MLOAD SWAP1 POP PUSH2 0x1DB4 DUP2 PUSH2 0x2BD3 JUMP JUMPDEST SWAP3 SWAP2 POP POP JUMP JUMPDEST PUSH1 0x0 DUP3 PUSH1 0x1F DUP4 ADD SLT PUSH2 0x1DCF JUMPI PUSH2 0x1DCE PUSH2 0x29D6 JUMP JUMPDEST JUMPDEST DUP2 MLOAD PUSH2 0x1DDF DUP5 DUP3 PUSH1 0x20 DUP7 ADD PUSH2 0x1B6E JUMP JUMPDEST SWAP2 POP POP SWAP3 SWAP2 POP POP JUMP JUMPDEST PUSH1 0x0 DUP2 CALLDATALOAD SWAP1 POP PUSH2 0x1DF7 DUP2 PUSH2 0x2BEA JUMP JUMPDEST SWAP3 SWAP2 POP POP JUMP JUMPDEST PUSH1 0x0 DUP2 MLOAD SWAP1 POP PUSH2 0x1E0C DUP2 PUSH2 0x2BEA JUMP JUMPDEST SWAP3 SWAP2 POP POP JUMP JUMPDEST PUSH1 0x0 DUP2 MLOAD SWAP1 POP PUSH2 0x1E21 DUP2 PUSH2 0x2C01 JUMP JUMPDEST SWAP3 SWAP2 POP POP JUMP JUMPDEST PUSH1 0x0 PUSH1 0x20 DUP3 DUP5 SUB SLT ISZERO PUSH2 0x1E3D JUMPI PUSH2 0x1E3C PUSH2 0x29EA JUMP JUMPDEST JUMPDEST PUSH1 0x0 PUSH2 0x1E4B DUP5 DUP3 DUP6 ADD PUSH2 0x1BB0 JUMP JUMPDEST SWAP2 POP POP SWAP3 SWAP2 POP POP JUMP JUMPDEST PUSH1 0x0 DUP1 PUSH1 0x40 DUP4 DUP6 SUB SLT ISZERO PUSH2 0x1E6B JUMPI PUSH2 0x1E6A PUSH2 0x29EA JUMP JUMPDEST JUMPDEST PUSH1 0x0 PUSH2 0x1E79 DUP6 DUP3 DUP7 ADD PUSH2 0x1BB0 JUMP JUMPDEST SWAP3 POP POP PUSH1 0x20 PUSH2 0x1E8A DUP6 DUP3 DUP7 ADD PUSH2 0x1D90 JUMP JUMPDEST SWAP2 POP POP SWAP3 POP SWAP3 SWAP1 POP JUMP JUMPDEST PUSH1 0x0 DUP1 PUSH1 0x0 PUSH1 0x60 DUP5 DUP7 SUB SLT ISZERO PUSH2 0x1EAD JUMPI PUSH2 0x1EAC PUSH2 0x29EA JUMP JUMPDEST JUMPDEST PUSH1 0x0 PUSH2 0x1EBB DUP7 DUP3 DUP8 ADD PUSH2 0x1BB0 JUMP JUMPDEST SWAP4 POP POP PUSH1 0x20 PUSH2 0x1ECC DUP7 DUP3 DUP8 ADD PUSH2 0x1D90 JUMP JUMPDEST SWAP3 POP POP PUSH1 0x40 PUSH2 0x1EDD DUP7 DUP3 DUP8 ADD PUSH2 0x1DE8 JUMP JUMPDEST SWAP2 POP POP SWAP3 POP SWAP3 POP SWAP3 JUMP JUMPDEST PUSH1 0x0 DUP1 PUSH1 0x40 DUP4 DUP6 SUB SLT ISZERO PUSH2 0x1EFE JUMPI PUSH2 0x1EFD PUSH2 0x29EA JUMP JUMPDEST JUMPDEST PUSH1 0x0 PUSH2 0x1F0C DUP6 DUP3 DUP7 ADD PUSH2 0x1BB0 JUMP JUMPDEST SWAP3 POP POP PUSH1 0x20 PUSH2 0x1F1D DUP6 DUP3 DUP7 ADD PUSH2 0x1DE8 JUMP JUMPDEST SWAP2 POP POP SWAP3 POP SWAP3 SWAP1 POP JUMP JUMPDEST PUSH1 0x0 DUP1 PUSH1 0x0 DUP1 PUSH1 0x0 DUP1 PUSH1 0x60 DUP8 DUP10 SUB SLT ISZERO PUSH2 0x1F44 JUMPI PUSH2 0x1F43 PUSH2 0x29EA JUMP JUMPDEST JUMPDEST PUSH1 0x0 DUP8 ADD CALLDATALOAD PUSH8 0xFFFFFFFFFFFFFFFF DUP2 GT ISZERO PUSH2 0x1F62 JUMPI PUSH2 0x1F61 PUSH2 0x29E5 JUMP JUMPDEST JUMPDEST PUSH2 0x1F6E DUP10 DUP3 DUP11 ADD PUSH2 0x1BDA JUMP JUMPDEST SWAP7 POP SWAP7 POP POP PUSH1 0x20 DUP8 ADD CALLDATALOAD PUSH8 0xFFFFFFFFFFFFFFFF DUP2 GT ISZERO PUSH2 0x1F91 JUMPI PUSH2 0x1F90 PUSH2 0x29E5 JUMP JUMPDEST JUMPDEST PUSH2 0x1F9D DUP10 DUP3 DUP11 ADD PUSH2 0x1C5E JUMP JUMPDEST SWAP5 POP SWAP5 POP POP PUSH1 0x40 DUP8 ADD CALLDATALOAD PUSH8 0xFFFFFFFFFFFFFFFF DUP2 GT ISZERO PUSH2 0x1FC0 JUMPI PUSH2 0x1FBF PUSH2 0x29E5 JUMP JUMPDEST JUMPDEST PUSH2 0x1FCC DUP10 DUP3 DUP11 ADD PUSH2 0x1CB4 JUMP JUMPDEST SWAP3 POP SWAP3 POP POP SWAP3 SWAP6 POP SWAP3 SWAP6 POP SWAP3 SWAP6 JUMP JUMPDEST PUSH1 0x0 PUSH1 0x20 DUP3 DUP5 SUB SLT ISZERO PUSH2 0x1FF1 JUMPI PUSH2 0x1FF0 PUSH2 0x29EA JUMP JUMPDEST JUMPDEST PUSH1 0x0 DUP3 ADD MLOAD PUSH8 0xFFFFFFFFFFFFFFFF DUP2 GT ISZERO PUSH2 0x200F JUMPI PUSH2 0x200E PUSH2 0x29E5 JUMP JUMPDEST JUMPDEST PUSH2 0x201B DUP5 DUP3 DUP6 ADD PUSH2 0x1C30 JUMP JUMPDEST SWAP2 POP POP SWAP3 SWAP2 POP POP JUMP JUMPDEST PUSH1 0x0 PUSH1 0x20 DUP3 DUP5 SUB SLT ISZERO PUSH2 0x203A JUMPI PUSH2 0x2039 PUSH2 0x29EA JUMP JUMPDEST JUMPDEST PUSH1 0x0 DUP3 ADD MLOAD PUSH8 0xFFFFFFFFFFFFFFFF DUP2 GT ISZERO PUSH2 0x2058 JUMPI PUSH2 0x2057 PUSH2 0x29E5 JUMP JUMPDEST JUMPDEST PUSH2 0x2064 DUP5 DUP3 DUP6 ADD PUSH2 0x1D0A JUMP JUMPDEST SWAP2 POP POP SWAP3 SWAP2 POP POP JUMP JUMPDEST PUSH1 0x0 PUSH1 0x20 DUP3 DUP5 SUB SLT ISZERO PUSH2 0x2083 JUMPI PUSH2 0x2082 PUSH2 0x29EA JUMP JUMPDEST JUMPDEST PUSH1 0x0 PUSH2 0x2091 DUP5 DUP3 DUP6 ADD PUSH2 0x1D38 JUMP JUMPDEST SWAP2 POP POP SWAP3 SWAP2 POP POP JUMP JUMPDEST PUSH1 0x0 PUSH1 0x20 DUP3 DUP5 SUB SLT ISZERO PUSH2 0x20B0 JUMPI PUSH2 0x20AF PUSH2 0x29EA JUMP JUMPDEST JUMPDEST PUSH1 0x0 PUSH2 0x20BE DUP5 DUP3 DUP6 ADD PUSH2 0x1D90 JUMP JUMPDEST SWAP2 POP POP SWAP3 SWAP2 POP POP JUMP JUMPDEST PUSH1 0x0 PUSH1 0x20 DUP3 DUP5 SUB SLT ISZERO PUSH2 0x20DD JUMPI PUSH2 0x20DC PUSH2 0x29EA JUMP JUMPDEST JUMPDEST PUSH1 0x0 PUSH2 0x20EB DUP5 DUP3 DUP6 ADD PUSH2 0x1DA5 JUMP JUMPDEST SWAP2 POP POP SWAP3 SWAP2 POP POP JUMP JUMPDEST PUSH1 0x0 PUSH1 0x20 DUP3 DUP5 SUB SLT ISZERO PUSH2 0x210A JUMPI PUSH2 0x2109 PUSH2 0x29EA JUMP JUMPDEST JUMPDEST PUSH1 0x0 PUSH2 0x2118 DUP5 DUP3 DUP6 ADD PUSH2 0x1DE8 JUMP JUMPDEST SWAP2 POP POP SWAP3 SWAP2 POP POP JUMP JUMPDEST PUSH1 0x0 PUSH1 0x20 DUP3 DUP5 SUB SLT ISZERO PUSH2 0x2137 JUMPI PUSH2 0x2136 PUSH2 0x29EA JUMP JUMPDEST JUMPDEST PUSH1 0x0 PUSH2 0x2145 DUP5 DUP3 DUP6 ADD PUSH2 0x1DFD JUMP JUMPDEST SWAP2 POP POP SWAP3 SWAP2 POP POP JUMP JUMPDEST PUSH1 0x0 DUP1 PUSH1 0x0 DUP1 PUSH1 0x0 DUP1 PUSH1 0xC0 DUP8 DUP10 SUB SLT ISZERO PUSH2 0x216B JUMPI PUSH2 0x216A PUSH2 0x29EA JUMP JUMPDEST JUMPDEST PUSH1 0x0 PUSH2 0x2179 DUP10 DUP3 DUP11 ADD PUSH2 0x1E12 JUMP JUMPDEST SWAP7 POP POP PUSH1 0x20 PUSH2 0x218A DUP10 DUP3 DUP11 ADD PUSH2 0x1E12 JUMP JUMPDEST SWAP6 POP POP PUSH1 0x40 PUSH2 0x219B DUP10 DUP3 DUP11 ADD PUSH2 0x1BC5 JUMP JUMPDEST SWAP5 POP POP PUSH1 0x60 DUP8 ADD MLOAD PUSH8 0xFFFFFFFFFFFFFFFF DUP2 GT ISZERO PUSH2 0x21BC JUMPI PUSH2 0x21BB PUSH2 0x29E5 JUMP JUMPDEST JUMPDEST PUSH2 0x21C8 DUP10 DUP3 DUP11 ADD PUSH2 0x1D62 JUMP JUMPDEST SWAP4 POP POP PUSH1 0x80 DUP8 ADD MLOAD PUSH8 0xFFFFFFFFFFFFFFFF DUP2 GT ISZERO PUSH2 0x21E9 JUMPI PUSH2 0x21E8 PUSH2 0x29E5 JUMP JUMPDEST JUMPDEST PUSH2 0x21F5 DUP10 DUP3 DUP11 ADD PUSH2 0x1D62 JUMP JUMPDEST SWAP3 POP POP PUSH1 0xA0 DUP8 ADD MLOAD PUSH8 0xFFFFFFFFFFFFFFFF DUP2 GT ISZERO PUSH2 0x2216 JUMPI PUSH2 0x2215 PUSH2 0x29E5 JUMP JUMPDEST JUMPDEST PUSH2 0x2222 DUP10 DUP3 DUP11 ADD PUSH2 0x1DBA JUMP JUMPDEST SWAP2 POP POP SWAP3 SWAP6 POP SWAP3 SWAP6 POP SWAP3 SWAP6 JUMP JUMPDEST PUSH2 0x2238 DUP2 PUSH2 0x27B9 JUMP JUMPDEST DUP3 MSTORE POP POP JUMP JUMPDEST PUSH2 0x2247 DUP2 PUSH2 0x27CB JUMP JUMPDEST DUP3 MSTORE POP POP JUMP JUMPDEST PUSH2 0x2256 DUP2 PUSH2 0x27D7 JUMP JUMPDEST DUP3 MSTORE POP POP JUMP JUMPDEST PUSH1 0x0 PUSH2 0x2267 DUP3 PUSH2 0x2758 JUMP JUMPDEST PUSH2 0x2271 DUP2 DUP6 PUSH2 0x2763 JUMP JUMPDEST SWAP4 POP PUSH2 0x2281 DUP2 DUP6 PUSH1 0x20 DUP7 ADD PUSH2 0x2897 JUMP JUMPDEST PUSH2 0x228A DUP2 PUSH2 0x29EF JUMP JUMPDEST DUP5 ADD SWAP2 POP POP SWAP3 SWAP2 POP POP JUMP JUMPDEST PUSH2 0x229E DUP2 PUSH2 0x282B JUMP JUMPDEST DUP3 MSTORE POP POP JUMP JUMPDEST PUSH2 0x22AD DUP2 PUSH2 0x283D JUMP JUMPDEST DUP3 MSTORE POP POP JUMP JUMPDEST PUSH2 0x22BC DUP2 PUSH2 0x284F JUMP JUMPDEST DUP3 MSTORE POP POP JUMP JUMPDEST PUSH2 0x22CB DUP2 PUSH2 0x2861 JUMP JUMPDEST DUP3 MSTORE POP POP JUMP JUMPDEST PUSH1 0x0 PUSH2 0x22DE PUSH1 0x1F DUP4 PUSH2 0x2774 JUMP JUMPDEST SWAP2 POP PUSH2 0x22E9 DUP3 PUSH2 0x2A00 JUMP JUMPDEST PUSH1 0x20 DUP3 ADD SWAP1 POP SWAP2 SWAP1 POP JUMP JUMPDEST PUSH1 0x0 PUSH2 0x2301 PUSH1 0x26 DUP4 PUSH2 0x2774 JUMP JUMPDEST SWAP2 POP PUSH2 0x230C DUP3 PUSH2 0x2A29 JUMP JUMPDEST PUSH1 0x40 DUP3 ADD SWAP1 POP SWAP2 SWAP1 POP JUMP JUMPDEST PUSH1 0x0 PUSH2 0x2324 PUSH1 0x2E DUP4 PUSH2 0x2774 JUMP JUMPDEST SWAP2 POP PUSH2 0x232F DUP3 PUSH2 0x2A78 JUMP JUMPDEST PUSH1 0x40 DUP3 ADD SWAP1 POP SWAP2 SWAP1 POP JUMP JUMPDEST PUSH1 0x0 PUSH2 0x2347 PUSH1 0x21 DUP4 PUSH2 0x2774 JUMP JUMPDEST SWAP2 POP PUSH2 0x2352 DUP3 PUSH2 0x2AC7 JUMP JUMPDEST PUSH1 0x40 DUP3 ADD SWAP1 POP SWAP2 SWAP1 POP JUMP JUMPDEST PUSH1 0x0 PUSH2 0x236A PUSH1 0x20 DUP4 PUSH2 0x2774 JUMP JUMPDEST SWAP2 POP PUSH2 0x2375 DUP3 PUSH2 0x2B16 JUMP JUMPDEST PUSH1 0x20 DUP3 ADD SWAP1 POP SWAP2 SWAP1 POP JUMP JUMPDEST PUSH1 0x0 PUSH2 0x238D PUSH1 0x22 DUP4 PUSH2 0x2774 JUMP JUMPDEST SWAP2 POP PUSH2 0x2398 DUP3 PUSH2 0x2B3F JUMP JUMPDEST PUSH1 0x40 DUP3 ADD SWAP1 POP SWAP2 SWAP1 POP JUMP JUMPDEST PUSH2 0x23AC DUP2 PUSH2 0x27F3 JUMP JUMPDEST DUP3 MSTORE POP POP JUMP JUMPDEST PUSH2 0x23BB DUP2 PUSH2 0x2821 JUMP JUMPDEST DUP3 MSTORE POP POP JUMP JUMPDEST PUSH1 0x0 PUSH1 0x20 DUP3 ADD SWAP1 POP PUSH2 0x23D6 PUSH1 0x0 DUP4 ADD DUP5 PUSH2 0x222F JUMP JUMPDEST SWAP3 SWAP2 POP POP JUMP JUMPDEST PUSH1 0x0 PUSH1 0x40 DUP3 ADD SWAP1 POP PUSH2 0x23F1 PUSH1 0x0 DUP4 ADD DUP6 PUSH2 0x222F JUMP JUMPDEST PUSH2 0x23FE PUSH1 0x20 DUP4 ADD DUP5 PUSH2 0x22B3 JUMP JUMPDEST SWAP4 SWAP3 POP POP POP JUMP JUMPDEST PUSH1 0x0 PUSH1 0x60 DUP3 ADD SWAP1 POP PUSH2 0x241A PUSH1 0x0 DUP4 ADD DUP7 PUSH2 0x222F JUMP JUMPDEST PUSH2 0x2427 PUSH1 0x20 DUP4 ADD DUP6 PUSH2 0x22B3 JUMP JUMPDEST PUSH2 0x2434 PUSH1 0x40 DUP4 ADD DUP5 PUSH2 0x23A3 JUMP JUMPDEST SWAP5 SWAP4 POP POP POP POP JUMP JUMPDEST PUSH1 0x0 PUSH1 0x40 DUP3 ADD SWAP1 POP PUSH2 0x2451 PUSH1 0x0 DUP4 ADD DUP6 PUSH2 0x222F JUMP JUMPDEST PUSH2 0x245E PUSH1 0x20 DUP4 ADD DUP5 PUSH2 0x23A3 JUMP JUMPDEST SWAP4 SWAP3 POP POP POP JUMP JUMPDEST PUSH1 0x0 PUSH1 0x40 DUP3 ADD SWAP1 POP PUSH2 0x247A PUSH1 0x0 DUP4 ADD DUP6 PUSH2 0x222F JUMP JUMPDEST PUSH2 0x2487 PUSH1 0x20 DUP4 ADD DUP5 PUSH2 0x23B2 JUMP JUMPDEST SWAP4 SWAP3 POP POP POP JUMP JUMPDEST PUSH1 0x0 PUSH1 0x20 DUP3 ADD SWAP1 POP PUSH2 0x24A3 PUSH1 0x0 DUP4 ADD DUP5 PUSH2 0x223E JUMP JUMPDEST SWAP3 SWAP2 POP POP JUMP JUMPDEST PUSH1 0x0 PUSH1 0x20 DUP3 ADD SWAP1 POP PUSH2 0x24BE PUSH1 0x0 DUP4 ADD DUP5 PUSH2 0x224D JUMP JUMPDEST SWAP3 SWAP2 POP POP JUMP JUMPDEST PUSH1 0x0 PUSH1 0x20 DUP3 ADD SWAP1 POP PUSH2 0x24D9 PUSH1 0x0 DUP4 ADD DUP5 PUSH2 0x2295 JUMP JUMPDEST SWAP3 SWAP2 POP POP JUMP JUMPDEST PUSH1 0x0 PUSH1 0x20 DUP3 ADD SWAP1 POP PUSH2 0x24F4 PUSH1 0x0 DUP4 ADD DUP5 PUSH2 0x22A4 JUMP JUMPDEST SWAP3 SWAP2 POP POP JUMP JUMPDEST PUSH1 0x0 PUSH1 0x20 DUP3 ADD SWAP1 POP PUSH2 0x250F PUSH1 0x0 DUP4 ADD DUP5 PUSH2 0x22B3 JUMP JUMPDEST SWAP3 SWAP2 POP POP JUMP JUMPDEST PUSH1 0x0 PUSH1 0x80 DUP3 ADD SWAP1 POP PUSH2 0x252A PUSH1 0x0 DUP4 ADD DUP8 PUSH2 0x22B3 JUMP JUMPDEST PUSH2 0x2537 PUSH1 0x20 DUP4 ADD DUP7 PUSH2 0x23B2 JUMP JUMPDEST DUP2 DUP2 SUB PUSH1 0x40 DUP4 ADD MSTORE PUSH2 0x2549 DUP2 DUP6 PUSH2 0x225C JUMP JUMPDEST SWAP1 POP DUP2 DUP2 SUB PUSH1 0x60 DUP4 ADD MSTORE PUSH2 0x255D DUP2 DUP5 PUSH2 0x225C JUMP JUMPDEST SWAP1 POP SWAP6 SWAP5 POP POP POP POP POP JUMP JUMPDEST PUSH1 0x0 PUSH1 0x20 DUP3 ADD SWAP1 POP PUSH2 0x257D PUSH1 0x0 DUP4 ADD DUP5 PUSH2 0x22C2 JUMP JUMPDEST SWAP3 SWAP2 POP POP JUMP JUMPDEST PUSH1 0x0 PUSH1 0x20 DUP3 ADD SWAP1 POP DUP2 DUP2 SUB PUSH1 0x0 DUP4 ADD MSTORE PUSH2 0x259C DUP2 PUSH2 0x22D1 JUMP JUMPDEST SWAP1 POP SWAP2 SWAP1 POP JUMP JUMPDEST PUSH1 0x0 PUSH1 0x20 DUP3 ADD SWAP1 POP DUP2 DUP2 SUB PUSH1 0x0 DUP4 ADD MSTORE PUSH2 0x25BC DUP2 PUSH2 0x22F4 JUMP JUMPDEST SWAP1 POP SWAP2 SWAP1 POP JUMP JUMPDEST PUSH1 0x0 PUSH1 0x20 DUP3 ADD SWAP1 POP DUP2 DUP2 SUB PUSH1 0x0 DUP4 ADD MSTORE PUSH2 0x25DC DUP2 PUSH2 0x2317 JUMP JUMPDEST SWAP1 POP SWAP2 SWAP1 POP JUMP JUMPDEST PUSH1 0x0 PUSH1 0x20 DUP3 ADD SWAP1 POP DUP2 DUP2 SUB PUSH1 0x0 DUP4 ADD MSTORE PUSH2 0x25FC DUP2 PUSH2 0x233A JUMP JUMPDEST SWAP1 POP SWAP2 SWAP1 POP JUMP JUMPDEST PUSH1 0x0 PUSH1 0x20 DUP3 ADD SWAP1 POP DUP2 DUP2 SUB PUSH1 0x0 DUP4 ADD MSTORE PUSH2 0x261C DUP2 PUSH2 0x235D JUMP JUMPDEST SWAP1 POP SWAP2 SWAP1 POP JUMP JUMPDEST PUSH1 0x0 PUSH1 0x20 DUP3 ADD SWAP1 POP DUP2 DUP2 SUB PUSH1 0x0 DUP4 ADD MSTORE PUSH2 0x263C DUP2 PUSH2 0x2380 JUMP JUMPDEST SWAP1 POP SWAP2 SWAP1 POP JUMP JUMPDEST PUSH1 0x0 PUSH1 0x20 DUP3 ADD SWAP1 POP PUSH2 0x2658 PUSH1 0x0 DUP4 ADD DUP5 PUSH2 0x23A3 JUMP JUMPDEST SWAP3 SWAP2 POP POP JUMP JUMPDEST PUSH1 0x0 PUSH1 0x20 DUP3 ADD SWAP1 POP PUSH2 0x2673 PUSH1 0x0 DUP4 ADD DUP5 PUSH2 0x23B2 JUMP JUMPDEST SWAP3 SWAP2 POP POP JUMP JUMPDEST PUSH1 0x0 PUSH2 0x2683 PUSH2 0x2694 JUMP JUMPDEST SWAP1 POP PUSH2 0x268F DUP3 DUP3 PUSH2 0x28CA JUMP JUMPDEST SWAP2 SWAP1 POP JUMP JUMPDEST PUSH1 0x0 PUSH1 0x40 MLOAD SWAP1 POP SWAP1 JUMP JUMPDEST PUSH1 0x0 PUSH8 0xFFFFFFFFFFFFFFFF DUP3 GT ISZERO PUSH2 0x26B9 JUMPI PUSH2 0x26B8 PUSH2 0x29A2 JUMP JUMPDEST JUMPDEST PUSH1 0x20 DUP3 MUL SWAP1 POP PUSH1 0x20 DUP2 ADD SWAP1 POP SWAP2 SWAP1 POP JUMP JUMPDEST PUSH1 0x0 PUSH8 0xFFFFFFFFFFFFFFFF DUP3 GT ISZERO PUSH2 0x26E5 JUMPI PUSH2 0x26E4 PUSH2 0x29A2 JUMP JUMPDEST JUMPDEST PUSH1 0x20 DUP3 MUL SWAP1 POP PUSH1 0x20 DUP2 ADD SWAP1 POP SWAP2 SWAP1 POP JUMP JUMPDEST PUSH1 0x0 PUSH8 0xFFFFFFFFFFFFFFFF DUP3 GT ISZERO PUSH2 0x2711 JUMPI PUSH2 0x2710 PUSH2 0x29A2 JUMP JUMPDEST JUMPDEST PUSH2 0x271A DUP3 PUSH2 0x29EF JUMP JUMPDEST SWAP1 POP PUSH1 0x20 DUP2 ADD SWAP1 POP SWAP2 SWAP1 POP JUMP JUMPDEST PUSH1 0x0 PUSH8 0xFFFFFFFFFFFFFFFF DUP3 GT ISZERO PUSH2 0x2742 JUMPI PUSH2 0x2741 PUSH2 0x29A2 JUMP JUMPDEST JUMPDEST PUSH2 0x274B DUP3 PUSH2 0x29EF JUMP JUMPDEST SWAP1 POP PUSH1 0x20 DUP2 ADD SWAP1 POP SWAP2 SWAP1 POP JUMP JUMPDEST PUSH1 0x0 DUP2 MLOAD SWAP1 POP SWAP2 SWAP1 POP JUMP JUMPDEST PUSH1 0x0 DUP3 DUP3 MSTORE PUSH1 0x20 DUP3 ADD SWAP1 POP SWAP3 SWAP2 POP POP JUMP JUMPDEST PUSH1 0x0 DUP3 DUP3 MSTORE PUSH1 0x20 DUP3 ADD SWAP1 POP SWAP3 SWAP2 POP POP JUMP JUMPDEST PUSH1 0x0 PUSH2 0x2790 DUP3 PUSH2 0x2821 JUMP JUMPDEST SWAP2 POP PUSH2 0x279B DUP4 PUSH2 0x2821 JUMP JUMPDEST SWAP3 POP DUP3 DUP3 LT ISZERO PUSH2 0x27AE JUMPI PUSH2 0x27AD PUSH2 0x2944 JUMP JUMPDEST JUMPDEST DUP3 DUP3 SUB SWAP1 POP SWAP3 SWAP2 POP POP JUMP JUMPDEST PUSH1 0x0 PUSH2 0x27C4 DUP3 PUSH2 0x2801 JUMP JUMPDEST SWAP1 POP SWAP2 SWAP1 POP JUMP JUMPDEST PUSH1 0x0 DUP2 ISZERO ISZERO SWAP1 POP SWAP2 SWAP1 POP JUMP JUMPDEST PUSH1 0x0 DUP2 SWAP1 POP SWAP2 SWAP1 POP JUMP JUMPDEST PUSH1 0x0 PUSH2 0x27EC DUP3 PUSH2 0x27B9 JUMP JUMPDEST SWAP1 POP SWAP2 SWAP1 POP JUMP JUMPDEST PUSH1 0x0 PUSH2 0xFFFF DUP3 AND SWAP1 POP SWAP2 SWAP1 POP JUMP JUMPDEST PUSH1 0x0 PUSH20 0xFFFFFFFFFFFFFFFFFFFFFFFFFFFFFFFFFFFFFFFF DUP3 AND SWAP1 POP SWAP2 SWAP1 POP JUMP JUMPDEST PUSH1 0x0 DUP2 SWAP1 POP SWAP2 SWAP1 POP JUMP JUMPDEST PUSH1 0x0 PUSH2 0x2836 DUP3 PUSH2 0x2873 JUMP JUMPDEST SWAP1 POP SWAP2 SWAP1 POP JUMP JUMPDEST PUSH1 0x0 PUSH2 0x2848 DUP3 PUSH2 0x2873 JUMP JUMPDEST SWAP1 POP SWAP2 SWAP1 POP JUMP JUMPDEST PUSH1 0x0 PUSH2 0x285A DUP3 PUSH2 0x2873 JUMP JUMPDEST SWAP1 POP SWAP2 SWAP1 POP JUMP JUMPDEST PUSH1 0x0 PUSH2 0x286C DUP3 PUSH2 0x2873 JUMP JUMPDEST SWAP1 POP SWAP2 SWAP1 POP JUMP JUMPDEST PUSH1 0x0 PUSH2 0x287E DUP3 PUSH2 0x2885 JUMP JUMPDEST SWAP1 POP SWAP2 SWAP1 POP JUMP JUMPDEST PUSH1 0x0 PUSH2 0x2890 DUP3 PUSH2 0x2801 JUMP JUMPDEST SWAP1 POP SWAP2 SWAP1 POP JUMP JUMPDEST PUSH1 0x0 JUMPDEST DUP4 DUP2 LT ISZERO PUSH2 0x28B5 JUMPI DUP1 DUP3 ADD MLOAD DUP2 DUP5 ADD MSTORE PUSH1 0x20 DUP2 ADD SWAP1 POP PUSH2 0x289A JUMP JUMPDEST DUP4 DUP2 GT ISZERO PUSH2 0x28C4 JUMPI PUSH1 0x0 DUP5 DUP5 ADD MSTORE JUMPDEST POP POP POP POP JUMP JUMPDEST PUSH2 0x28D3 DUP3 PUSH2 0x29EF JUMP JUMPDEST DUP2 ADD DUP2 DUP2 LT PUSH8 0xFFFFFFFFFFFFFFFF DUP3 GT OR ISZERO PUSH2 0x28F2 JUMPI PUSH2 0x28F1 PUSH2 0x29A2 JUMP JUMPDEST JUMPDEST DUP1 PUSH1 0x40 MSTORE POP POP POP JUMP JUMPDEST PUSH1 0x0 PUSH2 0x2906 DUP3 PUSH2 0x2821 JUMP JUMPDEST SWAP2 POP PUSH32 0xFFFFFFFFFFFFFFFFFFFFFFFFFFFFFFFFFFFFFFFFFFFFFFFFFFFFFFFFFFFFFFFF DUP3 EQ ISZERO PUSH2 0x2939 JUMPI PUSH2 0x2938 PUSH2 0x2944 JUMP JUMPDEST JUMPDEST PUSH1 0x1 DUP3 ADD SWAP1 POP SWAP2 SWAP1 POP JUMP JUMPDEST PUSH32 0x4E487B7100000000000000000000000000000000000000000000000000000000 PUSH1 0x0 MSTORE PUSH1 0x11 PUSH1 0x4 MSTORE PUSH1 0x24 PUSH1 0x0 REVERT JUMPDEST PUSH32 0x4E487B7100000000000000000000000000000000000000000000000000000000 PUSH1 0x0 MSTORE PUSH1 0x32 PUSH1 0x4 MSTORE PUSH1 0x24 PUSH1 0x0 REVERT JUMPDEST PUSH32 0x4E487B7100000000000000000000000000000000000000000000000000000000 PUSH1 0x0 MSTORE PUSH1 0x41 PUSH1 0x4 MSTORE PUSH1 0x24 PUSH1 0x0 REVERT JUMPDEST PUSH1 0x0 DUP1 REVERT JUMPDEST PUSH1 0x0 DUP1 REVERT JUMPDEST PUSH1 0x0 DUP1 REVERT JUMPDEST PUSH1 0x0 DUP1 REVERT JUMPDEST PUSH1 0x0 DUP1 REVERT JUMPDEST PUSH1 0x0 DUP1 REVERT JUMPDEST PUSH1 0x0 PUSH1 0x1F NOT PUSH1 0x1F DUP4 ADD AND SWAP1 POP SWAP2 SWAP1 POP JUMP JUMPDEST PUSH32 0x526F6C65733A206163636F756E7420616C72656164792068617320726F6C6500 PUSH1 0x0 DUP3 ADD MSTORE POP JUMP JUMPDEST PUSH32 0x4F776E61626C653A206E6577206F776E657220697320746865207A65726F2061 PUSH1 0x0 DUP3 ADD MSTORE PUSH32 0x6464726573730000000000000000000000000000000000000000000000000000 PUSH1 0x20 DUP3 ADD MSTORE POP JUMP JUMPDEST PUSH32 0x4167656E74526F6C653A2063616C6C657220646F6573206E6F74206861766520 PUSH1 0x0 DUP3 ADD MSTORE PUSH32 0x746865204167656E7420726F6C65000000000000000000000000000000000000 PUSH1 0x20 DUP3 ADD MSTORE POP JUMP JUMPDEST PUSH32 0x526F6C65733A206163636F756E7420646F6573206E6F74206861766520726F6C PUSH1 0x0 DUP3 ADD MSTORE PUSH32 0x6500000000000000000000000000000000000000000000000000000000000000 PUSH1 0x20 DUP3 ADD MSTORE POP JUMP JUMPDEST PUSH32 0x4F776E61626C653A2063616C6C6572206973206E6F7420746865206F776E6572 PUSH1 0x0 DUP3 ADD MSTORE POP JUMP JUMPDEST PUSH32 0x526F6C65733A206163636F756E7420697320746865207A65726F206164647265 PUSH1 0x0 DUP3 ADD MSTORE PUSH32 0x7373000000000000000000000000000000000000000000000000000000000000 PUSH1 0x20 DUP3 ADD MSTORE POP JUMP JUMPDEST PUSH2 0x2B97 DUP2 PUSH2 0x27B9 JUMP JUMPDEST DUP2 EQ PUSH2 0x2BA2 JUMPI PUSH1 0x0 DUP1 REVERT JUMPDEST POP JUMP JUMPDEST PUSH2 0x2BAE DUP2 PUSH2 0x27CB JUMP JUMPDEST DUP2 EQ PUSH2 0x2BB9 JUMPI PUSH1 0x0 DUP1 REVERT JUMPDEST POP JUMP JUMPDEST PUSH2 0x2BC5 DUP2 PUSH2 0x27D7 JUMP JUMPDEST DUP2 EQ PUSH2 0x2BD0 JUMPI PUSH1 0x0 DUP1 REVERT JUMPDEST POP JUMP JUMPDEST PUSH2 0x2BDC DUP2 PUSH2 0x27E1 JUMP JUMPDEST DUP2 EQ PUSH2 0x2BE7 JUMPI PUSH1 0x0 DUP1 REVERT JUMPDEST POP JUMP JUMPDEST PUSH2 0x2BF3 DUP2 PUSH2 0x27F3 JUMP JUMPDEST DUP2 EQ PUSH2 0x2BFE JUMPI PUSH1 0x0 DUP1 REVERT JUMPDEST POP JUMP JUMPDEST PUSH2 0x2C0A DUP2 PUSH2 0x2821 JUMP JUMPDEST DUP2 EQ PUSH2 0x2C15 JUMPI PUSH1 0x0 DUP1 REVERT JUMPDEST POP JUMP INVALID LOG2 PUSH5 0x6970667358 0x22 SLT KECCAK256 0xE3 PUSH1 0x94 0xBF PUSH20 0xCB98CB3780119B4522372AE114EB5226472716FB 0xEA KECCAK256 EXTCODEHASH ISZERO 0xA5 0xD3 LOG0 PUSH5 0x736F6C6343 STOP ADDMOD SMOD STOP CALLER "
		},
		"gasEstimates": {
			"creation": {
				"codeDepositCost": "2268400",
				"executionCost": "infinite",
				"totalCost": "infinite"
			},
			"external": {
				"addAgent(address)": "infinite",
				"addAgentOnIdentityRegistryContract(address)": "infinite",
				"batchRegisterIdentity(address[],address[],uint16[])": "infinite",
				"contains(address)": "infinite",
				"deleteIdentity(address)": "infinite",
				"identity(address)": "infinite",
				"identityStorage()": "2718",
				"investorCountry(address)": "infinite",
				"isAgent(address)": "infinite",
				"isVerified(address)": "infinite",
				"issuersRegistry()": "2741",
				"owner()": "2567",
				"registerIdentity(address,address,uint16)": "infinite",
				"removeAgent(address)": "infinite",
				"removeAgentOnIdentityRegistryContract(address)": "infinite",
				"renounceOwnership()": "30509",
				"setClaimTopicsRegistry(address)": "28236",
				"setIdentityRegistryStorage(address)": "28193",
				"setTrustedIssuersRegistry(address)": "28213",
				"topicsRegistry()": "2698",
				"transferOwnership(address)": "30879",
				"transferOwnershipOnIdentityRegistryContract(address)": "infinite",
				"updateCountry(address,uint16)": "infinite",
				"updateIdentity(address,address)": "infinite"
			}
		},
		"methodIdentifiers": {
			"addAgent(address)": "84e79842",
			"addAgentOnIdentityRegistryContract(address)": "50bc7bda",
			"batchRegisterIdentity(address[],address[],uint16[])": "653dc9f1",
			"contains(address)": "5dbe47e8",
			"deleteIdentity(address)": "a8d29d1d",
			"identity(address)": "f0eb5e54",
			"identityStorage()": "f11abfd8",
			"investorCountry(address)": "7e42683b",
			"isAgent(address)": "1ffbb064",
			"isVerified(address)": "b9209e33",
			"issuersRegistry()": "b4f3fcb7",
			"owner()": "8da5cb5b",
			"registerIdentity(address,address,uint16)": "454a03e0",
			"removeAgent(address)": "97a6278e",
			"removeAgentOnIdentityRegistryContract(address)": "5e5741f3",
			"renounceOwnership()": "715018a6",
			"setClaimTopicsRegistry(address)": "670af6a9",
			"setIdentityRegistryStorage(address)": "26d941ae",
			"setTrustedIssuersRegistry(address)": "e744d789",
			"topicsRegistry()": "3b3e12f4",
			"transferOwnership(address)": "f2fde38b",
			"transferOwnershipOnIdentityRegistryContract(address)": "ce240d9c",
			"updateCountry(address,uint16)": "3b239a7f",
			"updateIdentity(address,address)": "8e098ca1"
		}
	},
	"abi": [
		{
			"inputs": [
				{
					"internalType": "address",
					"name": "_trustedIssuersRegistry",
					"type": "address"
				},
				{
					"internalType": "address",
					"name": "_claimTopicsRegistry",
					"type": "address"
				},
				{
					"internalType": "address",
					"name": "_identityStorage",
					"type": "address"
				}
			],
			"stateMutability": "nonpayable",
			"type": "constructor"
		},
		{
			"anonymous": false,
			"inputs": [
				{
					"indexed": true,
					"internalType": "address",
					"name": "_agent",
					"type": "address"
				}
			],
			"name": "AgentAdded",
			"type": "event"
		},
		{
			"anonymous": false,
			"inputs": [
				{
					"indexed": true,
					"internalType": "address",
					"name": "_agent",
					"type": "address"
				}
			],
			"name": "AgentRemoved",
			"type": "event"
		},
		{
			"anonymous": false,
			"inputs": [
				{
					"indexed": true,
					"internalType": "address",
					"name": "claimTopicsRegistry",
					"type": "address"
				}
			],
			"name": "ClaimTopicsRegistrySet",
			"type": "event"
		},
		{
			"anonymous": false,
			"inputs": [
				{
					"indexed": true,
					"internalType": "address",
					"name": "investorAddress",
					"type": "address"
				},
				{
					"indexed": true,
					"internalType": "uint16",
					"name": "country",
					"type": "uint16"
				}
			],
			"name": "CountryUpdated",
			"type": "event"
		},
		{
			"anonymous": false,
			"inputs": [
				{
					"indexed": true,
					"internalType": "address",
					"name": "investorAddress",
					"type": "address"
				},
				{
					"indexed": true,
					"internalType": "contract IIdentity",
					"name": "identity",
					"type": "address"
				}
			],
			"name": "IdentityRegistered",
			"type": "event"
		},
		{
			"anonymous": false,
			"inputs": [
				{
					"indexed": true,
					"internalType": "address",
					"name": "investorAddress",
					"type": "address"
				},
				{
					"indexed": true,
					"internalType": "contract IIdentity",
					"name": "identity",
					"type": "address"
				}
			],
			"name": "IdentityRemoved",
			"type": "event"
		},
		{
			"anonymous": false,
			"inputs": [
				{
					"indexed": true,
					"internalType": "address",
					"name": "identityStorage",
					"type": "address"
				}
			],
			"name": "IdentityStorageSet",
			"type": "event"
		},
		{
			"anonymous": false,
			"inputs": [
				{
					"indexed": true,
					"internalType": "contract IIdentity",
					"name": "oldIdentity",
					"type": "address"
				},
				{
					"indexed": true,
					"internalType": "contract IIdentity",
					"name": "newIdentity",
					"type": "address"
				}
			],
			"name": "IdentityUpdated",
			"type": "event"
		},
		{
			"anonymous": false,
			"inputs": [
				{
					"indexed": true,
					"internalType": "address",
					"name": "previousOwner",
					"type": "address"
				},
				{
					"indexed": true,
					"internalType": "address",
					"name": "newOwner",
					"type": "address"
				}
			],
			"name": "OwnershipTransferred",
			"type": "event"
		},
		{
			"anonymous": false,
			"inputs": [
				{
					"indexed": true,
					"internalType": "address",
					"name": "trustedIssuersRegistry",
					"type": "address"
				}
			],
			"name": "TrustedIssuersRegistrySet",
			"type": "event"
		},
		{
			"inputs": [
				{
					"internalType": "address",
					"name": "_agent",
					"type": "address"
				}
			],
			"name": "addAgent",
			"outputs": [],
			"stateMutability": "nonpayable",
			"type": "function"
		},
		{
			"inputs": [
				{
					"internalType": "address",
					"name": "_agent",
					"type": "address"
				}
			],
			"name": "addAgentOnIdentityRegistryContract",
			"outputs": [],
			"stateMutability": "nonpayable",
			"type": "function"
		},
		{
			"inputs": [
				{
					"internalType": "address[]",
					"name": "_userAddresses",
					"type": "address[]"
				},
				{
					"internalType": "contract IIdentity[]",
					"name": "_identities",
					"type": "address[]"
				},
				{
					"internalType": "uint16[]",
					"name": "_countries",
					"type": "uint16[]"
				}
			],
			"name": "batchRegisterIdentity",
			"outputs": [],
			"stateMutability": "nonpayable",
			"type": "function"
		},
		{
			"inputs": [
				{
					"internalType": "address",
					"name": "_userAddress",
					"type": "address"
				}
			],
			"name": "contains",
			"outputs": [
				{
					"internalType": "bool",
					"name": "",
					"type": "bool"
				}
			],
			"stateMutability": "view",
			"type": "function"
		},
		{
			"inputs": [
				{
					"internalType": "address",
					"name": "_userAddress",
					"type": "address"
				}
			],
			"name": "deleteIdentity",
			"outputs": [],
			"stateMutability": "nonpayable",
			"type": "function"
		},
		{
			"inputs": [
				{
					"internalType": "address",
					"name": "_userAddress",
					"type": "address"
				}
			],
			"name": "identity",
			"outputs": [
				{
					"internalType": "contract IIdentity",
					"name": "",
					"type": "address"
				}
			],
			"stateMutability": "view",
			"type": "function"
		},
		{
			"inputs": [],
			"name": "identityStorage",
			"outputs": [
				{
					"internalType": "contract IIdentityRegistryStorage",
					"name": "",
					"type": "address"
				}
			],
			"stateMutability": "view",
			"type": "function"
		},
		{
			"inputs": [
				{
					"internalType": "address",
					"name": "_userAddress",
					"type": "address"
				}
			],
			"name": "investorCountry",
			"outputs": [
				{
					"internalType": "uint16",
					"name": "",
					"type": "uint16"
				}
			],
			"stateMutability": "view",
			"type": "function"
		},
		{
			"inputs": [
				{
					"internalType": "address",
					"name": "_agent",
					"type": "address"
				}
			],
			"name": "isAgent",
			"outputs": [
				{
					"internalType": "bool",
					"name": "",
					"type": "bool"
				}
			],
			"stateMutability": "view",
			"type": "function"
		},
		{
			"inputs": [
				{
					"internalType": "address",
					"name": "_userAddress",
					"type": "address"
				}
			],
			"name": "isVerified",
			"outputs": [
				{
					"internalType": "bool",
					"name": "",
					"type": "bool"
				}
			],
			"stateMutability": "view",
			"type": "function"
		},
		{
			"inputs": [],
			"name": "issuersRegistry",
			"outputs": [
				{
					"internalType": "contract ITrustedIssuersRegistry",
					"name": "",
					"type": "address"
				}
			],
			"stateMutability": "view",
			"type": "function"
		},
		{
			"inputs": [],
			"name": "owner",
			"outputs": [
				{
					"internalType": "address",
					"name": "",
					"type": "address"
				}
			],
			"stateMutability": "view",
			"type": "function"
		},
		{
			"inputs": [
				{
					"internalType": "address",
					"name": "_userAddress",
					"type": "address"
				},
				{
					"internalType": "contract IIdentity",
					"name": "_identity",
					"type": "address"
				},
				{
					"internalType": "uint16",
					"name": "_country",
					"type": "uint16"
				}
			],
			"name": "registerIdentity",
			"outputs": [],
			"stateMutability": "nonpayable",
			"type": "function"
		},
		{
			"inputs": [
				{
					"internalType": "address",
					"name": "_agent",
					"type": "address"
				}
			],
			"name": "removeAgent",
			"outputs": [],
			"stateMutability": "nonpayable",
			"type": "function"
		},
		{
			"inputs": [
				{
					"internalType": "address",
					"name": "_agent",
					"type": "address"
				}
			],
			"name": "removeAgentOnIdentityRegistryContract",
			"outputs": [],
			"stateMutability": "nonpayable",
			"type": "function"
		},
		{
			"inputs": [],
			"name": "renounceOwnership",
			"outputs": [],
			"stateMutability": "nonpayable",
			"type": "function"
		},
		{
			"inputs": [
				{
					"internalType": "address",
					"name": "_claimTopicsRegistry",
					"type": "address"
				}
			],
			"name": "setClaimTopicsRegistry",
			"outputs": [],
			"stateMutability": "nonpayable",
			"type": "function"
		},
		{
			"inputs": [
				{
					"internalType": "address",
					"name": "_identityRegistryStorage",
					"type": "address"
				}
			],
			"name": "setIdentityRegistryStorage",
			"outputs": [],
			"stateMutability": "nonpayable",
			"type": "function"
		},
		{
			"inputs": [
				{
					"internalType": "address",
					"name": "_trustedIssuersRegistry",
					"type": "address"
				}
			],
			"name": "setTrustedIssuersRegistry",
			"outputs": [],
			"stateMutability": "nonpayable",
			"type": "function"
		},
		{
			"inputs": [],
			"name": "topicsRegistry",
			"outputs": [
				{
					"internalType": "contract IClaimTopicsRegistry",
					"name": "",
					"type": "address"
				}
			],
			"stateMutability": "view",
			"type": "function"
		},
		{
			"inputs": [
				{
					"internalType": "address",
					"name": "newOwner",
					"type": "address"
				}
			],
			"name": "transferOwnership",
			"outputs": [],
			"stateMutability": "nonpayable",
			"type": "function"
		},
		{
			"inputs": [
				{
					"internalType": "address",
					"name": "_newOwner",
					"type": "address"
				}
			],
			"name": "transferOwnershipOnIdentityRegistryContract",
			"outputs": [],
			"stateMutability": "nonpayable",
			"type": "function"
		},
		{
			"inputs": [
				{
					"internalType": "address",
					"name": "_userAddress",
					"type": "address"
				},
				{
					"internalType": "uint16",
					"name": "_country",
					"type": "uint16"
				}
			],
			"name": "updateCountry",
			"outputs": [],
			"stateMutability": "nonpayable",
			"type": "function"
		},
		{
			"inputs": [
				{
					"internalType": "address",
					"name": "_userAddress",
					"type": "address"
				},
				{
					"internalType": "contract IIdentity",
					"name": "_identity",
					"type": "address"
				}
			],
			"name": "updateIdentity",
			"outputs": [],
			"stateMutability": "nonpayable",
			"type": "function"
		}
	]
}