{
	"contracts/proxy/TokenProxy.sol": {
		"TokenProxy": {
			"abi": [
				{
					"inputs": [
						{
							"internalType": "address",
							"name": "_implementationAuthority",
							"type": "address"
						},
						{
							"internalType": "address",
							"name": "_identityRegistry",
							"type": "address"
						},
						{
							"internalType": "address",
							"name": "_compliance",
							"type": "address"
						},
						{
							"internalType": "string",
							"name": "_name",
							"type": "string"
						},
						{
							"internalType": "string",
							"name": "_symbol",
							"type": "string"
						},
						{
							"internalType": "uint8",
							"name": "_decimals",
							"type": "uint8"
						},
						{
							"internalType": "address",
							"name": "_onchainID",
							"type": "address"
						}
					],
					"stateMutability": "nonpayable",
					"type": "constructor"
				},
				{
					"stateMutability": "payable",
					"type": "fallback"
				},
				{
					"inputs": [],
					"name": "implementationAuthority",
					"outputs": [
						{
							"internalType": "address",
							"name": "",
							"type": "address"
						}
					],
					"stateMutability": "view",
					"type": "function"
				}
			],
			"devdoc": {
				"kind": "dev",
				"methods": {},
				"version": 1
			},
			"evm": {
				"assembly": "    /* \"contracts/proxy/TokenProxy.sol\":1224:2820  contract TokenProxy {... */\n  mstore(0x40, 0x80)\n    /* \"contracts/proxy/TokenProxy.sol\":1295:2203  constructor(... */\n  callvalue\n  dup1\n  iszero\n  tag_1\n  jumpi\n  0x00\n  dup1\n  revert\ntag_1:\n  pop\n  mload(0x40)\n  sub(codesize, bytecodeSize)\n  dup1\n  bytecodeSize\n  dup4\n  codecopy\n  dup2\n  dup2\n  add\n  0x40\n  mstore\n  dup2\n  add\n  swap1\n  tag_2\n  swap2\n  swap1\n  tag_3\n  jump\t// in\ntag_2:\n    /* \"contracts/proxy/TokenProxy.sol\":1568:1592  _implementationAuthority */\n  dup7\n    /* \"contracts/proxy/TokenProxy.sol\":1542:1565  implementationAuthority */\n  0x00\n  dup1\n    /* \"contracts/proxy/TokenProxy.sol\":1542:1592  implementationAuthority = _implementationAuthority */\n  0x0100\n  exp\n  dup2\n  sload\n  dup2\n  0xffffffffffffffffffffffffffffffffffffffff\n  mul\n  not\n  and\n  swap1\n  dup4\n  0xffffffffffffffffffffffffffffffffffffffff\n  and\n  mul\n  or\n  swap1\n  sstore\n  pop\n    /* \"contracts/proxy/TokenProxy.sol\":1603:1616  address logic */\n  0x00\n    /* \"contracts/proxy/TokenProxy.sol\":1644:1667  implementationAuthority */\n  dup1\n  0x00\n  swap1\n  sload\n  swap1\n  0x0100\n  exp\n  swap1\n  div\n  0xffffffffffffffffffffffffffffffffffffffff\n  and\n    /* \"contracts/proxy/TokenProxy.sol\":1619:1686  IImplementationAuthority(implementationAuthority).getImplementation */\n  0xffffffffffffffffffffffffffffffffffffffff\n  and\n  0xaaf10f42\n    /* \"contracts/proxy/TokenProxy.sol\":1619:1688  IImplementationAuthority(implementationAuthority).getImplementation() */\n  mload(0x40)\n  dup2\n  0xffffffff\n  and\n  0xe0\n  shl\n  dup2\n  mstore\n  0x04\n  add\n  0x20\n  mload(0x40)\n  dup1\n  dup4\n  sub\n  dup2\n  dup7\n  dup1\n  extcodesize\n  iszero\n  dup1\n  iszero\n  tag_6\n  jumpi\n  0x00\n  dup1\n  revert\ntag_6:\n  pop\n  gas\n  staticcall\n  iszero\n  dup1\n  iszero\n  tag_8\n  jumpi\n  returndatasize\n  0x00\n  dup1\n  returndatacopy\n  revert(0x00, returndatasize)\ntag_8:\n  pop\n  pop\n  pop\n  pop\n  mload(0x40)\n  returndatasize\n  not(0x1f)\n  0x1f\n  dup3\n  add\n  and\n  dup3\n  add\n  dup1\n  0x40\n  mstore\n  pop\n  dup2\n  add\n  swap1\n  tag_9\n  swap2\n  swap1\n  tag_10\n  jump\t// in\ntag_9:\n    /* \"contracts/proxy/TokenProxy.sol\":1603:1688  address logic = IImplementationAuthority(implementationAuthority).getImplementation() */\n  swap1\n  pop\n    /* \"contracts/proxy/TokenProxy.sol\":1759:1771  bool success */\n  0x00\n    /* \"contracts/proxy/TokenProxy.sol\":1789:1794  logic */\n  dup2\n    /* \"contracts/proxy/TokenProxy.sol\":1789:1807  logic.delegatecall */\n  0xffffffffffffffffffffffffffffffffffffffff\n  and\n    /* \"contracts/proxy/TokenProxy.sol\":1943:1960  _identityRegistry */\n  dup9\n    /* \"contracts/proxy/TokenProxy.sol\":1982:1993  _compliance */\n  dup9\n    /* \"contracts/proxy/TokenProxy.sol\":2015:2020  _name */\n  dup9\n    /* \"contracts/proxy/TokenProxy.sol\":2042:2049  _symbol */\n  dup9\n    /* \"contracts/proxy/TokenProxy.sol\":2071:2080  _decimals */\n  dup9\n    /* \"contracts/proxy/TokenProxy.sol\":2102:2112  _onchainID */\n  dup9\n    /* \"contracts/proxy/TokenProxy.sol\":1825:2130  abi.encodeWithSignature(... */\n  add(0x24, mload(0x40))\n  tag_11\n  swap7\n  swap6\n  swap5\n  swap4\n  swap3\n  swap2\n  swap1\n  tag_12\n  jump\t// in\ntag_11:\n  mload(0x40)\n  0x20\n  dup2\n  dup4\n  sub\n  sub\n  dup2\n  mstore\n  swap1\n  0x40\n  mstore\n  and(not(0xffffffffffffffffffffffffffffffffffffffffffffffffffffffff), 0xf91b619c00000000000000000000000000000000000000000000000000000000)\n  0x20\n  dup3\n  add\n  dup1\n  mload\n  0xffffffffffffffffffffffffffffffffffffffffffffffffffffffff\n  dup4\n  dup2\n  dup4\n  and\n  or\n  dup4\n  mstore\n  pop\n  pop\n  pop\n  pop\n    /* \"contracts/proxy/TokenProxy.sol\":1789:2144  logic.delegatecall(... */\n  mload(0x40)\n  tag_13\n  swap2\n  swap1\n  tag_14\n  jump\t// in\ntag_13:\n  0x00\n  mload(0x40)\n  dup1\n  dup4\n  sub\n  dup2\n  dup6\n  gas\n  delegatecall\n  swap2\n  pop\n  pop\n  returndatasize\n  dup1\n  0x00\n  dup2\n  eq\n  tag_17\n  jumpi\n  mload(0x40)\n  swap2\n  pop\n  and(add(returndatasize, 0x3f), not(0x1f))\n  dup3\n  add\n  0x40\n  mstore\n  returndatasize\n  dup3\n  mstore\n  returndatasize\n  0x00\n  0x20\n  dup5\n  add\n  returndatacopy\n  jump(tag_16)\ntag_17:\n  0x60\n  swap2\n  pop\ntag_16:\n  pop\n    /* \"contracts/proxy/TokenProxy.sol\":1758:2144  (bool success, ) =... */\n  pop\n  swap1\n  pop\n    /* \"contracts/proxy/TokenProxy.sol\":2162:2169  success */\n  dup1\n    /* \"contracts/proxy/TokenProxy.sol\":2154:2196  require(success, 'Initialization failed.') */\n  tag_18\n  jumpi\n  mload(0x40)\n  0x08c379a000000000000000000000000000000000000000000000000000000000\n  dup2\n  mstore\n  0x04\n  add\n  tag_19\n  swap1\n  tag_20\n  jump\t// in\ntag_19:\n  mload(0x40)\n  dup1\n  swap2\n  sub\n  swap1\n  revert\ntag_18:\n    /* \"contracts/proxy/TokenProxy.sol\":1532:2203  {... */\n  pop\n  pop\n    /* \"contracts/proxy/TokenProxy.sol\":1295:2203  constructor(... */\n  pop\n  pop\n  pop\n  pop\n  pop\n  pop\n  pop\n    /* \"contracts/proxy/TokenProxy.sol\":1224:2820  contract TokenProxy {... */\n  jump(tag_21)\n    /* \"#utility.yul\":7:428   */\ntag_23:\n    /* \"#utility.yul\":96:101   */\n  0x00\n    /* \"#utility.yul\":121:187   */\n  tag_25\n    /* \"#utility.yul\":137:186   */\n  tag_26\n    /* \"#utility.yul\":179:185   */\n  dup5\n    /* \"#utility.yul\":137:186   */\n  tag_27\n  jump\t// in\ntag_26:\n    /* \"#utility.yul\":121:187   */\n  tag_28\n  jump\t// in\ntag_25:\n    /* \"#utility.yul\":112:187   */\n  swap1\n  pop\n    /* \"#utility.yul\":210:216   */\n  dup3\n    /* \"#utility.yul\":203:208   */\n  dup2\n    /* \"#utility.yul\":196:217   */\n  mstore\n    /* \"#utility.yul\":248:252   */\n  0x20\n    /* \"#utility.yul\":241:246   */\n  dup2\n    /* \"#utility.yul\":237:253   */\n  add\n    /* \"#utility.yul\":286:289   */\n  dup5\n    /* \"#utility.yul\":277:283   */\n  dup5\n    /* \"#utility.yul\":272:275   */\n  dup5\n    /* \"#utility.yul\":268:284   */\n  add\n    /* \"#utility.yul\":265:290   */\n  gt\n    /* \"#utility.yul\":262:374   */\n  iszero\n  tag_29\n  jumpi\n    /* \"#utility.yul\":293:372   */\n  tag_30\n  tag_31\n  jump\t// in\ntag_30:\n    /* \"#utility.yul\":262:374   */\ntag_29:\n    /* \"#utility.yul\":383:422   */\n  tag_32\n    /* \"#utility.yul\":415:421   */\n  dup5\n    /* \"#utility.yul\":410:413   */\n  dup3\n    /* \"#utility.yul\":405:408   */\n  dup6\n    /* \"#utility.yul\":383:422   */\n  tag_33\n  jump\t// in\ntag_32:\n    /* \"#utility.yul\":102:428   */\n  pop\n    /* \"#utility.yul\":7:428   */\n  swap4\n  swap3\n  pop\n  pop\n  pop\n  jump\t// out\n    /* \"#utility.yul\":434:577   */\ntag_34:\n    /* \"#utility.yul\":491:496   */\n  0x00\n    /* \"#utility.yul\":522:528   */\n  dup2\n    /* \"#utility.yul\":516:529   */\n  mload\n    /* \"#utility.yul\":507:529   */\n  swap1\n  pop\n    /* \"#utility.yul\":538:571   */\n  tag_36\n    /* \"#utility.yul\":565:570   */\n  dup2\n    /* \"#utility.yul\":538:571   */\n  tag_37\n  jump\t// in\ntag_36:\n    /* \"#utility.yul\":434:577   */\n  swap3\n  swap2\n  pop\n  pop\n  jump\t// out\n    /* \"#utility.yul\":597:952   */\ntag_38:\n    /* \"#utility.yul\":664:669   */\n  0x00\n    /* \"#utility.yul\":713:716   */\n  dup3\n    /* \"#utility.yul\":706:710   */\n  0x1f\n    /* \"#utility.yul\":698:704   */\n  dup4\n    /* \"#utility.yul\":694:711   */\n  add\n    /* \"#utility.yul\":690:717   */\n  slt\n    /* \"#utility.yul\":680:802   */\n  tag_40\n  jumpi\n    /* \"#utility.yul\":721:800   */\n  tag_41\n  tag_42\n  jump\t// in\ntag_41:\n    /* \"#utility.yul\":680:802   */\ntag_40:\n    /* \"#utility.yul\":831:837   */\n  dup2\n    /* \"#utility.yul\":825:838   */\n  mload\n    /* \"#utility.yul\":856:946   */\n  tag_43\n    /* \"#utility.yul\":942:945   */\n  dup5\n    /* \"#utility.yul\":934:940   */\n  dup3\n    /* \"#utility.yul\":927:931   */\n  0x20\n    /* \"#utility.yul\":919:925   */\n  dup7\n    /* \"#utility.yul\":915:932   */\n  add\n    /* \"#utility.yul\":856:946   */\n  tag_23\n  jump\t// in\ntag_43:\n    /* \"#utility.yul\":847:946   */\n  swap2\n  pop\n    /* \"#utility.yul\":670:952   */\n  pop\n    /* \"#utility.yul\":597:952   */\n  swap3\n  swap2\n  pop\n  pop\n  jump\t// out\n    /* \"#utility.yul\":958:1097   */\ntag_44:\n    /* \"#utility.yul\":1013:1018   */\n  0x00\n    /* \"#utility.yul\":1044:1050   */\n  dup2\n    /* \"#utility.yul\":1038:1051   */\n  mload\n    /* \"#utility.yul\":1029:1051   */\n  swap1\n  pop\n    /* \"#utility.yul\":1060:1091   */\n  tag_46\n    /* \"#utility.yul\":1085:1090   */\n  dup2\n    /* \"#utility.yul\":1060:1091   */\n  tag_47\n  jump\t// in\ntag_46:\n    /* \"#utility.yul\":958:1097   */\n  swap3\n  swap2\n  pop\n  pop\n  jump\t// out\n    /* \"#utility.yul\":1103:1454   */\ntag_10:\n    /* \"#utility.yul\":1173:1179   */\n  0x00\n    /* \"#utility.yul\":1222:1224   */\n  0x20\n    /* \"#utility.yul\":1210:1219   */\n  dup3\n    /* \"#utility.yul\":1201:1208   */\n  dup5\n    /* \"#utility.yul\":1197:1220   */\n  sub\n    /* \"#utility.yul\":1193:1225   */\n  slt\n    /* \"#utility.yul\":1190:1309   */\n  iszero\n  tag_49\n  jumpi\n    /* \"#utility.yul\":1228:1307   */\n  tag_50\n  tag_51\n  jump\t// in\ntag_50:\n    /* \"#utility.yul\":1190:1309   */\ntag_49:\n    /* \"#utility.yul\":1348:1349   */\n  0x00\n    /* \"#utility.yul\":1373:1437   */\n  tag_52\n    /* \"#utility.yul\":1429:1436   */\n  dup5\n    /* \"#utility.yul\":1420:1426   */\n  dup3\n    /* \"#utility.yul\":1409:1418   */\n  dup6\n    /* \"#utility.yul\":1405:1427   */\n  add\n    /* \"#utility.yul\":1373:1437   */\n  tag_34\n  jump\t// in\ntag_52:\n    /* \"#utility.yul\":1363:1437   */\n  swap2\n  pop\n    /* \"#utility.yul\":1319:1447   */\n  pop\n    /* \"#utility.yul\":1103:1454   */\n  swap3\n  swap2\n  pop\n  pop\n  jump\t// out\n    /* \"#utility.yul\":1460:3093   */\ntag_3:\n    /* \"#utility.yul\":1602:1608   */\n  0x00\n    /* \"#utility.yul\":1610:1616   */\n  dup1\n    /* \"#utility.yul\":1618:1624   */\n  0x00\n    /* \"#utility.yul\":1626:1632   */\n  dup1\n    /* \"#utility.yul\":1634:1640   */\n  0x00\n    /* \"#utility.yul\":1642:1648   */\n  dup1\n    /* \"#utility.yul\":1650:1656   */\n  0x00\n    /* \"#utility.yul\":1699:1702   */\n  0xe0\n    /* \"#utility.yul\":1687:1696   */\n  dup9\n    /* \"#utility.yul\":1678:1685   */\n  dup11\n    /* \"#utility.yul\":1674:1697   */\n  sub\n    /* \"#utility.yul\":1670:1703   */\n  slt\n    /* \"#utility.yul\":1667:1787   */\n  iszero\n  tag_54\n  jumpi\n    /* \"#utility.yul\":1706:1785   */\n  tag_55\n  tag_51\n  jump\t// in\ntag_55:\n    /* \"#utility.yul\":1667:1787   */\ntag_54:\n    /* \"#utility.yul\":1826:1827   */\n  0x00\n    /* \"#utility.yul\":1851:1915   */\n  tag_56\n    /* \"#utility.yul\":1907:1914   */\n  dup11\n    /* \"#utility.yul\":1898:1904   */\n  dup3\n    /* \"#utility.yul\":1887:1896   */\n  dup12\n    /* \"#utility.yul\":1883:1905   */\n  add\n    /* \"#utility.yul\":1851:1915   */\n  tag_34\n  jump\t// in\ntag_56:\n    /* \"#utility.yul\":1841:1915   */\n  swap8\n  pop\n    /* \"#utility.yul\":1797:1925   */\n  pop\n    /* \"#utility.yul\":1964:1966   */\n  0x20\n    /* \"#utility.yul\":1990:2054   */\n  tag_57\n    /* \"#utility.yul\":2046:2053   */\n  dup11\n    /* \"#utility.yul\":2037:2043   */\n  dup3\n    /* \"#utility.yul\":2026:2035   */\n  dup12\n    /* \"#utility.yul\":2022:2044   */\n  add\n    /* \"#utility.yul\":1990:2054   */\n  tag_34\n  jump\t// in\ntag_57:\n    /* \"#utility.yul\":1980:2054   */\n  swap7\n  pop\n    /* \"#utility.yul\":1935:2064   */\n  pop\n    /* \"#utility.yul\":2103:2105   */\n  0x40\n    /* \"#utility.yul\":2129:2193   */\n  tag_58\n    /* \"#utility.yul\":2185:2192   */\n  dup11\n    /* \"#utility.yul\":2176:2182   */\n  dup3\n    /* \"#utility.yul\":2165:2174   */\n  dup12\n    /* \"#utility.yul\":2161:2183   */\n  add\n    /* \"#utility.yul\":2129:2193   */\n  tag_34\n  jump\t// in\ntag_58:\n    /* \"#utility.yul\":2119:2193   */\n  swap6\n  pop\n    /* \"#utility.yul\":2074:2203   */\n  pop\n    /* \"#utility.yul\":2263:2265   */\n  0x60\n    /* \"#utility.yul\":2252:2261   */\n  dup9\n    /* \"#utility.yul\":2248:2266   */\n  add\n    /* \"#utility.yul\":2242:2267   */\n  mload\n    /* \"#utility.yul\":2294:2312   */\n  0xffffffffffffffff\n    /* \"#utility.yul\":2286:2292   */\n  dup2\n    /* \"#utility.yul\":2283:2313   */\n  gt\n    /* \"#utility.yul\":2280:2397   */\n  iszero\n  tag_59\n  jumpi\n    /* \"#utility.yul\":2316:2395   */\n  tag_60\n  tag_61\n  jump\t// in\ntag_60:\n    /* \"#utility.yul\":2280:2397   */\ntag_59:\n    /* \"#utility.yul\":2421:2495   */\n  tag_62\n    /* \"#utility.yul\":2487:2494   */\n  dup11\n    /* \"#utility.yul\":2478:2484   */\n  dup3\n    /* \"#utility.yul\":2467:2476   */\n  dup12\n    /* \"#utility.yul\":2463:2485   */\n  add\n    /* \"#utility.yul\":2421:2495   */\n  tag_38\n  jump\t// in\ntag_62:\n    /* \"#utility.yul\":2411:2495   */\n  swap5\n  pop\n    /* \"#utility.yul\":2213:2505   */\n  pop\n    /* \"#utility.yul\":2565:2568   */\n  0x80\n    /* \"#utility.yul\":2554:2563   */\n  dup9\n    /* \"#utility.yul\":2550:2569   */\n  add\n    /* \"#utility.yul\":2544:2570   */\n  mload\n    /* \"#utility.yul\":2597:2615   */\n  0xffffffffffffffff\n    /* \"#utility.yul\":2589:2595   */\n  dup2\n    /* \"#utility.yul\":2586:2616   */\n  gt\n    /* \"#utility.yul\":2583:2700   */\n  iszero\n  tag_63\n  jumpi\n    /* \"#utility.yul\":2619:2698   */\n  tag_64\n  tag_61\n  jump\t// in\ntag_64:\n    /* \"#utility.yul\":2583:2700   */\ntag_63:\n    /* \"#utility.yul\":2724:2798   */\n  tag_65\n    /* \"#utility.yul\":2790:2797   */\n  dup11\n    /* \"#utility.yul\":2781:2787   */\n  dup3\n    /* \"#utility.yul\":2770:2779   */\n  dup12\n    /* \"#utility.yul\":2766:2788   */\n  add\n    /* \"#utility.yul\":2724:2798   */\n  tag_38\n  jump\t// in\ntag_65:\n    /* \"#utility.yul\":2714:2798   */\n  swap4\n  pop\n    /* \"#utility.yul\":2515:2808   */\n  pop\n    /* \"#utility.yul\":2847:2850   */\n  0xa0\n    /* \"#utility.yul\":2874:2936   */\n  tag_66\n    /* \"#utility.yul\":2928:2935   */\n  dup11\n    /* \"#utility.yul\":2919:2925   */\n  dup3\n    /* \"#utility.yul\":2908:2917   */\n  dup12\n    /* \"#utility.yul\":2904:2926   */\n  add\n    /* \"#utility.yul\":2874:2936   */\n  tag_44\n  jump\t// in\ntag_66:\n    /* \"#utility.yul\":2864:2936   */\n  swap3\n  pop\n    /* \"#utility.yul\":2818:2946   */\n  pop\n    /* \"#utility.yul\":2985:2988   */\n  0xc0\n    /* \"#utility.yul\":3012:3076   */\n  tag_67\n    /* \"#utility.yul\":3068:3075   */\n  dup11\n    /* \"#utility.yul\":3059:3065   */\n  dup3\n    /* \"#utility.yul\":3048:3057   */\n  dup12\n    /* \"#utility.yul\":3044:3066   */\n  add\n    /* \"#utility.yul\":3012:3076   */\n  tag_34\n  jump\t// in\ntag_67:\n    /* \"#utility.yul\":3002:3076   */\n  swap2\n  pop\n    /* \"#utility.yul\":2956:3086   */\n  pop\n    /* \"#utility.yul\":1460:3093   */\n  swap3\n  swap6\n  swap9\n  swap2\n  swap5\n  swap8\n  pop\n  swap3\n  swap6\n  pop\n  jump\t// out\n    /* \"#utility.yul\":3099:3217   */\ntag_68:\n    /* \"#utility.yul\":3186:3210   */\n  tag_70\n    /* \"#utility.yul\":3204:3209   */\n  dup2\n    /* \"#utility.yul\":3186:3210   */\n  tag_71\n  jump\t// in\ntag_70:\n    /* \"#utility.yul\":3181:3184   */\n  dup3\n    /* \"#utility.yul\":3174:3211   */\n  mstore\n    /* \"#utility.yul\":3099:3217   */\n  pop\n  pop\n  jump\t// out\n    /* \"#utility.yul\":3223:3596   */\ntag_72:\n    /* \"#utility.yul\":3327:3330   */\n  0x00\n    /* \"#utility.yul\":3355:3393   */\n  tag_74\n    /* \"#utility.yul\":3387:3392   */\n  dup3\n    /* \"#utility.yul\":3355:3393   */\n  tag_75\n  jump\t// in\ntag_74:\n    /* \"#utility.yul\":3409:3497   */\n  tag_76\n    /* \"#utility.yul\":3490:3496   */\n  dup2\n    /* \"#utility.yul\":3485:3488   */\n  dup6\n    /* \"#utility.yul\":3409:3497   */\n  tag_77\n  jump\t// in\ntag_76:\n    /* \"#utility.yul\":3402:3497   */\n  swap4\n  pop\n    /* \"#utility.yul\":3506:3558   */\n  tag_78\n    /* \"#utility.yul\":3551:3557   */\n  dup2\n    /* \"#utility.yul\":3546:3549   */\n  dup6\n    /* \"#utility.yul\":3539:3543   */\n  0x20\n    /* \"#utility.yul\":3532:3537   */\n  dup7\n    /* \"#utility.yul\":3528:3544   */\n  add\n    /* \"#utility.yul\":3506:3558   */\n  tag_33\n  jump\t// in\ntag_78:\n    /* \"#utility.yul\":3583:3589   */\n  dup1\n    /* \"#utility.yul\":3578:3581   */\n  dup5\n    /* \"#utility.yul\":3574:3590   */\n  add\n    /* \"#utility.yul\":3567:3590   */\n  swap2\n  pop\n    /* \"#utility.yul\":3331:3596   */\n  pop\n    /* \"#utility.yul\":3223:3596   */\n  swap3\n  swap2\n  pop\n  pop\n  jump\t// out\n    /* \"#utility.yul\":3602:3966   */\ntag_79:\n    /* \"#utility.yul\":3690:3693   */\n  0x00\n    /* \"#utility.yul\":3718:3757   */\n  tag_81\n    /* \"#utility.yul\":3751:3756   */\n  dup3\n    /* \"#utility.yul\":3718:3757   */\n  tag_82\n  jump\t// in\ntag_81:\n    /* \"#utility.yul\":3773:3844   */\n  tag_83\n    /* \"#utility.yul\":3837:3843   */\n  dup2\n    /* \"#utility.yul\":3832:3835   */\n  dup6\n    /* \"#utility.yul\":3773:3844   */\n  tag_84\n  jump\t// in\ntag_83:\n    /* \"#utility.yul\":3766:3844   */\n  swap4\n  pop\n    /* \"#utility.yul\":3853:3905   */\n  tag_85\n    /* \"#utility.yul\":3898:3904   */\n  dup2\n    /* \"#utility.yul\":3893:3896   */\n  dup6\n    /* \"#utility.yul\":3886:3890   */\n  0x20\n    /* \"#utility.yul\":3879:3884   */\n  dup7\n    /* \"#utility.yul\":3875:3891   */\n  add\n    /* \"#utility.yul\":3853:3905   */\n  tag_33\n  jump\t// in\ntag_85:\n    /* \"#utility.yul\":3930:3959   */\n  tag_86\n    /* \"#utility.yul\":3952:3958   */\n  dup2\n    /* \"#utility.yul\":3930:3959   */\n  tag_87\n  jump\t// in\ntag_86:\n    /* \"#utility.yul\":3925:3928   */\n  dup5\n    /* \"#utility.yul\":3921:3960   */\n  add\n    /* \"#utility.yul\":3914:3960   */\n  swap2\n  pop\n    /* \"#utility.yul\":3694:3966   */\n  pop\n    /* \"#utility.yul\":3602:3966   */\n  swap3\n  swap2\n  pop\n  pop\n  jump\t// out\n    /* \"#utility.yul\":3972:4338   */\ntag_88:\n    /* \"#utility.yul\":4114:4117   */\n  0x00\n    /* \"#utility.yul\":4135:4202   */\n  tag_90\n    /* \"#utility.yul\":4199:4201   */\n  0x16\n    /* \"#utility.yul\":4194:4197   */\n  dup4\n    /* \"#utility.yul\":4135:4202   */\n  tag_84\n  jump\t// in\ntag_90:\n    /* \"#utility.yul\":4128:4202   */\n  swap2\n  pop\n    /* \"#utility.yul\":4211:4304   */\n  tag_91\n    /* \"#utility.yul\":4300:4303   */\n  dup3\n    /* \"#utility.yul\":4211:4304   */\n  tag_92\n  jump\t// in\ntag_91:\n    /* \"#utility.yul\":4329:4331   */\n  0x20\n    /* \"#utility.yul\":4324:4327   */\n  dup3\n    /* \"#utility.yul\":4320:4332   */\n  add\n    /* \"#utility.yul\":4313:4332   */\n  swap1\n  pop\n    /* \"#utility.yul\":3972:4338   */\n  swap2\n  swap1\n  pop\n  jump\t// out\n    /* \"#utility.yul\":4344:4456   */\ntag_93:\n    /* \"#utility.yul\":4427:4449   */\n  tag_95\n    /* \"#utility.yul\":4443:4448   */\n  dup2\n    /* \"#utility.yul\":4427:4449   */\n  tag_96\n  jump\t// in\ntag_95:\n    /* \"#utility.yul\":4422:4425   */\n  dup3\n    /* \"#utility.yul\":4415:4450   */\n  mstore\n    /* \"#utility.yul\":4344:4456   */\n  pop\n  pop\n  jump\t// out\n    /* \"#utility.yul\":4462:4733   */\ntag_14:\n    /* \"#utility.yul\":4592:4595   */\n  0x00\n    /* \"#utility.yul\":4614:4707   */\n  tag_98\n    /* \"#utility.yul\":4703:4706   */\n  dup3\n    /* \"#utility.yul\":4694:4700   */\n  dup5\n    /* \"#utility.yul\":4614:4707   */\n  tag_72\n  jump\t// in\ntag_98:\n    /* \"#utility.yul\":4607:4707   */\n  swap2\n  pop\n    /* \"#utility.yul\":4724:4727   */\n  dup2\n    /* \"#utility.yul\":4717:4727   */\n  swap1\n  pop\n    /* \"#utility.yul\":4462:4733   */\n  swap3\n  swap2\n  pop\n  pop\n  jump\t// out\n    /* \"#utility.yul\":4739:5688   */\ntag_12:\n    /* \"#utility.yul\":5008:5012   */\n  0x00\n    /* \"#utility.yul\":5046:5049   */\n  0xc0\n    /* \"#utility.yul\":5035:5044   */\n  dup3\n    /* \"#utility.yul\":5031:5050   */\n  add\n    /* \"#utility.yul\":5023:5050   */\n  swap1\n  pop\n    /* \"#utility.yul\":5060:5131   */\n  tag_100\n    /* \"#utility.yul\":5128:5129   */\n  0x00\n    /* \"#utility.yul\":5117:5126   */\n  dup4\n    /* \"#utility.yul\":5113:5130   */\n  add\n    /* \"#utility.yul\":5104:5110   */\n  dup10\n    /* \"#utility.yul\":5060:5131   */\n  tag_68\n  jump\t// in\ntag_100:\n    /* \"#utility.yul\":5141:5213   */\n  tag_101\n    /* \"#utility.yul\":5209:5211   */\n  0x20\n    /* \"#utility.yul\":5198:5207   */\n  dup4\n    /* \"#utility.yul\":5194:5212   */\n  add\n    /* \"#utility.yul\":5185:5191   */\n  dup9\n    /* \"#utility.yul\":5141:5213   */\n  tag_68\n  jump\t// in\ntag_101:\n    /* \"#utility.yul\":5260:5269   */\n  dup2\n    /* \"#utility.yul\":5254:5258   */\n  dup2\n    /* \"#utility.yul\":5250:5270   */\n  sub\n    /* \"#utility.yul\":5245:5247   */\n  0x40\n    /* \"#utility.yul\":5234:5243   */\n  dup4\n    /* \"#utility.yul\":5230:5248   */\n  add\n    /* \"#utility.yul\":5223:5271   */\n  mstore\n    /* \"#utility.yul\":5288:5366   */\n  tag_102\n    /* \"#utility.yul\":5361:5365   */\n  dup2\n    /* \"#utility.yul\":5352:5358   */\n  dup8\n    /* \"#utility.yul\":5288:5366   */\n  tag_79\n  jump\t// in\ntag_102:\n    /* \"#utility.yul\":5280:5366   */\n  swap1\n  pop\n    /* \"#utility.yul\":5413:5422   */\n  dup2\n    /* \"#utility.yul\":5407:5411   */\n  dup2\n    /* \"#utility.yul\":5403:5423   */\n  sub\n    /* \"#utility.yul\":5398:5400   */\n  0x60\n    /* \"#utility.yul\":5387:5396   */\n  dup4\n    /* \"#utility.yul\":5383:5401   */\n  add\n    /* \"#utility.yul\":5376:5424   */\n  mstore\n    /* \"#utility.yul\":5441:5519   */\n  tag_103\n    /* \"#utility.yul\":5514:5518   */\n  dup2\n    /* \"#utility.yul\":5505:5511   */\n  dup7\n    /* \"#utility.yul\":5441:5519   */\n  tag_79\n  jump\t// in\ntag_103:\n    /* \"#utility.yul\":5433:5519   */\n  swap1\n  pop\n    /* \"#utility.yul\":5529:5598   */\n  tag_104\n    /* \"#utility.yul\":5593:5596   */\n  0x80\n    /* \"#utility.yul\":5582:5591   */\n  dup4\n    /* \"#utility.yul\":5578:5597   */\n  add\n    /* \"#utility.yul\":5569:5575   */\n  dup6\n    /* \"#utility.yul\":5529:5598   */\n  tag_93\n  jump\t// in\ntag_104:\n    /* \"#utility.yul\":5608:5681   */\n  tag_105\n    /* \"#utility.yul\":5676:5679   */\n  0xa0\n    /* \"#utility.yul\":5665:5674   */\n  dup4\n    /* \"#utility.yul\":5661:5680   */\n  add\n    /* \"#utility.yul\":5652:5658   */\n  dup5\n    /* \"#utility.yul\":5608:5681   */\n  tag_68\n  jump\t// in\ntag_105:\n    /* \"#utility.yul\":4739:5688   */\n  swap8\n  swap7\n  pop\n  pop\n  pop\n  pop\n  pop\n  pop\n  pop\n  jump\t// out\n    /* \"#utility.yul\":5694:6113   */\ntag_20:\n    /* \"#utility.yul\":5860:5864   */\n  0x00\n    /* \"#utility.yul\":5898:5900   */\n  0x20\n    /* \"#utility.yul\":5887:5896   */\n  dup3\n    /* \"#utility.yul\":5883:5901   */\n  add\n    /* \"#utility.yul\":5875:5901   */\n  swap1\n  pop\n    /* \"#utility.yul\":5947:5956   */\n  dup2\n    /* \"#utility.yul\":5941:5945   */\n  dup2\n    /* \"#utility.yul\":5937:5957   */\n  sub\n    /* \"#utility.yul\":5933:5934   */\n  0x00\n    /* \"#utility.yul\":5922:5931   */\n  dup4\n    /* \"#utility.yul\":5918:5935   */\n  add\n    /* \"#utility.yul\":5911:5958   */\n  mstore\n    /* \"#utility.yul\":5975:6106   */\n  tag_107\n    /* \"#utility.yul\":6101:6105   */\n  dup2\n    /* \"#utility.yul\":5975:6106   */\n  tag_88\n  jump\t// in\ntag_107:\n    /* \"#utility.yul\":5967:6106   */\n  swap1\n  pop\n    /* \"#utility.yul\":5694:6113   */\n  swap2\n  swap1\n  pop\n  jump\t// out\n    /* \"#utility.yul\":6119:6248   */\ntag_28:\n    /* \"#utility.yul\":6153:6159   */\n  0x00\n    /* \"#utility.yul\":6180:6200   */\n  tag_109\n  tag_110\n  jump\t// in\ntag_109:\n    /* \"#utility.yul\":6170:6200   */\n  swap1\n  pop\n    /* \"#utility.yul\":6209:6242   */\n  tag_111\n    /* \"#utility.yul\":6237:6241   */\n  dup3\n    /* \"#utility.yul\":6229:6235   */\n  dup3\n    /* \"#utility.yul\":6209:6242   */\n  tag_112\n  jump\t// in\ntag_111:\n    /* \"#utility.yul\":6119:6248   */\n  swap2\n  swap1\n  pop\n  jump\t// out\n    /* \"#utility.yul\":6254:6329   */\ntag_110:\n    /* \"#utility.yul\":6287:6293   */\n  0x00\n    /* \"#utility.yul\":6320:6322   */\n  0x40\n    /* \"#utility.yul\":6314:6323   */\n  mload\n    /* \"#utility.yul\":6304:6323   */\n  swap1\n  pop\n    /* \"#utility.yul\":6254:6329   */\n  swap1\n  jump\t// out\n    /* \"#utility.yul\":6335:6643   */\ntag_27:\n    /* \"#utility.yul\":6397:6401   */\n  0x00\n    /* \"#utility.yul\":6487:6505   */\n  0xffffffffffffffff\n    /* \"#utility.yul\":6479:6485   */\n  dup3\n    /* \"#utility.yul\":6476:6506   */\n  gt\n    /* \"#utility.yul\":6473:6529   */\n  iszero\n  tag_115\n  jumpi\n    /* \"#utility.yul\":6509:6527   */\n  tag_116\n  tag_117\n  jump\t// in\ntag_116:\n    /* \"#utility.yul\":6473:6529   */\ntag_115:\n    /* \"#utility.yul\":6547:6576   */\n  tag_118\n    /* \"#utility.yul\":6569:6575   */\n  dup3\n    /* \"#utility.yul\":6547:6576   */\n  tag_87\n  jump\t// in\ntag_118:\n    /* \"#utility.yul\":6539:6576   */\n  swap1\n  pop\n    /* \"#utility.yul\":6631:6635   */\n  0x20\n    /* \"#utility.yul\":6625:6629   */\n  dup2\n    /* \"#utility.yul\":6621:6636   */\n  add\n    /* \"#utility.yul\":6613:6636   */\n  swap1\n  pop\n    /* \"#utility.yul\":6335:6643   */\n  swap2\n  swap1\n  pop\n  jump\t// out\n    /* \"#utility.yul\":6649:6747   */\ntag_75:\n    /* \"#utility.yul\":6700:6706   */\n  0x00\n    /* \"#utility.yul\":6734:6739   */\n  dup2\n    /* \"#utility.yul\":6728:6740   */\n  mload\n    /* \"#utility.yul\":6718:6740   */\n  swap1\n  pop\n    /* \"#utility.yul\":6649:6747   */\n  swap2\n  swap1\n  pop\n  jump\t// out\n    /* \"#utility.yul\":6753:6852   */\ntag_82:\n    /* \"#utility.yul\":6805:6811   */\n  0x00\n    /* \"#utility.yul\":6839:6844   */\n  dup2\n    /* \"#utility.yul\":6833:6845   */\n  mload\n    /* \"#utility.yul\":6823:6845   */\n  swap1\n  pop\n    /* \"#utility.yul\":6753:6852   */\n  swap2\n  swap1\n  pop\n  jump\t// out\n    /* \"#utility.yul\":6858:7005   */\ntag_77:\n    /* \"#utility.yul\":6959:6970   */\n  0x00\n    /* \"#utility.yul\":6996:6999   */\n  dup2\n    /* \"#utility.yul\":6981:6999   */\n  swap1\n  pop\n    /* \"#utility.yul\":6858:7005   */\n  swap3\n  swap2\n  pop\n  pop\n  jump\t// out\n    /* \"#utility.yul\":7011:7180   */\ntag_84:\n    /* \"#utility.yul\":7095:7106   */\n  0x00\n    /* \"#utility.yul\":7129:7135   */\n  dup3\n    /* \"#utility.yul\":7124:7127   */\n  dup3\n    /* \"#utility.yul\":7117:7136   */\n  mstore\n    /* \"#utility.yul\":7169:7173   */\n  0x20\n    /* \"#utility.yul\":7164:7167   */\n  dup3\n    /* \"#utility.yul\":7160:7174   */\n  add\n    /* \"#utility.yul\":7145:7174   */\n  swap1\n  pop\n    /* \"#utility.yul\":7011:7180   */\n  swap3\n  swap2\n  pop\n  pop\n  jump\t// out\n    /* \"#utility.yul\":7186:7282   */\ntag_71:\n    /* \"#utility.yul\":7223:7230   */\n  0x00\n    /* \"#utility.yul\":7252:7276   */\n  tag_124\n    /* \"#utility.yul\":7270:7275   */\n  dup3\n    /* \"#utility.yul\":7252:7276   */\n  tag_125\n  jump\t// in\ntag_124:\n    /* \"#utility.yul\":7241:7276   */\n  swap1\n  pop\n    /* \"#utility.yul\":7186:7282   */\n  swap2\n  swap1\n  pop\n  jump\t// out\n    /* \"#utility.yul\":7288:7414   */\ntag_125:\n    /* \"#utility.yul\":7325:7332   */\n  0x00\n    /* \"#utility.yul\":7365:7407   */\n  0xffffffffffffffffffffffffffffffffffffffff\n    /* \"#utility.yul\":7358:7363   */\n  dup3\n    /* \"#utility.yul\":7354:7408   */\n  and\n    /* \"#utility.yul\":7343:7408   */\n  swap1\n  pop\n    /* \"#utility.yul\":7288:7414   */\n  swap2\n  swap1\n  pop\n  jump\t// out\n    /* \"#utility.yul\":7420:7506   */\ntag_96:\n    /* \"#utility.yul\":7455:7462   */\n  0x00\n    /* \"#utility.yul\":7495:7499   */\n  0xff\n    /* \"#utility.yul\":7488:7493   */\n  dup3\n    /* \"#utility.yul\":7484:7500   */\n  and\n    /* \"#utility.yul\":7473:7500   */\n  swap1\n  pop\n    /* \"#utility.yul\":7420:7506   */\n  swap2\n  swap1\n  pop\n  jump\t// out\n    /* \"#utility.yul\":7512:7819   */\ntag_33:\n    /* \"#utility.yul\":7580:7581   */\n  0x00\n    /* \"#utility.yul\":7590:7703   */\ntag_129:\n    /* \"#utility.yul\":7604:7610   */\n  dup4\n    /* \"#utility.yul\":7601:7602   */\n  dup2\n    /* \"#utility.yul\":7598:7611   */\n  lt\n    /* \"#utility.yul\":7590:7703   */\n  iszero\n  tag_131\n  jumpi\n    /* \"#utility.yul\":7689:7690   */\n  dup1\n    /* \"#utility.yul\":7684:7687   */\n  dup3\n    /* \"#utility.yul\":7680:7691   */\n  add\n    /* \"#utility.yul\":7674:7692   */\n  mload\n    /* \"#utility.yul\":7670:7671   */\n  dup2\n    /* \"#utility.yul\":7665:7668   */\n  dup5\n    /* \"#utility.yul\":7661:7672   */\n  add\n    /* \"#utility.yul\":7654:7693   */\n  mstore\n    /* \"#utility.yul\":7626:7628   */\n  0x20\n    /* \"#utility.yul\":7623:7624   */\n  dup2\n    /* \"#utility.yul\":7619:7629   */\n  add\n    /* \"#utility.yul\":7614:7629   */\n  swap1\n  pop\n    /* \"#utility.yul\":7590:7703   */\n  jump(tag_129)\ntag_131:\n    /* \"#utility.yul\":7721:7727   */\n  dup4\n    /* \"#utility.yul\":7718:7719   */\n  dup2\n    /* \"#utility.yul\":7715:7728   */\n  gt\n    /* \"#utility.yul\":7712:7813   */\n  iszero\n  tag_132\n  jumpi\n    /* \"#utility.yul\":7801:7802   */\n  0x00\n    /* \"#utility.yul\":7792:7798   */\n  dup5\n    /* \"#utility.yul\":7787:7790   */\n  dup5\n    /* \"#utility.yul\":7783:7799   */\n  add\n    /* \"#utility.yul\":7776:7803   */\n  mstore\n    /* \"#utility.yul\":7712:7813   */\ntag_132:\n    /* \"#utility.yul\":7561:7819   */\n  pop\n    /* \"#utility.yul\":7512:7819   */\n  pop\n  pop\n  pop\n  jump\t// out\n    /* \"#utility.yul\":7825:8106   */\ntag_112:\n    /* \"#utility.yul\":7908:7935   */\n  tag_134\n    /* \"#utility.yul\":7930:7934   */\n  dup3\n    /* \"#utility.yul\":7908:7935   */\n  tag_87\n  jump\t// in\ntag_134:\n    /* \"#utility.yul\":7900:7906   */\n  dup2\n    /* \"#utility.yul\":7896:7936   */\n  add\n    /* \"#utility.yul\":8038:8044   */\n  dup2\n    /* \"#utility.yul\":8026:8036   */\n  dup2\n    /* \"#utility.yul\":8023:8045   */\n  lt\n    /* \"#utility.yul\":8002:8020   */\n  0xffffffffffffffff\n    /* \"#utility.yul\":7990:8000   */\n  dup3\n    /* \"#utility.yul\":7987:8021   */\n  gt\n    /* \"#utility.yul\":7984:8046   */\n  or\n    /* \"#utility.yul\":7981:8069   */\n  iszero\n  tag_135\n  jumpi\n    /* \"#utility.yul\":8049:8067   */\n  tag_136\n  tag_117\n  jump\t// in\ntag_136:\n    /* \"#utility.yul\":7981:8069   */\ntag_135:\n    /* \"#utility.yul\":8089:8099   */\n  dup1\n    /* \"#utility.yul\":8085:8087   */\n  0x40\n    /* \"#utility.yul\":8078:8100   */\n  mstore\n    /* \"#utility.yul\":7868:8106   */\n  pop\n    /* \"#utility.yul\":7825:8106   */\n  pop\n  pop\n  jump\t// out\n    /* \"#utility.yul\":8112:8292   */\ntag_117:\n    /* \"#utility.yul\":8160:8237   */\n  0x4e487b7100000000000000000000000000000000000000000000000000000000\n    /* \"#utility.yul\":8157:8158   */\n  0x00\n    /* \"#utility.yul\":8150:8238   */\n  mstore\n    /* \"#utility.yul\":8257:8261   */\n  0x41\n    /* \"#utility.yul\":8254:8255   */\n  0x04\n    /* \"#utility.yul\":8247:8262   */\n  mstore\n    /* \"#utility.yul\":8281:8285   */\n  0x24\n    /* \"#utility.yul\":8278:8279   */\n  0x00\n    /* \"#utility.yul\":8271:8286   */\n  revert\n    /* \"#utility.yul\":8298:8415   */\ntag_42:\n    /* \"#utility.yul\":8407:8408   */\n  0x00\n    /* \"#utility.yul\":8404:8405   */\n  dup1\n    /* \"#utility.yul\":8397:8409   */\n  revert\n    /* \"#utility.yul\":8421:8538   */\ntag_31:\n    /* \"#utility.yul\":8530:8531   */\n  0x00\n    /* \"#utility.yul\":8527:8528   */\n  dup1\n    /* \"#utility.yul\":8520:8532   */\n  revert\n    /* \"#utility.yul\":8544:8661   */\ntag_61:\n    /* \"#utility.yul\":8653:8654   */\n  0x00\n    /* \"#utility.yul\":8650:8651   */\n  dup1\n    /* \"#utility.yul\":8643:8655   */\n  revert\n    /* \"#utility.yul\":8667:8784   */\ntag_51:\n    /* \"#utility.yul\":8776:8777   */\n  0x00\n    /* \"#utility.yul\":8773:8774   */\n  dup1\n    /* \"#utility.yul\":8766:8778   */\n  revert\n    /* \"#utility.yul\":8790:8892   */\ntag_87:\n    /* \"#utility.yul\":8831:8837   */\n  0x00\n    /* \"#utility.yul\":8882:8884   */\n  0x1f\n    /* \"#utility.yul\":8878:8885   */\n  not\n    /* \"#utility.yul\":8873:8875   */\n  0x1f\n    /* \"#utility.yul\":8866:8871   */\n  dup4\n    /* \"#utility.yul\":8862:8876   */\n  add\n    /* \"#utility.yul\":8858:8886   */\n  and\n    /* \"#utility.yul\":8848:8886   */\n  swap1\n  pop\n    /* \"#utility.yul\":8790:8892   */\n  swap2\n  swap1\n  pop\n  jump\t// out\n    /* \"#utility.yul\":8898:9070   */\ntag_92:\n    /* \"#utility.yul\":9038:9062   */\n  0x496e697469616c697a6174696f6e206661696c65642e00000000000000000000\n    /* \"#utility.yul\":9034:9035   */\n  0x00\n    /* \"#utility.yul\":9026:9032   */\n  dup3\n    /* \"#utility.yul\":9022:9036   */\n  add\n    /* \"#utility.yul\":9015:9063   */\n  mstore\n    /* \"#utility.yul\":8898:9070   */\n  pop\n  jump\t// out\n    /* \"#utility.yul\":9076:9198   */\ntag_37:\n    /* \"#utility.yul\":9149:9173   */\n  tag_145\n    /* \"#utility.yul\":9167:9172   */\n  dup2\n    /* \"#utility.yul\":9149:9173   */\n  tag_71\n  jump\t// in\ntag_145:\n    /* \"#utility.yul\":9142:9147   */\n  dup2\n    /* \"#utility.yul\":9139:9174   */\n  eq\n    /* \"#utility.yul\":9129:9192   */\n  tag_146\n  jumpi\n    /* \"#utility.yul\":9188:9189   */\n  0x00\n    /* \"#utility.yul\":9185:9186   */\n  dup1\n    /* \"#utility.yul\":9178:9190   */\n  revert\n    /* \"#utility.yul\":9129:9192   */\ntag_146:\n    /* \"#utility.yul\":9076:9198   */\n  pop\n  jump\t// out\n    /* \"#utility.yul\":9204:9322   */\ntag_47:\n    /* \"#utility.yul\":9275:9297   */\n  tag_148\n    /* \"#utility.yul\":9291:9296   */\n  dup2\n    /* \"#utility.yul\":9275:9297   */\n  tag_96\n  jump\t// in\ntag_148:\n    /* \"#utility.yul\":9268:9273   */\n  dup2\n    /* \"#utility.yul\":9265:9298   */\n  eq\n    /* \"#utility.yul\":9255:9316   */\n  tag_149\n  jumpi\n    /* \"#utility.yul\":9312:9313   */\n  0x00\n    /* \"#utility.yul\":9309:9310   */\n  dup1\n    /* \"#utility.yul\":9302:9314   */\n  revert\n    /* \"#utility.yul\":9255:9316   */\ntag_149:\n    /* \"#utility.yul\":9204:9322   */\n  pop\n  jump\t// out\n    /* \"contracts/proxy/TokenProxy.sol\":1224:2820  contract TokenProxy {... */\ntag_21:\n  dataSize(sub_0)\n  dup1\n  dataOffset(sub_0)\n  0x00\n  codecopy\n  0x00\n  return\nstop\n\nsub_0: assembly {\n        /* \"contracts/proxy/TokenProxy.sol\":1224:2820  contract TokenProxy {... */\n      mstore(0x40, 0x80)\n      jumpi(tag_1, lt(calldatasize, 0x04))\n      shr(0xe0, calldataload(0x00))\n      dup1\n      0x2307f882\n      eq\n      tag_3\n      jumpi\n      jump(tag_2)\n    tag_1:\n    tag_2:\n        /* \"contracts/proxy/TokenProxy.sol\":2247:2260  address logic */\n      0x00\n        /* \"contracts/proxy/TokenProxy.sol\":2288:2311  implementationAuthority */\n      dup1\n      0x00\n      swap1\n      sload\n      swap1\n      0x0100\n      exp\n      swap1\n      div\n      0xffffffffffffffffffffffffffffffffffffffff\n      and\n        /* \"contracts/proxy/TokenProxy.sol\":2263:2330  IImplementationAuthority(implementationAuthority).getImplementation */\n      0xffffffffffffffffffffffffffffffffffffffff\n      and\n      0xaaf10f42\n        /* \"contracts/proxy/TokenProxy.sol\":2263:2332  IImplementationAuthority(implementationAuthority).getImplementation() */\n      mload(0x40)\n      dup2\n      0xffffffff\n      and\n      0xe0\n      shl\n      dup2\n      mstore\n      0x04\n      add\n      0x20\n      mload(0x40)\n      dup1\n      dup4\n      sub\n      dup2\n      dup7\n      dup1\n      extcodesize\n      iszero\n      dup1\n      iszero\n      tag_6\n      jumpi\n      0x00\n      dup1\n      revert\n    tag_6:\n      pop\n      gas\n      staticcall\n      iszero\n      dup1\n      iszero\n      tag_8\n      jumpi\n      returndatasize\n      0x00\n      dup1\n      returndatacopy\n      revert(0x00, returndatasize)\n    tag_8:\n      pop\n      pop\n      pop\n      pop\n      mload(0x40)\n      returndatasize\n      not(0x1f)\n      0x1f\n      dup3\n      add\n      and\n      dup3\n      add\n      dup1\n      0x40\n      mstore\n      pop\n      dup2\n      add\n      swap1\n      tag_9\n      swap2\n      swap1\n      tag_10\n      jump\t// in\n    tag_9:\n        /* \"contracts/proxy/TokenProxy.sol\":2247:2332  address logic = IImplementationAuthority(implementationAuthority).getImplementation() */\n      swap1\n      pop\n        /* \"contracts/proxy/TokenProxy.sol\":2424:2438  calldatasize() */\n      calldatasize\n        /* \"contracts/proxy/TokenProxy.sol\":2419:2422  0x0 */\n      0x00\n        /* \"contracts/proxy/TokenProxy.sol\":2414:2417  0x0 */\n      dup1\n        /* \"contracts/proxy/TokenProxy.sol\":2401:2439  calldatacopy(0x0, 0x0, calldatasize()) */\n      calldatacopy\n        /* \"contracts/proxy/TokenProxy.sol\":2530:2531  0 */\n      0x00\n        /* \"contracts/proxy/TokenProxy.sol\":2527:2528  0 */\n      dup1\n        /* \"contracts/proxy/TokenProxy.sol\":2511:2525  calldatasize() */\n      calldatasize\n        /* \"contracts/proxy/TokenProxy.sol\":2506:2509  0x0 */\n      0x00\n        /* \"contracts/proxy/TokenProxy.sol\":2499:2504  logic */\n      dup5\n        /* \"contracts/proxy/TokenProxy.sol\":2491:2496  10000 */\n      0x2710\n        /* \"contracts/proxy/TokenProxy.sol\":2484:2489  gas() */\n      gas\n        /* \"contracts/proxy/TokenProxy.sol\":2480:2497  sub(gas(), 10000) */\n      sub\n        /* \"contracts/proxy/TokenProxy.sol\":2467:2532  delegatecall(sub(gas(), 10000), logic, 0x0, calldatasize(), 0, 0) */\n      delegatecall\n        /* \"contracts/proxy/TokenProxy.sol\":2558:2574  returndatasize() */\n      returndatasize\n        /* \"contracts/proxy/TokenProxy.sol\":2608:2613  retSz */\n      dup1\n        /* \"contracts/proxy/TokenProxy.sol\":2605:2606  0 */\n      0x00\n        /* \"contracts/proxy/TokenProxy.sol\":2602:2603  0 */\n      dup1\n        /* \"contracts/proxy/TokenProxy.sol\":2587:2614  returndatacopy(0, 0, retSz) */\n      returndatacopy\n        /* \"contracts/proxy/TokenProxy.sol\":2634:2641  success */\n      dup2\n        /* \"contracts/proxy/TokenProxy.sol\":2663:2664  0 */\n      0x00\n        /* \"contracts/proxy/TokenProxy.sol\":2658:2721  case 0 {... */\n      dup2\n      eq\n      tag_12\n      jumpi\n        /* \"contracts/proxy/TokenProxy.sol\":2778:2783  retSz */\n      dup2\n        /* \"contracts/proxy/TokenProxy.sol\":2775:2776  0 */\n      0x00\n        /* \"contracts/proxy/TokenProxy.sol\":2768:2784  return(0, retSz) */\n      return\n        /* \"contracts/proxy/TokenProxy.sol\":2658:2721  case 0 {... */\n    tag_12:\n        /* \"contracts/proxy/TokenProxy.sol\":2697:2702  retSz */\n      dup2\n        /* \"contracts/proxy/TokenProxy.sol\":2694:2695  0 */\n      0x00\n        /* \"contracts/proxy/TokenProxy.sol\":2687:2703  revert(0, retSz) */\n      revert\n        /* \"contracts/proxy/TokenProxy.sol\":1250:1288  address public implementationAuthority */\n    tag_3:\n      callvalue\n      dup1\n      iszero\n      tag_13\n      jumpi\n      0x00\n      dup1\n      revert\n    tag_13:\n      pop\n      tag_14\n      tag_15\n      jump\t// in\n    tag_14:\n      mload(0x40)\n      tag_16\n      swap2\n      swap1\n      tag_17\n      jump\t// in\n    tag_16:\n      mload(0x40)\n      dup1\n      swap2\n      sub\n      swap1\n      return\n    tag_15:\n      0x00\n      dup1\n      sload\n      swap1\n      0x0100\n      exp\n      swap1\n      div\n      0xffffffffffffffffffffffffffffffffffffffff\n      and\n      dup2\n      jump\t// out\n        /* \"#utility.yul\":7:150   */\n    tag_19:\n        /* \"#utility.yul\":64:69   */\n      0x00\n        /* \"#utility.yul\":95:101   */\n      dup2\n        /* \"#utility.yul\":89:102   */\n      mload\n        /* \"#utility.yul\":80:102   */\n      swap1\n      pop\n        /* \"#utility.yul\":111:144   */\n      tag_21\n        /* \"#utility.yul\":138:143   */\n      dup2\n        /* \"#utility.yul\":111:144   */\n      tag_22\n      jump\t// in\n    tag_21:\n        /* \"#utility.yul\":7:150   */\n      swap3\n      swap2\n      pop\n      pop\n      jump\t// out\n        /* \"#utility.yul\":156:507   */\n    tag_10:\n        /* \"#utility.yul\":226:232   */\n      0x00\n        /* \"#utility.yul\":275:277   */\n      0x20\n        /* \"#utility.yul\":263:272   */\n      dup3\n        /* \"#utility.yul\":254:261   */\n      dup5\n        /* \"#utility.yul\":250:273   */\n      sub\n        /* \"#utility.yul\":246:278   */\n      slt\n        /* \"#utility.yul\":243:362   */\n      iszero\n      tag_24\n      jumpi\n        /* \"#utility.yul\":281:360   */\n      tag_25\n      tag_26\n      jump\t// in\n    tag_25:\n        /* \"#utility.yul\":243:362   */\n    tag_24:\n        /* \"#utility.yul\":401:402   */\n      0x00\n        /* \"#utility.yul\":426:490   */\n      tag_27\n        /* \"#utility.yul\":482:489   */\n      dup5\n        /* \"#utility.yul\":473:479   */\n      dup3\n        /* \"#utility.yul\":462:471   */\n      dup6\n        /* \"#utility.yul\":458:480   */\n      add\n        /* \"#utility.yul\":426:490   */\n      tag_19\n      jump\t// in\n    tag_27:\n        /* \"#utility.yul\":416:490   */\n      swap2\n      pop\n        /* \"#utility.yul\":372:500   */\n      pop\n        /* \"#utility.yul\":156:507   */\n      swap3\n      swap2\n      pop\n      pop\n      jump\t// out\n        /* \"#utility.yul\":513:631   */\n    tag_28:\n        /* \"#utility.yul\":600:624   */\n      tag_30\n        /* \"#utility.yul\":618:623   */\n      dup2\n        /* \"#utility.yul\":600:624   */\n      tag_31\n      jump\t// in\n    tag_30:\n        /* \"#utility.yul\":595:598   */\n      dup3\n        /* \"#utility.yul\":588:625   */\n      mstore\n        /* \"#utility.yul\":513:631   */\n      pop\n      pop\n      jump\t// out\n        /* \"#utility.yul\":637:859   */\n    tag_17:\n        /* \"#utility.yul\":730:734   */\n      0x00\n        /* \"#utility.yul\":768:770   */\n      0x20\n        /* \"#utility.yul\":757:766   */\n      dup3\n        /* \"#utility.yul\":753:771   */\n      add\n        /* \"#utility.yul\":745:771   */\n      swap1\n      pop\n        /* \"#utility.yul\":781:852   */\n      tag_33\n        /* \"#utility.yul\":849:850   */\n      0x00\n        /* \"#utility.yul\":838:847   */\n      dup4\n        /* \"#utility.yul\":834:851   */\n      add\n        /* \"#utility.yul\":825:831   */\n      dup5\n        /* \"#utility.yul\":781:852   */\n      tag_28\n      jump\t// in\n    tag_33:\n        /* \"#utility.yul\":637:859   */\n      swap3\n      swap2\n      pop\n      pop\n      jump\t// out\n        /* \"#utility.yul\":946:1042   */\n    tag_31:\n        /* \"#utility.yul\":983:990   */\n      0x00\n        /* \"#utility.yul\":1012:1036   */\n      tag_37\n        /* \"#utility.yul\":1030:1035   */\n      dup3\n        /* \"#utility.yul\":1012:1036   */\n      tag_38\n      jump\t// in\n    tag_37:\n        /* \"#utility.yul\":1001:1036   */\n      swap1\n      pop\n        /* \"#utility.yul\":946:1042   */\n      swap2\n      swap1\n      pop\n      jump\t// out\n        /* \"#utility.yul\":1048:1174   */\n    tag_38:\n        /* \"#utility.yul\":1085:1092   */\n      0x00\n        /* \"#utility.yul\":1125:1167   */\n      0xffffffffffffffffffffffffffffffffffffffff\n        /* \"#utility.yul\":1118:1123   */\n      dup3\n        /* \"#utility.yul\":1114:1168   */\n      and\n        /* \"#utility.yul\":1103:1168   */\n      swap1\n      pop\n        /* \"#utility.yul\":1048:1174   */\n      swap2\n      swap1\n      pop\n      jump\t// out\n        /* \"#utility.yul\":1303:1420   */\n    tag_26:\n        /* \"#utility.yul\":1412:1413   */\n      0x00\n        /* \"#utility.yul\":1409:1410   */\n      dup1\n        /* \"#utility.yul\":1402:1414   */\n      revert\n        /* \"#utility.yul\":1426:1548   */\n    tag_22:\n        /* \"#utility.yul\":1499:1523   */\n      tag_44\n        /* \"#utility.yul\":1517:1522   */\n      dup2\n        /* \"#utility.yul\":1499:1523   */\n      tag_31\n      jump\t// in\n    tag_44:\n        /* \"#utility.yul\":1492:1497   */\n      dup2\n        /* \"#utility.yul\":1489:1524   */\n      eq\n        /* \"#utility.yul\":1479:1542   */\n      tag_45\n      jumpi\n        /* \"#utility.yul\":1538:1539   */\n      0x00\n        /* \"#utility.yul\":1535:1536   */\n      dup1\n        /* \"#utility.yul\":1528:1540   */\n      revert\n        /* \"#utility.yul\":1479:1542   */\n    tag_45:\n        /* \"#utility.yul\":1426:1548   */\n      pop\n      jump\t// out\n\n    auxdata: 0xa264697066735822122091ff18366414e6f7bb1f42c97d60cc03c88997c6f8b6cf19c47e5d647861755c64736f6c63430008070033\n}\n",
				"bytecode": {
					"linkReferences": {},
					"object": "608060405234801561001057600080fd5b506040516200096f3803806200096f8339818101604052810190610034919061032e565b866000806101000a81548173ffffffffffffffffffffffffffffffffffffffff021916908373ffffffffffffffffffffffffffffffffffffffff16021790555060008060009054906101000a900473ffffffffffffffffffffffffffffffffffffffff1673ffffffffffffffffffffffffffffffffffffffff1663aaf10f426040518163ffffffff1660e01b815260040160206040518083038186803b1580156100dd57600080fd5b505afa1580156100f1573d6000803e3d6000fd5b505050506040513d601f19601f820116820180604052508101906101159190610301565b905060008173ffffffffffffffffffffffffffffffffffffffff1688888888888860405160240161014b969594939291906104ca565b6040516020818303038152906040527ff91b619c000000000000000000000000000000000000000000000000000000007bffffffffffffffffffffffffffffffffffffffffffffffffffffffff19166020820180517bffffffffffffffffffffffffffffffffffffffffffffffffffffffff83818316178352505050506040516101d591906104b3565b600060405180830381855af49150503d8060008114610210576040519150601f19603f3d011682016040523d82523d6000602084013e610215565b606091505b5050905080610259576040517f08c379a000000000000000000000000000000000000000000000000000000000815260040161025090610539565b60405180910390fd5b50505050505050505061072f565b600061027a6102758461057e565b610559565b905082815260208101848484011115610296576102956106b8565b5b6102a1848285610620565b509392505050565b6000815190506102b881610701565b92915050565b600082601f8301126102d3576102d26106b3565b5b81516102e3848260208601610267565b91505092915050565b6000815190506102fb81610718565b92915050565b600060208284031215610317576103166106c2565b5b6000610325848285016102a9565b91505092915050565b600080600080600080600060e0888a03121561034d5761034c6106c2565b5b600061035b8a828b016102a9565b975050602061036c8a828b016102a9565b965050604061037d8a828b016102a9565b955050606088015167ffffffffffffffff81111561039e5761039d6106bd565b5b6103aa8a828b016102be565b945050608088015167ffffffffffffffff8111156103cb576103ca6106bd565b5b6103d78a828b016102be565b93505060a06103e88a828b016102ec565b92505060c06103f98a828b016102a9565b91505092959891949750929550565b610411816105e1565b82525050565b6000610422826105af565b61042c81856105c5565b935061043c818560208601610620565b80840191505092915050565b6000610453826105ba565b61045d81856105d0565b935061046d818560208601610620565b610476816106c7565b840191505092915050565b600061048e6016836105d0565b9150610499826106d8565b602082019050919050565b6104ad81610613565b82525050565b60006104bf8284610417565b915081905092915050565b600060c0820190506104df6000830189610408565b6104ec6020830188610408565b81810360408301526104fe8187610448565b905081810360608301526105128186610448565b905061052160808301856104a4565b61052e60a0830184610408565b979650505050505050565b6000602082019050818103600083015261055281610481565b9050919050565b6000610563610574565b905061056f8282610653565b919050565b6000604051905090565b600067ffffffffffffffff82111561059957610598610684565b5b6105a2826106c7565b9050602081019050919050565b600081519050919050565b600081519050919050565b600081905092915050565b600082825260208201905092915050565b60006105ec826105f3565b9050919050565b600073ffffffffffffffffffffffffffffffffffffffff82169050919050565b600060ff82169050919050565b60005b8381101561063e578082015181840152602081019050610623565b8381111561064d576000848401525b50505050565b61065c826106c7565b810181811067ffffffffffffffff8211171561067b5761067a610684565b5b80604052505050565b7f4e487b7100000000000000000000000000000000000000000000000000000000600052604160045260246000fd5b600080fd5b600080fd5b600080fd5b600080fd5b6000601f19601f8301169050919050565b7f496e697469616c697a6174696f6e206661696c65642e00000000000000000000600082015250565b61070a816105e1565b811461071557600080fd5b50565b61072181610613565b811461072c57600080fd5b50565b610230806200073f6000396000f3fe6080604052600436106100225760003560e01c80632307f882146100f157610023565b5b60008060009054906101000a900473ffffffffffffffffffffffffffffffffffffffff1673ffffffffffffffffffffffffffffffffffffffff1663aaf10f426040518163ffffffff1660e01b815260040160206040518083038186803b15801561008c57600080fd5b505afa1580156100a0573d6000803e3d6000fd5b505050506040513d601f19601f820116820180604052508101906100c49190610155565b90503660008037600080366000846127105a03f43d806000803e81600081146100ec57816000f35b816000fd5b3480156100fd57600080fd5b5061010661011c565b6040516101139190610191565b60405180910390f35b60008054906101000a900473ffffffffffffffffffffffffffffffffffffffff1681565b60008151905061014f816101e3565b92915050565b60006020828403121561016b5761016a6101de565b5b600061017984828501610140565b91505092915050565b61018b816101ac565b82525050565b60006020820190506101a66000830184610182565b92915050565b60006101b7826101be565b9050919050565b600073ffffffffffffffffffffffffffffffffffffffff82169050919050565b600080fd5b6101ec816101ac565b81146101f757600080fd5b5056fea264697066735822122091ff18366414e6f7bb1f42c97d60cc03c88997c6f8b6cf19c47e5d647861755c64736f6c63430008070033",
					"opcodes": "PUSH1 0x80 PUSH1 0x40 MSTORE CALLVALUE DUP1 ISZERO PUSH2 0x10 JUMPI PUSH1 0x0 DUP1 REVERT JUMPDEST POP PUSH1 0x40 MLOAD PUSH3 0x96F CODESIZE SUB DUP1 PUSH3 0x96F DUP4 CODECOPY DUP2 DUP2 ADD PUSH1 0x40 MSTORE DUP2 ADD SWAP1 PUSH2 0x34 SWAP2 SWAP1 PUSH2 0x32E JUMP JUMPDEST DUP7 PUSH1 0x0 DUP1 PUSH2 0x100 EXP DUP2 SLOAD DUP2 PUSH20 0xFFFFFFFFFFFFFFFFFFFFFFFFFFFFFFFFFFFFFFFF MUL NOT AND SWAP1 DUP4 PUSH20 0xFFFFFFFFFFFFFFFFFFFFFFFFFFFFFFFFFFFFFFFF AND MUL OR SWAP1 SSTORE POP PUSH1 0x0 DUP1 PUSH1 0x0 SWAP1 SLOAD SWAP1 PUSH2 0x100 EXP SWAP1 DIV PUSH20 0xFFFFFFFFFFFFFFFFFFFFFFFFFFFFFFFFFFFFFFFF AND PUSH20 0xFFFFFFFFFFFFFFFFFFFFFFFFFFFFFFFFFFFFFFFF AND PUSH4 0xAAF10F42 PUSH1 0x40 MLOAD DUP2 PUSH4 0xFFFFFFFF AND PUSH1 0xE0 SHL DUP2 MSTORE PUSH1 0x4 ADD PUSH1 0x20 PUSH1 0x40 MLOAD DUP1 DUP4 SUB DUP2 DUP7 DUP1 EXTCODESIZE ISZERO DUP1 ISZERO PUSH2 0xDD JUMPI PUSH1 0x0 DUP1 REVERT JUMPDEST POP GAS STATICCALL ISZERO DUP1 ISZERO PUSH2 0xF1 JUMPI RETURNDATASIZE PUSH1 0x0 DUP1 RETURNDATACOPY RETURNDATASIZE PUSH1 0x0 REVERT JUMPDEST POP POP POP POP PUSH1 0x40 MLOAD RETURNDATASIZE PUSH1 0x1F NOT PUSH1 0x1F DUP3 ADD AND DUP3 ADD DUP1 PUSH1 0x40 MSTORE POP DUP2 ADD SWAP1 PUSH2 0x115 SWAP2 SWAP1 PUSH2 0x301 JUMP JUMPDEST SWAP1 POP PUSH1 0x0 DUP2 PUSH20 0xFFFFFFFFFFFFFFFFFFFFFFFFFFFFFFFFFFFFFFFF AND DUP9 DUP9 DUP9 DUP9 DUP9 DUP9 PUSH1 0x40 MLOAD PUSH1 0x24 ADD PUSH2 0x14B SWAP7 SWAP6 SWAP5 SWAP4 SWAP3 SWAP2 SWAP1 PUSH2 0x4CA JUMP JUMPDEST PUSH1 0x40 MLOAD PUSH1 0x20 DUP2 DUP4 SUB SUB DUP2 MSTORE SWAP1 PUSH1 0x40 MSTORE PUSH32 0xF91B619C00000000000000000000000000000000000000000000000000000000 PUSH28 0xFFFFFFFFFFFFFFFFFFFFFFFFFFFFFFFFFFFFFFFFFFFFFFFFFFFFFFFF NOT AND PUSH1 0x20 DUP3 ADD DUP1 MLOAD PUSH28 0xFFFFFFFFFFFFFFFFFFFFFFFFFFFFFFFFFFFFFFFFFFFFFFFFFFFFFFFF DUP4 DUP2 DUP4 AND OR DUP4 MSTORE POP POP POP POP PUSH1 0x40 MLOAD PUSH2 0x1D5 SWAP2 SWAP1 PUSH2 0x4B3 JUMP JUMPDEST PUSH1 0x0 PUSH1 0x40 MLOAD DUP1 DUP4 SUB DUP2 DUP6 GAS DELEGATECALL SWAP2 POP POP RETURNDATASIZE DUP1 PUSH1 0x0 DUP2 EQ PUSH2 0x210 JUMPI PUSH1 0x40 MLOAD SWAP2 POP PUSH1 0x1F NOT PUSH1 0x3F RETURNDATASIZE ADD AND DUP3 ADD PUSH1 0x40 MSTORE RETURNDATASIZE DUP3 MSTORE RETURNDATASIZE PUSH1 0x0 PUSH1 0x20 DUP5 ADD RETURNDATACOPY PUSH2 0x215 JUMP JUMPDEST PUSH1 0x60 SWAP2 POP JUMPDEST POP POP SWAP1 POP DUP1 PUSH2 0x259 JUMPI PUSH1 0x40 MLOAD PUSH32 0x8C379A000000000000000000000000000000000000000000000000000000000 DUP2 MSTORE PUSH1 0x4 ADD PUSH2 0x250 SWAP1 PUSH2 0x539 JUMP JUMPDEST PUSH1 0x40 MLOAD DUP1 SWAP2 SUB SWAP1 REVERT JUMPDEST POP POP POP POP POP POP POP POP POP PUSH2 0x72F JUMP JUMPDEST PUSH1 0x0 PUSH2 0x27A PUSH2 0x275 DUP5 PUSH2 0x57E JUMP JUMPDEST PUSH2 0x559 JUMP JUMPDEST SWAP1 POP DUP3 DUP2 MSTORE PUSH1 0x20 DUP2 ADD DUP5 DUP5 DUP5 ADD GT ISZERO PUSH2 0x296 JUMPI PUSH2 0x295 PUSH2 0x6B8 JUMP JUMPDEST JUMPDEST PUSH2 0x2A1 DUP5 DUP3 DUP6 PUSH2 0x620 JUMP JUMPDEST POP SWAP4 SWAP3 POP POP POP JUMP JUMPDEST PUSH1 0x0 DUP2 MLOAD SWAP1 POP PUSH2 0x2B8 DUP2 PUSH2 0x701 JUMP JUMPDEST SWAP3 SWAP2 POP POP JUMP JUMPDEST PUSH1 0x0 DUP3 PUSH1 0x1F DUP4 ADD SLT PUSH2 0x2D3 JUMPI PUSH2 0x2D2 PUSH2 0x6B3 JUMP JUMPDEST JUMPDEST DUP2 MLOAD PUSH2 0x2E3 DUP5 DUP3 PUSH1 0x20 DUP7 ADD PUSH2 0x267 JUMP JUMPDEST SWAP2 POP POP SWAP3 SWAP2 POP POP JUMP JUMPDEST PUSH1 0x0 DUP2 MLOAD SWAP1 POP PUSH2 0x2FB DUP2 PUSH2 0x718 JUMP JUMPDEST SWAP3 SWAP2 POP POP JUMP JUMPDEST PUSH1 0x0 PUSH1 0x20 DUP3 DUP5 SUB SLT ISZERO PUSH2 0x317 JUMPI PUSH2 0x316 PUSH2 0x6C2 JUMP JUMPDEST JUMPDEST PUSH1 0x0 PUSH2 0x325 DUP5 DUP3 DUP6 ADD PUSH2 0x2A9 JUMP JUMPDEST SWAP2 POP POP SWAP3 SWAP2 POP POP JUMP JUMPDEST PUSH1 0x0 DUP1 PUSH1 0x0 DUP1 PUSH1 0x0 DUP1 PUSH1 0x0 PUSH1 0xE0 DUP9 DUP11 SUB SLT ISZERO PUSH2 0x34D JUMPI PUSH2 0x34C PUSH2 0x6C2 JUMP JUMPDEST JUMPDEST PUSH1 0x0 PUSH2 0x35B DUP11 DUP3 DUP12 ADD PUSH2 0x2A9 JUMP JUMPDEST SWAP8 POP POP PUSH1 0x20 PUSH2 0x36C DUP11 DUP3 DUP12 ADD PUSH2 0x2A9 JUMP JUMPDEST SWAP7 POP POP PUSH1 0x40 PUSH2 0x37D DUP11 DUP3 DUP12 ADD PUSH2 0x2A9 JUMP JUMPDEST SWAP6 POP POP PUSH1 0x60 DUP9 ADD MLOAD PUSH8 0xFFFFFFFFFFFFFFFF DUP2 GT ISZERO PUSH2 0x39E JUMPI PUSH2 0x39D PUSH2 0x6BD JUMP JUMPDEST JUMPDEST PUSH2 0x3AA DUP11 DUP3 DUP12 ADD PUSH2 0x2BE JUMP JUMPDEST SWAP5 POP POP PUSH1 0x80 DUP9 ADD MLOAD PUSH8 0xFFFFFFFFFFFFFFFF DUP2 GT ISZERO PUSH2 0x3CB JUMPI PUSH2 0x3CA PUSH2 0x6BD JUMP JUMPDEST JUMPDEST PUSH2 0x3D7 DUP11 DUP3 DUP12 ADD PUSH2 0x2BE JUMP JUMPDEST SWAP4 POP POP PUSH1 0xA0 PUSH2 0x3E8 DUP11 DUP3 DUP12 ADD PUSH2 0x2EC JUMP JUMPDEST SWAP3 POP POP PUSH1 0xC0 PUSH2 0x3F9 DUP11 DUP3 DUP12 ADD PUSH2 0x2A9 JUMP JUMPDEST SWAP2 POP POP SWAP3 SWAP6 SWAP9 SWAP2 SWAP5 SWAP8 POP SWAP3 SWAP6 POP JUMP JUMPDEST PUSH2 0x411 DUP2 PUSH2 0x5E1 JUMP JUMPDEST DUP3 MSTORE POP POP JUMP JUMPDEST PUSH1 0x0 PUSH2 0x422 DUP3 PUSH2 0x5AF JUMP JUMPDEST PUSH2 0x42C DUP2 DUP6 PUSH2 0x5C5 JUMP JUMPDEST SWAP4 POP PUSH2 0x43C DUP2 DUP6 PUSH1 0x20 DUP7 ADD PUSH2 0x620 JUMP JUMPDEST DUP1 DUP5 ADD SWAP2 POP POP SWAP3 SWAP2 POP POP JUMP JUMPDEST PUSH1 0x0 PUSH2 0x453 DUP3 PUSH2 0x5BA JUMP JUMPDEST PUSH2 0x45D DUP2 DUP6 PUSH2 0x5D0 JUMP JUMPDEST SWAP4 POP PUSH2 0x46D DUP2 DUP6 PUSH1 0x20 DUP7 ADD PUSH2 0x620 JUMP JUMPDEST PUSH2 0x476 DUP2 PUSH2 0x6C7 JUMP JUMPDEST DUP5 ADD SWAP2 POP POP SWAP3 SWAP2 POP POP JUMP JUMPDEST PUSH1 0x0 PUSH2 0x48E PUSH1 0x16 DUP4 PUSH2 0x5D0 JUMP JUMPDEST SWAP2 POP PUSH2 0x499 DUP3 PUSH2 0x6D8 JUMP JUMPDEST PUSH1 0x20 DUP3 ADD SWAP1 POP SWAP2 SWAP1 POP JUMP JUMPDEST PUSH2 0x4AD DUP2 PUSH2 0x613 JUMP JUMPDEST DUP3 MSTORE POP POP JUMP JUMPDEST PUSH1 0x0 PUSH2 0x4BF DUP3 DUP5 PUSH2 0x417 JUMP JUMPDEST SWAP2 POP DUP2 SWAP1 POP SWAP3 SWAP2 POP POP JUMP JUMPDEST PUSH1 0x0 PUSH1 0xC0 DUP3 ADD SWAP1 POP PUSH2 0x4DF PUSH1 0x0 DUP4 ADD DUP10 PUSH2 0x408 JUMP JUMPDEST PUSH2 0x4EC PUSH1 0x20 DUP4 ADD DUP9 PUSH2 0x408 JUMP JUMPDEST DUP2 DUP2 SUB PUSH1 0x40 DUP4 ADD MSTORE PUSH2 0x4FE DUP2 DUP8 PUSH2 0x448 JUMP JUMPDEST SWAP1 POP DUP2 DUP2 SUB PUSH1 0x60 DUP4 ADD MSTORE PUSH2 0x512 DUP2 DUP7 PUSH2 0x448 JUMP JUMPDEST SWAP1 POP PUSH2 0x521 PUSH1 0x80 DUP4 ADD DUP6 PUSH2 0x4A4 JUMP JUMPDEST PUSH2 0x52E PUSH1 0xA0 DUP4 ADD DUP5 PUSH2 0x408 JUMP JUMPDEST SWAP8 SWAP7 POP POP POP POP POP POP POP JUMP JUMPDEST PUSH1 0x0 PUSH1 0x20 DUP3 ADD SWAP1 POP DUP2 DUP2 SUB PUSH1 0x0 DUP4 ADD MSTORE PUSH2 0x552 DUP2 PUSH2 0x481 JUMP JUMPDEST SWAP1 POP SWAP2 SWAP1 POP JUMP JUMPDEST PUSH1 0x0 PUSH2 0x563 PUSH2 0x574 JUMP JUMPDEST SWAP1 POP PUSH2 0x56F DUP3 DUP3 PUSH2 0x653 JUMP JUMPDEST SWAP2 SWAP1 POP JUMP JUMPDEST PUSH1 0x0 PUSH1 0x40 MLOAD SWAP1 POP SWAP1 JUMP JUMPDEST PUSH1 0x0 PUSH8 0xFFFFFFFFFFFFFFFF DUP3 GT ISZERO PUSH2 0x599 JUMPI PUSH2 0x598 PUSH2 0x684 JUMP JUMPDEST JUMPDEST PUSH2 0x5A2 DUP3 PUSH2 0x6C7 JUMP JUMPDEST SWAP1 POP PUSH1 0x20 DUP2 ADD SWAP1 POP SWAP2 SWAP1 POP JUMP JUMPDEST PUSH1 0x0 DUP2 MLOAD SWAP1 POP SWAP2 SWAP1 POP JUMP JUMPDEST PUSH1 0x0 DUP2 MLOAD SWAP1 POP SWAP2 SWAP1 POP JUMP JUMPDEST PUSH1 0x0 DUP2 SWAP1 POP SWAP3 SWAP2 POP POP JUMP JUMPDEST PUSH1 0x0 DUP3 DUP3 MSTORE PUSH1 0x20 DUP3 ADD SWAP1 POP SWAP3 SWAP2 POP POP JUMP JUMPDEST PUSH1 0x0 PUSH2 0x5EC DUP3 PUSH2 0x5F3 JUMP JUMPDEST SWAP1 POP SWAP2 SWAP1 POP JUMP JUMPDEST PUSH1 0x0 PUSH20 0xFFFFFFFFFFFFFFFFFFFFFFFFFFFFFFFFFFFFFFFF DUP3 AND SWAP1 POP SWAP2 SWAP1 POP JUMP JUMPDEST PUSH1 0x0 PUSH1 0xFF DUP3 AND SWAP1 POP SWAP2 SWAP1 POP JUMP JUMPDEST PUSH1 0x0 JUMPDEST DUP4 DUP2 LT ISZERO PUSH2 0x63E JUMPI DUP1 DUP3 ADD MLOAD DUP2 DUP5 ADD MSTORE PUSH1 0x20 DUP2 ADD SWAP1 POP PUSH2 0x623 JUMP JUMPDEST DUP4 DUP2 GT ISZERO PUSH2 0x64D JUMPI PUSH1 0x0 DUP5 DUP5 ADD MSTORE JUMPDEST POP POP POP POP JUMP JUMPDEST PUSH2 0x65C DUP3 PUSH2 0x6C7 JUMP JUMPDEST DUP2 ADD DUP2 DUP2 LT PUSH8 0xFFFFFFFFFFFFFFFF DUP3 GT OR ISZERO PUSH2 0x67B JUMPI PUSH2 0x67A PUSH2 0x684 JUMP JUMPDEST JUMPDEST DUP1 PUSH1 0x40 MSTORE POP POP POP JUMP JUMPDEST PUSH32 0x4E487B7100000000000000000000000000000000000000000000000000000000 PUSH1 0x0 MSTORE PUSH1 0x41 PUSH1 0x4 MSTORE PUSH1 0x24 PUSH1 0x0 REVERT JUMPDEST PUSH1 0x0 DUP1 REVERT JUMPDEST PUSH1 0x0 DUP1 REVERT JUMPDEST PUSH1 0x0 DUP1 REVERT JUMPDEST PUSH1 0x0 DUP1 REVERT JUMPDEST PUSH1 0x0 PUSH1 0x1F NOT PUSH1 0x1F DUP4 ADD AND SWAP1 POP SWAP2 SWAP1 POP JUMP JUMPDEST PUSH32 0x496E697469616C697A6174696F6E206661696C65642E00000000000000000000 PUSH1 0x0 DUP3 ADD MSTORE POP JUMP JUMPDEST PUSH2 0x70A DUP2 PUSH2 0x5E1 JUMP JUMPDEST DUP2 EQ PUSH2 0x715 JUMPI PUSH1 0x0 DUP1 REVERT JUMPDEST POP JUMP JUMPDEST PUSH2 0x721 DUP2 PUSH2 0x613 JUMP JUMPDEST DUP2 EQ PUSH2 0x72C JUMPI PUSH1 0x0 DUP1 REVERT JUMPDEST POP JUMP JUMPDEST PUSH2 0x230 DUP1 PUSH3 0x73F PUSH1 0x0 CODECOPY PUSH1 0x0 RETURN INVALID PUSH1 0x80 PUSH1 0x40 MSTORE PUSH1 0x4 CALLDATASIZE LT PUSH2 0x22 JUMPI PUSH1 0x0 CALLDATALOAD PUSH1 0xE0 SHR DUP1 PUSH4 0x2307F882 EQ PUSH2 0xF1 JUMPI PUSH2 0x23 JUMP JUMPDEST JUMPDEST PUSH1 0x0 DUP1 PUSH1 0x0 SWAP1 SLOAD SWAP1 PUSH2 0x100 EXP SWAP1 DIV PUSH20 0xFFFFFFFFFFFFFFFFFFFFFFFFFFFFFFFFFFFFFFFF AND PUSH20 0xFFFFFFFFFFFFFFFFFFFFFFFFFFFFFFFFFFFFFFFF AND PUSH4 0xAAF10F42 PUSH1 0x40 MLOAD DUP2 PUSH4 0xFFFFFFFF AND PUSH1 0xE0 SHL DUP2 MSTORE PUSH1 0x4 ADD PUSH1 0x20 PUSH1 0x40 MLOAD DUP1 DUP4 SUB DUP2 DUP7 DUP1 EXTCODESIZE ISZERO DUP1 ISZERO PUSH2 0x8C JUMPI PUSH1 0x0 DUP1 REVERT JUMPDEST POP GAS STATICCALL ISZERO DUP1 ISZERO PUSH2 0xA0 JUMPI RETURNDATASIZE PUSH1 0x0 DUP1 RETURNDATACOPY RETURNDATASIZE PUSH1 0x0 REVERT JUMPDEST POP POP POP POP PUSH1 0x40 MLOAD RETURNDATASIZE PUSH1 0x1F NOT PUSH1 0x1F DUP3 ADD AND DUP3 ADD DUP1 PUSH1 0x40 MSTORE POP DUP2 ADD SWAP1 PUSH2 0xC4 SWAP2 SWAP1 PUSH2 0x155 JUMP JUMPDEST SWAP1 POP CALLDATASIZE PUSH1 0x0 DUP1 CALLDATACOPY PUSH1 0x0 DUP1 CALLDATASIZE PUSH1 0x0 DUP5 PUSH2 0x2710 GAS SUB DELEGATECALL RETURNDATASIZE DUP1 PUSH1 0x0 DUP1 RETURNDATACOPY DUP2 PUSH1 0x0 DUP2 EQ PUSH2 0xEC JUMPI DUP2 PUSH1 0x0 RETURN JUMPDEST DUP2 PUSH1 0x0 REVERT JUMPDEST CALLVALUE DUP1 ISZERO PUSH2 0xFD JUMPI PUSH1 0x0 DUP1 REVERT JUMPDEST POP PUSH2 0x106 PUSH2 0x11C JUMP JUMPDEST PUSH1 0x40 MLOAD PUSH2 0x113 SWAP2 SWAP1 PUSH2 0x191 JUMP JUMPDEST PUSH1 0x40 MLOAD DUP1 SWAP2 SUB SWAP1 RETURN JUMPDEST PUSH1 0x0 DUP1 SLOAD SWAP1 PUSH2 0x100 EXP SWAP1 DIV PUSH20 0xFFFFFFFFFFFFFFFFFFFFFFFFFFFFFFFFFFFFFFFF AND DUP2 JUMP JUMPDEST PUSH1 0x0 DUP2 MLOAD SWAP1 POP PUSH2 0x14F DUP2 PUSH2 0x1E3 JUMP JUMPDEST SWAP3 SWAP2 POP POP JUMP JUMPDEST PUSH1 0x0 PUSH1 0x20 DUP3 DUP5 SUB SLT ISZERO PUSH2 0x16B JUMPI PUSH2 0x16A PUSH2 0x1DE JUMP JUMPDEST JUMPDEST PUSH1 0x0 PUSH2 0x179 DUP5 DUP3 DUP6 ADD PUSH2 0x140 JUMP JUMPDEST SWAP2 POP POP SWAP3 SWAP2 POP POP JUMP JUMPDEST PUSH2 0x18B DUP2 PUSH2 0x1AC JUMP JUMPDEST DUP3 MSTORE POP POP JUMP JUMPDEST PUSH1 0x0 PUSH1 0x20 DUP3 ADD SWAP1 POP PUSH2 0x1A6 PUSH1 0x0 DUP4 ADD DUP5 PUSH2 0x182 JUMP JUMPDEST SWAP3 SWAP2 POP POP JUMP JUMPDEST PUSH1 0x0 PUSH2 0x1B7 DUP3 PUSH2 0x1BE JUMP JUMPDEST SWAP1 POP SWAP2 SWAP1 POP JUMP JUMPDEST PUSH1 0x0 PUSH20 0xFFFFFFFFFFFFFFFFFFFFFFFFFFFFFFFFFFFFFFFF DUP3 AND SWAP1 POP SWAP2 SWAP1 POP JUMP JUMPDEST PUSH1 0x0 DUP1 REVERT JUMPDEST PUSH2 0x1EC DUP2 PUSH2 0x1AC JUMP JUMPDEST DUP2 EQ PUSH2 0x1F7 JUMPI PUSH1 0x0 DUP1 REVERT JUMPDEST POP JUMP INVALID LOG2 PUSH5 0x6970667358 0x22 SLT KECCAK256 SWAP2 SELFDESTRUCT XOR CALLDATASIZE PUSH5 0x14E6F7BB1F TIMESTAMP 0xC9 PUSH30 0x60CC03C88997C6F8B6CF19C47E5D647861755C64736F6C63430008070033 "
				},
				"gasEstimates": {
					"creation": {
						"codeDepositCost": "112000",
						"executionCost": "infinite",
						"totalCost": "infinite"
					},
					"external": {
						"": "infinite",
						"implementationAuthority()": "2489"
					}
				},
				"methodIdentifiers": {
					"implementationAuthority()": "2307f882"
				}
			},
			"storageLayout": {
				"storage": [
					{
						"astId": 9,
						"contract": "contracts/proxy/TokenProxy.sol:TokenProxy",
						"label": "implementationAuthority",
						"offset": 0,
						"slot": "0",
						"type": "t_address"
					}
				],
				"types": {
					"t_address": {
						"encoding": "inplace",
						"label": "address",
						"numberOfBytes": "20"
					}
				}
			},
			"userdoc": {
				"kind": "user",
				"methods": {},
				"version": 1
			}
		}
	}
}