{
	"contracts/registry/IdentityRegistryStorage.sol": {
		"IdentityRegistryStorage": {
			"abi": [
				{
					"anonymous": false,
					"inputs": [
						{
							"indexed": true,
							"internalType": "address",
							"name": "_agent",
							"type": "address"
						}
					],
					"name": "AgentAdded",
					"type": "event"
				},
				{
					"anonymous": false,
					"inputs": [
						{
							"indexed": true,
							"internalType": "address",
							"name": "_agent",
							"type": "address"
						}
					],
					"name": "AgentRemoved",
					"type": "event"
				},
				{
					"anonymous": false,
					"inputs": [
						{
							"indexed": true,
							"internalType": "address",
							"name": "investorAddress",
							"type": "address"
						},
						{
							"indexed": true,
							"internalType": "uint16",
							"name": "country",
							"type": "uint16"
						}
					],
					"name": "CountryModified",
					"type": "event"
				},
				{
					"anonymous": false,
					"inputs": [
						{
							"indexed": true,
							"internalType": "contract IIdentity",
							"name": "oldIdentity",
							"type": "address"
						},
						{
							"indexed": true,
							"internalType": "contract IIdentity",
							"name": "newIdentity",
							"type": "address"
						}
					],
					"name": "IdentityModified",
					"type": "event"
				},
				{
					"anonymous": false,
					"inputs": [
						{
							"indexed": true,
							"internalType": "address",
							"name": "identityRegistry",
							"type": "address"
						}
					],
					"name": "IdentityRegistryBound",
					"type": "event"
				},
				{
					"anonymous": false,
					"inputs": [
						{
							"indexed": true,
							"internalType": "address",
							"name": "identityRegistry",
							"type": "address"
						}
					],
					"name": "IdentityRegistryUnbound",
					"type": "event"
				},
				{
					"anonymous": false,
					"inputs": [
						{
							"indexed": true,
							"internalType": "address",
							"name": "investorAddress",
							"type": "address"
						},
						{
							"indexed": true,
							"internalType": "contract IIdentity",
							"name": "identity",
							"type": "address"
						}
					],
					"name": "IdentityStored",
					"type": "event"
				},
				{
					"anonymous": false,
					"inputs": [
						{
							"indexed": true,
							"internalType": "address",
							"name": "investorAddress",
							"type": "address"
						},
						{
							"indexed": true,
							"internalType": "contract IIdentity",
							"name": "identity",
							"type": "address"
						}
					],
					"name": "IdentityUnstored",
					"type": "event"
				},
				{
					"anonymous": false,
					"inputs": [
						{
							"indexed": true,
							"internalType": "address",
							"name": "previousOwner",
							"type": "address"
						},
						{
							"indexed": true,
							"internalType": "address",
							"name": "newOwner",
							"type": "address"
						}
					],
					"name": "OwnershipTransferred",
					"type": "event"
				},
				{
					"inputs": [
						{
							"internalType": "address",
							"name": "_agent",
							"type": "address"
						}
					],
					"name": "addAgent",
					"outputs": [],
					"stateMutability": "nonpayable",
					"type": "function"
				},
				{
					"inputs": [
						{
							"internalType": "address",
							"name": "_userAddress",
							"type": "address"
						},
						{
							"internalType": "contract IIdentity",
							"name": "_identity",
							"type": "address"
						},
						{
							"internalType": "uint16",
							"name": "_country",
							"type": "uint16"
						}
					],
					"name": "addIdentityToStorage",
					"outputs": [],
					"stateMutability": "nonpayable",
					"type": "function"
				},
				{
					"inputs": [
						{
							"internalType": "address",
							"name": "_identityRegistry",
							"type": "address"
						}
					],
					"name": "bindIdentityRegistry",
					"outputs": [],
					"stateMutability": "nonpayable",
					"type": "function"
				},
				{
					"inputs": [
						{
							"internalType": "address",
							"name": "_agent",
							"type": "address"
						}
					],
					"name": "isAgent",
					"outputs": [
						{
							"internalType": "bool",
							"name": "",
							"type": "bool"
						}
					],
					"stateMutability": "view",
					"type": "function"
				},
				{
					"inputs": [],
					"name": "linkedIdentityRegistries",
					"outputs": [
						{
							"internalType": "address[]",
							"name": "",
							"type": "address[]"
						}
					],
					"stateMutability": "view",
					"type": "function"
				},
				{
					"inputs": [
						{
							"internalType": "address",
							"name": "_userAddress",
							"type": "address"
						},
						{
							"internalType": "contract IIdentity",
							"name": "_identity",
							"type": "address"
						}
					],
					"name": "modifyStoredIdentity",
					"outputs": [],
					"stateMutability": "nonpayable",
					"type": "function"
				},
				{
					"inputs": [
						{
							"internalType": "address",
							"name": "_userAddress",
							"type": "address"
						},
						{
							"internalType": "uint16",
							"name": "_country",
							"type": "uint16"
						}
					],
					"name": "modifyStoredInvestorCountry",
					"outputs": [],
					"stateMutability": "nonpayable",
					"type": "function"
				},
				{
					"inputs": [],
					"name": "owner",
					"outputs": [
						{
							"internalType": "address",
							"name": "",
							"type": "address"
						}
					],
					"stateMutability": "view",
					"type": "function"
				},
				{
					"inputs": [
						{
							"internalType": "address",
							"name": "_agent",
							"type": "address"
						}
					],
					"name": "removeAgent",
					"outputs": [],
					"stateMutability": "nonpayable",
					"type": "function"
				},
				{
					"inputs": [
						{
							"internalType": "address",
							"name": "_userAddress",
							"type": "address"
						}
					],
					"name": "removeIdentityFromStorage",
					"outputs": [],
					"stateMutability": "nonpayable",
					"type": "function"
				},
				{
					"inputs": [],
					"name": "renounceOwnership",
					"outputs": [],
					"stateMutability": "nonpayable",
					"type": "function"
				},
				{
					"inputs": [
						{
							"internalType": "address",
							"name": "_userAddress",
							"type": "address"
						}
					],
					"name": "storedIdentity",
					"outputs": [
						{
							"internalType": "contract IIdentity",
							"name": "",
							"type": "address"
						}
					],
					"stateMutability": "view",
					"type": "function"
				},
				{
					"inputs": [
						{
							"internalType": "address",
							"name": "_userAddress",
							"type": "address"
						}
					],
					"name": "storedInvestorCountry",
					"outputs": [
						{
							"internalType": "uint16",
							"name": "",
							"type": "uint16"
						}
					],
					"stateMutability": "view",
					"type": "function"
				},
				{
					"inputs": [
						{
							"internalType": "address",
							"name": "newOwner",
							"type": "address"
						}
					],
					"name": "transferOwnership",
					"outputs": [],
					"stateMutability": "nonpayable",
					"type": "function"
				},
				{
					"inputs": [
						{
							"internalType": "address",
							"name": "_newOwner",
							"type": "address"
						}
					],
					"name": "transferOwnershipOnIdentityRegistryStorage",
					"outputs": [],
					"stateMutability": "nonpayable",
					"type": "function"
				},
				{
					"inputs": [
						{
							"internalType": "address",
							"name": "_identityRegistry",
							"type": "address"
						}
					],
					"name": "unbindIdentityRegistry",
					"outputs": [],
					"stateMutability": "nonpayable",
					"type": "function"
				}
			],
			"devdoc": {
				"kind": "dev",
				"methods": {
					"addIdentityToStorage(address,address,uint16)": {
						"details": "See {IIdentityRegistryStorage-addIdentityToStorage}."
					},
					"bindIdentityRegistry(address)": {
						"details": "See {IIdentityRegistryStorage-bindIdentityRegistry}."
					},
					"linkedIdentityRegistries()": {
						"details": "See {IIdentityRegistryStorage-linkedIdentityRegistries}."
					},
					"modifyStoredIdentity(address,address)": {
						"details": "See {IIdentityRegistryStorage-modifyStoredIdentity}."
					},
					"modifyStoredInvestorCountry(address,uint16)": {
						"details": "See {IIdentityRegistryStorage-modifyStoredInvestorCountry}."
					},
					"owner()": {
						"details": "Returns the address of the current owner."
					},
					"removeIdentityFromStorage(address)": {
						"details": "See {IIdentityRegistryStorage-removeIdentityFromStorage}."
					},
					"renounceOwnership()": {
						"details": "Leaves the contract without owner. It will not be possible to call `onlyOwner` functions anymore. Can only be called by the current owner. NOTE: Renouncing ownership will leave the contract without an owner, thereby removing any functionality that is only available to the owner."
					},
					"storedIdentity(address)": {
						"details": "See {IIdentityRegistryStorage-storedIdentity}."
					},
					"storedInvestorCountry(address)": {
						"details": "See {IIdentityRegistryStorage-storedInvestorCountry}."
					},
					"transferOwnership(address)": {
						"details": "Transfers ownership of the contract to a new account (`newOwner`). Can only be called by the current owner."
					},
					"transferOwnershipOnIdentityRegistryStorage(address)": {
						"details": "See {IIdentityRegistryStorage-transferOwnershipOnIdentityRegistryStorage}."
					},
					"unbindIdentityRegistry(address)": {
						"details": "See {IIdentityRegistryStorage-unbindIdentityRegistry}."
					}
				},
				"stateVariables": {
					"identities": {
						"details": "mapping between a user address and the corresponding identity"
					},
					"identityRegistries": {
						"details": "array of Identity Registries linked to this storage"
					}
				},
				"version": 1
			},
			"evm": {
				"assembly": "    /* \"contracts/registry/IdentityRegistryStorage.sol\":1269:5851  contract IdentityRegistryStorage is IIdentityRegistryStorage, AgentRole {... */\n  mstore(0x40, 0x80)\n  callvalue\n  dup1\n  iszero\n  tag_1\n  jumpi\n  0x00\n  dup1\n  revert\ntag_1:\n  pop\n    /* \"@openzeppelin/contracts/access/Ownable.sol\":867:890  _setOwner(_msgSender()) */\n  tag_4\n    /* \"@openzeppelin/contracts/access/Ownable.sol\":877:889  _msgSender() */\n  tag_5\n    /* \"@openzeppelin/contracts/access/Ownable.sol\":877:887  _msgSender */\n  shl(0x20, tag_6)\n    /* \"@openzeppelin/contracts/access/Ownable.sol\":877:889  _msgSender() */\n  0x20\n  shr\n  jump\t// in\ntag_5:\n    /* \"@openzeppelin/contracts/access/Ownable.sol\":867:876  _setOwner */\n  shl(0x20, tag_7)\n    /* \"@openzeppelin/contracts/access/Ownable.sol\":867:890  _setOwner(_msgSender()) */\n  0x20\n  shr\n  jump\t// in\ntag_4:\n    /* \"contracts/registry/IdentityRegistryStorage.sol\":1269:5851  contract IdentityRegistryStorage is IIdentityRegistryStorage, AgentRole {... */\n  jump(tag_8)\n    /* \"@openzeppelin/contracts/utils/Context.sol\":586:682  function _msgSender() internal view virtual returns (address) {... */\ntag_6:\n    /* \"@openzeppelin/contracts/utils/Context.sol\":639:646  address */\n  0x00\n    /* \"@openzeppelin/contracts/utils/Context.sol\":665:675  msg.sender */\n  caller\n    /* \"@openzeppelin/contracts/utils/Context.sol\":658:675  return msg.sender */\n  swap1\n  pop\n    /* \"@openzeppelin/contracts/utils/Context.sol\":586:682  function _msgSender() internal view virtual returns (address) {... */\n  swap1\n  jump\t// out\n    /* \"@openzeppelin/contracts/access/Ownable.sol\":2041:2210  function _setOwner(address newOwner) private {... */\ntag_7:\n    /* \"@openzeppelin/contracts/access/Ownable.sol\":2096:2112  address oldOwner */\n  0x00\n    /* \"@openzeppelin/contracts/access/Ownable.sol\":2115:2121  _owner */\n  dup1\n  0x00\n  swap1\n  sload\n  swap1\n  0x0100\n  exp\n  swap1\n  div\n  0xffffffffffffffffffffffffffffffffffffffff\n  and\n    /* \"@openzeppelin/contracts/access/Ownable.sol\":2096:2121  address oldOwner = _owner */\n  swap1\n  pop\n    /* \"@openzeppelin/contracts/access/Ownable.sol\":2140:2148  newOwner */\n  dup2\n    /* \"@openzeppelin/contracts/access/Ownable.sol\":2131:2137  _owner */\n  0x00\n  dup1\n    /* \"@openzeppelin/contracts/access/Ownable.sol\":2131:2148  _owner = newOwner */\n  0x0100\n  exp\n  dup2\n  sload\n  dup2\n  0xffffffffffffffffffffffffffffffffffffffff\n  mul\n  not\n  and\n  swap1\n  dup4\n  0xffffffffffffffffffffffffffffffffffffffff\n  and\n  mul\n  or\n  swap1\n  sstore\n  pop\n    /* \"@openzeppelin/contracts/access/Ownable.sol\":2194:2202  newOwner */\n  dup2\n    /* \"@openzeppelin/contracts/access/Ownable.sol\":2163:2203  OwnershipTransferred(oldOwner, newOwner) */\n  0xffffffffffffffffffffffffffffffffffffffff\n  and\n    /* \"@openzeppelin/contracts/access/Ownable.sol\":2184:2192  oldOwner */\n  dup2\n    /* \"@openzeppelin/contracts/access/Ownable.sol\":2163:2203  OwnershipTransferred(oldOwner, newOwner) */\n  0xffffffffffffffffffffffffffffffffffffffff\n  and\n  0x8be0079c531659141344cd1fd0a4f28419497f9722a3daafe3b4186f6b6457e0\n  mload(0x40)\n  mload(0x40)\n  dup1\n  swap2\n  sub\n  swap1\n  log3\n    /* \"@openzeppelin/contracts/access/Ownable.sol\":2086:2210  {... */\n  pop\n    /* \"@openzeppelin/contracts/access/Ownable.sol\":2041:2210  function _setOwner(address newOwner) private {... */\n  pop\n  jump\t// out\n    /* \"contracts/registry/IdentityRegistryStorage.sol\":1269:5851  contract IdentityRegistryStorage is IIdentityRegistryStorage, AgentRole {... */\ntag_8:\n  dataSize(sub_0)\n  dup1\n  dataOffset(sub_0)\n  0x00\n  codecopy\n  0x00\n  return\nstop\n\nsub_0: assembly {\n        /* \"contracts/registry/IdentityRegistryStorage.sol\":1269:5851  contract IdentityRegistryStorage is IIdentityRegistryStorage, AgentRole {... */\n      mstore(0x40, 0x80)\n      callvalue\n      dup1\n      iszero\n      tag_1\n      jumpi\n      0x00\n      dup1\n      revert\n    tag_1:\n      pop\n      jumpi(tag_2, lt(calldatasize, 0x04))\n      shr(0xe0, calldataload(0x00))\n      dup1\n      0x97a012f7\n      gt\n      tag_19\n      jumpi\n      dup1\n      0xbf9eb959\n      gt\n      tag_20\n      jumpi\n      dup1\n      0xbf9eb959\n      eq\n      tag_15\n      jumpi\n      dup1\n      0xcf191bcd\n      eq\n      tag_16\n      jumpi\n      dup1\n      0xe805cf86\n      eq\n      tag_17\n      jumpi\n      dup1\n      0xf2fde38b\n      eq\n      tag_18\n      jumpi\n      jump(tag_2)\n    tag_20:\n      dup1\n      0x97a012f7\n      eq\n      tag_11\n      jumpi\n      dup1\n      0x97a6278e\n      eq\n      tag_12\n      jumpi\n      dup1\n      0x9f3418d5\n      eq\n      tag_13\n      jumpi\n      dup1\n      0xa53410dd\n      eq\n      tag_14\n      jumpi\n      jump(tag_2)\n    tag_19:\n      dup1\n      0x727e13bc\n      gt\n      tag_21\n      jumpi\n      dup1\n      0x727e13bc\n      eq\n      tag_7\n      jumpi\n      dup1\n      0x7988d3a5\n      eq\n      tag_8\n      jumpi\n      dup1\n      0x84e79842\n      eq\n      tag_9\n      jumpi\n      dup1\n      0x8da5cb5b\n      eq\n      tag_10\n      jumpi\n      jump(tag_2)\n    tag_21:\n      dup1\n      0x1ffbb064\n      eq\n      tag_3\n      jumpi\n      dup1\n      0x5ccbbe49\n      eq\n      tag_4\n      jumpi\n      dup1\n      0x690a49f9\n      eq\n      tag_5\n      jumpi\n      dup1\n      0x715018a6\n      eq\n      tag_6\n      jumpi\n    tag_2:\n      0x00\n      dup1\n      revert\n        /* \"contracts/roles/AgentRole.sol\":1525:1628  function isAgent(address _agent) public view returns (bool) {... */\n    tag_3:\n      tag_22\n      0x04\n      dup1\n      calldatasize\n      sub\n      dup2\n      add\n      swap1\n      tag_23\n      swap2\n      swap1\n      tag_24\n      jump\t// in\n    tag_23:\n      tag_25\n      jump\t// in\n    tag_22:\n      mload(0x40)\n      tag_26\n      swap2\n      swap1\n      tag_27\n      jump\t// in\n    tag_26:\n      mload(0x40)\n      dup1\n      swap2\n      sub\n      swap1\n      return\n        /* \"contracts/registry/IdentityRegistryStorage.sol\":4715:4859  function transferOwnershipOnIdentityRegistryStorage(address _newOwner) external override onlyOwner {... */\n    tag_4:\n      tag_28\n      0x04\n      dup1\n      calldatasize\n      sub\n      dup2\n      add\n      swap1\n      tag_29\n      swap2\n      swap1\n      tag_24\n      jump\t// in\n    tag_29:\n      tag_30\n      jump\t// in\n    tag_28:\n      stop\n        /* \"contracts/registry/IdentityRegistryStorage.sol\":4947:5173  function bindIdentityRegistry(address _identityRegistry) external override {... */\n    tag_5:\n      tag_31\n      0x04\n      dup1\n      calldatasize\n      sub\n      dup2\n      add\n      swap1\n      tag_32\n      swap2\n      swap1\n      tag_24\n      jump\t// in\n    tag_32:\n      tag_33\n      jump\t// in\n    tag_31:\n      stop\n        /* \"@openzeppelin/contracts/access/Ownable.sol\":1605:1697  function renounceOwnership() public virtual onlyOwner {... */\n    tag_6:\n      tag_34\n      tag_35\n      jump\t// in\n    tag_34:\n      stop\n        /* \"contracts/registry/IdentityRegistryStorage.sol\":2301:2458  function storedInvestorCountry(address _userAddress) external view override returns (uint16) {... */\n    tag_7:\n      tag_36\n      0x04\n      dup1\n      calldatasize\n      sub\n      dup2\n      add\n      swap1\n      tag_37\n      swap2\n      swap1\n      tag_24\n      jump\t// in\n    tag_37:\n      tag_38\n      jump\t// in\n    tag_36:\n      mload(0x40)\n      tag_39\n      swap2\n      swap1\n      tag_40\n      jump\t// in\n    tag_39:\n      mload(0x40)\n      dup1\n      swap2\n      sub\n      swap1\n      return\n        /* \"contracts/registry/IdentityRegistryStorage.sol\":2058:2212  function storedIdentity(address _userAddress) external view override returns (IIdentity) {... */\n    tag_8:\n      tag_41\n      0x04\n      dup1\n      calldatasize\n      sub\n      dup2\n      add\n      swap1\n      tag_42\n      swap2\n      swap1\n      tag_24\n      jump\t// in\n    tag_42:\n      tag_43\n      jump\t// in\n    tag_41:\n      mload(0x40)\n      tag_44\n      swap2\n      swap1\n      tag_45\n      jump\t// in\n    tag_44:\n      mload(0x40)\n      dup1\n      swap2\n      sub\n      swap1\n      return\n        /* \"contracts/roles/AgentRole.sol\":1634:1754  function addAgent(address _agent) public onlyOwner {... */\n    tag_9:\n      tag_46\n      0x04\n      dup1\n      calldatasize\n      sub\n      dup2\n      add\n      swap1\n      tag_47\n      swap2\n      swap1\n      tag_24\n      jump\t// in\n    tag_47:\n      tag_48\n      jump\t// in\n    tag_46:\n      stop\n        /* \"@openzeppelin/contracts/access/Ownable.sol\":973:1058  function owner() public view virtual returns (address) {... */\n    tag_10:\n      tag_49\n      tag_50\n      jump\t// in\n    tag_49:\n      mload(0x40)\n      tag_51\n      swap2\n      swap1\n      tag_52\n      jump\t// in\n    tag_51:\n      mload(0x40)\n      dup1\n      swap2\n      sub\n      swap1\n      return\n        /* \"contracts/registry/IdentityRegistryStorage.sol\":5263:5849  function unbindIdentityRegistry(address _identityRegistry) external override {... */\n    tag_11:\n      tag_53\n      0x04\n      dup1\n      calldatasize\n      sub\n      dup2\n      add\n      swap1\n      tag_54\n      swap2\n      swap1\n      tag_24\n      jump\t// in\n    tag_54:\n      tag_55\n      jump\t// in\n    tag_53:\n      stop\n        /* \"contracts/roles/AgentRole.sol\":1760:1888  function removeAgent(address _agent) public onlyOwner {... */\n    tag_12:\n      tag_56\n      0x04\n      dup1\n      calldatasize\n      sub\n      dup2\n      add\n      swap1\n      tag_57\n      swap2\n      swap1\n      tag_24\n      jump\t// in\n    tag_57:\n      tag_58\n      jump\t// in\n    tag_56:\n      stop\n        /* \"contracts/registry/IdentityRegistryStorage.sol\":3816:4165  function modifyStoredInvestorCountry(address _userAddress, uint16 _country) external override onlyAgent {... */\n    tag_13:\n      tag_59\n      0x04\n      dup1\n      calldatasize\n      sub\n      dup2\n      add\n      swap1\n      tag_60\n      swap2\n      swap1\n      tag_61\n      jump\t// in\n    tag_60:\n      tag_62\n      jump\t// in\n    tag_59:\n      stop\n        /* \"contracts/registry/IdentityRegistryStorage.sol\":2546:3113  function addIdentityToStorage(... */\n    tag_14:\n      tag_63\n      0x04\n      dup1\n      calldatasize\n      sub\n      dup2\n      add\n      swap1\n      tag_64\n      swap2\n      swap1\n      tag_65\n      jump\t// in\n    tag_64:\n      tag_66\n      jump\t// in\n    tag_63:\n      stop\n        /* \"contracts/registry/IdentityRegistryStorage.sol\":1848:1976  function linkedIdentityRegistries() external view override returns (address[] memory) {... */\n    tag_15:\n      tag_67\n      tag_68\n      jump\t// in\n    tag_67:\n      mload(0x40)\n      tag_69\n      swap2\n      swap1\n      tag_70\n      jump\t// in\n    tag_69:\n      mload(0x40)\n      dup1\n      swap2\n      sub\n      swap1\n      return\n        /* \"contracts/registry/IdentityRegistryStorage.sol\":4258:4605  function removeIdentityFromStorage(address _userAddress) external override onlyAgent {... */\n    tag_16:\n      tag_71\n      0x04\n      dup1\n      calldatasize\n      sub\n      dup2\n      add\n      swap1\n      tag_72\n      swap2\n      swap1\n      tag_24\n      jump\t// in\n    tag_72:\n      tag_73\n      jump\t// in\n    tag_71:\n      stop\n        /* \"contracts/registry/IdentityRegistryStorage.sol\":3201:3721  function modifyStoredIdentity(address _userAddress, IIdentity _identity) external override onlyAgent {... */\n    tag_17:\n      tag_74\n      0x04\n      dup1\n      calldatasize\n      sub\n      dup2\n      add\n      swap1\n      tag_75\n      swap2\n      swap1\n      tag_76\n      jump\t// in\n    tag_75:\n      tag_77\n      jump\t// in\n    tag_74:\n      stop\n        /* \"@openzeppelin/contracts/access/Ownable.sol\":1846:2035  function transferOwnership(address newOwner) public virtual onlyOwner {... */\n    tag_18:\n      tag_78\n      0x04\n      dup1\n      calldatasize\n      sub\n      dup2\n      add\n      swap1\n      tag_79\n      swap2\n      swap1\n      tag_24\n      jump\t// in\n    tag_79:\n      tag_80\n      jump\t// in\n    tag_78:\n      stop\n        /* \"contracts/roles/AgentRole.sol\":1525:1628  function isAgent(address _agent) public view returns (bool) {... */\n    tag_25:\n        /* \"contracts/roles/AgentRole.sol\":1579:1583  bool */\n      0x00\n        /* \"contracts/roles/AgentRole.sol\":1602:1621  _agents.has(_agent) */\n      tag_82\n        /* \"contracts/roles/AgentRole.sol\":1614:1620  _agent */\n      dup3\n        /* \"contracts/roles/AgentRole.sol\":1602:1609  _agents */\n      0x01\n        /* \"contracts/roles/AgentRole.sol\":1602:1613  _agents.has */\n      tag_83\n      swap1\n        /* \"contracts/roles/AgentRole.sol\":1602:1621  _agents.has(_agent) */\n      swap2\n      swap1\n      0xffffffff\n      and\n      jump\t// in\n    tag_82:\n        /* \"contracts/roles/AgentRole.sol\":1595:1621  return _agents.has(_agent) */\n      swap1\n      pop\n        /* \"contracts/roles/AgentRole.sol\":1525:1628  function isAgent(address _agent) public view returns (bool) {... */\n      swap2\n      swap1\n      pop\n      jump\t// out\n        /* \"contracts/registry/IdentityRegistryStorage.sol\":4715:4859  function transferOwnershipOnIdentityRegistryStorage(address _newOwner) external override onlyOwner {... */\n    tag_30:\n        /* \"@openzeppelin/contracts/access/Ownable.sol\":1196:1208  _msgSender() */\n      tag_85\n        /* \"@openzeppelin/contracts/access/Ownable.sol\":1196:1206  _msgSender */\n      tag_86\n        /* \"@openzeppelin/contracts/access/Ownable.sol\":1196:1208  _msgSender() */\n      jump\t// in\n    tag_85:\n        /* \"@openzeppelin/contracts/access/Ownable.sol\":1185:1208  owner() == _msgSender() */\n      0xffffffffffffffffffffffffffffffffffffffff\n      and\n        /* \"@openzeppelin/contracts/access/Ownable.sol\":1185:1192  owner() */\n      tag_87\n        /* \"@openzeppelin/contracts/access/Ownable.sol\":1185:1190  owner */\n      tag_50\n        /* \"@openzeppelin/contracts/access/Ownable.sol\":1185:1192  owner() */\n      jump\t// in\n    tag_87:\n        /* \"@openzeppelin/contracts/access/Ownable.sol\":1185:1208  owner() == _msgSender() */\n      0xffffffffffffffffffffffffffffffffffffffff\n      and\n      eq\n        /* \"@openzeppelin/contracts/access/Ownable.sol\":1177:1245  require(owner() == _msgSender(), \"Ownable: caller is not the owner\") */\n      tag_88\n      jumpi\n      mload(0x40)\n      0x08c379a000000000000000000000000000000000000000000000000000000000\n      dup2\n      mstore\n      0x04\n      add\n      tag_89\n      swap1\n      tag_90\n      jump\t// in\n    tag_89:\n      mload(0x40)\n      dup1\n      swap2\n      sub\n      swap1\n      revert\n    tag_88:\n        /* \"contracts/registry/IdentityRegistryStorage.sol\":4824:4852  transferOwnership(_newOwner) */\n      tag_92\n        /* \"contracts/registry/IdentityRegistryStorage.sol\":4842:4851  _newOwner */\n      dup2\n        /* \"contracts/registry/IdentityRegistryStorage.sol\":4824:4841  transferOwnership */\n      tag_80\n        /* \"contracts/registry/IdentityRegistryStorage.sol\":4824:4852  transferOwnership(_newOwner) */\n      jump\t// in\n    tag_92:\n        /* \"contracts/registry/IdentityRegistryStorage.sol\":4715:4859  function transferOwnershipOnIdentityRegistryStorage(address _newOwner) external override onlyOwner {... */\n      pop\n      jump\t// out\n        /* \"contracts/registry/IdentityRegistryStorage.sol\":4947:5173  function bindIdentityRegistry(address _identityRegistry) external override {... */\n    tag_33:\n        /* \"contracts/registry/IdentityRegistryStorage.sol\":5032:5059  addAgent(_identityRegistry) */\n      tag_94\n        /* \"contracts/registry/IdentityRegistryStorage.sol\":5041:5058  _identityRegistry */\n      dup2\n        /* \"contracts/registry/IdentityRegistryStorage.sol\":5032:5040  addAgent */\n      tag_48\n        /* \"contracts/registry/IdentityRegistryStorage.sol\":5032:5059  addAgent(_identityRegistry) */\n      jump\t// in\n    tag_94:\n        /* \"contracts/registry/IdentityRegistryStorage.sol\":5069:5087  identityRegistries */\n      0x03\n        /* \"contracts/registry/IdentityRegistryStorage.sol\":5093:5110  _identityRegistry */\n      dup2\n        /* \"contracts/registry/IdentityRegistryStorage.sol\":5069:5111  identityRegistries.push(_identityRegistry) */\n      swap1\n      dup1\n      0x01\n      dup2\n      sload\n      add\n      dup1\n      dup3\n      sstore\n      dup1\n      swap2\n      pop\n      pop\n      0x01\n      swap1\n      sub\n      swap1\n      0x00\n      mstore\n      keccak256(0x00, 0x20)\n      add\n      0x00\n      swap1\n      swap2\n      swap1\n      swap2\n      swap1\n      swap2\n      0x0100\n      exp\n      dup2\n      sload\n      dup2\n      0xffffffffffffffffffffffffffffffffffffffff\n      mul\n      not\n      and\n      swap1\n      dup4\n      0xffffffffffffffffffffffffffffffffffffffff\n      and\n      mul\n      or\n      swap1\n      sstore\n      pop\n        /* \"contracts/registry/IdentityRegistryStorage.sol\":5148:5165  _identityRegistry */\n      dup1\n        /* \"contracts/registry/IdentityRegistryStorage.sol\":5126:5166  IdentityRegistryBound(_identityRegistry) */\n      0xffffffffffffffffffffffffffffffffffffffff\n      and\n      0x500c250171aa20e861b680f93502547b9d436eda7d4c537fc360db6e0c6eedfb\n      mload(0x40)\n      mload(0x40)\n      dup1\n      swap2\n      sub\n      swap1\n      log2\n        /* \"contracts/registry/IdentityRegistryStorage.sol\":4947:5173  function bindIdentityRegistry(address _identityRegistry) external override {... */\n      pop\n      jump\t// out\n        /* \"@openzeppelin/contracts/access/Ownable.sol\":1605:1697  function renounceOwnership() public virtual onlyOwner {... */\n    tag_35:\n        /* \"@openzeppelin/contracts/access/Ownable.sol\":1196:1208  _msgSender() */\n      tag_97\n        /* \"@openzeppelin/contracts/access/Ownable.sol\":1196:1206  _msgSender */\n      tag_86\n        /* \"@openzeppelin/contracts/access/Ownable.sol\":1196:1208  _msgSender() */\n      jump\t// in\n    tag_97:\n        /* \"@openzeppelin/contracts/access/Ownable.sol\":1185:1208  owner() == _msgSender() */\n      0xffffffffffffffffffffffffffffffffffffffff\n      and\n        /* \"@openzeppelin/contracts/access/Ownable.sol\":1185:1192  owner() */\n      tag_98\n        /* \"@openzeppelin/contracts/access/Ownable.sol\":1185:1190  owner */\n      tag_50\n        /* \"@openzeppelin/contracts/access/Ownable.sol\":1185:1192  owner() */\n      jump\t// in\n    tag_98:\n        /* \"@openzeppelin/contracts/access/Ownable.sol\":1185:1208  owner() == _msgSender() */\n      0xffffffffffffffffffffffffffffffffffffffff\n      and\n      eq\n        /* \"@openzeppelin/contracts/access/Ownable.sol\":1177:1245  require(owner() == _msgSender(), \"Ownable: caller is not the owner\") */\n      tag_99\n      jumpi\n      mload(0x40)\n      0x08c379a000000000000000000000000000000000000000000000000000000000\n      dup2\n      mstore\n      0x04\n      add\n      tag_100\n      swap1\n      tag_90\n      jump\t// in\n    tag_100:\n      mload(0x40)\n      dup1\n      swap2\n      sub\n      swap1\n      revert\n    tag_99:\n        /* \"@openzeppelin/contracts/access/Ownable.sol\":1669:1690  _setOwner(address(0)) */\n      tag_102\n        /* \"@openzeppelin/contracts/access/Ownable.sol\":1687:1688  0 */\n      0x00\n        /* \"@openzeppelin/contracts/access/Ownable.sol\":1669:1678  _setOwner */\n      tag_103\n        /* \"@openzeppelin/contracts/access/Ownable.sol\":1669:1690  _setOwner(address(0)) */\n      jump\t// in\n    tag_102:\n        /* \"@openzeppelin/contracts/access/Ownable.sol\":1605:1697  function renounceOwnership() public virtual onlyOwner {... */\n      jump\t// out\n        /* \"contracts/registry/IdentityRegistryStorage.sol\":2301:2458  function storedInvestorCountry(address _userAddress) external view override returns (uint16) {... */\n    tag_38:\n        /* \"contracts/registry/IdentityRegistryStorage.sol\":2386:2392  uint16 */\n      0x00\n        /* \"contracts/registry/IdentityRegistryStorage.sol\":2411:2421  identities */\n      0x02\n        /* \"contracts/registry/IdentityRegistryStorage.sol\":2411:2435  identities[_userAddress] */\n      0x00\n        /* \"contracts/registry/IdentityRegistryStorage.sol\":2422:2434  _userAddress */\n      dup4\n        /* \"contracts/registry/IdentityRegistryStorage.sol\":2411:2435  identities[_userAddress] */\n      0xffffffffffffffffffffffffffffffffffffffff\n      and\n      0xffffffffffffffffffffffffffffffffffffffff\n      and\n      dup2\n      mstore\n      0x20\n      add\n      swap1\n      dup2\n      mstore\n      0x20\n      add\n      0x00\n      keccak256\n        /* \"contracts/registry/IdentityRegistryStorage.sol\":2411:2451  identities[_userAddress].investorCountry */\n      0x00\n      add\n      0x14\n      swap1\n      sload\n      swap1\n      0x0100\n      exp\n      swap1\n      div\n      0xffff\n      and\n        /* \"contracts/registry/IdentityRegistryStorage.sol\":2404:2451  return identities[_userAddress].investorCountry */\n      swap1\n      pop\n        /* \"contracts/registry/IdentityRegistryStorage.sol\":2301:2458  function storedInvestorCountry(address _userAddress) external view override returns (uint16) {... */\n      swap2\n      swap1\n      pop\n      jump\t// out\n        /* \"contracts/registry/IdentityRegistryStorage.sol\":2058:2212  function storedIdentity(address _userAddress) external view override returns (IIdentity) {... */\n    tag_43:\n        /* \"contracts/registry/IdentityRegistryStorage.sol\":2136:2145  IIdentity */\n      0x00\n        /* \"contracts/registry/IdentityRegistryStorage.sol\":2164:2174  identities */\n      0x02\n        /* \"contracts/registry/IdentityRegistryStorage.sol\":2164:2188  identities[_userAddress] */\n      0x00\n        /* \"contracts/registry/IdentityRegistryStorage.sol\":2175:2187  _userAddress */\n      dup4\n        /* \"contracts/registry/IdentityRegistryStorage.sol\":2164:2188  identities[_userAddress] */\n      0xffffffffffffffffffffffffffffffffffffffff\n      and\n      0xffffffffffffffffffffffffffffffffffffffff\n      and\n      dup2\n      mstore\n      0x20\n      add\n      swap1\n      dup2\n      mstore\n      0x20\n      add\n      0x00\n      keccak256\n        /* \"contracts/registry/IdentityRegistryStorage.sol\":2164:2205  identities[_userAddress].identityContract */\n      0x00\n      add\n      0x00\n      swap1\n      sload\n      swap1\n      0x0100\n      exp\n      swap1\n      div\n      0xffffffffffffffffffffffffffffffffffffffff\n      and\n        /* \"contracts/registry/IdentityRegistryStorage.sol\":2157:2205  return identities[_userAddress].identityContract */\n      swap1\n      pop\n        /* \"contracts/registry/IdentityRegistryStorage.sol\":2058:2212  function storedIdentity(address _userAddress) external view override returns (IIdentity) {... */\n      swap2\n      swap1\n      pop\n      jump\t// out\n        /* \"contracts/roles/AgentRole.sol\":1634:1754  function addAgent(address _agent) public onlyOwner {... */\n    tag_48:\n        /* \"@openzeppelin/contracts/access/Ownable.sol\":1196:1208  _msgSender() */\n      tag_107\n        /* \"@openzeppelin/contracts/access/Ownable.sol\":1196:1206  _msgSender */\n      tag_86\n        /* \"@openzeppelin/contracts/access/Ownable.sol\":1196:1208  _msgSender() */\n      jump\t// in\n    tag_107:\n        /* \"@openzeppelin/contracts/access/Ownable.sol\":1185:1208  owner() == _msgSender() */\n      0xffffffffffffffffffffffffffffffffffffffff\n      and\n        /* \"@openzeppelin/contracts/access/Ownable.sol\":1185:1192  owner() */\n      tag_108\n        /* \"@openzeppelin/contracts/access/Ownable.sol\":1185:1190  owner */\n      tag_50\n        /* \"@openzeppelin/contracts/access/Ownable.sol\":1185:1192  owner() */\n      jump\t// in\n    tag_108:\n        /* \"@openzeppelin/contracts/access/Ownable.sol\":1185:1208  owner() == _msgSender() */\n      0xffffffffffffffffffffffffffffffffffffffff\n      and\n      eq\n        /* \"@openzeppelin/contracts/access/Ownable.sol\":1177:1245  require(owner() == _msgSender(), \"Ownable: caller is not the owner\") */\n      tag_109\n      jumpi\n      mload(0x40)\n      0x08c379a000000000000000000000000000000000000000000000000000000000\n      dup2\n      mstore\n      0x04\n      add\n      tag_110\n      swap1\n      tag_90\n      jump\t// in\n    tag_110:\n      mload(0x40)\n      dup1\n      swap2\n      sub\n      swap1\n      revert\n    tag_109:\n        /* \"contracts/roles/AgentRole.sol\":1695:1714  _agents.add(_agent) */\n      tag_112\n        /* \"contracts/roles/AgentRole.sol\":1707:1713  _agent */\n      dup2\n        /* \"contracts/roles/AgentRole.sol\":1695:1702  _agents */\n      0x01\n        /* \"contracts/roles/AgentRole.sol\":1695:1706  _agents.add */\n      tag_113\n      swap1\n        /* \"contracts/roles/AgentRole.sol\":1695:1714  _agents.add(_agent) */\n      swap2\n      swap1\n      0xffffffff\n      and\n      jump\t// in\n    tag_112:\n        /* \"contracts/roles/AgentRole.sol\":1740:1746  _agent */\n      dup1\n        /* \"contracts/roles/AgentRole.sol\":1729:1747  AgentAdded(_agent) */\n      0xffffffffffffffffffffffffffffffffffffffff\n      and\n      0xf68e73cec97f2d70aa641fb26e87a4383686e2efacb648f2165aeb02ac562ec5\n      mload(0x40)\n      mload(0x40)\n      dup1\n      swap2\n      sub\n      swap1\n      log2\n        /* \"contracts/roles/AgentRole.sol\":1634:1754  function addAgent(address _agent) public onlyOwner {... */\n      pop\n      jump\t// out\n        /* \"@openzeppelin/contracts/access/Ownable.sol\":973:1058  function owner() public view virtual returns (address) {... */\n    tag_50:\n        /* \"@openzeppelin/contracts/access/Ownable.sol\":1019:1026  address */\n      0x00\n        /* \"@openzeppelin/contracts/access/Ownable.sol\":1045:1051  _owner */\n      dup1\n      0x00\n      swap1\n      sload\n      swap1\n      0x0100\n      exp\n      swap1\n      div\n      0xffffffffffffffffffffffffffffffffffffffff\n      and\n        /* \"@openzeppelin/contracts/access/Ownable.sol\":1038:1051  return _owner */\n      swap1\n      pop\n        /* \"@openzeppelin/contracts/access/Ownable.sol\":973:1058  function owner() public view virtual returns (address) {... */\n      swap1\n      jump\t// out\n        /* \"contracts/registry/IdentityRegistryStorage.sol\":5263:5849  function unbindIdentityRegistry(address _identityRegistry) external override {... */\n    tag_55:\n        /* \"contracts/registry/IdentityRegistryStorage.sol\":5386:5387  0 */\n      0x00\n        /* \"contracts/registry/IdentityRegistryStorage.sol\":5358:5376  identityRegistries */\n      0x03\n        /* \"contracts/registry/IdentityRegistryStorage.sol\":5358:5383  identityRegistries.length */\n      dup1\n      sload\n      swap1\n      pop\n        /* \"contracts/registry/IdentityRegistryStorage.sol\":5358:5387  identityRegistries.length > 0 */\n      gt\n        /* \"contracts/registry/IdentityRegistryStorage.sol\":5350:5423  require(identityRegistries.length > 0, 'identity registry is not stored') */\n      tag_116\n      jumpi\n      mload(0x40)\n      0x08c379a000000000000000000000000000000000000000000000000000000000\n      dup2\n      mstore\n      0x04\n      add\n      tag_117\n      swap1\n      tag_118\n      jump\t// in\n    tag_117:\n      mload(0x40)\n      dup1\n      swap2\n      sub\n      swap1\n      revert\n    tag_116:\n        /* \"contracts/registry/IdentityRegistryStorage.sol\":5433:5447  uint256 length */\n      0x00\n        /* \"contracts/registry/IdentityRegistryStorage.sol\":5450:5468  identityRegistries */\n      0x03\n        /* \"contracts/registry/IdentityRegistryStorage.sol\":5450:5475  identityRegistries.length */\n      dup1\n      sload\n      swap1\n      pop\n        /* \"contracts/registry/IdentityRegistryStorage.sol\":5433:5475  uint256 length = identityRegistries.length */\n      swap1\n      pop\n        /* \"contracts/registry/IdentityRegistryStorage.sol\":5490:5499  uint256 i */\n      0x00\n        /* \"contracts/registry/IdentityRegistryStorage.sol\":5485:5746  for (uint256 i = 0; i < length; i++) {... */\n    tag_119:\n        /* \"contracts/registry/IdentityRegistryStorage.sol\":5509:5515  length */\n      dup2\n        /* \"contracts/registry/IdentityRegistryStorage.sol\":5505:5506  i */\n      dup2\n        /* \"contracts/registry/IdentityRegistryStorage.sol\":5505:5515  i < length */\n      lt\n        /* \"contracts/registry/IdentityRegistryStorage.sol\":5485:5746  for (uint256 i = 0; i < length; i++) {... */\n      iszero\n      tag_120\n      jumpi\n        /* \"contracts/registry/IdentityRegistryStorage.sol\":5565:5582  _identityRegistry */\n      dup3\n        /* \"contracts/registry/IdentityRegistryStorage.sol\":5540:5582  identityRegistries[i] == _identityRegistry */\n      0xffffffffffffffffffffffffffffffffffffffff\n      and\n        /* \"contracts/registry/IdentityRegistryStorage.sol\":5540:5558  identityRegistries */\n      0x03\n        /* \"contracts/registry/IdentityRegistryStorage.sol\":5559:5560  i */\n      dup3\n        /* \"contracts/registry/IdentityRegistryStorage.sol\":5540:5561  identityRegistries[i] */\n      dup2\n      sload\n      dup2\n      lt\n      tag_122\n      jumpi\n      tag_123\n      tag_124\n      jump\t// in\n    tag_123:\n    tag_122:\n      swap1\n      0x00\n      mstore\n      keccak256(0x00, 0x20)\n      add\n      0x00\n      swap1\n      sload\n      swap1\n      0x0100\n      exp\n      swap1\n      div\n      0xffffffffffffffffffffffffffffffffffffffff\n      and\n        /* \"contracts/registry/IdentityRegistryStorage.sol\":5540:5582  identityRegistries[i] == _identityRegistry */\n      0xffffffffffffffffffffffffffffffffffffffff\n      and\n      eq\n        /* \"contracts/registry/IdentityRegistryStorage.sol\":5536:5736  if (identityRegistries[i] == _identityRegistry) {... */\n      iszero\n      tag_126\n      jumpi\n        /* \"contracts/registry/IdentityRegistryStorage.sol\":5626:5644  identityRegistries */\n      0x03\n        /* \"contracts/registry/IdentityRegistryStorage.sol\":5654:5655  1 */\n      0x01\n        /* \"contracts/registry/IdentityRegistryStorage.sol\":5645:5651  length */\n      dup4\n        /* \"contracts/registry/IdentityRegistryStorage.sol\":5645:5655  length - 1 */\n      tag_127\n      swap2\n      swap1\n      tag_128\n      jump\t// in\n    tag_127:\n        /* \"contracts/registry/IdentityRegistryStorage.sol\":5626:5656  identityRegistries[length - 1] */\n      dup2\n      sload\n      dup2\n      lt\n      tag_129\n      jumpi\n      tag_130\n      tag_124\n      jump\t// in\n    tag_130:\n    tag_129:\n      swap1\n      0x00\n      mstore\n      keccak256(0x00, 0x20)\n      add\n      0x00\n      swap1\n      sload\n      swap1\n      0x0100\n      exp\n      swap1\n      div\n      0xffffffffffffffffffffffffffffffffffffffff\n      and\n        /* \"contracts/registry/IdentityRegistryStorage.sol\":5602:5620  identityRegistries */\n      0x03\n        /* \"contracts/registry/IdentityRegistryStorage.sol\":5621:5622  i */\n      dup3\n        /* \"contracts/registry/IdentityRegistryStorage.sol\":5602:5623  identityRegistries[i] */\n      dup2\n      sload\n      dup2\n      lt\n      tag_132\n      jumpi\n      tag_133\n      tag_124\n      jump\t// in\n    tag_133:\n    tag_132:\n      swap1\n      0x00\n      mstore\n      keccak256(0x00, 0x20)\n      add\n      0x00\n        /* \"contracts/registry/IdentityRegistryStorage.sol\":5602:5656  identityRegistries[i] = identityRegistries[length - 1] */\n      0x0100\n      exp\n      dup2\n      sload\n      dup2\n      0xffffffffffffffffffffffffffffffffffffffff\n      mul\n      not\n      and\n      swap1\n      dup4\n      0xffffffffffffffffffffffffffffffffffffffff\n      and\n      mul\n      or\n      swap1\n      sstore\n      pop\n        /* \"contracts/registry/IdentityRegistryStorage.sol\":5674:5692  identityRegistries */\n      0x03\n        /* \"contracts/registry/IdentityRegistryStorage.sol\":5674:5698  identityRegistries.pop() */\n      dup1\n      sload\n      dup1\n      tag_135\n      jumpi\n      tag_136\n      tag_137\n      jump\t// in\n    tag_136:\n    tag_135:\n      0x01\n      swap1\n      sub\n      dup2\n      dup2\n      swap1\n      0x00\n      mstore\n      keccak256(0x00, 0x20)\n      add\n      exp(0x0100, 0x00)\n      dup2\n      sload\n      swap1\n      0xffffffffffffffffffffffffffffffffffffffff\n      mul\n      not\n      and\n      swap1\n      sstore\n      swap1\n      sstore\n        /* \"contracts/registry/IdentityRegistryStorage.sol\":5716:5721  break */\n      jump(tag_120)\n        /* \"contracts/registry/IdentityRegistryStorage.sol\":5536:5736  if (identityRegistries[i] == _identityRegistry) {... */\n    tag_126:\n        /* \"contracts/registry/IdentityRegistryStorage.sol\":5517:5520  i++ */\n      dup1\n      dup1\n      tag_139\n      swap1\n      tag_140\n      jump\t// in\n    tag_139:\n      swap2\n      pop\n      pop\n        /* \"contracts/registry/IdentityRegistryStorage.sol\":5485:5746  for (uint256 i = 0; i < length; i++) {... */\n      jump(tag_119)\n    tag_120:\n      pop\n        /* \"contracts/registry/IdentityRegistryStorage.sol\":5755:5785  removeAgent(_identityRegistry) */\n      tag_141\n        /* \"contracts/registry/IdentityRegistryStorage.sol\":5767:5784  _identityRegistry */\n      dup3\n        /* \"contracts/registry/IdentityRegistryStorage.sol\":5755:5766  removeAgent */\n      tag_58\n        /* \"contracts/registry/IdentityRegistryStorage.sol\":5755:5785  removeAgent(_identityRegistry) */\n      jump\t// in\n    tag_141:\n        /* \"contracts/registry/IdentityRegistryStorage.sol\":5824:5841  _identityRegistry */\n      dup2\n        /* \"contracts/registry/IdentityRegistryStorage.sol\":5800:5842  IdentityRegistryUnbound(_identityRegistry) */\n      0xffffffffffffffffffffffffffffffffffffffff\n      and\n      0x51f353eb5801583fdf2706e43c045b62fdf6b1566820b349390616363ecf72c9\n      mload(0x40)\n      mload(0x40)\n      dup1\n      swap2\n      sub\n      swap1\n      log2\n        /* \"contracts/registry/IdentityRegistryStorage.sol\":5340:5849  {... */\n      pop\n        /* \"contracts/registry/IdentityRegistryStorage.sol\":5263:5849  function unbindIdentityRegistry(address _identityRegistry) external override {... */\n      pop\n      jump\t// out\n        /* \"contracts/roles/AgentRole.sol\":1760:1888  function removeAgent(address _agent) public onlyOwner {... */\n    tag_58:\n        /* \"@openzeppelin/contracts/access/Ownable.sol\":1196:1208  _msgSender() */\n      tag_143\n        /* \"@openzeppelin/contracts/access/Ownable.sol\":1196:1206  _msgSender */\n      tag_86\n        /* \"@openzeppelin/contracts/access/Ownable.sol\":1196:1208  _msgSender() */\n      jump\t// in\n    tag_143:\n        /* \"@openzeppelin/contracts/access/Ownable.sol\":1185:1208  owner() == _msgSender() */\n      0xffffffffffffffffffffffffffffffffffffffff\n      and\n        /* \"@openzeppelin/contracts/access/Ownable.sol\":1185:1192  owner() */\n      tag_144\n        /* \"@openzeppelin/contracts/access/Ownable.sol\":1185:1190  owner */\n      tag_50\n        /* \"@openzeppelin/contracts/access/Ownable.sol\":1185:1192  owner() */\n      jump\t// in\n    tag_144:\n        /* \"@openzeppelin/contracts/access/Ownable.sol\":1185:1208  owner() == _msgSender() */\n      0xffffffffffffffffffffffffffffffffffffffff\n      and\n      eq\n        /* \"@openzeppelin/contracts/access/Ownable.sol\":1177:1245  require(owner() == _msgSender(), \"Ownable: caller is not the owner\") */\n      tag_145\n      jumpi\n      mload(0x40)\n      0x08c379a000000000000000000000000000000000000000000000000000000000\n      dup2\n      mstore\n      0x04\n      add\n      tag_146\n      swap1\n      tag_90\n      jump\t// in\n    tag_146:\n      mload(0x40)\n      dup1\n      swap2\n      sub\n      swap1\n      revert\n    tag_145:\n        /* \"contracts/roles/AgentRole.sol\":1824:1846  _agents.remove(_agent) */\n      tag_148\n        /* \"contracts/roles/AgentRole.sol\":1839:1845  _agent */\n      dup2\n        /* \"contracts/roles/AgentRole.sol\":1824:1831  _agents */\n      0x01\n        /* \"contracts/roles/AgentRole.sol\":1824:1838  _agents.remove */\n      tag_149\n      swap1\n        /* \"contracts/roles/AgentRole.sol\":1824:1846  _agents.remove(_agent) */\n      swap2\n      swap1\n      0xffffffff\n      and\n      jump\t// in\n    tag_148:\n        /* \"contracts/roles/AgentRole.sol\":1874:1880  _agent */\n      dup1\n        /* \"contracts/roles/AgentRole.sol\":1861:1881  AgentRemoved(_agent) */\n      0xffffffffffffffffffffffffffffffffffffffff\n      and\n      0xed9c8ad8d5a0a66898ea49d2956929c93ae2e8bd50281b2ed897c5d1a6737e0b\n      mload(0x40)\n      mload(0x40)\n      dup1\n      swap2\n      sub\n      swap1\n      log2\n        /* \"contracts/roles/AgentRole.sol\":1760:1888  function removeAgent(address _agent) public onlyOwner {... */\n      pop\n      jump\t// out\n        /* \"contracts/registry/IdentityRegistryStorage.sol\":3816:4165  function modifyStoredInvestorCountry(address _userAddress, uint16 _country) external override onlyAgent {... */\n    tag_62:\n        /* \"contracts/roles/AgentRole.sol\":1431:1450  isAgent(msg.sender) */\n      tag_151\n        /* \"contracts/roles/AgentRole.sol\":1439:1449  msg.sender */\n      caller\n        /* \"contracts/roles/AgentRole.sol\":1431:1438  isAgent */\n      tag_25\n        /* \"contracts/roles/AgentRole.sol\":1431:1450  isAgent(msg.sender) */\n      jump\t// in\n    tag_151:\n        /* \"contracts/roles/AgentRole.sol\":1423:1501  require(isAgent(msg.sender), 'AgentRole: caller does not have the Agent role') */\n      tag_152\n      jumpi\n      mload(0x40)\n      0x08c379a000000000000000000000000000000000000000000000000000000000\n      dup2\n      mstore\n      0x04\n      add\n      tag_153\n      swap1\n      tag_154\n      jump\t// in\n    tag_153:\n      mload(0x40)\n      dup1\n      swap2\n      sub\n      swap1\n      revert\n    tag_152:\n        /* \"contracts/registry/IdentityRegistryStorage.sol\":4000:4001  0 */\n      0x00\n        /* \"contracts/registry/IdentityRegistryStorage.sol\":3938:4002  address(identities[_userAddress].identityContract) != address(0) */\n      0xffffffffffffffffffffffffffffffffffffffff\n      and\n        /* \"contracts/registry/IdentityRegistryStorage.sol\":3946:3956  identities */\n      0x02\n        /* \"contracts/registry/IdentityRegistryStorage.sol\":3946:3970  identities[_userAddress] */\n      0x00\n        /* \"contracts/registry/IdentityRegistryStorage.sol\":3957:3969  _userAddress */\n      dup5\n        /* \"contracts/registry/IdentityRegistryStorage.sol\":3946:3970  identities[_userAddress] */\n      0xffffffffffffffffffffffffffffffffffffffff\n      and\n      0xffffffffffffffffffffffffffffffffffffffff\n      and\n      dup2\n      mstore\n      0x20\n      add\n      swap1\n      dup2\n      mstore\n      0x20\n      add\n      0x00\n      keccak256\n        /* \"contracts/registry/IdentityRegistryStorage.sol\":3946:3987  identities[_userAddress].identityContract */\n      0x00\n      add\n      0x00\n      swap1\n      sload\n      swap1\n      0x0100\n      exp\n      swap1\n      div\n      0xffffffffffffffffffffffffffffffffffffffff\n      and\n        /* \"contracts/registry/IdentityRegistryStorage.sol\":3938:4002  address(identities[_userAddress].identityContract) != address(0) */\n      0xffffffffffffffffffffffffffffffffffffffff\n      and\n      eq\n      iszero\n        /* \"contracts/registry/IdentityRegistryStorage.sol\":3930:4043  require(address(identities[_userAddress].identityContract) != address(0), 'this user has no identity registered') */\n      tag_156\n      jumpi\n      mload(0x40)\n      0x08c379a000000000000000000000000000000000000000000000000000000000\n      dup2\n      mstore\n      0x04\n      add\n      tag_157\n      swap1\n      tag_158\n      jump\t// in\n    tag_157:\n      mload(0x40)\n      dup1\n      swap2\n      sub\n      swap1\n      revert\n    tag_156:\n        /* \"contracts/registry/IdentityRegistryStorage.sol\":4096:4104  _country */\n      dup1\n        /* \"contracts/registry/IdentityRegistryStorage.sol\":4053:4063  identities */\n      0x02\n        /* \"contracts/registry/IdentityRegistryStorage.sol\":4053:4077  identities[_userAddress] */\n      0x00\n        /* \"contracts/registry/IdentityRegistryStorage.sol\":4064:4076  _userAddress */\n      dup5\n        /* \"contracts/registry/IdentityRegistryStorage.sol\":4053:4077  identities[_userAddress] */\n      0xffffffffffffffffffffffffffffffffffffffff\n      and\n      0xffffffffffffffffffffffffffffffffffffffff\n      and\n      dup2\n      mstore\n      0x20\n      add\n      swap1\n      dup2\n      mstore\n      0x20\n      add\n      0x00\n      keccak256\n        /* \"contracts/registry/IdentityRegistryStorage.sol\":4053:4093  identities[_userAddress].investorCountry */\n      0x00\n      add\n      0x14\n        /* \"contracts/registry/IdentityRegistryStorage.sol\":4053:4104  identities[_userAddress].investorCountry = _country */\n      0x0100\n      exp\n      dup2\n      sload\n      dup2\n      0xffff\n      mul\n      not\n      and\n      swap1\n      dup4\n      0xffff\n      and\n      mul\n      or\n      swap1\n      sstore\n      pop\n        /* \"contracts/registry/IdentityRegistryStorage.sol\":4149:4157  _country */\n      dup1\n        /* \"contracts/registry/IdentityRegistryStorage.sol\":4119:4158  CountryModified(_userAddress, _country) */\n      0xffff\n      and\n        /* \"contracts/registry/IdentityRegistryStorage.sol\":4135:4147  _userAddress */\n      dup3\n        /* \"contracts/registry/IdentityRegistryStorage.sol\":4119:4158  CountryModified(_userAddress, _country) */\n      0xffffffffffffffffffffffffffffffffffffffff\n      and\n      0x20965fcdc6eed7ae398065b40ece4e732ba667992ca819fc54e80e9f2047c4cf\n      mload(0x40)\n      mload(0x40)\n      dup1\n      swap2\n      sub\n      swap1\n      log3\n        /* \"contracts/registry/IdentityRegistryStorage.sol\":3816:4165  function modifyStoredInvestorCountry(address _userAddress, uint16 _country) external override onlyAgent {... */\n      pop\n      pop\n      jump\t// out\n        /* \"contracts/registry/IdentityRegistryStorage.sol\":2546:3113  function addIdentityToStorage(... */\n    tag_66:\n        /* \"contracts/roles/AgentRole.sol\":1431:1450  isAgent(msg.sender) */\n      tag_160\n        /* \"contracts/roles/AgentRole.sol\":1439:1449  msg.sender */\n      caller\n        /* \"contracts/roles/AgentRole.sol\":1431:1438  isAgent */\n      tag_25\n        /* \"contracts/roles/AgentRole.sol\":1431:1450  isAgent(msg.sender) */\n      jump\t// in\n    tag_160:\n        /* \"contracts/roles/AgentRole.sol\":1423:1501  require(isAgent(msg.sender), 'AgentRole: caller does not have the Agent role') */\n      tag_161\n      jumpi\n      mload(0x40)\n      0x08c379a000000000000000000000000000000000000000000000000000000000\n      dup2\n      mstore\n      0x04\n      add\n      tag_162\n      swap1\n      tag_154\n      jump\t// in\n    tag_162:\n      mload(0x40)\n      dup1\n      swap2\n      sub\n      swap1\n      revert\n    tag_161:\n        /* \"contracts/registry/IdentityRegistryStorage.sol\":2742:2743  0 */\n      0x00\n        /* \"contracts/registry/IdentityRegistryStorage.sol\":2712:2744  address(_identity) != address(0) */\n      0xffffffffffffffffffffffffffffffffffffffff\n      and\n        /* \"contracts/registry/IdentityRegistryStorage.sol\":2720:2729  _identity */\n      dup3\n        /* \"contracts/registry/IdentityRegistryStorage.sol\":2712:2744  address(_identity) != address(0) */\n      0xffffffffffffffffffffffffffffffffffffffff\n      and\n      eq\n      iszero\n        /* \"contracts/registry/IdentityRegistryStorage.sol\":2704:2790  require(address(_identity) != address(0), 'contract address can\\'t be a zero address') */\n      tag_164\n      jumpi\n      mload(0x40)\n      0x08c379a000000000000000000000000000000000000000000000000000000000\n      dup2\n      mstore\n      0x04\n      add\n      tag_165\n      swap1\n      tag_166\n      jump\t// in\n    tag_165:\n      mload(0x40)\n      dup1\n      swap2\n      sub\n      swap1\n      revert\n    tag_164:\n        /* \"contracts/registry/IdentityRegistryStorage.sol\":2870:2871  0 */\n      0x00\n        /* \"contracts/registry/IdentityRegistryStorage.sol\":2808:2872  address(identities[_userAddress].identityContract) == address(0) */\n      0xffffffffffffffffffffffffffffffffffffffff\n      and\n        /* \"contracts/registry/IdentityRegistryStorage.sol\":2816:2826  identities */\n      0x02\n        /* \"contracts/registry/IdentityRegistryStorage.sol\":2816:2840  identities[_userAddress] */\n      0x00\n        /* \"contracts/registry/IdentityRegistryStorage.sol\":2827:2839  _userAddress */\n      dup6\n        /* \"contracts/registry/IdentityRegistryStorage.sol\":2816:2840  identities[_userAddress] */\n      0xffffffffffffffffffffffffffffffffffffffff\n      and\n      0xffffffffffffffffffffffffffffffffffffffff\n      and\n      dup2\n      mstore\n      0x20\n      add\n      swap1\n      dup2\n      mstore\n      0x20\n      add\n      0x00\n      keccak256\n        /* \"contracts/registry/IdentityRegistryStorage.sol\":2816:2857  identities[_userAddress].identityContract */\n      0x00\n      add\n      0x00\n      swap1\n      sload\n      swap1\n      0x0100\n      exp\n      swap1\n      div\n      0xffffffffffffffffffffffffffffffffffffffff\n      and\n        /* \"contracts/registry/IdentityRegistryStorage.sol\":2808:2872  address(identities[_userAddress].identityContract) == address(0) */\n      0xffffffffffffffffffffffffffffffffffffffff\n      and\n      eq\n        /* \"contracts/registry/IdentityRegistryStorage.sol\":2800:2928  require(address(identities[_userAddress].identityContract) == address(0), 'identity contract already exists, please use update') */\n      tag_167\n      jumpi\n      mload(0x40)\n      0x08c379a000000000000000000000000000000000000000000000000000000000\n      dup2\n      mstore\n      0x04\n      add\n      tag_168\n      swap1\n      tag_169\n      jump\t// in\n    tag_168:\n      mload(0x40)\n      dup1\n      swap2\n      sub\n      swap1\n      revert\n    tag_167:\n        /* \"contracts/registry/IdentityRegistryStorage.sol\":2982:2991  _identity */\n      dup2\n        /* \"contracts/registry/IdentityRegistryStorage.sol\":2938:2948  identities */\n      0x02\n        /* \"contracts/registry/IdentityRegistryStorage.sol\":2938:2962  identities[_userAddress] */\n      0x00\n        /* \"contracts/registry/IdentityRegistryStorage.sol\":2949:2961  _userAddress */\n      dup6\n        /* \"contracts/registry/IdentityRegistryStorage.sol\":2938:2962  identities[_userAddress] */\n      0xffffffffffffffffffffffffffffffffffffffff\n      and\n      0xffffffffffffffffffffffffffffffffffffffff\n      and\n      dup2\n      mstore\n      0x20\n      add\n      swap1\n      dup2\n      mstore\n      0x20\n      add\n      0x00\n      keccak256\n        /* \"contracts/registry/IdentityRegistryStorage.sol\":2938:2979  identities[_userAddress].identityContract */\n      0x00\n      add\n      0x00\n        /* \"contracts/registry/IdentityRegistryStorage.sol\":2938:2991  identities[_userAddress].identityContract = _identity */\n      0x0100\n      exp\n      dup2\n      sload\n      dup2\n      0xffffffffffffffffffffffffffffffffffffffff\n      mul\n      not\n      and\n      swap1\n      dup4\n      0xffffffffffffffffffffffffffffffffffffffff\n      and\n      mul\n      or\n      swap1\n      sstore\n      pop\n        /* \"contracts/registry/IdentityRegistryStorage.sol\":3044:3052  _country */\n      dup1\n        /* \"contracts/registry/IdentityRegistryStorage.sol\":3001:3011  identities */\n      0x02\n        /* \"contracts/registry/IdentityRegistryStorage.sol\":3001:3025  identities[_userAddress] */\n      0x00\n        /* \"contracts/registry/IdentityRegistryStorage.sol\":3012:3024  _userAddress */\n      dup6\n        /* \"contracts/registry/IdentityRegistryStorage.sol\":3001:3025  identities[_userAddress] */\n      0xffffffffffffffffffffffffffffffffffffffff\n      and\n      0xffffffffffffffffffffffffffffffffffffffff\n      and\n      dup2\n      mstore\n      0x20\n      add\n      swap1\n      dup2\n      mstore\n      0x20\n      add\n      0x00\n      keccak256\n        /* \"contracts/registry/IdentityRegistryStorage.sol\":3001:3041  identities[_userAddress].investorCountry */\n      0x00\n      add\n      0x14\n        /* \"contracts/registry/IdentityRegistryStorage.sol\":3001:3052  identities[_userAddress].investorCountry = _country */\n      0x0100\n      exp\n      dup2\n      sload\n      dup2\n      0xffff\n      mul\n      not\n      and\n      swap1\n      dup4\n      0xffff\n      and\n      mul\n      or\n      swap1\n      sstore\n      pop\n        /* \"contracts/registry/IdentityRegistryStorage.sol\":3096:3105  _identity */\n      dup2\n        /* \"contracts/registry/IdentityRegistryStorage.sol\":3067:3106  IdentityStored(_userAddress, _identity) */\n      0xffffffffffffffffffffffffffffffffffffffff\n      and\n        /* \"contracts/registry/IdentityRegistryStorage.sol\":3082:3094  _userAddress */\n      dup4\n        /* \"contracts/registry/IdentityRegistryStorage.sol\":3067:3106  IdentityStored(_userAddress, _identity) */\n      0xffffffffffffffffffffffffffffffffffffffff\n      and\n      0x30dea7e9c9afaa2e3c9810f2fc9b5181f1bad74ca5a8db85f746a33585e747\n      mload(0x40)\n      mload(0x40)\n      dup1\n      swap2\n      sub\n      swap1\n      log3\n        /* \"contracts/registry/IdentityRegistryStorage.sol\":2546:3113  function addIdentityToStorage(... */\n      pop\n      pop\n      pop\n      jump\t// out\n        /* \"contracts/registry/IdentityRegistryStorage.sol\":1848:1976  function linkedIdentityRegistries() external view override returns (address[] memory) {... */\n    tag_68:\n        /* \"contracts/registry/IdentityRegistryStorage.sol\":1916:1932  address[] memory */\n      0x60\n        /* \"contracts/registry/IdentityRegistryStorage.sol\":1951:1969  identityRegistries */\n      0x03\n        /* \"contracts/registry/IdentityRegistryStorage.sol\":1944:1969  return identityRegistries */\n      dup1\n      sload\n      dup1\n      0x20\n      mul\n      0x20\n      add\n      mload(0x40)\n      swap1\n      dup2\n      add\n      0x40\n      mstore\n      dup1\n      swap3\n      swap2\n      swap1\n      dup2\n      dup2\n      mstore\n      0x20\n      add\n      dup3\n      dup1\n      sload\n      dup1\n      iszero\n      tag_171\n      jumpi\n      0x20\n      mul\n      dup3\n      add\n      swap2\n      swap1\n      0x00\n      mstore\n      keccak256(0x00, 0x20)\n      swap1\n    tag_172:\n      dup2\n      0x00\n      swap1\n      sload\n      swap1\n      0x0100\n      exp\n      swap1\n      div\n      0xffffffffffffffffffffffffffffffffffffffff\n      and\n      0xffffffffffffffffffffffffffffffffffffffff\n      and\n      dup2\n      mstore\n      0x20\n      add\n      swap1\n      0x01\n      add\n      swap1\n      dup1\n      dup4\n      gt\n      tag_172\n      jumpi\n    tag_171:\n      pop\n      pop\n      pop\n      pop\n      pop\n      swap1\n      pop\n        /* \"contracts/registry/IdentityRegistryStorage.sol\":1848:1976  function linkedIdentityRegistries() external view override returns (address[] memory) {... */\n      swap1\n      jump\t// out\n        /* \"contracts/registry/IdentityRegistryStorage.sol\":4258:4605  function removeIdentityFromStorage(address _userAddress) external override onlyAgent {... */\n    tag_73:\n        /* \"contracts/roles/AgentRole.sol\":1431:1450  isAgent(msg.sender) */\n      tag_174\n        /* \"contracts/roles/AgentRole.sol\":1439:1449  msg.sender */\n      caller\n        /* \"contracts/roles/AgentRole.sol\":1431:1438  isAgent */\n      tag_25\n        /* \"contracts/roles/AgentRole.sol\":1431:1450  isAgent(msg.sender) */\n      jump\t// in\n    tag_174:\n        /* \"contracts/roles/AgentRole.sol\":1423:1501  require(isAgent(msg.sender), 'AgentRole: caller does not have the Agent role') */\n      tag_175\n      jumpi\n      mload(0x40)\n      0x08c379a000000000000000000000000000000000000000000000000000000000\n      dup2\n      mstore\n      0x04\n      add\n      tag_176\n      swap1\n      tag_154\n      jump\t// in\n    tag_176:\n      mload(0x40)\n      dup1\n      swap2\n      sub\n      swap1\n      revert\n    tag_175:\n        /* \"contracts/registry/IdentityRegistryStorage.sol\":4423:4424  0 */\n      0x00\n        /* \"contracts/registry/IdentityRegistryStorage.sol\":4361:4425  address(identities[_userAddress].identityContract) != address(0) */\n      0xffffffffffffffffffffffffffffffffffffffff\n      and\n        /* \"contracts/registry/IdentityRegistryStorage.sol\":4369:4379  identities */\n      0x02\n        /* \"contracts/registry/IdentityRegistryStorage.sol\":4369:4393  identities[_userAddress] */\n      0x00\n        /* \"contracts/registry/IdentityRegistryStorage.sol\":4380:4392  _userAddress */\n      dup4\n        /* \"contracts/registry/IdentityRegistryStorage.sol\":4369:4393  identities[_userAddress] */\n      0xffffffffffffffffffffffffffffffffffffffff\n      and\n      0xffffffffffffffffffffffffffffffffffffffff\n      and\n      dup2\n      mstore\n      0x20\n      add\n      swap1\n      dup2\n      mstore\n      0x20\n      add\n      0x00\n      keccak256\n        /* \"contracts/registry/IdentityRegistryStorage.sol\":4369:4410  identities[_userAddress].identityContract */\n      0x00\n      add\n      0x00\n      swap1\n      sload\n      swap1\n      0x0100\n      exp\n      swap1\n      div\n      0xffffffffffffffffffffffffffffffffffffffff\n      and\n        /* \"contracts/registry/IdentityRegistryStorage.sol\":4361:4425  address(identities[_userAddress].identityContract) != address(0) */\n      0xffffffffffffffffffffffffffffffffffffffff\n      and\n      eq\n      iszero\n        /* \"contracts/registry/IdentityRegistryStorage.sol\":4353:4469  require(address(identities[_userAddress].identityContract) != address(0), 'you haven\\'t registered an identity yet') */\n      tag_178\n      jumpi\n      mload(0x40)\n      0x08c379a000000000000000000000000000000000000000000000000000000000\n      dup2\n      mstore\n      0x04\n      add\n      tag_179\n      swap1\n      tag_180\n      jump\t// in\n    tag_179:\n      mload(0x40)\n      dup1\n      swap2\n      sub\n      swap1\n      revert\n    tag_178:\n        /* \"contracts/registry/IdentityRegistryStorage.sol\":4486:4496  identities */\n      0x02\n        /* \"contracts/registry/IdentityRegistryStorage.sol\":4486:4510  identities[_userAddress] */\n      0x00\n        /* \"contracts/registry/IdentityRegistryStorage.sol\":4497:4509  _userAddress */\n      dup3\n        /* \"contracts/registry/IdentityRegistryStorage.sol\":4486:4510  identities[_userAddress] */\n      0xffffffffffffffffffffffffffffffffffffffff\n      and\n      0xffffffffffffffffffffffffffffffffffffffff\n      and\n      dup2\n      mstore\n      0x20\n      add\n      swap1\n      dup2\n      mstore\n      0x20\n      add\n      0x00\n      keccak256\n      0x00\n        /* \"contracts/registry/IdentityRegistryStorage.sol\":4479:4510  delete identities[_userAddress] */\n      dup1\n      dup3\n      add\n      exp(0x0100, 0x00)\n      dup2\n      sload\n      swap1\n      0xffffffffffffffffffffffffffffffffffffffff\n      mul\n      not\n      and\n      swap1\n      sstore\n      0x00\n      dup3\n      add\n      exp(0x0100, 0x14)\n      dup2\n      sload\n      swap1\n      0xffff\n      mul\n      not\n      and\n      swap1\n      sstore\n      pop\n      pop\n        /* \"contracts/registry/IdentityRegistryStorage.sol\":4556:4566  identities */\n      0x02\n        /* \"contracts/registry/IdentityRegistryStorage.sol\":4556:4580  identities[_userAddress] */\n      0x00\n        /* \"contracts/registry/IdentityRegistryStorage.sol\":4567:4579  _userAddress */\n      dup3\n        /* \"contracts/registry/IdentityRegistryStorage.sol\":4556:4580  identities[_userAddress] */\n      0xffffffffffffffffffffffffffffffffffffffff\n      and\n      0xffffffffffffffffffffffffffffffffffffffff\n      and\n      dup2\n      mstore\n      0x20\n      add\n      swap1\n      dup2\n      mstore\n      0x20\n      add\n      0x00\n      keccak256\n        /* \"contracts/registry/IdentityRegistryStorage.sol\":4556:4597  identities[_userAddress].identityContract */\n      0x00\n      add\n      0x00\n      swap1\n      sload\n      swap1\n      0x0100\n      exp\n      swap1\n      div\n      0xffffffffffffffffffffffffffffffffffffffff\n      and\n        /* \"contracts/registry/IdentityRegistryStorage.sol\":4525:4598  IdentityUnstored(_userAddress, identities[_userAddress].identityContract) */\n      0xffffffffffffffffffffffffffffffffffffffff\n      and\n        /* \"contracts/registry/IdentityRegistryStorage.sol\":4542:4554  _userAddress */\n      dup2\n        /* \"contracts/registry/IdentityRegistryStorage.sol\":4525:4598  IdentityUnstored(_userAddress, identities[_userAddress].identityContract) */\n      0xffffffffffffffffffffffffffffffffffffffff\n      and\n      0xca6a4c3370b859312246e7f086284076e557997e10d856b716c23ab67067790b\n      mload(0x40)\n      mload(0x40)\n      dup1\n      swap2\n      sub\n      swap1\n      log3\n        /* \"contracts/registry/IdentityRegistryStorage.sol\":4258:4605  function removeIdentityFromStorage(address _userAddress) external override onlyAgent {... */\n      pop\n      jump\t// out\n        /* \"contracts/registry/IdentityRegistryStorage.sol\":3201:3721  function modifyStoredIdentity(address _userAddress, IIdentity _identity) external override onlyAgent {... */\n    tag_77:\n        /* \"contracts/roles/AgentRole.sol\":1431:1450  isAgent(msg.sender) */\n      tag_182\n        /* \"contracts/roles/AgentRole.sol\":1439:1449  msg.sender */\n      caller\n        /* \"contracts/roles/AgentRole.sol\":1431:1438  isAgent */\n      tag_25\n        /* \"contracts/roles/AgentRole.sol\":1431:1450  isAgent(msg.sender) */\n      jump\t// in\n    tag_182:\n        /* \"contracts/roles/AgentRole.sol\":1423:1501  require(isAgent(msg.sender), 'AgentRole: caller does not have the Agent role') */\n      tag_183\n      jumpi\n      mload(0x40)\n      0x08c379a000000000000000000000000000000000000000000000000000000000\n      dup2\n      mstore\n      0x04\n      add\n      tag_184\n      swap1\n      tag_154\n      jump\t// in\n    tag_184:\n      mload(0x40)\n      dup1\n      swap2\n      sub\n      swap1\n      revert\n    tag_183:\n        /* \"contracts/registry/IdentityRegistryStorage.sol\":3382:3383  0 */\n      0x00\n        /* \"contracts/registry/IdentityRegistryStorage.sol\":3320:3384  address(identities[_userAddress].identityContract) != address(0) */\n      0xffffffffffffffffffffffffffffffffffffffff\n      and\n        /* \"contracts/registry/IdentityRegistryStorage.sol\":3328:3338  identities */\n      0x02\n        /* \"contracts/registry/IdentityRegistryStorage.sol\":3328:3352  identities[_userAddress] */\n      0x00\n        /* \"contracts/registry/IdentityRegistryStorage.sol\":3339:3351  _userAddress */\n      dup5\n        /* \"contracts/registry/IdentityRegistryStorage.sol\":3328:3352  identities[_userAddress] */\n      0xffffffffffffffffffffffffffffffffffffffff\n      and\n      0xffffffffffffffffffffffffffffffffffffffff\n      and\n      dup2\n      mstore\n      0x20\n      add\n      swap1\n      dup2\n      mstore\n      0x20\n      add\n      0x00\n      keccak256\n        /* \"contracts/registry/IdentityRegistryStorage.sol\":3328:3369  identities[_userAddress].identityContract */\n      0x00\n      add\n      0x00\n      swap1\n      sload\n      swap1\n      0x0100\n      exp\n      swap1\n      div\n      0xffffffffffffffffffffffffffffffffffffffff\n      and\n        /* \"contracts/registry/IdentityRegistryStorage.sol\":3320:3384  address(identities[_userAddress].identityContract) != address(0) */\n      0xffffffffffffffffffffffffffffffffffffffff\n      and\n      eq\n      iszero\n        /* \"contracts/registry/IdentityRegistryStorage.sol\":3312:3425  require(address(identities[_userAddress].identityContract) != address(0), 'this user has no identity registered') */\n      tag_186\n      jumpi\n      mload(0x40)\n      0x08c379a000000000000000000000000000000000000000000000000000000000\n      dup2\n      mstore\n      0x04\n      add\n      tag_187\n      swap1\n      tag_158\n      jump\t// in\n    tag_187:\n      mload(0x40)\n      dup1\n      swap2\n      sub\n      swap1\n      revert\n    tag_186:\n        /* \"contracts/registry/IdentityRegistryStorage.sol\":3473:3474  0 */\n      0x00\n        /* \"contracts/registry/IdentityRegistryStorage.sol\":3443:3475  address(_identity) != address(0) */\n      0xffffffffffffffffffffffffffffffffffffffff\n      and\n        /* \"contracts/registry/IdentityRegistryStorage.sol\":3451:3460  _identity */\n      dup2\n        /* \"contracts/registry/IdentityRegistryStorage.sol\":3443:3475  address(_identity) != address(0) */\n      0xffffffffffffffffffffffffffffffffffffffff\n      and\n      eq\n      iszero\n        /* \"contracts/registry/IdentityRegistryStorage.sol\":3435:3521  require(address(_identity) != address(0), 'contract address can\\'t be a zero address') */\n      tag_188\n      jumpi\n      mload(0x40)\n      0x08c379a000000000000000000000000000000000000000000000000000000000\n      dup2\n      mstore\n      0x04\n      add\n      tag_189\n      swap1\n      tag_166\n      jump\t// in\n    tag_189:\n      mload(0x40)\n      dup1\n      swap2\n      sub\n      swap1\n      revert\n    tag_188:\n        /* \"contracts/registry/IdentityRegistryStorage.sol\":3531:3552  IIdentity oldIdentity */\n      0x00\n        /* \"contracts/registry/IdentityRegistryStorage.sol\":3555:3565  identities */\n      0x02\n        /* \"contracts/registry/IdentityRegistryStorage.sol\":3555:3579  identities[_userAddress] */\n      0x00\n        /* \"contracts/registry/IdentityRegistryStorage.sol\":3566:3578  _userAddress */\n      dup5\n        /* \"contracts/registry/IdentityRegistryStorage.sol\":3555:3579  identities[_userAddress] */\n      0xffffffffffffffffffffffffffffffffffffffff\n      and\n      0xffffffffffffffffffffffffffffffffffffffff\n      and\n      dup2\n      mstore\n      0x20\n      add\n      swap1\n      dup2\n      mstore\n      0x20\n      add\n      0x00\n      keccak256\n        /* \"contracts/registry/IdentityRegistryStorage.sol\":3555:3596  identities[_userAddress].identityContract */\n      0x00\n      add\n      0x00\n      swap1\n      sload\n      swap1\n      0x0100\n      exp\n      swap1\n      div\n      0xffffffffffffffffffffffffffffffffffffffff\n      and\n        /* \"contracts/registry/IdentityRegistryStorage.sol\":3531:3596  IIdentity oldIdentity = identities[_userAddress].identityContract */\n      swap1\n      pop\n        /* \"contracts/registry/IdentityRegistryStorage.sol\":3650:3659  _identity */\n      dup2\n        /* \"contracts/registry/IdentityRegistryStorage.sol\":3606:3616  identities */\n      0x02\n        /* \"contracts/registry/IdentityRegistryStorage.sol\":3606:3630  identities[_userAddress] */\n      0x00\n        /* \"contracts/registry/IdentityRegistryStorage.sol\":3617:3629  _userAddress */\n      dup6\n        /* \"contracts/registry/IdentityRegistryStorage.sol\":3606:3630  identities[_userAddress] */\n      0xffffffffffffffffffffffffffffffffffffffff\n      and\n      0xffffffffffffffffffffffffffffffffffffffff\n      and\n      dup2\n      mstore\n      0x20\n      add\n      swap1\n      dup2\n      mstore\n      0x20\n      add\n      0x00\n      keccak256\n        /* \"contracts/registry/IdentityRegistryStorage.sol\":3606:3647  identities[_userAddress].identityContract */\n      0x00\n      add\n      0x00\n        /* \"contracts/registry/IdentityRegistryStorage.sol\":3606:3659  identities[_userAddress].identityContract = _identity */\n      0x0100\n      exp\n      dup2\n      sload\n      dup2\n      0xffffffffffffffffffffffffffffffffffffffff\n      mul\n      not\n      and\n      swap1\n      dup4\n      0xffffffffffffffffffffffffffffffffffffffff\n      and\n      mul\n      or\n      swap1\n      sstore\n      pop\n        /* \"contracts/registry/IdentityRegistryStorage.sol\":3704:3713  _identity */\n      dup2\n        /* \"contracts/registry/IdentityRegistryStorage.sol\":3674:3714  IdentityModified(oldIdentity, _identity) */\n      0xffffffffffffffffffffffffffffffffffffffff\n      and\n        /* \"contracts/registry/IdentityRegistryStorage.sol\":3691:3702  oldIdentity */\n      dup2\n        /* \"contracts/registry/IdentityRegistryStorage.sol\":3674:3714  IdentityModified(oldIdentity, _identity) */\n      0xffffffffffffffffffffffffffffffffffffffff\n      and\n      0x556ce885dfcea52155c773f1ed2e58781c51945c13030ab8f793c61f51d1b808\n      mload(0x40)\n      mload(0x40)\n      dup1\n      swap2\n      sub\n      swap1\n      log3\n        /* \"contracts/registry/IdentityRegistryStorage.sol\":3302:3721  {... */\n      pop\n        /* \"contracts/registry/IdentityRegistryStorage.sol\":3201:3721  function modifyStoredIdentity(address _userAddress, IIdentity _identity) external override onlyAgent {... */\n      pop\n      pop\n      jump\t// out\n        /* \"@openzeppelin/contracts/access/Ownable.sol\":1846:2035  function transferOwnership(address newOwner) public virtual onlyOwner {... */\n    tag_80:\n        /* \"@openzeppelin/contracts/access/Ownable.sol\":1196:1208  _msgSender() */\n      tag_191\n        /* \"@openzeppelin/contracts/access/Ownable.sol\":1196:1206  _msgSender */\n      tag_86\n        /* \"@openzeppelin/contracts/access/Ownable.sol\":1196:1208  _msgSender() */\n      jump\t// in\n    tag_191:\n        /* \"@openzeppelin/contracts/access/Ownable.sol\":1185:1208  owner() == _msgSender() */\n      0xffffffffffffffffffffffffffffffffffffffff\n      and\n        /* \"@openzeppelin/contracts/access/Ownable.sol\":1185:1192  owner() */\n      tag_192\n        /* \"@openzeppelin/contracts/access/Ownable.sol\":1185:1190  owner */\n      tag_50\n        /* \"@openzeppelin/contracts/access/Ownable.sol\":1185:1192  owner() */\n      jump\t// in\n    tag_192:\n        /* \"@openzeppelin/contracts/access/Ownable.sol\":1185:1208  owner() == _msgSender() */\n      0xffffffffffffffffffffffffffffffffffffffff\n      and\n      eq\n        /* \"@openzeppelin/contracts/access/Ownable.sol\":1177:1245  require(owner() == _msgSender(), \"Ownable: caller is not the owner\") */\n      tag_193\n      jumpi\n      mload(0x40)\n      0x08c379a000000000000000000000000000000000000000000000000000000000\n      dup2\n      mstore\n      0x04\n      add\n      tag_194\n      swap1\n      tag_90\n      jump\t// in\n    tag_194:\n      mload(0x40)\n      dup1\n      swap2\n      sub\n      swap1\n      revert\n    tag_193:\n        /* \"@openzeppelin/contracts/access/Ownable.sol\":1954:1955  0 */\n      0x00\n        /* \"@openzeppelin/contracts/access/Ownable.sol\":1934:1956  newOwner != address(0) */\n      0xffffffffffffffffffffffffffffffffffffffff\n      and\n        /* \"@openzeppelin/contracts/access/Ownable.sol\":1934:1942  newOwner */\n      dup2\n        /* \"@openzeppelin/contracts/access/Ownable.sol\":1934:1956  newOwner != address(0) */\n      0xffffffffffffffffffffffffffffffffffffffff\n      and\n      eq\n      iszero\n        /* \"@openzeppelin/contracts/access/Ownable.sol\":1926:1999  require(newOwner != address(0), \"Ownable: new owner is the zero address\") */\n      tag_196\n      jumpi\n      mload(0x40)\n      0x08c379a000000000000000000000000000000000000000000000000000000000\n      dup2\n      mstore\n      0x04\n      add\n      tag_197\n      swap1\n      tag_198\n      jump\t// in\n    tag_197:\n      mload(0x40)\n      dup1\n      swap2\n      sub\n      swap1\n      revert\n    tag_196:\n        /* \"@openzeppelin/contracts/access/Ownable.sol\":2009:2028  _setOwner(newOwner) */\n      tag_199\n        /* \"@openzeppelin/contracts/access/Ownable.sol\":2019:2027  newOwner */\n      dup2\n        /* \"@openzeppelin/contracts/access/Ownable.sol\":2009:2018  _setOwner */\n      tag_103\n        /* \"@openzeppelin/contracts/access/Ownable.sol\":2009:2028  _setOwner(newOwner) */\n      jump\t// in\n    tag_199:\n        /* \"@openzeppelin/contracts/access/Ownable.sol\":1846:2035  function transferOwnership(address newOwner) public virtual onlyOwner {... */\n      pop\n      jump\t// out\n        /* \"contracts/roles/Roles.sol\":815:1015  function has(Role storage role, address account) internal view returns (bool) {... */\n    tag_83:\n        /* \"contracts/roles/Roles.sol\":887:891  bool */\n      0x00\n        /* \"contracts/roles/Roles.sol\":930:931  0 */\n      dup1\n        /* \"contracts/roles/Roles.sol\":911:932  account != address(0) */\n      0xffffffffffffffffffffffffffffffffffffffff\n      and\n        /* \"contracts/roles/Roles.sol\":911:918  account */\n      dup3\n        /* \"contracts/roles/Roles.sol\":911:932  account != address(0) */\n      0xffffffffffffffffffffffffffffffffffffffff\n      and\n      eq\n      iszero\n        /* \"contracts/roles/Roles.sol\":903:971  require(account != address(0), 'Roles: account is the zero address') */\n      tag_201\n      jumpi\n      mload(0x40)\n      0x08c379a000000000000000000000000000000000000000000000000000000000\n      dup2\n      mstore\n      0x04\n      add\n      tag_202\n      swap1\n      tag_203\n      jump\t// in\n    tag_202:\n      mload(0x40)\n      dup1\n      swap2\n      sub\n      swap1\n      revert\n    tag_201:\n        /* \"contracts/roles/Roles.sol\":988:992  role */\n      dup3\n        /* \"contracts/roles/Roles.sol\":988:999  role.bearer */\n      0x00\n      add\n        /* \"contracts/roles/Roles.sol\":988:1008  role.bearer[account] */\n      0x00\n        /* \"contracts/roles/Roles.sol\":1000:1007  account */\n      dup4\n        /* \"contracts/roles/Roles.sol\":988:1008  role.bearer[account] */\n      0xffffffffffffffffffffffffffffffffffffffff\n      and\n      0xffffffffffffffffffffffffffffffffffffffff\n      and\n      dup2\n      mstore\n      0x20\n      add\n      swap1\n      dup2\n      mstore\n      0x20\n      add\n      0x00\n      keccak256\n      0x00\n      swap1\n      sload\n      swap1\n      0x0100\n      exp\n      swap1\n      div\n      0xff\n      and\n        /* \"contracts/roles/Roles.sol\":981:1008  return role.bearer[account] */\n      swap1\n      pop\n        /* \"contracts/roles/Roles.sol\":815:1015  function has(Role storage role, address account) internal view returns (bool) {... */\n      swap3\n      swap2\n      pop\n      pop\n      jump\t// out\n        /* \"@openzeppelin/contracts/utils/Context.sol\":586:682  function _msgSender() internal view virtual returns (address) {... */\n    tag_86:\n        /* \"@openzeppelin/contracts/utils/Context.sol\":639:646  address */\n      0x00\n        /* \"@openzeppelin/contracts/utils/Context.sol\":665:675  msg.sender */\n      caller\n        /* \"@openzeppelin/contracts/utils/Context.sol\":658:675  return msg.sender */\n      swap1\n      pop\n        /* \"@openzeppelin/contracts/utils/Context.sol\":586:682  function _msgSender() internal view virtual returns (address) {... */\n      swap1\n      jump\t// out\n        /* \"@openzeppelin/contracts/access/Ownable.sol\":2041:2210  function _setOwner(address newOwner) private {... */\n    tag_103:\n        /* \"@openzeppelin/contracts/access/Ownable.sol\":2096:2112  address oldOwner */\n      0x00\n        /* \"@openzeppelin/contracts/access/Ownable.sol\":2115:2121  _owner */\n      dup1\n      0x00\n      swap1\n      sload\n      swap1\n      0x0100\n      exp\n      swap1\n      div\n      0xffffffffffffffffffffffffffffffffffffffff\n      and\n        /* \"@openzeppelin/contracts/access/Ownable.sol\":2096:2121  address oldOwner = _owner */\n      swap1\n      pop\n        /* \"@openzeppelin/contracts/access/Ownable.sol\":2140:2148  newOwner */\n      dup2\n        /* \"@openzeppelin/contracts/access/Ownable.sol\":2131:2137  _owner */\n      0x00\n      dup1\n        /* \"@openzeppelin/contracts/access/Ownable.sol\":2131:2148  _owner = newOwner */\n      0x0100\n      exp\n      dup2\n      sload\n      dup2\n      0xffffffffffffffffffffffffffffffffffffffff\n      mul\n      not\n      and\n      swap1\n      dup4\n      0xffffffffffffffffffffffffffffffffffffffff\n      and\n      mul\n      or\n      swap1\n      sstore\n      pop\n        /* \"@openzeppelin/contracts/access/Ownable.sol\":2194:2202  newOwner */\n      dup2\n        /* \"@openzeppelin/contracts/access/Ownable.sol\":2163:2203  OwnershipTransferred(oldOwner, newOwner) */\n      0xffffffffffffffffffffffffffffffffffffffff\n      and\n        /* \"@openzeppelin/contracts/access/Ownable.sol\":2184:2192  oldOwner */\n      dup2\n        /* \"@openzeppelin/contracts/access/Ownable.sol\":2163:2203  OwnershipTransferred(oldOwner, newOwner) */\n      0xffffffffffffffffffffffffffffffffffffffff\n      and\n      0x8be0079c531659141344cd1fd0a4f28419497f9722a3daafe3b4186f6b6457e0\n      mload(0x40)\n      mload(0x40)\n      dup1\n      swap2\n      sub\n      swap1\n      log3\n        /* \"@openzeppelin/contracts/access/Ownable.sol\":2086:2210  {... */\n      pop\n        /* \"@openzeppelin/contracts/access/Ownable.sol\":2041:2210  function _setOwner(address newOwner) private {... */\n      pop\n      jump\t// out\n        /* \"contracts/roles/Roles.sol\":296:471  function add(Role storage role, address account) internal {... */\n    tag_113:\n        /* \"contracts/roles/Roles.sol\":373:391  has(role, account) */\n      tag_207\n        /* \"contracts/roles/Roles.sol\":377:381  role */\n      dup3\n        /* \"contracts/roles/Roles.sol\":383:390  account */\n      dup3\n        /* \"contracts/roles/Roles.sol\":373:376  has */\n      tag_83\n        /* \"contracts/roles/Roles.sol\":373:391  has(role, account) */\n      jump\t// in\n    tag_207:\n        /* \"contracts/roles/Roles.sol\":372:391  !has(role, account) */\n      iszero\n        /* \"contracts/roles/Roles.sol\":364:427  require(!has(role, account), 'Roles: account already has role') */\n      tag_208\n      jumpi\n      mload(0x40)\n      0x08c379a000000000000000000000000000000000000000000000000000000000\n      dup2\n      mstore\n      0x04\n      add\n      tag_209\n      swap1\n      tag_210\n      jump\t// in\n    tag_209:\n      mload(0x40)\n      dup1\n      swap2\n      sub\n      swap1\n      revert\n    tag_208:\n        /* \"contracts/roles/Roles.sol\":460:464  true */\n      0x01\n        /* \"contracts/roles/Roles.sol\":437:441  role */\n      dup3\n        /* \"contracts/roles/Roles.sol\":437:448  role.bearer */\n      0x00\n      add\n        /* \"contracts/roles/Roles.sol\":437:457  role.bearer[account] */\n      0x00\n        /* \"contracts/roles/Roles.sol\":449:456  account */\n      dup4\n        /* \"contracts/roles/Roles.sol\":437:457  role.bearer[account] */\n      0xffffffffffffffffffffffffffffffffffffffff\n      and\n      0xffffffffffffffffffffffffffffffffffffffff\n      and\n      dup2\n      mstore\n      0x20\n      add\n      swap1\n      dup2\n      mstore\n      0x20\n      add\n      0x00\n      keccak256\n      0x00\n        /* \"contracts/roles/Roles.sol\":437:464  role.bearer[account] = true */\n      0x0100\n      exp\n      dup2\n      sload\n      dup2\n      0xff\n      mul\n      not\n      and\n      swap1\n      dup4\n      iszero\n      iszero\n      mul\n      or\n      swap1\n      sstore\n      pop\n        /* \"contracts/roles/Roles.sol\":296:471  function add(Role storage role, address account) internal {... */\n      pop\n      pop\n      jump\t// out\n        /* \"contracts/roles/Roles.sol\":546:726  function remove(Role storage role, address account) internal {... */\n    tag_149:\n        /* \"contracts/roles/Roles.sol\":625:643  has(role, account) */\n      tag_212\n        /* \"contracts/roles/Roles.sol\":629:633  role */\n      dup3\n        /* \"contracts/roles/Roles.sol\":635:642  account */\n      dup3\n        /* \"contracts/roles/Roles.sol\":625:628  has */\n      tag_83\n        /* \"contracts/roles/Roles.sol\":625:643  has(role, account) */\n      jump\t// in\n    tag_212:\n        /* \"contracts/roles/Roles.sol\":617:681  require(has(role, account), 'Roles: account does not have role') */\n      tag_213\n      jumpi\n      mload(0x40)\n      0x08c379a000000000000000000000000000000000000000000000000000000000\n      dup2\n      mstore\n      0x04\n      add\n      tag_214\n      swap1\n      tag_215\n      jump\t// in\n    tag_214:\n      mload(0x40)\n      dup1\n      swap2\n      sub\n      swap1\n      revert\n    tag_213:\n        /* \"contracts/roles/Roles.sol\":714:719  false */\n      0x00\n        /* \"contracts/roles/Roles.sol\":691:695  role */\n      dup3\n        /* \"contracts/roles/Roles.sol\":691:702  role.bearer */\n      0x00\n      add\n        /* \"contracts/roles/Roles.sol\":691:711  role.bearer[account] */\n      0x00\n        /* \"contracts/roles/Roles.sol\":703:710  account */\n      dup4\n        /* \"contracts/roles/Roles.sol\":691:711  role.bearer[account] */\n      0xffffffffffffffffffffffffffffffffffffffff\n      and\n      0xffffffffffffffffffffffffffffffffffffffff\n      and\n      dup2\n      mstore\n      0x20\n      add\n      swap1\n      dup2\n      mstore\n      0x20\n      add\n      0x00\n      keccak256\n      0x00\n        /* \"contracts/roles/Roles.sol\":691:719  role.bearer[account] = false */\n      0x0100\n      exp\n      dup2\n      sload\n      dup2\n      0xff\n      mul\n      not\n      and\n      swap1\n      dup4\n      iszero\n      iszero\n      mul\n      or\n      swap1\n      sstore\n      pop\n        /* \"contracts/roles/Roles.sol\":546:726  function remove(Role storage role, address account) internal {... */\n      pop\n      pop\n      jump\t// out\n        /* \"#utility.yul\":7:146   */\n    tag_217:\n        /* \"#utility.yul\":53:58   */\n      0x00\n        /* \"#utility.yul\":91:97   */\n      dup2\n        /* \"#utility.yul\":78:98   */\n      calldataload\n        /* \"#utility.yul\":69:98   */\n      swap1\n      pop\n        /* \"#utility.yul\":107:140   */\n      tag_219\n        /* \"#utility.yul\":134:139   */\n      dup2\n        /* \"#utility.yul\":107:140   */\n      tag_220\n      jump\t// in\n    tag_219:\n        /* \"#utility.yul\":7:146   */\n      swap3\n      swap2\n      pop\n      pop\n      jump\t// out\n        /* \"#utility.yul\":152:325   */\n    tag_221:\n        /* \"#utility.yul\":215:220   */\n      0x00\n        /* \"#utility.yul\":253:259   */\n      dup2\n        /* \"#utility.yul\":240:260   */\n      calldataload\n        /* \"#utility.yul\":231:260   */\n      swap1\n      pop\n        /* \"#utility.yul\":269:319   */\n      tag_223\n        /* \"#utility.yul\":313:318   */\n      dup2\n        /* \"#utility.yul\":269:319   */\n      tag_224\n      jump\t// in\n    tag_223:\n        /* \"#utility.yul\":152:325   */\n      swap3\n      swap2\n      pop\n      pop\n      jump\t// out\n        /* \"#utility.yul\":331:468   */\n    tag_225:\n        /* \"#utility.yul\":376:381   */\n      0x00\n        /* \"#utility.yul\":414:420   */\n      dup2\n        /* \"#utility.yul\":401:421   */\n      calldataload\n        /* \"#utility.yul\":392:421   */\n      swap1\n      pop\n        /* \"#utility.yul\":430:462   */\n      tag_227\n        /* \"#utility.yul\":456:461   */\n      dup2\n        /* \"#utility.yul\":430:462   */\n      tag_228\n      jump\t// in\n    tag_227:\n        /* \"#utility.yul\":331:468   */\n      swap3\n      swap2\n      pop\n      pop\n      jump\t// out\n        /* \"#utility.yul\":474:803   */\n    tag_24:\n        /* \"#utility.yul\":533:539   */\n      0x00\n        /* \"#utility.yul\":582:584   */\n      0x20\n        /* \"#utility.yul\":570:579   */\n      dup3\n        /* \"#utility.yul\":561:568   */\n      dup5\n        /* \"#utility.yul\":557:580   */\n      sub\n        /* \"#utility.yul\":553:585   */\n      slt\n        /* \"#utility.yul\":550:669   */\n      iszero\n      tag_230\n      jumpi\n        /* \"#utility.yul\":588:667   */\n      tag_231\n      tag_232\n      jump\t// in\n    tag_231:\n        /* \"#utility.yul\":550:669   */\n    tag_230:\n        /* \"#utility.yul\":708:709   */\n      0x00\n        /* \"#utility.yul\":733:786   */\n      tag_233\n        /* \"#utility.yul\":778:785   */\n      dup5\n        /* \"#utility.yul\":769:775   */\n      dup3\n        /* \"#utility.yul\":758:767   */\n      dup6\n        /* \"#utility.yul\":754:776   */\n      add\n        /* \"#utility.yul\":733:786   */\n      tag_217\n      jump\t// in\n    tag_233:\n        /* \"#utility.yul\":723:786   */\n      swap2\n      pop\n        /* \"#utility.yul\":679:796   */\n      pop\n        /* \"#utility.yul\":474:803   */\n      swap3\n      swap2\n      pop\n      pop\n      jump\t// out\n        /* \"#utility.yul\":809:1317   */\n    tag_76:\n        /* \"#utility.yul\":894:900   */\n      0x00\n        /* \"#utility.yul\":902:908   */\n      dup1\n        /* \"#utility.yul\":951:953   */\n      0x40\n        /* \"#utility.yul\":939:948   */\n      dup4\n        /* \"#utility.yul\":930:937   */\n      dup6\n        /* \"#utility.yul\":926:949   */\n      sub\n        /* \"#utility.yul\":922:954   */\n      slt\n        /* \"#utility.yul\":919:1038   */\n      iszero\n      tag_235\n      jumpi\n        /* \"#utility.yul\":957:1036   */\n      tag_236\n      tag_232\n      jump\t// in\n    tag_236:\n        /* \"#utility.yul\":919:1038   */\n    tag_235:\n        /* \"#utility.yul\":1077:1078   */\n      0x00\n        /* \"#utility.yul\":1102:1155   */\n      tag_237\n        /* \"#utility.yul\":1147:1154   */\n      dup6\n        /* \"#utility.yul\":1138:1144   */\n      dup3\n        /* \"#utility.yul\":1127:1136   */\n      dup7\n        /* \"#utility.yul\":1123:1145   */\n      add\n        /* \"#utility.yul\":1102:1155   */\n      tag_217\n      jump\t// in\n    tag_237:\n        /* \"#utility.yul\":1092:1155   */\n      swap3\n      pop\n        /* \"#utility.yul\":1048:1165   */\n      pop\n        /* \"#utility.yul\":1204:1206   */\n      0x20\n        /* \"#utility.yul\":1230:1300   */\n      tag_238\n        /* \"#utility.yul\":1292:1299   */\n      dup6\n        /* \"#utility.yul\":1283:1289   */\n      dup3\n        /* \"#utility.yul\":1272:1281   */\n      dup7\n        /* \"#utility.yul\":1268:1290   */\n      add\n        /* \"#utility.yul\":1230:1300   */\n      tag_221\n      jump\t// in\n    tag_238:\n        /* \"#utility.yul\":1220:1300   */\n      swap2\n      pop\n        /* \"#utility.yul\":1175:1310   */\n      pop\n        /* \"#utility.yul\":809:1317   */\n      swap3\n      pop\n      swap3\n      swap1\n      pop\n      jump\t// out\n        /* \"#utility.yul\":1323:1974   */\n    tag_65:\n        /* \"#utility.yul\":1416:1422   */\n      0x00\n        /* \"#utility.yul\":1424:1430   */\n      dup1\n        /* \"#utility.yul\":1432:1438   */\n      0x00\n        /* \"#utility.yul\":1481:1483   */\n      0x60\n        /* \"#utility.yul\":1469:1478   */\n      dup5\n        /* \"#utility.yul\":1460:1467   */\n      dup7\n        /* \"#utility.yul\":1456:1479   */\n      sub\n        /* \"#utility.yul\":1452:1484   */\n      slt\n        /* \"#utility.yul\":1449:1568   */\n      iszero\n      tag_240\n      jumpi\n        /* \"#utility.yul\":1487:1566   */\n      tag_241\n      tag_232\n      jump\t// in\n    tag_241:\n        /* \"#utility.yul\":1449:1568   */\n    tag_240:\n        /* \"#utility.yul\":1607:1608   */\n      0x00\n        /* \"#utility.yul\":1632:1685   */\n      tag_242\n        /* \"#utility.yul\":1677:1684   */\n      dup7\n        /* \"#utility.yul\":1668:1674   */\n      dup3\n        /* \"#utility.yul\":1657:1666   */\n      dup8\n        /* \"#utility.yul\":1653:1675   */\n      add\n        /* \"#utility.yul\":1632:1685   */\n      tag_217\n      jump\t// in\n    tag_242:\n        /* \"#utility.yul\":1622:1685   */\n      swap4\n      pop\n        /* \"#utility.yul\":1578:1695   */\n      pop\n        /* \"#utility.yul\":1734:1736   */\n      0x20\n        /* \"#utility.yul\":1760:1830   */\n      tag_243\n        /* \"#utility.yul\":1822:1829   */\n      dup7\n        /* \"#utility.yul\":1813:1819   */\n      dup3\n        /* \"#utility.yul\":1802:1811   */\n      dup8\n        /* \"#utility.yul\":1798:1820   */\n      add\n        /* \"#utility.yul\":1760:1830   */\n      tag_221\n      jump\t// in\n    tag_243:\n        /* \"#utility.yul\":1750:1830   */\n      swap3\n      pop\n        /* \"#utility.yul\":1705:1840   */\n      pop\n        /* \"#utility.yul\":1879:1881   */\n      0x40\n        /* \"#utility.yul\":1905:1957   */\n      tag_244\n        /* \"#utility.yul\":1949:1956   */\n      dup7\n        /* \"#utility.yul\":1940:1946   */\n      dup3\n        /* \"#utility.yul\":1929:1938   */\n      dup8\n        /* \"#utility.yul\":1925:1947   */\n      add\n        /* \"#utility.yul\":1905:1957   */\n      tag_225\n      jump\t// in\n    tag_244:\n        /* \"#utility.yul\":1895:1957   */\n      swap2\n      pop\n        /* \"#utility.yul\":1850:1967   */\n      pop\n        /* \"#utility.yul\":1323:1974   */\n      swap3\n      pop\n      swap3\n      pop\n      swap3\n      jump\t// out\n        /* \"#utility.yul\":1980:2452   */\n    tag_61:\n        /* \"#utility.yul\":2047:2053   */\n      0x00\n        /* \"#utility.yul\":2055:2061   */\n      dup1\n        /* \"#utility.yul\":2104:2106   */\n      0x40\n        /* \"#utility.yul\":2092:2101   */\n      dup4\n        /* \"#utility.yul\":2083:2090   */\n      dup6\n        /* \"#utility.yul\":2079:2102   */\n      sub\n        /* \"#utility.yul\":2075:2107   */\n      slt\n        /* \"#utility.yul\":2072:2191   */\n      iszero\n      tag_246\n      jumpi\n        /* \"#utility.yul\":2110:2189   */\n      tag_247\n      tag_232\n      jump\t// in\n    tag_247:\n        /* \"#utility.yul\":2072:2191   */\n    tag_246:\n        /* \"#utility.yul\":2230:2231   */\n      0x00\n        /* \"#utility.yul\":2255:2308   */\n      tag_248\n        /* \"#utility.yul\":2300:2307   */\n      dup6\n        /* \"#utility.yul\":2291:2297   */\n      dup3\n        /* \"#utility.yul\":2280:2289   */\n      dup7\n        /* \"#utility.yul\":2276:2298   */\n      add\n        /* \"#utility.yul\":2255:2308   */\n      tag_217\n      jump\t// in\n    tag_248:\n        /* \"#utility.yul\":2245:2308   */\n      swap3\n      pop\n        /* \"#utility.yul\":2201:2318   */\n      pop\n        /* \"#utility.yul\":2357:2359   */\n      0x20\n        /* \"#utility.yul\":2383:2435   */\n      tag_249\n        /* \"#utility.yul\":2427:2434   */\n      dup6\n        /* \"#utility.yul\":2418:2424   */\n      dup3\n        /* \"#utility.yul\":2407:2416   */\n      dup7\n        /* \"#utility.yul\":2403:2425   */\n      add\n        /* \"#utility.yul\":2383:2435   */\n      tag_225\n      jump\t// in\n    tag_249:\n        /* \"#utility.yul\":2373:2435   */\n      swap2\n      pop\n        /* \"#utility.yul\":2328:2445   */\n      pop\n        /* \"#utility.yul\":1980:2452   */\n      swap3\n      pop\n      swap3\n      swap1\n      pop\n      jump\t// out\n        /* \"#utility.yul\":2458:2637   */\n    tag_250:\n        /* \"#utility.yul\":2527:2537   */\n      0x00\n        /* \"#utility.yul\":2548:2594   */\n      tag_252\n        /* \"#utility.yul\":2590:2593   */\n      dup4\n        /* \"#utility.yul\":2582:2588   */\n      dup4\n        /* \"#utility.yul\":2548:2594   */\n      tag_253\n      jump\t// in\n    tag_252:\n        /* \"#utility.yul\":2626:2630   */\n      0x20\n        /* \"#utility.yul\":2621:2624   */\n      dup4\n        /* \"#utility.yul\":2617:2631   */\n      add\n        /* \"#utility.yul\":2603:2631   */\n      swap1\n      pop\n        /* \"#utility.yul\":2458:2637   */\n      swap3\n      swap2\n      pop\n      pop\n      jump\t// out\n        /* \"#utility.yul\":2643:2751   */\n    tag_253:\n        /* \"#utility.yul\":2720:2744   */\n      tag_255\n        /* \"#utility.yul\":2738:2743   */\n      dup2\n        /* \"#utility.yul\":2720:2744   */\n      tag_256\n      jump\t// in\n    tag_255:\n        /* \"#utility.yul\":2715:2718   */\n      dup3\n        /* \"#utility.yul\":2708:2745   */\n      mstore\n        /* \"#utility.yul\":2643:2751   */\n      pop\n      pop\n      jump\t// out\n        /* \"#utility.yul\":2757:2875   */\n    tag_257:\n        /* \"#utility.yul\":2844:2868   */\n      tag_259\n        /* \"#utility.yul\":2862:2867   */\n      dup2\n        /* \"#utility.yul\":2844:2868   */\n      tag_256\n      jump\t// in\n    tag_259:\n        /* \"#utility.yul\":2839:2842   */\n      dup3\n        /* \"#utility.yul\":2832:2869   */\n      mstore\n        /* \"#utility.yul\":2757:2875   */\n      pop\n      pop\n      jump\t// out\n        /* \"#utility.yul\":2911:3643   */\n    tag_260:\n        /* \"#utility.yul\":3030:3033   */\n      0x00\n        /* \"#utility.yul\":3059:3113   */\n      tag_262\n        /* \"#utility.yul\":3107:3112   */\n      dup3\n        /* \"#utility.yul\":3059:3113   */\n      tag_263\n      jump\t// in\n    tag_262:\n        /* \"#utility.yul\":3129:3215   */\n      tag_264\n        /* \"#utility.yul\":3208:3214   */\n      dup2\n        /* \"#utility.yul\":3203:3206   */\n      dup6\n        /* \"#utility.yul\":3129:3215   */\n      tag_265\n      jump\t// in\n    tag_264:\n        /* \"#utility.yul\":3122:3215   */\n      swap4\n      pop\n        /* \"#utility.yul\":3239:3295   */\n      tag_266\n        /* \"#utility.yul\":3289:3294   */\n      dup4\n        /* \"#utility.yul\":3239:3295   */\n      tag_267\n      jump\t// in\n    tag_266:\n        /* \"#utility.yul\":3318:3325   */\n      dup1\n        /* \"#utility.yul\":3349:3350   */\n      0x00\n        /* \"#utility.yul\":3334:3618   */\n    tag_268:\n        /* \"#utility.yul\":3359:3365   */\n      dup4\n        /* \"#utility.yul\":3356:3357   */\n      dup2\n        /* \"#utility.yul\":3353:3366   */\n      lt\n        /* \"#utility.yul\":3334:3618   */\n      iszero\n      tag_270\n      jumpi\n        /* \"#utility.yul\":3435:3441   */\n      dup2\n        /* \"#utility.yul\":3429:3442   */\n      mload\n        /* \"#utility.yul\":3462:3525   */\n      tag_271\n        /* \"#utility.yul\":3521:3524   */\n      dup9\n        /* \"#utility.yul\":3506:3519   */\n      dup3\n        /* \"#utility.yul\":3462:3525   */\n      tag_250\n      jump\t// in\n    tag_271:\n        /* \"#utility.yul\":3455:3525   */\n      swap8\n      pop\n        /* \"#utility.yul\":3548:3608   */\n      tag_272\n        /* \"#utility.yul\":3601:3607   */\n      dup4\n        /* \"#utility.yul\":3548:3608   */\n      tag_273\n      jump\t// in\n    tag_272:\n        /* \"#utility.yul\":3538:3608   */\n      swap3\n      pop\n        /* \"#utility.yul\":3394:3618   */\n      pop\n        /* \"#utility.yul\":3381:3382   */\n      0x01\n        /* \"#utility.yul\":3378:3379   */\n      dup2\n        /* \"#utility.yul\":3374:3383   */\n      add\n        /* \"#utility.yul\":3369:3383   */\n      swap1\n      pop\n        /* \"#utility.yul\":3334:3618   */\n      jump(tag_268)\n    tag_270:\n        /* \"#utility.yul\":3338:3352   */\n      pop\n        /* \"#utility.yul\":3634:3637   */\n      dup6\n        /* \"#utility.yul\":3627:3637   */\n      swap4\n      pop\n        /* \"#utility.yul\":3035:3643   */\n      pop\n      pop\n      pop\n        /* \"#utility.yul\":2911:3643   */\n      swap3\n      swap2\n      pop\n      pop\n      jump\t// out\n        /* \"#utility.yul\":3649:3758   */\n    tag_274:\n        /* \"#utility.yul\":3730:3751   */\n      tag_276\n        /* \"#utility.yul\":3745:3750   */\n      dup2\n        /* \"#utility.yul\":3730:3751   */\n      tag_277\n      jump\t// in\n    tag_276:\n        /* \"#utility.yul\":3725:3728   */\n      dup3\n        /* \"#utility.yul\":3718:3752   */\n      mstore\n        /* \"#utility.yul\":3649:3758   */\n      pop\n      pop\n      jump\t// out\n        /* \"#utility.yul\":3764:3929   */\n    tag_278:\n        /* \"#utility.yul\":3868:3922   */\n      tag_280\n        /* \"#utility.yul\":3916:3921   */\n      dup2\n        /* \"#utility.yul\":3868:3922   */\n      tag_281\n      jump\t// in\n    tag_280:\n        /* \"#utility.yul\":3863:3866   */\n      dup3\n        /* \"#utility.yul\":3856:3923   */\n      mstore\n        /* \"#utility.yul\":3764:3929   */\n      pop\n      pop\n      jump\t// out\n        /* \"#utility.yul\":3935:4301   */\n    tag_282:\n        /* \"#utility.yul\":4077:4080   */\n      0x00\n        /* \"#utility.yul\":4098:4165   */\n      tag_284\n        /* \"#utility.yul\":4162:4164   */\n      0x1f\n        /* \"#utility.yul\":4157:4160   */\n      dup4\n        /* \"#utility.yul\":4098:4165   */\n      tag_285\n      jump\t// in\n    tag_284:\n        /* \"#utility.yul\":4091:4165   */\n      swap2\n      pop\n        /* \"#utility.yul\":4174:4267   */\n      tag_286\n        /* \"#utility.yul\":4263:4266   */\n      dup3\n        /* \"#utility.yul\":4174:4267   */\n      tag_287\n      jump\t// in\n    tag_286:\n        /* \"#utility.yul\":4292:4294   */\n      0x20\n        /* \"#utility.yul\":4287:4290   */\n      dup3\n        /* \"#utility.yul\":4283:4295   */\n      add\n        /* \"#utility.yul\":4276:4295   */\n      swap1\n      pop\n        /* \"#utility.yul\":3935:4301   */\n      swap2\n      swap1\n      pop\n      jump\t// out\n        /* \"#utility.yul\":4307:4673   */\n    tag_288:\n        /* \"#utility.yul\":4449:4452   */\n      0x00\n        /* \"#utility.yul\":4470:4537   */\n      tag_290\n        /* \"#utility.yul\":4534:4536   */\n      0x26\n        /* \"#utility.yul\":4529:4532   */\n      dup4\n        /* \"#utility.yul\":4470:4537   */\n      tag_285\n      jump\t// in\n    tag_290:\n        /* \"#utility.yul\":4463:4537   */\n      swap2\n      pop\n        /* \"#utility.yul\":4546:4639   */\n      tag_291\n        /* \"#utility.yul\":4635:4638   */\n      dup3\n        /* \"#utility.yul\":4546:4639   */\n      tag_292\n      jump\t// in\n    tag_291:\n        /* \"#utility.yul\":4664:4666   */\n      0x40\n        /* \"#utility.yul\":4659:4662   */\n      dup3\n        /* \"#utility.yul\":4655:4667   */\n      add\n        /* \"#utility.yul\":4648:4667   */\n      swap1\n      pop\n        /* \"#utility.yul\":4307:4673   */\n      swap2\n      swap1\n      pop\n      jump\t// out\n        /* \"#utility.yul\":4679:5045   */\n    tag_293:\n        /* \"#utility.yul\":4821:4824   */\n      0x00\n        /* \"#utility.yul\":4842:4909   */\n      tag_295\n        /* \"#utility.yul\":4906:4908   */\n      0x26\n        /* \"#utility.yul\":4901:4904   */\n      dup4\n        /* \"#utility.yul\":4842:4909   */\n      tag_285\n      jump\t// in\n    tag_295:\n        /* \"#utility.yul\":4835:4909   */\n      swap2\n      pop\n        /* \"#utility.yul\":4918:5011   */\n      tag_296\n        /* \"#utility.yul\":5007:5010   */\n      dup3\n        /* \"#utility.yul\":4918:5011   */\n      tag_297\n      jump\t// in\n    tag_296:\n        /* \"#utility.yul\":5036:5038   */\n      0x40\n        /* \"#utility.yul\":5031:5034   */\n      dup3\n        /* \"#utility.yul\":5027:5039   */\n      add\n        /* \"#utility.yul\":5020:5039   */\n      swap1\n      pop\n        /* \"#utility.yul\":4679:5045   */\n      swap2\n      swap1\n      pop\n      jump\t// out\n        /* \"#utility.yul\":5051:5417   */\n    tag_298:\n        /* \"#utility.yul\":5193:5196   */\n      0x00\n        /* \"#utility.yul\":5214:5281   */\n      tag_300\n        /* \"#utility.yul\":5278:5280   */\n      0x28\n        /* \"#utility.yul\":5273:5276   */\n      dup4\n        /* \"#utility.yul\":5214:5281   */\n      tag_285\n      jump\t// in\n    tag_300:\n        /* \"#utility.yul\":5207:5281   */\n      swap2\n      pop\n        /* \"#utility.yul\":5290:5383   */\n      tag_301\n        /* \"#utility.yul\":5379:5382   */\n      dup3\n        /* \"#utility.yul\":5290:5383   */\n      tag_302\n      jump\t// in\n    tag_301:\n        /* \"#utility.yul\":5408:5410   */\n      0x40\n        /* \"#utility.yul\":5403:5406   */\n      dup3\n        /* \"#utility.yul\":5399:5411   */\n      add\n        /* \"#utility.yul\":5392:5411   */\n      swap1\n      pop\n        /* \"#utility.yul\":5051:5417   */\n      swap2\n      swap1\n      pop\n      jump\t// out\n        /* \"#utility.yul\":5423:5789   */\n    tag_303:\n        /* \"#utility.yul\":5565:5568   */\n      0x00\n        /* \"#utility.yul\":5586:5653   */\n      tag_305\n        /* \"#utility.yul\":5650:5652   */\n      0x24\n        /* \"#utility.yul\":5645:5648   */\n      dup4\n        /* \"#utility.yul\":5586:5653   */\n      tag_285\n      jump\t// in\n    tag_305:\n        /* \"#utility.yul\":5579:5653   */\n      swap2\n      pop\n        /* \"#utility.yul\":5662:5755   */\n      tag_306\n        /* \"#utility.yul\":5751:5754   */\n      dup3\n        /* \"#utility.yul\":5662:5755   */\n      tag_307\n      jump\t// in\n    tag_306:\n        /* \"#utility.yul\":5780:5782   */\n      0x40\n        /* \"#utility.yul\":5775:5778   */\n      dup3\n        /* \"#utility.yul\":5771:5783   */\n      add\n        /* \"#utility.yul\":5764:5783   */\n      swap1\n      pop\n        /* \"#utility.yul\":5423:5789   */\n      swap2\n      swap1\n      pop\n      jump\t// out\n        /* \"#utility.yul\":5795:6161   */\n    tag_308:\n        /* \"#utility.yul\":5937:5940   */\n      0x00\n        /* \"#utility.yul\":5958:6025   */\n      tag_310\n        /* \"#utility.yul\":6022:6024   */\n      0x2e\n        /* \"#utility.yul\":6017:6020   */\n      dup4\n        /* \"#utility.yul\":5958:6025   */\n      tag_285\n      jump\t// in\n    tag_310:\n        /* \"#utility.yul\":5951:6025   */\n      swap2\n      pop\n        /* \"#utility.yul\":6034:6127   */\n      tag_311\n        /* \"#utility.yul\":6123:6126   */\n      dup3\n        /* \"#utility.yul\":6034:6127   */\n      tag_312\n      jump\t// in\n    tag_311:\n        /* \"#utility.yul\":6152:6154   */\n      0x40\n        /* \"#utility.yul\":6147:6150   */\n      dup3\n        /* \"#utility.yul\":6143:6155   */\n      add\n        /* \"#utility.yul\":6136:6155   */\n      swap1\n      pop\n        /* \"#utility.yul\":5795:6161   */\n      swap2\n      swap1\n      pop\n      jump\t// out\n        /* \"#utility.yul\":6167:6533   */\n    tag_313:\n        /* \"#utility.yul\":6309:6312   */\n      0x00\n        /* \"#utility.yul\":6330:6397   */\n      tag_315\n        /* \"#utility.yul\":6394:6396   */\n      0x21\n        /* \"#utility.yul\":6389:6392   */\n      dup4\n        /* \"#utility.yul\":6330:6397   */\n      tag_285\n      jump\t// in\n    tag_315:\n        /* \"#utility.yul\":6323:6397   */\n      swap2\n      pop\n        /* \"#utility.yul\":6406:6499   */\n      tag_316\n        /* \"#utility.yul\":6495:6498   */\n      dup3\n        /* \"#utility.yul\":6406:6499   */\n      tag_317\n      jump\t// in\n    tag_316:\n        /* \"#utility.yul\":6524:6526   */\n      0x40\n        /* \"#utility.yul\":6519:6522   */\n      dup3\n        /* \"#utility.yul\":6515:6527   */\n      add\n        /* \"#utility.yul\":6508:6527   */\n      swap1\n      pop\n        /* \"#utility.yul\":6167:6533   */\n      swap2\n      swap1\n      pop\n      jump\t// out\n        /* \"#utility.yul\":6539:6905   */\n    tag_318:\n        /* \"#utility.yul\":6681:6684   */\n      0x00\n        /* \"#utility.yul\":6702:6769   */\n      tag_320\n        /* \"#utility.yul\":6766:6768   */\n      0x20\n        /* \"#utility.yul\":6761:6764   */\n      dup4\n        /* \"#utility.yul\":6702:6769   */\n      tag_285\n      jump\t// in\n    tag_320:\n        /* \"#utility.yul\":6695:6769   */\n      swap2\n      pop\n        /* \"#utility.yul\":6778:6871   */\n      tag_321\n        /* \"#utility.yul\":6867:6870   */\n      dup3\n        /* \"#utility.yul\":6778:6871   */\n      tag_322\n      jump\t// in\n    tag_321:\n        /* \"#utility.yul\":6896:6898   */\n      0x20\n        /* \"#utility.yul\":6891:6894   */\n      dup3\n        /* \"#utility.yul\":6887:6899   */\n      add\n        /* \"#utility.yul\":6880:6899   */\n      swap1\n      pop\n        /* \"#utility.yul\":6539:6905   */\n      swap2\n      swap1\n      pop\n      jump\t// out\n        /* \"#utility.yul\":6911:7277   */\n    tag_323:\n        /* \"#utility.yul\":7053:7056   */\n      0x00\n        /* \"#utility.yul\":7074:7141   */\n      tag_325\n        /* \"#utility.yul\":7138:7140   */\n      0x22\n        /* \"#utility.yul\":7133:7136   */\n      dup4\n        /* \"#utility.yul\":7074:7141   */\n      tag_285\n      jump\t// in\n    tag_325:\n        /* \"#utility.yul\":7067:7141   */\n      swap2\n      pop\n        /* \"#utility.yul\":7150:7243   */\n      tag_326\n        /* \"#utility.yul\":7239:7242   */\n      dup3\n        /* \"#utility.yul\":7150:7243   */\n      tag_327\n      jump\t// in\n    tag_326:\n        /* \"#utility.yul\":7268:7270   */\n      0x40\n        /* \"#utility.yul\":7263:7266   */\n      dup3\n        /* \"#utility.yul\":7259:7271   */\n      add\n        /* \"#utility.yul\":7252:7271   */\n      swap1\n      pop\n        /* \"#utility.yul\":6911:7277   */\n      swap2\n      swap1\n      pop\n      jump\t// out\n        /* \"#utility.yul\":7283:7649   */\n    tag_328:\n        /* \"#utility.yul\":7425:7428   */\n      0x00\n        /* \"#utility.yul\":7446:7513   */\n      tag_330\n        /* \"#utility.yul\":7510:7512   */\n      0x1f\n        /* \"#utility.yul\":7505:7508   */\n      dup4\n        /* \"#utility.yul\":7446:7513   */\n      tag_285\n      jump\t// in\n    tag_330:\n        /* \"#utility.yul\":7439:7513   */\n      swap2\n      pop\n        /* \"#utility.yul\":7522:7615   */\n      tag_331\n        /* \"#utility.yul\":7611:7614   */\n      dup3\n        /* \"#utility.yul\":7522:7615   */\n      tag_332\n      jump\t// in\n    tag_331:\n        /* \"#utility.yul\":7640:7642   */\n      0x20\n        /* \"#utility.yul\":7635:7638   */\n      dup3\n        /* \"#utility.yul\":7631:7643   */\n      add\n        /* \"#utility.yul\":7624:7643   */\n      swap1\n      pop\n        /* \"#utility.yul\":7283:7649   */\n      swap2\n      swap1\n      pop\n      jump\t// out\n        /* \"#utility.yul\":7655:8021   */\n    tag_333:\n        /* \"#utility.yul\":7797:7800   */\n      0x00\n        /* \"#utility.yul\":7818:7885   */\n      tag_335\n        /* \"#utility.yul\":7882:7884   */\n      0x33\n        /* \"#utility.yul\":7877:7880   */\n      dup4\n        /* \"#utility.yul\":7818:7885   */\n      tag_285\n      jump\t// in\n    tag_335:\n        /* \"#utility.yul\":7811:7885   */\n      swap2\n      pop\n        /* \"#utility.yul\":7894:7987   */\n      tag_336\n        /* \"#utility.yul\":7983:7986   */\n      dup3\n        /* \"#utility.yul\":7894:7987   */\n      tag_337\n      jump\t// in\n    tag_336:\n        /* \"#utility.yul\":8012:8014   */\n      0x40\n        /* \"#utility.yul\":8007:8010   */\n      dup3\n        /* \"#utility.yul\":8003:8015   */\n      add\n        /* \"#utility.yul\":7996:8015   */\n      swap1\n      pop\n        /* \"#utility.yul\":7655:8021   */\n      swap2\n      swap1\n      pop\n      jump\t// out\n        /* \"#utility.yul\":8027:8142   */\n    tag_338:\n        /* \"#utility.yul\":8112:8135   */\n      tag_340\n        /* \"#utility.yul\":8129:8134   */\n      dup2\n        /* \"#utility.yul\":8112:8135   */\n      tag_341\n      jump\t// in\n    tag_340:\n        /* \"#utility.yul\":8107:8110   */\n      dup3\n        /* \"#utility.yul\":8100:8136   */\n      mstore\n        /* \"#utility.yul\":8027:8142   */\n      pop\n      pop\n      jump\t// out\n        /* \"#utility.yul\":8148:8370   */\n    tag_52:\n        /* \"#utility.yul\":8241:8245   */\n      0x00\n        /* \"#utility.yul\":8279:8281   */\n      0x20\n        /* \"#utility.yul\":8268:8277   */\n      dup3\n        /* \"#utility.yul\":8264:8282   */\n      add\n        /* \"#utility.yul\":8256:8282   */\n      swap1\n      pop\n        /* \"#utility.yul\":8292:8363   */\n      tag_343\n        /* \"#utility.yul\":8360:8361   */\n      0x00\n        /* \"#utility.yul\":8349:8358   */\n      dup4\n        /* \"#utility.yul\":8345:8362   */\n      add\n        /* \"#utility.yul\":8336:8342   */\n      dup5\n        /* \"#utility.yul\":8292:8363   */\n      tag_257\n      jump\t// in\n    tag_343:\n        /* \"#utility.yul\":8148:8370   */\n      swap3\n      swap2\n      pop\n      pop\n      jump\t// out\n        /* \"#utility.yul\":8376:8749   */\n    tag_70:\n        /* \"#utility.yul\":8519:8523   */\n      0x00\n        /* \"#utility.yul\":8557:8559   */\n      0x20\n        /* \"#utility.yul\":8546:8555   */\n      dup3\n        /* \"#utility.yul\":8542:8560   */\n      add\n        /* \"#utility.yul\":8534:8560   */\n      swap1\n      pop\n        /* \"#utility.yul\":8606:8615   */\n      dup2\n        /* \"#utility.yul\":8600:8604   */\n      dup2\n        /* \"#utility.yul\":8596:8616   */\n      sub\n        /* \"#utility.yul\":8592:8593   */\n      0x00\n        /* \"#utility.yul\":8581:8590   */\n      dup4\n        /* \"#utility.yul\":8577:8594   */\n      add\n        /* \"#utility.yul\":8570:8617   */\n      mstore\n        /* \"#utility.yul\":8634:8742   */\n      tag_345\n        /* \"#utility.yul\":8737:8741   */\n      dup2\n        /* \"#utility.yul\":8728:8734   */\n      dup5\n        /* \"#utility.yul\":8634:8742   */\n      tag_260\n      jump\t// in\n    tag_345:\n        /* \"#utility.yul\":8626:8742   */\n      swap1\n      pop\n        /* \"#utility.yul\":8376:8749   */\n      swap3\n      swap2\n      pop\n      pop\n      jump\t// out\n        /* \"#utility.yul\":8755:8965   */\n    tag_27:\n        /* \"#utility.yul\":8842:8846   */\n      0x00\n        /* \"#utility.yul\":8880:8882   */\n      0x20\n        /* \"#utility.yul\":8869:8878   */\n      dup3\n        /* \"#utility.yul\":8865:8883   */\n      add\n        /* \"#utility.yul\":8857:8883   */\n      swap1\n      pop\n        /* \"#utility.yul\":8893:8958   */\n      tag_347\n        /* \"#utility.yul\":8955:8956   */\n      0x00\n        /* \"#utility.yul\":8944:8953   */\n      dup4\n        /* \"#utility.yul\":8940:8957   */\n      add\n        /* \"#utility.yul\":8931:8937   */\n      dup5\n        /* \"#utility.yul\":8893:8958   */\n      tag_274\n      jump\t// in\n    tag_347:\n        /* \"#utility.yul\":8755:8965   */\n      swap3\n      swap2\n      pop\n      pop\n      jump\t// out\n        /* \"#utility.yul\":8971:9227   */\n    tag_45:\n        /* \"#utility.yul\":9081:9085   */\n      0x00\n        /* \"#utility.yul\":9119:9121   */\n      0x20\n        /* \"#utility.yul\":9108:9117   */\n      dup3\n        /* \"#utility.yul\":9104:9122   */\n      add\n        /* \"#utility.yul\":9096:9122   */\n      swap1\n      pop\n        /* \"#utility.yul\":9132:9220   */\n      tag_349\n        /* \"#utility.yul\":9217:9218   */\n      0x00\n        /* \"#utility.yul\":9206:9215   */\n      dup4\n        /* \"#utility.yul\":9202:9219   */\n      add\n        /* \"#utility.yul\":9193:9199   */\n      dup5\n        /* \"#utility.yul\":9132:9220   */\n      tag_278\n      jump\t// in\n    tag_349:\n        /* \"#utility.yul\":8971:9227   */\n      swap3\n      swap2\n      pop\n      pop\n      jump\t// out\n        /* \"#utility.yul\":9233:9652   */\n    tag_210:\n        /* \"#utility.yul\":9399:9403   */\n      0x00\n        /* \"#utility.yul\":9437:9439   */\n      0x20\n        /* \"#utility.yul\":9426:9435   */\n      dup3\n        /* \"#utility.yul\":9422:9440   */\n      add\n        /* \"#utility.yul\":9414:9440   */\n      swap1\n      pop\n        /* \"#utility.yul\":9486:9495   */\n      dup2\n        /* \"#utility.yul\":9480:9484   */\n      dup2\n        /* \"#utility.yul\":9476:9496   */\n      sub\n        /* \"#utility.yul\":9472:9473   */\n      0x00\n        /* \"#utility.yul\":9461:9470   */\n      dup4\n        /* \"#utility.yul\":9457:9474   */\n      add\n        /* \"#utility.yul\":9450:9497   */\n      mstore\n        /* \"#utility.yul\":9514:9645   */\n      tag_351\n        /* \"#utility.yul\":9640:9644   */\n      dup2\n        /* \"#utility.yul\":9514:9645   */\n      tag_282\n      jump\t// in\n    tag_351:\n        /* \"#utility.yul\":9506:9645   */\n      swap1\n      pop\n        /* \"#utility.yul\":9233:9652   */\n      swap2\n      swap1\n      pop\n      jump\t// out\n        /* \"#utility.yul\":9658:10077   */\n    tag_198:\n        /* \"#utility.yul\":9824:9828   */\n      0x00\n        /* \"#utility.yul\":9862:9864   */\n      0x20\n        /* \"#utility.yul\":9851:9860   */\n      dup3\n        /* \"#utility.yul\":9847:9865   */\n      add\n        /* \"#utility.yul\":9839:9865   */\n      swap1\n      pop\n        /* \"#utility.yul\":9911:9920   */\n      dup2\n        /* \"#utility.yul\":9905:9909   */\n      dup2\n        /* \"#utility.yul\":9901:9921   */\n      sub\n        /* \"#utility.yul\":9897:9898   */\n      0x00\n        /* \"#utility.yul\":9886:9895   */\n      dup4\n        /* \"#utility.yul\":9882:9899   */\n      add\n        /* \"#utility.yul\":9875:9922   */\n      mstore\n        /* \"#utility.yul\":9939:10070   */\n      tag_353\n        /* \"#utility.yul\":10065:10069   */\n      dup2\n        /* \"#utility.yul\":9939:10070   */\n      tag_288\n      jump\t// in\n    tag_353:\n        /* \"#utility.yul\":9931:10070   */\n      swap1\n      pop\n        /* \"#utility.yul\":9658:10077   */\n      swap2\n      swap1\n      pop\n      jump\t// out\n        /* \"#utility.yul\":10083:10502   */\n    tag_180:\n        /* \"#utility.yul\":10249:10253   */\n      0x00\n        /* \"#utility.yul\":10287:10289   */\n      0x20\n        /* \"#utility.yul\":10276:10285   */\n      dup3\n        /* \"#utility.yul\":10272:10290   */\n      add\n        /* \"#utility.yul\":10264:10290   */\n      swap1\n      pop\n        /* \"#utility.yul\":10336:10345   */\n      dup2\n        /* \"#utility.yul\":10330:10334   */\n      dup2\n        /* \"#utility.yul\":10326:10346   */\n      sub\n        /* \"#utility.yul\":10322:10323   */\n      0x00\n        /* \"#utility.yul\":10311:10320   */\n      dup4\n        /* \"#utility.yul\":10307:10324   */\n      add\n        /* \"#utility.yul\":10300:10347   */\n      mstore\n        /* \"#utility.yul\":10364:10495   */\n      tag_355\n        /* \"#utility.yul\":10490:10494   */\n      dup2\n        /* \"#utility.yul\":10364:10495   */\n      tag_293\n      jump\t// in\n    tag_355:\n        /* \"#utility.yul\":10356:10495   */\n      swap1\n      pop\n        /* \"#utility.yul\":10083:10502   */\n      swap2\n      swap1\n      pop\n      jump\t// out\n        /* \"#utility.yul\":10508:10927   */\n    tag_166:\n        /* \"#utility.yul\":10674:10678   */\n      0x00\n        /* \"#utility.yul\":10712:10714   */\n      0x20\n        /* \"#utility.yul\":10701:10710   */\n      dup3\n        /* \"#utility.yul\":10697:10715   */\n      add\n        /* \"#utility.yul\":10689:10715   */\n      swap1\n      pop\n        /* \"#utility.yul\":10761:10770   */\n      dup2\n        /* \"#utility.yul\":10755:10759   */\n      dup2\n        /* \"#utility.yul\":10751:10771   */\n      sub\n        /* \"#utility.yul\":10747:10748   */\n      0x00\n        /* \"#utility.yul\":10736:10745   */\n      dup4\n        /* \"#utility.yul\":10732:10749   */\n      add\n        /* \"#utility.yul\":10725:10772   */\n      mstore\n        /* \"#utility.yul\":10789:10920   */\n      tag_357\n        /* \"#utility.yul\":10915:10919   */\n      dup2\n        /* \"#utility.yul\":10789:10920   */\n      tag_298\n      jump\t// in\n    tag_357:\n        /* \"#utility.yul\":10781:10920   */\n      swap1\n      pop\n        /* \"#utility.yul\":10508:10927   */\n      swap2\n      swap1\n      pop\n      jump\t// out\n        /* \"#utility.yul\":10933:11352   */\n    tag_158:\n        /* \"#utility.yul\":11099:11103   */\n      0x00\n        /* \"#utility.yul\":11137:11139   */\n      0x20\n        /* \"#utility.yul\":11126:11135   */\n      dup3\n        /* \"#utility.yul\":11122:11140   */\n      add\n        /* \"#utility.yul\":11114:11140   */\n      swap1\n      pop\n        /* \"#utility.yul\":11186:11195   */\n      dup2\n        /* \"#utility.yul\":11180:11184   */\n      dup2\n        /* \"#utility.yul\":11176:11196   */\n      sub\n        /* \"#utility.yul\":11172:11173   */\n      0x00\n        /* \"#utility.yul\":11161:11170   */\n      dup4\n        /* \"#utility.yul\":11157:11174   */\n      add\n        /* \"#utility.yul\":11150:11197   */\n      mstore\n        /* \"#utility.yul\":11214:11345   */\n      tag_359\n        /* \"#utility.yul\":11340:11344   */\n      dup2\n        /* \"#utility.yul\":11214:11345   */\n      tag_303\n      jump\t// in\n    tag_359:\n        /* \"#utility.yul\":11206:11345   */\n      swap1\n      pop\n        /* \"#utility.yul\":10933:11352   */\n      swap2\n      swap1\n      pop\n      jump\t// out\n        /* \"#utility.yul\":11358:11777   */\n    tag_154:\n        /* \"#utility.yul\":11524:11528   */\n      0x00\n        /* \"#utility.yul\":11562:11564   */\n      0x20\n        /* \"#utility.yul\":11551:11560   */\n      dup3\n        /* \"#utility.yul\":11547:11565   */\n      add\n        /* \"#utility.yul\":11539:11565   */\n      swap1\n      pop\n        /* \"#utility.yul\":11611:11620   */\n      dup2\n        /* \"#utility.yul\":11605:11609   */\n      dup2\n        /* \"#utility.yul\":11601:11621   */\n      sub\n        /* \"#utility.yul\":11597:11598   */\n      0x00\n        /* \"#utility.yul\":11586:11595   */\n      dup4\n        /* \"#utility.yul\":11582:11599   */\n      add\n        /* \"#utility.yul\":11575:11622   */\n      mstore\n        /* \"#utility.yul\":11639:11770   */\n      tag_361\n        /* \"#utility.yul\":11765:11769   */\n      dup2\n        /* \"#utility.yul\":11639:11770   */\n      tag_308\n      jump\t// in\n    tag_361:\n        /* \"#utility.yul\":11631:11770   */\n      swap1\n      pop\n        /* \"#utility.yul\":11358:11777   */\n      swap2\n      swap1\n      pop\n      jump\t// out\n        /* \"#utility.yul\":11783:12202   */\n    tag_215:\n        /* \"#utility.yul\":11949:11953   */\n      0x00\n        /* \"#utility.yul\":11987:11989   */\n      0x20\n        /* \"#utility.yul\":11976:11985   */\n      dup3\n        /* \"#utility.yul\":11972:11990   */\n      add\n        /* \"#utility.yul\":11964:11990   */\n      swap1\n      pop\n        /* \"#utility.yul\":12036:12045   */\n      dup2\n        /* \"#utility.yul\":12030:12034   */\n      dup2\n        /* \"#utility.yul\":12026:12046   */\n      sub\n        /* \"#utility.yul\":12022:12023   */\n      0x00\n        /* \"#utility.yul\":12011:12020   */\n      dup4\n        /* \"#utility.yul\":12007:12024   */\n      add\n        /* \"#utility.yul\":12000:12047   */\n      mstore\n        /* \"#utility.yul\":12064:12195   */\n      tag_363\n        /* \"#utility.yul\":12190:12194   */\n      dup2\n        /* \"#utility.yul\":12064:12195   */\n      tag_313\n      jump\t// in\n    tag_363:\n        /* \"#utility.yul\":12056:12195   */\n      swap1\n      pop\n        /* \"#utility.yul\":11783:12202   */\n      swap2\n      swap1\n      pop\n      jump\t// out\n        /* \"#utility.yul\":12208:12627   */\n    tag_90:\n        /* \"#utility.yul\":12374:12378   */\n      0x00\n        /* \"#utility.yul\":12412:12414   */\n      0x20\n        /* \"#utility.yul\":12401:12410   */\n      dup3\n        /* \"#utility.yul\":12397:12415   */\n      add\n        /* \"#utility.yul\":12389:12415   */\n      swap1\n      pop\n        /* \"#utility.yul\":12461:12470   */\n      dup2\n        /* \"#utility.yul\":12455:12459   */\n      dup2\n        /* \"#utility.yul\":12451:12471   */\n      sub\n        /* \"#utility.yul\":12447:12448   */\n      0x00\n        /* \"#utility.yul\":12436:12445   */\n      dup4\n        /* \"#utility.yul\":12432:12449   */\n      add\n        /* \"#utility.yul\":12425:12472   */\n      mstore\n        /* \"#utility.yul\":12489:12620   */\n      tag_365\n        /* \"#utility.yul\":12615:12619   */\n      dup2\n        /* \"#utility.yul\":12489:12620   */\n      tag_318\n      jump\t// in\n    tag_365:\n        /* \"#utility.yul\":12481:12620   */\n      swap1\n      pop\n        /* \"#utility.yul\":12208:12627   */\n      swap2\n      swap1\n      pop\n      jump\t// out\n        /* \"#utility.yul\":12633:13052   */\n    tag_203:\n        /* \"#utility.yul\":12799:12803   */\n      0x00\n        /* \"#utility.yul\":12837:12839   */\n      0x20\n        /* \"#utility.yul\":12826:12835   */\n      dup3\n        /* \"#utility.yul\":12822:12840   */\n      add\n        /* \"#utility.yul\":12814:12840   */\n      swap1\n      pop\n        /* \"#utility.yul\":12886:12895   */\n      dup2\n        /* \"#utility.yul\":12880:12884   */\n      dup2\n        /* \"#utility.yul\":12876:12896   */\n      sub\n        /* \"#utility.yul\":12872:12873   */\n      0x00\n        /* \"#utility.yul\":12861:12870   */\n      dup4\n        /* \"#utility.yul\":12857:12874   */\n      add\n        /* \"#utility.yul\":12850:12897   */\n      mstore\n        /* \"#utility.yul\":12914:13045   */\n      tag_367\n        /* \"#utility.yul\":13040:13044   */\n      dup2\n        /* \"#utility.yul\":12914:13045   */\n      tag_323\n      jump\t// in\n    tag_367:\n        /* \"#utility.yul\":12906:13045   */\n      swap1\n      pop\n        /* \"#utility.yul\":12633:13052   */\n      swap2\n      swap1\n      pop\n      jump\t// out\n        /* \"#utility.yul\":13058:13477   */\n    tag_118:\n        /* \"#utility.yul\":13224:13228   */\n      0x00\n        /* \"#utility.yul\":13262:13264   */\n      0x20\n        /* \"#utility.yul\":13251:13260   */\n      dup3\n        /* \"#utility.yul\":13247:13265   */\n      add\n        /* \"#utility.yul\":13239:13265   */\n      swap1\n      pop\n        /* \"#utility.yul\":13311:13320   */\n      dup2\n        /* \"#utility.yul\":13305:13309   */\n      dup2\n        /* \"#utility.yul\":13301:13321   */\n      sub\n        /* \"#utility.yul\":13297:13298   */\n      0x00\n        /* \"#utility.yul\":13286:13295   */\n      dup4\n        /* \"#utility.yul\":13282:13299   */\n      add\n        /* \"#utility.yul\":13275:13322   */\n      mstore\n        /* \"#utility.yul\":13339:13470   */\n      tag_369\n        /* \"#utility.yul\":13465:13469   */\n      dup2\n        /* \"#utility.yul\":13339:13470   */\n      tag_328\n      jump\t// in\n    tag_369:\n        /* \"#utility.yul\":13331:13470   */\n      swap1\n      pop\n        /* \"#utility.yul\":13058:13477   */\n      swap2\n      swap1\n      pop\n      jump\t// out\n        /* \"#utility.yul\":13483:13902   */\n    tag_169:\n        /* \"#utility.yul\":13649:13653   */\n      0x00\n        /* \"#utility.yul\":13687:13689   */\n      0x20\n        /* \"#utility.yul\":13676:13685   */\n      dup3\n        /* \"#utility.yul\":13672:13690   */\n      add\n        /* \"#utility.yul\":13664:13690   */\n      swap1\n      pop\n        /* \"#utility.yul\":13736:13745   */\n      dup2\n        /* \"#utility.yul\":13730:13734   */\n      dup2\n        /* \"#utility.yul\":13726:13746   */\n      sub\n        /* \"#utility.yul\":13722:13723   */\n      0x00\n        /* \"#utility.yul\":13711:13720   */\n      dup4\n        /* \"#utility.yul\":13707:13724   */\n      add\n        /* \"#utility.yul\":13700:13747   */\n      mstore\n        /* \"#utility.yul\":13764:13895   */\n      tag_371\n        /* \"#utility.yul\":13890:13894   */\n      dup2\n        /* \"#utility.yul\":13764:13895   */\n      tag_333\n      jump\t// in\n    tag_371:\n        /* \"#utility.yul\":13756:13895   */\n      swap1\n      pop\n        /* \"#utility.yul\":13483:13902   */\n      swap2\n      swap1\n      pop\n      jump\t// out\n        /* \"#utility.yul\":13908:14126   */\n    tag_40:\n        /* \"#utility.yul\":13999:14003   */\n      0x00\n        /* \"#utility.yul\":14037:14039   */\n      0x20\n        /* \"#utility.yul\":14026:14035   */\n      dup3\n        /* \"#utility.yul\":14022:14040   */\n      add\n        /* \"#utility.yul\":14014:14040   */\n      swap1\n      pop\n        /* \"#utility.yul\":14050:14119   */\n      tag_373\n        /* \"#utility.yul\":14116:14117   */\n      0x00\n        /* \"#utility.yul\":14105:14114   */\n      dup4\n        /* \"#utility.yul\":14101:14118   */\n      add\n        /* \"#utility.yul\":14092:14098   */\n      dup5\n        /* \"#utility.yul\":14050:14119   */\n      tag_338\n      jump\t// in\n    tag_373:\n        /* \"#utility.yul\":13908:14126   */\n      swap3\n      swap2\n      pop\n      pop\n      jump\t// out\n        /* \"#utility.yul\":14213:14345   */\n    tag_267:\n        /* \"#utility.yul\":14280:14284   */\n      0x00\n        /* \"#utility.yul\":14303:14306   */\n      dup2\n        /* \"#utility.yul\":14295:14306   */\n      swap1\n      pop\n        /* \"#utility.yul\":14333:14337   */\n      0x20\n        /* \"#utility.yul\":14328:14331   */\n      dup3\n        /* \"#utility.yul\":14324:14338   */\n      add\n        /* \"#utility.yul\":14316:14338   */\n      swap1\n      pop\n        /* \"#utility.yul\":14213:14345   */\n      swap2\n      swap1\n      pop\n      jump\t// out\n        /* \"#utility.yul\":14351:14465   */\n    tag_263:\n        /* \"#utility.yul\":14418:14424   */\n      0x00\n        /* \"#utility.yul\":14452:14457   */\n      dup2\n        /* \"#utility.yul\":14446:14458   */\n      mload\n        /* \"#utility.yul\":14436:14458   */\n      swap1\n      pop\n        /* \"#utility.yul\":14351:14465   */\n      swap2\n      swap1\n      pop\n      jump\t// out\n        /* \"#utility.yul\":14471:14584   */\n    tag_273:\n        /* \"#utility.yul\":14541:14545   */\n      0x00\n        /* \"#utility.yul\":14573:14577   */\n      0x20\n        /* \"#utility.yul\":14568:14571   */\n      dup3\n        /* \"#utility.yul\":14564:14578   */\n      add\n        /* \"#utility.yul\":14556:14578   */\n      swap1\n      pop\n        /* \"#utility.yul\":14471:14584   */\n      swap2\n      swap1\n      pop\n      jump\t// out\n        /* \"#utility.yul\":14590:14774   */\n    tag_265:\n        /* \"#utility.yul\":14689:14700   */\n      0x00\n        /* \"#utility.yul\":14723:14729   */\n      dup3\n        /* \"#utility.yul\":14718:14721   */\n      dup3\n        /* \"#utility.yul\":14711:14730   */\n      mstore\n        /* \"#utility.yul\":14763:14767   */\n      0x20\n        /* \"#utility.yul\":14758:14761   */\n      dup3\n        /* \"#utility.yul\":14754:14768   */\n      add\n        /* \"#utility.yul\":14739:14768   */\n      swap1\n      pop\n        /* \"#utility.yul\":14590:14774   */\n      swap3\n      swap2\n      pop\n      pop\n      jump\t// out\n        /* \"#utility.yul\":14780:14949   */\n    tag_285:\n        /* \"#utility.yul\":14864:14875   */\n      0x00\n        /* \"#utility.yul\":14898:14904   */\n      dup3\n        /* \"#utility.yul\":14893:14896   */\n      dup3\n        /* \"#utility.yul\":14886:14905   */\n      mstore\n        /* \"#utility.yul\":14938:14942   */\n      0x20\n        /* \"#utility.yul\":14933:14936   */\n      dup3\n        /* \"#utility.yul\":14929:14943   */\n      add\n        /* \"#utility.yul\":14914:14943   */\n      swap1\n      pop\n        /* \"#utility.yul\":14780:14949   */\n      swap3\n      swap2\n      pop\n      pop\n      jump\t// out\n        /* \"#utility.yul\":14955:15146   */\n    tag_128:\n        /* \"#utility.yul\":14995:14999   */\n      0x00\n        /* \"#utility.yul\":15015:15035   */\n      tag_382\n        /* \"#utility.yul\":15033:15034   */\n      dup3\n        /* \"#utility.yul\":15015:15035   */\n      tag_383\n      jump\t// in\n    tag_382:\n        /* \"#utility.yul\":15010:15035   */\n      swap2\n      pop\n        /* \"#utility.yul\":15049:15069   */\n      tag_384\n        /* \"#utility.yul\":15067:15068   */\n      dup4\n        /* \"#utility.yul\":15049:15069   */\n      tag_383\n      jump\t// in\n    tag_384:\n        /* \"#utility.yul\":15044:15069   */\n      swap3\n      pop\n        /* \"#utility.yul\":15088:15089   */\n      dup3\n        /* \"#utility.yul\":15085:15086   */\n      dup3\n        /* \"#utility.yul\":15082:15090   */\n      lt\n        /* \"#utility.yul\":15079:15113   */\n      iszero\n      tag_385\n      jumpi\n        /* \"#utility.yul\":15093:15111   */\n      tag_386\n      tag_387\n      jump\t// in\n    tag_386:\n        /* \"#utility.yul\":15079:15113   */\n    tag_385:\n        /* \"#utility.yul\":15138:15139   */\n      dup3\n        /* \"#utility.yul\":15135:15136   */\n      dup3\n        /* \"#utility.yul\":15131:15140   */\n      sub\n        /* \"#utility.yul\":15123:15140   */\n      swap1\n      pop\n        /* \"#utility.yul\":14955:15146   */\n      swap3\n      swap2\n      pop\n      pop\n      jump\t// out\n        /* \"#utility.yul\":15152:15248   */\n    tag_256:\n        /* \"#utility.yul\":15189:15196   */\n      0x00\n        /* \"#utility.yul\":15218:15242   */\n      tag_389\n        /* \"#utility.yul\":15236:15241   */\n      dup3\n        /* \"#utility.yul\":15218:15242   */\n      tag_390\n      jump\t// in\n    tag_389:\n        /* \"#utility.yul\":15207:15242   */\n      swap1\n      pop\n        /* \"#utility.yul\":15152:15248   */\n      swap2\n      swap1\n      pop\n      jump\t// out\n        /* \"#utility.yul\":15254:15344   */\n    tag_277:\n        /* \"#utility.yul\":15288:15295   */\n      0x00\n        /* \"#utility.yul\":15331:15336   */\n      dup2\n        /* \"#utility.yul\":15324:15337   */\n      iszero\n        /* \"#utility.yul\":15317:15338   */\n      iszero\n        /* \"#utility.yul\":15306:15338   */\n      swap1\n      pop\n        /* \"#utility.yul\":15254:15344   */\n      swap2\n      swap1\n      pop\n      jump\t// out\n        /* \"#utility.yul\":15350:15463   */\n    tag_392:\n        /* \"#utility.yul\":15404:15411   */\n      0x00\n        /* \"#utility.yul\":15433:15457   */\n      tag_394\n        /* \"#utility.yul\":15451:15456   */\n      dup3\n        /* \"#utility.yul\":15433:15457   */\n      tag_256\n      jump\t// in\n    tag_394:\n        /* \"#utility.yul\":15422:15457   */\n      swap1\n      pop\n        /* \"#utility.yul\":15350:15463   */\n      swap2\n      swap1\n      pop\n      jump\t// out\n        /* \"#utility.yul\":15469:15558   */\n    tag_341:\n        /* \"#utility.yul\":15505:15512   */\n      0x00\n        /* \"#utility.yul\":15545:15551   */\n      0xffff\n        /* \"#utility.yul\":15538:15543   */\n      dup3\n        /* \"#utility.yul\":15534:15552   */\n      and\n        /* \"#utility.yul\":15523:15552   */\n      swap1\n      pop\n        /* \"#utility.yul\":15469:15558   */\n      swap2\n      swap1\n      pop\n      jump\t// out\n        /* \"#utility.yul\":15564:15690   */\n    tag_390:\n        /* \"#utility.yul\":15601:15608   */\n      0x00\n        /* \"#utility.yul\":15641:15683   */\n      0xffffffffffffffffffffffffffffffffffffffff\n        /* \"#utility.yul\":15634:15639   */\n      dup3\n        /* \"#utility.yul\":15630:15684   */\n      and\n        /* \"#utility.yul\":15619:15684   */\n      swap1\n      pop\n        /* \"#utility.yul\":15564:15690   */\n      swap2\n      swap1\n      pop\n      jump\t// out\n        /* \"#utility.yul\":15696:15773   */\n    tag_383:\n        /* \"#utility.yul\":15733:15740   */\n      0x00\n        /* \"#utility.yul\":15762:15767   */\n      dup2\n        /* \"#utility.yul\":15751:15767   */\n      swap1\n      pop\n        /* \"#utility.yul\":15696:15773   */\n      swap2\n      swap1\n      pop\n      jump\t// out\n        /* \"#utility.yul\":15779:15922   */\n    tag_281:\n        /* \"#utility.yul\":15846:15855   */\n      0x00\n        /* \"#utility.yul\":15879:15916   */\n      tag_399\n        /* \"#utility.yul\":15910:15915   */\n      dup3\n        /* \"#utility.yul\":15879:15916   */\n      tag_400\n      jump\t// in\n    tag_399:\n        /* \"#utility.yul\":15866:15916   */\n      swap1\n      pop\n        /* \"#utility.yul\":15779:15922   */\n      swap2\n      swap1\n      pop\n      jump\t// out\n        /* \"#utility.yul\":15928:16054   */\n    tag_400:\n        /* \"#utility.yul\":15978:15987   */\n      0x00\n        /* \"#utility.yul\":16011:16048   */\n      tag_402\n        /* \"#utility.yul\":16042:16047   */\n      dup3\n        /* \"#utility.yul\":16011:16048   */\n      tag_403\n      jump\t// in\n    tag_402:\n        /* \"#utility.yul\":15998:16048   */\n      swap1\n      pop\n        /* \"#utility.yul\":15928:16054   */\n      swap2\n      swap1\n      pop\n      jump\t// out\n        /* \"#utility.yul\":16060:16173   */\n    tag_403:\n        /* \"#utility.yul\":16110:16119   */\n      0x00\n        /* \"#utility.yul\":16143:16167   */\n      tag_405\n        /* \"#utility.yul\":16161:16166   */\n      dup3\n        /* \"#utility.yul\":16143:16167   */\n      tag_390\n      jump\t// in\n    tag_405:\n        /* \"#utility.yul\":16130:16167   */\n      swap1\n      pop\n        /* \"#utility.yul\":16060:16173   */\n      swap2\n      swap1\n      pop\n      jump\t// out\n        /* \"#utility.yul\":16179:16412   */\n    tag_140:\n        /* \"#utility.yul\":16218:16221   */\n      0x00\n        /* \"#utility.yul\":16241:16265   */\n      tag_407\n        /* \"#utility.yul\":16259:16264   */\n      dup3\n        /* \"#utility.yul\":16241:16265   */\n      tag_383\n      jump\t// in\n    tag_407:\n        /* \"#utility.yul\":16232:16265   */\n      swap2\n      pop\n        /* \"#utility.yul\":16287:16353   */\n      0xffffffffffffffffffffffffffffffffffffffffffffffffffffffffffffffff\n        /* \"#utility.yul\":16280:16285   */\n      dup3\n        /* \"#utility.yul\":16277:16354   */\n      eq\n        /* \"#utility.yul\":16274:16377   */\n      iszero\n      tag_408\n      jumpi\n        /* \"#utility.yul\":16357:16375   */\n      tag_409\n      tag_387\n      jump\t// in\n    tag_409:\n        /* \"#utility.yul\":16274:16377   */\n    tag_408:\n        /* \"#utility.yul\":16404:16405   */\n      0x01\n        /* \"#utility.yul\":16397:16402   */\n      dup3\n        /* \"#utility.yul\":16393:16406   */\n      add\n        /* \"#utility.yul\":16386:16406   */\n      swap1\n      pop\n        /* \"#utility.yul\":16179:16412   */\n      swap2\n      swap1\n      pop\n      jump\t// out\n        /* \"#utility.yul\":16418:16598   */\n    tag_387:\n        /* \"#utility.yul\":16466:16543   */\n      0x4e487b7100000000000000000000000000000000000000000000000000000000\n        /* \"#utility.yul\":16463:16464   */\n      0x00\n        /* \"#utility.yul\":16456:16544   */\n      mstore\n        /* \"#utility.yul\":16563:16567   */\n      0x11\n        /* \"#utility.yul\":16560:16561   */\n      0x04\n        /* \"#utility.yul\":16553:16568   */\n      mstore\n        /* \"#utility.yul\":16587:16591   */\n      0x24\n        /* \"#utility.yul\":16584:16585   */\n      0x00\n        /* \"#utility.yul\":16577:16592   */\n      revert\n        /* \"#utility.yul\":16604:16784   */\n    tag_137:\n        /* \"#utility.yul\":16652:16729   */\n      0x4e487b7100000000000000000000000000000000000000000000000000000000\n        /* \"#utility.yul\":16649:16650   */\n      0x00\n        /* \"#utility.yul\":16642:16730   */\n      mstore\n        /* \"#utility.yul\":16749:16753   */\n      0x31\n        /* \"#utility.yul\":16746:16747   */\n      0x04\n        /* \"#utility.yul\":16739:16754   */\n      mstore\n        /* \"#utility.yul\":16773:16777   */\n      0x24\n        /* \"#utility.yul\":16770:16771   */\n      0x00\n        /* \"#utility.yul\":16763:16778   */\n      revert\n        /* \"#utility.yul\":16790:16970   */\n    tag_124:\n        /* \"#utility.yul\":16838:16915   */\n      0x4e487b7100000000000000000000000000000000000000000000000000000000\n        /* \"#utility.yul\":16835:16836   */\n      0x00\n        /* \"#utility.yul\":16828:16916   */\n      mstore\n        /* \"#utility.yul\":16935:16939   */\n      0x32\n        /* \"#utility.yul\":16932:16933   */\n      0x04\n        /* \"#utility.yul\":16925:16940   */\n      mstore\n        /* \"#utility.yul\":16959:16963   */\n      0x24\n        /* \"#utility.yul\":16956:16957   */\n      0x00\n        /* \"#utility.yul\":16949:16964   */\n      revert\n        /* \"#utility.yul\":17099:17216   */\n    tag_232:\n        /* \"#utility.yul\":17208:17209   */\n      0x00\n        /* \"#utility.yul\":17205:17206   */\n      dup1\n        /* \"#utility.yul\":17198:17210   */\n      revert\n        /* \"#utility.yul\":17222:17403   */\n    tag_287:\n        /* \"#utility.yul\":17362:17395   */\n      0x526f6c65733a206163636f756e7420616c72656164792068617320726f6c6500\n        /* \"#utility.yul\":17358:17359   */\n      0x00\n        /* \"#utility.yul\":17350:17356   */\n      dup3\n        /* \"#utility.yul\":17346:17360   */\n      add\n        /* \"#utility.yul\":17339:17396   */\n      mstore\n        /* \"#utility.yul\":17222:17403   */\n      pop\n      jump\t// out\n        /* \"#utility.yul\":17409:17634   */\n    tag_292:\n        /* \"#utility.yul\":17549:17583   */\n      0x4f776e61626c653a206e6577206f776e657220697320746865207a65726f2061\n        /* \"#utility.yul\":17545:17546   */\n      0x00\n        /* \"#utility.yul\":17537:17543   */\n      dup3\n        /* \"#utility.yul\":17533:17547   */\n      add\n        /* \"#utility.yul\":17526:17584   */\n      mstore\n        /* \"#utility.yul\":17618:17626   */\n      0x6464726573730000000000000000000000000000000000000000000000000000\n        /* \"#utility.yul\":17613:17615   */\n      0x20\n        /* \"#utility.yul\":17605:17611   */\n      dup3\n        /* \"#utility.yul\":17601:17616   */\n      add\n        /* \"#utility.yul\":17594:17627   */\n      mstore\n        /* \"#utility.yul\":17409:17634   */\n      pop\n      jump\t// out\n        /* \"#utility.yul\":17640:17865   */\n    tag_297:\n        /* \"#utility.yul\":17780:17814   */\n      0x796f7520686176656e2774207265676973746572656420616e206964656e7469\n        /* \"#utility.yul\":17776:17777   */\n      0x00\n        /* \"#utility.yul\":17768:17774   */\n      dup3\n        /* \"#utility.yul\":17764:17778   */\n      add\n        /* \"#utility.yul\":17757:17815   */\n      mstore\n        /* \"#utility.yul\":17849:17857   */\n      0x7479207965740000000000000000000000000000000000000000000000000000\n        /* \"#utility.yul\":17844:17846   */\n      0x20\n        /* \"#utility.yul\":17836:17842   */\n      dup3\n        /* \"#utility.yul\":17832:17847   */\n      add\n        /* \"#utility.yul\":17825:17858   */\n      mstore\n        /* \"#utility.yul\":17640:17865   */\n      pop\n      jump\t// out\n        /* \"#utility.yul\":17871:18098   */\n    tag_302:\n        /* \"#utility.yul\":18011:18045   */\n      0x636f6e747261637420616464726573732063616e27742062652061207a65726f\n        /* \"#utility.yul\":18007:18008   */\n      0x00\n        /* \"#utility.yul\":17999:18005   */\n      dup3\n        /* \"#utility.yul\":17995:18009   */\n      add\n        /* \"#utility.yul\":17988:18046   */\n      mstore\n        /* \"#utility.yul\":18080:18090   */\n      0x2061646472657373000000000000000000000000000000000000000000000000\n        /* \"#utility.yul\":18075:18077   */\n      0x20\n        /* \"#utility.yul\":18067:18073   */\n      dup3\n        /* \"#utility.yul\":18063:18078   */\n      add\n        /* \"#utility.yul\":18056:18091   */\n      mstore\n        /* \"#utility.yul\":17871:18098   */\n      pop\n      jump\t// out\n        /* \"#utility.yul\":18104:18327   */\n    tag_307:\n        /* \"#utility.yul\":18244:18278   */\n      0x74686973207573657220686173206e6f206964656e7469747920726567697374\n        /* \"#utility.yul\":18240:18241   */\n      0x00\n        /* \"#utility.yul\":18232:18238   */\n      dup3\n        /* \"#utility.yul\":18228:18242   */\n      add\n        /* \"#utility.yul\":18221:18279   */\n      mstore\n        /* \"#utility.yul\":18313:18319   */\n      0x6572656400000000000000000000000000000000000000000000000000000000\n        /* \"#utility.yul\":18308:18310   */\n      0x20\n        /* \"#utility.yul\":18300:18306   */\n      dup3\n        /* \"#utility.yul\":18296:18311   */\n      add\n        /* \"#utility.yul\":18289:18320   */\n      mstore\n        /* \"#utility.yul\":18104:18327   */\n      pop\n      jump\t// out\n        /* \"#utility.yul\":18333:18566   */\n    tag_312:\n        /* \"#utility.yul\":18473:18507   */\n      0x4167656e74526f6c653a2063616c6c657220646f6573206e6f74206861766520\n        /* \"#utility.yul\":18469:18470   */\n      0x00\n        /* \"#utility.yul\":18461:18467   */\n      dup3\n        /* \"#utility.yul\":18457:18471   */\n      add\n        /* \"#utility.yul\":18450:18508   */\n      mstore\n        /* \"#utility.yul\":18542:18558   */\n      0x746865204167656e7420726f6c65000000000000000000000000000000000000\n        /* \"#utility.yul\":18537:18539   */\n      0x20\n        /* \"#utility.yul\":18529:18535   */\n      dup3\n        /* \"#utility.yul\":18525:18540   */\n      add\n        /* \"#utility.yul\":18518:18559   */\n      mstore\n        /* \"#utility.yul\":18333:18566   */\n      pop\n      jump\t// out\n        /* \"#utility.yul\":18572:18792   */\n    tag_317:\n        /* \"#utility.yul\":18712:18746   */\n      0x526f6c65733a206163636f756e7420646f6573206e6f74206861766520726f6c\n        /* \"#utility.yul\":18708:18709   */\n      0x00\n        /* \"#utility.yul\":18700:18706   */\n      dup3\n        /* \"#utility.yul\":18696:18710   */\n      add\n        /* \"#utility.yul\":18689:18747   */\n      mstore\n        /* \"#utility.yul\":18781:18784   */\n      0x6500000000000000000000000000000000000000000000000000000000000000\n        /* \"#utility.yul\":18776:18778   */\n      0x20\n        /* \"#utility.yul\":18768:18774   */\n      dup3\n        /* \"#utility.yul\":18764:18779   */\n      add\n        /* \"#utility.yul\":18757:18785   */\n      mstore\n        /* \"#utility.yul\":18572:18792   */\n      pop\n      jump\t// out\n        /* \"#utility.yul\":18798:18980   */\n    tag_322:\n        /* \"#utility.yul\":18938:18972   */\n      0x4f776e61626c653a2063616c6c6572206973206e6f7420746865206f776e6572\n        /* \"#utility.yul\":18934:18935   */\n      0x00\n        /* \"#utility.yul\":18926:18932   */\n      dup3\n        /* \"#utility.yul\":18922:18936   */\n      add\n        /* \"#utility.yul\":18915:18973   */\n      mstore\n        /* \"#utility.yul\":18798:18980   */\n      pop\n      jump\t// out\n        /* \"#utility.yul\":18986:19207   */\n    tag_327:\n        /* \"#utility.yul\":19126:19160   */\n      0x526f6c65733a206163636f756e7420697320746865207a65726f206164647265\n        /* \"#utility.yul\":19122:19123   */\n      0x00\n        /* \"#utility.yul\":19114:19120   */\n      dup3\n        /* \"#utility.yul\":19110:19124   */\n      add\n        /* \"#utility.yul\":19103:19161   */\n      mstore\n        /* \"#utility.yul\":19195:19199   */\n      0x7373000000000000000000000000000000000000000000000000000000000000\n        /* \"#utility.yul\":19190:19192   */\n      0x20\n        /* \"#utility.yul\":19182:19188   */\n      dup3\n        /* \"#utility.yul\":19178:19193   */\n      add\n        /* \"#utility.yul\":19171:19200   */\n      mstore\n        /* \"#utility.yul\":18986:19207   */\n      pop\n      jump\t// out\n        /* \"#utility.yul\":19213:19394   */\n    tag_332:\n        /* \"#utility.yul\":19353:19386   */\n      0x6964656e74697479207265676973747279206973206e6f742073746f72656400\n        /* \"#utility.yul\":19349:19350   */\n      0x00\n        /* \"#utility.yul\":19341:19347   */\n      dup3\n        /* \"#utility.yul\":19337:19351   */\n      add\n        /* \"#utility.yul\":19330:19387   */\n      mstore\n        /* \"#utility.yul\":19213:19394   */\n      pop\n      jump\t// out\n        /* \"#utility.yul\":19400:19638   */\n    tag_337:\n        /* \"#utility.yul\":19540:19574   */\n      0x6964656e7469747920636f6e747261637420616c726561647920657869737473\n        /* \"#utility.yul\":19536:19537   */\n      0x00\n        /* \"#utility.yul\":19528:19534   */\n      dup3\n        /* \"#utility.yul\":19524:19538   */\n      add\n        /* \"#utility.yul\":19517:19575   */\n      mstore\n        /* \"#utility.yul\":19609:19630   */\n      0x2c20706c65617365207573652075706461746500000000000000000000000000\n        /* \"#utility.yul\":19604:19606   */\n      0x20\n        /* \"#utility.yul\":19596:19602   */\n      dup3\n        /* \"#utility.yul\":19592:19607   */\n      add\n        /* \"#utility.yul\":19585:19631   */\n      mstore\n        /* \"#utility.yul\":19400:19638   */\n      pop\n      jump\t// out\n        /* \"#utility.yul\":19644:19766   */\n    tag_220:\n        /* \"#utility.yul\":19717:19741   */\n      tag_428\n        /* \"#utility.yul\":19735:19740   */\n      dup2\n        /* \"#utility.yul\":19717:19741   */\n      tag_256\n      jump\t// in\n    tag_428:\n        /* \"#utility.yul\":19710:19715   */\n      dup2\n        /* \"#utility.yul\":19707:19742   */\n      eq\n        /* \"#utility.yul\":19697:19760   */\n      tag_429\n      jumpi\n        /* \"#utility.yul\":19756:19757   */\n      0x00\n        /* \"#utility.yul\":19753:19754   */\n      dup1\n        /* \"#utility.yul\":19746:19758   */\n      revert\n        /* \"#utility.yul\":19697:19760   */\n    tag_429:\n        /* \"#utility.yul\":19644:19766   */\n      pop\n      jump\t// out\n        /* \"#utility.yul\":19772:19928   */\n    tag_224:\n        /* \"#utility.yul\":19862:19903   */\n      tag_431\n        /* \"#utility.yul\":19897:19902   */\n      dup2\n        /* \"#utility.yul\":19862:19903   */\n      tag_392\n      jump\t// in\n    tag_431:\n        /* \"#utility.yul\":19855:19860   */\n      dup2\n        /* \"#utility.yul\":19852:19904   */\n      eq\n        /* \"#utility.yul\":19842:19922   */\n      tag_432\n      jumpi\n        /* \"#utility.yul\":19918:19919   */\n      0x00\n        /* \"#utility.yul\":19915:19916   */\n      dup1\n        /* \"#utility.yul\":19908:19920   */\n      revert\n        /* \"#utility.yul\":19842:19922   */\n    tag_432:\n        /* \"#utility.yul\":19772:19928   */\n      pop\n      jump\t// out\n        /* \"#utility.yul\":19934:20054   */\n    tag_228:\n        /* \"#utility.yul\":20006:20029   */\n      tag_434\n        /* \"#utility.yul\":20023:20028   */\n      dup2\n        /* \"#utility.yul\":20006:20029   */\n      tag_341\n      jump\t// in\n    tag_434:\n        /* \"#utility.yul\":19999:20004   */\n      dup2\n        /* \"#utility.yul\":19996:20030   */\n      eq\n        /* \"#utility.yul\":19986:20048   */\n      tag_435\n      jumpi\n        /* \"#utility.yul\":20044:20045   */\n      0x00\n        /* \"#utility.yul\":20041:20042   */\n      dup1\n        /* \"#utility.yul\":20034:20046   */\n      revert\n        /* \"#utility.yul\":19986:20048   */\n    tag_435:\n        /* \"#utility.yul\":19934:20054   */\n      pop\n      jump\t// out\n\n    auxdata: 0xa26469706673582212200b5bedbe3c451d4ed18fe194b4d798e80b24878890f5101f6bcb3199f410e5a564736f6c63430008070033\n}\n",
				"bytecode": {
					"linkReferences": {},
					"object": "608060405234801561001057600080fd5b5061002d61002261003260201b60201c565b61003a60201b60201c565b6100fe565b600033905090565b60008060009054906101000a900473ffffffffffffffffffffffffffffffffffffffff169050816000806101000a81548173ffffffffffffffffffffffffffffffffffffffff021916908373ffffffffffffffffffffffffffffffffffffffff1602179055508173ffffffffffffffffffffffffffffffffffffffff168173ffffffffffffffffffffffffffffffffffffffff167f8be0079c531659141344cd1fd0a4f28419497f9722a3daafe3b4186f6b6457e060405160405180910390a35050565b612280806200010e6000396000f3fe608060405234801561001057600080fd5b50600436106101005760003560e01c806397a012f711610097578063bf9eb95911610066578063bf9eb95914610281578063cf191bcd1461029f578063e805cf86146102bb578063f2fde38b146102d757610100565b806397a012f71461021157806397a6278e1461022d5780639f3418d514610249578063a53410dd1461026557610100565b8063727e13bc116100d3578063727e13bc146101775780637988d3a5146101a757806384e79842146101d75780638da5cb5b146101f357610100565b80631ffbb064146101055780635ccbbe4914610135578063690a49f914610151578063715018a61461016d575b600080fd5b61011f600480360381019061011a91906117eb565b6102f3565b60405161012c9190611b6a565b60405180910390f35b61014f600480360381019061014a91906117eb565b610310565b005b61016b600480360381019061016691906117eb565b610398565b005b61017561044a565b005b610191600480360381019061018c91906117eb565b6104d2565b60405161019e9190611d00565b60405180910390f35b6101c160048036038101906101bc91906117eb565b61052c565b6040516101ce9190611b85565b60405180910390f35b6101f160048036038101906101ec91906117eb565b610598565b005b6101fb61066e565b6040516102089190611b2d565b60405180910390f35b61022b600480360381019061022691906117eb565b610697565b005b610247600480360381019061024291906117eb565b6108bd565b005b610263600480360381019061025e91906118ab565b610993565b005b61027f600480360381019061027a9190611858565b610b56565b005b610289610e1b565b6040516102969190611b48565b60405180910390f35b6102b960048036038101906102b491906117eb565b610ea9565b005b6102d560048036038101906102d09190611818565b611100565b005b6102f160048036038101906102ec91906117eb565b6113d1565b005b60006103098260016114c990919063ffffffff16565b9050919050565b610318611591565b73ffffffffffffffffffffffffffffffffffffffff1661033661066e565b73ffffffffffffffffffffffffffffffffffffffff161461038c576040517f08c379a000000000000000000000000000000000000000000000000000000000815260040161038390611c80565b60405180910390fd5b610395816113d1565b50565b6103a181610598565b6003819080600181540180825580915050600190039060005260206000200160009091909190916101000a81548173ffffffffffffffffffffffffffffffffffffffff021916908373ffffffffffffffffffffffffffffffffffffffff1602179055508073ffffffffffffffffffffffffffffffffffffffff167f500c250171aa20e861b680f93502547b9d436eda7d4c537fc360db6e0c6eedfb60405160405180910390a250565b610452611591565b73ffffffffffffffffffffffffffffffffffffffff1661047061066e565b73ffffffffffffffffffffffffffffffffffffffff16146104c6576040517f08c379a00000000000000000000000000000000000000000000000000000000081526004016104bd90611c80565b60405180910390fd5b6104d06000611599565b565b6000600260008373ffffffffffffffffffffffffffffffffffffffff1673ffffffffffffffffffffffffffffffffffffffff16815260200190815260200160002060000160149054906101000a900461ffff169050919050565b6000600260008373ffffffffffffffffffffffffffffffffffffffff1673ffffffffffffffffffffffffffffffffffffffff16815260200190815260200160002060000160009054906101000a900473ffffffffffffffffffffffffffffffffffffffff169050919050565b6105a0611591565b73ffffffffffffffffffffffffffffffffffffffff166105be61066e565b73ffffffffffffffffffffffffffffffffffffffff1614610614576040517f08c379a000000000000000000000000000000000000000000000000000000000815260040161060b90611c80565b60405180910390fd5b61062881600161165d90919063ffffffff16565b8073ffffffffffffffffffffffffffffffffffffffff167ff68e73cec97f2d70aa641fb26e87a4383686e2efacb648f2165aeb02ac562ec560405160405180910390a250565b60008060009054906101000a900473ffffffffffffffffffffffffffffffffffffffff16905090565b6000600380549050116106df576040517f08c379a00000000000000000000000000000000000000000000000000000000081526004016106d690611cc0565b60405180910390fd5b6000600380549050905060005b8181101561086c578273ffffffffffffffffffffffffffffffffffffffff166003828154811061071f5761071e611ede565b5b9060005260206000200160009054906101000a900473ffffffffffffffffffffffffffffffffffffffff1673ffffffffffffffffffffffffffffffffffffffff1614156108595760036001836107759190611d65565b8154811061078657610785611ede565b5b9060005260206000200160009054906101000a900473ffffffffffffffffffffffffffffffffffffffff16600382815481106107c5576107c4611ede565b5b9060005260206000200160006101000a81548173ffffffffffffffffffffffffffffffffffffffff021916908373ffffffffffffffffffffffffffffffffffffffff160217905550600380548061081f5761081e611eaf565b5b6001900381819060005260206000200160006101000a81549073ffffffffffffffffffffffffffffffffffffffff0219169055905561086c565b808061086490611e37565b9150506106ec565b50610876826108bd565b8173ffffffffffffffffffffffffffffffffffffffff167f51f353eb5801583fdf2706e43c045b62fdf6b1566820b349390616363ecf72c960405160405180910390a25050565b6108c5611591565b73ffffffffffffffffffffffffffffffffffffffff166108e361066e565b73ffffffffffffffffffffffffffffffffffffffff1614610939576040517f08c379a000000000000000000000000000000000000000000000000000000000815260040161093090611c80565b60405180910390fd5b61094d81600161170590919063ffffffff16565b8073ffffffffffffffffffffffffffffffffffffffff167fed9c8ad8d5a0a66898ea49d2956929c93ae2e8bd50281b2ed897c5d1a6737e0b60405160405180910390a250565b61099c336102f3565b6109db576040517f08c379a00000000000000000000000000000000000000000000000000000000081526004016109d290611c40565b60405180910390fd5b600073ffffffffffffffffffffffffffffffffffffffff16600260008473ffffffffffffffffffffffffffffffffffffffff1673ffffffffffffffffffffffffffffffffffffffff16815260200190815260200160002060000160009054906101000a900473ffffffffffffffffffffffffffffffffffffffff1673ffffffffffffffffffffffffffffffffffffffff161415610aad576040517f08c379a0000000000000000000000000000000000000000000000000000000008152600401610aa490611c20565b60405180910390fd5b80600260008473ffffffffffffffffffffffffffffffffffffffff1673ffffffffffffffffffffffffffffffffffffffff16815260200190815260200160002060000160146101000a81548161ffff021916908361ffff1602179055508061ffff168273ffffffffffffffffffffffffffffffffffffffff167f20965fcdc6eed7ae398065b40ece4e732ba667992ca819fc54e80e9f2047c4cf60405160405180910390a35050565b610b5f336102f3565b610b9e576040517f08c379a0000000000000000000000000000000000000000000000000000000008152600401610b9590611c40565b60405180910390fd5b600073ffffffffffffffffffffffffffffffffffffffff168273ffffffffffffffffffffffffffffffffffffffff161415610c0e576040517f08c379a0000000000000000000000000000000000000000000000000000000008152600401610c0590611c00565b60405180910390fd5b600073ffffffffffffffffffffffffffffffffffffffff16600260008573ffffffffffffffffffffffffffffffffffffffff1673ffffffffffffffffffffffffffffffffffffffff16815260200190815260200160002060000160009054906101000a900473ffffffffffffffffffffffffffffffffffffffff1673ffffffffffffffffffffffffffffffffffffffff1614610cdf576040517f08c379a0000000000000000000000000000000000000000000000000000000008152600401610cd690611ce0565b60405180910390fd5b81600260008573ffffffffffffffffffffffffffffffffffffffff1673ffffffffffffffffffffffffffffffffffffffff16815260200190815260200160002060000160006101000a81548173ffffffffffffffffffffffffffffffffffffffff021916908373ffffffffffffffffffffffffffffffffffffffff16021790555080600260008573ffffffffffffffffffffffffffffffffffffffff1673ffffffffffffffffffffffffffffffffffffffff16815260200190815260200160002060000160146101000a81548161ffff021916908361ffff1602179055508173ffffffffffffffffffffffffffffffffffffffff168373ffffffffffffffffffffffffffffffffffffffff167e30dea7e9c9afaa2e3c9810f2fc9b5181f1bad74ca5a8db85f746a33585e74760405160405180910390a3505050565b60606003805480602002602001604051908101604052809291908181526020018280548015610e9f57602002820191906000526020600020905b8160009054906101000a900473ffffffffffffffffffffffffffffffffffffffff1673ffffffffffffffffffffffffffffffffffffffff1681526020019060010190808311610e55575b5050505050905090565b610eb2336102f3565b610ef1576040517f08c379a0000000000000000000000000000000000000000000000000000000008152600401610ee890611c40565b60405180910390fd5b600073ffffffffffffffffffffffffffffffffffffffff16600260008373ffffffffffffffffffffffffffffffffffffffff1673ffffffffffffffffffffffffffffffffffffffff16815260200190815260200160002060000160009054906101000a900473ffffffffffffffffffffffffffffffffffffffff1673ffffffffffffffffffffffffffffffffffffffff161415610fc3576040517f08c379a0000000000000000000000000000000000000000000000000000000008152600401610fba90611be0565b60405180910390fd5b600260008273ffffffffffffffffffffffffffffffffffffffff1673ffffffffffffffffffffffffffffffffffffffff168152602001908152602001600020600080820160006101000a81549073ffffffffffffffffffffffffffffffffffffffff02191690556000820160146101000a81549061ffff02191690555050600260008273ffffffffffffffffffffffffffffffffffffffff1673ffffffffffffffffffffffffffffffffffffffff16815260200190815260200160002060000160009054906101000a900473ffffffffffffffffffffffffffffffffffffffff1673ffffffffffffffffffffffffffffffffffffffff168173ffffffffffffffffffffffffffffffffffffffff167fca6a4c3370b859312246e7f086284076e557997e10d856b716c23ab67067790b60405160405180910390a350565b611109336102f3565b611148576040517f08c379a000000000000000000000000000000000000000000000000000000000815260040161113f90611c40565b60405180910390fd5b600073ffffffffffffffffffffffffffffffffffffffff16600260008473ffffffffffffffffffffffffffffffffffffffff1673ffffffffffffffffffffffffffffffffffffffff16815260200190815260200160002060000160009054906101000a900473ffffffffffffffffffffffffffffffffffffffff1673ffffffffffffffffffffffffffffffffffffffff16141561121a576040517f08c379a000000000000000000000000000000000000000000000000000000000815260040161121190611c20565b60405180910390fd5b600073ffffffffffffffffffffffffffffffffffffffff168173ffffffffffffffffffffffffffffffffffffffff16141561128a576040517f08c379a000000000000000000000000000000000000000000000000000000000815260040161128190611c00565b60405180910390fd5b6000600260008473ffffffffffffffffffffffffffffffffffffffff1673ffffffffffffffffffffffffffffffffffffffff16815260200190815260200160002060000160009054906101000a900473ffffffffffffffffffffffffffffffffffffffff16905081600260008573ffffffffffffffffffffffffffffffffffffffff1673ffffffffffffffffffffffffffffffffffffffff16815260200190815260200160002060000160006101000a81548173ffffffffffffffffffffffffffffffffffffffff021916908373ffffffffffffffffffffffffffffffffffffffff1602179055508173ffffffffffffffffffffffffffffffffffffffff168173ffffffffffffffffffffffffffffffffffffffff167f556ce885dfcea52155c773f1ed2e58781c51945c13030ab8f793c61f51d1b80860405160405180910390a3505050565b6113d9611591565b73ffffffffffffffffffffffffffffffffffffffff166113f761066e565b73ffffffffffffffffffffffffffffffffffffffff161461144d576040517f08c379a000000000000000000000000000000000000000000000000000000000815260040161144490611c80565b60405180910390fd5b600073ffffffffffffffffffffffffffffffffffffffff168173ffffffffffffffffffffffffffffffffffffffff1614156114bd576040517f08c379a00000000000000000000000000000000000000000000000000000000081526004016114b490611bc0565b60405180910390fd5b6114c681611599565b50565b60008073ffffffffffffffffffffffffffffffffffffffff168273ffffffffffffffffffffffffffffffffffffffff16141561153a576040517f08c379a000000000000000000000000000000000000000000000000000000000815260040161153190611ca0565b60405180910390fd5b8260000160008373ffffffffffffffffffffffffffffffffffffffff1673ffffffffffffffffffffffffffffffffffffffff16815260200190815260200160002060009054906101000a900460ff16905092915050565b600033905090565b60008060009054906101000a900473ffffffffffffffffffffffffffffffffffffffff169050816000806101000a81548173ffffffffffffffffffffffffffffffffffffffff021916908373ffffffffffffffffffffffffffffffffffffffff1602179055508173ffffffffffffffffffffffffffffffffffffffff168173ffffffffffffffffffffffffffffffffffffffff167f8be0079c531659141344cd1fd0a4f28419497f9722a3daafe3b4186f6b6457e060405160405180910390a35050565b61166782826114c9565b156116a7576040517f08c379a000000000000000000000000000000000000000000000000000000000815260040161169e90611ba0565b60405180910390fd5b60018260000160008373ffffffffffffffffffffffffffffffffffffffff1673ffffffffffffffffffffffffffffffffffffffff16815260200190815260200160002060006101000a81548160ff0219169083151502179055505050565b61170f82826114c9565b61174e576040517f08c379a000000000000000000000000000000000000000000000000000000000815260040161174590611c60565b60405180910390fd5b60008260000160008373ffffffffffffffffffffffffffffffffffffffff1673ffffffffffffffffffffffffffffffffffffffff16815260200190815260200160002060006101000a81548160ff0219169083151502179055505050565b6000813590506117bb81612205565b92915050565b6000813590506117d08161221c565b92915050565b6000813590506117e581612233565b92915050565b60006020828403121561180157611800611f0d565b5b600061180f848285016117ac565b91505092915050565b6000806040838503121561182f5761182e611f0d565b5b600061183d858286016117ac565b925050602061184e858286016117c1565b9150509250929050565b60008060006060848603121561187157611870611f0d565b5b600061187f868287016117ac565b9350506020611890868287016117c1565b92505060406118a1868287016117d6565b9150509250925092565b600080604083850312156118c2576118c1611f0d565b5b60006118d0858286016117ac565b92505060206118e1858286016117d6565b9150509250929050565b60006118f78383611903565b60208301905092915050565b61190c81611d99565b82525050565b61191b81611d99565b82525050565b600061192c82611d2b565b6119368185611d43565b935061194183611d1b565b8060005b8381101561197257815161195988826118eb565b975061196483611d36565b925050600181019050611945565b5085935050505092915050565b61198881611dab565b82525050565b61199781611e01565b82525050565b60006119aa601f83611d54565b91506119b582611f12565b602082019050919050565b60006119cd602683611d54565b91506119d882611f3b565b604082019050919050565b60006119f0602683611d54565b91506119fb82611f8a565b604082019050919050565b6000611a13602883611d54565b9150611a1e82611fd9565b604082019050919050565b6000611a36602483611d54565b9150611a4182612028565b604082019050919050565b6000611a59602e83611d54565b9150611a6482612077565b604082019050919050565b6000611a7c602183611d54565b9150611a87826120c6565b604082019050919050565b6000611a9f602083611d54565b9150611aaa82612115565b602082019050919050565b6000611ac2602283611d54565b9150611acd8261213e565b604082019050919050565b6000611ae5601f83611d54565b9150611af08261218d565b602082019050919050565b6000611b08603383611d54565b9150611b13826121b6565b604082019050919050565b611b2781611dc9565b82525050565b6000602082019050611b426000830184611912565b92915050565b60006020820190508181036000830152611b628184611921565b905092915050565b6000602082019050611b7f600083018461197f565b92915050565b6000602082019050611b9a600083018461198e565b92915050565b60006020820190508181036000830152611bb98161199d565b9050919050565b60006020820190508181036000830152611bd9816119c0565b9050919050565b60006020820190508181036000830152611bf9816119e3565b9050919050565b60006020820190508181036000830152611c1981611a06565b9050919050565b60006020820190508181036000830152611c3981611a29565b9050919050565b60006020820190508181036000830152611c5981611a4c565b9050919050565b60006020820190508181036000830152611c7981611a6f565b9050919050565b60006020820190508181036000830152611c9981611a92565b9050919050565b60006020820190508181036000830152611cb981611ab5565b9050919050565b60006020820190508181036000830152611cd981611ad8565b9050919050565b60006020820190508181036000830152611cf981611afb565b9050919050565b6000602082019050611d156000830184611b1e565b92915050565b6000819050602082019050919050565b600081519050919050565b6000602082019050919050565b600082825260208201905092915050565b600082825260208201905092915050565b6000611d7082611df7565b9150611d7b83611df7565b925082821015611d8e57611d8d611e80565b5b828203905092915050565b6000611da482611dd7565b9050919050565b60008115159050919050565b6000611dc282611d99565b9050919050565b600061ffff82169050919050565b600073ffffffffffffffffffffffffffffffffffffffff82169050919050565b6000819050919050565b6000611e0c82611e13565b9050919050565b6000611e1e82611e25565b9050919050565b6000611e3082611dd7565b9050919050565b6000611e4282611df7565b91507fffffffffffffffffffffffffffffffffffffffffffffffffffffffffffffffff821415611e7557611e74611e80565b5b600182019050919050565b7f4e487b7100000000000000000000000000000000000000000000000000000000600052601160045260246000fd5b7f4e487b7100000000000000000000000000000000000000000000000000000000600052603160045260246000fd5b7f4e487b7100000000000000000000000000000000000000000000000000000000600052603260045260246000fd5b600080fd5b7f526f6c65733a206163636f756e7420616c72656164792068617320726f6c6500600082015250565b7f4f776e61626c653a206e6577206f776e657220697320746865207a65726f206160008201527f6464726573730000000000000000000000000000000000000000000000000000602082015250565b7f796f7520686176656e2774207265676973746572656420616e206964656e746960008201527f7479207965740000000000000000000000000000000000000000000000000000602082015250565b7f636f6e747261637420616464726573732063616e27742062652061207a65726f60008201527f2061646472657373000000000000000000000000000000000000000000000000602082015250565b7f74686973207573657220686173206e6f206964656e746974792072656769737460008201527f6572656400000000000000000000000000000000000000000000000000000000602082015250565b7f4167656e74526f6c653a2063616c6c657220646f6573206e6f7420686176652060008201527f746865204167656e7420726f6c65000000000000000000000000000000000000602082015250565b7f526f6c65733a206163636f756e7420646f6573206e6f74206861766520726f6c60008201527f6500000000000000000000000000000000000000000000000000000000000000602082015250565b7f4f776e61626c653a2063616c6c6572206973206e6f7420746865206f776e6572600082015250565b7f526f6c65733a206163636f756e7420697320746865207a65726f20616464726560008201527f7373000000000000000000000000000000000000000000000000000000000000602082015250565b7f6964656e74697479207265676973747279206973206e6f742073746f72656400600082015250565b7f6964656e7469747920636f6e747261637420616c72656164792065786973747360008201527f2c20706c65617365207573652075706461746500000000000000000000000000602082015250565b61220e81611d99565b811461221957600080fd5b50565b61222581611db7565b811461223057600080fd5b50565b61223c81611dc9565b811461224757600080fd5b5056fea26469706673582212200b5bedbe3c451d4ed18fe194b4d798e80b24878890f5101f6bcb3199f410e5a564736f6c63430008070033",
					"opcodes": "PUSH1 0x80 PUSH1 0x40 MSTORE CALLVALUE DUP1 ISZERO PUSH2 0x10 JUMPI PUSH1 0x0 DUP1 REVERT JUMPDEST POP PUSH2 0x2D PUSH2 0x22 PUSH2 0x32 PUSH1 0x20 SHL PUSH1 0x20 SHR JUMP JUMPDEST PUSH2 0x3A PUSH1 0x20 SHL PUSH1 0x20 SHR JUMP JUMPDEST PUSH2 0xFE JUMP JUMPDEST PUSH1 0x0 CALLER SWAP1 POP SWAP1 JUMP JUMPDEST PUSH1 0x0 DUP1 PUSH1 0x0 SWAP1 SLOAD SWAP1 PUSH2 0x100 EXP SWAP1 DIV PUSH20 0xFFFFFFFFFFFFFFFFFFFFFFFFFFFFFFFFFFFFFFFF AND SWAP1 POP DUP2 PUSH1 0x0 DUP1 PUSH2 0x100 EXP DUP2 SLOAD DUP2 PUSH20 0xFFFFFFFFFFFFFFFFFFFFFFFFFFFFFFFFFFFFFFFF MUL NOT AND SWAP1 DUP4 PUSH20 0xFFFFFFFFFFFFFFFFFFFFFFFFFFFFFFFFFFFFFFFF AND MUL OR SWAP1 SSTORE POP DUP2 PUSH20 0xFFFFFFFFFFFFFFFFFFFFFFFFFFFFFFFFFFFFFFFF AND DUP2 PUSH20 0xFFFFFFFFFFFFFFFFFFFFFFFFFFFFFFFFFFFFFFFF AND PUSH32 0x8BE0079C531659141344CD1FD0A4F28419497F9722A3DAAFE3B4186F6B6457E0 PUSH1 0x40 MLOAD PUSH1 0x40 MLOAD DUP1 SWAP2 SUB SWAP1 LOG3 POP POP JUMP JUMPDEST PUSH2 0x2280 DUP1 PUSH3 0x10E PUSH1 0x0 CODECOPY PUSH1 0x0 RETURN INVALID PUSH1 0x80 PUSH1 0x40 MSTORE CALLVALUE DUP1 ISZERO PUSH2 0x10 JUMPI PUSH1 0x0 DUP1 REVERT JUMPDEST POP PUSH1 0x4 CALLDATASIZE LT PUSH2 0x100 JUMPI PUSH1 0x0 CALLDATALOAD PUSH1 0xE0 SHR DUP1 PUSH4 0x97A012F7 GT PUSH2 0x97 JUMPI DUP1 PUSH4 0xBF9EB959 GT PUSH2 0x66 JUMPI DUP1 PUSH4 0xBF9EB959 EQ PUSH2 0x281 JUMPI DUP1 PUSH4 0xCF191BCD EQ PUSH2 0x29F JUMPI DUP1 PUSH4 0xE805CF86 EQ PUSH2 0x2BB JUMPI DUP1 PUSH4 0xF2FDE38B EQ PUSH2 0x2D7 JUMPI PUSH2 0x100 JUMP JUMPDEST DUP1 PUSH4 0x97A012F7 EQ PUSH2 0x211 JUMPI DUP1 PUSH4 0x97A6278E EQ PUSH2 0x22D JUMPI DUP1 PUSH4 0x9F3418D5 EQ PUSH2 0x249 JUMPI DUP1 PUSH4 0xA53410DD EQ PUSH2 0x265 JUMPI PUSH2 0x100 JUMP JUMPDEST DUP1 PUSH4 0x727E13BC GT PUSH2 0xD3 JUMPI DUP1 PUSH4 0x727E13BC EQ PUSH2 0x177 JUMPI DUP1 PUSH4 0x7988D3A5 EQ PUSH2 0x1A7 JUMPI DUP1 PUSH4 0x84E79842 EQ PUSH2 0x1D7 JUMPI DUP1 PUSH4 0x8DA5CB5B EQ PUSH2 0x1F3 JUMPI PUSH2 0x100 JUMP JUMPDEST DUP1 PUSH4 0x1FFBB064 EQ PUSH2 0x105 JUMPI DUP1 PUSH4 0x5CCBBE49 EQ PUSH2 0x135 JUMPI DUP1 PUSH4 0x690A49F9 EQ PUSH2 0x151 JUMPI DUP1 PUSH4 0x715018A6 EQ PUSH2 0x16D JUMPI JUMPDEST PUSH1 0x0 DUP1 REVERT JUMPDEST PUSH2 0x11F PUSH1 0x4 DUP1 CALLDATASIZE SUB DUP2 ADD SWAP1 PUSH2 0x11A SWAP2 SWAP1 PUSH2 0x17EB JUMP JUMPDEST PUSH2 0x2F3 JUMP JUMPDEST PUSH1 0x40 MLOAD PUSH2 0x12C SWAP2 SWAP1 PUSH2 0x1B6A JUMP JUMPDEST PUSH1 0x40 MLOAD DUP1 SWAP2 SUB SWAP1 RETURN JUMPDEST PUSH2 0x14F PUSH1 0x4 DUP1 CALLDATASIZE SUB DUP2 ADD SWAP1 PUSH2 0x14A SWAP2 SWAP1 PUSH2 0x17EB JUMP JUMPDEST PUSH2 0x310 JUMP JUMPDEST STOP JUMPDEST PUSH2 0x16B PUSH1 0x4 DUP1 CALLDATASIZE SUB DUP2 ADD SWAP1 PUSH2 0x166 SWAP2 SWAP1 PUSH2 0x17EB JUMP JUMPDEST PUSH2 0x398 JUMP JUMPDEST STOP JUMPDEST PUSH2 0x175 PUSH2 0x44A JUMP JUMPDEST STOP JUMPDEST PUSH2 0x191 PUSH1 0x4 DUP1 CALLDATASIZE SUB DUP2 ADD SWAP1 PUSH2 0x18C SWAP2 SWAP1 PUSH2 0x17EB JUMP JUMPDEST PUSH2 0x4D2 JUMP JUMPDEST PUSH1 0x40 MLOAD PUSH2 0x19E SWAP2 SWAP1 PUSH2 0x1D00 JUMP JUMPDEST PUSH1 0x40 MLOAD DUP1 SWAP2 SUB SWAP1 RETURN JUMPDEST PUSH2 0x1C1 PUSH1 0x4 DUP1 CALLDATASIZE SUB DUP2 ADD SWAP1 PUSH2 0x1BC SWAP2 SWAP1 PUSH2 0x17EB JUMP JUMPDEST PUSH2 0x52C JUMP JUMPDEST PUSH1 0x40 MLOAD PUSH2 0x1CE SWAP2 SWAP1 PUSH2 0x1B85 JUMP JUMPDEST PUSH1 0x40 MLOAD DUP1 SWAP2 SUB SWAP1 RETURN JUMPDEST PUSH2 0x1F1 PUSH1 0x4 DUP1 CALLDATASIZE SUB DUP2 ADD SWAP1 PUSH2 0x1EC SWAP2 SWAP1 PUSH2 0x17EB JUMP JUMPDEST PUSH2 0x598 JUMP JUMPDEST STOP JUMPDEST PUSH2 0x1FB PUSH2 0x66E JUMP JUMPDEST PUSH1 0x40 MLOAD PUSH2 0x208 SWAP2 SWAP1 PUSH2 0x1B2D JUMP JUMPDEST PUSH1 0x40 MLOAD DUP1 SWAP2 SUB SWAP1 RETURN JUMPDEST PUSH2 0x22B PUSH1 0x4 DUP1 CALLDATASIZE SUB DUP2 ADD SWAP1 PUSH2 0x226 SWAP2 SWAP1 PUSH2 0x17EB JUMP JUMPDEST PUSH2 0x697 JUMP JUMPDEST STOP JUMPDEST PUSH2 0x247 PUSH1 0x4 DUP1 CALLDATASIZE SUB DUP2 ADD SWAP1 PUSH2 0x242 SWAP2 SWAP1 PUSH2 0x17EB JUMP JUMPDEST PUSH2 0x8BD JUMP JUMPDEST STOP JUMPDEST PUSH2 0x263 PUSH1 0x4 DUP1 CALLDATASIZE SUB DUP2 ADD SWAP1 PUSH2 0x25E SWAP2 SWAP1 PUSH2 0x18AB JUMP JUMPDEST PUSH2 0x993 JUMP JUMPDEST STOP JUMPDEST PUSH2 0x27F PUSH1 0x4 DUP1 CALLDATASIZE SUB DUP2 ADD SWAP1 PUSH2 0x27A SWAP2 SWAP1 PUSH2 0x1858 JUMP JUMPDEST PUSH2 0xB56 JUMP JUMPDEST STOP JUMPDEST PUSH2 0x289 PUSH2 0xE1B JUMP JUMPDEST PUSH1 0x40 MLOAD PUSH2 0x296 SWAP2 SWAP1 PUSH2 0x1B48 JUMP JUMPDEST PUSH1 0x40 MLOAD DUP1 SWAP2 SUB SWAP1 RETURN JUMPDEST PUSH2 0x2B9 PUSH1 0x4 DUP1 CALLDATASIZE SUB DUP2 ADD SWAP1 PUSH2 0x2B4 SWAP2 SWAP1 PUSH2 0x17EB JUMP JUMPDEST PUSH2 0xEA9 JUMP JUMPDEST STOP JUMPDEST PUSH2 0x2D5 PUSH1 0x4 DUP1 CALLDATASIZE SUB DUP2 ADD SWAP1 PUSH2 0x2D0 SWAP2 SWAP1 PUSH2 0x1818 JUMP JUMPDEST PUSH2 0x1100 JUMP JUMPDEST STOP JUMPDEST PUSH2 0x2F1 PUSH1 0x4 DUP1 CALLDATASIZE SUB DUP2 ADD SWAP1 PUSH2 0x2EC SWAP2 SWAP1 PUSH2 0x17EB JUMP JUMPDEST PUSH2 0x13D1 JUMP JUMPDEST STOP JUMPDEST PUSH1 0x0 PUSH2 0x309 DUP3 PUSH1 0x1 PUSH2 0x14C9 SWAP1 SWAP2 SWAP1 PUSH4 0xFFFFFFFF AND JUMP JUMPDEST SWAP1 POP SWAP2 SWAP1 POP JUMP JUMPDEST PUSH2 0x318 PUSH2 0x1591 JUMP JUMPDEST PUSH20 0xFFFFFFFFFFFFFFFFFFFFFFFFFFFFFFFFFFFFFFFF AND PUSH2 0x336 PUSH2 0x66E JUMP JUMPDEST PUSH20 0xFFFFFFFFFFFFFFFFFFFFFFFFFFFFFFFFFFFFFFFF AND EQ PUSH2 0x38C JUMPI PUSH1 0x40 MLOAD PUSH32 0x8C379A000000000000000000000000000000000000000000000000000000000 DUP2 MSTORE PUSH1 0x4 ADD PUSH2 0x383 SWAP1 PUSH2 0x1C80 JUMP JUMPDEST PUSH1 0x40 MLOAD DUP1 SWAP2 SUB SWAP1 REVERT JUMPDEST PUSH2 0x395 DUP2 PUSH2 0x13D1 JUMP JUMPDEST POP JUMP JUMPDEST PUSH2 0x3A1 DUP2 PUSH2 0x598 JUMP JUMPDEST PUSH1 0x3 DUP2 SWAP1 DUP1 PUSH1 0x1 DUP2 SLOAD ADD DUP1 DUP3 SSTORE DUP1 SWAP2 POP POP PUSH1 0x1 SWAP1 SUB SWAP1 PUSH1 0x0 MSTORE PUSH1 0x20 PUSH1 0x0 KECCAK256 ADD PUSH1 0x0 SWAP1 SWAP2 SWAP1 SWAP2 SWAP1 SWAP2 PUSH2 0x100 EXP DUP2 SLOAD DUP2 PUSH20 0xFFFFFFFFFFFFFFFFFFFFFFFFFFFFFFFFFFFFFFFF MUL NOT AND SWAP1 DUP4 PUSH20 0xFFFFFFFFFFFFFFFFFFFFFFFFFFFFFFFFFFFFFFFF AND MUL OR SWAP1 SSTORE POP DUP1 PUSH20 0xFFFFFFFFFFFFFFFFFFFFFFFFFFFFFFFFFFFFFFFF AND PUSH32 0x500C250171AA20E861B680F93502547B9D436EDA7D4C537FC360DB6E0C6EEDFB PUSH1 0x40 MLOAD PUSH1 0x40 MLOAD DUP1 SWAP2 SUB SWAP1 LOG2 POP JUMP JUMPDEST PUSH2 0x452 PUSH2 0x1591 JUMP JUMPDEST PUSH20 0xFFFFFFFFFFFFFFFFFFFFFFFFFFFFFFFFFFFFFFFF AND PUSH2 0x470 PUSH2 0x66E JUMP JUMPDEST PUSH20 0xFFFFFFFFFFFFFFFFFFFFFFFFFFFFFFFFFFFFFFFF AND EQ PUSH2 0x4C6 JUMPI PUSH1 0x40 MLOAD PUSH32 0x8C379A000000000000000000000000000000000000000000000000000000000 DUP2 MSTORE PUSH1 0x4 ADD PUSH2 0x4BD SWAP1 PUSH2 0x1C80 JUMP JUMPDEST PUSH1 0x40 MLOAD DUP1 SWAP2 SUB SWAP1 REVERT JUMPDEST PUSH2 0x4D0 PUSH1 0x0 PUSH2 0x1599 JUMP JUMPDEST JUMP JUMPDEST PUSH1 0x0 PUSH1 0x2 PUSH1 0x0 DUP4 PUSH20 0xFFFFFFFFFFFFFFFFFFFFFFFFFFFFFFFFFFFFFFFF AND PUSH20 0xFFFFFFFFFFFFFFFFFFFFFFFFFFFFFFFFFFFFFFFF AND DUP2 MSTORE PUSH1 0x20 ADD SWAP1 DUP2 MSTORE PUSH1 0x20 ADD PUSH1 0x0 KECCAK256 PUSH1 0x0 ADD PUSH1 0x14 SWAP1 SLOAD SWAP1 PUSH2 0x100 EXP SWAP1 DIV PUSH2 0xFFFF AND SWAP1 POP SWAP2 SWAP1 POP JUMP JUMPDEST PUSH1 0x0 PUSH1 0x2 PUSH1 0x0 DUP4 PUSH20 0xFFFFFFFFFFFFFFFFFFFFFFFFFFFFFFFFFFFFFFFF AND PUSH20 0xFFFFFFFFFFFFFFFFFFFFFFFFFFFFFFFFFFFFFFFF AND DUP2 MSTORE PUSH1 0x20 ADD SWAP1 DUP2 MSTORE PUSH1 0x20 ADD PUSH1 0x0 KECCAK256 PUSH1 0x0 ADD PUSH1 0x0 SWAP1 SLOAD SWAP1 PUSH2 0x100 EXP SWAP1 DIV PUSH20 0xFFFFFFFFFFFFFFFFFFFFFFFFFFFFFFFFFFFFFFFF AND SWAP1 POP SWAP2 SWAP1 POP JUMP JUMPDEST PUSH2 0x5A0 PUSH2 0x1591 JUMP JUMPDEST PUSH20 0xFFFFFFFFFFFFFFFFFFFFFFFFFFFFFFFFFFFFFFFF AND PUSH2 0x5BE PUSH2 0x66E JUMP JUMPDEST PUSH20 0xFFFFFFFFFFFFFFFFFFFFFFFFFFFFFFFFFFFFFFFF AND EQ PUSH2 0x614 JUMPI PUSH1 0x40 MLOAD PUSH32 0x8C379A000000000000000000000000000000000000000000000000000000000 DUP2 MSTORE PUSH1 0x4 ADD PUSH2 0x60B SWAP1 PUSH2 0x1C80 JUMP JUMPDEST PUSH1 0x40 MLOAD DUP1 SWAP2 SUB SWAP1 REVERT JUMPDEST PUSH2 0x628 DUP2 PUSH1 0x1 PUSH2 0x165D SWAP1 SWAP2 SWAP1 PUSH4 0xFFFFFFFF AND JUMP JUMPDEST DUP1 PUSH20 0xFFFFFFFFFFFFFFFFFFFFFFFFFFFFFFFFFFFFFFFF AND PUSH32 0xF68E73CEC97F2D70AA641FB26E87A4383686E2EFACB648F2165AEB02AC562EC5 PUSH1 0x40 MLOAD PUSH1 0x40 MLOAD DUP1 SWAP2 SUB SWAP1 LOG2 POP JUMP JUMPDEST PUSH1 0x0 DUP1 PUSH1 0x0 SWAP1 SLOAD SWAP1 PUSH2 0x100 EXP SWAP1 DIV PUSH20 0xFFFFFFFFFFFFFFFFFFFFFFFFFFFFFFFFFFFFFFFF AND SWAP1 POP SWAP1 JUMP JUMPDEST PUSH1 0x0 PUSH1 0x3 DUP1 SLOAD SWAP1 POP GT PUSH2 0x6DF JUMPI PUSH1 0x40 MLOAD PUSH32 0x8C379A000000000000000000000000000000000000000000000000000000000 DUP2 MSTORE PUSH1 0x4 ADD PUSH2 0x6D6 SWAP1 PUSH2 0x1CC0 JUMP JUMPDEST PUSH1 0x40 MLOAD DUP1 SWAP2 SUB SWAP1 REVERT JUMPDEST PUSH1 0x0 PUSH1 0x3 DUP1 SLOAD SWAP1 POP SWAP1 POP PUSH1 0x0 JUMPDEST DUP2 DUP2 LT ISZERO PUSH2 0x86C JUMPI DUP3 PUSH20 0xFFFFFFFFFFFFFFFFFFFFFFFFFFFFFFFFFFFFFFFF AND PUSH1 0x3 DUP3 DUP2 SLOAD DUP2 LT PUSH2 0x71F JUMPI PUSH2 0x71E PUSH2 0x1EDE JUMP JUMPDEST JUMPDEST SWAP1 PUSH1 0x0 MSTORE PUSH1 0x20 PUSH1 0x0 KECCAK256 ADD PUSH1 0x0 SWAP1 SLOAD SWAP1 PUSH2 0x100 EXP SWAP1 DIV PUSH20 0xFFFFFFFFFFFFFFFFFFFFFFFFFFFFFFFFFFFFFFFF AND PUSH20 0xFFFFFFFFFFFFFFFFFFFFFFFFFFFFFFFFFFFFFFFF AND EQ ISZERO PUSH2 0x859 JUMPI PUSH1 0x3 PUSH1 0x1 DUP4 PUSH2 0x775 SWAP2 SWAP1 PUSH2 0x1D65 JUMP JUMPDEST DUP2 SLOAD DUP2 LT PUSH2 0x786 JUMPI PUSH2 0x785 PUSH2 0x1EDE JUMP JUMPDEST JUMPDEST SWAP1 PUSH1 0x0 MSTORE PUSH1 0x20 PUSH1 0x0 KECCAK256 ADD PUSH1 0x0 SWAP1 SLOAD SWAP1 PUSH2 0x100 EXP SWAP1 DIV PUSH20 0xFFFFFFFFFFFFFFFFFFFFFFFFFFFFFFFFFFFFFFFF AND PUSH1 0x3 DUP3 DUP2 SLOAD DUP2 LT PUSH2 0x7C5 JUMPI PUSH2 0x7C4 PUSH2 0x1EDE JUMP JUMPDEST JUMPDEST SWAP1 PUSH1 0x0 MSTORE PUSH1 0x20 PUSH1 0x0 KECCAK256 ADD PUSH1 0x0 PUSH2 0x100 EXP DUP2 SLOAD DUP2 PUSH20 0xFFFFFFFFFFFFFFFFFFFFFFFFFFFFFFFFFFFFFFFF MUL NOT AND SWAP1 DUP4 PUSH20 0xFFFFFFFFFFFFFFFFFFFFFFFFFFFFFFFFFFFFFFFF AND MUL OR SWAP1 SSTORE POP PUSH1 0x3 DUP1 SLOAD DUP1 PUSH2 0x81F JUMPI PUSH2 0x81E PUSH2 0x1EAF JUMP JUMPDEST JUMPDEST PUSH1 0x1 SWAP1 SUB DUP2 DUP2 SWAP1 PUSH1 0x0 MSTORE PUSH1 0x20 PUSH1 0x0 KECCAK256 ADD PUSH1 0x0 PUSH2 0x100 EXP DUP2 SLOAD SWAP1 PUSH20 0xFFFFFFFFFFFFFFFFFFFFFFFFFFFFFFFFFFFFFFFF MUL NOT AND SWAP1 SSTORE SWAP1 SSTORE PUSH2 0x86C JUMP JUMPDEST DUP1 DUP1 PUSH2 0x864 SWAP1 PUSH2 0x1E37 JUMP JUMPDEST SWAP2 POP POP PUSH2 0x6EC JUMP JUMPDEST POP PUSH2 0x876 DUP3 PUSH2 0x8BD JUMP JUMPDEST DUP2 PUSH20 0xFFFFFFFFFFFFFFFFFFFFFFFFFFFFFFFFFFFFFFFF AND PUSH32 0x51F353EB5801583FDF2706E43C045B62FDF6B1566820B349390616363ECF72C9 PUSH1 0x40 MLOAD PUSH1 0x40 MLOAD DUP1 SWAP2 SUB SWAP1 LOG2 POP POP JUMP JUMPDEST PUSH2 0x8C5 PUSH2 0x1591 JUMP JUMPDEST PUSH20 0xFFFFFFFFFFFFFFFFFFFFFFFFFFFFFFFFFFFFFFFF AND PUSH2 0x8E3 PUSH2 0x66E JUMP JUMPDEST PUSH20 0xFFFFFFFFFFFFFFFFFFFFFFFFFFFFFFFFFFFFFFFF AND EQ PUSH2 0x939 JUMPI PUSH1 0x40 MLOAD PUSH32 0x8C379A000000000000000000000000000000000000000000000000000000000 DUP2 MSTORE PUSH1 0x4 ADD PUSH2 0x930 SWAP1 PUSH2 0x1C80 JUMP JUMPDEST PUSH1 0x40 MLOAD DUP1 SWAP2 SUB SWAP1 REVERT JUMPDEST PUSH2 0x94D DUP2 PUSH1 0x1 PUSH2 0x1705 SWAP1 SWAP2 SWAP1 PUSH4 0xFFFFFFFF AND JUMP JUMPDEST DUP1 PUSH20 0xFFFFFFFFFFFFFFFFFFFFFFFFFFFFFFFFFFFFFFFF AND PUSH32 0xED9C8AD8D5A0A66898EA49D2956929C93AE2E8BD50281B2ED897C5D1A6737E0B PUSH1 0x40 MLOAD PUSH1 0x40 MLOAD DUP1 SWAP2 SUB SWAP1 LOG2 POP JUMP JUMPDEST PUSH2 0x99C CALLER PUSH2 0x2F3 JUMP JUMPDEST PUSH2 0x9DB JUMPI PUSH1 0x40 MLOAD PUSH32 0x8C379A000000000000000000000000000000000000000000000000000000000 DUP2 MSTORE PUSH1 0x4 ADD PUSH2 0x9D2 SWAP1 PUSH2 0x1C40 JUMP JUMPDEST PUSH1 0x40 MLOAD DUP1 SWAP2 SUB SWAP1 REVERT JUMPDEST PUSH1 0x0 PUSH20 0xFFFFFFFFFFFFFFFFFFFFFFFFFFFFFFFFFFFFFFFF AND PUSH1 0x2 PUSH1 0x0 DUP5 PUSH20 0xFFFFFFFFFFFFFFFFFFFFFFFFFFFFFFFFFFFFFFFF AND PUSH20 0xFFFFFFFFFFFFFFFFFFFFFFFFFFFFFFFFFFFFFFFF AND DUP2 MSTORE PUSH1 0x20 ADD SWAP1 DUP2 MSTORE PUSH1 0x20 ADD PUSH1 0x0 KECCAK256 PUSH1 0x0 ADD PUSH1 0x0 SWAP1 SLOAD SWAP1 PUSH2 0x100 EXP SWAP1 DIV PUSH20 0xFFFFFFFFFFFFFFFFFFFFFFFFFFFFFFFFFFFFFFFF AND PUSH20 0xFFFFFFFFFFFFFFFFFFFFFFFFFFFFFFFFFFFFFFFF AND EQ ISZERO PUSH2 0xAAD JUMPI PUSH1 0x40 MLOAD PUSH32 0x8C379A000000000000000000000000000000000000000000000000000000000 DUP2 MSTORE PUSH1 0x4 ADD PUSH2 0xAA4 SWAP1 PUSH2 0x1C20 JUMP JUMPDEST PUSH1 0x40 MLOAD DUP1 SWAP2 SUB SWAP1 REVERT JUMPDEST DUP1 PUSH1 0x2 PUSH1 0x0 DUP5 PUSH20 0xFFFFFFFFFFFFFFFFFFFFFFFFFFFFFFFFFFFFFFFF AND PUSH20 0xFFFFFFFFFFFFFFFFFFFFFFFFFFFFFFFFFFFFFFFF AND DUP2 MSTORE PUSH1 0x20 ADD SWAP1 DUP2 MSTORE PUSH1 0x20 ADD PUSH1 0x0 KECCAK256 PUSH1 0x0 ADD PUSH1 0x14 PUSH2 0x100 EXP DUP2 SLOAD DUP2 PUSH2 0xFFFF MUL NOT AND SWAP1 DUP4 PUSH2 0xFFFF AND MUL OR SWAP1 SSTORE POP DUP1 PUSH2 0xFFFF AND DUP3 PUSH20 0xFFFFFFFFFFFFFFFFFFFFFFFFFFFFFFFFFFFFFFFF AND PUSH32 0x20965FCDC6EED7AE398065B40ECE4E732BA667992CA819FC54E80E9F2047C4CF PUSH1 0x40 MLOAD PUSH1 0x40 MLOAD DUP1 SWAP2 SUB SWAP1 LOG3 POP POP JUMP JUMPDEST PUSH2 0xB5F CALLER PUSH2 0x2F3 JUMP JUMPDEST PUSH2 0xB9E JUMPI PUSH1 0x40 MLOAD PUSH32 0x8C379A000000000000000000000000000000000000000000000000000000000 DUP2 MSTORE PUSH1 0x4 ADD PUSH2 0xB95 SWAP1 PUSH2 0x1C40 JUMP JUMPDEST PUSH1 0x40 MLOAD DUP1 SWAP2 SUB SWAP1 REVERT JUMPDEST PUSH1 0x0 PUSH20 0xFFFFFFFFFFFFFFFFFFFFFFFFFFFFFFFFFFFFFFFF AND DUP3 PUSH20 0xFFFFFFFFFFFFFFFFFFFFFFFFFFFFFFFFFFFFFFFF AND EQ ISZERO PUSH2 0xC0E JUMPI PUSH1 0x40 MLOAD PUSH32 0x8C379A000000000000000000000000000000000000000000000000000000000 DUP2 MSTORE PUSH1 0x4 ADD PUSH2 0xC05 SWAP1 PUSH2 0x1C00 JUMP JUMPDEST PUSH1 0x40 MLOAD DUP1 SWAP2 SUB SWAP1 REVERT JUMPDEST PUSH1 0x0 PUSH20 0xFFFFFFFFFFFFFFFFFFFFFFFFFFFFFFFFFFFFFFFF AND PUSH1 0x2 PUSH1 0x0 DUP6 PUSH20 0xFFFFFFFFFFFFFFFFFFFFFFFFFFFFFFFFFFFFFFFF AND PUSH20 0xFFFFFFFFFFFFFFFFFFFFFFFFFFFFFFFFFFFFFFFF AND DUP2 MSTORE PUSH1 0x20 ADD SWAP1 DUP2 MSTORE PUSH1 0x20 ADD PUSH1 0x0 KECCAK256 PUSH1 0x0 ADD PUSH1 0x0 SWAP1 SLOAD SWAP1 PUSH2 0x100 EXP SWAP1 DIV PUSH20 0xFFFFFFFFFFFFFFFFFFFFFFFFFFFFFFFFFFFFFFFF AND PUSH20 0xFFFFFFFFFFFFFFFFFFFFFFFFFFFFFFFFFFFFFFFF AND EQ PUSH2 0xCDF JUMPI PUSH1 0x40 MLOAD PUSH32 0x8C379A000000000000000000000000000000000000000000000000000000000 DUP2 MSTORE PUSH1 0x4 ADD PUSH2 0xCD6 SWAP1 PUSH2 0x1CE0 JUMP JUMPDEST PUSH1 0x40 MLOAD DUP1 SWAP2 SUB SWAP1 REVERT JUMPDEST DUP2 PUSH1 0x2 PUSH1 0x0 DUP6 PUSH20 0xFFFFFFFFFFFFFFFFFFFFFFFFFFFFFFFFFFFFFFFF AND PUSH20 0xFFFFFFFFFFFFFFFFFFFFFFFFFFFFFFFFFFFFFFFF AND DUP2 MSTORE PUSH1 0x20 ADD SWAP1 DUP2 MSTORE PUSH1 0x20 ADD PUSH1 0x0 KECCAK256 PUSH1 0x0 ADD PUSH1 0x0 PUSH2 0x100 EXP DUP2 SLOAD DUP2 PUSH20 0xFFFFFFFFFFFFFFFFFFFFFFFFFFFFFFFFFFFFFFFF MUL NOT AND SWAP1 DUP4 PUSH20 0xFFFFFFFFFFFFFFFFFFFFFFFFFFFFFFFFFFFFFFFF AND MUL OR SWAP1 SSTORE POP DUP1 PUSH1 0x2 PUSH1 0x0 DUP6 PUSH20 0xFFFFFFFFFFFFFFFFFFFFFFFFFFFFFFFFFFFFFFFF AND PUSH20 0xFFFFFFFFFFFFFFFFFFFFFFFFFFFFFFFFFFFFFFFF AND DUP2 MSTORE PUSH1 0x20 ADD SWAP1 DUP2 MSTORE PUSH1 0x20 ADD PUSH1 0x0 KECCAK256 PUSH1 0x0 ADD PUSH1 0x14 PUSH2 0x100 EXP DUP2 SLOAD DUP2 PUSH2 0xFFFF MUL NOT AND SWAP1 DUP4 PUSH2 0xFFFF AND MUL OR SWAP1 SSTORE POP DUP2 PUSH20 0xFFFFFFFFFFFFFFFFFFFFFFFFFFFFFFFFFFFFFFFF AND DUP4 PUSH20 0xFFFFFFFFFFFFFFFFFFFFFFFFFFFFFFFFFFFFFFFF AND PUSH31 0x30DEA7E9C9AFAA2E3C9810F2FC9B5181F1BAD74CA5A8DB85F746A33585E747 PUSH1 0x40 MLOAD PUSH1 0x40 MLOAD DUP1 SWAP2 SUB SWAP1 LOG3 POP POP POP JUMP JUMPDEST PUSH1 0x60 PUSH1 0x3 DUP1 SLOAD DUP1 PUSH1 0x20 MUL PUSH1 0x20 ADD PUSH1 0x40 MLOAD SWAP1 DUP2 ADD PUSH1 0x40 MSTORE DUP1 SWAP3 SWAP2 SWAP1 DUP2 DUP2 MSTORE PUSH1 0x20 ADD DUP3 DUP1 SLOAD DUP1 ISZERO PUSH2 0xE9F JUMPI PUSH1 0x20 MUL DUP3 ADD SWAP2 SWAP1 PUSH1 0x0 MSTORE PUSH1 0x20 PUSH1 0x0 KECCAK256 SWAP1 JUMPDEST DUP2 PUSH1 0x0 SWAP1 SLOAD SWAP1 PUSH2 0x100 EXP SWAP1 DIV PUSH20 0xFFFFFFFFFFFFFFFFFFFFFFFFFFFFFFFFFFFFFFFF AND PUSH20 0xFFFFFFFFFFFFFFFFFFFFFFFFFFFFFFFFFFFFFFFF AND DUP2 MSTORE PUSH1 0x20 ADD SWAP1 PUSH1 0x1 ADD SWAP1 DUP1 DUP4 GT PUSH2 0xE55 JUMPI JUMPDEST POP POP POP POP POP SWAP1 POP SWAP1 JUMP JUMPDEST PUSH2 0xEB2 CALLER PUSH2 0x2F3 JUMP JUMPDEST PUSH2 0xEF1 JUMPI PUSH1 0x40 MLOAD PUSH32 0x8C379A000000000000000000000000000000000000000000000000000000000 DUP2 MSTORE PUSH1 0x4 ADD PUSH2 0xEE8 SWAP1 PUSH2 0x1C40 JUMP JUMPDEST PUSH1 0x40 MLOAD DUP1 SWAP2 SUB SWAP1 REVERT JUMPDEST PUSH1 0x0 PUSH20 0xFFFFFFFFFFFFFFFFFFFFFFFFFFFFFFFFFFFFFFFF AND PUSH1 0x2 PUSH1 0x0 DUP4 PUSH20 0xFFFFFFFFFFFFFFFFFFFFFFFFFFFFFFFFFFFFFFFF AND PUSH20 0xFFFFFFFFFFFFFFFFFFFFFFFFFFFFFFFFFFFFFFFF AND DUP2 MSTORE PUSH1 0x20 ADD SWAP1 DUP2 MSTORE PUSH1 0x20 ADD PUSH1 0x0 KECCAK256 PUSH1 0x0 ADD PUSH1 0x0 SWAP1 SLOAD SWAP1 PUSH2 0x100 EXP SWAP1 DIV PUSH20 0xFFFFFFFFFFFFFFFFFFFFFFFFFFFFFFFFFFFFFFFF AND PUSH20 0xFFFFFFFFFFFFFFFFFFFFFFFFFFFFFFFFFFFFFFFF AND EQ ISZERO PUSH2 0xFC3 JUMPI PUSH1 0x40 MLOAD PUSH32 0x8C379A000000000000000000000000000000000000000000000000000000000 DUP2 MSTORE PUSH1 0x4 ADD PUSH2 0xFBA SWAP1 PUSH2 0x1BE0 JUMP JUMPDEST PUSH1 0x40 MLOAD DUP1 SWAP2 SUB SWAP1 REVERT JUMPDEST PUSH1 0x2 PUSH1 0x0 DUP3 PUSH20 0xFFFFFFFFFFFFFFFFFFFFFFFFFFFFFFFFFFFFFFFF AND PUSH20 0xFFFFFFFFFFFFFFFFFFFFFFFFFFFFFFFFFFFFFFFF AND DUP2 MSTORE PUSH1 0x20 ADD SWAP1 DUP2 MSTORE PUSH1 0x20 ADD PUSH1 0x0 KECCAK256 PUSH1 0x0 DUP1 DUP3 ADD PUSH1 0x0 PUSH2 0x100 EXP DUP2 SLOAD SWAP1 PUSH20 0xFFFFFFFFFFFFFFFFFFFFFFFFFFFFFFFFFFFFFFFF MUL NOT AND SWAP1 SSTORE PUSH1 0x0 DUP3 ADD PUSH1 0x14 PUSH2 0x100 EXP DUP2 SLOAD SWAP1 PUSH2 0xFFFF MUL NOT AND SWAP1 SSTORE POP POP PUSH1 0x2 PUSH1 0x0 DUP3 PUSH20 0xFFFFFFFFFFFFFFFFFFFFFFFFFFFFFFFFFFFFFFFF AND PUSH20 0xFFFFFFFFFFFFFFFFFFFFFFFFFFFFFFFFFFFFFFFF AND DUP2 MSTORE PUSH1 0x20 ADD SWAP1 DUP2 MSTORE PUSH1 0x20 ADD PUSH1 0x0 KECCAK256 PUSH1 0x0 ADD PUSH1 0x0 SWAP1 SLOAD SWAP1 PUSH2 0x100 EXP SWAP1 DIV PUSH20 0xFFFFFFFFFFFFFFFFFFFFFFFFFFFFFFFFFFFFFFFF AND PUSH20 0xFFFFFFFFFFFFFFFFFFFFFFFFFFFFFFFFFFFFFFFF AND DUP2 PUSH20 0xFFFFFFFFFFFFFFFFFFFFFFFFFFFFFFFFFFFFFFFF AND PUSH32 0xCA6A4C3370B859312246E7F086284076E557997E10D856B716C23AB67067790B PUSH1 0x40 MLOAD PUSH1 0x40 MLOAD DUP1 SWAP2 SUB SWAP1 LOG3 POP JUMP JUMPDEST PUSH2 0x1109 CALLER PUSH2 0x2F3 JUMP JUMPDEST PUSH2 0x1148 JUMPI PUSH1 0x40 MLOAD PUSH32 0x8C379A000000000000000000000000000000000000000000000000000000000 DUP2 MSTORE PUSH1 0x4 ADD PUSH2 0x113F SWAP1 PUSH2 0x1C40 JUMP JUMPDEST PUSH1 0x40 MLOAD DUP1 SWAP2 SUB SWAP1 REVERT JUMPDEST PUSH1 0x0 PUSH20 0xFFFFFFFFFFFFFFFFFFFFFFFFFFFFFFFFFFFFFFFF AND PUSH1 0x2 PUSH1 0x0 DUP5 PUSH20 0xFFFFFFFFFFFFFFFFFFFFFFFFFFFFFFFFFFFFFFFF AND PUSH20 0xFFFFFFFFFFFFFFFFFFFFFFFFFFFFFFFFFFFFFFFF AND DUP2 MSTORE PUSH1 0x20 ADD SWAP1 DUP2 MSTORE PUSH1 0x20 ADD PUSH1 0x0 KECCAK256 PUSH1 0x0 ADD PUSH1 0x0 SWAP1 SLOAD SWAP1 PUSH2 0x100 EXP SWAP1 DIV PUSH20 0xFFFFFFFFFFFFFFFFFFFFFFFFFFFFFFFFFFFFFFFF AND PUSH20 0xFFFFFFFFFFFFFFFFFFFFFFFFFFFFFFFFFFFFFFFF AND EQ ISZERO PUSH2 0x121A JUMPI PUSH1 0x40 MLOAD PUSH32 0x8C379A000000000000000000000000000000000000000000000000000000000 DUP2 MSTORE PUSH1 0x4 ADD PUSH2 0x1211 SWAP1 PUSH2 0x1C20 JUMP JUMPDEST PUSH1 0x40 MLOAD DUP1 SWAP2 SUB SWAP1 REVERT JUMPDEST PUSH1 0x0 PUSH20 0xFFFFFFFFFFFFFFFFFFFFFFFFFFFFFFFFFFFFFFFF AND DUP2 PUSH20 0xFFFFFFFFFFFFFFFFFFFFFFFFFFFFFFFFFFFFFFFF AND EQ ISZERO PUSH2 0x128A JUMPI PUSH1 0x40 MLOAD PUSH32 0x8C379A000000000000000000000000000000000000000000000000000000000 DUP2 MSTORE PUSH1 0x4 ADD PUSH2 0x1281 SWAP1 PUSH2 0x1C00 JUMP JUMPDEST PUSH1 0x40 MLOAD DUP1 SWAP2 SUB SWAP1 REVERT JUMPDEST PUSH1 0x0 PUSH1 0x2 PUSH1 0x0 DUP5 PUSH20 0xFFFFFFFFFFFFFFFFFFFFFFFFFFFFFFFFFFFFFFFF AND PUSH20 0xFFFFFFFFFFFFFFFFFFFFFFFFFFFFFFFFFFFFFFFF AND DUP2 MSTORE PUSH1 0x20 ADD SWAP1 DUP2 MSTORE PUSH1 0x20 ADD PUSH1 0x0 KECCAK256 PUSH1 0x0 ADD PUSH1 0x0 SWAP1 SLOAD SWAP1 PUSH2 0x100 EXP SWAP1 DIV PUSH20 0xFFFFFFFFFFFFFFFFFFFFFFFFFFFFFFFFFFFFFFFF AND SWAP1 POP DUP2 PUSH1 0x2 PUSH1 0x0 DUP6 PUSH20 0xFFFFFFFFFFFFFFFFFFFFFFFFFFFFFFFFFFFFFFFF AND PUSH20 0xFFFFFFFFFFFFFFFFFFFFFFFFFFFFFFFFFFFFFFFF AND DUP2 MSTORE PUSH1 0x20 ADD SWAP1 DUP2 MSTORE PUSH1 0x20 ADD PUSH1 0x0 KECCAK256 PUSH1 0x0 ADD PUSH1 0x0 PUSH2 0x100 EXP DUP2 SLOAD DUP2 PUSH20 0xFFFFFFFFFFFFFFFFFFFFFFFFFFFFFFFFFFFFFFFF MUL NOT AND SWAP1 DUP4 PUSH20 0xFFFFFFFFFFFFFFFFFFFFFFFFFFFFFFFFFFFFFFFF AND MUL OR SWAP1 SSTORE POP DUP2 PUSH20 0xFFFFFFFFFFFFFFFFFFFFFFFFFFFFFFFFFFFFFFFF AND DUP2 PUSH20 0xFFFFFFFFFFFFFFFFFFFFFFFFFFFFFFFFFFFFFFFF AND PUSH32 0x556CE885DFCEA52155C773F1ED2E58781C51945C13030AB8F793C61F51D1B808 PUSH1 0x40 MLOAD PUSH1 0x40 MLOAD DUP1 SWAP2 SUB SWAP1 LOG3 POP POP POP JUMP JUMPDEST PUSH2 0x13D9 PUSH2 0x1591 JUMP JUMPDEST PUSH20 0xFFFFFFFFFFFFFFFFFFFFFFFFFFFFFFFFFFFFFFFF AND PUSH2 0x13F7 PUSH2 0x66E JUMP JUMPDEST PUSH20 0xFFFFFFFFFFFFFFFFFFFFFFFFFFFFFFFFFFFFFFFF AND EQ PUSH2 0x144D JUMPI PUSH1 0x40 MLOAD PUSH32 0x8C379A000000000000000000000000000000000000000000000000000000000 DUP2 MSTORE PUSH1 0x4 ADD PUSH2 0x1444 SWAP1 PUSH2 0x1C80 JUMP JUMPDEST PUSH1 0x40 MLOAD DUP1 SWAP2 SUB SWAP1 REVERT JUMPDEST PUSH1 0x0 PUSH20 0xFFFFFFFFFFFFFFFFFFFFFFFFFFFFFFFFFFFFFFFF AND DUP2 PUSH20 0xFFFFFFFFFFFFFFFFFFFFFFFFFFFFFFFFFFFFFFFF AND EQ ISZERO PUSH2 0x14BD JUMPI PUSH1 0x40 MLOAD PUSH32 0x8C379A000000000000000000000000000000000000000000000000000000000 DUP2 MSTORE PUSH1 0x4 ADD PUSH2 0x14B4 SWAP1 PUSH2 0x1BC0 JUMP JUMPDEST PUSH1 0x40 MLOAD DUP1 SWAP2 SUB SWAP1 REVERT JUMPDEST PUSH2 0x14C6 DUP2 PUSH2 0x1599 JUMP JUMPDEST POP JUMP JUMPDEST PUSH1 0x0 DUP1 PUSH20 0xFFFFFFFFFFFFFFFFFFFFFFFFFFFFFFFFFFFFFFFF AND DUP3 PUSH20 0xFFFFFFFFFFFFFFFFFFFFFFFFFFFFFFFFFFFFFFFF AND EQ ISZERO PUSH2 0x153A JUMPI PUSH1 0x40 MLOAD PUSH32 0x8C379A000000000000000000000000000000000000000000000000000000000 DUP2 MSTORE PUSH1 0x4 ADD PUSH2 0x1531 SWAP1 PUSH2 0x1CA0 JUMP JUMPDEST PUSH1 0x40 MLOAD DUP1 SWAP2 SUB SWAP1 REVERT JUMPDEST DUP3 PUSH1 0x0 ADD PUSH1 0x0 DUP4 PUSH20 0xFFFFFFFFFFFFFFFFFFFFFFFFFFFFFFFFFFFFFFFF AND PUSH20 0xFFFFFFFFFFFFFFFFFFFFFFFFFFFFFFFFFFFFFFFF AND DUP2 MSTORE PUSH1 0x20 ADD SWAP1 DUP2 MSTORE PUSH1 0x20 ADD PUSH1 0x0 KECCAK256 PUSH1 0x0 SWAP1 SLOAD SWAP1 PUSH2 0x100 EXP SWAP1 DIV PUSH1 0xFF AND SWAP1 POP SWAP3 SWAP2 POP POP JUMP JUMPDEST PUSH1 0x0 CALLER SWAP1 POP SWAP1 JUMP JUMPDEST PUSH1 0x0 DUP1 PUSH1 0x0 SWAP1 SLOAD SWAP1 PUSH2 0x100 EXP SWAP1 DIV PUSH20 0xFFFFFFFFFFFFFFFFFFFFFFFFFFFFFFFFFFFFFFFF AND SWAP1 POP DUP2 PUSH1 0x0 DUP1 PUSH2 0x100 EXP DUP2 SLOAD DUP2 PUSH20 0xFFFFFFFFFFFFFFFFFFFFFFFFFFFFFFFFFFFFFFFF MUL NOT AND SWAP1 DUP4 PUSH20 0xFFFFFFFFFFFFFFFFFFFFFFFFFFFFFFFFFFFFFFFF AND MUL OR SWAP1 SSTORE POP DUP2 PUSH20 0xFFFFFFFFFFFFFFFFFFFFFFFFFFFFFFFFFFFFFFFF AND DUP2 PUSH20 0xFFFFFFFFFFFFFFFFFFFFFFFFFFFFFFFFFFFFFFFF AND PUSH32 0x8BE0079C531659141344CD1FD0A4F28419497F9722A3DAAFE3B4186F6B6457E0 PUSH1 0x40 MLOAD PUSH1 0x40 MLOAD DUP1 SWAP2 SUB SWAP1 LOG3 POP POP JUMP JUMPDEST PUSH2 0x1667 DUP3 DUP3 PUSH2 0x14C9 JUMP JUMPDEST ISZERO PUSH2 0x16A7 JUMPI PUSH1 0x40 MLOAD PUSH32 0x8C379A000000000000000000000000000000000000000000000000000000000 DUP2 MSTORE PUSH1 0x4 ADD PUSH2 0x169E SWAP1 PUSH2 0x1BA0 JUMP JUMPDEST PUSH1 0x40 MLOAD DUP1 SWAP2 SUB SWAP1 REVERT JUMPDEST PUSH1 0x1 DUP3 PUSH1 0x0 ADD PUSH1 0x0 DUP4 PUSH20 0xFFFFFFFFFFFFFFFFFFFFFFFFFFFFFFFFFFFFFFFF AND PUSH20 0xFFFFFFFFFFFFFFFFFFFFFFFFFFFFFFFFFFFFFFFF AND DUP2 MSTORE PUSH1 0x20 ADD SWAP1 DUP2 MSTORE PUSH1 0x20 ADD PUSH1 0x0 KECCAK256 PUSH1 0x0 PUSH2 0x100 EXP DUP2 SLOAD DUP2 PUSH1 0xFF MUL NOT AND SWAP1 DUP4 ISZERO ISZERO MUL OR SWAP1 SSTORE POP POP POP JUMP JUMPDEST PUSH2 0x170F DUP3 DUP3 PUSH2 0x14C9 JUMP JUMPDEST PUSH2 0x174E JUMPI PUSH1 0x40 MLOAD PUSH32 0x8C379A000000000000000000000000000000000000000000000000000000000 DUP2 MSTORE PUSH1 0x4 ADD PUSH2 0x1745 SWAP1 PUSH2 0x1C60 JUMP JUMPDEST PUSH1 0x40 MLOAD DUP1 SWAP2 SUB SWAP1 REVERT JUMPDEST PUSH1 0x0 DUP3 PUSH1 0x0 ADD PUSH1 0x0 DUP4 PUSH20 0xFFFFFFFFFFFFFFFFFFFFFFFFFFFFFFFFFFFFFFFF AND PUSH20 0xFFFFFFFFFFFFFFFFFFFFFFFFFFFFFFFFFFFFFFFF AND DUP2 MSTORE PUSH1 0x20 ADD SWAP1 DUP2 MSTORE PUSH1 0x20 ADD PUSH1 0x0 KECCAK256 PUSH1 0x0 PUSH2 0x100 EXP DUP2 SLOAD DUP2 PUSH1 0xFF MUL NOT AND SWAP1 DUP4 ISZERO ISZERO MUL OR SWAP1 SSTORE POP POP POP JUMP JUMPDEST PUSH1 0x0 DUP2 CALLDATALOAD SWAP1 POP PUSH2 0x17BB DUP2 PUSH2 0x2205 JUMP JUMPDEST SWAP3 SWAP2 POP POP JUMP JUMPDEST PUSH1 0x0 DUP2 CALLDATALOAD SWAP1 POP PUSH2 0x17D0 DUP2 PUSH2 0x221C JUMP JUMPDEST SWAP3 SWAP2 POP POP JUMP JUMPDEST PUSH1 0x0 DUP2 CALLDATALOAD SWAP1 POP PUSH2 0x17E5 DUP2 PUSH2 0x2233 JUMP JUMPDEST SWAP3 SWAP2 POP POP JUMP JUMPDEST PUSH1 0x0 PUSH1 0x20 DUP3 DUP5 SUB SLT ISZERO PUSH2 0x1801 JUMPI PUSH2 0x1800 PUSH2 0x1F0D JUMP JUMPDEST JUMPDEST PUSH1 0x0 PUSH2 0x180F DUP5 DUP3 DUP6 ADD PUSH2 0x17AC JUMP JUMPDEST SWAP2 POP POP SWAP3 SWAP2 POP POP JUMP JUMPDEST PUSH1 0x0 DUP1 PUSH1 0x40 DUP4 DUP6 SUB SLT ISZERO PUSH2 0x182F JUMPI PUSH2 0x182E PUSH2 0x1F0D JUMP JUMPDEST JUMPDEST PUSH1 0x0 PUSH2 0x183D DUP6 DUP3 DUP7 ADD PUSH2 0x17AC JUMP JUMPDEST SWAP3 POP POP PUSH1 0x20 PUSH2 0x184E DUP6 DUP3 DUP7 ADD PUSH2 0x17C1 JUMP JUMPDEST SWAP2 POP POP SWAP3 POP SWAP3 SWAP1 POP JUMP JUMPDEST PUSH1 0x0 DUP1 PUSH1 0x0 PUSH1 0x60 DUP5 DUP7 SUB SLT ISZERO PUSH2 0x1871 JUMPI PUSH2 0x1870 PUSH2 0x1F0D JUMP JUMPDEST JUMPDEST PUSH1 0x0 PUSH2 0x187F DUP7 DUP3 DUP8 ADD PUSH2 0x17AC JUMP JUMPDEST SWAP4 POP POP PUSH1 0x20 PUSH2 0x1890 DUP7 DUP3 DUP8 ADD PUSH2 0x17C1 JUMP JUMPDEST SWAP3 POP POP PUSH1 0x40 PUSH2 0x18A1 DUP7 DUP3 DUP8 ADD PUSH2 0x17D6 JUMP JUMPDEST SWAP2 POP POP SWAP3 POP SWAP3 POP SWAP3 JUMP JUMPDEST PUSH1 0x0 DUP1 PUSH1 0x40 DUP4 DUP6 SUB SLT ISZERO PUSH2 0x18C2 JUMPI PUSH2 0x18C1 PUSH2 0x1F0D JUMP JUMPDEST JUMPDEST PUSH1 0x0 PUSH2 0x18D0 DUP6 DUP3 DUP7 ADD PUSH2 0x17AC JUMP JUMPDEST SWAP3 POP POP PUSH1 0x20 PUSH2 0x18E1 DUP6 DUP3 DUP7 ADD PUSH2 0x17D6 JUMP JUMPDEST SWAP2 POP POP SWAP3 POP SWAP3 SWAP1 POP JUMP JUMPDEST PUSH1 0x0 PUSH2 0x18F7 DUP4 DUP4 PUSH2 0x1903 JUMP JUMPDEST PUSH1 0x20 DUP4 ADD SWAP1 POP SWAP3 SWAP2 POP POP JUMP JUMPDEST PUSH2 0x190C DUP2 PUSH2 0x1D99 JUMP JUMPDEST DUP3 MSTORE POP POP JUMP JUMPDEST PUSH2 0x191B DUP2 PUSH2 0x1D99 JUMP JUMPDEST DUP3 MSTORE POP POP JUMP JUMPDEST PUSH1 0x0 PUSH2 0x192C DUP3 PUSH2 0x1D2B JUMP JUMPDEST PUSH2 0x1936 DUP2 DUP6 PUSH2 0x1D43 JUMP JUMPDEST SWAP4 POP PUSH2 0x1941 DUP4 PUSH2 0x1D1B JUMP JUMPDEST DUP1 PUSH1 0x0 JUMPDEST DUP4 DUP2 LT ISZERO PUSH2 0x1972 JUMPI DUP2 MLOAD PUSH2 0x1959 DUP9 DUP3 PUSH2 0x18EB JUMP JUMPDEST SWAP8 POP PUSH2 0x1964 DUP4 PUSH2 0x1D36 JUMP JUMPDEST SWAP3 POP POP PUSH1 0x1 DUP2 ADD SWAP1 POP PUSH2 0x1945 JUMP JUMPDEST POP DUP6 SWAP4 POP POP POP POP SWAP3 SWAP2 POP POP JUMP JUMPDEST PUSH2 0x1988 DUP2 PUSH2 0x1DAB JUMP JUMPDEST DUP3 MSTORE POP POP JUMP JUMPDEST PUSH2 0x1997 DUP2 PUSH2 0x1E01 JUMP JUMPDEST DUP3 MSTORE POP POP JUMP JUMPDEST PUSH1 0x0 PUSH2 0x19AA PUSH1 0x1F DUP4 PUSH2 0x1D54 JUMP JUMPDEST SWAP2 POP PUSH2 0x19B5 DUP3 PUSH2 0x1F12 JUMP JUMPDEST PUSH1 0x20 DUP3 ADD SWAP1 POP SWAP2 SWAP1 POP JUMP JUMPDEST PUSH1 0x0 PUSH2 0x19CD PUSH1 0x26 DUP4 PUSH2 0x1D54 JUMP JUMPDEST SWAP2 POP PUSH2 0x19D8 DUP3 PUSH2 0x1F3B JUMP JUMPDEST PUSH1 0x40 DUP3 ADD SWAP1 POP SWAP2 SWAP1 POP JUMP JUMPDEST PUSH1 0x0 PUSH2 0x19F0 PUSH1 0x26 DUP4 PUSH2 0x1D54 JUMP JUMPDEST SWAP2 POP PUSH2 0x19FB DUP3 PUSH2 0x1F8A JUMP JUMPDEST PUSH1 0x40 DUP3 ADD SWAP1 POP SWAP2 SWAP1 POP JUMP JUMPDEST PUSH1 0x0 PUSH2 0x1A13 PUSH1 0x28 DUP4 PUSH2 0x1D54 JUMP JUMPDEST SWAP2 POP PUSH2 0x1A1E DUP3 PUSH2 0x1FD9 JUMP JUMPDEST PUSH1 0x40 DUP3 ADD SWAP1 POP SWAP2 SWAP1 POP JUMP JUMPDEST PUSH1 0x0 PUSH2 0x1A36 PUSH1 0x24 DUP4 PUSH2 0x1D54 JUMP JUMPDEST SWAP2 POP PUSH2 0x1A41 DUP3 PUSH2 0x2028 JUMP JUMPDEST PUSH1 0x40 DUP3 ADD SWAP1 POP SWAP2 SWAP1 POP JUMP JUMPDEST PUSH1 0x0 PUSH2 0x1A59 PUSH1 0x2E DUP4 PUSH2 0x1D54 JUMP JUMPDEST SWAP2 POP PUSH2 0x1A64 DUP3 PUSH2 0x2077 JUMP JUMPDEST PUSH1 0x40 DUP3 ADD SWAP1 POP SWAP2 SWAP1 POP JUMP JUMPDEST PUSH1 0x0 PUSH2 0x1A7C PUSH1 0x21 DUP4 PUSH2 0x1D54 JUMP JUMPDEST SWAP2 POP PUSH2 0x1A87 DUP3 PUSH2 0x20C6 JUMP JUMPDEST PUSH1 0x40 DUP3 ADD SWAP1 POP SWAP2 SWAP1 POP JUMP JUMPDEST PUSH1 0x0 PUSH2 0x1A9F PUSH1 0x20 DUP4 PUSH2 0x1D54 JUMP JUMPDEST SWAP2 POP PUSH2 0x1AAA DUP3 PUSH2 0x2115 JUMP JUMPDEST PUSH1 0x20 DUP3 ADD SWAP1 POP SWAP2 SWAP1 POP JUMP JUMPDEST PUSH1 0x0 PUSH2 0x1AC2 PUSH1 0x22 DUP4 PUSH2 0x1D54 JUMP JUMPDEST SWAP2 POP PUSH2 0x1ACD DUP3 PUSH2 0x213E JUMP JUMPDEST PUSH1 0x40 DUP3 ADD SWAP1 POP SWAP2 SWAP1 POP JUMP JUMPDEST PUSH1 0x0 PUSH2 0x1AE5 PUSH1 0x1F DUP4 PUSH2 0x1D54 JUMP JUMPDEST SWAP2 POP PUSH2 0x1AF0 DUP3 PUSH2 0x218D JUMP JUMPDEST PUSH1 0x20 DUP3 ADD SWAP1 POP SWAP2 SWAP1 POP JUMP JUMPDEST PUSH1 0x0 PUSH2 0x1B08 PUSH1 0x33 DUP4 PUSH2 0x1D54 JUMP JUMPDEST SWAP2 POP PUSH2 0x1B13 DUP3 PUSH2 0x21B6 JUMP JUMPDEST PUSH1 0x40 DUP3 ADD SWAP1 POP SWAP2 SWAP1 POP JUMP JUMPDEST PUSH2 0x1B27 DUP2 PUSH2 0x1DC9 JUMP JUMPDEST DUP3 MSTORE POP POP JUMP JUMPDEST PUSH1 0x0 PUSH1 0x20 DUP3 ADD SWAP1 POP PUSH2 0x1B42 PUSH1 0x0 DUP4 ADD DUP5 PUSH2 0x1912 JUMP JUMPDEST SWAP3 SWAP2 POP POP JUMP JUMPDEST PUSH1 0x0 PUSH1 0x20 DUP3 ADD SWAP1 POP DUP2 DUP2 SUB PUSH1 0x0 DUP4 ADD MSTORE PUSH2 0x1B62 DUP2 DUP5 PUSH2 0x1921 JUMP JUMPDEST SWAP1 POP SWAP3 SWAP2 POP POP JUMP JUMPDEST PUSH1 0x0 PUSH1 0x20 DUP3 ADD SWAP1 POP PUSH2 0x1B7F PUSH1 0x0 DUP4 ADD DUP5 PUSH2 0x197F JUMP JUMPDEST SWAP3 SWAP2 POP POP JUMP JUMPDEST PUSH1 0x0 PUSH1 0x20 DUP3 ADD SWAP1 POP PUSH2 0x1B9A PUSH1 0x0 DUP4 ADD DUP5 PUSH2 0x198E JUMP JUMPDEST SWAP3 SWAP2 POP POP JUMP JUMPDEST PUSH1 0x0 PUSH1 0x20 DUP3 ADD SWAP1 POP DUP2 DUP2 SUB PUSH1 0x0 DUP4 ADD MSTORE PUSH2 0x1BB9 DUP2 PUSH2 0x199D JUMP JUMPDEST SWAP1 POP SWAP2 SWAP1 POP JUMP JUMPDEST PUSH1 0x0 PUSH1 0x20 DUP3 ADD SWAP1 POP DUP2 DUP2 SUB PUSH1 0x0 DUP4 ADD MSTORE PUSH2 0x1BD9 DUP2 PUSH2 0x19C0 JUMP JUMPDEST SWAP1 POP SWAP2 SWAP1 POP JUMP JUMPDEST PUSH1 0x0 PUSH1 0x20 DUP3 ADD SWAP1 POP DUP2 DUP2 SUB PUSH1 0x0 DUP4 ADD MSTORE PUSH2 0x1BF9 DUP2 PUSH2 0x19E3 JUMP JUMPDEST SWAP1 POP SWAP2 SWAP1 POP JUMP JUMPDEST PUSH1 0x0 PUSH1 0x20 DUP3 ADD SWAP1 POP DUP2 DUP2 SUB PUSH1 0x0 DUP4 ADD MSTORE PUSH2 0x1C19 DUP2 PUSH2 0x1A06 JUMP JUMPDEST SWAP1 POP SWAP2 SWAP1 POP JUMP JUMPDEST PUSH1 0x0 PUSH1 0x20 DUP3 ADD SWAP1 POP DUP2 DUP2 SUB PUSH1 0x0 DUP4 ADD MSTORE PUSH2 0x1C39 DUP2 PUSH2 0x1A29 JUMP JUMPDEST SWAP1 POP SWAP2 SWAP1 POP JUMP JUMPDEST PUSH1 0x0 PUSH1 0x20 DUP3 ADD SWAP1 POP DUP2 DUP2 SUB PUSH1 0x0 DUP4 ADD MSTORE PUSH2 0x1C59 DUP2 PUSH2 0x1A4C JUMP JUMPDEST SWAP1 POP SWAP2 SWAP1 POP JUMP JUMPDEST PUSH1 0x0 PUSH1 0x20 DUP3 ADD SWAP1 POP DUP2 DUP2 SUB PUSH1 0x0 DUP4 ADD MSTORE PUSH2 0x1C79 DUP2 PUSH2 0x1A6F JUMP JUMPDEST SWAP1 POP SWAP2 SWAP1 POP JUMP JUMPDEST PUSH1 0x0 PUSH1 0x20 DUP3 ADD SWAP1 POP DUP2 DUP2 SUB PUSH1 0x0 DUP4 ADD MSTORE PUSH2 0x1C99 DUP2 PUSH2 0x1A92 JUMP JUMPDEST SWAP1 POP SWAP2 SWAP1 POP JUMP JUMPDEST PUSH1 0x0 PUSH1 0x20 DUP3 ADD SWAP1 POP DUP2 DUP2 SUB PUSH1 0x0 DUP4 ADD MSTORE PUSH2 0x1CB9 DUP2 PUSH2 0x1AB5 JUMP JUMPDEST SWAP1 POP SWAP2 SWAP1 POP JUMP JUMPDEST PUSH1 0x0 PUSH1 0x20 DUP3 ADD SWAP1 POP DUP2 DUP2 SUB PUSH1 0x0 DUP4 ADD MSTORE PUSH2 0x1CD9 DUP2 PUSH2 0x1AD8 JUMP JUMPDEST SWAP1 POP SWAP2 SWAP1 POP JUMP JUMPDEST PUSH1 0x0 PUSH1 0x20 DUP3 ADD SWAP1 POP DUP2 DUP2 SUB PUSH1 0x0 DUP4 ADD MSTORE PUSH2 0x1CF9 DUP2 PUSH2 0x1AFB JUMP JUMPDEST SWAP1 POP SWAP2 SWAP1 POP JUMP JUMPDEST PUSH1 0x0 PUSH1 0x20 DUP3 ADD SWAP1 POP PUSH2 0x1D15 PUSH1 0x0 DUP4 ADD DUP5 PUSH2 0x1B1E JUMP JUMPDEST SWAP3 SWAP2 POP POP JUMP JUMPDEST PUSH1 0x0 DUP2 SWAP1 POP PUSH1 0x20 DUP3 ADD SWAP1 POP SWAP2 SWAP1 POP JUMP JUMPDEST PUSH1 0x0 DUP2 MLOAD SWAP1 POP SWAP2 SWAP1 POP JUMP JUMPDEST PUSH1 0x0 PUSH1 0x20 DUP3 ADD SWAP1 POP SWAP2 SWAP1 POP JUMP JUMPDEST PUSH1 0x0 DUP3 DUP3 MSTORE PUSH1 0x20 DUP3 ADD SWAP1 POP SWAP3 SWAP2 POP POP JUMP JUMPDEST PUSH1 0x0 DUP3 DUP3 MSTORE PUSH1 0x20 DUP3 ADD SWAP1 POP SWAP3 SWAP2 POP POP JUMP JUMPDEST PUSH1 0x0 PUSH2 0x1D70 DUP3 PUSH2 0x1DF7 JUMP JUMPDEST SWAP2 POP PUSH2 0x1D7B DUP4 PUSH2 0x1DF7 JUMP JUMPDEST SWAP3 POP DUP3 DUP3 LT ISZERO PUSH2 0x1D8E JUMPI PUSH2 0x1D8D PUSH2 0x1E80 JUMP JUMPDEST JUMPDEST DUP3 DUP3 SUB SWAP1 POP SWAP3 SWAP2 POP POP JUMP JUMPDEST PUSH1 0x0 PUSH2 0x1DA4 DUP3 PUSH2 0x1DD7 JUMP JUMPDEST SWAP1 POP SWAP2 SWAP1 POP JUMP JUMPDEST PUSH1 0x0 DUP2 ISZERO ISZERO SWAP1 POP SWAP2 SWAP1 POP JUMP JUMPDEST PUSH1 0x0 PUSH2 0x1DC2 DUP3 PUSH2 0x1D99 JUMP JUMPDEST SWAP1 POP SWAP2 SWAP1 POP JUMP JUMPDEST PUSH1 0x0 PUSH2 0xFFFF DUP3 AND SWAP1 POP SWAP2 SWAP1 POP JUMP JUMPDEST PUSH1 0x0 PUSH20 0xFFFFFFFFFFFFFFFFFFFFFFFFFFFFFFFFFFFFFFFF DUP3 AND SWAP1 POP SWAP2 SWAP1 POP JUMP JUMPDEST PUSH1 0x0 DUP2 SWAP1 POP SWAP2 SWAP1 POP JUMP JUMPDEST PUSH1 0x0 PUSH2 0x1E0C DUP3 PUSH2 0x1E13 JUMP JUMPDEST SWAP1 POP SWAP2 SWAP1 POP JUMP JUMPDEST PUSH1 0x0 PUSH2 0x1E1E DUP3 PUSH2 0x1E25 JUMP JUMPDEST SWAP1 POP SWAP2 SWAP1 POP JUMP JUMPDEST PUSH1 0x0 PUSH2 0x1E30 DUP3 PUSH2 0x1DD7 JUMP JUMPDEST SWAP1 POP SWAP2 SWAP1 POP JUMP JUMPDEST PUSH1 0x0 PUSH2 0x1E42 DUP3 PUSH2 0x1DF7 JUMP JUMPDEST SWAP2 POP PUSH32 0xFFFFFFFFFFFFFFFFFFFFFFFFFFFFFFFFFFFFFFFFFFFFFFFFFFFFFFFFFFFFFFFF DUP3 EQ ISZERO PUSH2 0x1E75 JUMPI PUSH2 0x1E74 PUSH2 0x1E80 JUMP JUMPDEST JUMPDEST PUSH1 0x1 DUP3 ADD SWAP1 POP SWAP2 SWAP1 POP JUMP JUMPDEST PUSH32 0x4E487B7100000000000000000000000000000000000000000000000000000000 PUSH1 0x0 MSTORE PUSH1 0x11 PUSH1 0x4 MSTORE PUSH1 0x24 PUSH1 0x0 REVERT JUMPDEST PUSH32 0x4E487B7100000000000000000000000000000000000000000000000000000000 PUSH1 0x0 MSTORE PUSH1 0x31 PUSH1 0x4 MSTORE PUSH1 0x24 PUSH1 0x0 REVERT JUMPDEST PUSH32 0x4E487B7100000000000000000000000000000000000000000000000000000000 PUSH1 0x0 MSTORE PUSH1 0x32 PUSH1 0x4 MSTORE PUSH1 0x24 PUSH1 0x0 REVERT JUMPDEST PUSH1 0x0 DUP1 REVERT JUMPDEST PUSH32 0x526F6C65733A206163636F756E7420616C72656164792068617320726F6C6500 PUSH1 0x0 DUP3 ADD MSTORE POP JUMP JUMPDEST PUSH32 0x4F776E61626C653A206E6577206F776E657220697320746865207A65726F2061 PUSH1 0x0 DUP3 ADD MSTORE PUSH32 0x6464726573730000000000000000000000000000000000000000000000000000 PUSH1 0x20 DUP3 ADD MSTORE POP JUMP JUMPDEST PUSH32 0x796F7520686176656E2774207265676973746572656420616E206964656E7469 PUSH1 0x0 DUP3 ADD MSTORE PUSH32 0x7479207965740000000000000000000000000000000000000000000000000000 PUSH1 0x20 DUP3 ADD MSTORE POP JUMP JUMPDEST PUSH32 0x636F6E747261637420616464726573732063616E27742062652061207A65726F PUSH1 0x0 DUP3 ADD MSTORE PUSH32 0x2061646472657373000000000000000000000000000000000000000000000000 PUSH1 0x20 DUP3 ADD MSTORE POP JUMP JUMPDEST PUSH32 0x74686973207573657220686173206E6F206964656E7469747920726567697374 PUSH1 0x0 DUP3 ADD MSTORE PUSH32 0x6572656400000000000000000000000000000000000000000000000000000000 PUSH1 0x20 DUP3 ADD MSTORE POP JUMP JUMPDEST PUSH32 0x4167656E74526F6C653A2063616C6C657220646F6573206E6F74206861766520 PUSH1 0x0 DUP3 ADD MSTORE PUSH32 0x746865204167656E7420726F6C65000000000000000000000000000000000000 PUSH1 0x20 DUP3 ADD MSTORE POP JUMP JUMPDEST PUSH32 0x526F6C65733A206163636F756E7420646F6573206E6F74206861766520726F6C PUSH1 0x0 DUP3 ADD MSTORE PUSH32 0x6500000000000000000000000000000000000000000000000000000000000000 PUSH1 0x20 DUP3 ADD MSTORE POP JUMP JUMPDEST PUSH32 0x4F776E61626C653A2063616C6C6572206973206E6F7420746865206F776E6572 PUSH1 0x0 DUP3 ADD MSTORE POP JUMP JUMPDEST PUSH32 0x526F6C65733A206163636F756E7420697320746865207A65726F206164647265 PUSH1 0x0 DUP3 ADD MSTORE PUSH32 0x7373000000000000000000000000000000000000000000000000000000000000 PUSH1 0x20 DUP3 ADD MSTORE POP JUMP JUMPDEST PUSH32 0x6964656E74697479207265676973747279206973206E6F742073746F72656400 PUSH1 0x0 DUP3 ADD MSTORE POP JUMP JUMPDEST PUSH32 0x6964656E7469747920636F6E747261637420616C726561647920657869737473 PUSH1 0x0 DUP3 ADD MSTORE PUSH32 0x2C20706C65617365207573652075706461746500000000000000000000000000 PUSH1 0x20 DUP3 ADD MSTORE POP JUMP JUMPDEST PUSH2 0x220E DUP2 PUSH2 0x1D99 JUMP JUMPDEST DUP2 EQ PUSH2 0x2219 JUMPI PUSH1 0x0 DUP1 REVERT JUMPDEST POP JUMP JUMPDEST PUSH2 0x2225 DUP2 PUSH2 0x1DB7 JUMP JUMPDEST DUP2 EQ PUSH2 0x2230 JUMPI PUSH1 0x0 DUP1 REVERT JUMPDEST POP JUMP JUMPDEST PUSH2 0x223C DUP2 PUSH2 0x1DC9 JUMP JUMPDEST DUP2 EQ PUSH2 0x2247 JUMPI PUSH1 0x0 DUP1 REVERT JUMPDEST POP JUMP INVALID LOG2 PUSH5 0x6970667358 0x22 SLT KECCAK256 SIGNEXTEND JUMPDEST 0xED 0xBE EXTCODECOPY GASLIMIT SAR 0x4E 0xD1 DUP16 0xE1 SWAP5 0xB4 0xD7 SWAP9 0xE8 SIGNEXTEND 0x24 DUP8 DUP9 SWAP1 CREATE2 LT 0x1F PUSH12 0xCB3199F410E5A564736F6C63 NUMBER STOP ADDMOD SMOD STOP CALLER "
				},
				"gasEstimates": {
					"creation": {
						"codeDepositCost": "1766400",
						"executionCost": "infinite",
						"totalCost": "infinite"
					},
					"external": {
						"addAgent(address)": "infinite",
						"addIdentityToStorage(address,address,uint16)": "infinite",
						"bindIdentityRegistry(address)": "infinite",
						"isAgent(address)": "infinite",
						"linkedIdentityRegistries()": "infinite",
						"modifyStoredIdentity(address,address)": "infinite",
						"modifyStoredInvestorCountry(address,uint16)": "infinite",
						"owner()": "2611",
						"removeAgent(address)": "infinite",
						"removeIdentityFromStorage(address)": "infinite",
						"renounceOwnership()": "30464",
						"storedIdentity(address)": "infinite",
						"storedInvestorCountry(address)": "2962",
						"transferOwnership(address)": "30811",
						"transferOwnershipOnIdentityRegistryStorage(address)": "infinite",
						"unbindIdentityRegistry(address)": "infinite"
					}
				},
				"methodIdentifiers": {
					"addAgent(address)": "84e79842",
					"addIdentityToStorage(address,address,uint16)": "a53410dd",
					"bindIdentityRegistry(address)": "690a49f9",
					"isAgent(address)": "1ffbb064",
					"linkedIdentityRegistries()": "bf9eb959",
					"modifyStoredIdentity(address,address)": "e805cf86",
					"modifyStoredInvestorCountry(address,uint16)": "9f3418d5",
					"owner()": "8da5cb5b",
					"removeAgent(address)": "97a6278e",
					"removeIdentityFromStorage(address)": "cf191bcd",
					"renounceOwnership()": "715018a6",
					"storedIdentity(address)": "7988d3a5",
					"storedInvestorCountry(address)": "727e13bc",
					"transferOwnership(address)": "f2fde38b",
					"transferOwnershipOnIdentityRegistryStorage(address)": "5ccbbe49",
					"unbindIdentityRegistry(address)": "97a012f7"
				}
			},
			"storageLayout": {
				"storage": [
					{
						"astId": 294,
						"contract": "contracts/registry/IdentityRegistryStorage.sol:IdentityRegistryStorage",
						"label": "_owner",
						"offset": 0,
						"slot": "0",
						"type": "t_address"
					},
					{
						"astId": 926,
						"contract": "contracts/registry/IdentityRegistryStorage.sol:IdentityRegistryStorage",
						"label": "_agents",
						"offset": 0,
						"slot": "1",
						"type": "t_struct(Role)996_storage"
					},
					{
						"astId": 554,
						"contract": "contracts/registry/IdentityRegistryStorage.sol:IdentityRegistryStorage",
						"label": "identities",
						"offset": 0,
						"slot": "2",
						"type": "t_mapping(t_address,t_struct(Identity)548_storage)"
					},
					{
						"astId": 558,
						"contract": "contracts/registry/IdentityRegistryStorage.sol:IdentityRegistryStorage",
						"label": "identityRegistries",
						"offset": 0,
						"slot": "3",
						"type": "t_array(t_address)dyn_storage"
					}
				],
				"types": {
					"t_address": {
						"encoding": "inplace",
						"label": "address",
						"numberOfBytes": "20"
					},
					"t_array(t_address)dyn_storage": {
						"base": "t_address",
						"encoding": "dynamic_array",
						"label": "address[]",
						"numberOfBytes": "32"
					},
					"t_bool": {
						"encoding": "inplace",
						"label": "bool",
						"numberOfBytes": "1"
					},
					"t_contract(IIdentity)286": {
						"encoding": "inplace",
						"label": "contract IIdentity",
						"numberOfBytes": "20"
					},
					"t_mapping(t_address,t_bool)": {
						"encoding": "mapping",
						"key": "t_address",
						"label": "mapping(address => bool)",
						"numberOfBytes": "32",
						"value": "t_bool"
					},
					"t_mapping(t_address,t_struct(Identity)548_storage)": {
						"encoding": "mapping",
						"key": "t_address",
						"label": "mapping(address => struct IdentityRegistryStorage.Identity)",
						"numberOfBytes": "32",
						"value": "t_struct(Identity)548_storage"
					},
					"t_struct(Identity)548_storage": {
						"encoding": "inplace",
						"label": "struct IdentityRegistryStorage.Identity",
						"members": [
							{
								"astId": 545,
								"contract": "contracts/registry/IdentityRegistryStorage.sol:IdentityRegistryStorage",
								"label": "identityContract",
								"offset": 0,
								"slot": "0",
								"type": "t_contract(IIdentity)286"
							},
							{
								"astId": 547,
								"contract": "contracts/registry/IdentityRegistryStorage.sol:IdentityRegistryStorage",
								"label": "investorCountry",
								"offset": 20,
								"slot": "0",
								"type": "t_uint16"
							}
						],
						"numberOfBytes": "32"
					},
					"t_struct(Role)996_storage": {
						"encoding": "inplace",
						"label": "struct Roles.Role",
						"members": [
							{
								"astId": 995,
								"contract": "contracts/registry/IdentityRegistryStorage.sol:IdentityRegistryStorage",
								"label": "bearer",
								"offset": 0,
								"slot": "0",
								"type": "t_mapping(t_address,t_bool)"
							}
						],
						"numberOfBytes": "32"
					},
					"t_uint16": {
						"encoding": "inplace",
						"label": "uint16",
						"numberOfBytes": "2"
					}
				}
			},
			"userdoc": {
				"events": {
					"CountryModified(address,uint16)": {
						"notice": "this event is emitted when an Identity's country has been updated  the event is emitted by the 'updateCountry' function  `investorAddress` is the address on which the country has been updated  `country` is the numeric code (ISO 3166-1) of the new country"
					},
					"IdentityModified(address,address)": {
						"notice": "this event is emitted when an Identity has been updated  the event is emitted by the 'updateIdentity' function  `oldIdentity` is the old Identity contract's address to update  `newIdentity` is the new Identity contract's"
					},
					"IdentityRegistryBound(address)": {
						"notice": "this event is emitted when an Identity Registry is bound to the storage contract  the event is emitted by the 'addIdentityRegistry' function  `identityRegistry` is the address of the identity registry added"
					},
					"IdentityRegistryUnbound(address)": {
						"notice": "this event is emitted when an Identity Registry is unbound from the storage contract  the event is emitted by the 'removeIdentityRegistry' function  `identityRegistry` is the address of the identity registry removed"
					},
					"IdentityStored(address,address)": {
						"notice": "this event is emitted when an Identity is registered into the storage contract.  the event is emitted by the 'registerIdentity' function  `investorAddress` is the address of the investor's wallet  `identity` is the address of the Identity smart contract (onchainID)"
					},
					"IdentityUnstored(address,address)": {
						"notice": "this event is emitted when an Identity is removed from the storage contract.  the event is emitted by the 'deleteIdentity' function  `investorAddress` is the address of the investor's wallet  `identity` is the address of the Identity smart contract (onchainID)"
					}
				},
				"kind": "user",
				"methods": {},
				"version": 1
			}
		}
	}
}