{
	"contracts/roles/AgentRole.sol": {
		"AgentRole": {
			"abi": [
				{
					"anonymous": false,
					"inputs": [
						{
							"indexed": true,
							"internalType": "address",
							"name": "_agent",
							"type": "address"
						}
					],
					"name": "AgentAdded",
					"type": "event"
				},
				{
					"anonymous": false,
					"inputs": [
						{
							"indexed": true,
							"internalType": "address",
							"name": "_agent",
							"type": "address"
						}
					],
					"name": "AgentRemoved",
					"type": "event"
				},
				{
					"anonymous": false,
					"inputs": [
						{
							"indexed": true,
							"internalType": "address",
							"name": "previousOwner",
							"type": "address"
						},
						{
							"indexed": true,
							"internalType": "address",
							"name": "newOwner",
							"type": "address"
						}
					],
					"name": "OwnershipTransferred",
					"type": "event"
				},
				{
					"inputs": [
						{
							"internalType": "address",
							"name": "_agent",
							"type": "address"
						}
					],
					"name": "addAgent",
					"outputs": [],
					"stateMutability": "nonpayable",
					"type": "function"
				},
				{
					"inputs": [
						{
							"internalType": "address",
							"name": "_agent",
							"type": "address"
						}
					],
					"name": "isAgent",
					"outputs": [
						{
							"internalType": "bool",
							"name": "",
							"type": "bool"
						}
					],
					"stateMutability": "view",
					"type": "function"
				},
				{
					"inputs": [],
					"name": "owner",
					"outputs": [
						{
							"internalType": "address",
							"name": "",
							"type": "address"
						}
					],
					"stateMutability": "view",
					"type": "function"
				},
				{
					"inputs": [
						{
							"internalType": "address",
							"name": "_agent",
							"type": "address"
						}
					],
					"name": "removeAgent",
					"outputs": [],
					"stateMutability": "nonpayable",
					"type": "function"
				},
				{
					"inputs": [],
					"name": "renounceOwnership",
					"outputs": [],
					"stateMutability": "nonpayable",
					"type": "function"
				},
				{
					"inputs": [
						{
							"internalType": "address",
							"name": "newOwner",
							"type": "address"
						}
					],
					"name": "transferOwnership",
					"outputs": [],
					"stateMutability": "nonpayable",
					"type": "function"
				}
			],
			"devdoc": {
				"kind": "dev",
				"methods": {
					"owner()": {
						"details": "Returns the address of the current owner."
					},
					"renounceOwnership()": {
						"details": "Leaves the contract without owner. It will not be possible to call `onlyOwner` functions anymore. Can only be called by the current owner. NOTE: Renouncing ownership will leave the contract without an owner, thereby removing any functionality that is only available to the owner."
					},
					"transferOwnership(address)": {
						"details": "Transfers ownership of the contract to a new account (`newOwner`). Can only be called by the current owner."
					}
				},
				"version": 1
			},
			"evm": {
				"assembly": "    /* \"contracts/roles/AgentRole.sol\":1195:1890  contract AgentRole is Ownable {... */\n  mstore(0x40, 0x80)\n  callvalue\n  dup1\n  iszero\n  tag_1\n  jumpi\n  0x00\n  dup1\n  revert\ntag_1:\n  pop\n    /* \"@openzeppelin/contracts/access/Ownable.sol\":867:890  _setOwner(_msgSender()) */\n  tag_4\n    /* \"@openzeppelin/contracts/access/Ownable.sol\":877:889  _msgSender() */\n  tag_5\n    /* \"@openzeppelin/contracts/access/Ownable.sol\":877:887  _msgSender */\n  shl(0x20, tag_6)\n    /* \"@openzeppelin/contracts/access/Ownable.sol\":877:889  _msgSender() */\n  0x20\n  shr\n  jump\t// in\ntag_5:\n    /* \"@openzeppelin/contracts/access/Ownable.sol\":867:876  _setOwner */\n  shl(0x20, tag_7)\n    /* \"@openzeppelin/contracts/access/Ownable.sol\":867:890  _setOwner(_msgSender()) */\n  0x20\n  shr\n  jump\t// in\ntag_4:\n    /* \"contracts/roles/AgentRole.sol\":1195:1890  contract AgentRole is Ownable {... */\n  jump(tag_8)\n    /* \"@openzeppelin/contracts/utils/Context.sol\":586:682  function _msgSender() internal view virtual returns (address) {... */\ntag_6:\n    /* \"@openzeppelin/contracts/utils/Context.sol\":639:646  address */\n  0x00\n    /* \"@openzeppelin/contracts/utils/Context.sol\":665:675  msg.sender */\n  caller\n    /* \"@openzeppelin/contracts/utils/Context.sol\":658:675  return msg.sender */\n  swap1\n  pop\n    /* \"@openzeppelin/contracts/utils/Context.sol\":586:682  function _msgSender() internal view virtual returns (address) {... */\n  swap1\n  jump\t// out\n    /* \"@openzeppelin/contracts/access/Ownable.sol\":2041:2210  function _setOwner(address newOwner) private {... */\ntag_7:\n    /* \"@openzeppelin/contracts/access/Ownable.sol\":2096:2112  address oldOwner */\n  0x00\n    /* \"@openzeppelin/contracts/access/Ownable.sol\":2115:2121  _owner */\n  dup1\n  0x00\n  swap1\n  sload\n  swap1\n  0x0100\n  exp\n  swap1\n  div\n  0xffffffffffffffffffffffffffffffffffffffff\n  and\n    /* \"@openzeppelin/contracts/access/Ownable.sol\":2096:2121  address oldOwner = _owner */\n  swap1\n  pop\n    /* \"@openzeppelin/contracts/access/Ownable.sol\":2140:2148  newOwner */\n  dup2\n    /* \"@openzeppelin/contracts/access/Ownable.sol\":2131:2137  _owner */\n  0x00\n  dup1\n    /* \"@openzeppelin/contracts/access/Ownable.sol\":2131:2148  _owner = newOwner */\n  0x0100\n  exp\n  dup2\n  sload\n  dup2\n  0xffffffffffffffffffffffffffffffffffffffff\n  mul\n  not\n  and\n  swap1\n  dup4\n  0xffffffffffffffffffffffffffffffffffffffff\n  and\n  mul\n  or\n  swap1\n  sstore\n  pop\n    /* \"@openzeppelin/contracts/access/Ownable.sol\":2194:2202  newOwner */\n  dup2\n    /* \"@openzeppelin/contracts/access/Ownable.sol\":2163:2203  OwnershipTransferred(oldOwner, newOwner) */\n  0xffffffffffffffffffffffffffffffffffffffff\n  and\n    /* \"@openzeppelin/contracts/access/Ownable.sol\":2184:2192  oldOwner */\n  dup2\n    /* \"@openzeppelin/contracts/access/Ownable.sol\":2163:2203  OwnershipTransferred(oldOwner, newOwner) */\n  0xffffffffffffffffffffffffffffffffffffffff\n  and\n  0x8be0079c531659141344cd1fd0a4f28419497f9722a3daafe3b4186f6b6457e0\n  mload(0x40)\n  mload(0x40)\n  dup1\n  swap2\n  sub\n  swap1\n  log3\n    /* \"@openzeppelin/contracts/access/Ownable.sol\":2086:2210  {... */\n  pop\n    /* \"@openzeppelin/contracts/access/Ownable.sol\":2041:2210  function _setOwner(address newOwner) private {... */\n  pop\n  jump\t// out\n    /* \"contracts/roles/AgentRole.sol\":1195:1890  contract AgentRole is Ownable {... */\ntag_8:\n  dataSize(sub_0)\n  dup1\n  dataOffset(sub_0)\n  0x00\n  codecopy\n  0x00\n  return\nstop\n\nsub_0: assembly {\n        /* \"contracts/roles/AgentRole.sol\":1195:1890  contract AgentRole is Ownable {... */\n      mstore(0x40, 0x80)\n      callvalue\n      dup1\n      iszero\n      tag_1\n      jumpi\n      0x00\n      dup1\n      revert\n    tag_1:\n      pop\n      jumpi(tag_2, lt(calldatasize, 0x04))\n      shr(0xe0, calldataload(0x00))\n      dup1\n      0x1ffbb064\n      eq\n      tag_3\n      jumpi\n      dup1\n      0x715018a6\n      eq\n      tag_4\n      jumpi\n      dup1\n      0x84e79842\n      eq\n      tag_5\n      jumpi\n      dup1\n      0x8da5cb5b\n      eq\n      tag_6\n      jumpi\n      dup1\n      0x97a6278e\n      eq\n      tag_7\n      jumpi\n      dup1\n      0xf2fde38b\n      eq\n      tag_8\n      jumpi\n    tag_2:\n      0x00\n      dup1\n      revert\n        /* \"contracts/roles/AgentRole.sol\":1525:1628  function isAgent(address _agent) public view returns (bool) {... */\n    tag_3:\n      tag_9\n      0x04\n      dup1\n      calldatasize\n      sub\n      dup2\n      add\n      swap1\n      tag_10\n      swap2\n      swap1\n      tag_11\n      jump\t// in\n    tag_10:\n      tag_12\n      jump\t// in\n    tag_9:\n      mload(0x40)\n      tag_13\n      swap2\n      swap1\n      tag_14\n      jump\t// in\n    tag_13:\n      mload(0x40)\n      dup1\n      swap2\n      sub\n      swap1\n      return\n        /* \"@openzeppelin/contracts/access/Ownable.sol\":1605:1697  function renounceOwnership() public virtual onlyOwner {... */\n    tag_4:\n      tag_15\n      tag_16\n      jump\t// in\n    tag_15:\n      stop\n        /* \"contracts/roles/AgentRole.sol\":1634:1754  function addAgent(address _agent) public onlyOwner {... */\n    tag_5:\n      tag_17\n      0x04\n      dup1\n      calldatasize\n      sub\n      dup2\n      add\n      swap1\n      tag_18\n      swap2\n      swap1\n      tag_11\n      jump\t// in\n    tag_18:\n      tag_19\n      jump\t// in\n    tag_17:\n      stop\n        /* \"@openzeppelin/contracts/access/Ownable.sol\":973:1058  function owner() public view virtual returns (address) {... */\n    tag_6:\n      tag_20\n      tag_21\n      jump\t// in\n    tag_20:\n      mload(0x40)\n      tag_22\n      swap2\n      swap1\n      tag_23\n      jump\t// in\n    tag_22:\n      mload(0x40)\n      dup1\n      swap2\n      sub\n      swap1\n      return\n        /* \"contracts/roles/AgentRole.sol\":1760:1888  function removeAgent(address _agent) public onlyOwner {... */\n    tag_7:\n      tag_24\n      0x04\n      dup1\n      calldatasize\n      sub\n      dup2\n      add\n      swap1\n      tag_25\n      swap2\n      swap1\n      tag_11\n      jump\t// in\n    tag_25:\n      tag_26\n      jump\t// in\n    tag_24:\n      stop\n        /* \"@openzeppelin/contracts/access/Ownable.sol\":1846:2035  function transferOwnership(address newOwner) public virtual onlyOwner {... */\n    tag_8:\n      tag_27\n      0x04\n      dup1\n      calldatasize\n      sub\n      dup2\n      add\n      swap1\n      tag_28\n      swap2\n      swap1\n      tag_11\n      jump\t// in\n    tag_28:\n      tag_29\n      jump\t// in\n    tag_27:\n      stop\n        /* \"contracts/roles/AgentRole.sol\":1525:1628  function isAgent(address _agent) public view returns (bool) {... */\n    tag_12:\n        /* \"contracts/roles/AgentRole.sol\":1579:1583  bool */\n      0x00\n        /* \"contracts/roles/AgentRole.sol\":1602:1621  _agents.has(_agent) */\n      tag_31\n        /* \"contracts/roles/AgentRole.sol\":1614:1620  _agent */\n      dup3\n        /* \"contracts/roles/AgentRole.sol\":1602:1609  _agents */\n      0x01\n        /* \"contracts/roles/AgentRole.sol\":1602:1613  _agents.has */\n      tag_32\n      swap1\n        /* \"contracts/roles/AgentRole.sol\":1602:1621  _agents.has(_agent) */\n      swap2\n      swap1\n      0xffffffff\n      and\n      jump\t// in\n    tag_31:\n        /* \"contracts/roles/AgentRole.sol\":1595:1621  return _agents.has(_agent) */\n      swap1\n      pop\n        /* \"contracts/roles/AgentRole.sol\":1525:1628  function isAgent(address _agent) public view returns (bool) {... */\n      swap2\n      swap1\n      pop\n      jump\t// out\n        /* \"@openzeppelin/contracts/access/Ownable.sol\":1605:1697  function renounceOwnership() public virtual onlyOwner {... */\n    tag_16:\n        /* \"@openzeppelin/contracts/access/Ownable.sol\":1196:1208  _msgSender() */\n      tag_34\n        /* \"@openzeppelin/contracts/access/Ownable.sol\":1196:1206  _msgSender */\n      tag_35\n        /* \"@openzeppelin/contracts/access/Ownable.sol\":1196:1208  _msgSender() */\n      jump\t// in\n    tag_34:\n        /* \"@openzeppelin/contracts/access/Ownable.sol\":1185:1208  owner() == _msgSender() */\n      0xffffffffffffffffffffffffffffffffffffffff\n      and\n        /* \"@openzeppelin/contracts/access/Ownable.sol\":1185:1192  owner() */\n      tag_36\n        /* \"@openzeppelin/contracts/access/Ownable.sol\":1185:1190  owner */\n      tag_21\n        /* \"@openzeppelin/contracts/access/Ownable.sol\":1185:1192  owner() */\n      jump\t// in\n    tag_36:\n        /* \"@openzeppelin/contracts/access/Ownable.sol\":1185:1208  owner() == _msgSender() */\n      0xffffffffffffffffffffffffffffffffffffffff\n      and\n      eq\n        /* \"@openzeppelin/contracts/access/Ownable.sol\":1177:1245  require(owner() == _msgSender(), \"Ownable: caller is not the owner\") */\n      tag_37\n      jumpi\n      mload(0x40)\n      0x08c379a000000000000000000000000000000000000000000000000000000000\n      dup2\n      mstore\n      0x04\n      add\n      tag_38\n      swap1\n      tag_39\n      jump\t// in\n    tag_38:\n      mload(0x40)\n      dup1\n      swap2\n      sub\n      swap1\n      revert\n    tag_37:\n        /* \"@openzeppelin/contracts/access/Ownable.sol\":1669:1690  _setOwner(address(0)) */\n      tag_41\n        /* \"@openzeppelin/contracts/access/Ownable.sol\":1687:1688  0 */\n      0x00\n        /* \"@openzeppelin/contracts/access/Ownable.sol\":1669:1678  _setOwner */\n      tag_42\n        /* \"@openzeppelin/contracts/access/Ownable.sol\":1669:1690  _setOwner(address(0)) */\n      jump\t// in\n    tag_41:\n        /* \"@openzeppelin/contracts/access/Ownable.sol\":1605:1697  function renounceOwnership() public virtual onlyOwner {... */\n      jump\t// out\n        /* \"contracts/roles/AgentRole.sol\":1634:1754  function addAgent(address _agent) public onlyOwner {... */\n    tag_19:\n        /* \"@openzeppelin/contracts/access/Ownable.sol\":1196:1208  _msgSender() */\n      tag_44\n        /* \"@openzeppelin/contracts/access/Ownable.sol\":1196:1206  _msgSender */\n      tag_35\n        /* \"@openzeppelin/contracts/access/Ownable.sol\":1196:1208  _msgSender() */\n      jump\t// in\n    tag_44:\n        /* \"@openzeppelin/contracts/access/Ownable.sol\":1185:1208  owner() == _msgSender() */\n      0xffffffffffffffffffffffffffffffffffffffff\n      and\n        /* \"@openzeppelin/contracts/access/Ownable.sol\":1185:1192  owner() */\n      tag_45\n        /* \"@openzeppelin/contracts/access/Ownable.sol\":1185:1190  owner */\n      tag_21\n        /* \"@openzeppelin/contracts/access/Ownable.sol\":1185:1192  owner() */\n      jump\t// in\n    tag_45:\n        /* \"@openzeppelin/contracts/access/Ownable.sol\":1185:1208  owner() == _msgSender() */\n      0xffffffffffffffffffffffffffffffffffffffff\n      and\n      eq\n        /* \"@openzeppelin/contracts/access/Ownable.sol\":1177:1245  require(owner() == _msgSender(), \"Ownable: caller is not the owner\") */\n      tag_46\n      jumpi\n      mload(0x40)\n      0x08c379a000000000000000000000000000000000000000000000000000000000\n      dup2\n      mstore\n      0x04\n      add\n      tag_47\n      swap1\n      tag_39\n      jump\t// in\n    tag_47:\n      mload(0x40)\n      dup1\n      swap2\n      sub\n      swap1\n      revert\n    tag_46:\n        /* \"contracts/roles/AgentRole.sol\":1695:1714  _agents.add(_agent) */\n      tag_49\n        /* \"contracts/roles/AgentRole.sol\":1707:1713  _agent */\n      dup2\n        /* \"contracts/roles/AgentRole.sol\":1695:1702  _agents */\n      0x01\n        /* \"contracts/roles/AgentRole.sol\":1695:1706  _agents.add */\n      tag_50\n      swap1\n        /* \"contracts/roles/AgentRole.sol\":1695:1714  _agents.add(_agent) */\n      swap2\n      swap1\n      0xffffffff\n      and\n      jump\t// in\n    tag_49:\n        /* \"contracts/roles/AgentRole.sol\":1740:1746  _agent */\n      dup1\n        /* \"contracts/roles/AgentRole.sol\":1729:1747  AgentAdded(_agent) */\n      0xffffffffffffffffffffffffffffffffffffffff\n      and\n      0xf68e73cec97f2d70aa641fb26e87a4383686e2efacb648f2165aeb02ac562ec5\n      mload(0x40)\n      mload(0x40)\n      dup1\n      swap2\n      sub\n      swap1\n      log2\n        /* \"contracts/roles/AgentRole.sol\":1634:1754  function addAgent(address _agent) public onlyOwner {... */\n      pop\n      jump\t// out\n        /* \"@openzeppelin/contracts/access/Ownable.sol\":973:1058  function owner() public view virtual returns (address) {... */\n    tag_21:\n        /* \"@openzeppelin/contracts/access/Ownable.sol\":1019:1026  address */\n      0x00\n        /* \"@openzeppelin/contracts/access/Ownable.sol\":1045:1051  _owner */\n      dup1\n      0x00\n      swap1\n      sload\n      swap1\n      0x0100\n      exp\n      swap1\n      div\n      0xffffffffffffffffffffffffffffffffffffffff\n      and\n        /* \"@openzeppelin/contracts/access/Ownable.sol\":1038:1051  return _owner */\n      swap1\n      pop\n        /* \"@openzeppelin/contracts/access/Ownable.sol\":973:1058  function owner() public view virtual returns (address) {... */\n      swap1\n      jump\t// out\n        /* \"contracts/roles/AgentRole.sol\":1760:1888  function removeAgent(address _agent) public onlyOwner {... */\n    tag_26:\n        /* \"@openzeppelin/contracts/access/Ownable.sol\":1196:1208  _msgSender() */\n      tag_53\n        /* \"@openzeppelin/contracts/access/Ownable.sol\":1196:1206  _msgSender */\n      tag_35\n        /* \"@openzeppelin/contracts/access/Ownable.sol\":1196:1208  _msgSender() */\n      jump\t// in\n    tag_53:\n        /* \"@openzeppelin/contracts/access/Ownable.sol\":1185:1208  owner() == _msgSender() */\n      0xffffffffffffffffffffffffffffffffffffffff\n      and\n        /* \"@openzeppelin/contracts/access/Ownable.sol\":1185:1192  owner() */\n      tag_54\n        /* \"@openzeppelin/contracts/access/Ownable.sol\":1185:1190  owner */\n      tag_21\n        /* \"@openzeppelin/contracts/access/Ownable.sol\":1185:1192  owner() */\n      jump\t// in\n    tag_54:\n        /* \"@openzeppelin/contracts/access/Ownable.sol\":1185:1208  owner() == _msgSender() */\n      0xffffffffffffffffffffffffffffffffffffffff\n      and\n      eq\n        /* \"@openzeppelin/contracts/access/Ownable.sol\":1177:1245  require(owner() == _msgSender(), \"Ownable: caller is not the owner\") */\n      tag_55\n      jumpi\n      mload(0x40)\n      0x08c379a000000000000000000000000000000000000000000000000000000000\n      dup2\n      mstore\n      0x04\n      add\n      tag_56\n      swap1\n      tag_39\n      jump\t// in\n    tag_56:\n      mload(0x40)\n      dup1\n      swap2\n      sub\n      swap1\n      revert\n    tag_55:\n        /* \"contracts/roles/AgentRole.sol\":1824:1846  _agents.remove(_agent) */\n      tag_58\n        /* \"contracts/roles/AgentRole.sol\":1839:1845  _agent */\n      dup2\n        /* \"contracts/roles/AgentRole.sol\":1824:1831  _agents */\n      0x01\n        /* \"contracts/roles/AgentRole.sol\":1824:1838  _agents.remove */\n      tag_59\n      swap1\n        /* \"contracts/roles/AgentRole.sol\":1824:1846  _agents.remove(_agent) */\n      swap2\n      swap1\n      0xffffffff\n      and\n      jump\t// in\n    tag_58:\n        /* \"contracts/roles/AgentRole.sol\":1874:1880  _agent */\n      dup1\n        /* \"contracts/roles/AgentRole.sol\":1861:1881  AgentRemoved(_agent) */\n      0xffffffffffffffffffffffffffffffffffffffff\n      and\n      0xed9c8ad8d5a0a66898ea49d2956929c93ae2e8bd50281b2ed897c5d1a6737e0b\n      mload(0x40)\n      mload(0x40)\n      dup1\n      swap2\n      sub\n      swap1\n      log2\n        /* \"contracts/roles/AgentRole.sol\":1760:1888  function removeAgent(address _agent) public onlyOwner {... */\n      pop\n      jump\t// out\n        /* \"@openzeppelin/contracts/access/Ownable.sol\":1846:2035  function transferOwnership(address newOwner) public virtual onlyOwner {... */\n    tag_29:\n        /* \"@openzeppelin/contracts/access/Ownable.sol\":1196:1208  _msgSender() */\n      tag_61\n        /* \"@openzeppelin/contracts/access/Ownable.sol\":1196:1206  _msgSender */\n      tag_35\n        /* \"@openzeppelin/contracts/access/Ownable.sol\":1196:1208  _msgSender() */\n      jump\t// in\n    tag_61:\n        /* \"@openzeppelin/contracts/access/Ownable.sol\":1185:1208  owner() == _msgSender() */\n      0xffffffffffffffffffffffffffffffffffffffff\n      and\n        /* \"@openzeppelin/contracts/access/Ownable.sol\":1185:1192  owner() */\n      tag_62\n        /* \"@openzeppelin/contracts/access/Ownable.sol\":1185:1190  owner */\n      tag_21\n        /* \"@openzeppelin/contracts/access/Ownable.sol\":1185:1192  owner() */\n      jump\t// in\n    tag_62:\n        /* \"@openzeppelin/contracts/access/Ownable.sol\":1185:1208  owner() == _msgSender() */\n      0xffffffffffffffffffffffffffffffffffffffff\n      and\n      eq\n        /* \"@openzeppelin/contracts/access/Ownable.sol\":1177:1245  require(owner() == _msgSender(), \"Ownable: caller is not the owner\") */\n      tag_63\n      jumpi\n      mload(0x40)\n      0x08c379a000000000000000000000000000000000000000000000000000000000\n      dup2\n      mstore\n      0x04\n      add\n      tag_64\n      swap1\n      tag_39\n      jump\t// in\n    tag_64:\n      mload(0x40)\n      dup1\n      swap2\n      sub\n      swap1\n      revert\n    tag_63:\n        /* \"@openzeppelin/contracts/access/Ownable.sol\":1954:1955  0 */\n      0x00\n        /* \"@openzeppelin/contracts/access/Ownable.sol\":1934:1956  newOwner != address(0) */\n      0xffffffffffffffffffffffffffffffffffffffff\n      and\n        /* \"@openzeppelin/contracts/access/Ownable.sol\":1934:1942  newOwner */\n      dup2\n        /* \"@openzeppelin/contracts/access/Ownable.sol\":1934:1956  newOwner != address(0) */\n      0xffffffffffffffffffffffffffffffffffffffff\n      and\n      eq\n      iszero\n        /* \"@openzeppelin/contracts/access/Ownable.sol\":1926:1999  require(newOwner != address(0), \"Ownable: new owner is the zero address\") */\n      tag_66\n      jumpi\n      mload(0x40)\n      0x08c379a000000000000000000000000000000000000000000000000000000000\n      dup2\n      mstore\n      0x04\n      add\n      tag_67\n      swap1\n      tag_68\n      jump\t// in\n    tag_67:\n      mload(0x40)\n      dup1\n      swap2\n      sub\n      swap1\n      revert\n    tag_66:\n        /* \"@openzeppelin/contracts/access/Ownable.sol\":2009:2028  _setOwner(newOwner) */\n      tag_69\n        /* \"@openzeppelin/contracts/access/Ownable.sol\":2019:2027  newOwner */\n      dup2\n        /* \"@openzeppelin/contracts/access/Ownable.sol\":2009:2018  _setOwner */\n      tag_42\n        /* \"@openzeppelin/contracts/access/Ownable.sol\":2009:2028  _setOwner(newOwner) */\n      jump\t// in\n    tag_69:\n        /* \"@openzeppelin/contracts/access/Ownable.sol\":1846:2035  function transferOwnership(address newOwner) public virtual onlyOwner {... */\n      pop\n      jump\t// out\n        /* \"contracts/roles/Roles.sol\":815:1015  function has(Role storage role, address account) internal view returns (bool) {... */\n    tag_32:\n        /* \"contracts/roles/Roles.sol\":887:891  bool */\n      0x00\n        /* \"contracts/roles/Roles.sol\":930:931  0 */\n      dup1\n        /* \"contracts/roles/Roles.sol\":911:932  account != address(0) */\n      0xffffffffffffffffffffffffffffffffffffffff\n      and\n        /* \"contracts/roles/Roles.sol\":911:918  account */\n      dup3\n        /* \"contracts/roles/Roles.sol\":911:932  account != address(0) */\n      0xffffffffffffffffffffffffffffffffffffffff\n      and\n      eq\n      iszero\n        /* \"contracts/roles/Roles.sol\":903:971  require(account != address(0), 'Roles: account is the zero address') */\n      tag_71\n      jumpi\n      mload(0x40)\n      0x08c379a000000000000000000000000000000000000000000000000000000000\n      dup2\n      mstore\n      0x04\n      add\n      tag_72\n      swap1\n      tag_73\n      jump\t// in\n    tag_72:\n      mload(0x40)\n      dup1\n      swap2\n      sub\n      swap1\n      revert\n    tag_71:\n        /* \"contracts/roles/Roles.sol\":988:992  role */\n      dup3\n        /* \"contracts/roles/Roles.sol\":988:999  role.bearer */\n      0x00\n      add\n        /* \"contracts/roles/Roles.sol\":988:1008  role.bearer[account] */\n      0x00\n        /* \"contracts/roles/Roles.sol\":1000:1007  account */\n      dup4\n        /* \"contracts/roles/Roles.sol\":988:1008  role.bearer[account] */\n      0xffffffffffffffffffffffffffffffffffffffff\n      and\n      0xffffffffffffffffffffffffffffffffffffffff\n      and\n      dup2\n      mstore\n      0x20\n      add\n      swap1\n      dup2\n      mstore\n      0x20\n      add\n      0x00\n      keccak256\n      0x00\n      swap1\n      sload\n      swap1\n      0x0100\n      exp\n      swap1\n      div\n      0xff\n      and\n        /* \"contracts/roles/Roles.sol\":981:1008  return role.bearer[account] */\n      swap1\n      pop\n        /* \"contracts/roles/Roles.sol\":815:1015  function has(Role storage role, address account) internal view returns (bool) {... */\n      swap3\n      swap2\n      pop\n      pop\n      jump\t// out\n        /* \"@openzeppelin/contracts/utils/Context.sol\":586:682  function _msgSender() internal view virtual returns (address) {... */\n    tag_35:\n        /* \"@openzeppelin/contracts/utils/Context.sol\":639:646  address */\n      0x00\n        /* \"@openzeppelin/contracts/utils/Context.sol\":665:675  msg.sender */\n      caller\n        /* \"@openzeppelin/contracts/utils/Context.sol\":658:675  return msg.sender */\n      swap1\n      pop\n        /* \"@openzeppelin/contracts/utils/Context.sol\":586:682  function _msgSender() internal view virtual returns (address) {... */\n      swap1\n      jump\t// out\n        /* \"@openzeppelin/contracts/access/Ownable.sol\":2041:2210  function _setOwner(address newOwner) private {... */\n    tag_42:\n        /* \"@openzeppelin/contracts/access/Ownable.sol\":2096:2112  address oldOwner */\n      0x00\n        /* \"@openzeppelin/contracts/access/Ownable.sol\":2115:2121  _owner */\n      dup1\n      0x00\n      swap1\n      sload\n      swap1\n      0x0100\n      exp\n      swap1\n      div\n      0xffffffffffffffffffffffffffffffffffffffff\n      and\n        /* \"@openzeppelin/contracts/access/Ownable.sol\":2096:2121  address oldOwner = _owner */\n      swap1\n      pop\n        /* \"@openzeppelin/contracts/access/Ownable.sol\":2140:2148  newOwner */\n      dup2\n        /* \"@openzeppelin/contracts/access/Ownable.sol\":2131:2137  _owner */\n      0x00\n      dup1\n        /* \"@openzeppelin/contracts/access/Ownable.sol\":2131:2148  _owner = newOwner */\n      0x0100\n      exp\n      dup2\n      sload\n      dup2\n      0xffffffffffffffffffffffffffffffffffffffff\n      mul\n      not\n      and\n      swap1\n      dup4\n      0xffffffffffffffffffffffffffffffffffffffff\n      and\n      mul\n      or\n      swap1\n      sstore\n      pop\n        /* \"@openzeppelin/contracts/access/Ownable.sol\":2194:2202  newOwner */\n      dup2\n        /* \"@openzeppelin/contracts/access/Ownable.sol\":2163:2203  OwnershipTransferred(oldOwner, newOwner) */\n      0xffffffffffffffffffffffffffffffffffffffff\n      and\n        /* \"@openzeppelin/contracts/access/Ownable.sol\":2184:2192  oldOwner */\n      dup2\n        /* \"@openzeppelin/contracts/access/Ownable.sol\":2163:2203  OwnershipTransferred(oldOwner, newOwner) */\n      0xffffffffffffffffffffffffffffffffffffffff\n      and\n      0x8be0079c531659141344cd1fd0a4f28419497f9722a3daafe3b4186f6b6457e0\n      mload(0x40)\n      mload(0x40)\n      dup1\n      swap2\n      sub\n      swap1\n      log3\n        /* \"@openzeppelin/contracts/access/Ownable.sol\":2086:2210  {... */\n      pop\n        /* \"@openzeppelin/contracts/access/Ownable.sol\":2041:2210  function _setOwner(address newOwner) private {... */\n      pop\n      jump\t// out\n        /* \"contracts/roles/Roles.sol\":296:471  function add(Role storage role, address account) internal {... */\n    tag_50:\n        /* \"contracts/roles/Roles.sol\":373:391  has(role, account) */\n      tag_77\n        /* \"contracts/roles/Roles.sol\":377:381  role */\n      dup3\n        /* \"contracts/roles/Roles.sol\":383:390  account */\n      dup3\n        /* \"contracts/roles/Roles.sol\":373:376  has */\n      tag_32\n        /* \"contracts/roles/Roles.sol\":373:391  has(role, account) */\n      jump\t// in\n    tag_77:\n        /* \"contracts/roles/Roles.sol\":372:391  !has(role, account) */\n      iszero\n        /* \"contracts/roles/Roles.sol\":364:427  require(!has(role, account), 'Roles: account already has role') */\n      tag_78\n      jumpi\n      mload(0x40)\n      0x08c379a000000000000000000000000000000000000000000000000000000000\n      dup2\n      mstore\n      0x04\n      add\n      tag_79\n      swap1\n      tag_80\n      jump\t// in\n    tag_79:\n      mload(0x40)\n      dup1\n      swap2\n      sub\n      swap1\n      revert\n    tag_78:\n        /* \"contracts/roles/Roles.sol\":460:464  true */\n      0x01\n        /* \"contracts/roles/Roles.sol\":437:441  role */\n      dup3\n        /* \"contracts/roles/Roles.sol\":437:448  role.bearer */\n      0x00\n      add\n        /* \"contracts/roles/Roles.sol\":437:457  role.bearer[account] */\n      0x00\n        /* \"contracts/roles/Roles.sol\":449:456  account */\n      dup4\n        /* \"contracts/roles/Roles.sol\":437:457  role.bearer[account] */\n      0xffffffffffffffffffffffffffffffffffffffff\n      and\n      0xffffffffffffffffffffffffffffffffffffffff\n      and\n      dup2\n      mstore\n      0x20\n      add\n      swap1\n      dup2\n      mstore\n      0x20\n      add\n      0x00\n      keccak256\n      0x00\n        /* \"contracts/roles/Roles.sol\":437:464  role.bearer[account] = true */\n      0x0100\n      exp\n      dup2\n      sload\n      dup2\n      0xff\n      mul\n      not\n      and\n      swap1\n      dup4\n      iszero\n      iszero\n      mul\n      or\n      swap1\n      sstore\n      pop\n        /* \"contracts/roles/Roles.sol\":296:471  function add(Role storage role, address account) internal {... */\n      pop\n      pop\n      jump\t// out\n        /* \"contracts/roles/Roles.sol\":546:726  function remove(Role storage role, address account) internal {... */\n    tag_59:\n        /* \"contracts/roles/Roles.sol\":625:643  has(role, account) */\n      tag_82\n        /* \"contracts/roles/Roles.sol\":629:633  role */\n      dup3\n        /* \"contracts/roles/Roles.sol\":635:642  account */\n      dup3\n        /* \"contracts/roles/Roles.sol\":625:628  has */\n      tag_32\n        /* \"contracts/roles/Roles.sol\":625:643  has(role, account) */\n      jump\t// in\n    tag_82:\n        /* \"contracts/roles/Roles.sol\":617:681  require(has(role, account), 'Roles: account does not have role') */\n      tag_83\n      jumpi\n      mload(0x40)\n      0x08c379a000000000000000000000000000000000000000000000000000000000\n      dup2\n      mstore\n      0x04\n      add\n      tag_84\n      swap1\n      tag_85\n      jump\t// in\n    tag_84:\n      mload(0x40)\n      dup1\n      swap2\n      sub\n      swap1\n      revert\n    tag_83:\n        /* \"contracts/roles/Roles.sol\":714:719  false */\n      0x00\n        /* \"contracts/roles/Roles.sol\":691:695  role */\n      dup3\n        /* \"contracts/roles/Roles.sol\":691:702  role.bearer */\n      0x00\n      add\n        /* \"contracts/roles/Roles.sol\":691:711  role.bearer[account] */\n      0x00\n        /* \"contracts/roles/Roles.sol\":703:710  account */\n      dup4\n        /* \"contracts/roles/Roles.sol\":691:711  role.bearer[account] */\n      0xffffffffffffffffffffffffffffffffffffffff\n      and\n      0xffffffffffffffffffffffffffffffffffffffff\n      and\n      dup2\n      mstore\n      0x20\n      add\n      swap1\n      dup2\n      mstore\n      0x20\n      add\n      0x00\n      keccak256\n      0x00\n        /* \"contracts/roles/Roles.sol\":691:719  role.bearer[account] = false */\n      0x0100\n      exp\n      dup2\n      sload\n      dup2\n      0xff\n      mul\n      not\n      and\n      swap1\n      dup4\n      iszero\n      iszero\n      mul\n      or\n      swap1\n      sstore\n      pop\n        /* \"contracts/roles/Roles.sol\":546:726  function remove(Role storage role, address account) internal {... */\n      pop\n      pop\n      jump\t// out\n        /* \"#utility.yul\":7:146   */\n    tag_87:\n        /* \"#utility.yul\":53:58   */\n      0x00\n        /* \"#utility.yul\":91:97   */\n      dup2\n        /* \"#utility.yul\":78:98   */\n      calldataload\n        /* \"#utility.yul\":69:98   */\n      swap1\n      pop\n        /* \"#utility.yul\":107:140   */\n      tag_89\n        /* \"#utility.yul\":134:139   */\n      dup2\n        /* \"#utility.yul\":107:140   */\n      tag_90\n      jump\t// in\n    tag_89:\n        /* \"#utility.yul\":7:146   */\n      swap3\n      swap2\n      pop\n      pop\n      jump\t// out\n        /* \"#utility.yul\":152:481   */\n    tag_11:\n        /* \"#utility.yul\":211:217   */\n      0x00\n        /* \"#utility.yul\":260:262   */\n      0x20\n        /* \"#utility.yul\":248:257   */\n      dup3\n        /* \"#utility.yul\":239:246   */\n      dup5\n        /* \"#utility.yul\":235:258   */\n      sub\n        /* \"#utility.yul\":231:263   */\n      slt\n        /* \"#utility.yul\":228:347   */\n      iszero\n      tag_92\n      jumpi\n        /* \"#utility.yul\":266:345   */\n      tag_93\n      tag_94\n      jump\t// in\n    tag_93:\n        /* \"#utility.yul\":228:347   */\n    tag_92:\n        /* \"#utility.yul\":386:387   */\n      0x00\n        /* \"#utility.yul\":411:464   */\n      tag_95\n        /* \"#utility.yul\":456:463   */\n      dup5\n        /* \"#utility.yul\":447:453   */\n      dup3\n        /* \"#utility.yul\":436:445   */\n      dup6\n        /* \"#utility.yul\":432:454   */\n      add\n        /* \"#utility.yul\":411:464   */\n      tag_87\n      jump\t// in\n    tag_95:\n        /* \"#utility.yul\":401:464   */\n      swap2\n      pop\n        /* \"#utility.yul\":357:474   */\n      pop\n        /* \"#utility.yul\":152:481   */\n      swap3\n      swap2\n      pop\n      pop\n      jump\t// out\n        /* \"#utility.yul\":487:605   */\n    tag_96:\n        /* \"#utility.yul\":574:598   */\n      tag_98\n        /* \"#utility.yul\":592:597   */\n      dup2\n        /* \"#utility.yul\":574:598   */\n      tag_99\n      jump\t// in\n    tag_98:\n        /* \"#utility.yul\":569:572   */\n      dup3\n        /* \"#utility.yul\":562:599   */\n      mstore\n        /* \"#utility.yul\":487:605   */\n      pop\n      pop\n      jump\t// out\n        /* \"#utility.yul\":611:720   */\n    tag_100:\n        /* \"#utility.yul\":692:713   */\n      tag_102\n        /* \"#utility.yul\":707:712   */\n      dup2\n        /* \"#utility.yul\":692:713   */\n      tag_103\n      jump\t// in\n    tag_102:\n        /* \"#utility.yul\":687:690   */\n      dup3\n        /* \"#utility.yul\":680:714   */\n      mstore\n        /* \"#utility.yul\":611:720   */\n      pop\n      pop\n      jump\t// out\n        /* \"#utility.yul\":726:1092   */\n    tag_104:\n        /* \"#utility.yul\":868:871   */\n      0x00\n        /* \"#utility.yul\":889:956   */\n      tag_106\n        /* \"#utility.yul\":953:955   */\n      0x1f\n        /* \"#utility.yul\":948:951   */\n      dup4\n        /* \"#utility.yul\":889:956   */\n      tag_107\n      jump\t// in\n    tag_106:\n        /* \"#utility.yul\":882:956   */\n      swap2\n      pop\n        /* \"#utility.yul\":965:1058   */\n      tag_108\n        /* \"#utility.yul\":1054:1057   */\n      dup3\n        /* \"#utility.yul\":965:1058   */\n      tag_109\n      jump\t// in\n    tag_108:\n        /* \"#utility.yul\":1083:1085   */\n      0x20\n        /* \"#utility.yul\":1078:1081   */\n      dup3\n        /* \"#utility.yul\":1074:1086   */\n      add\n        /* \"#utility.yul\":1067:1086   */\n      swap1\n      pop\n        /* \"#utility.yul\":726:1092   */\n      swap2\n      swap1\n      pop\n      jump\t// out\n        /* \"#utility.yul\":1098:1464   */\n    tag_110:\n        /* \"#utility.yul\":1240:1243   */\n      0x00\n        /* \"#utility.yul\":1261:1328   */\n      tag_112\n        /* \"#utility.yul\":1325:1327   */\n      0x26\n        /* \"#utility.yul\":1320:1323   */\n      dup4\n        /* \"#utility.yul\":1261:1328   */\n      tag_107\n      jump\t// in\n    tag_112:\n        /* \"#utility.yul\":1254:1328   */\n      swap2\n      pop\n        /* \"#utility.yul\":1337:1430   */\n      tag_113\n        /* \"#utility.yul\":1426:1429   */\n      dup3\n        /* \"#utility.yul\":1337:1430   */\n      tag_114\n      jump\t// in\n    tag_113:\n        /* \"#utility.yul\":1455:1457   */\n      0x40\n        /* \"#utility.yul\":1450:1453   */\n      dup3\n        /* \"#utility.yul\":1446:1458   */\n      add\n        /* \"#utility.yul\":1439:1458   */\n      swap1\n      pop\n        /* \"#utility.yul\":1098:1464   */\n      swap2\n      swap1\n      pop\n      jump\t// out\n        /* \"#utility.yul\":1470:1836   */\n    tag_115:\n        /* \"#utility.yul\":1612:1615   */\n      0x00\n        /* \"#utility.yul\":1633:1700   */\n      tag_117\n        /* \"#utility.yul\":1697:1699   */\n      0x21\n        /* \"#utility.yul\":1692:1695   */\n      dup4\n        /* \"#utility.yul\":1633:1700   */\n      tag_107\n      jump\t// in\n    tag_117:\n        /* \"#utility.yul\":1626:1700   */\n      swap2\n      pop\n        /* \"#utility.yul\":1709:1802   */\n      tag_118\n        /* \"#utility.yul\":1798:1801   */\n      dup3\n        /* \"#utility.yul\":1709:1802   */\n      tag_119\n      jump\t// in\n    tag_118:\n        /* \"#utility.yul\":1827:1829   */\n      0x40\n        /* \"#utility.yul\":1822:1825   */\n      dup3\n        /* \"#utility.yul\":1818:1830   */\n      add\n        /* \"#utility.yul\":1811:1830   */\n      swap1\n      pop\n        /* \"#utility.yul\":1470:1836   */\n      swap2\n      swap1\n      pop\n      jump\t// out\n        /* \"#utility.yul\":1842:2208   */\n    tag_120:\n        /* \"#utility.yul\":1984:1987   */\n      0x00\n        /* \"#utility.yul\":2005:2072   */\n      tag_122\n        /* \"#utility.yul\":2069:2071   */\n      0x20\n        /* \"#utility.yul\":2064:2067   */\n      dup4\n        /* \"#utility.yul\":2005:2072   */\n      tag_107\n      jump\t// in\n    tag_122:\n        /* \"#utility.yul\":1998:2072   */\n      swap2\n      pop\n        /* \"#utility.yul\":2081:2174   */\n      tag_123\n        /* \"#utility.yul\":2170:2173   */\n      dup3\n        /* \"#utility.yul\":2081:2174   */\n      tag_124\n      jump\t// in\n    tag_123:\n        /* \"#utility.yul\":2199:2201   */\n      0x20\n        /* \"#utility.yul\":2194:2197   */\n      dup3\n        /* \"#utility.yul\":2190:2202   */\n      add\n        /* \"#utility.yul\":2183:2202   */\n      swap1\n      pop\n        /* \"#utility.yul\":1842:2208   */\n      swap2\n      swap1\n      pop\n      jump\t// out\n        /* \"#utility.yul\":2214:2580   */\n    tag_125:\n        /* \"#utility.yul\":2356:2359   */\n      0x00\n        /* \"#utility.yul\":2377:2444   */\n      tag_127\n        /* \"#utility.yul\":2441:2443   */\n      0x22\n        /* \"#utility.yul\":2436:2439   */\n      dup4\n        /* \"#utility.yul\":2377:2444   */\n      tag_107\n      jump\t// in\n    tag_127:\n        /* \"#utility.yul\":2370:2444   */\n      swap2\n      pop\n        /* \"#utility.yul\":2453:2546   */\n      tag_128\n        /* \"#utility.yul\":2542:2545   */\n      dup3\n        /* \"#utility.yul\":2453:2546   */\n      tag_129\n      jump\t// in\n    tag_128:\n        /* \"#utility.yul\":2571:2573   */\n      0x40\n        /* \"#utility.yul\":2566:2569   */\n      dup3\n        /* \"#utility.yul\":2562:2574   */\n      add\n        /* \"#utility.yul\":2555:2574   */\n      swap1\n      pop\n        /* \"#utility.yul\":2214:2580   */\n      swap2\n      swap1\n      pop\n      jump\t// out\n        /* \"#utility.yul\":2586:2808   */\n    tag_23:\n        /* \"#utility.yul\":2679:2683   */\n      0x00\n        /* \"#utility.yul\":2717:2719   */\n      0x20\n        /* \"#utility.yul\":2706:2715   */\n      dup3\n        /* \"#utility.yul\":2702:2720   */\n      add\n        /* \"#utility.yul\":2694:2720   */\n      swap1\n      pop\n        /* \"#utility.yul\":2730:2801   */\n      tag_131\n        /* \"#utility.yul\":2798:2799   */\n      0x00\n        /* \"#utility.yul\":2787:2796   */\n      dup4\n        /* \"#utility.yul\":2783:2800   */\n      add\n        /* \"#utility.yul\":2774:2780   */\n      dup5\n        /* \"#utility.yul\":2730:2801   */\n      tag_96\n      jump\t// in\n    tag_131:\n        /* \"#utility.yul\":2586:2808   */\n      swap3\n      swap2\n      pop\n      pop\n      jump\t// out\n        /* \"#utility.yul\":2814:3024   */\n    tag_14:\n        /* \"#utility.yul\":2901:2905   */\n      0x00\n        /* \"#utility.yul\":2939:2941   */\n      0x20\n        /* \"#utility.yul\":2928:2937   */\n      dup3\n        /* \"#utility.yul\":2924:2942   */\n      add\n        /* \"#utility.yul\":2916:2942   */\n      swap1\n      pop\n        /* \"#utility.yul\":2952:3017   */\n      tag_133\n        /* \"#utility.yul\":3014:3015   */\n      0x00\n        /* \"#utility.yul\":3003:3012   */\n      dup4\n        /* \"#utility.yul\":2999:3016   */\n      add\n        /* \"#utility.yul\":2990:2996   */\n      dup5\n        /* \"#utility.yul\":2952:3017   */\n      tag_100\n      jump\t// in\n    tag_133:\n        /* \"#utility.yul\":2814:3024   */\n      swap3\n      swap2\n      pop\n      pop\n      jump\t// out\n        /* \"#utility.yul\":3030:3449   */\n    tag_80:\n        /* \"#utility.yul\":3196:3200   */\n      0x00\n        /* \"#utility.yul\":3234:3236   */\n      0x20\n        /* \"#utility.yul\":3223:3232   */\n      dup3\n        /* \"#utility.yul\":3219:3237   */\n      add\n        /* \"#utility.yul\":3211:3237   */\n      swap1\n      pop\n        /* \"#utility.yul\":3283:3292   */\n      dup2\n        /* \"#utility.yul\":3277:3281   */\n      dup2\n        /* \"#utility.yul\":3273:3293   */\n      sub\n        /* \"#utility.yul\":3269:3270   */\n      0x00\n        /* \"#utility.yul\":3258:3267   */\n      dup4\n        /* \"#utility.yul\":3254:3271   */\n      add\n        /* \"#utility.yul\":3247:3294   */\n      mstore\n        /* \"#utility.yul\":3311:3442   */\n      tag_135\n        /* \"#utility.yul\":3437:3441   */\n      dup2\n        /* \"#utility.yul\":3311:3442   */\n      tag_104\n      jump\t// in\n    tag_135:\n        /* \"#utility.yul\":3303:3442   */\n      swap1\n      pop\n        /* \"#utility.yul\":3030:3449   */\n      swap2\n      swap1\n      pop\n      jump\t// out\n        /* \"#utility.yul\":3455:3874   */\n    tag_68:\n        /* \"#utility.yul\":3621:3625   */\n      0x00\n        /* \"#utility.yul\":3659:3661   */\n      0x20\n        /* \"#utility.yul\":3648:3657   */\n      dup3\n        /* \"#utility.yul\":3644:3662   */\n      add\n        /* \"#utility.yul\":3636:3662   */\n      swap1\n      pop\n        /* \"#utility.yul\":3708:3717   */\n      dup2\n        /* \"#utility.yul\":3702:3706   */\n      dup2\n        /* \"#utility.yul\":3698:3718   */\n      sub\n        /* \"#utility.yul\":3694:3695   */\n      0x00\n        /* \"#utility.yul\":3683:3692   */\n      dup4\n        /* \"#utility.yul\":3679:3696   */\n      add\n        /* \"#utility.yul\":3672:3719   */\n      mstore\n        /* \"#utility.yul\":3736:3867   */\n      tag_137\n        /* \"#utility.yul\":3862:3866   */\n      dup2\n        /* \"#utility.yul\":3736:3867   */\n      tag_110\n      jump\t// in\n    tag_137:\n        /* \"#utility.yul\":3728:3867   */\n      swap1\n      pop\n        /* \"#utility.yul\":3455:3874   */\n      swap2\n      swap1\n      pop\n      jump\t// out\n        /* \"#utility.yul\":3880:4299   */\n    tag_85:\n        /* \"#utility.yul\":4046:4050   */\n      0x00\n        /* \"#utility.yul\":4084:4086   */\n      0x20\n        /* \"#utility.yul\":4073:4082   */\n      dup3\n        /* \"#utility.yul\":4069:4087   */\n      add\n        /* \"#utility.yul\":4061:4087   */\n      swap1\n      pop\n        /* \"#utility.yul\":4133:4142   */\n      dup2\n        /* \"#utility.yul\":4127:4131   */\n      dup2\n        /* \"#utility.yul\":4123:4143   */\n      sub\n        /* \"#utility.yul\":4119:4120   */\n      0x00\n        /* \"#utility.yul\":4108:4117   */\n      dup4\n        /* \"#utility.yul\":4104:4121   */\n      add\n        /* \"#utility.yul\":4097:4144   */\n      mstore\n        /* \"#utility.yul\":4161:4292   */\n      tag_139\n        /* \"#utility.yul\":4287:4291   */\n      dup2\n        /* \"#utility.yul\":4161:4292   */\n      tag_115\n      jump\t// in\n    tag_139:\n        /* \"#utility.yul\":4153:4292   */\n      swap1\n      pop\n        /* \"#utility.yul\":3880:4299   */\n      swap2\n      swap1\n      pop\n      jump\t// out\n        /* \"#utility.yul\":4305:4724   */\n    tag_39:\n        /* \"#utility.yul\":4471:4475   */\n      0x00\n        /* \"#utility.yul\":4509:4511   */\n      0x20\n        /* \"#utility.yul\":4498:4507   */\n      dup3\n        /* \"#utility.yul\":4494:4512   */\n      add\n        /* \"#utility.yul\":4486:4512   */\n      swap1\n      pop\n        /* \"#utility.yul\":4558:4567   */\n      dup2\n        /* \"#utility.yul\":4552:4556   */\n      dup2\n        /* \"#utility.yul\":4548:4568   */\n      sub\n        /* \"#utility.yul\":4544:4545   */\n      0x00\n        /* \"#utility.yul\":4533:4542   */\n      dup4\n        /* \"#utility.yul\":4529:4546   */\n      add\n        /* \"#utility.yul\":4522:4569   */\n      mstore\n        /* \"#utility.yul\":4586:4717   */\n      tag_141\n        /* \"#utility.yul\":4712:4716   */\n      dup2\n        /* \"#utility.yul\":4586:4717   */\n      tag_120\n      jump\t// in\n    tag_141:\n        /* \"#utility.yul\":4578:4717   */\n      swap1\n      pop\n        /* \"#utility.yul\":4305:4724   */\n      swap2\n      swap1\n      pop\n      jump\t// out\n        /* \"#utility.yul\":4730:5149   */\n    tag_73:\n        /* \"#utility.yul\":4896:4900   */\n      0x00\n        /* \"#utility.yul\":4934:4936   */\n      0x20\n        /* \"#utility.yul\":4923:4932   */\n      dup3\n        /* \"#utility.yul\":4919:4937   */\n      add\n        /* \"#utility.yul\":4911:4937   */\n      swap1\n      pop\n        /* \"#utility.yul\":4983:4992   */\n      dup2\n        /* \"#utility.yul\":4977:4981   */\n      dup2\n        /* \"#utility.yul\":4973:4993   */\n      sub\n        /* \"#utility.yul\":4969:4970   */\n      0x00\n        /* \"#utility.yul\":4958:4967   */\n      dup4\n        /* \"#utility.yul\":4954:4971   */\n      add\n        /* \"#utility.yul\":4947:4994   */\n      mstore\n        /* \"#utility.yul\":5011:5142   */\n      tag_143\n        /* \"#utility.yul\":5137:5141   */\n      dup2\n        /* \"#utility.yul\":5011:5142   */\n      tag_125\n      jump\t// in\n    tag_143:\n        /* \"#utility.yul\":5003:5142   */\n      swap1\n      pop\n        /* \"#utility.yul\":4730:5149   */\n      swap2\n      swap1\n      pop\n      jump\t// out\n        /* \"#utility.yul\":5236:5405   */\n    tag_107:\n        /* \"#utility.yul\":5320:5331   */\n      0x00\n        /* \"#utility.yul\":5354:5360   */\n      dup3\n        /* \"#utility.yul\":5349:5352   */\n      dup3\n        /* \"#utility.yul\":5342:5361   */\n      mstore\n        /* \"#utility.yul\":5394:5398   */\n      0x20\n        /* \"#utility.yul\":5389:5392   */\n      dup3\n        /* \"#utility.yul\":5385:5399   */\n      add\n        /* \"#utility.yul\":5370:5399   */\n      swap1\n      pop\n        /* \"#utility.yul\":5236:5405   */\n      swap3\n      swap2\n      pop\n      pop\n      jump\t// out\n        /* \"#utility.yul\":5411:5507   */\n    tag_99:\n        /* \"#utility.yul\":5448:5455   */\n      0x00\n        /* \"#utility.yul\":5477:5501   */\n      tag_148\n        /* \"#utility.yul\":5495:5500   */\n      dup3\n        /* \"#utility.yul\":5477:5501   */\n      tag_149\n      jump\t// in\n    tag_148:\n        /* \"#utility.yul\":5466:5501   */\n      swap1\n      pop\n        /* \"#utility.yul\":5411:5507   */\n      swap2\n      swap1\n      pop\n      jump\t// out\n        /* \"#utility.yul\":5513:5603   */\n    tag_103:\n        /* \"#utility.yul\":5547:5554   */\n      0x00\n        /* \"#utility.yul\":5590:5595   */\n      dup2\n        /* \"#utility.yul\":5583:5596   */\n      iszero\n        /* \"#utility.yul\":5576:5597   */\n      iszero\n        /* \"#utility.yul\":5565:5597   */\n      swap1\n      pop\n        /* \"#utility.yul\":5513:5603   */\n      swap2\n      swap1\n      pop\n      jump\t// out\n        /* \"#utility.yul\":5609:5735   */\n    tag_149:\n        /* \"#utility.yul\":5646:5653   */\n      0x00\n        /* \"#utility.yul\":5686:5728   */\n      0xffffffffffffffffffffffffffffffffffffffff\n        /* \"#utility.yul\":5679:5684   */\n      dup3\n        /* \"#utility.yul\":5675:5729   */\n      and\n        /* \"#utility.yul\":5664:5729   */\n      swap1\n      pop\n        /* \"#utility.yul\":5609:5735   */\n      swap2\n      swap1\n      pop\n      jump\t// out\n        /* \"#utility.yul\":5864:5981   */\n    tag_94:\n        /* \"#utility.yul\":5973:5974   */\n      0x00\n        /* \"#utility.yul\":5970:5971   */\n      dup1\n        /* \"#utility.yul\":5963:5975   */\n      revert\n        /* \"#utility.yul\":5987:6168   */\n    tag_109:\n        /* \"#utility.yul\":6127:6160   */\n      0x526f6c65733a206163636f756e7420616c72656164792068617320726f6c6500\n        /* \"#utility.yul\":6123:6124   */\n      0x00\n        /* \"#utility.yul\":6115:6121   */\n      dup3\n        /* \"#utility.yul\":6111:6125   */\n      add\n        /* \"#utility.yul\":6104:6161   */\n      mstore\n        /* \"#utility.yul\":5987:6168   */\n      pop\n      jump\t// out\n        /* \"#utility.yul\":6174:6399   */\n    tag_114:\n        /* \"#utility.yul\":6314:6348   */\n      0x4f776e61626c653a206e6577206f776e657220697320746865207a65726f2061\n        /* \"#utility.yul\":6310:6311   */\n      0x00\n        /* \"#utility.yul\":6302:6308   */\n      dup3\n        /* \"#utility.yul\":6298:6312   */\n      add\n        /* \"#utility.yul\":6291:6349   */\n      mstore\n        /* \"#utility.yul\":6383:6391   */\n      0x6464726573730000000000000000000000000000000000000000000000000000\n        /* \"#utility.yul\":6378:6380   */\n      0x20\n        /* \"#utility.yul\":6370:6376   */\n      dup3\n        /* \"#utility.yul\":6366:6381   */\n      add\n        /* \"#utility.yul\":6359:6392   */\n      mstore\n        /* \"#utility.yul\":6174:6399   */\n      pop\n      jump\t// out\n        /* \"#utility.yul\":6405:6625   */\n    tag_119:\n        /* \"#utility.yul\":6545:6579   */\n      0x526f6c65733a206163636f756e7420646f6573206e6f74206861766520726f6c\n        /* \"#utility.yul\":6541:6542   */\n      0x00\n        /* \"#utility.yul\":6533:6539   */\n      dup3\n        /* \"#utility.yul\":6529:6543   */\n      add\n        /* \"#utility.yul\":6522:6580   */\n      mstore\n        /* \"#utility.yul\":6614:6617   */\n      0x6500000000000000000000000000000000000000000000000000000000000000\n        /* \"#utility.yul\":6609:6611   */\n      0x20\n        /* \"#utility.yul\":6601:6607   */\n      dup3\n        /* \"#utility.yul\":6597:6612   */\n      add\n        /* \"#utility.yul\":6590:6618   */\n      mstore\n        /* \"#utility.yul\":6405:6625   */\n      pop\n      jump\t// out\n        /* \"#utility.yul\":6631:6813   */\n    tag_124:\n        /* \"#utility.yul\":6771:6805   */\n      0x4f776e61626c653a2063616c6c6572206973206e6f7420746865206f776e6572\n        /* \"#utility.yul\":6767:6768   */\n      0x00\n        /* \"#utility.yul\":6759:6765   */\n      dup3\n        /* \"#utility.yul\":6755:6769   */\n      add\n        /* \"#utility.yul\":6748:6806   */\n      mstore\n        /* \"#utility.yul\":6631:6813   */\n      pop\n      jump\t// out\n        /* \"#utility.yul\":6819:7040   */\n    tag_129:\n        /* \"#utility.yul\":6959:6993   */\n      0x526f6c65733a206163636f756e7420697320746865207a65726f206164647265\n        /* \"#utility.yul\":6955:6956   */\n      0x00\n        /* \"#utility.yul\":6947:6953   */\n      dup3\n        /* \"#utility.yul\":6943:6957   */\n      add\n        /* \"#utility.yul\":6936:6994   */\n      mstore\n        /* \"#utility.yul\":7028:7032   */\n      0x7373000000000000000000000000000000000000000000000000000000000000\n        /* \"#utility.yul\":7023:7025   */\n      0x20\n        /* \"#utility.yul\":7015:7021   */\n      dup3\n        /* \"#utility.yul\":7011:7026   */\n      add\n        /* \"#utility.yul\":7004:7033   */\n      mstore\n        /* \"#utility.yul\":6819:7040   */\n      pop\n      jump\t// out\n        /* \"#utility.yul\":7046:7168   */\n    tag_90:\n        /* \"#utility.yul\":7119:7143   */\n      tag_161\n        /* \"#utility.yul\":7137:7142   */\n      dup2\n        /* \"#utility.yul\":7119:7143   */\n      tag_99\n      jump\t// in\n    tag_161:\n        /* \"#utility.yul\":7112:7117   */\n      dup2\n        /* \"#utility.yul\":7109:7144   */\n      eq\n        /* \"#utility.yul\":7099:7162   */\n      tag_162\n      jumpi\n        /* \"#utility.yul\":7158:7159   */\n      0x00\n        /* \"#utility.yul\":7155:7156   */\n      dup1\n        /* \"#utility.yul\":7148:7160   */\n      revert\n        /* \"#utility.yul\":7099:7162   */\n    tag_162:\n        /* \"#utility.yul\":7046:7168   */\n      pop\n      jump\t// out\n\n    auxdata: 0xa2646970667358221220b3948c42aa24b591902e8bdf7a3ddb7230987d2e6f60d12b16af083e80003a2864736f6c63430008070033\n}\n",
				"bytecode": {
					"linkReferences": {},
					"object": "608060405234801561001057600080fd5b5061002d61002261003260201b60201c565b61003a60201b60201c565b6100fe565b600033905090565b60008060009054906101000a900473ffffffffffffffffffffffffffffffffffffffff169050816000806101000a81548173ffffffffffffffffffffffffffffffffffffffff021916908373ffffffffffffffffffffffffffffffffffffffff1602179055508173ffffffffffffffffffffffffffffffffffffffff168173ffffffffffffffffffffffffffffffffffffffff167f8be0079c531659141344cd1fd0a4f28419497f9722a3daafe3b4186f6b6457e060405160405180910390a35050565b610b2d8061010d6000396000f3fe608060405234801561001057600080fd5b50600436106100625760003560e01c80631ffbb06414610067578063715018a61461009757806384e79842146100a15780638da5cb5b146100bd57806397a6278e146100db578063f2fde38b146100f7575b600080fd5b610081600480360381019061007c919061077d565b610113565b60405161008e9190610892565b60405180910390f35b61009f610130565b005b6100bb60048036038101906100b6919061077d565b6101b8565b005b6100c561028e565b6040516100d29190610877565b60405180910390f35b6100f560048036038101906100f0919061077d565b6102b7565b005b610111600480360381019061010c919061077d565b61038d565b005b600061012982600161048590919063ffffffff16565b9050919050565b61013861054d565b73ffffffffffffffffffffffffffffffffffffffff1661015661028e565b73ffffffffffffffffffffffffffffffffffffffff16146101ac576040517f08c379a00000000000000000000000000000000000000000000000000000000081526004016101a39061090d565b60405180910390fd5b6101b66000610555565b565b6101c061054d565b73ffffffffffffffffffffffffffffffffffffffff166101de61028e565b73ffffffffffffffffffffffffffffffffffffffff1614610234576040517f08c379a000000000000000000000000000000000000000000000000000000000815260040161022b9061090d565b60405180910390fd5b61024881600161061990919063ffffffff16565b8073ffffffffffffffffffffffffffffffffffffffff167ff68e73cec97f2d70aa641fb26e87a4383686e2efacb648f2165aeb02ac562ec560405160405180910390a250565b60008060009054906101000a900473ffffffffffffffffffffffffffffffffffffffff16905090565b6102bf61054d565b73ffffffffffffffffffffffffffffffffffffffff166102dd61028e565b73ffffffffffffffffffffffffffffffffffffffff1614610333576040517f08c379a000000000000000000000000000000000000000000000000000000000815260040161032a9061090d565b60405180910390fd5b6103478160016106c190919063ffffffff16565b8073ffffffffffffffffffffffffffffffffffffffff167fed9c8ad8d5a0a66898ea49d2956929c93ae2e8bd50281b2ed897c5d1a6737e0b60405160405180910390a250565b61039561054d565b73ffffffffffffffffffffffffffffffffffffffff166103b361028e565b73ffffffffffffffffffffffffffffffffffffffff1614610409576040517f08c379a00000000000000000000000000000000000000000000000000000000081526004016104009061090d565b60405180910390fd5b600073ffffffffffffffffffffffffffffffffffffffff168173ffffffffffffffffffffffffffffffffffffffff161415610479576040517f08c379a0000000000000000000000000000000000000000000000000000000008152600401610470906108cd565b60405180910390fd5b61048281610555565b50565b60008073ffffffffffffffffffffffffffffffffffffffff168273ffffffffffffffffffffffffffffffffffffffff1614156104f6576040517f08c379a00000000000000000000000000000000000000000000000000000000081526004016104ed9061092d565b60405180910390fd5b8260000160008373ffffffffffffffffffffffffffffffffffffffff1673ffffffffffffffffffffffffffffffffffffffff16815260200190815260200160002060009054906101000a900460ff16905092915050565b600033905090565b60008060009054906101000a900473ffffffffffffffffffffffffffffffffffffffff169050816000806101000a81548173ffffffffffffffffffffffffffffffffffffffff021916908373ffffffffffffffffffffffffffffffffffffffff1602179055508173ffffffffffffffffffffffffffffffffffffffff168173ffffffffffffffffffffffffffffffffffffffff167f8be0079c531659141344cd1fd0a4f28419497f9722a3daafe3b4186f6b6457e060405160405180910390a35050565b6106238282610485565b15610663576040517f08c379a000000000000000000000000000000000000000000000000000000000815260040161065a906108ad565b60405180910390fd5b60018260000160008373ffffffffffffffffffffffffffffffffffffffff1673ffffffffffffffffffffffffffffffffffffffff16815260200190815260200160002060006101000a81548160ff0219169083151502179055505050565b6106cb8282610485565b61070a576040517f08c379a0000000000000000000000000000000000000000000000000000000008152600401610701906108ed565b60405180910390fd5b60008260000160008373ffffffffffffffffffffffffffffffffffffffff1673ffffffffffffffffffffffffffffffffffffffff16815260200190815260200160002060006101000a81548160ff0219169083151502179055505050565b60008135905061077781610ae0565b92915050565b6000602082840312156107935761079261099c565b5b60006107a184828501610768565b91505092915050565b6107b38161095e565b82525050565b6107c281610970565b82525050565b60006107d5601f8361094d565b91506107e0826109a1565b602082019050919050565b60006107f860268361094d565b9150610803826109ca565b604082019050919050565b600061081b60218361094d565b915061082682610a19565b604082019050919050565b600061083e60208361094d565b915061084982610a68565b602082019050919050565b600061086160228361094d565b915061086c82610a91565b604082019050919050565b600060208201905061088c60008301846107aa565b92915050565b60006020820190506108a760008301846107b9565b92915050565b600060208201905081810360008301526108c6816107c8565b9050919050565b600060208201905081810360008301526108e6816107eb565b9050919050565b600060208201905081810360008301526109068161080e565b9050919050565b6000602082019050818103600083015261092681610831565b9050919050565b6000602082019050818103600083015261094681610854565b9050919050565b600082825260208201905092915050565b60006109698261097c565b9050919050565b60008115159050919050565b600073ffffffffffffffffffffffffffffffffffffffff82169050919050565b600080fd5b7f526f6c65733a206163636f756e7420616c72656164792068617320726f6c6500600082015250565b7f4f776e61626c653a206e6577206f776e657220697320746865207a65726f206160008201527f6464726573730000000000000000000000000000000000000000000000000000602082015250565b7f526f6c65733a206163636f756e7420646f6573206e6f74206861766520726f6c60008201527f6500000000000000000000000000000000000000000000000000000000000000602082015250565b7f4f776e61626c653a2063616c6c6572206973206e6f7420746865206f776e6572600082015250565b7f526f6c65733a206163636f756e7420697320746865207a65726f20616464726560008201527f7373000000000000000000000000000000000000000000000000000000000000602082015250565b610ae98161095e565b8114610af457600080fd5b5056fea2646970667358221220b3948c42aa24b591902e8bdf7a3ddb7230987d2e6f60d12b16af083e80003a2864736f6c63430008070033",
					"opcodes": "PUSH1 0x80 PUSH1 0x40 MSTORE CALLVALUE DUP1 ISZERO PUSH2 0x10 JUMPI PUSH1 0x0 DUP1 REVERT JUMPDEST POP PUSH2 0x2D PUSH2 0x22 PUSH2 0x32 PUSH1 0x20 SHL PUSH1 0x20 SHR JUMP JUMPDEST PUSH2 0x3A PUSH1 0x20 SHL PUSH1 0x20 SHR JUMP JUMPDEST PUSH2 0xFE JUMP JUMPDEST PUSH1 0x0 CALLER SWAP1 POP SWAP1 JUMP JUMPDEST PUSH1 0x0 DUP1 PUSH1 0x0 SWAP1 SLOAD SWAP1 PUSH2 0x100 EXP SWAP1 DIV PUSH20 0xFFFFFFFFFFFFFFFFFFFFFFFFFFFFFFFFFFFFFFFF AND SWAP1 POP DUP2 PUSH1 0x0 DUP1 PUSH2 0x100 EXP DUP2 SLOAD DUP2 PUSH20 0xFFFFFFFFFFFFFFFFFFFFFFFFFFFFFFFFFFFFFFFF MUL NOT AND SWAP1 DUP4 PUSH20 0xFFFFFFFFFFFFFFFFFFFFFFFFFFFFFFFFFFFFFFFF AND MUL OR SWAP1 SSTORE POP DUP2 PUSH20 0xFFFFFFFFFFFFFFFFFFFFFFFFFFFFFFFFFFFFFFFF AND DUP2 PUSH20 0xFFFFFFFFFFFFFFFFFFFFFFFFFFFFFFFFFFFFFFFF AND PUSH32 0x8BE0079C531659141344CD1FD0A4F28419497F9722A3DAAFE3B4186F6B6457E0 PUSH1 0x40 MLOAD PUSH1 0x40 MLOAD DUP1 SWAP2 SUB SWAP1 LOG3 POP POP JUMP JUMPDEST PUSH2 0xB2D DUP1 PUSH2 0x10D PUSH1 0x0 CODECOPY PUSH1 0x0 RETURN INVALID PUSH1 0x80 PUSH1 0x40 MSTORE CALLVALUE DUP1 ISZERO PUSH2 0x10 JUMPI PUSH1 0x0 DUP1 REVERT JUMPDEST POP PUSH1 0x4 CALLDATASIZE LT PUSH2 0x62 JUMPI PUSH1 0x0 CALLDATALOAD PUSH1 0xE0 SHR DUP1 PUSH4 0x1FFBB064 EQ PUSH2 0x67 JUMPI DUP1 PUSH4 0x715018A6 EQ PUSH2 0x97 JUMPI DUP1 PUSH4 0x84E79842 EQ PUSH2 0xA1 JUMPI DUP1 PUSH4 0x8DA5CB5B EQ PUSH2 0xBD JUMPI DUP1 PUSH4 0x97A6278E EQ PUSH2 0xDB JUMPI DUP1 PUSH4 0xF2FDE38B EQ PUSH2 0xF7 JUMPI JUMPDEST PUSH1 0x0 DUP1 REVERT JUMPDEST PUSH2 0x81 PUSH1 0x4 DUP1 CALLDATASIZE SUB DUP2 ADD SWAP1 PUSH2 0x7C SWAP2 SWAP1 PUSH2 0x77D JUMP JUMPDEST PUSH2 0x113 JUMP JUMPDEST PUSH1 0x40 MLOAD PUSH2 0x8E SWAP2 SWAP1 PUSH2 0x892 JUMP JUMPDEST PUSH1 0x40 MLOAD DUP1 SWAP2 SUB SWAP1 RETURN JUMPDEST PUSH2 0x9F PUSH2 0x130 JUMP JUMPDEST STOP JUMPDEST PUSH2 0xBB PUSH1 0x4 DUP1 CALLDATASIZE SUB DUP2 ADD SWAP1 PUSH2 0xB6 SWAP2 SWAP1 PUSH2 0x77D JUMP JUMPDEST PUSH2 0x1B8 JUMP JUMPDEST STOP JUMPDEST PUSH2 0xC5 PUSH2 0x28E JUMP JUMPDEST PUSH1 0x40 MLOAD PUSH2 0xD2 SWAP2 SWAP1 PUSH2 0x877 JUMP JUMPDEST PUSH1 0x40 MLOAD DUP1 SWAP2 SUB SWAP1 RETURN JUMPDEST PUSH2 0xF5 PUSH1 0x4 DUP1 CALLDATASIZE SUB DUP2 ADD SWAP1 PUSH2 0xF0 SWAP2 SWAP1 PUSH2 0x77D JUMP JUMPDEST PUSH2 0x2B7 JUMP JUMPDEST STOP JUMPDEST PUSH2 0x111 PUSH1 0x4 DUP1 CALLDATASIZE SUB DUP2 ADD SWAP1 PUSH2 0x10C SWAP2 SWAP1 PUSH2 0x77D JUMP JUMPDEST PUSH2 0x38D JUMP JUMPDEST STOP JUMPDEST PUSH1 0x0 PUSH2 0x129 DUP3 PUSH1 0x1 PUSH2 0x485 SWAP1 SWAP2 SWAP1 PUSH4 0xFFFFFFFF AND JUMP JUMPDEST SWAP1 POP SWAP2 SWAP1 POP JUMP JUMPDEST PUSH2 0x138 PUSH2 0x54D JUMP JUMPDEST PUSH20 0xFFFFFFFFFFFFFFFFFFFFFFFFFFFFFFFFFFFFFFFF AND PUSH2 0x156 PUSH2 0x28E JUMP JUMPDEST PUSH20 0xFFFFFFFFFFFFFFFFFFFFFFFFFFFFFFFFFFFFFFFF AND EQ PUSH2 0x1AC JUMPI PUSH1 0x40 MLOAD PUSH32 0x8C379A000000000000000000000000000000000000000000000000000000000 DUP2 MSTORE PUSH1 0x4 ADD PUSH2 0x1A3 SWAP1 PUSH2 0x90D JUMP JUMPDEST PUSH1 0x40 MLOAD DUP1 SWAP2 SUB SWAP1 REVERT JUMPDEST PUSH2 0x1B6 PUSH1 0x0 PUSH2 0x555 JUMP JUMPDEST JUMP JUMPDEST PUSH2 0x1C0 PUSH2 0x54D JUMP JUMPDEST PUSH20 0xFFFFFFFFFFFFFFFFFFFFFFFFFFFFFFFFFFFFFFFF AND PUSH2 0x1DE PUSH2 0x28E JUMP JUMPDEST PUSH20 0xFFFFFFFFFFFFFFFFFFFFFFFFFFFFFFFFFFFFFFFF AND EQ PUSH2 0x234 JUMPI PUSH1 0x40 MLOAD PUSH32 0x8C379A000000000000000000000000000000000000000000000000000000000 DUP2 MSTORE PUSH1 0x4 ADD PUSH2 0x22B SWAP1 PUSH2 0x90D JUMP JUMPDEST PUSH1 0x40 MLOAD DUP1 SWAP2 SUB SWAP1 REVERT JUMPDEST PUSH2 0x248 DUP2 PUSH1 0x1 PUSH2 0x619 SWAP1 SWAP2 SWAP1 PUSH4 0xFFFFFFFF AND JUMP JUMPDEST DUP1 PUSH20 0xFFFFFFFFFFFFFFFFFFFFFFFFFFFFFFFFFFFFFFFF AND PUSH32 0xF68E73CEC97F2D70AA641FB26E87A4383686E2EFACB648F2165AEB02AC562EC5 PUSH1 0x40 MLOAD PUSH1 0x40 MLOAD DUP1 SWAP2 SUB SWAP1 LOG2 POP JUMP JUMPDEST PUSH1 0x0 DUP1 PUSH1 0x0 SWAP1 SLOAD SWAP1 PUSH2 0x100 EXP SWAP1 DIV PUSH20 0xFFFFFFFFFFFFFFFFFFFFFFFFFFFFFFFFFFFFFFFF AND SWAP1 POP SWAP1 JUMP JUMPDEST PUSH2 0x2BF PUSH2 0x54D JUMP JUMPDEST PUSH20 0xFFFFFFFFFFFFFFFFFFFFFFFFFFFFFFFFFFFFFFFF AND PUSH2 0x2DD PUSH2 0x28E JUMP JUMPDEST PUSH20 0xFFFFFFFFFFFFFFFFFFFFFFFFFFFFFFFFFFFFFFFF AND EQ PUSH2 0x333 JUMPI PUSH1 0x40 MLOAD PUSH32 0x8C379A000000000000000000000000000000000000000000000000000000000 DUP2 MSTORE PUSH1 0x4 ADD PUSH2 0x32A SWAP1 PUSH2 0x90D JUMP JUMPDEST PUSH1 0x40 MLOAD DUP1 SWAP2 SUB SWAP1 REVERT JUMPDEST PUSH2 0x347 DUP2 PUSH1 0x1 PUSH2 0x6C1 SWAP1 SWAP2 SWAP1 PUSH4 0xFFFFFFFF AND JUMP JUMPDEST DUP1 PUSH20 0xFFFFFFFFFFFFFFFFFFFFFFFFFFFFFFFFFFFFFFFF AND PUSH32 0xED9C8AD8D5A0A66898EA49D2956929C93AE2E8BD50281B2ED897C5D1A6737E0B PUSH1 0x40 MLOAD PUSH1 0x40 MLOAD DUP1 SWAP2 SUB SWAP1 LOG2 POP JUMP JUMPDEST PUSH2 0x395 PUSH2 0x54D JUMP JUMPDEST PUSH20 0xFFFFFFFFFFFFFFFFFFFFFFFFFFFFFFFFFFFFFFFF AND PUSH2 0x3B3 PUSH2 0x28E JUMP JUMPDEST PUSH20 0xFFFFFFFFFFFFFFFFFFFFFFFFFFFFFFFFFFFFFFFF AND EQ PUSH2 0x409 JUMPI PUSH1 0x40 MLOAD PUSH32 0x8C379A000000000000000000000000000000000000000000000000000000000 DUP2 MSTORE PUSH1 0x4 ADD PUSH2 0x400 SWAP1 PUSH2 0x90D JUMP JUMPDEST PUSH1 0x40 MLOAD DUP1 SWAP2 SUB SWAP1 REVERT JUMPDEST PUSH1 0x0 PUSH20 0xFFFFFFFFFFFFFFFFFFFFFFFFFFFFFFFFFFFFFFFF AND DUP2 PUSH20 0xFFFFFFFFFFFFFFFFFFFFFFFFFFFFFFFFFFFFFFFF AND EQ ISZERO PUSH2 0x479 JUMPI PUSH1 0x40 MLOAD PUSH32 0x8C379A000000000000000000000000000000000000000000000000000000000 DUP2 MSTORE PUSH1 0x4 ADD PUSH2 0x470 SWAP1 PUSH2 0x8CD JUMP JUMPDEST PUSH1 0x40 MLOAD DUP1 SWAP2 SUB SWAP1 REVERT JUMPDEST PUSH2 0x482 DUP2 PUSH2 0x555 JUMP JUMPDEST POP JUMP JUMPDEST PUSH1 0x0 DUP1 PUSH20 0xFFFFFFFFFFFFFFFFFFFFFFFFFFFFFFFFFFFFFFFF AND DUP3 PUSH20 0xFFFFFFFFFFFFFFFFFFFFFFFFFFFFFFFFFFFFFFFF AND EQ ISZERO PUSH2 0x4F6 JUMPI PUSH1 0x40 MLOAD PUSH32 0x8C379A000000000000000000000000000000000000000000000000000000000 DUP2 MSTORE PUSH1 0x4 ADD PUSH2 0x4ED SWAP1 PUSH2 0x92D JUMP JUMPDEST PUSH1 0x40 MLOAD DUP1 SWAP2 SUB SWAP1 REVERT JUMPDEST DUP3 PUSH1 0x0 ADD PUSH1 0x0 DUP4 PUSH20 0xFFFFFFFFFFFFFFFFFFFFFFFFFFFFFFFFFFFFFFFF AND PUSH20 0xFFFFFFFFFFFFFFFFFFFFFFFFFFFFFFFFFFFFFFFF AND DUP2 MSTORE PUSH1 0x20 ADD SWAP1 DUP2 MSTORE PUSH1 0x20 ADD PUSH1 0x0 KECCAK256 PUSH1 0x0 SWAP1 SLOAD SWAP1 PUSH2 0x100 EXP SWAP1 DIV PUSH1 0xFF AND SWAP1 POP SWAP3 SWAP2 POP POP JUMP JUMPDEST PUSH1 0x0 CALLER SWAP1 POP SWAP1 JUMP JUMPDEST PUSH1 0x0 DUP1 PUSH1 0x0 SWAP1 SLOAD SWAP1 PUSH2 0x100 EXP SWAP1 DIV PUSH20 0xFFFFFFFFFFFFFFFFFFFFFFFFFFFFFFFFFFFFFFFF AND SWAP1 POP DUP2 PUSH1 0x0 DUP1 PUSH2 0x100 EXP DUP2 SLOAD DUP2 PUSH20 0xFFFFFFFFFFFFFFFFFFFFFFFFFFFFFFFFFFFFFFFF MUL NOT AND SWAP1 DUP4 PUSH20 0xFFFFFFFFFFFFFFFFFFFFFFFFFFFFFFFFFFFFFFFF AND MUL OR SWAP1 SSTORE POP DUP2 PUSH20 0xFFFFFFFFFFFFFFFFFFFFFFFFFFFFFFFFFFFFFFFF AND DUP2 PUSH20 0xFFFFFFFFFFFFFFFFFFFFFFFFFFFFFFFFFFFFFFFF AND PUSH32 0x8BE0079C531659141344CD1FD0A4F28419497F9722A3DAAFE3B4186F6B6457E0 PUSH1 0x40 MLOAD PUSH1 0x40 MLOAD DUP1 SWAP2 SUB SWAP1 LOG3 POP POP JUMP JUMPDEST PUSH2 0x623 DUP3 DUP3 PUSH2 0x485 JUMP JUMPDEST ISZERO PUSH2 0x663 JUMPI PUSH1 0x40 MLOAD PUSH32 0x8C379A000000000000000000000000000000000000000000000000000000000 DUP2 MSTORE PUSH1 0x4 ADD PUSH2 0x65A SWAP1 PUSH2 0x8AD JUMP JUMPDEST PUSH1 0x40 MLOAD DUP1 SWAP2 SUB SWAP1 REVERT JUMPDEST PUSH1 0x1 DUP3 PUSH1 0x0 ADD PUSH1 0x0 DUP4 PUSH20 0xFFFFFFFFFFFFFFFFFFFFFFFFFFFFFFFFFFFFFFFF AND PUSH20 0xFFFFFFFFFFFFFFFFFFFFFFFFFFFFFFFFFFFFFFFF AND DUP2 MSTORE PUSH1 0x20 ADD SWAP1 DUP2 MSTORE PUSH1 0x20 ADD PUSH1 0x0 KECCAK256 PUSH1 0x0 PUSH2 0x100 EXP DUP2 SLOAD DUP2 PUSH1 0xFF MUL NOT AND SWAP1 DUP4 ISZERO ISZERO MUL OR SWAP1 SSTORE POP POP POP JUMP JUMPDEST PUSH2 0x6CB DUP3 DUP3 PUSH2 0x485 JUMP JUMPDEST PUSH2 0x70A JUMPI PUSH1 0x40 MLOAD PUSH32 0x8C379A000000000000000000000000000000000000000000000000000000000 DUP2 MSTORE PUSH1 0x4 ADD PUSH2 0x701 SWAP1 PUSH2 0x8ED JUMP JUMPDEST PUSH1 0x40 MLOAD DUP1 SWAP2 SUB SWAP1 REVERT JUMPDEST PUSH1 0x0 DUP3 PUSH1 0x0 ADD PUSH1 0x0 DUP4 PUSH20 0xFFFFFFFFFFFFFFFFFFFFFFFFFFFFFFFFFFFFFFFF AND PUSH20 0xFFFFFFFFFFFFFFFFFFFFFFFFFFFFFFFFFFFFFFFF AND DUP2 MSTORE PUSH1 0x20 ADD SWAP1 DUP2 MSTORE PUSH1 0x20 ADD PUSH1 0x0 KECCAK256 PUSH1 0x0 PUSH2 0x100 EXP DUP2 SLOAD DUP2 PUSH1 0xFF MUL NOT AND SWAP1 DUP4 ISZERO ISZERO MUL OR SWAP1 SSTORE POP POP POP JUMP JUMPDEST PUSH1 0x0 DUP2 CALLDATALOAD SWAP1 POP PUSH2 0x777 DUP2 PUSH2 0xAE0 JUMP JUMPDEST SWAP3 SWAP2 POP POP JUMP JUMPDEST PUSH1 0x0 PUSH1 0x20 DUP3 DUP5 SUB SLT ISZERO PUSH2 0x793 JUMPI PUSH2 0x792 PUSH2 0x99C JUMP JUMPDEST JUMPDEST PUSH1 0x0 PUSH2 0x7A1 DUP5 DUP3 DUP6 ADD PUSH2 0x768 JUMP JUMPDEST SWAP2 POP POP SWAP3 SWAP2 POP POP JUMP JUMPDEST PUSH2 0x7B3 DUP2 PUSH2 0x95E JUMP JUMPDEST DUP3 MSTORE POP POP JUMP JUMPDEST PUSH2 0x7C2 DUP2 PUSH2 0x970 JUMP JUMPDEST DUP3 MSTORE POP POP JUMP JUMPDEST PUSH1 0x0 PUSH2 0x7D5 PUSH1 0x1F DUP4 PUSH2 0x94D JUMP JUMPDEST SWAP2 POP PUSH2 0x7E0 DUP3 PUSH2 0x9A1 JUMP JUMPDEST PUSH1 0x20 DUP3 ADD SWAP1 POP SWAP2 SWAP1 POP JUMP JUMPDEST PUSH1 0x0 PUSH2 0x7F8 PUSH1 0x26 DUP4 PUSH2 0x94D JUMP JUMPDEST SWAP2 POP PUSH2 0x803 DUP3 PUSH2 0x9CA JUMP JUMPDEST PUSH1 0x40 DUP3 ADD SWAP1 POP SWAP2 SWAP1 POP JUMP JUMPDEST PUSH1 0x0 PUSH2 0x81B PUSH1 0x21 DUP4 PUSH2 0x94D JUMP JUMPDEST SWAP2 POP PUSH2 0x826 DUP3 PUSH2 0xA19 JUMP JUMPDEST PUSH1 0x40 DUP3 ADD SWAP1 POP SWAP2 SWAP1 POP JUMP JUMPDEST PUSH1 0x0 PUSH2 0x83E PUSH1 0x20 DUP4 PUSH2 0x94D JUMP JUMPDEST SWAP2 POP PUSH2 0x849 DUP3 PUSH2 0xA68 JUMP JUMPDEST PUSH1 0x20 DUP3 ADD SWAP1 POP SWAP2 SWAP1 POP JUMP JUMPDEST PUSH1 0x0 PUSH2 0x861 PUSH1 0x22 DUP4 PUSH2 0x94D JUMP JUMPDEST SWAP2 POP PUSH2 0x86C DUP3 PUSH2 0xA91 JUMP JUMPDEST PUSH1 0x40 DUP3 ADD SWAP1 POP SWAP2 SWAP1 POP JUMP JUMPDEST PUSH1 0x0 PUSH1 0x20 DUP3 ADD SWAP1 POP PUSH2 0x88C PUSH1 0x0 DUP4 ADD DUP5 PUSH2 0x7AA JUMP JUMPDEST SWAP3 SWAP2 POP POP JUMP JUMPDEST PUSH1 0x0 PUSH1 0x20 DUP3 ADD SWAP1 POP PUSH2 0x8A7 PUSH1 0x0 DUP4 ADD DUP5 PUSH2 0x7B9 JUMP JUMPDEST SWAP3 SWAP2 POP POP JUMP JUMPDEST PUSH1 0x0 PUSH1 0x20 DUP3 ADD SWAP1 POP DUP2 DUP2 SUB PUSH1 0x0 DUP4 ADD MSTORE PUSH2 0x8C6 DUP2 PUSH2 0x7C8 JUMP JUMPDEST SWAP1 POP SWAP2 SWAP1 POP JUMP JUMPDEST PUSH1 0x0 PUSH1 0x20 DUP3 ADD SWAP1 POP DUP2 DUP2 SUB PUSH1 0x0 DUP4 ADD MSTORE PUSH2 0x8E6 DUP2 PUSH2 0x7EB JUMP JUMPDEST SWAP1 POP SWAP2 SWAP1 POP JUMP JUMPDEST PUSH1 0x0 PUSH1 0x20 DUP3 ADD SWAP1 POP DUP2 DUP2 SUB PUSH1 0x0 DUP4 ADD MSTORE PUSH2 0x906 DUP2 PUSH2 0x80E JUMP JUMPDEST SWAP1 POP SWAP2 SWAP1 POP JUMP JUMPDEST PUSH1 0x0 PUSH1 0x20 DUP3 ADD SWAP1 POP DUP2 DUP2 SUB PUSH1 0x0 DUP4 ADD MSTORE PUSH2 0x926 DUP2 PUSH2 0x831 JUMP JUMPDEST SWAP1 POP SWAP2 SWAP1 POP JUMP JUMPDEST PUSH1 0x0 PUSH1 0x20 DUP3 ADD SWAP1 POP DUP2 DUP2 SUB PUSH1 0x0 DUP4 ADD MSTORE PUSH2 0x946 DUP2 PUSH2 0x854 JUMP JUMPDEST SWAP1 POP SWAP2 SWAP1 POP JUMP JUMPDEST PUSH1 0x0 DUP3 DUP3 MSTORE PUSH1 0x20 DUP3 ADD SWAP1 POP SWAP3 SWAP2 POP POP JUMP JUMPDEST PUSH1 0x0 PUSH2 0x969 DUP3 PUSH2 0x97C JUMP JUMPDEST SWAP1 POP SWAP2 SWAP1 POP JUMP JUMPDEST PUSH1 0x0 DUP2 ISZERO ISZERO SWAP1 POP SWAP2 SWAP1 POP JUMP JUMPDEST PUSH1 0x0 PUSH20 0xFFFFFFFFFFFFFFFFFFFFFFFFFFFFFFFFFFFFFFFF DUP3 AND SWAP1 POP SWAP2 SWAP1 POP JUMP JUMPDEST PUSH1 0x0 DUP1 REVERT JUMPDEST PUSH32 0x526F6C65733A206163636F756E7420616C72656164792068617320726F6C6500 PUSH1 0x0 DUP3 ADD MSTORE POP JUMP JUMPDEST PUSH32 0x4F776E61626C653A206E6577206F776E657220697320746865207A65726F2061 PUSH1 0x0 DUP3 ADD MSTORE PUSH32 0x6464726573730000000000000000000000000000000000000000000000000000 PUSH1 0x20 DUP3 ADD MSTORE POP JUMP JUMPDEST PUSH32 0x526F6C65733A206163636F756E7420646F6573206E6F74206861766520726F6C PUSH1 0x0 DUP3 ADD MSTORE PUSH32 0x6500000000000000000000000000000000000000000000000000000000000000 PUSH1 0x20 DUP3 ADD MSTORE POP JUMP JUMPDEST PUSH32 0x4F776E61626C653A2063616C6C6572206973206E6F7420746865206F776E6572 PUSH1 0x0 DUP3 ADD MSTORE POP JUMP JUMPDEST PUSH32 0x526F6C65733A206163636F756E7420697320746865207A65726F206164647265 PUSH1 0x0 DUP3 ADD MSTORE PUSH32 0x7373000000000000000000000000000000000000000000000000000000000000 PUSH1 0x20 DUP3 ADD MSTORE POP JUMP JUMPDEST PUSH2 0xAE9 DUP2 PUSH2 0x95E JUMP JUMPDEST DUP2 EQ PUSH2 0xAF4 JUMPI PUSH1 0x0 DUP1 REVERT JUMPDEST POP JUMP INVALID LOG2 PUSH5 0x6970667358 0x22 SLT KECCAK256 0xB3 SWAP5 DUP13 TIMESTAMP 0xAA 0x24 0xB5 SWAP2 SWAP1 0x2E DUP12 0xDF PUSH27 0x3DDB7230987D2E6F60D12B16AF083E80003A2864736F6C63430008 SMOD STOP CALLER "
				},
				"gasEstimates": {
					"creation": {
						"codeDepositCost": "572200",
						"executionCost": "infinite",
						"totalCost": "infinite"
					},
					"external": {
						"addAgent(address)": "infinite",
						"isAgent(address)": "infinite",
						"owner()": "2566",
						"removeAgent(address)": "infinite",
						"renounceOwnership()": "30374",
						"transferOwnership(address)": "30811"
					}
				},
				"methodIdentifiers": {
					"addAgent(address)": "84e79842",
					"isAgent(address)": "1ffbb064",
					"owner()": "8da5cb5b",
					"removeAgent(address)": "97a6278e",
					"renounceOwnership()": "715018a6",
					"transferOwnership(address)": "f2fde38b"
				}
			},
			"storageLayout": {
				"storage": [
					{
						"astId": 294,
						"contract": "contracts/roles/AgentRole.sol:AgentRole",
						"label": "_owner",
						"offset": 0,
						"slot": "0",
						"type": "t_address"
					},
					{
						"astId": 926,
						"contract": "contracts/roles/AgentRole.sol:AgentRole",
						"label": "_agents",
						"offset": 0,
						"slot": "1",
						"type": "t_struct(Role)996_storage"
					}
				],
				"types": {
					"t_address": {
						"encoding": "inplace",
						"label": "address",
						"numberOfBytes": "20"
					},
					"t_bool": {
						"encoding": "inplace",
						"label": "bool",
						"numberOfBytes": "1"
					},
					"t_mapping(t_address,t_bool)": {
						"encoding": "mapping",
						"key": "t_address",
						"label": "mapping(address => bool)",
						"numberOfBytes": "32",
						"value": "t_bool"
					},
					"t_struct(Role)996_storage": {
						"encoding": "inplace",
						"label": "struct Roles.Role",
						"members": [
							{
								"astId": 995,
								"contract": "contracts/roles/AgentRole.sol:AgentRole",
								"label": "bearer",
								"offset": 0,
								"slot": "0",
								"type": "t_mapping(t_address,t_bool)"
							}
						],
						"numberOfBytes": "32"
					}
				}
			},
			"userdoc": {
				"kind": "user",
				"methods": {},
				"version": 1
			}
		}
	}
}