{
	"contracts/registry/ClaimTopicsRegistry.sol": {
		"ClaimTopicsRegistry": {
			"abi": [
				{
					"anonymous": false,
					"inputs": [
						{
							"indexed": true,
							"internalType": "uint256",
							"name": "claimTopic",
							"type": "uint256"
						}
					],
					"name": "ClaimTopicAdded",
					"type": "event"
				},
				{
					"anonymous": false,
					"inputs": [
						{
							"indexed": true,
							"internalType": "uint256",
							"name": "claimTopic",
							"type": "uint256"
						}
					],
					"name": "ClaimTopicRemoved",
					"type": "event"
				},
				{
					"anonymous": false,
					"inputs": [
						{
							"indexed": true,
							"internalType": "address",
							"name": "previousOwner",
							"type": "address"
						},
						{
							"indexed": true,
							"internalType": "address",
							"name": "newOwner",
							"type": "address"
						}
					],
					"name": "OwnershipTransferred",
					"type": "event"
				},
				{
					"inputs": [
						{
							"internalType": "uint256",
							"name": "_claimTopic",
							"type": "uint256"
						}
					],
					"name": "addClaimTopic",
					"outputs": [],
					"stateMutability": "nonpayable",
					"type": "function"
				},
				{
					"inputs": [],
					"name": "getClaimTopics",
					"outputs": [
						{
							"internalType": "uint256[]",
							"name": "",
							"type": "uint256[]"
						}
					],
					"stateMutability": "view",
					"type": "function"
				},
				{
					"inputs": [],
					"name": "owner",
					"outputs": [
						{
							"internalType": "address",
							"name": "",
							"type": "address"
						}
					],
					"stateMutability": "view",
					"type": "function"
				},
				{
					"inputs": [
						{
							"internalType": "uint256",
							"name": "_claimTopic",
							"type": "uint256"
						}
					],
					"name": "removeClaimTopic",
					"outputs": [],
					"stateMutability": "nonpayable",
					"type": "function"
				},
				{
					"inputs": [],
					"name": "renounceOwnership",
					"outputs": [],
					"stateMutability": "nonpayable",
					"type": "function"
				},
				{
					"inputs": [
						{
							"internalType": "address",
							"name": "newOwner",
							"type": "address"
						}
					],
					"name": "transferOwnership",
					"outputs": [],
					"stateMutability": "nonpayable",
					"type": "function"
				},
				{
					"inputs": [
						{
							"internalType": "address",
							"name": "_newOwner",
							"type": "address"
						}
					],
					"name": "transferOwnershipOnClaimTopicsRegistryContract",
					"outputs": [],
					"stateMutability": "nonpayable",
					"type": "function"
				}
			],
			"devdoc": {
				"kind": "dev",
				"methods": {
					"addClaimTopic(uint256)": {
						"details": "See {IClaimTopicsRegistry-addClaimTopic}."
					},
					"getClaimTopics()": {
						"details": "See {IClaimTopicsRegistry-getClaimTopics}."
					},
					"owner()": {
						"details": "Returns the address of the current owner."
					},
					"removeClaimTopic(uint256)": {
						"details": "See {IClaimTopicsRegistry-removeClaimTopic}."
					},
					"renounceOwnership()": {
						"details": "Leaves the contract without owner. It will not be possible to call `onlyOwner` functions anymore. Can only be called by the current owner. NOTE: Renouncing ownership will leave the contract without an owner, thereby removing any functionality that is only available to the owner."
					},
					"transferOwnership(address)": {
						"details": "Transfers ownership of the contract to a new account (`newOwner`). Can only be called by the current owner."
					},
					"transferOwnershipOnClaimTopicsRegistryContract(address)": {
						"details": "See {IClaimTopicsRegistry-transferOwnershipOnClaimTopicsRegistryContract}."
					}
				},
				"stateVariables": {
					"claimTopics": {
						"details": "All required Claim Topics"
					}
				},
				"version": 1
			},
			"evm": {
				"assembly": "    /* \"contracts/registry/ClaimTopicsRegistry.sol\":1220:2723  contract ClaimTopicsRegistry is IClaimTopicsRegistry, Ownable {... */\n  mstore(0x40, 0x80)\n  callvalue\n  dup1\n  iszero\n  tag_1\n  jumpi\n  0x00\n  dup1\n  revert\ntag_1:\n  pop\n    /* \"@openzeppelin/contracts/access/Ownable.sol\":867:890  _setOwner(_msgSender()) */\n  tag_4\n    /* \"@openzeppelin/contracts/access/Ownable.sol\":877:889  _msgSender() */\n  tag_5\n    /* \"@openzeppelin/contracts/access/Ownable.sol\":877:887  _msgSender */\n  shl(0x20, tag_6)\n    /* \"@openzeppelin/contracts/access/Ownable.sol\":877:889  _msgSender() */\n  0x20\n  shr\n  jump\t// in\ntag_5:\n    /* \"@openzeppelin/contracts/access/Ownable.sol\":867:876  _setOwner */\n  shl(0x20, tag_7)\n    /* \"@openzeppelin/contracts/access/Ownable.sol\":867:890  _setOwner(_msgSender()) */\n  0x20\n  shr\n  jump\t// in\ntag_4:\n    /* \"contracts/registry/ClaimTopicsRegistry.sol\":1220:2723  contract ClaimTopicsRegistry is IClaimTopicsRegistry, Ownable {... */\n  jump(tag_8)\n    /* \"@openzeppelin/contracts/utils/Context.sol\":586:682  function _msgSender() internal view virtual returns (address) {... */\ntag_6:\n    /* \"@openzeppelin/contracts/utils/Context.sol\":639:646  address */\n  0x00\n    /* \"@openzeppelin/contracts/utils/Context.sol\":665:675  msg.sender */\n  caller\n    /* \"@openzeppelin/contracts/utils/Context.sol\":658:675  return msg.sender */\n  swap1\n  pop\n    /* \"@openzeppelin/contracts/utils/Context.sol\":586:682  function _msgSender() internal view virtual returns (address) {... */\n  swap1\n  jump\t// out\n    /* \"@openzeppelin/contracts/access/Ownable.sol\":2041:2210  function _setOwner(address newOwner) private {... */\ntag_7:\n    /* \"@openzeppelin/contracts/access/Ownable.sol\":2096:2112  address oldOwner */\n  0x00\n    /* \"@openzeppelin/contracts/access/Ownable.sol\":2115:2121  _owner */\n  dup1\n  0x00\n  swap1\n  sload\n  swap1\n  0x0100\n  exp\n  swap1\n  div\n  0xffffffffffffffffffffffffffffffffffffffff\n  and\n    /* \"@openzeppelin/contracts/access/Ownable.sol\":2096:2121  address oldOwner = _owner */\n  swap1\n  pop\n    /* \"@openzeppelin/contracts/access/Ownable.sol\":2140:2148  newOwner */\n  dup2\n    /* \"@openzeppelin/contracts/access/Ownable.sol\":2131:2137  _owner */\n  0x00\n  dup1\n    /* \"@openzeppelin/contracts/access/Ownable.sol\":2131:2148  _owner = newOwner */\n  0x0100\n  exp\n  dup2\n  sload\n  dup2\n  0xffffffffffffffffffffffffffffffffffffffff\n  mul\n  not\n  and\n  swap1\n  dup4\n  0xffffffffffffffffffffffffffffffffffffffff\n  and\n  mul\n  or\n  swap1\n  sstore\n  pop\n    /* \"@openzeppelin/contracts/access/Ownable.sol\":2194:2202  newOwner */\n  dup2\n    /* \"@openzeppelin/contracts/access/Ownable.sol\":2163:2203  OwnershipTransferred(oldOwner, newOwner) */\n  0xffffffffffffffffffffffffffffffffffffffff\n  and\n    /* \"@openzeppelin/contracts/access/Ownable.sol\":2184:2192  oldOwner */\n  dup2\n    /* \"@openzeppelin/contracts/access/Ownable.sol\":2163:2203  OwnershipTransferred(oldOwner, newOwner) */\n  0xffffffffffffffffffffffffffffffffffffffff\n  and\n  0x8be0079c531659141344cd1fd0a4f28419497f9722a3daafe3b4186f6b6457e0\n  mload(0x40)\n  mload(0x40)\n  dup1\n  swap2\n  sub\n  swap1\n  log3\n    /* \"@openzeppelin/contracts/access/Ownable.sol\":2086:2210  {... */\n  pop\n    /* \"@openzeppelin/contracts/access/Ownable.sol\":2041:2210  function _setOwner(address newOwner) private {... */\n  pop\n  jump\t// out\n    /* \"contracts/registry/ClaimTopicsRegistry.sol\":1220:2723  contract ClaimTopicsRegistry is IClaimTopicsRegistry, Ownable {... */\ntag_8:\n  dataSize(sub_0)\n  dup1\n  dataOffset(sub_0)\n  0x00\n  codecopy\n  0x00\n  return\nstop\n\nsub_0: assembly {\n        /* \"contracts/registry/ClaimTopicsRegistry.sol\":1220:2723  contract ClaimTopicsRegistry is IClaimTopicsRegistry, Ownable {... */\n      mstore(0x40, 0x80)\n      callvalue\n      dup1\n      iszero\n      tag_1\n      jumpi\n      0x00\n      dup1\n      revert\n    tag_1:\n      pop\n      jumpi(tag_2, lt(calldatasize, 0x04))\n      shr(0xe0, calldataload(0x00))\n      dup1\n      0xc7b22551\n      gt\n      tag_10\n      jumpi\n      dup1\n      0xc7b22551\n      eq\n      tag_6\n      jumpi\n      dup1\n      0xd5144472\n      eq\n      tag_7\n      jumpi\n      dup1\n      0xdf09d604\n      eq\n      tag_8\n      jumpi\n      dup1\n      0xf2fde38b\n      eq\n      tag_9\n      jumpi\n      jump(tag_2)\n    tag_10:\n      dup1\n      0x08297846\n      eq\n      tag_3\n      jumpi\n      dup1\n      0x715018a6\n      eq\n      tag_4\n      jumpi\n      dup1\n      0x8da5cb5b\n      eq\n      tag_5\n      jumpi\n    tag_2:\n      0x00\n      dup1\n      revert\n        /* \"contracts/registry/ClaimTopicsRegistry.sol\":1858:2274  function removeClaimTopic(uint256 _claimTopic) external override onlyOwner {... */\n    tag_3:\n      tag_11\n      0x04\n      dup1\n      calldatasize\n      sub\n      dup2\n      add\n      swap1\n      tag_12\n      swap2\n      swap1\n      tag_13\n      jump\t// in\n    tag_12:\n      tag_14\n      jump\t// in\n    tag_11:\n      stop\n        /* \"@openzeppelin/contracts/access/Ownable.sol\":1605:1697  function renounceOwnership() public virtual onlyOwner {... */\n    tag_4:\n      tag_15\n      tag_16\n      jump\t// in\n    tag_15:\n      stop\n        /* \"@openzeppelin/contracts/access/Ownable.sol\":973:1058  function owner() public view virtual returns (address) {... */\n    tag_5:\n      tag_17\n      tag_18\n      jump\t// in\n    tag_17:\n      mload(0x40)\n      tag_19\n      swap2\n      swap1\n      tag_20\n      jump\t// in\n    tag_19:\n      mload(0x40)\n      dup1\n      swap2\n      sub\n      swap1\n      return\n        /* \"contracts/registry/ClaimTopicsRegistry.sol\":1434:1778  function addClaimTopic(uint256 _claimTopic) external override onlyOwner {... */\n    tag_6:\n      tag_21\n      0x04\n      dup1\n      calldatasize\n      sub\n      dup2\n      add\n      swap1\n      tag_22\n      swap2\n      swap1\n      tag_13\n      jump\t// in\n    tag_22:\n      tag_23\n      jump\t// in\n    tag_21:\n      stop\n        /* \"contracts/registry/ClaimTopicsRegistry.sol\":2573:2721  function transferOwnershipOnClaimTopicsRegistryContract(address _newOwner) external override onlyOwner {... */\n    tag_7:\n      tag_24\n      0x04\n      dup1\n      calldatasize\n      sub\n      dup2\n      add\n      swap1\n      tag_25\n      swap2\n      swap1\n      tag_26\n      jump\t// in\n    tag_25:\n      tag_27\n      jump\t// in\n    tag_24:\n      stop\n        /* \"contracts/registry/ClaimTopicsRegistry.sol\":2352:2463  function getClaimTopics() external view override returns (uint256[] memory) {... */\n    tag_8:\n      tag_28\n      tag_29\n      jump\t// in\n    tag_28:\n      mload(0x40)\n      tag_30\n      swap2\n      swap1\n      tag_31\n      jump\t// in\n    tag_30:\n      mload(0x40)\n      dup1\n      swap2\n      sub\n      swap1\n      return\n        /* \"@openzeppelin/contracts/access/Ownable.sol\":1846:2035  function transferOwnership(address newOwner) public virtual onlyOwner {... */\n    tag_9:\n      tag_32\n      0x04\n      dup1\n      calldatasize\n      sub\n      dup2\n      add\n      swap1\n      tag_33\n      swap2\n      swap1\n      tag_26\n      jump\t// in\n    tag_33:\n      tag_34\n      jump\t// in\n    tag_32:\n      stop\n        /* \"contracts/registry/ClaimTopicsRegistry.sol\":1858:2274  function removeClaimTopic(uint256 _claimTopic) external override onlyOwner {... */\n    tag_14:\n        /* \"@openzeppelin/contracts/access/Ownable.sol\":1196:1208  _msgSender() */\n      tag_36\n        /* \"@openzeppelin/contracts/access/Ownable.sol\":1196:1206  _msgSender */\n      tag_37\n        /* \"@openzeppelin/contracts/access/Ownable.sol\":1196:1208  _msgSender() */\n      jump\t// in\n    tag_36:\n        /* \"@openzeppelin/contracts/access/Ownable.sol\":1185:1208  owner() == _msgSender() */\n      0xffffffffffffffffffffffffffffffffffffffff\n      and\n        /* \"@openzeppelin/contracts/access/Ownable.sol\":1185:1192  owner() */\n      tag_38\n        /* \"@openzeppelin/contracts/access/Ownable.sol\":1185:1190  owner */\n      tag_18\n        /* \"@openzeppelin/contracts/access/Ownable.sol\":1185:1192  owner() */\n      jump\t// in\n    tag_38:\n        /* \"@openzeppelin/contracts/access/Ownable.sol\":1185:1208  owner() == _msgSender() */\n      0xffffffffffffffffffffffffffffffffffffffff\n      and\n      eq\n        /* \"@openzeppelin/contracts/access/Ownable.sol\":1177:1245  require(owner() == _msgSender(), \"Ownable: caller is not the owner\") */\n      tag_39\n      jumpi\n      mload(0x40)\n      0x08c379a000000000000000000000000000000000000000000000000000000000\n      dup2\n      mstore\n      0x04\n      add\n      tag_40\n      swap1\n      tag_41\n      jump\t// in\n    tag_40:\n      mload(0x40)\n      dup1\n      swap2\n      sub\n      swap1\n      revert\n    tag_39:\n        /* \"contracts/registry/ClaimTopicsRegistry.sol\":1943:1957  uint256 length */\n      0x00\n        /* \"contracts/registry/ClaimTopicsRegistry.sol\":1960:1971  claimTopics */\n      0x01\n        /* \"contracts/registry/ClaimTopicsRegistry.sol\":1960:1978  claimTopics.length */\n      dup1\n      sload\n      swap1\n      pop\n        /* \"contracts/registry/ClaimTopicsRegistry.sol\":1943:1978  uint256 length = claimTopics.length */\n      swap1\n      pop\n        /* \"contracts/registry/ClaimTopicsRegistry.sol\":1993:2002  uint256 i */\n      0x00\n        /* \"contracts/registry/ClaimTopicsRegistry.sol\":1988:2268  for (uint256 i = 0; i < length; i++) {... */\n    tag_43:\n        /* \"contracts/registry/ClaimTopicsRegistry.sol\":2012:2018  length */\n      dup2\n        /* \"contracts/registry/ClaimTopicsRegistry.sol\":2008:2009  i */\n      dup2\n        /* \"contracts/registry/ClaimTopicsRegistry.sol\":2008:2018  i < length */\n      lt\n        /* \"contracts/registry/ClaimTopicsRegistry.sol\":1988:2268  for (uint256 i = 0; i < length; i++) {... */\n      iszero\n      tag_44\n      jumpi\n        /* \"contracts/registry/ClaimTopicsRegistry.sol\":2061:2072  _claimTopic */\n      dup3\n        /* \"contracts/registry/ClaimTopicsRegistry.sol\":2043:2054  claimTopics */\n      0x01\n        /* \"contracts/registry/ClaimTopicsRegistry.sol\":2055:2056  i */\n      dup3\n        /* \"contracts/registry/ClaimTopicsRegistry.sol\":2043:2057  claimTopics[i] */\n      dup2\n      sload\n      dup2\n      lt\n      tag_46\n      jumpi\n      tag_47\n      tag_48\n      jump\t// in\n    tag_47:\n    tag_46:\n      swap1\n      0x00\n      mstore\n      keccak256(0x00, 0x20)\n      add\n      sload\n        /* \"contracts/registry/ClaimTopicsRegistry.sol\":2043:2072  claimTopics[i] == _claimTopic */\n      eq\n        /* \"contracts/registry/ClaimTopicsRegistry.sol\":2039:2258  if (claimTopics[i] == _claimTopic) {... */\n      iszero\n      tag_50\n      jumpi\n        /* \"contracts/registry/ClaimTopicsRegistry.sol\":2109:2120  claimTopics */\n      0x01\n        /* \"contracts/registry/ClaimTopicsRegistry.sol\":2130:2131  1 */\n      dup1\n        /* \"contracts/registry/ClaimTopicsRegistry.sol\":2121:2127  length */\n      dup4\n        /* \"contracts/registry/ClaimTopicsRegistry.sol\":2121:2131  length - 1 */\n      tag_51\n      swap2\n      swap1\n      tag_52\n      jump\t// in\n    tag_51:\n        /* \"contracts/registry/ClaimTopicsRegistry.sol\":2109:2132  claimTopics[length - 1] */\n      dup2\n      sload\n      dup2\n      lt\n      tag_53\n      jumpi\n      tag_54\n      tag_48\n      jump\t// in\n    tag_54:\n    tag_53:\n      swap1\n      0x00\n      mstore\n      keccak256(0x00, 0x20)\n      add\n      sload\n        /* \"contracts/registry/ClaimTopicsRegistry.sol\":2092:2103  claimTopics */\n      0x01\n        /* \"contracts/registry/ClaimTopicsRegistry.sol\":2104:2105  i */\n      dup3\n        /* \"contracts/registry/ClaimTopicsRegistry.sol\":2092:2106  claimTopics[i] */\n      dup2\n      sload\n      dup2\n      lt\n      tag_56\n      jumpi\n      tag_57\n      tag_48\n      jump\t// in\n    tag_57:\n    tag_56:\n      swap1\n      0x00\n      mstore\n      keccak256(0x00, 0x20)\n      add\n        /* \"contracts/registry/ClaimTopicsRegistry.sol\":2092:2132  claimTopics[i] = claimTopics[length - 1] */\n      dup2\n      swap1\n      sstore\n      pop\n        /* \"contracts/registry/ClaimTopicsRegistry.sol\":2150:2161  claimTopics */\n      0x01\n        /* \"contracts/registry/ClaimTopicsRegistry.sol\":2150:2167  claimTopics.pop() */\n      dup1\n      sload\n      dup1\n      tag_59\n      jumpi\n      tag_60\n      tag_61\n      jump\t// in\n    tag_60:\n    tag_59:\n      0x01\n      swap1\n      sub\n      dup2\n      dup2\n      swap1\n      0x00\n      mstore\n      keccak256(0x00, 0x20)\n      add\n      0x00\n      swap1\n      sstore\n      swap1\n      sstore\n        /* \"contracts/registry/ClaimTopicsRegistry.sol\":2208:2219  _claimTopic */\n      dup3\n        /* \"contracts/registry/ClaimTopicsRegistry.sol\":2190:2220  ClaimTopicRemoved(_claimTopic) */\n      0x0b1381093c776453c1bbe54fd68be1b235c65db61d099cb50d194b2991e0eec5\n      mload(0x40)\n      mload(0x40)\n      dup1\n      swap2\n      sub\n      swap1\n      log2\n        /* \"contracts/registry/ClaimTopicsRegistry.sol\":2238:2243  break */\n      jump(tag_44)\n        /* \"contracts/registry/ClaimTopicsRegistry.sol\":2039:2258  if (claimTopics[i] == _claimTopic) {... */\n    tag_50:\n        /* \"contracts/registry/ClaimTopicsRegistry.sol\":2020:2023  i++ */\n      dup1\n      dup1\n      tag_63\n      swap1\n      tag_64\n      jump\t// in\n    tag_63:\n      swap2\n      pop\n      pop\n        /* \"contracts/registry/ClaimTopicsRegistry.sol\":1988:2268  for (uint256 i = 0; i < length; i++) {... */\n      jump(tag_43)\n    tag_44:\n      pop\n        /* \"contracts/registry/ClaimTopicsRegistry.sol\":1933:2274  {... */\n      pop\n        /* \"contracts/registry/ClaimTopicsRegistry.sol\":1858:2274  function removeClaimTopic(uint256 _claimTopic) external override onlyOwner {... */\n      pop\n      jump\t// out\n        /* \"@openzeppelin/contracts/access/Ownable.sol\":1605:1697  function renounceOwnership() public virtual onlyOwner {... */\n    tag_16:\n        /* \"@openzeppelin/contracts/access/Ownable.sol\":1196:1208  _msgSender() */\n      tag_66\n        /* \"@openzeppelin/contracts/access/Ownable.sol\":1196:1206  _msgSender */\n      tag_37\n        /* \"@openzeppelin/contracts/access/Ownable.sol\":1196:1208  _msgSender() */\n      jump\t// in\n    tag_66:\n        /* \"@openzeppelin/contracts/access/Ownable.sol\":1185:1208  owner() == _msgSender() */\n      0xffffffffffffffffffffffffffffffffffffffff\n      and\n        /* \"@openzeppelin/contracts/access/Ownable.sol\":1185:1192  owner() */\n      tag_67\n        /* \"@openzeppelin/contracts/access/Ownable.sol\":1185:1190  owner */\n      tag_18\n        /* \"@openzeppelin/contracts/access/Ownable.sol\":1185:1192  owner() */\n      jump\t// in\n    tag_67:\n        /* \"@openzeppelin/contracts/access/Ownable.sol\":1185:1208  owner() == _msgSender() */\n      0xffffffffffffffffffffffffffffffffffffffff\n      and\n      eq\n        /* \"@openzeppelin/contracts/access/Ownable.sol\":1177:1245  require(owner() == _msgSender(), \"Ownable: caller is not the owner\") */\n      tag_68\n      jumpi\n      mload(0x40)\n      0x08c379a000000000000000000000000000000000000000000000000000000000\n      dup2\n      mstore\n      0x04\n      add\n      tag_69\n      swap1\n      tag_41\n      jump\t// in\n    tag_69:\n      mload(0x40)\n      dup1\n      swap2\n      sub\n      swap1\n      revert\n    tag_68:\n        /* \"@openzeppelin/contracts/access/Ownable.sol\":1669:1690  _setOwner(address(0)) */\n      tag_71\n        /* \"@openzeppelin/contracts/access/Ownable.sol\":1687:1688  0 */\n      0x00\n        /* \"@openzeppelin/contracts/access/Ownable.sol\":1669:1678  _setOwner */\n      tag_72\n        /* \"@openzeppelin/contracts/access/Ownable.sol\":1669:1690  _setOwner(address(0)) */\n      jump\t// in\n    tag_71:\n        /* \"@openzeppelin/contracts/access/Ownable.sol\":1605:1697  function renounceOwnership() public virtual onlyOwner {... */\n      jump\t// out\n        /* \"@openzeppelin/contracts/access/Ownable.sol\":973:1058  function owner() public view virtual returns (address) {... */\n    tag_18:\n        /* \"@openzeppelin/contracts/access/Ownable.sol\":1019:1026  address */\n      0x00\n        /* \"@openzeppelin/contracts/access/Ownable.sol\":1045:1051  _owner */\n      dup1\n      0x00\n      swap1\n      sload\n      swap1\n      0x0100\n      exp\n      swap1\n      div\n      0xffffffffffffffffffffffffffffffffffffffff\n      and\n        /* \"@openzeppelin/contracts/access/Ownable.sol\":1038:1051  return _owner */\n      swap1\n      pop\n        /* \"@openzeppelin/contracts/access/Ownable.sol\":973:1058  function owner() public view virtual returns (address) {... */\n      swap1\n      jump\t// out\n        /* \"contracts/registry/ClaimTopicsRegistry.sol\":1434:1778  function addClaimTopic(uint256 _claimTopic) external override onlyOwner {... */\n    tag_23:\n        /* \"@openzeppelin/contracts/access/Ownable.sol\":1196:1208  _msgSender() */\n      tag_75\n        /* \"@openzeppelin/contracts/access/Ownable.sol\":1196:1206  _msgSender */\n      tag_37\n        /* \"@openzeppelin/contracts/access/Ownable.sol\":1196:1208  _msgSender() */\n      jump\t// in\n    tag_75:\n        /* \"@openzeppelin/contracts/access/Ownable.sol\":1185:1208  owner() == _msgSender() */\n      0xffffffffffffffffffffffffffffffffffffffff\n      and\n        /* \"@openzeppelin/contracts/access/Ownable.sol\":1185:1192  owner() */\n      tag_76\n        /* \"@openzeppelin/contracts/access/Ownable.sol\":1185:1190  owner */\n      tag_18\n        /* \"@openzeppelin/contracts/access/Ownable.sol\":1185:1192  owner() */\n      jump\t// in\n    tag_76:\n        /* \"@openzeppelin/contracts/access/Ownable.sol\":1185:1208  owner() == _msgSender() */\n      0xffffffffffffffffffffffffffffffffffffffff\n      and\n      eq\n        /* \"@openzeppelin/contracts/access/Ownable.sol\":1177:1245  require(owner() == _msgSender(), \"Ownable: caller is not the owner\") */\n      tag_77\n      jumpi\n      mload(0x40)\n      0x08c379a000000000000000000000000000000000000000000000000000000000\n      dup2\n      mstore\n      0x04\n      add\n      tag_78\n      swap1\n      tag_41\n      jump\t// in\n    tag_78:\n      mload(0x40)\n      dup1\n      swap2\n      sub\n      swap1\n      revert\n    tag_77:\n        /* \"contracts/registry/ClaimTopicsRegistry.sol\":1516:1530  uint256 length */\n      0x00\n        /* \"contracts/registry/ClaimTopicsRegistry.sol\":1533:1544  claimTopics */\n      0x01\n        /* \"contracts/registry/ClaimTopicsRegistry.sol\":1533:1551  claimTopics.length */\n      dup1\n      sload\n      swap1\n      pop\n        /* \"contracts/registry/ClaimTopicsRegistry.sol\":1516:1551  uint256 length = claimTopics.length */\n      swap1\n      pop\n        /* \"contracts/registry/ClaimTopicsRegistry.sol\":1566:1575  uint256 i */\n      0x00\n        /* \"contracts/registry/ClaimTopicsRegistry.sol\":1561:1690  for (uint256 i = 0; i < length; i++) {... */\n    tag_80:\n        /* \"contracts/registry/ClaimTopicsRegistry.sol\":1585:1591  length */\n      dup2\n        /* \"contracts/registry/ClaimTopicsRegistry.sol\":1581:1582  i */\n      dup2\n        /* \"contracts/registry/ClaimTopicsRegistry.sol\":1581:1591  i < length */\n      lt\n        /* \"contracts/registry/ClaimTopicsRegistry.sol\":1561:1690  for (uint256 i = 0; i < length; i++) {... */\n      iszero\n      tag_81\n      jumpi\n        /* \"contracts/registry/ClaimTopicsRegistry.sol\":1638:1649  _claimTopic */\n      dup3\n        /* \"contracts/registry/ClaimTopicsRegistry.sol\":1620:1631  claimTopics */\n      0x01\n        /* \"contracts/registry/ClaimTopicsRegistry.sol\":1632:1633  i */\n      dup3\n        /* \"contracts/registry/ClaimTopicsRegistry.sol\":1620:1634  claimTopics[i] */\n      dup2\n      sload\n      dup2\n      lt\n      tag_83\n      jumpi\n      tag_84\n      tag_48\n      jump\t// in\n    tag_84:\n    tag_83:\n      swap1\n      0x00\n      mstore\n      keccak256(0x00, 0x20)\n      add\n      sload\n        /* \"contracts/registry/ClaimTopicsRegistry.sol\":1620:1649  claimTopics[i] != _claimTopic */\n      eq\n      iszero\n        /* \"contracts/registry/ClaimTopicsRegistry.sol\":1612:1679  require(claimTopics[i] != _claimTopic, 'claimTopic already exists') */\n      tag_86\n      jumpi\n      mload(0x40)\n      0x08c379a000000000000000000000000000000000000000000000000000000000\n      dup2\n      mstore\n      0x04\n      add\n      tag_87\n      swap1\n      tag_88\n      jump\t// in\n    tag_87:\n      mload(0x40)\n      dup1\n      swap2\n      sub\n      swap1\n      revert\n    tag_86:\n        /* \"contracts/registry/ClaimTopicsRegistry.sol\":1593:1596  i++ */\n      dup1\n      dup1\n      tag_89\n      swap1\n      tag_64\n      jump\t// in\n    tag_89:\n      swap2\n      pop\n      pop\n        /* \"contracts/registry/ClaimTopicsRegistry.sol\":1561:1690  for (uint256 i = 0; i < length; i++) {... */\n      jump(tag_80)\n    tag_81:\n      pop\n        /* \"contracts/registry/ClaimTopicsRegistry.sol\":1699:1710  claimTopics */\n      0x01\n        /* \"contracts/registry/ClaimTopicsRegistry.sol\":1716:1727  _claimTopic */\n      dup3\n        /* \"contracts/registry/ClaimTopicsRegistry.sol\":1699:1728  claimTopics.push(_claimTopic) */\n      swap1\n      dup1\n      0x01\n      dup2\n      sload\n      add\n      dup1\n      dup3\n      sstore\n      dup1\n      swap2\n      pop\n      pop\n      0x01\n      swap1\n      sub\n      swap1\n      0x00\n      mstore\n      keccak256(0x00, 0x20)\n      add\n      0x00\n      swap1\n      swap2\n      swap1\n      swap2\n      swap1\n      swap2\n      pop\n      sstore\n        /* \"contracts/registry/ClaimTopicsRegistry.sol\":1759:1770  _claimTopic */\n      dup2\n        /* \"contracts/registry/ClaimTopicsRegistry.sol\":1743:1771  ClaimTopicAdded(_claimTopic) */\n      0x01c928b7f7ade2949e92366aa9454dbef3a416b731cf6ec786ba9595bbd814d6\n      mload(0x40)\n      mload(0x40)\n      dup1\n      swap2\n      sub\n      swap1\n      log2\n        /* \"contracts/registry/ClaimTopicsRegistry.sol\":1506:1778  {... */\n      pop\n        /* \"contracts/registry/ClaimTopicsRegistry.sol\":1434:1778  function addClaimTopic(uint256 _claimTopic) external override onlyOwner {... */\n      pop\n      jump\t// out\n        /* \"contracts/registry/ClaimTopicsRegistry.sol\":2573:2721  function transferOwnershipOnClaimTopicsRegistryContract(address _newOwner) external override onlyOwner {... */\n    tag_27:\n        /* \"@openzeppelin/contracts/access/Ownable.sol\":1196:1208  _msgSender() */\n      tag_92\n        /* \"@openzeppelin/contracts/access/Ownable.sol\":1196:1206  _msgSender */\n      tag_37\n        /* \"@openzeppelin/contracts/access/Ownable.sol\":1196:1208  _msgSender() */\n      jump\t// in\n    tag_92:\n        /* \"@openzeppelin/contracts/access/Ownable.sol\":1185:1208  owner() == _msgSender() */\n      0xffffffffffffffffffffffffffffffffffffffff\n      and\n        /* \"@openzeppelin/contracts/access/Ownable.sol\":1185:1192  owner() */\n      tag_93\n        /* \"@openzeppelin/contracts/access/Ownable.sol\":1185:1190  owner */\n      tag_18\n        /* \"@openzeppelin/contracts/access/Ownable.sol\":1185:1192  owner() */\n      jump\t// in\n    tag_93:\n        /* \"@openzeppelin/contracts/access/Ownable.sol\":1185:1208  owner() == _msgSender() */\n      0xffffffffffffffffffffffffffffffffffffffff\n      and\n      eq\n        /* \"@openzeppelin/contracts/access/Ownable.sol\":1177:1245  require(owner() == _msgSender(), \"Ownable: caller is not the owner\") */\n      tag_94\n      jumpi\n      mload(0x40)\n      0x08c379a000000000000000000000000000000000000000000000000000000000\n      dup2\n      mstore\n      0x04\n      add\n      tag_95\n      swap1\n      tag_41\n      jump\t// in\n    tag_95:\n      mload(0x40)\n      dup1\n      swap2\n      sub\n      swap1\n      revert\n    tag_94:\n        /* \"contracts/registry/ClaimTopicsRegistry.sol\":2686:2714  transferOwnership(_newOwner) */\n      tag_97\n        /* \"contracts/registry/ClaimTopicsRegistry.sol\":2704:2713  _newOwner */\n      dup2\n        /* \"contracts/registry/ClaimTopicsRegistry.sol\":2686:2703  transferOwnership */\n      tag_34\n        /* \"contracts/registry/ClaimTopicsRegistry.sol\":2686:2714  transferOwnership(_newOwner) */\n      jump\t// in\n    tag_97:\n        /* \"contracts/registry/ClaimTopicsRegistry.sol\":2573:2721  function transferOwnershipOnClaimTopicsRegistryContract(address _newOwner) external override onlyOwner {... */\n      pop\n      jump\t// out\n        /* \"contracts/registry/ClaimTopicsRegistry.sol\":2352:2463  function getClaimTopics() external view override returns (uint256[] memory) {... */\n    tag_29:\n        /* \"contracts/registry/ClaimTopicsRegistry.sol\":2410:2426  uint256[] memory */\n      0x60\n        /* \"contracts/registry/ClaimTopicsRegistry.sol\":2445:2456  claimTopics */\n      0x01\n        /* \"contracts/registry/ClaimTopicsRegistry.sol\":2438:2456  return claimTopics */\n      dup1\n      sload\n      dup1\n      0x20\n      mul\n      0x20\n      add\n      mload(0x40)\n      swap1\n      dup2\n      add\n      0x40\n      mstore\n      dup1\n      swap3\n      swap2\n      swap1\n      dup2\n      dup2\n      mstore\n      0x20\n      add\n      dup3\n      dup1\n      sload\n      dup1\n      iszero\n      tag_99\n      jumpi\n      0x20\n      mul\n      dup3\n      add\n      swap2\n      swap1\n      0x00\n      mstore\n      keccak256(0x00, 0x20)\n      swap1\n    tag_100:\n      dup2\n      sload\n      dup2\n      mstore\n      0x20\n      add\n      swap1\n      0x01\n      add\n      swap1\n      dup1\n      dup4\n      gt\n      tag_100\n      jumpi\n    tag_99:\n      pop\n      pop\n      pop\n      pop\n      pop\n      swap1\n      pop\n        /* \"contracts/registry/ClaimTopicsRegistry.sol\":2352:2463  function getClaimTopics() external view override returns (uint256[] memory) {... */\n      swap1\n      jump\t// out\n        /* \"@openzeppelin/contracts/access/Ownable.sol\":1846:2035  function transferOwnership(address newOwner) public virtual onlyOwner {... */\n    tag_34:\n        /* \"@openzeppelin/contracts/access/Ownable.sol\":1196:1208  _msgSender() */\n      tag_102\n        /* \"@openzeppelin/contracts/access/Ownable.sol\":1196:1206  _msgSender */\n      tag_37\n        /* \"@openzeppelin/contracts/access/Ownable.sol\":1196:1208  _msgSender() */\n      jump\t// in\n    tag_102:\n        /* \"@openzeppelin/contracts/access/Ownable.sol\":1185:1208  owner() == _msgSender() */\n      0xffffffffffffffffffffffffffffffffffffffff\n      and\n        /* \"@openzeppelin/contracts/access/Ownable.sol\":1185:1192  owner() */\n      tag_103\n        /* \"@openzeppelin/contracts/access/Ownable.sol\":1185:1190  owner */\n      tag_18\n        /* \"@openzeppelin/contracts/access/Ownable.sol\":1185:1192  owner() */\n      jump\t// in\n    tag_103:\n        /* \"@openzeppelin/contracts/access/Ownable.sol\":1185:1208  owner() == _msgSender() */\n      0xffffffffffffffffffffffffffffffffffffffff\n      and\n      eq\n        /* \"@openzeppelin/contracts/access/Ownable.sol\":1177:1245  require(owner() == _msgSender(), \"Ownable: caller is not the owner\") */\n      tag_104\n      jumpi\n      mload(0x40)\n      0x08c379a000000000000000000000000000000000000000000000000000000000\n      dup2\n      mstore\n      0x04\n      add\n      tag_105\n      swap1\n      tag_41\n      jump\t// in\n    tag_105:\n      mload(0x40)\n      dup1\n      swap2\n      sub\n      swap1\n      revert\n    tag_104:\n        /* \"@openzeppelin/contracts/access/Ownable.sol\":1954:1955  0 */\n      0x00\n        /* \"@openzeppelin/contracts/access/Ownable.sol\":1934:1956  newOwner != address(0) */\n      0xffffffffffffffffffffffffffffffffffffffff\n      and\n        /* \"@openzeppelin/contracts/access/Ownable.sol\":1934:1942  newOwner */\n      dup2\n        /* \"@openzeppelin/contracts/access/Ownable.sol\":1934:1956  newOwner != address(0) */\n      0xffffffffffffffffffffffffffffffffffffffff\n      and\n      eq\n      iszero\n        /* \"@openzeppelin/contracts/access/Ownable.sol\":1926:1999  require(newOwner != address(0), \"Ownable: new owner is the zero address\") */\n      tag_107\n      jumpi\n      mload(0x40)\n      0x08c379a000000000000000000000000000000000000000000000000000000000\n      dup2\n      mstore\n      0x04\n      add\n      tag_108\n      swap1\n      tag_109\n      jump\t// in\n    tag_108:\n      mload(0x40)\n      dup1\n      swap2\n      sub\n      swap1\n      revert\n    tag_107:\n        /* \"@openzeppelin/contracts/access/Ownable.sol\":2009:2028  _setOwner(newOwner) */\n      tag_110\n        /* \"@openzeppelin/contracts/access/Ownable.sol\":2019:2027  newOwner */\n      dup2\n        /* \"@openzeppelin/contracts/access/Ownable.sol\":2009:2018  _setOwner */\n      tag_72\n        /* \"@openzeppelin/contracts/access/Ownable.sol\":2009:2028  _setOwner(newOwner) */\n      jump\t// in\n    tag_110:\n        /* \"@openzeppelin/contracts/access/Ownable.sol\":1846:2035  function transferOwnership(address newOwner) public virtual onlyOwner {... */\n      pop\n      jump\t// out\n        /* \"@openzeppelin/contracts/utils/Context.sol\":586:682  function _msgSender() internal view virtual returns (address) {... */\n    tag_37:\n        /* \"@openzeppelin/contracts/utils/Context.sol\":639:646  address */\n      0x00\n        /* \"@openzeppelin/contracts/utils/Context.sol\":665:675  msg.sender */\n      caller\n        /* \"@openzeppelin/contracts/utils/Context.sol\":658:675  return msg.sender */\n      swap1\n      pop\n        /* \"@openzeppelin/contracts/utils/Context.sol\":586:682  function _msgSender() internal view virtual returns (address) {... */\n      swap1\n      jump\t// out\n        /* \"@openzeppelin/contracts/access/Ownable.sol\":2041:2210  function _setOwner(address newOwner) private {... */\n    tag_72:\n        /* \"@openzeppelin/contracts/access/Ownable.sol\":2096:2112  address oldOwner */\n      0x00\n        /* \"@openzeppelin/contracts/access/Ownable.sol\":2115:2121  _owner */\n      dup1\n      0x00\n      swap1\n      sload\n      swap1\n      0x0100\n      exp\n      swap1\n      div\n      0xffffffffffffffffffffffffffffffffffffffff\n      and\n        /* \"@openzeppelin/contracts/access/Ownable.sol\":2096:2121  address oldOwner = _owner */\n      swap1\n      pop\n        /* \"@openzeppelin/contracts/access/Ownable.sol\":2140:2148  newOwner */\n      dup2\n        /* \"@openzeppelin/contracts/access/Ownable.sol\":2131:2137  _owner */\n      0x00\n      dup1\n        /* \"@openzeppelin/contracts/access/Ownable.sol\":2131:2148  _owner = newOwner */\n      0x0100\n      exp\n      dup2\n      sload\n      dup2\n      0xffffffffffffffffffffffffffffffffffffffff\n      mul\n      not\n      and\n      swap1\n      dup4\n      0xffffffffffffffffffffffffffffffffffffffff\n      and\n      mul\n      or\n      swap1\n      sstore\n      pop\n        /* \"@openzeppelin/contracts/access/Ownable.sol\":2194:2202  newOwner */\n      dup2\n        /* \"@openzeppelin/contracts/access/Ownable.sol\":2163:2203  OwnershipTransferred(oldOwner, newOwner) */\n      0xffffffffffffffffffffffffffffffffffffffff\n      and\n        /* \"@openzeppelin/contracts/access/Ownable.sol\":2184:2192  oldOwner */\n      dup2\n        /* \"@openzeppelin/contracts/access/Ownable.sol\":2163:2203  OwnershipTransferred(oldOwner, newOwner) */\n      0xffffffffffffffffffffffffffffffffffffffff\n      and\n      0x8be0079c531659141344cd1fd0a4f28419497f9722a3daafe3b4186f6b6457e0\n      mload(0x40)\n      mload(0x40)\n      dup1\n      swap2\n      sub\n      swap1\n      log3\n        /* \"@openzeppelin/contracts/access/Ownable.sol\":2086:2210  {... */\n      pop\n        /* \"@openzeppelin/contracts/access/Ownable.sol\":2041:2210  function _setOwner(address newOwner) private {... */\n      pop\n      jump\t// out\n        /* \"#utility.yul\":7:146   */\n    tag_114:\n        /* \"#utility.yul\":53:58   */\n      0x00\n        /* \"#utility.yul\":91:97   */\n      dup2\n        /* \"#utility.yul\":78:98   */\n      calldataload\n        /* \"#utility.yul\":69:98   */\n      swap1\n      pop\n        /* \"#utility.yul\":107:140   */\n      tag_116\n        /* \"#utility.yul\":134:139   */\n      dup2\n        /* \"#utility.yul\":107:140   */\n      tag_117\n      jump\t// in\n    tag_116:\n        /* \"#utility.yul\":7:146   */\n      swap3\n      swap2\n      pop\n      pop\n      jump\t// out\n        /* \"#utility.yul\":152:291   */\n    tag_118:\n        /* \"#utility.yul\":198:203   */\n      0x00\n        /* \"#utility.yul\":236:242   */\n      dup2\n        /* \"#utility.yul\":223:243   */\n      calldataload\n        /* \"#utility.yul\":214:243   */\n      swap1\n      pop\n        /* \"#utility.yul\":252:285   */\n      tag_120\n        /* \"#utility.yul\":279:284   */\n      dup2\n        /* \"#utility.yul\":252:285   */\n      tag_121\n      jump\t// in\n    tag_120:\n        /* \"#utility.yul\":152:291   */\n      swap3\n      swap2\n      pop\n      pop\n      jump\t// out\n        /* \"#utility.yul\":297:626   */\n    tag_26:\n        /* \"#utility.yul\":356:362   */\n      0x00\n        /* \"#utility.yul\":405:407   */\n      0x20\n        /* \"#utility.yul\":393:402   */\n      dup3\n        /* \"#utility.yul\":384:391   */\n      dup5\n        /* \"#utility.yul\":380:403   */\n      sub\n        /* \"#utility.yul\":376:408   */\n      slt\n        /* \"#utility.yul\":373:492   */\n      iszero\n      tag_123\n      jumpi\n        /* \"#utility.yul\":411:490   */\n      tag_124\n      tag_125\n      jump\t// in\n    tag_124:\n        /* \"#utility.yul\":373:492   */\n    tag_123:\n        /* \"#utility.yul\":531:532   */\n      0x00\n        /* \"#utility.yul\":556:609   */\n      tag_126\n        /* \"#utility.yul\":601:608   */\n      dup5\n        /* \"#utility.yul\":592:598   */\n      dup3\n        /* \"#utility.yul\":581:590   */\n      dup6\n        /* \"#utility.yul\":577:599   */\n      add\n        /* \"#utility.yul\":556:609   */\n      tag_114\n      jump\t// in\n    tag_126:\n        /* \"#utility.yul\":546:609   */\n      swap2\n      pop\n        /* \"#utility.yul\":502:619   */\n      pop\n        /* \"#utility.yul\":297:626   */\n      swap3\n      swap2\n      pop\n      pop\n      jump\t// out\n        /* \"#utility.yul\":632:961   */\n    tag_13:\n        /* \"#utility.yul\":691:697   */\n      0x00\n        /* \"#utility.yul\":740:742   */\n      0x20\n        /* \"#utility.yul\":728:737   */\n      dup3\n        /* \"#utility.yul\":719:726   */\n      dup5\n        /* \"#utility.yul\":715:738   */\n      sub\n        /* \"#utility.yul\":711:743   */\n      slt\n        /* \"#utility.yul\":708:827   */\n      iszero\n      tag_128\n      jumpi\n        /* \"#utility.yul\":746:825   */\n      tag_129\n      tag_125\n      jump\t// in\n    tag_129:\n        /* \"#utility.yul\":708:827   */\n    tag_128:\n        /* \"#utility.yul\":866:867   */\n      0x00\n        /* \"#utility.yul\":891:944   */\n      tag_130\n        /* \"#utility.yul\":936:943   */\n      dup5\n        /* \"#utility.yul\":927:933   */\n      dup3\n        /* \"#utility.yul\":916:925   */\n      dup6\n        /* \"#utility.yul\":912:934   */\n      add\n        /* \"#utility.yul\":891:944   */\n      tag_118\n      jump\t// in\n    tag_130:\n        /* \"#utility.yul\":881:944   */\n      swap2\n      pop\n        /* \"#utility.yul\":837:954   */\n      pop\n        /* \"#utility.yul\":632:961   */\n      swap3\n      swap2\n      pop\n      pop\n      jump\t// out\n        /* \"#utility.yul\":967:1146   */\n    tag_131:\n        /* \"#utility.yul\":1036:1046   */\n      0x00\n        /* \"#utility.yul\":1057:1103   */\n      tag_133\n        /* \"#utility.yul\":1099:1102   */\n      dup4\n        /* \"#utility.yul\":1091:1097   */\n      dup4\n        /* \"#utility.yul\":1057:1103   */\n      tag_134\n      jump\t// in\n    tag_133:\n        /* \"#utility.yul\":1135:1139   */\n      0x20\n        /* \"#utility.yul\":1130:1133   */\n      dup4\n        /* \"#utility.yul\":1126:1140   */\n      add\n        /* \"#utility.yul\":1112:1140   */\n      swap1\n      pop\n        /* \"#utility.yul\":967:1146   */\n      swap3\n      swap2\n      pop\n      pop\n      jump\t// out\n        /* \"#utility.yul\":1152:1270   */\n    tag_135:\n        /* \"#utility.yul\":1239:1263   */\n      tag_137\n        /* \"#utility.yul\":1257:1262   */\n      dup2\n        /* \"#utility.yul\":1239:1263   */\n      tag_138\n      jump\t// in\n    tag_137:\n        /* \"#utility.yul\":1234:1237   */\n      dup3\n        /* \"#utility.yul\":1227:1264   */\n      mstore\n        /* \"#utility.yul\":1152:1270   */\n      pop\n      pop\n      jump\t// out\n        /* \"#utility.yul\":1306:2038   */\n    tag_139:\n        /* \"#utility.yul\":1425:1428   */\n      0x00\n        /* \"#utility.yul\":1454:1508   */\n      tag_141\n        /* \"#utility.yul\":1502:1507   */\n      dup3\n        /* \"#utility.yul\":1454:1508   */\n      tag_142\n      jump\t// in\n    tag_141:\n        /* \"#utility.yul\":1524:1610   */\n      tag_143\n        /* \"#utility.yul\":1603:1609   */\n      dup2\n        /* \"#utility.yul\":1598:1601   */\n      dup6\n        /* \"#utility.yul\":1524:1610   */\n      tag_144\n      jump\t// in\n    tag_143:\n        /* \"#utility.yul\":1517:1610   */\n      swap4\n      pop\n        /* \"#utility.yul\":1634:1690   */\n      tag_145\n        /* \"#utility.yul\":1684:1689   */\n      dup4\n        /* \"#utility.yul\":1634:1690   */\n      tag_146\n      jump\t// in\n    tag_145:\n        /* \"#utility.yul\":1713:1720   */\n      dup1\n        /* \"#utility.yul\":1744:1745   */\n      0x00\n        /* \"#utility.yul\":1729:2013   */\n    tag_147:\n        /* \"#utility.yul\":1754:1760   */\n      dup4\n        /* \"#utility.yul\":1751:1752   */\n      dup2\n        /* \"#utility.yul\":1748:1761   */\n      lt\n        /* \"#utility.yul\":1729:2013   */\n      iszero\n      tag_149\n      jumpi\n        /* \"#utility.yul\":1830:1836   */\n      dup2\n        /* \"#utility.yul\":1824:1837   */\n      mload\n        /* \"#utility.yul\":1857:1920   */\n      tag_150\n        /* \"#utility.yul\":1916:1919   */\n      dup9\n        /* \"#utility.yul\":1901:1914   */\n      dup3\n        /* \"#utility.yul\":1857:1920   */\n      tag_131\n      jump\t// in\n    tag_150:\n        /* \"#utility.yul\":1850:1920   */\n      swap8\n      pop\n        /* \"#utility.yul\":1943:2003   */\n      tag_151\n        /* \"#utility.yul\":1996:2002   */\n      dup4\n        /* \"#utility.yul\":1943:2003   */\n      tag_152\n      jump\t// in\n    tag_151:\n        /* \"#utility.yul\":1933:2003   */\n      swap3\n      pop\n        /* \"#utility.yul\":1789:2013   */\n      pop\n        /* \"#utility.yul\":1776:1777   */\n      0x01\n        /* \"#utility.yul\":1773:1774   */\n      dup2\n        /* \"#utility.yul\":1769:1778   */\n      add\n        /* \"#utility.yul\":1764:1778   */\n      swap1\n      pop\n        /* \"#utility.yul\":1729:2013   */\n      jump(tag_147)\n    tag_149:\n        /* \"#utility.yul\":1733:1747   */\n      pop\n        /* \"#utility.yul\":2029:2032   */\n      dup6\n        /* \"#utility.yul\":2022:2032   */\n      swap4\n      pop\n        /* \"#utility.yul\":1430:2038   */\n      pop\n      pop\n      pop\n        /* \"#utility.yul\":1306:2038   */\n      swap3\n      swap2\n      pop\n      pop\n      jump\t// out\n        /* \"#utility.yul\":2044:2410   */\n    tag_153:\n        /* \"#utility.yul\":2186:2189   */\n      0x00\n        /* \"#utility.yul\":2207:2274   */\n      tag_155\n        /* \"#utility.yul\":2271:2273   */\n      0x26\n        /* \"#utility.yul\":2266:2269   */\n      dup4\n        /* \"#utility.yul\":2207:2274   */\n      tag_156\n      jump\t// in\n    tag_155:\n        /* \"#utility.yul\":2200:2274   */\n      swap2\n      pop\n        /* \"#utility.yul\":2283:2376   */\n      tag_157\n        /* \"#utility.yul\":2372:2375   */\n      dup3\n        /* \"#utility.yul\":2283:2376   */\n      tag_158\n      jump\t// in\n    tag_157:\n        /* \"#utility.yul\":2401:2403   */\n      0x40\n        /* \"#utility.yul\":2396:2399   */\n      dup3\n        /* \"#utility.yul\":2392:2404   */\n      add\n        /* \"#utility.yul\":2385:2404   */\n      swap1\n      pop\n        /* \"#utility.yul\":2044:2410   */\n      swap2\n      swap1\n      pop\n      jump\t// out\n        /* \"#utility.yul\":2416:2782   */\n    tag_159:\n        /* \"#utility.yul\":2558:2561   */\n      0x00\n        /* \"#utility.yul\":2579:2646   */\n      tag_161\n        /* \"#utility.yul\":2643:2645   */\n      0x19\n        /* \"#utility.yul\":2638:2641   */\n      dup4\n        /* \"#utility.yul\":2579:2646   */\n      tag_156\n      jump\t// in\n    tag_161:\n        /* \"#utility.yul\":2572:2646   */\n      swap2\n      pop\n        /* \"#utility.yul\":2655:2748   */\n      tag_162\n        /* \"#utility.yul\":2744:2747   */\n      dup3\n        /* \"#utility.yul\":2655:2748   */\n      tag_163\n      jump\t// in\n    tag_162:\n        /* \"#utility.yul\":2773:2775   */\n      0x20\n        /* \"#utility.yul\":2768:2771   */\n      dup3\n        /* \"#utility.yul\":2764:2776   */\n      add\n        /* \"#utility.yul\":2757:2776   */\n      swap1\n      pop\n        /* \"#utility.yul\":2416:2782   */\n      swap2\n      swap1\n      pop\n      jump\t// out\n        /* \"#utility.yul\":2788:3154   */\n    tag_164:\n        /* \"#utility.yul\":2930:2933   */\n      0x00\n        /* \"#utility.yul\":2951:3018   */\n      tag_166\n        /* \"#utility.yul\":3015:3017   */\n      0x20\n        /* \"#utility.yul\":3010:3013   */\n      dup4\n        /* \"#utility.yul\":2951:3018   */\n      tag_156\n      jump\t// in\n    tag_166:\n        /* \"#utility.yul\":2944:3018   */\n      swap2\n      pop\n        /* \"#utility.yul\":3027:3120   */\n      tag_167\n        /* \"#utility.yul\":3116:3119   */\n      dup3\n        /* \"#utility.yul\":3027:3120   */\n      tag_168\n      jump\t// in\n    tag_167:\n        /* \"#utility.yul\":3145:3147   */\n      0x20\n        /* \"#utility.yul\":3140:3143   */\n      dup3\n        /* \"#utility.yul\":3136:3148   */\n      add\n        /* \"#utility.yul\":3129:3148   */\n      swap1\n      pop\n        /* \"#utility.yul\":2788:3154   */\n      swap2\n      swap1\n      pop\n      jump\t// out\n        /* \"#utility.yul\":3160:3268   */\n    tag_134:\n        /* \"#utility.yul\":3237:3261   */\n      tag_170\n        /* \"#utility.yul\":3255:3260   */\n      dup2\n        /* \"#utility.yul\":3237:3261   */\n      tag_171\n      jump\t// in\n    tag_170:\n        /* \"#utility.yul\":3232:3235   */\n      dup3\n        /* \"#utility.yul\":3225:3262   */\n      mstore\n        /* \"#utility.yul\":3160:3268   */\n      pop\n      pop\n      jump\t// out\n        /* \"#utility.yul\":3274:3496   */\n    tag_20:\n        /* \"#utility.yul\":3367:3371   */\n      0x00\n        /* \"#utility.yul\":3405:3407   */\n      0x20\n        /* \"#utility.yul\":3394:3403   */\n      dup3\n        /* \"#utility.yul\":3390:3408   */\n      add\n        /* \"#utility.yul\":3382:3408   */\n      swap1\n      pop\n        /* \"#utility.yul\":3418:3489   */\n      tag_173\n        /* \"#utility.yul\":3486:3487   */\n      0x00\n        /* \"#utility.yul\":3475:3484   */\n      dup4\n        /* \"#utility.yul\":3471:3488   */\n      add\n        /* \"#utility.yul\":3462:3468   */\n      dup5\n        /* \"#utility.yul\":3418:3489   */\n      tag_135\n      jump\t// in\n    tag_173:\n        /* \"#utility.yul\":3274:3496   */\n      swap3\n      swap2\n      pop\n      pop\n      jump\t// out\n        /* \"#utility.yul\":3502:3875   */\n    tag_31:\n        /* \"#utility.yul\":3645:3649   */\n      0x00\n        /* \"#utility.yul\":3683:3685   */\n      0x20\n        /* \"#utility.yul\":3672:3681   */\n      dup3\n        /* \"#utility.yul\":3668:3686   */\n      add\n        /* \"#utility.yul\":3660:3686   */\n      swap1\n      pop\n        /* \"#utility.yul\":3732:3741   */\n      dup2\n        /* \"#utility.yul\":3726:3730   */\n      dup2\n        /* \"#utility.yul\":3722:3742   */\n      sub\n        /* \"#utility.yul\":3718:3719   */\n      0x00\n        /* \"#utility.yul\":3707:3716   */\n      dup4\n        /* \"#utility.yul\":3703:3720   */\n      add\n        /* \"#utility.yul\":3696:3743   */\n      mstore\n        /* \"#utility.yul\":3760:3868   */\n      tag_175\n        /* \"#utility.yul\":3863:3867   */\n      dup2\n        /* \"#utility.yul\":3854:3860   */\n      dup5\n        /* \"#utility.yul\":3760:3868   */\n      tag_139\n      jump\t// in\n    tag_175:\n        /* \"#utility.yul\":3752:3868   */\n      swap1\n      pop\n        /* \"#utility.yul\":3502:3875   */\n      swap3\n      swap2\n      pop\n      pop\n      jump\t// out\n        /* \"#utility.yul\":3881:4300   */\n    tag_109:\n        /* \"#utility.yul\":4047:4051   */\n      0x00\n        /* \"#utility.yul\":4085:4087   */\n      0x20\n        /* \"#utility.yul\":4074:4083   */\n      dup3\n        /* \"#utility.yul\":4070:4088   */\n      add\n        /* \"#utility.yul\":4062:4088   */\n      swap1\n      pop\n        /* \"#utility.yul\":4134:4143   */\n      dup2\n        /* \"#utility.yul\":4128:4132   */\n      dup2\n        /* \"#utility.yul\":4124:4144   */\n      sub\n        /* \"#utility.yul\":4120:4121   */\n      0x00\n        /* \"#utility.yul\":4109:4118   */\n      dup4\n        /* \"#utility.yul\":4105:4122   */\n      add\n        /* \"#utility.yul\":4098:4145   */\n      mstore\n        /* \"#utility.yul\":4162:4293   */\n      tag_177\n        /* \"#utility.yul\":4288:4292   */\n      dup2\n        /* \"#utility.yul\":4162:4293   */\n      tag_153\n      jump\t// in\n    tag_177:\n        /* \"#utility.yul\":4154:4293   */\n      swap1\n      pop\n        /* \"#utility.yul\":3881:4300   */\n      swap2\n      swap1\n      pop\n      jump\t// out\n        /* \"#utility.yul\":4306:4725   */\n    tag_88:\n        /* \"#utility.yul\":4472:4476   */\n      0x00\n        /* \"#utility.yul\":4510:4512   */\n      0x20\n        /* \"#utility.yul\":4499:4508   */\n      dup3\n        /* \"#utility.yul\":4495:4513   */\n      add\n        /* \"#utility.yul\":4487:4513   */\n      swap1\n      pop\n        /* \"#utility.yul\":4559:4568   */\n      dup2\n        /* \"#utility.yul\":4553:4557   */\n      dup2\n        /* \"#utility.yul\":4549:4569   */\n      sub\n        /* \"#utility.yul\":4545:4546   */\n      0x00\n        /* \"#utility.yul\":4534:4543   */\n      dup4\n        /* \"#utility.yul\":4530:4547   */\n      add\n        /* \"#utility.yul\":4523:4570   */\n      mstore\n        /* \"#utility.yul\":4587:4718   */\n      tag_179\n        /* \"#utility.yul\":4713:4717   */\n      dup2\n        /* \"#utility.yul\":4587:4718   */\n      tag_159\n      jump\t// in\n    tag_179:\n        /* \"#utility.yul\":4579:4718   */\n      swap1\n      pop\n        /* \"#utility.yul\":4306:4725   */\n      swap2\n      swap1\n      pop\n      jump\t// out\n        /* \"#utility.yul\":4731:5150   */\n    tag_41:\n        /* \"#utility.yul\":4897:4901   */\n      0x00\n        /* \"#utility.yul\":4935:4937   */\n      0x20\n        /* \"#utility.yul\":4924:4933   */\n      dup3\n        /* \"#utility.yul\":4920:4938   */\n      add\n        /* \"#utility.yul\":4912:4938   */\n      swap1\n      pop\n        /* \"#utility.yul\":4984:4993   */\n      dup2\n        /* \"#utility.yul\":4978:4982   */\n      dup2\n        /* \"#utility.yul\":4974:4994   */\n      sub\n        /* \"#utility.yul\":4970:4971   */\n      0x00\n        /* \"#utility.yul\":4959:4968   */\n      dup4\n        /* \"#utility.yul\":4955:4972   */\n      add\n        /* \"#utility.yul\":4948:4995   */\n      mstore\n        /* \"#utility.yul\":5012:5143   */\n      tag_181\n        /* \"#utility.yul\":5138:5142   */\n      dup2\n        /* \"#utility.yul\":5012:5143   */\n      tag_164\n      jump\t// in\n    tag_181:\n        /* \"#utility.yul\":5004:5143   */\n      swap1\n      pop\n        /* \"#utility.yul\":4731:5150   */\n      swap2\n      swap1\n      pop\n      jump\t// out\n        /* \"#utility.yul\":5237:5369   */\n    tag_146:\n        /* \"#utility.yul\":5304:5308   */\n      0x00\n        /* \"#utility.yul\":5327:5330   */\n      dup2\n        /* \"#utility.yul\":5319:5330   */\n      swap1\n      pop\n        /* \"#utility.yul\":5357:5361   */\n      0x20\n        /* \"#utility.yul\":5352:5355   */\n      dup3\n        /* \"#utility.yul\":5348:5362   */\n      add\n        /* \"#utility.yul\":5340:5362   */\n      swap1\n      pop\n        /* \"#utility.yul\":5237:5369   */\n      swap2\n      swap1\n      pop\n      jump\t// out\n        /* \"#utility.yul\":5375:5489   */\n    tag_142:\n        /* \"#utility.yul\":5442:5448   */\n      0x00\n        /* \"#utility.yul\":5476:5481   */\n      dup2\n        /* \"#utility.yul\":5470:5482   */\n      mload\n        /* \"#utility.yul\":5460:5482   */\n      swap1\n      pop\n        /* \"#utility.yul\":5375:5489   */\n      swap2\n      swap1\n      pop\n      jump\t// out\n        /* \"#utility.yul\":5495:5608   */\n    tag_152:\n        /* \"#utility.yul\":5565:5569   */\n      0x00\n        /* \"#utility.yul\":5597:5601   */\n      0x20\n        /* \"#utility.yul\":5592:5595   */\n      dup3\n        /* \"#utility.yul\":5588:5602   */\n      add\n        /* \"#utility.yul\":5580:5602   */\n      swap1\n      pop\n        /* \"#utility.yul\":5495:5608   */\n      swap2\n      swap1\n      pop\n      jump\t// out\n        /* \"#utility.yul\":5614:5798   */\n    tag_144:\n        /* \"#utility.yul\":5713:5724   */\n      0x00\n        /* \"#utility.yul\":5747:5753   */\n      dup3\n        /* \"#utility.yul\":5742:5745   */\n      dup3\n        /* \"#utility.yul\":5735:5754   */\n      mstore\n        /* \"#utility.yul\":5787:5791   */\n      0x20\n        /* \"#utility.yul\":5782:5785   */\n      dup3\n        /* \"#utility.yul\":5778:5792   */\n      add\n        /* \"#utility.yul\":5763:5792   */\n      swap1\n      pop\n        /* \"#utility.yul\":5614:5798   */\n      swap3\n      swap2\n      pop\n      pop\n      jump\t// out\n        /* \"#utility.yul\":5804:5973   */\n    tag_156:\n        /* \"#utility.yul\":5888:5899   */\n      0x00\n        /* \"#utility.yul\":5922:5928   */\n      dup3\n        /* \"#utility.yul\":5917:5920   */\n      dup3\n        /* \"#utility.yul\":5910:5929   */\n      mstore\n        /* \"#utility.yul\":5962:5966   */\n      0x20\n        /* \"#utility.yul\":5957:5960   */\n      dup3\n        /* \"#utility.yul\":5953:5967   */\n      add\n        /* \"#utility.yul\":5938:5967   */\n      swap1\n      pop\n        /* \"#utility.yul\":5804:5973   */\n      swap3\n      swap2\n      pop\n      pop\n      jump\t// out\n        /* \"#utility.yul\":5979:6170   */\n    tag_52:\n        /* \"#utility.yul\":6019:6023   */\n      0x00\n        /* \"#utility.yul\":6039:6059   */\n      tag_190\n        /* \"#utility.yul\":6057:6058   */\n      dup3\n        /* \"#utility.yul\":6039:6059   */\n      tag_171\n      jump\t// in\n    tag_190:\n        /* \"#utility.yul\":6034:6059   */\n      swap2\n      pop\n        /* \"#utility.yul\":6073:6093   */\n      tag_191\n        /* \"#utility.yul\":6091:6092   */\n      dup4\n        /* \"#utility.yul\":6073:6093   */\n      tag_171\n      jump\t// in\n    tag_191:\n        /* \"#utility.yul\":6068:6093   */\n      swap3\n      pop\n        /* \"#utility.yul\":6112:6113   */\n      dup3\n        /* \"#utility.yul\":6109:6110   */\n      dup3\n        /* \"#utility.yul\":6106:6114   */\n      lt\n        /* \"#utility.yul\":6103:6137   */\n      iszero\n      tag_192\n      jumpi\n        /* \"#utility.yul\":6117:6135   */\n      tag_193\n      tag_194\n      jump\t// in\n    tag_193:\n        /* \"#utility.yul\":6103:6137   */\n    tag_192:\n        /* \"#utility.yul\":6162:6163   */\n      dup3\n        /* \"#utility.yul\":6159:6160   */\n      dup3\n        /* \"#utility.yul\":6155:6164   */\n      sub\n        /* \"#utility.yul\":6147:6164   */\n      swap1\n      pop\n        /* \"#utility.yul\":5979:6170   */\n      swap3\n      swap2\n      pop\n      pop\n      jump\t// out\n        /* \"#utility.yul\":6176:6272   */\n    tag_138:\n        /* \"#utility.yul\":6213:6220   */\n      0x00\n        /* \"#utility.yul\":6242:6266   */\n      tag_196\n        /* \"#utility.yul\":6260:6265   */\n      dup3\n        /* \"#utility.yul\":6242:6266   */\n      tag_197\n      jump\t// in\n    tag_196:\n        /* \"#utility.yul\":6231:6266   */\n      swap1\n      pop\n        /* \"#utility.yul\":6176:6272   */\n      swap2\n      swap1\n      pop\n      jump\t// out\n        /* \"#utility.yul\":6278:6404   */\n    tag_197:\n        /* \"#utility.yul\":6315:6322   */\n      0x00\n        /* \"#utility.yul\":6355:6397   */\n      0xffffffffffffffffffffffffffffffffffffffff\n        /* \"#utility.yul\":6348:6353   */\n      dup3\n        /* \"#utility.yul\":6344:6398   */\n      and\n        /* \"#utility.yul\":6333:6398   */\n      swap1\n      pop\n        /* \"#utility.yul\":6278:6404   */\n      swap2\n      swap1\n      pop\n      jump\t// out\n        /* \"#utility.yul\":6410:6487   */\n    tag_171:\n        /* \"#utility.yul\":6447:6454   */\n      0x00\n        /* \"#utility.yul\":6476:6481   */\n      dup2\n        /* \"#utility.yul\":6465:6481   */\n      swap1\n      pop\n        /* \"#utility.yul\":6410:6487   */\n      swap2\n      swap1\n      pop\n      jump\t// out\n        /* \"#utility.yul\":6493:6726   */\n    tag_64:\n        /* \"#utility.yul\":6532:6535   */\n      0x00\n        /* \"#utility.yul\":6555:6579   */\n      tag_201\n        /* \"#utility.yul\":6573:6578   */\n      dup3\n        /* \"#utility.yul\":6555:6579   */\n      tag_171\n      jump\t// in\n    tag_201:\n        /* \"#utility.yul\":6546:6579   */\n      swap2\n      pop\n        /* \"#utility.yul\":6601:6667   */\n      0xffffffffffffffffffffffffffffffffffffffffffffffffffffffffffffffff\n        /* \"#utility.yul\":6594:6599   */\n      dup3\n        /* \"#utility.yul\":6591:6668   */\n      eq\n        /* \"#utility.yul\":6588:6691   */\n      iszero\n      tag_202\n      jumpi\n        /* \"#utility.yul\":6671:6689   */\n      tag_203\n      tag_194\n      jump\t// in\n    tag_203:\n        /* \"#utility.yul\":6588:6691   */\n    tag_202:\n        /* \"#utility.yul\":6718:6719   */\n      0x01\n        /* \"#utility.yul\":6711:6716   */\n      dup3\n        /* \"#utility.yul\":6707:6720   */\n      add\n        /* \"#utility.yul\":6700:6720   */\n      swap1\n      pop\n        /* \"#utility.yul\":6493:6726   */\n      swap2\n      swap1\n      pop\n      jump\t// out\n        /* \"#utility.yul\":6732:6912   */\n    tag_194:\n        /* \"#utility.yul\":6780:6857   */\n      0x4e487b7100000000000000000000000000000000000000000000000000000000\n        /* \"#utility.yul\":6777:6778   */\n      0x00\n        /* \"#utility.yul\":6770:6858   */\n      mstore\n        /* \"#utility.yul\":6877:6881   */\n      0x11\n        /* \"#utility.yul\":6874:6875   */\n      0x04\n        /* \"#utility.yul\":6867:6882   */\n      mstore\n        /* \"#utility.yul\":6901:6905   */\n      0x24\n        /* \"#utility.yul\":6898:6899   */\n      0x00\n        /* \"#utility.yul\":6891:6906   */\n      revert\n        /* \"#utility.yul\":6918:7098   */\n    tag_61:\n        /* \"#utility.yul\":6966:7043   */\n      0x4e487b7100000000000000000000000000000000000000000000000000000000\n        /* \"#utility.yul\":6963:6964   */\n      0x00\n        /* \"#utility.yul\":6956:7044   */\n      mstore\n        /* \"#utility.yul\":7063:7067   */\n      0x31\n        /* \"#utility.yul\":7060:7061   */\n      0x04\n        /* \"#utility.yul\":7053:7068   */\n      mstore\n        /* \"#utility.yul\":7087:7091   */\n      0x24\n        /* \"#utility.yul\":7084:7085   */\n      0x00\n        /* \"#utility.yul\":7077:7092   */\n      revert\n        /* \"#utility.yul\":7104:7284   */\n    tag_48:\n        /* \"#utility.yul\":7152:7229   */\n      0x4e487b7100000000000000000000000000000000000000000000000000000000\n        /* \"#utility.yul\":7149:7150   */\n      0x00\n        /* \"#utility.yul\":7142:7230   */\n      mstore\n        /* \"#utility.yul\":7249:7253   */\n      0x32\n        /* \"#utility.yul\":7246:7247   */\n      0x04\n        /* \"#utility.yul\":7239:7254   */\n      mstore\n        /* \"#utility.yul\":7273:7277   */\n      0x24\n        /* \"#utility.yul\":7270:7271   */\n      0x00\n        /* \"#utility.yul\":7263:7278   */\n      revert\n        /* \"#utility.yul\":7413:7530   */\n    tag_125:\n        /* \"#utility.yul\":7522:7523   */\n      0x00\n        /* \"#utility.yul\":7519:7520   */\n      dup1\n        /* \"#utility.yul\":7512:7524   */\n      revert\n        /* \"#utility.yul\":7536:7761   */\n    tag_158:\n        /* \"#utility.yul\":7676:7710   */\n      0x4f776e61626c653a206e6577206f776e657220697320746865207a65726f2061\n        /* \"#utility.yul\":7672:7673   */\n      0x00\n        /* \"#utility.yul\":7664:7670   */\n      dup3\n        /* \"#utility.yul\":7660:7674   */\n      add\n        /* \"#utility.yul\":7653:7711   */\n      mstore\n        /* \"#utility.yul\":7745:7753   */\n      0x6464726573730000000000000000000000000000000000000000000000000000\n        /* \"#utility.yul\":7740:7742   */\n      0x20\n        /* \"#utility.yul\":7732:7738   */\n      dup3\n        /* \"#utility.yul\":7728:7743   */\n      add\n        /* \"#utility.yul\":7721:7754   */\n      mstore\n        /* \"#utility.yul\":7536:7761   */\n      pop\n      jump\t// out\n        /* \"#utility.yul\":7767:7942   */\n    tag_163:\n        /* \"#utility.yul\":7907:7934   */\n      0x636c61696d546f70696320616c72656164792065786973747300000000000000\n        /* \"#utility.yul\":7903:7904   */\n      0x00\n        /* \"#utility.yul\":7895:7901   */\n      dup3\n        /* \"#utility.yul\":7891:7905   */\n      add\n        /* \"#utility.yul\":7884:7935   */\n      mstore\n        /* \"#utility.yul\":7767:7942   */\n      pop\n      jump\t// out\n        /* \"#utility.yul\":7948:8130   */\n    tag_168:\n        /* \"#utility.yul\":8088:8122   */\n      0x4f776e61626c653a2063616c6c6572206973206e6f7420746865206f776e6572\n        /* \"#utility.yul\":8084:8085   */\n      0x00\n        /* \"#utility.yul\":8076:8082   */\n      dup3\n        /* \"#utility.yul\":8072:8086   */\n      add\n        /* \"#utility.yul\":8065:8123   */\n      mstore\n        /* \"#utility.yul\":7948:8130   */\n      pop\n      jump\t// out\n        /* \"#utility.yul\":8136:8258   */\n    tag_117:\n        /* \"#utility.yul\":8209:8233   */\n      tag_214\n        /* \"#utility.yul\":8227:8232   */\n      dup2\n        /* \"#utility.yul\":8209:8233   */\n      tag_138\n      jump\t// in\n    tag_214:\n        /* \"#utility.yul\":8202:8207   */\n      dup2\n        /* \"#utility.yul\":8199:8234   */\n      eq\n        /* \"#utility.yul\":8189:8252   */\n      tag_215\n      jumpi\n        /* \"#utility.yul\":8248:8249   */\n      0x00\n        /* \"#utility.yul\":8245:8246   */\n      dup1\n        /* \"#utility.yul\":8238:8250   */\n      revert\n        /* \"#utility.yul\":8189:8252   */\n    tag_215:\n        /* \"#utility.yul\":8136:8258   */\n      pop\n      jump\t// out\n        /* \"#utility.yul\":8264:8386   */\n    tag_121:\n        /* \"#utility.yul\":8337:8361   */\n      tag_217\n        /* \"#utility.yul\":8355:8360   */\n      dup2\n        /* \"#utility.yul\":8337:8361   */\n      tag_171\n      jump\t// in\n    tag_217:\n        /* \"#utility.yul\":8330:8335   */\n      dup2\n        /* \"#utility.yul\":8327:8362   */\n      eq\n        /* \"#utility.yul\":8317:8380   */\n      tag_218\n      jumpi\n        /* \"#utility.yul\":8376:8377   */\n      0x00\n        /* \"#utility.yul\":8373:8374   */\n      dup1\n        /* \"#utility.yul\":8366:8378   */\n      revert\n        /* \"#utility.yul\":8317:8380   */\n    tag_218:\n        /* \"#utility.yul\":8264:8386   */\n      pop\n      jump\t// out\n\n    auxdata: 0xa2646970667358221220b27fb4001a69c0c7e8b18914386f40e4d96fc66f22adeb93b35b6ff26a53257d64736f6c63430008070033\n}\n",
				"bytecode": {
					"linkReferences": {},
					"object": "608060405234801561001057600080fd5b5061002d61002261003260201b60201c565b61003a60201b60201c565b6100fe565b600033905090565b60008060009054906101000a900473ffffffffffffffffffffffffffffffffffffffff169050816000806101000a81548173ffffffffffffffffffffffffffffffffffffffff021916908373ffffffffffffffffffffffffffffffffffffffff1602179055508173ffffffffffffffffffffffffffffffffffffffff168173ffffffffffffffffffffffffffffffffffffffff167f8be0079c531659141344cd1fd0a4f28419497f9722a3daafe3b4186f6b6457e060405160405180910390a35050565b610c1a8061010d6000396000f3fe608060405234801561001057600080fd5b506004361061007d5760003560e01c8063c7b225511161005b578063c7b22551146100c6578063d5144472146100e2578063df09d604146100fe578063f2fde38b1461011c5761007d565b80630829784614610082578063715018a61461009e5780638da5cb5b146100a8575b600080fd5b61009c600480360381019061009791906107b9565b610138565b005b6100a66102ad565b005b6100b0610335565b6040516100bd91906108e3565b60405180910390f35b6100e060048036038101906100db91906107b9565b61035e565b005b6100fc60048036038101906100f7919061078c565b6104be565b005b610106610546565b60405161011391906108fe565b60405180910390f35b6101366004803603810190610131919061078c565b61059e565b005b610140610696565b73ffffffffffffffffffffffffffffffffffffffff1661015e610335565b73ffffffffffffffffffffffffffffffffffffffff16146101b4576040517f08c379a00000000000000000000000000000000000000000000000000000000081526004016101ab90610960565b60405180910390fd5b6000600180549050905060005b818110156102a85782600182815481106101de576101dd610ae1565b5b9060005260206000200154141561029557600180836101fd91906109ca565b8154811061020e5761020d610ae1565b5b90600052602060002001546001828154811061022d5761022c610ae1565b5b9060005260206000200181905550600180548061024d5761024c610ab2565b5b60019003818190600052602060002001600090559055827f0b1381093c776453c1bbe54fd68be1b235c65db61d099cb50d194b2991e0eec560405160405180910390a26102a8565b80806102a090610a3a565b9150506101c1565b505050565b6102b5610696565b73ffffffffffffffffffffffffffffffffffffffff166102d3610335565b73ffffffffffffffffffffffffffffffffffffffff1614610329576040517f08c379a000000000000000000000000000000000000000000000000000000000815260040161032090610960565b60405180910390fd5b610333600061069e565b565b60008060009054906101000a900473ffffffffffffffffffffffffffffffffffffffff16905090565b610366610696565b73ffffffffffffffffffffffffffffffffffffffff16610384610335565b73ffffffffffffffffffffffffffffffffffffffff16146103da576040517f08c379a00000000000000000000000000000000000000000000000000000000081526004016103d190610960565b60405180910390fd5b6000600180549050905060005b8181101561046357826001828154811061040457610403610ae1565b5b90600052602060002001541415610450576040517f08c379a000000000000000000000000000000000000000000000000000000000815260040161044790610940565b60405180910390fd5b808061045b90610a3a565b9150506103e7565b506001829080600181540180825580915050600190039060005260206000200160009091909190915055817f01c928b7f7ade2949e92366aa9454dbef3a416b731cf6ec786ba9595bbd814d660405160405180910390a25050565b6104c6610696565b73ffffffffffffffffffffffffffffffffffffffff166104e4610335565b73ffffffffffffffffffffffffffffffffffffffff161461053a576040517f08c379a000000000000000000000000000000000000000000000000000000000815260040161053190610960565b60405180910390fd5b6105438161059e565b50565b6060600180548060200260200160405190810160405280929190818152602001828054801561059457602002820191906000526020600020905b815481526020019060010190808311610580575b5050505050905090565b6105a6610696565b73ffffffffffffffffffffffffffffffffffffffff166105c4610335565b73ffffffffffffffffffffffffffffffffffffffff161461061a576040517f08c379a000000000000000000000000000000000000000000000000000000000815260040161061190610960565b60405180910390fd5b600073ffffffffffffffffffffffffffffffffffffffff168173ffffffffffffffffffffffffffffffffffffffff16141561068a576040517f08c379a000000000000000000000000000000000000000000000000000000000815260040161068190610920565b60405180910390fd5b6106938161069e565b50565b600033905090565b60008060009054906101000a900473ffffffffffffffffffffffffffffffffffffffff169050816000806101000a81548173ffffffffffffffffffffffffffffffffffffffff021916908373ffffffffffffffffffffffffffffffffffffffff1602179055508173ffffffffffffffffffffffffffffffffffffffff168173ffffffffffffffffffffffffffffffffffffffff167f8be0079c531659141344cd1fd0a4f28419497f9722a3daafe3b4186f6b6457e060405160405180910390a35050565b60008135905061077181610bb6565b92915050565b60008135905061078681610bcd565b92915050565b6000602082840312156107a2576107a1610b10565b5b60006107b084828501610762565b91505092915050565b6000602082840312156107cf576107ce610b10565b5b60006107dd84828501610777565b91505092915050565b60006107f283836108d4565b60208301905092915050565b610807816109fe565b82525050565b600061081882610990565b61082281856109a8565b935061082d83610980565b8060005b8381101561085e57815161084588826107e6565b97506108508361099b565b925050600181019050610831565b5085935050505092915050565b60006108786026836109b9565b915061088382610b15565b604082019050919050565b600061089b6019836109b9565b91506108a682610b64565b602082019050919050565b60006108be6020836109b9565b91506108c982610b8d565b602082019050919050565b6108dd81610a30565b82525050565b60006020820190506108f860008301846107fe565b92915050565b60006020820190508181036000830152610918818461080d565b905092915050565b600060208201905081810360008301526109398161086b565b9050919050565b600060208201905081810360008301526109598161088e565b9050919050565b60006020820190508181036000830152610979816108b1565b9050919050565b6000819050602082019050919050565b600081519050919050565b6000602082019050919050565b600082825260208201905092915050565b600082825260208201905092915050565b60006109d582610a30565b91506109e083610a30565b9250828210156109f3576109f2610a83565b5b828203905092915050565b6000610a0982610a10565b9050919050565b600073ffffffffffffffffffffffffffffffffffffffff82169050919050565b6000819050919050565b6000610a4582610a30565b91507fffffffffffffffffffffffffffffffffffffffffffffffffffffffffffffffff821415610a7857610a77610a83565b5b600182019050919050565b7f4e487b7100000000000000000000000000000000000000000000000000000000600052601160045260246000fd5b7f4e487b7100000000000000000000000000000000000000000000000000000000600052603160045260246000fd5b7f4e487b7100000000000000000000000000000000000000000000000000000000600052603260045260246000fd5b600080fd5b7f4f776e61626c653a206e6577206f776e657220697320746865207a65726f206160008201527f6464726573730000000000000000000000000000000000000000000000000000602082015250565b7f636c61696d546f70696320616c72656164792065786973747300000000000000600082015250565b7f4f776e61626c653a2063616c6c6572206973206e6f7420746865206f776e6572600082015250565b610bbf816109fe565b8114610bca57600080fd5b50565b610bd681610a30565b8114610be157600080fd5b5056fea2646970667358221220b27fb4001a69c0c7e8b18914386f40e4d96fc66f22adeb93b35b6ff26a53257d64736f6c63430008070033",
					"opcodes": "PUSH1 0x80 PUSH1 0x40 MSTORE CALLVALUE DUP1 ISZERO PUSH2 0x10 JUMPI PUSH1 0x0 DUP1 REVERT JUMPDEST POP PUSH2 0x2D PUSH2 0x22 PUSH2 0x32 PUSH1 0x20 SHL PUSH1 0x20 SHR JUMP JUMPDEST PUSH2 0x3A PUSH1 0x20 SHL PUSH1 0x20 SHR JUMP JUMPDEST PUSH2 0xFE JUMP JUMPDEST PUSH1 0x0 CALLER SWAP1 POP SWAP1 JUMP JUMPDEST PUSH1 0x0 DUP1 PUSH1 0x0 SWAP1 SLOAD SWAP1 PUSH2 0x100 EXP SWAP1 DIV PUSH20 0xFFFFFFFFFFFFFFFFFFFFFFFFFFFFFFFFFFFFFFFF AND SWAP1 POP DUP2 PUSH1 0x0 DUP1 PUSH2 0x100 EXP DUP2 SLOAD DUP2 PUSH20 0xFFFFFFFFFFFFFFFFFFFFFFFFFFFFFFFFFFFFFFFF MUL NOT AND SWAP1 DUP4 PUSH20 0xFFFFFFFFFFFFFFFFFFFFFFFFFFFFFFFFFFFFFFFF AND MUL OR SWAP1 SSTORE POP DUP2 PUSH20 0xFFFFFFFFFFFFFFFFFFFFFFFFFFFFFFFFFFFFFFFF AND DUP2 PUSH20 0xFFFFFFFFFFFFFFFFFFFFFFFFFFFFFFFFFFFFFFFF AND PUSH32 0x8BE0079C531659141344CD1FD0A4F28419497F9722A3DAAFE3B4186F6B6457E0 PUSH1 0x40 MLOAD PUSH1 0x40 MLOAD DUP1 SWAP2 SUB SWAP1 LOG3 POP POP JUMP JUMPDEST PUSH2 0xC1A DUP1 PUSH2 0x10D PUSH1 0x0 CODECOPY PUSH1 0x0 RETURN INVALID PUSH1 0x80 PUSH1 0x40 MSTORE CALLVALUE DUP1 ISZERO PUSH2 0x10 JUMPI PUSH1 0x0 DUP1 REVERT JUMPDEST POP PUSH1 0x4 CALLDATASIZE LT PUSH2 0x7D JUMPI PUSH1 0x0 CALLDATALOAD PUSH1 0xE0 SHR DUP1 PUSH4 0xC7B22551 GT PUSH2 0x5B JUMPI DUP1 PUSH4 0xC7B22551 EQ PUSH2 0xC6 JUMPI DUP1 PUSH4 0xD5144472 EQ PUSH2 0xE2 JUMPI DUP1 PUSH4 0xDF09D604 EQ PUSH2 0xFE JUMPI DUP1 PUSH4 0xF2FDE38B EQ PUSH2 0x11C JUMPI PUSH2 0x7D JUMP JUMPDEST DUP1 PUSH4 0x8297846 EQ PUSH2 0x82 JUMPI DUP1 PUSH4 0x715018A6 EQ PUSH2 0x9E JUMPI DUP1 PUSH4 0x8DA5CB5B EQ PUSH2 0xA8 JUMPI JUMPDEST PUSH1 0x0 DUP1 REVERT JUMPDEST PUSH2 0x9C PUSH1 0x4 DUP1 CALLDATASIZE SUB DUP2 ADD SWAP1 PUSH2 0x97 SWAP2 SWAP1 PUSH2 0x7B9 JUMP JUMPDEST PUSH2 0x138 JUMP JUMPDEST STOP JUMPDEST PUSH2 0xA6 PUSH2 0x2AD JUMP JUMPDEST STOP JUMPDEST PUSH2 0xB0 PUSH2 0x335 JUMP JUMPDEST PUSH1 0x40 MLOAD PUSH2 0xBD SWAP2 SWAP1 PUSH2 0x8E3 JUMP JUMPDEST PUSH1 0x40 MLOAD DUP1 SWAP2 SUB SWAP1 RETURN JUMPDEST PUSH2 0xE0 PUSH1 0x4 DUP1 CALLDATASIZE SUB DUP2 ADD SWAP1 PUSH2 0xDB SWAP2 SWAP1 PUSH2 0x7B9 JUMP JUMPDEST PUSH2 0x35E JUMP JUMPDEST STOP JUMPDEST PUSH2 0xFC PUSH1 0x4 DUP1 CALLDATASIZE SUB DUP2 ADD SWAP1 PUSH2 0xF7 SWAP2 SWAP1 PUSH2 0x78C JUMP JUMPDEST PUSH2 0x4BE JUMP JUMPDEST STOP JUMPDEST PUSH2 0x106 PUSH2 0x546 JUMP JUMPDEST PUSH1 0x40 MLOAD PUSH2 0x113 SWAP2 SWAP1 PUSH2 0x8FE JUMP JUMPDEST PUSH1 0x40 MLOAD DUP1 SWAP2 SUB SWAP1 RETURN JUMPDEST PUSH2 0x136 PUSH1 0x4 DUP1 CALLDATASIZE SUB DUP2 ADD SWAP1 PUSH2 0x131 SWAP2 SWAP1 PUSH2 0x78C JUMP JUMPDEST PUSH2 0x59E JUMP JUMPDEST STOP JUMPDEST PUSH2 0x140 PUSH2 0x696 JUMP JUMPDEST PUSH20 0xFFFFFFFFFFFFFFFFFFFFFFFFFFFFFFFFFFFFFFFF AND PUSH2 0x15E PUSH2 0x335 JUMP JUMPDEST PUSH20 0xFFFFFFFFFFFFFFFFFFFFFFFFFFFFFFFFFFFFFFFF AND EQ PUSH2 0x1B4 JUMPI PUSH1 0x40 MLOAD PUSH32 0x8C379A000000000000000000000000000000000000000000000000000000000 DUP2 MSTORE PUSH1 0x4 ADD PUSH2 0x1AB SWAP1 PUSH2 0x960 JUMP JUMPDEST PUSH1 0x40 MLOAD DUP1 SWAP2 SUB SWAP1 REVERT JUMPDEST PUSH1 0x0 PUSH1 0x1 DUP1 SLOAD SWAP1 POP SWAP1 POP PUSH1 0x0 JUMPDEST DUP2 DUP2 LT ISZERO PUSH2 0x2A8 JUMPI DUP3 PUSH1 0x1 DUP3 DUP2 SLOAD DUP2 LT PUSH2 0x1DE JUMPI PUSH2 0x1DD PUSH2 0xAE1 JUMP JUMPDEST JUMPDEST SWAP1 PUSH1 0x0 MSTORE PUSH1 0x20 PUSH1 0x0 KECCAK256 ADD SLOAD EQ ISZERO PUSH2 0x295 JUMPI PUSH1 0x1 DUP1 DUP4 PUSH2 0x1FD SWAP2 SWAP1 PUSH2 0x9CA JUMP JUMPDEST DUP2 SLOAD DUP2 LT PUSH2 0x20E JUMPI PUSH2 0x20D PUSH2 0xAE1 JUMP JUMPDEST JUMPDEST SWAP1 PUSH1 0x0 MSTORE PUSH1 0x20 PUSH1 0x0 KECCAK256 ADD SLOAD PUSH1 0x1 DUP3 DUP2 SLOAD DUP2 LT PUSH2 0x22D JUMPI PUSH2 0x22C PUSH2 0xAE1 JUMP JUMPDEST JUMPDEST SWAP1 PUSH1 0x0 MSTORE PUSH1 0x20 PUSH1 0x0 KECCAK256 ADD DUP2 SWAP1 SSTORE POP PUSH1 0x1 DUP1 SLOAD DUP1 PUSH2 0x24D JUMPI PUSH2 0x24C PUSH2 0xAB2 JUMP JUMPDEST JUMPDEST PUSH1 0x1 SWAP1 SUB DUP2 DUP2 SWAP1 PUSH1 0x0 MSTORE PUSH1 0x20 PUSH1 0x0 KECCAK256 ADD PUSH1 0x0 SWAP1 SSTORE SWAP1 SSTORE DUP3 PUSH32 0xB1381093C776453C1BBE54FD68BE1B235C65DB61D099CB50D194B2991E0EEC5 PUSH1 0x40 MLOAD PUSH1 0x40 MLOAD DUP1 SWAP2 SUB SWAP1 LOG2 PUSH2 0x2A8 JUMP JUMPDEST DUP1 DUP1 PUSH2 0x2A0 SWAP1 PUSH2 0xA3A JUMP JUMPDEST SWAP2 POP POP PUSH2 0x1C1 JUMP JUMPDEST POP POP POP JUMP JUMPDEST PUSH2 0x2B5 PUSH2 0x696 JUMP JUMPDEST PUSH20 0xFFFFFFFFFFFFFFFFFFFFFFFFFFFFFFFFFFFFFFFF AND PUSH2 0x2D3 PUSH2 0x335 JUMP JUMPDEST PUSH20 0xFFFFFFFFFFFFFFFFFFFFFFFFFFFFFFFFFFFFFFFF AND EQ PUSH2 0x329 JUMPI PUSH1 0x40 MLOAD PUSH32 0x8C379A000000000000000000000000000000000000000000000000000000000 DUP2 MSTORE PUSH1 0x4 ADD PUSH2 0x320 SWAP1 PUSH2 0x960 JUMP JUMPDEST PUSH1 0x40 MLOAD DUP1 SWAP2 SUB SWAP1 REVERT JUMPDEST PUSH2 0x333 PUSH1 0x0 PUSH2 0x69E JUMP JUMPDEST JUMP JUMPDEST PUSH1 0x0 DUP1 PUSH1 0x0 SWAP1 SLOAD SWAP1 PUSH2 0x100 EXP SWAP1 DIV PUSH20 0xFFFFFFFFFFFFFFFFFFFFFFFFFFFFFFFFFFFFFFFF AND SWAP1 POP SWAP1 JUMP JUMPDEST PUSH2 0x366 PUSH2 0x696 JUMP JUMPDEST PUSH20 0xFFFFFFFFFFFFFFFFFFFFFFFFFFFFFFFFFFFFFFFF AND PUSH2 0x384 PUSH2 0x335 JUMP JUMPDEST PUSH20 0xFFFFFFFFFFFFFFFFFFFFFFFFFFFFFFFFFFFFFFFF AND EQ PUSH2 0x3DA JUMPI PUSH1 0x40 MLOAD PUSH32 0x8C379A000000000000000000000000000000000000000000000000000000000 DUP2 MSTORE PUSH1 0x4 ADD PUSH2 0x3D1 SWAP1 PUSH2 0x960 JUMP JUMPDEST PUSH1 0x40 MLOAD DUP1 SWAP2 SUB SWAP1 REVERT JUMPDEST PUSH1 0x0 PUSH1 0x1 DUP1 SLOAD SWAP1 POP SWAP1 POP PUSH1 0x0 JUMPDEST DUP2 DUP2 LT ISZERO PUSH2 0x463 JUMPI DUP3 PUSH1 0x1 DUP3 DUP2 SLOAD DUP2 LT PUSH2 0x404 JUMPI PUSH2 0x403 PUSH2 0xAE1 JUMP JUMPDEST JUMPDEST SWAP1 PUSH1 0x0 MSTORE PUSH1 0x20 PUSH1 0x0 KECCAK256 ADD SLOAD EQ ISZERO PUSH2 0x450 JUMPI PUSH1 0x40 MLOAD PUSH32 0x8C379A000000000000000000000000000000000000000000000000000000000 DUP2 MSTORE PUSH1 0x4 ADD PUSH2 0x447 SWAP1 PUSH2 0x940 JUMP JUMPDEST PUSH1 0x40 MLOAD DUP1 SWAP2 SUB SWAP1 REVERT JUMPDEST DUP1 DUP1 PUSH2 0x45B SWAP1 PUSH2 0xA3A JUMP JUMPDEST SWAP2 POP POP PUSH2 0x3E7 JUMP JUMPDEST POP PUSH1 0x1 DUP3 SWAP1 DUP1 PUSH1 0x1 DUP2 SLOAD ADD DUP1 DUP3 SSTORE DUP1 SWAP2 POP POP PUSH1 0x1 SWAP1 SUB SWAP1 PUSH1 0x0 MSTORE PUSH1 0x20 PUSH1 0x0 KECCAK256 ADD PUSH1 0x0 SWAP1 SWAP2 SWAP1 SWAP2 SWAP1 SWAP2 POP SSTORE DUP2 PUSH32 0x1C928B7F7ADE2949E92366AA9454DBEF3A416B731CF6EC786BA9595BBD814D6 PUSH1 0x40 MLOAD PUSH1 0x40 MLOAD DUP1 SWAP2 SUB SWAP1 LOG2 POP POP JUMP JUMPDEST PUSH2 0x4C6 PUSH2 0x696 JUMP JUMPDEST PUSH20 0xFFFFFFFFFFFFFFFFFFFFFFFFFFFFFFFFFFFFFFFF AND PUSH2 0x4E4 PUSH2 0x335 JUMP JUMPDEST PUSH20 0xFFFFFFFFFFFFFFFFFFFFFFFFFFFFFFFFFFFFFFFF AND EQ PUSH2 0x53A JUMPI PUSH1 0x40 MLOAD PUSH32 0x8C379A000000000000000000000000000000000000000000000000000000000 DUP2 MSTORE PUSH1 0x4 ADD PUSH2 0x531 SWAP1 PUSH2 0x960 JUMP JUMPDEST PUSH1 0x40 MLOAD DUP1 SWAP2 SUB SWAP1 REVERT JUMPDEST PUSH2 0x543 DUP2 PUSH2 0x59E JUMP JUMPDEST POP JUMP JUMPDEST PUSH1 0x60 PUSH1 0x1 DUP1 SLOAD DUP1 PUSH1 0x20 MUL PUSH1 0x20 ADD PUSH1 0x40 MLOAD SWAP1 DUP2 ADD PUSH1 0x40 MSTORE DUP1 SWAP3 SWAP2 SWAP1 DUP2 DUP2 MSTORE PUSH1 0x20 ADD DUP3 DUP1 SLOAD DUP1 ISZERO PUSH2 0x594 JUMPI PUSH1 0x20 MUL DUP3 ADD SWAP2 SWAP1 PUSH1 0x0 MSTORE PUSH1 0x20 PUSH1 0x0 KECCAK256 SWAP1 JUMPDEST DUP2 SLOAD DUP2 MSTORE PUSH1 0x20 ADD SWAP1 PUSH1 0x1 ADD SWAP1 DUP1 DUP4 GT PUSH2 0x580 JUMPI JUMPDEST POP POP POP POP POP SWAP1 POP SWAP1 JUMP JUMPDEST PUSH2 0x5A6 PUSH2 0x696 JUMP JUMPDEST PUSH20 0xFFFFFFFFFFFFFFFFFFFFFFFFFFFFFFFFFFFFFFFF AND PUSH2 0x5C4 PUSH2 0x335 JUMP JUMPDEST PUSH20 0xFFFFFFFFFFFFFFFFFFFFFFFFFFFFFFFFFFFFFFFF AND EQ PUSH2 0x61A JUMPI PUSH1 0x40 MLOAD PUSH32 0x8C379A000000000000000000000000000000000000000000000000000000000 DUP2 MSTORE PUSH1 0x4 ADD PUSH2 0x611 SWAP1 PUSH2 0x960 JUMP JUMPDEST PUSH1 0x40 MLOAD DUP1 SWAP2 SUB SWAP1 REVERT JUMPDEST PUSH1 0x0 PUSH20 0xFFFFFFFFFFFFFFFFFFFFFFFFFFFFFFFFFFFFFFFF AND DUP2 PUSH20 0xFFFFFFFFFFFFFFFFFFFFFFFFFFFFFFFFFFFFFFFF AND EQ ISZERO PUSH2 0x68A JUMPI PUSH1 0x40 MLOAD PUSH32 0x8C379A000000000000000000000000000000000000000000000000000000000 DUP2 MSTORE PUSH1 0x4 ADD PUSH2 0x681 SWAP1 PUSH2 0x920 JUMP JUMPDEST PUSH1 0x40 MLOAD DUP1 SWAP2 SUB SWAP1 REVERT JUMPDEST PUSH2 0x693 DUP2 PUSH2 0x69E JUMP JUMPDEST POP JUMP JUMPDEST PUSH1 0x0 CALLER SWAP1 POP SWAP1 JUMP JUMPDEST PUSH1 0x0 DUP1 PUSH1 0x0 SWAP1 SLOAD SWAP1 PUSH2 0x100 EXP SWAP1 DIV PUSH20 0xFFFFFFFFFFFFFFFFFFFFFFFFFFFFFFFFFFFFFFFF AND SWAP1 POP DUP2 PUSH1 0x0 DUP1 PUSH2 0x100 EXP DUP2 SLOAD DUP2 PUSH20 0xFFFFFFFFFFFFFFFFFFFFFFFFFFFFFFFFFFFFFFFF MUL NOT AND SWAP1 DUP4 PUSH20 0xFFFFFFFFFFFFFFFFFFFFFFFFFFFFFFFFFFFFFFFF AND MUL OR SWAP1 SSTORE POP DUP2 PUSH20 0xFFFFFFFFFFFFFFFFFFFFFFFFFFFFFFFFFFFFFFFF AND DUP2 PUSH20 0xFFFFFFFFFFFFFFFFFFFFFFFFFFFFFFFFFFFFFFFF AND PUSH32 0x8BE0079C531659141344CD1FD0A4F28419497F9722A3DAAFE3B4186F6B6457E0 PUSH1 0x40 MLOAD PUSH1 0x40 MLOAD DUP1 SWAP2 SUB SWAP1 LOG3 POP POP JUMP JUMPDEST PUSH1 0x0 DUP2 CALLDATALOAD SWAP1 POP PUSH2 0x771 DUP2 PUSH2 0xBB6 JUMP JUMPDEST SWAP3 SWAP2 POP POP JUMP JUMPDEST PUSH1 0x0 DUP2 CALLDATALOAD SWAP1 POP PUSH2 0x786 DUP2 PUSH2 0xBCD JUMP JUMPDEST SWAP3 SWAP2 POP POP JUMP JUMPDEST PUSH1 0x0 PUSH1 0x20 DUP3 DUP5 SUB SLT ISZERO PUSH2 0x7A2 JUMPI PUSH2 0x7A1 PUSH2 0xB10 JUMP JUMPDEST JUMPDEST PUSH1 0x0 PUSH2 0x7B0 DUP5 DUP3 DUP6 ADD PUSH2 0x762 JUMP JUMPDEST SWAP2 POP POP SWAP3 SWAP2 POP POP JUMP JUMPDEST PUSH1 0x0 PUSH1 0x20 DUP3 DUP5 SUB SLT ISZERO PUSH2 0x7CF JUMPI PUSH2 0x7CE PUSH2 0xB10 JUMP JUMPDEST JUMPDEST PUSH1 0x0 PUSH2 0x7DD DUP5 DUP3 DUP6 ADD PUSH2 0x777 JUMP JUMPDEST SWAP2 POP POP SWAP3 SWAP2 POP POP JUMP JUMPDEST PUSH1 0x0 PUSH2 0x7F2 DUP4 DUP4 PUSH2 0x8D4 JUMP JUMPDEST PUSH1 0x20 DUP4 ADD SWAP1 POP SWAP3 SWAP2 POP POP JUMP JUMPDEST PUSH2 0x807 DUP2 PUSH2 0x9FE JUMP JUMPDEST DUP3 MSTORE POP POP JUMP JUMPDEST PUSH1 0x0 PUSH2 0x818 DUP3 PUSH2 0x990 JUMP JUMPDEST PUSH2 0x822 DUP2 DUP6 PUSH2 0x9A8 JUMP JUMPDEST SWAP4 POP PUSH2 0x82D DUP4 PUSH2 0x980 JUMP JUMPDEST DUP1 PUSH1 0x0 JUMPDEST DUP4 DUP2 LT ISZERO PUSH2 0x85E JUMPI DUP2 MLOAD PUSH2 0x845 DUP9 DUP3 PUSH2 0x7E6 JUMP JUMPDEST SWAP8 POP PUSH2 0x850 DUP4 PUSH2 0x99B JUMP JUMPDEST SWAP3 POP POP PUSH1 0x1 DUP2 ADD SWAP1 POP PUSH2 0x831 JUMP JUMPDEST POP DUP6 SWAP4 POP POP POP POP SWAP3 SWAP2 POP POP JUMP JUMPDEST PUSH1 0x0 PUSH2 0x878 PUSH1 0x26 DUP4 PUSH2 0x9B9 JUMP JUMPDEST SWAP2 POP PUSH2 0x883 DUP3 PUSH2 0xB15 JUMP JUMPDEST PUSH1 0x40 DUP3 ADD SWAP1 POP SWAP2 SWAP1 POP JUMP JUMPDEST PUSH1 0x0 PUSH2 0x89B PUSH1 0x19 DUP4 PUSH2 0x9B9 JUMP JUMPDEST SWAP2 POP PUSH2 0x8A6 DUP3 PUSH2 0xB64 JUMP JUMPDEST PUSH1 0x20 DUP3 ADD SWAP1 POP SWAP2 SWAP1 POP JUMP JUMPDEST PUSH1 0x0 PUSH2 0x8BE PUSH1 0x20 DUP4 PUSH2 0x9B9 JUMP JUMPDEST SWAP2 POP PUSH2 0x8C9 DUP3 PUSH2 0xB8D JUMP JUMPDEST PUSH1 0x20 DUP3 ADD SWAP1 POP SWAP2 SWAP1 POP JUMP JUMPDEST PUSH2 0x8DD DUP2 PUSH2 0xA30 JUMP JUMPDEST DUP3 MSTORE POP POP JUMP JUMPDEST PUSH1 0x0 PUSH1 0x20 DUP3 ADD SWAP1 POP PUSH2 0x8F8 PUSH1 0x0 DUP4 ADD DUP5 PUSH2 0x7FE JUMP JUMPDEST SWAP3 SWAP2 POP POP JUMP JUMPDEST PUSH1 0x0 PUSH1 0x20 DUP3 ADD SWAP1 POP DUP2 DUP2 SUB PUSH1 0x0 DUP4 ADD MSTORE PUSH2 0x918 DUP2 DUP5 PUSH2 0x80D JUMP JUMPDEST SWAP1 POP SWAP3 SWAP2 POP POP JUMP JUMPDEST PUSH1 0x0 PUSH1 0x20 DUP3 ADD SWAP1 POP DUP2 DUP2 SUB PUSH1 0x0 DUP4 ADD MSTORE PUSH2 0x939 DUP2 PUSH2 0x86B JUMP JUMPDEST SWAP1 POP SWAP2 SWAP1 POP JUMP JUMPDEST PUSH1 0x0 PUSH1 0x20 DUP3 ADD SWAP1 POP DUP2 DUP2 SUB PUSH1 0x0 DUP4 ADD MSTORE PUSH2 0x959 DUP2 PUSH2 0x88E JUMP JUMPDEST SWAP1 POP SWAP2 SWAP1 POP JUMP JUMPDEST PUSH1 0x0 PUSH1 0x20 DUP3 ADD SWAP1 POP DUP2 DUP2 SUB PUSH1 0x0 DUP4 ADD MSTORE PUSH2 0x979 DUP2 PUSH2 0x8B1 JUMP JUMPDEST SWAP1 POP SWAP2 SWAP1 POP JUMP JUMPDEST PUSH1 0x0 DUP2 SWAP1 POP PUSH1 0x20 DUP3 ADD SWAP1 POP SWAP2 SWAP1 POP JUMP JUMPDEST PUSH1 0x0 DUP2 MLOAD SWAP1 POP SWAP2 SWAP1 POP JUMP JUMPDEST PUSH1 0x0 PUSH1 0x20 DUP3 ADD SWAP1 POP SWAP2 SWAP1 POP JUMP JUMPDEST PUSH1 0x0 DUP3 DUP3 MSTORE PUSH1 0x20 DUP3 ADD SWAP1 POP SWAP3 SWAP2 POP POP JUMP JUMPDEST PUSH1 0x0 DUP3 DUP3 MSTORE PUSH1 0x20 DUP3 ADD SWAP1 POP SWAP3 SWAP2 POP POP JUMP JUMPDEST PUSH1 0x0 PUSH2 0x9D5 DUP3 PUSH2 0xA30 JUMP JUMPDEST SWAP2 POP PUSH2 0x9E0 DUP4 PUSH2 0xA30 JUMP JUMPDEST SWAP3 POP DUP3 DUP3 LT ISZERO PUSH2 0x9F3 JUMPI PUSH2 0x9F2 PUSH2 0xA83 JUMP JUMPDEST JUMPDEST DUP3 DUP3 SUB SWAP1 POP SWAP3 SWAP2 POP POP JUMP JUMPDEST PUSH1 0x0 PUSH2 0xA09 DUP3 PUSH2 0xA10 JUMP JUMPDEST SWAP1 POP SWAP2 SWAP1 POP JUMP JUMPDEST PUSH1 0x0 PUSH20 0xFFFFFFFFFFFFFFFFFFFFFFFFFFFFFFFFFFFFFFFF DUP3 AND SWAP1 POP SWAP2 SWAP1 POP JUMP JUMPDEST PUSH1 0x0 DUP2 SWAP1 POP SWAP2 SWAP1 POP JUMP JUMPDEST PUSH1 0x0 PUSH2 0xA45 DUP3 PUSH2 0xA30 JUMP JUMPDEST SWAP2 POP PUSH32 0xFFFFFFFFFFFFFFFFFFFFFFFFFFFFFFFFFFFFFFFFFFFFFFFFFFFFFFFFFFFFFFFF DUP3 EQ ISZERO PUSH2 0xA78 JUMPI PUSH2 0xA77 PUSH2 0xA83 JUMP JUMPDEST JUMPDEST PUSH1 0x1 DUP3 ADD SWAP1 POP SWAP2 SWAP1 POP JUMP JUMPDEST PUSH32 0x4E487B7100000000000000000000000000000000000000000000000000000000 PUSH1 0x0 MSTORE PUSH1 0x11 PUSH1 0x4 MSTORE PUSH1 0x24 PUSH1 0x0 REVERT JUMPDEST PUSH32 0x4E487B7100000000000000000000000000000000000000000000000000000000 PUSH1 0x0 MSTORE PUSH1 0x31 PUSH1 0x4 MSTORE PUSH1 0x24 PUSH1 0x0 REVERT JUMPDEST PUSH32 0x4E487B7100000000000000000000000000000000000000000000000000000000 PUSH1 0x0 MSTORE PUSH1 0x32 PUSH1 0x4 MSTORE PUSH1 0x24 PUSH1 0x0 REVERT JUMPDEST PUSH1 0x0 DUP1 REVERT JUMPDEST PUSH32 0x4F776E61626C653A206E6577206F776E657220697320746865207A65726F2061 PUSH1 0x0 DUP3 ADD MSTORE PUSH32 0x6464726573730000000000000000000000000000000000000000000000000000 PUSH1 0x20 DUP3 ADD MSTORE POP JUMP JUMPDEST PUSH32 0x636C61696D546F70696320616C72656164792065786973747300000000000000 PUSH1 0x0 DUP3 ADD MSTORE POP JUMP JUMPDEST PUSH32 0x4F776E61626C653A2063616C6C6572206973206E6F7420746865206F776E6572 PUSH1 0x0 DUP3 ADD MSTORE POP JUMP JUMPDEST PUSH2 0xBBF DUP2 PUSH2 0x9FE JUMP JUMPDEST DUP2 EQ PUSH2 0xBCA JUMPI PUSH1 0x0 DUP1 REVERT JUMPDEST POP JUMP JUMPDEST PUSH2 0xBD6 DUP2 PUSH2 0xA30 JUMP JUMPDEST DUP2 EQ PUSH2 0xBE1 JUMPI PUSH1 0x0 DUP1 REVERT JUMPDEST POP JUMP INVALID LOG2 PUSH5 0x6970667358 0x22 SLT KECCAK256 0xB2 PUSH32 0xB4001A69C0C7E8B18914386F40E4D96FC66F22ADEB93B35B6FF26A53257D6473 PUSH16 0x6C634300080700330000000000000000 "
				},
				"gasEstimates": {
					"creation": {
						"codeDepositCost": "619600",
						"executionCost": "infinite",
						"totalCost": "infinite"
					},
					"external": {
						"addClaimTopic(uint256)": "infinite",
						"getClaimTopics()": "infinite",
						"owner()": "2567",
						"removeClaimTopic(uint256)": "infinite",
						"renounceOwnership()": "30397",
						"transferOwnership(address)": "30789",
						"transferOwnershipOnClaimTopicsRegistryContract(address)": "infinite"
					}
				},
				"methodIdentifiers": {
					"addClaimTopic(uint256)": "c7b22551",
					"getClaimTopics()": "df09d604",
					"owner()": "8da5cb5b",
					"removeClaimTopic(uint256)": "08297846",
					"renounceOwnership()": "715018a6",
					"transferOwnership(address)": "f2fde38b",
					"transferOwnershipOnClaimTopicsRegistryContract(address)": "d5144472"
				}
			},
			"storageLayout": {
				"storage": [
					{
						"astId": 7,
						"contract": "contracts/registry/ClaimTopicsRegistry.sol:ClaimTopicsRegistry",
						"label": "_owner",
						"offset": 0,
						"slot": "0",
						"type": "t_address"
					},
					{
						"astId": 136,
						"contract": "contracts/registry/ClaimTopicsRegistry.sol:ClaimTopicsRegistry",
						"label": "claimTopics",
						"offset": 0,
						"slot": "1",
						"type": "t_array(t_uint256)dyn_storage"
					}
				],
				"types": {
					"t_address": {
						"encoding": "inplace",
						"label": "address",
						"numberOfBytes": "20"
					},
					"t_array(t_uint256)dyn_storage": {
						"base": "t_uint256",
						"encoding": "dynamic_array",
						"label": "uint256[]",
						"numberOfBytes": "32"
					},
					"t_uint256": {
						"encoding": "inplace",
						"label": "uint256",
						"numberOfBytes": "32"
					}
				}
			},
			"userdoc": {
				"events": {
					"ClaimTopicAdded(uint256)": {
						"notice": "this event is emitted when a claim topic has been added to the ClaimTopicsRegistry  the event is emitted by the 'addClaimTopic' function  `claimTopic` is the required claim added to the Claim Topics Registry"
					},
					"ClaimTopicRemoved(uint256)": {
						"notice": "this event is emitted when a claim topic has been removed from the ClaimTopicsRegistry  the event is emitted by the 'removeClaimTopic' function  `claimTopic` is the required claim removed from the Claim Topics Registry"
					}
				},
				"kind": "user",
				"methods": {},
				"version": 1
			}
		}
	}
}