{
	"contracts/registry/IdentityRegistry.sol": {
		"IdentityRegistry": {
			"abi": [
				{
					"inputs": [
						{
							"internalType": "address",
							"name": "_trustedIssuersRegistry",
							"type": "address"
						},
						{
							"internalType": "address",
							"name": "_claimTopicsRegistry",
							"type": "address"
						},
						{
							"internalType": "address",
							"name": "_identityStorage",
							"type": "address"
						}
					],
					"stateMutability": "nonpayable",
					"type": "constructor"
				},
				{
					"anonymous": false,
					"inputs": [
						{
							"indexed": true,
							"internalType": "address",
							"name": "_agent",
							"type": "address"
						}
					],
					"name": "AgentAdded",
					"type": "event"
				},
				{
					"anonymous": false,
					"inputs": [
						{
							"indexed": true,
							"internalType": "address",
							"name": "_agent",
							"type": "address"
						}
					],
					"name": "AgentRemoved",
					"type": "event"
				},
				{
					"anonymous": false,
					"inputs": [
						{
							"indexed": true,
							"internalType": "address",
							"name": "claimTopicsRegistry",
							"type": "address"
						}
					],
					"name": "ClaimTopicsRegistrySet",
					"type": "event"
				},
				{
					"anonymous": false,
					"inputs": [
						{
							"indexed": true,
							"internalType": "address",
							"name": "investorAddress",
							"type": "address"
						},
						{
							"indexed": true,
							"internalType": "uint16",
							"name": "country",
							"type": "uint16"
						}
					],
					"name": "CountryUpdated",
					"type": "event"
				},
				{
					"anonymous": false,
					"inputs": [
						{
							"indexed": true,
							"internalType": "address",
							"name": "investorAddress",
							"type": "address"
						},
						{
							"indexed": true,
							"internalType": "contract IIdentity",
							"name": "identity",
							"type": "address"
						}
					],
					"name": "IdentityRegistered",
					"type": "event"
				},
				{
					"anonymous": false,
					"inputs": [
						{
							"indexed": true,
							"internalType": "address",
							"name": "investorAddress",
							"type": "address"
						},
						{
							"indexed": true,
							"internalType": "contract IIdentity",
							"name": "identity",
							"type": "address"
						}
					],
					"name": "IdentityRemoved",
					"type": "event"
				},
				{
					"anonymous": false,
					"inputs": [
						{
							"indexed": true,
							"internalType": "address",
							"name": "identityStorage",
							"type": "address"
						}
					],
					"name": "IdentityStorageSet",
					"type": "event"
				},
				{
					"anonymous": false,
					"inputs": [
						{
							"indexed": true,
							"internalType": "contract IIdentity",
							"name": "oldIdentity",
							"type": "address"
						},
						{
							"indexed": true,
							"internalType": "contract IIdentity",
							"name": "newIdentity",
							"type": "address"
						}
					],
					"name": "IdentityUpdated",
					"type": "event"
				},
				{
					"anonymous": false,
					"inputs": [
						{
							"indexed": true,
							"internalType": "address",
							"name": "previousOwner",
							"type": "address"
						},
						{
							"indexed": true,
							"internalType": "address",
							"name": "newOwner",
							"type": "address"
						}
					],
					"name": "OwnershipTransferred",
					"type": "event"
				},
				{
					"anonymous": false,
					"inputs": [
						{
							"indexed": true,
							"internalType": "address",
							"name": "trustedIssuersRegistry",
							"type": "address"
						}
					],
					"name": "TrustedIssuersRegistrySet",
					"type": "event"
				},
				{
					"inputs": [
						{
							"internalType": "address",
							"name": "_agent",
							"type": "address"
						}
					],
					"name": "addAgent",
					"outputs": [],
					"stateMutability": "nonpayable",
					"type": "function"
				},
				{
					"inputs": [
						{
							"internalType": "address",
							"name": "_agent",
							"type": "address"
						}
					],
					"name": "addAgentOnIdentityRegistryContract",
					"outputs": [],
					"stateMutability": "nonpayable",
					"type": "function"
				},
				{
					"inputs": [
						{
							"internalType": "address[]",
							"name": "_userAddresses",
							"type": "address[]"
						},
						{
							"internalType": "contract IIdentity[]",
							"name": "_identities",
							"type": "address[]"
						},
						{
							"internalType": "uint16[]",
							"name": "_countries",
							"type": "uint16[]"
						}
					],
					"name": "batchRegisterIdentity",
					"outputs": [],
					"stateMutability": "nonpayable",
					"type": "function"
				},
				{
					"inputs": [
						{
							"internalType": "address",
							"name": "_userAddress",
							"type": "address"
						}
					],
					"name": "contains",
					"outputs": [
						{
							"internalType": "bool",
							"name": "",
							"type": "bool"
						}
					],
					"stateMutability": "view",
					"type": "function"
				},
				{
					"inputs": [
						{
							"internalType": "address",
							"name": "_userAddress",
							"type": "address"
						}
					],
					"name": "deleteIdentity",
					"outputs": [],
					"stateMutability": "nonpayable",
					"type": "function"
				},
				{
					"inputs": [
						{
							"internalType": "address",
							"name": "_userAddress",
							"type": "address"
						}
					],
					"name": "identity",
					"outputs": [
						{
							"internalType": "contract IIdentity",
							"name": "",
							"type": "address"
						}
					],
					"stateMutability": "view",
					"type": "function"
				},
				{
					"inputs": [],
					"name": "identityStorage",
					"outputs": [
						{
							"internalType": "contract IIdentityRegistryStorage",
							"name": "",
							"type": "address"
						}
					],
					"stateMutability": "view",
					"type": "function"
				},
				{
					"inputs": [
						{
							"internalType": "address",
							"name": "_userAddress",
							"type": "address"
						}
					],
					"name": "investorCountry",
					"outputs": [
						{
							"internalType": "uint16",
							"name": "",
							"type": "uint16"
						}
					],
					"stateMutability": "view",
					"type": "function"
				},
				{
					"inputs": [
						{
							"internalType": "address",
							"name": "_agent",
							"type": "address"
						}
					],
					"name": "isAgent",
					"outputs": [
						{
							"internalType": "bool",
							"name": "",
							"type": "bool"
						}
					],
					"stateMutability": "view",
					"type": "function"
				},
				{
					"inputs": [
						{
							"internalType": "address",
							"name": "_userAddress",
							"type": "address"
						}
					],
					"name": "isVerified",
					"outputs": [
						{
							"internalType": "bool",
							"name": "",
							"type": "bool"
						}
					],
					"stateMutability": "view",
					"type": "function"
				},
				{
					"inputs": [],
					"name": "issuersRegistry",
					"outputs": [
						{
							"internalType": "contract ITrustedIssuersRegistry",
							"name": "",
							"type": "address"
						}
					],
					"stateMutability": "view",
					"type": "function"
				},
				{
					"inputs": [],
					"name": "owner",
					"outputs": [
						{
							"internalType": "address",
							"name": "",
							"type": "address"
						}
					],
					"stateMutability": "view",
					"type": "function"
				},
				{
					"inputs": [
						{
							"internalType": "address",
							"name": "_userAddress",
							"type": "address"
						},
						{
							"internalType": "contract IIdentity",
							"name": "_identity",
							"type": "address"
						},
						{
							"internalType": "uint16",
							"name": "_country",
							"type": "uint16"
						}
					],
					"name": "registerIdentity",
					"outputs": [],
					"stateMutability": "nonpayable",
					"type": "function"
				},
				{
					"inputs": [
						{
							"internalType": "address",
							"name": "_agent",
							"type": "address"
						}
					],
					"name": "removeAgent",
					"outputs": [],
					"stateMutability": "nonpayable",
					"type": "function"
				},
				{
					"inputs": [
						{
							"internalType": "address",
							"name": "_agent",
							"type": "address"
						}
					],
					"name": "removeAgentOnIdentityRegistryContract",
					"outputs": [],
					"stateMutability": "nonpayable",
					"type": "function"
				},
				{
					"inputs": [],
					"name": "renounceOwnership",
					"outputs": [],
					"stateMutability": "nonpayable",
					"type": "function"
				},
				{
					"inputs": [
						{
							"internalType": "address",
							"name": "_claimTopicsRegistry",
							"type": "address"
						}
					],
					"name": "setClaimTopicsRegistry",
					"outputs": [],
					"stateMutability": "nonpayable",
					"type": "function"
				},
				{
					"inputs": [
						{
							"internalType": "address",
							"name": "_identityRegistryStorage",
							"type": "address"
						}
					],
					"name": "setIdentityRegistryStorage",
					"outputs": [],
					"stateMutability": "nonpayable",
					"type": "function"
				},
				{
					"inputs": [
						{
							"internalType": "address",
							"name": "_trustedIssuersRegistry",
							"type": "address"
						}
					],
					"name": "setTrustedIssuersRegistry",
					"outputs": [],
					"stateMutability": "nonpayable",
					"type": "function"
				},
				{
					"inputs": [],
					"name": "topicsRegistry",
					"outputs": [
						{
							"internalType": "contract IClaimTopicsRegistry",
							"name": "",
							"type": "address"
						}
					],
					"stateMutability": "view",
					"type": "function"
				},
				{
					"inputs": [
						{
							"internalType": "address",
							"name": "newOwner",
							"type": "address"
						}
					],
					"name": "transferOwnership",
					"outputs": [],
					"stateMutability": "nonpayable",
					"type": "function"
				},
				{
					"inputs": [
						{
							"internalType": "address",
							"name": "_newOwner",
							"type": "address"
						}
					],
					"name": "transferOwnershipOnIdentityRegistryContract",
					"outputs": [],
					"stateMutability": "nonpayable",
					"type": "function"
				},
				{
					"inputs": [
						{
							"internalType": "address",
							"name": "_userAddress",
							"type": "address"
						},
						{
							"internalType": "uint16",
							"name": "_country",
							"type": "uint16"
						}
					],
					"name": "updateCountry",
					"outputs": [],
					"stateMutability": "nonpayable",
					"type": "function"
				},
				{
					"inputs": [
						{
							"internalType": "address",
							"name": "_userAddress",
							"type": "address"
						},
						{
							"internalType": "contract IIdentity",
							"name": "_identity",
							"type": "address"
						}
					],
					"name": "updateIdentity",
					"outputs": [],
					"stateMutability": "nonpayable",
					"type": "function"
				}
			],
			"devdoc": {
				"kind": "dev",
				"methods": {
					"addAgentOnIdentityRegistryContract(address)": {
						"details": "See {IIdentityRegistry-addAgentOnIdentityRegistryContract}."
					},
					"batchRegisterIdentity(address[],address[],uint16[])": {
						"details": "See {IIdentityRegistry-batchRegisterIdentity}."
					},
					"constructor": {
						"details": "the constructor initiates the Identity Registry smart contract",
						"params": {
							"_claimTopicsRegistry": "the claim topics registry linked to the Identity Registry",
							"_identityStorage": "the identity registry storage linked to the Identity Registry  emits a `ClaimTopicsRegistrySet` event  emits a `TrustedIssuersRegistrySet` event  emits an `IdentityStorageSet` event",
							"_trustedIssuersRegistry": "the trusted issuers registry linked to the Identity Registry"
						}
					},
					"contains(address)": {
						"details": "See {IIdentityRegistry-contains}."
					},
					"deleteIdentity(address)": {
						"details": "See {IIdentityRegistry-deleteIdentity}."
					},
					"identity(address)": {
						"details": "See {IIdentityRegistry-identity}."
					},
					"identityStorage()": {
						"details": "See {IIdentityRegistry-identityStorage}."
					},
					"investorCountry(address)": {
						"details": "See {IIdentityRegistry-investorCountry}."
					},
					"isVerified(address)": {
						"details": "See {IIdentityRegistry-isVerified}."
					},
					"issuersRegistry()": {
						"details": "See {IIdentityRegistry-issuersRegistry}."
					},
					"owner()": {
						"details": "Returns the address of the current owner."
					},
					"registerIdentity(address,address,uint16)": {
						"details": "See {IIdentityRegistry-registerIdentity}."
					},
					"removeAgentOnIdentityRegistryContract(address)": {
						"details": "See {IIdentityRegistry-removeAgentOnIdentityRegistryContract}."
					},
					"renounceOwnership()": {
						"details": "Leaves the contract without owner. It will not be possible to call `onlyOwner` functions anymore. Can only be called by the current owner. NOTE: Renouncing ownership will leave the contract without an owner, thereby removing any functionality that is only available to the owner."
					},
					"setClaimTopicsRegistry(address)": {
						"details": "See {IIdentityRegistry-setClaimTopicsRegistry}."
					},
					"setIdentityRegistryStorage(address)": {
						"details": "See {IIdentityRegistry-setIdentityRegistryStorage}."
					},
					"setTrustedIssuersRegistry(address)": {
						"details": "See {IIdentityRegistry-setTrustedIssuersRegistry}."
					},
					"topicsRegistry()": {
						"details": "See {IIdentityRegistry-topicsRegistry}."
					},
					"transferOwnership(address)": {
						"details": "Transfers ownership of the contract to a new account (`newOwner`). Can only be called by the current owner."
					},
					"transferOwnershipOnIdentityRegistryContract(address)": {
						"details": "See {IIdentityRegistry-transferOwnershipOnIdentityRegistryContract}."
					},
					"updateCountry(address,uint16)": {
						"details": "See {IIdentityRegistry-updateCountry}."
					},
					"updateIdentity(address,address)": {
						"details": "See {IIdentityRegistry-updateIdentity}."
					}
				},
				"stateVariables": {
					"tokenIdentityStorage": {
						"details": "Address of the IdentityRegistryStorage Contract"
					},
					"tokenIssuersRegistry": {
						"details": "Address of the TrustedIssuersRegistry Contract"
					},
					"tokenTopicsRegistry": {
						"details": "Address of the ClaimTopicsRegistry Contract"
					}
				},
				"version": 1
			},
			"evm": {
				"assembly": "    /* \"contracts/registry/IdentityRegistry.sol\":1478:9913  contract IdentityRegistry is IIdentityRegistry, AgentRole {... */\n  mstore(0x40, 0x80)\n    /* \"contracts/registry/IdentityRegistry.sol\":2415:2958  constructor(... */\n  callvalue\n  dup1\n  iszero\n  tag_1\n  jumpi\n  0x00\n  dup1\n  revert\ntag_1:\n  pop\n  mload(0x40)\n  sub(codesize, bytecodeSize)\n  dup1\n  bytecodeSize\n  dup4\n  codecopy\n  dup2\n  dup2\n  add\n  0x40\n  mstore\n  dup2\n  add\n  swap1\n  tag_2\n  swap2\n  swap1\n  tag_3\n  jump\t// in\ntag_2:\n    /* \"@openzeppelin/contracts/access/Ownable.sol\":936:968  _transferOwnership(_msgSender()) */\n  tag_7\n    /* \"@openzeppelin/contracts/access/Ownable.sol\":955:967  _msgSender() */\n  tag_8\n    /* \"@openzeppelin/contracts/access/Ownable.sol\":955:965  _msgSender */\n  shl(0x20, tag_9)\n    /* \"@openzeppelin/contracts/access/Ownable.sol\":955:967  _msgSender() */\n  0x20\n  shr\n  jump\t// in\ntag_8:\n    /* \"@openzeppelin/contracts/access/Ownable.sol\":936:954  _transferOwnership */\n  shl(0x20, tag_10)\n    /* \"@openzeppelin/contracts/access/Ownable.sol\":936:968  _transferOwnership(_msgSender()) */\n  0x20\n  shr\n  jump\t// in\ntag_7:\n    /* \"contracts/registry/IdentityRegistry.sol\":2599:2619  _claimTopicsRegistry */\n  dup2\n    /* \"contracts/registry/IdentityRegistry.sol\":2556:2575  tokenTopicsRegistry */\n  0x02\n  0x00\n    /* \"contracts/registry/IdentityRegistry.sol\":2556:2620  tokenTopicsRegistry = IClaimTopicsRegistry(_claimTopicsRegistry) */\n  0x0100\n  exp\n  dup2\n  sload\n  dup2\n  0xffffffffffffffffffffffffffffffffffffffff\n  mul\n  not\n  and\n  swap1\n  dup4\n  0xffffffffffffffffffffffffffffffffffffffff\n  and\n  mul\n  or\n  swap1\n  sstore\n  pop\n    /* \"contracts/registry/IdentityRegistry.sol\":2677:2700  _trustedIssuersRegistry */\n  dup3\n    /* \"contracts/registry/IdentityRegistry.sol\":2630:2650  tokenIssuersRegistry */\n  0x03\n  0x00\n    /* \"contracts/registry/IdentityRegistry.sol\":2630:2701  tokenIssuersRegistry = ITrustedIssuersRegistry(_trustedIssuersRegistry) */\n  0x0100\n  exp\n  dup2\n  sload\n  dup2\n  0xffffffffffffffffffffffffffffffffffffffff\n  mul\n  not\n  and\n  swap1\n  dup4\n  0xffffffffffffffffffffffffffffffffffffffff\n  and\n  mul\n  or\n  swap1\n  sstore\n  pop\n    /* \"contracts/registry/IdentityRegistry.sol\":2759:2775  _identityStorage */\n  dup1\n    /* \"contracts/registry/IdentityRegistry.sol\":2711:2731  tokenIdentityStorage */\n  0x04\n  0x00\n    /* \"contracts/registry/IdentityRegistry.sol\":2711:2776  tokenIdentityStorage = IIdentityRegistryStorage(_identityStorage) */\n  0x0100\n  exp\n  dup2\n  sload\n  dup2\n  0xffffffffffffffffffffffffffffffffffffffff\n  mul\n  not\n  and\n  swap1\n  dup4\n  0xffffffffffffffffffffffffffffffffffffffff\n  and\n  mul\n  or\n  swap1\n  sstore\n  pop\n    /* \"contracts/registry/IdentityRegistry.sol\":2814:2834  _claimTopicsRegistry */\n  dup2\n    /* \"contracts/registry/IdentityRegistry.sol\":2791:2835  ClaimTopicsRegistrySet(_claimTopicsRegistry) */\n  0xffffffffffffffffffffffffffffffffffffffff\n  and\n  0x7170bf15b246e880b2369cd7c67d057760d8a35149e8c64dde91efa22bcc76d0\n  mload(0x40)\n  mload(0x40)\n  dup1\n  swap2\n  sub\n  swap1\n  log2\n    /* \"contracts/registry/IdentityRegistry.sol\":2876:2899  _trustedIssuersRegistry */\n  dup3\n    /* \"contracts/registry/IdentityRegistry.sol\":2850:2900  TrustedIssuersRegistrySet(_trustedIssuersRegistry) */\n  0xffffffffffffffffffffffffffffffffffffffff\n  and\n  0x1b98cb79e6f73020175fe87333f1b91ad6a881519c0afe30340c2599b2b4bde0\n  mload(0x40)\n  mload(0x40)\n  dup1\n  swap2\n  sub\n  swap1\n  log2\n    /* \"contracts/registry/IdentityRegistry.sol\":2934:2950  _identityStorage */\n  dup1\n    /* \"contracts/registry/IdentityRegistry.sol\":2915:2951  IdentityStorageSet(_identityStorage) */\n  0xffffffffffffffffffffffffffffffffffffffff\n  and\n  0x2fa8b95c1db7afe99e3398f3792f008135cedc1fa26b0bb2ecd2352cd166d53c\n  mload(0x40)\n  mload(0x40)\n  dup1\n  swap2\n  sub\n  swap1\n  log2\n    /* \"contracts/registry/IdentityRegistry.sol\":2415:2958  constructor(... */\n  pop\n  pop\n  pop\n    /* \"contracts/registry/IdentityRegistry.sol\":1478:9913  contract IdentityRegistry is IIdentityRegistry, AgentRole {... */\n  jump(tag_12)\n    /* \"@openzeppelin/contracts/utils/Context.sol\":640:736  function _msgSender() internal view virtual returns (address) {... */\ntag_9:\n    /* \"@openzeppelin/contracts/utils/Context.sol\":693:700  address */\n  0x00\n    /* \"@openzeppelin/contracts/utils/Context.sol\":719:729  msg.sender */\n  caller\n    /* \"@openzeppelin/contracts/utils/Context.sol\":712:729  return msg.sender */\n  swap1\n  pop\n    /* \"@openzeppelin/contracts/utils/Context.sol\":640:736  function _msgSender() internal view virtual returns (address) {... */\n  swap1\n  jump\t// out\n    /* \"@openzeppelin/contracts/access/Ownable.sol\":2433:2620  function _transferOwnership(address newOwner) internal virtual {... */\ntag_10:\n    /* \"@openzeppelin/contracts/access/Ownable.sol\":2506:2522  address oldOwner */\n  0x00\n    /* \"@openzeppelin/contracts/access/Ownable.sol\":2525:2531  _owner */\n  dup1\n  0x00\n  swap1\n  sload\n  swap1\n  0x0100\n  exp\n  swap1\n  div\n  0xffffffffffffffffffffffffffffffffffffffff\n  and\n    /* \"@openzeppelin/contracts/access/Ownable.sol\":2506:2531  address oldOwner = _owner */\n  swap1\n  pop\n    /* \"@openzeppelin/contracts/access/Ownable.sol\":2550:2558  newOwner */\n  dup2\n    /* \"@openzeppelin/contracts/access/Ownable.sol\":2541:2547  _owner */\n  0x00\n  dup1\n    /* \"@openzeppelin/contracts/access/Ownable.sol\":2541:2558  _owner = newOwner */\n  0x0100\n  exp\n  dup2\n  sload\n  dup2\n  0xffffffffffffffffffffffffffffffffffffffff\n  mul\n  not\n  and\n  swap1\n  dup4\n  0xffffffffffffffffffffffffffffffffffffffff\n  and\n  mul\n  or\n  swap1\n  sstore\n  pop\n    /* \"@openzeppelin/contracts/access/Ownable.sol\":2604:2612  newOwner */\n  dup2\n    /* \"@openzeppelin/contracts/access/Ownable.sol\":2573:2613  OwnershipTransferred(oldOwner, newOwner) */\n  0xffffffffffffffffffffffffffffffffffffffff\n  and\n    /* \"@openzeppelin/contracts/access/Ownable.sol\":2594:2602  oldOwner */\n  dup2\n    /* \"@openzeppelin/contracts/access/Ownable.sol\":2573:2613  OwnershipTransferred(oldOwner, newOwner) */\n  0xffffffffffffffffffffffffffffffffffffffff\n  and\n  0x8be0079c531659141344cd1fd0a4f28419497f9722a3daafe3b4186f6b6457e0\n  mload(0x40)\n  mload(0x40)\n  dup1\n  swap2\n  sub\n  swap1\n  log3\n    /* \"@openzeppelin/contracts/access/Ownable.sol\":2496:2620  {... */\n  pop\n    /* \"@openzeppelin/contracts/access/Ownable.sol\":2433:2620  function _transferOwnership(address newOwner) internal virtual {... */\n  pop\n  jump\t// out\n    /* \"#utility.yul\":7:150   */\ntag_16:\n    /* \"#utility.yul\":64:69   */\n  0x00\n    /* \"#utility.yul\":95:101   */\n  dup2\n    /* \"#utility.yul\":89:102   */\n  mload\n    /* \"#utility.yul\":80:102   */\n  swap1\n  pop\n    /* \"#utility.yul\":111:144   */\n  tag_18\n    /* \"#utility.yul\":138:143   */\n  dup2\n    /* \"#utility.yul\":111:144   */\n  tag_19\n  jump\t// in\ntag_18:\n    /* \"#utility.yul\":7:150   */\n  swap3\n  swap2\n  pop\n  pop\n  jump\t// out\n    /* \"#utility.yul\":156:819   */\ntag_3:\n    /* \"#utility.yul\":244:250   */\n  0x00\n    /* \"#utility.yul\":252:258   */\n  dup1\n    /* \"#utility.yul\":260:266   */\n  0x00\n    /* \"#utility.yul\":309:311   */\n  0x60\n    /* \"#utility.yul\":297:306   */\n  dup5\n    /* \"#utility.yul\":288:295   */\n  dup7\n    /* \"#utility.yul\":284:307   */\n  sub\n    /* \"#utility.yul\":280:312   */\n  slt\n    /* \"#utility.yul\":277:396   */\n  iszero\n  tag_21\n  jumpi\n    /* \"#utility.yul\":315:394   */\n  tag_22\n  tag_23\n  jump\t// in\ntag_22:\n    /* \"#utility.yul\":277:396   */\ntag_21:\n    /* \"#utility.yul\":435:436   */\n  0x00\n    /* \"#utility.yul\":460:524   */\n  tag_24\n    /* \"#utility.yul\":516:523   */\n  dup7\n    /* \"#utility.yul\":507:513   */\n  dup3\n    /* \"#utility.yul\":496:505   */\n  dup8\n    /* \"#utility.yul\":492:514   */\n  add\n    /* \"#utility.yul\":460:524   */\n  tag_16\n  jump\t// in\ntag_24:\n    /* \"#utility.yul\":450:524   */\n  swap4\n  pop\n    /* \"#utility.yul\":406:534   */\n  pop\n    /* \"#utility.yul\":573:575   */\n  0x20\n    /* \"#utility.yul\":599:663   */\n  tag_25\n    /* \"#utility.yul\":655:662   */\n  dup7\n    /* \"#utility.yul\":646:652   */\n  dup3\n    /* \"#utility.yul\":635:644   */\n  dup8\n    /* \"#utility.yul\":631:653   */\n  add\n    /* \"#utility.yul\":599:663   */\n  tag_16\n  jump\t// in\ntag_25:\n    /* \"#utility.yul\":589:663   */\n  swap3\n  pop\n    /* \"#utility.yul\":544:673   */\n  pop\n    /* \"#utility.yul\":712:714   */\n  0x40\n    /* \"#utility.yul\":738:802   */\n  tag_26\n    /* \"#utility.yul\":794:801   */\n  dup7\n    /* \"#utility.yul\":785:791   */\n  dup3\n    /* \"#utility.yul\":774:783   */\n  dup8\n    /* \"#utility.yul\":770:792   */\n  add\n    /* \"#utility.yul\":738:802   */\n  tag_16\n  jump\t// in\ntag_26:\n    /* \"#utility.yul\":728:802   */\n  swap2\n  pop\n    /* \"#utility.yul\":683:812   */\n  pop\n    /* \"#utility.yul\":156:819   */\n  swap3\n  pop\n  swap3\n  pop\n  swap3\n  jump\t// out\n    /* \"#utility.yul\":906:1002   */\ntag_29:\n    /* \"#utility.yul\":943:950   */\n  0x00\n    /* \"#utility.yul\":972:996   */\n  tag_31\n    /* \"#utility.yul\":990:995   */\n  dup3\n    /* \"#utility.yul\":972:996   */\n  tag_32\n  jump\t// in\ntag_31:\n    /* \"#utility.yul\":961:996   */\n  swap1\n  pop\n    /* \"#utility.yul\":906:1002   */\n  swap2\n  swap1\n  pop\n  jump\t// out\n    /* \"#utility.yul\":1008:1134   */\ntag_32:\n    /* \"#utility.yul\":1045:1052   */\n  0x00\n    /* \"#utility.yul\":1085:1127   */\n  0xffffffffffffffffffffffffffffffffffffffff\n    /* \"#utility.yul\":1078:1083   */\n  dup3\n    /* \"#utility.yul\":1074:1128   */\n  and\n    /* \"#utility.yul\":1063:1128   */\n  swap1\n  pop\n    /* \"#utility.yul\":1008:1134   */\n  swap2\n  swap1\n  pop\n  jump\t// out\n    /* \"#utility.yul\":1263:1380   */\ntag_23:\n    /* \"#utility.yul\":1372:1373   */\n  0x00\n    /* \"#utility.yul\":1369:1370   */\n  dup1\n    /* \"#utility.yul\":1362:1374   */\n  revert\n    /* \"#utility.yul\":1386:1508   */\ntag_19:\n    /* \"#utility.yul\":1459:1483   */\n  tag_38\n    /* \"#utility.yul\":1477:1482   */\n  dup2\n    /* \"#utility.yul\":1459:1483   */\n  tag_29\n  jump\t// in\ntag_38:\n    /* \"#utility.yul\":1452:1457   */\n  dup2\n    /* \"#utility.yul\":1449:1484   */\n  eq\n    /* \"#utility.yul\":1439:1502   */\n  tag_39\n  jumpi\n    /* \"#utility.yul\":1498:1499   */\n  0x00\n    /* \"#utility.yul\":1495:1496   */\n  dup1\n    /* \"#utility.yul\":1488:1500   */\n  revert\n    /* \"#utility.yul\":1439:1502   */\ntag_39:\n    /* \"#utility.yul\":1386:1508   */\n  pop\n  jump\t// out\n    /* \"contracts/registry/IdentityRegistry.sol\":1478:9913  contract IdentityRegistry is IIdentityRegistry, AgentRole {... */\ntag_12:\n  dataSize(sub_0)\n  dup1\n  dataOffset(sub_0)\n  0x00\n  codecopy\n  0x00\n  return\nstop\n\nsub_0: assembly {\n        /* \"contracts/registry/IdentityRegistry.sol\":1478:9913  contract IdentityRegistry is IIdentityRegistry, AgentRole {... */\n      mstore(0x40, 0x80)\n      callvalue\n      dup1\n      iszero\n      tag_1\n      jumpi\n      0x00\n      dup1\n      revert\n    tag_1:\n      pop\n      jumpi(tag_2, lt(calldatasize, 0x04))\n      shr(0xe0, calldataload(0x00))\n      dup1\n      0x84e79842\n      gt\n      tag_27\n      jumpi\n      dup1\n      0xb9209e33\n      gt\n      tag_28\n      jumpi\n      dup1\n      0xb9209e33\n      eq\n      tag_21\n      jumpi\n      dup1\n      0xce240d9c\n      eq\n      tag_22\n      jumpi\n      dup1\n      0xe744d789\n      eq\n      tag_23\n      jumpi\n      dup1\n      0xf0eb5e54\n      eq\n      tag_24\n      jumpi\n      dup1\n      0xf11abfd8\n      eq\n      tag_25\n      jumpi\n      dup1\n      0xf2fde38b\n      eq\n      tag_26\n      jumpi\n      jump(tag_2)\n    tag_28:\n      dup1\n      0x84e79842\n      eq\n      tag_15\n      jumpi\n      dup1\n      0x8da5cb5b\n      eq\n      tag_16\n      jumpi\n      dup1\n      0x8e098ca1\n      eq\n      tag_17\n      jumpi\n      dup1\n      0x97a6278e\n      eq\n      tag_18\n      jumpi\n      dup1\n      0xa8d29d1d\n      eq\n      tag_19\n      jumpi\n      dup1\n      0xb4f3fcb7\n      eq\n      tag_20\n      jumpi\n      jump(tag_2)\n    tag_27:\n      dup1\n      0x5dbe47e8\n      gt\n      tag_29\n      jumpi\n      dup1\n      0x5dbe47e8\n      eq\n      tag_9\n      jumpi\n      dup1\n      0x5e5741f3\n      eq\n      tag_10\n      jumpi\n      dup1\n      0x653dc9f1\n      eq\n      tag_11\n      jumpi\n      dup1\n      0x670af6a9\n      eq\n      tag_12\n      jumpi\n      dup1\n      0x715018a6\n      eq\n      tag_13\n      jumpi\n      dup1\n      0x7e42683b\n      eq\n      tag_14\n      jumpi\n      jump(tag_2)\n    tag_29:\n      dup1\n      0x1ffbb064\n      eq\n      tag_3\n      jumpi\n      dup1\n      0x26d941ae\n      eq\n      tag_4\n      jumpi\n      dup1\n      0x3b239a7f\n      eq\n      tag_5\n      jumpi\n      dup1\n      0x3b3e12f4\n      eq\n      tag_6\n      jumpi\n      dup1\n      0x454a03e0\n      eq\n      tag_7\n      jumpi\n      dup1\n      0x50bc7bda\n      eq\n      tag_8\n      jumpi\n    tag_2:\n      0x00\n      dup1\n      revert\n        /* \"contracts/roles/AgentRole.sol\":1525:1628  function isAgent(address _agent) public view returns (bool) {... */\n    tag_3:\n      tag_30\n      0x04\n      dup1\n      calldatasize\n      sub\n      dup2\n      add\n      swap1\n      tag_31\n      swap2\n      swap1\n      tag_32\n      jump\t// in\n    tag_31:\n      tag_33\n      jump\t// in\n    tag_30:\n      mload(0x40)\n      tag_34\n      swap2\n      swap1\n      tag_35\n      jump\t// in\n    tag_34:\n      mload(0x40)\n      dup1\n      swap2\n      sub\n      swap1\n      return\n        /* \"contracts/registry/IdentityRegistry.sol\":8074:8321  function setIdentityRegistryStorage(address _identityRegistryStorage) external override onlyOwner {... */\n    tag_4:\n      tag_36\n      0x04\n      dup1\n      calldatasize\n      sub\n      dup2\n      add\n      swap1\n      tag_37\n      swap2\n      swap1\n      tag_32\n      jump\t// in\n    tag_37:\n      tag_38\n      jump\t// in\n    tag_36:\n      stop\n        /* \"contracts/registry/IdentityRegistry.sol\":5257:5489  function updateCountry(address _userAddress, uint16 _country) external override onlyAgent {... */\n    tag_5:\n      tag_39\n      0x04\n      dup1\n      calldatasize\n      sub\n      dup2\n      add\n      swap1\n      tag_40\n      swap2\n      swap1\n      tag_41\n      jump\t// in\n    tag_40:\n      tag_42\n      jump\t// in\n    tag_39:\n      stop\n        /* \"contracts/registry/IdentityRegistry.sol\":3703:3826  function topicsRegistry() external view override returns (IClaimTopicsRegistry) {... */\n    tag_6:\n      tag_43\n      tag_44\n      jump\t// in\n    tag_43:\n      mload(0x40)\n      tag_45\n      swap2\n      swap1\n      tag_46\n      jump\t// in\n    tag_45:\n      mload(0x40)\n      dup1\n      swap2\n      sub\n      swap1\n      return\n        /* \"contracts/registry/IdentityRegistry.sol\":4108:4401  function registerIdentity(... */\n    tag_7:\n      tag_47\n      0x04\n      dup1\n      calldatasize\n      sub\n      dup2\n      add\n      swap1\n      tag_48\n      swap2\n      swap1\n      tag_49\n      jump\t// in\n    tag_48:\n      tag_50\n      jump\t// in\n    tag_47:\n      stop\n        /* \"contracts/registry/IdentityRegistry.sol\":9585:9696  function addAgentOnIdentityRegistryContract(address _agent) external override {... */\n    tag_8:\n      tag_51\n      0x04\n      dup1\n      calldatasize\n      sub\n      dup2\n      add\n      swap1\n      tag_52\n      swap2\n      swap1\n      tag_32\n      jump\t// in\n    tag_52:\n      tag_53\n      jump\t// in\n    tag_51:\n      stop\n        /* \"contracts/registry/IdentityRegistry.sol\":9038:9241  function contains(address _userAddress) external view override returns (bool) {... */\n    tag_9:\n      tag_54\n      0x04\n      dup1\n      calldatasize\n      sub\n      dup2\n      add\n      swap1\n      tag_55\n      swap2\n      swap1\n      tag_32\n      jump\t// in\n    tag_55:\n      tag_56\n      jump\t// in\n    tag_54:\n      mload(0x40)\n      tag_57\n      swap2\n      swap1\n      tag_35\n      jump\t// in\n    tag_57:\n      mload(0x40)\n      dup1\n      swap2\n      sub\n      swap1\n      return\n        /* \"contracts/registry/IdentityRegistry.sol\":9794:9911  function removeAgentOnIdentityRegistryContract(address _agent) external override {... */\n    tag_10:\n      tag_58\n      0x04\n      dup1\n      calldatasize\n      sub\n      dup2\n      add\n      swap1\n      tag_59\n      swap2\n      swap1\n      tag_32\n      jump\t// in\n    tag_59:\n      tag_60\n      jump\t// in\n    tag_58:\n      stop\n        /* \"contracts/registry/IdentityRegistry.sol\":4483:4820  function batchRegisterIdentity(... */\n    tag_11:\n      tag_61\n      0x04\n      dup1\n      calldatasize\n      sub\n      dup2\n      add\n      swap1\n      tag_62\n      swap2\n      swap1\n      tag_63\n      jump\t// in\n    tag_62:\n      tag_64\n      jump\t// in\n    tag_61:\n      stop\n        /* \"contracts/registry/IdentityRegistry.sol\":8404:8634  function setClaimTopicsRegistry(address _claimTopicsRegistry) external override onlyOwner {... */\n    tag_12:\n      tag_65\n      0x04\n      dup1\n      calldatasize\n      sub\n      dup2\n      add\n      swap1\n      tag_66\n      swap2\n      swap1\n      tag_32\n      jump\t// in\n    tag_66:\n      tag_67\n      jump\t// in\n    tag_65:\n      stop\n        /* \"@openzeppelin/contracts/access/Ownable.sol\":1831:1932  function renounceOwnership() public virtual onlyOwner {... */\n    tag_13:\n      tag_68\n      tag_69\n      jump\t// in\n    tag_68:\n      stop\n        /* \"contracts/registry/IdentityRegistry.sol\":3257:3424  function investorCountry(address _userAddress) external view override returns (uint16) {... */\n    tag_14:\n      tag_70\n      0x04\n      dup1\n      calldatasize\n      sub\n      dup2\n      add\n      swap1\n      tag_71\n      swap2\n      swap1\n      tag_32\n      jump\t// in\n    tag_71:\n      tag_72\n      jump\t// in\n    tag_70:\n      mload(0x40)\n      tag_73\n      swap2\n      swap1\n      tag_74\n      jump\t// in\n    tag_73:\n      mload(0x40)\n      dup1\n      swap2\n      sub\n      swap1\n      return\n        /* \"contracts/roles/AgentRole.sol\":1634:1754  function addAgent(address _agent) public onlyOwner {... */\n    tag_15:\n      tag_75\n      0x04\n      dup1\n      calldatasize\n      sub\n      dup2\n      add\n      swap1\n      tag_76\n      swap2\n      swap1\n      tag_32\n      jump\t// in\n    tag_76:\n      tag_77\n      jump\t// in\n    tag_75:\n      stop\n        /* \"@openzeppelin/contracts/access/Ownable.sol\":1201:1286  function owner() public view virtual returns (address) {... */\n    tag_16:\n      tag_78\n      tag_79\n      jump\t// in\n    tag_78:\n      mload(0x40)\n      tag_80\n      swap2\n      swap1\n      tag_81\n      jump\t// in\n    tag_80:\n      mload(0x40)\n      dup1\n      swap2\n      sub\n      swap1\n      return\n        /* \"contracts/registry/IdentityRegistry.sol\":4895:5183  function updateIdentity(address _userAddress, IIdentity _identity) external override onlyAgent {... */\n    tag_17:\n      tag_82\n      0x04\n      dup1\n      calldatasize\n      sub\n      dup2\n      add\n      swap1\n      tag_83\n      swap2\n      swap1\n      tag_84\n      jump\t// in\n    tag_83:\n      tag_85\n      jump\t// in\n    tag_82:\n      stop\n        /* \"contracts/roles/AgentRole.sol\":1760:1888  function removeAgent(address _agent) public onlyOwner {... */\n    tag_18:\n      tag_86\n      0x04\n      dup1\n      calldatasize\n      sub\n      dup2\n      add\n      swap1\n      tag_87\n      swap2\n      swap1\n      tag_32\n      jump\t// in\n    tag_87:\n      tag_88\n      jump\t// in\n    tag_86:\n      stop\n        /* \"contracts/registry/IdentityRegistry.sol\":5564:5783  function deleteIdentity(address _userAddress) external override onlyAgent {... */\n    tag_19:\n      tag_89\n      0x04\n      dup1\n      calldatasize\n      sub\n      dup2\n      add\n      swap1\n      tag_90\n      swap2\n      swap1\n      tag_32\n      jump\t// in\n    tag_90:\n      tag_91\n      jump\t// in\n    tag_89:\n      stop\n        /* \"contracts/registry/IdentityRegistry.sol\":3500:3628  function issuersRegistry() external view override returns (ITrustedIssuersRegistry) {... */\n    tag_20:\n      tag_92\n      tag_93\n      jump\t// in\n    tag_92:\n      mload(0x40)\n      tag_94\n      swap2\n      swap1\n      tag_95\n      jump\t// in\n    tag_94:\n      mload(0x40)\n      dup1\n      swap2\n      sub\n      swap1\n      return\n        /* \"contracts/registry/IdentityRegistry.sol\":5854:7987  function isVerified(address _userAddress) external view override returns (bool) {... */\n    tag_21:\n      tag_96\n      0x04\n      dup1\n      calldatasize\n      sub\n      dup2\n      add\n      swap1\n      tag_97\n      swap2\n      swap1\n      tag_32\n      jump\t// in\n    tag_97:\n      tag_98\n      jump\t// in\n    tag_96:\n      mload(0x40)\n      tag_99\n      swap2\n      swap1\n      tag_35\n      jump\t// in\n    tag_99:\n      mload(0x40)\n      dup1\n      swap2\n      sub\n      swap1\n      return\n        /* \"contracts/registry/IdentityRegistry.sol\":9345:9490  function transferOwnershipOnIdentityRegistryContract(address _newOwner) external override onlyOwner {... */\n    tag_22:\n      tag_100\n      0x04\n      dup1\n      calldatasize\n      sub\n      dup2\n      add\n      swap1\n      tag_101\n      swap2\n      swap1\n      tag_32\n      jump\t// in\n    tag_101:\n      tag_102\n      jump\t// in\n    tag_100:\n      stop\n        /* \"contracts/registry/IdentityRegistry.sol\":8720:8969  function setTrustedIssuersRegistry(address _trustedIssuersRegistry) external override onlyOwner {... */\n    tag_23:\n      tag_103\n      0x04\n      dup1\n      calldatasize\n      sub\n      dup2\n      add\n      swap1\n      tag_104\n      swap2\n      swap1\n      tag_32\n      jump\t// in\n    tag_104:\n      tag_105\n      jump\t// in\n    tag_103:\n      stop\n        /* \"contracts/registry/IdentityRegistry.sol\":3027:3181  function identity(address _userAddress) public view override returns (IIdentity) {... */\n    tag_24:\n      tag_106\n      0x04\n      dup1\n      calldatasize\n      sub\n      dup2\n      add\n      swap1\n      tag_107\n      swap2\n      swap1\n      tag_32\n      jump\t// in\n    tag_107:\n      tag_108\n      jump\t// in\n    tag_106:\n      mload(0x40)\n      tag_109\n      swap2\n      swap1\n      tag_110\n      jump\t// in\n    tag_109:\n      mload(0x40)\n      dup1\n      swap2\n      sub\n      swap1\n      return\n        /* \"contracts/registry/IdentityRegistry.sol\":3902:4031  function identityStorage() external view override returns (IIdentityRegistryStorage) {... */\n    tag_25:\n      tag_111\n      tag_112\n      jump\t// in\n    tag_111:\n      mload(0x40)\n      tag_113\n      swap2\n      swap1\n      tag_114\n      jump\t// in\n    tag_113:\n      mload(0x40)\n      dup1\n      swap2\n      sub\n      swap1\n      return\n        /* \"@openzeppelin/contracts/access/Ownable.sol\":2081:2279  function transferOwnership(address newOwner) public virtual onlyOwner {... */\n    tag_26:\n      tag_115\n      0x04\n      dup1\n      calldatasize\n      sub\n      dup2\n      add\n      swap1\n      tag_116\n      swap2\n      swap1\n      tag_32\n      jump\t// in\n    tag_116:\n      tag_117\n      jump\t// in\n    tag_115:\n      stop\n        /* \"contracts/roles/AgentRole.sol\":1525:1628  function isAgent(address _agent) public view returns (bool) {... */\n    tag_33:\n        /* \"contracts/roles/AgentRole.sol\":1579:1583  bool */\n      0x00\n        /* \"contracts/roles/AgentRole.sol\":1602:1621  _agents.has(_agent) */\n      tag_119\n        /* \"contracts/roles/AgentRole.sol\":1614:1620  _agent */\n      dup3\n        /* \"contracts/roles/AgentRole.sol\":1602:1609  _agents */\n      0x01\n        /* \"contracts/roles/AgentRole.sol\":1602:1613  _agents.has */\n      tag_120\n      swap1\n        /* \"contracts/roles/AgentRole.sol\":1602:1621  _agents.has(_agent) */\n      swap2\n      swap1\n      0xffffffff\n      and\n      jump\t// in\n    tag_119:\n        /* \"contracts/roles/AgentRole.sol\":1595:1621  return _agents.has(_agent) */\n      swap1\n      pop\n        /* \"contracts/roles/AgentRole.sol\":1525:1628  function isAgent(address _agent) public view returns (bool) {... */\n      swap2\n      swap1\n      pop\n      jump\t// out\n        /* \"contracts/registry/IdentityRegistry.sol\":8074:8321  function setIdentityRegistryStorage(address _identityRegistryStorage) external override onlyOwner {... */\n    tag_38:\n        /* \"@openzeppelin/contracts/access/Ownable.sol\":1094:1107  _checkOwner() */\n      tag_122\n        /* \"@openzeppelin/contracts/access/Ownable.sol\":1094:1105  _checkOwner */\n      tag_123\n        /* \"@openzeppelin/contracts/access/Ownable.sol\":1094:1107  _checkOwner() */\n      jump\t// in\n    tag_122:\n        /* \"contracts/registry/IdentityRegistry.sol\":8230:8254  _identityRegistryStorage */\n      dup1\n        /* \"contracts/registry/IdentityRegistry.sol\":8182:8202  tokenIdentityStorage */\n      0x04\n      0x00\n        /* \"contracts/registry/IdentityRegistry.sol\":8182:8255  tokenIdentityStorage = IIdentityRegistryStorage(_identityRegistryStorage) */\n      0x0100\n      exp\n      dup2\n      sload\n      dup2\n      0xffffffffffffffffffffffffffffffffffffffff\n      mul\n      not\n      and\n      swap1\n      dup4\n      0xffffffffffffffffffffffffffffffffffffffff\n      and\n      mul\n      or\n      swap1\n      sstore\n      pop\n        /* \"contracts/registry/IdentityRegistry.sol\":8289:8313  _identityRegistryStorage */\n      dup1\n        /* \"contracts/registry/IdentityRegistry.sol\":8270:8314  IdentityStorageSet(_identityRegistryStorage) */\n      0xffffffffffffffffffffffffffffffffffffffff\n      and\n      0x2fa8b95c1db7afe99e3398f3792f008135cedc1fa26b0bb2ecd2352cd166d53c\n      mload(0x40)\n      mload(0x40)\n      dup1\n      swap2\n      sub\n      swap1\n      log2\n        /* \"contracts/registry/IdentityRegistry.sol\":8074:8321  function setIdentityRegistryStorage(address _identityRegistryStorage) external override onlyOwner {... */\n      pop\n      jump\t// out\n        /* \"contracts/registry/IdentityRegistry.sol\":5257:5489  function updateCountry(address _userAddress, uint16 _country) external override onlyAgent {... */\n    tag_42:\n        /* \"contracts/roles/AgentRole.sol\":1431:1450  isAgent(msg.sender) */\n      tag_126\n        /* \"contracts/roles/AgentRole.sol\":1439:1449  msg.sender */\n      caller\n        /* \"contracts/roles/AgentRole.sol\":1431:1438  isAgent */\n      tag_33\n        /* \"contracts/roles/AgentRole.sol\":1431:1450  isAgent(msg.sender) */\n      jump\t// in\n    tag_126:\n        /* \"contracts/roles/AgentRole.sol\":1423:1501  require(isAgent(msg.sender), 'AgentRole: caller does not have the Agent role') */\n      tag_127\n      jumpi\n      mload(0x40)\n      0x08c379a000000000000000000000000000000000000000000000000000000000\n      dup2\n      mstore\n      0x04\n      add\n      tag_128\n      swap1\n      tag_129\n      jump\t// in\n    tag_128:\n      mload(0x40)\n      dup1\n      swap2\n      sub\n      swap1\n      revert\n    tag_127:\n        /* \"contracts/registry/IdentityRegistry.sol\":5357:5377  tokenIdentityStorage */\n      0x04\n      0x00\n      swap1\n      sload\n      swap1\n      0x0100\n      exp\n      swap1\n      div\n      0xffffffffffffffffffffffffffffffffffffffff\n      and\n        /* \"contracts/registry/IdentityRegistry.sol\":5357:5405  tokenIdentityStorage.modifyStoredInvestorCountry */\n      0xffffffffffffffffffffffffffffffffffffffff\n      and\n      0x9f3418d5\n        /* \"contracts/registry/IdentityRegistry.sol\":5406:5418  _userAddress */\n      dup4\n        /* \"contracts/registry/IdentityRegistry.sol\":5420:5428  _country */\n      dup4\n        /* \"contracts/registry/IdentityRegistry.sol\":5357:5429  tokenIdentityStorage.modifyStoredInvestorCountry(_userAddress, _country) */\n      mload(0x40)\n      dup4\n      0xffffffff\n      and\n      0xe0\n      shl\n      dup2\n      mstore\n      0x04\n      add\n      tag_131\n      swap3\n      swap2\n      swap1\n      tag_132\n      jump\t// in\n    tag_131:\n      0x00\n      mload(0x40)\n      dup1\n      dup4\n      sub\n      dup2\n      0x00\n      dup8\n      dup1\n      extcodesize\n      iszero\n      dup1\n      iszero\n      tag_133\n      jumpi\n      0x00\n      dup1\n      revert\n    tag_133:\n      pop\n      gas\n      call\n      iszero\n      dup1\n      iszero\n      tag_135\n      jumpi\n      returndatasize\n      0x00\n      dup1\n      returndatacopy\n      revert(0x00, returndatasize)\n    tag_135:\n      pop\n      pop\n      pop\n      pop\n        /* \"contracts/registry/IdentityRegistry.sol\":5473:5481  _country */\n      dup1\n        /* \"contracts/registry/IdentityRegistry.sol\":5444:5482  CountryUpdated(_userAddress, _country) */\n      0xffff\n      and\n        /* \"contracts/registry/IdentityRegistry.sol\":5459:5471  _userAddress */\n      dup3\n        /* \"contracts/registry/IdentityRegistry.sol\":5444:5482  CountryUpdated(_userAddress, _country) */\n      0xffffffffffffffffffffffffffffffffffffffff\n      and\n      0x04ed3b726495c2dca1ff1215d9ca54e1a4030abb5e82b0f6ce55702416cee853\n      mload(0x40)\n      mload(0x40)\n      dup1\n      swap2\n      sub\n      swap1\n      log3\n        /* \"contracts/registry/IdentityRegistry.sol\":5257:5489  function updateCountry(address _userAddress, uint16 _country) external override onlyAgent {... */\n      pop\n      pop\n      jump\t// out\n        /* \"contracts/registry/IdentityRegistry.sol\":3703:3826  function topicsRegistry() external view override returns (IClaimTopicsRegistry) {... */\n    tag_44:\n        /* \"contracts/registry/IdentityRegistry.sol\":3761:3781  IClaimTopicsRegistry */\n      0x00\n        /* \"contracts/registry/IdentityRegistry.sol\":3800:3819  tokenTopicsRegistry */\n      0x02\n      0x00\n      swap1\n      sload\n      swap1\n      0x0100\n      exp\n      swap1\n      div\n      0xffffffffffffffffffffffffffffffffffffffff\n      and\n        /* \"contracts/registry/IdentityRegistry.sol\":3793:3819  return tokenTopicsRegistry */\n      swap1\n      pop\n        /* \"contracts/registry/IdentityRegistry.sol\":3703:3826  function topicsRegistry() external view override returns (IClaimTopicsRegistry) {... */\n      swap1\n      jump\t// out\n        /* \"contracts/registry/IdentityRegistry.sol\":4108:4401  function registerIdentity(... */\n    tag_50:\n        /* \"contracts/roles/AgentRole.sol\":1431:1450  isAgent(msg.sender) */\n      tag_138\n        /* \"contracts/roles/AgentRole.sol\":1439:1449  msg.sender */\n      caller\n        /* \"contracts/roles/AgentRole.sol\":1431:1438  isAgent */\n      tag_33\n        /* \"contracts/roles/AgentRole.sol\":1431:1450  isAgent(msg.sender) */\n      jump\t// in\n    tag_138:\n        /* \"contracts/roles/AgentRole.sol\":1423:1501  require(isAgent(msg.sender), 'AgentRole: caller does not have the Agent role') */\n      tag_139\n      jumpi\n      mload(0x40)\n      0x08c379a000000000000000000000000000000000000000000000000000000000\n      dup2\n      mstore\n      0x04\n      add\n      tag_140\n      swap1\n      tag_129\n      jump\t// in\n    tag_140:\n      mload(0x40)\n      dup1\n      swap2\n      sub\n      swap1\n      revert\n    tag_139:\n        /* \"contracts/registry/IdentityRegistry.sol\":4260:4280  tokenIdentityStorage */\n      0x04\n      0x00\n      swap1\n      sload\n      swap1\n      0x0100\n      exp\n      swap1\n      div\n      0xffffffffffffffffffffffffffffffffffffffff\n      and\n        /* \"contracts/registry/IdentityRegistry.sol\":4260:4301  tokenIdentityStorage.addIdentityToStorage */\n      0xffffffffffffffffffffffffffffffffffffffff\n      and\n      0xa53410dd\n        /* \"contracts/registry/IdentityRegistry.sol\":4302:4314  _userAddress */\n      dup5\n        /* \"contracts/registry/IdentityRegistry.sol\":4316:4325  _identity */\n      dup5\n        /* \"contracts/registry/IdentityRegistry.sol\":4327:4335  _country */\n      dup5\n        /* \"contracts/registry/IdentityRegistry.sol\":4260:4336  tokenIdentityStorage.addIdentityToStorage(_userAddress, _identity, _country) */\n      mload(0x40)\n      dup5\n      0xffffffff\n      and\n      0xe0\n      shl\n      dup2\n      mstore\n      0x04\n      add\n      tag_142\n      swap4\n      swap3\n      swap2\n      swap1\n      tag_143\n      jump\t// in\n    tag_142:\n      0x00\n      mload(0x40)\n      dup1\n      dup4\n      sub\n      dup2\n      0x00\n      dup8\n      dup1\n      extcodesize\n      iszero\n      dup1\n      iszero\n      tag_144\n      jumpi\n      0x00\n      dup1\n      revert\n    tag_144:\n      pop\n      gas\n      call\n      iszero\n      dup1\n      iszero\n      tag_146\n      jumpi\n      returndatasize\n      0x00\n      dup1\n      returndatacopy\n      revert(0x00, returndatasize)\n    tag_146:\n      pop\n      pop\n      pop\n      pop\n        /* \"contracts/registry/IdentityRegistry.sol\":4384:4393  _identity */\n      dup2\n        /* \"contracts/registry/IdentityRegistry.sol\":4351:4394  IdentityRegistered(_userAddress, _identity) */\n      0xffffffffffffffffffffffffffffffffffffffff\n      and\n        /* \"contracts/registry/IdentityRegistry.sol\":4370:4382  _userAddress */\n      dup4\n        /* \"contracts/registry/IdentityRegistry.sol\":4351:4394  IdentityRegistered(_userAddress, _identity) */\n      0xffffffffffffffffffffffffffffffffffffffff\n      and\n      0x6ae73635c50d24a45af6fbd5e016ac4bed179addbc8bf24e04ff0fcc6d33af19\n      mload(0x40)\n      mload(0x40)\n      dup1\n      swap2\n      sub\n      swap1\n      log3\n        /* \"contracts/registry/IdentityRegistry.sol\":4108:4401  function registerIdentity(... */\n      pop\n      pop\n      pop\n      jump\t// out\n        /* \"contracts/registry/IdentityRegistry.sol\":9585:9696  function addAgentOnIdentityRegistryContract(address _agent) external override {... */\n    tag_53:\n        /* \"contracts/registry/IdentityRegistry.sol\":9673:9689  addAgent(_agent) */\n      tag_148\n        /* \"contracts/registry/IdentityRegistry.sol\":9682:9688  _agent */\n      dup2\n        /* \"contracts/registry/IdentityRegistry.sol\":9673:9681  addAgent */\n      tag_77\n        /* \"contracts/registry/IdentityRegistry.sol\":9673:9689  addAgent(_agent) */\n      jump\t// in\n    tag_148:\n        /* \"contracts/registry/IdentityRegistry.sol\":9585:9696  function addAgentOnIdentityRegistryContract(address _agent) external override {... */\n      pop\n      jump\t// out\n        /* \"contracts/registry/IdentityRegistry.sol\":9038:9241  function contains(address _userAddress) external view override returns (bool) {... */\n    tag_56:\n        /* \"contracts/registry/IdentityRegistry.sol\":9110:9114  bool */\n      0x00\n        /* \"contracts/registry/IdentityRegistry.sol\":9173:9174  0 */\n      dup1\n        /* \"contracts/registry/IdentityRegistry.sol\":9130:9175  address(identity(_userAddress)) == address(0) */\n      0xffffffffffffffffffffffffffffffffffffffff\n      and\n        /* \"contracts/registry/IdentityRegistry.sol\":9138:9160  identity(_userAddress) */\n      tag_150\n        /* \"contracts/registry/IdentityRegistry.sol\":9147:9159  _userAddress */\n      dup4\n        /* \"contracts/registry/IdentityRegistry.sol\":9138:9146  identity */\n      tag_108\n        /* \"contracts/registry/IdentityRegistry.sol\":9138:9160  identity(_userAddress) */\n      jump\t// in\n    tag_150:\n        /* \"contracts/registry/IdentityRegistry.sol\":9130:9175  address(identity(_userAddress)) == address(0) */\n      0xffffffffffffffffffffffffffffffffffffffff\n      and\n      eq\n        /* \"contracts/registry/IdentityRegistry.sol\":9126:9214  if (address(identity(_userAddress)) == address(0)) {... */\n      iszero\n      tag_151\n      jumpi\n        /* \"contracts/registry/IdentityRegistry.sol\":9198:9203  false */\n      0x00\n        /* \"contracts/registry/IdentityRegistry.sol\":9191:9203  return false */\n      swap1\n      pop\n      jump(tag_149)\n        /* \"contracts/registry/IdentityRegistry.sol\":9126:9214  if (address(identity(_userAddress)) == address(0)) {... */\n    tag_151:\n        /* \"contracts/registry/IdentityRegistry.sol\":9230:9234  true */\n      0x01\n        /* \"contracts/registry/IdentityRegistry.sol\":9223:9234  return true */\n      swap1\n      pop\n        /* \"contracts/registry/IdentityRegistry.sol\":9038:9241  function contains(address _userAddress) external view override returns (bool) {... */\n    tag_149:\n      swap2\n      swap1\n      pop\n      jump\t// out\n        /* \"contracts/registry/IdentityRegistry.sol\":9794:9911  function removeAgentOnIdentityRegistryContract(address _agent) external override {... */\n    tag_60:\n        /* \"contracts/registry/IdentityRegistry.sol\":9885:9904  removeAgent(_agent) */\n      tag_153\n        /* \"contracts/registry/IdentityRegistry.sol\":9897:9903  _agent */\n      dup2\n        /* \"contracts/registry/IdentityRegistry.sol\":9885:9896  removeAgent */\n      tag_88\n        /* \"contracts/registry/IdentityRegistry.sol\":9885:9904  removeAgent(_agent) */\n      jump\t// in\n    tag_153:\n        /* \"contracts/registry/IdentityRegistry.sol\":9794:9911  function removeAgentOnIdentityRegistryContract(address _agent) external override {... */\n      pop\n      jump\t// out\n        /* \"contracts/registry/IdentityRegistry.sol\":4483:4820  function batchRegisterIdentity(... */\n    tag_64:\n        /* \"contracts/registry/IdentityRegistry.sol\":4676:4685  uint256 i */\n      0x00\n        /* \"contracts/registry/IdentityRegistry.sol\":4671:4814  for (uint256 i = 0; i < _userAddresses.length; i++) {... */\n    tag_155:\n        /* \"contracts/registry/IdentityRegistry.sol\":4695:4709  _userAddresses */\n      dup7\n      dup7\n        /* \"contracts/registry/IdentityRegistry.sol\":4695:4716  _userAddresses.length */\n      swap1\n      pop\n        /* \"contracts/registry/IdentityRegistry.sol\":4691:4692  i */\n      dup2\n        /* \"contracts/registry/IdentityRegistry.sol\":4691:4716  i < _userAddresses.length */\n      lt\n        /* \"contracts/registry/IdentityRegistry.sol\":4671:4814  for (uint256 i = 0; i < _userAddresses.length; i++) {... */\n      iszero\n      tag_156\n      jumpi\n        /* \"contracts/registry/IdentityRegistry.sol\":4737:4803  registerIdentity(_userAddresses[i], _identities[i], _countries[i]) */\n      tag_158\n        /* \"contracts/registry/IdentityRegistry.sol\":4754:4768  _userAddresses */\n      dup8\n      dup8\n        /* \"contracts/registry/IdentityRegistry.sol\":4769:4770  i */\n      dup4\n        /* \"contracts/registry/IdentityRegistry.sol\":4754:4771  _userAddresses[i] */\n      dup2\n      dup2\n      lt\n      tag_159\n      jumpi\n      tag_160\n      tag_161\n      jump\t// in\n    tag_160:\n    tag_159:\n      swap1\n      pop\n      0x20\n      mul\n      add\n      0x20\n      dup2\n      add\n      swap1\n      tag_162\n      swap2\n      swap1\n      tag_32\n      jump\t// in\n    tag_162:\n        /* \"contracts/registry/IdentityRegistry.sol\":4773:4784  _identities */\n      dup7\n      dup7\n        /* \"contracts/registry/IdentityRegistry.sol\":4785:4786  i */\n      dup5\n        /* \"contracts/registry/IdentityRegistry.sol\":4773:4787  _identities[i] */\n      dup2\n      dup2\n      lt\n      tag_163\n      jumpi\n      tag_164\n      tag_161\n      jump\t// in\n    tag_164:\n    tag_163:\n      swap1\n      pop\n      0x20\n      mul\n      add\n      0x20\n      dup2\n      add\n      swap1\n      tag_165\n      swap2\n      swap1\n      tag_166\n      jump\t// in\n    tag_165:\n        /* \"contracts/registry/IdentityRegistry.sol\":4789:4799  _countries */\n      dup6\n      dup6\n        /* \"contracts/registry/IdentityRegistry.sol\":4800:4801  i */\n      dup6\n        /* \"contracts/registry/IdentityRegistry.sol\":4789:4802  _countries[i] */\n      dup2\n      dup2\n      lt\n      tag_167\n      jumpi\n      tag_168\n      tag_161\n      jump\t// in\n    tag_168:\n    tag_167:\n      swap1\n      pop\n      0x20\n      mul\n      add\n      0x20\n      dup2\n      add\n      swap1\n      tag_169\n      swap2\n      swap1\n      tag_170\n      jump\t// in\n    tag_169:\n        /* \"contracts/registry/IdentityRegistry.sol\":4737:4753  registerIdentity */\n      tag_50\n        /* \"contracts/registry/IdentityRegistry.sol\":4737:4803  registerIdentity(_userAddresses[i], _identities[i], _countries[i]) */\n      jump\t// in\n    tag_158:\n        /* \"contracts/registry/IdentityRegistry.sol\":4718:4721  i++ */\n      dup1\n      dup1\n      tag_171\n      swap1\n      tag_172\n      jump\t// in\n    tag_171:\n      swap2\n      pop\n      pop\n        /* \"contracts/registry/IdentityRegistry.sol\":4671:4814  for (uint256 i = 0; i < _userAddresses.length; i++) {... */\n      jump(tag_155)\n    tag_156:\n      pop\n        /* \"contracts/registry/IdentityRegistry.sol\":4483:4820  function batchRegisterIdentity(... */\n      pop\n      pop\n      pop\n      pop\n      pop\n      pop\n      jump\t// out\n        /* \"contracts/registry/IdentityRegistry.sol\":8404:8634  function setClaimTopicsRegistry(address _claimTopicsRegistry) external override onlyOwner {... */\n    tag_67:\n        /* \"@openzeppelin/contracts/access/Ownable.sol\":1094:1107  _checkOwner() */\n      tag_174\n        /* \"@openzeppelin/contracts/access/Ownable.sol\":1094:1105  _checkOwner */\n      tag_123\n        /* \"@openzeppelin/contracts/access/Ownable.sol\":1094:1107  _checkOwner() */\n      jump\t// in\n    tag_174:\n        /* \"contracts/registry/IdentityRegistry.sol\":8547:8567  _claimTopicsRegistry */\n      dup1\n        /* \"contracts/registry/IdentityRegistry.sol\":8504:8523  tokenTopicsRegistry */\n      0x02\n      0x00\n        /* \"contracts/registry/IdentityRegistry.sol\":8504:8568  tokenTopicsRegistry = IClaimTopicsRegistry(_claimTopicsRegistry) */\n      0x0100\n      exp\n      dup2\n      sload\n      dup2\n      0xffffffffffffffffffffffffffffffffffffffff\n      mul\n      not\n      and\n      swap1\n      dup4\n      0xffffffffffffffffffffffffffffffffffffffff\n      and\n      mul\n      or\n      swap1\n      sstore\n      pop\n        /* \"contracts/registry/IdentityRegistry.sol\":8606:8626  _claimTopicsRegistry */\n      dup1\n        /* \"contracts/registry/IdentityRegistry.sol\":8583:8627  ClaimTopicsRegistrySet(_claimTopicsRegistry) */\n      0xffffffffffffffffffffffffffffffffffffffff\n      and\n      0x7170bf15b246e880b2369cd7c67d057760d8a35149e8c64dde91efa22bcc76d0\n      mload(0x40)\n      mload(0x40)\n      dup1\n      swap2\n      sub\n      swap1\n      log2\n        /* \"contracts/registry/IdentityRegistry.sol\":8404:8634  function setClaimTopicsRegistry(address _claimTopicsRegistry) external override onlyOwner {... */\n      pop\n      jump\t// out\n        /* \"@openzeppelin/contracts/access/Ownable.sol\":1831:1932  function renounceOwnership() public virtual onlyOwner {... */\n    tag_69:\n        /* \"@openzeppelin/contracts/access/Ownable.sol\":1094:1107  _checkOwner() */\n      tag_177\n        /* \"@openzeppelin/contracts/access/Ownable.sol\":1094:1105  _checkOwner */\n      tag_123\n        /* \"@openzeppelin/contracts/access/Ownable.sol\":1094:1107  _checkOwner() */\n      jump\t// in\n    tag_177:\n        /* \"@openzeppelin/contracts/access/Ownable.sol\":1895:1925  _transferOwnership(address(0)) */\n      tag_179\n        /* \"@openzeppelin/contracts/access/Ownable.sol\":1922:1923  0 */\n      0x00\n        /* \"@openzeppelin/contracts/access/Ownable.sol\":1895:1913  _transferOwnership */\n      tag_180\n        /* \"@openzeppelin/contracts/access/Ownable.sol\":1895:1925  _transferOwnership(address(0)) */\n      jump\t// in\n    tag_179:\n        /* \"@openzeppelin/contracts/access/Ownable.sol\":1831:1932  function renounceOwnership() public virtual onlyOwner {... */\n      jump\t// out\n        /* \"contracts/registry/IdentityRegistry.sol\":3257:3424  function investorCountry(address _userAddress) external view override returns (uint16) {... */\n    tag_72:\n        /* \"contracts/registry/IdentityRegistry.sol\":3336:3342  uint16 */\n      0x00\n        /* \"contracts/registry/IdentityRegistry.sol\":3361:3381  tokenIdentityStorage */\n      0x04\n      0x00\n      swap1\n      sload\n      swap1\n      0x0100\n      exp\n      swap1\n      div\n      0xffffffffffffffffffffffffffffffffffffffff\n      and\n        /* \"contracts/registry/IdentityRegistry.sol\":3361:3403  tokenIdentityStorage.storedInvestorCountry */\n      0xffffffffffffffffffffffffffffffffffffffff\n      and\n      0x727e13bc\n        /* \"contracts/registry/IdentityRegistry.sol\":3404:3416  _userAddress */\n      dup4\n        /* \"contracts/registry/IdentityRegistry.sol\":3361:3417  tokenIdentityStorage.storedInvestorCountry(_userAddress) */\n      mload(0x40)\n      dup3\n      0xffffffff\n      and\n      0xe0\n      shl\n      dup2\n      mstore\n      0x04\n      add\n      tag_182\n      swap2\n      swap1\n      tag_81\n      jump\t// in\n    tag_182:\n      0x20\n      mload(0x40)\n      dup1\n      dup4\n      sub\n      dup2\n      dup7\n      dup1\n      extcodesize\n      iszero\n      dup1\n      iszero\n      tag_183\n      jumpi\n      0x00\n      dup1\n      revert\n    tag_183:\n      pop\n      gas\n      staticcall\n      iszero\n      dup1\n      iszero\n      tag_185\n      jumpi\n      returndatasize\n      0x00\n      dup1\n      returndatacopy\n      revert(0x00, returndatasize)\n    tag_185:\n      pop\n      pop\n      pop\n      pop\n      mload(0x40)\n      returndatasize\n      not(0x1f)\n      0x1f\n      dup3\n      add\n      and\n      dup3\n      add\n      dup1\n      0x40\n      mstore\n      pop\n      dup2\n      add\n      swap1\n      tag_186\n      swap2\n      swap1\n      tag_187\n      jump\t// in\n    tag_186:\n        /* \"contracts/registry/IdentityRegistry.sol\":3354:3417  return tokenIdentityStorage.storedInvestorCountry(_userAddress) */\n      swap1\n      pop\n        /* \"contracts/registry/IdentityRegistry.sol\":3257:3424  function investorCountry(address _userAddress) external view override returns (uint16) {... */\n      swap2\n      swap1\n      pop\n      jump\t// out\n        /* \"contracts/roles/AgentRole.sol\":1634:1754  function addAgent(address _agent) public onlyOwner {... */\n    tag_77:\n        /* \"@openzeppelin/contracts/access/Ownable.sol\":1094:1107  _checkOwner() */\n      tag_189\n        /* \"@openzeppelin/contracts/access/Ownable.sol\":1094:1105  _checkOwner */\n      tag_123\n        /* \"@openzeppelin/contracts/access/Ownable.sol\":1094:1107  _checkOwner() */\n      jump\t// in\n    tag_189:\n        /* \"contracts/roles/AgentRole.sol\":1695:1714  _agents.add(_agent) */\n      tag_191\n        /* \"contracts/roles/AgentRole.sol\":1707:1713  _agent */\n      dup2\n        /* \"contracts/roles/AgentRole.sol\":1695:1702  _agents */\n      0x01\n        /* \"contracts/roles/AgentRole.sol\":1695:1706  _agents.add */\n      tag_192\n      swap1\n        /* \"contracts/roles/AgentRole.sol\":1695:1714  _agents.add(_agent) */\n      swap2\n      swap1\n      0xffffffff\n      and\n      jump\t// in\n    tag_191:\n        /* \"contracts/roles/AgentRole.sol\":1740:1746  _agent */\n      dup1\n        /* \"contracts/roles/AgentRole.sol\":1729:1747  AgentAdded(_agent) */\n      0xffffffffffffffffffffffffffffffffffffffff\n      and\n      0xf68e73cec97f2d70aa641fb26e87a4383686e2efacb648f2165aeb02ac562ec5\n      mload(0x40)\n      mload(0x40)\n      dup1\n      swap2\n      sub\n      swap1\n      log2\n        /* \"contracts/roles/AgentRole.sol\":1634:1754  function addAgent(address _agent) public onlyOwner {... */\n      pop\n      jump\t// out\n        /* \"@openzeppelin/contracts/access/Ownable.sol\":1201:1286  function owner() public view virtual returns (address) {... */\n    tag_79:\n        /* \"@openzeppelin/contracts/access/Ownable.sol\":1247:1254  address */\n      0x00\n        /* \"@openzeppelin/contracts/access/Ownable.sol\":1273:1279  _owner */\n      dup1\n      0x00\n      swap1\n      sload\n      swap1\n      0x0100\n      exp\n      swap1\n      div\n      0xffffffffffffffffffffffffffffffffffffffff\n      and\n        /* \"@openzeppelin/contracts/access/Ownable.sol\":1266:1279  return _owner */\n      swap1\n      pop\n        /* \"@openzeppelin/contracts/access/Ownable.sol\":1201:1286  function owner() public view virtual returns (address) {... */\n      swap1\n      jump\t// out\n        /* \"contracts/registry/IdentityRegistry.sol\":4895:5183  function updateIdentity(address _userAddress, IIdentity _identity) external override onlyAgent {... */\n    tag_85:\n        /* \"contracts/roles/AgentRole.sol\":1431:1450  isAgent(msg.sender) */\n      tag_195\n        /* \"contracts/roles/AgentRole.sol\":1439:1449  msg.sender */\n      caller\n        /* \"contracts/roles/AgentRole.sol\":1431:1438  isAgent */\n      tag_33\n        /* \"contracts/roles/AgentRole.sol\":1431:1450  isAgent(msg.sender) */\n      jump\t// in\n    tag_195:\n        /* \"contracts/roles/AgentRole.sol\":1423:1501  require(isAgent(msg.sender), 'AgentRole: caller does not have the Agent role') */\n      tag_196\n      jumpi\n      mload(0x40)\n      0x08c379a000000000000000000000000000000000000000000000000000000000\n      dup2\n      mstore\n      0x04\n      add\n      tag_197\n      swap1\n      tag_129\n      jump\t// in\n    tag_197:\n      mload(0x40)\n      dup1\n      swap2\n      sub\n      swap1\n      revert\n    tag_196:\n        /* \"contracts/registry/IdentityRegistry.sol\":5000:5021  IIdentity oldIdentity */\n      0x00\n        /* \"contracts/registry/IdentityRegistry.sol\":5024:5046  identity(_userAddress) */\n      tag_199\n        /* \"contracts/registry/IdentityRegistry.sol\":5033:5045  _userAddress */\n      dup4\n        /* \"contracts/registry/IdentityRegistry.sol\":5024:5032  identity */\n      tag_108\n        /* \"contracts/registry/IdentityRegistry.sol\":5024:5046  identity(_userAddress) */\n      jump\t// in\n    tag_199:\n        /* \"contracts/registry/IdentityRegistry.sol\":5000:5046  IIdentity oldIdentity = identity(_userAddress) */\n      swap1\n      pop\n        /* \"contracts/registry/IdentityRegistry.sol\":5056:5076  tokenIdentityStorage */\n      0x04\n      0x00\n      swap1\n      sload\n      swap1\n      0x0100\n      exp\n      swap1\n      div\n      0xffffffffffffffffffffffffffffffffffffffff\n      and\n        /* \"contracts/registry/IdentityRegistry.sol\":5056:5097  tokenIdentityStorage.modifyStoredIdentity */\n      0xffffffffffffffffffffffffffffffffffffffff\n      and\n      0xe805cf86\n        /* \"contracts/registry/IdentityRegistry.sol\":5098:5110  _userAddress */\n      dup5\n        /* \"contracts/registry/IdentityRegistry.sol\":5112:5121  _identity */\n      dup5\n        /* \"contracts/registry/IdentityRegistry.sol\":5056:5122  tokenIdentityStorage.modifyStoredIdentity(_userAddress, _identity) */\n      mload(0x40)\n      dup4\n      0xffffffff\n      and\n      0xe0\n      shl\n      dup2\n      mstore\n      0x04\n      add\n      tag_200\n      swap3\n      swap2\n      swap1\n      tag_201\n      jump\t// in\n    tag_200:\n      0x00\n      mload(0x40)\n      dup1\n      dup4\n      sub\n      dup2\n      0x00\n      dup8\n      dup1\n      extcodesize\n      iszero\n      dup1\n      iszero\n      tag_202\n      jumpi\n      0x00\n      dup1\n      revert\n    tag_202:\n      pop\n      gas\n      call\n      iszero\n      dup1\n      iszero\n      tag_204\n      jumpi\n      returndatasize\n      0x00\n      dup1\n      returndatacopy\n      revert(0x00, returndatasize)\n    tag_204:\n      pop\n      pop\n      pop\n      pop\n        /* \"contracts/registry/IdentityRegistry.sol\":5166:5175  _identity */\n      dup2\n        /* \"contracts/registry/IdentityRegistry.sol\":5137:5176  IdentityUpdated(oldIdentity, _identity) */\n      0xffffffffffffffffffffffffffffffffffffffff\n      and\n        /* \"contracts/registry/IdentityRegistry.sol\":5153:5164  oldIdentity */\n      dup2\n        /* \"contracts/registry/IdentityRegistry.sol\":5137:5176  IdentityUpdated(oldIdentity, _identity) */\n      0xffffffffffffffffffffffffffffffffffffffff\n      and\n      0xe98082932c8056a0f514da9104e4a66bc2cbaef102ad59d90c4b24220ebf6010\n      mload(0x40)\n      mload(0x40)\n      dup1\n      swap2\n      sub\n      swap1\n      log3\n        /* \"contracts/registry/IdentityRegistry.sol\":4990:5183  {... */\n      pop\n        /* \"contracts/registry/IdentityRegistry.sol\":4895:5183  function updateIdentity(address _userAddress, IIdentity _identity) external override onlyAgent {... */\n      pop\n      pop\n      jump\t// out\n        /* \"contracts/roles/AgentRole.sol\":1760:1888  function removeAgent(address _agent) public onlyOwner {... */\n    tag_88:\n        /* \"@openzeppelin/contracts/access/Ownable.sol\":1094:1107  _checkOwner() */\n      tag_206\n        /* \"@openzeppelin/contracts/access/Ownable.sol\":1094:1105  _checkOwner */\n      tag_123\n        /* \"@openzeppelin/contracts/access/Ownable.sol\":1094:1107  _checkOwner() */\n      jump\t// in\n    tag_206:\n        /* \"contracts/roles/AgentRole.sol\":1824:1846  _agents.remove(_agent) */\n      tag_208\n        /* \"contracts/roles/AgentRole.sol\":1839:1845  _agent */\n      dup2\n        /* \"contracts/roles/AgentRole.sol\":1824:1831  _agents */\n      0x01\n        /* \"contracts/roles/AgentRole.sol\":1824:1838  _agents.remove */\n      tag_209\n      swap1\n        /* \"contracts/roles/AgentRole.sol\":1824:1846  _agents.remove(_agent) */\n      swap2\n      swap1\n      0xffffffff\n      and\n      jump\t// in\n    tag_208:\n        /* \"contracts/roles/AgentRole.sol\":1874:1880  _agent */\n      dup1\n        /* \"contracts/roles/AgentRole.sol\":1861:1881  AgentRemoved(_agent) */\n      0xffffffffffffffffffffffffffffffffffffffff\n      and\n      0xed9c8ad8d5a0a66898ea49d2956929c93ae2e8bd50281b2ed897c5d1a6737e0b\n      mload(0x40)\n      mload(0x40)\n      dup1\n      swap2\n      sub\n      swap1\n      log2\n        /* \"contracts/roles/AgentRole.sol\":1760:1888  function removeAgent(address _agent) public onlyOwner {... */\n      pop\n      jump\t// out\n        /* \"contracts/registry/IdentityRegistry.sol\":5564:5783  function deleteIdentity(address _userAddress) external override onlyAgent {... */\n    tag_91:\n        /* \"contracts/roles/AgentRole.sol\":1431:1450  isAgent(msg.sender) */\n      tag_211\n        /* \"contracts/roles/AgentRole.sol\":1439:1449  msg.sender */\n      caller\n        /* \"contracts/roles/AgentRole.sol\":1431:1438  isAgent */\n      tag_33\n        /* \"contracts/roles/AgentRole.sol\":1431:1450  isAgent(msg.sender) */\n      jump\t// in\n    tag_211:\n        /* \"contracts/roles/AgentRole.sol\":1423:1501  require(isAgent(msg.sender), 'AgentRole: caller does not have the Agent role') */\n      tag_212\n      jumpi\n      mload(0x40)\n      0x08c379a000000000000000000000000000000000000000000000000000000000\n      dup2\n      mstore\n      0x04\n      add\n      tag_213\n      swap1\n      tag_129\n      jump\t// in\n    tag_213:\n      mload(0x40)\n      dup1\n      swap2\n      sub\n      swap1\n      revert\n    tag_212:\n        /* \"contracts/registry/IdentityRegistry.sol\":5648:5668  tokenIdentityStorage */\n      0x04\n      0x00\n      swap1\n      sload\n      swap1\n      0x0100\n      exp\n      swap1\n      div\n      0xffffffffffffffffffffffffffffffffffffffff\n      and\n        /* \"contracts/registry/IdentityRegistry.sol\":5648:5694  tokenIdentityStorage.removeIdentityFromStorage */\n      0xffffffffffffffffffffffffffffffffffffffff\n      and\n      0xcf191bcd\n        /* \"contracts/registry/IdentityRegistry.sol\":5695:5707  _userAddress */\n      dup3\n        /* \"contracts/registry/IdentityRegistry.sol\":5648:5708  tokenIdentityStorage.removeIdentityFromStorage(_userAddress) */\n      mload(0x40)\n      dup3\n      0xffffffff\n      and\n      0xe0\n      shl\n      dup2\n      mstore\n      0x04\n      add\n      tag_215\n      swap2\n      swap1\n      tag_81\n      jump\t// in\n    tag_215:\n      0x00\n      mload(0x40)\n      dup1\n      dup4\n      sub\n      dup2\n      0x00\n      dup8\n      dup1\n      extcodesize\n      iszero\n      dup1\n      iszero\n      tag_216\n      jumpi\n      0x00\n      dup1\n      revert\n    tag_216:\n      pop\n      gas\n      call\n      iszero\n      dup1\n      iszero\n      tag_218\n      jumpi\n      returndatasize\n      0x00\n      dup1\n      returndatacopy\n      revert(0x00, returndatasize)\n    tag_218:\n      pop\n      pop\n      pop\n      pop\n        /* \"contracts/registry/IdentityRegistry.sol\":5753:5775  identity(_userAddress) */\n      tag_219\n        /* \"contracts/registry/IdentityRegistry.sol\":5762:5774  _userAddress */\n      dup2\n        /* \"contracts/registry/IdentityRegistry.sol\":5753:5761  identity */\n      tag_108\n        /* \"contracts/registry/IdentityRegistry.sol\":5753:5775  identity(_userAddress) */\n      jump\t// in\n    tag_219:\n        /* \"contracts/registry/IdentityRegistry.sol\":5723:5776  IdentityRemoved(_userAddress, identity(_userAddress)) */\n      0xffffffffffffffffffffffffffffffffffffffff\n      and\n        /* \"contracts/registry/IdentityRegistry.sol\":5739:5751  _userAddress */\n      dup2\n        /* \"contracts/registry/IdentityRegistry.sol\":5723:5776  IdentityRemoved(_userAddress, identity(_userAddress)) */\n      0xffffffffffffffffffffffffffffffffffffffff\n      and\n      0x59d6590e225b81befe259af056324092801080acbb7feab310eb34678871f327\n      mload(0x40)\n      mload(0x40)\n      dup1\n      swap2\n      sub\n      swap1\n      log3\n        /* \"contracts/registry/IdentityRegistry.sol\":5564:5783  function deleteIdentity(address _userAddress) external override onlyAgent {... */\n      pop\n      jump\t// out\n        /* \"contracts/registry/IdentityRegistry.sol\":3500:3628  function issuersRegistry() external view override returns (ITrustedIssuersRegistry) {... */\n    tag_93:\n        /* \"contracts/registry/IdentityRegistry.sol\":3559:3582  ITrustedIssuersRegistry */\n      0x00\n        /* \"contracts/registry/IdentityRegistry.sol\":3601:3621  tokenIssuersRegistry */\n      0x03\n      0x00\n      swap1\n      sload\n      swap1\n      0x0100\n      exp\n      swap1\n      div\n      0xffffffffffffffffffffffffffffffffffffffff\n      and\n        /* \"contracts/registry/IdentityRegistry.sol\":3594:3621  return tokenIssuersRegistry */\n      swap1\n      pop\n        /* \"contracts/registry/IdentityRegistry.sol\":3500:3628  function issuersRegistry() external view override returns (ITrustedIssuersRegistry) {... */\n      swap1\n      jump\t// out\n        /* \"contracts/registry/IdentityRegistry.sol\":5854:7987  function isVerified(address _userAddress) external view override returns (bool) {... */\n    tag_98:\n        /* \"contracts/registry/IdentityRegistry.sol\":5928:5932  bool */\n      0x00\n        /* \"contracts/registry/IdentityRegistry.sol\":5991:5992  0 */\n      dup1\n        /* \"contracts/registry/IdentityRegistry.sol\":5948:5993  address(identity(_userAddress)) == address(0) */\n      0xffffffffffffffffffffffffffffffffffffffff\n      and\n        /* \"contracts/registry/IdentityRegistry.sol\":5956:5978  identity(_userAddress) */\n      tag_222\n        /* \"contracts/registry/IdentityRegistry.sol\":5965:5977  _userAddress */\n      dup4\n        /* \"contracts/registry/IdentityRegistry.sol\":5956:5964  identity */\n      tag_108\n        /* \"contracts/registry/IdentityRegistry.sol\":5956:5978  identity(_userAddress) */\n      jump\t// in\n    tag_222:\n        /* \"contracts/registry/IdentityRegistry.sol\":5948:5993  address(identity(_userAddress)) == address(0) */\n      0xffffffffffffffffffffffffffffffffffffffff\n      and\n      eq\n        /* \"contracts/registry/IdentityRegistry.sol\":5944:6032  if (address(identity(_userAddress)) == address(0)) {... */\n      iszero\n      tag_223\n      jumpi\n        /* \"contracts/registry/IdentityRegistry.sol\":6016:6021  false */\n      0x00\n        /* \"contracts/registry/IdentityRegistry.sol\":6009:6021  return false */\n      swap1\n      pop\n      jump(tag_221)\n        /* \"contracts/registry/IdentityRegistry.sol\":5944:6032  if (address(identity(_userAddress)) == address(0)) {... */\n    tag_223:\n        /* \"contracts/registry/IdentityRegistry.sol\":6041:6077  uint256[] memory requiredClaimTopics */\n      0x00\n        /* \"contracts/registry/IdentityRegistry.sol\":6080:6099  tokenTopicsRegistry */\n      0x02\n      0x00\n      swap1\n      sload\n      swap1\n      0x0100\n      exp\n      swap1\n      div\n      0xffffffffffffffffffffffffffffffffffffffff\n      and\n        /* \"contracts/registry/IdentityRegistry.sol\":6080:6114  tokenTopicsRegistry.getClaimTopics */\n      0xffffffffffffffffffffffffffffffffffffffff\n      and\n      0xdf09d604\n        /* \"contracts/registry/IdentityRegistry.sol\":6080:6116  tokenTopicsRegistry.getClaimTopics() */\n      mload(0x40)\n      dup2\n      0xffffffff\n      and\n      0xe0\n      shl\n      dup2\n      mstore\n      0x04\n      add\n      0x00\n      mload(0x40)\n      dup1\n      dup4\n      sub\n      dup2\n      dup7\n      dup1\n      extcodesize\n      iszero\n      dup1\n      iszero\n      tag_224\n      jumpi\n      0x00\n      dup1\n      revert\n    tag_224:\n      pop\n      gas\n      staticcall\n      iszero\n      dup1\n      iszero\n      tag_226\n      jumpi\n      returndatasize\n      0x00\n      dup1\n      returndatacopy\n      revert(0x00, returndatasize)\n    tag_226:\n      pop\n      pop\n      pop\n      pop\n      mload(0x40)\n      returndatasize\n      0x00\n      dup3\n      returndatacopy\n      returndatasize\n      not(0x1f)\n      0x1f\n      dup3\n      add\n      and\n      dup3\n      add\n      dup1\n      0x40\n      mstore\n      pop\n      dup2\n      add\n      swap1\n      tag_227\n      swap2\n      swap1\n      tag_228\n      jump\t// in\n    tag_227:\n        /* \"contracts/registry/IdentityRegistry.sol\":6041:6116  uint256[] memory requiredClaimTopics = tokenTopicsRegistry.getClaimTopics() */\n      swap1\n      pop\n        /* \"contracts/registry/IdentityRegistry.sol\":6160:6161  0 */\n      0x00\n        /* \"contracts/registry/IdentityRegistry.sol\":6130:6149  requiredClaimTopics */\n      dup2\n        /* \"contracts/registry/IdentityRegistry.sol\":6130:6156  requiredClaimTopics.length */\n      mload\n        /* \"contracts/registry/IdentityRegistry.sol\":6130:6161  requiredClaimTopics.length == 0 */\n      eq\n        /* \"contracts/registry/IdentityRegistry.sol\":6126:6199  if (requiredClaimTopics.length == 0) {... */\n      iszero\n      tag_229\n      jumpi\n        /* \"contracts/registry/IdentityRegistry.sol\":6184:6188  true */\n      0x01\n        /* \"contracts/registry/IdentityRegistry.sol\":6177:6188  return true */\n      swap2\n      pop\n      pop\n      jump(tag_221)\n        /* \"contracts/registry/IdentityRegistry.sol\":6126:6199  if (requiredClaimTopics.length == 0) {... */\n    tag_229:\n        /* \"contracts/registry/IdentityRegistry.sol\":6208:6231  uint256 foundClaimTopic */\n      0x00\n        /* \"contracts/registry/IdentityRegistry.sol\":6241:6255  uint256 scheme */\n      dup1\n        /* \"contracts/registry/IdentityRegistry.sol\":6265:6279  address issuer */\n      0x00\n        /* \"contracts/registry/IdentityRegistry.sol\":6289:6305  bytes memory sig */\n      0x60\n        /* \"contracts/registry/IdentityRegistry.sol\":6315:6332  bytes memory data */\n      dup1\n        /* \"contracts/registry/IdentityRegistry.sol\":6342:6360  uint256 claimTopic */\n      0x00\n        /* \"contracts/registry/IdentityRegistry.sol\":6370:7960  for (claimTopic = 0; claimTopic < requiredClaimTopics.length; claimTopic++) {... */\n    tag_230:\n        /* \"contracts/registry/IdentityRegistry.sol\":6404:6423  requiredClaimTopics */\n      dup7\n        /* \"contracts/registry/IdentityRegistry.sol\":6404:6430  requiredClaimTopics.length */\n      mload\n        /* \"contracts/registry/IdentityRegistry.sol\":6391:6401  claimTopic */\n      dup2\n        /* \"contracts/registry/IdentityRegistry.sol\":6391:6430  claimTopic < requiredClaimTopics.length */\n      lt\n        /* \"contracts/registry/IdentityRegistry.sol\":6370:7960  for (claimTopic = 0; claimTopic < requiredClaimTopics.length; claimTopic++) {... */\n      iszero\n      tag_231\n      jumpi\n        /* \"contracts/registry/IdentityRegistry.sol\":6460:6485  bytes32[] memory claimIds */\n      0x00\n        /* \"contracts/registry/IdentityRegistry.sol\":6488:6510  identity(_userAddress) */\n      tag_233\n        /* \"contracts/registry/IdentityRegistry.sol\":6497:6509  _userAddress */\n      dup11\n        /* \"contracts/registry/IdentityRegistry.sol\":6488:6496  identity */\n      tag_108\n        /* \"contracts/registry/IdentityRegistry.sol\":6488:6510  identity(_userAddress) */\n      jump\t// in\n    tag_233:\n        /* \"contracts/registry/IdentityRegistry.sol\":6488:6529  identity(_userAddress).getClaimIdsByTopic */\n      0xffffffffffffffffffffffffffffffffffffffff\n      and\n      0x80e9e9e1\n        /* \"contracts/registry/IdentityRegistry.sol\":6530:6549  requiredClaimTopics */\n      dup10\n        /* \"contracts/registry/IdentityRegistry.sol\":6550:6560  claimTopic */\n      dup5\n        /* \"contracts/registry/IdentityRegistry.sol\":6530:6561  requiredClaimTopics[claimTopic] */\n      dup2\n      mload\n      dup2\n      lt\n      tag_234\n      jumpi\n      tag_235\n      tag_161\n      jump\t// in\n    tag_235:\n    tag_234:\n      0x20\n      mul\n      0x20\n      add\n      add\n      mload\n        /* \"contracts/registry/IdentityRegistry.sol\":6488:6562  identity(_userAddress).getClaimIdsByTopic(requiredClaimTopics[claimTopic]) */\n      mload(0x40)\n      dup3\n      0xffffffff\n      and\n      0xe0\n      shl\n      dup2\n      mstore\n      0x04\n      add\n      tag_236\n      swap2\n      swap1\n      tag_237\n      jump\t// in\n    tag_236:\n      0x00\n      mload(0x40)\n      dup1\n      dup4\n      sub\n      dup2\n      dup7\n      dup1\n      extcodesize\n      iszero\n      dup1\n      iszero\n      tag_238\n      jumpi\n      0x00\n      dup1\n      revert\n    tag_238:\n      pop\n      gas\n      staticcall\n      iszero\n      dup1\n      iszero\n      tag_240\n      jumpi\n      returndatasize\n      0x00\n      dup1\n      returndatacopy\n      revert(0x00, returndatasize)\n    tag_240:\n      pop\n      pop\n      pop\n      pop\n      mload(0x40)\n      returndatasize\n      0x00\n      dup3\n      returndatacopy\n      returndatasize\n      not(0x1f)\n      0x1f\n      dup3\n      add\n      and\n      dup3\n      add\n      dup1\n      0x40\n      mstore\n      pop\n      dup2\n      add\n      swap1\n      tag_241\n      swap2\n      swap1\n      tag_242\n      jump\t// in\n    tag_241:\n        /* \"contracts/registry/IdentityRegistry.sol\":6460:6562  bytes32[] memory claimIds = identity(_userAddress).getClaimIdsByTopic(requiredClaimTopics[claimTopic]) */\n      swap1\n      pop\n        /* \"contracts/registry/IdentityRegistry.sol\":6599:6600  0 */\n      0x00\n        /* \"contracts/registry/IdentityRegistry.sol\":6580:6588  claimIds */\n      dup2\n        /* \"contracts/registry/IdentityRegistry.sol\":6580:6595  claimIds.length */\n      mload\n        /* \"contracts/registry/IdentityRegistry.sol\":6580:6600  claimIds.length == 0 */\n      eq\n        /* \"contracts/registry/IdentityRegistry.sol\":6576:6647  if (claimIds.length == 0) {... */\n      iszero\n      tag_243\n      jumpi\n        /* \"contracts/registry/IdentityRegistry.sol\":6627:6632  false */\n      0x00\n        /* \"contracts/registry/IdentityRegistry.sol\":6620:6632  return false */\n      swap9\n      pop\n      pop\n      pop\n      pop\n      pop\n      pop\n      pop\n      pop\n      pop\n      jump(tag_221)\n        /* \"contracts/registry/IdentityRegistry.sol\":6576:6647  if (claimIds.length == 0) {... */\n    tag_243:\n        /* \"contracts/registry/IdentityRegistry.sol\":6665:6674  uint256 j */\n      0x00\n        /* \"contracts/registry/IdentityRegistry.sol\":6660:7950  for (uint256 j = 0; j < claimIds.length; j++) {... */\n    tag_244:\n        /* \"contracts/registry/IdentityRegistry.sol\":6684:6692  claimIds */\n      dup2\n        /* \"contracts/registry/IdentityRegistry.sol\":6684:6699  claimIds.length */\n      mload\n        /* \"contracts/registry/IdentityRegistry.sol\":6680:6681  j */\n      dup2\n        /* \"contracts/registry/IdentityRegistry.sol\":6680:6699  j < claimIds.length */\n      lt\n        /* \"contracts/registry/IdentityRegistry.sol\":6660:7950  for (uint256 j = 0; j < claimIds.length; j++) {... */\n      iszero\n      tag_245\n      jumpi\n        /* \"contracts/registry/IdentityRegistry.sol\":6773:6795  identity(_userAddress) */\n      tag_247\n        /* \"contracts/registry/IdentityRegistry.sol\":6782:6794  _userAddress */\n      dup12\n        /* \"contracts/registry/IdentityRegistry.sol\":6773:6781  identity */\n      tag_108\n        /* \"contracts/registry/IdentityRegistry.sol\":6773:6795  identity(_userAddress) */\n      jump\t// in\n    tag_247:\n        /* \"contracts/registry/IdentityRegistry.sol\":6773:6804  identity(_userAddress).getClaim */\n      0xffffffffffffffffffffffffffffffffffffffff\n      and\n      0xc9100bcb\n        /* \"contracts/registry/IdentityRegistry.sol\":6805:6813  claimIds */\n      dup4\n        /* \"contracts/registry/IdentityRegistry.sol\":6814:6815  j */\n      dup4\n        /* \"contracts/registry/IdentityRegistry.sol\":6805:6816  claimIds[j] */\n      dup2\n      mload\n      dup2\n      lt\n      tag_248\n      jumpi\n      tag_249\n      tag_161\n      jump\t// in\n    tag_249:\n    tag_248:\n      0x20\n      mul\n      0x20\n      add\n      add\n      mload\n        /* \"contracts/registry/IdentityRegistry.sol\":6773:6817  identity(_userAddress).getClaim(claimIds[j]) */\n      mload(0x40)\n      dup3\n      0xffffffff\n      and\n      0xe0\n      shl\n      dup2\n      mstore\n      0x04\n      add\n      tag_250\n      swap2\n      swap1\n      tag_251\n      jump\t// in\n    tag_250:\n      0x00\n      mload(0x40)\n      dup1\n      dup4\n      sub\n      dup2\n      dup7\n      dup1\n      extcodesize\n      iszero\n      dup1\n      iszero\n      tag_252\n      jumpi\n      0x00\n      dup1\n      revert\n    tag_252:\n      pop\n      gas\n      staticcall\n      iszero\n      dup1\n      iszero\n      tag_254\n      jumpi\n      returndatasize\n      0x00\n      dup1\n      returndatacopy\n      revert(0x00, returndatasize)\n    tag_254:\n      pop\n      pop\n      pop\n      pop\n      mload(0x40)\n      returndatasize\n      0x00\n      dup3\n      returndatacopy\n      returndatasize\n      not(0x1f)\n      0x1f\n      dup3\n      add\n      and\n      dup3\n      add\n      dup1\n      0x40\n      mstore\n      pop\n      dup2\n      add\n      swap1\n      tag_255\n      swap2\n      swap1\n      tag_256\n      jump\t// in\n    tag_255:\n        /* \"contracts/registry/IdentityRegistry.sol\":6724:6817  (foundClaimTopic, scheme, issuer, sig, data, ) = identity(_userAddress).getClaim(claimIds[j]) */\n      pop\n      dup1\n      swap9\n      pop\n      dup2\n      swap10\n      pop\n      dup3\n      swap11\n      pop\n      dup4\n      swap12\n      pop\n      dup5\n      swap13\n      pop\n      pop\n      pop\n      pop\n      pop\n      pop\n        /* \"contracts/registry/IdentityRegistry.sol\":6853:6859  issuer */\n      dup6\n        /* \"contracts/registry/IdentityRegistry.sol\":6840:6873  IClaimIssuer(issuer).isClaimValid */\n      0xffffffffffffffffffffffffffffffffffffffff\n      and\n      0xc0969a6e\n        /* \"contracts/registry/IdentityRegistry.sol\":6874:6896  identity(_userAddress) */\n      tag_257\n        /* \"contracts/registry/IdentityRegistry.sol\":6883:6895  _userAddress */\n      dup14\n        /* \"contracts/registry/IdentityRegistry.sol\":6874:6882  identity */\n      tag_108\n        /* \"contracts/registry/IdentityRegistry.sol\":6874:6896  identity(_userAddress) */\n      jump\t// in\n    tag_257:\n        /* \"contracts/registry/IdentityRegistry.sol\":6898:6917  requiredClaimTopics */\n      dup12\n        /* \"contracts/registry/IdentityRegistry.sol\":6918:6928  claimTopic */\n      dup7\n        /* \"contracts/registry/IdentityRegistry.sol\":6898:6929  requiredClaimTopics[claimTopic] */\n      dup2\n      mload\n      dup2\n      lt\n      tag_258\n      jumpi\n      tag_259\n      tag_161\n      jump\t// in\n    tag_259:\n    tag_258:\n      0x20\n      mul\n      0x20\n      add\n      add\n      mload\n        /* \"contracts/registry/IdentityRegistry.sol\":6931:6934  sig */\n      dup9\n        /* \"contracts/registry/IdentityRegistry.sol\":6936:6940  data */\n      dup9\n        /* \"contracts/registry/IdentityRegistry.sol\":6840:6941  IClaimIssuer(issuer).isClaimValid(identity(_userAddress), requiredClaimTopics[claimTopic], sig, data) */\n      mload(0x40)\n      dup6\n      0xffffffff\n      and\n      0xe0\n      shl\n      dup2\n      mstore\n      0x04\n      add\n      tag_260\n      swap5\n      swap4\n      swap3\n      swap2\n      swap1\n      tag_261\n      jump\t// in\n    tag_260:\n      0x20\n      mload(0x40)\n      dup1\n      dup4\n      sub\n      dup2\n      dup7\n      dup1\n      extcodesize\n      iszero\n      dup1\n      iszero\n      tag_262\n      jumpi\n      0x00\n      dup1\n      revert\n    tag_262:\n      pop\n      gas\n      staticcall\n      swap3\n      pop\n      pop\n      pop\n      dup1\n      iszero\n      tag_263\n      jumpi\n      pop\n      mload(0x40)\n      returndatasize\n      not(0x1f)\n      0x1f\n      dup3\n      add\n      and\n      dup3\n      add\n      dup1\n      0x40\n      mstore\n      pop\n      dup2\n      add\n      swap1\n      tag_264\n      swap2\n      swap1\n      tag_265\n      jump\t// in\n    tag_264:\n      0x01\n    tag_263:\n        /* \"contracts/registry/IdentityRegistry.sol\":6836:7936  try IClaimIssuer(issuer).isClaimValid(identity(_userAddress), requiredClaimTopics[claimTopic], sig, data) returns (bool _validity) {... */\n      tag_266\n      jumpi\n        /* \"contracts/registry/IdentityRegistry.sol\":7853:7854  1 */\n      0x01\n        /* \"contracts/registry/IdentityRegistry.sol\":7835:7843  claimIds */\n      dup3\n        /* \"contracts/registry/IdentityRegistry.sol\":7835:7850  claimIds.length */\n      mload\n        /* \"contracts/registry/IdentityRegistry.sol\":7835:7854  claimIds.length - 1 */\n      tag_270\n      swap2\n      swap1\n      tag_271\n      jump\t// in\n    tag_270:\n        /* \"contracts/registry/IdentityRegistry.sol\":7829:7830  j */\n      dup2\n        /* \"contracts/registry/IdentityRegistry.sol\":7829:7855  j == (claimIds.length - 1) */\n      eq\n        /* \"contracts/registry/IdentityRegistry.sol\":7825:7918  if (j == (claimIds.length - 1)) {... */\n      iszero\n      tag_272\n      jumpi\n        /* \"contracts/registry/IdentityRegistry.sol\":7890:7895  false */\n      0x00\n        /* \"contracts/registry/IdentityRegistry.sol\":7883:7895  return false */\n      swap10\n      pop\n      pop\n      pop\n      pop\n      pop\n      pop\n      pop\n      pop\n      pop\n      pop\n      jump(tag_221)\n        /* \"contracts/registry/IdentityRegistry.sol\":7825:7918  if (j == (claimIds.length - 1)) {... */\n    tag_272:\n        /* \"contracts/registry/IdentityRegistry.sol\":6836:7936  try IClaimIssuer(issuer).isClaimValid(identity(_userAddress), requiredClaimTopics[claimTopic], sig, data) returns (bool _validity) {... */\n      jump(tag_273)\n    tag_266:\n        /* \"contracts/registry/IdentityRegistry.sol\":7018:7027  _validity */\n      dup1\n        /* \"contracts/registry/IdentityRegistry.sol\":7018:7130  _validity &&... */\n      dup1\n      iszero\n      tag_274\n      jumpi\n      pop\n        /* \"contracts/registry/IdentityRegistry.sol\":7055:7075  tokenIssuersRegistry */\n      0x03\n      0x00\n      swap1\n      sload\n      swap1\n      0x0100\n      exp\n      swap1\n      div\n      0xffffffffffffffffffffffffffffffffffffffff\n      and\n        /* \"contracts/registry/IdentityRegistry.sol\":7055:7089  tokenIssuersRegistry.hasClaimTopic */\n      0xffffffffffffffffffffffffffffffffffffffff\n      and\n      0x34a89987\n        /* \"contracts/registry/IdentityRegistry.sol\":7090:7096  issuer */\n      dup9\n        /* \"contracts/registry/IdentityRegistry.sol\":7098:7117  requiredClaimTopics */\n      dup13\n        /* \"contracts/registry/IdentityRegistry.sol\":7118:7128  claimTopic */\n      dup8\n        /* \"contracts/registry/IdentityRegistry.sol\":7098:7129  requiredClaimTopics[claimTopic] */\n      dup2\n      mload\n      dup2\n      lt\n      tag_275\n      jumpi\n      tag_276\n      tag_161\n      jump\t// in\n    tag_276:\n    tag_275:\n      0x20\n      mul\n      0x20\n      add\n      add\n      mload\n        /* \"contracts/registry/IdentityRegistry.sol\":7055:7130  tokenIssuersRegistry.hasClaimTopic(issuer, requiredClaimTopics[claimTopic]) */\n      mload(0x40)\n      dup4\n      0xffffffff\n      and\n      0xe0\n      shl\n      dup2\n      mstore\n      0x04\n      add\n      tag_277\n      swap3\n      swap2\n      swap1\n      tag_278\n      jump\t// in\n    tag_277:\n      0x20\n      mload(0x40)\n      dup1\n      dup4\n      sub\n      dup2\n      dup7\n      dup1\n      extcodesize\n      iszero\n      dup1\n      iszero\n      tag_279\n      jumpi\n      0x00\n      dup1\n      revert\n    tag_279:\n      pop\n      gas\n      staticcall\n      iszero\n      dup1\n      iszero\n      tag_281\n      jumpi\n      returndatasize\n      0x00\n      dup1\n      returndatacopy\n      revert(0x00, returndatasize)\n    tag_281:\n      pop\n      pop\n      pop\n      pop\n      mload(0x40)\n      returndatasize\n      not(0x1f)\n      0x1f\n      dup3\n      add\n      and\n      dup3\n      add\n      dup1\n      0x40\n      mstore\n      pop\n      dup2\n      add\n      swap1\n      tag_282\n      swap2\n      swap1\n      tag_265\n      jump\t// in\n    tag_282:\n        /* \"contracts/registry/IdentityRegistry.sol\":7018:7130  _validity &&... */\n    tag_274:\n        /* \"contracts/registry/IdentityRegistry.sol\":7018:7202  _validity &&... */\n      dup1\n      iszero\n      tag_283\n      jumpi\n      pop\n        /* \"contracts/registry/IdentityRegistry.sol\":7158:7178  tokenIssuersRegistry */\n      0x03\n      0x00\n      swap1\n      sload\n      swap1\n      0x0100\n      exp\n      swap1\n      div\n      0xffffffffffffffffffffffffffffffffffffffff\n      and\n        /* \"contracts/registry/IdentityRegistry.sol\":7158:7194  tokenIssuersRegistry.isTrustedIssuer */\n      0xffffffffffffffffffffffffffffffffffffffff\n      and\n      0xef2ed1a4\n        /* \"contracts/registry/IdentityRegistry.sol\":7195:7201  issuer */\n      dup9\n        /* \"contracts/registry/IdentityRegistry.sol\":7158:7202  tokenIssuersRegistry.isTrustedIssuer(issuer) */\n      mload(0x40)\n      dup3\n      0xffffffff\n      and\n      0xe0\n      shl\n      dup2\n      mstore\n      0x04\n      add\n      tag_284\n      swap2\n      swap1\n      tag_81\n      jump\t// in\n    tag_284:\n      0x20\n      mload(0x40)\n      dup1\n      dup4\n      sub\n      dup2\n      dup7\n      dup1\n      extcodesize\n      iszero\n      dup1\n      iszero\n      tag_285\n      jumpi\n      0x00\n      dup1\n      revert\n    tag_285:\n      pop\n      gas\n      staticcall\n      iszero\n      dup1\n      iszero\n      tag_287\n      jumpi\n      returndatasize\n      0x00\n      dup1\n      returndatacopy\n      revert(0x00, returndatasize)\n    tag_287:\n      pop\n      pop\n      pop\n      pop\n      mload(0x40)\n      returndatasize\n      not(0x1f)\n      0x1f\n      dup3\n      add\n      and\n      dup3\n      add\n      dup1\n      0x40\n      mstore\n      pop\n      dup2\n      add\n      swap1\n      tag_288\n      swap2\n      swap1\n      tag_265\n      jump\t// in\n    tag_288:\n        /* \"contracts/registry/IdentityRegistry.sol\":7018:7202  _validity &&... */\n    tag_283:\n        /* \"contracts/registry/IdentityRegistry.sol\":6989:7293  if (... */\n      iszero\n      tag_289\n      jumpi\n        /* \"contracts/registry/IdentityRegistry.sol\":7255:7263  claimIds */\n      dup3\n        /* \"contracts/registry/IdentityRegistry.sol\":7255:7270  claimIds.length */\n      mload\n        /* \"contracts/registry/IdentityRegistry.sol\":7251:7270  j = claimIds.length */\n      swap2\n      pop\n        /* \"contracts/registry/IdentityRegistry.sol\":6989:7293  if (... */\n    tag_289:\n        /* \"contracts/registry/IdentityRegistry.sol\":7319:7339  tokenIssuersRegistry */\n      0x03\n      0x00\n      swap1\n      sload\n      swap1\n      0x0100\n      exp\n      swap1\n      div\n      0xffffffffffffffffffffffffffffffffffffffff\n      and\n        /* \"contracts/registry/IdentityRegistry.sol\":7319:7355  tokenIssuersRegistry.isTrustedIssuer */\n      0xffffffffffffffffffffffffffffffffffffffff\n      and\n      0xef2ed1a4\n        /* \"contracts/registry/IdentityRegistry.sol\":7356:7362  issuer */\n      dup9\n        /* \"contracts/registry/IdentityRegistry.sol\":7319:7363  tokenIssuersRegistry.isTrustedIssuer(issuer) */\n      mload(0x40)\n      dup3\n      0xffffffff\n      and\n      0xe0\n      shl\n      dup2\n      mstore\n      0x04\n      add\n      tag_290\n      swap2\n      swap1\n      tag_81\n      jump\t// in\n    tag_290:\n      0x20\n      mload(0x40)\n      dup1\n      dup4\n      sub\n      dup2\n      dup7\n      dup1\n      extcodesize\n      iszero\n      dup1\n      iszero\n      tag_291\n      jumpi\n      0x00\n      dup1\n      revert\n    tag_291:\n      pop\n      gas\n      staticcall\n      iszero\n      dup1\n      iszero\n      tag_293\n      jumpi\n      returndatasize\n      0x00\n      dup1\n      returndatacopy\n      revert(0x00, returndatasize)\n    tag_293:\n      pop\n      pop\n      pop\n      pop\n      mload(0x40)\n      returndatasize\n      not(0x1f)\n      0x1f\n      dup3\n      add\n      and\n      dup3\n      add\n      dup1\n      0x40\n      mstore\n      pop\n      dup2\n      add\n      swap1\n      tag_294\n      swap2\n      swap1\n      tag_265\n      jump\t// in\n    tag_294:\n        /* \"contracts/registry/IdentityRegistry.sol\":7318:7363  !tokenIssuersRegistry.isTrustedIssuer(issuer) */\n      iszero\n        /* \"contracts/registry/IdentityRegistry.sol\":7318:7393  !tokenIssuersRegistry.isTrustedIssuer(issuer) && j == (claimIds.length - 1) */\n      dup1\n      iszero\n      tag_295\n      jumpi\n      pop\n        /* \"contracts/registry/IdentityRegistry.sol\":7391:7392  1 */\n      0x01\n        /* \"contracts/registry/IdentityRegistry.sol\":7373:7381  claimIds */\n      dup4\n        /* \"contracts/registry/IdentityRegistry.sol\":7373:7388  claimIds.length */\n      mload\n        /* \"contracts/registry/IdentityRegistry.sol\":7373:7392  claimIds.length - 1 */\n      tag_296\n      swap2\n      swap1\n      tag_271\n      jump\t// in\n    tag_296:\n        /* \"contracts/registry/IdentityRegistry.sol\":7367:7368  j */\n      dup3\n        /* \"contracts/registry/IdentityRegistry.sol\":7367:7393  j == (claimIds.length - 1) */\n      eq\n        /* \"contracts/registry/IdentityRegistry.sol\":7318:7393  !tokenIssuersRegistry.isTrustedIssuer(issuer) && j == (claimIds.length - 1) */\n    tag_295:\n        /* \"contracts/registry/IdentityRegistry.sol\":7314:7456  if (!tokenIssuersRegistry.isTrustedIssuer(issuer) && j == (claimIds.length - 1)) {... */\n      iszero\n      tag_297\n      jumpi\n        /* \"contracts/registry/IdentityRegistry.sol\":7428:7433  false */\n      0x00\n        /* \"contracts/registry/IdentityRegistry.sol\":7421:7433  return false */\n      swap11\n      pop\n      pop\n      pop\n      pop\n      pop\n      pop\n      pop\n      pop\n      pop\n      pop\n      pop\n      jump(tag_221)\n        /* \"contracts/registry/IdentityRegistry.sol\":7314:7456  if (!tokenIssuersRegistry.isTrustedIssuer(issuer) && j == (claimIds.length - 1)) {... */\n    tag_297:\n        /* \"contracts/registry/IdentityRegistry.sol\":7482:7502  tokenIssuersRegistry */\n      0x03\n      0x00\n      swap1\n      sload\n      swap1\n      0x0100\n      exp\n      swap1\n      div\n      0xffffffffffffffffffffffffffffffffffffffff\n      and\n        /* \"contracts/registry/IdentityRegistry.sol\":7482:7516  tokenIssuersRegistry.hasClaimTopic */\n      0xffffffffffffffffffffffffffffffffffffffff\n      and\n      0x34a89987\n        /* \"contracts/registry/IdentityRegistry.sol\":7517:7523  issuer */\n      dup9\n        /* \"contracts/registry/IdentityRegistry.sol\":7525:7544  requiredClaimTopics */\n      dup13\n        /* \"contracts/registry/IdentityRegistry.sol\":7545:7555  claimTopic */\n      dup8\n        /* \"contracts/registry/IdentityRegistry.sol\":7525:7556  requiredClaimTopics[claimTopic] */\n      dup2\n      mload\n      dup2\n      lt\n      tag_298\n      jumpi\n      tag_299\n      tag_161\n      jump\t// in\n    tag_299:\n    tag_298:\n      0x20\n      mul\n      0x20\n      add\n      add\n      mload\n        /* \"contracts/registry/IdentityRegistry.sol\":7482:7557  tokenIssuersRegistry.hasClaimTopic(issuer, requiredClaimTopics[claimTopic]) */\n      mload(0x40)\n      dup4\n      0xffffffff\n      and\n      0xe0\n      shl\n      dup2\n      mstore\n      0x04\n      add\n      tag_300\n      swap3\n      swap2\n      swap1\n      tag_278\n      jump\t// in\n    tag_300:\n      0x20\n      mload(0x40)\n      dup1\n      dup4\n      sub\n      dup2\n      dup7\n      dup1\n      extcodesize\n      iszero\n      dup1\n      iszero\n      tag_301\n      jumpi\n      0x00\n      dup1\n      revert\n    tag_301:\n      pop\n      gas\n      staticcall\n      iszero\n      dup1\n      iszero\n      tag_303\n      jumpi\n      returndatasize\n      0x00\n      dup1\n      returndatacopy\n      revert(0x00, returndatasize)\n    tag_303:\n      pop\n      pop\n      pop\n      pop\n      mload(0x40)\n      returndatasize\n      not(0x1f)\n      0x1f\n      dup3\n      add\n      and\n      dup3\n      add\n      dup1\n      0x40\n      mstore\n      pop\n      dup2\n      add\n      swap1\n      tag_304\n      swap2\n      swap1\n      tag_265\n      jump\t// in\n    tag_304:\n        /* \"contracts/registry/IdentityRegistry.sol\":7481:7557  !tokenIssuersRegistry.hasClaimTopic(issuer, requiredClaimTopics[claimTopic]) */\n      iszero\n        /* \"contracts/registry/IdentityRegistry.sol\":7481:7587  !tokenIssuersRegistry.hasClaimTopic(issuer, requiredClaimTopics[claimTopic]) && j == (claimIds.length - 1) */\n      dup1\n      iszero\n      tag_305\n      jumpi\n      pop\n        /* \"contracts/registry/IdentityRegistry.sol\":7585:7586  1 */\n      0x01\n        /* \"contracts/registry/IdentityRegistry.sol\":7567:7575  claimIds */\n      dup4\n        /* \"contracts/registry/IdentityRegistry.sol\":7567:7582  claimIds.length */\n      mload\n        /* \"contracts/registry/IdentityRegistry.sol\":7567:7586  claimIds.length - 1 */\n      tag_306\n      swap2\n      swap1\n      tag_271\n      jump\t// in\n    tag_306:\n        /* \"contracts/registry/IdentityRegistry.sol\":7561:7562  j */\n      dup3\n        /* \"contracts/registry/IdentityRegistry.sol\":7561:7587  j == (claimIds.length - 1) */\n      eq\n        /* \"contracts/registry/IdentityRegistry.sol\":7481:7587  !tokenIssuersRegistry.hasClaimTopic(issuer, requiredClaimTopics[claimTopic]) && j == (claimIds.length - 1) */\n    tag_305:\n        /* \"contracts/registry/IdentityRegistry.sol\":7477:7650  if (!tokenIssuersRegistry.hasClaimTopic(issuer, requiredClaimTopics[claimTopic]) && j == (claimIds.length - 1)) {... */\n      iszero\n      tag_307\n      jumpi\n        /* \"contracts/registry/IdentityRegistry.sol\":7622:7627  false */\n      0x00\n        /* \"contracts/registry/IdentityRegistry.sol\":7615:7627  return false */\n      swap11\n      pop\n      pop\n      pop\n      pop\n      pop\n      pop\n      pop\n      pop\n      pop\n      pop\n      pop\n      jump(tag_221)\n        /* \"contracts/registry/IdentityRegistry.sol\":7477:7650  if (!tokenIssuersRegistry.hasClaimTopic(issuer, requiredClaimTopics[claimTopic]) && j == (claimIds.length - 1)) {... */\n    tag_307:\n        /* \"contracts/registry/IdentityRegistry.sol\":7676:7685  _validity */\n      dup1\n        /* \"contracts/registry/IdentityRegistry.sol\":7675:7685  !_validity */\n      iszero\n        /* \"contracts/registry/IdentityRegistry.sol\":7675:7715  !_validity && j == (claimIds.length - 1) */\n      dup1\n      iszero\n      tag_308\n      jumpi\n      pop\n        /* \"contracts/registry/IdentityRegistry.sol\":7713:7714  1 */\n      0x01\n        /* \"contracts/registry/IdentityRegistry.sol\":7695:7703  claimIds */\n      dup4\n        /* \"contracts/registry/IdentityRegistry.sol\":7695:7710  claimIds.length */\n      mload\n        /* \"contracts/registry/IdentityRegistry.sol\":7695:7714  claimIds.length - 1 */\n      tag_309\n      swap2\n      swap1\n      tag_271\n      jump\t// in\n    tag_309:\n        /* \"contracts/registry/IdentityRegistry.sol\":7689:7690  j */\n      dup3\n        /* \"contracts/registry/IdentityRegistry.sol\":7689:7715  j == (claimIds.length - 1) */\n      eq\n        /* \"contracts/registry/IdentityRegistry.sol\":7675:7715  !_validity && j == (claimIds.length - 1) */\n    tag_308:\n        /* \"contracts/registry/IdentityRegistry.sol\":7671:7778  if (!_validity && j == (claimIds.length - 1)) {... */\n      iszero\n      tag_310\n      jumpi\n        /* \"contracts/registry/IdentityRegistry.sol\":7750:7755  false */\n      0x00\n        /* \"contracts/registry/IdentityRegistry.sol\":7743:7755  return false */\n      swap11\n      pop\n      pop\n      pop\n      pop\n      pop\n      pop\n      pop\n      pop\n      pop\n      pop\n      pop\n      jump(tag_221)\n        /* \"contracts/registry/IdentityRegistry.sol\":7671:7778  if (!_validity && j == (claimIds.length - 1)) {... */\n    tag_310:\n        /* \"contracts/registry/IdentityRegistry.sol\":6942:7796  returns (bool _validity) {... */\n      pop\n        /* \"contracts/registry/IdentityRegistry.sol\":6836:7936  try IClaimIssuer(issuer).isClaimValid(identity(_userAddress), requiredClaimTopics[claimTopic], sig, data) returns (bool _validity) {... */\n    tag_273:\n        /* \"contracts/registry/IdentityRegistry.sol\":6701:6704  j++ */\n      dup1\n      dup1\n      tag_311\n      swap1\n      tag_172\n      jump\t// in\n    tag_311:\n      swap2\n      pop\n      pop\n        /* \"contracts/registry/IdentityRegistry.sol\":6660:7950  for (uint256 j = 0; j < claimIds.length; j++) {... */\n      jump(tag_244)\n    tag_245:\n      pop\n        /* \"contracts/registry/IdentityRegistry.sol\":6446:7960  {... */\n      pop\n        /* \"contracts/registry/IdentityRegistry.sol\":6432:6444  claimTopic++ */\n      dup1\n      dup1\n      tag_312\n      swap1\n      tag_172\n      jump\t// in\n    tag_312:\n      swap2\n      pop\n      pop\n        /* \"contracts/registry/IdentityRegistry.sol\":6370:7960  for (claimTopic = 0; claimTopic < requiredClaimTopics.length; claimTopic++) {... */\n      jump(tag_230)\n    tag_231:\n        /* \"contracts/registry/IdentityRegistry.sol\":7976:7980  true */\n      0x01\n        /* \"contracts/registry/IdentityRegistry.sol\":7969:7980  return true */\n      swap8\n      pop\n      pop\n      pop\n      pop\n      pop\n      pop\n      pop\n      pop\n        /* \"contracts/registry/IdentityRegistry.sol\":5854:7987  function isVerified(address _userAddress) external view override returns (bool) {... */\n    tag_221:\n      swap2\n      swap1\n      pop\n      jump\t// out\n        /* \"contracts/registry/IdentityRegistry.sol\":9345:9490  function transferOwnershipOnIdentityRegistryContract(address _newOwner) external override onlyOwner {... */\n    tag_102:\n        /* \"@openzeppelin/contracts/access/Ownable.sol\":1094:1107  _checkOwner() */\n      tag_314\n        /* \"@openzeppelin/contracts/access/Ownable.sol\":1094:1105  _checkOwner */\n      tag_123\n        /* \"@openzeppelin/contracts/access/Ownable.sol\":1094:1107  _checkOwner() */\n      jump\t// in\n    tag_314:\n        /* \"contracts/registry/IdentityRegistry.sol\":9455:9483  transferOwnership(_newOwner) */\n      tag_316\n        /* \"contracts/registry/IdentityRegistry.sol\":9473:9482  _newOwner */\n      dup2\n        /* \"contracts/registry/IdentityRegistry.sol\":9455:9472  transferOwnership */\n      tag_117\n        /* \"contracts/registry/IdentityRegistry.sol\":9455:9483  transferOwnership(_newOwner) */\n      jump\t// in\n    tag_316:\n        /* \"contracts/registry/IdentityRegistry.sol\":9345:9490  function transferOwnershipOnIdentityRegistryContract(address _newOwner) external override onlyOwner {... */\n      pop\n      jump\t// out\n        /* \"contracts/registry/IdentityRegistry.sol\":8720:8969  function setTrustedIssuersRegistry(address _trustedIssuersRegistry) external override onlyOwner {... */\n    tag_105:\n        /* \"@openzeppelin/contracts/access/Ownable.sol\":1094:1107  _checkOwner() */\n      tag_318\n        /* \"@openzeppelin/contracts/access/Ownable.sol\":1094:1105  _checkOwner */\n      tag_123\n        /* \"@openzeppelin/contracts/access/Ownable.sol\":1094:1107  _checkOwner() */\n      jump\t// in\n    tag_318:\n        /* \"contracts/registry/IdentityRegistry.sol\":8873:8896  _trustedIssuersRegistry */\n      dup1\n        /* \"contracts/registry/IdentityRegistry.sol\":8826:8846  tokenIssuersRegistry */\n      0x03\n      0x00\n        /* \"contracts/registry/IdentityRegistry.sol\":8826:8897  tokenIssuersRegistry = ITrustedIssuersRegistry(_trustedIssuersRegistry) */\n      0x0100\n      exp\n      dup2\n      sload\n      dup2\n      0xffffffffffffffffffffffffffffffffffffffff\n      mul\n      not\n      and\n      swap1\n      dup4\n      0xffffffffffffffffffffffffffffffffffffffff\n      and\n      mul\n      or\n      swap1\n      sstore\n      pop\n        /* \"contracts/registry/IdentityRegistry.sol\":8938:8961  _trustedIssuersRegistry */\n      dup1\n        /* \"contracts/registry/IdentityRegistry.sol\":8912:8962  TrustedIssuersRegistrySet(_trustedIssuersRegistry) */\n      0xffffffffffffffffffffffffffffffffffffffff\n      and\n      0x1b98cb79e6f73020175fe87333f1b91ad6a881519c0afe30340c2599b2b4bde0\n      mload(0x40)\n      mload(0x40)\n      dup1\n      swap2\n      sub\n      swap1\n      log2\n        /* \"contracts/registry/IdentityRegistry.sol\":8720:8969  function setTrustedIssuersRegistry(address _trustedIssuersRegistry) external override onlyOwner {... */\n      pop\n      jump\t// out\n        /* \"contracts/registry/IdentityRegistry.sol\":3027:3181  function identity(address _userAddress) public view override returns (IIdentity) {... */\n    tag_108:\n        /* \"contracts/registry/IdentityRegistry.sol\":3097:3106  IIdentity */\n      0x00\n        /* \"contracts/registry/IdentityRegistry.sol\":3125:3145  tokenIdentityStorage */\n      0x04\n      0x00\n      swap1\n      sload\n      swap1\n      0x0100\n      exp\n      swap1\n      div\n      0xffffffffffffffffffffffffffffffffffffffff\n      and\n        /* \"contracts/registry/IdentityRegistry.sol\":3125:3160  tokenIdentityStorage.storedIdentity */\n      0xffffffffffffffffffffffffffffffffffffffff\n      and\n      0x7988d3a5\n        /* \"contracts/registry/IdentityRegistry.sol\":3161:3173  _userAddress */\n      dup4\n        /* \"contracts/registry/IdentityRegistry.sol\":3125:3174  tokenIdentityStorage.storedIdentity(_userAddress) */\n      mload(0x40)\n      dup3\n      0xffffffff\n      and\n      0xe0\n      shl\n      dup2\n      mstore\n      0x04\n      add\n      tag_321\n      swap2\n      swap1\n      tag_81\n      jump\t// in\n    tag_321:\n      0x20\n      mload(0x40)\n      dup1\n      dup4\n      sub\n      dup2\n      dup7\n      dup1\n      extcodesize\n      iszero\n      dup1\n      iszero\n      tag_322\n      jumpi\n      0x00\n      dup1\n      revert\n    tag_322:\n      pop\n      gas\n      staticcall\n      iszero\n      dup1\n      iszero\n      tag_324\n      jumpi\n      returndatasize\n      0x00\n      dup1\n      returndatacopy\n      revert(0x00, returndatasize)\n    tag_324:\n      pop\n      pop\n      pop\n      pop\n      mload(0x40)\n      returndatasize\n      not(0x1f)\n      0x1f\n      dup3\n      add\n      and\n      dup3\n      add\n      dup1\n      0x40\n      mstore\n      pop\n      dup2\n      add\n      swap1\n      tag_325\n      swap2\n      swap1\n      tag_326\n      jump\t// in\n    tag_325:\n        /* \"contracts/registry/IdentityRegistry.sol\":3118:3174  return tokenIdentityStorage.storedIdentity(_userAddress) */\n      swap1\n      pop\n        /* \"contracts/registry/IdentityRegistry.sol\":3027:3181  function identity(address _userAddress) public view override returns (IIdentity) {... */\n      swap2\n      swap1\n      pop\n      jump\t// out\n        /* \"contracts/registry/IdentityRegistry.sol\":3902:4031  function identityStorage() external view override returns (IIdentityRegistryStorage) {... */\n    tag_112:\n        /* \"contracts/registry/IdentityRegistry.sol\":3961:3985  IIdentityRegistryStorage */\n      0x00\n        /* \"contracts/registry/IdentityRegistry.sol\":4004:4024  tokenIdentityStorage */\n      0x04\n      0x00\n      swap1\n      sload\n      swap1\n      0x0100\n      exp\n      swap1\n      div\n      0xffffffffffffffffffffffffffffffffffffffff\n      and\n        /* \"contracts/registry/IdentityRegistry.sol\":3997:4024  return tokenIdentityStorage */\n      swap1\n      pop\n        /* \"contracts/registry/IdentityRegistry.sol\":3902:4031  function identityStorage() external view override returns (IIdentityRegistryStorage) {... */\n      swap1\n      jump\t// out\n        /* \"@openzeppelin/contracts/access/Ownable.sol\":2081:2279  function transferOwnership(address newOwner) public virtual onlyOwner {... */\n    tag_117:\n        /* \"@openzeppelin/contracts/access/Ownable.sol\":1094:1107  _checkOwner() */\n      tag_329\n        /* \"@openzeppelin/contracts/access/Ownable.sol\":1094:1105  _checkOwner */\n      tag_123\n        /* \"@openzeppelin/contracts/access/Ownable.sol\":1094:1107  _checkOwner() */\n      jump\t// in\n    tag_329:\n        /* \"@openzeppelin/contracts/access/Ownable.sol\":2189:2190  0 */\n      0x00\n        /* \"@openzeppelin/contracts/access/Ownable.sol\":2169:2191  newOwner != address(0) */\n      0xffffffffffffffffffffffffffffffffffffffff\n      and\n        /* \"@openzeppelin/contracts/access/Ownable.sol\":2169:2177  newOwner */\n      dup2\n        /* \"@openzeppelin/contracts/access/Ownable.sol\":2169:2191  newOwner != address(0) */\n      0xffffffffffffffffffffffffffffffffffffffff\n      and\n      eq\n      iszero\n        /* \"@openzeppelin/contracts/access/Ownable.sol\":2161:2234  require(newOwner != address(0), \"Ownable: new owner is the zero address\") */\n      tag_331\n      jumpi\n      mload(0x40)\n      0x08c379a000000000000000000000000000000000000000000000000000000000\n      dup2\n      mstore\n      0x04\n      add\n      tag_332\n      swap1\n      tag_333\n      jump\t// in\n    tag_332:\n      mload(0x40)\n      dup1\n      swap2\n      sub\n      swap1\n      revert\n    tag_331:\n        /* \"@openzeppelin/contracts/access/Ownable.sol\":2244:2272  _transferOwnership(newOwner) */\n      tag_334\n        /* \"@openzeppelin/contracts/access/Ownable.sol\":2263:2271  newOwner */\n      dup2\n        /* \"@openzeppelin/contracts/access/Ownable.sol\":2244:2262  _transferOwnership */\n      tag_180\n        /* \"@openzeppelin/contracts/access/Ownable.sol\":2244:2272  _transferOwnership(newOwner) */\n      jump\t// in\n    tag_334:\n        /* \"@openzeppelin/contracts/access/Ownable.sol\":2081:2279  function transferOwnership(address newOwner) public virtual onlyOwner {... */\n      pop\n      jump\t// out\n        /* \"contracts/roles/Roles.sol\":815:1015  function has(Role storage role, address account) internal view returns (bool) {... */\n    tag_120:\n        /* \"contracts/roles/Roles.sol\":887:891  bool */\n      0x00\n        /* \"contracts/roles/Roles.sol\":930:931  0 */\n      dup1\n        /* \"contracts/roles/Roles.sol\":911:932  account != address(0) */\n      0xffffffffffffffffffffffffffffffffffffffff\n      and\n        /* \"contracts/roles/Roles.sol\":911:918  account */\n      dup3\n        /* \"contracts/roles/Roles.sol\":911:932  account != address(0) */\n      0xffffffffffffffffffffffffffffffffffffffff\n      and\n      eq\n      iszero\n        /* \"contracts/roles/Roles.sol\":903:971  require(account != address(0), 'Roles: account is the zero address') */\n      tag_336\n      jumpi\n      mload(0x40)\n      0x08c379a000000000000000000000000000000000000000000000000000000000\n      dup2\n      mstore\n      0x04\n      add\n      tag_337\n      swap1\n      tag_338\n      jump\t// in\n    tag_337:\n      mload(0x40)\n      dup1\n      swap2\n      sub\n      swap1\n      revert\n    tag_336:\n        /* \"contracts/roles/Roles.sol\":988:992  role */\n      dup3\n        /* \"contracts/roles/Roles.sol\":988:999  role.bearer */\n      0x00\n      add\n        /* \"contracts/roles/Roles.sol\":988:1008  role.bearer[account] */\n      0x00\n        /* \"contracts/roles/Roles.sol\":1000:1007  account */\n      dup4\n        /* \"contracts/roles/Roles.sol\":988:1008  role.bearer[account] */\n      0xffffffffffffffffffffffffffffffffffffffff\n      and\n      0xffffffffffffffffffffffffffffffffffffffff\n      and\n      dup2\n      mstore\n      0x20\n      add\n      swap1\n      dup2\n      mstore\n      0x20\n      add\n      0x00\n      keccak256\n      0x00\n      swap1\n      sload\n      swap1\n      0x0100\n      exp\n      swap1\n      div\n      0xff\n      and\n        /* \"contracts/roles/Roles.sol\":981:1008  return role.bearer[account] */\n      swap1\n      pop\n        /* \"contracts/roles/Roles.sol\":815:1015  function has(Role storage role, address account) internal view returns (bool) {... */\n      swap3\n      swap2\n      pop\n      pop\n      jump\t// out\n        /* \"@openzeppelin/contracts/access/Ownable.sol\":1359:1489  function _checkOwner() internal view virtual {... */\n    tag_123:\n        /* \"@openzeppelin/contracts/access/Ownable.sol\":1433:1445  _msgSender() */\n      tag_340\n        /* \"@openzeppelin/contracts/access/Ownable.sol\":1433:1443  _msgSender */\n      tag_341\n        /* \"@openzeppelin/contracts/access/Ownable.sol\":1433:1445  _msgSender() */\n      jump\t// in\n    tag_340:\n        /* \"@openzeppelin/contracts/access/Ownable.sol\":1422:1445  owner() == _msgSender() */\n      0xffffffffffffffffffffffffffffffffffffffff\n      and\n        /* \"@openzeppelin/contracts/access/Ownable.sol\":1422:1429  owner() */\n      tag_342\n        /* \"@openzeppelin/contracts/access/Ownable.sol\":1422:1427  owner */\n      tag_79\n        /* \"@openzeppelin/contracts/access/Ownable.sol\":1422:1429  owner() */\n      jump\t// in\n    tag_342:\n        /* \"@openzeppelin/contracts/access/Ownable.sol\":1422:1445  owner() == _msgSender() */\n      0xffffffffffffffffffffffffffffffffffffffff\n      and\n      eq\n        /* \"@openzeppelin/contracts/access/Ownable.sol\":1414:1482  require(owner() == _msgSender(), \"Ownable: caller is not the owner\") */\n      tag_343\n      jumpi\n      mload(0x40)\n      0x08c379a000000000000000000000000000000000000000000000000000000000\n      dup2\n      mstore\n      0x04\n      add\n      tag_344\n      swap1\n      tag_345\n      jump\t// in\n    tag_344:\n      mload(0x40)\n      dup1\n      swap2\n      sub\n      swap1\n      revert\n    tag_343:\n        /* \"@openzeppelin/contracts/access/Ownable.sol\":1359:1489  function _checkOwner() internal view virtual {... */\n      jump\t// out\n        /* \"@openzeppelin/contracts/access/Ownable.sol\":2433:2620  function _transferOwnership(address newOwner) internal virtual {... */\n    tag_180:\n        /* \"@openzeppelin/contracts/access/Ownable.sol\":2506:2522  address oldOwner */\n      0x00\n        /* \"@openzeppelin/contracts/access/Ownable.sol\":2525:2531  _owner */\n      dup1\n      0x00\n      swap1\n      sload\n      swap1\n      0x0100\n      exp\n      swap1\n      div\n      0xffffffffffffffffffffffffffffffffffffffff\n      and\n        /* \"@openzeppelin/contracts/access/Ownable.sol\":2506:2531  address oldOwner = _owner */\n      swap1\n      pop\n        /* \"@openzeppelin/contracts/access/Ownable.sol\":2550:2558  newOwner */\n      dup2\n        /* \"@openzeppelin/contracts/access/Ownable.sol\":2541:2547  _owner */\n      0x00\n      dup1\n        /* \"@openzeppelin/contracts/access/Ownable.sol\":2541:2558  _owner = newOwner */\n      0x0100\n      exp\n      dup2\n      sload\n      dup2\n      0xffffffffffffffffffffffffffffffffffffffff\n      mul\n      not\n      and\n      swap1\n      dup4\n      0xffffffffffffffffffffffffffffffffffffffff\n      and\n      mul\n      or\n      swap1\n      sstore\n      pop\n        /* \"@openzeppelin/contracts/access/Ownable.sol\":2604:2612  newOwner */\n      dup2\n        /* \"@openzeppelin/contracts/access/Ownable.sol\":2573:2613  OwnershipTransferred(oldOwner, newOwner) */\n      0xffffffffffffffffffffffffffffffffffffffff\n      and\n        /* \"@openzeppelin/contracts/access/Ownable.sol\":2594:2602  oldOwner */\n      dup2\n        /* \"@openzeppelin/contracts/access/Ownable.sol\":2573:2613  OwnershipTransferred(oldOwner, newOwner) */\n      0xffffffffffffffffffffffffffffffffffffffff\n      and\n      0x8be0079c531659141344cd1fd0a4f28419497f9722a3daafe3b4186f6b6457e0\n      mload(0x40)\n      mload(0x40)\n      dup1\n      swap2\n      sub\n      swap1\n      log3\n        /* \"@openzeppelin/contracts/access/Ownable.sol\":2496:2620  {... */\n      pop\n        /* \"@openzeppelin/contracts/access/Ownable.sol\":2433:2620  function _transferOwnership(address newOwner) internal virtual {... */\n      pop\n      jump\t// out\n        /* \"contracts/roles/Roles.sol\":296:471  function add(Role storage role, address account) internal {... */\n    tag_192:\n        /* \"contracts/roles/Roles.sol\":373:391  has(role, account) */\n      tag_348\n        /* \"contracts/roles/Roles.sol\":377:381  role */\n      dup3\n        /* \"contracts/roles/Roles.sol\":383:390  account */\n      dup3\n        /* \"contracts/roles/Roles.sol\":373:376  has */\n      tag_120\n        /* \"contracts/roles/Roles.sol\":373:391  has(role, account) */\n      jump\t// in\n    tag_348:\n        /* \"contracts/roles/Roles.sol\":372:391  !has(role, account) */\n      iszero\n        /* \"contracts/roles/Roles.sol\":364:427  require(!has(role, account), 'Roles: account already has role') */\n      tag_349\n      jumpi\n      mload(0x40)\n      0x08c379a000000000000000000000000000000000000000000000000000000000\n      dup2\n      mstore\n      0x04\n      add\n      tag_350\n      swap1\n      tag_351\n      jump\t// in\n    tag_350:\n      mload(0x40)\n      dup1\n      swap2\n      sub\n      swap1\n      revert\n    tag_349:\n        /* \"contracts/roles/Roles.sol\":460:464  true */\n      0x01\n        /* \"contracts/roles/Roles.sol\":437:441  role */\n      dup3\n        /* \"contracts/roles/Roles.sol\":437:448  role.bearer */\n      0x00\n      add\n        /* \"contracts/roles/Roles.sol\":437:457  role.bearer[account] */\n      0x00\n        /* \"contracts/roles/Roles.sol\":449:456  account */\n      dup4\n        /* \"contracts/roles/Roles.sol\":437:457  role.bearer[account] */\n      0xffffffffffffffffffffffffffffffffffffffff\n      and\n      0xffffffffffffffffffffffffffffffffffffffff\n      and\n      dup2\n      mstore\n      0x20\n      add\n      swap1\n      dup2\n      mstore\n      0x20\n      add\n      0x00\n      keccak256\n      0x00\n        /* \"contracts/roles/Roles.sol\":437:464  role.bearer[account] = true */\n      0x0100\n      exp\n      dup2\n      sload\n      dup2\n      0xff\n      mul\n      not\n      and\n      swap1\n      dup4\n      iszero\n      iszero\n      mul\n      or\n      swap1\n      sstore\n      pop\n        /* \"contracts/roles/Roles.sol\":296:471  function add(Role storage role, address account) internal {... */\n      pop\n      pop\n      jump\t// out\n        /* \"contracts/roles/Roles.sol\":546:726  function remove(Role storage role, address account) internal {... */\n    tag_209:\n        /* \"contracts/roles/Roles.sol\":625:643  has(role, account) */\n      tag_353\n        /* \"contracts/roles/Roles.sol\":629:633  role */\n      dup3\n        /* \"contracts/roles/Roles.sol\":635:642  account */\n      dup3\n        /* \"contracts/roles/Roles.sol\":625:628  has */\n      tag_120\n        /* \"contracts/roles/Roles.sol\":625:643  has(role, account) */\n      jump\t// in\n    tag_353:\n        /* \"contracts/roles/Roles.sol\":617:681  require(has(role, account), 'Roles: account does not have role') */\n      tag_354\n      jumpi\n      mload(0x40)\n      0x08c379a000000000000000000000000000000000000000000000000000000000\n      dup2\n      mstore\n      0x04\n      add\n      tag_355\n      swap1\n      tag_356\n      jump\t// in\n    tag_355:\n      mload(0x40)\n      dup1\n      swap2\n      sub\n      swap1\n      revert\n    tag_354:\n        /* \"contracts/roles/Roles.sol\":714:719  false */\n      0x00\n        /* \"contracts/roles/Roles.sol\":691:695  role */\n      dup3\n        /* \"contracts/roles/Roles.sol\":691:702  role.bearer */\n      0x00\n      add\n        /* \"contracts/roles/Roles.sol\":691:711  role.bearer[account] */\n      0x00\n        /* \"contracts/roles/Roles.sol\":703:710  account */\n      dup4\n        /* \"contracts/roles/Roles.sol\":691:711  role.bearer[account] */\n      0xffffffffffffffffffffffffffffffffffffffff\n      and\n      0xffffffffffffffffffffffffffffffffffffffff\n      and\n      dup2\n      mstore\n      0x20\n      add\n      swap1\n      dup2\n      mstore\n      0x20\n      add\n      0x00\n      keccak256\n      0x00\n        /* \"contracts/roles/Roles.sol\":691:719  role.bearer[account] = false */\n      0x0100\n      exp\n      dup2\n      sload\n      dup2\n      0xff\n      mul\n      not\n      and\n      swap1\n      dup4\n      iszero\n      iszero\n      mul\n      or\n      swap1\n      sstore\n      pop\n        /* \"contracts/roles/Roles.sol\":546:726  function remove(Role storage role, address account) internal {... */\n      pop\n      pop\n      jump\t// out\n        /* \"@openzeppelin/contracts/utils/Context.sol\":640:736  function _msgSender() internal view virtual returns (address) {... */\n    tag_341:\n        /* \"@openzeppelin/contracts/utils/Context.sol\":693:700  address */\n      0x00\n        /* \"@openzeppelin/contracts/utils/Context.sol\":719:729  msg.sender */\n      caller\n        /* \"@openzeppelin/contracts/utils/Context.sol\":712:729  return msg.sender */\n      swap1\n      pop\n        /* \"@openzeppelin/contracts/utils/Context.sol\":640:736  function _msgSender() internal view virtual returns (address) {... */\n      swap1\n      jump\t// out\n        /* \"#utility.yul\":24:768   */\n    tag_359:\n        /* \"#utility.yul\":131:136   */\n      0x00\n        /* \"#utility.yul\":156:237   */\n      tag_361\n        /* \"#utility.yul\":172:236   */\n      tag_362\n        /* \"#utility.yul\":229:235   */\n      dup5\n        /* \"#utility.yul\":172:236   */\n      tag_363\n      jump\t// in\n    tag_362:\n        /* \"#utility.yul\":156:237   */\n      tag_364\n      jump\t// in\n    tag_361:\n        /* \"#utility.yul\":147:237   */\n      swap1\n      pop\n        /* \"#utility.yul\":257:262   */\n      dup1\n        /* \"#utility.yul\":286:292   */\n      dup4\n        /* \"#utility.yul\":279:284   */\n      dup3\n        /* \"#utility.yul\":272:293   */\n      mstore\n        /* \"#utility.yul\":320:324   */\n      0x20\n        /* \"#utility.yul\":313:318   */\n      dup3\n        /* \"#utility.yul\":309:325   */\n      add\n        /* \"#utility.yul\":302:325   */\n      swap1\n      pop\n        /* \"#utility.yul\":346:352   */\n      dup3\n        /* \"#utility.yul\":396:399   */\n      dup6\n        /* \"#utility.yul\":388:392   */\n      0x20\n        /* \"#utility.yul\":380:386   */\n      dup7\n        /* \"#utility.yul\":376:393   */\n      mul\n        /* \"#utility.yul\":371:374   */\n      dup3\n        /* \"#utility.yul\":367:394   */\n      add\n        /* \"#utility.yul\":364:400   */\n      gt\n        /* \"#utility.yul\":361:504   */\n      iszero\n      tag_365\n      jumpi\n        /* \"#utility.yul\":415:494   */\n      tag_366\n      tag_367\n      jump\t// in\n    tag_366:\n        /* \"#utility.yul\":361:504   */\n    tag_365:\n        /* \"#utility.yul\":528:529   */\n      0x00\n        /* \"#utility.yul\":513:762   */\n    tag_368:\n        /* \"#utility.yul\":538:544   */\n      dup6\n        /* \"#utility.yul\":535:536   */\n      dup2\n        /* \"#utility.yul\":532:545   */\n      lt\n        /* \"#utility.yul\":513:762   */\n      iszero\n      tag_370\n      jumpi\n        /* \"#utility.yul\":606:609   */\n      dup2\n        /* \"#utility.yul\":635:683   */\n      tag_371\n        /* \"#utility.yul\":679:682   */\n      dup9\n        /* \"#utility.yul\":667:677   */\n      dup3\n        /* \"#utility.yul\":635:683   */\n      tag_372\n      jump\t// in\n    tag_371:\n        /* \"#utility.yul\":630:633   */\n      dup5\n        /* \"#utility.yul\":623:684   */\n      mstore\n        /* \"#utility.yul\":713:717   */\n      0x20\n        /* \"#utility.yul\":708:711   */\n      dup5\n        /* \"#utility.yul\":704:718   */\n      add\n        /* \"#utility.yul\":697:718   */\n      swap4\n      pop\n        /* \"#utility.yul\":747:751   */\n      0x20\n        /* \"#utility.yul\":742:745   */\n      dup4\n        /* \"#utility.yul\":738:752   */\n      add\n        /* \"#utility.yul\":731:752   */\n      swap3\n      pop\n        /* \"#utility.yul\":573:762   */\n      pop\n        /* \"#utility.yul\":560:561   */\n      0x01\n        /* \"#utility.yul\":557:558   */\n      dup2\n        /* \"#utility.yul\":553:562   */\n      add\n        /* \"#utility.yul\":548:562   */\n      swap1\n      pop\n        /* \"#utility.yul\":513:762   */\n      jump(tag_368)\n    tag_370:\n        /* \"#utility.yul\":517:531   */\n      pop\n        /* \"#utility.yul\":137:768   */\n      pop\n      pop\n        /* \"#utility.yul\":24:768   */\n      swap4\n      swap3\n      pop\n      pop\n      pop\n      jump\t// out\n        /* \"#utility.yul\":791:1535   */\n    tag_373:\n        /* \"#utility.yul\":898:903   */\n      0x00\n        /* \"#utility.yul\":923:1004   */\n      tag_375\n        /* \"#utility.yul\":939:1003   */\n      tag_376\n        /* \"#utility.yul\":996:1002   */\n      dup5\n        /* \"#utility.yul\":939:1003   */\n      tag_377\n      jump\t// in\n    tag_376:\n        /* \"#utility.yul\":923:1004   */\n      tag_364\n      jump\t// in\n    tag_375:\n        /* \"#utility.yul\":914:1004   */\n      swap1\n      pop\n        /* \"#utility.yul\":1024:1029   */\n      dup1\n        /* \"#utility.yul\":1053:1059   */\n      dup4\n        /* \"#utility.yul\":1046:1051   */\n      dup3\n        /* \"#utility.yul\":1039:1060   */\n      mstore\n        /* \"#utility.yul\":1087:1091   */\n      0x20\n        /* \"#utility.yul\":1080:1085   */\n      dup3\n        /* \"#utility.yul\":1076:1092   */\n      add\n        /* \"#utility.yul\":1069:1092   */\n      swap1\n      pop\n        /* \"#utility.yul\":1113:1119   */\n      dup3\n        /* \"#utility.yul\":1163:1166   */\n      dup6\n        /* \"#utility.yul\":1155:1159   */\n      0x20\n        /* \"#utility.yul\":1147:1153   */\n      dup7\n        /* \"#utility.yul\":1143:1160   */\n      mul\n        /* \"#utility.yul\":1138:1141   */\n      dup3\n        /* \"#utility.yul\":1134:1161   */\n      add\n        /* \"#utility.yul\":1131:1167   */\n      gt\n        /* \"#utility.yul\":1128:1271   */\n      iszero\n      tag_378\n      jumpi\n        /* \"#utility.yul\":1182:1261   */\n      tag_379\n      tag_367\n      jump\t// in\n    tag_379:\n        /* \"#utility.yul\":1128:1271   */\n    tag_378:\n        /* \"#utility.yul\":1295:1296   */\n      0x00\n        /* \"#utility.yul\":1280:1529   */\n    tag_380:\n        /* \"#utility.yul\":1305:1311   */\n      dup6\n        /* \"#utility.yul\":1302:1303   */\n      dup2\n        /* \"#utility.yul\":1299:1312   */\n      lt\n        /* \"#utility.yul\":1280:1529   */\n      iszero\n      tag_382\n      jumpi\n        /* \"#utility.yul\":1373:1376   */\n      dup2\n        /* \"#utility.yul\":1402:1450   */\n      tag_383\n        /* \"#utility.yul\":1446:1449   */\n      dup9\n        /* \"#utility.yul\":1434:1444   */\n      dup3\n        /* \"#utility.yul\":1402:1450   */\n      tag_384\n      jump\t// in\n    tag_383:\n        /* \"#utility.yul\":1397:1400   */\n      dup5\n        /* \"#utility.yul\":1390:1451   */\n      mstore\n        /* \"#utility.yul\":1480:1484   */\n      0x20\n        /* \"#utility.yul\":1475:1478   */\n      dup5\n        /* \"#utility.yul\":1471:1485   */\n      add\n        /* \"#utility.yul\":1464:1485   */\n      swap4\n      pop\n        /* \"#utility.yul\":1514:1518   */\n      0x20\n        /* \"#utility.yul\":1509:1512   */\n      dup4\n        /* \"#utility.yul\":1505:1519   */\n      add\n        /* \"#utility.yul\":1498:1519   */\n      swap3\n      pop\n        /* \"#utility.yul\":1340:1529   */\n      pop\n        /* \"#utility.yul\":1327:1328   */\n      0x01\n        /* \"#utility.yul\":1324:1325   */\n      dup2\n        /* \"#utility.yul\":1320:1329   */\n      add\n        /* \"#utility.yul\":1315:1329   */\n      swap1\n      pop\n        /* \"#utility.yul\":1280:1529   */\n      jump(tag_380)\n    tag_382:\n        /* \"#utility.yul\":1284:1298   */\n      pop\n        /* \"#utility.yul\":904:1535   */\n      pop\n      pop\n        /* \"#utility.yul\":791:1535   */\n      swap4\n      swap3\n      pop\n      pop\n      pop\n      jump\t// out\n        /* \"#utility.yul\":1541:1960   */\n    tag_385:\n        /* \"#utility.yul\":1629:1634   */\n      0x00\n        /* \"#utility.yul\":1654:1719   */\n      tag_387\n        /* \"#utility.yul\":1670:1718   */\n      tag_388\n        /* \"#utility.yul\":1711:1717   */\n      dup5\n        /* \"#utility.yul\":1670:1718   */\n      tag_389\n      jump\t// in\n    tag_388:\n        /* \"#utility.yul\":1654:1719   */\n      tag_364\n      jump\t// in\n    tag_387:\n        /* \"#utility.yul\":1645:1719   */\n      swap1\n      pop\n        /* \"#utility.yul\":1742:1748   */\n      dup3\n        /* \"#utility.yul\":1735:1740   */\n      dup2\n        /* \"#utility.yul\":1728:1749   */\n      mstore\n        /* \"#utility.yul\":1780:1784   */\n      0x20\n        /* \"#utility.yul\":1773:1778   */\n      dup2\n        /* \"#utility.yul\":1769:1785   */\n      add\n        /* \"#utility.yul\":1818:1821   */\n      dup5\n        /* \"#utility.yul\":1809:1815   */\n      dup5\n        /* \"#utility.yul\":1804:1807   */\n      dup5\n        /* \"#utility.yul\":1800:1816   */\n      add\n        /* \"#utility.yul\":1797:1822   */\n      gt\n        /* \"#utility.yul\":1794:1906   */\n      iszero\n      tag_390\n      jumpi\n        /* \"#utility.yul\":1825:1904   */\n      tag_391\n      tag_392\n      jump\t// in\n    tag_391:\n        /* \"#utility.yul\":1794:1906   */\n    tag_390:\n        /* \"#utility.yul\":1915:1954   */\n      tag_393\n        /* \"#utility.yul\":1947:1953   */\n      dup5\n        /* \"#utility.yul\":1942:1945   */\n      dup3\n        /* \"#utility.yul\":1937:1940   */\n      dup6\n        /* \"#utility.yul\":1915:1954   */\n      tag_394\n      jump\t// in\n    tag_393:\n        /* \"#utility.yul\":1635:1960   */\n      pop\n        /* \"#utility.yul\":1541:1960   */\n      swap4\n      swap3\n      pop\n      pop\n      pop\n      jump\t// out\n        /* \"#utility.yul\":1966:2387   */\n    tag_395:\n        /* \"#utility.yul\":2055:2060   */\n      0x00\n        /* \"#utility.yul\":2080:2146   */\n      tag_397\n        /* \"#utility.yul\":2096:2145   */\n      tag_398\n        /* \"#utility.yul\":2138:2144   */\n      dup5\n        /* \"#utility.yul\":2096:2145   */\n      tag_399\n      jump\t// in\n    tag_398:\n        /* \"#utility.yul\":2080:2146   */\n      tag_364\n      jump\t// in\n    tag_397:\n        /* \"#utility.yul\":2071:2146   */\n      swap1\n      pop\n        /* \"#utility.yul\":2169:2175   */\n      dup3\n        /* \"#utility.yul\":2162:2167   */\n      dup2\n        /* \"#utility.yul\":2155:2176   */\n      mstore\n        /* \"#utility.yul\":2207:2211   */\n      0x20\n        /* \"#utility.yul\":2200:2205   */\n      dup2\n        /* \"#utility.yul\":2196:2212   */\n      add\n        /* \"#utility.yul\":2245:2248   */\n      dup5\n        /* \"#utility.yul\":2236:2242   */\n      dup5\n        /* \"#utility.yul\":2231:2234   */\n      dup5\n        /* \"#utility.yul\":2227:2243   */\n      add\n        /* \"#utility.yul\":2224:2249   */\n      gt\n        /* \"#utility.yul\":2221:2333   */\n      iszero\n      tag_400\n      jumpi\n        /* \"#utility.yul\":2252:2331   */\n      tag_401\n      tag_392\n      jump\t// in\n    tag_401:\n        /* \"#utility.yul\":2221:2333   */\n    tag_400:\n        /* \"#utility.yul\":2342:2381   */\n      tag_402\n        /* \"#utility.yul\":2374:2380   */\n      dup5\n        /* \"#utility.yul\":2369:2372   */\n      dup3\n        /* \"#utility.yul\":2364:2367   */\n      dup6\n        /* \"#utility.yul\":2342:2381   */\n      tag_394\n      jump\t// in\n    tag_402:\n        /* \"#utility.yul\":2061:2387   */\n      pop\n        /* \"#utility.yul\":1966:2387   */\n      swap4\n      swap3\n      pop\n      pop\n      pop\n      jump\t// out\n        /* \"#utility.yul\":2393:2532   */\n    tag_403:\n        /* \"#utility.yul\":2439:2444   */\n      0x00\n        /* \"#utility.yul\":2477:2483   */\n      dup2\n        /* \"#utility.yul\":2464:2484   */\n      calldataload\n        /* \"#utility.yul\":2455:2484   */\n      swap1\n      pop\n        /* \"#utility.yul\":2493:2526   */\n      tag_405\n        /* \"#utility.yul\":2520:2525   */\n      dup2\n        /* \"#utility.yul\":2493:2526   */\n      tag_406\n      jump\t// in\n    tag_405:\n        /* \"#utility.yul\":2393:2532   */\n      swap3\n      swap2\n      pop\n      pop\n      jump\t// out\n        /* \"#utility.yul\":2538:2681   */\n    tag_407:\n        /* \"#utility.yul\":2595:2600   */\n      0x00\n        /* \"#utility.yul\":2626:2632   */\n      dup2\n        /* \"#utility.yul\":2620:2633   */\n      mload\n        /* \"#utility.yul\":2611:2633   */\n      swap1\n      pop\n        /* \"#utility.yul\":2642:2675   */\n      tag_409\n        /* \"#utility.yul\":2669:2674   */\n      dup2\n        /* \"#utility.yul\":2642:2675   */\n      tag_406\n      jump\t// in\n    tag_409:\n        /* \"#utility.yul\":2538:2681   */\n      swap3\n      swap2\n      pop\n      pop\n      jump\t// out\n        /* \"#utility.yul\":2704:3272   */\n    tag_410:\n        /* \"#utility.yul\":2777:2785   */\n      0x00\n        /* \"#utility.yul\":2787:2793   */\n      dup1\n        /* \"#utility.yul\":2837:2840   */\n      dup4\n        /* \"#utility.yul\":2830:2834   */\n      0x1f\n        /* \"#utility.yul\":2822:2828   */\n      dup5\n        /* \"#utility.yul\":2818:2835   */\n      add\n        /* \"#utility.yul\":2814:2841   */\n      slt\n        /* \"#utility.yul\":2804:2926   */\n      tag_412\n      jumpi\n        /* \"#utility.yul\":2845:2924   */\n      tag_413\n      tag_414\n      jump\t// in\n    tag_413:\n        /* \"#utility.yul\":2804:2926   */\n    tag_412:\n        /* \"#utility.yul\":2958:2964   */\n      dup3\n        /* \"#utility.yul\":2945:2965   */\n      calldataload\n        /* \"#utility.yul\":2935:2965   */\n      swap1\n      pop\n        /* \"#utility.yul\":2988:3006   */\n      0xffffffffffffffff\n        /* \"#utility.yul\":2980:2986   */\n      dup2\n        /* \"#utility.yul\":2977:3007   */\n      gt\n        /* \"#utility.yul\":2974:3091   */\n      iszero\n      tag_415\n      jumpi\n        /* \"#utility.yul\":3010:3089   */\n      tag_416\n      tag_417\n      jump\t// in\n    tag_416:\n        /* \"#utility.yul\":2974:3091   */\n    tag_415:\n        /* \"#utility.yul\":3124:3128   */\n      0x20\n        /* \"#utility.yul\":3116:3122   */\n      dup4\n        /* \"#utility.yul\":3112:3129   */\n      add\n        /* \"#utility.yul\":3100:3129   */\n      swap2\n      pop\n        /* \"#utility.yul\":3178:3181   */\n      dup4\n        /* \"#utility.yul\":3170:3174   */\n      0x20\n        /* \"#utility.yul\":3162:3168   */\n      dup3\n        /* \"#utility.yul\":3158:3175   */\n      mul\n        /* \"#utility.yul\":3148:3156   */\n      dup4\n        /* \"#utility.yul\":3144:3176   */\n      add\n        /* \"#utility.yul\":3141:3182   */\n      gt\n        /* \"#utility.yul\":3138:3266   */\n      iszero\n      tag_418\n      jumpi\n        /* \"#utility.yul\":3185:3264   */\n      tag_419\n      tag_367\n      jump\t// in\n    tag_419:\n        /* \"#utility.yul\":3138:3266   */\n    tag_418:\n        /* \"#utility.yul\":2704:3272   */\n      swap3\n      pop\n      swap3\n      swap1\n      pop\n      jump\t// out\n        /* \"#utility.yul\":3295:3680   */\n    tag_420:\n        /* \"#utility.yul\":3377:3382   */\n      0x00\n        /* \"#utility.yul\":3426:3429   */\n      dup3\n        /* \"#utility.yul\":3419:3423   */\n      0x1f\n        /* \"#utility.yul\":3411:3417   */\n      dup4\n        /* \"#utility.yul\":3407:3424   */\n      add\n        /* \"#utility.yul\":3403:3430   */\n      slt\n        /* \"#utility.yul\":3393:3515   */\n      tag_422\n      jumpi\n        /* \"#utility.yul\":3434:3513   */\n      tag_423\n      tag_414\n      jump\t// in\n    tag_423:\n        /* \"#utility.yul\":3393:3515   */\n    tag_422:\n        /* \"#utility.yul\":3544:3550   */\n      dup2\n        /* \"#utility.yul\":3538:3551   */\n      mload\n        /* \"#utility.yul\":3569:3674   */\n      tag_424\n        /* \"#utility.yul\":3670:3673   */\n      dup5\n        /* \"#utility.yul\":3662:3668   */\n      dup3\n        /* \"#utility.yul\":3655:3659   */\n      0x20\n        /* \"#utility.yul\":3647:3653   */\n      dup7\n        /* \"#utility.yul\":3643:3660   */\n      add\n        /* \"#utility.yul\":3569:3674   */\n      tag_359\n      jump\t// in\n    tag_424:\n        /* \"#utility.yul\":3560:3674   */\n      swap2\n      pop\n        /* \"#utility.yul\":3383:3680   */\n      pop\n        /* \"#utility.yul\":3295:3680   */\n      swap3\n      swap2\n      pop\n      pop\n      jump\t// out\n        /* \"#utility.yul\":3714:4299   */\n    tag_425:\n        /* \"#utility.yul\":3804:3812   */\n      0x00\n        /* \"#utility.yul\":3814:3820   */\n      dup1\n        /* \"#utility.yul\":3864:3867   */\n      dup4\n        /* \"#utility.yul\":3857:3861   */\n      0x1f\n        /* \"#utility.yul\":3849:3855   */\n      dup5\n        /* \"#utility.yul\":3845:3862   */\n      add\n        /* \"#utility.yul\":3841:3868   */\n      slt\n        /* \"#utility.yul\":3831:3953   */\n      tag_427\n      jumpi\n        /* \"#utility.yul\":3872:3951   */\n      tag_428\n      tag_414\n      jump\t// in\n    tag_428:\n        /* \"#utility.yul\":3831:3953   */\n    tag_427:\n        /* \"#utility.yul\":3985:3991   */\n      dup3\n        /* \"#utility.yul\":3972:3992   */\n      calldataload\n        /* \"#utility.yul\":3962:3992   */\n      swap1\n      pop\n        /* \"#utility.yul\":4015:4033   */\n      0xffffffffffffffff\n        /* \"#utility.yul\":4007:4013   */\n      dup2\n        /* \"#utility.yul\":4004:4034   */\n      gt\n        /* \"#utility.yul\":4001:4118   */\n      iszero\n      tag_429\n      jumpi\n        /* \"#utility.yul\":4037:4116   */\n      tag_430\n      tag_417\n      jump\t// in\n    tag_430:\n        /* \"#utility.yul\":4001:4118   */\n    tag_429:\n        /* \"#utility.yul\":4151:4155   */\n      0x20\n        /* \"#utility.yul\":4143:4149   */\n      dup4\n        /* \"#utility.yul\":4139:4156   */\n      add\n        /* \"#utility.yul\":4127:4156   */\n      swap2\n      pop\n        /* \"#utility.yul\":4205:4208   */\n      dup4\n        /* \"#utility.yul\":4197:4201   */\n      0x20\n        /* \"#utility.yul\":4189:4195   */\n      dup3\n        /* \"#utility.yul\":4185:4202   */\n      mul\n        /* \"#utility.yul\":4175:4183   */\n      dup4\n        /* \"#utility.yul\":4171:4203   */\n      add\n        /* \"#utility.yul\":4168:4209   */\n      gt\n        /* \"#utility.yul\":4165:4293   */\n      iszero\n      tag_431\n      jumpi\n        /* \"#utility.yul\":4212:4291   */\n      tag_432\n      tag_367\n      jump\t// in\n    tag_432:\n        /* \"#utility.yul\":4165:4293   */\n    tag_431:\n        /* \"#utility.yul\":3714:4299   */\n      swap3\n      pop\n      swap3\n      swap1\n      pop\n      jump\t// out\n        /* \"#utility.yul\":4321:4888   */\n    tag_433:\n        /* \"#utility.yul\":4393:4401   */\n      0x00\n        /* \"#utility.yul\":4403:4409   */\n      dup1\n        /* \"#utility.yul\":4453:4456   */\n      dup4\n        /* \"#utility.yul\":4446:4450   */\n      0x1f\n        /* \"#utility.yul\":4438:4444   */\n      dup5\n        /* \"#utility.yul\":4434:4451   */\n      add\n        /* \"#utility.yul\":4430:4457   */\n      slt\n        /* \"#utility.yul\":4420:4542   */\n      tag_435\n      jumpi\n        /* \"#utility.yul\":4461:4540   */\n      tag_436\n      tag_414\n      jump\t// in\n    tag_436:\n        /* \"#utility.yul\":4420:4542   */\n    tag_435:\n        /* \"#utility.yul\":4574:4580   */\n      dup3\n        /* \"#utility.yul\":4561:4581   */\n      calldataload\n        /* \"#utility.yul\":4551:4581   */\n      swap1\n      pop\n        /* \"#utility.yul\":4604:4622   */\n      0xffffffffffffffff\n        /* \"#utility.yul\":4596:4602   */\n      dup2\n        /* \"#utility.yul\":4593:4623   */\n      gt\n        /* \"#utility.yul\":4590:4707   */\n      iszero\n      tag_437\n      jumpi\n        /* \"#utility.yul\":4626:4705   */\n      tag_438\n      tag_417\n      jump\t// in\n    tag_438:\n        /* \"#utility.yul\":4590:4707   */\n    tag_437:\n        /* \"#utility.yul\":4740:4744   */\n      0x20\n        /* \"#utility.yul\":4732:4738   */\n      dup4\n        /* \"#utility.yul\":4728:4745   */\n      add\n        /* \"#utility.yul\":4716:4745   */\n      swap2\n      pop\n        /* \"#utility.yul\":4794:4797   */\n      dup4\n        /* \"#utility.yul\":4786:4790   */\n      0x20\n        /* \"#utility.yul\":4778:4784   */\n      dup3\n        /* \"#utility.yul\":4774:4791   */\n      mul\n        /* \"#utility.yul\":4764:4772   */\n      dup4\n        /* \"#utility.yul\":4760:4792   */\n      add\n        /* \"#utility.yul\":4757:4798   */\n      gt\n        /* \"#utility.yul\":4754:4882   */\n      iszero\n      tag_439\n      jumpi\n        /* \"#utility.yul\":4801:4880   */\n      tag_440\n      tag_367\n      jump\t// in\n    tag_440:\n        /* \"#utility.yul\":4754:4882   */\n    tag_439:\n        /* \"#utility.yul\":4321:4888   */\n      swap3\n      pop\n      swap3\n      swap1\n      pop\n      jump\t// out\n        /* \"#utility.yul\":4911:5296   */\n    tag_441:\n        /* \"#utility.yul\":4993:4998   */\n      0x00\n        /* \"#utility.yul\":5042:5045   */\n      dup3\n        /* \"#utility.yul\":5035:5039   */\n      0x1f\n        /* \"#utility.yul\":5027:5033   */\n      dup4\n        /* \"#utility.yul\":5023:5040   */\n      add\n        /* \"#utility.yul\":5019:5046   */\n      slt\n        /* \"#utility.yul\":5009:5131   */\n      tag_443\n      jumpi\n        /* \"#utility.yul\":5050:5129   */\n      tag_444\n      tag_414\n      jump\t// in\n    tag_444:\n        /* \"#utility.yul\":5009:5131   */\n    tag_443:\n        /* \"#utility.yul\":5160:5166   */\n      dup2\n        /* \"#utility.yul\":5154:5167   */\n      mload\n        /* \"#utility.yul\":5185:5290   */\n      tag_445\n        /* \"#utility.yul\":5286:5289   */\n      dup5\n        /* \"#utility.yul\":5278:5284   */\n      dup3\n        /* \"#utility.yul\":5271:5275   */\n      0x20\n        /* \"#utility.yul\":5263:5269   */\n      dup7\n        /* \"#utility.yul\":5259:5276   */\n      add\n        /* \"#utility.yul\":5185:5290   */\n      tag_373\n      jump\t// in\n    tag_445:\n        /* \"#utility.yul\":5176:5290   */\n      swap2\n      pop\n        /* \"#utility.yul\":4999:5296   */\n      pop\n        /* \"#utility.yul\":4911:5296   */\n      swap3\n      swap2\n      pop\n      pop\n      jump\t// out\n        /* \"#utility.yul\":5302:5439   */\n    tag_446:\n        /* \"#utility.yul\":5356:5361   */\n      0x00\n        /* \"#utility.yul\":5387:5393   */\n      dup2\n        /* \"#utility.yul\":5381:5394   */\n      mload\n        /* \"#utility.yul\":5372:5394   */\n      swap1\n      pop\n        /* \"#utility.yul\":5403:5433   */\n      tag_448\n        /* \"#utility.yul\":5427:5432   */\n      dup2\n        /* \"#utility.yul\":5403:5433   */\n      tag_449\n      jump\t// in\n    tag_448:\n        /* \"#utility.yul\":5302:5439   */\n      swap3\n      swap2\n      pop\n      pop\n      jump\t// out\n        /* \"#utility.yul\":5445:5588   */\n    tag_372:\n        /* \"#utility.yul\":5502:5507   */\n      0x00\n        /* \"#utility.yul\":5533:5539   */\n      dup2\n        /* \"#utility.yul\":5527:5540   */\n      mload\n        /* \"#utility.yul\":5518:5540   */\n      swap1\n      pop\n        /* \"#utility.yul\":5549:5582   */\n      tag_451\n        /* \"#utility.yul\":5576:5581   */\n      dup2\n        /* \"#utility.yul\":5549:5582   */\n      tag_452\n      jump\t// in\n    tag_451:\n        /* \"#utility.yul\":5445:5588   */\n      swap3\n      swap2\n      pop\n      pop\n      jump\t// out\n        /* \"#utility.yul\":5607:5960   */\n    tag_453:\n        /* \"#utility.yul\":5673:5678   */\n      0x00\n        /* \"#utility.yul\":5722:5725   */\n      dup3\n        /* \"#utility.yul\":5715:5719   */\n      0x1f\n        /* \"#utility.yul\":5707:5713   */\n      dup4\n        /* \"#utility.yul\":5703:5720   */\n      add\n        /* \"#utility.yul\":5699:5726   */\n      slt\n        /* \"#utility.yul\":5689:5811   */\n      tag_455\n      jumpi\n        /* \"#utility.yul\":5730:5809   */\n      tag_456\n      tag_414\n      jump\t// in\n    tag_456:\n        /* \"#utility.yul\":5689:5811   */\n    tag_455:\n        /* \"#utility.yul\":5840:5846   */\n      dup2\n        /* \"#utility.yul\":5834:5847   */\n      mload\n        /* \"#utility.yul\":5865:5954   */\n      tag_457\n        /* \"#utility.yul\":5950:5953   */\n      dup5\n        /* \"#utility.yul\":5942:5948   */\n      dup3\n        /* \"#utility.yul\":5935:5939   */\n      0x20\n        /* \"#utility.yul\":5927:5933   */\n      dup7\n        /* \"#utility.yul\":5923:5940   */\n      add\n        /* \"#utility.yul\":5865:5954   */\n      tag_385\n      jump\t// in\n    tag_457:\n        /* \"#utility.yul\":5856:5954   */\n      swap2\n      pop\n        /* \"#utility.yul\":5679:5960   */\n      pop\n        /* \"#utility.yul\":5607:5960   */\n      swap3\n      swap2\n      pop\n      pop\n      jump\t// out\n        /* \"#utility.yul\":5966:6139   */\n    tag_458:\n        /* \"#utility.yul\":6029:6034   */\n      0x00\n        /* \"#utility.yul\":6067:6073   */\n      dup2\n        /* \"#utility.yul\":6054:6074   */\n      calldataload\n        /* \"#utility.yul\":6045:6074   */\n      swap1\n      pop\n        /* \"#utility.yul\":6083:6133   */\n      tag_460\n        /* \"#utility.yul\":6127:6132   */\n      dup2\n        /* \"#utility.yul\":6083:6133   */\n      tag_461\n      jump\t// in\n    tag_460:\n        /* \"#utility.yul\":5966:6139   */\n      swap3\n      swap2\n      pop\n      pop\n      jump\t// out\n        /* \"#utility.yul\":6145:6322   */\n    tag_462:\n        /* \"#utility.yul\":6219:6224   */\n      0x00\n        /* \"#utility.yul\":6250:6256   */\n      dup2\n        /* \"#utility.yul\":6244:6257   */\n      mload\n        /* \"#utility.yul\":6235:6257   */\n      swap1\n      pop\n        /* \"#utility.yul\":6266:6316   */\n      tag_464\n        /* \"#utility.yul\":6310:6315   */\n      dup2\n        /* \"#utility.yul\":6266:6316   */\n      tag_461\n      jump\t// in\n    tag_464:\n        /* \"#utility.yul\":6145:6322   */\n      swap3\n      swap2\n      pop\n      pop\n      jump\t// out\n        /* \"#utility.yul\":6342:6697   */\n    tag_465:\n        /* \"#utility.yul\":6409:6414   */\n      0x00\n        /* \"#utility.yul\":6458:6461   */\n      dup3\n        /* \"#utility.yul\":6451:6455   */\n      0x1f\n        /* \"#utility.yul\":6443:6449   */\n      dup4\n        /* \"#utility.yul\":6439:6456   */\n      add\n        /* \"#utility.yul\":6435:6462   */\n      slt\n        /* \"#utility.yul\":6425:6547   */\n      tag_467\n      jumpi\n        /* \"#utility.yul\":6466:6545   */\n      tag_468\n      tag_414\n      jump\t// in\n    tag_468:\n        /* \"#utility.yul\":6425:6547   */\n    tag_467:\n        /* \"#utility.yul\":6576:6582   */\n      dup2\n        /* \"#utility.yul\":6570:6583   */\n      mload\n        /* \"#utility.yul\":6601:6691   */\n      tag_469\n        /* \"#utility.yul\":6687:6690   */\n      dup5\n        /* \"#utility.yul\":6679:6685   */\n      dup3\n        /* \"#utility.yul\":6672:6676   */\n      0x20\n        /* \"#utility.yul\":6664:6670   */\n      dup7\n        /* \"#utility.yul\":6660:6677   */\n      add\n        /* \"#utility.yul\":6601:6691   */\n      tag_395\n      jump\t// in\n    tag_469:\n        /* \"#utility.yul\":6592:6691   */\n      swap2\n      pop\n        /* \"#utility.yul\":6415:6697   */\n      pop\n        /* \"#utility.yul\":6342:6697   */\n      swap3\n      swap2\n      pop\n      pop\n      jump\t// out\n        /* \"#utility.yul\":6703:6840   */\n    tag_470:\n        /* \"#utility.yul\":6748:6753   */\n      0x00\n        /* \"#utility.yul\":6786:6792   */\n      dup2\n        /* \"#utility.yul\":6773:6793   */\n      calldataload\n        /* \"#utility.yul\":6764:6793   */\n      swap1\n      pop\n        /* \"#utility.yul\":6802:6834   */\n      tag_472\n        /* \"#utility.yul\":6828:6833   */\n      dup2\n        /* \"#utility.yul\":6802:6834   */\n      tag_473\n      jump\t// in\n    tag_472:\n        /* \"#utility.yul\":6703:6840   */\n      swap3\n      swap2\n      pop\n      pop\n      jump\t// out\n        /* \"#utility.yul\":6846:6987   */\n    tag_474:\n        /* \"#utility.yul\":6902:6907   */\n      0x00\n        /* \"#utility.yul\":6933:6939   */\n      dup2\n        /* \"#utility.yul\":6927:6940   */\n      mload\n        /* \"#utility.yul\":6918:6940   */\n      swap1\n      pop\n        /* \"#utility.yul\":6949:6981   */\n      tag_476\n        /* \"#utility.yul\":6975:6980   */\n      dup2\n        /* \"#utility.yul\":6949:6981   */\n      tag_473\n      jump\t// in\n    tag_476:\n        /* \"#utility.yul\":6846:6987   */\n      swap3\n      swap2\n      pop\n      pop\n      jump\t// out\n        /* \"#utility.yul\":6993:7136   */\n    tag_384:\n        /* \"#utility.yul\":7050:7055   */\n      0x00\n        /* \"#utility.yul\":7081:7087   */\n      dup2\n        /* \"#utility.yul\":7075:7088   */\n      mload\n        /* \"#utility.yul\":7066:7088   */\n      swap1\n      pop\n        /* \"#utility.yul\":7097:7130   */\n      tag_478\n        /* \"#utility.yul\":7124:7129   */\n      dup2\n        /* \"#utility.yul\":7097:7130   */\n      tag_479\n      jump\t// in\n    tag_478:\n        /* \"#utility.yul\":6993:7136   */\n      swap3\n      swap2\n      pop\n      pop\n      jump\t// out\n        /* \"#utility.yul\":7142:7471   */\n    tag_32:\n        /* \"#utility.yul\":7201:7207   */\n      0x00\n        /* \"#utility.yul\":7250:7252   */\n      0x20\n        /* \"#utility.yul\":7238:7247   */\n      dup3\n        /* \"#utility.yul\":7229:7236   */\n      dup5\n        /* \"#utility.yul\":7225:7248   */\n      sub\n        /* \"#utility.yul\":7221:7253   */\n      slt\n        /* \"#utility.yul\":7218:7337   */\n      iszero\n      tag_481\n      jumpi\n        /* \"#utility.yul\":7256:7335   */\n      tag_482\n      tag_483\n      jump\t// in\n    tag_482:\n        /* \"#utility.yul\":7218:7337   */\n    tag_481:\n        /* \"#utility.yul\":7376:7377   */\n      0x00\n        /* \"#utility.yul\":7401:7454   */\n      tag_484\n        /* \"#utility.yul\":7446:7453   */\n      dup5\n        /* \"#utility.yul\":7437:7443   */\n      dup3\n        /* \"#utility.yul\":7426:7435   */\n      dup6\n        /* \"#utility.yul\":7422:7444   */\n      add\n        /* \"#utility.yul\":7401:7454   */\n      tag_403\n      jump\t// in\n    tag_484:\n        /* \"#utility.yul\":7391:7454   */\n      swap2\n      pop\n        /* \"#utility.yul\":7347:7464   */\n      pop\n        /* \"#utility.yul\":7142:7471   */\n      swap3\n      swap2\n      pop\n      pop\n      jump\t// out\n        /* \"#utility.yul\":7477:7985   */\n    tag_84:\n        /* \"#utility.yul\":7562:7568   */\n      0x00\n        /* \"#utility.yul\":7570:7576   */\n      dup1\n        /* \"#utility.yul\":7619:7621   */\n      0x40\n        /* \"#utility.yul\":7607:7616   */\n      dup4\n        /* \"#utility.yul\":7598:7605   */\n      dup6\n        /* \"#utility.yul\":7594:7617   */\n      sub\n        /* \"#utility.yul\":7590:7622   */\n      slt\n        /* \"#utility.yul\":7587:7706   */\n      iszero\n      tag_486\n      jumpi\n        /* \"#utility.yul\":7625:7704   */\n      tag_487\n      tag_483\n      jump\t// in\n    tag_487:\n        /* \"#utility.yul\":7587:7706   */\n    tag_486:\n        /* \"#utility.yul\":7745:7746   */\n      0x00\n        /* \"#utility.yul\":7770:7823   */\n      tag_488\n        /* \"#utility.yul\":7815:7822   */\n      dup6\n        /* \"#utility.yul\":7806:7812   */\n      dup3\n        /* \"#utility.yul\":7795:7804   */\n      dup7\n        /* \"#utility.yul\":7791:7813   */\n      add\n        /* \"#utility.yul\":7770:7823   */\n      tag_403\n      jump\t// in\n    tag_488:\n        /* \"#utility.yul\":7760:7823   */\n      swap3\n      pop\n        /* \"#utility.yul\":7716:7833   */\n      pop\n        /* \"#utility.yul\":7872:7874   */\n      0x20\n        /* \"#utility.yul\":7898:7968   */\n      tag_489\n        /* \"#utility.yul\":7960:7967   */\n      dup6\n        /* \"#utility.yul\":7951:7957   */\n      dup3\n        /* \"#utility.yul\":7940:7949   */\n      dup7\n        /* \"#utility.yul\":7936:7958   */\n      add\n        /* \"#utility.yul\":7898:7968   */\n      tag_458\n      jump\t// in\n    tag_489:\n        /* \"#utility.yul\":7888:7968   */\n      swap2\n      pop\n        /* \"#utility.yul\":7843:7978   */\n      pop\n        /* \"#utility.yul\":7477:7985   */\n      swap3\n      pop\n      swap3\n      swap1\n      pop\n      jump\t// out\n        /* \"#utility.yul\":7991:8642   */\n    tag_49:\n        /* \"#utility.yul\":8084:8090   */\n      0x00\n        /* \"#utility.yul\":8092:8098   */\n      dup1\n        /* \"#utility.yul\":8100:8106   */\n      0x00\n        /* \"#utility.yul\":8149:8151   */\n      0x60\n        /* \"#utility.yul\":8137:8146   */\n      dup5\n        /* \"#utility.yul\":8128:8135   */\n      dup7\n        /* \"#utility.yul\":8124:8147   */\n      sub\n        /* \"#utility.yul\":8120:8152   */\n      slt\n        /* \"#utility.yul\":8117:8236   */\n      iszero\n      tag_491\n      jumpi\n        /* \"#utility.yul\":8155:8234   */\n      tag_492\n      tag_483\n      jump\t// in\n    tag_492:\n        /* \"#utility.yul\":8117:8236   */\n    tag_491:\n        /* \"#utility.yul\":8275:8276   */\n      0x00\n        /* \"#utility.yul\":8300:8353   */\n      tag_493\n        /* \"#utility.yul\":8345:8352   */\n      dup7\n        /* \"#utility.yul\":8336:8342   */\n      dup3\n        /* \"#utility.yul\":8325:8334   */\n      dup8\n        /* \"#utility.yul\":8321:8343   */\n      add\n        /* \"#utility.yul\":8300:8353   */\n      tag_403\n      jump\t// in\n    tag_493:\n        /* \"#utility.yul\":8290:8353   */\n      swap4\n      pop\n        /* \"#utility.yul\":8246:8363   */\n      pop\n        /* \"#utility.yul\":8402:8404   */\n      0x20\n        /* \"#utility.yul\":8428:8498   */\n      tag_494\n        /* \"#utility.yul\":8490:8497   */\n      dup7\n        /* \"#utility.yul\":8481:8487   */\n      dup3\n        /* \"#utility.yul\":8470:8479   */\n      dup8\n        /* \"#utility.yul\":8466:8488   */\n      add\n        /* \"#utility.yul\":8428:8498   */\n      tag_458\n      jump\t// in\n    tag_494:\n        /* \"#utility.yul\":8418:8498   */\n      swap3\n      pop\n        /* \"#utility.yul\":8373:8508   */\n      pop\n        /* \"#utility.yul\":8547:8549   */\n      0x40\n        /* \"#utility.yul\":8573:8625   */\n      tag_495\n        /* \"#utility.yul\":8617:8624   */\n      dup7\n        /* \"#utility.yul\":8608:8614   */\n      dup3\n        /* \"#utility.yul\":8597:8606   */\n      dup8\n        /* \"#utility.yul\":8593:8615   */\n      add\n        /* \"#utility.yul\":8573:8625   */\n      tag_470\n      jump\t// in\n    tag_495:\n        /* \"#utility.yul\":8563:8625   */\n      swap2\n      pop\n        /* \"#utility.yul\":8518:8635   */\n      pop\n        /* \"#utility.yul\":7991:8642   */\n      swap3\n      pop\n      swap3\n      pop\n      swap3\n      jump\t// out\n        /* \"#utility.yul\":8648:9120   */\n    tag_41:\n        /* \"#utility.yul\":8715:8721   */\n      0x00\n        /* \"#utility.yul\":8723:8729   */\n      dup1\n        /* \"#utility.yul\":8772:8774   */\n      0x40\n        /* \"#utility.yul\":8760:8769   */\n      dup4\n        /* \"#utility.yul\":8751:8758   */\n      dup6\n        /* \"#utility.yul\":8747:8770   */\n      sub\n        /* \"#utility.yul\":8743:8775   */\n      slt\n        /* \"#utility.yul\":8740:8859   */\n      iszero\n      tag_497\n      jumpi\n        /* \"#utility.yul\":8778:8857   */\n      tag_498\n      tag_483\n      jump\t// in\n    tag_498:\n        /* \"#utility.yul\":8740:8859   */\n    tag_497:\n        /* \"#utility.yul\":8898:8899   */\n      0x00\n        /* \"#utility.yul\":8923:8976   */\n      tag_499\n        /* \"#utility.yul\":8968:8975   */\n      dup6\n        /* \"#utility.yul\":8959:8965   */\n      dup3\n        /* \"#utility.yul\":8948:8957   */\n      dup7\n        /* \"#utility.yul\":8944:8966   */\n      add\n        /* \"#utility.yul\":8923:8976   */\n      tag_403\n      jump\t// in\n    tag_499:\n        /* \"#utility.yul\":8913:8976   */\n      swap3\n      pop\n        /* \"#utility.yul\":8869:8986   */\n      pop\n        /* \"#utility.yul\":9025:9027   */\n      0x20\n        /* \"#utility.yul\":9051:9103   */\n      tag_500\n        /* \"#utility.yul\":9095:9102   */\n      dup6\n        /* \"#utility.yul\":9086:9092   */\n      dup3\n        /* \"#utility.yul\":9075:9084   */\n      dup7\n        /* \"#utility.yul\":9071:9093   */\n      add\n        /* \"#utility.yul\":9051:9103   */\n      tag_470\n      jump\t// in\n    tag_500:\n        /* \"#utility.yul\":9041:9103   */\n      swap2\n      pop\n        /* \"#utility.yul\":8996:9113   */\n      pop\n        /* \"#utility.yul\":8648:9120   */\n      swap3\n      pop\n      swap3\n      swap1\n      pop\n      jump\t// out\n        /* \"#utility.yul\":9126:10467   */\n    tag_63:\n        /* \"#utility.yul\":9300:9306   */\n      0x00\n        /* \"#utility.yul\":9308:9314   */\n      dup1\n        /* \"#utility.yul\":9316:9322   */\n      0x00\n        /* \"#utility.yul\":9324:9330   */\n      dup1\n        /* \"#utility.yul\":9332:9338   */\n      0x00\n        /* \"#utility.yul\":9340:9346   */\n      dup1\n        /* \"#utility.yul\":9389:9391   */\n      0x60\n        /* \"#utility.yul\":9377:9386   */\n      dup8\n        /* \"#utility.yul\":9368:9375   */\n      dup10\n        /* \"#utility.yul\":9364:9387   */\n      sub\n        /* \"#utility.yul\":9360:9392   */\n      slt\n        /* \"#utility.yul\":9357:9476   */\n      iszero\n      tag_502\n      jumpi\n        /* \"#utility.yul\":9395:9474   */\n      tag_503\n      tag_483\n      jump\t// in\n    tag_503:\n        /* \"#utility.yul\":9357:9476   */\n    tag_502:\n        /* \"#utility.yul\":9543:9544   */\n      0x00\n        /* \"#utility.yul\":9532:9541   */\n      dup8\n        /* \"#utility.yul\":9528:9545   */\n      add\n        /* \"#utility.yul\":9515:9546   */\n      calldataload\n        /* \"#utility.yul\":9573:9591   */\n      0xffffffffffffffff\n        /* \"#utility.yul\":9565:9571   */\n      dup2\n        /* \"#utility.yul\":9562:9592   */\n      gt\n        /* \"#utility.yul\":9559:9676   */\n      iszero\n      tag_504\n      jumpi\n        /* \"#utility.yul\":9595:9674   */\n      tag_505\n      tag_506\n      jump\t// in\n    tag_505:\n        /* \"#utility.yul\":9559:9676   */\n    tag_504:\n        /* \"#utility.yul\":9708:9788   */\n      tag_507\n        /* \"#utility.yul\":9780:9787   */\n      dup10\n        /* \"#utility.yul\":9771:9777   */\n      dup3\n        /* \"#utility.yul\":9760:9769   */\n      dup11\n        /* \"#utility.yul\":9756:9778   */\n      add\n        /* \"#utility.yul\":9708:9788   */\n      tag_410\n      jump\t// in\n    tag_507:\n        /* \"#utility.yul\":9690:9788   */\n      swap7\n      pop\n      swap7\n      pop\n        /* \"#utility.yul\":9486:9798   */\n      pop\n        /* \"#utility.yul\":9865:9867   */\n      0x20\n        /* \"#utility.yul\":9854:9863   */\n      dup8\n        /* \"#utility.yul\":9850:9868   */\n      add\n        /* \"#utility.yul\":9837:9869   */\n      calldataload\n        /* \"#utility.yul\":9896:9914   */\n      0xffffffffffffffff\n        /* \"#utility.yul\":9888:9894   */\n      dup2\n        /* \"#utility.yul\":9885:9915   */\n      gt\n        /* \"#utility.yul\":9882:9999   */\n      iszero\n      tag_508\n      jumpi\n        /* \"#utility.yul\":9918:9997   */\n      tag_509\n      tag_506\n      jump\t// in\n    tag_509:\n        /* \"#utility.yul\":9882:9999   */\n    tag_508:\n        /* \"#utility.yul\":10031:10128   */\n      tag_510\n        /* \"#utility.yul\":10120:10127   */\n      dup10\n        /* \"#utility.yul\":10111:10117   */\n      dup3\n        /* \"#utility.yul\":10100:10109   */\n      dup11\n        /* \"#utility.yul\":10096:10118   */\n      add\n        /* \"#utility.yul\":10031:10128   */\n      tag_425\n      jump\t// in\n    tag_510:\n        /* \"#utility.yul\":10013:10128   */\n      swap5\n      pop\n      swap5\n      pop\n        /* \"#utility.yul\":9808:10138   */\n      pop\n        /* \"#utility.yul\":10205:10207   */\n      0x40\n        /* \"#utility.yul\":10194:10203   */\n      dup8\n        /* \"#utility.yul\":10190:10208   */\n      add\n        /* \"#utility.yul\":10177:10209   */\n      calldataload\n        /* \"#utility.yul\":10236:10254   */\n      0xffffffffffffffff\n        /* \"#utility.yul\":10228:10234   */\n      dup2\n        /* \"#utility.yul\":10225:10255   */\n      gt\n        /* \"#utility.yul\":10222:10339   */\n      iszero\n      tag_511\n      jumpi\n        /* \"#utility.yul\":10258:10337   */\n      tag_512\n      tag_506\n      jump\t// in\n    tag_512:\n        /* \"#utility.yul\":10222:10339   */\n    tag_511:\n        /* \"#utility.yul\":10371:10450   */\n      tag_513\n        /* \"#utility.yul\":10442:10449   */\n      dup10\n        /* \"#utility.yul\":10433:10439   */\n      dup3\n        /* \"#utility.yul\":10422:10431   */\n      dup11\n        /* \"#utility.yul\":10418:10440   */\n      add\n        /* \"#utility.yul\":10371:10450   */\n      tag_433\n      jump\t// in\n    tag_513:\n        /* \"#utility.yul\":10353:10450   */\n      swap3\n      pop\n      swap3\n      pop\n        /* \"#utility.yul\":10148:10460   */\n      pop\n        /* \"#utility.yul\":9126:10467   */\n      swap3\n      swap6\n      pop\n      swap3\n      swap6\n      pop\n      swap3\n      swap6\n      jump\t// out\n        /* \"#utility.yul\":10473:11027   */\n    tag_242:\n        /* \"#utility.yul\":10568:10574   */\n      0x00\n        /* \"#utility.yul\":10617:10619   */\n      0x20\n        /* \"#utility.yul\":10605:10614   */\n      dup3\n        /* \"#utility.yul\":10596:10603   */\n      dup5\n        /* \"#utility.yul\":10592:10615   */\n      sub\n        /* \"#utility.yul\":10588:10620   */\n      slt\n        /* \"#utility.yul\":10585:10704   */\n      iszero\n      tag_515\n      jumpi\n        /* \"#utility.yul\":10623:10702   */\n      tag_516\n      tag_483\n      jump\t// in\n    tag_516:\n        /* \"#utility.yul\":10585:10704   */\n    tag_515:\n        /* \"#utility.yul\":10764:10765   */\n      0x00\n        /* \"#utility.yul\":10753:10762   */\n      dup3\n        /* \"#utility.yul\":10749:10766   */\n      add\n        /* \"#utility.yul\":10743:10767   */\n      mload\n        /* \"#utility.yul\":10794:10812   */\n      0xffffffffffffffff\n        /* \"#utility.yul\":10786:10792   */\n      dup2\n        /* \"#utility.yul\":10783:10813   */\n      gt\n        /* \"#utility.yul\":10780:10897   */\n      iszero\n      tag_517\n      jumpi\n        /* \"#utility.yul\":10816:10895   */\n      tag_518\n      tag_506\n      jump\t// in\n    tag_518:\n        /* \"#utility.yul\":10780:10897   */\n    tag_517:\n        /* \"#utility.yul\":10921:11010   */\n      tag_519\n        /* \"#utility.yul\":11002:11009   */\n      dup5\n        /* \"#utility.yul\":10993:10999   */\n      dup3\n        /* \"#utility.yul\":10982:10991   */\n      dup6\n        /* \"#utility.yul\":10978:11000   */\n      add\n        /* \"#utility.yul\":10921:11010   */\n      tag_420\n      jump\t// in\n    tag_519:\n        /* \"#utility.yul\":10911:11010   */\n      swap2\n      pop\n        /* \"#utility.yul\":10714:11020   */\n      pop\n        /* \"#utility.yul\":10473:11027   */\n      swap3\n      swap2\n      pop\n      pop\n      jump\t// out\n        /* \"#utility.yul\":11033:11587   */\n    tag_228:\n        /* \"#utility.yul\":11128:11134   */\n      0x00\n        /* \"#utility.yul\":11177:11179   */\n      0x20\n        /* \"#utility.yul\":11165:11174   */\n      dup3\n        /* \"#utility.yul\":11156:11163   */\n      dup5\n        /* \"#utility.yul\":11152:11175   */\n      sub\n        /* \"#utility.yul\":11148:11180   */\n      slt\n        /* \"#utility.yul\":11145:11264   */\n      iszero\n      tag_521\n      jumpi\n        /* \"#utility.yul\":11183:11262   */\n      tag_522\n      tag_483\n      jump\t// in\n    tag_522:\n        /* \"#utility.yul\":11145:11264   */\n    tag_521:\n        /* \"#utility.yul\":11324:11325   */\n      0x00\n        /* \"#utility.yul\":11313:11322   */\n      dup3\n        /* \"#utility.yul\":11309:11326   */\n      add\n        /* \"#utility.yul\":11303:11327   */\n      mload\n        /* \"#utility.yul\":11354:11372   */\n      0xffffffffffffffff\n        /* \"#utility.yul\":11346:11352   */\n      dup2\n        /* \"#utility.yul\":11343:11373   */\n      gt\n        /* \"#utility.yul\":11340:11457   */\n      iszero\n      tag_523\n      jumpi\n        /* \"#utility.yul\":11376:11455   */\n      tag_524\n      tag_506\n      jump\t// in\n    tag_524:\n        /* \"#utility.yul\":11340:11457   */\n    tag_523:\n        /* \"#utility.yul\":11481:11570   */\n      tag_525\n        /* \"#utility.yul\":11562:11569   */\n      dup5\n        /* \"#utility.yul\":11553:11559   */\n      dup3\n        /* \"#utility.yul\":11542:11551   */\n      dup6\n        /* \"#utility.yul\":11538:11560   */\n      add\n        /* \"#utility.yul\":11481:11570   */\n      tag_441\n      jump\t// in\n    tag_525:\n        /* \"#utility.yul\":11471:11570   */\n      swap2\n      pop\n        /* \"#utility.yul\":11274:11580   */\n      pop\n        /* \"#utility.yul\":11033:11587   */\n      swap3\n      swap2\n      pop\n      pop\n      jump\t// out\n        /* \"#utility.yul\":11593:11938   */\n    tag_265:\n        /* \"#utility.yul\":11660:11666   */\n      0x00\n        /* \"#utility.yul\":11709:11711   */\n      0x20\n        /* \"#utility.yul\":11697:11706   */\n      dup3\n        /* \"#utility.yul\":11688:11695   */\n      dup5\n        /* \"#utility.yul\":11684:11707   */\n      sub\n        /* \"#utility.yul\":11680:11712   */\n      slt\n        /* \"#utility.yul\":11677:11796   */\n      iszero\n      tag_527\n      jumpi\n        /* \"#utility.yul\":11715:11794   */\n      tag_528\n      tag_483\n      jump\t// in\n    tag_528:\n        /* \"#utility.yul\":11677:11796   */\n    tag_527:\n        /* \"#utility.yul\":11835:11836   */\n      0x00\n        /* \"#utility.yul\":11860:11921   */\n      tag_529\n        /* \"#utility.yul\":11913:11920   */\n      dup5\n        /* \"#utility.yul\":11904:11910   */\n      dup3\n        /* \"#utility.yul\":11893:11902   */\n      dup6\n        /* \"#utility.yul\":11889:11911   */\n      add\n        /* \"#utility.yul\":11860:11921   */\n      tag_446\n      jump\t// in\n    tag_529:\n        /* \"#utility.yul\":11850:11921   */\n      swap2\n      pop\n        /* \"#utility.yul\":11806:11931   */\n      pop\n        /* \"#utility.yul\":11593:11938   */\n      swap3\n      swap2\n      pop\n      pop\n      jump\t// out\n        /* \"#utility.yul\":11944:12307   */\n    tag_166:\n        /* \"#utility.yul\":12020:12026   */\n      0x00\n        /* \"#utility.yul\":12069:12071   */\n      0x20\n        /* \"#utility.yul\":12057:12066   */\n      dup3\n        /* \"#utility.yul\":12048:12055   */\n      dup5\n        /* \"#utility.yul\":12044:12067   */\n      sub\n        /* \"#utility.yul\":12040:12072   */\n      slt\n        /* \"#utility.yul\":12037:12156   */\n      iszero\n      tag_531\n      jumpi\n        /* \"#utility.yul\":12075:12154   */\n      tag_532\n      tag_483\n      jump\t// in\n    tag_532:\n        /* \"#utility.yul\":12037:12156   */\n    tag_531:\n        /* \"#utility.yul\":12195:12196   */\n      0x00\n        /* \"#utility.yul\":12220:12290   */\n      tag_533\n        /* \"#utility.yul\":12282:12289   */\n      dup5\n        /* \"#utility.yul\":12273:12279   */\n      dup3\n        /* \"#utility.yul\":12262:12271   */\n      dup6\n        /* \"#utility.yul\":12258:12280   */\n      add\n        /* \"#utility.yul\":12220:12290   */\n      tag_458\n      jump\t// in\n    tag_533:\n        /* \"#utility.yul\":12210:12290   */\n      swap2\n      pop\n        /* \"#utility.yul\":12166:12300   */\n      pop\n        /* \"#utility.yul\":11944:12307   */\n      swap3\n      swap2\n      pop\n      pop\n      jump\t// out\n        /* \"#utility.yul\":12313:12698   */\n    tag_326:\n        /* \"#utility.yul\":12400:12406   */\n      0x00\n        /* \"#utility.yul\":12449:12451   */\n      0x20\n        /* \"#utility.yul\":12437:12446   */\n      dup3\n        /* \"#utility.yul\":12428:12435   */\n      dup5\n        /* \"#utility.yul\":12424:12447   */\n      sub\n        /* \"#utility.yul\":12420:12452   */\n      slt\n        /* \"#utility.yul\":12417:12536   */\n      iszero\n      tag_535\n      jumpi\n        /* \"#utility.yul\":12455:12534   */\n      tag_536\n      tag_483\n      jump\t// in\n    tag_536:\n        /* \"#utility.yul\":12417:12536   */\n    tag_535:\n        /* \"#utility.yul\":12575:12576   */\n      0x00\n        /* \"#utility.yul\":12600:12681   */\n      tag_537\n        /* \"#utility.yul\":12673:12680   */\n      dup5\n        /* \"#utility.yul\":12664:12670   */\n      dup3\n        /* \"#utility.yul\":12653:12662   */\n      dup6\n        /* \"#utility.yul\":12649:12671   */\n      add\n        /* \"#utility.yul\":12600:12681   */\n      tag_462\n      jump\t// in\n    tag_537:\n        /* \"#utility.yul\":12590:12681   */\n      swap2\n      pop\n        /* \"#utility.yul\":12546:12691   */\n      pop\n        /* \"#utility.yul\":12313:12698   */\n      swap3\n      swap2\n      pop\n      pop\n      jump\t// out\n        /* \"#utility.yul\":12704:13031   */\n    tag_170:\n        /* \"#utility.yul\":12762:12768   */\n      0x00\n        /* \"#utility.yul\":12811:12813   */\n      0x20\n        /* \"#utility.yul\":12799:12808   */\n      dup3\n        /* \"#utility.yul\":12790:12797   */\n      dup5\n        /* \"#utility.yul\":12786:12809   */\n      sub\n        /* \"#utility.yul\":12782:12814   */\n      slt\n        /* \"#utility.yul\":12779:12898   */\n      iszero\n      tag_539\n      jumpi\n        /* \"#utility.yul\":12817:12896   */\n      tag_540\n      tag_483\n      jump\t// in\n    tag_540:\n        /* \"#utility.yul\":12779:12898   */\n    tag_539:\n        /* \"#utility.yul\":12937:12938   */\n      0x00\n        /* \"#utility.yul\":12962:13014   */\n      tag_541\n        /* \"#utility.yul\":13006:13013   */\n      dup5\n        /* \"#utility.yul\":12997:13003   */\n      dup3\n        /* \"#utility.yul\":12986:12995   */\n      dup6\n        /* \"#utility.yul\":12982:13004   */\n      add\n        /* \"#utility.yul\":12962:13014   */\n      tag_470\n      jump\t// in\n    tag_541:\n        /* \"#utility.yul\":12952:13014   */\n      swap2\n      pop\n        /* \"#utility.yul\":12908:13024   */\n      pop\n        /* \"#utility.yul\":12704:13031   */\n      swap3\n      swap2\n      pop\n      pop\n      jump\t// out\n        /* \"#utility.yul\":13037:13386   */\n    tag_187:\n        /* \"#utility.yul\":13106:13112   */\n      0x00\n        /* \"#utility.yul\":13155:13157   */\n      0x20\n        /* \"#utility.yul\":13143:13152   */\n      dup3\n        /* \"#utility.yul\":13134:13141   */\n      dup5\n        /* \"#utility.yul\":13130:13153   */\n      sub\n        /* \"#utility.yul\":13126:13158   */\n      slt\n        /* \"#utility.yul\":13123:13242   */\n      iszero\n      tag_543\n      jumpi\n        /* \"#utility.yul\":13161:13240   */\n      tag_544\n      tag_483\n      jump\t// in\n    tag_544:\n        /* \"#utility.yul\":13123:13242   */\n    tag_543:\n        /* \"#utility.yul\":13281:13282   */\n      0x00\n        /* \"#utility.yul\":13306:13369   */\n      tag_545\n        /* \"#utility.yul\":13361:13368   */\n      dup5\n        /* \"#utility.yul\":13352:13358   */\n      dup3\n        /* \"#utility.yul\":13341:13350   */\n      dup6\n        /* \"#utility.yul\":13337:13359   */\n      add\n        /* \"#utility.yul\":13306:13369   */\n      tag_474\n      jump\t// in\n    tag_545:\n        /* \"#utility.yul\":13296:13369   */\n      swap2\n      pop\n        /* \"#utility.yul\":13252:13379   */\n      pop\n        /* \"#utility.yul\":13037:13386   */\n      swap3\n      swap2\n      pop\n      pop\n      jump\t// out\n        /* \"#utility.yul\":13392:15041   */\n    tag_256:\n        /* \"#utility.yul\":13535:13541   */\n      0x00\n        /* \"#utility.yul\":13543:13549   */\n      dup1\n        /* \"#utility.yul\":13551:13557   */\n      0x00\n        /* \"#utility.yul\":13559:13565   */\n      dup1\n        /* \"#utility.yul\":13567:13573   */\n      0x00\n        /* \"#utility.yul\":13575:13581   */\n      dup1\n        /* \"#utility.yul\":13624:13627   */\n      0xc0\n        /* \"#utility.yul\":13612:13621   */\n      dup8\n        /* \"#utility.yul\":13603:13610   */\n      dup10\n        /* \"#utility.yul\":13599:13622   */\n      sub\n        /* \"#utility.yul\":13595:13628   */\n      slt\n        /* \"#utility.yul\":13592:13712   */\n      iszero\n      tag_547\n      jumpi\n        /* \"#utility.yul\":13631:13710   */\n      tag_548\n      tag_483\n      jump\t// in\n    tag_548:\n        /* \"#utility.yul\":13592:13712   */\n    tag_547:\n        /* \"#utility.yul\":13751:13752   */\n      0x00\n        /* \"#utility.yul\":13776:13840   */\n      tag_549\n        /* \"#utility.yul\":13832:13839   */\n      dup10\n        /* \"#utility.yul\":13823:13829   */\n      dup3\n        /* \"#utility.yul\":13812:13821   */\n      dup11\n        /* \"#utility.yul\":13808:13830   */\n      add\n        /* \"#utility.yul\":13776:13840   */\n      tag_384\n      jump\t// in\n    tag_549:\n        /* \"#utility.yul\":13766:13840   */\n      swap7\n      pop\n        /* \"#utility.yul\":13722:13850   */\n      pop\n        /* \"#utility.yul\":13889:13891   */\n      0x20\n        /* \"#utility.yul\":13915:13979   */\n      tag_550\n        /* \"#utility.yul\":13971:13978   */\n      dup10\n        /* \"#utility.yul\":13962:13968   */\n      dup3\n        /* \"#utility.yul\":13951:13960   */\n      dup11\n        /* \"#utility.yul\":13947:13969   */\n      add\n        /* \"#utility.yul\":13915:13979   */\n      tag_384\n      jump\t// in\n    tag_550:\n        /* \"#utility.yul\":13905:13979   */\n      swap6\n      pop\n        /* \"#utility.yul\":13860:13989   */\n      pop\n        /* \"#utility.yul\":14028:14030   */\n      0x40\n        /* \"#utility.yul\":14054:14118   */\n      tag_551\n        /* \"#utility.yul\":14110:14117   */\n      dup10\n        /* \"#utility.yul\":14101:14107   */\n      dup3\n        /* \"#utility.yul\":14090:14099   */\n      dup11\n        /* \"#utility.yul\":14086:14108   */\n      add\n        /* \"#utility.yul\":14054:14118   */\n      tag_407\n      jump\t// in\n    tag_551:\n        /* \"#utility.yul\":14044:14118   */\n      swap5\n      pop\n        /* \"#utility.yul\":13999:14128   */\n      pop\n        /* \"#utility.yul\":14188:14190   */\n      0x60\n        /* \"#utility.yul\":14177:14186   */\n      dup8\n        /* \"#utility.yul\":14173:14191   */\n      add\n        /* \"#utility.yul\":14167:14192   */\n      mload\n        /* \"#utility.yul\":14219:14237   */\n      0xffffffffffffffff\n        /* \"#utility.yul\":14211:14217   */\n      dup2\n        /* \"#utility.yul\":14208:14238   */\n      gt\n        /* \"#utility.yul\":14205:14322   */\n      iszero\n      tag_552\n      jumpi\n        /* \"#utility.yul\":14241:14320   */\n      tag_553\n      tag_506\n      jump\t// in\n    tag_553:\n        /* \"#utility.yul\":14205:14322   */\n    tag_552:\n        /* \"#utility.yul\":14346:14419   */\n      tag_554\n        /* \"#utility.yul\":14411:14418   */\n      dup10\n        /* \"#utility.yul\":14402:14408   */\n      dup3\n        /* \"#utility.yul\":14391:14400   */\n      dup11\n        /* \"#utility.yul\":14387:14409   */\n      add\n        /* \"#utility.yul\":14346:14419   */\n      tag_453\n      jump\t// in\n    tag_554:\n        /* \"#utility.yul\":14336:14419   */\n      swap4\n      pop\n        /* \"#utility.yul\":14138:14429   */\n      pop\n        /* \"#utility.yul\":14489:14492   */\n      0x80\n        /* \"#utility.yul\":14478:14487   */\n      dup8\n        /* \"#utility.yul\":14474:14493   */\n      add\n        /* \"#utility.yul\":14468:14494   */\n      mload\n        /* \"#utility.yul\":14521:14539   */\n      0xffffffffffffffff\n        /* \"#utility.yul\":14513:14519   */\n      dup2\n        /* \"#utility.yul\":14510:14540   */\n      gt\n        /* \"#utility.yul\":14507:14624   */\n      iszero\n      tag_555\n      jumpi\n        /* \"#utility.yul\":14543:14622   */\n      tag_556\n      tag_506\n      jump\t// in\n    tag_556:\n        /* \"#utility.yul\":14507:14624   */\n    tag_555:\n        /* \"#utility.yul\":14648:14721   */\n      tag_557\n        /* \"#utility.yul\":14713:14720   */\n      dup10\n        /* \"#utility.yul\":14704:14710   */\n      dup3\n        /* \"#utility.yul\":14693:14702   */\n      dup11\n        /* \"#utility.yul\":14689:14711   */\n      add\n        /* \"#utility.yul\":14648:14721   */\n      tag_453\n      jump\t// in\n    tag_557:\n        /* \"#utility.yul\":14638:14721   */\n      swap3\n      pop\n        /* \"#utility.yul\":14439:14731   */\n      pop\n        /* \"#utility.yul\":14791:14794   */\n      0xa0\n        /* \"#utility.yul\":14780:14789   */\n      dup8\n        /* \"#utility.yul\":14776:14795   */\n      add\n        /* \"#utility.yul\":14770:14796   */\n      mload\n        /* \"#utility.yul\":14823:14841   */\n      0xffffffffffffffff\n        /* \"#utility.yul\":14815:14821   */\n      dup2\n        /* \"#utility.yul\":14812:14842   */\n      gt\n        /* \"#utility.yul\":14809:14926   */\n      iszero\n      tag_558\n      jumpi\n        /* \"#utility.yul\":14845:14924   */\n      tag_559\n      tag_506\n      jump\t// in\n    tag_559:\n        /* \"#utility.yul\":14809:14926   */\n    tag_558:\n        /* \"#utility.yul\":14950:15024   */\n      tag_560\n        /* \"#utility.yul\":15016:15023   */\n      dup10\n        /* \"#utility.yul\":15007:15013   */\n      dup3\n        /* \"#utility.yul\":14996:15005   */\n      dup11\n        /* \"#utility.yul\":14992:15014   */\n      add\n        /* \"#utility.yul\":14950:15024   */\n      tag_465\n      jump\t// in\n    tag_560:\n        /* \"#utility.yul\":14940:15024   */\n      swap2\n      pop\n        /* \"#utility.yul\":14741:15034   */\n      pop\n        /* \"#utility.yul\":13392:15041   */\n      swap3\n      swap6\n      pop\n      swap3\n      swap6\n      pop\n      swap3\n      swap6\n      jump\t// out\n        /* \"#utility.yul\":15047:15165   */\n    tag_561:\n        /* \"#utility.yul\":15134:15158   */\n      tag_563\n        /* \"#utility.yul\":15152:15157   */\n      dup2\n        /* \"#utility.yul\":15134:15158   */\n      tag_564\n      jump\t// in\n    tag_563:\n        /* \"#utility.yul\":15129:15132   */\n      dup3\n        /* \"#utility.yul\":15122:15159   */\n      mstore\n        /* \"#utility.yul\":15047:15165   */\n      pop\n      pop\n      jump\t// out\n        /* \"#utility.yul\":15171:15280   */\n    tag_565:\n        /* \"#utility.yul\":15252:15273   */\n      tag_567\n        /* \"#utility.yul\":15267:15272   */\n      dup2\n        /* \"#utility.yul\":15252:15273   */\n      tag_568\n      jump\t// in\n    tag_567:\n        /* \"#utility.yul\":15247:15250   */\n      dup3\n        /* \"#utility.yul\":15240:15274   */\n      mstore\n        /* \"#utility.yul\":15171:15280   */\n      pop\n      pop\n      jump\t// out\n        /* \"#utility.yul\":15286:15404   */\n    tag_569:\n        /* \"#utility.yul\":15373:15397   */\n      tag_571\n        /* \"#utility.yul\":15391:15396   */\n      dup2\n        /* \"#utility.yul\":15373:15397   */\n      tag_572\n      jump\t// in\n    tag_571:\n        /* \"#utility.yul\":15368:15371   */\n      dup3\n        /* \"#utility.yul\":15361:15398   */\n      mstore\n        /* \"#utility.yul\":15286:15404   */\n      pop\n      pop\n      jump\t// out\n        /* \"#utility.yul\":15410:15770   */\n    tag_573:\n        /* \"#utility.yul\":15496:15499   */\n      0x00\n        /* \"#utility.yul\":15524:15562   */\n      tag_575\n        /* \"#utility.yul\":15556:15561   */\n      dup3\n        /* \"#utility.yul\":15524:15562   */\n      tag_576\n      jump\t// in\n    tag_575:\n        /* \"#utility.yul\":15578:15648   */\n      tag_577\n        /* \"#utility.yul\":15641:15647   */\n      dup2\n        /* \"#utility.yul\":15636:15639   */\n      dup6\n        /* \"#utility.yul\":15578:15648   */\n      tag_578\n      jump\t// in\n    tag_577:\n        /* \"#utility.yul\":15571:15648   */\n      swap4\n      pop\n        /* \"#utility.yul\":15657:15709   */\n      tag_579\n        /* \"#utility.yul\":15702:15708   */\n      dup2\n        /* \"#utility.yul\":15697:15700   */\n      dup6\n        /* \"#utility.yul\":15690:15694   */\n      0x20\n        /* \"#utility.yul\":15683:15688   */\n      dup7\n        /* \"#utility.yul\":15679:15695   */\n      add\n        /* \"#utility.yul\":15657:15709   */\n      tag_394\n      jump\t// in\n    tag_579:\n        /* \"#utility.yul\":15734:15763   */\n      tag_580\n        /* \"#utility.yul\":15756:15762   */\n      dup2\n        /* \"#utility.yul\":15734:15763   */\n      tag_581\n      jump\t// in\n    tag_580:\n        /* \"#utility.yul\":15729:15732   */\n      dup5\n        /* \"#utility.yul\":15725:15764   */\n      add\n        /* \"#utility.yul\":15718:15764   */\n      swap2\n      pop\n        /* \"#utility.yul\":15500:15770   */\n      pop\n        /* \"#utility.yul\":15410:15770   */\n      swap3\n      swap2\n      pop\n      pop\n      jump\t// out\n        /* \"#utility.yul\":15776:15963   */\n    tag_582:\n        /* \"#utility.yul\":15891:15956   */\n      tag_584\n        /* \"#utility.yul\":15950:15955   */\n      dup2\n        /* \"#utility.yul\":15891:15956   */\n      tag_585\n      jump\t// in\n    tag_584:\n        /* \"#utility.yul\":15886:15889   */\n      dup3\n        /* \"#utility.yul\":15879:15957   */\n      mstore\n        /* \"#utility.yul\":15776:15963   */\n      pop\n      pop\n      jump\t// out\n        /* \"#utility.yul\":15969:16164   */\n    tag_586:\n        /* \"#utility.yul\":16088:16157   */\n      tag_588\n        /* \"#utility.yul\":16151:16156   */\n      dup2\n        /* \"#utility.yul\":16088:16157   */\n      tag_589\n      jump\t// in\n    tag_588:\n        /* \"#utility.yul\":16083:16086   */\n      dup3\n        /* \"#utility.yul\":16076:16158   */\n      mstore\n        /* \"#utility.yul\":15969:16164   */\n      pop\n      pop\n      jump\t// out\n        /* \"#utility.yul\":16170:16335   */\n    tag_590:\n        /* \"#utility.yul\":16274:16328   */\n      tag_592\n        /* \"#utility.yul\":16322:16327   */\n      dup2\n        /* \"#utility.yul\":16274:16328   */\n      tag_593\n      jump\t// in\n    tag_592:\n        /* \"#utility.yul\":16269:16272   */\n      dup3\n        /* \"#utility.yul\":16262:16329   */\n      mstore\n        /* \"#utility.yul\":16170:16335   */\n      pop\n      pop\n      jump\t// out\n        /* \"#utility.yul\":16341:16534   */\n    tag_594:\n        /* \"#utility.yul\":16459:16527   */\n      tag_596\n        /* \"#utility.yul\":16521:16526   */\n      dup2\n        /* \"#utility.yul\":16459:16527   */\n      tag_597\n      jump\t// in\n    tag_596:\n        /* \"#utility.yul\":16454:16457   */\n      dup3\n        /* \"#utility.yul\":16447:16528   */\n      mstore\n        /* \"#utility.yul\":16341:16534   */\n      pop\n      pop\n      jump\t// out\n        /* \"#utility.yul\":16540:16906   */\n    tag_598:\n        /* \"#utility.yul\":16682:16685   */\n      0x00\n        /* \"#utility.yul\":16703:16770   */\n      tag_600\n        /* \"#utility.yul\":16767:16769   */\n      0x1f\n        /* \"#utility.yul\":16762:16765   */\n      dup4\n        /* \"#utility.yul\":16703:16770   */\n      tag_601\n      jump\t// in\n    tag_600:\n        /* \"#utility.yul\":16696:16770   */\n      swap2\n      pop\n        /* \"#utility.yul\":16779:16872   */\n      tag_602\n        /* \"#utility.yul\":16868:16871   */\n      dup3\n        /* \"#utility.yul\":16779:16872   */\n      tag_603\n      jump\t// in\n    tag_602:\n        /* \"#utility.yul\":16897:16899   */\n      0x20\n        /* \"#utility.yul\":16892:16895   */\n      dup3\n        /* \"#utility.yul\":16888:16900   */\n      add\n        /* \"#utility.yul\":16881:16900   */\n      swap1\n      pop\n        /* \"#utility.yul\":16540:16906   */\n      swap2\n      swap1\n      pop\n      jump\t// out\n        /* \"#utility.yul\":16912:17278   */\n    tag_604:\n        /* \"#utility.yul\":17054:17057   */\n      0x00\n        /* \"#utility.yul\":17075:17142   */\n      tag_606\n        /* \"#utility.yul\":17139:17141   */\n      0x26\n        /* \"#utility.yul\":17134:17137   */\n      dup4\n        /* \"#utility.yul\":17075:17142   */\n      tag_601\n      jump\t// in\n    tag_606:\n        /* \"#utility.yul\":17068:17142   */\n      swap2\n      pop\n        /* \"#utility.yul\":17151:17244   */\n      tag_607\n        /* \"#utility.yul\":17240:17243   */\n      dup3\n        /* \"#utility.yul\":17151:17244   */\n      tag_608\n      jump\t// in\n    tag_607:\n        /* \"#utility.yul\":17269:17271   */\n      0x40\n        /* \"#utility.yul\":17264:17267   */\n      dup3\n        /* \"#utility.yul\":17260:17272   */\n      add\n        /* \"#utility.yul\":17253:17272   */\n      swap1\n      pop\n        /* \"#utility.yul\":16912:17278   */\n      swap2\n      swap1\n      pop\n      jump\t// out\n        /* \"#utility.yul\":17284:17650   */\n    tag_609:\n        /* \"#utility.yul\":17426:17429   */\n      0x00\n        /* \"#utility.yul\":17447:17514   */\n      tag_611\n        /* \"#utility.yul\":17511:17513   */\n      0x2e\n        /* \"#utility.yul\":17506:17509   */\n      dup4\n        /* \"#utility.yul\":17447:17514   */\n      tag_601\n      jump\t// in\n    tag_611:\n        /* \"#utility.yul\":17440:17514   */\n      swap2\n      pop\n        /* \"#utility.yul\":17523:17616   */\n      tag_612\n        /* \"#utility.yul\":17612:17615   */\n      dup3\n        /* \"#utility.yul\":17523:17616   */\n      tag_613\n      jump\t// in\n    tag_612:\n        /* \"#utility.yul\":17641:17643   */\n      0x40\n        /* \"#utility.yul\":17636:17639   */\n      dup3\n        /* \"#utility.yul\":17632:17644   */\n      add\n        /* \"#utility.yul\":17625:17644   */\n      swap1\n      pop\n        /* \"#utility.yul\":17284:17650   */\n      swap2\n      swap1\n      pop\n      jump\t// out\n        /* \"#utility.yul\":17656:18022   */\n    tag_614:\n        /* \"#utility.yul\":17798:17801   */\n      0x00\n        /* \"#utility.yul\":17819:17886   */\n      tag_616\n        /* \"#utility.yul\":17883:17885   */\n      0x21\n        /* \"#utility.yul\":17878:17881   */\n      dup4\n        /* \"#utility.yul\":17819:17886   */\n      tag_601\n      jump\t// in\n    tag_616:\n        /* \"#utility.yul\":17812:17886   */\n      swap2\n      pop\n        /* \"#utility.yul\":17895:17988   */\n      tag_617\n        /* \"#utility.yul\":17984:17987   */\n      dup3\n        /* \"#utility.yul\":17895:17988   */\n      tag_618\n      jump\t// in\n    tag_617:\n        /* \"#utility.yul\":18013:18015   */\n      0x40\n        /* \"#utility.yul\":18008:18011   */\n      dup3\n        /* \"#utility.yul\":18004:18016   */\n      add\n        /* \"#utility.yul\":17997:18016   */\n      swap1\n      pop\n        /* \"#utility.yul\":17656:18022   */\n      swap2\n      swap1\n      pop\n      jump\t// out\n        /* \"#utility.yul\":18028:18394   */\n    tag_619:\n        /* \"#utility.yul\":18170:18173   */\n      0x00\n        /* \"#utility.yul\":18191:18258   */\n      tag_621\n        /* \"#utility.yul\":18255:18257   */\n      0x20\n        /* \"#utility.yul\":18250:18253   */\n      dup4\n        /* \"#utility.yul\":18191:18258   */\n      tag_601\n      jump\t// in\n    tag_621:\n        /* \"#utility.yul\":18184:18258   */\n      swap2\n      pop\n        /* \"#utility.yul\":18267:18360   */\n      tag_622\n        /* \"#utility.yul\":18356:18359   */\n      dup3\n        /* \"#utility.yul\":18267:18360   */\n      tag_623\n      jump\t// in\n    tag_622:\n        /* \"#utility.yul\":18385:18387   */\n      0x20\n        /* \"#utility.yul\":18380:18383   */\n      dup3\n        /* \"#utility.yul\":18376:18388   */\n      add\n        /* \"#utility.yul\":18369:18388   */\n      swap1\n      pop\n        /* \"#utility.yul\":18028:18394   */\n      swap2\n      swap1\n      pop\n      jump\t// out\n        /* \"#utility.yul\":18400:18766   */\n    tag_624:\n        /* \"#utility.yul\":18542:18545   */\n      0x00\n        /* \"#utility.yul\":18563:18630   */\n      tag_626\n        /* \"#utility.yul\":18627:18629   */\n      0x22\n        /* \"#utility.yul\":18622:18625   */\n      dup4\n        /* \"#utility.yul\":18563:18630   */\n      tag_601\n      jump\t// in\n    tag_626:\n        /* \"#utility.yul\":18556:18630   */\n      swap2\n      pop\n        /* \"#utility.yul\":18639:18732   */\n      tag_627\n        /* \"#utility.yul\":18728:18731   */\n      dup3\n        /* \"#utility.yul\":18639:18732   */\n      tag_628\n      jump\t// in\n    tag_627:\n        /* \"#utility.yul\":18757:18759   */\n      0x40\n        /* \"#utility.yul\":18752:18755   */\n      dup3\n        /* \"#utility.yul\":18748:18760   */\n      add\n        /* \"#utility.yul\":18741:18760   */\n      swap1\n      pop\n        /* \"#utility.yul\":18400:18766   */\n      swap2\n      swap1\n      pop\n      jump\t// out\n        /* \"#utility.yul\":18772:18887   */\n    tag_629:\n        /* \"#utility.yul\":18857:18880   */\n      tag_631\n        /* \"#utility.yul\":18874:18879   */\n      dup2\n        /* \"#utility.yul\":18857:18880   */\n      tag_632\n      jump\t// in\n    tag_631:\n        /* \"#utility.yul\":18852:18855   */\n      dup3\n        /* \"#utility.yul\":18845:18881   */\n      mstore\n        /* \"#utility.yul\":18772:18887   */\n      pop\n      pop\n      jump\t// out\n        /* \"#utility.yul\":18893:19011   */\n    tag_633:\n        /* \"#utility.yul\":18980:19004   */\n      tag_635\n        /* \"#utility.yul\":18998:19003   */\n      dup2\n        /* \"#utility.yul\":18980:19004   */\n      tag_636\n      jump\t// in\n    tag_635:\n        /* \"#utility.yul\":18975:18978   */\n      dup3\n        /* \"#utility.yul\":18968:19005   */\n      mstore\n        /* \"#utility.yul\":18893:19011   */\n      pop\n      pop\n      jump\t// out\n        /* \"#utility.yul\":19017:19239   */\n    tag_81:\n        /* \"#utility.yul\":19110:19114   */\n      0x00\n        /* \"#utility.yul\":19148:19150   */\n      0x20\n        /* \"#utility.yul\":19137:19146   */\n      dup3\n        /* \"#utility.yul\":19133:19151   */\n      add\n        /* \"#utility.yul\":19125:19151   */\n      swap1\n      pop\n        /* \"#utility.yul\":19161:19232   */\n      tag_638\n        /* \"#utility.yul\":19229:19230   */\n      0x00\n        /* \"#utility.yul\":19218:19227   */\n      dup4\n        /* \"#utility.yul\":19214:19231   */\n      add\n        /* \"#utility.yul\":19205:19211   */\n      dup5\n        /* \"#utility.yul\":19161:19232   */\n      tag_561\n      jump\t// in\n    tag_638:\n        /* \"#utility.yul\":19017:19239   */\n      swap3\n      swap2\n      pop\n      pop\n      jump\t// out\n        /* \"#utility.yul\":19245:19611   */\n    tag_201:\n        /* \"#utility.yul\":19383:19387   */\n      0x00\n        /* \"#utility.yul\":19421:19423   */\n      0x40\n        /* \"#utility.yul\":19410:19419   */\n      dup3\n        /* \"#utility.yul\":19406:19424   */\n      add\n        /* \"#utility.yul\":19398:19424   */\n      swap1\n      pop\n        /* \"#utility.yul\":19434:19505   */\n      tag_640\n        /* \"#utility.yul\":19502:19503   */\n      0x00\n        /* \"#utility.yul\":19491:19500   */\n      dup4\n        /* \"#utility.yul\":19487:19504   */\n      add\n        /* \"#utility.yul\":19478:19484   */\n      dup6\n        /* \"#utility.yul\":19434:19505   */\n      tag_561\n      jump\t// in\n    tag_640:\n        /* \"#utility.yul\":19515:19604   */\n      tag_641\n        /* \"#utility.yul\":19600:19602   */\n      0x20\n        /* \"#utility.yul\":19589:19598   */\n      dup4\n        /* \"#utility.yul\":19585:19603   */\n      add\n        /* \"#utility.yul\":19576:19582   */\n      dup5\n        /* \"#utility.yul\":19515:19604   */\n      tag_590\n      jump\t// in\n    tag_641:\n        /* \"#utility.yul\":19245:19611   */\n      swap4\n      swap3\n      pop\n      pop\n      pop\n      jump\t// out\n        /* \"#utility.yul\":19617:20089   */\n    tag_143:\n        /* \"#utility.yul\":19781:19785   */\n      0x00\n        /* \"#utility.yul\":19819:19821   */\n      0x60\n        /* \"#utility.yul\":19808:19817   */\n      dup3\n        /* \"#utility.yul\":19804:19822   */\n      add\n        /* \"#utility.yul\":19796:19822   */\n      swap1\n      pop\n        /* \"#utility.yul\":19832:19903   */\n      tag_643\n        /* \"#utility.yul\":19900:19901   */\n      0x00\n        /* \"#utility.yul\":19889:19898   */\n      dup4\n        /* \"#utility.yul\":19885:19902   */\n      add\n        /* \"#utility.yul\":19876:19882   */\n      dup7\n        /* \"#utility.yul\":19832:19903   */\n      tag_561\n      jump\t// in\n    tag_643:\n        /* \"#utility.yul\":19913:20002   */\n      tag_644\n        /* \"#utility.yul\":19998:20000   */\n      0x20\n        /* \"#utility.yul\":19987:19996   */\n      dup4\n        /* \"#utility.yul\":19983:20001   */\n      add\n        /* \"#utility.yul\":19974:19980   */\n      dup6\n        /* \"#utility.yul\":19913:20002   */\n      tag_590\n      jump\t// in\n    tag_644:\n        /* \"#utility.yul\":20012:20082   */\n      tag_645\n        /* \"#utility.yul\":20078:20080   */\n      0x40\n        /* \"#utility.yul\":20067:20076   */\n      dup4\n        /* \"#utility.yul\":20063:20081   */\n      add\n        /* \"#utility.yul\":20054:20060   */\n      dup5\n        /* \"#utility.yul\":20012:20082   */\n      tag_629\n      jump\t// in\n    tag_645:\n        /* \"#utility.yul\":19617:20089   */\n      swap5\n      swap4\n      pop\n      pop\n      pop\n      pop\n      jump\t// out\n        /* \"#utility.yul\":20095:20423   */\n    tag_132:\n        /* \"#utility.yul\":20214:20218   */\n      0x00\n        /* \"#utility.yul\":20252:20254   */\n      0x40\n        /* \"#utility.yul\":20241:20250   */\n      dup3\n        /* \"#utility.yul\":20237:20255   */\n      add\n        /* \"#utility.yul\":20229:20255   */\n      swap1\n      pop\n        /* \"#utility.yul\":20265:20336   */\n      tag_647\n        /* \"#utility.yul\":20333:20334   */\n      0x00\n        /* \"#utility.yul\":20322:20331   */\n      dup4\n        /* \"#utility.yul\":20318:20335   */\n      add\n        /* \"#utility.yul\":20309:20315   */\n      dup6\n        /* \"#utility.yul\":20265:20336   */\n      tag_561\n      jump\t// in\n    tag_647:\n        /* \"#utility.yul\":20346:20416   */\n      tag_648\n        /* \"#utility.yul\":20412:20414   */\n      0x20\n        /* \"#utility.yul\":20401:20410   */\n      dup4\n        /* \"#utility.yul\":20397:20415   */\n      add\n        /* \"#utility.yul\":20388:20394   */\n      dup5\n        /* \"#utility.yul\":20346:20416   */\n      tag_629\n      jump\t// in\n    tag_648:\n        /* \"#utility.yul\":20095:20423   */\n      swap4\n      swap3\n      pop\n      pop\n      pop\n      jump\t// out\n        /* \"#utility.yul\":20429:20761   */\n    tag_278:\n        /* \"#utility.yul\":20550:20554   */\n      0x00\n        /* \"#utility.yul\":20588:20590   */\n      0x40\n        /* \"#utility.yul\":20577:20586   */\n      dup3\n        /* \"#utility.yul\":20573:20591   */\n      add\n        /* \"#utility.yul\":20565:20591   */\n      swap1\n      pop\n        /* \"#utility.yul\":20601:20672   */\n      tag_650\n        /* \"#utility.yul\":20669:20670   */\n      0x00\n        /* \"#utility.yul\":20658:20667   */\n      dup4\n        /* \"#utility.yul\":20654:20671   */\n      add\n        /* \"#utility.yul\":20645:20651   */\n      dup6\n        /* \"#utility.yul\":20601:20672   */\n      tag_561\n      jump\t// in\n    tag_650:\n        /* \"#utility.yul\":20682:20754   */\n      tag_651\n        /* \"#utility.yul\":20750:20752   */\n      0x20\n        /* \"#utility.yul\":20739:20748   */\n      dup4\n        /* \"#utility.yul\":20735:20753   */\n      add\n        /* \"#utility.yul\":20726:20732   */\n      dup5\n        /* \"#utility.yul\":20682:20754   */\n      tag_633\n      jump\t// in\n    tag_651:\n        /* \"#utility.yul\":20429:20761   */\n      swap4\n      swap3\n      pop\n      pop\n      pop\n      jump\t// out\n        /* \"#utility.yul\":20767:20977   */\n    tag_35:\n        /* \"#utility.yul\":20854:20858   */\n      0x00\n        /* \"#utility.yul\":20892:20894   */\n      0x20\n        /* \"#utility.yul\":20881:20890   */\n      dup3\n        /* \"#utility.yul\":20877:20895   */\n      add\n        /* \"#utility.yul\":20869:20895   */\n      swap1\n      pop\n        /* \"#utility.yul\":20905:20970   */\n      tag_653\n        /* \"#utility.yul\":20967:20968   */\n      0x00\n        /* \"#utility.yul\":20956:20965   */\n      dup4\n        /* \"#utility.yul\":20952:20969   */\n      add\n        /* \"#utility.yul\":20943:20949   */\n      dup5\n        /* \"#utility.yul\":20905:20970   */\n      tag_565\n      jump\t// in\n    tag_653:\n        /* \"#utility.yul\":20767:20977   */\n      swap3\n      swap2\n      pop\n      pop\n      jump\t// out\n        /* \"#utility.yul\":20983:21205   */\n    tag_251:\n        /* \"#utility.yul\":21076:21080   */\n      0x00\n        /* \"#utility.yul\":21114:21116   */\n      0x20\n        /* \"#utility.yul\":21103:21112   */\n      dup3\n        /* \"#utility.yul\":21099:21117   */\n      add\n        /* \"#utility.yul\":21091:21117   */\n      swap1\n      pop\n        /* \"#utility.yul\":21127:21198   */\n      tag_655\n        /* \"#utility.yul\":21195:21196   */\n      0x00\n        /* \"#utility.yul\":21184:21193   */\n      dup4\n        /* \"#utility.yul\":21180:21197   */\n      add\n        /* \"#utility.yul\":21171:21177   */\n      dup5\n        /* \"#utility.yul\":21127:21198   */\n      tag_569\n      jump\t// in\n    tag_655:\n        /* \"#utility.yul\":20983:21205   */\n      swap3\n      swap2\n      pop\n      pop\n      jump\t// out\n        /* \"#utility.yul\":21211:21489   */\n    tag_46:\n        /* \"#utility.yul\":21332:21336   */\n      0x00\n        /* \"#utility.yul\":21370:21372   */\n      0x20\n        /* \"#utility.yul\":21359:21368   */\n      dup3\n        /* \"#utility.yul\":21355:21373   */\n      add\n        /* \"#utility.yul\":21347:21373   */\n      swap1\n      pop\n        /* \"#utility.yul\":21383:21482   */\n      tag_657\n        /* \"#utility.yul\":21479:21480   */\n      0x00\n        /* \"#utility.yul\":21468:21477   */\n      dup4\n        /* \"#utility.yul\":21464:21481   */\n      add\n        /* \"#utility.yul\":21455:21461   */\n      dup5\n        /* \"#utility.yul\":21383:21482   */\n      tag_582\n      jump\t// in\n    tag_657:\n        /* \"#utility.yul\":21211:21489   */\n      swap3\n      swap2\n      pop\n      pop\n      jump\t// out\n        /* \"#utility.yul\":21495:21781   */\n    tag_114:\n        /* \"#utility.yul\":21620:21624   */\n      0x00\n        /* \"#utility.yul\":21658:21660   */\n      0x20\n        /* \"#utility.yul\":21647:21656   */\n      dup3\n        /* \"#utility.yul\":21643:21661   */\n      add\n        /* \"#utility.yul\":21635:21661   */\n      swap1\n      pop\n        /* \"#utility.yul\":21671:21774   */\n      tag_659\n        /* \"#utility.yul\":21771:21772   */\n      0x00\n        /* \"#utility.yul\":21760:21769   */\n      dup4\n        /* \"#utility.yul\":21756:21773   */\n      add\n        /* \"#utility.yul\":21747:21753   */\n      dup5\n        /* \"#utility.yul\":21671:21774   */\n      tag_586\n      jump\t// in\n    tag_659:\n        /* \"#utility.yul\":21495:21781   */\n      swap3\n      swap2\n      pop\n      pop\n      jump\t// out\n        /* \"#utility.yul\":21787:22043   */\n    tag_110:\n        /* \"#utility.yul\":21897:21901   */\n      0x00\n        /* \"#utility.yul\":21935:21937   */\n      0x20\n        /* \"#utility.yul\":21924:21933   */\n      dup3\n        /* \"#utility.yul\":21920:21938   */\n      add\n        /* \"#utility.yul\":21912:21938   */\n      swap1\n      pop\n        /* \"#utility.yul\":21948:22036   */\n      tag_661\n        /* \"#utility.yul\":22033:22034   */\n      0x00\n        /* \"#utility.yul\":22022:22031   */\n      dup4\n        /* \"#utility.yul\":22018:22035   */\n      add\n        /* \"#utility.yul\":22009:22015   */\n      dup5\n        /* \"#utility.yul\":21948:22036   */\n      tag_590\n      jump\t// in\n    tag_661:\n        /* \"#utility.yul\":21787:22043   */\n      swap3\n      swap2\n      pop\n      pop\n      jump\t// out\n        /* \"#utility.yul\":22049:22810   */\n    tag_261:\n        /* \"#utility.yul\":22279:22283   */\n      0x00\n        /* \"#utility.yul\":22317:22320   */\n      0x80\n        /* \"#utility.yul\":22306:22315   */\n      dup3\n        /* \"#utility.yul\":22302:22321   */\n      add\n        /* \"#utility.yul\":22294:22321   */\n      swap1\n      pop\n        /* \"#utility.yul\":22331:22419   */\n      tag_663\n        /* \"#utility.yul\":22416:22417   */\n      0x00\n        /* \"#utility.yul\":22405:22414   */\n      dup4\n        /* \"#utility.yul\":22401:22418   */\n      add\n        /* \"#utility.yul\":22392:22398   */\n      dup8\n        /* \"#utility.yul\":22331:22419   */\n      tag_590\n      jump\t// in\n    tag_663:\n        /* \"#utility.yul\":22429:22501   */\n      tag_664\n        /* \"#utility.yul\":22497:22499   */\n      0x20\n        /* \"#utility.yul\":22486:22495   */\n      dup4\n        /* \"#utility.yul\":22482:22500   */\n      add\n        /* \"#utility.yul\":22473:22479   */\n      dup7\n        /* \"#utility.yul\":22429:22501   */\n      tag_633\n      jump\t// in\n    tag_664:\n        /* \"#utility.yul\":22548:22557   */\n      dup2\n        /* \"#utility.yul\":22542:22546   */\n      dup2\n        /* \"#utility.yul\":22538:22558   */\n      sub\n        /* \"#utility.yul\":22533:22535   */\n      0x40\n        /* \"#utility.yul\":22522:22531   */\n      dup4\n        /* \"#utility.yul\":22518:22536   */\n      add\n        /* \"#utility.yul\":22511:22559   */\n      mstore\n        /* \"#utility.yul\":22576:22652   */\n      tag_665\n        /* \"#utility.yul\":22647:22651   */\n      dup2\n        /* \"#utility.yul\":22638:22644   */\n      dup6\n        /* \"#utility.yul\":22576:22652   */\n      tag_573\n      jump\t// in\n    tag_665:\n        /* \"#utility.yul\":22568:22652   */\n      swap1\n      pop\n        /* \"#utility.yul\":22699:22708   */\n      dup2\n        /* \"#utility.yul\":22693:22697   */\n      dup2\n        /* \"#utility.yul\":22689:22709   */\n      sub\n        /* \"#utility.yul\":22684:22686   */\n      0x60\n        /* \"#utility.yul\":22673:22682   */\n      dup4\n        /* \"#utility.yul\":22669:22687   */\n      add\n        /* \"#utility.yul\":22662:22710   */\n      mstore\n        /* \"#utility.yul\":22727:22803   */\n      tag_666\n        /* \"#utility.yul\":22798:22802   */\n      dup2\n        /* \"#utility.yul\":22789:22795   */\n      dup5\n        /* \"#utility.yul\":22727:22803   */\n      tag_573\n      jump\t// in\n    tag_666:\n        /* \"#utility.yul\":22719:22803   */\n      swap1\n      pop\n        /* \"#utility.yul\":22049:22810   */\n      swap6\n      swap5\n      pop\n      pop\n      pop\n      pop\n      pop\n      jump\t// out\n        /* \"#utility.yul\":22816:23100   */\n    tag_95:\n        /* \"#utility.yul\":22940:22944   */\n      0x00\n        /* \"#utility.yul\":22978:22980   */\n      0x20\n        /* \"#utility.yul\":22967:22976   */\n      dup3\n        /* \"#utility.yul\":22963:22981   */\n      add\n        /* \"#utility.yul\":22955:22981   */\n      swap1\n      pop\n        /* \"#utility.yul\":22991:23093   */\n      tag_668\n        /* \"#utility.yul\":23090:23091   */\n      0x00\n        /* \"#utility.yul\":23079:23088   */\n      dup4\n        /* \"#utility.yul\":23075:23092   */\n      add\n        /* \"#utility.yul\":23066:23072   */\n      dup5\n        /* \"#utility.yul\":22991:23093   */\n      tag_594\n      jump\t// in\n    tag_668:\n        /* \"#utility.yul\":22816:23100   */\n      swap3\n      swap2\n      pop\n      pop\n      jump\t// out\n        /* \"#utility.yul\":23106:23525   */\n    tag_351:\n        /* \"#utility.yul\":23272:23276   */\n      0x00\n        /* \"#utility.yul\":23310:23312   */\n      0x20\n        /* \"#utility.yul\":23299:23308   */\n      dup3\n        /* \"#utility.yul\":23295:23313   */\n      add\n        /* \"#utility.yul\":23287:23313   */\n      swap1\n      pop\n        /* \"#utility.yul\":23359:23368   */\n      dup2\n        /* \"#utility.yul\":23353:23357   */\n      dup2\n        /* \"#utility.yul\":23349:23369   */\n      sub\n        /* \"#utility.yul\":23345:23346   */\n      0x00\n        /* \"#utility.yul\":23334:23343   */\n      dup4\n        /* \"#utility.yul\":23330:23347   */\n      add\n        /* \"#utility.yul\":23323:23370   */\n      mstore\n        /* \"#utility.yul\":23387:23518   */\n      tag_670\n        /* \"#utility.yul\":23513:23517   */\n      dup2\n        /* \"#utility.yul\":23387:23518   */\n      tag_598\n      jump\t// in\n    tag_670:\n        /* \"#utility.yul\":23379:23518   */\n      swap1\n      pop\n        /* \"#utility.yul\":23106:23525   */\n      swap2\n      swap1\n      pop\n      jump\t// out\n        /* \"#utility.yul\":23531:23950   */\n    tag_333:\n        /* \"#utility.yul\":23697:23701   */\n      0x00\n        /* \"#utility.yul\":23735:23737   */\n      0x20\n        /* \"#utility.yul\":23724:23733   */\n      dup3\n        /* \"#utility.yul\":23720:23738   */\n      add\n        /* \"#utility.yul\":23712:23738   */\n      swap1\n      pop\n        /* \"#utility.yul\":23784:23793   */\n      dup2\n        /* \"#utility.yul\":23778:23782   */\n      dup2\n        /* \"#utility.yul\":23774:23794   */\n      sub\n        /* \"#utility.yul\":23770:23771   */\n      0x00\n        /* \"#utility.yul\":23759:23768   */\n      dup4\n        /* \"#utility.yul\":23755:23772   */\n      add\n        /* \"#utility.yul\":23748:23795   */\n      mstore\n        /* \"#utility.yul\":23812:23943   */\n      tag_672\n        /* \"#utility.yul\":23938:23942   */\n      dup2\n        /* \"#utility.yul\":23812:23943   */\n      tag_604\n      jump\t// in\n    tag_672:\n        /* \"#utility.yul\":23804:23943   */\n      swap1\n      pop\n        /* \"#utility.yul\":23531:23950   */\n      swap2\n      swap1\n      pop\n      jump\t// out\n        /* \"#utility.yul\":23956:24375   */\n    tag_129:\n        /* \"#utility.yul\":24122:24126   */\n      0x00\n        /* \"#utility.yul\":24160:24162   */\n      0x20\n        /* \"#utility.yul\":24149:24158   */\n      dup3\n        /* \"#utility.yul\":24145:24163   */\n      add\n        /* \"#utility.yul\":24137:24163   */\n      swap1\n      pop\n        /* \"#utility.yul\":24209:24218   */\n      dup2\n        /* \"#utility.yul\":24203:24207   */\n      dup2\n        /* \"#utility.yul\":24199:24219   */\n      sub\n        /* \"#utility.yul\":24195:24196   */\n      0x00\n        /* \"#utility.yul\":24184:24193   */\n      dup4\n        /* \"#utility.yul\":24180:24197   */\n      add\n        /* \"#utility.yul\":24173:24220   */\n      mstore\n        /* \"#utility.yul\":24237:24368   */\n      tag_674\n        /* \"#utility.yul\":24363:24367   */\n      dup2\n        /* \"#utility.yul\":24237:24368   */\n      tag_609\n      jump\t// in\n    tag_674:\n        /* \"#utility.yul\":24229:24368   */\n      swap1\n      pop\n        /* \"#utility.yul\":23956:24375   */\n      swap2\n      swap1\n      pop\n      jump\t// out\n        /* \"#utility.yul\":24381:24800   */\n    tag_356:\n        /* \"#utility.yul\":24547:24551   */\n      0x00\n        /* \"#utility.yul\":24585:24587   */\n      0x20\n        /* \"#utility.yul\":24574:24583   */\n      dup3\n        /* \"#utility.yul\":24570:24588   */\n      add\n        /* \"#utility.yul\":24562:24588   */\n      swap1\n      pop\n        /* \"#utility.yul\":24634:24643   */\n      dup2\n        /* \"#utility.yul\":24628:24632   */\n      dup2\n        /* \"#utility.yul\":24624:24644   */\n      sub\n        /* \"#utility.yul\":24620:24621   */\n      0x00\n        /* \"#utility.yul\":24609:24618   */\n      dup4\n        /* \"#utility.yul\":24605:24622   */\n      add\n        /* \"#utility.yul\":24598:24645   */\n      mstore\n        /* \"#utility.yul\":24662:24793   */\n      tag_676\n        /* \"#utility.yul\":24788:24792   */\n      dup2\n        /* \"#utility.yul\":24662:24793   */\n      tag_614\n      jump\t// in\n    tag_676:\n        /* \"#utility.yul\":24654:24793   */\n      swap1\n      pop\n        /* \"#utility.yul\":24381:24800   */\n      swap2\n      swap1\n      pop\n      jump\t// out\n        /* \"#utility.yul\":24806:25225   */\n    tag_345:\n        /* \"#utility.yul\":24972:24976   */\n      0x00\n        /* \"#utility.yul\":25010:25012   */\n      0x20\n        /* \"#utility.yul\":24999:25008   */\n      dup3\n        /* \"#utility.yul\":24995:25013   */\n      add\n        /* \"#utility.yul\":24987:25013   */\n      swap1\n      pop\n        /* \"#utility.yul\":25059:25068   */\n      dup2\n        /* \"#utility.yul\":25053:25057   */\n      dup2\n        /* \"#utility.yul\":25049:25069   */\n      sub\n        /* \"#utility.yul\":25045:25046   */\n      0x00\n        /* \"#utility.yul\":25034:25043   */\n      dup4\n        /* \"#utility.yul\":25030:25047   */\n      add\n        /* \"#utility.yul\":25023:25070   */\n      mstore\n        /* \"#utility.yul\":25087:25218   */\n      tag_678\n        /* \"#utility.yul\":25213:25217   */\n      dup2\n        /* \"#utility.yul\":25087:25218   */\n      tag_619\n      jump\t// in\n    tag_678:\n        /* \"#utility.yul\":25079:25218   */\n      swap1\n      pop\n        /* \"#utility.yul\":24806:25225   */\n      swap2\n      swap1\n      pop\n      jump\t// out\n        /* \"#utility.yul\":25231:25650   */\n    tag_338:\n        /* \"#utility.yul\":25397:25401   */\n      0x00\n        /* \"#utility.yul\":25435:25437   */\n      0x20\n        /* \"#utility.yul\":25424:25433   */\n      dup3\n        /* \"#utility.yul\":25420:25438   */\n      add\n        /* \"#utility.yul\":25412:25438   */\n      swap1\n      pop\n        /* \"#utility.yul\":25484:25493   */\n      dup2\n        /* \"#utility.yul\":25478:25482   */\n      dup2\n        /* \"#utility.yul\":25474:25494   */\n      sub\n        /* \"#utility.yul\":25470:25471   */\n      0x00\n        /* \"#utility.yul\":25459:25468   */\n      dup4\n        /* \"#utility.yul\":25455:25472   */\n      add\n        /* \"#utility.yul\":25448:25495   */\n      mstore\n        /* \"#utility.yul\":25512:25643   */\n      tag_680\n        /* \"#utility.yul\":25638:25642   */\n      dup2\n        /* \"#utility.yul\":25512:25643   */\n      tag_624\n      jump\t// in\n    tag_680:\n        /* \"#utility.yul\":25504:25643   */\n      swap1\n      pop\n        /* \"#utility.yul\":25231:25650   */\n      swap2\n      swap1\n      pop\n      jump\t// out\n        /* \"#utility.yul\":25656:25874   */\n    tag_74:\n        /* \"#utility.yul\":25747:25751   */\n      0x00\n        /* \"#utility.yul\":25785:25787   */\n      0x20\n        /* \"#utility.yul\":25774:25783   */\n      dup3\n        /* \"#utility.yul\":25770:25788   */\n      add\n        /* \"#utility.yul\":25762:25788   */\n      swap1\n      pop\n        /* \"#utility.yul\":25798:25867   */\n      tag_682\n        /* \"#utility.yul\":25864:25865   */\n      0x00\n        /* \"#utility.yul\":25853:25862   */\n      dup4\n        /* \"#utility.yul\":25849:25866   */\n      add\n        /* \"#utility.yul\":25840:25846   */\n      dup5\n        /* \"#utility.yul\":25798:25867   */\n      tag_629\n      jump\t// in\n    tag_682:\n        /* \"#utility.yul\":25656:25874   */\n      swap3\n      swap2\n      pop\n      pop\n      jump\t// out\n        /* \"#utility.yul\":25880:26102   */\n    tag_237:\n        /* \"#utility.yul\":25973:25977   */\n      0x00\n        /* \"#utility.yul\":26011:26013   */\n      0x20\n        /* \"#utility.yul\":26000:26009   */\n      dup3\n        /* \"#utility.yul\":25996:26014   */\n      add\n        /* \"#utility.yul\":25988:26014   */\n      swap1\n      pop\n        /* \"#utility.yul\":26024:26095   */\n      tag_684\n        /* \"#utility.yul\":26092:26093   */\n      0x00\n        /* \"#utility.yul\":26081:26090   */\n      dup4\n        /* \"#utility.yul\":26077:26094   */\n      add\n        /* \"#utility.yul\":26068:26074   */\n      dup5\n        /* \"#utility.yul\":26024:26095   */\n      tag_633\n      jump\t// in\n    tag_684:\n        /* \"#utility.yul\":25880:26102   */\n      swap3\n      swap2\n      pop\n      pop\n      jump\t// out\n        /* \"#utility.yul\":26108:26237   */\n    tag_364:\n        /* \"#utility.yul\":26142:26148   */\n      0x00\n        /* \"#utility.yul\":26169:26189   */\n      tag_686\n      tag_687\n      jump\t// in\n    tag_686:\n        /* \"#utility.yul\":26159:26189   */\n      swap1\n      pop\n        /* \"#utility.yul\":26198:26231   */\n      tag_688\n        /* \"#utility.yul\":26226:26230   */\n      dup3\n        /* \"#utility.yul\":26218:26224   */\n      dup3\n        /* \"#utility.yul\":26198:26231   */\n      tag_689\n      jump\t// in\n    tag_688:\n        /* \"#utility.yul\":26108:26237   */\n      swap2\n      swap1\n      pop\n      jump\t// out\n        /* \"#utility.yul\":26243:26318   */\n    tag_687:\n        /* \"#utility.yul\":26276:26282   */\n      0x00\n        /* \"#utility.yul\":26309:26311   */\n      0x40\n        /* \"#utility.yul\":26303:26312   */\n      mload\n        /* \"#utility.yul\":26293:26312   */\n      swap1\n      pop\n        /* \"#utility.yul\":26243:26318   */\n      swap1\n      jump\t// out\n        /* \"#utility.yul\":26324:26635   */\n    tag_363:\n        /* \"#utility.yul\":26401:26405   */\n      0x00\n        /* \"#utility.yul\":26491:26509   */\n      0xffffffffffffffff\n        /* \"#utility.yul\":26483:26489   */\n      dup3\n        /* \"#utility.yul\":26480:26510   */\n      gt\n        /* \"#utility.yul\":26477:26533   */\n      iszero\n      tag_692\n      jumpi\n        /* \"#utility.yul\":26513:26531   */\n      tag_693\n      tag_694\n      jump\t// in\n    tag_693:\n        /* \"#utility.yul\":26477:26533   */\n    tag_692:\n        /* \"#utility.yul\":26563:26567   */\n      0x20\n        /* \"#utility.yul\":26555:26561   */\n      dup3\n        /* \"#utility.yul\":26551:26568   */\n      mul\n        /* \"#utility.yul\":26543:26568   */\n      swap1\n      pop\n        /* \"#utility.yul\":26623:26627   */\n      0x20\n        /* \"#utility.yul\":26617:26621   */\n      dup2\n        /* \"#utility.yul\":26613:26628   */\n      add\n        /* \"#utility.yul\":26605:26628   */\n      swap1\n      pop\n        /* \"#utility.yul\":26324:26635   */\n      swap2\n      swap1\n      pop\n      jump\t// out\n        /* \"#utility.yul\":26641:26952   */\n    tag_377:\n        /* \"#utility.yul\":26718:26722   */\n      0x00\n        /* \"#utility.yul\":26808:26826   */\n      0xffffffffffffffff\n        /* \"#utility.yul\":26800:26806   */\n      dup3\n        /* \"#utility.yul\":26797:26827   */\n      gt\n        /* \"#utility.yul\":26794:26850   */\n      iszero\n      tag_696\n      jumpi\n        /* \"#utility.yul\":26830:26848   */\n      tag_697\n      tag_694\n      jump\t// in\n    tag_697:\n        /* \"#utility.yul\":26794:26850   */\n    tag_696:\n        /* \"#utility.yul\":26880:26884   */\n      0x20\n        /* \"#utility.yul\":26872:26878   */\n      dup3\n        /* \"#utility.yul\":26868:26885   */\n      mul\n        /* \"#utility.yul\":26860:26885   */\n      swap1\n      pop\n        /* \"#utility.yul\":26940:26944   */\n      0x20\n        /* \"#utility.yul\":26934:26938   */\n      dup2\n        /* \"#utility.yul\":26930:26945   */\n      add\n        /* \"#utility.yul\":26922:26945   */\n      swap1\n      pop\n        /* \"#utility.yul\":26641:26952   */\n      swap2\n      swap1\n      pop\n      jump\t// out\n        /* \"#utility.yul\":26958:27265   */\n    tag_389:\n        /* \"#utility.yul\":27019:27023   */\n      0x00\n        /* \"#utility.yul\":27109:27127   */\n      0xffffffffffffffff\n        /* \"#utility.yul\":27101:27107   */\n      dup3\n        /* \"#utility.yul\":27098:27128   */\n      gt\n        /* \"#utility.yul\":27095:27151   */\n      iszero\n      tag_699\n      jumpi\n        /* \"#utility.yul\":27131:27149   */\n      tag_700\n      tag_694\n      jump\t// in\n    tag_700:\n        /* \"#utility.yul\":27095:27151   */\n    tag_699:\n        /* \"#utility.yul\":27169:27198   */\n      tag_701\n        /* \"#utility.yul\":27191:27197   */\n      dup3\n        /* \"#utility.yul\":27169:27198   */\n      tag_581\n      jump\t// in\n    tag_701:\n        /* \"#utility.yul\":27161:27198   */\n      swap1\n      pop\n        /* \"#utility.yul\":27253:27257   */\n      0x20\n        /* \"#utility.yul\":27247:27251   */\n      dup2\n        /* \"#utility.yul\":27243:27258   */\n      add\n        /* \"#utility.yul\":27235:27258   */\n      swap1\n      pop\n        /* \"#utility.yul\":26958:27265   */\n      swap2\n      swap1\n      pop\n      jump\t// out\n        /* \"#utility.yul\":27271:27579   */\n    tag_399:\n        /* \"#utility.yul\":27333:27337   */\n      0x00\n        /* \"#utility.yul\":27423:27441   */\n      0xffffffffffffffff\n        /* \"#utility.yul\":27415:27421   */\n      dup3\n        /* \"#utility.yul\":27412:27442   */\n      gt\n        /* \"#utility.yul\":27409:27465   */\n      iszero\n      tag_703\n      jumpi\n        /* \"#utility.yul\":27445:27463   */\n      tag_704\n      tag_694\n      jump\t// in\n    tag_704:\n        /* \"#utility.yul\":27409:27465   */\n    tag_703:\n        /* \"#utility.yul\":27483:27512   */\n      tag_705\n        /* \"#utility.yul\":27505:27511   */\n      dup3\n        /* \"#utility.yul\":27483:27512   */\n      tag_581\n      jump\t// in\n    tag_705:\n        /* \"#utility.yul\":27475:27512   */\n      swap1\n      pop\n        /* \"#utility.yul\":27567:27571   */\n      0x20\n        /* \"#utility.yul\":27561:27565   */\n      dup2\n        /* \"#utility.yul\":27557:27572   */\n      add\n        /* \"#utility.yul\":27549:27572   */\n      swap1\n      pop\n        /* \"#utility.yul\":27271:27579   */\n      swap2\n      swap1\n      pop\n      jump\t// out\n        /* \"#utility.yul\":27585:27683   */\n    tag_576:\n        /* \"#utility.yul\":27636:27642   */\n      0x00\n        /* \"#utility.yul\":27670:27675   */\n      dup2\n        /* \"#utility.yul\":27664:27676   */\n      mload\n        /* \"#utility.yul\":27654:27676   */\n      swap1\n      pop\n        /* \"#utility.yul\":27585:27683   */\n      swap2\n      swap1\n      pop\n      jump\t// out\n        /* \"#utility.yul\":27689:27857   */\n    tag_578:\n        /* \"#utility.yul\":27772:27783   */\n      0x00\n        /* \"#utility.yul\":27806:27812   */\n      dup3\n        /* \"#utility.yul\":27801:27804   */\n      dup3\n        /* \"#utility.yul\":27794:27813   */\n      mstore\n        /* \"#utility.yul\":27846:27850   */\n      0x20\n        /* \"#utility.yul\":27841:27844   */\n      dup3\n        /* \"#utility.yul\":27837:27851   */\n      add\n        /* \"#utility.yul\":27822:27851   */\n      swap1\n      pop\n        /* \"#utility.yul\":27689:27857   */\n      swap3\n      swap2\n      pop\n      pop\n      jump\t// out\n        /* \"#utility.yul\":27863:28032   */\n    tag_601:\n        /* \"#utility.yul\":27947:27958   */\n      0x00\n        /* \"#utility.yul\":27981:27987   */\n      dup3\n        /* \"#utility.yul\":27976:27979   */\n      dup3\n        /* \"#utility.yul\":27969:27988   */\n      mstore\n        /* \"#utility.yul\":28021:28025   */\n      0x20\n        /* \"#utility.yul\":28016:28019   */\n      dup3\n        /* \"#utility.yul\":28012:28026   */\n      add\n        /* \"#utility.yul\":27997:28026   */\n      swap1\n      pop\n        /* \"#utility.yul\":27863:28032   */\n      swap3\n      swap2\n      pop\n      pop\n      jump\t// out\n        /* \"#utility.yul\":28038:28229   */\n    tag_271:\n        /* \"#utility.yul\":28078:28082   */\n      0x00\n        /* \"#utility.yul\":28098:28118   */\n      tag_710\n        /* \"#utility.yul\":28116:28117   */\n      dup3\n        /* \"#utility.yul\":28098:28118   */\n      tag_636\n      jump\t// in\n    tag_710:\n        /* \"#utility.yul\":28093:28118   */\n      swap2\n      pop\n        /* \"#utility.yul\":28132:28152   */\n      tag_711\n        /* \"#utility.yul\":28150:28151   */\n      dup4\n        /* \"#utility.yul\":28132:28152   */\n      tag_636\n      jump\t// in\n    tag_711:\n        /* \"#utility.yul\":28127:28152   */\n      swap3\n      pop\n        /* \"#utility.yul\":28171:28172   */\n      dup3\n        /* \"#utility.yul\":28168:28169   */\n      dup3\n        /* \"#utility.yul\":28165:28173   */\n      lt\n        /* \"#utility.yul\":28162:28196   */\n      iszero\n      tag_712\n      jumpi\n        /* \"#utility.yul\":28176:28194   */\n      tag_713\n      tag_714\n      jump\t// in\n    tag_713:\n        /* \"#utility.yul\":28162:28196   */\n    tag_712:\n        /* \"#utility.yul\":28221:28222   */\n      dup3\n        /* \"#utility.yul\":28218:28219   */\n      dup3\n        /* \"#utility.yul\":28214:28223   */\n      sub\n        /* \"#utility.yul\":28206:28223   */\n      swap1\n      pop\n        /* \"#utility.yul\":28038:28229   */\n      swap3\n      swap2\n      pop\n      pop\n      jump\t// out\n        /* \"#utility.yul\":28235:28331   */\n    tag_564:\n        /* \"#utility.yul\":28272:28279   */\n      0x00\n        /* \"#utility.yul\":28301:28325   */\n      tag_716\n        /* \"#utility.yul\":28319:28324   */\n      dup3\n        /* \"#utility.yul\":28301:28325   */\n      tag_717\n      jump\t// in\n    tag_716:\n        /* \"#utility.yul\":28290:28325   */\n      swap1\n      pop\n        /* \"#utility.yul\":28235:28331   */\n      swap2\n      swap1\n      pop\n      jump\t// out\n        /* \"#utility.yul\":28337:28427   */\n    tag_568:\n        /* \"#utility.yul\":28371:28378   */\n      0x00\n        /* \"#utility.yul\":28414:28419   */\n      dup2\n        /* \"#utility.yul\":28407:28420   */\n      iszero\n        /* \"#utility.yul\":28400:28421   */\n      iszero\n        /* \"#utility.yul\":28389:28421   */\n      swap1\n      pop\n        /* \"#utility.yul\":28337:28427   */\n      swap2\n      swap1\n      pop\n      jump\t// out\n        /* \"#utility.yul\":28433:28510   */\n    tag_572:\n        /* \"#utility.yul\":28470:28477   */\n      0x00\n        /* \"#utility.yul\":28499:28504   */\n      dup2\n        /* \"#utility.yul\":28488:28504   */\n      swap1\n      pop\n        /* \"#utility.yul\":28433:28510   */\n      swap2\n      swap1\n      pop\n      jump\t// out\n        /* \"#utility.yul\":28516:28629   */\n    tag_720:\n        /* \"#utility.yul\":28570:28577   */\n      0x00\n        /* \"#utility.yul\":28599:28623   */\n      tag_722\n        /* \"#utility.yul\":28617:28622   */\n      dup3\n        /* \"#utility.yul\":28599:28623   */\n      tag_564\n      jump\t// in\n    tag_722:\n        /* \"#utility.yul\":28588:28623   */\n      swap1\n      pop\n        /* \"#utility.yul\":28516:28629   */\n      swap2\n      swap1\n      pop\n      jump\t// out\n        /* \"#utility.yul\":28635:28724   */\n    tag_632:\n        /* \"#utility.yul\":28671:28678   */\n      0x00\n        /* \"#utility.yul\":28711:28717   */\n      0xffff\n        /* \"#utility.yul\":28704:28709   */\n      dup3\n        /* \"#utility.yul\":28700:28718   */\n      and\n        /* \"#utility.yul\":28689:28718   */\n      swap1\n      pop\n        /* \"#utility.yul\":28635:28724   */\n      swap2\n      swap1\n      pop\n      jump\t// out\n        /* \"#utility.yul\":28730:28856   */\n    tag_717:\n        /* \"#utility.yul\":28767:28774   */\n      0x00\n        /* \"#utility.yul\":28807:28849   */\n      0xffffffffffffffffffffffffffffffffffffffff\n        /* \"#utility.yul\":28800:28805   */\n      dup3\n        /* \"#utility.yul\":28796:28850   */\n      and\n        /* \"#utility.yul\":28785:28850   */\n      swap1\n      pop\n        /* \"#utility.yul\":28730:28856   */\n      swap2\n      swap1\n      pop\n      jump\t// out\n        /* \"#utility.yul\":28862:28939   */\n    tag_636:\n        /* \"#utility.yul\":28899:28906   */\n      0x00\n        /* \"#utility.yul\":28928:28933   */\n      dup2\n        /* \"#utility.yul\":28917:28933   */\n      swap1\n      pop\n        /* \"#utility.yul\":28862:28939   */\n      swap2\n      swap1\n      pop\n      jump\t// out\n        /* \"#utility.yul\":28945:29099   */\n    tag_585:\n        /* \"#utility.yul\":29023:29032   */\n      0x00\n        /* \"#utility.yul\":29056:29093   */\n      tag_727\n        /* \"#utility.yul\":29087:29092   */\n      dup3\n        /* \"#utility.yul\":29056:29093   */\n      tag_728\n      jump\t// in\n    tag_727:\n        /* \"#utility.yul\":29043:29093   */\n      swap1\n      pop\n        /* \"#utility.yul\":28945:29099   */\n      swap2\n      swap1\n      pop\n      jump\t// out\n        /* \"#utility.yul\":29105:29263   */\n    tag_589:\n        /* \"#utility.yul\":29187:29196   */\n      0x00\n        /* \"#utility.yul\":29220:29257   */\n      tag_730\n        /* \"#utility.yul\":29251:29256   */\n      dup3\n        /* \"#utility.yul\":29220:29257   */\n      tag_728\n      jump\t// in\n    tag_730:\n        /* \"#utility.yul\":29207:29257   */\n      swap1\n      pop\n        /* \"#utility.yul\":29105:29263   */\n      swap2\n      swap1\n      pop\n      jump\t// out\n        /* \"#utility.yul\":29269:29412   */\n    tag_593:\n        /* \"#utility.yul\":29336:29345   */\n      0x00\n        /* \"#utility.yul\":29369:29406   */\n      tag_732\n        /* \"#utility.yul\":29400:29405   */\n      dup3\n        /* \"#utility.yul\":29369:29406   */\n      tag_728\n      jump\t// in\n    tag_732:\n        /* \"#utility.yul\":29356:29406   */\n      swap1\n      pop\n        /* \"#utility.yul\":29269:29412   */\n      swap2\n      swap1\n      pop\n      jump\t// out\n        /* \"#utility.yul\":29418:29575   */\n    tag_597:\n        /* \"#utility.yul\":29499:29508   */\n      0x00\n        /* \"#utility.yul\":29532:29569   */\n      tag_734\n        /* \"#utility.yul\":29563:29568   */\n      dup3\n        /* \"#utility.yul\":29532:29569   */\n      tag_728\n      jump\t// in\n    tag_734:\n        /* \"#utility.yul\":29519:29569   */\n      swap1\n      pop\n        /* \"#utility.yul\":29418:29575   */\n      swap2\n      swap1\n      pop\n      jump\t// out\n        /* \"#utility.yul\":29581:29707   */\n    tag_728:\n        /* \"#utility.yul\":29631:29640   */\n      0x00\n        /* \"#utility.yul\":29664:29701   */\n      tag_736\n        /* \"#utility.yul\":29695:29700   */\n      dup3\n        /* \"#utility.yul\":29664:29701   */\n      tag_737\n      jump\t// in\n    tag_736:\n        /* \"#utility.yul\":29651:29701   */\n      swap1\n      pop\n        /* \"#utility.yul\":29581:29707   */\n      swap2\n      swap1\n      pop\n      jump\t// out\n        /* \"#utility.yul\":29713:29826   */\n    tag_737:\n        /* \"#utility.yul\":29763:29772   */\n      0x00\n        /* \"#utility.yul\":29796:29820   */\n      tag_739\n        /* \"#utility.yul\":29814:29819   */\n      dup3\n        /* \"#utility.yul\":29796:29820   */\n      tag_717\n      jump\t// in\n    tag_739:\n        /* \"#utility.yul\":29783:29820   */\n      swap1\n      pop\n        /* \"#utility.yul\":29713:29826   */\n      swap2\n      swap1\n      pop\n      jump\t// out\n        /* \"#utility.yul\":29832:30139   */\n    tag_394:\n        /* \"#utility.yul\":29900:29901   */\n      0x00\n        /* \"#utility.yul\":29910:30023   */\n    tag_741:\n        /* \"#utility.yul\":29924:29930   */\n      dup4\n        /* \"#utility.yul\":29921:29922   */\n      dup2\n        /* \"#utility.yul\":29918:29931   */\n      lt\n        /* \"#utility.yul\":29910:30023   */\n      iszero\n      tag_743\n      jumpi\n        /* \"#utility.yul\":30009:30010   */\n      dup1\n        /* \"#utility.yul\":30004:30007   */\n      dup3\n        /* \"#utility.yul\":30000:30011   */\n      add\n        /* \"#utility.yul\":29994:30012   */\n      mload\n        /* \"#utility.yul\":29990:29991   */\n      dup2\n        /* \"#utility.yul\":29985:29988   */\n      dup5\n        /* \"#utility.yul\":29981:29992   */\n      add\n        /* \"#utility.yul\":29974:30013   */\n      mstore\n        /* \"#utility.yul\":29946:29948   */\n      0x20\n        /* \"#utility.yul\":29943:29944   */\n      dup2\n        /* \"#utility.yul\":29939:29949   */\n      add\n        /* \"#utility.yul\":29934:29949   */\n      swap1\n      pop\n        /* \"#utility.yul\":29910:30023   */\n      jump(tag_741)\n    tag_743:\n        /* \"#utility.yul\":30041:30047   */\n      dup4\n        /* \"#utility.yul\":30038:30039   */\n      dup2\n        /* \"#utility.yul\":30035:30048   */\n      gt\n        /* \"#utility.yul\":30032:30133   */\n      iszero\n      tag_744\n      jumpi\n        /* \"#utility.yul\":30121:30122   */\n      0x00\n        /* \"#utility.yul\":30112:30118   */\n      dup5\n        /* \"#utility.yul\":30107:30110   */\n      dup5\n        /* \"#utility.yul\":30103:30119   */\n      add\n        /* \"#utility.yul\":30096:30123   */\n      mstore\n        /* \"#utility.yul\":30032:30133   */\n    tag_744:\n        /* \"#utility.yul\":29881:30139   */\n      pop\n        /* \"#utility.yul\":29832:30139   */\n      pop\n      pop\n      pop\n      jump\t// out\n        /* \"#utility.yul\":30145:30426   */\n    tag_689:\n        /* \"#utility.yul\":30228:30255   */\n      tag_746\n        /* \"#utility.yul\":30250:30254   */\n      dup3\n        /* \"#utility.yul\":30228:30255   */\n      tag_581\n      jump\t// in\n    tag_746:\n        /* \"#utility.yul\":30220:30226   */\n      dup2\n        /* \"#utility.yul\":30216:30256   */\n      add\n        /* \"#utility.yul\":30358:30364   */\n      dup2\n        /* \"#utility.yul\":30346:30356   */\n      dup2\n        /* \"#utility.yul\":30343:30365   */\n      lt\n        /* \"#utility.yul\":30322:30340   */\n      0xffffffffffffffff\n        /* \"#utility.yul\":30310:30320   */\n      dup3\n        /* \"#utility.yul\":30307:30341   */\n      gt\n        /* \"#utility.yul\":30304:30366   */\n      or\n        /* \"#utility.yul\":30301:30389   */\n      iszero\n      tag_747\n      jumpi\n        /* \"#utility.yul\":30369:30387   */\n      tag_748\n      tag_694\n      jump\t// in\n    tag_748:\n        /* \"#utility.yul\":30301:30389   */\n    tag_747:\n        /* \"#utility.yul\":30409:30419   */\n      dup1\n        /* \"#utility.yul\":30405:30407   */\n      0x40\n        /* \"#utility.yul\":30398:30420   */\n      mstore\n        /* \"#utility.yul\":30188:30426   */\n      pop\n        /* \"#utility.yul\":30145:30426   */\n      pop\n      pop\n      jump\t// out\n        /* \"#utility.yul\":30432:30665   */\n    tag_172:\n        /* \"#utility.yul\":30471:30474   */\n      0x00\n        /* \"#utility.yul\":30494:30518   */\n      tag_750\n        /* \"#utility.yul\":30512:30517   */\n      dup3\n        /* \"#utility.yul\":30494:30518   */\n      tag_636\n      jump\t// in\n    tag_750:\n        /* \"#utility.yul\":30485:30518   */\n      swap2\n      pop\n        /* \"#utility.yul\":30540:30606   */\n      0xffffffffffffffffffffffffffffffffffffffffffffffffffffffffffffffff\n        /* \"#utility.yul\":30533:30538   */\n      dup3\n        /* \"#utility.yul\":30530:30607   */\n      eq\n        /* \"#utility.yul\":30527:30630   */\n      iszero\n      tag_751\n      jumpi\n        /* \"#utility.yul\":30610:30628   */\n      tag_752\n      tag_714\n      jump\t// in\n    tag_752:\n        /* \"#utility.yul\":30527:30630   */\n    tag_751:\n        /* \"#utility.yul\":30657:30658   */\n      0x01\n        /* \"#utility.yul\":30650:30655   */\n      dup3\n        /* \"#utility.yul\":30646:30659   */\n      add\n        /* \"#utility.yul\":30639:30659   */\n      swap1\n      pop\n        /* \"#utility.yul\":30432:30665   */\n      swap2\n      swap1\n      pop\n      jump\t// out\n        /* \"#utility.yul\":30671:30851   */\n    tag_714:\n        /* \"#utility.yul\":30719:30796   */\n      0x4e487b7100000000000000000000000000000000000000000000000000000000\n        /* \"#utility.yul\":30716:30717   */\n      0x00\n        /* \"#utility.yul\":30709:30797   */\n      mstore\n        /* \"#utility.yul\":30816:30820   */\n      0x11\n        /* \"#utility.yul\":30813:30814   */\n      0x04\n        /* \"#utility.yul\":30806:30821   */\n      mstore\n        /* \"#utility.yul\":30840:30844   */\n      0x24\n        /* \"#utility.yul\":30837:30838   */\n      0x00\n        /* \"#utility.yul\":30830:30845   */\n      revert\n        /* \"#utility.yul\":30857:31037   */\n    tag_161:\n        /* \"#utility.yul\":30905:30982   */\n      0x4e487b7100000000000000000000000000000000000000000000000000000000\n        /* \"#utility.yul\":30902:30903   */\n      0x00\n        /* \"#utility.yul\":30895:30983   */\n      mstore\n        /* \"#utility.yul\":31002:31006   */\n      0x32\n        /* \"#utility.yul\":30999:31000   */\n      0x04\n        /* \"#utility.yul\":30992:31007   */\n      mstore\n        /* \"#utility.yul\":31026:31030   */\n      0x24\n        /* \"#utility.yul\":31023:31024   */\n      0x00\n        /* \"#utility.yul\":31016:31031   */\n      revert\n        /* \"#utility.yul\":31043:31223   */\n    tag_694:\n        /* \"#utility.yul\":31091:31168   */\n      0x4e487b7100000000000000000000000000000000000000000000000000000000\n        /* \"#utility.yul\":31088:31089   */\n      0x00\n        /* \"#utility.yul\":31081:31169   */\n      mstore\n        /* \"#utility.yul\":31188:31192   */\n      0x41\n        /* \"#utility.yul\":31185:31186   */\n      0x04\n        /* \"#utility.yul\":31178:31193   */\n      mstore\n        /* \"#utility.yul\":31212:31216   */\n      0x24\n        /* \"#utility.yul\":31209:31210   */\n      0x00\n        /* \"#utility.yul\":31202:31217   */\n      revert\n        /* \"#utility.yul\":31229:31346   */\n    tag_417:\n        /* \"#utility.yul\":31338:31339   */\n      0x00\n        /* \"#utility.yul\":31335:31336   */\n      dup1\n        /* \"#utility.yul\":31328:31340   */\n      revert\n        /* \"#utility.yul\":31352:31469   */\n    tag_414:\n        /* \"#utility.yul\":31461:31462   */\n      0x00\n        /* \"#utility.yul\":31458:31459   */\n      dup1\n        /* \"#utility.yul\":31451:31463   */\n      revert\n        /* \"#utility.yul\":31475:31592   */\n    tag_367:\n        /* \"#utility.yul\":31584:31585   */\n      0x00\n        /* \"#utility.yul\":31581:31582   */\n      dup1\n        /* \"#utility.yul\":31574:31586   */\n      revert\n        /* \"#utility.yul\":31598:31715   */\n    tag_392:\n        /* \"#utility.yul\":31707:31708   */\n      0x00\n        /* \"#utility.yul\":31704:31705   */\n      dup1\n        /* \"#utility.yul\":31697:31709   */\n      revert\n        /* \"#utility.yul\":31721:31838   */\n    tag_506:\n        /* \"#utility.yul\":31830:31831   */\n      0x00\n        /* \"#utility.yul\":31827:31828   */\n      dup1\n        /* \"#utility.yul\":31820:31832   */\n      revert\n        /* \"#utility.yul\":31844:31961   */\n    tag_483:\n        /* \"#utility.yul\":31953:31954   */\n      0x00\n        /* \"#utility.yul\":31950:31951   */\n      dup1\n        /* \"#utility.yul\":31943:31955   */\n      revert\n        /* \"#utility.yul\":31967:32069   */\n    tag_581:\n        /* \"#utility.yul\":32008:32014   */\n      0x00\n        /* \"#utility.yul\":32059:32061   */\n      0x1f\n        /* \"#utility.yul\":32055:32062   */\n      not\n        /* \"#utility.yul\":32050:32052   */\n      0x1f\n        /* \"#utility.yul\":32043:32048   */\n      dup4\n        /* \"#utility.yul\":32039:32053   */\n      add\n        /* \"#utility.yul\":32035:32063   */\n      and\n        /* \"#utility.yul\":32025:32063   */\n      swap1\n      pop\n        /* \"#utility.yul\":31967:32069   */\n      swap2\n      swap1\n      pop\n      jump\t// out\n        /* \"#utility.yul\":32075:32256   */\n    tag_603:\n        /* \"#utility.yul\":32215:32248   */\n      0x526f6c65733a206163636f756e7420616c72656164792068617320726f6c6500\n        /* \"#utility.yul\":32211:32212   */\n      0x00\n        /* \"#utility.yul\":32203:32209   */\n      dup3\n        /* \"#utility.yul\":32199:32213   */\n      add\n        /* \"#utility.yul\":32192:32249   */\n      mstore\n        /* \"#utility.yul\":32075:32256   */\n      pop\n      jump\t// out\n        /* \"#utility.yul\":32262:32487   */\n    tag_608:\n        /* \"#utility.yul\":32402:32436   */\n      0x4f776e61626c653a206e6577206f776e657220697320746865207a65726f2061\n        /* \"#utility.yul\":32398:32399   */\n      0x00\n        /* \"#utility.yul\":32390:32396   */\n      dup3\n        /* \"#utility.yul\":32386:32400   */\n      add\n        /* \"#utility.yul\":32379:32437   */\n      mstore\n        /* \"#utility.yul\":32471:32479   */\n      0x6464726573730000000000000000000000000000000000000000000000000000\n        /* \"#utility.yul\":32466:32468   */\n      0x20\n        /* \"#utility.yul\":32458:32464   */\n      dup3\n        /* \"#utility.yul\":32454:32469   */\n      add\n        /* \"#utility.yul\":32447:32480   */\n      mstore\n        /* \"#utility.yul\":32262:32487   */\n      pop\n      jump\t// out\n        /* \"#utility.yul\":32493:32726   */\n    tag_613:\n        /* \"#utility.yul\":32633:32667   */\n      0x4167656e74526f6c653a2063616c6c657220646f6573206e6f74206861766520\n        /* \"#utility.yul\":32629:32630   */\n      0x00\n        /* \"#utility.yul\":32621:32627   */\n      dup3\n        /* \"#utility.yul\":32617:32631   */\n      add\n        /* \"#utility.yul\":32610:32668   */\n      mstore\n        /* \"#utility.yul\":32702:32718   */\n      0x746865204167656e7420726f6c65000000000000000000000000000000000000\n        /* \"#utility.yul\":32697:32699   */\n      0x20\n        /* \"#utility.yul\":32689:32695   */\n      dup3\n        /* \"#utility.yul\":32685:32700   */\n      add\n        /* \"#utility.yul\":32678:32719   */\n      mstore\n        /* \"#utility.yul\":32493:32726   */\n      pop\n      jump\t// out\n        /* \"#utility.yul\":32732:32952   */\n    tag_618:\n        /* \"#utility.yul\":32872:32906   */\n      0x526f6c65733a206163636f756e7420646f6573206e6f74206861766520726f6c\n        /* \"#utility.yul\":32868:32869   */\n      0x00\n        /* \"#utility.yul\":32860:32866   */\n      dup3\n        /* \"#utility.yul\":32856:32870   */\n      add\n        /* \"#utility.yul\":32849:32907   */\n      mstore\n        /* \"#utility.yul\":32941:32944   */\n      0x6500000000000000000000000000000000000000000000000000000000000000\n        /* \"#utility.yul\":32936:32938   */\n      0x20\n        /* \"#utility.yul\":32928:32934   */\n      dup3\n        /* \"#utility.yul\":32924:32939   */\n      add\n        /* \"#utility.yul\":32917:32945   */\n      mstore\n        /* \"#utility.yul\":32732:32952   */\n      pop\n      jump\t// out\n        /* \"#utility.yul\":32958:33140   */\n    tag_623:\n        /* \"#utility.yul\":33098:33132   */\n      0x4f776e61626c653a2063616c6c6572206973206e6f7420746865206f776e6572\n        /* \"#utility.yul\":33094:33095   */\n      0x00\n        /* \"#utility.yul\":33086:33092   */\n      dup3\n        /* \"#utility.yul\":33082:33096   */\n      add\n        /* \"#utility.yul\":33075:33133   */\n      mstore\n        /* \"#utility.yul\":32958:33140   */\n      pop\n      jump\t// out\n        /* \"#utility.yul\":33146:33367   */\n    tag_628:\n        /* \"#utility.yul\":33286:33320   */\n      0x526f6c65733a206163636f756e7420697320746865207a65726f206164647265\n        /* \"#utility.yul\":33282:33283   */\n      0x00\n        /* \"#utility.yul\":33274:33280   */\n      dup3\n        /* \"#utility.yul\":33270:33284   */\n      add\n        /* \"#utility.yul\":33263:33321   */\n      mstore\n        /* \"#utility.yul\":33355:33359   */\n      0x7373000000000000000000000000000000000000000000000000000000000000\n        /* \"#utility.yul\":33350:33352   */\n      0x20\n        /* \"#utility.yul\":33342:33348   */\n      dup3\n        /* \"#utility.yul\":33338:33353   */\n      add\n        /* \"#utility.yul\":33331:33360   */\n      mstore\n        /* \"#utility.yul\":33146:33367   */\n      pop\n      jump\t// out\n        /* \"#utility.yul\":33373:33495   */\n    tag_406:\n        /* \"#utility.yul\":33446:33470   */\n      tag_770\n        /* \"#utility.yul\":33464:33469   */\n      dup2\n        /* \"#utility.yul\":33446:33470   */\n      tag_564\n      jump\t// in\n    tag_770:\n        /* \"#utility.yul\":33439:33444   */\n      dup2\n        /* \"#utility.yul\":33436:33471   */\n      eq\n        /* \"#utility.yul\":33426:33489   */\n      tag_771\n      jumpi\n        /* \"#utility.yul\":33485:33486   */\n      0x00\n        /* \"#utility.yul\":33482:33483   */\n      dup1\n        /* \"#utility.yul\":33475:33487   */\n      revert\n        /* \"#utility.yul\":33426:33489   */\n    tag_771:\n        /* \"#utility.yul\":33373:33495   */\n      pop\n      jump\t// out\n        /* \"#utility.yul\":33501:33617   */\n    tag_449:\n        /* \"#utility.yul\":33571:33592   */\n      tag_773\n        /* \"#utility.yul\":33586:33591   */\n      dup2\n        /* \"#utility.yul\":33571:33592   */\n      tag_568\n      jump\t// in\n    tag_773:\n        /* \"#utility.yul\":33564:33569   */\n      dup2\n        /* \"#utility.yul\":33561:33593   */\n      eq\n        /* \"#utility.yul\":33551:33611   */\n      tag_774\n      jumpi\n        /* \"#utility.yul\":33607:33608   */\n      0x00\n        /* \"#utility.yul\":33604:33605   */\n      dup1\n        /* \"#utility.yul\":33597:33609   */\n      revert\n        /* \"#utility.yul\":33551:33611   */\n    tag_774:\n        /* \"#utility.yul\":33501:33617   */\n      pop\n      jump\t// out\n        /* \"#utility.yul\":33623:33745   */\n    tag_452:\n        /* \"#utility.yul\":33696:33720   */\n      tag_776\n        /* \"#utility.yul\":33714:33719   */\n      dup2\n        /* \"#utility.yul\":33696:33720   */\n      tag_572\n      jump\t// in\n    tag_776:\n        /* \"#utility.yul\":33689:33694   */\n      dup2\n        /* \"#utility.yul\":33686:33721   */\n      eq\n        /* \"#utility.yul\":33676:33739   */\n      tag_777\n      jumpi\n        /* \"#utility.yul\":33735:33736   */\n      0x00\n        /* \"#utility.yul\":33732:33733   */\n      dup1\n        /* \"#utility.yul\":33725:33737   */\n      revert\n        /* \"#utility.yul\":33676:33739   */\n    tag_777:\n        /* \"#utility.yul\":33623:33745   */\n      pop\n      jump\t// out\n        /* \"#utility.yul\":33751:33907   */\n    tag_461:\n        /* \"#utility.yul\":33841:33882   */\n      tag_779\n        /* \"#utility.yul\":33876:33881   */\n      dup2\n        /* \"#utility.yul\":33841:33882   */\n      tag_720\n      jump\t// in\n    tag_779:\n        /* \"#utility.yul\":33834:33839   */\n      dup2\n        /* \"#utility.yul\":33831:33883   */\n      eq\n        /* \"#utility.yul\":33821:33901   */\n      tag_780\n      jumpi\n        /* \"#utility.yul\":33897:33898   */\n      0x00\n        /* \"#utility.yul\":33894:33895   */\n      dup1\n        /* \"#utility.yul\":33887:33899   */\n      revert\n        /* \"#utility.yul\":33821:33901   */\n    tag_780:\n        /* \"#utility.yul\":33751:33907   */\n      pop\n      jump\t// out\n        /* \"#utility.yul\":33913:34033   */\n    tag_473:\n        /* \"#utility.yul\":33985:34008   */\n      tag_782\n        /* \"#utility.yul\":34002:34007   */\n      dup2\n        /* \"#utility.yul\":33985:34008   */\n      tag_632\n      jump\t// in\n    tag_782:\n        /* \"#utility.yul\":33978:33983   */\n      dup2\n        /* \"#utility.yul\":33975:34009   */\n      eq\n        /* \"#utility.yul\":33965:34027   */\n      tag_783\n      jumpi\n        /* \"#utility.yul\":34023:34024   */\n      0x00\n        /* \"#utility.yul\":34020:34021   */\n      dup1\n        /* \"#utility.yul\":34013:34025   */\n      revert\n        /* \"#utility.yul\":33965:34027   */\n    tag_783:\n        /* \"#utility.yul\":33913:34033   */\n      pop\n      jump\t// out\n        /* \"#utility.yul\":34039:34161   */\n    tag_479:\n        /* \"#utility.yul\":34112:34136   */\n      tag_785\n        /* \"#utility.yul\":34130:34135   */\n      dup2\n        /* \"#utility.yul\":34112:34136   */\n      tag_636\n      jump\t// in\n    tag_785:\n        /* \"#utility.yul\":34105:34110   */\n      dup2\n        /* \"#utility.yul\":34102:34137   */\n      eq\n        /* \"#utility.yul\":34092:34155   */\n      tag_786\n      jumpi\n        /* \"#utility.yul\":34151:34152   */\n      0x00\n        /* \"#utility.yul\":34148:34149   */\n      dup1\n        /* \"#utility.yul\":34141:34153   */\n      revert\n        /* \"#utility.yul\":34092:34155   */\n    tag_786:\n        /* \"#utility.yul\":34039:34161   */\n      pop\n      jump\t// out\n\n    auxdata: 0xa2646970667358221220e36094bf73cb98cb3780119b4522372ae114eb5226472716fbea203f15a5d3a064736f6c63430008070033\n}\n",
				"bytecode": {
					"linkReferences": {},
					"object": "60806040523480156200001157600080fd5b5060405162002fdc38038062002fdc8339818101604052810190620000379190620002cf565b620000576200004b620001ec60201b60201c565b620001f460201b60201c565b81600260006101000a81548173ffffffffffffffffffffffffffffffffffffffff021916908373ffffffffffffffffffffffffffffffffffffffff16021790555082600360006101000a81548173ffffffffffffffffffffffffffffffffffffffff021916908373ffffffffffffffffffffffffffffffffffffffff16021790555080600460006101000a81548173ffffffffffffffffffffffffffffffffffffffff021916908373ffffffffffffffffffffffffffffffffffffffff1602179055508173ffffffffffffffffffffffffffffffffffffffff167f7170bf15b246e880b2369cd7c67d057760d8a35149e8c64dde91efa22bcc76d060405160405180910390a28273ffffffffffffffffffffffffffffffffffffffff167f1b98cb79e6f73020175fe87333f1b91ad6a881519c0afe30340c2599b2b4bde060405160405180910390a28073ffffffffffffffffffffffffffffffffffffffff167f2fa8b95c1db7afe99e3398f3792f008135cedc1fa26b0bb2ecd2352cd166d53c60405160405180910390a25050506200037e565b600033905090565b60008060009054906101000a900473ffffffffffffffffffffffffffffffffffffffff169050816000806101000a81548173ffffffffffffffffffffffffffffffffffffffff021916908373ffffffffffffffffffffffffffffffffffffffff1602179055508173ffffffffffffffffffffffffffffffffffffffff168173ffffffffffffffffffffffffffffffffffffffff167f8be0079c531659141344cd1fd0a4f28419497f9722a3daafe3b4186f6b6457e060405160405180910390a35050565b600081519050620002c98162000364565b92915050565b600080600060608486031215620002eb57620002ea6200035f565b5b6000620002fb86828701620002b8565b93505060206200030e86828701620002b8565b92505060406200032186828701620002b8565b9150509250925092565b600062000338826200033f565b9050919050565b600073ffffffffffffffffffffffffffffffffffffffff82169050919050565b600080fd5b6200036f816200032b565b81146200037b57600080fd5b50565b612c4e806200038e6000396000f3fe608060405234801561001057600080fd5b50600436106101585760003560e01c806384e79842116100c3578063b9209e331161007c578063b9209e3314610385578063ce240d9c146103b5578063e744d789146103d1578063f0eb5e54146103ed578063f11abfd81461041d578063f2fde38b1461043b57610158565b806384e79842146102d95780638da5cb5b146102f55780638e098ca11461031357806397a6278e1461032f578063a8d29d1d1461034b578063b4f3fcb71461036757610158565b80635dbe47e8116101155780635dbe47e81461021b5780635e5741f31461024b578063653dc9f114610267578063670af6a914610283578063715018a61461029f5780637e42683b146102a957610158565b80631ffbb0641461015d57806326d941ae1461018d5780633b239a7f146101a95780633b3e12f4146101c5578063454a03e0146101e357806350bc7bda146101ff575b600080fd5b61017760048036038101906101729190611e27565b610457565b604051610184919061248e565b60405180910390f35b6101a760048036038101906101a29190611e27565b610474565b005b6101c360048036038101906101be9190611ee7565b610503565b005b6101cd610626565b6040516101da91906124c4565b60405180910390f35b6101fd60048036038101906101f89190611e94565b610650565b005b61021960048036038101906102149190611e27565b610788565b005b61023560048036038101906102309190611e27565b610794565b604051610242919061248e565b60405180910390f35b61026560048036038101906102609190611e27565b6107e5565b005b610281600480360381019061027c9190611f27565b6107f1565b005b61029d60048036038101906102989190611e27565b61089b565b005b6102a761092a565b005b6102c360048036038101906102be9190611e27565b61093e565b6040516102d09190612643565b60405180910390f35b6102f360048036038101906102ee9190611e27565b6109f2565b005b6102fd610a54565b60405161030a91906123c1565b60405180910390f35b61032d60048036038101906103289190611e54565b610a7d565b005b61034960048036038101906103449190611e27565b610bc0565b005b61036560048036038101906103609190611e27565b610c22565b005b61036f610d5c565b60405161037c9190612568565b60405180910390f35b61039f600480360381019061039a9190611e27565b610d86565b6040516103ac919061248e565b60405180910390f35b6103cf60048036038101906103ca9190611e27565b6114e6565b005b6103eb60048036038101906103e69190611e27565b6114fa565b005b61040760048036038101906104029190611e27565b611589565b60405161041491906124fa565b60405180910390f35b61042561163d565b60405161043291906124df565b60405180910390f35b61045560048036038101906104509190611e27565b611667565b005b600061046d8260016116eb90919063ffffffff16565b9050919050565b61047c6117b3565b80600460006101000a81548173ffffffffffffffffffffffffffffffffffffffff021916908373ffffffffffffffffffffffffffffffffffffffff1602179055508073ffffffffffffffffffffffffffffffffffffffff167f2fa8b95c1db7afe99e3398f3792f008135cedc1fa26b0bb2ecd2352cd166d53c60405160405180910390a250565b61050c33610457565b61054b576040517f08c379a0000000000000000000000000000000000000000000000000000000008152600401610542906125c3565b60405180910390fd5b600460009054906101000a900473ffffffffffffffffffffffffffffffffffffffff1673ffffffffffffffffffffffffffffffffffffffff16639f3418d583836040518363ffffffff1660e01b81526004016105a892919061243c565b600060405180830381600087803b1580156105c257600080fd5b505af11580156105d6573d6000803e3d6000fd5b505050508061ffff168273ffffffffffffffffffffffffffffffffffffffff167f04ed3b726495c2dca1ff1215d9ca54e1a4030abb5e82b0f6ce55702416cee85360405160405180910390a35050565b6000600260009054906101000a900473ffffffffffffffffffffffffffffffffffffffff16905090565b61065933610457565b610698576040517f08c379a000000000000000000000000000000000000000000000000000000000815260040161068f906125c3565b60405180910390fd5b600460009054906101000a900473ffffffffffffffffffffffffffffffffffffffff1673ffffffffffffffffffffffffffffffffffffffff1663a53410dd8484846040518463ffffffff1660e01b81526004016106f793929190612405565b600060405180830381600087803b15801561071157600080fd5b505af1158015610725573d6000803e3d6000fd5b505050508173ffffffffffffffffffffffffffffffffffffffff168373ffffffffffffffffffffffffffffffffffffffff167f6ae73635c50d24a45af6fbd5e016ac4bed179addbc8bf24e04ff0fcc6d33af1960405160405180910390a3505050565b610791816109f2565b50565b60008073ffffffffffffffffffffffffffffffffffffffff166107b683611589565b73ffffffffffffffffffffffffffffffffffffffff1614156107db57600090506107e0565b600190505b919050565b6107ee81610bc0565b50565b60005b868690508110156108925761087f87878381811061081557610814612973565b5b905060200201602081019061082a9190611e27565b86868481811061083d5761083c612973565b5b9050602002016020810190610852919061209a565b85858581811061086557610864612973565b5b905060200201602081019061087a91906120f4565b610650565b808061088a906128fb565b9150506107f4565b50505050505050565b6108a36117b3565b80600260006101000a81548173ffffffffffffffffffffffffffffffffffffffff021916908373ffffffffffffffffffffffffffffffffffffffff1602179055508073ffffffffffffffffffffffffffffffffffffffff167f7170bf15b246e880b2369cd7c67d057760d8a35149e8c64dde91efa22bcc76d060405160405180910390a250565b6109326117b3565b61093c6000611831565b565b6000600460009054906101000a900473ffffffffffffffffffffffffffffffffffffffff1673ffffffffffffffffffffffffffffffffffffffff1663727e13bc836040518263ffffffff1660e01b815260040161099b91906123c1565b60206040518083038186803b1580156109b357600080fd5b505afa1580156109c7573d6000803e3d6000fd5b505050506040513d601f19601f820116820180604052508101906109eb9190612121565b9050919050565b6109fa6117b3565b610a0e8160016118f590919063ffffffff16565b8073ffffffffffffffffffffffffffffffffffffffff167ff68e73cec97f2d70aa641fb26e87a4383686e2efacb648f2165aeb02ac562ec560405160405180910390a250565b60008060009054906101000a900473ffffffffffffffffffffffffffffffffffffffff16905090565b610a8633610457565b610ac5576040517f08c379a0000000000000000000000000000000000000000000000000000000008152600401610abc906125c3565b60405180910390fd5b6000610ad083611589565b9050600460009054906101000a900473ffffffffffffffffffffffffffffffffffffffff1673ffffffffffffffffffffffffffffffffffffffff1663e805cf8684846040518363ffffffff1660e01b8152600401610b2f9291906123dc565b600060405180830381600087803b158015610b4957600080fd5b505af1158015610b5d573d6000803e3d6000fd5b505050508173ffffffffffffffffffffffffffffffffffffffff168173ffffffffffffffffffffffffffffffffffffffff167fe98082932c8056a0f514da9104e4a66bc2cbaef102ad59d90c4b24220ebf601060405160405180910390a3505050565b610bc86117b3565b610bdc81600161199d90919063ffffffff16565b8073ffffffffffffffffffffffffffffffffffffffff167fed9c8ad8d5a0a66898ea49d2956929c93ae2e8bd50281b2ed897c5d1a6737e0b60405160405180910390a250565b610c2b33610457565b610c6a576040517f08c379a0000000000000000000000000000000000000000000000000000000008152600401610c61906125c3565b60405180910390fd5b600460009054906101000a900473ffffffffffffffffffffffffffffffffffffffff1673ffffffffffffffffffffffffffffffffffffffff1663cf191bcd826040518263ffffffff1660e01b8152600401610cc591906123c1565b600060405180830381600087803b158015610cdf57600080fd5b505af1158015610cf3573d6000803e3d6000fd5b50505050610d0081611589565b73ffffffffffffffffffffffffffffffffffffffff168173ffffffffffffffffffffffffffffffffffffffff167f59d6590e225b81befe259af056324092801080acbb7feab310eb34678871f32760405160405180910390a350565b6000600360009054906101000a900473ffffffffffffffffffffffffffffffffffffffff16905090565b60008073ffffffffffffffffffffffffffffffffffffffff16610da883611589565b73ffffffffffffffffffffffffffffffffffffffff161415610dcd57600090506114e1565b6000600260009054906101000a900473ffffffffffffffffffffffffffffffffffffffff1673ffffffffffffffffffffffffffffffffffffffff1663df09d6046040518163ffffffff1660e01b815260040160006040518083038186803b158015610e3757600080fd5b505afa158015610e4b573d6000803e3d6000fd5b505050506040513d6000823e3d601f19601f82011682018060405250810190610e749190612024565b9050600081511415610e8a5760019150506114e1565b600080600060608060005b86518110156114d5576000610ea98a611589565b73ffffffffffffffffffffffffffffffffffffffff166380e9e9e1898481518110610ed757610ed6612973565b5b60200260200101516040518263ffffffff1660e01b8152600401610efb919061265e565b60006040518083038186803b158015610f1357600080fd5b505afa158015610f27573d6000803e3d6000fd5b505050506040513d6000823e3d601f19601f82011682018060405250810190610f509190611fdb565b9050600081511415610f6d576000985050505050505050506114e1565b60005b81518110156114c057610f828b611589565b73ffffffffffffffffffffffffffffffffffffffff1663c9100bcb838381518110610fb057610faf612973565b5b60200260200101516040518263ffffffff1660e01b8152600401610fd491906124a9565b60006040518083038186803b158015610fec57600080fd5b505afa158015611000573d6000803e3d6000fd5b505050506040513d6000823e3d601f19601f82011682018060405250810190611029919061214e565b50809850819950829a50839b50849c5050505050508573ffffffffffffffffffffffffffffffffffffffff1663c0969a6e6110638d611589565b8b868151811061107657611075612973565b5b602002602001015188886040518563ffffffff1660e01b815260040161109f9493929190612515565b60206040518083038186803b1580156110b757600080fd5b505afa9250505080156110e857506040513d601f19601f820116820180604052508101906110e5919061206d565b60015b61111857600182516110fa9190612785565b81141561111357600099505050505050505050506114e1565b6114ad565b8080156111e85750600360009054906101000a900473ffffffffffffffffffffffffffffffffffffffff1673ffffffffffffffffffffffffffffffffffffffff166334a89987888c878151811061117257611171612973565b5b60200260200101516040518363ffffffff1660e01b8152600401611197929190612465565b60206040518083038186803b1580156111af57600080fd5b505afa1580156111c3573d6000803e3d6000fd5b505050506040513d601f19601f820116820180604052508101906111e7919061206d565b5b801561129b5750600360009054906101000a900473ffffffffffffffffffffffffffffffffffffffff1673ffffffffffffffffffffffffffffffffffffffff1663ef2ed1a4886040518263ffffffff1660e01b815260040161124a91906123c1565b60206040518083038186803b15801561126257600080fd5b505afa158015611276573d6000803e3d6000fd5b505050506040513d601f19601f8201168201806040525081019061129a919061206d565b5b156112a557825191505b600360009054906101000a900473ffffffffffffffffffffffffffffffffffffffff1673ffffffffffffffffffffffffffffffffffffffff1663ef2ed1a4886040518263ffffffff1660e01b815260040161130091906123c1565b60206040518083038186803b15801561131857600080fd5b505afa15801561132c573d6000803e3d6000fd5b505050506040513d601f19601f82011682018060405250810190611350919061206d565b1580156113695750600183516113669190612785565b82145b156113815760009a50505050505050505050506114e1565b600360009054906101000a900473ffffffffffffffffffffffffffffffffffffffff1673ffffffffffffffffffffffffffffffffffffffff166334a89987888c87815181106113d3576113d2612973565b5b60200260200101516040518363ffffffff1660e01b81526004016113f8929190612465565b60206040518083038186803b15801561141057600080fd5b505afa158015611424573d6000803e3d6000fd5b505050506040513d601f19601f82011682018060405250810190611448919061206d565b15801561146157506001835161145e9190612785565b82145b156114795760009a50505050505050505050506114e1565b801580156114935750600183516114909190612785565b82145b156114ab5760009a50505050505050505050506114e1565b505b80806114b8906128fb565b915050610f70565b505080806114cd906128fb565b915050610e95565b60019750505050505050505b919050565b6114ee6117b3565b6114f781611667565b50565b6115026117b3565b80600360006101000a81548173ffffffffffffffffffffffffffffffffffffffff021916908373ffffffffffffffffffffffffffffffffffffffff1602179055508073ffffffffffffffffffffffffffffffffffffffff167f1b98cb79e6f73020175fe87333f1b91ad6a881519c0afe30340c2599b2b4bde060405160405180910390a250565b6000600460009054906101000a900473ffffffffffffffffffffffffffffffffffffffff1673ffffffffffffffffffffffffffffffffffffffff16637988d3a5836040518263ffffffff1660e01b81526004016115e691906123c1565b60206040518083038186803b1580156115fe57600080fd5b505afa158015611612573d6000803e3d6000fd5b505050506040513d601f19601f8201168201806040525081019061163691906120c7565b9050919050565b6000600460009054906101000a900473ffffffffffffffffffffffffffffffffffffffff16905090565b61166f6117b3565b600073ffffffffffffffffffffffffffffffffffffffff168173ffffffffffffffffffffffffffffffffffffffff1614156116df576040517f08c379a00000000000000000000000000000000000000000000000000000000081526004016116d6906125a3565b60405180910390fd5b6116e881611831565b50565b60008073ffffffffffffffffffffffffffffffffffffffff168273ffffffffffffffffffffffffffffffffffffffff16141561175c576040517f08c379a000000000000000000000000000000000000000000000000000000000815260040161175390612623565b60405180910390fd5b8260000160008373ffffffffffffffffffffffffffffffffffffffff1673ffffffffffffffffffffffffffffffffffffffff16815260200190815260200160002060009054906101000a900460ff16905092915050565b6117bb611a44565b73ffffffffffffffffffffffffffffffffffffffff166117d9610a54565b73ffffffffffffffffffffffffffffffffffffffff161461182f576040517f08c379a000000000000000000000000000000000000000000000000000000000815260040161182690612603565b60405180910390fd5b565b60008060009054906101000a900473ffffffffffffffffffffffffffffffffffffffff169050816000806101000a81548173ffffffffffffffffffffffffffffffffffffffff021916908373ffffffffffffffffffffffffffffffffffffffff1602179055508173ffffffffffffffffffffffffffffffffffffffff168173ffffffffffffffffffffffffffffffffffffffff167f8be0079c531659141344cd1fd0a4f28419497f9722a3daafe3b4186f6b6457e060405160405180910390a35050565b6118ff82826116eb565b1561193f576040517f08c379a000000000000000000000000000000000000000000000000000000000815260040161193690612583565b60405180910390fd5b60018260000160008373ffffffffffffffffffffffffffffffffffffffff1673ffffffffffffffffffffffffffffffffffffffff16815260200190815260200160002060006101000a81548160ff0219169083151502179055505050565b6119a782826116eb565b6119e6576040517f08c379a00000000000000000000000000000000000000000000000000000000081526004016119dd906125e3565b60405180910390fd5b60008260000160008373ffffffffffffffffffffffffffffffffffffffff1673ffffffffffffffffffffffffffffffffffffffff16815260200190815260200160002060006101000a81548160ff0219169083151502179055505050565b600033905090565b6000611a5f611a5a8461269e565b612679565b90508083825260208201905082856020860282011115611a8257611a816129db565b5b60005b85811015611ab25781611a988882611d4d565b845260208401935060208301925050600181019050611a85565b5050509392505050565b6000611acf611aca846126ca565b612679565b90508083825260208201905082856020860282011115611af257611af16129db565b5b60005b85811015611b225781611b088882611e12565b845260208401935060208301925050600181019050611af5565b5050509392505050565b6000611b3f611b3a846126f6565b612679565b905082815260208101848484011115611b5b57611b5a6129e0565b5b611b66848285612897565b509392505050565b6000611b81611b7c84612727565b612679565b905082815260208101848484011115611b9d57611b9c6129e0565b5b611ba8848285612897565b509392505050565b600081359050611bbf81612b8e565b92915050565b600081519050611bd481612b8e565b92915050565b60008083601f840112611bf057611bef6129d6565b5b8235905067ffffffffffffffff811115611c0d57611c0c6129d1565b5b602083019150836020820283011115611c2957611c286129db565b5b9250929050565b600082601f830112611c4557611c446129d6565b5b8151611c55848260208601611a4c565b91505092915050565b60008083601f840112611c7457611c736129d6565b5b8235905067ffffffffffffffff811115611c9157611c906129d1565b5b602083019150836020820283011115611cad57611cac6129db565b5b9250929050565b60008083601f840112611cca57611cc96129d6565b5b8235905067ffffffffffffffff811115611ce757611ce66129d1565b5b602083019150836020820283011115611d0357611d026129db565b5b9250929050565b600082601f830112611d1f57611d1e6129d6565b5b8151611d2f848260208601611abc565b91505092915050565b600081519050611d4781612ba5565b92915050565b600081519050611d5c81612bbc565b92915050565b600082601f830112611d7757611d766129d6565b5b8151611d87848260208601611b2c565b91505092915050565b600081359050611d9f81612bd3565b92915050565b600081519050611db481612bd3565b92915050565b600082601f830112611dcf57611dce6129d6565b5b8151611ddf848260208601611b6e565b91505092915050565b600081359050611df781612bea565b92915050565b600081519050611e0c81612bea565b92915050565b600081519050611e2181612c01565b92915050565b600060208284031215611e3d57611e3c6129ea565b5b6000611e4b84828501611bb0565b91505092915050565b60008060408385031215611e6b57611e6a6129ea565b5b6000611e7985828601611bb0565b9250506020611e8a85828601611d90565b9150509250929050565b600080600060608486031215611ead57611eac6129ea565b5b6000611ebb86828701611bb0565b9350506020611ecc86828701611d90565b9250506040611edd86828701611de8565b9150509250925092565b60008060408385031215611efe57611efd6129ea565b5b6000611f0c85828601611bb0565b9250506020611f1d85828601611de8565b9150509250929050565b60008060008060008060608789031215611f4457611f436129ea565b5b600087013567ffffffffffffffff811115611f6257611f616129e5565b5b611f6e89828a01611bda565b9650965050602087013567ffffffffffffffff811115611f9157611f906129e5565b5b611f9d89828a01611c5e565b9450945050604087013567ffffffffffffffff811115611fc057611fbf6129e5565b5b611fcc89828a01611cb4565b92509250509295509295509295565b600060208284031215611ff157611ff06129ea565b5b600082015167ffffffffffffffff81111561200f5761200e6129e5565b5b61201b84828501611c30565b91505092915050565b60006020828403121561203a576120396129ea565b5b600082015167ffffffffffffffff811115612058576120576129e5565b5b61206484828501611d0a565b91505092915050565b600060208284031215612083576120826129ea565b5b600061209184828501611d38565b91505092915050565b6000602082840312156120b0576120af6129ea565b5b60006120be84828501611d90565b91505092915050565b6000602082840312156120dd576120dc6129ea565b5b60006120eb84828501611da5565b91505092915050565b60006020828403121561210a576121096129ea565b5b600061211884828501611de8565b91505092915050565b600060208284031215612137576121366129ea565b5b600061214584828501611dfd565b91505092915050565b60008060008060008060c0878903121561216b5761216a6129ea565b5b600061217989828a01611e12565b965050602061218a89828a01611e12565b955050604061219b89828a01611bc5565b945050606087015167ffffffffffffffff8111156121bc576121bb6129e5565b5b6121c889828a01611d62565b935050608087015167ffffffffffffffff8111156121e9576121e86129e5565b5b6121f589828a01611d62565b92505060a087015167ffffffffffffffff811115612216576122156129e5565b5b61222289828a01611dba565b9150509295509295509295565b612238816127b9565b82525050565b612247816127cb565b82525050565b612256816127d7565b82525050565b600061226782612758565b6122718185612763565b9350612281818560208601612897565b61228a816129ef565b840191505092915050565b61229e8161282b565b82525050565b6122ad8161283d565b82525050565b6122bc8161284f565b82525050565b6122cb81612861565b82525050565b60006122de601f83612774565b91506122e982612a00565b602082019050919050565b6000612301602683612774565b915061230c82612a29565b604082019050919050565b6000612324602e83612774565b915061232f82612a78565b604082019050919050565b6000612347602183612774565b915061235282612ac7565b604082019050919050565b600061236a602083612774565b915061237582612b16565b602082019050919050565b600061238d602283612774565b915061239882612b3f565b604082019050919050565b6123ac816127f3565b82525050565b6123bb81612821565b82525050565b60006020820190506123d6600083018461222f565b92915050565b60006040820190506123f1600083018561222f565b6123fe60208301846122b3565b9392505050565b600060608201905061241a600083018661222f565b61242760208301856122b3565b61243460408301846123a3565b949350505050565b6000604082019050612451600083018561222f565b61245e60208301846123a3565b9392505050565b600060408201905061247a600083018561222f565b61248760208301846123b2565b9392505050565b60006020820190506124a3600083018461223e565b92915050565b60006020820190506124be600083018461224d565b92915050565b60006020820190506124d96000830184612295565b92915050565b60006020820190506124f460008301846122a4565b92915050565b600060208201905061250f60008301846122b3565b92915050565b600060808201905061252a60008301876122b3565b61253760208301866123b2565b8181036040830152612549818561225c565b9050818103606083015261255d818461225c565b905095945050505050565b600060208201905061257d60008301846122c2565b92915050565b6000602082019050818103600083015261259c816122d1565b9050919050565b600060208201905081810360008301526125bc816122f4565b9050919050565b600060208201905081810360008301526125dc81612317565b9050919050565b600060208201905081810360008301526125fc8161233a565b9050919050565b6000602082019050818103600083015261261c8161235d565b9050919050565b6000602082019050818103600083015261263c81612380565b9050919050565b600060208201905061265860008301846123a3565b92915050565b600060208201905061267360008301846123b2565b92915050565b6000612683612694565b905061268f82826128ca565b919050565b6000604051905090565b600067ffffffffffffffff8211156126b9576126b86129a2565b5b602082029050602081019050919050565b600067ffffffffffffffff8211156126e5576126e46129a2565b5b602082029050602081019050919050565b600067ffffffffffffffff821115612711576127106129a2565b5b61271a826129ef565b9050602081019050919050565b600067ffffffffffffffff821115612742576127416129a2565b5b61274b826129ef565b9050602081019050919050565b600081519050919050565b600082825260208201905092915050565b600082825260208201905092915050565b600061279082612821565b915061279b83612821565b9250828210156127ae576127ad612944565b5b828203905092915050565b60006127c482612801565b9050919050565b60008115159050919050565b6000819050919050565b60006127ec826127b9565b9050919050565b600061ffff82169050919050565b600073ffffffffffffffffffffffffffffffffffffffff82169050919050565b6000819050919050565b600061283682612873565b9050919050565b600061284882612873565b9050919050565b600061285a82612873565b9050919050565b600061286c82612873565b9050919050565b600061287e82612885565b9050919050565b600061289082612801565b9050919050565b60005b838110156128b557808201518184015260208101905061289a565b838111156128c4576000848401525b50505050565b6128d3826129ef565b810181811067ffffffffffffffff821117156128f2576128f16129a2565b5b80604052505050565b600061290682612821565b91507fffffffffffffffffffffffffffffffffffffffffffffffffffffffffffffffff82141561293957612938612944565b5b600182019050919050565b7f4e487b7100000000000000000000000000000000000000000000000000000000600052601160045260246000fd5b7f4e487b7100000000000000000000000000000000000000000000000000000000600052603260045260246000fd5b7f4e487b7100000000000000000000000000000000000000000000000000000000600052604160045260246000fd5b600080fd5b600080fd5b600080fd5b600080fd5b600080fd5b600080fd5b6000601f19601f8301169050919050565b7f526f6c65733a206163636f756e7420616c72656164792068617320726f6c6500600082015250565b7f4f776e61626c653a206e6577206f776e657220697320746865207a65726f206160008201527f6464726573730000000000000000000000000000000000000000000000000000602082015250565b7f4167656e74526f6c653a2063616c6c657220646f6573206e6f7420686176652060008201527f746865204167656e7420726f6c65000000000000000000000000000000000000602082015250565b7f526f6c65733a206163636f756e7420646f6573206e6f74206861766520726f6c60008201527f6500000000000000000000000000000000000000000000000000000000000000602082015250565b7f4f776e61626c653a2063616c6c6572206973206e6f7420746865206f776e6572600082015250565b7f526f6c65733a206163636f756e7420697320746865207a65726f20616464726560008201527f7373000000000000000000000000000000000000000000000000000000000000602082015250565b612b97816127b9565b8114612ba257600080fd5b50565b612bae816127cb565b8114612bb957600080fd5b50565b612bc5816127d7565b8114612bd057600080fd5b50565b612bdc816127e1565b8114612be757600080fd5b50565b612bf3816127f3565b8114612bfe57600080fd5b50565b612c0a81612821565b8114612c1557600080fd5b5056fea2646970667358221220e36094bf73cb98cb3780119b4522372ae114eb5226472716fbea203f15a5d3a064736f6c63430008070033",
					"opcodes": "PUSH1 0x80 PUSH1 0x40 MSTORE CALLVALUE DUP1 ISZERO PUSH3 0x11 JUMPI PUSH1 0x0 DUP1 REVERT JUMPDEST POP PUSH1 0x40 MLOAD PUSH3 0x2FDC CODESIZE SUB DUP1 PUSH3 0x2FDC DUP4 CODECOPY DUP2 DUP2 ADD PUSH1 0x40 MSTORE DUP2 ADD SWAP1 PUSH3 0x37 SWAP2 SWAP1 PUSH3 0x2CF JUMP JUMPDEST PUSH3 0x57 PUSH3 0x4B PUSH3 0x1EC PUSH1 0x20 SHL PUSH1 0x20 SHR JUMP JUMPDEST PUSH3 0x1F4 PUSH1 0x20 SHL PUSH1 0x20 SHR JUMP JUMPDEST DUP2 PUSH1 0x2 PUSH1 0x0 PUSH2 0x100 EXP DUP2 SLOAD DUP2 PUSH20 0xFFFFFFFFFFFFFFFFFFFFFFFFFFFFFFFFFFFFFFFF MUL NOT AND SWAP1 DUP4 PUSH20 0xFFFFFFFFFFFFFFFFFFFFFFFFFFFFFFFFFFFFFFFF AND MUL OR SWAP1 SSTORE POP DUP3 PUSH1 0x3 PUSH1 0x0 PUSH2 0x100 EXP DUP2 SLOAD DUP2 PUSH20 0xFFFFFFFFFFFFFFFFFFFFFFFFFFFFFFFFFFFFFFFF MUL NOT AND SWAP1 DUP4 PUSH20 0xFFFFFFFFFFFFFFFFFFFFFFFFFFFFFFFFFFFFFFFF AND MUL OR SWAP1 SSTORE POP DUP1 PUSH1 0x4 PUSH1 0x0 PUSH2 0x100 EXP DUP2 SLOAD DUP2 PUSH20 0xFFFFFFFFFFFFFFFFFFFFFFFFFFFFFFFFFFFFFFFF MUL NOT AND SWAP1 DUP4 PUSH20 0xFFFFFFFFFFFFFFFFFFFFFFFFFFFFFFFFFFFFFFFF AND MUL OR SWAP1 SSTORE POP DUP2 PUSH20 0xFFFFFFFFFFFFFFFFFFFFFFFFFFFFFFFFFFFFFFFF AND PUSH32 0x7170BF15B246E880B2369CD7C67D057760D8A35149E8C64DDE91EFA22BCC76D0 PUSH1 0x40 MLOAD PUSH1 0x40 MLOAD DUP1 SWAP2 SUB SWAP1 LOG2 DUP3 PUSH20 0xFFFFFFFFFFFFFFFFFFFFFFFFFFFFFFFFFFFFFFFF AND PUSH32 0x1B98CB79E6F73020175FE87333F1B91AD6A881519C0AFE30340C2599B2B4BDE0 PUSH1 0x40 MLOAD PUSH1 0x40 MLOAD DUP1 SWAP2 SUB SWAP1 LOG2 DUP1 PUSH20 0xFFFFFFFFFFFFFFFFFFFFFFFFFFFFFFFFFFFFFFFF AND PUSH32 0x2FA8B95C1DB7AFE99E3398F3792F008135CEDC1FA26B0BB2ECD2352CD166D53C PUSH1 0x40 MLOAD PUSH1 0x40 MLOAD DUP1 SWAP2 SUB SWAP1 LOG2 POP POP POP PUSH3 0x37E JUMP JUMPDEST PUSH1 0x0 CALLER SWAP1 POP SWAP1 JUMP JUMPDEST PUSH1 0x0 DUP1 PUSH1 0x0 SWAP1 SLOAD SWAP1 PUSH2 0x100 EXP SWAP1 DIV PUSH20 0xFFFFFFFFFFFFFFFFFFFFFFFFFFFFFFFFFFFFFFFF AND SWAP1 POP DUP2 PUSH1 0x0 DUP1 PUSH2 0x100 EXP DUP2 SLOAD DUP2 PUSH20 0xFFFFFFFFFFFFFFFFFFFFFFFFFFFFFFFFFFFFFFFF MUL NOT AND SWAP1 DUP4 PUSH20 0xFFFFFFFFFFFFFFFFFFFFFFFFFFFFFFFFFFFFFFFF AND MUL OR SWAP1 SSTORE POP DUP2 PUSH20 0xFFFFFFFFFFFFFFFFFFFFFFFFFFFFFFFFFFFFFFFF AND DUP2 PUSH20 0xFFFFFFFFFFFFFFFFFFFFFFFFFFFFFFFFFFFFFFFF AND PUSH32 0x8BE0079C531659141344CD1FD0A4F28419497F9722A3DAAFE3B4186F6B6457E0 PUSH1 0x40 MLOAD PUSH1 0x40 MLOAD DUP1 SWAP2 SUB SWAP1 LOG3 POP POP JUMP JUMPDEST PUSH1 0x0 DUP2 MLOAD SWAP1 POP PUSH3 0x2C9 DUP2 PUSH3 0x364 JUMP JUMPDEST SWAP3 SWAP2 POP POP JUMP JUMPDEST PUSH1 0x0 DUP1 PUSH1 0x0 PUSH1 0x60 DUP5 DUP7 SUB SLT ISZERO PUSH3 0x2EB JUMPI PUSH3 0x2EA PUSH3 0x35F JUMP JUMPDEST JUMPDEST PUSH1 0x0 PUSH3 0x2FB DUP7 DUP3 DUP8 ADD PUSH3 0x2B8 JUMP JUMPDEST SWAP4 POP POP PUSH1 0x20 PUSH3 0x30E DUP7 DUP3 DUP8 ADD PUSH3 0x2B8 JUMP JUMPDEST SWAP3 POP POP PUSH1 0x40 PUSH3 0x321 DUP7 DUP3 DUP8 ADD PUSH3 0x2B8 JUMP JUMPDEST SWAP2 POP POP SWAP3 POP SWAP3 POP SWAP3 JUMP JUMPDEST PUSH1 0x0 PUSH3 0x338 DUP3 PUSH3 0x33F JUMP JUMPDEST SWAP1 POP SWAP2 SWAP1 POP JUMP JUMPDEST PUSH1 0x0 PUSH20 0xFFFFFFFFFFFFFFFFFFFFFFFFFFFFFFFFFFFFFFFF DUP3 AND SWAP1 POP SWAP2 SWAP1 POP JUMP JUMPDEST PUSH1 0x0 DUP1 REVERT JUMPDEST PUSH3 0x36F DUP2 PUSH3 0x32B JUMP JUMPDEST DUP2 EQ PUSH3 0x37B JUMPI PUSH1 0x0 DUP1 REVERT JUMPDEST POP JUMP JUMPDEST PUSH2 0x2C4E DUP1 PUSH3 0x38E PUSH1 0x0 CODECOPY PUSH1 0x0 RETURN INVALID PUSH1 0x80 PUSH1 0x40 MSTORE CALLVALUE DUP1 ISZERO PUSH2 0x10 JUMPI PUSH1 0x0 DUP1 REVERT JUMPDEST POP PUSH1 0x4 CALLDATASIZE LT PUSH2 0x158 JUMPI PUSH1 0x0 CALLDATALOAD PUSH1 0xE0 SHR DUP1 PUSH4 0x84E79842 GT PUSH2 0xC3 JUMPI DUP1 PUSH4 0xB9209E33 GT PUSH2 0x7C JUMPI DUP1 PUSH4 0xB9209E33 EQ PUSH2 0x385 JUMPI DUP1 PUSH4 0xCE240D9C EQ PUSH2 0x3B5 JUMPI DUP1 PUSH4 0xE744D789 EQ PUSH2 0x3D1 JUMPI DUP1 PUSH4 0xF0EB5E54 EQ PUSH2 0x3ED JUMPI DUP1 PUSH4 0xF11ABFD8 EQ PUSH2 0x41D JUMPI DUP1 PUSH4 0xF2FDE38B EQ PUSH2 0x43B JUMPI PUSH2 0x158 JUMP JUMPDEST DUP1 PUSH4 0x84E79842 EQ PUSH2 0x2D9 JUMPI DUP1 PUSH4 0x8DA5CB5B EQ PUSH2 0x2F5 JUMPI DUP1 PUSH4 0x8E098CA1 EQ PUSH2 0x313 JUMPI DUP1 PUSH4 0x97A6278E EQ PUSH2 0x32F JUMPI DUP1 PUSH4 0xA8D29D1D EQ PUSH2 0x34B JUMPI DUP1 PUSH4 0xB4F3FCB7 EQ PUSH2 0x367 JUMPI PUSH2 0x158 JUMP JUMPDEST DUP1 PUSH4 0x5DBE47E8 GT PUSH2 0x115 JUMPI DUP1 PUSH4 0x5DBE47E8 EQ PUSH2 0x21B JUMPI DUP1 PUSH4 0x5E5741F3 EQ PUSH2 0x24B JUMPI DUP1 PUSH4 0x653DC9F1 EQ PUSH2 0x267 JUMPI DUP1 PUSH4 0x670AF6A9 EQ PUSH2 0x283 JUMPI DUP1 PUSH4 0x715018A6 EQ PUSH2 0x29F JUMPI DUP1 PUSH4 0x7E42683B EQ PUSH2 0x2A9 JUMPI PUSH2 0x158 JUMP JUMPDEST DUP1 PUSH4 0x1FFBB064 EQ PUSH2 0x15D JUMPI DUP1 PUSH4 0x26D941AE EQ PUSH2 0x18D JUMPI DUP1 PUSH4 0x3B239A7F EQ PUSH2 0x1A9 JUMPI DUP1 PUSH4 0x3B3E12F4 EQ PUSH2 0x1C5 JUMPI DUP1 PUSH4 0x454A03E0 EQ PUSH2 0x1E3 JUMPI DUP1 PUSH4 0x50BC7BDA EQ PUSH2 0x1FF JUMPI JUMPDEST PUSH1 0x0 DUP1 REVERT JUMPDEST PUSH2 0x177 PUSH1 0x4 DUP1 CALLDATASIZE SUB DUP2 ADD SWAP1 PUSH2 0x172 SWAP2 SWAP1 PUSH2 0x1E27 JUMP JUMPDEST PUSH2 0x457 JUMP JUMPDEST PUSH1 0x40 MLOAD PUSH2 0x184 SWAP2 SWAP1 PUSH2 0x248E JUMP JUMPDEST PUSH1 0x40 MLOAD DUP1 SWAP2 SUB SWAP1 RETURN JUMPDEST PUSH2 0x1A7 PUSH1 0x4 DUP1 CALLDATASIZE SUB DUP2 ADD SWAP1 PUSH2 0x1A2 SWAP2 SWAP1 PUSH2 0x1E27 JUMP JUMPDEST PUSH2 0x474 JUMP JUMPDEST STOP JUMPDEST PUSH2 0x1C3 PUSH1 0x4 DUP1 CALLDATASIZE SUB DUP2 ADD SWAP1 PUSH2 0x1BE SWAP2 SWAP1 PUSH2 0x1EE7 JUMP JUMPDEST PUSH2 0x503 JUMP JUMPDEST STOP JUMPDEST PUSH2 0x1CD PUSH2 0x626 JUMP JUMPDEST PUSH1 0x40 MLOAD PUSH2 0x1DA SWAP2 SWAP1 PUSH2 0x24C4 JUMP JUMPDEST PUSH1 0x40 MLOAD DUP1 SWAP2 SUB SWAP1 RETURN JUMPDEST PUSH2 0x1FD PUSH1 0x4 DUP1 CALLDATASIZE SUB DUP2 ADD SWAP1 PUSH2 0x1F8 SWAP2 SWAP1 PUSH2 0x1E94 JUMP JUMPDEST PUSH2 0x650 JUMP JUMPDEST STOP JUMPDEST PUSH2 0x219 PUSH1 0x4 DUP1 CALLDATASIZE SUB DUP2 ADD SWAP1 PUSH2 0x214 SWAP2 SWAP1 PUSH2 0x1E27 JUMP JUMPDEST PUSH2 0x788 JUMP JUMPDEST STOP JUMPDEST PUSH2 0x235 PUSH1 0x4 DUP1 CALLDATASIZE SUB DUP2 ADD SWAP1 PUSH2 0x230 SWAP2 SWAP1 PUSH2 0x1E27 JUMP JUMPDEST PUSH2 0x794 JUMP JUMPDEST PUSH1 0x40 MLOAD PUSH2 0x242 SWAP2 SWAP1 PUSH2 0x248E JUMP JUMPDEST PUSH1 0x40 MLOAD DUP1 SWAP2 SUB SWAP1 RETURN JUMPDEST PUSH2 0x265 PUSH1 0x4 DUP1 CALLDATASIZE SUB DUP2 ADD SWAP1 PUSH2 0x260 SWAP2 SWAP1 PUSH2 0x1E27 JUMP JUMPDEST PUSH2 0x7E5 JUMP JUMPDEST STOP JUMPDEST PUSH2 0x281 PUSH1 0x4 DUP1 CALLDATASIZE SUB DUP2 ADD SWAP1 PUSH2 0x27C SWAP2 SWAP1 PUSH2 0x1F27 JUMP JUMPDEST PUSH2 0x7F1 JUMP JUMPDEST STOP JUMPDEST PUSH2 0x29D PUSH1 0x4 DUP1 CALLDATASIZE SUB DUP2 ADD SWAP1 PUSH2 0x298 SWAP2 SWAP1 PUSH2 0x1E27 JUMP JUMPDEST PUSH2 0x89B JUMP JUMPDEST STOP JUMPDEST PUSH2 0x2A7 PUSH2 0x92A JUMP JUMPDEST STOP JUMPDEST PUSH2 0x2C3 PUSH1 0x4 DUP1 CALLDATASIZE SUB DUP2 ADD SWAP1 PUSH2 0x2BE SWAP2 SWAP1 PUSH2 0x1E27 JUMP JUMPDEST PUSH2 0x93E JUMP JUMPDEST PUSH1 0x40 MLOAD PUSH2 0x2D0 SWAP2 SWAP1 PUSH2 0x2643 JUMP JUMPDEST PUSH1 0x40 MLOAD DUP1 SWAP2 SUB SWAP1 RETURN JUMPDEST PUSH2 0x2F3 PUSH1 0x4 DUP1 CALLDATASIZE SUB DUP2 ADD SWAP1 PUSH2 0x2EE SWAP2 SWAP1 PUSH2 0x1E27 JUMP JUMPDEST PUSH2 0x9F2 JUMP JUMPDEST STOP JUMPDEST PUSH2 0x2FD PUSH2 0xA54 JUMP JUMPDEST PUSH1 0x40 MLOAD PUSH2 0x30A SWAP2 SWAP1 PUSH2 0x23C1 JUMP JUMPDEST PUSH1 0x40 MLOAD DUP1 SWAP2 SUB SWAP1 RETURN JUMPDEST PUSH2 0x32D PUSH1 0x4 DUP1 CALLDATASIZE SUB DUP2 ADD SWAP1 PUSH2 0x328 SWAP2 SWAP1 PUSH2 0x1E54 JUMP JUMPDEST PUSH2 0xA7D JUMP JUMPDEST STOP JUMPDEST PUSH2 0x349 PUSH1 0x4 DUP1 CALLDATASIZE SUB DUP2 ADD SWAP1 PUSH2 0x344 SWAP2 SWAP1 PUSH2 0x1E27 JUMP JUMPDEST PUSH2 0xBC0 JUMP JUMPDEST STOP JUMPDEST PUSH2 0x365 PUSH1 0x4 DUP1 CALLDATASIZE SUB DUP2 ADD SWAP1 PUSH2 0x360 SWAP2 SWAP1 PUSH2 0x1E27 JUMP JUMPDEST PUSH2 0xC22 JUMP JUMPDEST STOP JUMPDEST PUSH2 0x36F PUSH2 0xD5C JUMP JUMPDEST PUSH1 0x40 MLOAD PUSH2 0x37C SWAP2 SWAP1 PUSH2 0x2568 JUMP JUMPDEST PUSH1 0x40 MLOAD DUP1 SWAP2 SUB SWAP1 RETURN JUMPDEST PUSH2 0x39F PUSH1 0x4 DUP1 CALLDATASIZE SUB DUP2 ADD SWAP1 PUSH2 0x39A SWAP2 SWAP1 PUSH2 0x1E27 JUMP JUMPDEST PUSH2 0xD86 JUMP JUMPDEST PUSH1 0x40 MLOAD PUSH2 0x3AC SWAP2 SWAP1 PUSH2 0x248E JUMP JUMPDEST PUSH1 0x40 MLOAD DUP1 SWAP2 SUB SWAP1 RETURN JUMPDEST PUSH2 0x3CF PUSH1 0x4 DUP1 CALLDATASIZE SUB DUP2 ADD SWAP1 PUSH2 0x3CA SWAP2 SWAP1 PUSH2 0x1E27 JUMP JUMPDEST PUSH2 0x14E6 JUMP JUMPDEST STOP JUMPDEST PUSH2 0x3EB PUSH1 0x4 DUP1 CALLDATASIZE SUB DUP2 ADD SWAP1 PUSH2 0x3E6 SWAP2 SWAP1 PUSH2 0x1E27 JUMP JUMPDEST PUSH2 0x14FA JUMP JUMPDEST STOP JUMPDEST PUSH2 0x407 PUSH1 0x4 DUP1 CALLDATASIZE SUB DUP2 ADD SWAP1 PUSH2 0x402 SWAP2 SWAP1 PUSH2 0x1E27 JUMP JUMPDEST PUSH2 0x1589 JUMP JUMPDEST PUSH1 0x40 MLOAD PUSH2 0x414 SWAP2 SWAP1 PUSH2 0x24FA JUMP JUMPDEST PUSH1 0x40 MLOAD DUP1 SWAP2 SUB SWAP1 RETURN JUMPDEST PUSH2 0x425 PUSH2 0x163D JUMP JUMPDEST PUSH1 0x40 MLOAD PUSH2 0x432 SWAP2 SWAP1 PUSH2 0x24DF JUMP JUMPDEST PUSH1 0x40 MLOAD DUP1 SWAP2 SUB SWAP1 RETURN JUMPDEST PUSH2 0x455 PUSH1 0x4 DUP1 CALLDATASIZE SUB DUP2 ADD SWAP1 PUSH2 0x450 SWAP2 SWAP1 PUSH2 0x1E27 JUMP JUMPDEST PUSH2 0x1667 JUMP JUMPDEST STOP JUMPDEST PUSH1 0x0 PUSH2 0x46D DUP3 PUSH1 0x1 PUSH2 0x16EB SWAP1 SWAP2 SWAP1 PUSH4 0xFFFFFFFF AND JUMP JUMPDEST SWAP1 POP SWAP2 SWAP1 POP JUMP JUMPDEST PUSH2 0x47C PUSH2 0x17B3 JUMP JUMPDEST DUP1 PUSH1 0x4 PUSH1 0x0 PUSH2 0x100 EXP DUP2 SLOAD DUP2 PUSH20 0xFFFFFFFFFFFFFFFFFFFFFFFFFFFFFFFFFFFFFFFF MUL NOT AND SWAP1 DUP4 PUSH20 0xFFFFFFFFFFFFFFFFFFFFFFFFFFFFFFFFFFFFFFFF AND MUL OR SWAP1 SSTORE POP DUP1 PUSH20 0xFFFFFFFFFFFFFFFFFFFFFFFFFFFFFFFFFFFFFFFF AND PUSH32 0x2FA8B95C1DB7AFE99E3398F3792F008135CEDC1FA26B0BB2ECD2352CD166D53C PUSH1 0x40 MLOAD PUSH1 0x40 MLOAD DUP1 SWAP2 SUB SWAP1 LOG2 POP JUMP JUMPDEST PUSH2 0x50C CALLER PUSH2 0x457 JUMP JUMPDEST PUSH2 0x54B JUMPI PUSH1 0x40 MLOAD PUSH32 0x8C379A000000000000000000000000000000000000000000000000000000000 DUP2 MSTORE PUSH1 0x4 ADD PUSH2 0x542 SWAP1 PUSH2 0x25C3 JUMP JUMPDEST PUSH1 0x40 MLOAD DUP1 SWAP2 SUB SWAP1 REVERT JUMPDEST PUSH1 0x4 PUSH1 0x0 SWAP1 SLOAD SWAP1 PUSH2 0x100 EXP SWAP1 DIV PUSH20 0xFFFFFFFFFFFFFFFFFFFFFFFFFFFFFFFFFFFFFFFF AND PUSH20 0xFFFFFFFFFFFFFFFFFFFFFFFFFFFFFFFFFFFFFFFF AND PUSH4 0x9F3418D5 DUP4 DUP4 PUSH1 0x40 MLOAD DUP4 PUSH4 0xFFFFFFFF AND PUSH1 0xE0 SHL DUP2 MSTORE PUSH1 0x4 ADD PUSH2 0x5A8 SWAP3 SWAP2 SWAP1 PUSH2 0x243C JUMP JUMPDEST PUSH1 0x0 PUSH1 0x40 MLOAD DUP1 DUP4 SUB DUP2 PUSH1 0x0 DUP8 DUP1 EXTCODESIZE ISZERO DUP1 ISZERO PUSH2 0x5C2 JUMPI PUSH1 0x0 DUP1 REVERT JUMPDEST POP GAS CALL ISZERO DUP1 ISZERO PUSH2 0x5D6 JUMPI RETURNDATASIZE PUSH1 0x0 DUP1 RETURNDATACOPY RETURNDATASIZE PUSH1 0x0 REVERT JUMPDEST POP POP POP POP DUP1 PUSH2 0xFFFF AND DUP3 PUSH20 0xFFFFFFFFFFFFFFFFFFFFFFFFFFFFFFFFFFFFFFFF AND PUSH32 0x4ED3B726495C2DCA1FF1215D9CA54E1A4030ABB5E82B0F6CE55702416CEE853 PUSH1 0x40 MLOAD PUSH1 0x40 MLOAD DUP1 SWAP2 SUB SWAP1 LOG3 POP POP JUMP JUMPDEST PUSH1 0x0 PUSH1 0x2 PUSH1 0x0 SWAP1 SLOAD SWAP1 PUSH2 0x100 EXP SWAP1 DIV PUSH20 0xFFFFFFFFFFFFFFFFFFFFFFFFFFFFFFFFFFFFFFFF AND SWAP1 POP SWAP1 JUMP JUMPDEST PUSH2 0x659 CALLER PUSH2 0x457 JUMP JUMPDEST PUSH2 0x698 JUMPI PUSH1 0x40 MLOAD PUSH32 0x8C379A000000000000000000000000000000000000000000000000000000000 DUP2 MSTORE PUSH1 0x4 ADD PUSH2 0x68F SWAP1 PUSH2 0x25C3 JUMP JUMPDEST PUSH1 0x40 MLOAD DUP1 SWAP2 SUB SWAP1 REVERT JUMPDEST PUSH1 0x4 PUSH1 0x0 SWAP1 SLOAD SWAP1 PUSH2 0x100 EXP SWAP1 DIV PUSH20 0xFFFFFFFFFFFFFFFFFFFFFFFFFFFFFFFFFFFFFFFF AND PUSH20 0xFFFFFFFFFFFFFFFFFFFFFFFFFFFFFFFFFFFFFFFF AND PUSH4 0xA53410DD DUP5 DUP5 DUP5 PUSH1 0x40 MLOAD DUP5 PUSH4 0xFFFFFFFF AND PUSH1 0xE0 SHL DUP2 MSTORE PUSH1 0x4 ADD PUSH2 0x6F7 SWAP4 SWAP3 SWAP2 SWAP1 PUSH2 0x2405 JUMP JUMPDEST PUSH1 0x0 PUSH1 0x40 MLOAD DUP1 DUP4 SUB DUP2 PUSH1 0x0 DUP8 DUP1 EXTCODESIZE ISZERO DUP1 ISZERO PUSH2 0x711 JUMPI PUSH1 0x0 DUP1 REVERT JUMPDEST POP GAS CALL ISZERO DUP1 ISZERO PUSH2 0x725 JUMPI RETURNDATASIZE PUSH1 0x0 DUP1 RETURNDATACOPY RETURNDATASIZE PUSH1 0x0 REVERT JUMPDEST POP POP POP POP DUP2 PUSH20 0xFFFFFFFFFFFFFFFFFFFFFFFFFFFFFFFFFFFFFFFF AND DUP4 PUSH20 0xFFFFFFFFFFFFFFFFFFFFFFFFFFFFFFFFFFFFFFFF AND PUSH32 0x6AE73635C50D24A45AF6FBD5E016AC4BED179ADDBC8BF24E04FF0FCC6D33AF19 PUSH1 0x40 MLOAD PUSH1 0x40 MLOAD DUP1 SWAP2 SUB SWAP1 LOG3 POP POP POP JUMP JUMPDEST PUSH2 0x791 DUP2 PUSH2 0x9F2 JUMP JUMPDEST POP JUMP JUMPDEST PUSH1 0x0 DUP1 PUSH20 0xFFFFFFFFFFFFFFFFFFFFFFFFFFFFFFFFFFFFFFFF AND PUSH2 0x7B6 DUP4 PUSH2 0x1589 JUMP JUMPDEST PUSH20 0xFFFFFFFFFFFFFFFFFFFFFFFFFFFFFFFFFFFFFFFF AND EQ ISZERO PUSH2 0x7DB JUMPI PUSH1 0x0 SWAP1 POP PUSH2 0x7E0 JUMP JUMPDEST PUSH1 0x1 SWAP1 POP JUMPDEST SWAP2 SWAP1 POP JUMP JUMPDEST PUSH2 0x7EE DUP2 PUSH2 0xBC0 JUMP JUMPDEST POP JUMP JUMPDEST PUSH1 0x0 JUMPDEST DUP7 DUP7 SWAP1 POP DUP2 LT ISZERO PUSH2 0x892 JUMPI PUSH2 0x87F DUP8 DUP8 DUP4 DUP2 DUP2 LT PUSH2 0x815 JUMPI PUSH2 0x814 PUSH2 0x2973 JUMP JUMPDEST JUMPDEST SWAP1 POP PUSH1 0x20 MUL ADD PUSH1 0x20 DUP2 ADD SWAP1 PUSH2 0x82A SWAP2 SWAP1 PUSH2 0x1E27 JUMP JUMPDEST DUP7 DUP7 DUP5 DUP2 DUP2 LT PUSH2 0x83D JUMPI PUSH2 0x83C PUSH2 0x2973 JUMP JUMPDEST JUMPDEST SWAP1 POP PUSH1 0x20 MUL ADD PUSH1 0x20 DUP2 ADD SWAP1 PUSH2 0x852 SWAP2 SWAP1 PUSH2 0x209A JUMP JUMPDEST DUP6 DUP6 DUP6 DUP2 DUP2 LT PUSH2 0x865 JUMPI PUSH2 0x864 PUSH2 0x2973 JUMP JUMPDEST JUMPDEST SWAP1 POP PUSH1 0x20 MUL ADD PUSH1 0x20 DUP2 ADD SWAP1 PUSH2 0x87A SWAP2 SWAP1 PUSH2 0x20F4 JUMP JUMPDEST PUSH2 0x650 JUMP JUMPDEST DUP1 DUP1 PUSH2 0x88A SWAP1 PUSH2 0x28FB JUMP JUMPDEST SWAP2 POP POP PUSH2 0x7F4 JUMP JUMPDEST POP POP POP POP POP POP POP JUMP JUMPDEST PUSH2 0x8A3 PUSH2 0x17B3 JUMP JUMPDEST DUP1 PUSH1 0x2 PUSH1 0x0 PUSH2 0x100 EXP DUP2 SLOAD DUP2 PUSH20 0xFFFFFFFFFFFFFFFFFFFFFFFFFFFFFFFFFFFFFFFF MUL NOT AND SWAP1 DUP4 PUSH20 0xFFFFFFFFFFFFFFFFFFFFFFFFFFFFFFFFFFFFFFFF AND MUL OR SWAP1 SSTORE POP DUP1 PUSH20 0xFFFFFFFFFFFFFFFFFFFFFFFFFFFFFFFFFFFFFFFF AND PUSH32 0x7170BF15B246E880B2369CD7C67D057760D8A35149E8C64DDE91EFA22BCC76D0 PUSH1 0x40 MLOAD PUSH1 0x40 MLOAD DUP1 SWAP2 SUB SWAP1 LOG2 POP JUMP JUMPDEST PUSH2 0x932 PUSH2 0x17B3 JUMP JUMPDEST PUSH2 0x93C PUSH1 0x0 PUSH2 0x1831 JUMP JUMPDEST JUMP JUMPDEST PUSH1 0x0 PUSH1 0x4 PUSH1 0x0 SWAP1 SLOAD SWAP1 PUSH2 0x100 EXP SWAP1 DIV PUSH20 0xFFFFFFFFFFFFFFFFFFFFFFFFFFFFFFFFFFFFFFFF AND PUSH20 0xFFFFFFFFFFFFFFFFFFFFFFFFFFFFFFFFFFFFFFFF AND PUSH4 0x727E13BC DUP4 PUSH1 0x40 MLOAD DUP3 PUSH4 0xFFFFFFFF AND PUSH1 0xE0 SHL DUP2 MSTORE PUSH1 0x4 ADD PUSH2 0x99B SWAP2 SWAP1 PUSH2 0x23C1 JUMP JUMPDEST PUSH1 0x20 PUSH1 0x40 MLOAD DUP1 DUP4 SUB DUP2 DUP7 DUP1 EXTCODESIZE ISZERO DUP1 ISZERO PUSH2 0x9B3 JUMPI PUSH1 0x0 DUP1 REVERT JUMPDEST POP GAS STATICCALL ISZERO DUP1 ISZERO PUSH2 0x9C7 JUMPI RETURNDATASIZE PUSH1 0x0 DUP1 RETURNDATACOPY RETURNDATASIZE PUSH1 0x0 REVERT JUMPDEST POP POP POP POP PUSH1 0x40 MLOAD RETURNDATASIZE PUSH1 0x1F NOT PUSH1 0x1F DUP3 ADD AND DUP3 ADD DUP1 PUSH1 0x40 MSTORE POP DUP2 ADD SWAP1 PUSH2 0x9EB SWAP2 SWAP1 PUSH2 0x2121 JUMP JUMPDEST SWAP1 POP SWAP2 SWAP1 POP JUMP JUMPDEST PUSH2 0x9FA PUSH2 0x17B3 JUMP JUMPDEST PUSH2 0xA0E DUP2 PUSH1 0x1 PUSH2 0x18F5 SWAP1 SWAP2 SWAP1 PUSH4 0xFFFFFFFF AND JUMP JUMPDEST DUP1 PUSH20 0xFFFFFFFFFFFFFFFFFFFFFFFFFFFFFFFFFFFFFFFF AND PUSH32 0xF68E73CEC97F2D70AA641FB26E87A4383686E2EFACB648F2165AEB02AC562EC5 PUSH1 0x40 MLOAD PUSH1 0x40 MLOAD DUP1 SWAP2 SUB SWAP1 LOG2 POP JUMP JUMPDEST PUSH1 0x0 DUP1 PUSH1 0x0 SWAP1 SLOAD SWAP1 PUSH2 0x100 EXP SWAP1 DIV PUSH20 0xFFFFFFFFFFFFFFFFFFFFFFFFFFFFFFFFFFFFFFFF AND SWAP1 POP SWAP1 JUMP JUMPDEST PUSH2 0xA86 CALLER PUSH2 0x457 JUMP JUMPDEST PUSH2 0xAC5 JUMPI PUSH1 0x40 MLOAD PUSH32 0x8C379A000000000000000000000000000000000000000000000000000000000 DUP2 MSTORE PUSH1 0x4 ADD PUSH2 0xABC SWAP1 PUSH2 0x25C3 JUMP JUMPDEST PUSH1 0x40 MLOAD DUP1 SWAP2 SUB SWAP1 REVERT JUMPDEST PUSH1 0x0 PUSH2 0xAD0 DUP4 PUSH2 0x1589 JUMP JUMPDEST SWAP1 POP PUSH1 0x4 PUSH1 0x0 SWAP1 SLOAD SWAP1 PUSH2 0x100 EXP SWAP1 DIV PUSH20 0xFFFFFFFFFFFFFFFFFFFFFFFFFFFFFFFFFFFFFFFF AND PUSH20 0xFFFFFFFFFFFFFFFFFFFFFFFFFFFFFFFFFFFFFFFF AND PUSH4 0xE805CF86 DUP5 DUP5 PUSH1 0x40 MLOAD DUP4 PUSH4 0xFFFFFFFF AND PUSH1 0xE0 SHL DUP2 MSTORE PUSH1 0x4 ADD PUSH2 0xB2F SWAP3 SWAP2 SWAP1 PUSH2 0x23DC JUMP JUMPDEST PUSH1 0x0 PUSH1 0x40 MLOAD DUP1 DUP4 SUB DUP2 PUSH1 0x0 DUP8 DUP1 EXTCODESIZE ISZERO DUP1 ISZERO PUSH2 0xB49 JUMPI PUSH1 0x0 DUP1 REVERT JUMPDEST POP GAS CALL ISZERO DUP1 ISZERO PUSH2 0xB5D JUMPI RETURNDATASIZE PUSH1 0x0 DUP1 RETURNDATACOPY RETURNDATASIZE PUSH1 0x0 REVERT JUMPDEST POP POP POP POP DUP2 PUSH20 0xFFFFFFFFFFFFFFFFFFFFFFFFFFFFFFFFFFFFFFFF AND DUP2 PUSH20 0xFFFFFFFFFFFFFFFFFFFFFFFFFFFFFFFFFFFFFFFF AND PUSH32 0xE98082932C8056A0F514DA9104E4A66BC2CBAEF102AD59D90C4B24220EBF6010 PUSH1 0x40 MLOAD PUSH1 0x40 MLOAD DUP1 SWAP2 SUB SWAP1 LOG3 POP POP POP JUMP JUMPDEST PUSH2 0xBC8 PUSH2 0x17B3 JUMP JUMPDEST PUSH2 0xBDC DUP2 PUSH1 0x1 PUSH2 0x199D SWAP1 SWAP2 SWAP1 PUSH4 0xFFFFFFFF AND JUMP JUMPDEST DUP1 PUSH20 0xFFFFFFFFFFFFFFFFFFFFFFFFFFFFFFFFFFFFFFFF AND PUSH32 0xED9C8AD8D5A0A66898EA49D2956929C93AE2E8BD50281B2ED897C5D1A6737E0B PUSH1 0x40 MLOAD PUSH1 0x40 MLOAD DUP1 SWAP2 SUB SWAP1 LOG2 POP JUMP JUMPDEST PUSH2 0xC2B CALLER PUSH2 0x457 JUMP JUMPDEST PUSH2 0xC6A JUMPI PUSH1 0x40 MLOAD PUSH32 0x8C379A000000000000000000000000000000000000000000000000000000000 DUP2 MSTORE PUSH1 0x4 ADD PUSH2 0xC61 SWAP1 PUSH2 0x25C3 JUMP JUMPDEST PUSH1 0x40 MLOAD DUP1 SWAP2 SUB SWAP1 REVERT JUMPDEST PUSH1 0x4 PUSH1 0x0 SWAP1 SLOAD SWAP1 PUSH2 0x100 EXP SWAP1 DIV PUSH20 0xFFFFFFFFFFFFFFFFFFFFFFFFFFFFFFFFFFFFFFFF AND PUSH20 0xFFFFFFFFFFFFFFFFFFFFFFFFFFFFFFFFFFFFFFFF AND PUSH4 0xCF191BCD DUP3 PUSH1 0x40 MLOAD DUP3 PUSH4 0xFFFFFFFF AND PUSH1 0xE0 SHL DUP2 MSTORE PUSH1 0x4 ADD PUSH2 0xCC5 SWAP2 SWAP1 PUSH2 0x23C1 JUMP JUMPDEST PUSH1 0x0 PUSH1 0x40 MLOAD DUP1 DUP4 SUB DUP2 PUSH1 0x0 DUP8 DUP1 EXTCODESIZE ISZERO DUP1 ISZERO PUSH2 0xCDF JUMPI PUSH1 0x0 DUP1 REVERT JUMPDEST POP GAS CALL ISZERO DUP1 ISZERO PUSH2 0xCF3 JUMPI RETURNDATASIZE PUSH1 0x0 DUP1 RETURNDATACOPY RETURNDATASIZE PUSH1 0x0 REVERT JUMPDEST POP POP POP POP PUSH2 0xD00 DUP2 PUSH2 0x1589 JUMP JUMPDEST PUSH20 0xFFFFFFFFFFFFFFFFFFFFFFFFFFFFFFFFFFFFFFFF AND DUP2 PUSH20 0xFFFFFFFFFFFFFFFFFFFFFFFFFFFFFFFFFFFFFFFF AND PUSH32 0x59D6590E225B81BEFE259AF056324092801080ACBB7FEAB310EB34678871F327 PUSH1 0x40 MLOAD PUSH1 0x40 MLOAD DUP1 SWAP2 SUB SWAP1 LOG3 POP JUMP JUMPDEST PUSH1 0x0 PUSH1 0x3 PUSH1 0x0 SWAP1 SLOAD SWAP1 PUSH2 0x100 EXP SWAP1 DIV PUSH20 0xFFFFFFFFFFFFFFFFFFFFFFFFFFFFFFFFFFFFFFFF AND SWAP1 POP SWAP1 JUMP JUMPDEST PUSH1 0x0 DUP1 PUSH20 0xFFFFFFFFFFFFFFFFFFFFFFFFFFFFFFFFFFFFFFFF AND PUSH2 0xDA8 DUP4 PUSH2 0x1589 JUMP JUMPDEST PUSH20 0xFFFFFFFFFFFFFFFFFFFFFFFFFFFFFFFFFFFFFFFF AND EQ ISZERO PUSH2 0xDCD JUMPI PUSH1 0x0 SWAP1 POP PUSH2 0x14E1 JUMP JUMPDEST PUSH1 0x0 PUSH1 0x2 PUSH1 0x0 SWAP1 SLOAD SWAP1 PUSH2 0x100 EXP SWAP1 DIV PUSH20 0xFFFFFFFFFFFFFFFFFFFFFFFFFFFFFFFFFFFFFFFF AND PUSH20 0xFFFFFFFFFFFFFFFFFFFFFFFFFFFFFFFFFFFFFFFF AND PUSH4 0xDF09D604 PUSH1 0x40 MLOAD DUP2 PUSH4 0xFFFFFFFF AND PUSH1 0xE0 SHL DUP2 MSTORE PUSH1 0x4 ADD PUSH1 0x0 PUSH1 0x40 MLOAD DUP1 DUP4 SUB DUP2 DUP7 DUP1 EXTCODESIZE ISZERO DUP1 ISZERO PUSH2 0xE37 JUMPI PUSH1 0x0 DUP1 REVERT JUMPDEST POP GAS STATICCALL ISZERO DUP1 ISZERO PUSH2 0xE4B JUMPI RETURNDATASIZE PUSH1 0x0 DUP1 RETURNDATACOPY RETURNDATASIZE PUSH1 0x0 REVERT JUMPDEST POP POP POP POP PUSH1 0x40 MLOAD RETURNDATASIZE PUSH1 0x0 DUP3 RETURNDATACOPY RETURNDATASIZE PUSH1 0x1F NOT PUSH1 0x1F DUP3 ADD AND DUP3 ADD DUP1 PUSH1 0x40 MSTORE POP DUP2 ADD SWAP1 PUSH2 0xE74 SWAP2 SWAP1 PUSH2 0x2024 JUMP JUMPDEST SWAP1 POP PUSH1 0x0 DUP2 MLOAD EQ ISZERO PUSH2 0xE8A JUMPI PUSH1 0x1 SWAP2 POP POP PUSH2 0x14E1 JUMP JUMPDEST PUSH1 0x0 DUP1 PUSH1 0x0 PUSH1 0x60 DUP1 PUSH1 0x0 JUMPDEST DUP7 MLOAD DUP2 LT ISZERO PUSH2 0x14D5 JUMPI PUSH1 0x0 PUSH2 0xEA9 DUP11 PUSH2 0x1589 JUMP JUMPDEST PUSH20 0xFFFFFFFFFFFFFFFFFFFFFFFFFFFFFFFFFFFFFFFF AND PUSH4 0x80E9E9E1 DUP10 DUP5 DUP2 MLOAD DUP2 LT PUSH2 0xED7 JUMPI PUSH2 0xED6 PUSH2 0x2973 JUMP JUMPDEST JUMPDEST PUSH1 0x20 MUL PUSH1 0x20 ADD ADD MLOAD PUSH1 0x40 MLOAD DUP3 PUSH4 0xFFFFFFFF AND PUSH1 0xE0 SHL DUP2 MSTORE PUSH1 0x4 ADD PUSH2 0xEFB SWAP2 SWAP1 PUSH2 0x265E JUMP JUMPDEST PUSH1 0x0 PUSH1 0x40 MLOAD DUP1 DUP4 SUB DUP2 DUP7 DUP1 EXTCODESIZE ISZERO DUP1 ISZERO PUSH2 0xF13 JUMPI PUSH1 0x0 DUP1 REVERT JUMPDEST POP GAS STATICCALL ISZERO DUP1 ISZERO PUSH2 0xF27 JUMPI RETURNDATASIZE PUSH1 0x0 DUP1 RETURNDATACOPY RETURNDATASIZE PUSH1 0x0 REVERT JUMPDEST POP POP POP POP PUSH1 0x40 MLOAD RETURNDATASIZE PUSH1 0x0 DUP3 RETURNDATACOPY RETURNDATASIZE PUSH1 0x1F NOT PUSH1 0x1F DUP3 ADD AND DUP3 ADD DUP1 PUSH1 0x40 MSTORE POP DUP2 ADD SWAP1 PUSH2 0xF50 SWAP2 SWAP1 PUSH2 0x1FDB JUMP JUMPDEST SWAP1 POP PUSH1 0x0 DUP2 MLOAD EQ ISZERO PUSH2 0xF6D JUMPI PUSH1 0x0 SWAP9 POP POP POP POP POP POP POP POP POP PUSH2 0x14E1 JUMP JUMPDEST PUSH1 0x0 JUMPDEST DUP2 MLOAD DUP2 LT ISZERO PUSH2 0x14C0 JUMPI PUSH2 0xF82 DUP12 PUSH2 0x1589 JUMP JUMPDEST PUSH20 0xFFFFFFFFFFFFFFFFFFFFFFFFFFFFFFFFFFFFFFFF AND PUSH4 0xC9100BCB DUP4 DUP4 DUP2 MLOAD DUP2 LT PUSH2 0xFB0 JUMPI PUSH2 0xFAF PUSH2 0x2973 JUMP JUMPDEST JUMPDEST PUSH1 0x20 MUL PUSH1 0x20 ADD ADD MLOAD PUSH1 0x40 MLOAD DUP3 PUSH4 0xFFFFFFFF AND PUSH1 0xE0 SHL DUP2 MSTORE PUSH1 0x4 ADD PUSH2 0xFD4 SWAP2 SWAP1 PUSH2 0x24A9 JUMP JUMPDEST PUSH1 0x0 PUSH1 0x40 MLOAD DUP1 DUP4 SUB DUP2 DUP7 DUP1 EXTCODESIZE ISZERO DUP1 ISZERO PUSH2 0xFEC JUMPI PUSH1 0x0 DUP1 REVERT JUMPDEST POP GAS STATICCALL ISZERO DUP1 ISZERO PUSH2 0x1000 JUMPI RETURNDATASIZE PUSH1 0x0 DUP1 RETURNDATACOPY RETURNDATASIZE PUSH1 0x0 REVERT JUMPDEST POP POP POP POP PUSH1 0x40 MLOAD RETURNDATASIZE PUSH1 0x0 DUP3 RETURNDATACOPY RETURNDATASIZE PUSH1 0x1F NOT PUSH1 0x1F DUP3 ADD AND DUP3 ADD DUP1 PUSH1 0x40 MSTORE POP DUP2 ADD SWAP1 PUSH2 0x1029 SWAP2 SWAP1 PUSH2 0x214E JUMP JUMPDEST POP DUP1 SWAP9 POP DUP2 SWAP10 POP DUP3 SWAP11 POP DUP4 SWAP12 POP DUP5 SWAP13 POP POP POP POP POP POP DUP6 PUSH20 0xFFFFFFFFFFFFFFFFFFFFFFFFFFFFFFFFFFFFFFFF AND PUSH4 0xC0969A6E PUSH2 0x1063 DUP14 PUSH2 0x1589 JUMP JUMPDEST DUP12 DUP7 DUP2 MLOAD DUP2 LT PUSH2 0x1076 JUMPI PUSH2 0x1075 PUSH2 0x2973 JUMP JUMPDEST JUMPDEST PUSH1 0x20 MUL PUSH1 0x20 ADD ADD MLOAD DUP9 DUP9 PUSH1 0x40 MLOAD DUP6 PUSH4 0xFFFFFFFF AND PUSH1 0xE0 SHL DUP2 MSTORE PUSH1 0x4 ADD PUSH2 0x109F SWAP5 SWAP4 SWAP3 SWAP2 SWAP1 PUSH2 0x2515 JUMP JUMPDEST PUSH1 0x20 PUSH1 0x40 MLOAD DUP1 DUP4 SUB DUP2 DUP7 DUP1 EXTCODESIZE ISZERO DUP1 ISZERO PUSH2 0x10B7 JUMPI PUSH1 0x0 DUP1 REVERT JUMPDEST POP GAS STATICCALL SWAP3 POP POP POP DUP1 ISZERO PUSH2 0x10E8 JUMPI POP PUSH1 0x40 MLOAD RETURNDATASIZE PUSH1 0x1F NOT PUSH1 0x1F DUP3 ADD AND DUP3 ADD DUP1 PUSH1 0x40 MSTORE POP DUP2 ADD SWAP1 PUSH2 0x10E5 SWAP2 SWAP1 PUSH2 0x206D JUMP JUMPDEST PUSH1 0x1 JUMPDEST PUSH2 0x1118 JUMPI PUSH1 0x1 DUP3 MLOAD PUSH2 0x10FA SWAP2 SWAP1 PUSH2 0x2785 JUMP JUMPDEST DUP2 EQ ISZERO PUSH2 0x1113 JUMPI PUSH1 0x0 SWAP10 POP POP POP POP POP POP POP POP POP POP PUSH2 0x14E1 JUMP JUMPDEST PUSH2 0x14AD JUMP JUMPDEST DUP1 DUP1 ISZERO PUSH2 0x11E8 JUMPI POP PUSH1 0x3 PUSH1 0x0 SWAP1 SLOAD SWAP1 PUSH2 0x100 EXP SWAP1 DIV PUSH20 0xFFFFFFFFFFFFFFFFFFFFFFFFFFFFFFFFFFFFFFFF AND PUSH20 0xFFFFFFFFFFFFFFFFFFFFFFFFFFFFFFFFFFFFFFFF AND PUSH4 0x34A89987 DUP9 DUP13 DUP8 DUP2 MLOAD DUP2 LT PUSH2 0x1172 JUMPI PUSH2 0x1171 PUSH2 0x2973 JUMP JUMPDEST JUMPDEST PUSH1 0x20 MUL PUSH1 0x20 ADD ADD MLOAD PUSH1 0x40 MLOAD DUP4 PUSH4 0xFFFFFFFF AND PUSH1 0xE0 SHL DUP2 MSTORE PUSH1 0x4 ADD PUSH2 0x1197 SWAP3 SWAP2 SWAP1 PUSH2 0x2465 JUMP JUMPDEST PUSH1 0x20 PUSH1 0x40 MLOAD DUP1 DUP4 SUB DUP2 DUP7 DUP1 EXTCODESIZE ISZERO DUP1 ISZERO PUSH2 0x11AF JUMPI PUSH1 0x0 DUP1 REVERT JUMPDEST POP GAS STATICCALL ISZERO DUP1 ISZERO PUSH2 0x11C3 JUMPI RETURNDATASIZE PUSH1 0x0 DUP1 RETURNDATACOPY RETURNDATASIZE PUSH1 0x0 REVERT JUMPDEST POP POP POP POP PUSH1 0x40 MLOAD RETURNDATASIZE PUSH1 0x1F NOT PUSH1 0x1F DUP3 ADD AND DUP3 ADD DUP1 PUSH1 0x40 MSTORE POP DUP2 ADD SWAP1 PUSH2 0x11E7 SWAP2 SWAP1 PUSH2 0x206D JUMP JUMPDEST JUMPDEST DUP1 ISZERO PUSH2 0x129B JUMPI POP PUSH1 0x3 PUSH1 0x0 SWAP1 SLOAD SWAP1 PUSH2 0x100 EXP SWAP1 DIV PUSH20 0xFFFFFFFFFFFFFFFFFFFFFFFFFFFFFFFFFFFFFFFF AND PUSH20 0xFFFFFFFFFFFFFFFFFFFFFFFFFFFFFFFFFFFFFFFF AND PUSH4 0xEF2ED1A4 DUP9 PUSH1 0x40 MLOAD DUP3 PUSH4 0xFFFFFFFF AND PUSH1 0xE0 SHL DUP2 MSTORE PUSH1 0x4 ADD PUSH2 0x124A SWAP2 SWAP1 PUSH2 0x23C1 JUMP JUMPDEST PUSH1 0x20 PUSH1 0x40 MLOAD DUP1 DUP4 SUB DUP2 DUP7 DUP1 EXTCODESIZE ISZERO DUP1 ISZERO PUSH2 0x1262 JUMPI PUSH1 0x0 DUP1 REVERT JUMPDEST POP GAS STATICCALL ISZERO DUP1 ISZERO PUSH2 0x1276 JUMPI RETURNDATASIZE PUSH1 0x0 DUP1 RETURNDATACOPY RETURNDATASIZE PUSH1 0x0 REVERT JUMPDEST POP POP POP POP PUSH1 0x40 MLOAD RETURNDATASIZE PUSH1 0x1F NOT PUSH1 0x1F DUP3 ADD AND DUP3 ADD DUP1 PUSH1 0x40 MSTORE POP DUP2 ADD SWAP1 PUSH2 0x129A SWAP2 SWAP1 PUSH2 0x206D JUMP JUMPDEST JUMPDEST ISZERO PUSH2 0x12A5 JUMPI DUP3 MLOAD SWAP2 POP JUMPDEST PUSH1 0x3 PUSH1 0x0 SWAP1 SLOAD SWAP1 PUSH2 0x100 EXP SWAP1 DIV PUSH20 0xFFFFFFFFFFFFFFFFFFFFFFFFFFFFFFFFFFFFFFFF AND PUSH20 0xFFFFFFFFFFFFFFFFFFFFFFFFFFFFFFFFFFFFFFFF AND PUSH4 0xEF2ED1A4 DUP9 PUSH1 0x40 MLOAD DUP3 PUSH4 0xFFFFFFFF AND PUSH1 0xE0 SHL DUP2 MSTORE PUSH1 0x4 ADD PUSH2 0x1300 SWAP2 SWAP1 PUSH2 0x23C1 JUMP JUMPDEST PUSH1 0x20 PUSH1 0x40 MLOAD DUP1 DUP4 SUB DUP2 DUP7 DUP1 EXTCODESIZE ISZERO DUP1 ISZERO PUSH2 0x1318 JUMPI PUSH1 0x0 DUP1 REVERT JUMPDEST POP GAS STATICCALL ISZERO DUP1 ISZERO PUSH2 0x132C JUMPI RETURNDATASIZE PUSH1 0x0 DUP1 RETURNDATACOPY RETURNDATASIZE PUSH1 0x0 REVERT JUMPDEST POP POP POP POP PUSH1 0x40 MLOAD RETURNDATASIZE PUSH1 0x1F NOT PUSH1 0x1F DUP3 ADD AND DUP3 ADD DUP1 PUSH1 0x40 MSTORE POP DUP2 ADD SWAP1 PUSH2 0x1350 SWAP2 SWAP1 PUSH2 0x206D JUMP JUMPDEST ISZERO DUP1 ISZERO PUSH2 0x1369 JUMPI POP PUSH1 0x1 DUP4 MLOAD PUSH2 0x1366 SWAP2 SWAP1 PUSH2 0x2785 JUMP JUMPDEST DUP3 EQ JUMPDEST ISZERO PUSH2 0x1381 JUMPI PUSH1 0x0 SWAP11 POP POP POP POP POP POP POP POP POP POP POP PUSH2 0x14E1 JUMP JUMPDEST PUSH1 0x3 PUSH1 0x0 SWAP1 SLOAD SWAP1 PUSH2 0x100 EXP SWAP1 DIV PUSH20 0xFFFFFFFFFFFFFFFFFFFFFFFFFFFFFFFFFFFFFFFF AND PUSH20 0xFFFFFFFFFFFFFFFFFFFFFFFFFFFFFFFFFFFFFFFF AND PUSH4 0x34A89987 DUP9 DUP13 DUP8 DUP2 MLOAD DUP2 LT PUSH2 0x13D3 JUMPI PUSH2 0x13D2 PUSH2 0x2973 JUMP JUMPDEST JUMPDEST PUSH1 0x20 MUL PUSH1 0x20 ADD ADD MLOAD PUSH1 0x40 MLOAD DUP4 PUSH4 0xFFFFFFFF AND PUSH1 0xE0 SHL DUP2 MSTORE PUSH1 0x4 ADD PUSH2 0x13F8 SWAP3 SWAP2 SWAP1 PUSH2 0x2465 JUMP JUMPDEST PUSH1 0x20 PUSH1 0x40 MLOAD DUP1 DUP4 SUB DUP2 DUP7 DUP1 EXTCODESIZE ISZERO DUP1 ISZERO PUSH2 0x1410 JUMPI PUSH1 0x0 DUP1 REVERT JUMPDEST POP GAS STATICCALL ISZERO DUP1 ISZERO PUSH2 0x1424 JUMPI RETURNDATASIZE PUSH1 0x0 DUP1 RETURNDATACOPY RETURNDATASIZE PUSH1 0x0 REVERT JUMPDEST POP POP POP POP PUSH1 0x40 MLOAD RETURNDATASIZE PUSH1 0x1F NOT PUSH1 0x1F DUP3 ADD AND DUP3 ADD DUP1 PUSH1 0x40 MSTORE POP DUP2 ADD SWAP1 PUSH2 0x1448 SWAP2 SWAP1 PUSH2 0x206D JUMP JUMPDEST ISZERO DUP1 ISZERO PUSH2 0x1461 JUMPI POP PUSH1 0x1 DUP4 MLOAD PUSH2 0x145E SWAP2 SWAP1 PUSH2 0x2785 JUMP JUMPDEST DUP3 EQ JUMPDEST ISZERO PUSH2 0x1479 JUMPI PUSH1 0x0 SWAP11 POP POP POP POP POP POP POP POP POP POP POP PUSH2 0x14E1 JUMP JUMPDEST DUP1 ISZERO DUP1 ISZERO PUSH2 0x1493 JUMPI POP PUSH1 0x1 DUP4 MLOAD PUSH2 0x1490 SWAP2 SWAP1 PUSH2 0x2785 JUMP JUMPDEST DUP3 EQ JUMPDEST ISZERO PUSH2 0x14AB JUMPI PUSH1 0x0 SWAP11 POP POP POP POP POP POP POP POP POP POP POP PUSH2 0x14E1 JUMP JUMPDEST POP JUMPDEST DUP1 DUP1 PUSH2 0x14B8 SWAP1 PUSH2 0x28FB JUMP JUMPDEST SWAP2 POP POP PUSH2 0xF70 JUMP JUMPDEST POP POP DUP1 DUP1 PUSH2 0x14CD SWAP1 PUSH2 0x28FB JUMP JUMPDEST SWAP2 POP POP PUSH2 0xE95 JUMP JUMPDEST PUSH1 0x1 SWAP8 POP POP POP POP POP POP POP POP JUMPDEST SWAP2 SWAP1 POP JUMP JUMPDEST PUSH2 0x14EE PUSH2 0x17B3 JUMP JUMPDEST PUSH2 0x14F7 DUP2 PUSH2 0x1667 JUMP JUMPDEST POP JUMP JUMPDEST PUSH2 0x1502 PUSH2 0x17B3 JUMP JUMPDEST DUP1 PUSH1 0x3 PUSH1 0x0 PUSH2 0x100 EXP DUP2 SLOAD DUP2 PUSH20 0xFFFFFFFFFFFFFFFFFFFFFFFFFFFFFFFFFFFFFFFF MUL NOT AND SWAP1 DUP4 PUSH20 0xFFFFFFFFFFFFFFFFFFFFFFFFFFFFFFFFFFFFFFFF AND MUL OR SWAP1 SSTORE POP DUP1 PUSH20 0xFFFFFFFFFFFFFFFFFFFFFFFFFFFFFFFFFFFFFFFF AND PUSH32 0x1B98CB79E6F73020175FE87333F1B91AD6A881519C0AFE30340C2599B2B4BDE0 PUSH1 0x40 MLOAD PUSH1 0x40 MLOAD DUP1 SWAP2 SUB SWAP1 LOG2 POP JUMP JUMPDEST PUSH1 0x0 PUSH1 0x4 PUSH1 0x0 SWAP1 SLOAD SWAP1 PUSH2 0x100 EXP SWAP1 DIV PUSH20 0xFFFFFFFFFFFFFFFFFFFFFFFFFFFFFFFFFFFFFFFF AND PUSH20 0xFFFFFFFFFFFFFFFFFFFFFFFFFFFFFFFFFFFFFFFF AND PUSH4 0x7988D3A5 DUP4 PUSH1 0x40 MLOAD DUP3 PUSH4 0xFFFFFFFF AND PUSH1 0xE0 SHL DUP2 MSTORE PUSH1 0x4 ADD PUSH2 0x15E6 SWAP2 SWAP1 PUSH2 0x23C1 JUMP JUMPDEST PUSH1 0x20 PUSH1 0x40 MLOAD DUP1 DUP4 SUB DUP2 DUP7 DUP1 EXTCODESIZE ISZERO DUP1 ISZERO PUSH2 0x15FE JUMPI PUSH1 0x0 DUP1 REVERT JUMPDEST POP GAS STATICCALL ISZERO DUP1 ISZERO PUSH2 0x1612 JUMPI RETURNDATASIZE PUSH1 0x0 DUP1 RETURNDATACOPY RETURNDATASIZE PUSH1 0x0 REVERT JUMPDEST POP POP POP POP PUSH1 0x40 MLOAD RETURNDATASIZE PUSH1 0x1F NOT PUSH1 0x1F DUP3 ADD AND DUP3 ADD DUP1 PUSH1 0x40 MSTORE POP DUP2 ADD SWAP1 PUSH2 0x1636 SWAP2 SWAP1 PUSH2 0x20C7 JUMP JUMPDEST SWAP1 POP SWAP2 SWAP1 POP JUMP JUMPDEST PUSH1 0x0 PUSH1 0x4 PUSH1 0x0 SWAP1 SLOAD SWAP1 PUSH2 0x100 EXP SWAP1 DIV PUSH20 0xFFFFFFFFFFFFFFFFFFFFFFFFFFFFFFFFFFFFFFFF AND SWAP1 POP SWAP1 JUMP JUMPDEST PUSH2 0x166F PUSH2 0x17B3 JUMP JUMPDEST PUSH1 0x0 PUSH20 0xFFFFFFFFFFFFFFFFFFFFFFFFFFFFFFFFFFFFFFFF AND DUP2 PUSH20 0xFFFFFFFFFFFFFFFFFFFFFFFFFFFFFFFFFFFFFFFF AND EQ ISZERO PUSH2 0x16DF JUMPI PUSH1 0x40 MLOAD PUSH32 0x8C379A000000000000000000000000000000000000000000000000000000000 DUP2 MSTORE PUSH1 0x4 ADD PUSH2 0x16D6 SWAP1 PUSH2 0x25A3 JUMP JUMPDEST PUSH1 0x40 MLOAD DUP1 SWAP2 SUB SWAP1 REVERT JUMPDEST PUSH2 0x16E8 DUP2 PUSH2 0x1831 JUMP JUMPDEST POP JUMP JUMPDEST PUSH1 0x0 DUP1 PUSH20 0xFFFFFFFFFFFFFFFFFFFFFFFFFFFFFFFFFFFFFFFF AND DUP3 PUSH20 0xFFFFFFFFFFFFFFFFFFFFFFFFFFFFFFFFFFFFFFFF AND EQ ISZERO PUSH2 0x175C JUMPI PUSH1 0x40 MLOAD PUSH32 0x8C379A000000000000000000000000000000000000000000000000000000000 DUP2 MSTORE PUSH1 0x4 ADD PUSH2 0x1753 SWAP1 PUSH2 0x2623 JUMP JUMPDEST PUSH1 0x40 MLOAD DUP1 SWAP2 SUB SWAP1 REVERT JUMPDEST DUP3 PUSH1 0x0 ADD PUSH1 0x0 DUP4 PUSH20 0xFFFFFFFFFFFFFFFFFFFFFFFFFFFFFFFFFFFFFFFF AND PUSH20 0xFFFFFFFFFFFFFFFFFFFFFFFFFFFFFFFFFFFFFFFF AND DUP2 MSTORE PUSH1 0x20 ADD SWAP1 DUP2 MSTORE PUSH1 0x20 ADD PUSH1 0x0 KECCAK256 PUSH1 0x0 SWAP1 SLOAD SWAP1 PUSH2 0x100 EXP SWAP1 DIV PUSH1 0xFF AND SWAP1 POP SWAP3 SWAP2 POP POP JUMP JUMPDEST PUSH2 0x17BB PUSH2 0x1A44 JUMP JUMPDEST PUSH20 0xFFFFFFFFFFFFFFFFFFFFFFFFFFFFFFFFFFFFFFFF AND PUSH2 0x17D9 PUSH2 0xA54 JUMP JUMPDEST PUSH20 0xFFFFFFFFFFFFFFFFFFFFFFFFFFFFFFFFFFFFFFFF AND EQ PUSH2 0x182F JUMPI PUSH1 0x40 MLOAD PUSH32 0x8C379A000000000000000000000000000000000000000000000000000000000 DUP2 MSTORE PUSH1 0x4 ADD PUSH2 0x1826 SWAP1 PUSH2 0x2603 JUMP JUMPDEST PUSH1 0x40 MLOAD DUP1 SWAP2 SUB SWAP1 REVERT JUMPDEST JUMP JUMPDEST PUSH1 0x0 DUP1 PUSH1 0x0 SWAP1 SLOAD SWAP1 PUSH2 0x100 EXP SWAP1 DIV PUSH20 0xFFFFFFFFFFFFFFFFFFFFFFFFFFFFFFFFFFFFFFFF AND SWAP1 POP DUP2 PUSH1 0x0 DUP1 PUSH2 0x100 EXP DUP2 SLOAD DUP2 PUSH20 0xFFFFFFFFFFFFFFFFFFFFFFFFFFFFFFFFFFFFFFFF MUL NOT AND SWAP1 DUP4 PUSH20 0xFFFFFFFFFFFFFFFFFFFFFFFFFFFFFFFFFFFFFFFF AND MUL OR SWAP1 SSTORE POP DUP2 PUSH20 0xFFFFFFFFFFFFFFFFFFFFFFFFFFFFFFFFFFFFFFFF AND DUP2 PUSH20 0xFFFFFFFFFFFFFFFFFFFFFFFFFFFFFFFFFFFFFFFF AND PUSH32 0x8BE0079C531659141344CD1FD0A4F28419497F9722A3DAAFE3B4186F6B6457E0 PUSH1 0x40 MLOAD PUSH1 0x40 MLOAD DUP1 SWAP2 SUB SWAP1 LOG3 POP POP JUMP JUMPDEST PUSH2 0x18FF DUP3 DUP3 PUSH2 0x16EB JUMP JUMPDEST ISZERO PUSH2 0x193F JUMPI PUSH1 0x40 MLOAD PUSH32 0x8C379A000000000000000000000000000000000000000000000000000000000 DUP2 MSTORE PUSH1 0x4 ADD PUSH2 0x1936 SWAP1 PUSH2 0x2583 JUMP JUMPDEST PUSH1 0x40 MLOAD DUP1 SWAP2 SUB SWAP1 REVERT JUMPDEST PUSH1 0x1 DUP3 PUSH1 0x0 ADD PUSH1 0x0 DUP4 PUSH20 0xFFFFFFFFFFFFFFFFFFFFFFFFFFFFFFFFFFFFFFFF AND PUSH20 0xFFFFFFFFFFFFFFFFFFFFFFFFFFFFFFFFFFFFFFFF AND DUP2 MSTORE PUSH1 0x20 ADD SWAP1 DUP2 MSTORE PUSH1 0x20 ADD PUSH1 0x0 KECCAK256 PUSH1 0x0 PUSH2 0x100 EXP DUP2 SLOAD DUP2 PUSH1 0xFF MUL NOT AND SWAP1 DUP4 ISZERO ISZERO MUL OR SWAP1 SSTORE POP POP POP JUMP JUMPDEST PUSH2 0x19A7 DUP3 DUP3 PUSH2 0x16EB JUMP JUMPDEST PUSH2 0x19E6 JUMPI PUSH1 0x40 MLOAD PUSH32 0x8C379A000000000000000000000000000000000000000000000000000000000 DUP2 MSTORE PUSH1 0x4 ADD PUSH2 0x19DD SWAP1 PUSH2 0x25E3 JUMP JUMPDEST PUSH1 0x40 MLOAD DUP1 SWAP2 SUB SWAP1 REVERT JUMPDEST PUSH1 0x0 DUP3 PUSH1 0x0 ADD PUSH1 0x0 DUP4 PUSH20 0xFFFFFFFFFFFFFFFFFFFFFFFFFFFFFFFFFFFFFFFF AND PUSH20 0xFFFFFFFFFFFFFFFFFFFFFFFFFFFFFFFFFFFFFFFF AND DUP2 MSTORE PUSH1 0x20 ADD SWAP1 DUP2 MSTORE PUSH1 0x20 ADD PUSH1 0x0 KECCAK256 PUSH1 0x0 PUSH2 0x100 EXP DUP2 SLOAD DUP2 PUSH1 0xFF MUL NOT AND SWAP1 DUP4 ISZERO ISZERO MUL OR SWAP1 SSTORE POP POP POP JUMP JUMPDEST PUSH1 0x0 CALLER SWAP1 POP SWAP1 JUMP JUMPDEST PUSH1 0x0 PUSH2 0x1A5F PUSH2 0x1A5A DUP5 PUSH2 0x269E JUMP JUMPDEST PUSH2 0x2679 JUMP JUMPDEST SWAP1 POP DUP1 DUP4 DUP3 MSTORE PUSH1 0x20 DUP3 ADD SWAP1 POP DUP3 DUP6 PUSH1 0x20 DUP7 MUL DUP3 ADD GT ISZERO PUSH2 0x1A82 JUMPI PUSH2 0x1A81 PUSH2 0x29DB JUMP JUMPDEST JUMPDEST PUSH1 0x0 JUMPDEST DUP6 DUP2 LT ISZERO PUSH2 0x1AB2 JUMPI DUP2 PUSH2 0x1A98 DUP9 DUP3 PUSH2 0x1D4D JUMP JUMPDEST DUP5 MSTORE PUSH1 0x20 DUP5 ADD SWAP4 POP PUSH1 0x20 DUP4 ADD SWAP3 POP POP PUSH1 0x1 DUP2 ADD SWAP1 POP PUSH2 0x1A85 JUMP JUMPDEST POP POP POP SWAP4 SWAP3 POP POP POP JUMP JUMPDEST PUSH1 0x0 PUSH2 0x1ACF PUSH2 0x1ACA DUP5 PUSH2 0x26CA JUMP JUMPDEST PUSH2 0x2679 JUMP JUMPDEST SWAP1 POP DUP1 DUP4 DUP3 MSTORE PUSH1 0x20 DUP3 ADD SWAP1 POP DUP3 DUP6 PUSH1 0x20 DUP7 MUL DUP3 ADD GT ISZERO PUSH2 0x1AF2 JUMPI PUSH2 0x1AF1 PUSH2 0x29DB JUMP JUMPDEST JUMPDEST PUSH1 0x0 JUMPDEST DUP6 DUP2 LT ISZERO PUSH2 0x1B22 JUMPI DUP2 PUSH2 0x1B08 DUP9 DUP3 PUSH2 0x1E12 JUMP JUMPDEST DUP5 MSTORE PUSH1 0x20 DUP5 ADD SWAP4 POP PUSH1 0x20 DUP4 ADD SWAP3 POP POP PUSH1 0x1 DUP2 ADD SWAP1 POP PUSH2 0x1AF5 JUMP JUMPDEST POP POP POP SWAP4 SWAP3 POP POP POP JUMP JUMPDEST PUSH1 0x0 PUSH2 0x1B3F PUSH2 0x1B3A DUP5 PUSH2 0x26F6 JUMP JUMPDEST PUSH2 0x2679 JUMP JUMPDEST SWAP1 POP DUP3 DUP2 MSTORE PUSH1 0x20 DUP2 ADD DUP5 DUP5 DUP5 ADD GT ISZERO PUSH2 0x1B5B JUMPI PUSH2 0x1B5A PUSH2 0x29E0 JUMP JUMPDEST JUMPDEST PUSH2 0x1B66 DUP5 DUP3 DUP6 PUSH2 0x2897 JUMP JUMPDEST POP SWAP4 SWAP3 POP POP POP JUMP JUMPDEST PUSH1 0x0 PUSH2 0x1B81 PUSH2 0x1B7C DUP5 PUSH2 0x2727 JUMP JUMPDEST PUSH2 0x2679 JUMP JUMPDEST SWAP1 POP DUP3 DUP2 MSTORE PUSH1 0x20 DUP2 ADD DUP5 DUP5 DUP5 ADD GT ISZERO PUSH2 0x1B9D JUMPI PUSH2 0x1B9C PUSH2 0x29E0 JUMP JUMPDEST JUMPDEST PUSH2 0x1BA8 DUP5 DUP3 DUP6 PUSH2 0x2897 JUMP JUMPDEST POP SWAP4 SWAP3 POP POP POP JUMP JUMPDEST PUSH1 0x0 DUP2 CALLDATALOAD SWAP1 POP PUSH2 0x1BBF DUP2 PUSH2 0x2B8E JUMP JUMPDEST SWAP3 SWAP2 POP POP JUMP JUMPDEST PUSH1 0x0 DUP2 MLOAD SWAP1 POP PUSH2 0x1BD4 DUP2 PUSH2 0x2B8E JUMP JUMPDEST SWAP3 SWAP2 POP POP JUMP JUMPDEST PUSH1 0x0 DUP1 DUP4 PUSH1 0x1F DUP5 ADD SLT PUSH2 0x1BF0 JUMPI PUSH2 0x1BEF PUSH2 0x29D6 JUMP JUMPDEST JUMPDEST DUP3 CALLDATALOAD SWAP1 POP PUSH8 0xFFFFFFFFFFFFFFFF DUP2 GT ISZERO PUSH2 0x1C0D JUMPI PUSH2 0x1C0C PUSH2 0x29D1 JUMP JUMPDEST JUMPDEST PUSH1 0x20 DUP4 ADD SWAP2 POP DUP4 PUSH1 0x20 DUP3 MUL DUP4 ADD GT ISZERO PUSH2 0x1C29 JUMPI PUSH2 0x1C28 PUSH2 0x29DB JUMP JUMPDEST JUMPDEST SWAP3 POP SWAP3 SWAP1 POP JUMP JUMPDEST PUSH1 0x0 DUP3 PUSH1 0x1F DUP4 ADD SLT PUSH2 0x1C45 JUMPI PUSH2 0x1C44 PUSH2 0x29D6 JUMP JUMPDEST JUMPDEST DUP2 MLOAD PUSH2 0x1C55 DUP5 DUP3 PUSH1 0x20 DUP7 ADD PUSH2 0x1A4C JUMP JUMPDEST SWAP2 POP POP SWAP3 SWAP2 POP POP JUMP JUMPDEST PUSH1 0x0 DUP1 DUP4 PUSH1 0x1F DUP5 ADD SLT PUSH2 0x1C74 JUMPI PUSH2 0x1C73 PUSH2 0x29D6 JUMP JUMPDEST JUMPDEST DUP3 CALLDATALOAD SWAP1 POP PUSH8 0xFFFFFFFFFFFFFFFF DUP2 GT ISZERO PUSH2 0x1C91 JUMPI PUSH2 0x1C90 PUSH2 0x29D1 JUMP JUMPDEST JUMPDEST PUSH1 0x20 DUP4 ADD SWAP2 POP DUP4 PUSH1 0x20 DUP3 MUL DUP4 ADD GT ISZERO PUSH2 0x1CAD JUMPI PUSH2 0x1CAC PUSH2 0x29DB JUMP JUMPDEST JUMPDEST SWAP3 POP SWAP3 SWAP1 POP JUMP JUMPDEST PUSH1 0x0 DUP1 DUP4 PUSH1 0x1F DUP5 ADD SLT PUSH2 0x1CCA JUMPI PUSH2 0x1CC9 PUSH2 0x29D6 JUMP JUMPDEST JUMPDEST DUP3 CALLDATALOAD SWAP1 POP PUSH8 0xFFFFFFFFFFFFFFFF DUP2 GT ISZERO PUSH2 0x1CE7 JUMPI PUSH2 0x1CE6 PUSH2 0x29D1 JUMP JUMPDEST JUMPDEST PUSH1 0x20 DUP4 ADD SWAP2 POP DUP4 PUSH1 0x20 DUP3 MUL DUP4 ADD GT ISZERO PUSH2 0x1D03 JUMPI PUSH2 0x1D02 PUSH2 0x29DB JUMP JUMPDEST JUMPDEST SWAP3 POP SWAP3 SWAP1 POP JUMP JUMPDEST PUSH1 0x0 DUP3 PUSH1 0x1F DUP4 ADD SLT PUSH2 0x1D1F JUMPI PUSH2 0x1D1E PUSH2 0x29D6 JUMP JUMPDEST JUMPDEST DUP2 MLOAD PUSH2 0x1D2F DUP5 DUP3 PUSH1 0x20 DUP7 ADD PUSH2 0x1ABC JUMP JUMPDEST SWAP2 POP POP SWAP3 SWAP2 POP POP JUMP JUMPDEST PUSH1 0x0 DUP2 MLOAD SWAP1 POP PUSH2 0x1D47 DUP2 PUSH2 0x2BA5 JUMP JUMPDEST SWAP3 SWAP2 POP POP JUMP JUMPDEST PUSH1 0x0 DUP2 MLOAD SWAP1 POP PUSH2 0x1D5C DUP2 PUSH2 0x2BBC JUMP JUMPDEST SWAP3 SWAP2 POP POP JUMP JUMPDEST PUSH1 0x0 DUP3 PUSH1 0x1F DUP4 ADD SLT PUSH2 0x1D77 JUMPI PUSH2 0x1D76 PUSH2 0x29D6 JUMP JUMPDEST JUMPDEST DUP2 MLOAD PUSH2 0x1D87 DUP5 DUP3 PUSH1 0x20 DUP7 ADD PUSH2 0x1B2C JUMP JUMPDEST SWAP2 POP POP SWAP3 SWAP2 POP POP JUMP JUMPDEST PUSH1 0x0 DUP2 CALLDATALOAD SWAP1 POP PUSH2 0x1D9F DUP2 PUSH2 0x2BD3 JUMP JUMPDEST SWAP3 SWAP2 POP POP JUMP JUMPDEST PUSH1 0x0 DUP2 MLOAD SWAP1 POP PUSH2 0x1DB4 DUP2 PUSH2 0x2BD3 JUMP JUMPDEST SWAP3 SWAP2 POP POP JUMP JUMPDEST PUSH1 0x0 DUP3 PUSH1 0x1F DUP4 ADD SLT PUSH2 0x1DCF JUMPI PUSH2 0x1DCE PUSH2 0x29D6 JUMP JUMPDEST JUMPDEST DUP2 MLOAD PUSH2 0x1DDF DUP5 DUP3 PUSH1 0x20 DUP7 ADD PUSH2 0x1B6E JUMP JUMPDEST SWAP2 POP POP SWAP3 SWAP2 POP POP JUMP JUMPDEST PUSH1 0x0 DUP2 CALLDATALOAD SWAP1 POP PUSH2 0x1DF7 DUP2 PUSH2 0x2BEA JUMP JUMPDEST SWAP3 SWAP2 POP POP JUMP JUMPDEST PUSH1 0x0 DUP2 MLOAD SWAP1 POP PUSH2 0x1E0C DUP2 PUSH2 0x2BEA JUMP JUMPDEST SWAP3 SWAP2 POP POP JUMP JUMPDEST PUSH1 0x0 DUP2 MLOAD SWAP1 POP PUSH2 0x1E21 DUP2 PUSH2 0x2C01 JUMP JUMPDEST SWAP3 SWAP2 POP POP JUMP JUMPDEST PUSH1 0x0 PUSH1 0x20 DUP3 DUP5 SUB SLT ISZERO PUSH2 0x1E3D JUMPI PUSH2 0x1E3C PUSH2 0x29EA JUMP JUMPDEST JUMPDEST PUSH1 0x0 PUSH2 0x1E4B DUP5 DUP3 DUP6 ADD PUSH2 0x1BB0 JUMP JUMPDEST SWAP2 POP POP SWAP3 SWAP2 POP POP JUMP JUMPDEST PUSH1 0x0 DUP1 PUSH1 0x40 DUP4 DUP6 SUB SLT ISZERO PUSH2 0x1E6B JUMPI PUSH2 0x1E6A PUSH2 0x29EA JUMP JUMPDEST JUMPDEST PUSH1 0x0 PUSH2 0x1E79 DUP6 DUP3 DUP7 ADD PUSH2 0x1BB0 JUMP JUMPDEST SWAP3 POP POP PUSH1 0x20 PUSH2 0x1E8A DUP6 DUP3 DUP7 ADD PUSH2 0x1D90 JUMP JUMPDEST SWAP2 POP POP SWAP3 POP SWAP3 SWAP1 POP JUMP JUMPDEST PUSH1 0x0 DUP1 PUSH1 0x0 PUSH1 0x60 DUP5 DUP7 SUB SLT ISZERO PUSH2 0x1EAD JUMPI PUSH2 0x1EAC PUSH2 0x29EA JUMP JUMPDEST JUMPDEST PUSH1 0x0 PUSH2 0x1EBB DUP7 DUP3 DUP8 ADD PUSH2 0x1BB0 JUMP JUMPDEST SWAP4 POP POP PUSH1 0x20 PUSH2 0x1ECC DUP7 DUP3 DUP8 ADD PUSH2 0x1D90 JUMP JUMPDEST SWAP3 POP POP PUSH1 0x40 PUSH2 0x1EDD DUP7 DUP3 DUP8 ADD PUSH2 0x1DE8 JUMP JUMPDEST SWAP2 POP POP SWAP3 POP SWAP3 POP SWAP3 JUMP JUMPDEST PUSH1 0x0 DUP1 PUSH1 0x40 DUP4 DUP6 SUB SLT ISZERO PUSH2 0x1EFE JUMPI PUSH2 0x1EFD PUSH2 0x29EA JUMP JUMPDEST JUMPDEST PUSH1 0x0 PUSH2 0x1F0C DUP6 DUP3 DUP7 ADD PUSH2 0x1BB0 JUMP JUMPDEST SWAP3 POP POP PUSH1 0x20 PUSH2 0x1F1D DUP6 DUP3 DUP7 ADD PUSH2 0x1DE8 JUMP JUMPDEST SWAP2 POP POP SWAP3 POP SWAP3 SWAP1 POP JUMP JUMPDEST PUSH1 0x0 DUP1 PUSH1 0x0 DUP1 PUSH1 0x0 DUP1 PUSH1 0x60 DUP8 DUP10 SUB SLT ISZERO PUSH2 0x1F44 JUMPI PUSH2 0x1F43 PUSH2 0x29EA JUMP JUMPDEST JUMPDEST PUSH1 0x0 DUP8 ADD CALLDATALOAD PUSH8 0xFFFFFFFFFFFFFFFF DUP2 GT ISZERO PUSH2 0x1F62 JUMPI PUSH2 0x1F61 PUSH2 0x29E5 JUMP JUMPDEST JUMPDEST PUSH2 0x1F6E DUP10 DUP3 DUP11 ADD PUSH2 0x1BDA JUMP JUMPDEST SWAP7 POP SWAP7 POP POP PUSH1 0x20 DUP8 ADD CALLDATALOAD PUSH8 0xFFFFFFFFFFFFFFFF DUP2 GT ISZERO PUSH2 0x1F91 JUMPI PUSH2 0x1F90 PUSH2 0x29E5 JUMP JUMPDEST JUMPDEST PUSH2 0x1F9D DUP10 DUP3 DUP11 ADD PUSH2 0x1C5E JUMP JUMPDEST SWAP5 POP SWAP5 POP POP PUSH1 0x40 DUP8 ADD CALLDATALOAD PUSH8 0xFFFFFFFFFFFFFFFF DUP2 GT ISZERO PUSH2 0x1FC0 JUMPI PUSH2 0x1FBF PUSH2 0x29E5 JUMP JUMPDEST JUMPDEST PUSH2 0x1FCC DUP10 DUP3 DUP11 ADD PUSH2 0x1CB4 JUMP JUMPDEST SWAP3 POP SWAP3 POP POP SWAP3 SWAP6 POP SWAP3 SWAP6 POP SWAP3 SWAP6 JUMP JUMPDEST PUSH1 0x0 PUSH1 0x20 DUP3 DUP5 SUB SLT ISZERO PUSH2 0x1FF1 JUMPI PUSH2 0x1FF0 PUSH2 0x29EA JUMP JUMPDEST JUMPDEST PUSH1 0x0 DUP3 ADD MLOAD PUSH8 0xFFFFFFFFFFFFFFFF DUP2 GT ISZERO PUSH2 0x200F JUMPI PUSH2 0x200E PUSH2 0x29E5 JUMP JUMPDEST JUMPDEST PUSH2 0x201B DUP5 DUP3 DUP6 ADD PUSH2 0x1C30 JUMP JUMPDEST SWAP2 POP POP SWAP3 SWAP2 POP POP JUMP JUMPDEST PUSH1 0x0 PUSH1 0x20 DUP3 DUP5 SUB SLT ISZERO PUSH2 0x203A JUMPI PUSH2 0x2039 PUSH2 0x29EA JUMP JUMPDEST JUMPDEST PUSH1 0x0 DUP3 ADD MLOAD PUSH8 0xFFFFFFFFFFFFFFFF DUP2 GT ISZERO PUSH2 0x2058 JUMPI PUSH2 0x2057 PUSH2 0x29E5 JUMP JUMPDEST JUMPDEST PUSH2 0x2064 DUP5 DUP3 DUP6 ADD PUSH2 0x1D0A JUMP JUMPDEST SWAP2 POP POP SWAP3 SWAP2 POP POP JUMP JUMPDEST PUSH1 0x0 PUSH1 0x20 DUP3 DUP5 SUB SLT ISZERO PUSH2 0x2083 JUMPI PUSH2 0x2082 PUSH2 0x29EA JUMP JUMPDEST JUMPDEST PUSH1 0x0 PUSH2 0x2091 DUP5 DUP3 DUP6 ADD PUSH2 0x1D38 JUMP JUMPDEST SWAP2 POP POP SWAP3 SWAP2 POP POP JUMP JUMPDEST PUSH1 0x0 PUSH1 0x20 DUP3 DUP5 SUB SLT ISZERO PUSH2 0x20B0 JUMPI PUSH2 0x20AF PUSH2 0x29EA JUMP JUMPDEST JUMPDEST PUSH1 0x0 PUSH2 0x20BE DUP5 DUP3 DUP6 ADD PUSH2 0x1D90 JUMP JUMPDEST SWAP2 POP POP SWAP3 SWAP2 POP POP JUMP JUMPDEST PUSH1 0x0 PUSH1 0x20 DUP3 DUP5 SUB SLT ISZERO PUSH2 0x20DD JUMPI PUSH2 0x20DC PUSH2 0x29EA JUMP JUMPDEST JUMPDEST PUSH1 0x0 PUSH2 0x20EB DUP5 DUP3 DUP6 ADD PUSH2 0x1DA5 JUMP JUMPDEST SWAP2 POP POP SWAP3 SWAP2 POP POP JUMP JUMPDEST PUSH1 0x0 PUSH1 0x20 DUP3 DUP5 SUB SLT ISZERO PUSH2 0x210A JUMPI PUSH2 0x2109 PUSH2 0x29EA JUMP JUMPDEST JUMPDEST PUSH1 0x0 PUSH2 0x2118 DUP5 DUP3 DUP6 ADD PUSH2 0x1DE8 JUMP JUMPDEST SWAP2 POP POP SWAP3 SWAP2 POP POP JUMP JUMPDEST PUSH1 0x0 PUSH1 0x20 DUP3 DUP5 SUB SLT ISZERO PUSH2 0x2137 JUMPI PUSH2 0x2136 PUSH2 0x29EA JUMP JUMPDEST JUMPDEST PUSH1 0x0 PUSH2 0x2145 DUP5 DUP3 DUP6 ADD PUSH2 0x1DFD JUMP JUMPDEST SWAP2 POP POP SWAP3 SWAP2 POP POP JUMP JUMPDEST PUSH1 0x0 DUP1 PUSH1 0x0 DUP1 PUSH1 0x0 DUP1 PUSH1 0xC0 DUP8 DUP10 SUB SLT ISZERO PUSH2 0x216B JUMPI PUSH2 0x216A PUSH2 0x29EA JUMP JUMPDEST JUMPDEST PUSH1 0x0 PUSH2 0x2179 DUP10 DUP3 DUP11 ADD PUSH2 0x1E12 JUMP JUMPDEST SWAP7 POP POP PUSH1 0x20 PUSH2 0x218A DUP10 DUP3 DUP11 ADD PUSH2 0x1E12 JUMP JUMPDEST SWAP6 POP POP PUSH1 0x40 PUSH2 0x219B DUP10 DUP3 DUP11 ADD PUSH2 0x1BC5 JUMP JUMPDEST SWAP5 POP POP PUSH1 0x60 DUP8 ADD MLOAD PUSH8 0xFFFFFFFFFFFFFFFF DUP2 GT ISZERO PUSH2 0x21BC JUMPI PUSH2 0x21BB PUSH2 0x29E5 JUMP JUMPDEST JUMPDEST PUSH2 0x21C8 DUP10 DUP3 DUP11 ADD PUSH2 0x1D62 JUMP JUMPDEST SWAP4 POP POP PUSH1 0x80 DUP8 ADD MLOAD PUSH8 0xFFFFFFFFFFFFFFFF DUP2 GT ISZERO PUSH2 0x21E9 JUMPI PUSH2 0x21E8 PUSH2 0x29E5 JUMP JUMPDEST JUMPDEST PUSH2 0x21F5 DUP10 DUP3 DUP11 ADD PUSH2 0x1D62 JUMP JUMPDEST SWAP3 POP POP PUSH1 0xA0 DUP8 ADD MLOAD PUSH8 0xFFFFFFFFFFFFFFFF DUP2 GT ISZERO PUSH2 0x2216 JUMPI PUSH2 0x2215 PUSH2 0x29E5 JUMP JUMPDEST JUMPDEST PUSH2 0x2222 DUP10 DUP3 DUP11 ADD PUSH2 0x1DBA JUMP JUMPDEST SWAP2 POP POP SWAP3 SWAP6 POP SWAP3 SWAP6 POP SWAP3 SWAP6 JUMP JUMPDEST PUSH2 0x2238 DUP2 PUSH2 0x27B9 JUMP JUMPDEST DUP3 MSTORE POP POP JUMP JUMPDEST PUSH2 0x2247 DUP2 PUSH2 0x27CB JUMP JUMPDEST DUP3 MSTORE POP POP JUMP JUMPDEST PUSH2 0x2256 DUP2 PUSH2 0x27D7 JUMP JUMPDEST DUP3 MSTORE POP POP JUMP JUMPDEST PUSH1 0x0 PUSH2 0x2267 DUP3 PUSH2 0x2758 JUMP JUMPDEST PUSH2 0x2271 DUP2 DUP6 PUSH2 0x2763 JUMP JUMPDEST SWAP4 POP PUSH2 0x2281 DUP2 DUP6 PUSH1 0x20 DUP7 ADD PUSH2 0x2897 JUMP JUMPDEST PUSH2 0x228A DUP2 PUSH2 0x29EF JUMP JUMPDEST DUP5 ADD SWAP2 POP POP SWAP3 SWAP2 POP POP JUMP JUMPDEST PUSH2 0x229E DUP2 PUSH2 0x282B JUMP JUMPDEST DUP3 MSTORE POP POP JUMP JUMPDEST PUSH2 0x22AD DUP2 PUSH2 0x283D JUMP JUMPDEST DUP3 MSTORE POP POP JUMP JUMPDEST PUSH2 0x22BC DUP2 PUSH2 0x284F JUMP JUMPDEST DUP3 MSTORE POP POP JUMP JUMPDEST PUSH2 0x22CB DUP2 PUSH2 0x2861 JUMP JUMPDEST DUP3 MSTORE POP POP JUMP JUMPDEST PUSH1 0x0 PUSH2 0x22DE PUSH1 0x1F DUP4 PUSH2 0x2774 JUMP JUMPDEST SWAP2 POP PUSH2 0x22E9 DUP3 PUSH2 0x2A00 JUMP JUMPDEST PUSH1 0x20 DUP3 ADD SWAP1 POP SWAP2 SWAP1 POP JUMP JUMPDEST PUSH1 0x0 PUSH2 0x2301 PUSH1 0x26 DUP4 PUSH2 0x2774 JUMP JUMPDEST SWAP2 POP PUSH2 0x230C DUP3 PUSH2 0x2A29 JUMP JUMPDEST PUSH1 0x40 DUP3 ADD SWAP1 POP SWAP2 SWAP1 POP JUMP JUMPDEST PUSH1 0x0 PUSH2 0x2324 PUSH1 0x2E DUP4 PUSH2 0x2774 JUMP JUMPDEST SWAP2 POP PUSH2 0x232F DUP3 PUSH2 0x2A78 JUMP JUMPDEST PUSH1 0x40 DUP3 ADD SWAP1 POP SWAP2 SWAP1 POP JUMP JUMPDEST PUSH1 0x0 PUSH2 0x2347 PUSH1 0x21 DUP4 PUSH2 0x2774 JUMP JUMPDEST SWAP2 POP PUSH2 0x2352 DUP3 PUSH2 0x2AC7 JUMP JUMPDEST PUSH1 0x40 DUP3 ADD SWAP1 POP SWAP2 SWAP1 POP JUMP JUMPDEST PUSH1 0x0 PUSH2 0x236A PUSH1 0x20 DUP4 PUSH2 0x2774 JUMP JUMPDEST SWAP2 POP PUSH2 0x2375 DUP3 PUSH2 0x2B16 JUMP JUMPDEST PUSH1 0x20 DUP3 ADD SWAP1 POP SWAP2 SWAP1 POP JUMP JUMPDEST PUSH1 0x0 PUSH2 0x238D PUSH1 0x22 DUP4 PUSH2 0x2774 JUMP JUMPDEST SWAP2 POP PUSH2 0x2398 DUP3 PUSH2 0x2B3F JUMP JUMPDEST PUSH1 0x40 DUP3 ADD SWAP1 POP SWAP2 SWAP1 POP JUMP JUMPDEST PUSH2 0x23AC DUP2 PUSH2 0x27F3 JUMP JUMPDEST DUP3 MSTORE POP POP JUMP JUMPDEST PUSH2 0x23BB DUP2 PUSH2 0x2821 JUMP JUMPDEST DUP3 MSTORE POP POP JUMP JUMPDEST PUSH1 0x0 PUSH1 0x20 DUP3 ADD SWAP1 POP PUSH2 0x23D6 PUSH1 0x0 DUP4 ADD DUP5 PUSH2 0x222F JUMP JUMPDEST SWAP3 SWAP2 POP POP JUMP JUMPDEST PUSH1 0x0 PUSH1 0x40 DUP3 ADD SWAP1 POP PUSH2 0x23F1 PUSH1 0x0 DUP4 ADD DUP6 PUSH2 0x222F JUMP JUMPDEST PUSH2 0x23FE PUSH1 0x20 DUP4 ADD DUP5 PUSH2 0x22B3 JUMP JUMPDEST SWAP4 SWAP3 POP POP POP JUMP JUMPDEST PUSH1 0x0 PUSH1 0x60 DUP3 ADD SWAP1 POP PUSH2 0x241A PUSH1 0x0 DUP4 ADD DUP7 PUSH2 0x222F JUMP JUMPDEST PUSH2 0x2427 PUSH1 0x20 DUP4 ADD DUP6 PUSH2 0x22B3 JUMP JUMPDEST PUSH2 0x2434 PUSH1 0x40 DUP4 ADD DUP5 PUSH2 0x23A3 JUMP JUMPDEST SWAP5 SWAP4 POP POP POP POP JUMP JUMPDEST PUSH1 0x0 PUSH1 0x40 DUP3 ADD SWAP1 POP PUSH2 0x2451 PUSH1 0x0 DUP4 ADD DUP6 PUSH2 0x222F JUMP JUMPDEST PUSH2 0x245E PUSH1 0x20 DUP4 ADD DUP5 PUSH2 0x23A3 JUMP JUMPDEST SWAP4 SWAP3 POP POP POP JUMP JUMPDEST PUSH1 0x0 PUSH1 0x40 DUP3 ADD SWAP1 POP PUSH2 0x247A PUSH1 0x0 DUP4 ADD DUP6 PUSH2 0x222F JUMP JUMPDEST PUSH2 0x2487 PUSH1 0x20 DUP4 ADD DUP5 PUSH2 0x23B2 JUMP JUMPDEST SWAP4 SWAP3 POP POP POP JUMP JUMPDEST PUSH1 0x0 PUSH1 0x20 DUP3 ADD SWAP1 POP PUSH2 0x24A3 PUSH1 0x0 DUP4 ADD DUP5 PUSH2 0x223E JUMP JUMPDEST SWAP3 SWAP2 POP POP JUMP JUMPDEST PUSH1 0x0 PUSH1 0x20 DUP3 ADD SWAP1 POP PUSH2 0x24BE PUSH1 0x0 DUP4 ADD DUP5 PUSH2 0x224D JUMP JUMPDEST SWAP3 SWAP2 POP POP JUMP JUMPDEST PUSH1 0x0 PUSH1 0x20 DUP3 ADD SWAP1 POP PUSH2 0x24D9 PUSH1 0x0 DUP4 ADD DUP5 PUSH2 0x2295 JUMP JUMPDEST SWAP3 SWAP2 POP POP JUMP JUMPDEST PUSH1 0x0 PUSH1 0x20 DUP3 ADD SWAP1 POP PUSH2 0x24F4 PUSH1 0x0 DUP4 ADD DUP5 PUSH2 0x22A4 JUMP JUMPDEST SWAP3 SWAP2 POP POP JUMP JUMPDEST PUSH1 0x0 PUSH1 0x20 DUP3 ADD SWAP1 POP PUSH2 0x250F PUSH1 0x0 DUP4 ADD DUP5 PUSH2 0x22B3 JUMP JUMPDEST SWAP3 SWAP2 POP POP JUMP JUMPDEST PUSH1 0x0 PUSH1 0x80 DUP3 ADD SWAP1 POP PUSH2 0x252A PUSH1 0x0 DUP4 ADD DUP8 PUSH2 0x22B3 JUMP JUMPDEST PUSH2 0x2537 PUSH1 0x20 DUP4 ADD DUP7 PUSH2 0x23B2 JUMP JUMPDEST DUP2 DUP2 SUB PUSH1 0x40 DUP4 ADD MSTORE PUSH2 0x2549 DUP2 DUP6 PUSH2 0x225C JUMP JUMPDEST SWAP1 POP DUP2 DUP2 SUB PUSH1 0x60 DUP4 ADD MSTORE PUSH2 0x255D DUP2 DUP5 PUSH2 0x225C JUMP JUMPDEST SWAP1 POP SWAP6 SWAP5 POP POP POP POP POP JUMP JUMPDEST PUSH1 0x0 PUSH1 0x20 DUP3 ADD SWAP1 POP PUSH2 0x257D PUSH1 0x0 DUP4 ADD DUP5 PUSH2 0x22C2 JUMP JUMPDEST SWAP3 SWAP2 POP POP JUMP JUMPDEST PUSH1 0x0 PUSH1 0x20 DUP3 ADD SWAP1 POP DUP2 DUP2 SUB PUSH1 0x0 DUP4 ADD MSTORE PUSH2 0x259C DUP2 PUSH2 0x22D1 JUMP JUMPDEST SWAP1 POP SWAP2 SWAP1 POP JUMP JUMPDEST PUSH1 0x0 PUSH1 0x20 DUP3 ADD SWAP1 POP DUP2 DUP2 SUB PUSH1 0x0 DUP4 ADD MSTORE PUSH2 0x25BC DUP2 PUSH2 0x22F4 JUMP JUMPDEST SWAP1 POP SWAP2 SWAP1 POP JUMP JUMPDEST PUSH1 0x0 PUSH1 0x20 DUP3 ADD SWAP1 POP DUP2 DUP2 SUB PUSH1 0x0 DUP4 ADD MSTORE PUSH2 0x25DC DUP2 PUSH2 0x2317 JUMP JUMPDEST SWAP1 POP SWAP2 SWAP1 POP JUMP JUMPDEST PUSH1 0x0 PUSH1 0x20 DUP3 ADD SWAP1 POP DUP2 DUP2 SUB PUSH1 0x0 DUP4 ADD MSTORE PUSH2 0x25FC DUP2 PUSH2 0x233A JUMP JUMPDEST SWAP1 POP SWAP2 SWAP1 POP JUMP JUMPDEST PUSH1 0x0 PUSH1 0x20 DUP3 ADD SWAP1 POP DUP2 DUP2 SUB PUSH1 0x0 DUP4 ADD MSTORE PUSH2 0x261C DUP2 PUSH2 0x235D JUMP JUMPDEST SWAP1 POP SWAP2 SWAP1 POP JUMP JUMPDEST PUSH1 0x0 PUSH1 0x20 DUP3 ADD SWAP1 POP DUP2 DUP2 SUB PUSH1 0x0 DUP4 ADD MSTORE PUSH2 0x263C DUP2 PUSH2 0x2380 JUMP JUMPDEST SWAP1 POP SWAP2 SWAP1 POP JUMP JUMPDEST PUSH1 0x0 PUSH1 0x20 DUP3 ADD SWAP1 POP PUSH2 0x2658 PUSH1 0x0 DUP4 ADD DUP5 PUSH2 0x23A3 JUMP JUMPDEST SWAP3 SWAP2 POP POP JUMP JUMPDEST PUSH1 0x0 PUSH1 0x20 DUP3 ADD SWAP1 POP PUSH2 0x2673 PUSH1 0x0 DUP4 ADD DUP5 PUSH2 0x23B2 JUMP JUMPDEST SWAP3 SWAP2 POP POP JUMP JUMPDEST PUSH1 0x0 PUSH2 0x2683 PUSH2 0x2694 JUMP JUMPDEST SWAP1 POP PUSH2 0x268F DUP3 DUP3 PUSH2 0x28CA JUMP JUMPDEST SWAP2 SWAP1 POP JUMP JUMPDEST PUSH1 0x0 PUSH1 0x40 MLOAD SWAP1 POP SWAP1 JUMP JUMPDEST PUSH1 0x0 PUSH8 0xFFFFFFFFFFFFFFFF DUP3 GT ISZERO PUSH2 0x26B9 JUMPI PUSH2 0x26B8 PUSH2 0x29A2 JUMP JUMPDEST JUMPDEST PUSH1 0x20 DUP3 MUL SWAP1 POP PUSH1 0x20 DUP2 ADD SWAP1 POP SWAP2 SWAP1 POP JUMP JUMPDEST PUSH1 0x0 PUSH8 0xFFFFFFFFFFFFFFFF DUP3 GT ISZERO PUSH2 0x26E5 JUMPI PUSH2 0x26E4 PUSH2 0x29A2 JUMP JUMPDEST JUMPDEST PUSH1 0x20 DUP3 MUL SWAP1 POP PUSH1 0x20 DUP2 ADD SWAP1 POP SWAP2 SWAP1 POP JUMP JUMPDEST PUSH1 0x0 PUSH8 0xFFFFFFFFFFFFFFFF DUP3 GT ISZERO PUSH2 0x2711 JUMPI PUSH2 0x2710 PUSH2 0x29A2 JUMP JUMPDEST JUMPDEST PUSH2 0x271A DUP3 PUSH2 0x29EF JUMP JUMPDEST SWAP1 POP PUSH1 0x20 DUP2 ADD SWAP1 POP SWAP2 SWAP1 POP JUMP JUMPDEST PUSH1 0x0 PUSH8 0xFFFFFFFFFFFFFFFF DUP3 GT ISZERO PUSH2 0x2742 JUMPI PUSH2 0x2741 PUSH2 0x29A2 JUMP JUMPDEST JUMPDEST PUSH2 0x274B DUP3 PUSH2 0x29EF JUMP JUMPDEST SWAP1 POP PUSH1 0x20 DUP2 ADD SWAP1 POP SWAP2 SWAP1 POP JUMP JUMPDEST PUSH1 0x0 DUP2 MLOAD SWAP1 POP SWAP2 SWAP1 POP JUMP JUMPDEST PUSH1 0x0 DUP3 DUP3 MSTORE PUSH1 0x20 DUP3 ADD SWAP1 POP SWAP3 SWAP2 POP POP JUMP JUMPDEST PUSH1 0x0 DUP3 DUP3 MSTORE PUSH1 0x20 DUP3 ADD SWAP1 POP SWAP3 SWAP2 POP POP JUMP JUMPDEST PUSH1 0x0 PUSH2 0x2790 DUP3 PUSH2 0x2821 JUMP JUMPDEST SWAP2 POP PUSH2 0x279B DUP4 PUSH2 0x2821 JUMP JUMPDEST SWAP3 POP DUP3 DUP3 LT ISZERO PUSH2 0x27AE JUMPI PUSH2 0x27AD PUSH2 0x2944 JUMP JUMPDEST JUMPDEST DUP3 DUP3 SUB SWAP1 POP SWAP3 SWAP2 POP POP JUMP JUMPDEST PUSH1 0x0 PUSH2 0x27C4 DUP3 PUSH2 0x2801 JUMP JUMPDEST SWAP1 POP SWAP2 SWAP1 POP JUMP JUMPDEST PUSH1 0x0 DUP2 ISZERO ISZERO SWAP1 POP SWAP2 SWAP1 POP JUMP JUMPDEST PUSH1 0x0 DUP2 SWAP1 POP SWAP2 SWAP1 POP JUMP JUMPDEST PUSH1 0x0 PUSH2 0x27EC DUP3 PUSH2 0x27B9 JUMP JUMPDEST SWAP1 POP SWAP2 SWAP1 POP JUMP JUMPDEST PUSH1 0x0 PUSH2 0xFFFF DUP3 AND SWAP1 POP SWAP2 SWAP1 POP JUMP JUMPDEST PUSH1 0x0 PUSH20 0xFFFFFFFFFFFFFFFFFFFFFFFFFFFFFFFFFFFFFFFF DUP3 AND SWAP1 POP SWAP2 SWAP1 POP JUMP JUMPDEST PUSH1 0x0 DUP2 SWAP1 POP SWAP2 SWAP1 POP JUMP JUMPDEST PUSH1 0x0 PUSH2 0x2836 DUP3 PUSH2 0x2873 JUMP JUMPDEST SWAP1 POP SWAP2 SWAP1 POP JUMP JUMPDEST PUSH1 0x0 PUSH2 0x2848 DUP3 PUSH2 0x2873 JUMP JUMPDEST SWAP1 POP SWAP2 SWAP1 POP JUMP JUMPDEST PUSH1 0x0 PUSH2 0x285A DUP3 PUSH2 0x2873 JUMP JUMPDEST SWAP1 POP SWAP2 SWAP1 POP JUMP JUMPDEST PUSH1 0x0 PUSH2 0x286C DUP3 PUSH2 0x2873 JUMP JUMPDEST SWAP1 POP SWAP2 SWAP1 POP JUMP JUMPDEST PUSH1 0x0 PUSH2 0x287E DUP3 PUSH2 0x2885 JUMP JUMPDEST SWAP1 POP SWAP2 SWAP1 POP JUMP JUMPDEST PUSH1 0x0 PUSH2 0x2890 DUP3 PUSH2 0x2801 JUMP JUMPDEST SWAP1 POP SWAP2 SWAP1 POP JUMP JUMPDEST PUSH1 0x0 JUMPDEST DUP4 DUP2 LT ISZERO PUSH2 0x28B5 JUMPI DUP1 DUP3 ADD MLOAD DUP2 DUP5 ADD MSTORE PUSH1 0x20 DUP2 ADD SWAP1 POP PUSH2 0x289A JUMP JUMPDEST DUP4 DUP2 GT ISZERO PUSH2 0x28C4 JUMPI PUSH1 0x0 DUP5 DUP5 ADD MSTORE JUMPDEST POP POP POP POP JUMP JUMPDEST PUSH2 0x28D3 DUP3 PUSH2 0x29EF JUMP JUMPDEST DUP2 ADD DUP2 DUP2 LT PUSH8 0xFFFFFFFFFFFFFFFF DUP3 GT OR ISZERO PUSH2 0x28F2 JUMPI PUSH2 0x28F1 PUSH2 0x29A2 JUMP JUMPDEST JUMPDEST DUP1 PUSH1 0x40 MSTORE POP POP POP JUMP JUMPDEST PUSH1 0x0 PUSH2 0x2906 DUP3 PUSH2 0x2821 JUMP JUMPDEST SWAP2 POP PUSH32 0xFFFFFFFFFFFFFFFFFFFFFFFFFFFFFFFFFFFFFFFFFFFFFFFFFFFFFFFFFFFFFFFF DUP3 EQ ISZERO PUSH2 0x2939 JUMPI PUSH2 0x2938 PUSH2 0x2944 JUMP JUMPDEST JUMPDEST PUSH1 0x1 DUP3 ADD SWAP1 POP SWAP2 SWAP1 POP JUMP JUMPDEST PUSH32 0x4E487B7100000000000000000000000000000000000000000000000000000000 PUSH1 0x0 MSTORE PUSH1 0x11 PUSH1 0x4 MSTORE PUSH1 0x24 PUSH1 0x0 REVERT JUMPDEST PUSH32 0x4E487B7100000000000000000000000000000000000000000000000000000000 PUSH1 0x0 MSTORE PUSH1 0x32 PUSH1 0x4 MSTORE PUSH1 0x24 PUSH1 0x0 REVERT JUMPDEST PUSH32 0x4E487B7100000000000000000000000000000000000000000000000000000000 PUSH1 0x0 MSTORE PUSH1 0x41 PUSH1 0x4 MSTORE PUSH1 0x24 PUSH1 0x0 REVERT JUMPDEST PUSH1 0x0 DUP1 REVERT JUMPDEST PUSH1 0x0 DUP1 REVERT JUMPDEST PUSH1 0x0 DUP1 REVERT JUMPDEST PUSH1 0x0 DUP1 REVERT JUMPDEST PUSH1 0x0 DUP1 REVERT JUMPDEST PUSH1 0x0 DUP1 REVERT JUMPDEST PUSH1 0x0 PUSH1 0x1F NOT PUSH1 0x1F DUP4 ADD AND SWAP1 POP SWAP2 SWAP1 POP JUMP JUMPDEST PUSH32 0x526F6C65733A206163636F756E7420616C72656164792068617320726F6C6500 PUSH1 0x0 DUP3 ADD MSTORE POP JUMP JUMPDEST PUSH32 0x4F776E61626C653A206E6577206F776E657220697320746865207A65726F2061 PUSH1 0x0 DUP3 ADD MSTORE PUSH32 0x6464726573730000000000000000000000000000000000000000000000000000 PUSH1 0x20 DUP3 ADD MSTORE POP JUMP JUMPDEST PUSH32 0x4167656E74526F6C653A2063616C6C657220646F6573206E6F74206861766520 PUSH1 0x0 DUP3 ADD MSTORE PUSH32 0x746865204167656E7420726F6C65000000000000000000000000000000000000 PUSH1 0x20 DUP3 ADD MSTORE POP JUMP JUMPDEST PUSH32 0x526F6C65733A206163636F756E7420646F6573206E6F74206861766520726F6C PUSH1 0x0 DUP3 ADD MSTORE PUSH32 0x6500000000000000000000000000000000000000000000000000000000000000 PUSH1 0x20 DUP3 ADD MSTORE POP JUMP JUMPDEST PUSH32 0x4F776E61626C653A2063616C6C6572206973206E6F7420746865206F776E6572 PUSH1 0x0 DUP3 ADD MSTORE POP JUMP JUMPDEST PUSH32 0x526F6C65733A206163636F756E7420697320746865207A65726F206164647265 PUSH1 0x0 DUP3 ADD MSTORE PUSH32 0x7373000000000000000000000000000000000000000000000000000000000000 PUSH1 0x20 DUP3 ADD MSTORE POP JUMP JUMPDEST PUSH2 0x2B97 DUP2 PUSH2 0x27B9 JUMP JUMPDEST DUP2 EQ PUSH2 0x2BA2 JUMPI PUSH1 0x0 DUP1 REVERT JUMPDEST POP JUMP JUMPDEST PUSH2 0x2BAE DUP2 PUSH2 0x27CB JUMP JUMPDEST DUP2 EQ PUSH2 0x2BB9 JUMPI PUSH1 0x0 DUP1 REVERT JUMPDEST POP JUMP JUMPDEST PUSH2 0x2BC5 DUP2 PUSH2 0x27D7 JUMP JUMPDEST DUP2 EQ PUSH2 0x2BD0 JUMPI PUSH1 0x0 DUP1 REVERT JUMPDEST POP JUMP JUMPDEST PUSH2 0x2BDC DUP2 PUSH2 0x27E1 JUMP JUMPDEST DUP2 EQ PUSH2 0x2BE7 JUMPI PUSH1 0x0 DUP1 REVERT JUMPDEST POP JUMP JUMPDEST PUSH2 0x2BF3 DUP2 PUSH2 0x27F3 JUMP JUMPDEST DUP2 EQ PUSH2 0x2BFE JUMPI PUSH1 0x0 DUP1 REVERT JUMPDEST POP JUMP JUMPDEST PUSH2 0x2C0A DUP2 PUSH2 0x2821 JUMP JUMPDEST DUP2 EQ PUSH2 0x2C15 JUMPI PUSH1 0x0 DUP1 REVERT JUMPDEST POP JUMP INVALID LOG2 PUSH5 0x6970667358 0x22 SLT KECCAK256 0xE3 PUSH1 0x94 0xBF PUSH20 0xCB98CB3780119B4522372AE114EB5226472716FB 0xEA KECCAK256 EXTCODEHASH ISZERO 0xA5 0xD3 LOG0 PUSH5 0x736F6C6343 STOP ADDMOD SMOD STOP CALLER "
				},
				"gasEstimates": {
					"creation": {
						"codeDepositCost": "2268400",
						"executionCost": "infinite",
						"totalCost": "infinite"
					},
					"external": {
						"addAgent(address)": "infinite",
						"addAgentOnIdentityRegistryContract(address)": "infinite",
						"batchRegisterIdentity(address[],address[],uint16[])": "infinite",
						"contains(address)": "infinite",
						"deleteIdentity(address)": "infinite",
						"identity(address)": "infinite",
						"identityStorage()": "2718",
						"investorCountry(address)": "infinite",
						"isAgent(address)": "infinite",
						"isVerified(address)": "infinite",
						"issuersRegistry()": "2741",
						"owner()": "2567",
						"registerIdentity(address,address,uint16)": "infinite",
						"removeAgent(address)": "infinite",
						"removeAgentOnIdentityRegistryContract(address)": "infinite",
						"renounceOwnership()": "30509",
						"setClaimTopicsRegistry(address)": "28236",
						"setIdentityRegistryStorage(address)": "28193",
						"setTrustedIssuersRegistry(address)": "28213",
						"topicsRegistry()": "2698",
						"transferOwnership(address)": "30879",
						"transferOwnershipOnIdentityRegistryContract(address)": "infinite",
						"updateCountry(address,uint16)": "infinite",
						"updateIdentity(address,address)": "infinite"
					}
				},
				"methodIdentifiers": {
					"addAgent(address)": "84e79842",
					"addAgentOnIdentityRegistryContract(address)": "50bc7bda",
					"batchRegisterIdentity(address[],address[],uint16[])": "653dc9f1",
					"contains(address)": "5dbe47e8",
					"deleteIdentity(address)": "a8d29d1d",
					"identity(address)": "f0eb5e54",
					"identityStorage()": "f11abfd8",
					"investorCountry(address)": "7e42683b",
					"isAgent(address)": "1ffbb064",
					"isVerified(address)": "b9209e33",
					"issuersRegistry()": "b4f3fcb7",
					"owner()": "8da5cb5b",
					"registerIdentity(address,address,uint16)": "454a03e0",
					"removeAgent(address)": "97a6278e",
					"removeAgentOnIdentityRegistryContract(address)": "5e5741f3",
					"renounceOwnership()": "715018a6",
					"setClaimTopicsRegistry(address)": "670af6a9",
					"setIdentityRegistryStorage(address)": "26d941ae",
					"setTrustedIssuersRegistry(address)": "e744d789",
					"topicsRegistry()": "3b3e12f4",
					"transferOwnership(address)": "f2fde38b",
					"transferOwnershipOnIdentityRegistryContract(address)": "ce240d9c",
					"updateCountry(address,uint16)": "3b239a7f",
					"updateIdentity(address,address)": "8e098ca1"
				}
			},
			"storageLayout": {
				"storage": [
					{
						"astId": 339,
						"contract": "contracts/registry/IdentityRegistry.sol:IdentityRegistry",
						"label": "_owner",
						"offset": 0,
						"slot": "0",
						"type": "t_address"
					},
					{
						"astId": 1571,
						"contract": "contracts/registry/IdentityRegistry.sol:IdentityRegistry",
						"label": "_agents",
						"offset": 0,
						"slot": "1",
						"type": "t_struct(Role)1641_storage"
					},
					{
						"astId": 933,
						"contract": "contracts/registry/IdentityRegistry.sol:IdentityRegistry",
						"label": "tokenTopicsRegistry",
						"offset": 0,
						"slot": "2",
						"type": "t_contract(IClaimTopicsRegistry)504"
					},
					{
						"astId": 937,
						"contract": "contracts/registry/IdentityRegistry.sol:IdentityRegistry",
						"label": "tokenIssuersRegistry",
						"offset": 0,
						"slot": "3",
						"type": "t_contract(ITrustedIssuersRegistry)916"
					},
					{
						"astId": 941,
						"contract": "contracts/registry/IdentityRegistry.sol:IdentityRegistry",
						"label": "tokenIdentityStorage",
						"offset": 0,
						"slot": "4",
						"type": "t_contract(IIdentityRegistryStorage)819"
					}
				],
				"types": {
					"t_address": {
						"encoding": "inplace",
						"label": "address",
						"numberOfBytes": "20"
					},
					"t_bool": {
						"encoding": "inplace",
						"label": "bool",
						"numberOfBytes": "1"
					},
					"t_contract(IClaimTopicsRegistry)504": {
						"encoding": "inplace",
						"label": "contract IClaimTopicsRegistry",
						"numberOfBytes": "20"
					},
					"t_contract(IIdentityRegistryStorage)819": {
						"encoding": "inplace",
						"label": "contract IIdentityRegistryStorage",
						"numberOfBytes": "20"
					},
					"t_contract(ITrustedIssuersRegistry)916": {
						"encoding": "inplace",
						"label": "contract ITrustedIssuersRegistry",
						"numberOfBytes": "20"
					},
					"t_mapping(t_address,t_bool)": {
						"encoding": "mapping",
						"key": "t_address",
						"label": "mapping(address => bool)",
						"numberOfBytes": "32",
						"value": "t_bool"
					},
					"t_struct(Role)1641_storage": {
						"encoding": "inplace",
						"label": "struct Roles.Role",
						"members": [
							{
								"astId": 1640,
								"contract": "contracts/registry/IdentityRegistry.sol:IdentityRegistry",
								"label": "bearer",
								"offset": 0,
								"slot": "0",
								"type": "t_mapping(t_address,t_bool)"
							}
						],
						"numberOfBytes": "32"
					}
				}
			},
			"userdoc": {
				"events": {
					"ClaimTopicsRegistrySet(address)": {
						"notice": "this event is emitted when the ClaimTopicsRegistry has been set for the IdentityRegistry  the event is emitted by the IdentityRegistry constructor  `claimTopicsRegistry` is the address of the Claim Topics Registry contract"
					},
					"CountryUpdated(address,uint16)": {
						"notice": "this event is emitted when an Identity's country has been updated  the event is emitted by the 'updateCountry' function  `investorAddress` is the address on which the country has been updated  `country` is the numeric code (ISO 3166-1) of the new country"
					},
					"IdentityRegistered(address,address)": {
						"notice": "this event is emitted when an Identity is registered into the Identity Registry.  the event is emitted by the 'registerIdentity' function  `investorAddress` is the address of the investor's wallet  `identity` is the address of the Identity smart contract (onchainID)"
					},
					"IdentityRemoved(address,address)": {
						"notice": "this event is emitted when an Identity is removed from the Identity Registry.  the event is emitted by the 'deleteIdentity' function  `investorAddress` is the address of the investor's wallet  `identity` is the address of the Identity smart contract (onchainID)"
					},
					"IdentityStorageSet(address)": {
						"notice": "this event is emitted when the IdentityRegistryStorage has been set for the IdentityRegistry  the event is emitted by the IdentityRegistry constructor  `identityStorage` is the address of the Identity Registry Storage contract"
					},
					"IdentityUpdated(address,address)": {
						"notice": "this event is emitted when an Identity has been updated  the event is emitted by the 'updateIdentity' function  `oldIdentity` is the old Identity contract's address to update  `newIdentity` is the new Identity contract's"
					},
					"TrustedIssuersRegistrySet(address)": {
						"notice": "this event is emitted when the ClaimTopicsRegistry has been set for the IdentityRegistry  the event is emitted by the IdentityRegistry constructor  `trustedIssuersRegistry` is the address of the Trusted Issuers Registry contract"
					}
				},
				"kind": "user",
				"methods": {},
				"version": 1
			}
		}
	}
}