{
	"contracts/registry/TrustedIssuersRegistry.sol": {
		"TrustedIssuersRegistry": {
			"abi": [
				{
					"anonymous": false,
					"inputs": [
						{
							"indexed": true,
							"internalType": "contract IClaimIssuer",
							"name": "trustedIssuer",
							"type": "address"
						},
						{
							"indexed": false,
							"internalType": "uint256[]",
							"name": "claimTopics",
							"type": "uint256[]"
						}
					],
					"name": "ClaimTopicsUpdated",
					"type": "event"
				},
				{
					"anonymous": false,
					"inputs": [
						{
							"indexed": true,
							"internalType": "address",
							"name": "previousOwner",
							"type": "address"
						},
						{
							"indexed": true,
							"internalType": "address",
							"name": "newOwner",
							"type": "address"
						}
					],
					"name": "OwnershipTransferred",
					"type": "event"
				},
				{
					"anonymous": false,
					"inputs": [
						{
							"indexed": true,
							"internalType": "contract IClaimIssuer",
							"name": "trustedIssuer",
							"type": "address"
						},
						{
							"indexed": false,
							"internalType": "uint256[]",
							"name": "claimTopics",
							"type": "uint256[]"
						}
					],
					"name": "TrustedIssuerAdded",
					"type": "event"
				},
				{
					"anonymous": false,
					"inputs": [
						{
							"indexed": true,
							"internalType": "contract IClaimIssuer",
							"name": "trustedIssuer",
							"type": "address"
						}
					],
					"name": "TrustedIssuerRemoved",
					"type": "event"
				},
				{
					"inputs": [
						{
							"internalType": "contract IClaimIssuer",
							"name": "_trustedIssuer",
							"type": "address"
						},
						{
							"internalType": "uint256[]",
							"name": "_claimTopics",
							"type": "uint256[]"
						}
					],
					"name": "addTrustedIssuer",
					"outputs": [],
					"stateMutability": "nonpayable",
					"type": "function"
				},
				{
					"inputs": [
						{
							"internalType": "contract IClaimIssuer",
							"name": "_trustedIssuer",
							"type": "address"
						}
					],
					"name": "getTrustedIssuerClaimTopics",
					"outputs": [
						{
							"internalType": "uint256[]",
							"name": "",
							"type": "uint256[]"
						}
					],
					"stateMutability": "view",
					"type": "function"
				},
				{
					"inputs": [],
					"name": "getTrustedIssuers",
					"outputs": [
						{
							"internalType": "contract IClaimIssuer[]",
							"name": "",
							"type": "address[]"
						}
					],
					"stateMutability": "view",
					"type": "function"
				},
				{
					"inputs": [
						{
							"internalType": "address",
							"name": "_issuer",
							"type": "address"
						},
						{
							"internalType": "uint256",
							"name": "_claimTopic",
							"type": "uint256"
						}
					],
					"name": "hasClaimTopic",
					"outputs": [
						{
							"internalType": "bool",
							"name": "",
							"type": "bool"
						}
					],
					"stateMutability": "view",
					"type": "function"
				},
				{
					"inputs": [
						{
							"internalType": "address",
							"name": "_issuer",
							"type": "address"
						}
					],
					"name": "isTrustedIssuer",
					"outputs": [
						{
							"internalType": "bool",
							"name": "",
							"type": "bool"
						}
					],
					"stateMutability": "view",
					"type": "function"
				},
				{
					"inputs": [],
					"name": "owner",
					"outputs": [
						{
							"internalType": "address",
							"name": "",
							"type": "address"
						}
					],
					"stateMutability": "view",
					"type": "function"
				},
				{
					"inputs": [
						{
							"internalType": "contract IClaimIssuer",
							"name": "_trustedIssuer",
							"type": "address"
						}
					],
					"name": "removeTrustedIssuer",
					"outputs": [],
					"stateMutability": "nonpayable",
					"type": "function"
				},
				{
					"inputs": [],
					"name": "renounceOwnership",
					"outputs": [],
					"stateMutability": "nonpayable",
					"type": "function"
				},
				{
					"inputs": [
						{
							"internalType": "address",
							"name": "newOwner",
							"type": "address"
						}
					],
					"name": "transferOwnership",
					"outputs": [],
					"stateMutability": "nonpayable",
					"type": "function"
				},
				{
					"inputs": [
						{
							"internalType": "address",
							"name": "_newOwner",
							"type": "address"
						}
					],
					"name": "transferOwnershipOnIssuersRegistryContract",
					"outputs": [],
					"stateMutability": "nonpayable",
					"type": "function"
				},
				{
					"inputs": [
						{
							"internalType": "contract IClaimIssuer",
							"name": "_trustedIssuer",
							"type": "address"
						},
						{
							"internalType": "uint256[]",
							"name": "_claimTopics",
							"type": "uint256[]"
						}
					],
					"name": "updateIssuerClaimTopics",
					"outputs": [],
					"stateMutability": "nonpayable",
					"type": "function"
				}
			],
			"devdoc": {
				"kind": "dev",
				"methods": {
					"addTrustedIssuer(address,uint256[])": {
						"details": "See {ITrustedIssuersRegistry-addTrustedIssuer}."
					},
					"getTrustedIssuerClaimTopics(address)": {
						"details": "See {ITrustedIssuersRegistry-getTrustedIssuerClaimTopics}."
					},
					"getTrustedIssuers()": {
						"details": "See {ITrustedIssuersRegistry-getTrustedIssuers}."
					},
					"hasClaimTopic(address,uint256)": {
						"details": "See {ITrustedIssuersRegistry-hasClaimTopic}."
					},
					"isTrustedIssuer(address)": {
						"details": "See {ITrustedIssuersRegistry-isTrustedIssuer}."
					},
					"owner()": {
						"details": "Returns the address of the current owner."
					},
					"removeTrustedIssuer(address)": {
						"details": "See {ITrustedIssuersRegistry-removeTrustedIssuer}."
					},
					"renounceOwnership()": {
						"details": "Leaves the contract without owner. It will not be possible to call `onlyOwner` functions anymore. Can only be called by the current owner. NOTE: Renouncing ownership will leave the contract without an owner, thereby removing any functionality that is only available to the owner."
					},
					"transferOwnership(address)": {
						"details": "Transfers ownership of the contract to a new account (`newOwner`). Can only be called by the current owner."
					},
					"transferOwnershipOnIssuersRegistryContract(address)": {
						"details": "See {ITrustedIssuersRegistry-transferOwnershipOnIssuersRegistryContract}."
					},
					"updateIssuerClaimTopics(address,uint256[])": {
						"details": "See {ITrustedIssuersRegistry-updateIssuerClaimTopics}."
					}
				},
				"stateVariables": {
					"trustedIssuerClaimTopics": {
						"details": "Mapping between a trusted issuer index and its corresponding claimTopics."
					},
					"trustedIssuers": {
						"details": "Array containing all TrustedIssuers identity contract address."
					}
				},
				"version": 1
			},
			"evm": {
				"assembly": "    /* \"contracts/registry/TrustedIssuersRegistry.sol\":1292:5222  contract TrustedIssuersRegistry is ITrustedIssuersRegistry, Ownable {... */\n  mstore(0x40, 0x80)\n  callvalue\n  dup1\n  iszero\n  tag_1\n  jumpi\n  0x00\n  dup1\n  revert\ntag_1:\n  pop\n    /* \"@openzeppelin/contracts/access/Ownable.sol\":936:968  _transferOwnership(_msgSender()) */\n  tag_4\n    /* \"@openzeppelin/contracts/access/Ownable.sol\":955:967  _msgSender() */\n  tag_5\n    /* \"@openzeppelin/contracts/access/Ownable.sol\":955:965  _msgSender */\n  shl(0x20, tag_6)\n    /* \"@openzeppelin/contracts/access/Ownable.sol\":955:967  _msgSender() */\n  0x20\n  shr\n  jump\t// in\ntag_5:\n    /* \"@openzeppelin/contracts/access/Ownable.sol\":936:954  _transferOwnership */\n  shl(0x20, tag_7)\n    /* \"@openzeppelin/contracts/access/Ownable.sol\":936:968  _transferOwnership(_msgSender()) */\n  0x20\n  shr\n  jump\t// in\ntag_4:\n    /* \"contracts/registry/TrustedIssuersRegistry.sol\":1292:5222  contract TrustedIssuersRegistry is ITrustedIssuersRegistry, Ownable {... */\n  jump(tag_8)\n    /* \"@openzeppelin/contracts/utils/Context.sol\":640:736  function _msgSender() internal view virtual returns (address) {... */\ntag_6:\n    /* \"@openzeppelin/contracts/utils/Context.sol\":693:700  address */\n  0x00\n    /* \"@openzeppelin/contracts/utils/Context.sol\":719:729  msg.sender */\n  caller\n    /* \"@openzeppelin/contracts/utils/Context.sol\":712:729  return msg.sender */\n  swap1\n  pop\n    /* \"@openzeppelin/contracts/utils/Context.sol\":640:736  function _msgSender() internal view virtual returns (address) {... */\n  swap1\n  jump\t// out\n    /* \"@openzeppelin/contracts/access/Ownable.sol\":2433:2620  function _transferOwnership(address newOwner) internal virtual {... */\ntag_7:\n    /* \"@openzeppelin/contracts/access/Ownable.sol\":2506:2522  address oldOwner */\n  0x00\n    /* \"@openzeppelin/contracts/access/Ownable.sol\":2525:2531  _owner */\n  dup1\n  0x00\n  swap1\n  sload\n  swap1\n  0x0100\n  exp\n  swap1\n  div\n  0xffffffffffffffffffffffffffffffffffffffff\n  and\n    /* \"@openzeppelin/contracts/access/Ownable.sol\":2506:2531  address oldOwner = _owner */\n  swap1\n  pop\n    /* \"@openzeppelin/contracts/access/Ownable.sol\":2550:2558  newOwner */\n  dup2\n    /* \"@openzeppelin/contracts/access/Ownable.sol\":2541:2547  _owner */\n  0x00\n  dup1\n    /* \"@openzeppelin/contracts/access/Ownable.sol\":2541:2558  _owner = newOwner */\n  0x0100\n  exp\n  dup2\n  sload\n  dup2\n  0xffffffffffffffffffffffffffffffffffffffff\n  mul\n  not\n  and\n  swap1\n  dup4\n  0xffffffffffffffffffffffffffffffffffffffff\n  and\n  mul\n  or\n  swap1\n  sstore\n  pop\n    /* \"@openzeppelin/contracts/access/Ownable.sol\":2604:2612  newOwner */\n  dup2\n    /* \"@openzeppelin/contracts/access/Ownable.sol\":2573:2613  OwnershipTransferred(oldOwner, newOwner) */\n  0xffffffffffffffffffffffffffffffffffffffff\n  and\n    /* \"@openzeppelin/contracts/access/Ownable.sol\":2594:2602  oldOwner */\n  dup2\n    /* \"@openzeppelin/contracts/access/Ownable.sol\":2573:2613  OwnershipTransferred(oldOwner, newOwner) */\n  0xffffffffffffffffffffffffffffffffffffffff\n  and\n  0x8be0079c531659141344cd1fd0a4f28419497f9722a3daafe3b4186f6b6457e0\n  mload(0x40)\n  mload(0x40)\n  dup1\n  swap2\n  sub\n  swap1\n  log3\n    /* \"@openzeppelin/contracts/access/Ownable.sol\":2496:2620  {... */\n  pop\n    /* \"@openzeppelin/contracts/access/Ownable.sol\":2433:2620  function _transferOwnership(address newOwner) internal virtual {... */\n  pop\n  jump\t// out\n    /* \"contracts/registry/TrustedIssuersRegistry.sol\":1292:5222  contract TrustedIssuersRegistry is ITrustedIssuersRegistry, Ownable {... */\ntag_8:\n  dataSize(sub_0)\n  dup1\n  dataOffset(sub_0)\n  0x00\n  codecopy\n  0x00\n  return\nstop\n\nsub_0: assembly {\n        /* \"contracts/registry/TrustedIssuersRegistry.sol\":1292:5222  contract TrustedIssuersRegistry is ITrustedIssuersRegistry, Ownable {... */\n      mstore(0x40, 0x80)\n      callvalue\n      dup1\n      iszero\n      tag_1\n      jumpi\n      0x00\n      dup1\n      revert\n    tag_1:\n      pop\n      jumpi(tag_2, lt(calldatasize, 0x04))\n      shr(0xe0, calldataload(0x00))\n      dup1\n      0xb93d28eb\n      gt\n      tag_14\n      jumpi\n      dup1\n      0xb93d28eb\n      eq\n      tag_8\n      jumpi\n      dup1\n      0xc28fb278\n      eq\n      tag_9\n      jumpi\n      dup1\n      0xd9dd24c5\n      eq\n      tag_10\n      jumpi\n      dup1\n      0xe36dce28\n      eq\n      tag_11\n      jumpi\n      dup1\n      0xef2ed1a4\n      eq\n      tag_12\n      jumpi\n      dup1\n      0xf2fde38b\n      eq\n      tag_13\n      jumpi\n      jump(tag_2)\n    tag_14:\n      dup1\n      0x04bc7e84\n      eq\n      tag_3\n      jumpi\n      dup1\n      0x34a89987\n      eq\n      tag_4\n      jumpi\n      dup1\n      0x715018a6\n      eq\n      tag_5\n      jumpi\n      dup1\n      0x8da5cb5b\n      eq\n      tag_6\n      jumpi\n      dup1\n      0x9f63ea98\n      eq\n      tag_7\n      jumpi\n    tag_2:\n      0x00\n      dup1\n      revert\n        /* \"contracts/registry/TrustedIssuersRegistry.sol\":3017:3471  function updateIssuerClaimTopics(IClaimIssuer _trustedIssuer, uint256[] calldata _claimTopics) external override onlyOwner {... */\n    tag_3:\n      tag_15\n      0x04\n      dup1\n      calldatasize\n      sub\n      dup2\n      add\n      swap1\n      tag_16\n      swap2\n      swap1\n      tag_17\n      jump\t// in\n    tag_16:\n      tag_18\n      jump\t// in\n    tag_15:\n      stop\n        /* \"contracts/registry/TrustedIssuersRegistry.sol\":4549:4967  function hasClaimTopic(address _issuer, uint256 _claimTopic) external view override returns (bool) {... */\n    tag_4:\n      tag_19\n      0x04\n      dup1\n      calldatasize\n      sub\n      dup2\n      add\n      swap1\n      tag_20\n      swap2\n      swap1\n      tag_21\n      jump\t// in\n    tag_20:\n      tag_22\n      jump\t// in\n    tag_19:\n      mload(0x40)\n      tag_23\n      swap2\n      swap1\n      tag_24\n      jump\t// in\n    tag_23:\n      mload(0x40)\n      dup1\n      swap2\n      sub\n      swap1\n      return\n        /* \"@openzeppelin/contracts/access/Ownable.sol\":1831:1932  function renounceOwnership() public virtual onlyOwner {... */\n    tag_5:\n      tag_25\n      tag_26\n      jump\t// in\n    tag_25:\n      stop\n        /* \"@openzeppelin/contracts/access/Ownable.sol\":1201:1286  function owner() public view virtual returns (address) {... */\n    tag_6:\n      tag_27\n      tag_28\n      jump\t// in\n    tag_27:\n      mload(0x40)\n      tag_29\n      swap2\n      swap1\n      tag_30\n      jump\t// in\n    tag_29:\n      mload(0x40)\n      dup1\n      swap2\n      sub\n      swap1\n      return\n        /* \"contracts/registry/TrustedIssuersRegistry.sol\":1719:2219  function addTrustedIssuer(IClaimIssuer _trustedIssuer, uint256[] calldata _claimTopics) external override onlyOwner {... */\n    tag_7:\n      tag_31\n      0x04\n      dup1\n      calldatasize\n      sub\n      dup2\n      add\n      swap1\n      tag_32\n      swap2\n      swap1\n      tag_17\n      jump\t// in\n    tag_32:\n      tag_33\n      jump\t// in\n    tag_31:\n      stop\n        /* \"contracts/registry/TrustedIssuersRegistry.sol\":2305:2927  function removeTrustedIssuer(IClaimIssuer _trustedIssuer) external override onlyOwner {... */\n    tag_8:\n      tag_34\n      0x04\n      dup1\n      calldatasize\n      sub\n      dup2\n      add\n      swap1\n      tag_35\n      swap2\n      swap1\n      tag_36\n      jump\t// in\n    tag_35:\n      tag_37\n      jump\t// in\n    tag_34:\n      stop\n        /* \"contracts/registry/TrustedIssuersRegistry.sol\":4167:4469  function getTrustedIssuerClaimTopics(IClaimIssuer _trustedIssuer) external view override returns (uint256[] memory) {... */\n    tag_9:\n      tag_38\n      0x04\n      dup1\n      calldatasize\n      sub\n      dup2\n      add\n      swap1\n      tag_39\n      swap2\n      swap1\n      tag_36\n      jump\t// in\n    tag_39:\n      tag_40\n      jump\t// in\n    tag_38:\n      mload(0x40)\n      tag_41\n      swap2\n      swap1\n      tag_42\n      jump\t// in\n    tag_41:\n      mload(0x40)\n      dup1\n      swap2\n      sub\n      swap1\n      return\n        /* \"contracts/registry/TrustedIssuersRegistry.sol\":3555:3677  function getTrustedIssuers() external view override returns (IClaimIssuer[] memory) {... */\n    tag_10:\n      tag_43\n      tag_44\n      jump\t// in\n    tag_43:\n      mload(0x40)\n      tag_45\n      swap2\n      swap1\n      tag_46\n      jump\t// in\n    tag_45:\n      mload(0x40)\n      dup1\n      swap2\n      sub\n      swap1\n      return\n        /* \"contracts/registry/TrustedIssuersRegistry.sol\":5076:5220  function transferOwnershipOnIssuersRegistryContract(address _newOwner) external override onlyOwner {... */\n    tag_11:\n      tag_47\n      0x04\n      dup1\n      calldatasize\n      sub\n      dup2\n      add\n      swap1\n      tag_48\n      swap2\n      swap1\n      tag_49\n      jump\t// in\n    tag_48:\n      tag_50\n      jump\t// in\n    tag_47:\n      stop\n        /* \"contracts/registry/TrustedIssuersRegistry.sol\":3759:4073  function isTrustedIssuer(address _issuer) external view override returns (bool) {... */\n    tag_12:\n      tag_51\n      0x04\n      dup1\n      calldatasize\n      sub\n      dup2\n      add\n      swap1\n      tag_52\n      swap2\n      swap1\n      tag_49\n      jump\t// in\n    tag_52:\n      tag_53\n      jump\t// in\n    tag_51:\n      mload(0x40)\n      tag_54\n      swap2\n      swap1\n      tag_24\n      jump\t// in\n    tag_54:\n      mload(0x40)\n      dup1\n      swap2\n      sub\n      swap1\n      return\n        /* \"@openzeppelin/contracts/access/Ownable.sol\":2081:2279  function transferOwnership(address newOwner) public virtual onlyOwner {... */\n    tag_13:\n      tag_55\n      0x04\n      dup1\n      calldatasize\n      sub\n      dup2\n      add\n      swap1\n      tag_56\n      swap2\n      swap1\n      tag_49\n      jump\t// in\n    tag_56:\n      tag_57\n      jump\t// in\n    tag_55:\n      stop\n        /* \"contracts/registry/TrustedIssuersRegistry.sol\":3017:3471  function updateIssuerClaimTopics(IClaimIssuer _trustedIssuer, uint256[] calldata _claimTopics) external override onlyOwner {... */\n    tag_18:\n        /* \"@openzeppelin/contracts/access/Ownable.sol\":1094:1107  _checkOwner() */\n      tag_59\n        /* \"@openzeppelin/contracts/access/Ownable.sol\":1094:1105  _checkOwner */\n      tag_60\n        /* \"@openzeppelin/contracts/access/Ownable.sol\":1094:1107  _checkOwner() */\n      jump\t// in\n    tag_59:\n        /* \"contracts/registry/TrustedIssuersRegistry.sol\":3218:3219  0 */\n      0x00\n        /* \"contracts/registry/TrustedIssuersRegistry.sol\":3158:3182  trustedIssuerClaimTopics */\n      0x02\n        /* \"contracts/registry/TrustedIssuersRegistry.sol\":3158:3207  trustedIssuerClaimTopics[address(_trustedIssuer)] */\n      0x00\n        /* \"contracts/registry/TrustedIssuersRegistry.sol\":3191:3205  _trustedIssuer */\n      dup6\n        /* \"contracts/registry/TrustedIssuersRegistry.sol\":3158:3207  trustedIssuerClaimTopics[address(_trustedIssuer)] */\n      0xffffffffffffffffffffffffffffffffffffffff\n      and\n      0xffffffffffffffffffffffffffffffffffffffff\n      and\n      dup2\n      mstore\n      0x20\n      add\n      swap1\n      dup2\n      mstore\n      0x20\n      add\n      0x00\n      keccak256\n        /* \"contracts/registry/TrustedIssuersRegistry.sol\":3158:3214  trustedIssuerClaimTopics[address(_trustedIssuer)].length */\n      dup1\n      sload\n      swap1\n      pop\n        /* \"contracts/registry/TrustedIssuersRegistry.sol\":3158:3219  trustedIssuerClaimTopics[address(_trustedIssuer)].length != 0 */\n      eq\n      iszero\n        /* \"contracts/registry/TrustedIssuersRegistry.sol\":3150:3253  require(trustedIssuerClaimTopics[address(_trustedIssuer)].length != 0, 'trusted Issuer doesn\\'t exist') */\n      tag_62\n      jumpi\n      mload(0x40)\n      0x08c379a000000000000000000000000000000000000000000000000000000000\n      dup2\n      mstore\n      0x04\n      add\n      tag_63\n      swap1\n      tag_64\n      jump\t// in\n    tag_63:\n      mload(0x40)\n      dup1\n      swap2\n      sub\n      swap1\n      revert\n    tag_62:\n        /* \"contracts/registry/TrustedIssuersRegistry.sol\":3293:3294  0 */\n      0x00\n        /* \"contracts/registry/TrustedIssuersRegistry.sol\":3271:3283  _claimTopics */\n      dup3\n      dup3\n        /* \"contracts/registry/TrustedIssuersRegistry.sol\":3271:3290  _claimTopics.length */\n      swap1\n      pop\n        /* \"contracts/registry/TrustedIssuersRegistry.sol\":3271:3294  _claimTopics.length > 0 */\n      gt\n        /* \"contracts/registry/TrustedIssuersRegistry.sol\":3263:3327  require(_claimTopics.length > 0, 'claim topics cannot be empty') */\n      tag_65\n      jumpi\n      mload(0x40)\n      0x08c379a000000000000000000000000000000000000000000000000000000000\n      dup2\n      mstore\n      0x04\n      add\n      tag_66\n      swap1\n      tag_67\n      jump\t// in\n    tag_66:\n      mload(0x40)\n      dup1\n      swap2\n      sub\n      swap1\n      revert\n    tag_65:\n        /* \"contracts/registry/TrustedIssuersRegistry.sol\":3389:3401  _claimTopics */\n      dup2\n      dup2\n        /* \"contracts/registry/TrustedIssuersRegistry.sol\":3337:3361  trustedIssuerClaimTopics */\n      0x02\n        /* \"contracts/registry/TrustedIssuersRegistry.sol\":3337:3386  trustedIssuerClaimTopics[address(_trustedIssuer)] */\n      0x00\n        /* \"contracts/registry/TrustedIssuersRegistry.sol\":3370:3384  _trustedIssuer */\n      dup7\n        /* \"contracts/registry/TrustedIssuersRegistry.sol\":3337:3386  trustedIssuerClaimTopics[address(_trustedIssuer)] */\n      0xffffffffffffffffffffffffffffffffffffffff\n      and\n      0xffffffffffffffffffffffffffffffffffffffff\n      and\n      dup2\n      mstore\n      0x20\n      add\n      swap1\n      dup2\n      mstore\n      0x20\n      add\n      0x00\n      keccak256\n        /* \"contracts/registry/TrustedIssuersRegistry.sol\":3337:3401  trustedIssuerClaimTopics[address(_trustedIssuer)] = _claimTopics */\n      swap2\n      swap1\n      tag_68\n      swap3\n      swap2\n      swap1\n      tag_69\n      jump\t// in\n    tag_68:\n      pop\n        /* \"contracts/registry/TrustedIssuersRegistry.sol\":3435:3449  _trustedIssuer */\n      dup3\n        /* \"contracts/registry/TrustedIssuersRegistry.sol\":3416:3464  ClaimTopicsUpdated(_trustedIssuer, _claimTopics) */\n      0xffffffffffffffffffffffffffffffffffffffff\n      and\n      0xec753cfc52044f61676f18a11e500093a9f2b1cd5e4942bc476f2b0438159bcf\n        /* \"contracts/registry/TrustedIssuersRegistry.sol\":3451:3463  _claimTopics */\n      dup4\n      dup4\n        /* \"contracts/registry/TrustedIssuersRegistry.sol\":3416:3464  ClaimTopicsUpdated(_trustedIssuer, _claimTopics) */\n      mload(0x40)\n      tag_70\n      swap3\n      swap2\n      swap1\n      tag_71\n      jump\t// in\n    tag_70:\n      mload(0x40)\n      dup1\n      swap2\n      sub\n      swap1\n      log2\n        /* \"contracts/registry/TrustedIssuersRegistry.sol\":3017:3471  function updateIssuerClaimTopics(IClaimIssuer _trustedIssuer, uint256[] calldata _claimTopics) external override onlyOwner {... */\n      pop\n      pop\n      pop\n      jump\t// out\n        /* \"contracts/registry/TrustedIssuersRegistry.sol\":4549:4967  function hasClaimTopic(address _issuer, uint256 _claimTopic) external view override returns (bool) {... */\n    tag_22:\n        /* \"contracts/registry/TrustedIssuersRegistry.sol\":4642:4646  bool */\n      0x00\n        /* \"contracts/registry/TrustedIssuersRegistry.sol\":4658:4672  uint256 length */\n      dup1\n        /* \"contracts/registry/TrustedIssuersRegistry.sol\":4675:4699  trustedIssuerClaimTopics */\n      0x02\n        /* \"contracts/registry/TrustedIssuersRegistry.sol\":4675:4708  trustedIssuerClaimTopics[_issuer] */\n      0x00\n        /* \"contracts/registry/TrustedIssuersRegistry.sol\":4700:4707  _issuer */\n      dup6\n        /* \"contracts/registry/TrustedIssuersRegistry.sol\":4675:4708  trustedIssuerClaimTopics[_issuer] */\n      0xffffffffffffffffffffffffffffffffffffffff\n      and\n      0xffffffffffffffffffffffffffffffffffffffff\n      and\n      dup2\n      mstore\n      0x20\n      add\n      swap1\n      dup2\n      mstore\n      0x20\n      add\n      0x00\n      keccak256\n        /* \"contracts/registry/TrustedIssuersRegistry.sol\":4675:4715  trustedIssuerClaimTopics[_issuer].length */\n      dup1\n      sload\n      swap1\n      pop\n        /* \"contracts/registry/TrustedIssuersRegistry.sol\":4658:4715  uint256 length = trustedIssuerClaimTopics[_issuer].length */\n      swap1\n      pop\n        /* \"contracts/registry/TrustedIssuersRegistry.sol\":4725:4753  uint256[] memory claimTopics */\n      0x00\n        /* \"contracts/registry/TrustedIssuersRegistry.sol\":4756:4780  trustedIssuerClaimTopics */\n      0x02\n        /* \"contracts/registry/TrustedIssuersRegistry.sol\":4756:4789  trustedIssuerClaimTopics[_issuer] */\n      0x00\n        /* \"contracts/registry/TrustedIssuersRegistry.sol\":4781:4788  _issuer */\n      dup7\n        /* \"contracts/registry/TrustedIssuersRegistry.sol\":4756:4789  trustedIssuerClaimTopics[_issuer] */\n      0xffffffffffffffffffffffffffffffffffffffff\n      and\n      0xffffffffffffffffffffffffffffffffffffffff\n      and\n      dup2\n      mstore\n      0x20\n      add\n      swap1\n      dup2\n      mstore\n      0x20\n      add\n      0x00\n      keccak256\n        /* \"contracts/registry/TrustedIssuersRegistry.sol\":4725:4789  uint256[] memory claimTopics = trustedIssuerClaimTopics[_issuer] */\n      dup1\n      sload\n      dup1\n      0x20\n      mul\n      0x20\n      add\n      mload(0x40)\n      swap1\n      dup2\n      add\n      0x40\n      mstore\n      dup1\n      swap3\n      swap2\n      swap1\n      dup2\n      dup2\n      mstore\n      0x20\n      add\n      dup3\n      dup1\n      sload\n      dup1\n      iszero\n      tag_73\n      jumpi\n      0x20\n      mul\n      dup3\n      add\n      swap2\n      swap1\n      0x00\n      mstore\n      keccak256(0x00, 0x20)\n      swap1\n    tag_74:\n      dup2\n      sload\n      dup2\n      mstore\n      0x20\n      add\n      swap1\n      0x01\n      add\n      swap1\n      dup1\n      dup4\n      gt\n      tag_74\n      jumpi\n    tag_73:\n      pop\n      pop\n      pop\n      pop\n      pop\n      swap1\n      pop\n        /* \"contracts/registry/TrustedIssuersRegistry.sol\":4804:4813  uint256 i */\n      0x00\n        /* \"contracts/registry/TrustedIssuersRegistry.sol\":4799:4939  for (uint256 i = 0; i < length; i++) {... */\n    tag_75:\n        /* \"contracts/registry/TrustedIssuersRegistry.sol\":4823:4829  length */\n      dup3\n        /* \"contracts/registry/TrustedIssuersRegistry.sol\":4819:4820  i */\n      dup2\n        /* \"contracts/registry/TrustedIssuersRegistry.sol\":4819:4829  i < length */\n      lt\n        /* \"contracts/registry/TrustedIssuersRegistry.sol\":4799:4939  for (uint256 i = 0; i < length; i++) {... */\n      iszero\n      tag_76\n      jumpi\n        /* \"contracts/registry/TrustedIssuersRegistry.sol\":4872:4883  _claimTopic */\n      dup5\n        /* \"contracts/registry/TrustedIssuersRegistry.sol\":4854:4865  claimTopics */\n      dup3\n        /* \"contracts/registry/TrustedIssuersRegistry.sol\":4866:4867  i */\n      dup3\n        /* \"contracts/registry/TrustedIssuersRegistry.sol\":4854:4868  claimTopics[i] */\n      dup2\n      mload\n      dup2\n      lt\n      tag_78\n      jumpi\n      tag_79\n      tag_80\n      jump\t// in\n    tag_79:\n    tag_78:\n      0x20\n      mul\n      0x20\n      add\n      add\n      mload\n        /* \"contracts/registry/TrustedIssuersRegistry.sol\":4854:4883  claimTopics[i] == _claimTopic */\n      eq\n        /* \"contracts/registry/TrustedIssuersRegistry.sol\":4850:4929  if (claimTopics[i] == _claimTopic) {... */\n      iszero\n      tag_81\n      jumpi\n        /* \"contracts/registry/TrustedIssuersRegistry.sol\":4910:4914  true */\n      0x01\n        /* \"contracts/registry/TrustedIssuersRegistry.sol\":4903:4914  return true */\n      swap4\n      pop\n      pop\n      pop\n      pop\n      jump(tag_72)\n        /* \"contracts/registry/TrustedIssuersRegistry.sol\":4850:4929  if (claimTopics[i] == _claimTopic) {... */\n    tag_81:\n        /* \"contracts/registry/TrustedIssuersRegistry.sol\":4831:4834  i++ */\n      dup1\n      dup1\n      tag_82\n      swap1\n      tag_83\n      jump\t// in\n    tag_82:\n      swap2\n      pop\n      pop\n        /* \"contracts/registry/TrustedIssuersRegistry.sol\":4799:4939  for (uint256 i = 0; i < length; i++) {... */\n      jump(tag_75)\n    tag_76:\n      pop\n        /* \"contracts/registry/TrustedIssuersRegistry.sol\":4955:4960  false */\n      0x00\n        /* \"contracts/registry/TrustedIssuersRegistry.sol\":4948:4960  return false */\n      swap3\n      pop\n      pop\n      pop\n        /* \"contracts/registry/TrustedIssuersRegistry.sol\":4549:4967  function hasClaimTopic(address _issuer, uint256 _claimTopic) external view override returns (bool) {... */\n    tag_72:\n      swap3\n      swap2\n      pop\n      pop\n      jump\t// out\n        /* \"@openzeppelin/contracts/access/Ownable.sol\":1831:1932  function renounceOwnership() public virtual onlyOwner {... */\n    tag_26:\n        /* \"@openzeppelin/contracts/access/Ownable.sol\":1094:1107  _checkOwner() */\n      tag_85\n        /* \"@openzeppelin/contracts/access/Ownable.sol\":1094:1105  _checkOwner */\n      tag_60\n        /* \"@openzeppelin/contracts/access/Ownable.sol\":1094:1107  _checkOwner() */\n      jump\t// in\n    tag_85:\n        /* \"@openzeppelin/contracts/access/Ownable.sol\":1895:1925  _transferOwnership(address(0)) */\n      tag_87\n        /* \"@openzeppelin/contracts/access/Ownable.sol\":1922:1923  0 */\n      0x00\n        /* \"@openzeppelin/contracts/access/Ownable.sol\":1895:1913  _transferOwnership */\n      tag_88\n        /* \"@openzeppelin/contracts/access/Ownable.sol\":1895:1925  _transferOwnership(address(0)) */\n      jump\t// in\n    tag_87:\n        /* \"@openzeppelin/contracts/access/Ownable.sol\":1831:1932  function renounceOwnership() public virtual onlyOwner {... */\n      jump\t// out\n        /* \"@openzeppelin/contracts/access/Ownable.sol\":1201:1286  function owner() public view virtual returns (address) {... */\n    tag_28:\n        /* \"@openzeppelin/contracts/access/Ownable.sol\":1247:1254  address */\n      0x00\n        /* \"@openzeppelin/contracts/access/Ownable.sol\":1273:1279  _owner */\n      dup1\n      0x00\n      swap1\n      sload\n      swap1\n      0x0100\n      exp\n      swap1\n      div\n      0xffffffffffffffffffffffffffffffffffffffff\n      and\n        /* \"@openzeppelin/contracts/access/Ownable.sol\":1266:1279  return _owner */\n      swap1\n      pop\n        /* \"@openzeppelin/contracts/access/Ownable.sol\":1201:1286  function owner() public view virtual returns (address) {... */\n      swap1\n      jump\t// out\n        /* \"contracts/registry/TrustedIssuersRegistry.sol\":1719:2219  function addTrustedIssuer(IClaimIssuer _trustedIssuer, uint256[] calldata _claimTopics) external override onlyOwner {... */\n    tag_33:\n        /* \"@openzeppelin/contracts/access/Ownable.sol\":1094:1107  _checkOwner() */\n      tag_91\n        /* \"@openzeppelin/contracts/access/Ownable.sol\":1094:1105  _checkOwner */\n      tag_60\n        /* \"@openzeppelin/contracts/access/Ownable.sol\":1094:1107  _checkOwner() */\n      jump\t// in\n    tag_91:\n        /* \"contracts/registry/TrustedIssuersRegistry.sol\":1913:1914  0 */\n      0x00\n        /* \"contracts/registry/TrustedIssuersRegistry.sol\":1853:1877  trustedIssuerClaimTopics */\n      0x02\n        /* \"contracts/registry/TrustedIssuersRegistry.sol\":1853:1902  trustedIssuerClaimTopics[address(_trustedIssuer)] */\n      0x00\n        /* \"contracts/registry/TrustedIssuersRegistry.sol\":1886:1900  _trustedIssuer */\n      dup6\n        /* \"contracts/registry/TrustedIssuersRegistry.sol\":1853:1902  trustedIssuerClaimTopics[address(_trustedIssuer)] */\n      0xffffffffffffffffffffffffffffffffffffffff\n      and\n      0xffffffffffffffffffffffffffffffffffffffff\n      and\n      dup2\n      mstore\n      0x20\n      add\n      swap1\n      dup2\n      mstore\n      0x20\n      add\n      0x00\n      keccak256\n        /* \"contracts/registry/TrustedIssuersRegistry.sol\":1853:1909  trustedIssuerClaimTopics[address(_trustedIssuer)].length */\n      dup1\n      sload\n      swap1\n      pop\n        /* \"contracts/registry/TrustedIssuersRegistry.sol\":1853:1914  trustedIssuerClaimTopics[address(_trustedIssuer)].length == 0 */\n      eq\n        /* \"contracts/registry/TrustedIssuersRegistry.sol\":1845:1948  require(trustedIssuerClaimTopics[address(_trustedIssuer)].length == 0, 'trusted Issuer already exists') */\n      tag_93\n      jumpi\n      mload(0x40)\n      0x08c379a000000000000000000000000000000000000000000000000000000000\n      dup2\n      mstore\n      0x04\n      add\n      tag_94\n      swap1\n      tag_95\n      jump\t// in\n    tag_94:\n      mload(0x40)\n      dup1\n      swap2\n      sub\n      swap1\n      revert\n    tag_93:\n        /* \"contracts/registry/TrustedIssuersRegistry.sol\":1988:1989  0 */\n      0x00\n        /* \"contracts/registry/TrustedIssuersRegistry.sol\":1966:1978  _claimTopics */\n      dup3\n      dup3\n        /* \"contracts/registry/TrustedIssuersRegistry.sol\":1966:1985  _claimTopics.length */\n      swap1\n      pop\n        /* \"contracts/registry/TrustedIssuersRegistry.sol\":1966:1989  _claimTopics.length > 0 */\n      gt\n        /* \"contracts/registry/TrustedIssuersRegistry.sol\":1958:2030  require(_claimTopics.length > 0, 'trusted claim topics cannot be empty') */\n      tag_96\n      jumpi\n      mload(0x40)\n      0x08c379a000000000000000000000000000000000000000000000000000000000\n      dup2\n      mstore\n      0x04\n      add\n      tag_97\n      swap1\n      tag_98\n      jump\t// in\n    tag_97:\n      mload(0x40)\n      dup1\n      swap2\n      sub\n      swap1\n      revert\n    tag_96:\n        /* \"contracts/registry/TrustedIssuersRegistry.sol\":2040:2054  trustedIssuers */\n      0x01\n        /* \"contracts/registry/TrustedIssuersRegistry.sol\":2060:2074  _trustedIssuer */\n      dup4\n        /* \"contracts/registry/TrustedIssuersRegistry.sol\":2040:2075  trustedIssuers.push(_trustedIssuer) */\n      swap1\n      dup1\n      0x01\n      dup2\n      sload\n      add\n      dup1\n      dup3\n      sstore\n      dup1\n      swap2\n      pop\n      pop\n      0x01\n      swap1\n      sub\n      swap1\n      0x00\n      mstore\n      keccak256(0x00, 0x20)\n      add\n      0x00\n      swap1\n      swap2\n      swap1\n      swap2\n      swap1\n      swap2\n      0x0100\n      exp\n      dup2\n      sload\n      dup2\n      0xffffffffffffffffffffffffffffffffffffffff\n      mul\n      not\n      and\n      swap1\n      dup4\n      0xffffffffffffffffffffffffffffffffffffffff\n      and\n      mul\n      or\n      swap1\n      sstore\n      pop\n        /* \"contracts/registry/TrustedIssuersRegistry.sol\":2137:2149  _claimTopics */\n      dup2\n      dup2\n        /* \"contracts/registry/TrustedIssuersRegistry.sol\":2085:2109  trustedIssuerClaimTopics */\n      0x02\n        /* \"contracts/registry/TrustedIssuersRegistry.sol\":2085:2134  trustedIssuerClaimTopics[address(_trustedIssuer)] */\n      0x00\n        /* \"contracts/registry/TrustedIssuersRegistry.sol\":2118:2132  _trustedIssuer */\n      dup7\n        /* \"contracts/registry/TrustedIssuersRegistry.sol\":2085:2134  trustedIssuerClaimTopics[address(_trustedIssuer)] */\n      0xffffffffffffffffffffffffffffffffffffffff\n      and\n      0xffffffffffffffffffffffffffffffffffffffff\n      and\n      dup2\n      mstore\n      0x20\n      add\n      swap1\n      dup2\n      mstore\n      0x20\n      add\n      0x00\n      keccak256\n        /* \"contracts/registry/TrustedIssuersRegistry.sol\":2085:2149  trustedIssuerClaimTopics[address(_trustedIssuer)] = _claimTopics */\n      swap2\n      swap1\n      tag_100\n      swap3\n      swap2\n      swap1\n      tag_69\n      jump\t// in\n    tag_100:\n      pop\n        /* \"contracts/registry/TrustedIssuersRegistry.sol\":2183:2197  _trustedIssuer */\n      dup3\n        /* \"contracts/registry/TrustedIssuersRegistry.sol\":2164:2212  TrustedIssuerAdded(_trustedIssuer, _claimTopics) */\n      0xffffffffffffffffffffffffffffffffffffffff\n      and\n      0xfedc33fd34859594822c0ff6f3f4f9fc279cc6d5cae53068f706a088e4500872\n        /* \"contracts/registry/TrustedIssuersRegistry.sol\":2199:2211  _claimTopics */\n      dup4\n      dup4\n        /* \"contracts/registry/TrustedIssuersRegistry.sol\":2164:2212  TrustedIssuerAdded(_trustedIssuer, _claimTopics) */\n      mload(0x40)\n      tag_101\n      swap3\n      swap2\n      swap1\n      tag_71\n      jump\t// in\n    tag_101:\n      mload(0x40)\n      dup1\n      swap2\n      sub\n      swap1\n      log2\n        /* \"contracts/registry/TrustedIssuersRegistry.sol\":1719:2219  function addTrustedIssuer(IClaimIssuer _trustedIssuer, uint256[] calldata _claimTopics) external override onlyOwner {... */\n      pop\n      pop\n      pop\n      jump\t// out\n        /* \"contracts/registry/TrustedIssuersRegistry.sol\":2305:2927  function removeTrustedIssuer(IClaimIssuer _trustedIssuer) external override onlyOwner {... */\n    tag_37:\n        /* \"@openzeppelin/contracts/access/Ownable.sol\":1094:1107  _checkOwner() */\n      tag_103\n        /* \"@openzeppelin/contracts/access/Ownable.sol\":1094:1105  _checkOwner */\n      tag_60\n        /* \"@openzeppelin/contracts/access/Ownable.sol\":1094:1107  _checkOwner() */\n      jump\t// in\n    tag_103:\n        /* \"contracts/registry/TrustedIssuersRegistry.sol\":2469:2470  0 */\n      0x00\n        /* \"contracts/registry/TrustedIssuersRegistry.sol\":2409:2433  trustedIssuerClaimTopics */\n      0x02\n        /* \"contracts/registry/TrustedIssuersRegistry.sol\":2409:2458  trustedIssuerClaimTopics[address(_trustedIssuer)] */\n      0x00\n        /* \"contracts/registry/TrustedIssuersRegistry.sol\":2442:2456  _trustedIssuer */\n      dup4\n        /* \"contracts/registry/TrustedIssuersRegistry.sol\":2409:2458  trustedIssuerClaimTopics[address(_trustedIssuer)] */\n      0xffffffffffffffffffffffffffffffffffffffff\n      and\n      0xffffffffffffffffffffffffffffffffffffffff\n      and\n      dup2\n      mstore\n      0x20\n      add\n      swap1\n      dup2\n      mstore\n      0x20\n      add\n      0x00\n      keccak256\n        /* \"contracts/registry/TrustedIssuersRegistry.sol\":2409:2465  trustedIssuerClaimTopics[address(_trustedIssuer)].length */\n      dup1\n      sload\n      swap1\n      pop\n        /* \"contracts/registry/TrustedIssuersRegistry.sol\":2409:2470  trustedIssuerClaimTopics[address(_trustedIssuer)].length != 0 */\n      eq\n      iszero\n        /* \"contracts/registry/TrustedIssuersRegistry.sol\":2401:2504  require(trustedIssuerClaimTopics[address(_trustedIssuer)].length != 0, 'trusted Issuer doesn\\'t exist') */\n      tag_105\n      jumpi\n      mload(0x40)\n      0x08c379a000000000000000000000000000000000000000000000000000000000\n      dup2\n      mstore\n      0x04\n      add\n      tag_106\n      swap1\n      tag_64\n      jump\t// in\n    tag_106:\n      mload(0x40)\n      dup1\n      swap2\n      sub\n      swap1\n      revert\n    tag_105:\n        /* \"contracts/registry/TrustedIssuersRegistry.sol\":2514:2528  uint256 length */\n      0x00\n        /* \"contracts/registry/TrustedIssuersRegistry.sol\":2531:2545  trustedIssuers */\n      0x01\n        /* \"contracts/registry/TrustedIssuersRegistry.sol\":2531:2552  trustedIssuers.length */\n      dup1\n      sload\n      swap1\n      pop\n        /* \"contracts/registry/TrustedIssuersRegistry.sol\":2514:2552  uint256 length = trustedIssuers.length */\n      swap1\n      pop\n        /* \"contracts/registry/TrustedIssuersRegistry.sol\":2567:2576  uint256 i */\n      0x00\n        /* \"contracts/registry/TrustedIssuersRegistry.sol\":2562:2804  for (uint256 i = 0; i < length; i++) {... */\n    tag_107:\n        /* \"contracts/registry/TrustedIssuersRegistry.sol\":2586:2592  length */\n      dup2\n        /* \"contracts/registry/TrustedIssuersRegistry.sol\":2582:2583  i */\n      dup2\n        /* \"contracts/registry/TrustedIssuersRegistry.sol\":2582:2592  i < length */\n      lt\n        /* \"contracts/registry/TrustedIssuersRegistry.sol\":2562:2804  for (uint256 i = 0; i < length; i++) {... */\n      iszero\n      tag_108\n      jumpi\n        /* \"contracts/registry/TrustedIssuersRegistry.sol\":2638:2652  _trustedIssuer */\n      dup3\n        /* \"contracts/registry/TrustedIssuersRegistry.sol\":2617:2652  trustedIssuers[i] == _trustedIssuer */\n      0xffffffffffffffffffffffffffffffffffffffff\n      and\n        /* \"contracts/registry/TrustedIssuersRegistry.sol\":2617:2631  trustedIssuers */\n      0x01\n        /* \"contracts/registry/TrustedIssuersRegistry.sol\":2632:2633  i */\n      dup3\n        /* \"contracts/registry/TrustedIssuersRegistry.sol\":2617:2634  trustedIssuers[i] */\n      dup2\n      sload\n      dup2\n      lt\n      tag_110\n      jumpi\n      tag_111\n      tag_80\n      jump\t// in\n    tag_111:\n    tag_110:\n      swap1\n      0x00\n      mstore\n      keccak256(0x00, 0x20)\n      add\n      0x00\n      swap1\n      sload\n      swap1\n      0x0100\n      exp\n      swap1\n      div\n      0xffffffffffffffffffffffffffffffffffffffff\n      and\n        /* \"contracts/registry/TrustedIssuersRegistry.sol\":2617:2652  trustedIssuers[i] == _trustedIssuer */\n      0xffffffffffffffffffffffffffffffffffffffff\n      and\n      eq\n        /* \"contracts/registry/TrustedIssuersRegistry.sol\":2613:2794  if (trustedIssuers[i] == _trustedIssuer) {... */\n      iszero\n      tag_113\n      jumpi\n        /* \"contracts/registry/TrustedIssuersRegistry.sol\":2692:2706  trustedIssuers */\n      0x01\n        /* \"contracts/registry/TrustedIssuersRegistry.sol\":2716:2717  1 */\n      dup1\n        /* \"contracts/registry/TrustedIssuersRegistry.sol\":2707:2713  length */\n      dup4\n        /* \"contracts/registry/TrustedIssuersRegistry.sol\":2707:2717  length - 1 */\n      tag_114\n      swap2\n      swap1\n      tag_115\n      jump\t// in\n    tag_114:\n        /* \"contracts/registry/TrustedIssuersRegistry.sol\":2692:2718  trustedIssuers[length - 1] */\n      dup2\n      sload\n      dup2\n      lt\n      tag_116\n      jumpi\n      tag_117\n      tag_80\n      jump\t// in\n    tag_117:\n    tag_116:\n      swap1\n      0x00\n      mstore\n      keccak256(0x00, 0x20)\n      add\n      0x00\n      swap1\n      sload\n      swap1\n      0x0100\n      exp\n      swap1\n      div\n      0xffffffffffffffffffffffffffffffffffffffff\n      and\n        /* \"contracts/registry/TrustedIssuersRegistry.sol\":2672:2686  trustedIssuers */\n      0x01\n        /* \"contracts/registry/TrustedIssuersRegistry.sol\":2687:2688  i */\n      dup3\n        /* \"contracts/registry/TrustedIssuersRegistry.sol\":2672:2689  trustedIssuers[i] */\n      dup2\n      sload\n      dup2\n      lt\n      tag_119\n      jumpi\n      tag_120\n      tag_80\n      jump\t// in\n    tag_120:\n    tag_119:\n      swap1\n      0x00\n      mstore\n      keccak256(0x00, 0x20)\n      add\n      0x00\n        /* \"contracts/registry/TrustedIssuersRegistry.sol\":2672:2718  trustedIssuers[i] = trustedIssuers[length - 1] */\n      0x0100\n      exp\n      dup2\n      sload\n      dup2\n      0xffffffffffffffffffffffffffffffffffffffff\n      mul\n      not\n      and\n      swap1\n      dup4\n      0xffffffffffffffffffffffffffffffffffffffff\n      and\n      mul\n      or\n      swap1\n      sstore\n      pop\n        /* \"contracts/registry/TrustedIssuersRegistry.sol\":2736:2750  trustedIssuers */\n      0x01\n        /* \"contracts/registry/TrustedIssuersRegistry.sol\":2736:2756  trustedIssuers.pop() */\n      dup1\n      sload\n      dup1\n      tag_122\n      jumpi\n      tag_123\n      tag_124\n      jump\t// in\n    tag_123:\n    tag_122:\n      0x01\n      swap1\n      sub\n      dup2\n      dup2\n      swap1\n      0x00\n      mstore\n      keccak256(0x00, 0x20)\n      add\n      exp(0x0100, 0x00)\n      dup2\n      sload\n      swap1\n      0xffffffffffffffffffffffffffffffffffffffff\n      mul\n      not\n      and\n      swap1\n      sstore\n      swap1\n      sstore\n        /* \"contracts/registry/TrustedIssuersRegistry.sol\":2774:2779  break */\n      jump(tag_108)\n        /* \"contracts/registry/TrustedIssuersRegistry.sol\":2613:2794  if (trustedIssuers[i] == _trustedIssuer) {... */\n    tag_113:\n        /* \"contracts/registry/TrustedIssuersRegistry.sol\":2594:2597  i++ */\n      dup1\n      dup1\n      tag_126\n      swap1\n      tag_83\n      jump\t// in\n    tag_126:\n      swap2\n      pop\n      pop\n        /* \"contracts/registry/TrustedIssuersRegistry.sol\":2562:2804  for (uint256 i = 0; i < length; i++) {... */\n      jump(tag_107)\n    tag_108:\n      pop\n        /* \"contracts/registry/TrustedIssuersRegistry.sol\":2820:2844  trustedIssuerClaimTopics */\n      0x02\n        /* \"contracts/registry/TrustedIssuersRegistry.sol\":2820:2869  trustedIssuerClaimTopics[address(_trustedIssuer)] */\n      0x00\n        /* \"contracts/registry/TrustedIssuersRegistry.sol\":2853:2867  _trustedIssuer */\n      dup4\n        /* \"contracts/registry/TrustedIssuersRegistry.sol\":2820:2869  trustedIssuerClaimTopics[address(_trustedIssuer)] */\n      0xffffffffffffffffffffffffffffffffffffffff\n      and\n      0xffffffffffffffffffffffffffffffffffffffff\n      and\n      dup2\n      mstore\n      0x20\n      add\n      swap1\n      dup2\n      mstore\n      0x20\n      add\n      0x00\n      keccak256\n      0x00\n        /* \"contracts/registry/TrustedIssuersRegistry.sol\":2813:2869  delete trustedIssuerClaimTopics[address(_trustedIssuer)] */\n      tag_127\n      swap2\n      swap1\n      tag_128\n      jump\t// in\n    tag_127:\n        /* \"contracts/registry/TrustedIssuersRegistry.sol\":2905:2919  _trustedIssuer */\n      dup2\n        /* \"contracts/registry/TrustedIssuersRegistry.sol\":2884:2920  TrustedIssuerRemoved(_trustedIssuer) */\n      0xffffffffffffffffffffffffffffffffffffffff\n      and\n      0x2214ded40113cc3fb63fc206cafee88270b0a903dac7245d54efdde30ebb0321\n      mload(0x40)\n      mload(0x40)\n      dup1\n      swap2\n      sub\n      swap1\n      log2\n        /* \"contracts/registry/TrustedIssuersRegistry.sol\":2391:2927  {... */\n      pop\n        /* \"contracts/registry/TrustedIssuersRegistry.sol\":2305:2927  function removeTrustedIssuer(IClaimIssuer _trustedIssuer) external override onlyOwner {... */\n      pop\n      jump\t// out\n        /* \"contracts/registry/TrustedIssuersRegistry.sol\":4167:4469  function getTrustedIssuerClaimTopics(IClaimIssuer _trustedIssuer) external view override returns (uint256[] memory) {... */\n    tag_40:\n        /* \"contracts/registry/TrustedIssuersRegistry.sol\":4265:4281  uint256[] memory */\n      0x60\n        /* \"contracts/registry/TrustedIssuersRegistry.sol\":4361:4362  0 */\n      0x00\n        /* \"contracts/registry/TrustedIssuersRegistry.sol\":4301:4325  trustedIssuerClaimTopics */\n      0x02\n        /* \"contracts/registry/TrustedIssuersRegistry.sol\":4301:4350  trustedIssuerClaimTopics[address(_trustedIssuer)] */\n      0x00\n        /* \"contracts/registry/TrustedIssuersRegistry.sol\":4334:4348  _trustedIssuer */\n      dup5\n        /* \"contracts/registry/TrustedIssuersRegistry.sol\":4301:4350  trustedIssuerClaimTopics[address(_trustedIssuer)] */\n      0xffffffffffffffffffffffffffffffffffffffff\n      and\n      0xffffffffffffffffffffffffffffffffffffffff\n      and\n      dup2\n      mstore\n      0x20\n      add\n      swap1\n      dup2\n      mstore\n      0x20\n      add\n      0x00\n      keccak256\n        /* \"contracts/registry/TrustedIssuersRegistry.sol\":4301:4357  trustedIssuerClaimTopics[address(_trustedIssuer)].length */\n      dup1\n      sload\n      swap1\n      pop\n        /* \"contracts/registry/TrustedIssuersRegistry.sol\":4301:4362  trustedIssuerClaimTopics[address(_trustedIssuer)].length != 0 */\n      eq\n      iszero\n        /* \"contracts/registry/TrustedIssuersRegistry.sol\":4293:4396  require(trustedIssuerClaimTopics[address(_trustedIssuer)].length != 0, 'trusted Issuer doesn\\'t exist') */\n      tag_130\n      jumpi\n      mload(0x40)\n      0x08c379a000000000000000000000000000000000000000000000000000000000\n      dup2\n      mstore\n      0x04\n      add\n      tag_131\n      swap1\n      tag_64\n      jump\t// in\n    tag_131:\n      mload(0x40)\n      dup1\n      swap2\n      sub\n      swap1\n      revert\n    tag_130:\n        /* \"contracts/registry/TrustedIssuersRegistry.sol\":4413:4437  trustedIssuerClaimTopics */\n      0x02\n        /* \"contracts/registry/TrustedIssuersRegistry.sol\":4413:4462  trustedIssuerClaimTopics[address(_trustedIssuer)] */\n      0x00\n        /* \"contracts/registry/TrustedIssuersRegistry.sol\":4446:4460  _trustedIssuer */\n      dup4\n        /* \"contracts/registry/TrustedIssuersRegistry.sol\":4413:4462  trustedIssuerClaimTopics[address(_trustedIssuer)] */\n      0xffffffffffffffffffffffffffffffffffffffff\n      and\n      0xffffffffffffffffffffffffffffffffffffffff\n      and\n      dup2\n      mstore\n      0x20\n      add\n      swap1\n      dup2\n      mstore\n      0x20\n      add\n      0x00\n      keccak256\n        /* \"contracts/registry/TrustedIssuersRegistry.sol\":4406:4462  return trustedIssuerClaimTopics[address(_trustedIssuer)] */\n      dup1\n      sload\n      dup1\n      0x20\n      mul\n      0x20\n      add\n      mload(0x40)\n      swap1\n      dup2\n      add\n      0x40\n      mstore\n      dup1\n      swap3\n      swap2\n      swap1\n      dup2\n      dup2\n      mstore\n      0x20\n      add\n      dup3\n      dup1\n      sload\n      dup1\n      iszero\n      tag_132\n      jumpi\n      0x20\n      mul\n      dup3\n      add\n      swap2\n      swap1\n      0x00\n      mstore\n      keccak256(0x00, 0x20)\n      swap1\n    tag_133:\n      dup2\n      sload\n      dup2\n      mstore\n      0x20\n      add\n      swap1\n      0x01\n      add\n      swap1\n      dup1\n      dup4\n      gt\n      tag_133\n      jumpi\n    tag_132:\n      pop\n      pop\n      pop\n      pop\n      pop\n      swap1\n      pop\n        /* \"contracts/registry/TrustedIssuersRegistry.sol\":4167:4469  function getTrustedIssuerClaimTopics(IClaimIssuer _trustedIssuer) external view override returns (uint256[] memory) {... */\n      swap2\n      swap1\n      pop\n      jump\t// out\n        /* \"contracts/registry/TrustedIssuersRegistry.sol\":3555:3677  function getTrustedIssuers() external view override returns (IClaimIssuer[] memory) {... */\n    tag_44:\n        /* \"contracts/registry/TrustedIssuersRegistry.sol\":3616:3637  IClaimIssuer[] memory */\n      0x60\n        /* \"contracts/registry/TrustedIssuersRegistry.sol\":3656:3670  trustedIssuers */\n      0x01\n        /* \"contracts/registry/TrustedIssuersRegistry.sol\":3649:3670  return trustedIssuers */\n      dup1\n      sload\n      dup1\n      0x20\n      mul\n      0x20\n      add\n      mload(0x40)\n      swap1\n      dup2\n      add\n      0x40\n      mstore\n      dup1\n      swap3\n      swap2\n      swap1\n      dup2\n      dup2\n      mstore\n      0x20\n      add\n      dup3\n      dup1\n      sload\n      dup1\n      iszero\n      tag_135\n      jumpi\n      0x20\n      mul\n      dup3\n      add\n      swap2\n      swap1\n      0x00\n      mstore\n      keccak256(0x00, 0x20)\n      swap1\n    tag_136:\n      dup2\n      0x00\n      swap1\n      sload\n      swap1\n      0x0100\n      exp\n      swap1\n      div\n      0xffffffffffffffffffffffffffffffffffffffff\n      and\n      0xffffffffffffffffffffffffffffffffffffffff\n      and\n      dup2\n      mstore\n      0x20\n      add\n      swap1\n      0x01\n      add\n      swap1\n      dup1\n      dup4\n      gt\n      tag_136\n      jumpi\n    tag_135:\n      pop\n      pop\n      pop\n      pop\n      pop\n      swap1\n      pop\n        /* \"contracts/registry/TrustedIssuersRegistry.sol\":3555:3677  function getTrustedIssuers() external view override returns (IClaimIssuer[] memory) {... */\n      swap1\n      jump\t// out\n        /* \"contracts/registry/TrustedIssuersRegistry.sol\":5076:5220  function transferOwnershipOnIssuersRegistryContract(address _newOwner) external override onlyOwner {... */\n    tag_50:\n        /* \"@openzeppelin/contracts/access/Ownable.sol\":1094:1107  _checkOwner() */\n      tag_138\n        /* \"@openzeppelin/contracts/access/Ownable.sol\":1094:1105  _checkOwner */\n      tag_60\n        /* \"@openzeppelin/contracts/access/Ownable.sol\":1094:1107  _checkOwner() */\n      jump\t// in\n    tag_138:\n        /* \"contracts/registry/TrustedIssuersRegistry.sol\":5185:5213  transferOwnership(_newOwner) */\n      tag_140\n        /* \"contracts/registry/TrustedIssuersRegistry.sol\":5203:5212  _newOwner */\n      dup2\n        /* \"contracts/registry/TrustedIssuersRegistry.sol\":5185:5202  transferOwnership */\n      tag_57\n        /* \"contracts/registry/TrustedIssuersRegistry.sol\":5185:5213  transferOwnership(_newOwner) */\n      jump\t// in\n    tag_140:\n        /* \"contracts/registry/TrustedIssuersRegistry.sol\":5076:5220  function transferOwnershipOnIssuersRegistryContract(address _newOwner) external override onlyOwner {... */\n      pop\n      jump\t// out\n        /* \"contracts/registry/TrustedIssuersRegistry.sol\":3759:4073  function isTrustedIssuer(address _issuer) external view override returns (bool) {... */\n    tag_53:\n        /* \"contracts/registry/TrustedIssuersRegistry.sol\":3833:3837  bool */\n      0x00\n        /* \"contracts/registry/TrustedIssuersRegistry.sol\":3849:3863  uint256 length */\n      dup1\n        /* \"contracts/registry/TrustedIssuersRegistry.sol\":3866:3880  trustedIssuers */\n      0x01\n        /* \"contracts/registry/TrustedIssuersRegistry.sol\":3866:3887  trustedIssuers.length */\n      dup1\n      sload\n      swap1\n      pop\n        /* \"contracts/registry/TrustedIssuersRegistry.sol\":3849:3887  uint256 length = trustedIssuers.length */\n      swap1\n      pop\n        /* \"contracts/registry/TrustedIssuersRegistry.sol\":3902:3911  uint256 i */\n      0x00\n        /* \"contracts/registry/TrustedIssuersRegistry.sol\":3897:4045  for (uint256 i = 0; i < length; i++) {... */\n    tag_142:\n        /* \"contracts/registry/TrustedIssuersRegistry.sol\":3921:3927  length */\n      dup2\n        /* \"contracts/registry/TrustedIssuersRegistry.sol\":3917:3918  i */\n      dup2\n        /* \"contracts/registry/TrustedIssuersRegistry.sol\":3917:3927  i < length */\n      lt\n        /* \"contracts/registry/TrustedIssuersRegistry.sol\":3897:4045  for (uint256 i = 0; i < length; i++) {... */\n      iszero\n      tag_143\n      jumpi\n        /* \"contracts/registry/TrustedIssuersRegistry.sol\":3982:3989  _issuer */\n      dup4\n        /* \"contracts/registry/TrustedIssuersRegistry.sol\":3952:3989  address(trustedIssuers[i]) == _issuer */\n      0xffffffffffffffffffffffffffffffffffffffff\n      and\n        /* \"contracts/registry/TrustedIssuersRegistry.sol\":3960:3974  trustedIssuers */\n      0x01\n        /* \"contracts/registry/TrustedIssuersRegistry.sol\":3975:3976  i */\n      dup3\n        /* \"contracts/registry/TrustedIssuersRegistry.sol\":3960:3977  trustedIssuers[i] */\n      dup2\n      sload\n      dup2\n      lt\n      tag_145\n      jumpi\n      tag_146\n      tag_80\n      jump\t// in\n    tag_146:\n    tag_145:\n      swap1\n      0x00\n      mstore\n      keccak256(0x00, 0x20)\n      add\n      0x00\n      swap1\n      sload\n      swap1\n      0x0100\n      exp\n      swap1\n      div\n      0xffffffffffffffffffffffffffffffffffffffff\n      and\n        /* \"contracts/registry/TrustedIssuersRegistry.sol\":3952:3989  address(trustedIssuers[i]) == _issuer */\n      0xffffffffffffffffffffffffffffffffffffffff\n      and\n      eq\n        /* \"contracts/registry/TrustedIssuersRegistry.sol\":3948:4035  if (address(trustedIssuers[i]) == _issuer) {... */\n      iszero\n      tag_148\n      jumpi\n        /* \"contracts/registry/TrustedIssuersRegistry.sol\":4016:4020  true */\n      0x01\n        /* \"contracts/registry/TrustedIssuersRegistry.sol\":4009:4020  return true */\n      swap3\n      pop\n      pop\n      pop\n      jump(tag_141)\n        /* \"contracts/registry/TrustedIssuersRegistry.sol\":3948:4035  if (address(trustedIssuers[i]) == _issuer) {... */\n    tag_148:\n        /* \"contracts/registry/TrustedIssuersRegistry.sol\":3929:3932  i++ */\n      dup1\n      dup1\n      tag_149\n      swap1\n      tag_83\n      jump\t// in\n    tag_149:\n      swap2\n      pop\n      pop\n        /* \"contracts/registry/TrustedIssuersRegistry.sol\":3897:4045  for (uint256 i = 0; i < length; i++) {... */\n      jump(tag_142)\n    tag_143:\n      pop\n        /* \"contracts/registry/TrustedIssuersRegistry.sol\":4061:4066  false */\n      0x00\n        /* \"contracts/registry/TrustedIssuersRegistry.sol\":4054:4066  return false */\n      swap2\n      pop\n      pop\n        /* \"contracts/registry/TrustedIssuersRegistry.sol\":3759:4073  function isTrustedIssuer(address _issuer) external view override returns (bool) {... */\n    tag_141:\n      swap2\n      swap1\n      pop\n      jump\t// out\n        /* \"@openzeppelin/contracts/access/Ownable.sol\":2081:2279  function transferOwnership(address newOwner) public virtual onlyOwner {... */\n    tag_57:\n        /* \"@openzeppelin/contracts/access/Ownable.sol\":1094:1107  _checkOwner() */\n      tag_151\n        /* \"@openzeppelin/contracts/access/Ownable.sol\":1094:1105  _checkOwner */\n      tag_60\n        /* \"@openzeppelin/contracts/access/Ownable.sol\":1094:1107  _checkOwner() */\n      jump\t// in\n    tag_151:\n        /* \"@openzeppelin/contracts/access/Ownable.sol\":2189:2190  0 */\n      0x00\n        /* \"@openzeppelin/contracts/access/Ownable.sol\":2169:2191  newOwner != address(0) */\n      0xffffffffffffffffffffffffffffffffffffffff\n      and\n        /* \"@openzeppelin/contracts/access/Ownable.sol\":2169:2177  newOwner */\n      dup2\n        /* \"@openzeppelin/contracts/access/Ownable.sol\":2169:2191  newOwner != address(0) */\n      0xffffffffffffffffffffffffffffffffffffffff\n      and\n      eq\n      iszero\n        /* \"@openzeppelin/contracts/access/Ownable.sol\":2161:2234  require(newOwner != address(0), \"Ownable: new owner is the zero address\") */\n      tag_153\n      jumpi\n      mload(0x40)\n      0x08c379a000000000000000000000000000000000000000000000000000000000\n      dup2\n      mstore\n      0x04\n      add\n      tag_154\n      swap1\n      tag_155\n      jump\t// in\n    tag_154:\n      mload(0x40)\n      dup1\n      swap2\n      sub\n      swap1\n      revert\n    tag_153:\n        /* \"@openzeppelin/contracts/access/Ownable.sol\":2244:2272  _transferOwnership(newOwner) */\n      tag_156\n        /* \"@openzeppelin/contracts/access/Ownable.sol\":2263:2271  newOwner */\n      dup2\n        /* \"@openzeppelin/contracts/access/Ownable.sol\":2244:2262  _transferOwnership */\n      tag_88\n        /* \"@openzeppelin/contracts/access/Ownable.sol\":2244:2272  _transferOwnership(newOwner) */\n      jump\t// in\n    tag_156:\n        /* \"@openzeppelin/contracts/access/Ownable.sol\":2081:2279  function transferOwnership(address newOwner) public virtual onlyOwner {... */\n      pop\n      jump\t// out\n        /* \"@openzeppelin/contracts/access/Ownable.sol\":1359:1489  function _checkOwner() internal view virtual {... */\n    tag_60:\n        /* \"@openzeppelin/contracts/access/Ownable.sol\":1433:1445  _msgSender() */\n      tag_158\n        /* \"@openzeppelin/contracts/access/Ownable.sol\":1433:1443  _msgSender */\n      tag_159\n        /* \"@openzeppelin/contracts/access/Ownable.sol\":1433:1445  _msgSender() */\n      jump\t// in\n    tag_158:\n        /* \"@openzeppelin/contracts/access/Ownable.sol\":1422:1445  owner() == _msgSender() */\n      0xffffffffffffffffffffffffffffffffffffffff\n      and\n        /* \"@openzeppelin/contracts/access/Ownable.sol\":1422:1429  owner() */\n      tag_160\n        /* \"@openzeppelin/contracts/access/Ownable.sol\":1422:1427  owner */\n      tag_28\n        /* \"@openzeppelin/contracts/access/Ownable.sol\":1422:1429  owner() */\n      jump\t// in\n    tag_160:\n        /* \"@openzeppelin/contracts/access/Ownable.sol\":1422:1445  owner() == _msgSender() */\n      0xffffffffffffffffffffffffffffffffffffffff\n      and\n      eq\n        /* \"@openzeppelin/contracts/access/Ownable.sol\":1414:1482  require(owner() == _msgSender(), \"Ownable: caller is not the owner\") */\n      tag_161\n      jumpi\n      mload(0x40)\n      0x08c379a000000000000000000000000000000000000000000000000000000000\n      dup2\n      mstore\n      0x04\n      add\n      tag_162\n      swap1\n      tag_163\n      jump\t// in\n    tag_162:\n      mload(0x40)\n      dup1\n      swap2\n      sub\n      swap1\n      revert\n    tag_161:\n        /* \"@openzeppelin/contracts/access/Ownable.sol\":1359:1489  function _checkOwner() internal view virtual {... */\n      jump\t// out\n        /* \"@openzeppelin/contracts/access/Ownable.sol\":2433:2620  function _transferOwnership(address newOwner) internal virtual {... */\n    tag_88:\n        /* \"@openzeppelin/contracts/access/Ownable.sol\":2506:2522  address oldOwner */\n      0x00\n        /* \"@openzeppelin/contracts/access/Ownable.sol\":2525:2531  _owner */\n      dup1\n      0x00\n      swap1\n      sload\n      swap1\n      0x0100\n      exp\n      swap1\n      div\n      0xffffffffffffffffffffffffffffffffffffffff\n      and\n        /* \"@openzeppelin/contracts/access/Ownable.sol\":2506:2531  address oldOwner = _owner */\n      swap1\n      pop\n        /* \"@openzeppelin/contracts/access/Ownable.sol\":2550:2558  newOwner */\n      dup2\n        /* \"@openzeppelin/contracts/access/Ownable.sol\":2541:2547  _owner */\n      0x00\n      dup1\n        /* \"@openzeppelin/contracts/access/Ownable.sol\":2541:2558  _owner = newOwner */\n      0x0100\n      exp\n      dup2\n      sload\n      dup2\n      0xffffffffffffffffffffffffffffffffffffffff\n      mul\n      not\n      and\n      swap1\n      dup4\n      0xffffffffffffffffffffffffffffffffffffffff\n      and\n      mul\n      or\n      swap1\n      sstore\n      pop\n        /* \"@openzeppelin/contracts/access/Ownable.sol\":2604:2612  newOwner */\n      dup2\n        /* \"@openzeppelin/contracts/access/Ownable.sol\":2573:2613  OwnershipTransferred(oldOwner, newOwner) */\n      0xffffffffffffffffffffffffffffffffffffffff\n      and\n        /* \"@openzeppelin/contracts/access/Ownable.sol\":2594:2602  oldOwner */\n      dup2\n        /* \"@openzeppelin/contracts/access/Ownable.sol\":2573:2613  OwnershipTransferred(oldOwner, newOwner) */\n      0xffffffffffffffffffffffffffffffffffffffff\n      and\n      0x8be0079c531659141344cd1fd0a4f28419497f9722a3daafe3b4186f6b6457e0\n      mload(0x40)\n      mload(0x40)\n      dup1\n      swap2\n      sub\n      swap1\n      log3\n        /* \"@openzeppelin/contracts/access/Ownable.sol\":2496:2620  {... */\n      pop\n        /* \"@openzeppelin/contracts/access/Ownable.sol\":2433:2620  function _transferOwnership(address newOwner) internal virtual {... */\n      pop\n      jump\t// out\n        /* \"@openzeppelin/contracts/utils/Context.sol\":640:736  function _msgSender() internal view virtual returns (address) {... */\n    tag_159:\n        /* \"@openzeppelin/contracts/utils/Context.sol\":693:700  address */\n      0x00\n        /* \"@openzeppelin/contracts/utils/Context.sol\":719:729  msg.sender */\n      caller\n        /* \"@openzeppelin/contracts/utils/Context.sol\":712:729  return msg.sender */\n      swap1\n      pop\n        /* \"@openzeppelin/contracts/utils/Context.sol\":640:736  function _msgSender() internal view virtual returns (address) {... */\n      swap1\n      jump\t// out\n    tag_69:\n      dup3\n      dup1\n      sload\n      dup3\n      dup3\n      sstore\n      swap1\n      0x00\n      mstore\n      keccak256(0x00, 0x20)\n      swap1\n      dup2\n      add\n      swap3\n      dup3\n      iszero\n      tag_166\n      jumpi\n      swap2\n      0x20\n      mul\n      dup3\n      add\n    tag_167:\n      dup3\n      dup2\n      gt\n      iszero\n      tag_168\n      jumpi\n      dup3\n      calldataload\n      dup3\n      sstore\n      swap2\n      0x20\n      add\n      swap2\n      swap1\n      0x01\n      add\n      swap1\n      jump(tag_167)\n    tag_168:\n    tag_166:\n      pop\n      swap1\n      pop\n      tag_169\n      swap2\n      swap1\n      tag_170\n      jump\t// in\n    tag_169:\n      pop\n      swap1\n      jump\t// out\n    tag_128:\n      pop\n      dup1\n      sload\n      0x00\n      dup3\n      sstore\n      swap1\n      0x00\n      mstore\n      keccak256(0x00, 0x20)\n      swap1\n      dup2\n      add\n      swap1\n      tag_172\n      swap2\n      swap1\n      tag_170\n      jump\t// in\n    tag_172:\n      pop\n      jump\t// out\n    tag_170:\n    tag_173:\n      dup1\n      dup3\n      gt\n      iszero\n      tag_174\n      jumpi\n      0x00\n      dup2\n      0x00\n      swap1\n      sstore\n      pop\n      0x01\n      add\n      jump(tag_173)\n    tag_174:\n      pop\n      swap1\n      jump\t// out\n        /* \"#utility.yul\":7:146   */\n    tag_176:\n        /* \"#utility.yul\":53:58   */\n      0x00\n        /* \"#utility.yul\":91:97   */\n      dup2\n        /* \"#utility.yul\":78:98   */\n      calldataload\n        /* \"#utility.yul\":69:98   */\n      swap1\n      pop\n        /* \"#utility.yul\":107:140   */\n      tag_178\n        /* \"#utility.yul\":134:139   */\n      dup2\n        /* \"#utility.yul\":107:140   */\n      tag_179\n      jump\t// in\n    tag_178:\n        /* \"#utility.yul\":7:146   */\n      swap3\n      swap2\n      pop\n      pop\n      jump\t// out\n        /* \"#utility.yul\":169:737   */\n    tag_180:\n        /* \"#utility.yul\":242:250   */\n      0x00\n        /* \"#utility.yul\":252:258   */\n      dup1\n        /* \"#utility.yul\":302:305   */\n      dup4\n        /* \"#utility.yul\":295:299   */\n      0x1f\n        /* \"#utility.yul\":287:293   */\n      dup5\n        /* \"#utility.yul\":283:300   */\n      add\n        /* \"#utility.yul\":279:306   */\n      slt\n        /* \"#utility.yul\":269:391   */\n      tag_182\n      jumpi\n        /* \"#utility.yul\":310:389   */\n      tag_183\n      tag_184\n      jump\t// in\n    tag_183:\n        /* \"#utility.yul\":269:391   */\n    tag_182:\n        /* \"#utility.yul\":423:429   */\n      dup3\n        /* \"#utility.yul\":410:430   */\n      calldataload\n        /* \"#utility.yul\":400:430   */\n      swap1\n      pop\n        /* \"#utility.yul\":453:471   */\n      0xffffffffffffffff\n        /* \"#utility.yul\":445:451   */\n      dup2\n        /* \"#utility.yul\":442:472   */\n      gt\n        /* \"#utility.yul\":439:556   */\n      iszero\n      tag_185\n      jumpi\n        /* \"#utility.yul\":475:554   */\n      tag_186\n      tag_187\n      jump\t// in\n    tag_186:\n        /* \"#utility.yul\":439:556   */\n    tag_185:\n        /* \"#utility.yul\":589:593   */\n      0x20\n        /* \"#utility.yul\":581:587   */\n      dup4\n        /* \"#utility.yul\":577:594   */\n      add\n        /* \"#utility.yul\":565:594   */\n      swap2\n      pop\n        /* \"#utility.yul\":643:646   */\n      dup4\n        /* \"#utility.yul\":635:639   */\n      0x20\n        /* \"#utility.yul\":627:633   */\n      dup3\n        /* \"#utility.yul\":623:640   */\n      mul\n        /* \"#utility.yul\":613:621   */\n      dup4\n        /* \"#utility.yul\":609:641   */\n      add\n        /* \"#utility.yul\":606:647   */\n      gt\n        /* \"#utility.yul\":603:731   */\n      iszero\n      tag_188\n      jumpi\n        /* \"#utility.yul\":650:729   */\n      tag_189\n      tag_190\n      jump\t// in\n    tag_189:\n        /* \"#utility.yul\":603:731   */\n    tag_188:\n        /* \"#utility.yul\":169:737   */\n      swap3\n      pop\n      swap3\n      swap1\n      pop\n      jump\t// out\n        /* \"#utility.yul\":743:920   */\n    tag_191:\n        /* \"#utility.yul\":808:813   */\n      0x00\n        /* \"#utility.yul\":846:852   */\n      dup2\n        /* \"#utility.yul\":833:853   */\n      calldataload\n        /* \"#utility.yul\":824:853   */\n      swap1\n      pop\n        /* \"#utility.yul\":862:914   */\n      tag_193\n        /* \"#utility.yul\":908:913   */\n      dup2\n        /* \"#utility.yul\":862:914   */\n      tag_194\n      jump\t// in\n    tag_193:\n        /* \"#utility.yul\":743:920   */\n      swap3\n      swap2\n      pop\n      pop\n      jump\t// out\n        /* \"#utility.yul\":926:1065   */\n    tag_195:\n        /* \"#utility.yul\":972:977   */\n      0x00\n        /* \"#utility.yul\":1010:1016   */\n      dup2\n        /* \"#utility.yul\":997:1017   */\n      calldataload\n        /* \"#utility.yul\":988:1017   */\n      swap1\n      pop\n        /* \"#utility.yul\":1026:1059   */\n      tag_197\n        /* \"#utility.yul\":1053:1058   */\n      dup2\n        /* \"#utility.yul\":1026:1059   */\n      tag_198\n      jump\t// in\n    tag_197:\n        /* \"#utility.yul\":926:1065   */\n      swap3\n      swap2\n      pop\n      pop\n      jump\t// out\n        /* \"#utility.yul\":1071:1400   */\n    tag_49:\n        /* \"#utility.yul\":1130:1136   */\n      0x00\n        /* \"#utility.yul\":1179:1181   */\n      0x20\n        /* \"#utility.yul\":1167:1176   */\n      dup3\n        /* \"#utility.yul\":1158:1165   */\n      dup5\n        /* \"#utility.yul\":1154:1177   */\n      sub\n        /* \"#utility.yul\":1150:1182   */\n      slt\n        /* \"#utility.yul\":1147:1266   */\n      iszero\n      tag_200\n      jumpi\n        /* \"#utility.yul\":1185:1264   */\n      tag_201\n      tag_202\n      jump\t// in\n    tag_201:\n        /* \"#utility.yul\":1147:1266   */\n    tag_200:\n        /* \"#utility.yul\":1305:1306   */\n      0x00\n        /* \"#utility.yul\":1330:1383   */\n      tag_203\n        /* \"#utility.yul\":1375:1382   */\n      dup5\n        /* \"#utility.yul\":1366:1372   */\n      dup3\n        /* \"#utility.yul\":1355:1364   */\n      dup6\n        /* \"#utility.yul\":1351:1373   */\n      add\n        /* \"#utility.yul\":1330:1383   */\n      tag_176\n      jump\t// in\n    tag_203:\n        /* \"#utility.yul\":1320:1383   */\n      swap2\n      pop\n        /* \"#utility.yul\":1276:1393   */\n      pop\n        /* \"#utility.yul\":1071:1400   */\n      swap3\n      swap2\n      pop\n      pop\n      jump\t// out\n        /* \"#utility.yul\":1406:1880   */\n    tag_21:\n        /* \"#utility.yul\":1474:1480   */\n      0x00\n        /* \"#utility.yul\":1482:1488   */\n      dup1\n        /* \"#utility.yul\":1531:1533   */\n      0x40\n        /* \"#utility.yul\":1519:1528   */\n      dup4\n        /* \"#utility.yul\":1510:1517   */\n      dup6\n        /* \"#utility.yul\":1506:1529   */\n      sub\n        /* \"#utility.yul\":1502:1534   */\n      slt\n        /* \"#utility.yul\":1499:1618   */\n      iszero\n      tag_205\n      jumpi\n        /* \"#utility.yul\":1537:1616   */\n      tag_206\n      tag_202\n      jump\t// in\n    tag_206:\n        /* \"#utility.yul\":1499:1618   */\n    tag_205:\n        /* \"#utility.yul\":1657:1658   */\n      0x00\n        /* \"#utility.yul\":1682:1735   */\n      tag_207\n        /* \"#utility.yul\":1727:1734   */\n      dup6\n        /* \"#utility.yul\":1718:1724   */\n      dup3\n        /* \"#utility.yul\":1707:1716   */\n      dup7\n        /* \"#utility.yul\":1703:1725   */\n      add\n        /* \"#utility.yul\":1682:1735   */\n      tag_176\n      jump\t// in\n    tag_207:\n        /* \"#utility.yul\":1672:1735   */\n      swap3\n      pop\n        /* \"#utility.yul\":1628:1745   */\n      pop\n        /* \"#utility.yul\":1784:1786   */\n      0x20\n        /* \"#utility.yul\":1810:1863   */\n      tag_208\n        /* \"#utility.yul\":1855:1862   */\n      dup6\n        /* \"#utility.yul\":1846:1852   */\n      dup3\n        /* \"#utility.yul\":1835:1844   */\n      dup7\n        /* \"#utility.yul\":1831:1853   */\n      add\n        /* \"#utility.yul\":1810:1863   */\n      tag_195\n      jump\t// in\n    tag_208:\n        /* \"#utility.yul\":1800:1863   */\n      swap2\n      pop\n        /* \"#utility.yul\":1755:1873   */\n      pop\n        /* \"#utility.yul\":1406:1880   */\n      swap3\n      pop\n      swap3\n      swap1\n      pop\n      jump\t// out\n        /* \"#utility.yul\":1886:2253   */\n    tag_36:\n        /* \"#utility.yul\":1964:1970   */\n      0x00\n        /* \"#utility.yul\":2013:2015   */\n      0x20\n        /* \"#utility.yul\":2001:2010   */\n      dup3\n        /* \"#utility.yul\":1992:1999   */\n      dup5\n        /* \"#utility.yul\":1988:2011   */\n      sub\n        /* \"#utility.yul\":1984:2016   */\n      slt\n        /* \"#utility.yul\":1981:2100   */\n      iszero\n      tag_210\n      jumpi\n        /* \"#utility.yul\":2019:2098   */\n      tag_211\n      tag_202\n      jump\t// in\n    tag_211:\n        /* \"#utility.yul\":1981:2100   */\n    tag_210:\n        /* \"#utility.yul\":2139:2140   */\n      0x00\n        /* \"#utility.yul\":2164:2236   */\n      tag_212\n        /* \"#utility.yul\":2228:2235   */\n      dup5\n        /* \"#utility.yul\":2219:2225   */\n      dup3\n        /* \"#utility.yul\":2208:2217   */\n      dup6\n        /* \"#utility.yul\":2204:2226   */\n      add\n        /* \"#utility.yul\":2164:2236   */\n      tag_191\n      jump\t// in\n    tag_212:\n        /* \"#utility.yul\":2154:2236   */\n      swap2\n      pop\n        /* \"#utility.yul\":2110:2246   */\n      pop\n        /* \"#utility.yul\":1886:2253   */\n      swap3\n      swap2\n      pop\n      pop\n      jump\t// out\n        /* \"#utility.yul\":2259:3001   */\n    tag_17:\n        /* \"#utility.yul\":2373:2379   */\n      0x00\n        /* \"#utility.yul\":2381:2387   */\n      dup1\n        /* \"#utility.yul\":2389:2395   */\n      0x00\n        /* \"#utility.yul\":2438:2440   */\n      0x40\n        /* \"#utility.yul\":2426:2435   */\n      dup5\n        /* \"#utility.yul\":2417:2424   */\n      dup7\n        /* \"#utility.yul\":2413:2436   */\n      sub\n        /* \"#utility.yul\":2409:2441   */\n      slt\n        /* \"#utility.yul\":2406:2525   */\n      iszero\n      tag_214\n      jumpi\n        /* \"#utility.yul\":2444:2523   */\n      tag_215\n      tag_202\n      jump\t// in\n    tag_215:\n        /* \"#utility.yul\":2406:2525   */\n    tag_214:\n        /* \"#utility.yul\":2564:2565   */\n      0x00\n        /* \"#utility.yul\":2589:2661   */\n      tag_216\n        /* \"#utility.yul\":2653:2660   */\n      dup7\n        /* \"#utility.yul\":2644:2650   */\n      dup3\n        /* \"#utility.yul\":2633:2642   */\n      dup8\n        /* \"#utility.yul\":2629:2651   */\n      add\n        /* \"#utility.yul\":2589:2661   */\n      tag_191\n      jump\t// in\n    tag_216:\n        /* \"#utility.yul\":2579:2661   */\n      swap4\n      pop\n        /* \"#utility.yul\":2535:2671   */\n      pop\n        /* \"#utility.yul\":2738:2740   */\n      0x20\n        /* \"#utility.yul\":2727:2736   */\n      dup5\n        /* \"#utility.yul\":2723:2741   */\n      add\n        /* \"#utility.yul\":2710:2742   */\n      calldataload\n        /* \"#utility.yul\":2769:2787   */\n      0xffffffffffffffff\n        /* \"#utility.yul\":2761:2767   */\n      dup2\n        /* \"#utility.yul\":2758:2788   */\n      gt\n        /* \"#utility.yul\":2755:2872   */\n      iszero\n      tag_217\n      jumpi\n        /* \"#utility.yul\":2791:2870   */\n      tag_218\n      tag_219\n      jump\t// in\n    tag_218:\n        /* \"#utility.yul\":2755:2872   */\n    tag_217:\n        /* \"#utility.yul\":2904:2984   */\n      tag_220\n        /* \"#utility.yul\":2976:2983   */\n      dup7\n        /* \"#utility.yul\":2967:2973   */\n      dup3\n        /* \"#utility.yul\":2956:2965   */\n      dup8\n        /* \"#utility.yul\":2952:2974   */\n      add\n        /* \"#utility.yul\":2904:2984   */\n      tag_180\n      jump\t// in\n    tag_220:\n        /* \"#utility.yul\":2886:2984   */\n      swap3\n      pop\n      swap3\n      pop\n        /* \"#utility.yul\":2681:2994   */\n      pop\n        /* \"#utility.yul\":2259:3001   */\n      swap3\n      pop\n      swap3\n      pop\n      swap3\n      jump\t// out\n        /* \"#utility.yul\":3007:3224   */\n    tag_221:\n        /* \"#utility.yul\":3095:3105   */\n      0x00\n        /* \"#utility.yul\":3116:3181   */\n      tag_223\n        /* \"#utility.yul\":3177:3180   */\n      dup4\n        /* \"#utility.yul\":3169:3175   */\n      dup4\n        /* \"#utility.yul\":3116:3181   */\n      tag_224\n      jump\t// in\n    tag_223:\n        /* \"#utility.yul\":3213:3217   */\n      0x20\n        /* \"#utility.yul\":3208:3211   */\n      dup4\n        /* \"#utility.yul\":3204:3218   */\n      add\n        /* \"#utility.yul\":3190:3218   */\n      swap1\n      pop\n        /* \"#utility.yul\":3007:3224   */\n      swap3\n      swap2\n      pop\n      pop\n      jump\t// out\n        /* \"#utility.yul\":3230:3409   */\n    tag_225:\n        /* \"#utility.yul\":3299:3309   */\n      0x00\n        /* \"#utility.yul\":3320:3366   */\n      tag_227\n        /* \"#utility.yul\":3362:3365   */\n      dup4\n        /* \"#utility.yul\":3354:3360   */\n      dup4\n        /* \"#utility.yul\":3320:3366   */\n      tag_228\n      jump\t// in\n    tag_227:\n        /* \"#utility.yul\":3398:3402   */\n      0x20\n        /* \"#utility.yul\":3393:3396   */\n      dup4\n        /* \"#utility.yul\":3389:3403   */\n      add\n        /* \"#utility.yul\":3375:3403   */\n      swap1\n      pop\n        /* \"#utility.yul\":3230:3409   */\n      swap3\n      swap2\n      pop\n      pop\n      jump\t// out\n        /* \"#utility.yul\":3415:3533   */\n    tag_229:\n        /* \"#utility.yul\":3502:3526   */\n      tag_231\n        /* \"#utility.yul\":3520:3525   */\n      dup2\n        /* \"#utility.yul\":3502:3526   */\n      tag_232\n      jump\t// in\n    tag_231:\n        /* \"#utility.yul\":3497:3500   */\n      dup3\n        /* \"#utility.yul\":3490:3527   */\n      mstore\n        /* \"#utility.yul\":3415:3533   */\n      pop\n      pop\n      jump\t// out\n        /* \"#utility.yul\":3583:4410   */\n    tag_233:\n        /* \"#utility.yul\":3721:3724   */\n      0x00\n        /* \"#utility.yul\":3750:3823   */\n      tag_235\n        /* \"#utility.yul\":3817:3822   */\n      dup3\n        /* \"#utility.yul\":3750:3823   */\n      tag_236\n      jump\t// in\n    tag_235:\n        /* \"#utility.yul\":3839:3925   */\n      tag_237\n        /* \"#utility.yul\":3918:3924   */\n      dup2\n        /* \"#utility.yul\":3913:3916   */\n      dup6\n        /* \"#utility.yul\":3839:3925   */\n      tag_238\n      jump\t// in\n    tag_237:\n        /* \"#utility.yul\":3832:3925   */\n      swap4\n      pop\n        /* \"#utility.yul\":3949:4024   */\n      tag_239\n        /* \"#utility.yul\":4018:4023   */\n      dup4\n        /* \"#utility.yul\":3949:4024   */\n      tag_240\n      jump\t// in\n    tag_239:\n        /* \"#utility.yul\":4047:4054   */\n      dup1\n        /* \"#utility.yul\":4078:4079   */\n      0x00\n        /* \"#utility.yul\":4063:4385   */\n    tag_241:\n        /* \"#utility.yul\":4088:4094   */\n      dup4\n        /* \"#utility.yul\":4085:4086   */\n      dup2\n        /* \"#utility.yul\":4082:4095   */\n      lt\n        /* \"#utility.yul\":4063:4385   */\n      iszero\n      tag_243\n      jumpi\n        /* \"#utility.yul\":4164:4170   */\n      dup2\n        /* \"#utility.yul\":4158:4171   */\n      mload\n        /* \"#utility.yul\":4191:4273   */\n      tag_244\n        /* \"#utility.yul\":4269:4272   */\n      dup9\n        /* \"#utility.yul\":4254:4267   */\n      dup3\n        /* \"#utility.yul\":4191:4273   */\n      tag_221\n      jump\t// in\n    tag_244:\n        /* \"#utility.yul\":4184:4273   */\n      swap8\n      pop\n        /* \"#utility.yul\":4296:4375   */\n      tag_245\n        /* \"#utility.yul\":4368:4374   */\n      dup4\n        /* \"#utility.yul\":4296:4375   */\n      tag_246\n      jump\t// in\n    tag_245:\n        /* \"#utility.yul\":4286:4375   */\n      swap3\n      pop\n        /* \"#utility.yul\":4123:4385   */\n      pop\n        /* \"#utility.yul\":4110:4111   */\n      0x01\n        /* \"#utility.yul\":4107:4108   */\n      dup2\n        /* \"#utility.yul\":4103:4112   */\n      add\n        /* \"#utility.yul\":4098:4112   */\n      swap1\n      pop\n        /* \"#utility.yul\":4063:4385   */\n      jump(tag_241)\n    tag_243:\n        /* \"#utility.yul\":4067:4081   */\n      pop\n        /* \"#utility.yul\":4401:4404   */\n      dup6\n        /* \"#utility.yul\":4394:4404   */\n      swap4\n      pop\n        /* \"#utility.yul\":3726:4410   */\n      pop\n      pop\n      pop\n        /* \"#utility.yul\":3583:4410   */\n      swap3\n      swap2\n      pop\n      pop\n      jump\t// out\n        /* \"#utility.yul\":4446:4983   */\n    tag_247:\n        /* \"#utility.yul\":4574:4577   */\n      0x00\n        /* \"#utility.yul\":4595:4681   */\n      tag_249\n        /* \"#utility.yul\":4674:4680   */\n      dup4\n        /* \"#utility.yul\":4669:4672   */\n      dup6\n        /* \"#utility.yul\":4595:4681   */\n      tag_250\n      jump\t// in\n    tag_249:\n        /* \"#utility.yul\":4588:4681   */\n      swap4\n      pop\n        /* \"#utility.yul\":4705:4771   */\n      0x07ffffffffffffffffffffffffffffffffffffffffffffffffffffffffffffff\n        /* \"#utility.yul\":4697:4703   */\n      dup4\n        /* \"#utility.yul\":4694:4772   */\n      gt\n        /* \"#utility.yul\":4691:4856   */\n      iszero\n      tag_251\n      jumpi\n        /* \"#utility.yul\":4775:4854   */\n      tag_252\n      tag_253\n      jump\t// in\n    tag_252:\n        /* \"#utility.yul\":4691:4856   */\n    tag_251:\n        /* \"#utility.yul\":4887:4891   */\n      0x20\n        /* \"#utility.yul\":4879:4885   */\n      dup4\n        /* \"#utility.yul\":4875:4892   */\n      mul\n        /* \"#utility.yul\":4865:4892   */\n      swap3\n      pop\n        /* \"#utility.yul\":4902:4945   */\n      tag_254\n        /* \"#utility.yul\":4938:4944   */\n      dup4\n        /* \"#utility.yul\":4933:4936   */\n      dup6\n        /* \"#utility.yul\":4926:4931   */\n      dup5\n        /* \"#utility.yul\":4902:4945   */\n      tag_255\n      jump\t// in\n    tag_254:\n        /* \"#utility.yul\":4970:4976   */\n      dup3\n        /* \"#utility.yul\":4965:4968   */\n      dup5\n        /* \"#utility.yul\":4961:4977   */\n      add\n        /* \"#utility.yul\":4954:4977   */\n      swap1\n      pop\n        /* \"#utility.yul\":4446:4983   */\n      swap4\n      swap3\n      pop\n      pop\n      pop\n      jump\t// out\n        /* \"#utility.yul\":5019:5751   */\n    tag_256:\n        /* \"#utility.yul\":5138:5141   */\n      0x00\n        /* \"#utility.yul\":5167:5221   */\n      tag_258\n        /* \"#utility.yul\":5215:5220   */\n      dup3\n        /* \"#utility.yul\":5167:5221   */\n      tag_259\n      jump\t// in\n    tag_258:\n        /* \"#utility.yul\":5237:5323   */\n      tag_260\n        /* \"#utility.yul\":5316:5322   */\n      dup2\n        /* \"#utility.yul\":5311:5314   */\n      dup6\n        /* \"#utility.yul\":5237:5323   */\n      tag_250\n      jump\t// in\n    tag_260:\n        /* \"#utility.yul\":5230:5323   */\n      swap4\n      pop\n        /* \"#utility.yul\":5347:5403   */\n      tag_261\n        /* \"#utility.yul\":5397:5402   */\n      dup4\n        /* \"#utility.yul\":5347:5403   */\n      tag_262\n      jump\t// in\n    tag_261:\n        /* \"#utility.yul\":5426:5433   */\n      dup1\n        /* \"#utility.yul\":5457:5458   */\n      0x00\n        /* \"#utility.yul\":5442:5726   */\n    tag_263:\n        /* \"#utility.yul\":5467:5473   */\n      dup4\n        /* \"#utility.yul\":5464:5465   */\n      dup2\n        /* \"#utility.yul\":5461:5474   */\n      lt\n        /* \"#utility.yul\":5442:5726   */\n      iszero\n      tag_265\n      jumpi\n        /* \"#utility.yul\":5543:5549   */\n      dup2\n        /* \"#utility.yul\":5537:5550   */\n      mload\n        /* \"#utility.yul\":5570:5633   */\n      tag_266\n        /* \"#utility.yul\":5629:5632   */\n      dup9\n        /* \"#utility.yul\":5614:5627   */\n      dup3\n        /* \"#utility.yul\":5570:5633   */\n      tag_225\n      jump\t// in\n    tag_266:\n        /* \"#utility.yul\":5563:5633   */\n      swap8\n      pop\n        /* \"#utility.yul\":5656:5716   */\n      tag_267\n        /* \"#utility.yul\":5709:5715   */\n      dup4\n        /* \"#utility.yul\":5656:5716   */\n      tag_268\n      jump\t// in\n    tag_267:\n        /* \"#utility.yul\":5646:5716   */\n      swap3\n      pop\n        /* \"#utility.yul\":5502:5726   */\n      pop\n        /* \"#utility.yul\":5489:5490   */\n      0x01\n        /* \"#utility.yul\":5486:5487   */\n      dup2\n        /* \"#utility.yul\":5482:5491   */\n      add\n        /* \"#utility.yul\":5477:5491   */\n      swap1\n      pop\n        /* \"#utility.yul\":5442:5726   */\n      jump(tag_263)\n    tag_265:\n        /* \"#utility.yul\":5446:5460   */\n      pop\n        /* \"#utility.yul\":5742:5745   */\n      dup6\n        /* \"#utility.yul\":5735:5745   */\n      swap4\n      pop\n        /* \"#utility.yul\":5143:5751   */\n      pop\n      pop\n      pop\n        /* \"#utility.yul\":5019:5751   */\n      swap3\n      swap2\n      pop\n      pop\n      jump\t// out\n        /* \"#utility.yul\":5757:5866   */\n    tag_269:\n        /* \"#utility.yul\":5838:5859   */\n      tag_271\n        /* \"#utility.yul\":5853:5858   */\n      dup2\n        /* \"#utility.yul\":5838:5859   */\n      tag_272\n      jump\t// in\n    tag_271:\n        /* \"#utility.yul\":5833:5836   */\n      dup3\n        /* \"#utility.yul\":5826:5860   */\n      mstore\n        /* \"#utility.yul\":5757:5866   */\n      pop\n      pop\n      jump\t// out\n        /* \"#utility.yul\":5872:6031   */\n    tag_224:\n        /* \"#utility.yul\":5968:6024   */\n      tag_274\n        /* \"#utility.yul\":6018:6023   */\n      dup2\n        /* \"#utility.yul\":5968:6024   */\n      tag_275\n      jump\t// in\n    tag_274:\n        /* \"#utility.yul\":5963:5966   */\n      dup3\n        /* \"#utility.yul\":5956:6025   */\n      mstore\n        /* \"#utility.yul\":5872:6031   */\n      pop\n      pop\n      jump\t// out\n        /* \"#utility.yul\":6037:6403   */\n    tag_276:\n        /* \"#utility.yul\":6179:6182   */\n      0x00\n        /* \"#utility.yul\":6200:6267   */\n      tag_278\n        /* \"#utility.yul\":6264:6266   */\n      0x1c\n        /* \"#utility.yul\":6259:6262   */\n      dup4\n        /* \"#utility.yul\":6200:6267   */\n      tag_279\n      jump\t// in\n    tag_278:\n        /* \"#utility.yul\":6193:6267   */\n      swap2\n      pop\n        /* \"#utility.yul\":6276:6369   */\n      tag_280\n        /* \"#utility.yul\":6365:6368   */\n      dup3\n        /* \"#utility.yul\":6276:6369   */\n      tag_281\n      jump\t// in\n    tag_280:\n        /* \"#utility.yul\":6394:6396   */\n      0x20\n        /* \"#utility.yul\":6389:6392   */\n      dup3\n        /* \"#utility.yul\":6385:6397   */\n      add\n        /* \"#utility.yul\":6378:6397   */\n      swap1\n      pop\n        /* \"#utility.yul\":6037:6403   */\n      swap2\n      swap1\n      pop\n      jump\t// out\n        /* \"#utility.yul\":6409:6775   */\n    tag_282:\n        /* \"#utility.yul\":6551:6554   */\n      0x00\n        /* \"#utility.yul\":6572:6639   */\n      tag_284\n        /* \"#utility.yul\":6636:6638   */\n      0x26\n        /* \"#utility.yul\":6631:6634   */\n      dup4\n        /* \"#utility.yul\":6572:6639   */\n      tag_279\n      jump\t// in\n    tag_284:\n        /* \"#utility.yul\":6565:6639   */\n      swap2\n      pop\n        /* \"#utility.yul\":6648:6741   */\n      tag_285\n        /* \"#utility.yul\":6737:6740   */\n      dup3\n        /* \"#utility.yul\":6648:6741   */\n      tag_286\n      jump\t// in\n    tag_285:\n        /* \"#utility.yul\":6766:6768   */\n      0x40\n        /* \"#utility.yul\":6761:6764   */\n      dup3\n        /* \"#utility.yul\":6757:6769   */\n      add\n        /* \"#utility.yul\":6750:6769   */\n      swap1\n      pop\n        /* \"#utility.yul\":6409:6775   */\n      swap2\n      swap1\n      pop\n      jump\t// out\n        /* \"#utility.yul\":6781:7147   */\n    tag_287:\n        /* \"#utility.yul\":6923:6926   */\n      0x00\n        /* \"#utility.yul\":6944:7011   */\n      tag_289\n        /* \"#utility.yul\":7008:7010   */\n      0x1d\n        /* \"#utility.yul\":7003:7006   */\n      dup4\n        /* \"#utility.yul\":6944:7011   */\n      tag_279\n      jump\t// in\n    tag_289:\n        /* \"#utility.yul\":6937:7011   */\n      swap2\n      pop\n        /* \"#utility.yul\":7020:7113   */\n      tag_290\n        /* \"#utility.yul\":7109:7112   */\n      dup3\n        /* \"#utility.yul\":7020:7113   */\n      tag_291\n      jump\t// in\n    tag_290:\n        /* \"#utility.yul\":7138:7140   */\n      0x20\n        /* \"#utility.yul\":7133:7136   */\n      dup3\n        /* \"#utility.yul\":7129:7141   */\n      add\n        /* \"#utility.yul\":7122:7141   */\n      swap1\n      pop\n        /* \"#utility.yul\":6781:7147   */\n      swap2\n      swap1\n      pop\n      jump\t// out\n        /* \"#utility.yul\":7153:7519   */\n    tag_292:\n        /* \"#utility.yul\":7295:7298   */\n      0x00\n        /* \"#utility.yul\":7316:7383   */\n      tag_294\n        /* \"#utility.yul\":7380:7382   */\n      0x20\n        /* \"#utility.yul\":7375:7378   */\n      dup4\n        /* \"#utility.yul\":7316:7383   */\n      tag_279\n      jump\t// in\n    tag_294:\n        /* \"#utility.yul\":7309:7383   */\n      swap2\n      pop\n        /* \"#utility.yul\":7392:7485   */\n      tag_295\n        /* \"#utility.yul\":7481:7484   */\n      dup3\n        /* \"#utility.yul\":7392:7485   */\n      tag_296\n      jump\t// in\n    tag_295:\n        /* \"#utility.yul\":7510:7512   */\n      0x20\n        /* \"#utility.yul\":7505:7508   */\n      dup3\n        /* \"#utility.yul\":7501:7513   */\n      add\n        /* \"#utility.yul\":7494:7513   */\n      swap1\n      pop\n        /* \"#utility.yul\":7153:7519   */\n      swap2\n      swap1\n      pop\n      jump\t// out\n        /* \"#utility.yul\":7525:7891   */\n    tag_297:\n        /* \"#utility.yul\":7667:7670   */\n      0x00\n        /* \"#utility.yul\":7688:7755   */\n      tag_299\n        /* \"#utility.yul\":7752:7754   */\n      0x24\n        /* \"#utility.yul\":7747:7750   */\n      dup4\n        /* \"#utility.yul\":7688:7755   */\n      tag_279\n      jump\t// in\n    tag_299:\n        /* \"#utility.yul\":7681:7755   */\n      swap2\n      pop\n        /* \"#utility.yul\":7764:7857   */\n      tag_300\n        /* \"#utility.yul\":7853:7856   */\n      dup3\n        /* \"#utility.yul\":7764:7857   */\n      tag_301\n      jump\t// in\n    tag_300:\n        /* \"#utility.yul\":7882:7884   */\n      0x40\n        /* \"#utility.yul\":7877:7880   */\n      dup3\n        /* \"#utility.yul\":7873:7885   */\n      add\n        /* \"#utility.yul\":7866:7885   */\n      swap1\n      pop\n        /* \"#utility.yul\":7525:7891   */\n      swap2\n      swap1\n      pop\n      jump\t// out\n        /* \"#utility.yul\":7897:8263   */\n    tag_302:\n        /* \"#utility.yul\":8039:8042   */\n      0x00\n        /* \"#utility.yul\":8060:8127   */\n      tag_304\n        /* \"#utility.yul\":8124:8126   */\n      0x1c\n        /* \"#utility.yul\":8119:8122   */\n      dup4\n        /* \"#utility.yul\":8060:8127   */\n      tag_279\n      jump\t// in\n    tag_304:\n        /* \"#utility.yul\":8053:8127   */\n      swap2\n      pop\n        /* \"#utility.yul\":8136:8229   */\n      tag_305\n        /* \"#utility.yul\":8225:8228   */\n      dup3\n        /* \"#utility.yul\":8136:8229   */\n      tag_306\n      jump\t// in\n    tag_305:\n        /* \"#utility.yul\":8254:8256   */\n      0x20\n        /* \"#utility.yul\":8249:8252   */\n      dup3\n        /* \"#utility.yul\":8245:8257   */\n      add\n        /* \"#utility.yul\":8238:8257   */\n      swap1\n      pop\n        /* \"#utility.yul\":7897:8263   */\n      swap2\n      swap1\n      pop\n      jump\t// out\n        /* \"#utility.yul\":8269:8377   */\n    tag_228:\n        /* \"#utility.yul\":8346:8370   */\n      tag_308\n        /* \"#utility.yul\":8364:8369   */\n      dup2\n        /* \"#utility.yul\":8346:8370   */\n      tag_309\n      jump\t// in\n    tag_308:\n        /* \"#utility.yul\":8341:8344   */\n      dup3\n        /* \"#utility.yul\":8334:8371   */\n      mstore\n        /* \"#utility.yul\":8269:8377   */\n      pop\n      pop\n      jump\t// out\n        /* \"#utility.yul\":8383:8605   */\n    tag_30:\n        /* \"#utility.yul\":8476:8480   */\n      0x00\n        /* \"#utility.yul\":8514:8516   */\n      0x20\n        /* \"#utility.yul\":8503:8512   */\n      dup3\n        /* \"#utility.yul\":8499:8517   */\n      add\n        /* \"#utility.yul\":8491:8517   */\n      swap1\n      pop\n        /* \"#utility.yul\":8527:8598   */\n      tag_311\n        /* \"#utility.yul\":8595:8596   */\n      0x00\n        /* \"#utility.yul\":8584:8593   */\n      dup4\n        /* \"#utility.yul\":8580:8597   */\n      add\n        /* \"#utility.yul\":8571:8577   */\n      dup5\n        /* \"#utility.yul\":8527:8598   */\n      tag_229\n      jump\t// in\n    tag_311:\n        /* \"#utility.yul\":8383:8605   */\n      swap3\n      swap2\n      pop\n      pop\n      jump\t// out\n        /* \"#utility.yul\":8611:9022   */\n    tag_46:\n        /* \"#utility.yul\":8773:8777   */\n      0x00\n        /* \"#utility.yul\":8811:8813   */\n      0x20\n        /* \"#utility.yul\":8800:8809   */\n      dup3\n        /* \"#utility.yul\":8796:8814   */\n      add\n        /* \"#utility.yul\":8788:8814   */\n      swap1\n      pop\n        /* \"#utility.yul\":8860:8869   */\n      dup2\n        /* \"#utility.yul\":8854:8858   */\n      dup2\n        /* \"#utility.yul\":8850:8870   */\n      sub\n        /* \"#utility.yul\":8846:8847   */\n      0x00\n        /* \"#utility.yul\":8835:8844   */\n      dup4\n        /* \"#utility.yul\":8831:8848   */\n      add\n        /* \"#utility.yul\":8824:8871   */\n      mstore\n        /* \"#utility.yul\":8888:9015   */\n      tag_313\n        /* \"#utility.yul\":9010:9014   */\n      dup2\n        /* \"#utility.yul\":9001:9007   */\n      dup5\n        /* \"#utility.yul\":8888:9015   */\n      tag_233\n      jump\t// in\n    tag_313:\n        /* \"#utility.yul\":8880:9015   */\n      swap1\n      pop\n        /* \"#utility.yul\":8611:9022   */\n      swap3\n      swap2\n      pop\n      pop\n      jump\t// out\n        /* \"#utility.yul\":9028:9421   */\n    tag_71:\n        /* \"#utility.yul\":9181:9185   */\n      0x00\n        /* \"#utility.yul\":9219:9221   */\n      0x20\n        /* \"#utility.yul\":9208:9217   */\n      dup3\n        /* \"#utility.yul\":9204:9222   */\n      add\n        /* \"#utility.yul\":9196:9222   */\n      swap1\n      pop\n        /* \"#utility.yul\":9268:9277   */\n      dup2\n        /* \"#utility.yul\":9262:9266   */\n      dup2\n        /* \"#utility.yul\":9258:9278   */\n      sub\n        /* \"#utility.yul\":9254:9255   */\n      0x00\n        /* \"#utility.yul\":9243:9252   */\n      dup4\n        /* \"#utility.yul\":9239:9256   */\n      add\n        /* \"#utility.yul\":9232:9279   */\n      mstore\n        /* \"#utility.yul\":9296:9414   */\n      tag_315\n        /* \"#utility.yul\":9409:9413   */\n      dup2\n        /* \"#utility.yul\":9400:9406   */\n      dup5\n        /* \"#utility.yul\":9392:9398   */\n      dup7\n        /* \"#utility.yul\":9296:9414   */\n      tag_247\n      jump\t// in\n    tag_315:\n        /* \"#utility.yul\":9288:9414   */\n      swap1\n      pop\n        /* \"#utility.yul\":9028:9421   */\n      swap4\n      swap3\n      pop\n      pop\n      pop\n      jump\t// out\n        /* \"#utility.yul\":9427:9800   */\n    tag_42:\n        /* \"#utility.yul\":9570:9574   */\n      0x00\n        /* \"#utility.yul\":9608:9610   */\n      0x20\n        /* \"#utility.yul\":9597:9606   */\n      dup3\n        /* \"#utility.yul\":9593:9611   */\n      add\n        /* \"#utility.yul\":9585:9611   */\n      swap1\n      pop\n        /* \"#utility.yul\":9657:9666   */\n      dup2\n        /* \"#utility.yul\":9651:9655   */\n      dup2\n        /* \"#utility.yul\":9647:9667   */\n      sub\n        /* \"#utility.yul\":9643:9644   */\n      0x00\n        /* \"#utility.yul\":9632:9641   */\n      dup4\n        /* \"#utility.yul\":9628:9645   */\n      add\n        /* \"#utility.yul\":9621:9668   */\n      mstore\n        /* \"#utility.yul\":9685:9793   */\n      tag_317\n        /* \"#utility.yul\":9788:9792   */\n      dup2\n        /* \"#utility.yul\":9779:9785   */\n      dup5\n        /* \"#utility.yul\":9685:9793   */\n      tag_256\n      jump\t// in\n    tag_317:\n        /* \"#utility.yul\":9677:9793   */\n      swap1\n      pop\n        /* \"#utility.yul\":9427:9800   */\n      swap3\n      swap2\n      pop\n      pop\n      jump\t// out\n        /* \"#utility.yul\":9806:10016   */\n    tag_24:\n        /* \"#utility.yul\":9893:9897   */\n      0x00\n        /* \"#utility.yul\":9931:9933   */\n      0x20\n        /* \"#utility.yul\":9920:9929   */\n      dup3\n        /* \"#utility.yul\":9916:9934   */\n      add\n        /* \"#utility.yul\":9908:9934   */\n      swap1\n      pop\n        /* \"#utility.yul\":9944:10009   */\n      tag_319\n        /* \"#utility.yul\":10006:10007   */\n      0x00\n        /* \"#utility.yul\":9995:10004   */\n      dup4\n        /* \"#utility.yul\":9991:10008   */\n      add\n        /* \"#utility.yul\":9982:9988   */\n      dup5\n        /* \"#utility.yul\":9944:10009   */\n      tag_269\n      jump\t// in\n    tag_319:\n        /* \"#utility.yul\":9806:10016   */\n      swap3\n      swap2\n      pop\n      pop\n      jump\t// out\n        /* \"#utility.yul\":10022:10441   */\n    tag_64:\n        /* \"#utility.yul\":10188:10192   */\n      0x00\n        /* \"#utility.yul\":10226:10228   */\n      0x20\n        /* \"#utility.yul\":10215:10224   */\n      dup3\n        /* \"#utility.yul\":10211:10229   */\n      add\n        /* \"#utility.yul\":10203:10229   */\n      swap1\n      pop\n        /* \"#utility.yul\":10275:10284   */\n      dup2\n        /* \"#utility.yul\":10269:10273   */\n      dup2\n        /* \"#utility.yul\":10265:10285   */\n      sub\n        /* \"#utility.yul\":10261:10262   */\n      0x00\n        /* \"#utility.yul\":10250:10259   */\n      dup4\n        /* \"#utility.yul\":10246:10263   */\n      add\n        /* \"#utility.yul\":10239:10286   */\n      mstore\n        /* \"#utility.yul\":10303:10434   */\n      tag_321\n        /* \"#utility.yul\":10429:10433   */\n      dup2\n        /* \"#utility.yul\":10303:10434   */\n      tag_276\n      jump\t// in\n    tag_321:\n        /* \"#utility.yul\":10295:10434   */\n      swap1\n      pop\n        /* \"#utility.yul\":10022:10441   */\n      swap2\n      swap1\n      pop\n      jump\t// out\n        /* \"#utility.yul\":10447:10866   */\n    tag_155:\n        /* \"#utility.yul\":10613:10617   */\n      0x00\n        /* \"#utility.yul\":10651:10653   */\n      0x20\n        /* \"#utility.yul\":10640:10649   */\n      dup3\n        /* \"#utility.yul\":10636:10654   */\n      add\n        /* \"#utility.yul\":10628:10654   */\n      swap1\n      pop\n        /* \"#utility.yul\":10700:10709   */\n      dup2\n        /* \"#utility.yul\":10694:10698   */\n      dup2\n        /* \"#utility.yul\":10690:10710   */\n      sub\n        /* \"#utility.yul\":10686:10687   */\n      0x00\n        /* \"#utility.yul\":10675:10684   */\n      dup4\n        /* \"#utility.yul\":10671:10688   */\n      add\n        /* \"#utility.yul\":10664:10711   */\n      mstore\n        /* \"#utility.yul\":10728:10859   */\n      tag_323\n        /* \"#utility.yul\":10854:10858   */\n      dup2\n        /* \"#utility.yul\":10728:10859   */\n      tag_282\n      jump\t// in\n    tag_323:\n        /* \"#utility.yul\":10720:10859   */\n      swap1\n      pop\n        /* \"#utility.yul\":10447:10866   */\n      swap2\n      swap1\n      pop\n      jump\t// out\n        /* \"#utility.yul\":10872:11291   */\n    tag_95:\n        /* \"#utility.yul\":11038:11042   */\n      0x00\n        /* \"#utility.yul\":11076:11078   */\n      0x20\n        /* \"#utility.yul\":11065:11074   */\n      dup3\n        /* \"#utility.yul\":11061:11079   */\n      add\n        /* \"#utility.yul\":11053:11079   */\n      swap1\n      pop\n        /* \"#utility.yul\":11125:11134   */\n      dup2\n        /* \"#utility.yul\":11119:11123   */\n      dup2\n        /* \"#utility.yul\":11115:11135   */\n      sub\n        /* \"#utility.yul\":11111:11112   */\n      0x00\n        /* \"#utility.yul\":11100:11109   */\n      dup4\n        /* \"#utility.yul\":11096:11113   */\n      add\n        /* \"#utility.yul\":11089:11136   */\n      mstore\n        /* \"#utility.yul\":11153:11284   */\n      tag_325\n        /* \"#utility.yul\":11279:11283   */\n      dup2\n        /* \"#utility.yul\":11153:11284   */\n      tag_287\n      jump\t// in\n    tag_325:\n        /* \"#utility.yul\":11145:11284   */\n      swap1\n      pop\n        /* \"#utility.yul\":10872:11291   */\n      swap2\n      swap1\n      pop\n      jump\t// out\n        /* \"#utility.yul\":11297:11716   */\n    tag_163:\n        /* \"#utility.yul\":11463:11467   */\n      0x00\n        /* \"#utility.yul\":11501:11503   */\n      0x20\n        /* \"#utility.yul\":11490:11499   */\n      dup3\n        /* \"#utility.yul\":11486:11504   */\n      add\n        /* \"#utility.yul\":11478:11504   */\n      swap1\n      pop\n        /* \"#utility.yul\":11550:11559   */\n      dup2\n        /* \"#utility.yul\":11544:11548   */\n      dup2\n        /* \"#utility.yul\":11540:11560   */\n      sub\n        /* \"#utility.yul\":11536:11537   */\n      0x00\n        /* \"#utility.yul\":11525:11534   */\n      dup4\n        /* \"#utility.yul\":11521:11538   */\n      add\n        /* \"#utility.yul\":11514:11561   */\n      mstore\n        /* \"#utility.yul\":11578:11709   */\n      tag_327\n        /* \"#utility.yul\":11704:11708   */\n      dup2\n        /* \"#utility.yul\":11578:11709   */\n      tag_292\n      jump\t// in\n    tag_327:\n        /* \"#utility.yul\":11570:11709   */\n      swap1\n      pop\n        /* \"#utility.yul\":11297:11716   */\n      swap2\n      swap1\n      pop\n      jump\t// out\n        /* \"#utility.yul\":11722:12141   */\n    tag_98:\n        /* \"#utility.yul\":11888:11892   */\n      0x00\n        /* \"#utility.yul\":11926:11928   */\n      0x20\n        /* \"#utility.yul\":11915:11924   */\n      dup3\n        /* \"#utility.yul\":11911:11929   */\n      add\n        /* \"#utility.yul\":11903:11929   */\n      swap1\n      pop\n        /* \"#utility.yul\":11975:11984   */\n      dup2\n        /* \"#utility.yul\":11969:11973   */\n      dup2\n        /* \"#utility.yul\":11965:11985   */\n      sub\n        /* \"#utility.yul\":11961:11962   */\n      0x00\n        /* \"#utility.yul\":11950:11959   */\n      dup4\n        /* \"#utility.yul\":11946:11963   */\n      add\n        /* \"#utility.yul\":11939:11986   */\n      mstore\n        /* \"#utility.yul\":12003:12134   */\n      tag_329\n        /* \"#utility.yul\":12129:12133   */\n      dup2\n        /* \"#utility.yul\":12003:12134   */\n      tag_297\n      jump\t// in\n    tag_329:\n        /* \"#utility.yul\":11995:12134   */\n      swap1\n      pop\n        /* \"#utility.yul\":11722:12141   */\n      swap2\n      swap1\n      pop\n      jump\t// out\n        /* \"#utility.yul\":12147:12566   */\n    tag_67:\n        /* \"#utility.yul\":12313:12317   */\n      0x00\n        /* \"#utility.yul\":12351:12353   */\n      0x20\n        /* \"#utility.yul\":12340:12349   */\n      dup3\n        /* \"#utility.yul\":12336:12354   */\n      add\n        /* \"#utility.yul\":12328:12354   */\n      swap1\n      pop\n        /* \"#utility.yul\":12400:12409   */\n      dup2\n        /* \"#utility.yul\":12394:12398   */\n      dup2\n        /* \"#utility.yul\":12390:12410   */\n      sub\n        /* \"#utility.yul\":12386:12387   */\n      0x00\n        /* \"#utility.yul\":12375:12384   */\n      dup4\n        /* \"#utility.yul\":12371:12388   */\n      add\n        /* \"#utility.yul\":12364:12411   */\n      mstore\n        /* \"#utility.yul\":12428:12559   */\n      tag_331\n        /* \"#utility.yul\":12554:12558   */\n      dup2\n        /* \"#utility.yul\":12428:12559   */\n      tag_302\n      jump\t// in\n    tag_331:\n        /* \"#utility.yul\":12420:12559   */\n      swap1\n      pop\n        /* \"#utility.yul\":12147:12566   */\n      swap2\n      swap1\n      pop\n      jump\t// out\n        /* \"#utility.yul\":12653:12804   */\n    tag_240:\n        /* \"#utility.yul\":12739:12743   */\n      0x00\n        /* \"#utility.yul\":12762:12765   */\n      dup2\n        /* \"#utility.yul\":12754:12765   */\n      swap1\n      pop\n        /* \"#utility.yul\":12792:12796   */\n      0x20\n        /* \"#utility.yul\":12787:12790   */\n      dup3\n        /* \"#utility.yul\":12783:12797   */\n      add\n        /* \"#utility.yul\":12775:12797   */\n      swap1\n      pop\n        /* \"#utility.yul\":12653:12804   */\n      swap2\n      swap1\n      pop\n      jump\t// out\n        /* \"#utility.yul\":12810:12942   */\n    tag_262:\n        /* \"#utility.yul\":12877:12881   */\n      0x00\n        /* \"#utility.yul\":12900:12903   */\n      dup2\n        /* \"#utility.yul\":12892:12903   */\n      swap1\n      pop\n        /* \"#utility.yul\":12930:12934   */\n      0x20\n        /* \"#utility.yul\":12925:12928   */\n      dup3\n        /* \"#utility.yul\":12921:12935   */\n      add\n        /* \"#utility.yul\":12913:12935   */\n      swap1\n      pop\n        /* \"#utility.yul\":12810:12942   */\n      swap2\n      swap1\n      pop\n      jump\t// out\n        /* \"#utility.yul\":12948:13081   */\n    tag_236:\n        /* \"#utility.yul\":13034:13040   */\n      0x00\n        /* \"#utility.yul\":13068:13073   */\n      dup2\n        /* \"#utility.yul\":13062:13074   */\n      mload\n        /* \"#utility.yul\":13052:13074   */\n      swap1\n      pop\n        /* \"#utility.yul\":12948:13081   */\n      swap2\n      swap1\n      pop\n      jump\t// out\n        /* \"#utility.yul\":13087:13201   */\n    tag_259:\n        /* \"#utility.yul\":13154:13160   */\n      0x00\n        /* \"#utility.yul\":13188:13193   */\n      dup2\n        /* \"#utility.yul\":13182:13194   */\n      mload\n        /* \"#utility.yul\":13172:13194   */\n      swap1\n      pop\n        /* \"#utility.yul\":13087:13201   */\n      swap2\n      swap1\n      pop\n      jump\t// out\n        /* \"#utility.yul\":13207:13339   */\n    tag_246:\n        /* \"#utility.yul\":13296:13300   */\n      0x00\n        /* \"#utility.yul\":13328:13332   */\n      0x20\n        /* \"#utility.yul\":13323:13326   */\n      dup3\n        /* \"#utility.yul\":13319:13333   */\n      add\n        /* \"#utility.yul\":13311:13333   */\n      swap1\n      pop\n        /* \"#utility.yul\":13207:13339   */\n      swap2\n      swap1\n      pop\n      jump\t// out\n        /* \"#utility.yul\":13345:13458   */\n    tag_268:\n        /* \"#utility.yul\":13415:13419   */\n      0x00\n        /* \"#utility.yul\":13447:13451   */\n      0x20\n        /* \"#utility.yul\":13442:13445   */\n      dup3\n        /* \"#utility.yul\":13438:13452   */\n      add\n        /* \"#utility.yul\":13430:13452   */\n      swap1\n      pop\n        /* \"#utility.yul\":13345:13458   */\n      swap2\n      swap1\n      pop\n      jump\t// out\n        /* \"#utility.yul\":13464:13648   */\n    tag_238:\n        /* \"#utility.yul\":13563:13574   */\n      0x00\n        /* \"#utility.yul\":13597:13603   */\n      dup3\n        /* \"#utility.yul\":13592:13595   */\n      dup3\n        /* \"#utility.yul\":13585:13604   */\n      mstore\n        /* \"#utility.yul\":13637:13641   */\n      0x20\n        /* \"#utility.yul\":13632:13635   */\n      dup3\n        /* \"#utility.yul\":13628:13642   */\n      add\n        /* \"#utility.yul\":13613:13642   */\n      swap1\n      pop\n        /* \"#utility.yul\":13464:13648   */\n      swap3\n      swap2\n      pop\n      pop\n      jump\t// out\n        /* \"#utility.yul\":13654:13838   */\n    tag_250:\n        /* \"#utility.yul\":13753:13764   */\n      0x00\n        /* \"#utility.yul\":13787:13793   */\n      dup3\n        /* \"#utility.yul\":13782:13785   */\n      dup3\n        /* \"#utility.yul\":13775:13794   */\n      mstore\n        /* \"#utility.yul\":13827:13831   */\n      0x20\n        /* \"#utility.yul\":13822:13825   */\n      dup3\n        /* \"#utility.yul\":13818:13832   */\n      add\n        /* \"#utility.yul\":13803:13832   */\n      swap1\n      pop\n        /* \"#utility.yul\":13654:13838   */\n      swap3\n      swap2\n      pop\n      pop\n      jump\t// out\n        /* \"#utility.yul\":13844:14013   */\n    tag_279:\n        /* \"#utility.yul\":13928:13939   */\n      0x00\n        /* \"#utility.yul\":13962:13968   */\n      dup3\n        /* \"#utility.yul\":13957:13960   */\n      dup3\n        /* \"#utility.yul\":13950:13969   */\n      mstore\n        /* \"#utility.yul\":14002:14006   */\n      0x20\n        /* \"#utility.yul\":13997:14000   */\n      dup3\n        /* \"#utility.yul\":13993:14007   */\n      add\n        /* \"#utility.yul\":13978:14007   */\n      swap1\n      pop\n        /* \"#utility.yul\":13844:14013   */\n      swap3\n      swap2\n      pop\n      pop\n      jump\t// out\n        /* \"#utility.yul\":14019:14210   */\n    tag_115:\n        /* \"#utility.yul\":14059:14063   */\n      0x00\n        /* \"#utility.yul\":14079:14099   */\n      tag_344\n        /* \"#utility.yul\":14097:14098   */\n      dup3\n        /* \"#utility.yul\":14079:14099   */\n      tag_309\n      jump\t// in\n    tag_344:\n        /* \"#utility.yul\":14074:14099   */\n      swap2\n      pop\n        /* \"#utility.yul\":14113:14133   */\n      tag_345\n        /* \"#utility.yul\":14131:14132   */\n      dup4\n        /* \"#utility.yul\":14113:14133   */\n      tag_309\n      jump\t// in\n    tag_345:\n        /* \"#utility.yul\":14108:14133   */\n      swap3\n      pop\n        /* \"#utility.yul\":14152:14153   */\n      dup3\n        /* \"#utility.yul\":14149:14150   */\n      dup3\n        /* \"#utility.yul\":14146:14154   */\n      lt\n        /* \"#utility.yul\":14143:14177   */\n      iszero\n      tag_346\n      jumpi\n        /* \"#utility.yul\":14157:14175   */\n      tag_347\n      tag_348\n      jump\t// in\n    tag_347:\n        /* \"#utility.yul\":14143:14177   */\n    tag_346:\n        /* \"#utility.yul\":14202:14203   */\n      dup3\n        /* \"#utility.yul\":14199:14200   */\n      dup3\n        /* \"#utility.yul\":14195:14204   */\n      sub\n        /* \"#utility.yul\":14187:14204   */\n      swap1\n      pop\n        /* \"#utility.yul\":14019:14210   */\n      swap3\n      swap2\n      pop\n      pop\n      jump\t// out\n        /* \"#utility.yul\":14216:14312   */\n    tag_232:\n        /* \"#utility.yul\":14253:14260   */\n      0x00\n        /* \"#utility.yul\":14282:14306   */\n      tag_350\n        /* \"#utility.yul\":14300:14305   */\n      dup3\n        /* \"#utility.yul\":14282:14306   */\n      tag_351\n      jump\t// in\n    tag_350:\n        /* \"#utility.yul\":14271:14306   */\n      swap1\n      pop\n        /* \"#utility.yul\":14216:14312   */\n      swap2\n      swap1\n      pop\n      jump\t// out\n        /* \"#utility.yul\":14318:14408   */\n    tag_272:\n        /* \"#utility.yul\":14352:14359   */\n      0x00\n        /* \"#utility.yul\":14395:14400   */\n      dup2\n        /* \"#utility.yul\":14388:14401   */\n      iszero\n        /* \"#utility.yul\":14381:14402   */\n      iszero\n        /* \"#utility.yul\":14370:14402   */\n      swap1\n      pop\n        /* \"#utility.yul\":14318:14408   */\n      swap2\n      swap1\n      pop\n      jump\t// out\n        /* \"#utility.yul\":14414:14529   */\n    tag_353:\n        /* \"#utility.yul\":14470:14477   */\n      0x00\n        /* \"#utility.yul\":14499:14523   */\n      tag_355\n        /* \"#utility.yul\":14517:14522   */\n      dup3\n        /* \"#utility.yul\":14499:14523   */\n      tag_232\n      jump\t// in\n    tag_355:\n        /* \"#utility.yul\":14488:14523   */\n      swap1\n      pop\n        /* \"#utility.yul\":14414:14529   */\n      swap2\n      swap1\n      pop\n      jump\t// out\n        /* \"#utility.yul\":14535:14661   */\n    tag_351:\n        /* \"#utility.yul\":14572:14579   */\n      0x00\n        /* \"#utility.yul\":14612:14654   */\n      0xffffffffffffffffffffffffffffffffffffffff\n        /* \"#utility.yul\":14605:14610   */\n      dup3\n        /* \"#utility.yul\":14601:14655   */\n      and\n        /* \"#utility.yul\":14590:14655   */\n      swap1\n      pop\n        /* \"#utility.yul\":14535:14661   */\n      swap2\n      swap1\n      pop\n      jump\t// out\n        /* \"#utility.yul\":14667:14744   */\n    tag_309:\n        /* \"#utility.yul\":14704:14711   */\n      0x00\n        /* \"#utility.yul\":14733:14738   */\n      dup2\n        /* \"#utility.yul\":14722:14738   */\n      swap1\n      pop\n        /* \"#utility.yul\":14667:14744   */\n      swap2\n      swap1\n      pop\n      jump\t// out\n        /* \"#utility.yul\":14750:14895   */\n    tag_275:\n        /* \"#utility.yul\":14819:14828   */\n      0x00\n        /* \"#utility.yul\":14852:14889   */\n      tag_359\n        /* \"#utility.yul\":14883:14888   */\n      dup3\n        /* \"#utility.yul\":14852:14889   */\n      tag_360\n      jump\t// in\n    tag_359:\n        /* \"#utility.yul\":14839:14889   */\n      swap1\n      pop\n        /* \"#utility.yul\":14750:14895   */\n      swap2\n      swap1\n      pop\n      jump\t// out\n        /* \"#utility.yul\":14901:15027   */\n    tag_360:\n        /* \"#utility.yul\":14951:14960   */\n      0x00\n        /* \"#utility.yul\":14984:15021   */\n      tag_362\n        /* \"#utility.yul\":15015:15020   */\n      dup3\n        /* \"#utility.yul\":14984:15021   */\n      tag_363\n      jump\t// in\n    tag_362:\n        /* \"#utility.yul\":14971:15021   */\n      swap1\n      pop\n        /* \"#utility.yul\":14901:15027   */\n      swap2\n      swap1\n      pop\n      jump\t// out\n        /* \"#utility.yul\":15033:15146   */\n    tag_363:\n        /* \"#utility.yul\":15083:15092   */\n      0x00\n        /* \"#utility.yul\":15116:15140   */\n      tag_365\n        /* \"#utility.yul\":15134:15139   */\n      dup3\n        /* \"#utility.yul\":15116:15140   */\n      tag_351\n      jump\t// in\n    tag_365:\n        /* \"#utility.yul\":15103:15140   */\n      swap1\n      pop\n        /* \"#utility.yul\":15033:15146   */\n      swap2\n      swap1\n      pop\n      jump\t// out\n        /* \"#utility.yul\":15152:15306   */\n    tag_255:\n        /* \"#utility.yul\":15236:15242   */\n      dup3\n        /* \"#utility.yul\":15231:15234   */\n      dup2\n        /* \"#utility.yul\":15226:15229   */\n      dup4\n        /* \"#utility.yul\":15213:15243   */\n      calldatacopy\n        /* \"#utility.yul\":15298:15299   */\n      0x00\n        /* \"#utility.yul\":15289:15295   */\n      dup4\n        /* \"#utility.yul\":15284:15287   */\n      dup4\n        /* \"#utility.yul\":15280:15296   */\n      add\n        /* \"#utility.yul\":15273:15300   */\n      mstore\n        /* \"#utility.yul\":15152:15306   */\n      pop\n      pop\n      pop\n      jump\t// out\n        /* \"#utility.yul\":15312:15545   */\n    tag_83:\n        /* \"#utility.yul\":15351:15354   */\n      0x00\n        /* \"#utility.yul\":15374:15398   */\n      tag_368\n        /* \"#utility.yul\":15392:15397   */\n      dup3\n        /* \"#utility.yul\":15374:15398   */\n      tag_309\n      jump\t// in\n    tag_368:\n        /* \"#utility.yul\":15365:15398   */\n      swap2\n      pop\n        /* \"#utility.yul\":15420:15486   */\n      0xffffffffffffffffffffffffffffffffffffffffffffffffffffffffffffffff\n        /* \"#utility.yul\":15413:15418   */\n      dup3\n        /* \"#utility.yul\":15410:15487   */\n      eq\n        /* \"#utility.yul\":15407:15510   */\n      iszero\n      tag_369\n      jumpi\n        /* \"#utility.yul\":15490:15508   */\n      tag_370\n      tag_348\n      jump\t// in\n    tag_370:\n        /* \"#utility.yul\":15407:15510   */\n    tag_369:\n        /* \"#utility.yul\":15537:15538   */\n      0x01\n        /* \"#utility.yul\":15530:15535   */\n      dup3\n        /* \"#utility.yul\":15526:15539   */\n      add\n        /* \"#utility.yul\":15519:15539   */\n      swap1\n      pop\n        /* \"#utility.yul\":15312:15545   */\n      swap2\n      swap1\n      pop\n      jump\t// out\n        /* \"#utility.yul\":15551:15731   */\n    tag_348:\n        /* \"#utility.yul\":15599:15676   */\n      0x4e487b7100000000000000000000000000000000000000000000000000000000\n        /* \"#utility.yul\":15596:15597   */\n      0x00\n        /* \"#utility.yul\":15589:15677   */\n      mstore\n        /* \"#utility.yul\":15696:15700   */\n      0x11\n        /* \"#utility.yul\":15693:15694   */\n      0x04\n        /* \"#utility.yul\":15686:15701   */\n      mstore\n        /* \"#utility.yul\":15720:15724   */\n      0x24\n        /* \"#utility.yul\":15717:15718   */\n      0x00\n        /* \"#utility.yul\":15710:15725   */\n      revert\n        /* \"#utility.yul\":15737:15917   */\n    tag_124:\n        /* \"#utility.yul\":15785:15862   */\n      0x4e487b7100000000000000000000000000000000000000000000000000000000\n        /* \"#utility.yul\":15782:15783   */\n      0x00\n        /* \"#utility.yul\":15775:15863   */\n      mstore\n        /* \"#utility.yul\":15882:15886   */\n      0x31\n        /* \"#utility.yul\":15879:15880   */\n      0x04\n        /* \"#utility.yul\":15872:15887   */\n      mstore\n        /* \"#utility.yul\":15906:15910   */\n      0x24\n        /* \"#utility.yul\":15903:15904   */\n      0x00\n        /* \"#utility.yul\":15896:15911   */\n      revert\n        /* \"#utility.yul\":15923:16103   */\n    tag_80:\n        /* \"#utility.yul\":15971:16048   */\n      0x4e487b7100000000000000000000000000000000000000000000000000000000\n        /* \"#utility.yul\":15968:15969   */\n      0x00\n        /* \"#utility.yul\":15961:16049   */\n      mstore\n        /* \"#utility.yul\":16068:16072   */\n      0x32\n        /* \"#utility.yul\":16065:16066   */\n      0x04\n        /* \"#utility.yul\":16058:16073   */\n      mstore\n        /* \"#utility.yul\":16092:16096   */\n      0x24\n        /* \"#utility.yul\":16089:16090   */\n      0x00\n        /* \"#utility.yul\":16082:16097   */\n      revert\n        /* \"#utility.yul\":16109:16226   */\n    tag_187:\n        /* \"#utility.yul\":16218:16219   */\n      0x00\n        /* \"#utility.yul\":16215:16216   */\n      dup1\n        /* \"#utility.yul\":16208:16220   */\n      revert\n        /* \"#utility.yul\":16232:16349   */\n    tag_184:\n        /* \"#utility.yul\":16341:16342   */\n      0x00\n        /* \"#utility.yul\":16338:16339   */\n      dup1\n        /* \"#utility.yul\":16331:16343   */\n      revert\n        /* \"#utility.yul\":16355:16472   */\n    tag_190:\n        /* \"#utility.yul\":16464:16465   */\n      0x00\n        /* \"#utility.yul\":16461:16462   */\n      dup1\n        /* \"#utility.yul\":16454:16466   */\n      revert\n        /* \"#utility.yul\":16478:16595   */\n    tag_219:\n        /* \"#utility.yul\":16587:16588   */\n      0x00\n        /* \"#utility.yul\":16584:16585   */\n      dup1\n        /* \"#utility.yul\":16577:16589   */\n      revert\n        /* \"#utility.yul\":16601:16718   */\n    tag_253:\n        /* \"#utility.yul\":16710:16711   */\n      0x00\n        /* \"#utility.yul\":16707:16708   */\n      dup1\n        /* \"#utility.yul\":16700:16712   */\n      revert\n        /* \"#utility.yul\":16724:16841   */\n    tag_202:\n        /* \"#utility.yul\":16833:16834   */\n      0x00\n        /* \"#utility.yul\":16830:16831   */\n      dup1\n        /* \"#utility.yul\":16823:16835   */\n      revert\n        /* \"#utility.yul\":16847:17025   */\n    tag_281:\n        /* \"#utility.yul\":16987:17017   */\n      0x747275737465642049737375657220646f65736e277420657869737400000000\n        /* \"#utility.yul\":16983:16984   */\n      0x00\n        /* \"#utility.yul\":16975:16981   */\n      dup3\n        /* \"#utility.yul\":16971:16985   */\n      add\n        /* \"#utility.yul\":16964:17018   */\n      mstore\n        /* \"#utility.yul\":16847:17025   */\n      pop\n      jump\t// out\n        /* \"#utility.yul\":17031:17256   */\n    tag_286:\n        /* \"#utility.yul\":17171:17205   */\n      0x4f776e61626c653a206e6577206f776e657220697320746865207a65726f2061\n        /* \"#utility.yul\":17167:17168   */\n      0x00\n        /* \"#utility.yul\":17159:17165   */\n      dup3\n        /* \"#utility.yul\":17155:17169   */\n      add\n        /* \"#utility.yul\":17148:17206   */\n      mstore\n        /* \"#utility.yul\":17240:17248   */\n      0x6464726573730000000000000000000000000000000000000000000000000000\n        /* \"#utility.yul\":17235:17237   */\n      0x20\n        /* \"#utility.yul\":17227:17233   */\n      dup3\n        /* \"#utility.yul\":17223:17238   */\n      add\n        /* \"#utility.yul\":17216:17249   */\n      mstore\n        /* \"#utility.yul\":17031:17256   */\n      pop\n      jump\t// out\n        /* \"#utility.yul\":17262:17441   */\n    tag_291:\n        /* \"#utility.yul\":17402:17433   */\n      0x747275737465642049737375657220616c726561647920657869737473000000\n        /* \"#utility.yul\":17398:17399   */\n      0x00\n        /* \"#utility.yul\":17390:17396   */\n      dup3\n        /* \"#utility.yul\":17386:17400   */\n      add\n        /* \"#utility.yul\":17379:17434   */\n      mstore\n        /* \"#utility.yul\":17262:17441   */\n      pop\n      jump\t// out\n        /* \"#utility.yul\":17447:17629   */\n    tag_296:\n        /* \"#utility.yul\":17587:17621   */\n      0x4f776e61626c653a2063616c6c6572206973206e6f7420746865206f776e6572\n        /* \"#utility.yul\":17583:17584   */\n      0x00\n        /* \"#utility.yul\":17575:17581   */\n      dup3\n        /* \"#utility.yul\":17571:17585   */\n      add\n        /* \"#utility.yul\":17564:17622   */\n      mstore\n        /* \"#utility.yul\":17447:17629   */\n      pop\n      jump\t// out\n        /* \"#utility.yul\":17635:17858   */\n    tag_301:\n        /* \"#utility.yul\":17775:17809   */\n      0x7472757374656420636c61696d20746f706963732063616e6e6f742062652065\n        /* \"#utility.yul\":17771:17772   */\n      0x00\n        /* \"#utility.yul\":17763:17769   */\n      dup3\n        /* \"#utility.yul\":17759:17773   */\n      add\n        /* \"#utility.yul\":17752:17810   */\n      mstore\n        /* \"#utility.yul\":17844:17850   */\n      0x6d70747900000000000000000000000000000000000000000000000000000000\n        /* \"#utility.yul\":17839:17841   */\n      0x20\n        /* \"#utility.yul\":17831:17837   */\n      dup3\n        /* \"#utility.yul\":17827:17842   */\n      add\n        /* \"#utility.yul\":17820:17851   */\n      mstore\n        /* \"#utility.yul\":17635:17858   */\n      pop\n      jump\t// out\n        /* \"#utility.yul\":17864:18042   */\n    tag_306:\n        /* \"#utility.yul\":18004:18034   */\n      0x636c61696d20746f706963732063616e6e6f7420626520656d70747900000000\n        /* \"#utility.yul\":18000:18001   */\n      0x00\n        /* \"#utility.yul\":17992:17998   */\n      dup3\n        /* \"#utility.yul\":17988:18002   */\n      add\n        /* \"#utility.yul\":17981:18035   */\n      mstore\n        /* \"#utility.yul\":17864:18042   */\n      pop\n      jump\t// out\n        /* \"#utility.yul\":18048:18170   */\n    tag_179:\n        /* \"#utility.yul\":18121:18145   */\n      tag_387\n        /* \"#utility.yul\":18139:18144   */\n      dup2\n        /* \"#utility.yul\":18121:18145   */\n      tag_232\n      jump\t// in\n    tag_387:\n        /* \"#utility.yul\":18114:18119   */\n      dup2\n        /* \"#utility.yul\":18111:18146   */\n      eq\n        /* \"#utility.yul\":18101:18164   */\n      tag_388\n      jumpi\n        /* \"#utility.yul\":18160:18161   */\n      0x00\n        /* \"#utility.yul\":18157:18158   */\n      dup1\n        /* \"#utility.yul\":18150:18162   */\n      revert\n        /* \"#utility.yul\":18101:18164   */\n    tag_388:\n        /* \"#utility.yul\":18048:18170   */\n      pop\n      jump\t// out\n        /* \"#utility.yul\":18176:18336   */\n    tag_194:\n        /* \"#utility.yul\":18268:18311   */\n      tag_390\n        /* \"#utility.yul\":18305:18310   */\n      dup2\n        /* \"#utility.yul\":18268:18311   */\n      tag_353\n      jump\t// in\n    tag_390:\n        /* \"#utility.yul\":18261:18266   */\n      dup2\n        /* \"#utility.yul\":18258:18312   */\n      eq\n        /* \"#utility.yul\":18248:18330   */\n      tag_391\n      jumpi\n        /* \"#utility.yul\":18326:18327   */\n      0x00\n        /* \"#utility.yul\":18323:18324   */\n      dup1\n        /* \"#utility.yul\":18316:18328   */\n      revert\n        /* \"#utility.yul\":18248:18330   */\n    tag_391:\n        /* \"#utility.yul\":18176:18336   */\n      pop\n      jump\t// out\n        /* \"#utility.yul\":18342:18464   */\n    tag_198:\n        /* \"#utility.yul\":18415:18439   */\n      tag_393\n        /* \"#utility.yul\":18433:18438   */\n      dup2\n        /* \"#utility.yul\":18415:18439   */\n      tag_309\n      jump\t// in\n    tag_393:\n        /* \"#utility.yul\":18408:18413   */\n      dup2\n        /* \"#utility.yul\":18405:18440   */\n      eq\n        /* \"#utility.yul\":18395:18458   */\n      tag_394\n      jumpi\n        /* \"#utility.yul\":18454:18455   */\n      0x00\n        /* \"#utility.yul\":18451:18452   */\n      dup1\n        /* \"#utility.yul\":18444:18456   */\n      revert\n        /* \"#utility.yul\":18395:18458   */\n    tag_394:\n        /* \"#utility.yul\":18342:18464   */\n      pop\n      jump\t// out\n\n    auxdata: 0xa26469706673582212204b5bbe6d5638490c9a48b0bef04d04af8bf8826ecf2143a93655c4abc2ec1da364736f6c63430008070033\n}\n",
				"bytecode": {
					"linkReferences": {},
					"object": "608060405234801561001057600080fd5b5061002d61002261003260201b60201c565b61003a60201b60201c565b6100fe565b600033905090565b60008060009054906101000a900473ffffffffffffffffffffffffffffffffffffffff169050816000806101000a81548173ffffffffffffffffffffffffffffffffffffffff021916908373ffffffffffffffffffffffffffffffffffffffff1602179055508173ffffffffffffffffffffffffffffffffffffffff168173ffffffffffffffffffffffffffffffffffffffff167f8be0079c531659141344cd1fd0a4f28419497f9722a3daafe3b4186f6b6457e060405160405180910390a35050565b6117948061010d6000396000f3fe608060405234801561001057600080fd5b50600436106100a95760003560e01c8063b93d28eb11610071578063b93d28eb1461013e578063c28fb2781461015a578063d9dd24c51461018a578063e36dce28146101a8578063ef2ed1a4146101c4578063f2fde38b146101f4576100a9565b806304bc7e84146100ae57806334a89987146100ca578063715018a6146100fa5780638da5cb5b146101045780639f63ea9814610122575b600080fd5b6100c860048036038101906100c39190610f79565b610210565b005b6100e460048036038101906100df9190610f0c565b610388565b6040516100f191906112b2565b60405180910390f35b6101026104bc565b005b61010c6104d0565b604051610119919061122f565b60405180910390f35b61013c60048036038101906101379190610f79565b6104f9565b005b61015860048036038101906101539190610f4c565b6106d3565b005b610174600480360381019061016f9190610f4c565b610980565b6040516101819190611290565b60405180910390f35b610192610a9d565b60405161019f919061124a565b60405180910390f35b6101c260048036038101906101bd9190610edf565b610b2b565b005b6101de60048036038101906101d99190610edf565b610b3f565b6040516101eb91906112b2565b60405180910390f35b61020e60048036038101906102099190610edf565b610bf1565b005b610218610c75565b6000600260008573ffffffffffffffffffffffffffffffffffffffff1673ffffffffffffffffffffffffffffffffffffffff16815260200190815260200160002080549050141561029e576040517f08c379a0000000000000000000000000000000000000000000000000000000008152600401610295906112cd565b60405180910390fd5b600082829050116102e4576040517f08c379a00000000000000000000000000000000000000000000000000000000081526004016102db9061136d565b60405180910390fd5b8181600260008673ffffffffffffffffffffffffffffffffffffffff1673ffffffffffffffffffffffffffffffffffffffff1681526020019081526020016000209190610332929190610dbf565b508273ffffffffffffffffffffffffffffffffffffffff167fec753cfc52044f61676f18a11e500093a9f2b1cd5e4942bc476f2b0438159bcf838360405161037b92919061126c565b60405180910390a2505050565b600080600260008573ffffffffffffffffffffffffffffffffffffffff1673ffffffffffffffffffffffffffffffffffffffff1681526020019081526020016000208054905090506000600260008673ffffffffffffffffffffffffffffffffffffffff1673ffffffffffffffffffffffffffffffffffffffff16815260200190815260200160002080548060200260200160405190810160405280929190818152602001828054801561045b57602002820191906000526020600020905b815481526020019060010190808311610447575b5050505050905060005b828110156104ae57848282815181106104815761048061158a565b5b6020026020010151141561049b57600193505050506104b6565b80806104a6906114e3565b915050610465565b506000925050505b92915050565b6104c4610c75565b6104ce6000610cf3565b565b60008060009054906101000a900473ffffffffffffffffffffffffffffffffffffffff16905090565b610501610c75565b6000600260008573ffffffffffffffffffffffffffffffffffffffff1673ffffffffffffffffffffffffffffffffffffffff1681526020019081526020016000208054905014610586576040517f08c379a000000000000000000000000000000000000000000000000000000000815260040161057d9061130d565b60405180910390fd5b600082829050116105cc576040517f08c379a00000000000000000000000000000000000000000000000000000000081526004016105c39061134d565b60405180910390fd5b6001839080600181540180825580915050600190039060005260206000200160009091909190916101000a81548173ffffffffffffffffffffffffffffffffffffffff021916908373ffffffffffffffffffffffffffffffffffffffff1602179055508181600260008673ffffffffffffffffffffffffffffffffffffffff1673ffffffffffffffffffffffffffffffffffffffff168152602001908152602001600020919061067d929190610dbf565b508273ffffffffffffffffffffffffffffffffffffffff167ffedc33fd34859594822c0ff6f3f4f9fc279cc6d5cae53068f706a088e450087283836040516106c692919061126c565b60405180910390a2505050565b6106db610c75565b6000600260008373ffffffffffffffffffffffffffffffffffffffff1673ffffffffffffffffffffffffffffffffffffffff168152602001908152602001600020805490501415610761576040517f08c379a0000000000000000000000000000000000000000000000000000000008152600401610758906112cd565b60405180910390fd5b6000600180549050905060005b818110156108ed578273ffffffffffffffffffffffffffffffffffffffff16600182815481106107a1576107a061158a565b5b9060005260206000200160009054906101000a900473ffffffffffffffffffffffffffffffffffffffff1673ffffffffffffffffffffffffffffffffffffffff1614156108da57600180836107f69190611410565b815481106108075761080661158a565b5b9060005260206000200160009054906101000a900473ffffffffffffffffffffffffffffffffffffffff16600182815481106108465761084561158a565b5b9060005260206000200160006101000a81548173ffffffffffffffffffffffffffffffffffffffff021916908373ffffffffffffffffffffffffffffffffffffffff16021790555060018054806108a05761089f61155b565b5b6001900381819060005260206000200160006101000a81549073ffffffffffffffffffffffffffffffffffffffff021916905590556108ed565b80806108e5906114e3565b91505061076e565b50600260008373ffffffffffffffffffffffffffffffffffffffff1673ffffffffffffffffffffffffffffffffffffffff16815260200190815260200160002060006109399190610e0c565b8173ffffffffffffffffffffffffffffffffffffffff167f2214ded40113cc3fb63fc206cafee88270b0a903dac7245d54efdde30ebb032160405160405180910390a25050565b60606000600260008473ffffffffffffffffffffffffffffffffffffffff1673ffffffffffffffffffffffffffffffffffffffff168152602001908152602001600020805490501415610a08576040517f08c379a00000000000000000000000000000000000000000000000000000000081526004016109ff906112cd565b60405180910390fd5b600260008373ffffffffffffffffffffffffffffffffffffffff1673ffffffffffffffffffffffffffffffffffffffff168152602001908152602001600020805480602002602001604051908101604052809291908181526020018280548015610a9157602002820191906000526020600020905b815481526020019060010190808311610a7d575b50505050509050919050565b60606001805480602002602001604051908101604052809291908181526020018280548015610b2157602002820191906000526020600020905b8160009054906101000a900473ffffffffffffffffffffffffffffffffffffffff1673ffffffffffffffffffffffffffffffffffffffff1681526020019060010190808311610ad7575b5050505050905090565b610b33610c75565b610b3c81610bf1565b50565b600080600180549050905060005b81811015610be5578373ffffffffffffffffffffffffffffffffffffffff1660018281548110610b8057610b7f61158a565b5b9060005260206000200160009054906101000a900473ffffffffffffffffffffffffffffffffffffffff1673ffffffffffffffffffffffffffffffffffffffff161415610bd257600192505050610bec565b8080610bdd906114e3565b915050610b4d565b5060009150505b919050565b610bf9610c75565b600073ffffffffffffffffffffffffffffffffffffffff168173ffffffffffffffffffffffffffffffffffffffff161415610c69576040517f08c379a0000000000000000000000000000000000000000000000000000000008152600401610c60906112ed565b60405180910390fd5b610c7281610cf3565b50565b610c7d610db7565b73ffffffffffffffffffffffffffffffffffffffff16610c9b6104d0565b73ffffffffffffffffffffffffffffffffffffffff1614610cf1576040517f08c379a0000000000000000000000000000000000000000000000000000000008152600401610ce89061132d565b60405180910390fd5b565b60008060009054906101000a900473ffffffffffffffffffffffffffffffffffffffff169050816000806101000a81548173ffffffffffffffffffffffffffffffffffffffff021916908373ffffffffffffffffffffffffffffffffffffffff1602179055508173ffffffffffffffffffffffffffffffffffffffff168173ffffffffffffffffffffffffffffffffffffffff167f8be0079c531659141344cd1fd0a4f28419497f9722a3daafe3b4186f6b6457e060405160405180910390a35050565b600033905090565b828054828255906000526020600020908101928215610dfb579160200282015b82811115610dfa578235825591602001919060010190610ddf565b5b509050610e089190610e2d565b5090565b5080546000825590600052602060002090810190610e2a9190610e2d565b50565b5b80821115610e46576000816000905550600101610e2e565b5090565b600081359050610e5981611719565b92915050565b60008083601f840112610e7557610e746115be565b5b8235905067ffffffffffffffff811115610e9257610e916115b9565b5b602083019150836020820283011115610eae57610ead6115c3565b5b9250929050565b600081359050610ec481611730565b92915050565b600081359050610ed981611747565b92915050565b600060208284031215610ef557610ef46115d2565b5b6000610f0384828501610e4a565b91505092915050565b60008060408385031215610f2357610f226115d2565b5b6000610f3185828601610e4a565b9250506020610f4285828601610eca565b9150509250929050565b600060208284031215610f6257610f616115d2565b5b6000610f7084828501610eb5565b91505092915050565b600080600060408486031215610f9257610f916115d2565b5b6000610fa086828701610eb5565b935050602084013567ffffffffffffffff811115610fc157610fc06115c8565b5b610fcd86828701610e5f565b92509250509250925092565b6000610fe5838361113f565b60208301905092915050565b6000610ffd8383611220565b60208301905092915050565b61101281611444565b82525050565b6000611023826113ad565b61102d81856113dd565b93506110388361138d565b8060005b838110156110695781516110508882610fd9565b975061105b836113c3565b92505060018101905061103c565b5085935050505092915050565b600061108283856113ee565b93507f07ffffffffffffffffffffffffffffffffffffffffffffffffffffffffffffff8311156110b5576110b46115cd565b5b6020830292506110c68385846114d4565b82840190509392505050565b60006110dd826113b8565b6110e781856113ee565b93506110f28361139d565b8060005b8381101561112357815161110a8882610ff1565b9750611115836113d0565b9250506001810190506110f6565b5085935050505092915050565b61113981611456565b82525050565b6111488161149e565b82525050565b600061115b601c836113ff565b9150611166826115d7565b602082019050919050565b600061117e6026836113ff565b915061118982611600565b604082019050919050565b60006111a1601d836113ff565b91506111ac8261164f565b602082019050919050565b60006111c46020836113ff565b91506111cf82611678565b602082019050919050565b60006111e76024836113ff565b91506111f2826116a1565b604082019050919050565b600061120a601c836113ff565b9150611215826116f0565b602082019050919050565b61122981611494565b82525050565b60006020820190506112446000830184611009565b92915050565b600060208201905081810360008301526112648184611018565b905092915050565b60006020820190508181036000830152611287818486611076565b90509392505050565b600060208201905081810360008301526112aa81846110d2565b905092915050565b60006020820190506112c76000830184611130565b92915050565b600060208201905081810360008301526112e68161114e565b9050919050565b6000602082019050818103600083015261130681611171565b9050919050565b6000602082019050818103600083015261132681611194565b9050919050565b60006020820190508181036000830152611346816111b7565b9050919050565b60006020820190508181036000830152611366816111da565b9050919050565b60006020820190508181036000830152611386816111fd565b9050919050565b6000819050602082019050919050565b6000819050602082019050919050565b600081519050919050565b600081519050919050565b6000602082019050919050565b6000602082019050919050565b600082825260208201905092915050565b600082825260208201905092915050565b600082825260208201905092915050565b600061141b82611494565b915061142683611494565b9250828210156114395761143861152c565b5b828203905092915050565b600061144f82611474565b9050919050565b60008115159050919050565b600061146d82611444565b9050919050565b600073ffffffffffffffffffffffffffffffffffffffff82169050919050565b6000819050919050565b60006114a9826114b0565b9050919050565b60006114bb826114c2565b9050919050565b60006114cd82611474565b9050919050565b82818337600083830152505050565b60006114ee82611494565b91507fffffffffffffffffffffffffffffffffffffffffffffffffffffffffffffffff8214156115215761152061152c565b5b600182019050919050565b7f4e487b7100000000000000000000000000000000000000000000000000000000600052601160045260246000fd5b7f4e487b7100000000000000000000000000000000000000000000000000000000600052603160045260246000fd5b7f4e487b7100000000000000000000000000000000000000000000000000000000600052603260045260246000fd5b600080fd5b600080fd5b600080fd5b600080fd5b600080fd5b600080fd5b7f747275737465642049737375657220646f65736e277420657869737400000000600082015250565b7f4f776e61626c653a206e6577206f776e657220697320746865207a65726f206160008201527f6464726573730000000000000000000000000000000000000000000000000000602082015250565b7f747275737465642049737375657220616c726561647920657869737473000000600082015250565b7f4f776e61626c653a2063616c6c6572206973206e6f7420746865206f776e6572600082015250565b7f7472757374656420636c61696d20746f706963732063616e6e6f74206265206560008201527f6d70747900000000000000000000000000000000000000000000000000000000602082015250565b7f636c61696d20746f706963732063616e6e6f7420626520656d70747900000000600082015250565b61172281611444565b811461172d57600080fd5b50565b61173981611462565b811461174457600080fd5b50565b61175081611494565b811461175b57600080fd5b5056fea26469706673582212204b5bbe6d5638490c9a48b0bef04d04af8bf8826ecf2143a93655c4abc2ec1da364736f6c63430008070033",
					"opcodes": "PUSH1 0x80 PUSH1 0x40 MSTORE CALLVALUE DUP1 ISZERO PUSH2 0x10 JUMPI PUSH1 0x0 DUP1 REVERT JUMPDEST POP PUSH2 0x2D PUSH2 0x22 PUSH2 0x32 PUSH1 0x20 SHL PUSH1 0x20 SHR JUMP JUMPDEST PUSH2 0x3A PUSH1 0x20 SHL PUSH1 0x20 SHR JUMP JUMPDEST PUSH2 0xFE JUMP JUMPDEST PUSH1 0x0 CALLER SWAP1 POP SWAP1 JUMP JUMPDEST PUSH1 0x0 DUP1 PUSH1 0x0 SWAP1 SLOAD SWAP1 PUSH2 0x100 EXP SWAP1 DIV PUSH20 0xFFFFFFFFFFFFFFFFFFFFFFFFFFFFFFFFFFFFFFFF AND SWAP1 POP DUP2 PUSH1 0x0 DUP1 PUSH2 0x100 EXP DUP2 SLOAD DUP2 PUSH20 0xFFFFFFFFFFFFFFFFFFFFFFFFFFFFFFFFFFFFFFFF MUL NOT AND SWAP1 DUP4 PUSH20 0xFFFFFFFFFFFFFFFFFFFFFFFFFFFFFFFFFFFFFFFF AND MUL OR SWAP1 SSTORE POP DUP2 PUSH20 0xFFFFFFFFFFFFFFFFFFFFFFFFFFFFFFFFFFFFFFFF AND DUP2 PUSH20 0xFFFFFFFFFFFFFFFFFFFFFFFFFFFFFFFFFFFFFFFF AND PUSH32 0x8BE0079C531659141344CD1FD0A4F28419497F9722A3DAAFE3B4186F6B6457E0 PUSH1 0x40 MLOAD PUSH1 0x40 MLOAD DUP1 SWAP2 SUB SWAP1 LOG3 POP POP JUMP JUMPDEST PUSH2 0x1794 DUP1 PUSH2 0x10D PUSH1 0x0 CODECOPY PUSH1 0x0 RETURN INVALID PUSH1 0x80 PUSH1 0x40 MSTORE CALLVALUE DUP1 ISZERO PUSH2 0x10 JUMPI PUSH1 0x0 DUP1 REVERT JUMPDEST POP PUSH1 0x4 CALLDATASIZE LT PUSH2 0xA9 JUMPI PUSH1 0x0 CALLDATALOAD PUSH1 0xE0 SHR DUP1 PUSH4 0xB93D28EB GT PUSH2 0x71 JUMPI DUP1 PUSH4 0xB93D28EB EQ PUSH2 0x13E JUMPI DUP1 PUSH4 0xC28FB278 EQ PUSH2 0x15A JUMPI DUP1 PUSH4 0xD9DD24C5 EQ PUSH2 0x18A JUMPI DUP1 PUSH4 0xE36DCE28 EQ PUSH2 0x1A8 JUMPI DUP1 PUSH4 0xEF2ED1A4 EQ PUSH2 0x1C4 JUMPI DUP1 PUSH4 0xF2FDE38B EQ PUSH2 0x1F4 JUMPI PUSH2 0xA9 JUMP JUMPDEST DUP1 PUSH4 0x4BC7E84 EQ PUSH2 0xAE JUMPI DUP1 PUSH4 0x34A89987 EQ PUSH2 0xCA JUMPI DUP1 PUSH4 0x715018A6 EQ PUSH2 0xFA JUMPI DUP1 PUSH4 0x8DA5CB5B EQ PUSH2 0x104 JUMPI DUP1 PUSH4 0x9F63EA98 EQ PUSH2 0x122 JUMPI JUMPDEST PUSH1 0x0 DUP1 REVERT JUMPDEST PUSH2 0xC8 PUSH1 0x4 DUP1 CALLDATASIZE SUB DUP2 ADD SWAP1 PUSH2 0xC3 SWAP2 SWAP1 PUSH2 0xF79 JUMP JUMPDEST PUSH2 0x210 JUMP JUMPDEST STOP JUMPDEST PUSH2 0xE4 PUSH1 0x4 DUP1 CALLDATASIZE SUB DUP2 ADD SWAP1 PUSH2 0xDF SWAP2 SWAP1 PUSH2 0xF0C JUMP JUMPDEST PUSH2 0x388 JUMP JUMPDEST PUSH1 0x40 MLOAD PUSH2 0xF1 SWAP2 SWAP1 PUSH2 0x12B2 JUMP JUMPDEST PUSH1 0x40 MLOAD DUP1 SWAP2 SUB SWAP1 RETURN JUMPDEST PUSH2 0x102 PUSH2 0x4BC JUMP JUMPDEST STOP JUMPDEST PUSH2 0x10C PUSH2 0x4D0 JUMP JUMPDEST PUSH1 0x40 MLOAD PUSH2 0x119 SWAP2 SWAP1 PUSH2 0x122F JUMP JUMPDEST PUSH1 0x40 MLOAD DUP1 SWAP2 SUB SWAP1 RETURN JUMPDEST PUSH2 0x13C PUSH1 0x4 DUP1 CALLDATASIZE SUB DUP2 ADD SWAP1 PUSH2 0x137 SWAP2 SWAP1 PUSH2 0xF79 JUMP JUMPDEST PUSH2 0x4F9 JUMP JUMPDEST STOP JUMPDEST PUSH2 0x158 PUSH1 0x4 DUP1 CALLDATASIZE SUB DUP2 ADD SWAP1 PUSH2 0x153 SWAP2 SWAP1 PUSH2 0xF4C JUMP JUMPDEST PUSH2 0x6D3 JUMP JUMPDEST STOP JUMPDEST PUSH2 0x174 PUSH1 0x4 DUP1 CALLDATASIZE SUB DUP2 ADD SWAP1 PUSH2 0x16F SWAP2 SWAP1 PUSH2 0xF4C JUMP JUMPDEST PUSH2 0x980 JUMP JUMPDEST PUSH1 0x40 MLOAD PUSH2 0x181 SWAP2 SWAP1 PUSH2 0x1290 JUMP JUMPDEST PUSH1 0x40 MLOAD DUP1 SWAP2 SUB SWAP1 RETURN JUMPDEST PUSH2 0x192 PUSH2 0xA9D JUMP JUMPDEST PUSH1 0x40 MLOAD PUSH2 0x19F SWAP2 SWAP1 PUSH2 0x124A JUMP JUMPDEST PUSH1 0x40 MLOAD DUP1 SWAP2 SUB SWAP1 RETURN JUMPDEST PUSH2 0x1C2 PUSH1 0x4 DUP1 CALLDATASIZE SUB DUP2 ADD SWAP1 PUSH2 0x1BD SWAP2 SWAP1 PUSH2 0xEDF JUMP JUMPDEST PUSH2 0xB2B JUMP JUMPDEST STOP JUMPDEST PUSH2 0x1DE PUSH1 0x4 DUP1 CALLDATASIZE SUB DUP2 ADD SWAP1 PUSH2 0x1D9 SWAP2 SWAP1 PUSH2 0xEDF JUMP JUMPDEST PUSH2 0xB3F JUMP JUMPDEST PUSH1 0x40 MLOAD PUSH2 0x1EB SWAP2 SWAP1 PUSH2 0x12B2 JUMP JUMPDEST PUSH1 0x40 MLOAD DUP1 SWAP2 SUB SWAP1 RETURN JUMPDEST PUSH2 0x20E PUSH1 0x4 DUP1 CALLDATASIZE SUB DUP2 ADD SWAP1 PUSH2 0x209 SWAP2 SWAP1 PUSH2 0xEDF JUMP JUMPDEST PUSH2 0xBF1 JUMP JUMPDEST STOP JUMPDEST PUSH2 0x218 PUSH2 0xC75 JUMP JUMPDEST PUSH1 0x0 PUSH1 0x2 PUSH1 0x0 DUP6 PUSH20 0xFFFFFFFFFFFFFFFFFFFFFFFFFFFFFFFFFFFFFFFF AND PUSH20 0xFFFFFFFFFFFFFFFFFFFFFFFFFFFFFFFFFFFFFFFF AND DUP2 MSTORE PUSH1 0x20 ADD SWAP1 DUP2 MSTORE PUSH1 0x20 ADD PUSH1 0x0 KECCAK256 DUP1 SLOAD SWAP1 POP EQ ISZERO PUSH2 0x29E JUMPI PUSH1 0x40 MLOAD PUSH32 0x8C379A000000000000000000000000000000000000000000000000000000000 DUP2 MSTORE PUSH1 0x4 ADD PUSH2 0x295 SWAP1 PUSH2 0x12CD JUMP JUMPDEST PUSH1 0x40 MLOAD DUP1 SWAP2 SUB SWAP1 REVERT JUMPDEST PUSH1 0x0 DUP3 DUP3 SWAP1 POP GT PUSH2 0x2E4 JUMPI PUSH1 0x40 MLOAD PUSH32 0x8C379A000000000000000000000000000000000000000000000000000000000 DUP2 MSTORE PUSH1 0x4 ADD PUSH2 0x2DB SWAP1 PUSH2 0x136D JUMP JUMPDEST PUSH1 0x40 MLOAD DUP1 SWAP2 SUB SWAP1 REVERT JUMPDEST DUP2 DUP2 PUSH1 0x2 PUSH1 0x0 DUP7 PUSH20 0xFFFFFFFFFFFFFFFFFFFFFFFFFFFFFFFFFFFFFFFF AND PUSH20 0xFFFFFFFFFFFFFFFFFFFFFFFFFFFFFFFFFFFFFFFF AND DUP2 MSTORE PUSH1 0x20 ADD SWAP1 DUP2 MSTORE PUSH1 0x20 ADD PUSH1 0x0 KECCAK256 SWAP2 SWAP1 PUSH2 0x332 SWAP3 SWAP2 SWAP1 PUSH2 0xDBF JUMP JUMPDEST POP DUP3 PUSH20 0xFFFFFFFFFFFFFFFFFFFFFFFFFFFFFFFFFFFFFFFF AND PUSH32 0xEC753CFC52044F61676F18A11E500093A9F2B1CD5E4942BC476F2B0438159BCF DUP4 DUP4 PUSH1 0x40 MLOAD PUSH2 0x37B SWAP3 SWAP2 SWAP1 PUSH2 0x126C JUMP JUMPDEST PUSH1 0x40 MLOAD DUP1 SWAP2 SUB SWAP1 LOG2 POP POP POP JUMP JUMPDEST PUSH1 0x0 DUP1 PUSH1 0x2 PUSH1 0x0 DUP6 PUSH20 0xFFFFFFFFFFFFFFFFFFFFFFFFFFFFFFFFFFFFFFFF AND PUSH20 0xFFFFFFFFFFFFFFFFFFFFFFFFFFFFFFFFFFFFFFFF AND DUP2 MSTORE PUSH1 0x20 ADD SWAP1 DUP2 MSTORE PUSH1 0x20 ADD PUSH1 0x0 KECCAK256 DUP1 SLOAD SWAP1 POP SWAP1 POP PUSH1 0x0 PUSH1 0x2 PUSH1 0x0 DUP7 PUSH20 0xFFFFFFFFFFFFFFFFFFFFFFFFFFFFFFFFFFFFFFFF AND PUSH20 0xFFFFFFFFFFFFFFFFFFFFFFFFFFFFFFFFFFFFFFFF AND DUP2 MSTORE PUSH1 0x20 ADD SWAP1 DUP2 MSTORE PUSH1 0x20 ADD PUSH1 0x0 KECCAK256 DUP1 SLOAD DUP1 PUSH1 0x20 MUL PUSH1 0x20 ADD PUSH1 0x40 MLOAD SWAP1 DUP2 ADD PUSH1 0x40 MSTORE DUP1 SWAP3 SWAP2 SWAP1 DUP2 DUP2 MSTORE PUSH1 0x20 ADD DUP3 DUP1 SLOAD DUP1 ISZERO PUSH2 0x45B JUMPI PUSH1 0x20 MUL DUP3 ADD SWAP2 SWAP1 PUSH1 0x0 MSTORE PUSH1 0x20 PUSH1 0x0 KECCAK256 SWAP1 JUMPDEST DUP2 SLOAD DUP2 MSTORE PUSH1 0x20 ADD SWAP1 PUSH1 0x1 ADD SWAP1 DUP1 DUP4 GT PUSH2 0x447 JUMPI JUMPDEST POP POP POP POP POP SWAP1 POP PUSH1 0x0 JUMPDEST DUP3 DUP2 LT ISZERO PUSH2 0x4AE JUMPI DUP5 DUP3 DUP3 DUP2 MLOAD DUP2 LT PUSH2 0x481 JUMPI PUSH2 0x480 PUSH2 0x158A JUMP JUMPDEST JUMPDEST PUSH1 0x20 MUL PUSH1 0x20 ADD ADD MLOAD EQ ISZERO PUSH2 0x49B JUMPI PUSH1 0x1 SWAP4 POP POP POP POP PUSH2 0x4B6 JUMP JUMPDEST DUP1 DUP1 PUSH2 0x4A6 SWAP1 PUSH2 0x14E3 JUMP JUMPDEST SWAP2 POP POP PUSH2 0x465 JUMP JUMPDEST POP PUSH1 0x0 SWAP3 POP POP POP JUMPDEST SWAP3 SWAP2 POP POP JUMP JUMPDEST PUSH2 0x4C4 PUSH2 0xC75 JUMP JUMPDEST PUSH2 0x4CE PUSH1 0x0 PUSH2 0xCF3 JUMP JUMPDEST JUMP JUMPDEST PUSH1 0x0 DUP1 PUSH1 0x0 SWAP1 SLOAD SWAP1 PUSH2 0x100 EXP SWAP1 DIV PUSH20 0xFFFFFFFFFFFFFFFFFFFFFFFFFFFFFFFFFFFFFFFF AND SWAP1 POP SWAP1 JUMP JUMPDEST PUSH2 0x501 PUSH2 0xC75 JUMP JUMPDEST PUSH1 0x0 PUSH1 0x2 PUSH1 0x0 DUP6 PUSH20 0xFFFFFFFFFFFFFFFFFFFFFFFFFFFFFFFFFFFFFFFF AND PUSH20 0xFFFFFFFFFFFFFFFFFFFFFFFFFFFFFFFFFFFFFFFF AND DUP2 MSTORE PUSH1 0x20 ADD SWAP1 DUP2 MSTORE PUSH1 0x20 ADD PUSH1 0x0 KECCAK256 DUP1 SLOAD SWAP1 POP EQ PUSH2 0x586 JUMPI PUSH1 0x40 MLOAD PUSH32 0x8C379A000000000000000000000000000000000000000000000000000000000 DUP2 MSTORE PUSH1 0x4 ADD PUSH2 0x57D SWAP1 PUSH2 0x130D JUMP JUMPDEST PUSH1 0x40 MLOAD DUP1 SWAP2 SUB SWAP1 REVERT JUMPDEST PUSH1 0x0 DUP3 DUP3 SWAP1 POP GT PUSH2 0x5CC JUMPI PUSH1 0x40 MLOAD PUSH32 0x8C379A000000000000000000000000000000000000000000000000000000000 DUP2 MSTORE PUSH1 0x4 ADD PUSH2 0x5C3 SWAP1 PUSH2 0x134D JUMP JUMPDEST PUSH1 0x40 MLOAD DUP1 SWAP2 SUB SWAP1 REVERT JUMPDEST PUSH1 0x1 DUP4 SWAP1 DUP1 PUSH1 0x1 DUP2 SLOAD ADD DUP1 DUP3 SSTORE DUP1 SWAP2 POP POP PUSH1 0x1 SWAP1 SUB SWAP1 PUSH1 0x0 MSTORE PUSH1 0x20 PUSH1 0x0 KECCAK256 ADD PUSH1 0x0 SWAP1 SWAP2 SWAP1 SWAP2 SWAP1 SWAP2 PUSH2 0x100 EXP DUP2 SLOAD DUP2 PUSH20 0xFFFFFFFFFFFFFFFFFFFFFFFFFFFFFFFFFFFFFFFF MUL NOT AND SWAP1 DUP4 PUSH20 0xFFFFFFFFFFFFFFFFFFFFFFFFFFFFFFFFFFFFFFFF AND MUL OR SWAP1 SSTORE POP DUP2 DUP2 PUSH1 0x2 PUSH1 0x0 DUP7 PUSH20 0xFFFFFFFFFFFFFFFFFFFFFFFFFFFFFFFFFFFFFFFF AND PUSH20 0xFFFFFFFFFFFFFFFFFFFFFFFFFFFFFFFFFFFFFFFF AND DUP2 MSTORE PUSH1 0x20 ADD SWAP1 DUP2 MSTORE PUSH1 0x20 ADD PUSH1 0x0 KECCAK256 SWAP2 SWAP1 PUSH2 0x67D SWAP3 SWAP2 SWAP1 PUSH2 0xDBF JUMP JUMPDEST POP DUP3 PUSH20 0xFFFFFFFFFFFFFFFFFFFFFFFFFFFFFFFFFFFFFFFF AND PUSH32 0xFEDC33FD34859594822C0FF6F3F4F9FC279CC6D5CAE53068F706A088E4500872 DUP4 DUP4 PUSH1 0x40 MLOAD PUSH2 0x6C6 SWAP3 SWAP2 SWAP1 PUSH2 0x126C JUMP JUMPDEST PUSH1 0x40 MLOAD DUP1 SWAP2 SUB SWAP1 LOG2 POP POP POP JUMP JUMPDEST PUSH2 0x6DB PUSH2 0xC75 JUMP JUMPDEST PUSH1 0x0 PUSH1 0x2 PUSH1 0x0 DUP4 PUSH20 0xFFFFFFFFFFFFFFFFFFFFFFFFFFFFFFFFFFFFFFFF AND PUSH20 0xFFFFFFFFFFFFFFFFFFFFFFFFFFFFFFFFFFFFFFFF AND DUP2 MSTORE PUSH1 0x20 ADD SWAP1 DUP2 MSTORE PUSH1 0x20 ADD PUSH1 0x0 KECCAK256 DUP1 SLOAD SWAP1 POP EQ ISZERO PUSH2 0x761 JUMPI PUSH1 0x40 MLOAD PUSH32 0x8C379A000000000000000000000000000000000000000000000000000000000 DUP2 MSTORE PUSH1 0x4 ADD PUSH2 0x758 SWAP1 PUSH2 0x12CD JUMP JUMPDEST PUSH1 0x40 MLOAD DUP1 SWAP2 SUB SWAP1 REVERT JUMPDEST PUSH1 0x0 PUSH1 0x1 DUP1 SLOAD SWAP1 POP SWAP1 POP PUSH1 0x0 JUMPDEST DUP2 DUP2 LT ISZERO PUSH2 0x8ED JUMPI DUP3 PUSH20 0xFFFFFFFFFFFFFFFFFFFFFFFFFFFFFFFFFFFFFFFF AND PUSH1 0x1 DUP3 DUP2 SLOAD DUP2 LT PUSH2 0x7A1 JUMPI PUSH2 0x7A0 PUSH2 0x158A JUMP JUMPDEST JUMPDEST SWAP1 PUSH1 0x0 MSTORE PUSH1 0x20 PUSH1 0x0 KECCAK256 ADD PUSH1 0x0 SWAP1 SLOAD SWAP1 PUSH2 0x100 EXP SWAP1 DIV PUSH20 0xFFFFFFFFFFFFFFFFFFFFFFFFFFFFFFFFFFFFFFFF AND PUSH20 0xFFFFFFFFFFFFFFFFFFFFFFFFFFFFFFFFFFFFFFFF AND EQ ISZERO PUSH2 0x8DA JUMPI PUSH1 0x1 DUP1 DUP4 PUSH2 0x7F6 SWAP2 SWAP1 PUSH2 0x1410 JUMP JUMPDEST DUP2 SLOAD DUP2 LT PUSH2 0x807 JUMPI PUSH2 0x806 PUSH2 0x158A JUMP JUMPDEST JUMPDEST SWAP1 PUSH1 0x0 MSTORE PUSH1 0x20 PUSH1 0x0 KECCAK256 ADD PUSH1 0x0 SWAP1 SLOAD SWAP1 PUSH2 0x100 EXP SWAP1 DIV PUSH20 0xFFFFFFFFFFFFFFFFFFFFFFFFFFFFFFFFFFFFFFFF AND PUSH1 0x1 DUP3 DUP2 SLOAD DUP2 LT PUSH2 0x846 JUMPI PUSH2 0x845 PUSH2 0x158A JUMP JUMPDEST JUMPDEST SWAP1 PUSH1 0x0 MSTORE PUSH1 0x20 PUSH1 0x0 KECCAK256 ADD PUSH1 0x0 PUSH2 0x100 EXP DUP2 SLOAD DUP2 PUSH20 0xFFFFFFFFFFFFFFFFFFFFFFFFFFFFFFFFFFFFFFFF MUL NOT AND SWAP1 DUP4 PUSH20 0xFFFFFFFFFFFFFFFFFFFFFFFFFFFFFFFFFFFFFFFF AND MUL OR SWAP1 SSTORE POP PUSH1 0x1 DUP1 SLOAD DUP1 PUSH2 0x8A0 JUMPI PUSH2 0x89F PUSH2 0x155B JUMP JUMPDEST JUMPDEST PUSH1 0x1 SWAP1 SUB DUP2 DUP2 SWAP1 PUSH1 0x0 MSTORE PUSH1 0x20 PUSH1 0x0 KECCAK256 ADD PUSH1 0x0 PUSH2 0x100 EXP DUP2 SLOAD SWAP1 PUSH20 0xFFFFFFFFFFFFFFFFFFFFFFFFFFFFFFFFFFFFFFFF MUL NOT AND SWAP1 SSTORE SWAP1 SSTORE PUSH2 0x8ED JUMP JUMPDEST DUP1 DUP1 PUSH2 0x8E5 SWAP1 PUSH2 0x14E3 JUMP JUMPDEST SWAP2 POP POP PUSH2 0x76E JUMP JUMPDEST POP PUSH1 0x2 PUSH1 0x0 DUP4 PUSH20 0xFFFFFFFFFFFFFFFFFFFFFFFFFFFFFFFFFFFFFFFF AND PUSH20 0xFFFFFFFFFFFFFFFFFFFFFFFFFFFFFFFFFFFFFFFF AND DUP2 MSTORE PUSH1 0x20 ADD SWAP1 DUP2 MSTORE PUSH1 0x20 ADD PUSH1 0x0 KECCAK256 PUSH1 0x0 PUSH2 0x939 SWAP2 SWAP1 PUSH2 0xE0C JUMP JUMPDEST DUP2 PUSH20 0xFFFFFFFFFFFFFFFFFFFFFFFFFFFFFFFFFFFFFFFF AND PUSH32 0x2214DED40113CC3FB63FC206CAFEE88270B0A903DAC7245D54EFDDE30EBB0321 PUSH1 0x40 MLOAD PUSH1 0x40 MLOAD DUP1 SWAP2 SUB SWAP1 LOG2 POP POP JUMP JUMPDEST PUSH1 0x60 PUSH1 0x0 PUSH1 0x2 PUSH1 0x0 DUP5 PUSH20 0xFFFFFFFFFFFFFFFFFFFFFFFFFFFFFFFFFFFFFFFF AND PUSH20 0xFFFFFFFFFFFFFFFFFFFFFFFFFFFFFFFFFFFFFFFF AND DUP2 MSTORE PUSH1 0x20 ADD SWAP1 DUP2 MSTORE PUSH1 0x20 ADD PUSH1 0x0 KECCAK256 DUP1 SLOAD SWAP1 POP EQ ISZERO PUSH2 0xA08 JUMPI PUSH1 0x40 MLOAD PUSH32 0x8C379A000000000000000000000000000000000000000000000000000000000 DUP2 MSTORE PUSH1 0x4 ADD PUSH2 0x9FF SWAP1 PUSH2 0x12CD JUMP JUMPDEST PUSH1 0x40 MLOAD DUP1 SWAP2 SUB SWAP1 REVERT JUMPDEST PUSH1 0x2 PUSH1 0x0 DUP4 PUSH20 0xFFFFFFFFFFFFFFFFFFFFFFFFFFFFFFFFFFFFFFFF AND PUSH20 0xFFFFFFFFFFFFFFFFFFFFFFFFFFFFFFFFFFFFFFFF AND DUP2 MSTORE PUSH1 0x20 ADD SWAP1 DUP2 MSTORE PUSH1 0x20 ADD PUSH1 0x0 KECCAK256 DUP1 SLOAD DUP1 PUSH1 0x20 MUL PUSH1 0x20 ADD PUSH1 0x40 MLOAD SWAP1 DUP2 ADD PUSH1 0x40 MSTORE DUP1 SWAP3 SWAP2 SWAP1 DUP2 DUP2 MSTORE PUSH1 0x20 ADD DUP3 DUP1 SLOAD DUP1 ISZERO PUSH2 0xA91 JUMPI PUSH1 0x20 MUL DUP3 ADD SWAP2 SWAP1 PUSH1 0x0 MSTORE PUSH1 0x20 PUSH1 0x0 KECCAK256 SWAP1 JUMPDEST DUP2 SLOAD DUP2 MSTORE PUSH1 0x20 ADD SWAP1 PUSH1 0x1 ADD SWAP1 DUP1 DUP4 GT PUSH2 0xA7D JUMPI JUMPDEST POP POP POP POP POP SWAP1 POP SWAP2 SWAP1 POP JUMP JUMPDEST PUSH1 0x60 PUSH1 0x1 DUP1 SLOAD DUP1 PUSH1 0x20 MUL PUSH1 0x20 ADD PUSH1 0x40 MLOAD SWAP1 DUP2 ADD PUSH1 0x40 MSTORE DUP1 SWAP3 SWAP2 SWAP1 DUP2 DUP2 MSTORE PUSH1 0x20 ADD DUP3 DUP1 SLOAD DUP1 ISZERO PUSH2 0xB21 JUMPI PUSH1 0x20 MUL DUP3 ADD SWAP2 SWAP1 PUSH1 0x0 MSTORE PUSH1 0x20 PUSH1 0x0 KECCAK256 SWAP1 JUMPDEST DUP2 PUSH1 0x0 SWAP1 SLOAD SWAP1 PUSH2 0x100 EXP SWAP1 DIV PUSH20 0xFFFFFFFFFFFFFFFFFFFFFFFFFFFFFFFFFFFFFFFF AND PUSH20 0xFFFFFFFFFFFFFFFFFFFFFFFFFFFFFFFFFFFFFFFF AND DUP2 MSTORE PUSH1 0x20 ADD SWAP1 PUSH1 0x1 ADD SWAP1 DUP1 DUP4 GT PUSH2 0xAD7 JUMPI JUMPDEST POP POP POP POP POP SWAP1 POP SWAP1 JUMP JUMPDEST PUSH2 0xB33 PUSH2 0xC75 JUMP JUMPDEST PUSH2 0xB3C DUP2 PUSH2 0xBF1 JUMP JUMPDEST POP JUMP JUMPDEST PUSH1 0x0 DUP1 PUSH1 0x1 DUP1 SLOAD SWAP1 POP SWAP1 POP PUSH1 0x0 JUMPDEST DUP2 DUP2 LT ISZERO PUSH2 0xBE5 JUMPI DUP4 PUSH20 0xFFFFFFFFFFFFFFFFFFFFFFFFFFFFFFFFFFFFFFFF AND PUSH1 0x1 DUP3 DUP2 SLOAD DUP2 LT PUSH2 0xB80 JUMPI PUSH2 0xB7F PUSH2 0x158A JUMP JUMPDEST JUMPDEST SWAP1 PUSH1 0x0 MSTORE PUSH1 0x20 PUSH1 0x0 KECCAK256 ADD PUSH1 0x0 SWAP1 SLOAD SWAP1 PUSH2 0x100 EXP SWAP1 DIV PUSH20 0xFFFFFFFFFFFFFFFFFFFFFFFFFFFFFFFFFFFFFFFF AND PUSH20 0xFFFFFFFFFFFFFFFFFFFFFFFFFFFFFFFFFFFFFFFF AND EQ ISZERO PUSH2 0xBD2 JUMPI PUSH1 0x1 SWAP3 POP POP POP PUSH2 0xBEC JUMP JUMPDEST DUP1 DUP1 PUSH2 0xBDD SWAP1 PUSH2 0x14E3 JUMP JUMPDEST SWAP2 POP POP PUSH2 0xB4D JUMP JUMPDEST POP PUSH1 0x0 SWAP2 POP POP JUMPDEST SWAP2 SWAP1 POP JUMP JUMPDEST PUSH2 0xBF9 PUSH2 0xC75 JUMP JUMPDEST PUSH1 0x0 PUSH20 0xFFFFFFFFFFFFFFFFFFFFFFFFFFFFFFFFFFFFFFFF AND DUP2 PUSH20 0xFFFFFFFFFFFFFFFFFFFFFFFFFFFFFFFFFFFFFFFF AND EQ ISZERO PUSH2 0xC69 JUMPI PUSH1 0x40 MLOAD PUSH32 0x8C379A000000000000000000000000000000000000000000000000000000000 DUP2 MSTORE PUSH1 0x4 ADD PUSH2 0xC60 SWAP1 PUSH2 0x12ED JUMP JUMPDEST PUSH1 0x40 MLOAD DUP1 SWAP2 SUB SWAP1 REVERT JUMPDEST PUSH2 0xC72 DUP2 PUSH2 0xCF3 JUMP JUMPDEST POP JUMP JUMPDEST PUSH2 0xC7D PUSH2 0xDB7 JUMP JUMPDEST PUSH20 0xFFFFFFFFFFFFFFFFFFFFFFFFFFFFFFFFFFFFFFFF AND PUSH2 0xC9B PUSH2 0x4D0 JUMP JUMPDEST PUSH20 0xFFFFFFFFFFFFFFFFFFFFFFFFFFFFFFFFFFFFFFFF AND EQ PUSH2 0xCF1 JUMPI PUSH1 0x40 MLOAD PUSH32 0x8C379A000000000000000000000000000000000000000000000000000000000 DUP2 MSTORE PUSH1 0x4 ADD PUSH2 0xCE8 SWAP1 PUSH2 0x132D JUMP JUMPDEST PUSH1 0x40 MLOAD DUP1 SWAP2 SUB SWAP1 REVERT JUMPDEST JUMP JUMPDEST PUSH1 0x0 DUP1 PUSH1 0x0 SWAP1 SLOAD SWAP1 PUSH2 0x100 EXP SWAP1 DIV PUSH20 0xFFFFFFFFFFFFFFFFFFFFFFFFFFFFFFFFFFFFFFFF AND SWAP1 POP DUP2 PUSH1 0x0 DUP1 PUSH2 0x100 EXP DUP2 SLOAD DUP2 PUSH20 0xFFFFFFFFFFFFFFFFFFFFFFFFFFFFFFFFFFFFFFFF MUL NOT AND SWAP1 DUP4 PUSH20 0xFFFFFFFFFFFFFFFFFFFFFFFFFFFFFFFFFFFFFFFF AND MUL OR SWAP1 SSTORE POP DUP2 PUSH20 0xFFFFFFFFFFFFFFFFFFFFFFFFFFFFFFFFFFFFFFFF AND DUP2 PUSH20 0xFFFFFFFFFFFFFFFFFFFFFFFFFFFFFFFFFFFFFFFF AND PUSH32 0x8BE0079C531659141344CD1FD0A4F28419497F9722A3DAAFE3B4186F6B6457E0 PUSH1 0x40 MLOAD PUSH1 0x40 MLOAD DUP1 SWAP2 SUB SWAP1 LOG3 POP POP JUMP JUMPDEST PUSH1 0x0 CALLER SWAP1 POP SWAP1 JUMP JUMPDEST DUP3 DUP1 SLOAD DUP3 DUP3 SSTORE SWAP1 PUSH1 0x0 MSTORE PUSH1 0x20 PUSH1 0x0 KECCAK256 SWAP1 DUP2 ADD SWAP3 DUP3 ISZERO PUSH2 0xDFB JUMPI SWAP2 PUSH1 0x20 MUL DUP3 ADD JUMPDEST DUP3 DUP2 GT ISZERO PUSH2 0xDFA JUMPI DUP3 CALLDATALOAD DUP3 SSTORE SWAP2 PUSH1 0x20 ADD SWAP2 SWAP1 PUSH1 0x1 ADD SWAP1 PUSH2 0xDDF JUMP JUMPDEST JUMPDEST POP SWAP1 POP PUSH2 0xE08 SWAP2 SWAP1 PUSH2 0xE2D JUMP JUMPDEST POP SWAP1 JUMP JUMPDEST POP DUP1 SLOAD PUSH1 0x0 DUP3 SSTORE SWAP1 PUSH1 0x0 MSTORE PUSH1 0x20 PUSH1 0x0 KECCAK256 SWAP1 DUP2 ADD SWAP1 PUSH2 0xE2A SWAP2 SWAP1 PUSH2 0xE2D JUMP JUMPDEST POP JUMP JUMPDEST JUMPDEST DUP1 DUP3 GT ISZERO PUSH2 0xE46 JUMPI PUSH1 0x0 DUP2 PUSH1 0x0 SWAP1 SSTORE POP PUSH1 0x1 ADD PUSH2 0xE2E JUMP JUMPDEST POP SWAP1 JUMP JUMPDEST PUSH1 0x0 DUP2 CALLDATALOAD SWAP1 POP PUSH2 0xE59 DUP2 PUSH2 0x1719 JUMP JUMPDEST SWAP3 SWAP2 POP POP JUMP JUMPDEST PUSH1 0x0 DUP1 DUP4 PUSH1 0x1F DUP5 ADD SLT PUSH2 0xE75 JUMPI PUSH2 0xE74 PUSH2 0x15BE JUMP JUMPDEST JUMPDEST DUP3 CALLDATALOAD SWAP1 POP PUSH8 0xFFFFFFFFFFFFFFFF DUP2 GT ISZERO PUSH2 0xE92 JUMPI PUSH2 0xE91 PUSH2 0x15B9 JUMP JUMPDEST JUMPDEST PUSH1 0x20 DUP4 ADD SWAP2 POP DUP4 PUSH1 0x20 DUP3 MUL DUP4 ADD GT ISZERO PUSH2 0xEAE JUMPI PUSH2 0xEAD PUSH2 0x15C3 JUMP JUMPDEST JUMPDEST SWAP3 POP SWAP3 SWAP1 POP JUMP JUMPDEST PUSH1 0x0 DUP2 CALLDATALOAD SWAP1 POP PUSH2 0xEC4 DUP2 PUSH2 0x1730 JUMP JUMPDEST SWAP3 SWAP2 POP POP JUMP JUMPDEST PUSH1 0x0 DUP2 CALLDATALOAD SWAP1 POP PUSH2 0xED9 DUP2 PUSH2 0x1747 JUMP JUMPDEST SWAP3 SWAP2 POP POP JUMP JUMPDEST PUSH1 0x0 PUSH1 0x20 DUP3 DUP5 SUB SLT ISZERO PUSH2 0xEF5 JUMPI PUSH2 0xEF4 PUSH2 0x15D2 JUMP JUMPDEST JUMPDEST PUSH1 0x0 PUSH2 0xF03 DUP5 DUP3 DUP6 ADD PUSH2 0xE4A JUMP JUMPDEST SWAP2 POP POP SWAP3 SWAP2 POP POP JUMP JUMPDEST PUSH1 0x0 DUP1 PUSH1 0x40 DUP4 DUP6 SUB SLT ISZERO PUSH2 0xF23 JUMPI PUSH2 0xF22 PUSH2 0x15D2 JUMP JUMPDEST JUMPDEST PUSH1 0x0 PUSH2 0xF31 DUP6 DUP3 DUP7 ADD PUSH2 0xE4A JUMP JUMPDEST SWAP3 POP POP PUSH1 0x20 PUSH2 0xF42 DUP6 DUP3 DUP7 ADD PUSH2 0xECA JUMP JUMPDEST SWAP2 POP POP SWAP3 POP SWAP3 SWAP1 POP JUMP JUMPDEST PUSH1 0x0 PUSH1 0x20 DUP3 DUP5 SUB SLT ISZERO PUSH2 0xF62 JUMPI PUSH2 0xF61 PUSH2 0x15D2 JUMP JUMPDEST JUMPDEST PUSH1 0x0 PUSH2 0xF70 DUP5 DUP3 DUP6 ADD PUSH2 0xEB5 JUMP JUMPDEST SWAP2 POP POP SWAP3 SWAP2 POP POP JUMP JUMPDEST PUSH1 0x0 DUP1 PUSH1 0x0 PUSH1 0x40 DUP5 DUP7 SUB SLT ISZERO PUSH2 0xF92 JUMPI PUSH2 0xF91 PUSH2 0x15D2 JUMP JUMPDEST JUMPDEST PUSH1 0x0 PUSH2 0xFA0 DUP7 DUP3 DUP8 ADD PUSH2 0xEB5 JUMP JUMPDEST SWAP4 POP POP PUSH1 0x20 DUP5 ADD CALLDATALOAD PUSH8 0xFFFFFFFFFFFFFFFF DUP2 GT ISZERO PUSH2 0xFC1 JUMPI PUSH2 0xFC0 PUSH2 0x15C8 JUMP JUMPDEST JUMPDEST PUSH2 0xFCD DUP7 DUP3 DUP8 ADD PUSH2 0xE5F JUMP JUMPDEST SWAP3 POP SWAP3 POP POP SWAP3 POP SWAP3 POP SWAP3 JUMP JUMPDEST PUSH1 0x0 PUSH2 0xFE5 DUP4 DUP4 PUSH2 0x113F JUMP JUMPDEST PUSH1 0x20 DUP4 ADD SWAP1 POP SWAP3 SWAP2 POP POP JUMP JUMPDEST PUSH1 0x0 PUSH2 0xFFD DUP4 DUP4 PUSH2 0x1220 JUMP JUMPDEST PUSH1 0x20 DUP4 ADD SWAP1 POP SWAP3 SWAP2 POP POP JUMP JUMPDEST PUSH2 0x1012 DUP2 PUSH2 0x1444 JUMP JUMPDEST DUP3 MSTORE POP POP JUMP JUMPDEST PUSH1 0x0 PUSH2 0x1023 DUP3 PUSH2 0x13AD JUMP JUMPDEST PUSH2 0x102D DUP2 DUP6 PUSH2 0x13DD JUMP JUMPDEST SWAP4 POP PUSH2 0x1038 DUP4 PUSH2 0x138D JUMP JUMPDEST DUP1 PUSH1 0x0 JUMPDEST DUP4 DUP2 LT ISZERO PUSH2 0x1069 JUMPI DUP2 MLOAD PUSH2 0x1050 DUP9 DUP3 PUSH2 0xFD9 JUMP JUMPDEST SWAP8 POP PUSH2 0x105B DUP4 PUSH2 0x13C3 JUMP JUMPDEST SWAP3 POP POP PUSH1 0x1 DUP2 ADD SWAP1 POP PUSH2 0x103C JUMP JUMPDEST POP DUP6 SWAP4 POP POP POP POP SWAP3 SWAP2 POP POP JUMP JUMPDEST PUSH1 0x0 PUSH2 0x1082 DUP4 DUP6 PUSH2 0x13EE JUMP JUMPDEST SWAP4 POP PUSH32 0x7FFFFFFFFFFFFFFFFFFFFFFFFFFFFFFFFFFFFFFFFFFFFFFFFFFFFFFFFFFFFFF DUP4 GT ISZERO PUSH2 0x10B5 JUMPI PUSH2 0x10B4 PUSH2 0x15CD JUMP JUMPDEST JUMPDEST PUSH1 0x20 DUP4 MUL SWAP3 POP PUSH2 0x10C6 DUP4 DUP6 DUP5 PUSH2 0x14D4 JUMP JUMPDEST DUP3 DUP5 ADD SWAP1 POP SWAP4 SWAP3 POP POP POP JUMP JUMPDEST PUSH1 0x0 PUSH2 0x10DD DUP3 PUSH2 0x13B8 JUMP JUMPDEST PUSH2 0x10E7 DUP2 DUP6 PUSH2 0x13EE JUMP JUMPDEST SWAP4 POP PUSH2 0x10F2 DUP4 PUSH2 0x139D JUMP JUMPDEST DUP1 PUSH1 0x0 JUMPDEST DUP4 DUP2 LT ISZERO PUSH2 0x1123 JUMPI DUP2 MLOAD PUSH2 0x110A DUP9 DUP3 PUSH2 0xFF1 JUMP JUMPDEST SWAP8 POP PUSH2 0x1115 DUP4 PUSH2 0x13D0 JUMP JUMPDEST SWAP3 POP POP PUSH1 0x1 DUP2 ADD SWAP1 POP PUSH2 0x10F6 JUMP JUMPDEST POP DUP6 SWAP4 POP POP POP POP SWAP3 SWAP2 POP POP JUMP JUMPDEST PUSH2 0x1139 DUP2 PUSH2 0x1456 JUMP JUMPDEST DUP3 MSTORE POP POP JUMP JUMPDEST PUSH2 0x1148 DUP2 PUSH2 0x149E JUMP JUMPDEST DUP3 MSTORE POP POP JUMP JUMPDEST PUSH1 0x0 PUSH2 0x115B PUSH1 0x1C DUP4 PUSH2 0x13FF JUMP JUMPDEST SWAP2 POP PUSH2 0x1166 DUP3 PUSH2 0x15D7 JUMP JUMPDEST PUSH1 0x20 DUP3 ADD SWAP1 POP SWAP2 SWAP1 POP JUMP JUMPDEST PUSH1 0x0 PUSH2 0x117E PUSH1 0x26 DUP4 PUSH2 0x13FF JUMP JUMPDEST SWAP2 POP PUSH2 0x1189 DUP3 PUSH2 0x1600 JUMP JUMPDEST PUSH1 0x40 DUP3 ADD SWAP1 POP SWAP2 SWAP1 POP JUMP JUMPDEST PUSH1 0x0 PUSH2 0x11A1 PUSH1 0x1D DUP4 PUSH2 0x13FF JUMP JUMPDEST SWAP2 POP PUSH2 0x11AC DUP3 PUSH2 0x164F JUMP JUMPDEST PUSH1 0x20 DUP3 ADD SWAP1 POP SWAP2 SWAP1 POP JUMP JUMPDEST PUSH1 0x0 PUSH2 0x11C4 PUSH1 0x20 DUP4 PUSH2 0x13FF JUMP JUMPDEST SWAP2 POP PUSH2 0x11CF DUP3 PUSH2 0x1678 JUMP JUMPDEST PUSH1 0x20 DUP3 ADD SWAP1 POP SWAP2 SWAP1 POP JUMP JUMPDEST PUSH1 0x0 PUSH2 0x11E7 PUSH1 0x24 DUP4 PUSH2 0x13FF JUMP JUMPDEST SWAP2 POP PUSH2 0x11F2 DUP3 PUSH2 0x16A1 JUMP JUMPDEST PUSH1 0x40 DUP3 ADD SWAP1 POP SWAP2 SWAP1 POP JUMP JUMPDEST PUSH1 0x0 PUSH2 0x120A PUSH1 0x1C DUP4 PUSH2 0x13FF JUMP JUMPDEST SWAP2 POP PUSH2 0x1215 DUP3 PUSH2 0x16F0 JUMP JUMPDEST PUSH1 0x20 DUP3 ADD SWAP1 POP SWAP2 SWAP1 POP JUMP JUMPDEST PUSH2 0x1229 DUP2 PUSH2 0x1494 JUMP JUMPDEST DUP3 MSTORE POP POP JUMP JUMPDEST PUSH1 0x0 PUSH1 0x20 DUP3 ADD SWAP1 POP PUSH2 0x1244 PUSH1 0x0 DUP4 ADD DUP5 PUSH2 0x1009 JUMP JUMPDEST SWAP3 SWAP2 POP POP JUMP JUMPDEST PUSH1 0x0 PUSH1 0x20 DUP3 ADD SWAP1 POP DUP2 DUP2 SUB PUSH1 0x0 DUP4 ADD MSTORE PUSH2 0x1264 DUP2 DUP5 PUSH2 0x1018 JUMP JUMPDEST SWAP1 POP SWAP3 SWAP2 POP POP JUMP JUMPDEST PUSH1 0x0 PUSH1 0x20 DUP3 ADD SWAP1 POP DUP2 DUP2 SUB PUSH1 0x0 DUP4 ADD MSTORE PUSH2 0x1287 DUP2 DUP5 DUP7 PUSH2 0x1076 JUMP JUMPDEST SWAP1 POP SWAP4 SWAP3 POP POP POP JUMP JUMPDEST PUSH1 0x0 PUSH1 0x20 DUP3 ADD SWAP1 POP DUP2 DUP2 SUB PUSH1 0x0 DUP4 ADD MSTORE PUSH2 0x12AA DUP2 DUP5 PUSH2 0x10D2 JUMP JUMPDEST SWAP1 POP SWAP3 SWAP2 POP POP JUMP JUMPDEST PUSH1 0x0 PUSH1 0x20 DUP3 ADD SWAP1 POP PUSH2 0x12C7 PUSH1 0x0 DUP4 ADD DUP5 PUSH2 0x1130 JUMP JUMPDEST SWAP3 SWAP2 POP POP JUMP JUMPDEST PUSH1 0x0 PUSH1 0x20 DUP3 ADD SWAP1 POP DUP2 DUP2 SUB PUSH1 0x0 DUP4 ADD MSTORE PUSH2 0x12E6 DUP2 PUSH2 0x114E JUMP JUMPDEST SWAP1 POP SWAP2 SWAP1 POP JUMP JUMPDEST PUSH1 0x0 PUSH1 0x20 DUP3 ADD SWAP1 POP DUP2 DUP2 SUB PUSH1 0x0 DUP4 ADD MSTORE PUSH2 0x1306 DUP2 PUSH2 0x1171 JUMP JUMPDEST SWAP1 POP SWAP2 SWAP1 POP JUMP JUMPDEST PUSH1 0x0 PUSH1 0x20 DUP3 ADD SWAP1 POP DUP2 DUP2 SUB PUSH1 0x0 DUP4 ADD MSTORE PUSH2 0x1326 DUP2 PUSH2 0x1194 JUMP JUMPDEST SWAP1 POP SWAP2 SWAP1 POP JUMP JUMPDEST PUSH1 0x0 PUSH1 0x20 DUP3 ADD SWAP1 POP DUP2 DUP2 SUB PUSH1 0x0 DUP4 ADD MSTORE PUSH2 0x1346 DUP2 PUSH2 0x11B7 JUMP JUMPDEST SWAP1 POP SWAP2 SWAP1 POP JUMP JUMPDEST PUSH1 0x0 PUSH1 0x20 DUP3 ADD SWAP1 POP DUP2 DUP2 SUB PUSH1 0x0 DUP4 ADD MSTORE PUSH2 0x1366 DUP2 PUSH2 0x11DA JUMP JUMPDEST SWAP1 POP SWAP2 SWAP1 POP JUMP JUMPDEST PUSH1 0x0 PUSH1 0x20 DUP3 ADD SWAP1 POP DUP2 DUP2 SUB PUSH1 0x0 DUP4 ADD MSTORE PUSH2 0x1386 DUP2 PUSH2 0x11FD JUMP JUMPDEST SWAP1 POP SWAP2 SWAP1 POP JUMP JUMPDEST PUSH1 0x0 DUP2 SWAP1 POP PUSH1 0x20 DUP3 ADD SWAP1 POP SWAP2 SWAP1 POP JUMP JUMPDEST PUSH1 0x0 DUP2 SWAP1 POP PUSH1 0x20 DUP3 ADD SWAP1 POP SWAP2 SWAP1 POP JUMP JUMPDEST PUSH1 0x0 DUP2 MLOAD SWAP1 POP SWAP2 SWAP1 POP JUMP JUMPDEST PUSH1 0x0 DUP2 MLOAD SWAP1 POP SWAP2 SWAP1 POP JUMP JUMPDEST PUSH1 0x0 PUSH1 0x20 DUP3 ADD SWAP1 POP SWAP2 SWAP1 POP JUMP JUMPDEST PUSH1 0x0 PUSH1 0x20 DUP3 ADD SWAP1 POP SWAP2 SWAP1 POP JUMP JUMPDEST PUSH1 0x0 DUP3 DUP3 MSTORE PUSH1 0x20 DUP3 ADD SWAP1 POP SWAP3 SWAP2 POP POP JUMP JUMPDEST PUSH1 0x0 DUP3 DUP3 MSTORE PUSH1 0x20 DUP3 ADD SWAP1 POP SWAP3 SWAP2 POP POP JUMP JUMPDEST PUSH1 0x0 DUP3 DUP3 MSTORE PUSH1 0x20 DUP3 ADD SWAP1 POP SWAP3 SWAP2 POP POP JUMP JUMPDEST PUSH1 0x0 PUSH2 0x141B DUP3 PUSH2 0x1494 JUMP JUMPDEST SWAP2 POP PUSH2 0x1426 DUP4 PUSH2 0x1494 JUMP JUMPDEST SWAP3 POP DUP3 DUP3 LT ISZERO PUSH2 0x1439 JUMPI PUSH2 0x1438 PUSH2 0x152C JUMP JUMPDEST JUMPDEST DUP3 DUP3 SUB SWAP1 POP SWAP3 SWAP2 POP POP JUMP JUMPDEST PUSH1 0x0 PUSH2 0x144F DUP3 PUSH2 0x1474 JUMP JUMPDEST SWAP1 POP SWAP2 SWAP1 POP JUMP JUMPDEST PUSH1 0x0 DUP2 ISZERO ISZERO SWAP1 POP SWAP2 SWAP1 POP JUMP JUMPDEST PUSH1 0x0 PUSH2 0x146D DUP3 PUSH2 0x1444 JUMP JUMPDEST SWAP1 POP SWAP2 SWAP1 POP JUMP JUMPDEST PUSH1 0x0 PUSH20 0xFFFFFFFFFFFFFFFFFFFFFFFFFFFFFFFFFFFFFFFF DUP3 AND SWAP1 POP SWAP2 SWAP1 POP JUMP JUMPDEST PUSH1 0x0 DUP2 SWAP1 POP SWAP2 SWAP1 POP JUMP JUMPDEST PUSH1 0x0 PUSH2 0x14A9 DUP3 PUSH2 0x14B0 JUMP JUMPDEST SWAP1 POP SWAP2 SWAP1 POP JUMP JUMPDEST PUSH1 0x0 PUSH2 0x14BB DUP3 PUSH2 0x14C2 JUMP JUMPDEST SWAP1 POP SWAP2 SWAP1 POP JUMP JUMPDEST PUSH1 0x0 PUSH2 0x14CD DUP3 PUSH2 0x1474 JUMP JUMPDEST SWAP1 POP SWAP2 SWAP1 POP JUMP JUMPDEST DUP3 DUP2 DUP4 CALLDATACOPY PUSH1 0x0 DUP4 DUP4 ADD MSTORE POP POP POP JUMP JUMPDEST PUSH1 0x0 PUSH2 0x14EE DUP3 PUSH2 0x1494 JUMP JUMPDEST SWAP2 POP PUSH32 0xFFFFFFFFFFFFFFFFFFFFFFFFFFFFFFFFFFFFFFFFFFFFFFFFFFFFFFFFFFFFFFFF DUP3 EQ ISZERO PUSH2 0x1521 JUMPI PUSH2 0x1520 PUSH2 0x152C JUMP JUMPDEST JUMPDEST PUSH1 0x1 DUP3 ADD SWAP1 POP SWAP2 SWAP1 POP JUMP JUMPDEST PUSH32 0x4E487B7100000000000000000000000000000000000000000000000000000000 PUSH1 0x0 MSTORE PUSH1 0x11 PUSH1 0x4 MSTORE PUSH1 0x24 PUSH1 0x0 REVERT JUMPDEST PUSH32 0x4E487B7100000000000000000000000000000000000000000000000000000000 PUSH1 0x0 MSTORE PUSH1 0x31 PUSH1 0x4 MSTORE PUSH1 0x24 PUSH1 0x0 REVERT JUMPDEST PUSH32 0x4E487B7100000000000000000000000000000000000000000000000000000000 PUSH1 0x0 MSTORE PUSH1 0x32 PUSH1 0x4 MSTORE PUSH1 0x24 PUSH1 0x0 REVERT JUMPDEST PUSH1 0x0 DUP1 REVERT JUMPDEST PUSH1 0x0 DUP1 REVERT JUMPDEST PUSH1 0x0 DUP1 REVERT JUMPDEST PUSH1 0x0 DUP1 REVERT JUMPDEST PUSH1 0x0 DUP1 REVERT JUMPDEST PUSH1 0x0 DUP1 REVERT JUMPDEST PUSH32 0x747275737465642049737375657220646F65736E277420657869737400000000 PUSH1 0x0 DUP3 ADD MSTORE POP JUMP JUMPDEST PUSH32 0x4F776E61626C653A206E6577206F776E657220697320746865207A65726F2061 PUSH1 0x0 DUP3 ADD MSTORE PUSH32 0x6464726573730000000000000000000000000000000000000000000000000000 PUSH1 0x20 DUP3 ADD MSTORE POP JUMP JUMPDEST PUSH32 0x747275737465642049737375657220616C726561647920657869737473000000 PUSH1 0x0 DUP3 ADD MSTORE POP JUMP JUMPDEST PUSH32 0x4F776E61626C653A2063616C6C6572206973206E6F7420746865206F776E6572 PUSH1 0x0 DUP3 ADD MSTORE POP JUMP JUMPDEST PUSH32 0x7472757374656420636C61696D20746F706963732063616E6E6F742062652065 PUSH1 0x0 DUP3 ADD MSTORE PUSH32 0x6D70747900000000000000000000000000000000000000000000000000000000 PUSH1 0x20 DUP3 ADD MSTORE POP JUMP JUMPDEST PUSH32 0x636C61696D20746F706963732063616E6E6F7420626520656D70747900000000 PUSH1 0x0 DUP3 ADD MSTORE POP JUMP JUMPDEST PUSH2 0x1722 DUP2 PUSH2 0x1444 JUMP JUMPDEST DUP2 EQ PUSH2 0x172D JUMPI PUSH1 0x0 DUP1 REVERT JUMPDEST POP JUMP JUMPDEST PUSH2 0x1739 DUP2 PUSH2 0x1462 JUMP JUMPDEST DUP2 EQ PUSH2 0x1744 JUMPI PUSH1 0x0 DUP1 REVERT JUMPDEST POP JUMP JUMPDEST PUSH2 0x1750 DUP2 PUSH2 0x1494 JUMP JUMPDEST DUP2 EQ PUSH2 0x175B JUMPI PUSH1 0x0 DUP1 REVERT JUMPDEST POP JUMP INVALID LOG2 PUSH5 0x6970667358 0x22 SLT KECCAK256 0x4B JUMPDEST 0xBE PUSH14 0x5638490C9A48B0BEF04D04AF8BF8 DUP3 PUSH15 0xCF2143A93655C4ABC2EC1DA364736F PUSH13 0x63430008070033000000000000 "
				},
				"gasEstimates": {
					"creation": {
						"codeDepositCost": "1207200",
						"executionCost": "infinite",
						"totalCost": "infinite"
					},
					"external": {
						"addTrustedIssuer(address,uint256[])": "infinite",
						"getTrustedIssuerClaimTopics(address)": "infinite",
						"getTrustedIssuers()": "infinite",
						"hasClaimTopic(address,uint256)": "infinite",
						"isTrustedIssuer(address)": "infinite",
						"owner()": "2589",
						"removeTrustedIssuer(address)": "infinite",
						"renounceOwnership()": "30443",
						"transferOwnership(address)": "30857",
						"transferOwnershipOnIssuersRegistryContract(address)": "infinite",
						"updateIssuerClaimTopics(address,uint256[])": "infinite"
					}
				},
				"methodIdentifiers": {
					"addTrustedIssuer(address,uint256[])": "9f63ea98",
					"getTrustedIssuerClaimTopics(address)": "c28fb278",
					"getTrustedIssuers()": "d9dd24c5",
					"hasClaimTopic(address,uint256)": "34a89987",
					"isTrustedIssuer(address)": "ef2ed1a4",
					"owner()": "8da5cb5b",
					"removeTrustedIssuer(address)": "b93d28eb",
					"renounceOwnership()": "715018a6",
					"transferOwnership(address)": "f2fde38b",
					"transferOwnershipOnIssuersRegistryContract(address)": "e36dce28",
					"updateIssuerClaimTopics(address,uint256[])": "04bc7e84"
				}
			},
			"storageLayout": {
				"storage": [
					{
						"astId": 339,
						"contract": "contracts/registry/TrustedIssuersRegistry.sol:TrustedIssuersRegistry",
						"label": "_owner",
						"offset": 0,
						"slot": "0",
						"type": "t_address"
					},
					{
						"astId": 577,
						"contract": "contracts/registry/TrustedIssuersRegistry.sol:TrustedIssuersRegistry",
						"label": "trustedIssuers",
						"offset": 0,
						"slot": "1",
						"type": "t_array(t_contract(IClaimIssuer)44)dyn_storage"
					},
					{
						"astId": 583,
						"contract": "contracts/registry/TrustedIssuersRegistry.sol:TrustedIssuersRegistry",
						"label": "trustedIssuerClaimTopics",
						"offset": 0,
						"slot": "2",
						"type": "t_mapping(t_address,t_array(t_uint256)dyn_storage)"
					}
				],
				"types": {
					"t_address": {
						"encoding": "inplace",
						"label": "address",
						"numberOfBytes": "20"
					},
					"t_array(t_contract(IClaimIssuer)44)dyn_storage": {
						"base": "t_contract(IClaimIssuer)44",
						"encoding": "dynamic_array",
						"label": "contract IClaimIssuer[]",
						"numberOfBytes": "32"
					},
					"t_array(t_uint256)dyn_storage": {
						"base": "t_uint256",
						"encoding": "dynamic_array",
						"label": "uint256[]",
						"numberOfBytes": "32"
					},
					"t_contract(IClaimIssuer)44": {
						"encoding": "inplace",
						"label": "contract IClaimIssuer",
						"numberOfBytes": "20"
					},
					"t_mapping(t_address,t_array(t_uint256)dyn_storage)": {
						"encoding": "mapping",
						"key": "t_address",
						"label": "mapping(address => uint256[])",
						"numberOfBytes": "32",
						"value": "t_array(t_uint256)dyn_storage"
					},
					"t_uint256": {
						"encoding": "inplace",
						"label": "uint256",
						"numberOfBytes": "32"
					}
				}
			},
			"userdoc": {
				"events": {
					"ClaimTopicsUpdated(address,uint256[])": {
						"notice": "this event is emitted when the set of claim topics is changed for a given trusted issuer.  the event is emitted by the updateIssuerClaimTopics function  `trustedIssuer` is the address of the trusted issuer's ClaimIssuer contract  `claimTopics` is the set of claims that the trusted issuer is allowed to emit"
					},
					"TrustedIssuerAdded(address,uint256[])": {
						"notice": "this event is emitted when a trusted issuer is added in the registry.  the event is emitted by the addTrustedIssuer function  `trustedIssuer` is the address of the trusted issuer's ClaimIssuer contract  `claimTopics` is the set of claims that the trusted issuer is allowed to emit"
					},
					"TrustedIssuerRemoved(address)": {
						"notice": "this event is emitted when a trusted issuer is removed from the registry.  the event is emitted by the removeTrustedIssuer function  `trustedIssuer` is the address of the trusted issuer's ClaimIssuer contract"
					}
				},
				"kind": "user",
				"methods": {},
				"version": 1
			}
		}
	}
}