{
  "contractName": "AgentRoleUpgradeable",
  "abi": [
    {
      "anonymous": false,
      "inputs": [
        {
          "indexed": true,
          "internalType": "address",
          "name": "_agent",
          "type": "address"
        }
      ],
      "name": "AgentAdded",
      "type": "event"
    },
    {
      "anonymous": false,
      "inputs": [
        {
          "indexed": true,
          "internalType": "address",
          "name": "_agent",
          "type": "address"
        }
      ],
      "name": "AgentRemoved",
      "type": "event"
    },
    {
      "anonymous": false,
      "inputs": [
        {
          "indexed": true,
          "internalType": "address",
          "name": "previousOwner",
          "type": "address"
        },
        {
          "indexed": true,
          "internalType": "address",
          "name": "newOwner",
          "type": "address"
        }
      ],
      "name": "OwnershipTransferred",
      "type": "event"
    },
    {
      "inputs": [],
      "name": "owner",
      "outputs": [
        {
          "internalType": "address",
          "name": "",
          "type": "address"
        }
      ],
      "stateMutability": "view",
      "type": "function"
    },
    {
      "inputs": [],
      "name": "renounceOwnership",
      "outputs": [],
      "stateMutability": "nonpayable",
      "type": "function"
    },
    {
      "inputs": [
        {
          "internalType": "address",
          "name": "newOwner",
          "type": "address"
        }
      ],
      "name": "transferOwnership",
      "outputs": [],
      "stateMutability": "nonpayable",
      "type": "function"
    },
    {
      "inputs": [
        {
          "internalType": "address",
          "name": "_agent",
          "type": "address"
        }
      ],
      "name": "isAgent",
      "outputs": [
        {
          "internalType": "bool",
          "name": "",
          "type": "bool"
        }
      ],
      "stateMutability": "view",
      "type": "function"
    },
    {
      "inputs": [
        {
          "internalType": "address",
          "name": "_agent",
          "type": "address"
        }
      ],
      "name": "addAgent",
      "outputs": [],
      "stateMutability": "nonpayable",
      "type": "function"
    },
    {
      "inputs": [
        {
          "internalType": "address",
          "name": "_agent",
          "type": "address"
        }
      ],
      "name": "removeAgent",
      "outputs": [],
      "stateMutability": "nonpayable",
      "type": "function"
    }
  ],
  "bytecode": "0x608060405234801561001057600080fd5b5061055c806100206000396000f3fe608060405234801561001057600080fd5b50600436106100625760003560e01c80631ffbb06414610067578063715018a61461008f57806384e79842146100995780638da5cb5b146100ac57806397a6278e146100c7578063f2fde38b146100da575b600080fd5b61007a6100753660046104c1565b6100ed565b60405190151581526020015b60405180910390f35b610097610100565b005b6100976100a73660046104c1565b61017d565b6033546040516001600160a01b039091168152602001610086565b6100976100d53660046104c1565b6101e9565b6100976100e83660046104c1565b610255565b60006100fa606583610340565b92915050565b6033546001600160a01b031633146101335760405162461bcd60e51b815260040161012a906104f1565b60405180910390fd5b6033546040516000916001600160a01b0316907f8be0079c531659141344cd1fd0a4f28419497f9722a3daafe3b4186f6b6457e0908390a3603380546001600160a01b0319169055565b6033546001600160a01b031633146101a75760405162461bcd60e51b815260040161012a906104f1565b6101b26065826103c3565b6040516001600160a01b038216907ff68e73cec97f2d70aa641fb26e87a4383686e2efacb648f2165aeb02ac562ec590600090a250565b6033546001600160a01b031633146102135760405162461bcd60e51b815260040161012a906104f1565b61021e60658261043f565b6040516001600160a01b038216907fed9c8ad8d5a0a66898ea49d2956929c93ae2e8bd50281b2ed897c5d1a6737e0b90600090a250565b6033546001600160a01b0316331461027f5760405162461bcd60e51b815260040161012a906104f1565b6001600160a01b0381166102e45760405162461bcd60e51b815260206004820152602660248201527f4f776e61626c653a206e6577206f776e657220697320746865207a65726f206160448201526564647265737360d01b606482015260840161012a565b6033546040516001600160a01b038084169216907f8be0079c531659141344cd1fd0a4f28419497f9722a3daafe3b4186f6b6457e090600090a3603380546001600160a01b0319166001600160a01b0392909216919091179055565b60006001600160a01b0382166103a35760405162461bcd60e51b815260206004820152602260248201527f526f6c65733a206163636f756e7420697320746865207a65726f206164647265604482015261737360f01b606482015260840161012a565b506001600160a01b03166000908152602091909152604090205460ff1690565b6103cd8282610340565b1561041a5760405162461bcd60e51b815260206004820152601f60248201527f526f6c65733a206163636f756e7420616c72656164792068617320726f6c6500604482015260640161012a565b6001600160a01b0316600090815260209190915260409020805460ff19166001179055565b6104498282610340565b61049f5760405162461bcd60e51b815260206004820152602160248201527f526f6c65733a206163636f756e7420646f6573206e6f74206861766520726f6c6044820152606560f81b606482015260840161012a565b6001600160a01b0316600090815260209190915260409020805460ff19169055565b6000602082840312156104d357600080fd5b81356001600160a01b03811681146104ea57600080fd5b9392505050565b6020808252818101527f4f776e61626c653a2063616c6c6572206973206e6f7420746865206f776e657260408201526060019056fea264697066735822122072647e5626e0d8513a6a87e2c12515c5040f76fa1619bf0c93198d4b08b14e6364736f6c634300080f0033",
  "immutableReferences": {},
  "source": "// SPDX-License-Identifier: GPL-3.0\n/**\n *     NOTICE\n *\n *     The T-REX software is licensed under a proprietary license or the GPL v.3.\n *     If you choose to receive it under the GPL v.3 license, the following applies:\n *     T-REX is a suite of smart contracts developed by Tokeny to manage and transfer financial assets on the ethereum blockchain\n *\n *     Copyright (C) 2021, Tokeny srl.\n *\n *     This program is free software: you can redistribute it and/or modify\n *     it under the terms of the GNU General Public License as published by\n *     the Free Software Foundation, either version 3 of the License, or\n *     (at your option) any later version.\n *\n *     This program is distributed in the hope that it will be useful,\n *     but WITHOUT ANY WARRANTY; without even the implied warranty of\n *     MERCHANTABILITY or FITNESS FOR A PARTICULAR PURPOSE.  See the\n *     GNU General Public License for more details.\n *\n *     You should have received a copy of the GNU General Public License\n *     along with this program.  If not, see <https://www.gnu.org/licenses/>.\n */\n\npragma solidity ^0.8.0;\n\nimport '@openzeppelin/contracts-upgradeable/access/OwnableUpgradeable.sol';\n\nimport './Roles.sol';\n\ncontract AgentRoleUpgradeable is OwnableUpgradeable {\n    using Roles for Roles.Role;\n\n    event AgentAdded(address indexed _agent);\n    event AgentRemoved(address indexed _agent);\n\n    Roles.Role private _agents;\n\n    modifier onlyAgent() {\n        require(isAgent(msg.sender), 'AgentRole: caller does not have the Agent role');\n        _;\n    }\n\n    function isAgent(address _agent) public view returns (bool) {\n        return _agents.has(_agent);\n    }\n\n    function addAgent(address _agent) public onlyOwner {\n        _agents.add(_agent);\n        emit AgentAdded(_agent);\n    }\n\n    function removeAgent(address _agent) public onlyOwner {\n        _agents.remove(_agent);\n        emit AgentRemoved(_agent);\n    }\n}\n",
  "sourcePath": "/home/mayank/Desktop/security-token-5/Prototype--Craye-Realstate/T-REX/contracts/roles/AgentRoleUpgradeable.sol",
  "compiler": {
    "name": "solc",
    "version": "0.8.15+commit.e14f2714.Emscripten.clang"
  },
  "schemaVersion": "3.4.6",
  "updatedAt": "2022-08-03T10:43:51.434Z",
  "devdoc": {
    "kind": "dev",
    "methods": {
      "owner()": {
        "details": "Returns the address of the current owner."
      },
      "renounceOwnership()": {
        "details": "Leaves the contract without owner. It will not be possible to call `onlyOwner` functions anymore. Can only be called by the current owner. NOTE: Renouncing ownership will leave the contract without an owner, thereby removing any functionality that is only available to the owner."
      },
      "transferOwnership(address)": {
        "details": "Transfers ownership of the contract to a new account (`newOwner`). Can only be called by the current owner."
      }
    },
    "version": 1
  },
  "userdoc": {
    "kind": "user",
    "methods": {},
    "version": 1
  }
}