{
  "contractName": "AgentRolesUpgradeable",
  "abi": [
    {
      "anonymous": false,
      "inputs": [
        {
          "indexed": true,
          "internalType": "address",
          "name": "previousOwner",
          "type": "address"
        },
        {
          "indexed": true,
          "internalType": "address",
          "name": "newOwner",
          "type": "address"
        }
      ],
      "name": "OwnershipTransferred",
      "type": "event"
    },
    {
      "anonymous": false,
      "inputs": [
        {
          "indexed": true,
          "internalType": "address",
          "name": "_agent",
          "type": "address"
        },
        {
          "indexed": false,
          "internalType": "string",
          "name": "_role",
          "type": "string"
        }
      ],
      "name": "RoleAdded",
      "type": "event"
    },
    {
      "anonymous": false,
      "inputs": [
        {
          "indexed": true,
          "internalType": "address",
          "name": "_agent",
          "type": "address"
        },
        {
          "indexed": false,
          "internalType": "string",
          "name": "_role",
          "type": "string"
        }
      ],
      "name": "RoleRemoved",
      "type": "event"
    },
    {
      "inputs": [],
      "name": "owner",
      "outputs": [
        {
          "internalType": "address",
          "name": "",
          "type": "address"
        }
      ],
      "stateMutability": "view",
      "type": "function"
    },
    {
      "inputs": [],
      "name": "renounceOwnership",
      "outputs": [],
      "stateMutability": "nonpayable",
      "type": "function"
    },
    {
      "inputs": [
        {
          "internalType": "address",
          "name": "newOwner",
          "type": "address"
        }
      ],
      "name": "transferOwnership",
      "outputs": [],
      "stateMutability": "nonpayable",
      "type": "function"
    },
    {
      "inputs": [
        {
          "internalType": "address",
          "name": "_agent",
          "type": "address"
        }
      ],
      "name": "isAgentAdmin",
      "outputs": [
        {
          "internalType": "bool",
          "name": "",
          "type": "bool"
        }
      ],
      "stateMutability": "view",
      "type": "function"
    },
    {
      "inputs": [
        {
          "internalType": "address",
          "name": "_agent",
          "type": "address"
        }
      ],
      "name": "addAgentAdmin",
      "outputs": [],
      "stateMutability": "nonpayable",
      "type": "function"
    },
    {
      "inputs": [
        {
          "internalType": "address",
          "name": "_agent",
          "type": "address"
        }
      ],
      "name": "removeAgentAdmin",
      "outputs": [],
      "stateMutability": "nonpayable",
      "type": "function"
    },
    {
      "inputs": [
        {
          "internalType": "address",
          "name": "_agent",
          "type": "address"
        }
      ],
      "name": "isSupplyModifier",
      "outputs": [
        {
          "internalType": "bool",
          "name": "",
          "type": "bool"
        }
      ],
      "stateMutability": "view",
      "type": "function"
    },
    {
      "inputs": [
        {
          "internalType": "address",
          "name": "_agent",
          "type": "address"
        }
      ],
      "name": "addSupplyModifier",
      "outputs": [],
      "stateMutability": "nonpayable",
      "type": "function"
    },
    {
      "inputs": [
        {
          "internalType": "address",
          "name": "_agent",
          "type": "address"
        }
      ],
      "name": "removeSupplyModifier",
      "outputs": [],
      "stateMutability": "nonpayable",
      "type": "function"
    },
    {
      "inputs": [
        {
          "internalType": "address",
          "name": "_agent",
          "type": "address"
        }
      ],
      "name": "isFreezer",
      "outputs": [
        {
          "internalType": "bool",
          "name": "",
          "type": "bool"
        }
      ],
      "stateMutability": "view",
      "type": "function"
    },
    {
      "inputs": [
        {
          "internalType": "address",
          "name": "_agent",
          "type": "address"
        }
      ],
      "name": "addFreezer",
      "outputs": [],
      "stateMutability": "nonpayable",
      "type": "function"
    },
    {
      "inputs": [
        {
          "internalType": "address",
          "name": "_agent",
          "type": "address"
        }
      ],
      "name": "removeFreezer",
      "outputs": [],
      "stateMutability": "nonpayable",
      "type": "function"
    },
    {
      "inputs": [
        {
          "internalType": "address",
          "name": "_agent",
          "type": "address"
        }
      ],
      "name": "isTransferManager",
      "outputs": [
        {
          "internalType": "bool",
          "name": "",
          "type": "bool"
        }
      ],
      "stateMutability": "view",
      "type": "function"
    },
    {
      "inputs": [
        {
          "internalType": "address",
          "name": "_agent",
          "type": "address"
        }
      ],
      "name": "addTransferManager",
      "outputs": [],
      "stateMutability": "nonpayable",
      "type": "function"
    },
    {
      "inputs": [
        {
          "internalType": "address",
          "name": "_agent",
          "type": "address"
        }
      ],
      "name": "removeTransferManager",
      "outputs": [],
      "stateMutability": "nonpayable",
      "type": "function"
    },
    {
      "inputs": [
        {
          "internalType": "address",
          "name": "_agent",
          "type": "address"
        }
      ],
      "name": "isRecoveryAgent",
      "outputs": [
        {
          "internalType": "bool",
          "name": "",
          "type": "bool"
        }
      ],
      "stateMutability": "view",
      "type": "function"
    },
    {
      "inputs": [
        {
          "internalType": "address",
          "name": "_agent",
          "type": "address"
        }
      ],
      "name": "addRecoveryAgent",
      "outputs": [],
      "stateMutability": "nonpayable",
      "type": "function"
    },
    {
      "inputs": [
        {
          "internalType": "address",
          "name": "_agent",
          "type": "address"
        }
      ],
      "name": "removeRecoveryAgent",
      "outputs": [],
      "stateMutability": "nonpayable",
      "type": "function"
    },
    {
      "inputs": [
        {
          "internalType": "address",
          "name": "_agent",
          "type": "address"
        }
      ],
      "name": "isComplianceAgent",
      "outputs": [
        {
          "internalType": "bool",
          "name": "",
          "type": "bool"
        }
      ],
      "stateMutability": "view",
      "type": "function"
    },
    {
      "inputs": [
        {
          "internalType": "address",
          "name": "_agent",
          "type": "address"
        }
      ],
      "name": "addComplianceAgent",
      "outputs": [],
      "stateMutability": "nonpayable",
      "type": "function"
    },
    {
      "inputs": [
        {
          "internalType": "address",
          "name": "_agent",
          "type": "address"
        }
      ],
      "name": "removeComplianceAgent",
      "outputs": [],
      "stateMutability": "nonpayable",
      "type": "function"
    },
    {
      "inputs": [
        {
          "internalType": "address",
          "name": "_agent",
          "type": "address"
        }
      ],
      "name": "isWhiteListManager",
      "outputs": [
        {
          "internalType": "bool",
          "name": "",
          "type": "bool"
        }
      ],
      "stateMutability": "view",
      "type": "function"
    },
    {
      "inputs": [
        {
          "internalType": "address",
          "name": "_agent",
          "type": "address"
        }
      ],
      "name": "addWhiteListManager",
      "outputs": [],
      "stateMutability": "nonpayable",
      "type": "function"
    },
    {
      "inputs": [
        {
          "internalType": "address",
          "name": "_agent",
          "type": "address"
        }
      ],
      "name": "removeWhiteListManager",
      "outputs": [],
      "stateMutability": "nonpayable",
      "type": "function"
    }
  ],
  "bytecode": "0x608060405234801561001057600080fd5b506110c3806100206000396000f3fe608060405234801561001057600080fd5b50600436106101585760003560e01c8063715018a6116100c3578063bd92fcfe1161007c578063bd92fcfe146102c7578063c6006c9a146102da578063c8777b50146102ed578063cdf1b69314610300578063e86c643114610313578063f2fde38b1461032657600080fd5b8063715018a6146102585780637489453d146102605780637ad78a4614610273578063860a2bcf146102865780638da5cb5b14610299578063965e61ea146102b457600080fd5b80633cdf8000116101155780633cdf8000146101e65780634599fb7b146101f95780634aff432c1461020c578063526606c91461021f57806365d07b2e146102325780636c65fd6a1461024557600080fd5b8063042a36061461015d57806314f2d2761461018557806315d8ca621461019a5780632001c350146101ad5780632acd2000146101c05780633966904d146101d3575b600080fd5b61017061016b366004610f91565b610339565b60405190151581526020015b60405180910390f35b610198610193366004610f91565b61034c565b005b6101986101a8366004610f91565b610401565b6101706101bb366004610f91565b6104a0565b6101986101ce366004610f91565b6104ad565b6101986101e1366004610f91565b610545565b6101986101f4366004610f91565b6105e6565b610170610207366004610f91565b610686565b61019861021a366004610f91565b610693565b61019861022d366004610f91565b610734565b610198610240366004610f91565b6107cc565b610170610253366004610f91565b610867565b610198610874565b61019861026e366004610f91565b610918565b610170610281366004610f91565b6109b6565b610198610294366004610f91565b6109c3565b6033546040516001600160a01b03909116815260200161017c565b6101986102c2366004610f91565b610a62565b6101706102d5366004610f91565b610b02565b6101986102e8366004610f91565b610b0f565b6101986102fb366004610f91565b610baf565b61019861030e366004610f91565b610c4d565b610170610321366004610f91565b610ce8565b610198610334366004610f91565b610cf5565b6000610346606583610e10565b92915050565b3361035f6033546001600160a01b031690565b6001600160a01b03161480610378575061037833610686565b61039d5760405162461bcd60e51b815260040161039490610fc1565b60405180910390fd5b6103a8606782610e93565b604080518082018252600f81526e2a3930b739b332b926b0b730b3b2b960891b602082015290516001600160a01b0383169060008051602061106e833981519152906103f5908490610ff8565b60405180910390a25050565b336104146033546001600160a01b031690565b6001600160a01b0316148061042d575061042d33610686565b6104495760405162461bcd60e51b815260040161039490610fc1565b610454606582610e93565b604080518082018252600e81526d29bab838363ca6b7b234b334b2b960911b602082015290516001600160a01b0383169060008051602061106e833981519152906103f5908490610ff8565b6000610346606983610e10565b336104c06033546001600160a01b031690565b6001600160a01b031614806104d957506104d933610686565b6104f55760405162461bcd60e51b815260040161039490610fc1565b610500606682610f0f565b6040805180820182526007815266233932b2bd32b960c91b602082015290516001600160a01b0383169060008051602061104e833981519152906103f5908490610ff8565b336105586033546001600160a01b031690565b6001600160a01b03161480610571575061057133610686565b61058d5760405162461bcd60e51b815260040161039490610fc1565b610598606a82610e93565b604080518082018252601081526f2bb434ba32a634b9ba26b0b730b3b2b960811b602082015290516001600160a01b0383169060008051602061106e833981519152906103f5908490610ff8565b336105f96033546001600160a01b031690565b6001600160a01b03161480610612575061061233610686565b61062e5760405162461bcd60e51b815260040161039490610fc1565b610639606982610e93565b604080518082018252600f81526e10dbdb5c1b1a585b98d95059d95b9d608a1b602082015290516001600160a01b0383169060008051602061106e833981519152906103f5908490610ff8565b6000610346606b83610e10565b336106a66033546001600160a01b031690565b6001600160a01b031614806106bf57506106bf33610686565b6106db5760405162461bcd60e51b815260040161039490610fc1565b6106e6606a82610f0f565b604080518082018252601081526f2bb434ba32a634b9ba26b0b730b3b2b960811b602082015290516001600160a01b0383169060008051602061104e833981519152906103f5908490610ff8565b336107476033546001600160a01b031690565b6001600160a01b03161480610760575061076033610686565b61077c5760405162461bcd60e51b815260040161039490610fc1565b610787606682610e93565b6040805180820182526007815266233932b2bd32b960c91b602082015290516001600160a01b0383169060008051602061106e833981519152906103f5908490610ff8565b336107df6033546001600160a01b031690565b6001600160a01b031614806107f857506107f833610686565b6108145760405162461bcd60e51b815260040161039490610fc1565b61081f606b82610f0f565b604080518082018252600a81526920b3b2b73a20b236b4b760b11b602082015290516001600160a01b0383169060008051602061104e833981519152906103f5908490610ff8565b6000610346606683610e10565b6033546001600160a01b031633146108ce5760405162461bcd60e51b815260206004820181905260248201527f4f776e61626c653a2063616c6c6572206973206e6f7420746865206f776e65726044820152606401610394565b6033546040516000916001600160a01b0316907f8be0079c531659141344cd1fd0a4f28419497f9722a3daafe3b4186f6b6457e0908390a3603380546001600160a01b0319169055565b3361092b6033546001600160a01b031690565b6001600160a01b03161480610944575061094433610686565b6109605760405162461bcd60e51b815260040161039490610fc1565b61096b606882610e93565b604080518082018252600d81526c149958dbdd995c9e5059d95b9d609a1b602082015290516001600160a01b0383169060008051602061106e833981519152906103f5908490610ff8565b6000610346606883610e10565b336109d66033546001600160a01b031690565b6001600160a01b031614806109ef57506109ef33610686565b610a0b5760405162461bcd60e51b815260040161039490610fc1565b610a16606582610f0f565b604080518082018252600e81526d29bab838363ca6b7b234b334b2b960911b602082015290516001600160a01b0383169060008051602061104e833981519152906103f5908490610ff8565b33610a756033546001600160a01b031690565b6001600160a01b03161480610a8e5750610a8e33610686565b610aaa5760405162461bcd60e51b815260040161039490610fc1565b610ab5606782610f0f565b604080518082018252600f81526e2a3930b739b332b926b0b730b3b2b960891b602082015290516001600160a01b0383169060008051602061104e833981519152906103f5908490610ff8565b6000610346606a83610e10565b33610b226033546001600160a01b031690565b6001600160a01b03161480610b3b5750610b3b33610686565b610b575760405162461bcd60e51b815260040161039490610fc1565b610b62606982610f0f565b604080518082018252600f81526e10dbdb5c1b1a585b98d95059d95b9d608a1b602082015290516001600160a01b0383169060008051602061104e833981519152906103f5908490610ff8565b33610bc26033546001600160a01b031690565b6001600160a01b03161480610bdb5750610bdb33610686565b610bf75760405162461bcd60e51b815260040161039490610fc1565b610c02606882610f0f565b604080518082018252600d81526c149958dbdd995c9e5059d95b9d609a1b602082015290516001600160a01b0383169060008051602061104e833981519152906103f5908490610ff8565b33610c606033546001600160a01b031690565b6001600160a01b03161480610c795750610c7933610686565b610c955760405162461bcd60e51b815260040161039490610fc1565b610ca0606b82610e93565b604080518082018252600a81526920b3b2b73a20b236b4b760b11b602082015290516001600160a01b0383169060008051602061106e833981519152906103f5908490610ff8565b6000610346606783610e10565b6033546001600160a01b03163314610d4f5760405162461bcd60e51b815260206004820181905260248201527f4f776e61626c653a2063616c6c6572206973206e6f7420746865206f776e65726044820152606401610394565b6001600160a01b038116610db45760405162461bcd60e51b815260206004820152602660248201527f4f776e61626c653a206e6577206f776e657220697320746865207a65726f206160448201526564647265737360d01b6064820152608401610394565b6033546040516001600160a01b038084169216907f8be0079c531659141344cd1fd0a4f28419497f9722a3daafe3b4186f6b6457e090600090a3603380546001600160a01b0319166001600160a01b0392909216919091179055565b60006001600160a01b038216610e735760405162461bcd60e51b815260206004820152602260248201527f526f6c65733a206163636f756e7420697320746865207a65726f206164647265604482015261737360f01b6064820152608401610394565b506001600160a01b03166000908152602091909152604090205460ff1690565b610e9d8282610e10565b15610eea5760405162461bcd60e51b815260206004820152601f60248201527f526f6c65733a206163636f756e7420616c72656164792068617320726f6c65006044820152606401610394565b6001600160a01b0316600090815260209190915260409020805460ff19166001179055565b610f198282610e10565b610f6f5760405162461bcd60e51b815260206004820152602160248201527f526f6c65733a206163636f756e7420646f6573206e6f74206861766520726f6c6044820152606560f81b6064820152608401610394565b6001600160a01b0316600090815260209190915260409020805460ff19169055565b600060208284031215610fa357600080fd5b81356001600160a01b0381168114610fba57600080fd5b9392505050565b60208082526019908201527f526f6c653a2053656e646572206973204e4f542041646d696e00000000000000604082015260600190565b600060208083528351808285015260005b8181101561102557858101830151858201604001528201611009565b81811115611037576000604083870101525b50601f01601f191692909201604001939250505056fed211483f91fc6eff862467f8de606587a30c8fc9981056f051b897a418df803abfec83d64eaa953f2708271a023ab9ee82057f8f3578d548c1a4ba0b5b700489a264697066735822122087bb9cc360665734edbce44ed7647bc8ff9e213778d8c8f80413389dede0e73b64736f6c634300080f0033",
  "immutableReferences": {},
  "source": "// SPDX-License-Identifier: GPL-3.0\n/**\n *     NOTICE\n *\n *     The T-REX software is licensed under a proprietary license or the GPL v.3.\n *     If you choose to receive it under the GPL v.3 license, the following applies:\n *     T-REX is a suite of smart contracts developed by Tokeny to manage and transfer financial assets on the ethereum blockchain\n *\n *     Copyright (C) 2021, Tokeny srl.\n *\n *     This program is free software: you can redistribute it and/or modify\n *     it under the terms of the GNU General Public License as published by\n *     the Free Software Foundation, either version 3 of the License, or\n *     (at your option) any later version.\n *\n *     This program is distributed in the hope that it will be useful,\n *     but WITHOUT ANY WARRANTY; without even the implied warranty of\n *     MERCHANTABILITY or FITNESS FOR A PARTICULAR PURPOSE.  See the\n *     GNU General Public License for more details.\n *\n *     You should have received a copy of the GNU General Public License\n *     along with this program.  If not, see <https://www.gnu.org/licenses/>.\n */\n\npragma solidity ^0.8.0;\n\nimport '@openzeppelin/contracts-upgradeable/access/OwnableUpgradeable.sol';\n\nimport './Roles.sol';\n\ncontract AgentRolesUpgradeable is OwnableUpgradeable\n\n {\n    using Roles for Roles.Role;\n\n    event RoleAdded(address indexed _agent, string _role);\n    event RoleRemoved(address indexed _agent, string _role);\n\n    Roles.Role private _supplyModifiers;\n    Roles.Role private _freezers;\n    Roles.Role private _transferManagers;\n    Roles.Role private _recoveryAgents;\n    Roles.Role private _complianceAgents;\n    Roles.Role private _whiteListManagers;\n    Roles.Role private _agentAdmin;\n\n    modifier onlyAdmin() {\n        require(owner() == msg.sender || isAgentAdmin(_msgSender()), 'Role: Sender is NOT Admin');\n        _;\n    }\n\n    /// @dev AgentAdmin Role _agentAdmin\n\n    function isAgentAdmin(address _agent) public view returns (bool) {\n        return _agentAdmin.has(_agent);\n    }\n\n    function addAgentAdmin(address _agent) external onlyAdmin {\n        _agentAdmin.add(_agent);\n        string memory _role = 'AgentAdmin';\n        emit RoleAdded(_agent, _role);\n    }\n\n    function removeAgentAdmin(address _agent) external onlyAdmin {\n        _agentAdmin.remove(_agent);\n        string memory _role = 'AgentAdmin';\n        emit RoleRemoved(_agent, _role);\n    }\n\n    /// @dev SupplyModifier Role _supplyModifiers\n\n    function isSupplyModifier(address _agent) public view returns (bool) {\n        return _supplyModifiers.has(_agent);\n    }\n\n    function addSupplyModifier(address _agent) external onlyAdmin {\n        _supplyModifiers.add(_agent);\n        string memory _role = 'SupplyModifier';\n        emit RoleAdded(_agent, _role);\n    }\n\n    function removeSupplyModifier(address _agent) external onlyAdmin {\n        _supplyModifiers.remove(_agent);\n        string memory _role = 'SupplyModifier';\n        emit RoleRemoved(_agent, _role);\n    }\n\n    /// @dev Freezer Role _freezers\n\n    function isFreezer(address _agent) public view returns (bool) {\n        return _freezers.has(_agent);\n    }\n\n    function addFreezer(address _agent) external onlyAdmin {\n        _freezers.add(_agent);\n        string memory _role = 'Freezer';\n        emit RoleAdded(_agent, _role);\n    }\n\n    function removeFreezer(address _agent) external onlyAdmin {\n        _freezers.remove(_agent);\n        string memory _role = 'Freezer';\n        emit RoleRemoved(_agent, _role);\n    }\n\n    /// @dev TransferManager Role _transferManagers\n\n    function isTransferManager(address _agent) public view returns (bool) {\n        return _transferManagers.has(_agent);\n    }\n\n    function addTransferManager(address _agent) external onlyAdmin {\n        _transferManagers.add(_agent);\n        string memory _role = 'TransferManager';\n        emit RoleAdded(_agent, _role);\n    }\n\n    function removeTransferManager(address _agent) external onlyAdmin {\n        _transferManagers.remove(_agent);\n        string memory _role = 'TransferManager';\n        emit RoleRemoved(_agent, _role);\n    }\n\n    /// @dev RecoveryAgent Role _recoveryAgents\n\n    function isRecoveryAgent(address _agent) public view returns (bool) {\n        return _recoveryAgents.has(_agent);\n    }\n\n    function addRecoveryAgent(address _agent) external onlyAdmin {\n        _recoveryAgents.add(_agent);\n        string memory _role = 'RecoveryAgent';\n        emit RoleAdded(_agent, _role);\n    }\n\n    function removeRecoveryAgent(address _agent) external onlyAdmin {\n        _recoveryAgents.remove(_agent);\n        string memory _role = 'RecoveryAgent';\n        emit RoleRemoved(_agent, _role);\n    }\n\n    /// @dev ComplianceAgent Role _complianceAgents\n\n    function isComplianceAgent(address _agent) public view returns (bool) {\n        return _complianceAgents.has(_agent);\n    }\n\n    function addComplianceAgent(address _agent) external onlyAdmin {\n        _complianceAgents.add(_agent);\n        string memory _role = 'ComplianceAgent';\n        emit RoleAdded(_agent, _role);\n    }\n\n    function removeComplianceAgent(address _agent) external onlyAdmin {\n        _complianceAgents.remove(_agent);\n        string memory _role = 'ComplianceAgent';\n        emit RoleRemoved(_agent, _role);\n    }\n\n    /// @dev WhiteListManager Role _whiteListManagers\n\n    function isWhiteListManager(address _agent) public view returns (bool) {\n        return _whiteListManagers.has(_agent);\n    }\n\n    function addWhiteListManager(address _agent) external onlyAdmin {\n        _whiteListManagers.add(_agent);\n        string memory _role = 'WhiteListManager';\n        emit RoleAdded(_agent, _role);\n    }\n\n    function removeWhiteListManager(address _agent) external onlyAdmin {\n        _whiteListManagers.remove(_agent);\n        string memory _role = 'WhiteListManager';\n        emit RoleRemoved(_agent, _role);\n    }\n}\n",
  "sourcePath": "/home/mayank/Desktop/security-token-5/Prototype--Craye-Realstate/T-REX/contracts/roles/AgentRolesUpgradeable.sol",
  "compiler": {
    "name": "solc",
    "version": "0.8.15+commit.e14f2714.Emscripten.clang"
  },
  "schemaVersion": "3.4.6",
  "updatedAt": "2022-08-03T10:43:51.454Z",
  "devdoc": {
    "kind": "dev",
    "methods": {
      "isAgentAdmin(address)": {
        "details": "AgentAdmin Role _agentAdmin"
      },
      "isComplianceAgent(address)": {
        "details": "ComplianceAgent Role _complianceAgents"
      },
      "isFreezer(address)": {
        "details": "Freezer Role _freezers"
      },
      "isRecoveryAgent(address)": {
        "details": "RecoveryAgent Role _recoveryAgents"
      },
      "isSupplyModifier(address)": {
        "details": "SupplyModifier Role _supplyModifiers"
      },
      "isTransferManager(address)": {
        "details": "TransferManager Role _transferManagers"
      },
      "isWhiteListManager(address)": {
        "details": "WhiteListManager Role _whiteListManagers"
      },
      "owner()": {
        "details": "Returns the address of the current owner."
      },
      "renounceOwnership()": {
        "details": "Leaves the contract without owner. It will not be possible to call `onlyOwner` functions anymore. Can only be called by the current owner. NOTE: Renouncing ownership will leave the contract without an owner, thereby removing any functionality that is only available to the owner."
      },
      "transferOwnership(address)": {
        "details": "Transfers ownership of the contract to a new account (`newOwner`). Can only be called by the current owner."
      }
    },
    "version": 1
  },
  "userdoc": {
    "kind": "user",
    "methods": {},
    "version": 1
  }
}