{
  "contractName": "ClaimIssuer",
  "abi": [
    {
      "inputs": [
        {
          "internalType": "address",
          "name": "initialManagementKey",
          "type": "address"
        }
      ],
      "stateMutability": "nonpayable",
      "type": "constructor"
    },
    {
      "anonymous": false,
      "inputs": [
        {
          "indexed": true,
          "internalType": "uint256",
          "name": "executionId",
          "type": "uint256"
        },
        {
          "indexed": false,
          "internalType": "bool",
          "name": "approved",
          "type": "bool"
        }
      ],
      "name": "Approved",
      "type": "event"
    },
    {
      "anonymous": false,
      "inputs": [
        {
          "indexed": true,
          "internalType": "bytes32",
          "name": "claimId",
          "type": "bytes32"
        },
        {
          "indexed": true,
          "internalType": "uint256",
          "name": "topic",
          "type": "uint256"
        },
        {
          "indexed": false,
          "internalType": "uint256",
          "name": "scheme",
          "type": "uint256"
        },
        {
          "indexed": true,
          "internalType": "address",
          "name": "issuer",
          "type": "address"
        },
        {
          "indexed": false,
          "internalType": "bytes",
          "name": "signature",
          "type": "bytes"
        },
        {
          "indexed": false,
          "internalType": "bytes",
          "name": "data",
          "type": "bytes"
        },
        {
          "indexed": false,
          "internalType": "string",
          "name": "uri",
          "type": "string"
        }
      ],
      "name": "ClaimAdded",
      "type": "event"
    },
    {
      "anonymous": false,
      "inputs": [
        {
          "indexed": true,
          "internalType": "bytes32",
          "name": "claimId",
          "type": "bytes32"
        },
        {
          "indexed": true,
          "internalType": "uint256",
          "name": "topic",
          "type": "uint256"
        },
        {
          "indexed": false,
          "internalType": "uint256",
          "name": "scheme",
          "type": "uint256"
        },
        {
          "indexed": true,
          "internalType": "address",
          "name": "issuer",
          "type": "address"
        },
        {
          "indexed": false,
          "internalType": "bytes",
          "name": "signature",
          "type": "bytes"
        },
        {
          "indexed": false,
          "internalType": "bytes",
          "name": "data",
          "type": "bytes"
        },
        {
          "indexed": false,
          "internalType": "string",
          "name": "uri",
          "type": "string"
        }
      ],
      "name": "ClaimChanged",
      "type": "event"
    },
    {
      "anonymous": false,
      "inputs": [
        {
          "indexed": true,
          "internalType": "bytes32",
          "name": "claimId",
          "type": "bytes32"
        },
        {
          "indexed": true,
          "internalType": "uint256",
          "name": "topic",
          "type": "uint256"
        },
        {
          "indexed": false,
          "internalType": "uint256",
          "name": "scheme",
          "type": "uint256"
        },
        {
          "indexed": true,
          "internalType": "address",
          "name": "issuer",
          "type": "address"
        },
        {
          "indexed": false,
          "internalType": "bytes",
          "name": "signature",
          "type": "bytes"
        },
        {
          "indexed": false,
          "internalType": "bytes",
          "name": "data",
          "type": "bytes"
        },
        {
          "indexed": false,
          "internalType": "string",
          "name": "uri",
          "type": "string"
        }
      ],
      "name": "ClaimRemoved",
      "type": "event"
    },
    {
      "anonymous": false,
      "inputs": [
        {
          "indexed": true,
          "internalType": "uint256",
          "name": "claimRequestId",
          "type": "uint256"
        },
        {
          "indexed": true,
          "internalType": "uint256",
          "name": "topic",
          "type": "uint256"
        },
        {
          "indexed": false,
          "internalType": "uint256",
          "name": "scheme",
          "type": "uint256"
        },
        {
          "indexed": true,
          "internalType": "address",
          "name": "issuer",
          "type": "address"
        },
        {
          "indexed": false,
          "internalType": "bytes",
          "name": "signature",
          "type": "bytes"
        },
        {
          "indexed": false,
          "internalType": "bytes",
          "name": "data",
          "type": "bytes"
        },
        {
          "indexed": false,
          "internalType": "string",
          "name": "uri",
          "type": "string"
        }
      ],
      "name": "ClaimRequested",
      "type": "event"
    },
    {
      "anonymous": false,
      "inputs": [
        {
          "indexed": true,
          "internalType": "uint256",
          "name": "executionId",
          "type": "uint256"
        },
        {
          "indexed": true,
          "internalType": "address",
          "name": "to",
          "type": "address"
        },
        {
          "indexed": true,
          "internalType": "uint256",
          "name": "value",
          "type": "uint256"
        },
        {
          "indexed": false,
          "internalType": "bytes",
          "name": "data",
          "type": "bytes"
        }
      ],
      "name": "Executed",
      "type": "event"
    },
    {
      "anonymous": false,
      "inputs": [
        {
          "indexed": true,
          "internalType": "uint256",
          "name": "executionId",
          "type": "uint256"
        },
        {
          "indexed": true,
          "internalType": "address",
          "name": "to",
          "type": "address"
        },
        {
          "indexed": true,
          "internalType": "uint256",
          "name": "value",
          "type": "uint256"
        },
        {
          "indexed": false,
          "internalType": "bytes",
          "name": "data",
          "type": "bytes"
        }
      ],
      "name": "ExecutionFailed",
      "type": "event"
    },
    {
      "anonymous": false,
      "inputs": [
        {
          "indexed": true,
          "internalType": "uint256",
          "name": "executionId",
          "type": "uint256"
        },
        {
          "indexed": true,
          "internalType": "address",
          "name": "to",
          "type": "address"
        },
        {
          "indexed": true,
          "internalType": "uint256",
          "name": "value",
          "type": "uint256"
        },
        {
          "indexed": false,
          "internalType": "bytes",
          "name": "data",
          "type": "bytes"
        }
      ],
      "name": "ExecutionRequested",
      "type": "event"
    },
    {
      "anonymous": false,
      "inputs": [
        {
          "indexed": true,
          "internalType": "bytes32",
          "name": "key",
          "type": "bytes32"
        },
        {
          "indexed": true,
          "internalType": "uint256",
          "name": "purpose",
          "type": "uint256"
        },
        {
          "indexed": true,
          "internalType": "uint256",
          "name": "keyType",
          "type": "uint256"
        }
      ],
      "name": "KeyAdded",
      "type": "event"
    },
    {
      "anonymous": false,
      "inputs": [
        {
          "indexed": true,
          "internalType": "bytes32",
          "name": "key",
          "type": "bytes32"
        },
        {
          "indexed": true,
          "internalType": "uint256",
          "name": "purpose",
          "type": "uint256"
        },
        {
          "indexed": true,
          "internalType": "uint256",
          "name": "keyType",
          "type": "uint256"
        }
      ],
      "name": "KeyRemoved",
      "type": "event"
    },
    {
      "anonymous": false,
      "inputs": [
        {
          "indexed": false,
          "internalType": "uint256",
          "name": "purpose",
          "type": "uint256"
        },
        {
          "indexed": false,
          "internalType": "uint256",
          "name": "number",
          "type": "uint256"
        }
      ],
      "name": "KeysRequiredChanged",
      "type": "event"
    },
    {
      "inputs": [
        {
          "internalType": "uint256",
          "name": "_topic",
          "type": "uint256"
        },
        {
          "internalType": "uint256",
          "name": "_scheme",
          "type": "uint256"
        },
        {
          "internalType": "address",
          "name": "_issuer",
          "type": "address"
        },
        {
          "internalType": "bytes",
          "name": "_signature",
          "type": "bytes"
        },
        {
          "internalType": "bytes",
          "name": "_data",
          "type": "bytes"
        },
        {
          "internalType": "string",
          "name": "_uri",
          "type": "string"
        }
      ],
      "name": "addClaim",
      "outputs": [
        {
          "internalType": "bytes32",
          "name": "claimRequestId",
          "type": "bytes32"
        }
      ],
      "stateMutability": "nonpayable",
      "type": "function"
    },
    {
      "inputs": [
        {
          "internalType": "bytes32",
          "name": "_key",
          "type": "bytes32"
        },
        {
          "internalType": "uint256",
          "name": "_purpose",
          "type": "uint256"
        },
        {
          "internalType": "uint256",
          "name": "_type",
          "type": "uint256"
        }
      ],
      "name": "addKey",
      "outputs": [
        {
          "internalType": "bool",
          "name": "success",
          "type": "bool"
        }
      ],
      "stateMutability": "nonpayable",
      "type": "function"
    },
    {
      "inputs": [
        {
          "internalType": "uint256",
          "name": "_id",
          "type": "uint256"
        },
        {
          "internalType": "bool",
          "name": "_approve",
          "type": "bool"
        }
      ],
      "name": "approve",
      "outputs": [
        {
          "internalType": "bool",
          "name": "success",
          "type": "bool"
        }
      ],
      "stateMutability": "nonpayable",
      "type": "function"
    },
    {
      "inputs": [
        {
          "internalType": "address",
          "name": "_to",
          "type": "address"
        },
        {
          "internalType": "uint256",
          "name": "_value",
          "type": "uint256"
        },
        {
          "internalType": "bytes",
          "name": "_data",
          "type": "bytes"
        }
      ],
      "name": "execute",
      "outputs": [
        {
          "internalType": "uint256",
          "name": "executionId",
          "type": "uint256"
        }
      ],
      "stateMutability": "payable",
      "type": "function"
    },
    {
      "inputs": [
        {
          "internalType": "bytes32",
          "name": "_claimId",
          "type": "bytes32"
        }
      ],
      "name": "getClaim",
      "outputs": [
        {
          "internalType": "uint256",
          "name": "topic",
          "type": "uint256"
        },
        {
          "internalType": "uint256",
          "name": "scheme",
          "type": "uint256"
        },
        {
          "internalType": "address",
          "name": "issuer",
          "type": "address"
        },
        {
          "internalType": "bytes",
          "name": "signature",
          "type": "bytes"
        },
        {
          "internalType": "bytes",
          "name": "data",
          "type": "bytes"
        },
        {
          "internalType": "string",
          "name": "uri",
          "type": "string"
        }
      ],
      "stateMutability": "view",
      "type": "function"
    },
    {
      "inputs": [
        {
          "internalType": "uint256",
          "name": "_topic",
          "type": "uint256"
        }
      ],
      "name": "getClaimIdsByTopic",
      "outputs": [
        {
          "internalType": "bytes32[]",
          "name": "claimIds",
          "type": "bytes32[]"
        }
      ],
      "stateMutability": "view",
      "type": "function"
    },
    {
      "inputs": [
        {
          "internalType": "bytes32",
          "name": "_key",
          "type": "bytes32"
        }
      ],
      "name": "getKey",
      "outputs": [
        {
          "internalType": "uint256[]",
          "name": "purposes",
          "type": "uint256[]"
        },
        {
          "internalType": "uint256",
          "name": "keyType",
          "type": "uint256"
        },
        {
          "internalType": "bytes32",
          "name": "key",
          "type": "bytes32"
        }
      ],
      "stateMutability": "view",
      "type": "function"
    },
    {
      "inputs": [
        {
          "internalType": "bytes32",
          "name": "_key",
          "type": "bytes32"
        }
      ],
      "name": "getKeyPurposes",
      "outputs": [
        {
          "internalType": "uint256[]",
          "name": "_purposes",
          "type": "uint256[]"
        }
      ],
      "stateMutability": "view",
      "type": "function"
    },
    {
      "inputs": [
        {
          "internalType": "uint256",
          "name": "_purpose",
          "type": "uint256"
        }
      ],
      "name": "getKeysByPurpose",
      "outputs": [
        {
          "internalType": "bytes32[]",
          "name": "_keys",
          "type": "bytes32[]"
        }
      ],
      "stateMutability": "view",
      "type": "function"
    },
    {
      "inputs": [
        {
          "internalType": "address",
          "name": "initialManagementKey",
          "type": "address"
        }
      ],
      "name": "initialize",
      "outputs": [],
      "stateMutability": "nonpayable",
      "type": "function"
    },
    {
      "inputs": [
        {
          "internalType": "bytes32",
          "name": "_key",
          "type": "bytes32"
        },
        {
          "internalType": "uint256",
          "name": "_purpose",
          "type": "uint256"
        }
      ],
      "name": "keyHasPurpose",
      "outputs": [
        {
          "internalType": "bool",
          "name": "result",
          "type": "bool"
        }
      ],
      "stateMutability": "view",
      "type": "function"
    },
    {
      "inputs": [
        {
          "internalType": "bytes32",
          "name": "_claimId",
          "type": "bytes32"
        }
      ],
      "name": "removeClaim",
      "outputs": [
        {
          "internalType": "bool",
          "name": "success",
          "type": "bool"
        }
      ],
      "stateMutability": "nonpayable",
      "type": "function"
    },
    {
      "inputs": [
        {
          "internalType": "bytes32",
          "name": "_key",
          "type": "bytes32"
        },
        {
          "internalType": "uint256",
          "name": "_purpose",
          "type": "uint256"
        }
      ],
      "name": "removeKey",
      "outputs": [
        {
          "internalType": "bool",
          "name": "success",
          "type": "bool"
        }
      ],
      "stateMutability": "nonpayable",
      "type": "function"
    },
    {
      "inputs": [
        {
          "internalType": "bytes",
          "name": "",
          "type": "bytes"
        }
      ],
      "name": "revokedClaims",
      "outputs": [
        {
          "internalType": "bool",
          "name": "",
          "type": "bool"
        }
      ],
      "stateMutability": "view",
      "type": "function"
    },
    {
      "inputs": [],
      "name": "version",
      "outputs": [
        {
          "internalType": "string",
          "name": "",
          "type": "string"
        }
      ],
      "stateMutability": "pure",
      "type": "function"
    },
    {
      "inputs": [
        {
          "internalType": "bytes32",
          "name": "_claimId",
          "type": "bytes32"
        },
        {
          "internalType": "address",
          "name": "_identity",
          "type": "address"
        }
      ],
      "name": "revokeClaim",
      "outputs": [
        {
          "internalType": "bool",
          "name": "",
          "type": "bool"
        }
      ],
      "stateMutability": "nonpayable",
      "type": "function"
    },
    {
      "inputs": [
        {
          "internalType": "bytes",
          "name": "_sig",
          "type": "bytes"
        }
      ],
      "name": "isClaimRevoked",
      "outputs": [
        {
          "internalType": "bool",
          "name": "",
          "type": "bool"
        }
      ],
      "stateMutability": "view",
      "type": "function"
    },
    {
      "inputs": [
        {
          "internalType": "contract IIdentity",
          "name": "_identity",
          "type": "address"
        },
        {
          "internalType": "uint256",
          "name": "claimTopic",
          "type": "uint256"
        },
        {
          "internalType": "bytes",
          "name": "sig",
          "type": "bytes"
        },
        {
          "internalType": "bytes",
          "name": "data",
          "type": "bytes"
        }
      ],
      "name": "isClaimValid",
      "outputs": [
        {
          "internalType": "bool",
          "name": "claimValid",
          "type": "bool"
        }
      ],
      "stateMutability": "view",
      "type": "function"
    },
    {
      "inputs": [
        {
          "internalType": "bytes",
          "name": "sig",
          "type": "bytes"
        },
        {
          "internalType": "bytes32",
          "name": "dataHash",
          "type": "bytes32"
        }
      ],
      "name": "getRecoveredAddress",
      "outputs": [
        {
          "internalType": "address",
          "name": "addr",
          "type": "address"
        }
      ],
      "stateMutability": "pure",
      "type": "function"
    }
  ],
  "bytecode": "0x60806040526006805461ffff19166101001790553480156200002057600080fd5b5060405162002b6438038062002b64833981016040819052620000439162000268565b6006805461ff001916610100908117918290558291600091900460ff1615620000775762000071826200008e565b62000085565b6006805460ff191660011790555b5050506200029a565b60065460ff161580620000a05750303b155b620000f15760405162461bcd60e51b815260206004820152601e60248201527f496e697469616c206b65792077617320616c72656164792073657475702e0000604482015260640160405180910390fd5b6006805461ffff1916610101179055604080516001600160a01b03831660208201526000910160408051601f198184030181528282528051602091820120600081815260018084528482206002810184905586850190955280865290829052918290529350620001629290620001fc565b506000818152600160208181526040808420830183905560029091527fe90b7bceb6e7df5418fb78d8ee546e97c83a08bbccc01a0644d599ccd2a7c2e0805480840182559084527f7fef4bf8f63cf9dd467136c679c02b5c17fcf6322d9562512bf5eb952cf7cc5301849055519091829184917f480000bb1edad8ca1470381cc334b1917fbd51c6531f3a623ea8e0ec7e38a6e991a45050565b8280548282559060005260206000209081019282156200023f579160200282015b828111156200023f578251829060ff169055916020019190600101906200021d565b506200024d92915062000251565b5090565b5b808211156200024d576000815560010162000252565b6000602082840312156200027b57600080fd5b81516001600160a01b03811681146200029357600080fd5b9392505050565b6128ba80620002aa6000396000f3fe6080604052600436106101145760003560e01c80639010f726116100a0578063c4d66de811610064578063c4d66de81461033b578063c9100bcb1461035d578063d202158d1461038f578063d2345249146103af578063fb307b34146103ea57600080fd5b80639010f72614610282578063b1a34e0d146102a2578063b61d27f6146102d0578063c0969a6e146102e3578063c3b129e31461030357600080fd5b806353d413c5116100e757806353d413c5146101c157806354fd4d50146101e157806373c3370814610215578063747442d31461023557806380e9e9e11461025557600080fd5b806312aaac70146101195780631d381240146101515780632646b264146101815780634eee424a146101a1575b600080fd5b34801561012557600080fd5b50610139610134366004611dd9565b610417565b60405161014893929190611e2d565b60405180910390f35b34801561015d57600080fd5b5061017161016c366004611e52565b610490565b6040519015158152602001610148565b34801561018d57600080fd5b5061017161019c366004611f4b565b6106b0565b3480156101ad57600080fd5b506101716101bc366004611dd9565b6106ea565b3480156101cd57600080fd5b506101716101dc366004611f80565b610a02565b3480156101ed57600080fd5b5060408051808201825260058152640312e342e360dc1b602082015290516101489190611ffe565b34801561022157600080fd5b50610171610230366004612026565b610d97565b34801561024157600080fd5b50610171610250366004612056565b610ec3565b34801561026157600080fd5b50610275610270366004611dd9565b611165565b6040516101489190612080565b34801561028e57600080fd5b5061027561029d366004611dd9565b6111c7565b3480156102ae57600080fd5b506102c26102bd3660046120c4565b611227565b604051908152602001610148565b6102c26102de366004612185565b6114eb565b3480156102ef57600080fd5b506101716102fe3660046121de565b611659565b34801561030f57600080fd5b5061032361031e36600461225e565b61175c565b6040516001600160a01b039091168152602001610148565b34801561034757600080fd5b5061035b6103563660046122a3565b61180d565b005b34801561036957600080fd5b5061037d610378366004611dd9565b611819565b604051610148969594939291906122c0565b34801561039b57600080fd5b506101716103aa366004611f80565b611a1a565b3480156103bb57600080fd5b506101716103ca366004611f4b565b805160208183018101805160078252928201919093012091525460ff1681565b3480156103f657600080fd5b5061040a610405366004611dd9565b611b1b565b6040516101489190612320565b60008181526001602081815260408084209283015460028401548454835181860281018601909452808452606096958695909491859183018282801561047c57602002820191906000526020600020905b815481526020019060010190808311610468575b505050505092509250925092509193909250565b60065460009060ff6101009091041615156001146104c95760405162461bcd60e51b81526004016104c090612333565b60405180910390fd5b33301461051957604080513360208201526104fd91015b604051602081830303815290604052805190602001206001611a1a565b6105195760405162461bcd60e51b81526004016104c090612386565b60008481526001602052604090206002015484900361060a5760005b6000858152600160205260409020548110156105e457600085815260016020526040812080548390811061056b5761056b6123d6565b906000526020600020015490508481036105d15760405162461bcd60e51b815260206004820152602160248201527f436f6e666c6963743a204b657920616c72656164792068617320707572706f736044820152606560f81b60648201526084016104c0565b50806105dc81612402565b915050610535565b506000848152600160208181526040832080549283018155835290912001839055610656565b6000848152600160208181526040808420600281018990558151808401909252878252938890529082905261063f9291611ce1565b506000848152600160208190526040909120018290555b60008381526002602090815260408083208054600181018255908452918320909101869055518391859187917f480000bb1edad8ca1470381cc334b1917fbd51c6531f3a623ea8e0ec7e38a6e991a45060015b9392505050565b60006007826040516106c2919061241b565b9081526040519081900360200190205460ff16156106e257506001919050565b506000919050565b60065460009060ff61010090910416151560011461071a5760405162461bcd60e51b81526004016104c090612333565b3330146107ae576040805133602082015261074e91015b604051602081830303815290604052805190602001206003611a1a565b6107ae5760405162461bcd60e51b815260206004820152602b60248201527f5065726d697373696f6e733a2053656e64657220646f6573206e6f742068617660448201526a6520434c41494d206b657960a81b60648201526084016104c0565b600082815260046020526040812054900361081f5760405162461bcd60e51b815260206004820152602b60248201527f4e6f6e4578697374696e673a205468657265206973206e6f20636c61696d207760448201526a1a5d1a081d1a1a5cc8125160aa1b60648201526084016104c0565b60005b600083815260046020908152604080832054835260059091529020805484919083908110610852576108526123d6565b906000526020600020015414610874578061086c81612402565b915050610822565b600083815260046020908152604080832054835260059091529020805461089d90600190612437565b815481106108ad576108ad6123d6565b6000918252602080832090910154858352600482526040808420548452600590925291208054839081106108e3576108e36123d6565b60009182526020808320909101929092558481526004825260408082205482526005909252208054806109185761091861244e565b60008281526020808220830160001990810183905590920190925584825260049081905260409182902060028101548154600183015494516001600160a01b0390921694909388937f3cf57863a89432c61c4a27073c6ee39e8a764bff5a05aebfbcdcdc80b2e6130a9361099b939260038301929081019160059091019061251b565b60405180910390a46000838152600460205260408120818155600181018290556002810180546001600160a01b0319169055906109db6003830182611d2c565b6109e9600483016000611d2c565b6109f7600583016000611d2c565b506001949350505050565b60065460009060ff610100909104161515600114610a325760405162461bcd60e51b81526004016104c090612333565b6000838152600160205260409020600201548314610a9c5760405162461bcd60e51b815260206004820152602160248201527f4e6f6e4578697374696e673a204b65792069736e2774207265676973746572656044820152601960fa1b60648201526084016104c0565b333014610ad35760408051336020820152610ab791016104e0565b610ad35760405162461bcd60e51b81526004016104c090612386565b600083815260016020526040902054610afe5760405162461bcd60e51b81526004016104c09061255a565b60005b6000848152600160205260409020805484919083908110610b2457610b246123d6565b906000526020600020015414610b595780610b3e81612402565b60008681526001602052604090205490925082109050610b01575b6000848152600160205260409020548110610b865760405162461bcd60e51b81526004016104c09061255a565b600084815260016020819052604090912080549091610ba491612437565b81548110610bb457610bb46123d6565b9060005260206000200154600160008681526020019081526020016000206000018281548110610be657610be66123d6565b6000918252602080832090910192909255858152600190915260409020805480610c1257610c1261244e565b6001900381819060005260206000200160009055905560005b6000848152600260205260409020805486919083908110610c4e57610c4e6123d6565b906000526020600020015414610c705780610c6881612402565b915050610c2b565b60008481526002602052604090208054610c8c90600190612437565b81548110610c9c57610c9c6123d6565b9060005260206000200154600260008681526020019081526020016000208281548110610ccb57610ccb6123d6565b906000526020600020018190555060026000858152602001908152602001600020805480610cfb57610cfb61244e565b60008281526020808220830160001990810183905590920190925586825260019081905260408220908101549054909103610d5a57600086815260016020526040812090610d498282611d66565b506000600182018190556002909101555b8085877f585a4aef50f8267a92b32412b331b20f7f8b96f2245b253b9cc50dcc621d339760405160405180910390a4600193505050505b92915050565b60065460009060ff610100909104161515600114610dc75760405162461bcd60e51b81526004016104c090612333565b60008080606080333014610e055760408051336020820152610de991016104e0565b610e055760405162461bcd60e51b81526004016104c090612386565b60405163c9100bcb60e01b8152600481018990526001600160a01b0388169063c9100bcb90602401600060405180830381865afa158015610e4a573d6000803e3d6000fd5b505050506040513d6000823e601f3d908101601f19168201604052610e7291908101906125f4565b5060405194995092975090955093509150600190600790610e9490859061241b565b908152604051908190036020019020805491151560ff1990921691909117905550600194505050505092915050565b60065460009060ff610100909104161515600114610ef35760405162461bcd60e51b81526004016104c090612333565b60408051336020820152610f2091015b604051602081830303815290604052805190602001206002611a1a565b610f6c5760405162461bcd60e51b815260206004820152601f60248201527f53656e64657220646f6573206e6f74206861766520616374696f6e206b65790060448201526064016104c0565b827fb3932da477fe5d6c8ff2eafef050c0f3a1af18fc07121001482600f36f3715d883604051610fa0911515815260200190565b60405180910390a2811515600103611144576000838152600360208181526040808420928301805460ff1916600190811790915583549084015491516001600160a01b03909116949193610ffb9360029091019291016126a9565b60408051601f19818403018152908290526110159161241b565b60006040518083038185875af1925050503d8060008114611052576040519150601f19603f3d011682016040523d82523d6000602084013e611057565b606091505b509091505080156110dc57600083815260036020819052604091829020908101805461ff00191661010017905560018101548154925190926001600160a01b03169186917f1f920dbda597d7bf95035464170fa58d0a4b57f13a1c315ace6793b9f63688b8916110cc916002909101906126ce565b60405180910390a4506001610d91565b6000838152600360205260409081902060018101548154925190926001600160a01b03169186917fe10c49d9f7c71da23262367013434763cfdb2332267641728d25cd712c5c6a6891611134916002909101906126ce565b60405180910390a4506000610d91565b5050600090815260036020819052604090912001805460ff19169055600190565b6000818152600560209081526040918290208054835181840281018401909452808452606093928301828280156111bb57602002820191906000526020600020905b8154815260200190600101908083116111a7575b50505050509050919050565b6000818152600260209081526040918290208054835181840281018401909452808452606093928301828280156111bb57602002820191906000526020600020908154815260200190600101908083116111a75750505050509050919050565b60065460009060ff6101009091041615156001146112575760405162461bcd60e51b81526004016104c090612333565b604080516001600160a01b0387166020808301919091528183018a90528251808303840181526060909201909252805191012030331461130c57604080513360208201526112a59101610731565b61130c5760405162461bcd60e51b815260206004820152603260248201527f5065726d697373696f6e733a2053656e64657220646f6573206e6f74206861766044820152716520636c61696d207369676e6572206b657960701b60648201526084016104c0565b6000818152600460205260409020600201546001600160a01b0387811691161461141a5760008881526005602090815260408083208054600180820183559185528385200185905584845260049092529091208981559081018890556002810180546001600160a01b0319166001600160a01b0389161790556003016113928682612730565b506000818152600460208190526040909120016113af8582612730565b5060008181526004602052604090206005016113cb8482612730565b50856001600160a01b031688827f46149b18aa084502c3f12bc75e19eda8bda8d102b82cce8474677a6d0d5f43c58a89898960405161140d94939291906127f0565b60405180910390a46114e0565b6000818152600460205260409020888155600181018890556002810180546001600160a01b0319166001600160a01b03891617905560030161145c8682612730565b506000818152600460208190526040909120016114798582612730565b5060008181526004602052604090206005016114958482612730565b50856001600160a01b031688827f3bab293fc00db832d7619a9299914251b8747c036867ec056cbd506f60135b138a8989896040516114d794939291906127f0565b60405180910390a45b979650505050505050565b60065460009060ff61010090910416151560011461151b5760405162461bcd60e51b81526004016104c090612333565b6000805481526003602081905260409091200154610100900460ff16156115775760405162461bcd60e51b815260206004820152601060248201526f105b1c9958591e48195e1958dd5d195960821b60448201526064016104c0565b6000805481526003602052604080822080546001600160a01b0319166001600160a01b038816179055815482528082206001018590558154825290206002016115c08382612730565b5082846001600160a01b03166000547f8afcfabcb00e47a53a8fc3e9f23ff47ee1926194bb1350dd007c50b412a6cee8856040516115fe9190611ffe565b60405180910390a46040805133602082015261161a9101610f03565b1561162e5761162c6000546001610ec3565b505b60008054908061163d83612402565b919050555060016000546116519190612437565b949350505050565b6000808585846040516020016116719392919061282f565b6040516020818303038152906040528051906020012090506000816040516020016116c891907f19457468657265756d205369676e6564204d6573736167653a0a3332000000008152601c810191909152603c0190565b60405160208183030381529060405280519060200120905060006116ec868361175c565b604080516001600160a01b038316602082015291925060009101604051602081830303815290604052805190602001209050611729816003611a1a565b801561173b5750611739876106b0565b155b1561174d576001945050505050611651565b50600098975050505050505050565b60008060008085516041146117775760009350505050610d91565b50505060208301516040840151606085015160001a601b8110156117a3576117a0601b8261285f565b90505b6040805160008082526020820180845288905260ff841692820192909252606081018590526080810184905260019060a0016020604051602081039080840390855afa1580156117f7573d6000803e3d6000fd5b5050604051601f19015198975050505050505050565b61181681611b7b565b50565b600081815260046020819052604082208054600182015460028301546003840180548796879660609687968796919590946001600160a01b0390921693909290810191600590910190839061186d90612464565b80601f016020809104026020016040519081016040528092919081815260200182805461189990612464565b80156118e65780601f106118bb576101008083540402835291602001916118e6565b820191906000526020600020905b8154815290600101906020018083116118c957829003601f168201915b505050505092508180546118f990612464565b80601f016020809104026020016040519081016040528092919081815260200182805461192590612464565b80156119725780601f1061194757610100808354040283529160200191611972565b820191906000526020600020905b81548152906001019060200180831161195557829003601f168201915b5050505050915080805461198590612464565b80601f01602080910402602001604051908101604052809291908181526020018280546119b190612464565b80156119fe5780601f106119d3576101008083540402835291602001916119fe565b820191906000526020600020905b8154815290600101906020018083116119e157829003601f168201915b5050505050905095509550955095509550955091939550919395565b60008281526001602090815260408083208151815460809481028201850190935260608101838152859491938492849190840182828015611a7a57602002820191906000526020600020905b815481526020019060010190808311611a66575b505050918352505060018201546020820152600290910154604091820152810151909150600003611aaf576000915050610d91565b60005b815151811015611b1057600082600001518281518110611ad457611ad46123d6565b602002602001015190508060011480611aec57508481145b15611afd5760019350505050610d91565b5080611b0881612402565b915050611ab2565b506000949350505050565b6000818152600160209081526040918290208054835181840281018401909452808452606093928301828280156111bb57602002820191906000526020600020908154815260200190600101908083116111a75750505050509050919050565b60065460ff161580611b8c5750303b155b611bd85760405162461bcd60e51b815260206004820152601e60248201527f496e697469616c206b65792077617320616c72656164792073657475702e000060448201526064016104c0565b6006805461ffff1916610101179055604080516001600160a01b03831660208201526000910160408051601f198184030181528282528051602091820120600081815260018084528482206002810184905586850190955280865290829052918290529350611c479290611d84565b506000818152600160208181526040808420830183905560029091527fe90b7bceb6e7df5418fb78d8ee546e97c83a08bbccc01a0644d599ccd2a7c2e0805480840182559084527f7fef4bf8f63cf9dd467136c679c02b5c17fcf6322d9562512bf5eb952cf7cc5301849055519091829184917f480000bb1edad8ca1470381cc334b1917fbd51c6531f3a623ea8e0ec7e38a6e991a45050565b828054828255906000526020600020908101928215611d1c579160200282015b82811115611d1c578251825591602001919060010190611d01565b50611d28929150611dc4565b5090565b508054611d3890612464565b6000825580601f10611d48575050565b601f0160209004906000526020600020908101906118169190611dc4565b50805460008255906000526020600020908101906118169190611dc4565b828054828255906000526020600020908101928215611d1c579160200282015b82811115611d1c578251829060ff16905591602001919060010190611da4565b5b80821115611d285760008155600101611dc5565b600060208284031215611deb57600080fd5b5035919050565b600081518084526020808501945080840160005b83811015611e2257815187529582019590820190600101611e06565b509495945050505050565b606081526000611e406060830186611df2565b60208301949094525060400152919050565b600080600060608486031215611e6757600080fd5b505081359360208301359350604090920135919050565b634e487b7160e01b600052604160045260246000fd5b604051601f8201601f1916810167ffffffffffffffff81118282101715611ebd57611ebd611e7e565b604052919050565b600067ffffffffffffffff821115611edf57611edf611e7e565b50601f01601f191660200190565b6000611f00611efb84611ec5565b611e94565b9050828152838383011115611f1457600080fd5b828260208301376000602084830101529392505050565b600082601f830112611f3c57600080fd5b6106a983833560208501611eed565b600060208284031215611f5d57600080fd5b813567ffffffffffffffff811115611f7457600080fd5b61165184828501611f2b565b60008060408385031215611f9357600080fd5b50508035926020909101359150565b60005b83811015611fbd578181015183820152602001611fa5565b83811115611fcc576000848401525b50505050565b60008151808452611fea816020860160208601611fa2565b601f01601f19169290920160200192915050565b6020815260006106a96020830184611fd2565b6001600160a01b038116811461181657600080fd5b6000806040838503121561203957600080fd5b82359150602083013561204b81612011565b809150509250929050565b6000806040838503121561206957600080fd5b823591506020830135801515811461204b57600080fd5b6020808252825182820181905260009190848201906040850190845b818110156120b85783518352928401929184019160010161209c565b50909695505050505050565b60008060008060008060c087890312156120dd57600080fd5b863595506020870135945060408701356120f681612011565b9350606087013567ffffffffffffffff8082111561211357600080fd5b61211f8a838b01611f2b565b9450608089013591508082111561213557600080fd5b6121418a838b01611f2b565b935060a089013591508082111561215757600080fd5b508701601f8101891361216957600080fd5b61217889823560208401611eed565b9150509295509295509295565b60008060006060848603121561219a57600080fd5b83356121a581612011565b925060208401359150604084013567ffffffffffffffff8111156121c857600080fd5b6121d486828701611f2b565b9150509250925092565b600080600080608085870312156121f457600080fd5b84356121ff81612011565b935060208501359250604085013567ffffffffffffffff8082111561222357600080fd5b61222f88838901611f2b565b9350606087013591508082111561224557600080fd5b5061225287828801611f2b565b91505092959194509250565b6000806040838503121561227157600080fd5b823567ffffffffffffffff81111561228857600080fd5b61229485828601611f2b565b95602094909401359450505050565b6000602082840312156122b557600080fd5b81356106a981612011565b86815285602082015260018060a01b038516604082015260c0606082015260006122ed60c0830186611fd2565b82810360808401526122ff8186611fd2565b905082810360a08401526123138185611fd2565b9998505050505050505050565b6020815260006106a96020830184611df2565b60208082526033908201527f496e746572616374696e67207769746820746865206c69627261727920636f6e6040820152723a3930b1ba1034b9903337b93134b23232b71760691b606082015260800190565b60208082526030908201527f5065726d697373696f6e733a2053656e64657220646f6573206e6f742068617660408201526f65206d616e6167656d656e74206b657960801b606082015260800190565b634e487b7160e01b600052603260045260246000fd5b634e487b7160e01b600052601160045260246000fd5b600060018201612414576124146123ec565b5060010190565b6000825161242d818460208701611fa2565b9190910192915050565b600082821015612449576124496123ec565b500390565b634e487b7160e01b600052603160045260246000fd5b600181811c9082168061247857607f821691505b60208210810361249857634e487b7160e01b600052602260045260246000fd5b50919050565b600081546124ab81612464565b8085526020600183811680156124c857600181146124e257612510565b60ff1985168884015283151560051b880183019550612510565b866000528260002060005b858110156125085781548a82018601529083019084016124ed565b890184019650505b505050505092915050565b848152608060208201526000612534608083018661249e565b8281036040840152612546818661249e565b905082810360608401526114e0818561249e565b6020808252602a908201527f4e6f6e4578697374696e673a204b657920646f65736e27742068617665207375604082015269636820707572706f736560b01b606082015260800190565b60006125b2611efb84611ec5565b90508281528383830111156125c657600080fd5b6106a9836020830184611fa2565b600082601f8301126125e557600080fd5b6106a9838351602085016125a4565b60008060008060008060c0878903121561260d57600080fd5b8651955060208701519450604087015161262681612011565b606088015190945067ffffffffffffffff8082111561264457600080fd5b6126508a838b016125d4565b9450608089015191508082111561266657600080fd5b6126728a838b016125d4565b935060a089015191508082111561268857600080fd5b508701601f8101891361269a57600080fd5b612178898251602084016125a4565b6040815260006126bc604083018561249e565b905060ff831660208301529392505050565b6020815260006106a9602083018461249e565b601f82111561272b57600081815260208120601f850160051c810160208610156127085750805b601f850160051c820191505b8181101561272757828155600101612714565b5050505b505050565b815167ffffffffffffffff81111561274a5761274a611e7e565b61275e816127588454612464565b846126e1565b602080601f831160018114612793576000841561277b5750858301515b600019600386901b1c1916600185901b178555612727565b600085815260208120601f198616915b828110156127c2578886015182559484019460019091019084016127a3565b50858210156127e05787850151600019600388901b60f8161c191681555b5050505050600190811b01905550565b8481526080602082015260006128096080830186611fd2565b828103604084015261281b8186611fd2565b905082810360608401526114e08185611fd2565b60018060a01b03841681528260208201526060604082015260006128566060830184611fd2565b95945050505050565b600060ff821660ff84168060ff0382111561287c5761287c6123ec565b01939250505056fea26469706673582212201aa209de9cc419ee7df5b3104beef16f5f6137ee00e4e2ed0b46fcd8502740d664736f6c634300080f0033",
  "immutableReferences": {},
  "source": "// SPDX-License-Identifier: GPL-3.0\npragma solidity ^0.8.0;\n\nimport \"./interface/IClaimIssuer.sol\";\nimport \"./Identity.sol\";\n\ncontract ClaimIssuer is IClaimIssuer, Identity {\n    mapping (bytes => bool) public revokedClaims;\n\n    constructor(address initialManagementKey) Identity(initialManagementKey, false) {}\n\n    /**\n     * @dev Revoke a claim previously issued, the claim is no longer considered as valid after revocation.\n     * @param _claimId the id of the claim\n     * @param _identity the address of the identity contract\n     * @return isRevoked true when the claim is revoked\n     */\n    function revokeClaim(bytes32 _claimId, address _identity) public override delegatedOnly returns(bool) {\n        uint256 foundClaimTopic;\n        uint256 scheme;\n        address issuer;\n        bytes memory  sig;\n        bytes  memory data;\n\n        if (msg.sender != address(this)) {\n            require(keyHasPurpose(keccak256(abi.encode(msg.sender)), 1), \"Permissions: Sender does not have management key\");\n        }\n\n        ( foundClaimTopic, scheme, issuer, sig, data, ) = Identity(_identity).getClaim(_claimId);\n\n        revokedClaims[sig] = true;\n        return true;\n    }\n\n    /**\n     * @dev Returns revocation status of a claim.\n     * @param _sig the signature of the claim\n     * @return isRevoked true if the claim is revoked and false otherwise\n     */\n    function isClaimRevoked(bytes memory _sig) public override view returns (bool) {\n        if (revokedClaims[_sig]) {\n            return true;\n        }\n\n        return false;\n    }\n\n    /**\n     * @dev Checks if a claim is valid.\n     * @param _identity the identity contract related to the claim\n     * @param claimTopic the claim topic of the claim\n     * @param sig the signature of the claim\n     * @param data the data field of the claim\n     * @return claimValid true if the claim is valid, false otherwise\n     */\n    function isClaimValid(IIdentity _identity, uint256 claimTopic, bytes memory sig, bytes memory data) public override view returns (bool claimValid)\n    {\n        bytes32 dataHash = keccak256(abi.encode(_identity, claimTopic, data));\n        // Use abi.encodePacked to concatenate the message prefix and the message to sign.\n        bytes32 prefixedHash = keccak256(abi.encodePacked(\"\\x19Ethereum Signed Message:\\n32\", dataHash));\n\n        // Recover address of data signer\n        address recovered = getRecoveredAddress(sig, prefixedHash);\n\n        // Take hash of recovered address\n        bytes32 hashedAddr = keccak256(abi.encode(recovered));\n\n        // Does the trusted identifier have they key which signed the user's claim?\n        //  && (isClaimRevoked(_claimId) == false)\n        if (keyHasPurpose(hashedAddr, 3) && (isClaimRevoked(sig) == false)) {\n            return true;\n        }\n\n        return false;\n    }\n\n    function getRecoveredAddress(bytes memory sig, bytes32 dataHash)\n        public override\n        pure\n        returns (address addr)\n    {\n        bytes32 ra;\n        bytes32 sa;\n        uint8 va;\n\n        // Check the signature length\n        if (sig.length != 65) {\n            return address(0);\n        }\n\n        // Divide the signature in r, s and v variables\n        assembly {\n            ra := mload(add(sig, 32))\n            sa := mload(add(sig, 64))\n            va := byte(0, mload(add(sig, 96)))\n        }\n\n        if (va < 27) {\n            va += 27;\n        }\n\n        address recoveredAddress = ecrecover(dataHash, va, ra, sa);\n\n        return (recoveredAddress);\n    }\n}\n",
  "sourcePath": "@onchain-id/solidity/contracts/ClaimIssuer.sol",
  "compiler": {
    "name": "solc",
    "version": "0.8.15+commit.e14f2714.Emscripten.clang"
  },
  "schemaVersion": "3.4.6",
  "updatedAt": "2022-08-03T10:43:51.100Z",
  "devdoc": {
    "kind": "dev",
    "methods": {
      "addClaim(uint256,uint256,address,bytes,bytes,string)": {
        "params": {
          "_data": "The hash of the claim data, sitting in another location, a bit-mask, call data, or actual data based on the claim scheme.",
          "_issuer": "The issuers identity contract address, or the address used to sign the above signature.",
          "_scheme": "The scheme with which this claim SHOULD be verified or how it should be processed.",
          "_signature": "Signature which is the proof that the claim issuer issued a claim of topic for this identity. it MUST be a signed message of the following structure: keccak256(abi.encode(address identityHolder_address, uint256 _ topic, bytes data))",
          "_topic": "The type of claim",
          "_uri": "The location of the claim, this can be HTTP links, swarm hashes, IPFS hashes, and such."
        },
        "returns": {
          "claimRequestId": "Returns claimRequestId: COULD be send to the approve function, to approve or reject this claim. triggers ClaimAdded event."
        }
      },
      "addKey(bytes32,uint256,uint256)": {
        "params": {
          "_key": "keccak256 representation of an ethereum address",
          "_purpose": "a uint256[] Array of the key types, like 1 = MANAGEMENT, 2 = ACTION, 3 = CLAIM, 4 = ENCRYPTION",
          "_type": "type of key used, which would be a uint256 for different key types. e.g. 1 = ECDSA, 2 = RSA, etc."
        },
        "returns": {
          "success": "Returns TRUE if the addition was successful and FALSE if not"
        }
      },
      "execute(address,uint256,bytes)": {
        "returns": {
          "executionId": "SHOULD be sent to the approve function, to approve or reject this execution."
        }
      },
      "getClaim(bytes32)": {
        "params": {
          "_claimId": "The identity of the claim i.e. keccak256(abi.encode(_issuer, _topic))"
        },
        "returns": {
          "data": "Returns all the parameters of the claim for the specified _claimId (topic, scheme, signature, issuer, data, uri) .",
          "issuer": "Returns all the parameters of the claim for the specified _claimId (topic, scheme, signature, issuer, data, uri) .",
          "scheme": "Returns all the parameters of the claim for the specified _claimId (topic, scheme, signature, issuer, data, uri) .",
          "signature": "Returns all the parameters of the claim for the specified _claimId (topic, scheme, signature, issuer, data, uri) .",
          "topic": "Returns all the parameters of the claim for the specified _claimId (topic, scheme, signature, issuer, data, uri) .",
          "uri": "Returns all the parameters of the claim for the specified _claimId (topic, scheme, signature, issuer, data, uri) ."
        }
      },
      "getClaimIdsByTopic(uint256)": {
        "params": {
          "_topic": "The identity of the claim i.e. keccak256(abi.encode(_issuer, _topic))"
        },
        "returns": {
          "claimIds": "Returns an array of claim IDs by topic."
        }
      },
      "getKey(bytes32)": {
        "params": {
          "_key": "The public key.  for non-hex and long keys, its the Keccak256 hash of the key"
        },
        "returns": {
          "key": "Returns the full key data, if present in the identity.",
          "keyType": "Returns the full key data, if present in the identity.",
          "purposes": "Returns the full key data, if present in the identity."
        }
      },
      "getKeyPurposes(bytes32)": {
        "params": {
          "_key": "The public key.  for non-hex and long keys, its the Keccak256 hash of the key"
        },
        "returns": {
          "_purposes": "Returns the purposes of the specified key"
        }
      },
      "getKeysByPurpose(uint256)": {
        "params": {
          "_purpose": "a uint256[] Array of the key types, like 1 = MANAGEMENT, 2 = ACTION, 3 = CLAIM, 4 = ENCRYPTION"
        },
        "returns": {
          "_keys": "Returns an array of public key bytes32 hold by this identity and having the specified purpose"
        }
      },
      "initialize(address)": {
        "params": {
          "initialManagementKey": "The ethereum address to be set as the management key of the ONCHAINID."
        }
      },
      "isClaimRevoked(bytes)": {
        "details": "Returns revocation status of a claim.",
        "params": {
          "_sig": "the signature of the claim"
        },
        "returns": {
          "_0": "isRevoked true if the claim is revoked and false otherwise"
        }
      },
      "isClaimValid(address,uint256,bytes,bytes)": {
        "details": "Checks if a claim is valid.",
        "params": {
          "_identity": "the identity contract related to the claim",
          "claimTopic": "the claim topic of the claim",
          "data": "the data field of the claim",
          "sig": "the signature of the claim"
        },
        "returns": {
          "claimValid": "true if the claim is valid, false otherwise"
        }
      },
      "removeClaim(bytes32)": {
        "params": {
          "_claimId": "The identity of the claim i.e. keccak256(abi.encode(_issuer, _topic))"
        },
        "returns": {
          "success": "Returns TRUE when the claim was removed. triggers ClaimRemoved event"
        }
      },
      "revokeClaim(bytes32,address)": {
        "details": "Revoke a claim previously issued, the claim is no longer considered as valid after revocation.",
        "params": {
          "_claimId": "the id of the claim",
          "_identity": "the address of the identity contract"
        },
        "returns": {
          "_0": "isRevoked true when the claim is revoked"
        }
      },
      "version()": {
        "details": "Returns the string of the current version."
      }
    },
    "version": 1
  },
  "userdoc": {
    "kind": "user",
    "methods": {
      "addClaim(uint256,uint256,address,bytes,bytes,string)": {
        "notice": "Implementation of the addClaim function from the ERC-735 standard  Require that the msg.sender has claim signer key."
      },
      "addKey(bytes32,uint256,uint256)": {
        "notice": "implementation of the addKey function of the ERC-734 standard Adds a _key to the identity. The _purpose specifies the purpose of key. Initially we propose four purposes: 1: MANAGEMENT keys, which can manage the identity 2: ACTION keys, which perform actions in this identities name (signing, logins, transactions, etc.) 3: CLAIM signer keys, used to sign claims on other identities which need to be revokable. 4: ENCRYPTION keys, used to encrypt data e.g. hold in claims. MUST only be done by keys of purpose 1, or the identity itself. If its the identity itself, the approval process will determine its approval."
      },
      "approve(uint256,bool)": {
        "notice": "Approves an execution or claim addition. This SHOULD require n of m approvals of keys purpose 1, if the _to of the execution is the identity contract itself, to successfully approve an execution. And COULD require n of m approvals of keys purpose 2, if the _to of the execution is another contract, to successfully approve an execution."
      },
      "execute(address,uint256,bytes)": {
        "notice": "Passes an execution instruction to the keymanager. SHOULD require approve to be called with one or more keys of purpose 1 or 2 to approve this execution. Execute COULD be used as the only accessor for addKey, removeKey and replaceKey and removeClaim."
      },
      "getClaim(bytes32)": {
        "notice": "Implementation of the getClaim function from the ERC-735 standard."
      },
      "getClaimIdsByTopic(uint256)": {
        "notice": "Implementation of the getClaimIdsByTopic function from the ERC-735 standard. used to get all the claims from the specified topic"
      },
      "getKey(bytes32)": {
        "notice": "Implementation of the getKey function from the ERC-734 standard"
      },
      "getKeyPurposes(bytes32)": {
        "notice": "gets the purposes of a key"
      },
      "getKeysByPurpose(uint256)": {
        "notice": "gets all the keys with a specific purpose from an identity"
      },
      "initialize(address)": {
        "notice": "When using this contract as an implementation for a proxy, call this initializer with a delegatecall."
      },
      "keyHasPurpose(bytes32,uint256)": {
        "notice": "Returns true if the key has MANAGEMENT purpose or the specified purpose."
      },
      "removeClaim(bytes32)": {
        "notice": "Implementation of the removeClaim function from the ERC-735 standard Require that the msg.sender has management key. Can only be removed by the claim issuer, or the claim holder itself."
      },
      "removeKey(bytes32,uint256)": {
        "notice": "Remove the purpose from a key."
      }
    },
    "version": 1
  }
}