{
  "contractName": "DVDTransferManager",
  "abi": [
    {
      "inputs": [],
      "stateMutability": "nonpayable",
      "type": "constructor"
    },
    {
      "anonymous": false,
      "inputs": [
        {
          "indexed": true,
          "internalType": "bytes32",
          "name": "transferID",
          "type": "bytes32"
        }
      ],
      "name": "DVDTransferCancelled",
      "type": "event"
    },
    {
      "anonymous": false,
      "inputs": [
        {
          "indexed": true,
          "internalType": "bytes32",
          "name": "transferID",
          "type": "bytes32"
        }
      ],
      "name": "DVDTransferExecuted",
      "type": "event"
    },
    {
      "anonymous": false,
      "inputs": [
        {
          "indexed": true,
          "internalType": "bytes32",
          "name": "transferID",
          "type": "bytes32"
        },
        {
          "indexed": false,
          "internalType": "address",
          "name": "maker",
          "type": "address"
        },
        {
          "indexed": true,
          "internalType": "address",
          "name": "token1",
          "type": "address"
        },
        {
          "indexed": false,
          "internalType": "uint256",
          "name": "token1Amount",
          "type": "uint256"
        },
        {
          "indexed": false,
          "internalType": "address",
          "name": "taker",
          "type": "address"
        },
        {
          "indexed": true,
          "internalType": "address",
          "name": "token2",
          "type": "address"
        },
        {
          "indexed": false,
          "internalType": "uint256",
          "name": "token2Amount",
          "type": "uint256"
        }
      ],
      "name": "DVDTransferInitiated",
      "type": "event"
    },
    {
      "anonymous": false,
      "inputs": [
        {
          "indexed": true,
          "internalType": "bytes32",
          "name": "parity",
          "type": "bytes32"
        },
        {
          "indexed": false,
          "internalType": "address",
          "name": "token1",
          "type": "address"
        },
        {
          "indexed": false,
          "internalType": "address",
          "name": "token2",
          "type": "address"
        },
        {
          "indexed": false,
          "internalType": "uint256",
          "name": "fee1",
          "type": "uint256"
        },
        {
          "indexed": false,
          "internalType": "uint256",
          "name": "fee2",
          "type": "uint256"
        },
        {
          "indexed": false,
          "internalType": "uint256",
          "name": "feeBase",
          "type": "uint256"
        },
        {
          "indexed": false,
          "internalType": "address",
          "name": "fee1Wallet",
          "type": "address"
        },
        {
          "indexed": false,
          "internalType": "address",
          "name": "fee2Wallet",
          "type": "address"
        }
      ],
      "name": "FeeModified",
      "type": "event"
    },
    {
      "anonymous": false,
      "inputs": [
        {
          "indexed": true,
          "internalType": "address",
          "name": "previousOwner",
          "type": "address"
        },
        {
          "indexed": true,
          "internalType": "address",
          "name": "newOwner",
          "type": "address"
        }
      ],
      "name": "OwnershipTransferred",
      "type": "event"
    },
    {
      "inputs": [
        {
          "internalType": "bytes32",
          "name": "",
          "type": "bytes32"
        }
      ],
      "name": "fee",
      "outputs": [
        {
          "internalType": "uint256",
          "name": "token1Fee",
          "type": "uint256"
        },
        {
          "internalType": "uint256",
          "name": "token2Fee",
          "type": "uint256"
        },
        {
          "internalType": "uint256",
          "name": "feeBase",
          "type": "uint256"
        },
        {
          "internalType": "address",
          "name": "fee1Wallet",
          "type": "address"
        },
        {
          "internalType": "address",
          "name": "fee2Wallet",
          "type": "address"
        }
      ],
      "stateMutability": "view",
      "type": "function"
    },
    {
      "inputs": [],
      "name": "owner",
      "outputs": [
        {
          "internalType": "address",
          "name": "",
          "type": "address"
        }
      ],
      "stateMutability": "view",
      "type": "function"
    },
    {
      "inputs": [],
      "name": "renounceOwnership",
      "outputs": [],
      "stateMutability": "nonpayable",
      "type": "function"
    },
    {
      "inputs": [
        {
          "internalType": "bytes32",
          "name": "",
          "type": "bytes32"
        }
      ],
      "name": "token1ToDeliver",
      "outputs": [
        {
          "internalType": "address",
          "name": "counterpart",
          "type": "address"
        },
        {
          "internalType": "address",
          "name": "token",
          "type": "address"
        },
        {
          "internalType": "uint256",
          "name": "amount",
          "type": "uint256"
        }
      ],
      "stateMutability": "view",
      "type": "function"
    },
    {
      "inputs": [
        {
          "internalType": "bytes32",
          "name": "",
          "type": "bytes32"
        }
      ],
      "name": "token2ToDeliver",
      "outputs": [
        {
          "internalType": "address",
          "name": "counterpart",
          "type": "address"
        },
        {
          "internalType": "address",
          "name": "token",
          "type": "address"
        },
        {
          "internalType": "uint256",
          "name": "amount",
          "type": "uint256"
        }
      ],
      "stateMutability": "view",
      "type": "function"
    },
    {
      "inputs": [
        {
          "internalType": "address",
          "name": "newOwner",
          "type": "address"
        }
      ],
      "name": "transferOwnership",
      "outputs": [],
      "stateMutability": "nonpayable",
      "type": "function"
    },
    {
      "inputs": [],
      "name": "txNonce",
      "outputs": [
        {
          "internalType": "uint256",
          "name": "",
          "type": "uint256"
        }
      ],
      "stateMutability": "view",
      "type": "function"
    },
    {
      "inputs": [
        {
          "internalType": "address",
          "name": "_token1",
          "type": "address"
        },
        {
          "internalType": "address",
          "name": "_token2",
          "type": "address"
        }
      ],
      "name": "calculateParity",
      "outputs": [
        {
          "internalType": "bytes32",
          "name": "",
          "type": "bytes32"
        }
      ],
      "stateMutability": "pure",
      "type": "function"
    },
    {
      "inputs": [
        {
          "internalType": "address",
          "name": "_token",
          "type": "address"
        }
      ],
      "name": "isTREX",
      "outputs": [
        {
          "internalType": "bool",
          "name": "",
          "type": "bool"
        }
      ],
      "stateMutability": "view",
      "type": "function"
    },
    {
      "inputs": [
        {
          "internalType": "address",
          "name": "_token",
          "type": "address"
        },
        {
          "internalType": "address",
          "name": "_user",
          "type": "address"
        }
      ],
      "name": "isTREXAgent",
      "outputs": [
        {
          "internalType": "bool",
          "name": "",
          "type": "bool"
        }
      ],
      "stateMutability": "view",
      "type": "function"
    },
    {
      "inputs": [
        {
          "internalType": "address",
          "name": "_token",
          "type": "address"
        },
        {
          "internalType": "address",
          "name": "_user",
          "type": "address"
        }
      ],
      "name": "isTREXOwner",
      "outputs": [
        {
          "internalType": "bool",
          "name": "",
          "type": "bool"
        }
      ],
      "stateMutability": "view",
      "type": "function"
    },
    {
      "inputs": [
        {
          "internalType": "uint256",
          "name": "_nonce",
          "type": "uint256"
        },
        {
          "internalType": "address",
          "name": "_maker",
          "type": "address"
        },
        {
          "internalType": "address",
          "name": "_token1",
          "type": "address"
        },
        {
          "internalType": "uint256",
          "name": "_token1Amount",
          "type": "uint256"
        },
        {
          "internalType": "address",
          "name": "_taker",
          "type": "address"
        },
        {
          "internalType": "address",
          "name": "_token2",
          "type": "address"
        },
        {
          "internalType": "uint256",
          "name": "_token2Amount",
          "type": "uint256"
        }
      ],
      "name": "calculateTransferID",
      "outputs": [
        {
          "internalType": "bytes32",
          "name": "",
          "type": "bytes32"
        }
      ],
      "stateMutability": "pure",
      "type": "function"
    },
    {
      "inputs": [
        {
          "internalType": "address",
          "name": "_token1",
          "type": "address"
        },
        {
          "internalType": "address",
          "name": "_token2",
          "type": "address"
        },
        {
          "internalType": "uint256",
          "name": "_fee1",
          "type": "uint256"
        },
        {
          "internalType": "uint256",
          "name": "_fee2",
          "type": "uint256"
        },
        {
          "internalType": "uint256",
          "name": "_feeBase",
          "type": "uint256"
        },
        {
          "internalType": "address",
          "name": "_fee1Wallet",
          "type": "address"
        },
        {
          "internalType": "address",
          "name": "_fee2Wallet",
          "type": "address"
        }
      ],
      "name": "modifyFee",
      "outputs": [],
      "stateMutability": "nonpayable",
      "type": "function"
    },
    {
      "inputs": [
        {
          "internalType": "address",
          "name": "_token1",
          "type": "address"
        },
        {
          "internalType": "uint256",
          "name": "_token1Amount",
          "type": "uint256"
        },
        {
          "internalType": "address",
          "name": "_counterpart",
          "type": "address"
        },
        {
          "internalType": "address",
          "name": "_token2",
          "type": "address"
        },
        {
          "internalType": "uint256",
          "name": "_token2Amount",
          "type": "uint256"
        }
      ],
      "name": "initiateDVDTransfer",
      "outputs": [],
      "stateMutability": "nonpayable",
      "type": "function"
    },
    {
      "inputs": [
        {
          "internalType": "bytes32",
          "name": "_transferID",
          "type": "bytes32"
        }
      ],
      "name": "takeDVDTransfer",
      "outputs": [],
      "stateMutability": "nonpayable",
      "type": "function"
    },
    {
      "inputs": [
        {
          "internalType": "bytes32",
          "name": "_transferID",
          "type": "bytes32"
        }
      ],
      "name": "cancelDVDTransfer",
      "outputs": [],
      "stateMutability": "nonpayable",
      "type": "function"
    },
    {
      "inputs": [
        {
          "internalType": "bytes32",
          "name": "_transferID",
          "type": "bytes32"
        }
      ],
      "name": "calculateFee",
      "outputs": [
        {
          "components": [
            {
              "internalType": "uint256",
              "name": "txFee1",
              "type": "uint256"
            },
            {
              "internalType": "uint256",
              "name": "txFee2",
              "type": "uint256"
            },
            {
              "internalType": "address",
              "name": "fee1Wallet",
              "type": "address"
            },
            {
              "internalType": "address",
              "name": "fee2Wallet",
              "type": "address"
            }
          ],
          "internalType": "struct DVDTransferManager.TxFees",
          "name": "",
          "type": "tuple"
        }
      ],
      "stateMutability": "view",
      "type": "function"
    }
  ],
  "bytecode": "0x608060405234801561001057600080fd5b5061001a33610024565b6000600455610074565b600080546001600160a01b038381166001600160a01b0319831681178455604051919092169283917f8be0079c531659141344cd1fd0a4f28419497f9722a3daafe3b4186f6b6457e09190a35050565b611f41806100836000396000f3fe608060405234801561001057600080fd5b506004361061010b5760003560e01c8063715018a6116100a2578063c66323e511610071578063c66323e514610327578063e722e60314610330578063eb08e26114610343578063f2fde38b14610356578063ff4ca3751461036957600080fd5b8063715018a6146102b357806377722075146102bb5780638da5cb5b146102f9578063afc991411461031457600080fd5b8063344ae659116100de578063344ae659146102195780634dc55ea31461023a5780634f8468641461024d5780636e4d26e4146102a057600080fd5b80630f7f681114610110578063158db45014610164578063233792511461017957806327cdab061461019c575b600080fd5b61014c61011e366004611a7d565b6003602052600090815260409020805460018201546002909201546001600160a01b03918216929091169083565b60405161015b93929190611a96565b60405180910390f35b610177610172366004611a7d565b61037c565b005b61018c610187366004611acf565b610a1e565b604051901515815260200161015b565b6101e56101aa366004611a7d565b600160208190526000918252604090912080549181015460028201546003830154600490930154919290916001600160a01b03918216911685565b604080519586526020860194909452928401919091526001600160a01b03908116606084015216608082015260a00161015b565b61022c610227366004611acf565b610aa9565b60405190815260200161015b565b61022c610248366004611b08565b610af4565b61026061025b366004611a7d565b610b53565b604080518251815260208084015190820152828201516001600160a01b03908116928201929092526060928301519091169181019190915260800161015b565b6101776102ae366004611b83565b610d92565b610177611150565b61014c6102c9366004611a7d565b60026020819052600091825260409091208054600182015491909201546001600160a01b03928316929091169083565b6000546040516001600160a01b03909116815260200161015b565b61018c610322366004611acf565b611164565b61022c60045481565b61017761033e366004611bde565b6111f1565b61018c610351366004611c59565b611683565b610177610364366004611c59565b611703565b610177610377366004611a7d565b61177c565b600081815260026020818152604080842081516060808201845282546001600160a01b039081168352600180850154821684880152938701548386015288885260038652968490208451918201855280548816825292830154871694810194909452930154908201528151919290911615801590610403575080516001600160a01b031615155b6104285760405162461bcd60e51b815260040161041f90611c7d565b60405180910390fd5b6020828101519082015182516001600160a01b03163314806104535750610453846020015133610a1e565b806104675750610467836020015133610a1e565b6104d25760405162461bcd60e51b815260206004820152603660248201527f7472616e736665722068617320746f20626520646f6e6520627920746865206360448201527537bab73a32b93830b93a1037b910313c9037bbb732b960511b606482015260840161041f565b604083810151845191516370a0823160e01b81526001600160a01b03928316600482015290918316906370a0823190602401602060405180830381865afa158015610521573d6000803e3d6000fd5b505050506040513d601f19601f820116820180604052508101906105459190611cb4565b10156105935760405162461bcd60e51b815260206004820152601c60248201527f4e6f7420656e6f75676820746f6b656e7320696e2062616c616e636500000000604482015260640161041f565b60408381015184519151636eb1769f60e11b81526001600160a01b039283166004820152306024820152909183169063dd62ed3e90604401602060405180830381865afa1580156105e8573d6000803e3d6000fd5b505050506040513d601f19601f8201168201806040525081019061060c9190611cb4565b101561065a5760405162461bcd60e51b815260206004820181905260248201527f6e6f7420656e6f75676820616c6c6f77616e636520746f207472616e73666572604482015260640161041f565b600061066586610b53565b80519091501561077857826001600160a01b03166323b872dd866000015186600001518460000151896040015161069c9190611ce3565b6040518463ffffffff1660e01b81526004016106ba93929190611a96565b6020604051808303816000875af11580156106d9573d6000803e3d6000fd5b505050506040513d601f19601f820116820180604052508101906106fd9190611cfa565b508451604080830151835191516323b872dd60e01b81526001600160a01b038716936323b872dd93610733939192600401611a96565b6020604051808303816000875af1158015610752573d6000803e3d6000fd5b505050506040513d601f19601f820116820180604052508101906107769190611cfa565b505b80516000036107fe578451845160408088015190516323b872dd60e01b81526001600160a01b038716936323b872dd936107b9939192909190600401611a96565b6020604051808303816000875af11580156107d8573d6000803e3d6000fd5b505050506040513d601f19601f820116820180604052508101906107fc9190611cfa565b505b60208101511561091757816001600160a01b03166323b872dd85600001518760000151846020015188604001516108359190611ce3565b6040518463ffffffff1660e01b815260040161085393929190611a96565b6020604051808303816000875af1158015610872573d6000803e3d6000fd5b505050506040513d601f19601f820116820180604052508101906108969190611cfa565b508351606082015160208301516040516323b872dd60e01b81526001600160a01b038616936323b872dd936108d2939192909190600401611a96565b6020604051808303816000875af11580156108f1573d6000803e3d6000fd5b505050506040513d601f19601f820116820180604052508101906109159190611cfa565b505b80602001516000036109a0578351855160408087015190516323b872dd60e01b81526001600160a01b038616936323b872dd9361095b939192909190600401611a96565b6020604051808303816000875af115801561097a573d6000803e3d6000fd5b505050506040513d601f19601f8201168201806040525081019061099e9190611cfa565b505b600086815260026020818152604080842080546001600160a01b0319908116825560018083018054831690559185018690556003909352818520805484168155908101805490931690925591018290555187917f094682e7da443a5bb6ea2c900d20d36aaff04228fe22fc6dd65a58a37695be8b91a2505050505050565b6000610a2983611683565b15610a9f576040516307feec1960e21b81526001600160a01b038381166004830152841690631ffbb06490602401602060405180830381865afa158015610a74573d6000803e3d6000fd5b505050506040513d601f19601f82011682018060405250810190610a989190611cfa565b9050610aa3565b5060005b92915050565b6000808383604051602001610ad49291906001600160a01b0392831681529116602082015260400190565b60408051808303601f190181529190528051602090910120949350505050565b604080516020808201999099526001600160a01b03978816818301529587166060870152608086019490945291851660a085015290931660c083015260e080830193909352805180830390930183526101009091019052805191012090565b610b5b611a02565b610b63611a02565b600083815260026020818152604080842081516060808201845282546001600160a01b03908116835260018085015482168488015293870154838601528a885260038652968490208451918201855280548816825292830154871694810194909452930154908201528151919290911615801590610bea575080516001600160a01b031615155b610c065760405162461bcd60e51b815260040161041f90611c7d565b6000610c1a83602001518360200151610aa9565b600081815260016020818152604092839020835160a0810185528154808252938201549281019290925260028101549382019390935260038301546001600160a01b039081166060830152600490930154909216608083015291925090151580610c875750602081015115155b15610d6f5760008160400151600a610c9f9190611e00565b60028360400151610cb09190611ce3565b610cbb90600a611e00565b83516040880151610ccc9190611e0c565b610cd69190611e0c565b610ce09190611e2b565b905060008260400151600a610cf59190611e00565b60028460400151610d069190611ce3565b610d1190600a611e00565b84602001518760400151610d259190611e0c565b610d2f9190611e0c565b610d399190611e2b565b9187525060208601526060808201516001600160a01b039081166040880152608090920151909116908501525091949350505050565b505060008084526020840181905260408401819052606084015250909392505050565b6040516370a0823160e01b815233600482015284906001600160a01b038716906370a0823190602401602060405180830381865afa158015610dd8573d6000803e3d6000fd5b505050506040513d601f19601f82011682018060405250810190610dfc9190611cb4565b1015610e4a5760405162461bcd60e51b815260206004820152601c60248201527f4e6f7420656e6f75676820746f6b656e7320696e2062616c616e636500000000604482015260640161041f565b604051636eb1769f60e11b815233600482015230602482015284906001600160a01b0387169063dd62ed3e90604401602060405180830381865afa158015610e96573d6000803e3d6000fd5b505050506040513d601f19601f82011682018060405250810190610eba9190611cb4565b1015610f1a5760405162461bcd60e51b815260206004820152602960248201527f6e6f7420656e6f75676820616c6c6f77616e636520746f20696e697469617465604482015268103a3930b739b332b960b91b606482015260840161041f565b6001600160a01b038316610f705760405162461bcd60e51b815260206004820152601a60248201527f636f756e746572706172742063616e6e6f74206265206e756c6c000000000000604482015260640161041f565b816001600160a01b03166318160ddd6040518163ffffffff1660e01b8152600401602060405180830381865afa158015610fae573d6000803e3d6000fd5b505050506040513d601f19601f82011682018060405250810190610fd29190611cb4565b600003610ff15760405162461bcd60e51b815260040161041f90611e4d565b60408051606080820183523382526001600160a01b0388811660208085019182528486018a81528651948501875289841680865293891691850182905295840187905260045485519251965195969495600095611054959294939092908a610af4565b6000818152600260208181526040808420885181546001600160a01b039182166001600160a01b03199182161783558a8501805160018086018054928616928516929092179091558c860180519589019590955560038752978590208b518154908516908416811782558c88015199820180549a86169a9094168a179093558b8601519701879055518b51935185519484168552958401959095528284015260608201949094529051949550929391169184917f1eff5dd2c180a5889d45725b98546e9d8c28331caac1c279a0fdc3fe18eb29e59181900360800190a46004805490600061114183611e96565b91905055505050505050505050565b611158611958565b61116260006119b2565b565b600061116f83611683565b15610a9f57816001600160a01b0316836001600160a01b0316638da5cb5b6040518163ffffffff1660e01b8152600401602060405180830381865afa1580156111bc573d6000803e3d6000fd5b505050506040513d601f19601f820116820180604052508101906111e09190611eaf565b6001600160a01b0316149050610aa3565b6000546001600160a01b031633148061120f575061120f8733611164565b8061121f575061121f8633611164565b61126b5760405162461bcd60e51b815260206004820152601c60248201527f4f776e61626c653a206f6e6c79206f776e65722063616e2063616c6c00000000604482015260640161041f565b866001600160a01b03166318160ddd6040518163ffffffff1660e01b8152600401602060405180830381865afa1580156112a9573d6000803e3d6000fd5b505050506040513d601f19601f820116820180604052508101906112cd9190611cb4565b1580159061133b5750856001600160a01b03166318160ddd6040518163ffffffff1660e01b8152600401602060405180830381865afa158015611314573d6000803e3d6000fd5b505050506040513d601f19601f820116820180604052508101906113389190611cb4565b15155b6113575760405162461bcd60e51b815260040161041f90611e4d565b61136283600a611e00565b851115801561136f575060015b8015611385575061138183600a611e00565b8411155b801561138f575060015b801561139c575060058311155b80156113a9575060028310155b6113ec5760405162461bcd60e51b8152602060048201526014602482015273696e76616c6964206665652073657474696e677360601b604482015260640161041f565b8415611454576001600160a01b0382166114545760405162461bcd60e51b815260206004820152602360248201527f6665652077616c6c657420312063616e6e6f74206265207a65726f206164647260448201526265737360e81b606482015260840161041f565b83156114bc576001600160a01b0381166114bc5760405162461bcd60e51b815260206004820152602360248201527f6665652077616c6c657420322063616e6e6f74206265207a65726f206164647260448201526265737360e81b606482015260840161041f565b60006114c88888610aa9565b90506114d2611a3c565b868152602080820187815260408084018881526001600160a01b0380891660608701908152888216608088019081526000898152600197889052859020885181559551968601969096559151600285015590516003840180549183166001600160a01b03199283161790559351600490930180549390911692909316919091179091555182907f2a53ccababe5ceadaebcbb25eb002de52dd1042821dee5cd6dd890c0651c535f90611591908c908c908c908c908c908c908c90611ecc565b60405180910390a260006115a5898b610aa9565b90506115af611a3c565b87815260208082018a815260408084018a81526001600160a01b03808a16606087019081528b8216608088019081526000898152600197889052859020885181559551968601969096559151600285015590516003840180549183166001600160a01b03199283161790559351600490930180549390911692909316919091179091555182907f2a53ccababe5ceadaebcbb25eb002de52dd1042821dee5cd6dd890c0651c535f9061166e908d908f908d908f908e908d908f90611ecc565b60405180910390a25050505050505050505050565b6000816001600160a01b031663134e18f46040518163ffffffff1660e01b8152600401602060405180830381865afa9250505080156116df575060408051601f3d908101601f191682019092526116dc91810190611eaf565b60015b6116eb57506000919050565b6001600160a01b03811615610a9f5750600192915050565b61170b611958565b6001600160a01b0381166117705760405162461bcd60e51b815260206004820152602660248201527f4f776e61626c653a206e6577206f776e657220697320746865207a65726f206160448201526564647265737360d01b606482015260840161041f565b611779816119b2565b50565b600081815260026020818152604080842081516060808201845282546001600160a01b039081168352600180850154821684880152938701548386015288885260038652968490208451918201855280548816825292830154871694810194909452930154908201528151919290911615801590611803575080516001600160a01b031615155b61181f5760405162461bcd60e51b815260040161041f90611c7d565b80516001600160a01b0316331480611840575081516001600160a01b031633145b8061185557506000546001600160a01b031633145b806118695750611869826020015133610a1e565b8061187d575061187d816020015133610a1e565b6118dd5760405162461bcd60e51b815260206004820152602b60248201527f796f7520617265206e6f7420616c6c6f77656420746f2063616e63656c20746860448201526a34b9903a3930b739b332b960a91b606482015260840161041f565b600083815260026020818152604080842080546001600160a01b0319908116825560018083018054831690559185018690556003909352818520805484168155908101805490931690925591018290555184917fb34dd23f375e48f42dfe5fbb1f8945e706c80dbfaec32c6e978fcf70091306c991a2505050565b6000546001600160a01b031633146111625760405162461bcd60e51b815260206004820181905260248201527f4f776e61626c653a2063616c6c6572206973206e6f7420746865206f776e6572604482015260640161041f565b600080546001600160a01b038381166001600160a01b0319831681178455604051919092169283917f8be0079c531659141344cd1fd0a4f28419497f9722a3daafe3b4186f6b6457e09190a35050565b6040518060800160405280600081526020016000815260200160006001600160a01b0316815260200160006001600160a01b031681525090565b6040518060a0016040528060008152602001600081526020016000815260200160006001600160a01b0316815260200160006001600160a01b031681525090565b600060208284031215611a8f57600080fd5b5035919050565b6001600160a01b039384168152919092166020820152604081019190915260600190565b6001600160a01b038116811461177957600080fd5b60008060408385031215611ae257600080fd5b8235611aed81611aba565b91506020830135611afd81611aba565b809150509250929050565b600080600080600080600060e0888a031215611b2357600080fd5b873596506020880135611b3581611aba565b95506040880135611b4581611aba565b9450606088013593506080880135611b5c81611aba565b925060a0880135611b6c81611aba565b8092505060c0880135905092959891949750929550565b600080600080600060a08688031215611b9b57600080fd5b8535611ba681611aba565b9450602086013593506040860135611bbd81611aba565b92506060860135611bcd81611aba565b949793965091946080013592915050565b600080600080600080600060e0888a031215611bf957600080fd5b8735611c0481611aba565b96506020880135611c1481611aba565b955060408801359450606088013593506080880135925060a0880135611c3981611aba565b915060c0880135611c4981611aba565b8091505092959891949750929550565b600060208284031215611c6b57600080fd5b8135611c7681611aba565b9392505050565b6020808252601a908201527f7472616e7366657220494420646f6573206e6f74206578697374000000000000604082015260600190565b600060208284031215611cc657600080fd5b5051919050565b634e487b7160e01b600052601160045260246000fd5b600082821015611cf557611cf5611ccd565b500390565b600060208284031215611d0c57600080fd5b81518015158114611c7657600080fd5b600181815b80851115611d57578160001904821115611d3d57611d3d611ccd565b80851615611d4a57918102915b93841c9390800290611d21565b509250929050565b600082611d6e57506001610aa3565b81611d7b57506000610aa3565b8160018114611d915760028114611d9b57611db7565b6001915050610aa3565b60ff841115611dac57611dac611ccd565b50506001821b610aa3565b5060208310610133831016604e8410600b8410161715611dda575081810a610aa3565b611de48383611d1c565b8060001904821115611df857611df8611ccd565b029392505050565b6000611c768383611d5f565b6000816000190483118215151615611e2657611e26611ccd565b500290565b600082611e4857634e487b7160e01b600052601260045260246000fd5b500490565b60208082526029908201527f696e76616c69642061646472657373203a2061646472657373206973206e6f74604082015268020616e2045524332360bc1b606082015260800190565b600060018201611ea857611ea8611ccd565b5060010190565b600060208284031215611ec157600080fd5b8151611c7681611aba565b6001600160a01b0397881681529587166020870152604086019490945260608501929092526080840152831660a083015290911660c082015260e0019056fea264697066735822122030ce4c58689397d268184a1f88098b2e28c605ed23b753c292127cf40312ad6464736f6c634300080f0033",
  "immutableReferences": {},
  "source": "// SPDX-License-Identifier: GPL-3.0\n/**\n *     NOTICE\n *\n *     The T-REX software is licensed under a proprietary license or the GPL v.3.\n *     If you choose to receive it under the GPL v.3 license, the following applies:\n *     T-REX is a suite of smart contracts developed by Tokeny to manage and transfer financial assets on the ethereum blockchain\n *\n *     Copyright (C) 2021, Tokeny srl.\n *\n *     This program is free software: you can redistribute it and/or modify\n *     it under the terms of the GNU General Public License as published by\n *     the Free Software Foundation, either version 3 of the License, or\n *     (at your option) any later version.\n *\n *     This program is distributed in the hope that it will be useful,\n *     but WITHOUT ANY WARRANTY; without even the implied warranty of\n *     MERCHANTABILITY or FITNESS FOR A PARTICULAR PURPOSE.  See the\n *     GNU General Public License for more details.\n *\n *     You should have received a copy of the GNU General Public License\n *     along with this program.  If not, see <https://www.gnu.org/licenses/>.\n */\n\npragma solidity ^0.8.0;\nimport '../roles/AgentRole.sol';\nimport '../token/IToken.sol';\n\n\ncontract DVDTransferManager is Ownable {\n\n    /**\n     * @dev Emitted when a DVD transfer is initiated by `maker` to swap `token1Amount` tokens `token1` (TREX or not)\n     * for `token2Amount` tokens `token2` with `taker`\n     * this event is emitted by the `initiateDVDTransfer` function\n     */\n    event DVDTransferInitiated(bytes32 indexed transferID, address maker, address indexed token1, uint256 token1Amount, address taker, address indexed token2, uint256 token2Amount);\n\n    /**\n     * @dev Emitted when a DVD transfer is validated by `taker` and executed either by `taker` either by the agent of the TREX token\n     * if the TREX token is subject to conditional transfers\n     * this event is emitted by the `takeDVDTransfer` function\n     */\n    event DVDTransferExecuted(bytes32 indexed transferID);\n\n    /**\n     * @dev Emitted when a DVD transfer is cancelled\n     * this event is emitted by the `cancelDVDTransfer` function\n     */\n    event DVDTransferCancelled(bytes32 indexed transferID);\n\n    /**\n     * @dev Emitted when a DVD transfer is cancelled\n     * this event is emitted by the `cancelDVDTransfer` function\n     */\n    event FeeModified(bytes32 indexed parity, address token1, address token2, uint fee1, uint fee2, uint feeBase, address fee1Wallet, address fee2Wallet);\n\n    struct Delivery {\n        address counterpart;\n        address token;\n        uint256 amount;\n    }\n\n    struct Fee {\n        uint token1Fee;\n        uint token2Fee;\n        uint feeBase;\n        address fee1Wallet;\n        address fee2Wallet;\n    }\n\n    struct TxFees {\n        uint txFee1;\n        uint txFee2;\n        address fee1Wallet;\n        address fee2Wallet;\n    }\n\n    // fee details linked to a parity of tokens\n    mapping(bytes32 => Fee) public fee;\n\n    // tokens to deliver by DVD transfer maker\n    mapping(bytes32 => Delivery) public token1ToDeliver;\n\n    // tokens to deliver by DVD transfer taker\n    mapping(bytes32 => Delivery) public token2ToDeliver;\n\n    // nonce of the transaction allowing the creation of unique transferID\n    uint256 public txNonce;\n\n    // initiates the nonce at 0\n    constructor(){\n        txNonce = 0;\n    }\n\n\n    /**\n     *  @dev calculates the parity byte signature\n     *  @param _token1 the address of the base token\n     *  @param _token2 the address of the counterpart token\n     *  return the byte signature of the parity\n     */\n    function calculateParity (address _token1, address _token2) public pure returns (bytes32) {\n        bytes32 parity = keccak256(abi.encode(_token1, _token2));\n        return parity;\n    }\n\n    /**\n     *  @dev check if `_token` corresponds to a functional TREX token (with identity registry initiated)\n     *  @param _token the address token to check\n     *  the function will try to call `identityRegistry()` on the address, which is a getter specific to TREX tokens\n     *  if the call pass and returns an address it means that the token is a TREX, otherwise it's not a TREX\n     *  return `true` if the token is a TREX, `false` otherwise\n     */\n    function isTREX(address _token) public view returns (bool) {\n        try IToken(_token).identityRegistry() returns (IIdentityRegistry _ir) {\n            if (address(_ir) != address(0)) {\n                return true;\n            }\n        return false;\n        }\n        catch {\n            return false;\n        }\n    }\n\n    /**\n     *  @dev check if `_user` is a TREX agent of `_token`\n     *  @param _token the address token to check\n     *  @param _user the wallet address\n     *  if `_token` is a TREX token this function will check if `_user` is registered as an agent on it\n     *  return `true` if `_user` is agent of `_token`, return `false` otherwise\n     */\n    function isTREXAgent(address _token, address _user) public view returns (bool) {\n    if (isTREX(_token)){\n        return AgentRole(_token).isAgent(_user);\n    }\n        return false;\n    }\n\n    /**\n     *  @dev check if `_user` is a TREX owner of `_token`\n     *  @param _token the address token to check\n     *  @param _user the wallet address\n     *  if `_token` is a TREX token this function will check if `_user` is registered as an owner on it\n     *  return `true` if `_user` is owner of `_token`, return `false` otherwise\n     */\n    function isTREXOwner(address _token, address _user) public view returns (bool) {\n        if (isTREX(_token)){\n            return Ownable(_token).owner() == _user;\n        }\n        return false;\n    }\n\n    /**\n     *  @dev calculates the transferID depending on DVD transfer parameters\n     *  @param _nonce the nonce of the transfer on the smart contract\n     *  @param _maker the address of the DVD transfer maker (initiator of the transfer)\n     *  @param _token1 the address of the token that the maker is providing\n     *  @param _token1Amount the amount of tokens `_token1` provided by the maker\n     *  @param _taker the address of the DVD transfer taker (executor of the transfer)\n     *  @param _token2 the address of the token that the taker is providing\n     *  @param _token2Amount the amount of tokens `_token2` provided by the taker\n     *  return the identifier of the DVD transfer as a byte signature\n     */\n    function calculateTransferID (\n        uint256 _nonce,\n        address _maker,\n        address _token1,\n        uint256 _token1Amount,\n        address _taker,\n        address _token2,\n        uint256 _token2Amount\n    ) public pure returns (bytes32){\n        bytes32 transferID = keccak256(abi.encode(_nonce, _maker, _token1, _token1Amount, _taker, _token2, _token2Amount));\n        return transferID;\n    }\n\n    /**\n     *  @dev modify the fees applied to a parity of tokens (tokens can be TREX or ERC20)\n     *  @param _token1 the address of the base token for the parity `_token1`/`_token2`\n     *  @param _token2 the address of the counterpart token for the parity `_token1`/`_token2`\n     *  @param _fee1 the fee to apply on `_token1` leg of the DVD transfer per 10^`_feeBase`\n     *  @param _fee2 the fee to apply on `_token2` leg of the DVD transfer per 10^`_feeBase`\n     *  @param _feeBase the precision of the fee setting, e.g. if `_feeBase` == 2 then `_fee1` and `_fee2` are in % (fee/10^`_feeBase`)\n     *  @param _fee1Wallet the wallet address receiving fees applied on `_token1`\n     *  @param _fee2Wallet the wallet address receiving fees applied on `_token2`\n     *  `_token1` and `_token2` need to be ERC20 or TREX tokens addresses, otherwise the transaction will fail\n     *  `msg.sender` has to be owner of the DVD contract or the owner of the TREX token involved in the parity (if any)\n     *  requires fees to be lower than 100%\n     *  requires `_feeBase` to be higher or equal to 2 (precision 10^2)\n     *  requires `_feeBase` to be lower or equal to 5 (precision 10^5) to avoid overflows\n     *  requires `_fee1Wallet` & `_fee2Wallet` to be non empty addresses if `_fee1` & `_fee2` are respectively set\n     *  note that if fees are not set for a parity the default fee is basically 0%\n     *  emits a `FeeModified` event\n     */\n    function modifyFee(address _token1, address _token2, uint _fee1, uint _fee2, uint _feeBase, address _fee1Wallet, address _fee2Wallet) external {\n        require(msg.sender == owner() || isTREXOwner(_token1, msg.sender) || isTREXOwner(_token2, msg.sender), 'Ownable: only owner can call');\n        require(IERC20(_token1).totalSupply() != 0 && IERC20(_token2).totalSupply() != 0, 'invalid address : address is not an ERC20');\n        require(_fee1 <= 10**_feeBase && _fee1 >= 0 && _fee2 <= 10**_feeBase && _fee2 >= 0 && _feeBase <= 5 && _feeBase >= 2, 'invalid fee settings');\n        if (_fee1 > 0) {\n            require(_fee1Wallet != address(0), 'fee wallet 1 cannot be zero address');\n        }\n        if (_fee2 > 0) {\n            require(_fee2Wallet != address(0), 'fee wallet 2 cannot be zero address');\n        }\n        bytes32 _parity = calculateParity(_token1, _token2);\n        Fee memory parityFee;\n        parityFee.token1Fee = _fee1;\n        parityFee.token2Fee = _fee2;\n        parityFee.feeBase = _feeBase;\n        parityFee.fee1Wallet = _fee1Wallet;\n        parityFee.fee2Wallet = _fee2Wallet;\n        fee[_parity] = parityFee;\n        emit FeeModified(_parity, _token1, _token2, _fee1, _fee2, _feeBase, _fee1Wallet, _fee2Wallet);\n        bytes32 _reflectParity = calculateParity(_token2, _token1);\n        Fee memory reflectParityFee;\n        reflectParityFee.token1Fee = _fee2;\n        reflectParityFee.token2Fee = _fee1;\n        reflectParityFee.feeBase = _feeBase;\n        reflectParityFee.fee1Wallet = _fee2Wallet;\n        reflectParityFee.fee2Wallet = _fee1Wallet;\n        fee[_reflectParity] = reflectParityFee;\n        emit FeeModified(_reflectParity, _token2, _token1, _fee2, _fee1, _feeBase, _fee2Wallet, _fee1Wallet);\n    }\n\n    /**\n     *  @dev initiates a DVD transfer between `msg.sender` & `_counterpart`\n     *  @param _token1 the address of the token (ERC20 or TREX) provided by `msg.sender`\n     *  @param _token1Amount the amount of `_token1` that `msg.sender` will send to `_counterpart` at DVD execution time\n     *  @param _counterpart the address of the counterpart, which will receive `_token1Amount` of `_token1` in exchange for\n     *  `_token2Amount` of `_token2`\n     *  @param _token2 the address of the token (ERC20 or TREX) provided by `_counterpart`\n     *  @param _token2Amount the amount of `_token2` that `_counterpart` will send to `msg.sender` at DVD execution time\n     *  requires `msg.sender` to have enough `_token1` tokens to process the DVD transfer\n     *  requires `DVDTransferManager` contract to have the necessary allowance to process the DVD transfer on `msg.sender`\n     *  requires `_counterpart` to not be the 0 address\n     *  requires `_token1` & `_token2` to be valid token addresses\n     *  emits a `DVDTransferInitiated` event\n     */\n    function initiateDVDTransfer(address _token1, uint256 _token1Amount, address _counterpart, address _token2, uint256 _token2Amount) external {\n        require(IERC20(_token1).balanceOf(msg.sender) >= _token1Amount, 'Not enough tokens in balance');\n        require(IERC20(_token1).allowance(msg.sender, address(this)) >= _token1Amount, 'not enough allowance to initiate transfer');\n        require (_counterpart != address(0), 'counterpart cannot be null');\n        require(IERC20(_token2).totalSupply() != 0, 'invalid address : address is not an ERC20');\n        Delivery memory token1;\n        token1.counterpart = msg.sender;\n        token1.token = _token1;\n        token1.amount = _token1Amount;\n        Delivery memory token2;\n        token2.counterpart = _counterpart;\n        token2.token = _token2;\n        token2.amount = _token2Amount;\n        bytes32 transferID = calculateTransferID(txNonce, token1.counterpart, token1.token, token1.amount, token2.counterpart, token2.token, token2.amount);\n        token1ToDeliver[transferID] = token1;\n        token2ToDeliver[transferID] = token2;\n        emit DVDTransferInitiated(transferID,token1.counterpart, token1.token, token1.amount, token2.counterpart, token2.token, token2.amount);\n        txNonce++;\n    }\n\n    /**\n     *  @dev execute a DVD transfer that was previously initiated through the `initiateDVDTransfer` function\n     *  @param _transferID the DVD transfer identifier as calculated through the `calculateTransferID` function for the initiated DVD transfer to execute\n     *  requires `_transferID` to exist (DVD transfer has to be initiated)\n     *  requires that taker (counterpart sending token2) has enough tokens in balance to process the DVD transfer\n     *  requires that `DVDTransferManager` contract has enough allowance to process the `token2` leg of the DVD transfer\n     *  requires that `msg.sender` is the taker OR the TREX agent in case a TREX token is involved in the transfer (in case of conditional transfer\n     *  the agent can call the function when the transfer has been approved)\n     *  if fees apply on one side or both sides of the transfer the fees will be sent, at transaction time, to the fees wallet previously set\n     *  in case fees apply the counterparts will receive less than the amounts included in the DVD transfer as part of the transfer is redirected to the\n     *  fee wallet at transfer execution time\n     *  if one or both legs of the transfer are TREX, then all the relevant checks apply on the transaction (compliance + identity checks)\n     *  and the transaction WILL FAIL if the TREX conditions of transfer are not respected, please refer to {Token-transfer} and {Token-transferFrom} to\n     *  know more about TREX conditions for transfers\n     *  once the DVD transfer is executed the `_transferID` is removed from the pending `_transferID` pool\n     *  emits a `DVDTransferExecuted` event\n     */\n    function takeDVDTransfer(bytes32 _transferID) external {\n        Delivery memory token1 = token1ToDeliver[_transferID];\n        Delivery memory token2 = token2ToDeliver[_transferID];\n        require(token1.counterpart != address(0) && token2.counterpart != address(0), 'transfer ID does not exist');\n        IERC20 token1Contract = IERC20(token1.token);\n        IERC20 token2Contract = IERC20(token2.token);\n        require (msg.sender == token2.counterpart || isTREXAgent(token1.token, msg.sender) || isTREXAgent(token2.token, msg.sender), 'transfer has to be done by the counterpart or by owner');\n        require(token2Contract.balanceOf(token2.counterpart) >= token2.amount, 'Not enough tokens in balance');\n        require(token2Contract.allowance(token2.counterpart, address(this)) >= token2.amount, 'not enough allowance to transfer');\n        TxFees memory fees = calculateFee(_transferID);\n        if (fees.txFee1 != 0) {\n        token1Contract.transferFrom(token1.counterpart, token2.counterpart, (token1.amount - fees.txFee1));\n        token1Contract.transferFrom(token1.counterpart, fees.fee1Wallet, fees.txFee1);\n        }\n        if (fees.txFee1 == 0) {\n            token1Contract.transferFrom(token1.counterpart, token2.counterpart, token1.amount);\n        }\n        if (fees.txFee2 != 0) {\n            token2Contract.transferFrom(token2.counterpart, token1.counterpart, (token2.amount - fees.txFee2));\n            token2Contract.transferFrom(token2.counterpart, fees.fee2Wallet, fees.txFee2);\n        }\n        if (fees.txFee2 == 0) {\n            token2Contract.transferFrom(token2.counterpart, token1.counterpart, token2.amount);\n        }\n        delete token1ToDeliver[_transferID];\n        delete token2ToDeliver[_transferID];\n        emit DVDTransferExecuted(_transferID);\n    }\n\n    /**\n     *  @dev delete a pending DVD transfer that was previously initiated through the `initiateDVDTransfer` function from the pool\n     *  @param _transferID the DVD transfer identifier as calculated through the `calculateTransferID` function for the initiated DVD transfer to delete\n     *  requires `_transferID` to exist (DVD transfer has to be initiated)\n     *  requires that `msg.sender` is the taker or the maker or the `DVDTransferManager` contract owner or the TREX agent in case a TREX token is involved in the transfer\n     *  once the `cancelDVDTransfer` is executed the `_transferID` is removed from the pending `_transferID` pool\n     *  emits a `DVDTransferCancelled` event\n     */\n    function cancelDVDTransfer(bytes32 _transferID) external {\n        Delivery memory token1 = token1ToDeliver[_transferID];\n        Delivery memory token2 = token2ToDeliver[_transferID];\n        require(token1.counterpart != address(0) && token2.counterpart != address(0), 'transfer ID does not exist');\n        require (msg.sender == token2.counterpart || msg.sender == token1.counterpart || msg.sender == owner() || isTREXAgent(token1.token, msg.sender) || isTREXAgent(token2.token, msg.sender), 'you are not allowed to cancel this transfer');\n        delete token1ToDeliver[_transferID];\n        delete token2ToDeliver[_transferID];\n        emit DVDTransferCancelled(_transferID);\n    }\n\n    /**\n     *  @dev calculates the fees to apply to a specific transfer depending on the fees applied to the parity used in the transfer\n     *  @param _transferID the DVD transfer identifier as calculated through the `calculateTransferID` function for the transfer to calculate fees on\n     *  requires `_transferID` to exist (DVD transfer has to be initiated)\n     *  returns the fees to apply on each leg of the transfer in the form of a `TxFees` struct\n     */\n    function calculateFee(bytes32 _transferID) public view returns(TxFees memory) {\n        TxFees memory fees;\n        Delivery memory token1 = token1ToDeliver[_transferID];\n        Delivery memory token2 = token2ToDeliver[_transferID];\n        require(token1.counterpart != address(0) && token2.counterpart != address(0), 'transfer ID does not exist');\n        bytes32 parity = calculateParity(token1.token, token2.token);\n        Fee memory feeDetails = fee[parity];\n        if (feeDetails.token1Fee != 0 || feeDetails.token2Fee != 0 ){\n            uint _txFee1 = (token1.amount * feeDetails.token1Fee * 10**(feeDetails.feeBase - 2)) / (10**feeDetails.feeBase);\n            uint _txFee2 = (token2.amount * feeDetails.token2Fee * 10**(feeDetails.feeBase - 2)) / (10**feeDetails.feeBase);\n            fees.txFee1 = _txFee1;\n            fees.txFee2 = _txFee2;\n            fees.fee1Wallet = feeDetails.fee1Wallet;\n            fees.fee2Wallet = feeDetails.fee2Wallet;\n            return fees;\n        }\n        else {\n            fees.txFee1 = 0;\n            fees.txFee2 = 0;\n            fees.fee1Wallet = address(0);\n            fees.fee2Wallet = address(0);\n            return fees;\n        }\n    }\n\n}\n",
  "sourcePath": "/home/mayank/Desktop/security-token-5/Prototype--Craye-Realstate/T-REX/contracts/DVD/DVDTransferManager.sol",
  "compiler": {
    "name": "solc",
    "version": "0.8.15+commit.e14f2714.Emscripten.clang"
  },
  "schemaVersion": "3.4.6",
  "updatedAt": "2022-08-03T10:43:51.250Z",
  "devdoc": {
    "events": {
      "DVDTransferCancelled(bytes32)": {
        "details": "Emitted when a DVD transfer is cancelled this event is emitted by the `cancelDVDTransfer` function"
      },
      "DVDTransferExecuted(bytes32)": {
        "details": "Emitted when a DVD transfer is validated by `taker` and executed either by `taker` either by the agent of the TREX token if the TREX token is subject to conditional transfers this event is emitted by the `takeDVDTransfer` function"
      },
      "DVDTransferInitiated(bytes32,address,address,uint256,address,address,uint256)": {
        "details": "Emitted when a DVD transfer is initiated by `maker` to swap `token1Amount` tokens `token1` (TREX or not) for `token2Amount` tokens `token2` with `taker` this event is emitted by the `initiateDVDTransfer` function"
      },
      "FeeModified(bytes32,address,address,uint256,uint256,uint256,address,address)": {
        "details": "Emitted when a DVD transfer is cancelled this event is emitted by the `cancelDVDTransfer` function"
      }
    },
    "kind": "dev",
    "methods": {
      "calculateFee(bytes32)": {
        "details": "calculates the fees to apply to a specific transfer depending on the fees applied to the parity used in the transfer",
        "params": {
          "_transferID": "the DVD transfer identifier as calculated through the `calculateTransferID` function for the transfer to calculate fees on  requires `_transferID` to exist (DVD transfer has to be initiated)  returns the fees to apply on each leg of the transfer in the form of a `TxFees` struct"
        }
      },
      "calculateParity(address,address)": {
        "details": "calculates the parity byte signature",
        "params": {
          "_token1": "the address of the base token",
          "_token2": "the address of the counterpart token  return the byte signature of the parity"
        }
      },
      "calculateTransferID(uint256,address,address,uint256,address,address,uint256)": {
        "details": "calculates the transferID depending on DVD transfer parameters",
        "params": {
          "_maker": "the address of the DVD transfer maker (initiator of the transfer)",
          "_nonce": "the nonce of the transfer on the smart contract",
          "_taker": "the address of the DVD transfer taker (executor of the transfer)",
          "_token1": "the address of the token that the maker is providing",
          "_token1Amount": "the amount of tokens `_token1` provided by the maker",
          "_token2": "the address of the token that the taker is providing",
          "_token2Amount": "the amount of tokens `_token2` provided by the taker  return the identifier of the DVD transfer as a byte signature"
        }
      },
      "cancelDVDTransfer(bytes32)": {
        "details": "delete a pending DVD transfer that was previously initiated through the `initiateDVDTransfer` function from the pool",
        "params": {
          "_transferID": "the DVD transfer identifier as calculated through the `calculateTransferID` function for the initiated DVD transfer to delete  requires `_transferID` to exist (DVD transfer has to be initiated)  requires that `msg.sender` is the taker or the maker or the `DVDTransferManager` contract owner or the TREX agent in case a TREX token is involved in the transfer  once the `cancelDVDTransfer` is executed the `_transferID` is removed from the pending `_transferID` pool  emits a `DVDTransferCancelled` event"
        }
      },
      "initiateDVDTransfer(address,uint256,address,address,uint256)": {
        "details": "initiates a DVD transfer between `msg.sender` & `_counterpart`",
        "params": {
          "_counterpart": "the address of the counterpart, which will receive `_token1Amount` of `_token1` in exchange for  `_token2Amount` of `_token2`",
          "_token1": "the address of the token (ERC20 or TREX) provided by `msg.sender`",
          "_token1Amount": "the amount of `_token1` that `msg.sender` will send to `_counterpart` at DVD execution time",
          "_token2": "the address of the token (ERC20 or TREX) provided by `_counterpart`",
          "_token2Amount": "the amount of `_token2` that `_counterpart` will send to `msg.sender` at DVD execution time  requires `msg.sender` to have enough `_token1` tokens to process the DVD transfer  requires `DVDTransferManager` contract to have the necessary allowance to process the DVD transfer on `msg.sender`  requires `_counterpart` to not be the 0 address  requires `_token1` & `_token2` to be valid token addresses  emits a `DVDTransferInitiated` event"
        }
      },
      "isTREX(address)": {
        "details": "check if `_token` corresponds to a functional TREX token (with identity registry initiated)",
        "params": {
          "_token": "the address token to check  the function will try to call `identityRegistry()` on the address, which is a getter specific to TREX tokens  if the call pass and returns an address it means that the token is a TREX, otherwise it's not a TREX  return `true` if the token is a TREX, `false` otherwise"
        }
      },
      "isTREXAgent(address,address)": {
        "details": "check if `_user` is a TREX agent of `_token`",
        "params": {
          "_token": "the address token to check",
          "_user": "the wallet address  if `_token` is a TREX token this function will check if `_user` is registered as an agent on it  return `true` if `_user` is agent of `_token`, return `false` otherwise"
        }
      },
      "isTREXOwner(address,address)": {
        "details": "check if `_user` is a TREX owner of `_token`",
        "params": {
          "_token": "the address token to check",
          "_user": "the wallet address  if `_token` is a TREX token this function will check if `_user` is registered as an owner on it  return `true` if `_user` is owner of `_token`, return `false` otherwise"
        }
      },
      "modifyFee(address,address,uint256,uint256,uint256,address,address)": {
        "details": "modify the fees applied to a parity of tokens (tokens can be TREX or ERC20)",
        "params": {
          "_fee1": "the fee to apply on `_token1` leg of the DVD transfer per 10^`_feeBase`",
          "_fee1Wallet": "the wallet address receiving fees applied on `_token1`",
          "_fee2": "the fee to apply on `_token2` leg of the DVD transfer per 10^`_feeBase`",
          "_fee2Wallet": "the wallet address receiving fees applied on `_token2`  `_token1` and `_token2` need to be ERC20 or TREX tokens addresses, otherwise the transaction will fail  `msg.sender` has to be owner of the DVD contract or the owner of the TREX token involved in the parity (if any)  requires fees to be lower than 100%  requires `_feeBase` to be higher or equal to 2 (precision 10^2)  requires `_feeBase` to be lower or equal to 5 (precision 10^5) to avoid overflows  requires `_fee1Wallet` & `_fee2Wallet` to be non empty addresses if `_fee1` & `_fee2` are respectively set  note that if fees are not set for a parity the default fee is basically 0%  emits a `FeeModified` event",
          "_feeBase": "the precision of the fee setting, e.g. if `_feeBase` == 2 then `_fee1` and `_fee2` are in % (fee/10^`_feeBase`)",
          "_token1": "the address of the base token for the parity `_token1`/`_token2`",
          "_token2": "the address of the counterpart token for the parity `_token1`/`_token2`"
        }
      },
      "owner()": {
        "details": "Returns the address of the current owner."
      },
      "renounceOwnership()": {
        "details": "Leaves the contract without owner. It will not be possible to call `onlyOwner` functions anymore. Can only be called by the current owner. NOTE: Renouncing ownership will leave the contract without an owner, thereby removing any functionality that is only available to the owner."
      },
      "takeDVDTransfer(bytes32)": {
        "details": "execute a DVD transfer that was previously initiated through the `initiateDVDTransfer` function",
        "params": {
          "_transferID": "the DVD transfer identifier as calculated through the `calculateTransferID` function for the initiated DVD transfer to execute  requires `_transferID` to exist (DVD transfer has to be initiated)  requires that taker (counterpart sending token2) has enough tokens in balance to process the DVD transfer  requires that `DVDTransferManager` contract has enough allowance to process the `token2` leg of the DVD transfer  requires that `msg.sender` is the taker OR the TREX agent in case a TREX token is involved in the transfer (in case of conditional transfer  the agent can call the function when the transfer has been approved)  if fees apply on one side or both sides of the transfer the fees will be sent, at transaction time, to the fees wallet previously set  in case fees apply the counterparts will receive less than the amounts included in the DVD transfer as part of the transfer is redirected to the  fee wallet at transfer execution time  if one or both legs of the transfer are TREX, then all the relevant checks apply on the transaction (compliance + identity checks)  and the transaction WILL FAIL if the TREX conditions of transfer are not respected, please refer to {Token-transfer} and {Token-transferFrom} to  know more about TREX conditions for transfers  once the DVD transfer is executed the `_transferID` is removed from the pending `_transferID` pool  emits a `DVDTransferExecuted` event"
        }
      },
      "transferOwnership(address)": {
        "details": "Transfers ownership of the contract to a new account (`newOwner`). Can only be called by the current owner."
      }
    },
    "version": 1
  },
  "userdoc": {
    "kind": "user",
    "methods": {},
    "version": 1
  }
}