{
  "contractName": "Identity",
  "abi": [
    {
      "inputs": [
        {
          "internalType": "address",
          "name": "initialManagementKey",
          "type": "address"
        },
        {
          "internalType": "bool",
          "name": "_isLibrary",
          "type": "bool"
        }
      ],
      "stateMutability": "nonpayable",
      "type": "constructor"
    },
    {
      "anonymous": false,
      "inputs": [
        {
          "indexed": true,
          "internalType": "uint256",
          "name": "executionId",
          "type": "uint256"
        },
        {
          "indexed": false,
          "internalType": "bool",
          "name": "approved",
          "type": "bool"
        }
      ],
      "name": "Approved",
      "type": "event"
    },
    {
      "anonymous": false,
      "inputs": [
        {
          "indexed": true,
          "internalType": "bytes32",
          "name": "claimId",
          "type": "bytes32"
        },
        {
          "indexed": true,
          "internalType": "uint256",
          "name": "topic",
          "type": "uint256"
        },
        {
          "indexed": false,
          "internalType": "uint256",
          "name": "scheme",
          "type": "uint256"
        },
        {
          "indexed": true,
          "internalType": "address",
          "name": "issuer",
          "type": "address"
        },
        {
          "indexed": false,
          "internalType": "bytes",
          "name": "signature",
          "type": "bytes"
        },
        {
          "indexed": false,
          "internalType": "bytes",
          "name": "data",
          "type": "bytes"
        },
        {
          "indexed": false,
          "internalType": "string",
          "name": "uri",
          "type": "string"
        }
      ],
      "name": "ClaimAdded",
      "type": "event"
    },
    {
      "anonymous": false,
      "inputs": [
        {
          "indexed": true,
          "internalType": "bytes32",
          "name": "claimId",
          "type": "bytes32"
        },
        {
          "indexed": true,
          "internalType": "uint256",
          "name": "topic",
          "type": "uint256"
        },
        {
          "indexed": false,
          "internalType": "uint256",
          "name": "scheme",
          "type": "uint256"
        },
        {
          "indexed": true,
          "internalType": "address",
          "name": "issuer",
          "type": "address"
        },
        {
          "indexed": false,
          "internalType": "bytes",
          "name": "signature",
          "type": "bytes"
        },
        {
          "indexed": false,
          "internalType": "bytes",
          "name": "data",
          "type": "bytes"
        },
        {
          "indexed": false,
          "internalType": "string",
          "name": "uri",
          "type": "string"
        }
      ],
      "name": "ClaimChanged",
      "type": "event"
    },
    {
      "anonymous": false,
      "inputs": [
        {
          "indexed": true,
          "internalType": "bytes32",
          "name": "claimId",
          "type": "bytes32"
        },
        {
          "indexed": true,
          "internalType": "uint256",
          "name": "topic",
          "type": "uint256"
        },
        {
          "indexed": false,
          "internalType": "uint256",
          "name": "scheme",
          "type": "uint256"
        },
        {
          "indexed": true,
          "internalType": "address",
          "name": "issuer",
          "type": "address"
        },
        {
          "indexed": false,
          "internalType": "bytes",
          "name": "signature",
          "type": "bytes"
        },
        {
          "indexed": false,
          "internalType": "bytes",
          "name": "data",
          "type": "bytes"
        },
        {
          "indexed": false,
          "internalType": "string",
          "name": "uri",
          "type": "string"
        }
      ],
      "name": "ClaimRemoved",
      "type": "event"
    },
    {
      "anonymous": false,
      "inputs": [
        {
          "indexed": true,
          "internalType": "uint256",
          "name": "claimRequestId",
          "type": "uint256"
        },
        {
          "indexed": true,
          "internalType": "uint256",
          "name": "topic",
          "type": "uint256"
        },
        {
          "indexed": false,
          "internalType": "uint256",
          "name": "scheme",
          "type": "uint256"
        },
        {
          "indexed": true,
          "internalType": "address",
          "name": "issuer",
          "type": "address"
        },
        {
          "indexed": false,
          "internalType": "bytes",
          "name": "signature",
          "type": "bytes"
        },
        {
          "indexed": false,
          "internalType": "bytes",
          "name": "data",
          "type": "bytes"
        },
        {
          "indexed": false,
          "internalType": "string",
          "name": "uri",
          "type": "string"
        }
      ],
      "name": "ClaimRequested",
      "type": "event"
    },
    {
      "anonymous": false,
      "inputs": [
        {
          "indexed": true,
          "internalType": "uint256",
          "name": "executionId",
          "type": "uint256"
        },
        {
          "indexed": true,
          "internalType": "address",
          "name": "to",
          "type": "address"
        },
        {
          "indexed": true,
          "internalType": "uint256",
          "name": "value",
          "type": "uint256"
        },
        {
          "indexed": false,
          "internalType": "bytes",
          "name": "data",
          "type": "bytes"
        }
      ],
      "name": "Executed",
      "type": "event"
    },
    {
      "anonymous": false,
      "inputs": [
        {
          "indexed": true,
          "internalType": "uint256",
          "name": "executionId",
          "type": "uint256"
        },
        {
          "indexed": true,
          "internalType": "address",
          "name": "to",
          "type": "address"
        },
        {
          "indexed": true,
          "internalType": "uint256",
          "name": "value",
          "type": "uint256"
        },
        {
          "indexed": false,
          "internalType": "bytes",
          "name": "data",
          "type": "bytes"
        }
      ],
      "name": "ExecutionFailed",
      "type": "event"
    },
    {
      "anonymous": false,
      "inputs": [
        {
          "indexed": true,
          "internalType": "uint256",
          "name": "executionId",
          "type": "uint256"
        },
        {
          "indexed": true,
          "internalType": "address",
          "name": "to",
          "type": "address"
        },
        {
          "indexed": true,
          "internalType": "uint256",
          "name": "value",
          "type": "uint256"
        },
        {
          "indexed": false,
          "internalType": "bytes",
          "name": "data",
          "type": "bytes"
        }
      ],
      "name": "ExecutionRequested",
      "type": "event"
    },
    {
      "anonymous": false,
      "inputs": [
        {
          "indexed": true,
          "internalType": "bytes32",
          "name": "key",
          "type": "bytes32"
        },
        {
          "indexed": true,
          "internalType": "uint256",
          "name": "purpose",
          "type": "uint256"
        },
        {
          "indexed": true,
          "internalType": "uint256",
          "name": "keyType",
          "type": "uint256"
        }
      ],
      "name": "KeyAdded",
      "type": "event"
    },
    {
      "anonymous": false,
      "inputs": [
        {
          "indexed": true,
          "internalType": "bytes32",
          "name": "key",
          "type": "bytes32"
        },
        {
          "indexed": true,
          "internalType": "uint256",
          "name": "purpose",
          "type": "uint256"
        },
        {
          "indexed": true,
          "internalType": "uint256",
          "name": "keyType",
          "type": "uint256"
        }
      ],
      "name": "KeyRemoved",
      "type": "event"
    },
    {
      "anonymous": false,
      "inputs": [
        {
          "indexed": false,
          "internalType": "uint256",
          "name": "purpose",
          "type": "uint256"
        },
        {
          "indexed": false,
          "internalType": "uint256",
          "name": "number",
          "type": "uint256"
        }
      ],
      "name": "KeysRequiredChanged",
      "type": "event"
    },
    {
      "inputs": [],
      "name": "version",
      "outputs": [
        {
          "internalType": "string",
          "name": "",
          "type": "string"
        }
      ],
      "stateMutability": "pure",
      "type": "function"
    },
    {
      "inputs": [
        {
          "internalType": "address",
          "name": "initialManagementKey",
          "type": "address"
        }
      ],
      "name": "initialize",
      "outputs": [],
      "stateMutability": "nonpayable",
      "type": "function"
    },
    {
      "inputs": [
        {
          "internalType": "bytes32",
          "name": "_key",
          "type": "bytes32"
        }
      ],
      "name": "getKey",
      "outputs": [
        {
          "internalType": "uint256[]",
          "name": "purposes",
          "type": "uint256[]"
        },
        {
          "internalType": "uint256",
          "name": "keyType",
          "type": "uint256"
        },
        {
          "internalType": "bytes32",
          "name": "key",
          "type": "bytes32"
        }
      ],
      "stateMutability": "view",
      "type": "function"
    },
    {
      "inputs": [
        {
          "internalType": "bytes32",
          "name": "_key",
          "type": "bytes32"
        }
      ],
      "name": "getKeyPurposes",
      "outputs": [
        {
          "internalType": "uint256[]",
          "name": "_purposes",
          "type": "uint256[]"
        }
      ],
      "stateMutability": "view",
      "type": "function"
    },
    {
      "inputs": [
        {
          "internalType": "uint256",
          "name": "_purpose",
          "type": "uint256"
        }
      ],
      "name": "getKeysByPurpose",
      "outputs": [
        {
          "internalType": "bytes32[]",
          "name": "_keys",
          "type": "bytes32[]"
        }
      ],
      "stateMutability": "view",
      "type": "function"
    },
    {
      "inputs": [
        {
          "internalType": "bytes32",
          "name": "_key",
          "type": "bytes32"
        },
        {
          "internalType": "uint256",
          "name": "_purpose",
          "type": "uint256"
        },
        {
          "internalType": "uint256",
          "name": "_type",
          "type": "uint256"
        }
      ],
      "name": "addKey",
      "outputs": [
        {
          "internalType": "bool",
          "name": "success",
          "type": "bool"
        }
      ],
      "stateMutability": "nonpayable",
      "type": "function"
    },
    {
      "inputs": [
        {
          "internalType": "uint256",
          "name": "_id",
          "type": "uint256"
        },
        {
          "internalType": "bool",
          "name": "_approve",
          "type": "bool"
        }
      ],
      "name": "approve",
      "outputs": [
        {
          "internalType": "bool",
          "name": "success",
          "type": "bool"
        }
      ],
      "stateMutability": "nonpayable",
      "type": "function"
    },
    {
      "inputs": [
        {
          "internalType": "address",
          "name": "_to",
          "type": "address"
        },
        {
          "internalType": "uint256",
          "name": "_value",
          "type": "uint256"
        },
        {
          "internalType": "bytes",
          "name": "_data",
          "type": "bytes"
        }
      ],
      "name": "execute",
      "outputs": [
        {
          "internalType": "uint256",
          "name": "executionId",
          "type": "uint256"
        }
      ],
      "stateMutability": "payable",
      "type": "function"
    },
    {
      "inputs": [
        {
          "internalType": "bytes32",
          "name": "_key",
          "type": "bytes32"
        },
        {
          "internalType": "uint256",
          "name": "_purpose",
          "type": "uint256"
        }
      ],
      "name": "removeKey",
      "outputs": [
        {
          "internalType": "bool",
          "name": "success",
          "type": "bool"
        }
      ],
      "stateMutability": "nonpayable",
      "type": "function"
    },
    {
      "inputs": [
        {
          "internalType": "bytes32",
          "name": "_key",
          "type": "bytes32"
        },
        {
          "internalType": "uint256",
          "name": "_purpose",
          "type": "uint256"
        }
      ],
      "name": "keyHasPurpose",
      "outputs": [
        {
          "internalType": "bool",
          "name": "result",
          "type": "bool"
        }
      ],
      "stateMutability": "view",
      "type": "function"
    },
    {
      "inputs": [
        {
          "internalType": "uint256",
          "name": "_topic",
          "type": "uint256"
        },
        {
          "internalType": "uint256",
          "name": "_scheme",
          "type": "uint256"
        },
        {
          "internalType": "address",
          "name": "_issuer",
          "type": "address"
        },
        {
          "internalType": "bytes",
          "name": "_signature",
          "type": "bytes"
        },
        {
          "internalType": "bytes",
          "name": "_data",
          "type": "bytes"
        },
        {
          "internalType": "string",
          "name": "_uri",
          "type": "string"
        }
      ],
      "name": "addClaim",
      "outputs": [
        {
          "internalType": "bytes32",
          "name": "claimRequestId",
          "type": "bytes32"
        }
      ],
      "stateMutability": "nonpayable",
      "type": "function"
    },
    {
      "inputs": [
        {
          "internalType": "bytes32",
          "name": "_claimId",
          "type": "bytes32"
        }
      ],
      "name": "removeClaim",
      "outputs": [
        {
          "internalType": "bool",
          "name": "success",
          "type": "bool"
        }
      ],
      "stateMutability": "nonpayable",
      "type": "function"
    },
    {
      "inputs": [
        {
          "internalType": "bytes32",
          "name": "_claimId",
          "type": "bytes32"
        }
      ],
      "name": "getClaim",
      "outputs": [
        {
          "internalType": "uint256",
          "name": "topic",
          "type": "uint256"
        },
        {
          "internalType": "uint256",
          "name": "scheme",
          "type": "uint256"
        },
        {
          "internalType": "address",
          "name": "issuer",
          "type": "address"
        },
        {
          "internalType": "bytes",
          "name": "signature",
          "type": "bytes"
        },
        {
          "internalType": "bytes",
          "name": "data",
          "type": "bytes"
        },
        {
          "internalType": "string",
          "name": "uri",
          "type": "string"
        }
      ],
      "stateMutability": "view",
      "type": "function"
    },
    {
      "inputs": [
        {
          "internalType": "uint256",
          "name": "_topic",
          "type": "uint256"
        }
      ],
      "name": "getClaimIdsByTopic",
      "outputs": [
        {
          "internalType": "bytes32[]",
          "name": "claimIds",
          "type": "bytes32[]"
        }
      ],
      "stateMutability": "view",
      "type": "function"
    }
  ],
  "bytecode": "0x60806040526006805461ffff19166101001790553480156200002057600080fd5b50604051620024c6380380620024c6833981016040819052620000439162000268565b6006805461ff0019168215610100908102919091179182905560ff91041615620000785762000072826200008e565b62000086565b6006805460ff191660011790555b5050620002b6565b60065460ff161580620000a05750303b155b620000f15760405162461bcd60e51b815260206004820152601e60248201527f496e697469616c206b65792077617320616c72656164792073657475702e0000604482015260640160405180910390fd5b6006805461ffff1916610101179055604080516001600160a01b03831660208201526000910160408051601f198184030181528282528051602091820120600081815260018084528482206002810184905586850190955280865290829052918290529350620001629290620001fc565b506000818152600160208181526040808420830183905560029091527fe90b7bceb6e7df5418fb78d8ee546e97c83a08bbccc01a0644d599ccd2a7c2e0805480840182559084527f7fef4bf8f63cf9dd467136c679c02b5c17fcf6322d9562512bf5eb952cf7cc5301849055519091829184917f480000bb1edad8ca1470381cc334b1917fbd51c6531f3a623ea8e0ec7e38a6e991a45050565b8280548282559060005260206000209081019282156200023f579160200282015b828111156200023f578251829060ff169055916020019190600101906200021d565b506200024d92915062000251565b5090565b5b808211156200024d576000815560010162000252565b600080604083850312156200027c57600080fd5b82516001600160a01b03811681146200029457600080fd5b60208401519092508015158114620002ab57600080fd5b809150509250929050565b61220080620002c66000396000f3fe6080604052600436106100dd5760003560e01c80639010f7261161007f578063c4d66de811610059578063c4d66de81461026c578063c9100bcb1461028e578063d202158d146102c0578063fb307b34146102e057600080fd5b80639010f7261461020b578063b1a34e0d1461022b578063b61d27f61461025957600080fd5b806353d413c5116100bb57806353d413c51461016a57806354fd4d501461018a578063747442d3146101be57806380e9e9e1146101de57600080fd5b806312aaac70146100e25780631d3812401461011a5780634eee424a1461014a575b600080fd5b3480156100ee57600080fd5b506101026100fd3660046119b6565b61030d565b60405161011193929190611a0a565b60405180910390f35b34801561012657600080fd5b5061013a610135366004611a2f565b610386565b6040519015158152602001610111565b34801561015657600080fd5b5061013a6101653660046119b6565b6105a5565b34801561017657600080fd5b5061013a610185366004611a5b565b6108bf565b34801561019657600080fd5b5060408051808201825260058152640312e342e360dc1b602082015290516101119190611ad9565b3480156101ca57600080fd5b5061013a6101d9366004611af3565b610c54565b3480156101ea57600080fd5b506101fe6101f93660046119b6565b610ef6565b6040516101119190611b28565b34801561021757600080fd5b506101fe6102263660046119b6565b610f58565b34801561023757600080fd5b5061024b610246366004611c2f565b610fb8565b604051908152602001610111565b61024b610267366004611cee565b61127c565b34801561027857600080fd5b5061028c610287366004611d45565b6113ea565b005b34801561029a57600080fd5b506102ae6102a93660046119b6565b6113f6565b60405161011196959493929190611d60565b3480156102cc57600080fd5b5061013a6102db366004611a5b565b6115f7565b3480156102ec57600080fd5b506103006102fb3660046119b6565b6116f8565b6040516101119190611dc0565b60008181526001602081815260408084209283015460028401548454835181860281018601909452808452606096958695909491859183018282801561037257602002820191906000526020600020905b81548152602001906001019080831161035e575b505050505092509250925092509193909250565b60065460009060ff6101009091041615156001146103bf5760405162461bcd60e51b81526004016103b690611dd3565b60405180910390fd5b33301461040f57604080513360208201526103f391015b6040516020818303038152906040528051906020012060016115f7565b61040f5760405162461bcd60e51b81526004016103b690611e26565b6000848152600160205260409020600201548490036105005760005b6000858152600160205260409020548110156104da57600085815260016020526040812080548390811061046157610461611e76565b906000526020600020015490508481036104c75760405162461bcd60e51b815260206004820152602160248201527f436f6e666c6963743a204b657920616c72656164792068617320707572706f736044820152606560f81b60648201526084016103b6565b50806104d281611ea2565b91505061042b565b50600084815260016020818152604083208054928301815583529091200183905561054c565b6000848152600160208181526040808420600281018990558151808401909252878252938890529082905261053592916118be565b506000848152600160208190526040909120018290555b60008381526002602090815260408083208054600181018255908452918320909101869055518391859187917f480000bb1edad8ca1470381cc334b1917fbd51c6531f3a623ea8e0ec7e38a6e991a45060019392505050565b60065460009060ff6101009091041615156001146105d55760405162461bcd60e51b81526004016103b690611dd3565b333014610669576040805133602082015261060991015b6040516020818303038152906040528051906020012060036115f7565b6106695760405162461bcd60e51b815260206004820152602b60248201527f5065726d697373696f6e733a2053656e64657220646f6573206e6f742068617660448201526a6520434c41494d206b657960a81b60648201526084016103b6565b60008281526004602052604081205490036106da5760405162461bcd60e51b815260206004820152602b60248201527f4e6f6e4578697374696e673a205468657265206973206e6f20636c61696d207760448201526a1a5d1a081d1a1a5cc8125160aa1b60648201526084016103b6565b60005b60008381526004602090815260408083205483526005909152902080548491908390811061070d5761070d611e76565b90600052602060002001541461072f578061072781611ea2565b9150506106dd565b600083815260046020908152604080832054835260059091529020805461075890600190611ebb565b8154811061076857610768611e76565b60009182526020808320909101548583526004825260408084205484526005909252912080548390811061079e5761079e611e76565b60009182526020808320909101929092558481526004825260408082205482526005909252208054806107d3576107d3611ed2565b60008281526020808220830160001990810183905590920190925584825260049081905260409182902060028101548154600183015494516001600160a01b0390921694909388937f3cf57863a89432c61c4a27073c6ee39e8a764bff5a05aebfbcdcdc80b2e6130a936108569392600383019290810191600590910190611f9f565b60405180910390a46000838152600460205260408120818155600181018290556002810180546001600160a01b0319169055906108966003830182611909565b6108a4600483016000611909565b6108b2600583016000611909565b505060019150505b919050565b60065460009060ff6101009091041615156001146108ef5760405162461bcd60e51b81526004016103b690611dd3565b60008381526001602052604090206002015483146109595760405162461bcd60e51b815260206004820152602160248201527f4e6f6e4578697374696e673a204b65792069736e2774207265676973746572656044820152601960fa1b60648201526084016103b6565b333014610990576040805133602082015261097491016103d6565b6109905760405162461bcd60e51b81526004016103b690611e26565b6000838152600160205260409020546109bb5760405162461bcd60e51b81526004016103b690611fde565b60005b60008481526001602052604090208054849190839081106109e1576109e1611e76565b906000526020600020015414610a1657806109fb81611ea2565b600086815260016020526040902054909250821090506109be575b6000848152600160205260409020548110610a435760405162461bcd60e51b81526004016103b690611fde565b600084815260016020819052604090912080549091610a6191611ebb565b81548110610a7157610a71611e76565b9060005260206000200154600160008681526020019081526020016000206000018281548110610aa357610aa3611e76565b6000918252602080832090910192909255858152600190915260409020805480610acf57610acf611ed2565b6001900381819060005260206000200160009055905560005b6000848152600260205260409020805486919083908110610b0b57610b0b611e76565b906000526020600020015414610b2d5780610b2581611ea2565b915050610ae8565b60008481526002602052604090208054610b4990600190611ebb565b81548110610b5957610b59611e76565b9060005260206000200154600260008681526020019081526020016000208281548110610b8857610b88611e76565b906000526020600020018190555060026000858152602001908152602001600020805480610bb857610bb8611ed2565b60008281526020808220830160001990810183905590920190925586825260019081905260408220908101549054909103610c1757600086815260016020526040812090610c068282611943565b506000600182018190556002909101555b8085877f585a4aef50f8267a92b32412b331b20f7f8b96f2245b253b9cc50dcc621d339760405160405180910390a4600193505050505b92915050565b60065460009060ff610100909104161515600114610c845760405162461bcd60e51b81526004016103b690611dd3565b60408051336020820152610cb191015b6040516020818303038152906040528051906020012060026115f7565b610cfd5760405162461bcd60e51b815260206004820152601f60248201527f53656e64657220646f6573206e6f74206861766520616374696f6e206b65790060448201526064016103b6565b827fb3932da477fe5d6c8ff2eafef050c0f3a1af18fc07121001482600f36f3715d883604051610d31911515815260200190565b60405180910390a2811515600103610ed5576000838152600360208181526040808420928301805460ff1916600190811790915583549084015491516001600160a01b03909116949193610d8c936002909101929101612028565b60408051601f1981840301815290829052610da69161204d565b60006040518083038185875af1925050503d8060008114610de3576040519150601f19603f3d011682016040523d82523d6000602084013e610de8565b606091505b50909150508015610e6d57600083815260036020819052604091829020908101805461ff00191661010017905560018101548154925190926001600160a01b03169186917f1f920dbda597d7bf95035464170fa58d0a4b57f13a1c315ace6793b9f63688b891610e5d91600290910190612069565b60405180910390a4506001610c4e565b6000838152600360205260409081902060018101548154925190926001600160a01b03169186917fe10c49d9f7c71da23262367013434763cfdb2332267641728d25cd712c5c6a6891610ec591600290910190612069565b60405180910390a4506000610c4e565b5050600090815260036020819052604090912001805460ff19169055600190565b600081815260056020908152604091829020805483518184028101840190945280845260609392830182828015610f4c57602002820191906000526020600020905b815481526020019060010190808311610f38575b50505050509050919050565b600081815260026020908152604091829020805483518184028101840190945280845260609392830182828015610f4c5760200282019190600052602060002090815481526020019060010190808311610f385750505050509050919050565b60065460009060ff610100909104161515600114610fe85760405162461bcd60e51b81526004016103b690611dd3565b604080516001600160a01b0387166020808301919091528183018a90528251808303840181526060909201909252805191012030331461109d576040805133602082015261103691016105ec565b61109d5760405162461bcd60e51b815260206004820152603260248201527f5065726d697373696f6e733a2053656e64657220646f6573206e6f74206861766044820152716520636c61696d207369676e6572206b657960701b60648201526084016103b6565b6000818152600460205260409020600201546001600160a01b038781169116146111ab5760008881526005602090815260408083208054600180820183559185528385200185905584845260049092529091208981559081018890556002810180546001600160a01b0319166001600160a01b03891617905560030161112386826120cb565b5060008181526004602081905260409091200161114085826120cb565b50600081815260046020526040902060050161115c84826120cb565b50856001600160a01b031688827f46149b18aa084502c3f12bc75e19eda8bda8d102b82cce8474677a6d0d5f43c58a89898960405161119e949392919061218b565b60405180910390a4611271565b6000818152600460205260409020888155600181018890556002810180546001600160a01b0319166001600160a01b0389161790556003016111ed86826120cb565b5060008181526004602081905260409091200161120a85826120cb565b50600081815260046020526040902060050161122684826120cb565b50856001600160a01b031688827f3bab293fc00db832d7619a9299914251b8747c036867ec056cbd506f60135b138a898989604051611268949392919061218b565b60405180910390a45b979650505050505050565b60065460009060ff6101009091041615156001146112ac5760405162461bcd60e51b81526004016103b690611dd3565b6000805481526003602081905260409091200154610100900460ff16156113085760405162461bcd60e51b815260206004820152601060248201526f105b1c9958591e48195e1958dd5d195960821b60448201526064016103b6565b6000805481526003602052604080822080546001600160a01b0319166001600160a01b0388161790558154825280822060010185905581548252902060020161135183826120cb565b5082846001600160a01b03166000547f8afcfabcb00e47a53a8fc3e9f23ff47ee1926194bb1350dd007c50b412a6cee88560405161138f9190611ad9565b60405180910390a4604080513360208201526113ab9101610c94565b156113bf576113bd6000546001610c54565b505b6000805490806113ce83611ea2565b919050555060016000546113e29190611ebb565b949350505050565b6113f381611758565b50565b600081815260046020819052604082208054600182015460028301546003840180548796879660609687968796919590946001600160a01b0390921693909290810191600590910190839061144a90611ee8565b80601f016020809104026020016040519081016040528092919081815260200182805461147690611ee8565b80156114c35780601f10611498576101008083540402835291602001916114c3565b820191906000526020600020905b8154815290600101906020018083116114a657829003601f168201915b505050505092508180546114d690611ee8565b80601f016020809104026020016040519081016040528092919081815260200182805461150290611ee8565b801561154f5780601f106115245761010080835404028352916020019161154f565b820191906000526020600020905b81548152906001019060200180831161153257829003601f168201915b5050505050915080805461156290611ee8565b80601f016020809104026020016040519081016040528092919081815260200182805461158e90611ee8565b80156115db5780601f106115b0576101008083540402835291602001916115db565b820191906000526020600020905b8154815290600101906020018083116115be57829003601f168201915b5050505050905095509550955095509550955091939550919395565b6000828152600160209081526040808320815181546080948102820185019093526060810183815285949193849284919084018282801561165757602002820191906000526020600020905b815481526020019060010190808311611643575b50505091835250506001820154602082015260029091015460409182015281015190915060000361168c576000915050610c4e565b60005b8151518110156116ed576000826000015182815181106116b1576116b1611e76565b6020026020010151905080600114806116c957508481145b156116da5760019350505050610c4e565b50806116e581611ea2565b91505061168f565b506000949350505050565b600081815260016020908152604091829020805483518184028101840190945280845260609392830182828015610f4c5760200282019190600052602060002090815481526020019060010190808311610f385750505050509050919050565b60065460ff1615806117695750303b155b6117b55760405162461bcd60e51b815260206004820152601e60248201527f496e697469616c206b65792077617320616c72656164792073657475702e000060448201526064016103b6565b6006805461ffff1916610101179055604080516001600160a01b03831660208201526000910160408051601f1981840301815282825280516020918201206000818152600180845284822060028101849055868501909552808652908290529182905293506118249290611961565b506000818152600160208181526040808420830183905560029091527fe90b7bceb6e7df5418fb78d8ee546e97c83a08bbccc01a0644d599ccd2a7c2e0805480840182559084527f7fef4bf8f63cf9dd467136c679c02b5c17fcf6322d9562512bf5eb952cf7cc5301849055519091829184917f480000bb1edad8ca1470381cc334b1917fbd51c6531f3a623ea8e0ec7e38a6e991a45050565b8280548282559060005260206000209081019282156118f9579160200282015b828111156118f95782518255916020019190600101906118de565b506119059291506119a1565b5090565b50805461191590611ee8565b6000825580601f10611925575050565b601f0160209004906000526020600020908101906113f391906119a1565b50805460008255906000526020600020908101906113f391906119a1565b8280548282559060005260206000209081019282156118f9579160200282015b828111156118f9578251829060ff16905591602001919060010190611981565b5b8082111561190557600081556001016119a2565b6000602082840312156119c857600080fd5b5035919050565b600081518084526020808501945080840160005b838110156119ff578151875295820195908201906001016119e3565b509495945050505050565b606081526000611a1d60608301866119cf565b60208301949094525060400152919050565b600080600060608486031215611a4457600080fd5b505081359360208301359350604090920135919050565b60008060408385031215611a6e57600080fd5b50508035926020909101359150565b60005b83811015611a98578181015183820152602001611a80565b83811115611aa7576000848401525b50505050565b60008151808452611ac5816020860160208601611a7d565b601f01601f19169290920160200192915050565b602081526000611aec6020830184611aad565b9392505050565b60008060408385031215611b0657600080fd5b8235915060208301358015158114611b1d57600080fd5b809150509250929050565b6020808252825182820181905260009190848201906040850190845b81811015611b6057835183529284019291840191600101611b44565b50909695505050505050565b80356001600160a01b03811681146108ba57600080fd5b634e487b7160e01b600052604160045260246000fd5b600067ffffffffffffffff80841115611bb457611bb4611b83565b604051601f8501601f19908116603f01168101908282118183101715611bdc57611bdc611b83565b81604052809350858152868686011115611bf557600080fd5b858560208301376000602087830101525050509392505050565b600082601f830112611c2057600080fd5b611aec83833560208501611b99565b60008060008060008060c08789031215611c4857600080fd5b8635955060208701359450611c5f60408801611b6c565b9350606087013567ffffffffffffffff80821115611c7c57600080fd5b611c888a838b01611c0f565b94506080890135915080821115611c9e57600080fd5b611caa8a838b01611c0f565b935060a0890135915080821115611cc057600080fd5b508701601f81018913611cd257600080fd5b611ce189823560208401611b99565b9150509295509295509295565b600080600060608486031215611d0357600080fd5b611d0c84611b6c565b925060208401359150604084013567ffffffffffffffff811115611d2f57600080fd5b611d3b86828701611c0f565b9150509250925092565b600060208284031215611d5757600080fd5b611aec82611b6c565b86815285602082015260018060a01b038516604082015260c060608201526000611d8d60c0830186611aad565b8281036080840152611d9f8186611aad565b905082810360a0840152611db38185611aad565b9998505050505050505050565b602081526000611aec60208301846119cf565b60208082526033908201527f496e746572616374696e67207769746820746865206c69627261727920636f6e6040820152723a3930b1ba1034b9903337b93134b23232b71760691b606082015260800190565b60208082526030908201527f5065726d697373696f6e733a2053656e64657220646f6573206e6f742068617660408201526f65206d616e6167656d656e74206b657960801b606082015260800190565b634e487b7160e01b600052603260045260246000fd5b634e487b7160e01b600052601160045260246000fd5b600060018201611eb457611eb4611e8c565b5060010190565b600082821015611ecd57611ecd611e8c565b500390565b634e487b7160e01b600052603160045260246000fd5b600181811c90821680611efc57607f821691505b602082108103611f1c57634e487b7160e01b600052602260045260246000fd5b50919050565b60008154611f2f81611ee8565b808552602060018381168015611f4c5760018114611f6657611f94565b60ff1985168884015283151560051b880183019550611f94565b866000528260002060005b85811015611f8c5781548a8201860152908301908401611f71565b890184019650505b505050505092915050565b848152608060208201526000611fb86080830186611f22565b8281036040840152611fca8186611f22565b905082810360608401526112718185611f22565b6020808252602a908201527f4e6f6e4578697374696e673a204b657920646f65736e27742068617665207375604082015269636820707572706f736560b01b606082015260800190565b60408152600061203b6040830185611f22565b905060ff831660208301529392505050565b6000825161205f818460208701611a7d565b9190910192915050565b602081526000611aec6020830184611f22565b601f8211156120c657600081815260208120601f850160051c810160208610156120a35750805b601f850160051c820191505b818110156120c2578281556001016120af565b5050505b505050565b815167ffffffffffffffff8111156120e5576120e5611b83565b6120f9816120f38454611ee8565b8461207c565b602080601f83116001811461212e57600084156121165750858301515b600019600386901b1c1916600185901b1785556120c2565b600085815260208120601f198616915b8281101561215d5788860151825594840194600190910190840161213e565b508582101561217b5787850151600019600388901b60f8161c191681555b5050505050600190811b01905550565b8481526080602082015260006121a46080830186611aad565b82810360408401526121b68186611aad565b905082810360608401526112718185611aad56fea26469706673582212204b6cbcb6b59d4ff2eed04f3ffab3d74545228404fb2a1485d4868e0a3724a3cb64736f6c634300080f0033",
  "immutableReferences": {},
  "source": "// SPDX-License-Identifier: GPL-3.0\npragma solidity ^0.8.0;\n\nimport \"./interface/IIdentity.sol\";\nimport \"./version/Version.sol\";\nimport \"./storage/Storage.sol\";\n\n/**\n * @dev Implementation of the `IERC734` \"KeyHolder\" and the `IERC735` \"ClaimHolder\" interfaces into a common Identity Contract.\n * This implementation has a separate contract were it declares all storage, allowing for it to be used as an upgradable logic contract.\n */\ncontract Identity is Storage, IIdentity, Version {\n    bool private initialized = false;\n    bool private canInteract = true;\n\n    constructor(address initialManagementKey, bool _isLibrary) {\n        canInteract = !_isLibrary;\n\n        if (canInteract) {\n            __Identity_init(initialManagementKey);\n        } else {\n            initialized = true;\n        }\n    }\n\n    /**\n     * @notice Prevent any direct calls to the implementation contract (marked by canInteract = false).\n     */\n    modifier delegatedOnly() {\n        require(canInteract == true, \"Interacting with the library contract is forbidden.\");\n        _;\n    }\n\n    /**\n     * @notice When using this contract as an implementation for a proxy, call this initializer with a delegatecall.\n     *\n     * @param initialManagementKey The ethereum address to be set as the management key of the ONCHAINID.\n     */\n    function initialize(address initialManagementKey) public {\n        __Identity_init(initialManagementKey);\n    }\n\n    /**\n     * @notice Computes if the context in which the function is called is a constructor or not.\n     *\n     * @return true if the context is a constructor.\n     */\n    function _isConstructor() private view returns (bool) {\n        address self = address(this);\n        uint256 cs;\n        // solhint-disable-next-line no-inline-assembly\n        assembly { cs := extcodesize(self) }\n        return cs == 0;\n    }\n\n    /**\n     * @notice Initializer internal function for the Identity contract.\n     *\n     * @param initialManagementKey The ethereum address to be set as the management key of the ONCHAINID.\n     */\n    // solhint-disable-next-line func-name-mixedcase\n    function __Identity_init(address initialManagementKey) internal {\n        require(!initialized || _isConstructor(), \"Initial key was already setup.\");\n        initialized = true;\n        canInteract = true;\n\n        bytes32 _key = keccak256(abi.encode(initialManagementKey));\n        keys[_key].key = _key;\n        keys[_key].purposes = [1];\n        keys[_key].keyType = 1;\n        keysByPurpose[1].push(_key);\n        emit KeyAdded(_key, 1, 1);\n    }\n\n    /**\n     * @notice Implementation of the getKey function from the ERC-734 standard\n     *\n     * @param _key The public key.  for non-hex and long keys, its the Keccak256 hash of the key\n     *\n     * @return purposes Returns the full key data, if present in the identity.\n     * @return keyType Returns the full key data, if present in the identity.\n     * @return key Returns the full key data, if present in the identity.\n     */\n    function getKey(bytes32 _key)\n    public\n    override\n    view\n    returns(uint256[] memory purposes, uint256 keyType, bytes32 key)\n    {\n        return (keys[_key].purposes, keys[_key].keyType, keys[_key].key);\n    }\n\n    /**\n    * @notice gets the purposes of a key\n    *\n    * @param _key The public key.  for non-hex and long keys, its the Keccak256 hash of the key\n    *\n    * @return _purposes Returns the purposes of the specified key\n    */\n    function getKeyPurposes(bytes32 _key)\n    public\n    override\n    view\n    returns(uint256[] memory _purposes)\n    {\n        return (keys[_key].purposes);\n    }\n\n    /**\n        * @notice gets all the keys with a specific purpose from an identity\n        *\n        * @param _purpose a uint256[] Array of the key types, like 1 = MANAGEMENT, 2 = ACTION, 3 = CLAIM, 4 = ENCRYPTION\n        *\n        * @return _keys Returns an array of public key bytes32 hold by this identity and having the specified purpose\n        */\n    function getKeysByPurpose(uint256 _purpose)\n    public\n    override\n    view\n    returns(bytes32[] memory _keys)\n    {\n        return keysByPurpose[_purpose];\n    }\n\n    /**\n    * @notice implementation of the addKey function of the ERC-734 standard\n    * Adds a _key to the identity. The _purpose specifies the purpose of key. Initially we propose four purposes:\n    * 1: MANAGEMENT keys, which can manage the identity\n    * 2: ACTION keys, which perform actions in this identities name (signing, logins, transactions, etc.)\n    * 3: CLAIM signer keys, used to sign claims on other identities which need to be revokable.\n    * 4: ENCRYPTION keys, used to encrypt data e.g. hold in claims.\n    * MUST only be done by keys of purpose 1, or the identity itself.\n    * If its the identity itself, the approval process will determine its approval.\n    *\n    * @param _key keccak256 representation of an ethereum address\n    * @param _type type of key used, which would be a uint256 for different key types. e.g. 1 = ECDSA, 2 = RSA, etc.\n    * @param _purpose a uint256[] Array of the key types, like 1 = MANAGEMENT, 2 = ACTION, 3 = CLAIM, 4 = ENCRYPTION\n    *\n    * @return success Returns TRUE if the addition was successful and FALSE if not\n    */\n    function addKey(bytes32 _key, uint256 _purpose, uint256 _type)\n    public\n    delegatedOnly\n    override\n    returns (bool success)\n    {\n        if (msg.sender != address(this)) {\n            require(keyHasPurpose(keccak256(abi.encode(msg.sender)), 1), \"Permissions: Sender does not have management key\");\n        }\n\n        if (keys[_key].key == _key) {\n            for (uint keyPurposeIndex = 0; keyPurposeIndex < keys[_key].purposes.length; keyPurposeIndex++) {\n                uint256 purpose = keys[_key].purposes[keyPurposeIndex];\n\n                if (purpose == _purpose) {\n                    revert(\"Conflict: Key already has purpose\");\n                }\n            }\n\n            keys[_key].purposes.push(_purpose);\n        } else {\n            keys[_key].key = _key;\n            keys[_key].purposes = [_purpose];\n            keys[_key].keyType = _type;\n        }\n\n        keysByPurpose[_purpose].push(_key);\n\n        emit KeyAdded(_key, _purpose, _type);\n\n        return true;\n    }\n\n    /**\n     * @notice Approves an execution or claim addition.\n     * This SHOULD require n of m approvals of keys purpose 1, if the _to of the execution is the identity contract itself, to successfully approve an execution.\n     * And COULD require n of m approvals of keys purpose 2, if the _to of the execution is another contract, to successfully approve an execution.\n     */\n    function approve(uint256 _id, bool _approve)\n    public\n    delegatedOnly\n    override\n    returns (bool success)\n    {\n        require(keyHasPurpose(keccak256(abi.encode(msg.sender)), 2), \"Sender does not have action key\");\n\n        emit Approved(_id, _approve);\n\n        if (_approve == true) {\n            executions[_id].approved = true;\n\n            (success,) = executions[_id].to.call{value:(executions[_id].value)}(abi.encode(executions[_id].data, 0));\n\n            if (success) {\n                executions[_id].executed = true;\n\n                emit Executed(\n                    _id,\n                    executions[_id].to,\n                    executions[_id].value,\n                    executions[_id].data\n                );\n\n                return true;\n            } else {\n                emit ExecutionFailed(\n                    _id,\n                    executions[_id].to,\n                    executions[_id].value,\n                    executions[_id].data\n                );\n\n                return false;\n            }\n        } else {\n            executions[_id].approved = false;\n        }\n        return true;\n    }\n\n    /**\n     * @notice Passes an execution instruction to the keymanager.\n     * SHOULD require approve to be called with one or more keys of purpose 1 or 2 to approve this execution.\n     * Execute COULD be used as the only accessor for addKey, removeKey and replaceKey and removeClaim.\n     *\n     * @return executionId SHOULD be sent to the approve function, to approve or reject this execution.\n     */\n    function execute(address _to, uint256 _value, bytes memory _data)\n    public\n    delegatedOnly\n    override\n    payable\n    returns (uint256 executionId)\n    {\n        require(!executions[executionNonce].executed, \"Already executed\");\n        executions[executionNonce].to = _to;\n        executions[executionNonce].value = _value;\n        executions[executionNonce].data = _data;\n\n        emit ExecutionRequested(executionNonce, _to, _value, _data);\n\n        if (keyHasPurpose(keccak256(abi.encode(msg.sender)), 2)) {\n            approve(executionNonce, true);\n        }\n\n        executionNonce++;\n        return executionNonce-1;\n    }\n\n    /**\n    * @notice Remove the purpose from a key.\n    */\n    function removeKey(bytes32 _key, uint256 _purpose)\n    public\n    delegatedOnly\n    override\n    returns (bool success)\n    {\n        require(keys[_key].key == _key, \"NonExisting: Key isn't registered\");\n\n        if (msg.sender != address(this)) {\n            require(keyHasPurpose(keccak256(abi.encode(msg.sender)), 1), \"Permissions: Sender does not have management key\"); // Sender has MANAGEMENT_KEY\n        }\n\n        require(keys[_key].purposes.length > 0, \"NonExisting: Key doesn't have such purpose\");\n\n        uint purposeIndex = 0;\n        while (keys[_key].purposes[purposeIndex] != _purpose) {\n            purposeIndex++;\n\n            if (purposeIndex >= keys[_key].purposes.length) {\n                break;\n            }\n        }\n\n        require(purposeIndex < keys[_key].purposes.length, \"NonExisting: Key doesn't have such purpose\");\n\n        keys[_key].purposes[purposeIndex] = keys[_key].purposes[keys[_key].purposes.length - 1];\n        keys[_key].purposes.pop();\n\n        uint keyIndex = 0;\n\n        while (keysByPurpose[_purpose][keyIndex] != _key) {\n            keyIndex++;\n        }\n\n        keysByPurpose[_purpose][keyIndex] = keysByPurpose[_purpose][keysByPurpose[_purpose].length - 1];\n        keysByPurpose[_purpose].pop();\n\n        uint keyType = keys[_key].keyType;\n\n        if (keys[_key].purposes.length == 0) {\n            delete keys[_key];\n        }\n\n        emit KeyRemoved(_key, _purpose, keyType);\n\n        return true;\n    }\n\n\n    /**\n    * @notice Returns true if the key has MANAGEMENT purpose or the specified purpose.\n    */\n    function keyHasPurpose(bytes32 _key, uint256 _purpose)\n    public\n    override\n    view\n    returns(bool result)\n    {\n        Key memory key = keys[_key];\n        if (key.key == 0) return false;\n\n        for (uint keyPurposeIndex = 0; keyPurposeIndex < key.purposes.length; keyPurposeIndex++) {\n            uint256 purpose = key.purposes[keyPurposeIndex];\n\n            if (purpose == 1 || purpose == _purpose) return true;\n        }\n\n        return false;\n    }\n\n    /**\n    * @notice Implementation of the addClaim function from the ERC-735 standard\n    *  Require that the msg.sender has claim signer key.\n    *\n    * @param _topic The type of claim\n    * @param _scheme The scheme with which this claim SHOULD be verified or how it should be processed.\n    * @param _issuer The issuers identity contract address, or the address used to sign the above signature.\n    * @param _signature Signature which is the proof that the claim issuer issued a claim of topic for this identity.\n    * it MUST be a signed message of the following structure: keccak256(abi.encode(address identityHolder_address, uint256 _ topic, bytes data))\n    * @param _data The hash of the claim data, sitting in another location, a bit-mask, call data, or actual data based on the claim scheme.\n    * @param _uri The location of the claim, this can be HTTP links, swarm hashes, IPFS hashes, and such.\n    *\n    * @return claimRequestId Returns claimRequestId: COULD be send to the approve function, to approve or reject this claim.\n    * triggers ClaimAdded event.\n    */\n    function addClaim(\n        uint256 _topic,\n        uint256 _scheme,\n        address _issuer,\n        bytes memory _signature,\n        bytes memory _data,\n        string memory _uri\n    )\n    public\n    delegatedOnly\n    override\n    returns (bytes32 claimRequestId)\n    {\n        bytes32 claimId = keccak256(abi.encode(_issuer, _topic));\n\n        if (msg.sender != address(this)) {\n            require(keyHasPurpose(keccak256(abi.encode(msg.sender)), 3), \"Permissions: Sender does not have claim signer key\");\n        }\n\n        if (claims[claimId].issuer != _issuer) {\n            claimsByTopic[_topic].push(claimId);\n            claims[claimId].topic = _topic;\n            claims[claimId].scheme = _scheme;\n            claims[claimId].issuer = _issuer;\n            claims[claimId].signature = _signature;\n            claims[claimId].data = _data;\n            claims[claimId].uri = _uri;\n\n            emit ClaimAdded(\n                claimId,\n                _topic,\n                _scheme,\n                _issuer,\n                _signature,\n                _data,\n                _uri\n            );\n        } else {\n            claims[claimId].topic = _topic;\n            claims[claimId].scheme = _scheme;\n            claims[claimId].issuer = _issuer;\n            claims[claimId].signature = _signature;\n            claims[claimId].data = _data;\n            claims[claimId].uri = _uri;\n\n            emit ClaimChanged(\n                claimId,\n                _topic,\n                _scheme,\n                _issuer,\n                _signature,\n                _data,\n                _uri\n            );\n        }\n\n        return claimId;\n    }\n\n    /**\n    * @notice Implementation of the removeClaim function from the ERC-735 standard\n    * Require that the msg.sender has management key.\n    * Can only be removed by the claim issuer, or the claim holder itself.\n    *\n    * @param _claimId The identity of the claim i.e. keccak256(abi.encode(_issuer, _topic))\n    *\n    * @return success Returns TRUE when the claim was removed.\n    * triggers ClaimRemoved event\n    */\n    function removeClaim(bytes32 _claimId) public delegatedOnly override returns (bool success) {\n        if (msg.sender != address(this)) {\n            require(keyHasPurpose(keccak256(abi.encode(msg.sender)), 3), \"Permissions: Sender does not have CLAIM key\");\n        }\n\n        if (claims[_claimId].topic == 0) {\n            revert(\"NonExisting: There is no claim with this ID\");\n        }\n\n        uint claimIndex = 0;\n        while (claimsByTopic[claims[_claimId].topic][claimIndex] != _claimId) {\n            claimIndex++;\n        }\n\n        claimsByTopic[claims[_claimId].topic][claimIndex] = claimsByTopic[claims[_claimId].topic][claimsByTopic[claims[_claimId].topic].length - 1];\n        claimsByTopic[claims[_claimId].topic].pop();\n\n        emit ClaimRemoved(\n            _claimId,\n            claims[_claimId].topic,\n            claims[_claimId].scheme,\n            claims[_claimId].issuer,\n            claims[_claimId].signature,\n            claims[_claimId].data,\n            claims[_claimId].uri\n        );\n\n        delete claims[_claimId];\n\n        return true;\n    }\n\n    /**\n    * @notice Implementation of the getClaim function from the ERC-735 standard.\n    *\n    * @param _claimId The identity of the claim i.e. keccak256(abi.encode(_issuer, _topic))\n    *\n    * @return topic Returns all the parameters of the claim for the specified _claimId (topic, scheme, signature, issuer, data, uri) .\n    * @return scheme Returns all the parameters of the claim for the specified _claimId (topic, scheme, signature, issuer, data, uri) .\n    * @return issuer Returns all the parameters of the claim for the specified _claimId (topic, scheme, signature, issuer, data, uri) .\n    * @return signature Returns all the parameters of the claim for the specified _claimId (topic, scheme, signature, issuer, data, uri) .\n    * @return data Returns all the parameters of the claim for the specified _claimId (topic, scheme, signature, issuer, data, uri) .\n    * @return uri Returns all the parameters of the claim for the specified _claimId (topic, scheme, signature, issuer, data, uri) .\n    */\n    function getClaim(bytes32 _claimId)\n    public\n    override\n    view\n    returns(\n        uint256 topic,\n        uint256 scheme,\n        address issuer,\n        bytes memory signature,\n        bytes memory data,\n        string memory uri\n    )\n    {\n        return (\n            claims[_claimId].topic,\n            claims[_claimId].scheme,\n            claims[_claimId].issuer,\n            claims[_claimId].signature,\n            claims[_claimId].data,\n            claims[_claimId].uri\n        );\n    }\n\n    /**\n    * @notice Implementation of the getClaimIdsByTopic function from the ERC-735 standard.\n    * used to get all the claims from the specified topic\n    *\n    * @param _topic The identity of the claim i.e. keccak256(abi.encode(_issuer, _topic))\n    *\n    * @return claimIds Returns an array of claim IDs by topic.\n    */\n    function getClaimIdsByTopic(uint256 _topic)\n    public\n    override\n    view\n    returns(bytes32[] memory claimIds)\n    {\n        return claimsByTopic[_topic];\n    }\n}\n",
  "sourcePath": "@onchain-id/solidity/contracts/Identity.sol",
  "compiler": {
    "name": "solc",
    "version": "0.8.15+commit.e14f2714.Emscripten.clang"
  },
  "schemaVersion": "3.4.6",
  "updatedAt": "2022-08-03T10:43:51.128Z",
  "devdoc": {
    "details": "Implementation of the `IERC734` \"KeyHolder\" and the `IERC735` \"ClaimHolder\" interfaces into a common Identity Contract. This implementation has a separate contract were it declares all storage, allowing for it to be used as an upgradable logic contract.",
    "kind": "dev",
    "methods": {
      "addClaim(uint256,uint256,address,bytes,bytes,string)": {
        "params": {
          "_data": "The hash of the claim data, sitting in another location, a bit-mask, call data, or actual data based on the claim scheme.",
          "_issuer": "The issuers identity contract address, or the address used to sign the above signature.",
          "_scheme": "The scheme with which this claim SHOULD be verified or how it should be processed.",
          "_signature": "Signature which is the proof that the claim issuer issued a claim of topic for this identity. it MUST be a signed message of the following structure: keccak256(abi.encode(address identityHolder_address, uint256 _ topic, bytes data))",
          "_topic": "The type of claim",
          "_uri": "The location of the claim, this can be HTTP links, swarm hashes, IPFS hashes, and such."
        },
        "returns": {
          "claimRequestId": "Returns claimRequestId: COULD be send to the approve function, to approve or reject this claim. triggers ClaimAdded event."
        }
      },
      "addKey(bytes32,uint256,uint256)": {
        "params": {
          "_key": "keccak256 representation of an ethereum address",
          "_purpose": "a uint256[] Array of the key types, like 1 = MANAGEMENT, 2 = ACTION, 3 = CLAIM, 4 = ENCRYPTION",
          "_type": "type of key used, which would be a uint256 for different key types. e.g. 1 = ECDSA, 2 = RSA, etc."
        },
        "returns": {
          "success": "Returns TRUE if the addition was successful and FALSE if not"
        }
      },
      "execute(address,uint256,bytes)": {
        "returns": {
          "executionId": "SHOULD be sent to the approve function, to approve or reject this execution."
        }
      },
      "getClaim(bytes32)": {
        "params": {
          "_claimId": "The identity of the claim i.e. keccak256(abi.encode(_issuer, _topic))"
        },
        "returns": {
          "data": "Returns all the parameters of the claim for the specified _claimId (topic, scheme, signature, issuer, data, uri) .",
          "issuer": "Returns all the parameters of the claim for the specified _claimId (topic, scheme, signature, issuer, data, uri) .",
          "scheme": "Returns all the parameters of the claim for the specified _claimId (topic, scheme, signature, issuer, data, uri) .",
          "signature": "Returns all the parameters of the claim for the specified _claimId (topic, scheme, signature, issuer, data, uri) .",
          "topic": "Returns all the parameters of the claim for the specified _claimId (topic, scheme, signature, issuer, data, uri) .",
          "uri": "Returns all the parameters of the claim for the specified _claimId (topic, scheme, signature, issuer, data, uri) ."
        }
      },
      "getClaimIdsByTopic(uint256)": {
        "params": {
          "_topic": "The identity of the claim i.e. keccak256(abi.encode(_issuer, _topic))"
        },
        "returns": {
          "claimIds": "Returns an array of claim IDs by topic."
        }
      },
      "getKey(bytes32)": {
        "params": {
          "_key": "The public key.  for non-hex and long keys, its the Keccak256 hash of the key"
        },
        "returns": {
          "key": "Returns the full key data, if present in the identity.",
          "keyType": "Returns the full key data, if present in the identity.",
          "purposes": "Returns the full key data, if present in the identity."
        }
      },
      "getKeyPurposes(bytes32)": {
        "params": {
          "_key": "The public key.  for non-hex and long keys, its the Keccak256 hash of the key"
        },
        "returns": {
          "_purposes": "Returns the purposes of the specified key"
        }
      },
      "getKeysByPurpose(uint256)": {
        "params": {
          "_purpose": "a uint256[] Array of the key types, like 1 = MANAGEMENT, 2 = ACTION, 3 = CLAIM, 4 = ENCRYPTION"
        },
        "returns": {
          "_keys": "Returns an array of public key bytes32 hold by this identity and having the specified purpose"
        }
      },
      "initialize(address)": {
        "params": {
          "initialManagementKey": "The ethereum address to be set as the management key of the ONCHAINID."
        }
      },
      "removeClaim(bytes32)": {
        "params": {
          "_claimId": "The identity of the claim i.e. keccak256(abi.encode(_issuer, _topic))"
        },
        "returns": {
          "success": "Returns TRUE when the claim was removed. triggers ClaimRemoved event"
        }
      },
      "version()": {
        "details": "Returns the string of the current version."
      }
    },
    "version": 1
  },
  "userdoc": {
    "kind": "user",
    "methods": {
      "addClaim(uint256,uint256,address,bytes,bytes,string)": {
        "notice": "Implementation of the addClaim function from the ERC-735 standard  Require that the msg.sender has claim signer key."
      },
      "addKey(bytes32,uint256,uint256)": {
        "notice": "implementation of the addKey function of the ERC-734 standard Adds a _key to the identity. The _purpose specifies the purpose of key. Initially we propose four purposes: 1: MANAGEMENT keys, which can manage the identity 2: ACTION keys, which perform actions in this identities name (signing, logins, transactions, etc.) 3: CLAIM signer keys, used to sign claims on other identities which need to be revokable. 4: ENCRYPTION keys, used to encrypt data e.g. hold in claims. MUST only be done by keys of purpose 1, or the identity itself. If its the identity itself, the approval process will determine its approval."
      },
      "approve(uint256,bool)": {
        "notice": "Approves an execution or claim addition. This SHOULD require n of m approvals of keys purpose 1, if the _to of the execution is the identity contract itself, to successfully approve an execution. And COULD require n of m approvals of keys purpose 2, if the _to of the execution is another contract, to successfully approve an execution."
      },
      "execute(address,uint256,bytes)": {
        "notice": "Passes an execution instruction to the keymanager. SHOULD require approve to be called with one or more keys of purpose 1 or 2 to approve this execution. Execute COULD be used as the only accessor for addKey, removeKey and replaceKey and removeClaim."
      },
      "getClaim(bytes32)": {
        "notice": "Implementation of the getClaim function from the ERC-735 standard."
      },
      "getClaimIdsByTopic(uint256)": {
        "notice": "Implementation of the getClaimIdsByTopic function from the ERC-735 standard. used to get all the claims from the specified topic"
      },
      "getKey(bytes32)": {
        "notice": "Implementation of the getKey function from the ERC-734 standard"
      },
      "getKeyPurposes(bytes32)": {
        "notice": "gets the purposes of a key"
      },
      "getKeysByPurpose(uint256)": {
        "notice": "gets all the keys with a specific purpose from an identity"
      },
      "initialize(address)": {
        "notice": "When using this contract as an implementation for a proxy, call this initializer with a delegatecall."
      },
      "keyHasPurpose(bytes32,uint256)": {
        "notice": "Returns true if the key has MANAGEMENT purpose or the specified purpose."
      },
      "removeClaim(bytes32)": {
        "notice": "Implementation of the removeClaim function from the ERC-735 standard Require that the msg.sender has management key. Can only be removed by the claim issuer, or the claim holder itself."
      },
      "removeKey(bytes32,uint256)": {
        "notice": "Remove the purpose from a key."
      }
    },
    "version": 1
  }
}