{
  "contractName": "IdentityRegistryStorage",
  "abi": [
    {
      "anonymous": false,
      "inputs": [
        {
          "indexed": true,
          "internalType": "address",
          "name": "_agent",
          "type": "address"
        }
      ],
      "name": "AgentAdded",
      "type": "event"
    },
    {
      "anonymous": false,
      "inputs": [
        {
          "indexed": true,
          "internalType": "address",
          "name": "_agent",
          "type": "address"
        }
      ],
      "name": "AgentRemoved",
      "type": "event"
    },
    {
      "anonymous": false,
      "inputs": [
        {
          "indexed": true,
          "internalType": "address",
          "name": "investorAddress",
          "type": "address"
        },
        {
          "indexed": true,
          "internalType": "uint16",
          "name": "country",
          "type": "uint16"
        }
      ],
      "name": "CountryModified",
      "type": "event"
    },
    {
      "anonymous": false,
      "inputs": [
        {
          "indexed": true,
          "internalType": "contract IIdentity",
          "name": "oldIdentity",
          "type": "address"
        },
        {
          "indexed": true,
          "internalType": "contract IIdentity",
          "name": "newIdentity",
          "type": "address"
        }
      ],
      "name": "IdentityModified",
      "type": "event"
    },
    {
      "anonymous": false,
      "inputs": [
        {
          "indexed": true,
          "internalType": "address",
          "name": "identityRegistry",
          "type": "address"
        }
      ],
      "name": "IdentityRegistryBound",
      "type": "event"
    },
    {
      "anonymous": false,
      "inputs": [
        {
          "indexed": true,
          "internalType": "address",
          "name": "identityRegistry",
          "type": "address"
        }
      ],
      "name": "IdentityRegistryUnbound",
      "type": "event"
    },
    {
      "anonymous": false,
      "inputs": [
        {
          "indexed": true,
          "internalType": "address",
          "name": "investorAddress",
          "type": "address"
        },
        {
          "indexed": true,
          "internalType": "contract IIdentity",
          "name": "identity",
          "type": "address"
        }
      ],
      "name": "IdentityStored",
      "type": "event"
    },
    {
      "anonymous": false,
      "inputs": [
        {
          "indexed": true,
          "internalType": "address",
          "name": "investorAddress",
          "type": "address"
        },
        {
          "indexed": true,
          "internalType": "contract IIdentity",
          "name": "identity",
          "type": "address"
        }
      ],
      "name": "IdentityUnstored",
      "type": "event"
    },
    {
      "anonymous": false,
      "inputs": [
        {
          "indexed": true,
          "internalType": "address",
          "name": "previousOwner",
          "type": "address"
        },
        {
          "indexed": true,
          "internalType": "address",
          "name": "newOwner",
          "type": "address"
        }
      ],
      "name": "OwnershipTransferred",
      "type": "event"
    },
    {
      "inputs": [
        {
          "internalType": "address",
          "name": "_agent",
          "type": "address"
        }
      ],
      "name": "addAgent",
      "outputs": [],
      "stateMutability": "nonpayable",
      "type": "function"
    },
    {
      "inputs": [
        {
          "internalType": "address",
          "name": "_agent",
          "type": "address"
        }
      ],
      "name": "isAgent",
      "outputs": [
        {
          "internalType": "bool",
          "name": "",
          "type": "bool"
        }
      ],
      "stateMutability": "view",
      "type": "function"
    },
    {
      "inputs": [],
      "name": "owner",
      "outputs": [
        {
          "internalType": "address",
          "name": "",
          "type": "address"
        }
      ],
      "stateMutability": "view",
      "type": "function"
    },
    {
      "inputs": [
        {
          "internalType": "address",
          "name": "_agent",
          "type": "address"
        }
      ],
      "name": "removeAgent",
      "outputs": [],
      "stateMutability": "nonpayable",
      "type": "function"
    },
    {
      "inputs": [],
      "name": "renounceOwnership",
      "outputs": [],
      "stateMutability": "nonpayable",
      "type": "function"
    },
    {
      "inputs": [
        {
          "internalType": "address",
          "name": "newOwner",
          "type": "address"
        }
      ],
      "name": "transferOwnership",
      "outputs": [],
      "stateMutability": "nonpayable",
      "type": "function"
    },
    {
      "inputs": [],
      "name": "linkedIdentityRegistries",
      "outputs": [
        {
          "internalType": "address[]",
          "name": "",
          "type": "address[]"
        }
      ],
      "stateMutability": "view",
      "type": "function"
    },
    {
      "inputs": [
        {
          "internalType": "address",
          "name": "_userAddress",
          "type": "address"
        }
      ],
      "name": "storedIdentity",
      "outputs": [
        {
          "internalType": "contract IIdentity",
          "name": "",
          "type": "address"
        }
      ],
      "stateMutability": "view",
      "type": "function"
    },
    {
      "inputs": [
        {
          "internalType": "address",
          "name": "_userAddress",
          "type": "address"
        }
      ],
      "name": "storedInvestorCountry",
      "outputs": [
        {
          "internalType": "uint16",
          "name": "",
          "type": "uint16"
        }
      ],
      "stateMutability": "view",
      "type": "function"
    },
    {
      "inputs": [
        {
          "internalType": "address",
          "name": "_userAddress",
          "type": "address"
        },
        {
          "internalType": "contract IIdentity",
          "name": "_identity",
          "type": "address"
        },
        {
          "internalType": "uint16",
          "name": "_country",
          "type": "uint16"
        }
      ],
      "name": "addIdentityToStorage",
      "outputs": [],
      "stateMutability": "nonpayable",
      "type": "function"
    },
    {
      "inputs": [
        {
          "internalType": "address",
          "name": "_userAddress",
          "type": "address"
        },
        {
          "internalType": "contract IIdentity",
          "name": "_identity",
          "type": "address"
        }
      ],
      "name": "modifyStoredIdentity",
      "outputs": [],
      "stateMutability": "nonpayable",
      "type": "function"
    },
    {
      "inputs": [
        {
          "internalType": "address",
          "name": "_userAddress",
          "type": "address"
        },
        {
          "internalType": "uint16",
          "name": "_country",
          "type": "uint16"
        }
      ],
      "name": "modifyStoredInvestorCountry",
      "outputs": [],
      "stateMutability": "nonpayable",
      "type": "function"
    },
    {
      "inputs": [
        {
          "internalType": "address",
          "name": "_userAddress",
          "type": "address"
        }
      ],
      "name": "removeIdentityFromStorage",
      "outputs": [],
      "stateMutability": "nonpayable",
      "type": "function"
    },
    {
      "inputs": [
        {
          "internalType": "address",
          "name": "_newOwner",
          "type": "address"
        }
      ],
      "name": "transferOwnershipOnIdentityRegistryStorage",
      "outputs": [],
      "stateMutability": "nonpayable",
      "type": "function"
    },
    {
      "inputs": [
        {
          "internalType": "address",
          "name": "_identityRegistry",
          "type": "address"
        }
      ],
      "name": "bindIdentityRegistry",
      "outputs": [],
      "stateMutability": "nonpayable",
      "type": "function"
    },
    {
      "inputs": [
        {
          "internalType": "address",
          "name": "_identityRegistry",
          "type": "address"
        }
      ],
      "name": "unbindIdentityRegistry",
      "outputs": [],
      "stateMutability": "nonpayable",
      "type": "function"
    }
  ],
  "bytecode": "0x608060405234801561001057600080fd5b5061001a3361001f565b61006f565b600080546001600160a01b038381166001600160a01b0319831681178455604051919092169283917f8be0079c531659141344cd1fd0a4f28419497f9722a3daafe3b4186f6b6457e09190a35050565b610f2d8061007e6000396000f3fe608060405234801561001057600080fd5b50600436106101005760003560e01c806397a012f711610097578063bf9eb95911610066578063bf9eb95914610258578063cf191bcd1461026d578063e805cf8614610280578063f2fde38b1461029357600080fd5b806397a012f71461020c57806397a6278e1461021f5780639f3418d514610232578063a53410dd1461024557600080fd5b8063727e13bc116100d3578063727e13bc1461015d5780637988d3a5146101a457806384e79842146101e85780638da5cb5b146101fb57600080fd5b80631ffbb064146101055780635ccbbe491461012d578063690a49f914610142578063715018a614610155575b600080fd5b610118610113366004610c6e565b6102a6565b60405190151581526020015b60405180910390f35b61014061013b366004610c6e565b6102b9565b005b610140610150366004610c6e565b6102cd565b61014061034e565b61019161016b366004610c6e565b6001600160a01b0316600090815260026020526040902054600160a01b900461ffff1690565b60405161ffff9091168152602001610124565b6101d06101b2366004610c6e565b6001600160a01b039081166000908152600260205260409020541690565b6040516001600160a01b039091168152602001610124565b6101406101f6366004610c6e565b610362565b6000546001600160a01b03166101d0565b61014061021a366004610c6e565b6103ac565b61014061022d366004610c6e565b610548565b610140610240366004610ca9565b610592565b610140610253366004610cde565b610651565b610260610784565b6040516101249190610d25565b61014061027b366004610c6e565b6107e6565b61014061028e366004610d72565b6108d4565b6101406102a1366004610c6e565b6109b8565b60006102b3600183610a2e565b92915050565b6102c1610ab1565b6102ca816109b8565b50565b6102d681610362565b6003805460018101825560009182527fc2575a0e9e593c00f959f8c92f12db2869c3395a3b0502d05e2516446f71f85b0180546001600160a01b0319166001600160a01b03841690811790915560405190917f500c250171aa20e861b680f93502547b9d436eda7d4c537fc360db6e0c6eedfb91a250565b610356610ab1565b6103606000610b0b565b565b61036a610ab1565b610375600182610b5b565b6040516001600160a01b038216907ff68e73cec97f2d70aa641fb26e87a4383686e2efacb648f2165aeb02ac562ec590600090a250565b6003546104005760405162461bcd60e51b815260206004820152601f60248201527f6964656e74697479207265676973747279206973206e6f742073746f7265640060448201526064015b60405180910390fd5b60035460005b8181101561050657826001600160a01b03166003828154811061042b5761042b610dab565b6000918252602090912001546001600160a01b0316036104f4576003610452600184610dd7565b8154811061046257610462610dab565b600091825260209091200154600380546001600160a01b03909216918390811061048e5761048e610dab565b9060005260206000200160006101000a8154816001600160a01b0302191690836001600160a01b0316021790555060038054806104cd576104cd610dee565b600082815260209020810160001990810180546001600160a01b0319169055019055610506565b806104fe81610e04565b915050610406565b5061051082610548565b6040516001600160a01b038316907f51f353eb5801583fdf2706e43c045b62fdf6b1566820b349390616363ecf72c990600090a25050565b610550610ab1565b61055b600182610bd7565b6040516001600160a01b038216907fed9c8ad8d5a0a66898ea49d2956929c93ae2e8bd50281b2ed897c5d1a6737e0b90600090a250565b61059b336102a6565b6105b75760405162461bcd60e51b81526004016103f790610e1d565b6001600160a01b03828116600090815260026020526040902054166105ee5760405162461bcd60e51b81526004016103f790610e6b565b6001600160a01b038216600081815260026020526040808220805461ffff60a01b1916600160a01b61ffff87169081029190911790915590519092917f20965fcdc6eed7ae398065b40ece4e732ba667992ca819fc54e80e9f2047c4cf91a35050565b61065a336102a6565b6106765760405162461bcd60e51b81526004016103f790610e1d565b6001600160a01b03821661069c5760405162461bcd60e51b81526004016103f790610eaf565b6001600160a01b0383811660009081526002602052604090205416156107205760405162461bcd60e51b815260206004820152603360248201527f6964656e7469747920636f6e747261637420616c7265616479206578697374736044820152722c20706c65617365207573652075706461746560681b60648201526084016103f7565b6001600160a01b0383811660008181526002602052604080822080549487166001600160b01b03199095168517600160a01b61ffff881602179055517e30dea7e9c9afaa2e3c9810f2fc9b5181f1bad74ca5a8db85f746a33585e7479190a3505050565b606060038054806020026020016040519081016040528092919081815260200182805480156107dc57602002820191906000526020600020905b81546001600160a01b031681526001909101906020018083116107be575b5050505050905090565b6107ef336102a6565b61080b5760405162461bcd60e51b81526004016103f790610e1d565b6001600160a01b03818116600090815260026020526040902054166108815760405162461bcd60e51b815260206004820152602660248201527f796f7520686176656e2774207265676973746572656420616e206964656e74696044820152651d1e481e595d60d21b60648201526084016103f7565b6001600160a01b03811660008181526002602052604080822080546001600160b01b0319169055519091907fca6a4c3370b859312246e7f086284076e557997e10d856b716c23ab67067790b908390a350565b6108dd336102a6565b6108f95760405162461bcd60e51b81526004016103f790610e1d565b6001600160a01b03828116600090815260026020526040902054166109305760405162461bcd60e51b81526004016103f790610e6b565b6001600160a01b0381166109565760405162461bcd60e51b81526004016103f790610eaf565b6001600160a01b0380831660009081526002602052604080822080548585166001600160a01b031982168117909255915191909316929183917f556ce885dfcea52155c773f1ed2e58781c51945c13030ab8f793c61f51d1b8089190a3505050565b6109c0610ab1565b6001600160a01b038116610a255760405162461bcd60e51b815260206004820152602660248201527f4f776e61626c653a206e6577206f776e657220697320746865207a65726f206160448201526564647265737360d01b60648201526084016103f7565b6102ca81610b0b565b60006001600160a01b038216610a915760405162461bcd60e51b815260206004820152602260248201527f526f6c65733a206163636f756e7420697320746865207a65726f206164647265604482015261737360f01b60648201526084016103f7565b506001600160a01b03166000908152602091909152604090205460ff1690565b6000546001600160a01b031633146103605760405162461bcd60e51b815260206004820181905260248201527f4f776e61626c653a2063616c6c6572206973206e6f7420746865206f776e657260448201526064016103f7565b600080546001600160a01b038381166001600160a01b0319831681178455604051919092169283917f8be0079c531659141344cd1fd0a4f28419497f9722a3daafe3b4186f6b6457e09190a35050565b610b658282610a2e565b15610bb25760405162461bcd60e51b815260206004820152601f60248201527f526f6c65733a206163636f756e7420616c72656164792068617320726f6c650060448201526064016103f7565b6001600160a01b0316600090815260209190915260409020805460ff19166001179055565b610be18282610a2e565b610c375760405162461bcd60e51b815260206004820152602160248201527f526f6c65733a206163636f756e7420646f6573206e6f74206861766520726f6c6044820152606560f81b60648201526084016103f7565b6001600160a01b0316600090815260209190915260409020805460ff19169055565b6001600160a01b03811681146102ca57600080fd5b600060208284031215610c8057600080fd5b8135610c8b81610c59565b9392505050565b803561ffff81168114610ca457600080fd5b919050565b60008060408385031215610cbc57600080fd5b8235610cc781610c59565b9150610cd560208401610c92565b90509250929050565b600080600060608486031215610cf357600080fd5b8335610cfe81610c59565b92506020840135610d0e81610c59565b9150610d1c60408501610c92565b90509250925092565b6020808252825182820181905260009190848201906040850190845b81811015610d665783516001600160a01b031683529284019291840191600101610d41565b50909695505050505050565b60008060408385031215610d8557600080fd5b8235610d9081610c59565b91506020830135610da081610c59565b809150509250929050565b634e487b7160e01b600052603260045260246000fd5b634e487b7160e01b600052601160045260246000fd5b600082821015610de957610de9610dc1565b500390565b634e487b7160e01b600052603160045260246000fd5b600060018201610e1657610e16610dc1565b5060010190565b6020808252602e908201527f4167656e74526f6c653a2063616c6c657220646f6573206e6f7420686176652060408201526d746865204167656e7420726f6c6560901b606082015260800190565b60208082526024908201527f74686973207573657220686173206e6f206964656e7469747920726567697374604082015263195c995960e21b606082015260800190565b60208082526028908201527f636f6e747261637420616464726573732063616e27742062652061207a65726f604082015267206164647265737360c01b60608201526080019056fea26469706673582212201fd9227508a447bda30620af225b7d1839cb133cfdf3a782fcc36ab4a22b82cd64736f6c634300080f0033",
  "immutableReferences": {},
  "source": "// SPDX-License-Identifier: GPL-3.0\n/**\n *     NOTICE\n *\n *     The T-REX software is licensed under a proprietary license or the GPL v.3.\n *     If you choose to receive it under the GPL v.3 license, the following applies:\n *     T-REX is a suite of smart contracts developed by Tokeny to manage and transfer financial assets on the ethereum blockchain\n *\n *     Copyright (C) 2021, Tokeny srl.\n *\n *     This program is free software: you can redistribute it and/or modify\n *     it under the terms of the GNU General Public License as published by\n *     the Free Software Foundation, either version 3 of the License, or\n *     (at your option) any later version.\n *\n *     This program is distributed in the hope that it will be useful,\n *     but WITHOUT ANY WARRANTY; without even the implied warranty of\n *     MERCHANTABILITY or FITNESS FOR A PARTICULAR PURPOSE.  See the\n *     GNU General Public License for more details.\n *\n *     You should have received a copy of the GNU General Public License\n *     along with this program.  If not, see <https://www.gnu.org/licenses/>.\n */\n\npragma solidity ^0.8.0;\n\nimport '@onchain-id/solidity/contracts/interface/IIdentity.sol';\n\nimport '../roles/AgentRole.sol';\nimport '../registry/IIdentityRegistryStorage.sol';\n\ncontract IdentityRegistryStorage is IIdentityRegistryStorage, AgentRole {\n    /// @dev struct containing the identity contract and the country of the user\n    struct Identity {\n        IIdentity identityContract;\n        uint16 investorCountry;\n    }\n\n    /// @dev mapping between a user address and the corresponding identity\n    mapping(address => Identity) private identities;\n\n    /// @dev array of Identity Registries linked to this storage\n    address[] private identityRegistries;\n\n    /**\n     *  @dev See {IIdentityRegistryStorage-linkedIdentityRegistries}.\n     */\n    function linkedIdentityRegistries() external view override returns (address[] memory) {\n        return identityRegistries;\n    }\n\n    /**\n     *  @dev See {IIdentityRegistryStorage-storedIdentity}.\n     */\n    function storedIdentity(address _userAddress) external view override returns (IIdentity) {\n        return identities[_userAddress].identityContract;\n    }\n\n    /**\n     *  @dev See {IIdentityRegistryStorage-storedInvestorCountry}.\n     */\n    function storedInvestorCountry(address _userAddress) external view override returns (uint16) {\n        return identities[_userAddress].investorCountry;\n    }\n\n    /**\n     *  @dev See {IIdentityRegistryStorage-addIdentityToStorage}.\n     */\n    function addIdentityToStorage(\n        address _userAddress,\n        IIdentity _identity,\n        uint16 _country\n    ) external override onlyAgent {\n        require(address(_identity) != address(0), 'contract address can\\'t be a zero address');\n        require(address(identities[_userAddress].identityContract) == address(0), 'identity contract already exists, please use update');\n        identities[_userAddress].identityContract = _identity;\n        identities[_userAddress].investorCountry = _country;\n        emit IdentityStored(_userAddress, _identity);\n    }\n\n    /**\n     *  @dev See {IIdentityRegistryStorage-modifyStoredIdentity}.\n     */\n    function modifyStoredIdentity(address _userAddress, IIdentity _identity) external override onlyAgent {\n        require(address(identities[_userAddress].identityContract) != address(0), 'this user has no identity registered');\n        require(address(_identity) != address(0), 'contract address can\\'t be a zero address');\n        IIdentity oldIdentity = identities[_userAddress].identityContract;\n        identities[_userAddress].identityContract = _identity;\n        emit IdentityModified(oldIdentity, _identity);\n    }\n\n    /**\n     *  @dev See {IIdentityRegistryStorage-modifyStoredInvestorCountry}.\n     */\n    function modifyStoredInvestorCountry(address _userAddress, uint16 _country) external override onlyAgent {\n        require(address(identities[_userAddress].identityContract) != address(0), 'this user has no identity registered');\n        identities[_userAddress].investorCountry = _country;\n        emit CountryModified(_userAddress, _country);\n    }\n\n    /**\n     *  @dev See {IIdentityRegistryStorage-removeIdentityFromStorage}.\n     */\n    function removeIdentityFromStorage(address _userAddress) external override onlyAgent {\n        require(address(identities[_userAddress].identityContract) != address(0), 'you haven\\'t registered an identity yet');\n        delete identities[_userAddress];\n        emit IdentityUnstored(_userAddress, identities[_userAddress].identityContract);\n    }\n\n    /**\n     *  @dev See {IIdentityRegistryStorage-transferOwnershipOnIdentityRegistryStorage}.\n     */\n    function transferOwnershipOnIdentityRegistryStorage(address _newOwner) external override onlyOwner {\n        transferOwnership(_newOwner);\n    }\n\n    /**\n     *  @dev See {IIdentityRegistryStorage-bindIdentityRegistry}.\n     */\n    function bindIdentityRegistry(address _identityRegistry) external override {\n        addAgent(_identityRegistry);\n        identityRegistries.push(_identityRegistry);\n        emit IdentityRegistryBound(_identityRegistry);\n    }\n\n    /**\n     *  @dev See {IIdentityRegistryStorage-unbindIdentityRegistry}.\n     */\n    function unbindIdentityRegistry(address _identityRegistry) external override {\n        require(identityRegistries.length > 0, 'identity registry is not stored');\n        uint256 length = identityRegistries.length;\n        for (uint256 i = 0; i < length; i++) {\n            if (identityRegistries[i] == _identityRegistry) {\n                identityRegistries[i] = identityRegistries[length - 1];\n                identityRegistries.pop();\n                break;\n            }\n        }\n        removeAgent(_identityRegistry);\n        emit IdentityRegistryUnbound(_identityRegistry);\n    }\n}\n",
  "sourcePath": "/home/mayank/Desktop/security-token-5/Prototype--Craye-Realstate/T-REX/contracts/registry/IdentityRegistryStorage.sol",
  "compiler": {
    "name": "solc",
    "version": "0.8.15+commit.e14f2714.Emscripten.clang"
  },
  "schemaVersion": "3.4.6",
  "updatedAt": "2022-08-03T10:43:51.375Z",
  "devdoc": {
    "kind": "dev",
    "methods": {
      "addIdentityToStorage(address,address,uint16)": {
        "details": "See {IIdentityRegistryStorage-addIdentityToStorage}."
      },
      "bindIdentityRegistry(address)": {
        "details": "See {IIdentityRegistryStorage-bindIdentityRegistry}."
      },
      "linkedIdentityRegistries()": {
        "details": "See {IIdentityRegistryStorage-linkedIdentityRegistries}."
      },
      "modifyStoredIdentity(address,address)": {
        "details": "See {IIdentityRegistryStorage-modifyStoredIdentity}."
      },
      "modifyStoredInvestorCountry(address,uint16)": {
        "details": "See {IIdentityRegistryStorage-modifyStoredInvestorCountry}."
      },
      "owner()": {
        "details": "Returns the address of the current owner."
      },
      "removeIdentityFromStorage(address)": {
        "details": "See {IIdentityRegistryStorage-removeIdentityFromStorage}."
      },
      "renounceOwnership()": {
        "details": "Leaves the contract without owner. It will not be possible to call `onlyOwner` functions anymore. Can only be called by the current owner. NOTE: Renouncing ownership will leave the contract without an owner, thereby removing any functionality that is only available to the owner."
      },
      "storedIdentity(address)": {
        "details": "See {IIdentityRegistryStorage-storedIdentity}."
      },
      "storedInvestorCountry(address)": {
        "details": "See {IIdentityRegistryStorage-storedInvestorCountry}."
      },
      "transferOwnership(address)": {
        "details": "Transfers ownership of the contract to a new account (`newOwner`). Can only be called by the current owner."
      },
      "transferOwnershipOnIdentityRegistryStorage(address)": {
        "details": "See {IIdentityRegistryStorage-transferOwnershipOnIdentityRegistryStorage}."
      },
      "unbindIdentityRegistry(address)": {
        "details": "See {IIdentityRegistryStorage-unbindIdentityRegistry}."
      }
    },
    "stateVariables": {
      "identities": {
        "details": "mapping between a user address and the corresponding identity"
      },
      "identityRegistries": {
        "details": "array of Identity Registries linked to this storage"
      }
    },
    "version": 1
  },
  "userdoc": {
    "events": {
      "CountryModified(address,uint16)": {
        "notice": "this event is emitted when an Identity's country has been updated  the event is emitted by the 'updateCountry' function  `investorAddress` is the address on which the country has been updated  `country` is the numeric code (ISO 3166-1) of the new country"
      },
      "IdentityModified(address,address)": {
        "notice": "this event is emitted when an Identity has been updated  the event is emitted by the 'updateIdentity' function  `oldIdentity` is the old Identity contract's address to update  `newIdentity` is the new Identity contract's"
      },
      "IdentityRegistryBound(address)": {
        "notice": "this event is emitted when an Identity Registry is bound to the storage contract  the event is emitted by the 'addIdentityRegistry' function  `identityRegistry` is the address of the identity registry added"
      },
      "IdentityRegistryUnbound(address)": {
        "notice": "this event is emitted when an Identity Registry is unbound from the storage contract  the event is emitted by the 'removeIdentityRegistry' function  `identityRegistry` is the address of the identity registry removed"
      },
      "IdentityStored(address,address)": {
        "notice": "this event is emitted when an Identity is registered into the storage contract.  the event is emitted by the 'registerIdentity' function  `investorAddress` is the address of the investor's wallet  `identity` is the address of the Identity smart contract (onchainID)"
      },
      "IdentityUnstored(address,address)": {
        "notice": "this event is emitted when an Identity is removed from the storage contract.  the event is emitted by the 'deleteIdentity' function  `investorAddress` is the address of the investor's wallet  `identity` is the address of the Identity smart contract (onchainID)"
      }
    },
    "kind": "user",
    "methods": {},
    "version": 1
  }
}