{
  "contractName": "IdentityRegistry",
  "abi": [
    {
      "inputs": [
        {
          "internalType": "address",
          "name": "_trustedIssuersRegistry",
          "type": "address"
        },
        {
          "internalType": "address",
          "name": "_claimTopicsRegistry",
          "type": "address"
        },
        {
          "internalType": "address",
          "name": "_identityStorage",
          "type": "address"
        }
      ],
      "stateMutability": "nonpayable",
      "type": "constructor"
    },
    {
      "anonymous": false,
      "inputs": [
        {
          "indexed": true,
          "internalType": "address",
          "name": "_agent",
          "type": "address"
        }
      ],
      "name": "AgentAdded",
      "type": "event"
    },
    {
      "anonymous": false,
      "inputs": [
        {
          "indexed": true,
          "internalType": "address",
          "name": "_agent",
          "type": "address"
        }
      ],
      "name": "AgentRemoved",
      "type": "event"
    },
    {
      "anonymous": false,
      "inputs": [
        {
          "indexed": true,
          "internalType": "address",
          "name": "claimTopicsRegistry",
          "type": "address"
        }
      ],
      "name": "ClaimTopicsRegistrySet",
      "type": "event"
    },
    {
      "anonymous": false,
      "inputs": [
        {
          "indexed": true,
          "internalType": "address",
          "name": "investorAddress",
          "type": "address"
        },
        {
          "indexed": true,
          "internalType": "uint16",
          "name": "country",
          "type": "uint16"
        }
      ],
      "name": "CountryUpdated",
      "type": "event"
    },
    {
      "anonymous": false,
      "inputs": [
        {
          "indexed": true,
          "internalType": "address",
          "name": "investorAddress",
          "type": "address"
        },
        {
          "indexed": true,
          "internalType": "contract IIdentity",
          "name": "identity",
          "type": "address"
        }
      ],
      "name": "IdentityRegistered",
      "type": "event"
    },
    {
      "anonymous": false,
      "inputs": [
        {
          "indexed": true,
          "internalType": "address",
          "name": "investorAddress",
          "type": "address"
        },
        {
          "indexed": true,
          "internalType": "contract IIdentity",
          "name": "identity",
          "type": "address"
        }
      ],
      "name": "IdentityRemoved",
      "type": "event"
    },
    {
      "anonymous": false,
      "inputs": [
        {
          "indexed": true,
          "internalType": "address",
          "name": "identityStorage",
          "type": "address"
        }
      ],
      "name": "IdentityStorageSet",
      "type": "event"
    },
    {
      "anonymous": false,
      "inputs": [
        {
          "indexed": true,
          "internalType": "contract IIdentity",
          "name": "oldIdentity",
          "type": "address"
        },
        {
          "indexed": true,
          "internalType": "contract IIdentity",
          "name": "newIdentity",
          "type": "address"
        }
      ],
      "name": "IdentityUpdated",
      "type": "event"
    },
    {
      "anonymous": false,
      "inputs": [
        {
          "indexed": true,
          "internalType": "address",
          "name": "previousOwner",
          "type": "address"
        },
        {
          "indexed": true,
          "internalType": "address",
          "name": "newOwner",
          "type": "address"
        }
      ],
      "name": "OwnershipTransferred",
      "type": "event"
    },
    {
      "anonymous": false,
      "inputs": [
        {
          "indexed": true,
          "internalType": "address",
          "name": "trustedIssuersRegistry",
          "type": "address"
        }
      ],
      "name": "TrustedIssuersRegistrySet",
      "type": "event"
    },
    {
      "inputs": [
        {
          "internalType": "address",
          "name": "_agent",
          "type": "address"
        }
      ],
      "name": "addAgent",
      "outputs": [],
      "stateMutability": "nonpayable",
      "type": "function"
    },
    {
      "inputs": [
        {
          "internalType": "address",
          "name": "_agent",
          "type": "address"
        }
      ],
      "name": "isAgent",
      "outputs": [
        {
          "internalType": "bool",
          "name": "",
          "type": "bool"
        }
      ],
      "stateMutability": "view",
      "type": "function"
    },
    {
      "inputs": [],
      "name": "owner",
      "outputs": [
        {
          "internalType": "address",
          "name": "",
          "type": "address"
        }
      ],
      "stateMutability": "view",
      "type": "function"
    },
    {
      "inputs": [
        {
          "internalType": "address",
          "name": "_agent",
          "type": "address"
        }
      ],
      "name": "removeAgent",
      "outputs": [],
      "stateMutability": "nonpayable",
      "type": "function"
    },
    {
      "inputs": [],
      "name": "renounceOwnership",
      "outputs": [],
      "stateMutability": "nonpayable",
      "type": "function"
    },
    {
      "inputs": [
        {
          "internalType": "address",
          "name": "newOwner",
          "type": "address"
        }
      ],
      "name": "transferOwnership",
      "outputs": [],
      "stateMutability": "nonpayable",
      "type": "function"
    },
    {
      "inputs": [
        {
          "internalType": "address",
          "name": "_userAddress",
          "type": "address"
        }
      ],
      "name": "identity",
      "outputs": [
        {
          "internalType": "contract IIdentity",
          "name": "",
          "type": "address"
        }
      ],
      "stateMutability": "view",
      "type": "function"
    },
    {
      "inputs": [
        {
          "internalType": "address",
          "name": "_userAddress",
          "type": "address"
        }
      ],
      "name": "investorCountry",
      "outputs": [
        {
          "internalType": "uint16",
          "name": "",
          "type": "uint16"
        }
      ],
      "stateMutability": "view",
      "type": "function"
    },
    {
      "inputs": [],
      "name": "issuersRegistry",
      "outputs": [
        {
          "internalType": "contract ITrustedIssuersRegistry",
          "name": "",
          "type": "address"
        }
      ],
      "stateMutability": "view",
      "type": "function"
    },
    {
      "inputs": [],
      "name": "topicsRegistry",
      "outputs": [
        {
          "internalType": "contract IClaimTopicsRegistry",
          "name": "",
          "type": "address"
        }
      ],
      "stateMutability": "view",
      "type": "function"
    },
    {
      "inputs": [],
      "name": "identityStorage",
      "outputs": [
        {
          "internalType": "contract IIdentityRegistryStorage",
          "name": "",
          "type": "address"
        }
      ],
      "stateMutability": "view",
      "type": "function"
    },
    {
      "inputs": [
        {
          "internalType": "address",
          "name": "_userAddress",
          "type": "address"
        },
        {
          "internalType": "contract IIdentity",
          "name": "_identity",
          "type": "address"
        },
        {
          "internalType": "uint16",
          "name": "_country",
          "type": "uint16"
        }
      ],
      "name": "registerIdentity",
      "outputs": [],
      "stateMutability": "nonpayable",
      "type": "function"
    },
    {
      "inputs": [
        {
          "internalType": "address[]",
          "name": "_userAddresses",
          "type": "address[]"
        },
        {
          "internalType": "contract IIdentity[]",
          "name": "_identities",
          "type": "address[]"
        },
        {
          "internalType": "uint16[]",
          "name": "_countries",
          "type": "uint16[]"
        }
      ],
      "name": "batchRegisterIdentity",
      "outputs": [],
      "stateMutability": "nonpayable",
      "type": "function"
    },
    {
      "inputs": [
        {
          "internalType": "address",
          "name": "_userAddress",
          "type": "address"
        },
        {
          "internalType": "contract IIdentity",
          "name": "_identity",
          "type": "address"
        }
      ],
      "name": "updateIdentity",
      "outputs": [],
      "stateMutability": "nonpayable",
      "type": "function"
    },
    {
      "inputs": [
        {
          "internalType": "address",
          "name": "_userAddress",
          "type": "address"
        },
        {
          "internalType": "uint16",
          "name": "_country",
          "type": "uint16"
        }
      ],
      "name": "updateCountry",
      "outputs": [],
      "stateMutability": "nonpayable",
      "type": "function"
    },
    {
      "inputs": [
        {
          "internalType": "address",
          "name": "_userAddress",
          "type": "address"
        }
      ],
      "name": "deleteIdentity",
      "outputs": [],
      "stateMutability": "nonpayable",
      "type": "function"
    },
    {
      "inputs": [
        {
          "internalType": "address",
          "name": "_userAddress",
          "type": "address"
        }
      ],
      "name": "isVerified",
      "outputs": [
        {
          "internalType": "bool",
          "name": "",
          "type": "bool"
        }
      ],
      "stateMutability": "view",
      "type": "function"
    },
    {
      "inputs": [
        {
          "internalType": "address",
          "name": "_identityRegistryStorage",
          "type": "address"
        }
      ],
      "name": "setIdentityRegistryStorage",
      "outputs": [],
      "stateMutability": "nonpayable",
      "type": "function"
    },
    {
      "inputs": [
        {
          "internalType": "address",
          "name": "_claimTopicsRegistry",
          "type": "address"
        }
      ],
      "name": "setClaimTopicsRegistry",
      "outputs": [],
      "stateMutability": "nonpayable",
      "type": "function"
    },
    {
      "inputs": [
        {
          "internalType": "address",
          "name": "_trustedIssuersRegistry",
          "type": "address"
        }
      ],
      "name": "setTrustedIssuersRegistry",
      "outputs": [],
      "stateMutability": "nonpayable",
      "type": "function"
    },
    {
      "inputs": [
        {
          "internalType": "address",
          "name": "_userAddress",
          "type": "address"
        }
      ],
      "name": "contains",
      "outputs": [
        {
          "internalType": "bool",
          "name": "",
          "type": "bool"
        }
      ],
      "stateMutability": "view",
      "type": "function"
    },
    {
      "inputs": [
        {
          "internalType": "address",
          "name": "_newOwner",
          "type": "address"
        }
      ],
      "name": "transferOwnershipOnIdentityRegistryContract",
      "outputs": [],
      "stateMutability": "nonpayable",
      "type": "function"
    },
    {
      "inputs": [
        {
          "internalType": "address",
          "name": "_agent",
          "type": "address"
        }
      ],
      "name": "addAgentOnIdentityRegistryContract",
      "outputs": [],
      "stateMutability": "nonpayable",
      "type": "function"
    },
    {
      "inputs": [
        {
          "internalType": "address",
          "name": "_agent",
          "type": "address"
        }
      ],
      "name": "removeAgentOnIdentityRegistryContract",
      "outputs": [],
      "stateMutability": "nonpayable",
      "type": "function"
    }
  ],
  "bytecode": "0x60806040523480156200001157600080fd5b5060405162001a8438038062001a84833981016040819052620000349162000181565b6200003f3362000114565b600280546001600160a01b038085166001600160a01b031992831681179093556003805487831690841617905560048054918516919092161790556040517f7170bf15b246e880b2369cd7c67d057760d8a35149e8c64dde91efa22bcc76d090600090a26040516001600160a01b038416907f1b98cb79e6f73020175fe87333f1b91ad6a881519c0afe30340c2599b2b4bde090600090a26040516001600160a01b038216907f2fa8b95c1db7afe99e3398f3792f008135cedc1fa26b0bb2ecd2352cd166d53c90600090a2505050620001cb565b600080546001600160a01b038381166001600160a01b0319831681178455604051919092169283917f8be0079c531659141344cd1fd0a4f28419497f9722a3daafe3b4186f6b6457e09190a35050565b80516001600160a01b03811681146200017c57600080fd5b919050565b6000806000606084860312156200019757600080fd5b620001a28462000164565b9250620001b26020850162000164565b9150620001c26040850162000164565b90509250925092565b6118a980620001db6000396000f3fe608060405234801561001057600080fd5b50600436106101585760003560e01c806384e79842116100c3578063b9209e331161007c578063b9209e33146102e0578063ce240d9c146102f3578063e744d78914610306578063f0eb5e5414610319578063f11abfd81461032c578063f2fde38b1461033d57600080fd5b806384e79842146102725780638da5cb5b146102855780638e098ca11461029657806397a6278e146102a9578063a8d29d1d146102bc578063b4f3fcb7146102cf57600080fd5b80635dbe47e8116101155780635dbe47e8146101f85780635e5741f31461020b578063653dc9f11461021e578063670af6a914610231578063715018a6146102445780637e42683b1461024c57600080fd5b80631ffbb0641461015d57806326d941ae146101855780633b239a7f1461019a5780633b3e12f4146101ad578063454a03e0146101d257806350bc7bda146101e5575b600080fd5b61017061016b3660046112bd565b610350565b60405190151581526020015b60405180910390f35b6101986101933660046112bd565b610363565b005b6101986101a83660046112f1565b6103b5565b6002546001600160a01b03165b6040516001600160a01b03909116815260200161017c565b6101986101e036600461132a565b61048c565b6101986101f33660046112bd565b610561565b6101706102063660046112bd565b61056d565b6101986102193660046112bd565b610597565b61019861022c3660046113c1565b6105a0565b61019861023f3660046112bd565b61063e565b610198610690565b61025f61025a3660046112bd565b6106a4565b60405161ffff909116815260200161017c565b6101986102803660046112bd565b610718565b6000546001600160a01b03166101ba565b6101986102a436600461145b565b610762565b6101986102b73660046112bd565b61083a565b6101986102ca3660046112bd565b610884565b6003546001600160a01b03166101ba565b6101706102ee3660046112bd565b610955565b6101986103013660046112bd565b610f30565b6101986103143660046112bd565b610f41565b6101ba6103273660046112bd565b610f93565b6004546001600160a01b03166101ba565b61019861034b3660046112bd565b611007565b600061035d60018361107d565b92915050565b61036b611100565b600480546001600160a01b0319166001600160a01b0383169081179091556040517f2fa8b95c1db7afe99e3398f3792f008135cedc1fa26b0bb2ecd2352cd166d53c90600090a250565b6103be33610350565b6103e35760405162461bcd60e51b81526004016103da90611489565b60405180910390fd5b60048054604051639f3418d560e01b81526001600160a01b038581169382019390935261ffff84166024820152911690639f3418d590604401600060405180830381600087803b15801561043657600080fd5b505af115801561044a573d6000803e3d6000fd5b505060405161ffff841692506001600160a01b03851691507f04ed3b726495c2dca1ff1215d9ca54e1a4030abb5e82b0f6ce55702416cee85390600090a35050565b61049533610350565b6104b15760405162461bcd60e51b81526004016103da90611489565b6004805460405163a53410dd60e01b81526001600160a01b0386811693820193909352848316602482015261ffff8416604482015291169063a53410dd90606401600060405180830381600087803b15801561050c57600080fd5b505af1158015610520573d6000803e3d6000fd5b50506040516001600160a01b038086169350861691507f6ae73635c50d24a45af6fbd5e016ac4bed179addbc8bf24e04ff0fcc6d33af1990600090a3505050565b61056a81610718565b50565b60008061057983610f93565b6001600160a01b03160361058f57506000919050565b506001919050565b61056a8161083a565b60005b85811015610635576106238787838181106105c0576105c06114d7565b90506020020160208101906105d591906112bd565b8686848181106105e7576105e76114d7565b90506020020160208101906105fc91906112bd565b85858581811061060e5761060e6114d7565b90506020020160208101906101e091906114ed565b8061062d81611520565b9150506105a3565b50505050505050565b610646611100565b600280546001600160a01b0319166001600160a01b0383169081179091556040517f7170bf15b246e880b2369cd7c67d057760d8a35149e8c64dde91efa22bcc76d090600090a250565b610698611100565b6106a2600061115a565b565b60048054604051631c9f84ef60e21b81526001600160a01b03848116938201939093526000929091169063727e13bc90602401602060405180830381865afa1580156106f4573d6000803e3d6000fd5b505050506040513d601f19601f8201168201806040525081019061035d9190611539565b610720611100565b61072b6001826111aa565b6040516001600160a01b038216907ff68e73cec97f2d70aa641fb26e87a4383686e2efacb648f2165aeb02ac562ec590600090a250565b61076b33610350565b6107875760405162461bcd60e51b81526004016103da90611489565b600061079283610f93565b60048054604051637402e7c360e11b81526001600160a01b03878116938201939093528583166024820152929350169063e805cf8690604401600060405180830381600087803b1580156107e557600080fd5b505af11580156107f9573d6000803e3d6000fd5b50506040516001600160a01b038086169350841691507fe98082932c8056a0f514da9104e4a66bc2cbaef102ad59d90c4b24220ebf601090600090a3505050565b610842611100565b61084d600182611226565b6040516001600160a01b038216907fed9c8ad8d5a0a66898ea49d2956929c93ae2e8bd50281b2ed897c5d1a6737e0b90600090a250565b61088d33610350565b6108a95760405162461bcd60e51b81526004016103da90611489565b6004805460405163cf191bcd60e01b81526001600160a01b038481169382019390935291169063cf191bcd90602401600060405180830381600087803b1580156108f257600080fd5b505af1158015610906573d6000803e3d6000fd5b5050505061091381610f93565b6001600160a01b0316816001600160a01b03167f59d6590e225b81befe259af056324092801080acbb7feab310eb34678871f32760405160405180910390a350565b60008061096183610f93565b6001600160a01b03160361097757506000919050565b600254604080516337c2758160e21b815290516000926001600160a01b03169163df09d60491600480830192869291908290030181865afa1580156109c0573d6000803e3d6000fd5b505050506040513d6000823e601f3d908101601f191682016040526109e891908101906115c1565b905080516000036109fc5750600192915050565b600080600060608060005b8651811015610f21576000610a1b8a610f93565b6001600160a01b03166380e9e9e1898481518110610a3b57610a3b6114d7565b60200260200101516040518263ffffffff1660e01b8152600401610a6191815260200190565b600060405180830381865afa158015610a7e573d6000803e3d6000fd5b505050506040513d6000823e601f3d908101601f19168201604052610aa691908101906115c1565b90508051600003610ac1575060009998505050505050505050565b60005b8151811015610f0c57610ad68b610f93565b6001600160a01b031663c9100bcb838381518110610af657610af66114d7565b60200260200101516040518263ffffffff1660e01b8152600401610b1c91815260200190565b600060405180830381865afa158015610b39573d6000803e3d6000fd5b505050506040513d6000823e601f3d908101601f19168201604052610b6191908101906116f6565b50939b509199509750955093506001600160a01b03861663c0969a6e610b868d610f93565b8b8681518110610b9857610b986114d7565b602002602001015188886040518563ffffffff1660e01b8152600401610bc194939291906117e4565b602060405180830381865afa925050508015610bfa575060408051601f3d908101601f19168201909252610bf79181019061181d565b60015b610c285760018251610c0c919061183f565b8103610c23575060009a9950505050505050505050565b610efa565b808015610cd557506003548a516001600160a01b03909116906334a899879089908d9088908110610c5b57610c5b6114d7565b60200260200101516040518363ffffffff1660e01b8152600401610c949291906001600160a01b03929092168252602082015260400190565b602060405180830381865afa158015610cb1573d6000803e3d6000fd5b505050506040513d601f19601f82011682018060405250810190610cd5919061181d565b8015610d4a5750600354604051633bcbb46960e21b81526001600160a01b0389811660048301529091169063ef2ed1a490602401602060405180830381865afa158015610d26573d6000803e3d6000fd5b505050506040513d601f19601f82011682018060405250810190610d4a919061181d565b15610d5457825191505b600354604051633bcbb46960e21b81526001600160a01b0389811660048301529091169063ef2ed1a490602401602060405180830381865afa158015610d9e573d6000803e3d6000fd5b505050506040513d601f19601f82011682018060405250810190610dc2919061181d565b158015610ddb575060018351610dd8919061183f565b82145b15610df2575060009b9a5050505050505050505050565b6003548a516001600160a01b03909116906334a899879089908d9088908110610e1d57610e1d6114d7565b60200260200101516040518363ffffffff1660e01b8152600401610e569291906001600160a01b03929092168252602082015260400190565b602060405180830381865afa158015610e73573d6000803e3d6000fd5b505050506040513d601f19601f82011682018060405250810190610e97919061181d565b158015610eb0575060018351610ead919061183f565b82145b15610ec7575060009b9a5050505050505050505050565b80158015610ee1575060018351610ede919061183f565b82145b15610ef8575060009b9a5050505050505050505050565b505b80610f0481611520565b915050610ac4565b50508080610f1990611520565b915050610a07565b50600198975050505050505050565b610f38611100565b61056a81611007565b610f49611100565b600380546001600160a01b0319166001600160a01b0383169081179091556040517f1b98cb79e6f73020175fe87333f1b91ad6a881519c0afe30340c2599b2b4bde090600090a250565b60048054604051637988d3a560e01b81526001600160a01b038481169382019390935260009290911690637988d3a590602401602060405180830381865afa158015610fe3573d6000803e3d6000fd5b505050506040513d601f19601f8201168201806040525081019061035d9190611856565b61100f611100565b6001600160a01b0381166110745760405162461bcd60e51b815260206004820152602660248201527f4f776e61626c653a206e6577206f776e657220697320746865207a65726f206160448201526564647265737360d01b60648201526084016103da565b61056a8161115a565b60006001600160a01b0382166110e05760405162461bcd60e51b815260206004820152602260248201527f526f6c65733a206163636f756e7420697320746865207a65726f206164647265604482015261737360f01b60648201526084016103da565b506001600160a01b03166000908152602091909152604090205460ff1690565b6000546001600160a01b031633146106a25760405162461bcd60e51b815260206004820181905260248201527f4f776e61626c653a2063616c6c6572206973206e6f7420746865206f776e657260448201526064016103da565b600080546001600160a01b038381166001600160a01b0319831681178455604051919092169283917f8be0079c531659141344cd1fd0a4f28419497f9722a3daafe3b4186f6b6457e09190a35050565b6111b4828261107d565b156112015760405162461bcd60e51b815260206004820152601f60248201527f526f6c65733a206163636f756e7420616c72656164792068617320726f6c650060448201526064016103da565b6001600160a01b0316600090815260209190915260409020805460ff19166001179055565b611230828261107d565b6112865760405162461bcd60e51b815260206004820152602160248201527f526f6c65733a206163636f756e7420646f6573206e6f74206861766520726f6c6044820152606560f81b60648201526084016103da565b6001600160a01b0316600090815260209190915260409020805460ff19169055565b6001600160a01b038116811461056a57600080fd5b6000602082840312156112cf57600080fd5b81356112da816112a8565b9392505050565b61ffff8116811461056a57600080fd5b6000806040838503121561130457600080fd5b823561130f816112a8565b9150602083013561131f816112e1565b809150509250929050565b60008060006060848603121561133f57600080fd5b833561134a816112a8565b9250602084013561135a816112a8565b9150604084013561136a816112e1565b809150509250925092565b60008083601f84011261138757600080fd5b50813567ffffffffffffffff81111561139f57600080fd5b6020830191508360208260051b85010111156113ba57600080fd5b9250929050565b600080600080600080606087890312156113da57600080fd5b863567ffffffffffffffff808211156113f257600080fd5b6113fe8a838b01611375565b9098509650602089013591508082111561141757600080fd5b6114238a838b01611375565b9096509450604089013591508082111561143c57600080fd5b5061144989828a01611375565b979a9699509497509295939492505050565b6000806040838503121561146e57600080fd5b8235611479816112a8565b9150602083013561131f816112a8565b6020808252602e908201527f4167656e74526f6c653a2063616c6c657220646f6573206e6f7420686176652060408201526d746865204167656e7420726f6c6560901b606082015260800190565b634e487b7160e01b600052603260045260246000fd5b6000602082840312156114ff57600080fd5b81356112da816112e1565b634e487b7160e01b600052601160045260246000fd5b6000600182016115325761153261150a565b5060010190565b60006020828403121561154b57600080fd5b81516112da816112e1565b634e487b7160e01b600052604160045260246000fd5b604051601f8201601f1916810167ffffffffffffffff8111828210171561159557611595611556565b604052919050565b600067ffffffffffffffff8211156115b7576115b7611556565b5060051b60200190565b600060208083850312156115d457600080fd5b825167ffffffffffffffff8111156115eb57600080fd5b8301601f810185136115fc57600080fd5b805161160f61160a8261159d565b61156c565b81815260059190911b8201830190838101908783111561162e57600080fd5b928401925b8284101561164c57835182529284019290840190611633565b979650505050505050565b60005b8381101561167257818101518382015260200161165a565b83811115611681576000848401525b50505050565b600067ffffffffffffffff8311156116a1576116a1611556565b6116b4601f8401601f191660200161156c565b90508281528383830111156116c857600080fd5b6112da836020830184611657565b600082601f8301126116e757600080fd5b6112da83835160208501611687565b60008060008060008060c0878903121561170f57600080fd5b86519550602087015194506040870151611728816112a8565b606088015190945067ffffffffffffffff8082111561174657600080fd5b6117528a838b016116d6565b9450608089015191508082111561176857600080fd5b6117748a838b016116d6565b935060a089015191508082111561178a57600080fd5b508701601f8101891361179c57600080fd5b6117ab89825160208401611687565b9150509295509295509295565b600081518084526117d0816020860160208601611657565b601f01601f19169290920160200192915050565b60018060a01b038516815283602082015260806040820152600061180b60808301856117b8565b828103606084015261164c81856117b8565b60006020828403121561182f57600080fd5b815180151581146112da57600080fd5b6000828210156118515761185161150a565b500390565b60006020828403121561186857600080fd5b81516112da816112a856fea2646970667358221220c76ac99947a6796ad450e1ca9891839d07d5d94752bc0892b9060e77e9e1149c64736f6c634300080f0033",
  "immutableReferences": {},
  "source": "// SPDX-License-Identifier: GPL-3.0\n/**\n *     NOTICE\n *\n *     The T-REX software is licensed under a proprietary license or the GPL v.3.\n *     If you choose to receive it under the GPL v.3 license, the following applies:\n *     T-REX is a suite of smart contracts developed by Tokeny to manage and transfer financial assets on the ethereum blockchain\n *\n *     Copyright (C) 2021, Tokeny srl.\n *\n *     This program is free software: you can redistribute it and/or modify\n *     it under the terms of the GNU General Public License as published by\n *     the Free Software Foundation, either version 3 of the License, or\n *     (at your option) any later version.\n *\n *     This program is distributed in the hope that it will be useful,\n *     but WITHOUT ANY WARRANTY; without even the implied warranty of\n *     MERCHANTABILITY or FITNESS FOR A PARTICULAR PURPOSE.  See the\n *     GNU General Public License for more details.\n *\n *     You should have received a copy of the GNU General Public License\n *     along with this program.  If not, see <https://www.gnu.org/licenses/>.\n */\n\npragma solidity ^0.8.0;\n\nimport '@onchain-id/solidity/contracts/interface/IClaimIssuer.sol';\nimport '@onchain-id/solidity/contracts/interface/IIdentity.sol';\n\nimport '../registry/IClaimTopicsRegistry.sol';\nimport '../registry/ITrustedIssuersRegistry.sol';\nimport '../registry/IIdentityRegistry.sol';\nimport '../roles/AgentRole.sol';\nimport '../registry/IIdentityRegistryStorage.sol';\n\ncontract IdentityRegistry is IIdentityRegistry, AgentRole {\n    /// @dev Address of the ClaimTopicsRegistry Contract\n    IClaimTopicsRegistry private tokenTopicsRegistry;\n\n    /// @dev Address of the TrustedIssuersRegistry Contract\n    ITrustedIssuersRegistry private tokenIssuersRegistry;\n\n    /// @dev Address of the IdentityRegistryStorage Contract\n    IIdentityRegistryStorage private tokenIdentityStorage;\n\n    /**\n     *  @dev the constructor initiates the Identity Registry smart contract\n     *  @param _trustedIssuersRegistry the trusted issuers registry linked to the Identity Registry\n     *  @param _claimTopicsRegistry the claim topics registry linked to the Identity Registry\n     *  @param _identityStorage the identity registry storage linked to the Identity Registry\n     *  emits a `ClaimTopicsRegistrySet` event\n     *  emits a `TrustedIssuersRegistrySet` event\n     *  emits an `IdentityStorageSet` event\n     */\n    constructor(\n        address _trustedIssuersRegistry,\n        address _claimTopicsRegistry,\n        address _identityStorage\n    ) {\n        tokenTopicsRegistry = IClaimTopicsRegistry(_claimTopicsRegistry);\n        tokenIssuersRegistry = ITrustedIssuersRegistry(_trustedIssuersRegistry);\n        tokenIdentityStorage = IIdentityRegistryStorage(_identityStorage);\n        emit ClaimTopicsRegistrySet(_claimTopicsRegistry);\n        emit TrustedIssuersRegistrySet(_trustedIssuersRegistry);\n        emit IdentityStorageSet(_identityStorage);\n    }\n\n    /**\n     *  @dev See {IIdentityRegistry-identity}.\n     */\n    function identity(address _userAddress) public view override returns (IIdentity) {\n        return tokenIdentityStorage.storedIdentity(_userAddress);\n    }\n\n    /**\n     *  @dev See {IIdentityRegistry-investorCountry}.\n     */\n    function investorCountry(address _userAddress) external view override returns (uint16) {\n        return tokenIdentityStorage.storedInvestorCountry(_userAddress);\n    }\n\n    /**\n     *  @dev See {IIdentityRegistry-issuersRegistry}.\n     */\n    function issuersRegistry() external view override returns (ITrustedIssuersRegistry) {\n        return tokenIssuersRegistry;\n    }\n\n    /**\n     *  @dev See {IIdentityRegistry-topicsRegistry}.\n     */\n    function topicsRegistry() external view override returns (IClaimTopicsRegistry) {\n        return tokenTopicsRegistry;\n    }\n\n    /**\n     *  @dev See {IIdentityRegistry-identityStorage}.\n     */\n    function identityStorage() external view override returns (IIdentityRegistryStorage) {\n        return tokenIdentityStorage;\n    }\n\n    /**\n     *  @dev See {IIdentityRegistry-registerIdentity}.\n     */\n    function registerIdentity(\n        address _userAddress,\n        IIdentity _identity,\n        uint16 _country\n    ) public override onlyAgent {\n        tokenIdentityStorage.addIdentityToStorage(_userAddress, _identity, _country);\n        emit IdentityRegistered(_userAddress, _identity);\n    }\n\n    /**\n     *  @dev See {IIdentityRegistry-batchRegisterIdentity}.\n     */\n    function batchRegisterIdentity(\n        address[] calldata _userAddresses,\n        IIdentity[] calldata _identities,\n        uint16[] calldata _countries\n    ) external override {\n        for (uint256 i = 0; i < _userAddresses.length; i++) {\n            registerIdentity(_userAddresses[i], _identities[i], _countries[i]);\n        }\n    }\n\n    /**\n     *  @dev See {IIdentityRegistry-updateIdentity}.\n     */\n    function updateIdentity(address _userAddress, IIdentity _identity) external override onlyAgent {\n        IIdentity oldIdentity = identity(_userAddress);\n        tokenIdentityStorage.modifyStoredIdentity(_userAddress, _identity);\n        emit IdentityUpdated(oldIdentity, _identity);\n    }\n\n    /**\n     *  @dev See {IIdentityRegistry-updateCountry}.\n     */\n    function updateCountry(address _userAddress, uint16 _country) external override onlyAgent {\n        tokenIdentityStorage.modifyStoredInvestorCountry(_userAddress, _country);\n        emit CountryUpdated(_userAddress, _country);\n    }\n\n    /**\n     *  @dev See {IIdentityRegistry-deleteIdentity}.\n     */\n    function deleteIdentity(address _userAddress) external override onlyAgent {\n        tokenIdentityStorage.removeIdentityFromStorage(_userAddress);\n        emit IdentityRemoved(_userAddress, identity(_userAddress));\n    }\n\n    /**\n     *  @dev See {IIdentityRegistry-isVerified}.\n     */\n    function isVerified(address _userAddress) external view override returns (bool) {\n        if (address(identity(_userAddress)) == address(0)) {\n            return false;\n        }\n        uint256[] memory requiredClaimTopics = tokenTopicsRegistry.getClaimTopics();\n        if (requiredClaimTopics.length == 0) {\n            return true;\n        }\n        uint256 foundClaimTopic;\n        uint256 scheme;\n        address issuer;\n        bytes memory sig;\n        bytes memory data;\n        uint256 claimTopic;\n        for (claimTopic = 0; claimTopic < requiredClaimTopics.length; claimTopic++) {\n            bytes32[] memory claimIds = identity(_userAddress).getClaimIdsByTopic(requiredClaimTopics[claimTopic]);\n            if (claimIds.length == 0) {\n                return false;\n            }\n            for (uint256 j = 0; j < claimIds.length; j++) {\n                (foundClaimTopic, scheme, issuer, sig, data, ) = identity(_userAddress).getClaim(claimIds[j]);\n\n                try IClaimIssuer(issuer).isClaimValid(identity(_userAddress), requiredClaimTopics[claimTopic], sig, data) returns (bool _validity) {\n                    if (\n                        _validity &&\n                        tokenIssuersRegistry.hasClaimTopic(issuer, requiredClaimTopics[claimTopic]) &&\n                        tokenIssuersRegistry.isTrustedIssuer(issuer)\n                    ) {\n                        j = claimIds.length;\n                    }\n                    if (!tokenIssuersRegistry.isTrustedIssuer(issuer) && j == (claimIds.length - 1)) {\n                        return false;\n                    }\n                    if (!tokenIssuersRegistry.hasClaimTopic(issuer, requiredClaimTopics[claimTopic]) && j == (claimIds.length - 1)) {\n                        return false;\n                    }\n                    if (!_validity && j == (claimIds.length - 1)) {\n                        return false;\n                    }\n                } catch {\n                    if (j == (claimIds.length - 1)) {\n                        return false;\n                    }\n                }\n            }\n        }\n        return true;\n    }\n\n    /**\n     *  @dev See {IIdentityRegistry-setIdentityRegistryStorage}.\n     */\n    function setIdentityRegistryStorage(address _identityRegistryStorage) external override onlyOwner {\n        tokenIdentityStorage = IIdentityRegistryStorage(_identityRegistryStorage);\n        emit IdentityStorageSet(_identityRegistryStorage);\n    }\n\n    /**\n     *  @dev See {IIdentityRegistry-setClaimTopicsRegistry}.\n     */\n    function setClaimTopicsRegistry(address _claimTopicsRegistry) external override onlyOwner {\n        tokenTopicsRegistry = IClaimTopicsRegistry(_claimTopicsRegistry);\n        emit ClaimTopicsRegistrySet(_claimTopicsRegistry);\n    }\n\n    /**\n     *  @dev See {IIdentityRegistry-setTrustedIssuersRegistry}.\n     */\n    function setTrustedIssuersRegistry(address _trustedIssuersRegistry) external override onlyOwner {\n        tokenIssuersRegistry = ITrustedIssuersRegistry(_trustedIssuersRegistry);\n        emit TrustedIssuersRegistrySet(_trustedIssuersRegistry);\n    }\n\n    /**\n     *  @dev See {IIdentityRegistry-contains}.\n     */\n    function contains(address _userAddress) external view override returns (bool) {\n        if (address(identity(_userAddress)) == address(0)) {\n            return false;\n        }\n        return true;\n    }\n\n    /**\n     *  @dev See {IIdentityRegistry-transferOwnershipOnIdentityRegistryContract}.\n     */\n    function transferOwnershipOnIdentityRegistryContract(address _newOwner) external override onlyOwner {\n        transferOwnership(_newOwner);\n    }\n\n    /**\n     *  @dev See {IIdentityRegistry-addAgentOnIdentityRegistryContract}.\n     */\n    function addAgentOnIdentityRegistryContract(address _agent) external override {\n        addAgent(_agent);\n    }\n\n    /**\n     *  @dev See {IIdentityRegistry-removeAgentOnIdentityRegistryContract}.\n     */\n    function removeAgentOnIdentityRegistryContract(address _agent) external override {\n        removeAgent(_agent);\n    }\n}\n",
  "sourcePath": "/home/mayank/Desktop/security-token-5/Prototype--Craye-Realstate/T-REX/contracts/registry/IdentityRegistry.sol",
  "compiler": {
    "name": "solc",
    "version": "0.8.15+commit.e14f2714.Emscripten.clang"
  },
  "schemaVersion": "3.4.6",
  "updatedAt": "2022-08-03T10:43:51.355Z",
  "devdoc": {
    "kind": "dev",
    "methods": {
      "addAgentOnIdentityRegistryContract(address)": {
        "details": "See {IIdentityRegistry-addAgentOnIdentityRegistryContract}."
      },
      "batchRegisterIdentity(address[],address[],uint16[])": {
        "details": "See {IIdentityRegistry-batchRegisterIdentity}."
      },
      "constructor": {
        "details": "the constructor initiates the Identity Registry smart contract",
        "params": {
          "_claimTopicsRegistry": "the claim topics registry linked to the Identity Registry",
          "_identityStorage": "the identity registry storage linked to the Identity Registry  emits a `ClaimTopicsRegistrySet` event  emits a `TrustedIssuersRegistrySet` event  emits an `IdentityStorageSet` event",
          "_trustedIssuersRegistry": "the trusted issuers registry linked to the Identity Registry"
        }
      },
      "contains(address)": {
        "details": "See {IIdentityRegistry-contains}."
      },
      "deleteIdentity(address)": {
        "details": "See {IIdentityRegistry-deleteIdentity}."
      },
      "identity(address)": {
        "details": "See {IIdentityRegistry-identity}."
      },
      "identityStorage()": {
        "details": "See {IIdentityRegistry-identityStorage}."
      },
      "investorCountry(address)": {
        "details": "See {IIdentityRegistry-investorCountry}."
      },
      "isVerified(address)": {
        "details": "See {IIdentityRegistry-isVerified}."
      },
      "issuersRegistry()": {
        "details": "See {IIdentityRegistry-issuersRegistry}."
      },
      "owner()": {
        "details": "Returns the address of the current owner."
      },
      "registerIdentity(address,address,uint16)": {
        "details": "See {IIdentityRegistry-registerIdentity}."
      },
      "removeAgentOnIdentityRegistryContract(address)": {
        "details": "See {IIdentityRegistry-removeAgentOnIdentityRegistryContract}."
      },
      "renounceOwnership()": {
        "details": "Leaves the contract without owner. It will not be possible to call `onlyOwner` functions anymore. Can only be called by the current owner. NOTE: Renouncing ownership will leave the contract without an owner, thereby removing any functionality that is only available to the owner."
      },
      "setClaimTopicsRegistry(address)": {
        "details": "See {IIdentityRegistry-setClaimTopicsRegistry}."
      },
      "setIdentityRegistryStorage(address)": {
        "details": "See {IIdentityRegistry-setIdentityRegistryStorage}."
      },
      "setTrustedIssuersRegistry(address)": {
        "details": "See {IIdentityRegistry-setTrustedIssuersRegistry}."
      },
      "topicsRegistry()": {
        "details": "See {IIdentityRegistry-topicsRegistry}."
      },
      "transferOwnership(address)": {
        "details": "Transfers ownership of the contract to a new account (`newOwner`). Can only be called by the current owner."
      },
      "transferOwnershipOnIdentityRegistryContract(address)": {
        "details": "See {IIdentityRegistry-transferOwnershipOnIdentityRegistryContract}."
      },
      "updateCountry(address,uint16)": {
        "details": "See {IIdentityRegistry-updateCountry}."
      },
      "updateIdentity(address,address)": {
        "details": "See {IIdentityRegistry-updateIdentity}."
      }
    },
    "stateVariables": {
      "tokenIdentityStorage": {
        "details": "Address of the IdentityRegistryStorage Contract"
      },
      "tokenIssuersRegistry": {
        "details": "Address of the TrustedIssuersRegistry Contract"
      },
      "tokenTopicsRegistry": {
        "details": "Address of the ClaimTopicsRegistry Contract"
      }
    },
    "version": 1
  },
  "userdoc": {
    "events": {
      "ClaimTopicsRegistrySet(address)": {
        "notice": "this event is emitted when the ClaimTopicsRegistry has been set for the IdentityRegistry  the event is emitted by the IdentityRegistry constructor  `claimTopicsRegistry` is the address of the Claim Topics Registry contract"
      },
      "CountryUpdated(address,uint16)": {
        "notice": "this event is emitted when an Identity's country has been updated  the event is emitted by the 'updateCountry' function  `investorAddress` is the address on which the country has been updated  `country` is the numeric code (ISO 3166-1) of the new country"
      },
      "IdentityRegistered(address,address)": {
        "notice": "this event is emitted when an Identity is registered into the Identity Registry.  the event is emitted by the 'registerIdentity' function  `investorAddress` is the address of the investor's wallet  `identity` is the address of the Identity smart contract (onchainID)"
      },
      "IdentityRemoved(address,address)": {
        "notice": "this event is emitted when an Identity is removed from the Identity Registry.  the event is emitted by the 'deleteIdentity' function  `investorAddress` is the address of the investor's wallet  `identity` is the address of the Identity smart contract (onchainID)"
      },
      "IdentityStorageSet(address)": {
        "notice": "this event is emitted when the IdentityRegistryStorage has been set for the IdentityRegistry  the event is emitted by the IdentityRegistry constructor  `identityStorage` is the address of the Identity Registry Storage contract"
      },
      "IdentityUpdated(address,address)": {
        "notice": "this event is emitted when an Identity has been updated  the event is emitted by the 'updateIdentity' function  `oldIdentity` is the old Identity contract's address to update  `newIdentity` is the new Identity contract's"
      },
      "TrustedIssuersRegistrySet(address)": {
        "notice": "this event is emitted when the ClaimTopicsRegistry has been set for the IdentityRegistry  the event is emitted by the IdentityRegistry constructor  `trustedIssuersRegistry` is the address of the Trusted Issuers Registry contract"
      }
    },
    "kind": "user",
    "methods": {},
    "version": 1
  }
}