{
  "contractName": "ImplementationAuthority",
  "abi": [
    {
      "inputs": [
        {
          "internalType": "address",
          "name": "_implementation",
          "type": "address"
        }
      ],
      "stateMutability": "nonpayable",
      "type": "constructor"
    },
    {
      "anonymous": false,
      "inputs": [
        {
          "indexed": true,
          "internalType": "address",
          "name": "previousOwner",
          "type": "address"
        },
        {
          "indexed": true,
          "internalType": "address",
          "name": "newOwner",
          "type": "address"
        }
      ],
      "name": "OwnershipTransferred",
      "type": "event"
    },
    {
      "anonymous": false,
      "inputs": [
        {
          "indexed": false,
          "internalType": "address",
          "name": "newAddress",
          "type": "address"
        }
      ],
      "name": "UpdatedImplementation",
      "type": "event"
    },
    {
      "inputs": [],
      "name": "implementation",
      "outputs": [
        {
          "internalType": "address",
          "name": "",
          "type": "address"
        }
      ],
      "stateMutability": "view",
      "type": "function"
    },
    {
      "inputs": [],
      "name": "owner",
      "outputs": [
        {
          "internalType": "address",
          "name": "",
          "type": "address"
        }
      ],
      "stateMutability": "view",
      "type": "function"
    },
    {
      "inputs": [],
      "name": "renounceOwnership",
      "outputs": [],
      "stateMutability": "nonpayable",
      "type": "function"
    },
    {
      "inputs": [
        {
          "internalType": "address",
          "name": "newOwner",
          "type": "address"
        }
      ],
      "name": "transferOwnership",
      "outputs": [],
      "stateMutability": "nonpayable",
      "type": "function"
    },
    {
      "inputs": [],
      "name": "getImplementation",
      "outputs": [
        {
          "internalType": "address",
          "name": "",
          "type": "address"
        }
      ],
      "stateMutability": "view",
      "type": "function"
    },
    {
      "inputs": [
        {
          "internalType": "address",
          "name": "_newImplementation",
          "type": "address"
        }
      ],
      "name": "updateImplementation",
      "outputs": [],
      "stateMutability": "nonpayable",
      "type": "function"
    }
  ],
  "bytecode": "0x608060405234801561001057600080fd5b5060405161040438038061040483398101604081905261002f916100df565b6100383361008f565b600180546001600160a01b0319166001600160a01b0383169081179091556040519081527f87c4e67a766ffddda27f441d63853a36ae64fbb07775a7c59d395e064b204eeb9060200160405180910390a15061010f565b600080546001600160a01b038381166001600160a01b0319831681178455604051919092169283917f8be0079c531659141344cd1fd0a4f28419497f9722a3daafe3b4186f6b6457e09190a35050565b6000602082840312156100f157600080fd5b81516001600160a01b038116811461010857600080fd5b9392505050565b6102e68061011e6000396000f3fe608060405234801561001057600080fd5b50600436106100625760003560e01c8063025b22bc146100675780635c60da1b1461007c578063715018a6146100ab5780638da5cb5b146100b3578063aaf10f42146100c4578063f2fde38b146100d5575b600080fd5b61007a610075366004610280565b6100e8565b005b60015461008f906001600160a01b031681565b6040516001600160a01b03909116815260200160405180910390f35b61007a610144565b6000546001600160a01b031661008f565b6001546001600160a01b031661008f565b61007a6100e3366004610280565b610158565b6100f06101d6565b600180546001600160a01b0319166001600160a01b0383169081179091556040519081527f87c4e67a766ffddda27f441d63853a36ae64fbb07775a7c59d395e064b204eeb9060200160405180910390a150565b61014c6101d6565b6101566000610230565b565b6101606101d6565b6001600160a01b0381166101ca5760405162461bcd60e51b815260206004820152602660248201527f4f776e61626c653a206e6577206f776e657220697320746865207a65726f206160448201526564647265737360d01b60648201526084015b60405180910390fd5b6101d381610230565b50565b6000546001600160a01b031633146101565760405162461bcd60e51b815260206004820181905260248201527f4f776e61626c653a2063616c6c6572206973206e6f7420746865206f776e657260448201526064016101c1565b600080546001600160a01b038381166001600160a01b0319831681178455604051919092169283917f8be0079c531659141344cd1fd0a4f28419497f9722a3daafe3b4186f6b6457e09190a35050565b60006020828403121561029257600080fd5b81356001600160a01b03811681146102a957600080fd5b939250505056fea264697066735822122073c8e28da196dcd03a5ebf61bfca9dc082147a5725548a430a4ed432f42822b464736f6c634300080f0033",
  "immutableReferences": {},
  "source": "// SPDX-License-Identifier: GPL-3.0\n/**\n *     NOTICE\n *\n *     The T-REX software is licensed under a proprietary license or the GPL v.3.\n *     If you choose to receive it under the GPL v.3 license, the following applies:\n *     T-REX is a suite of smart contracts developed by Tokeny to manage and transfer financial assets on the ethereum blockchain\n *\n *     Copyright (C) 2021, Tokeny srl.\n *\n *     This program is free software: you can redistribute it and/or modify\n *     it under the terms of the GNU General Public License as published by\n *     the Free Software Foundation, either version 3 of the License, or\n *     (at your option) any later version.\n *\n *     This program is distributed in the hope that it will be useful,\n *     but WITHOUT ANY WARRANTY; without even the implied warranty of\n *     MERCHANTABILITY or FITNESS FOR A PARTICULAR PURPOSE.  See the\n *     GNU General Public License for more details.\n *\n *     You should have received a copy of the GNU General Public License\n *     along with this program.  If not, see <https://www.gnu.org/licenses/>.\n */\n\npragma solidity ^0.8.0;\n\nimport '@openzeppelin/contracts/access/Ownable.sol';\n\n\ncontract ImplementationAuthority is Ownable {\n    event UpdatedImplementation(address newAddress);\n\n    address public implementation;\n\n    constructor(address _implementation) {\n        implementation = _implementation;\n        emit UpdatedImplementation(_implementation);\n    }\n\n    function getImplementation() external view returns (address) {\n        return implementation;\n    }\n\n    function updateImplementation(address _newImplementation) public onlyOwner {\n        implementation = _newImplementation;\n        emit UpdatedImplementation(_newImplementation);\n    }\n}\n",
  "sourcePath": "/home/mayank/Desktop/security-token-5/Prototype--Craye-Realstate/T-REX/contracts/proxy/ImplementationAuthority.sol",
  "compiler": {
    "name": "solc",
    "version": "0.8.15+commit.e14f2714.Emscripten.clang"
  },
  "schemaVersion": "3.4.6",
  "updatedAt": "2022-08-03T10:43:51.318Z",
  "devdoc": {
    "kind": "dev",
    "methods": {
      "owner()": {
        "details": "Returns the address of the current owner."
      },
      "renounceOwnership()": {
        "details": "Leaves the contract without owner. It will not be possible to call `onlyOwner` functions anymore. Can only be called by the current owner. NOTE: Renouncing ownership will leave the contract without an owner, thereby removing any functionality that is only available to the owner."
      },
      "transferOwnership(address)": {
        "details": "Transfers ownership of the contract to a new account (`newOwner`). Can only be called by the current owner."
      }
    },
    "version": 1
  },
  "userdoc": {
    "kind": "user",
    "methods": {},
    "version": 1
  }
}