{
  "contractName": "LimitHolder",
  "abi": [
    {
      "inputs": [
        {
          "internalType": "address",
          "name": "_token",
          "type": "address"
        },
        {
          "internalType": "uint256",
          "name": "_holderLimit",
          "type": "uint256"
        }
      ],
      "stateMutability": "nonpayable",
      "type": "constructor"
    },
    {
      "anonymous": false,
      "inputs": [
        {
          "indexed": false,
          "internalType": "uint256",
          "name": "_holderLimit",
          "type": "uint256"
        }
      ],
      "name": "HolderLimitSet",
      "type": "event"
    },
    {
      "anonymous": false,
      "inputs": [
        {
          "indexed": true,
          "internalType": "address",
          "name": "previousOwner",
          "type": "address"
        },
        {
          "indexed": true,
          "internalType": "address",
          "name": "newOwner",
          "type": "address"
        }
      ],
      "name": "OwnershipTransferred",
      "type": "event"
    },
    {
      "anonymous": false,
      "inputs": [
        {
          "indexed": false,
          "internalType": "address",
          "name": "_agentAddress",
          "type": "address"
        }
      ],
      "name": "TokenAgentAdded",
      "type": "event"
    },
    {
      "anonymous": false,
      "inputs": [
        {
          "indexed": false,
          "internalType": "address",
          "name": "_agentAddress",
          "type": "address"
        }
      ],
      "name": "TokenAgentRemoved",
      "type": "event"
    },
    {
      "anonymous": false,
      "inputs": [
        {
          "indexed": false,
          "internalType": "address",
          "name": "_token",
          "type": "address"
        }
      ],
      "name": "TokenBound",
      "type": "event"
    },
    {
      "anonymous": false,
      "inputs": [
        {
          "indexed": false,
          "internalType": "address",
          "name": "_token",
          "type": "address"
        }
      ],
      "name": "TokenUnbound",
      "type": "event"
    },
    {
      "inputs": [],
      "name": "owner",
      "outputs": [
        {
          "internalType": "address",
          "name": "",
          "type": "address"
        }
      ],
      "stateMutability": "view",
      "type": "function"
    },
    {
      "inputs": [],
      "name": "renounceOwnership",
      "outputs": [],
      "stateMutability": "nonpayable",
      "type": "function"
    },
    {
      "inputs": [],
      "name": "token",
      "outputs": [
        {
          "internalType": "contract IToken",
          "name": "",
          "type": "address"
        }
      ],
      "stateMutability": "view",
      "type": "function"
    },
    {
      "inputs": [
        {
          "internalType": "address",
          "name": "newOwner",
          "type": "address"
        }
      ],
      "name": "transferOwnership",
      "outputs": [],
      "stateMutability": "nonpayable",
      "type": "function"
    },
    {
      "inputs": [
        {
          "internalType": "address",
          "name": "_agentAddress",
          "type": "address"
        }
      ],
      "name": "isTokenAgent",
      "outputs": [
        {
          "internalType": "bool",
          "name": "",
          "type": "bool"
        }
      ],
      "stateMutability": "view",
      "type": "function"
    },
    {
      "inputs": [
        {
          "internalType": "address",
          "name": "_token",
          "type": "address"
        }
      ],
      "name": "isTokenBound",
      "outputs": [
        {
          "internalType": "bool",
          "name": "",
          "type": "bool"
        }
      ],
      "stateMutability": "view",
      "type": "function"
    },
    {
      "inputs": [
        {
          "internalType": "address",
          "name": "_agentAddress",
          "type": "address"
        }
      ],
      "name": "addTokenAgent",
      "outputs": [],
      "stateMutability": "nonpayable",
      "type": "function"
    },
    {
      "inputs": [
        {
          "internalType": "address",
          "name": "_agentAddress",
          "type": "address"
        }
      ],
      "name": "removeTokenAgent",
      "outputs": [],
      "stateMutability": "nonpayable",
      "type": "function"
    },
    {
      "inputs": [
        {
          "internalType": "address",
          "name": "_token",
          "type": "address"
        }
      ],
      "name": "bindToken",
      "outputs": [],
      "stateMutability": "nonpayable",
      "type": "function"
    },
    {
      "inputs": [
        {
          "internalType": "address",
          "name": "_token",
          "type": "address"
        }
      ],
      "name": "unbindToken",
      "outputs": [],
      "stateMutability": "nonpayable",
      "type": "function"
    },
    {
      "inputs": [
        {
          "internalType": "uint256",
          "name": "_holderLimit",
          "type": "uint256"
        }
      ],
      "name": "setHolderLimit",
      "outputs": [],
      "stateMutability": "nonpayable",
      "type": "function"
    },
    {
      "inputs": [],
      "name": "getHolderLimit",
      "outputs": [
        {
          "internalType": "uint256",
          "name": "",
          "type": "uint256"
        }
      ],
      "stateMutability": "view",
      "type": "function"
    },
    {
      "inputs": [],
      "name": "holderCount",
      "outputs": [
        {
          "internalType": "uint256",
          "name": "",
          "type": "uint256"
        }
      ],
      "stateMutability": "view",
      "type": "function"
    },
    {
      "inputs": [
        {
          "internalType": "uint256",
          "name": "index",
          "type": "uint256"
        }
      ],
      "name": "holderAt",
      "outputs": [
        {
          "internalType": "address",
          "name": "",
          "type": "address"
        }
      ],
      "stateMutability": "view",
      "type": "function"
    },
    {
      "inputs": [
        {
          "internalType": "uint16",
          "name": "index",
          "type": "uint16"
        }
      ],
      "name": "getShareholderCountByCountry",
      "outputs": [
        {
          "internalType": "uint256",
          "name": "",
          "type": "uint256"
        }
      ],
      "stateMutability": "view",
      "type": "function"
    },
    {
      "inputs": [
        {
          "internalType": "address",
          "name": "",
          "type": "address"
        },
        {
          "internalType": "address",
          "name": "_to",
          "type": "address"
        },
        {
          "internalType": "uint256",
          "name": "",
          "type": "uint256"
        }
      ],
      "name": "canTransfer",
      "outputs": [
        {
          "internalType": "bool",
          "name": "",
          "type": "bool"
        }
      ],
      "stateMutability": "view",
      "type": "function"
    },
    {
      "inputs": [
        {
          "internalType": "address",
          "name": "_from",
          "type": "address"
        },
        {
          "internalType": "address",
          "name": "_to",
          "type": "address"
        },
        {
          "internalType": "uint256",
          "name": "",
          "type": "uint256"
        }
      ],
      "name": "transferred",
      "outputs": [],
      "stateMutability": "nonpayable",
      "type": "function"
    },
    {
      "inputs": [
        {
          "internalType": "address",
          "name": "_to",
          "type": "address"
        },
        {
          "internalType": "uint256",
          "name": "_value",
          "type": "uint256"
        }
      ],
      "name": "created",
      "outputs": [],
      "stateMutability": "nonpayable",
      "type": "function"
    },
    {
      "inputs": [
        {
          "internalType": "address",
          "name": "_from",
          "type": "address"
        },
        {
          "internalType": "uint256",
          "name": "",
          "type": "uint256"
        }
      ],
      "name": "destroyed",
      "outputs": [],
      "stateMutability": "nonpayable",
      "type": "function"
    },
    {
      "inputs": [
        {
          "internalType": "address",
          "name": "newOwner",
          "type": "address"
        }
      ],
      "name": "transferOwnershipOnComplianceContract",
      "outputs": [],
      "stateMutability": "nonpayable",
      "type": "function"
    }
  ],
  "bytecode": "0x60806040523480156200001157600080fd5b506040516200112c3803806200112c833981016040819052620000349162000188565b6200003f336200011f565b600180546001600160a01b0319166001600160a01b0384169081179091556002829055604080516304d3863d60e21b8152905163134e18f4916004808201926020929091908290030181865afa1580156200009e573d6000803e3d6000fd5b505050506040513d601f19601f82011682018060405250810190620000c49190620001b9565b600380546001600160a01b0319166001600160a01b03929092169190911790556040518181527f3069f57f08b632d7fceb2be6b7e39522eff2dbd0b4605b5f0ab46c94f1211d8e9060200160405180910390a15050620001e0565b600080546001600160a01b038381166001600160a01b0319831681178455604051919092169283917f8be0079c531659141344cd1fd0a4f28419497f9722a3daafe3b4186f6b6457e09190a35050565b6001600160a01b03811681146200018557600080fd5b50565b600080604083850312156200019c57600080fd5b8251620001a9816200016f565b6020939093015192949293505050565b600060208284031215620001cc57600080fd5b8151620001d9816200016f565b9392505050565b610f3c80620001f06000396000f3fe608060405234801561001057600080fd5b506004361061012c5760003560e01c80638d2ea772116100ad578063e46638e611610071578063e46638e6146102b2578063f2fde38b146102c5578063f3ac2389146102d8578063fc0c546a146102e0578063ff3e6954146102f357600080fd5b80638d2ea7721461022b5780638da5cb5b1461023e578063951f17ae1461024f578063993e8b9514610273578063cdde29321461029f57600080fd5b806340db3b50116100f457806340db3b50146101d75780635f8dead3146101ea578063715018a6146101fd5780637bcf0487146102055780638baf29b41461021857600080fd5b806306f91d5914610131578063197bc336146101465780631aab9a9f14610176578063346531fa146101885780633ff5aa02146101c4575b600080fd5b61014461013f366004610cfa565b610306565b005b610159610154366004610cfa565b61034a565b6040516001600160a01b0390911681526020015b60405180910390f35b6006545b60405190815260200161016d565b6101b4610196366004610d2f565b6001600160a01b031660009081526007602052604090205460ff1690565b604051901515815260200161016d565b6101446101d2366004610d2f565b6103d1565b6101446101e5366004610d2f565b610496565b6101446101f8366004610d4a565b610557565b6101446105d6565b610144610213366004610d2f565b6105ea565b610144610226366004610d74565b6105fe565b610144610239366004610d4a565b610644565b6000546001600160a01b0316610159565b61017a61025d366004610dc0565b61ffff1660009081526005602052604090205490565b6101b4610281366004610d2f565b6001600160a01b031660009081526008602052604090205460ff1690565b6101446102ad366004610d2f565b61067c565b6101b46102c0366004610d74565b61073d565b6101446102d3366004610d2f565b610782565b60025461017a565b600154610159906001600160a01b031681565b610144610301366004610d2f565b6107f8565b61030e6108bd565b60028190556040518181527f3069f57f08b632d7fceb2be6b7e39522eff2dbd0b4605b5f0ab46c94f1211d8e906020015b60405180910390a150565b60065460009082106103a35760405162461bcd60e51b815260206004820152601960248201527f7368617265686f6c64657220646f65736e27742065786973740000000000000060448201526064015b60405180910390fd5b600682815481106103b6576103b6610ddd565b6000918252602090912001546001600160a01b031692915050565b6103d96108bd565b6001600160a01b03811660009081526008602052604090205460ff16156104425760405162461bcd60e51b815260206004820152601b60248201527f5468697320746f6b656e20697320616c726561647920626f756e640000000000604482015260640161039a565b6001600160a01b038116600081815260086020908152604091829020805460ff1916600117905590519182527f2de35142b19ed5a07796cf30791959c592018f70b1d2d7c460eef8ffe713692b910161033f565b61049e6108bd565b6001600160a01b03811660009081526008602052604090205460ff166105065760405162461bcd60e51b815260206004820152601b60248201527f5468697320746f6b656e206973206e6f7420626f756e64207965740000000000604482015260640161039a565b6001600160a01b038116600081815260086020908152604091829020805460ff1916905590519182527f28a4ca7134a3b3f9aff286e79ad3daadb4a06d1b43d037a3a98bdc074edd9b7a910161033f565b3360009081526008602052604090205460ff166105865760405162461bcd60e51b815260040161039a90610df3565b600081116105c95760405162461bcd60e51b815260206004820152601060248201526f139bc81d1bdad95b8818dc99585d195960821b604482015260640161039a565b6105d282610917565b5050565b6105de6108bd565b6105e86000610a25565b565b6105f26108bd565b6105fb81610782565b50565b3360009081526008602052604090205460ff1661062d5760405162461bcd60e51b815260040161039a90610df3565b61063682610917565b61063f83610a75565b505050565b3360009081526008602052604090205460ff166106735760405162461bcd60e51b815260040161039a90610df3565b6105d282610a75565b6106846108bd565b6001600160a01b03811660009081526007602052604090205460ff166106ec5760405162461bcd60e51b815260206004820181905260248201527f54686973204167656e74206973206e6f74207265676973746572656420796574604482015260640161039a565b6001600160a01b038116600081815260076020908152604091829020805460ff1916905590519182527f6a659bb87bb23efbdc295f8eed8ae8c4379bfb77660ced2ef0f3d7d26b05c6a6910161033f565b6001600160a01b038216600090815260046020526040812054156107635750600161077b565b60025460065410156107775750600161077b565b5060005b9392505050565b61078a6108bd565b6001600160a01b0381166107ef5760405162461bcd60e51b815260206004820152602660248201527f4f776e61626c653a206e6577206f776e657220697320746865207a65726f206160448201526564647265737360d01b606482015260840161039a565b6105fb81610a25565b6108006108bd565b6001600160a01b03811660009081526007602052604090205460ff16156108695760405162461bcd60e51b815260206004820181905260248201527f54686973204167656e7420697320616c72656164792072656769737465726564604482015260640161039a565b6001600160a01b038116600081815260076020908152604091829020805460ff1916600117905590519182527fd62c45e13ac30396aceb3ad37c89bd1ba9048032fe61679000e92eb93dbfd67d910161033f565b6000546001600160a01b031633146105e85760405162461bcd60e51b815260206004820181905260248201527f4f776e61626c653a2063616c6c6572206973206e6f7420746865206f776e6572604482015260640161039a565b6001600160a01b03811660009081526004602052604081205490036105fb57600680546001810182557ff652222313e28459528d920b65115c16c04f3efc82aaedc97be59f3f377c0d3f0180546001600160a01b0319166001600160a01b0384811691821790925591546000838152600460208190526040808320939093556003549251637e42683b60e01b81529081019490945292911690637e42683b90602401602060405180830381865afa1580156109d6573d6000803e3d6000fd5b505050506040513d601f19601f820116820180604052508101906109fa9190610e5d565b61ffff81166000908152600560205260408120805492935090610a1c83610e90565b91905055505050565b600080546001600160a01b038381166001600160a01b0319831681178455604051919092169283917f8be0079c531659141344cd1fd0a4f28419497f9722a3daafe3b4186f6b6457e09190a35050565b6001600160a01b0381166000908152600460205260408120549003610adc5760405162461bcd60e51b815260206004820152601a60248201527f5368617265686f6c64657220646f6573206e6f74206578697374000000000000604482015260640161039a565b6001546040516370a0823160e01b81526001600160a01b03838116600483015260009216906370a0823190602401602060405180830381865afa158015610b27573d6000803e3d6000fd5b505050506040513d601f19601f82011682018060405250810190610b4b9190610ea9565b90508015610b57575050565b6001600160a01b038216600090815260046020526040812054610b7c90600190610ec2565b600654909150600090610b9190600190610ec2565b9050600060068281548110610ba857610ba8610ddd565b600091825260209091200154600680546001600160a01b039092169250829185908110610bd757610bd7610ddd565b600091825260208083209190910180546001600160a01b0319166001600160a01b0394851617905587831682526004905260408082205492841682529020556006805480610c2757610c27610ed9565b60008281526020808220600019908401810180546001600160a01b03191690559092019092556001600160a01b0387811680845260049283905260408085208590556003549051637e42683b60e01b8152938401919091521690637e42683b90602401602060405180830381865afa158015610ca7573d6000803e3d6000fd5b505050506040513d601f19601f82011682018060405250810190610ccb9190610e5d565b61ffff81166000908152600560205260408120805492935090610ced83610eef565b9190505550505050505050565b600060208284031215610d0c57600080fd5b5035919050565b80356001600160a01b0381168114610d2a57600080fd5b919050565b600060208284031215610d4157600080fd5b61077b82610d13565b60008060408385031215610d5d57600080fd5b610d6683610d13565b946020939093013593505050565b600080600060608486031215610d8957600080fd5b610d9284610d13565b9250610da060208501610d13565b9150604084013590509250925092565b61ffff811681146105fb57600080fd5b600060208284031215610dd257600080fd5b813561077b81610db0565b634e487b7160e01b600052603260045260246000fd5b60208082526044908201527f6572726f72203a20746869732061646472657373206973206e6f74206120746f60408201527f6b656e20626f756e6420746f2074686520636f6d706c69616e636520636f6e746060820152631c9858dd60e21b608082015260a00190565b600060208284031215610e6f57600080fd5b815161077b81610db0565b634e487b7160e01b600052601160045260246000fd5b600060018201610ea257610ea2610e7a565b5060010190565b600060208284031215610ebb57600080fd5b5051919050565b600082821015610ed457610ed4610e7a565b500390565b634e487b7160e01b600052603160045260246000fd5b600081610efe57610efe610e7a565b50600019019056fea2646970667358221220c1e7f5992948861c914f7e961c2b167f31919cd55e81439dfaca320befdebc5164736f6c634300080f0033",
  "immutableReferences": {},
  "source": "// SPDX-License-Identifier: GPL-3.0\n\n/**\n *     NOTICE\n *\n *     The T-REX software is licensed under a proprietary license or the GPL v.3.\n *     If you choose to receive it under the GPL v.3 license, the following applies:\n *     T-REX is a suite of smart contracts developed by Tokeny to manage and transfer financial assets on the ethereum blockchain\n *\n *     Copyright (C) 2021, Tokeny srl.\n *\n *     This program is free software: you can redistribute it and/or modify\n *     it under the terms of the GNU General Public License as published by\n *     the Free Software Foundation, either version 3 of the License, or\n *     (at your option) any later version.\n *\n *     This program is distributed in the hope that it will be useful,\n *     but WITHOUT ANY WARRANTY; without even the implied warranty of\n *     MERCHANTABILITY or FITNESS FOR A PARTICULAR PURPOSE.  See the\n *     GNU General Public License for more details.\n *\n *     You should have received a copy of the GNU General Public License\n *     along with this program.  If not, see <https://www.gnu.org/licenses/>.\n */\n\npragma solidity ^0.8.0;\n\nimport '@openzeppelin/contracts/access/Ownable.sol';\n\nimport './ICompliance.sol';\nimport '../token/IToken.sol';\nimport '../registry/IIdentityRegistry.sol';\n\ncontract LimitHolder is ICompliance, Ownable\n\n {\n    /// @dev the token on which this compliance contract is applied\n    IToken public token;\n\n    /// @dev the limit of holders for this token\n    uint256 private holderLimit;\n\n    /// @dev the Identity registry contract linked to `token`\n    IIdentityRegistry private identityRegistry;\n\n    /// @dev the index of each shareholder in the array `shareholders`\n    mapping(address => uint256) private holderIndices;\n\n    /// @dev the amount of shareholders per country\n    mapping(uint16 => uint256) private countryShareHolders;\n\n    /// @dev the addresses of all shareholders\n    address[] private shareholders;\n\n    /// @dev Mapping between agents and their statuses\n    mapping(address => bool) private _tokenAgentsList;\n\n    /// @dev Mapping of tokens linked to the compliance contract\n    mapping(address => bool) private _tokensBound;\n\n    /**\n     * @dev Throws if called by any address that is not a token bound to the compliance.\n     */\n    modifier onlyToken() {\n        require(isToken(), 'error : this address is not a token bound to the compliance contract');\n        _;\n    }\n\n    /**\n     *  this event is emitted when the holder limit is set.\n     *  the event is emitted by the setHolderLimit function and by the constructor\n     *  `_holderLimit` is the holder limit for this token\n     */\n    event HolderLimitSet(uint256 _holderLimit);\n\n    /**\n     *  @dev the constructor initiates the smart contract with the initial state variables\n     *  @param _token the address of the token concerned by the rules of this compliance contract\n     *  @param _holderLimit the holder limit for the token concerned\n     *  emits a `HolderLimitSet` event\n     */\n    constructor(address _token, uint256 _holderLimit) {\n        token = IToken(_token);\n        holderLimit = _holderLimit;\n        identityRegistry = token.identityRegistry();\n        emit HolderLimitSet(_holderLimit);\n    }\n\n    /**\n     *  @dev See {ICompliance-isTokenAgent}.\n     */\n    function isTokenAgent(address _agentAddress) public view override returns (bool) {\n        return (_tokenAgentsList[_agentAddress]);\n    }\n\n    /**\n     *  @dev See {ICompliance-isTokenBound}.\n     */\n    function isTokenBound(address _token) public view override returns (bool) {\n        return (_tokensBound[_token]);\n    }\n\n    /**\n     *  @dev See {ICompliance-addTokenAgent}.\n     */\n    function addTokenAgent(address _agentAddress) external override onlyOwner {\n        require(!_tokenAgentsList[_agentAddress], 'This Agent is already registered');\n        _tokenAgentsList[_agentAddress] = true;\n        emit TokenAgentAdded(_agentAddress);\n    }\n\n    /**\n     *  @dev See {ICompliance-isTokenAgent}.\n     */\n    function removeTokenAgent(address _agentAddress) external override onlyOwner {\n        require(_tokenAgentsList[_agentAddress], 'This Agent is not registered yet');\n        _tokenAgentsList[_agentAddress] = false;\n        emit TokenAgentRemoved(_agentAddress);\n    }\n\n    /**\n     *  @dev See {ICompliance-isTokenAgent}.\n     */\n    function bindToken(address _token) external override onlyOwner {\n        require(!_tokensBound[_token], 'This token is already bound');\n        _tokensBound[_token] = true;\n        emit TokenBound(_token);\n    }\n\n    /**\n     *  @dev See {ICompliance-isTokenAgent}.\n     */\n    function unbindToken(address _token) external override onlyOwner {\n        require(_tokensBound[_token], 'This token is not bound yet');\n        _tokensBound[_token] = false;\n        emit TokenUnbound(_token);\n    }\n\n    /**\n     *  @dev Returns true if the sender corresponds to a token that is bound with the Compliance contract\n     */\n    function isToken() internal view returns (bool) {\n        return isTokenBound(msg.sender);\n    }\n\n    /**\n     *  @dev sets the holder limit as required for compliance purpose\n     *  @param _holderLimit the holder limit for the token concerned\n     *  This function can only be called by the agent of the Compliance contract\n     *  emits a `HolderLimitSet` event\n     */\n    function setHolderLimit(uint256 _holderLimit) external onlyOwner {\n        holderLimit = _holderLimit;\n        emit HolderLimitSet(_holderLimit);\n    }\n\n    /**\n     *  @dev returns the holder limit as set on the contract\n     */\n    function getHolderLimit() external view returns (uint256) {\n        return holderLimit;\n    }\n\n    /**\n     *  @dev returns the amount of token holders\n     */\n    function holderCount() public view returns (uint256) {\n        return shareholders.length;\n    }\n\n    /**\n     *  @dev By counting the number of token holders using `holderCount`\n     *  you can retrieve the complete list of token holders, one at a time.\n     *  It MUST throw if `index >= holderCount()`.\n     *  @param index The zero-based index of the holder.\n     *  @return `address` the address of the token holder with the given index.\n     */\n    function holderAt(uint256 index) external view returns (address) {\n        require(index < shareholders.length, 'shareholder doesn\\'t exist');\n        return shareholders[index];\n    }\n\n    /**\n     *  @dev If the address is not in the `shareholders` array then push it\n     *  and update the `holderIndices` mapping.\n     *  @param addr The address to add as a shareholder if it's not already.\n     */\n    function updateShareholders(address addr) internal {\n        if (holderIndices[addr] == 0) {\n            shareholders.push(addr);\n            holderIndices[addr] = shareholders.length;\n            uint16 country = identityRegistry.investorCountry(addr);\n            countryShareHolders[country]++;\n        }\n    }\n\n    /**\n     *  If the address is in the `shareholders` array and the forthcoming\n     *  transfer or transferFrom will reduce their balance to 0, then\n     *  we need to remove them from the shareholders array.\n     *  @param addr The address to prune if their balance will be reduced to 0.\n     *  @dev see https://ethereum.stackexchange.com/a/39311\n     */\n    function pruneShareholders(address addr) internal {\n        require(holderIndices[addr] != 0, 'Shareholder does not exist');\n        uint256 balance = token.balanceOf(addr);\n        if (balance > 0) {\n            return;\n        }\n        uint256 holderIndex = holderIndices[addr] - 1;\n        uint256 lastIndex = shareholders.length - 1;\n        address lastHolder = shareholders[lastIndex];\n        shareholders[holderIndex] = lastHolder;\n        holderIndices[lastHolder] = holderIndices[addr];\n        shareholders.pop();\n        holderIndices[addr] = 0;\n        uint16 country = identityRegistry.investorCountry(addr);\n        countryShareHolders[country]--;\n    }\n\n    /**\n     *  @dev get the amount of shareholders in a country\n     *  @param index the index of the country, following ISO 3166-1\n     */\n    function getShareholderCountByCountry(uint16 index) external view returns (uint256) {\n        return countryShareHolders[index];\n    }\n\n    /**\n     *  @dev See {ICompliance-canTransfer}.\n     *  @return true if the amount of holders post-transfer is less or\n     *  equal to the maximum amount of token holders\n     */\n    function canTransfer(\n        address /* _from */,\n        address _to,\n        uint256 /* _value */\n    ) external view override returns (bool) {\n        if (holderIndices[_to] != 0) {\n            return true;\n        }\n        if (holderCount() < holderLimit) {\n            return true;\n        }\n        return false;\n    }\n\n    /**\n     *  @dev See {ICompliance-transferred}.\n     *  updates the counter of shareholders if necessary\n     */\n    function transferred(\n        address _from,\n        address _to,\n        uint256 /*_value */\n    ) external override onlyToken {\n        updateShareholders(_to);\n        pruneShareholders(_from);\n    }\n\n    /**\n     *  @dev See {ICompliance-created}.\n     *  updates the counter of shareholders if necessary\n     */\n    function created(address _to, uint256 _value) external override onlyToken {\n        require(_value > 0, 'No token created');\n        updateShareholders(_to);\n    }\n\n    /**\n     *  @dev See {ICompliance-destroyed}.\n     *  updates the counter of shareholders if necessary\n     */\n    function destroyed(address _from, uint256 /* _value */) external override onlyToken {\n        pruneShareholders(_from);\n    }\n\n    /**\n     *  @dev See {ICompliance-transferOwnershipOnComplianceContract}.\n     */\n    function transferOwnershipOnComplianceContract(address newOwner) external override onlyOwner {\n        transferOwnership(newOwner);\n    }\n}\n",
  "sourcePath": "/home/mayank/Desktop/security-token-5/Prototype--Craye-Realstate/T-REX/contracts/compliance/LimitHolder.sol",
  "compiler": {
    "name": "solc",
    "version": "0.8.15+commit.e14f2714.Emscripten.clang"
  },
  "schemaVersion": "3.4.6",
  "updatedAt": "2022-08-03T10:43:51.308Z",
  "devdoc": {
    "kind": "dev",
    "methods": {
      "addTokenAgent(address)": {
        "details": "See {ICompliance-addTokenAgent}."
      },
      "bindToken(address)": {
        "details": "See {ICompliance-isTokenAgent}."
      },
      "canTransfer(address,address,uint256)": {
        "details": "See {ICompliance-canTransfer}.",
        "returns": {
          "_0": "true if the amount of holders post-transfer is less or  equal to the maximum amount of token holders"
        }
      },
      "constructor": {
        "details": "the constructor initiates the smart contract with the initial state variables",
        "params": {
          "_holderLimit": "the holder limit for the token concerned  emits a `HolderLimitSet` event",
          "_token": "the address of the token concerned by the rules of this compliance contract"
        }
      },
      "created(address,uint256)": {
        "details": "See {ICompliance-created}.  updates the counter of shareholders if necessary"
      },
      "destroyed(address,uint256)": {
        "details": "See {ICompliance-destroyed}.  updates the counter of shareholders if necessary"
      },
      "getHolderLimit()": {
        "details": "returns the holder limit as set on the contract"
      },
      "getShareholderCountByCountry(uint16)": {
        "details": "get the amount of shareholders in a country",
        "params": {
          "index": "the index of the country, following ISO 3166-1"
        }
      },
      "holderAt(uint256)": {
        "details": "By counting the number of token holders using `holderCount`  you can retrieve the complete list of token holders, one at a time.  It MUST throw if `index >= holderCount()`.",
        "params": {
          "index": "The zero-based index of the holder."
        },
        "returns": {
          "_0": "`address` the address of the token holder with the given index."
        }
      },
      "holderCount()": {
        "details": "returns the amount of token holders"
      },
      "isTokenAgent(address)": {
        "details": "See {ICompliance-isTokenAgent}."
      },
      "isTokenBound(address)": {
        "details": "See {ICompliance-isTokenBound}."
      },
      "owner()": {
        "details": "Returns the address of the current owner."
      },
      "removeTokenAgent(address)": {
        "details": "See {ICompliance-isTokenAgent}."
      },
      "renounceOwnership()": {
        "details": "Leaves the contract without owner. It will not be possible to call `onlyOwner` functions anymore. Can only be called by the current owner. NOTE: Renouncing ownership will leave the contract without an owner, thereby removing any functionality that is only available to the owner."
      },
      "setHolderLimit(uint256)": {
        "details": "sets the holder limit as required for compliance purpose",
        "params": {
          "_holderLimit": "the holder limit for the token concerned  This function can only be called by the agent of the Compliance contract  emits a `HolderLimitSet` event"
        }
      },
      "transferOwnership(address)": {
        "details": "Transfers ownership of the contract to a new account (`newOwner`). Can only be called by the current owner."
      },
      "transferOwnershipOnComplianceContract(address)": {
        "details": "See {ICompliance-transferOwnershipOnComplianceContract}."
      },
      "transferred(address,address,uint256)": {
        "details": "See {ICompliance-transferred}.  updates the counter of shareholders if necessary"
      },
      "unbindToken(address)": {
        "details": "See {ICompliance-isTokenAgent}."
      }
    },
    "stateVariables": {
      "_tokenAgentsList": {
        "details": "Mapping between agents and their statuses"
      },
      "_tokensBound": {
        "details": "Mapping of tokens linked to the compliance contract"
      },
      "countryShareHolders": {
        "details": "the amount of shareholders per country"
      },
      "holderIndices": {
        "details": "the index of each shareholder in the array `shareholders`"
      },
      "holderLimit": {
        "details": "the limit of holders for this token"
      },
      "identityRegistry": {
        "details": "the Identity registry contract linked to `token`"
      },
      "shareholders": {
        "details": "the addresses of all shareholders"
      },
      "token": {
        "details": "the token on which this compliance contract is applied"
      }
    },
    "version": 1
  },
  "userdoc": {
    "events": {
      "HolderLimitSet(uint256)": {
        "notice": "this event is emitted when the holder limit is set.  the event is emitted by the setHolderLimit function and by the constructor  `_holderLimit` is the holder limit for this token"
      },
      "TokenAgentAdded(address)": {
        "notice": "this event is emitted when the Agent has been added on the allowedList of this Compliance.  the event is emitted by the Compliance constructor and by the addTokenAgent function  `_agentAddress` is the address of the Agent to add"
      },
      "TokenAgentRemoved(address)": {
        "notice": "this event is emitted when the Agent has been removed from the agent list of this Compliance.  the event is emitted by the Compliance constructor and by the removeTokenAgent function  `_agentAddress` is the address of the Agent to remove"
      },
      "TokenBound(address)": {
        "notice": "this event is emitted when a token has been bound to the compliance contract  the event is emitted by the bindToken function  `_token` is the address of the token to bind"
      },
      "TokenUnbound(address)": {
        "notice": "this event is emitted when a token has been unbound from the compliance contract  the event is emitted by the unbindToken function  `_token` is the address of the token to unbind"
      }
    },
    "kind": "user",
    "methods": {},
    "version": 1
  }
}