{
  "contractName": "OwnerManager",
  "abi": [
    {
      "inputs": [
        {
          "internalType": "address",
          "name": "_token",
          "type": "address"
        }
      ],
      "stateMutability": "nonpayable",
      "type": "constructor"
    },
    {
      "anonymous": false,
      "inputs": [
        {
          "indexed": true,
          "internalType": "address",
          "name": "target",
          "type": "address"
        },
        {
          "indexed": false,
          "internalType": "bytes4",
          "name": "selector",
          "type": "bytes4"
        }
      ],
      "name": "ComplianceInteraction",
      "type": "event"
    },
    {
      "anonymous": false,
      "inputs": [
        {
          "indexed": true,
          "internalType": "address",
          "name": "previousOwner",
          "type": "address"
        },
        {
          "indexed": true,
          "internalType": "address",
          "name": "newOwner",
          "type": "address"
        }
      ],
      "name": "OwnershipTransferred",
      "type": "event"
    },
    {
      "anonymous": false,
      "inputs": [
        {
          "indexed": true,
          "internalType": "address",
          "name": "_owner",
          "type": "address"
        },
        {
          "indexed": false,
          "internalType": "string",
          "name": "_role",
          "type": "string"
        }
      ],
      "name": "RoleAdded",
      "type": "event"
    },
    {
      "anonymous": false,
      "inputs": [
        {
          "indexed": true,
          "internalType": "address",
          "name": "_owner",
          "type": "address"
        },
        {
          "indexed": false,
          "internalType": "string",
          "name": "_role",
          "type": "string"
        }
      ],
      "name": "RoleRemoved",
      "type": "event"
    },
    {
      "inputs": [
        {
          "internalType": "address",
          "name": "_owner",
          "type": "address"
        }
      ],
      "name": "addClaimRegistryManager",
      "outputs": [],
      "stateMutability": "nonpayable",
      "type": "function"
    },
    {
      "inputs": [
        {
          "internalType": "address",
          "name": "_owner",
          "type": "address"
        }
      ],
      "name": "addComplianceManager",
      "outputs": [],
      "stateMutability": "nonpayable",
      "type": "function"
    },
    {
      "inputs": [
        {
          "internalType": "address",
          "name": "_owner",
          "type": "address"
        }
      ],
      "name": "addComplianceSetter",
      "outputs": [],
      "stateMutability": "nonpayable",
      "type": "function"
    },
    {
      "inputs": [
        {
          "internalType": "address",
          "name": "_owner",
          "type": "address"
        }
      ],
      "name": "addIssuersRegistryManager",
      "outputs": [],
      "stateMutability": "nonpayable",
      "type": "function"
    },
    {
      "inputs": [
        {
          "internalType": "address",
          "name": "_owner",
          "type": "address"
        }
      ],
      "name": "addOwnerAdmin",
      "outputs": [],
      "stateMutability": "nonpayable",
      "type": "function"
    },
    {
      "inputs": [
        {
          "internalType": "address",
          "name": "_owner",
          "type": "address"
        }
      ],
      "name": "addRegistryAddressSetter",
      "outputs": [],
      "stateMutability": "nonpayable",
      "type": "function"
    },
    {
      "inputs": [
        {
          "internalType": "address",
          "name": "_owner",
          "type": "address"
        }
      ],
      "name": "addTokenInfoManager",
      "outputs": [],
      "stateMutability": "nonpayable",
      "type": "function"
    },
    {
      "inputs": [
        {
          "internalType": "address",
          "name": "_owner",
          "type": "address"
        }
      ],
      "name": "isClaimRegistryManager",
      "outputs": [
        {
          "internalType": "bool",
          "name": "",
          "type": "bool"
        }
      ],
      "stateMutability": "view",
      "type": "function"
    },
    {
      "inputs": [
        {
          "internalType": "address",
          "name": "_owner",
          "type": "address"
        }
      ],
      "name": "isComplianceManager",
      "outputs": [
        {
          "internalType": "bool",
          "name": "",
          "type": "bool"
        }
      ],
      "stateMutability": "view",
      "type": "function"
    },
    {
      "inputs": [
        {
          "internalType": "address",
          "name": "_owner",
          "type": "address"
        }
      ],
      "name": "isComplianceSetter",
      "outputs": [
        {
          "internalType": "bool",
          "name": "",
          "type": "bool"
        }
      ],
      "stateMutability": "view",
      "type": "function"
    },
    {
      "inputs": [
        {
          "internalType": "address",
          "name": "_owner",
          "type": "address"
        }
      ],
      "name": "isIssuersRegistryManager",
      "outputs": [
        {
          "internalType": "bool",
          "name": "",
          "type": "bool"
        }
      ],
      "stateMutability": "view",
      "type": "function"
    },
    {
      "inputs": [
        {
          "internalType": "address",
          "name": "_owner",
          "type": "address"
        }
      ],
      "name": "isOwnerAdmin",
      "outputs": [
        {
          "internalType": "bool",
          "name": "",
          "type": "bool"
        }
      ],
      "stateMutability": "view",
      "type": "function"
    },
    {
      "inputs": [
        {
          "internalType": "address",
          "name": "_owner",
          "type": "address"
        }
      ],
      "name": "isRegistryAddressSetter",
      "outputs": [
        {
          "internalType": "bool",
          "name": "",
          "type": "bool"
        }
      ],
      "stateMutability": "view",
      "type": "function"
    },
    {
      "inputs": [
        {
          "internalType": "address",
          "name": "_owner",
          "type": "address"
        }
      ],
      "name": "isTokenInfoManager",
      "outputs": [
        {
          "internalType": "bool",
          "name": "",
          "type": "bool"
        }
      ],
      "stateMutability": "view",
      "type": "function"
    },
    {
      "inputs": [],
      "name": "owner",
      "outputs": [
        {
          "internalType": "address",
          "name": "",
          "type": "address"
        }
      ],
      "stateMutability": "view",
      "type": "function"
    },
    {
      "inputs": [
        {
          "internalType": "address",
          "name": "_owner",
          "type": "address"
        }
      ],
      "name": "removeClaimRegistryManager",
      "outputs": [],
      "stateMutability": "nonpayable",
      "type": "function"
    },
    {
      "inputs": [
        {
          "internalType": "address",
          "name": "_owner",
          "type": "address"
        }
      ],
      "name": "removeComplianceManager",
      "outputs": [],
      "stateMutability": "nonpayable",
      "type": "function"
    },
    {
      "inputs": [
        {
          "internalType": "address",
          "name": "_owner",
          "type": "address"
        }
      ],
      "name": "removeComplianceSetter",
      "outputs": [],
      "stateMutability": "nonpayable",
      "type": "function"
    },
    {
      "inputs": [
        {
          "internalType": "address",
          "name": "_owner",
          "type": "address"
        }
      ],
      "name": "removeIssuersRegistryManager",
      "outputs": [],
      "stateMutability": "nonpayable",
      "type": "function"
    },
    {
      "inputs": [
        {
          "internalType": "address",
          "name": "_owner",
          "type": "address"
        }
      ],
      "name": "removeOwnerAdmin",
      "outputs": [],
      "stateMutability": "nonpayable",
      "type": "function"
    },
    {
      "inputs": [
        {
          "internalType": "address",
          "name": "_owner",
          "type": "address"
        }
      ],
      "name": "removeRegistryAddressSetter",
      "outputs": [],
      "stateMutability": "nonpayable",
      "type": "function"
    },
    {
      "inputs": [
        {
          "internalType": "address",
          "name": "_owner",
          "type": "address"
        }
      ],
      "name": "removeTokenInfoManager",
      "outputs": [],
      "stateMutability": "nonpayable",
      "type": "function"
    },
    {
      "inputs": [],
      "name": "renounceOwnership",
      "outputs": [],
      "stateMutability": "nonpayable",
      "type": "function"
    },
    {
      "inputs": [],
      "name": "token",
      "outputs": [
        {
          "internalType": "contract IToken",
          "name": "",
          "type": "address"
        }
      ],
      "stateMutability": "view",
      "type": "function"
    },
    {
      "inputs": [
        {
          "internalType": "address",
          "name": "newOwner",
          "type": "address"
        }
      ],
      "name": "transferOwnership",
      "outputs": [],
      "stateMutability": "nonpayable",
      "type": "function"
    },
    {
      "inputs": [
        {
          "internalType": "address",
          "name": "_identityRegistry",
          "type": "address"
        },
        {
          "internalType": "contract IIdentity",
          "name": "_onchainID",
          "type": "address"
        }
      ],
      "name": "callSetIdentityRegistry",
      "outputs": [],
      "stateMutability": "nonpayable",
      "type": "function"
    },
    {
      "inputs": [
        {
          "internalType": "address",
          "name": "_compliance",
          "type": "address"
        },
        {
          "internalType": "contract IIdentity",
          "name": "_onchainID",
          "type": "address"
        }
      ],
      "name": "callSetCompliance",
      "outputs": [],
      "stateMutability": "nonpayable",
      "type": "function"
    },
    {
      "inputs": [
        {
          "internalType": "bytes",
          "name": "callData",
          "type": "bytes"
        },
        {
          "internalType": "contract IIdentity",
          "name": "_onchainID",
          "type": "address"
        }
      ],
      "name": "callComplianceFunction",
      "outputs": [],
      "stateMutability": "nonpayable",
      "type": "function"
    },
    {
      "inputs": [
        {
          "internalType": "string",
          "name": "_name",
          "type": "string"
        },
        {
          "internalType": "contract IIdentity",
          "name": "_onchainID",
          "type": "address"
        }
      ],
      "name": "callSetTokenName",
      "outputs": [],
      "stateMutability": "nonpayable",
      "type": "function"
    },
    {
      "inputs": [
        {
          "internalType": "string",
          "name": "_symbol",
          "type": "string"
        },
        {
          "internalType": "contract IIdentity",
          "name": "_onchainID",
          "type": "address"
        }
      ],
      "name": "callSetTokenSymbol",
      "outputs": [],
      "stateMutability": "nonpayable",
      "type": "function"
    },
    {
      "inputs": [
        {
          "internalType": "address",
          "name": "_tokenOnchainID",
          "type": "address"
        },
        {
          "internalType": "contract IIdentity",
          "name": "_onchainID",
          "type": "address"
        }
      ],
      "name": "callSetTokenOnchainID",
      "outputs": [],
      "stateMutability": "nonpayable",
      "type": "function"
    },
    {
      "inputs": [
        {
          "internalType": "address",
          "name": "_claimTopicsRegistry",
          "type": "address"
        },
        {
          "internalType": "contract IIdentity",
          "name": "_onchainID",
          "type": "address"
        }
      ],
      "name": "callSetClaimTopicsRegistry",
      "outputs": [],
      "stateMutability": "nonpayable",
      "type": "function"
    },
    {
      "inputs": [
        {
          "internalType": "address",
          "name": "_trustedIssuersRegistry",
          "type": "address"
        },
        {
          "internalType": "contract IIdentity",
          "name": "_onchainID",
          "type": "address"
        }
      ],
      "name": "callSetTrustedIssuersRegistry",
      "outputs": [],
      "stateMutability": "nonpayable",
      "type": "function"
    },
    {
      "inputs": [
        {
          "internalType": "contract IClaimIssuer",
          "name": "_trustedIssuer",
          "type": "address"
        },
        {
          "internalType": "uint256[]",
          "name": "_claimTopics",
          "type": "uint256[]"
        },
        {
          "internalType": "contract IIdentity",
          "name": "_onchainID",
          "type": "address"
        }
      ],
      "name": "callAddTrustedIssuer",
      "outputs": [],
      "stateMutability": "nonpayable",
      "type": "function"
    },
    {
      "inputs": [
        {
          "internalType": "contract IClaimIssuer",
          "name": "_trustedIssuer",
          "type": "address"
        },
        {
          "internalType": "contract IIdentity",
          "name": "_onchainID",
          "type": "address"
        }
      ],
      "name": "callRemoveTrustedIssuer",
      "outputs": [],
      "stateMutability": "nonpayable",
      "type": "function"
    },
    {
      "inputs": [
        {
          "internalType": "contract IClaimIssuer",
          "name": "_trustedIssuer",
          "type": "address"
        },
        {
          "internalType": "uint256[]",
          "name": "_claimTopics",
          "type": "uint256[]"
        },
        {
          "internalType": "contract IIdentity",
          "name": "_onchainID",
          "type": "address"
        }
      ],
      "name": "callUpdateIssuerClaimTopics",
      "outputs": [],
      "stateMutability": "nonpayable",
      "type": "function"
    },
    {
      "inputs": [
        {
          "internalType": "uint256",
          "name": "_claimTopic",
          "type": "uint256"
        },
        {
          "internalType": "contract IIdentity",
          "name": "_onchainID",
          "type": "address"
        }
      ],
      "name": "callAddClaimTopic",
      "outputs": [],
      "stateMutability": "nonpayable",
      "type": "function"
    },
    {
      "inputs": [
        {
          "internalType": "uint256",
          "name": "_claimTopic",
          "type": "uint256"
        },
        {
          "internalType": "contract IIdentity",
          "name": "_onchainID",
          "type": "address"
        }
      ],
      "name": "callRemoveClaimTopic",
      "outputs": [],
      "stateMutability": "nonpayable",
      "type": "function"
    },
    {
      "inputs": [
        {
          "internalType": "address",
          "name": "_newOwner",
          "type": "address"
        }
      ],
      "name": "callTransferOwnershipOnTokenContract",
      "outputs": [],
      "stateMutability": "nonpayable",
      "type": "function"
    },
    {
      "inputs": [
        {
          "internalType": "address",
          "name": "_newOwner",
          "type": "address"
        }
      ],
      "name": "callTransferOwnershipOnIdentityRegistryContract",
      "outputs": [],
      "stateMutability": "nonpayable",
      "type": "function"
    },
    {
      "inputs": [
        {
          "internalType": "address",
          "name": "_newOwner",
          "type": "address"
        }
      ],
      "name": "callTransferOwnershipOnComplianceContract",
      "outputs": [],
      "stateMutability": "nonpayable",
      "type": "function"
    },
    {
      "inputs": [
        {
          "internalType": "address",
          "name": "_newOwner",
          "type": "address"
        }
      ],
      "name": "callTransferOwnershipOnClaimTopicsRegistryContract",
      "outputs": [],
      "stateMutability": "nonpayable",
      "type": "function"
    },
    {
      "inputs": [
        {
          "internalType": "address",
          "name": "_newOwner",
          "type": "address"
        }
      ],
      "name": "callTransferOwnershipOnIssuersRegistryContract",
      "outputs": [],
      "stateMutability": "nonpayable",
      "type": "function"
    },
    {
      "inputs": [
        {
          "internalType": "address",
          "name": "_agent",
          "type": "address"
        }
      ],
      "name": "callAddAgentOnTokenContract",
      "outputs": [],
      "stateMutability": "nonpayable",
      "type": "function"
    },
    {
      "inputs": [
        {
          "internalType": "address",
          "name": "_agent",
          "type": "address"
        }
      ],
      "name": "callRemoveAgentOnTokenContract",
      "outputs": [],
      "stateMutability": "nonpayable",
      "type": "function"
    },
    {
      "inputs": [
        {
          "internalType": "address",
          "name": "_agent",
          "type": "address"
        }
      ],
      "name": "callAddAgentOnIdentityRegistryContract",
      "outputs": [],
      "stateMutability": "nonpayable",
      "type": "function"
    },
    {
      "inputs": [
        {
          "internalType": "address",
          "name": "_agent",
          "type": "address"
        }
      ],
      "name": "callRemoveAgentOnIdentityRegistryContract",
      "outputs": [],
      "stateMutability": "nonpayable",
      "type": "function"
    }
  ],
  "bytecode": "0x60806040523480156200001157600080fd5b506040516200334b3803806200334b8339810160408190526200003491620000b5565b6200003f3362000065565b600880546001600160a01b0319166001600160a01b0392909216919091179055620000e7565b600080546001600160a01b038381166001600160a01b0319831681178455604051919092169283917f8be0079c531659141344cd1fd0a4f28419497f9722a3daafe3b4186f6b6457e09190a35050565b600060208284031215620000c857600080fd5b81516001600160a01b0381168114620000e057600080fd5b9392505050565b61325480620000f76000396000f3fe608060405234801561001057600080fd5b50600436106102955760003560e01c806387cc060c11610167578063ae5aaa3b116100ce578063f087249c11610087578063f087249c146105c3578063f2fde38b146105d6578063faed696a146105e9578063fc0c546a146105fc578063fc6de4b51461060f578063ff8063111461062257600080fd5b8063ae5aaa3b14610551578063ce4bdac714610564578063dd39042b14610577578063e110255b1461058a578063e38123181461059d578063eeac6fe6146105b057600080fd5b806399884aab1161012057806399884aab146104df5780639ce2d88e146104f25780639d6de3bc14610505578063a66bcc1c14610518578063aa1cef561461052b578063ac95fc911461053e57600080fd5b806387cc060c1461045b578063882fc6ca1461046e5780638da5cb5b14610481578063934b2da4146104a657806394e69f1b146104b9578063951af88d146104cc57600080fd5b8063405225541161020b5780636ff7bff7116101c45780636ff7bff7146103f4578063715018a614610407578063757d467f1461040f578063818ab8bd14610422578063828709371461043557806385cef6081461044857600080fd5b8063405225541461038257806346b686f8146103955780634837b797146103a857806354b9797f146103bb5780635c5f2047146103ce57806362cdd482146103e157600080fd5b806328d7be341161025d57806328d7be34146103105780632af70c30146103235780632f56d91b14610336578063309ff3d1146103495780633ba7c75e1461035c5780633c734ce81461036f57600080fd5b8063039ec2cd1461029a57806303ff5014146102af5780631096a7ec146102d75780632447e50b146102ea578063256ccc07146102fd575b600080fd5b6102ad6102a8366004612db0565b610635565b005b6102c26102bd366004612db0565b6106f0565b60405190151581526020015b60405180910390f35b6102ad6102e5366004612db0565b610703565b6102c26102f8366004612db0565b610823565b6102ad61030b366004612db0565b610830565b6102ad61031e366004612db0565b6108aa565b6102ad610331366004612e1d565b610924565b6102ad610344366004612e74565b610a4f565b6102ad610357366004612e1d565b610c4c565b6102c261036a366004612db0565b610d40565b6102c261037d366004612db0565b610d4d565b6102ad610390366004612db0565b610d5a565b6102ad6103a3366004612db0565b610dfb565b6102ad6103b6366004612ea4565b610e9d565b6102ad6103c9366004612db0565b61109e565b6102ad6103dc366004612e1d565b611139565b6102c26103ef366004612db0565b611321565b6102ad610402366004612db0565b61132e565b6102ad6113d5565b6102ad61041d366004612db0565b6113e9565b6102ad610430366004612db0565b6114d8565b6102c2610443366004612db0565b611628565b6102ad610456366004612db0565b611635565b6102ad610469366004612f3f565b611724565b6102ad61047c366004612db0565b611818565b6000546001600160a01b03165b6040516001600160a01b0390911681526020016102ce565b6102ad6104b4366004612db0565b6118b9565b6102ad6104c7366004612db0565b611954565b6102ad6104da366004612f3f565b6119f5565b6102ad6104ed366004612db0565b611b27565b6102ad610500366004612f3f565b611c77565b6102ad610513366004612f3f565b611e41565b6102ad610526366004612db0565b611f35565b6102ad610539366004612db0565b611fd7565b6102ad61054c366004612db0565b612051565b6102ad61055f366004612db0565b6120f8565b6102ad610572366004612db0565b61219e565b6102ad610585366004612e74565b61223f565b6102ad610598366004612db0565b612406565b6102ad6105ab366004612db0565b6124ab565b6102ad6105be366004612f3f565b61259a565b6102ad6105d1366004612f3f565b612703565b6102ad6105e4366004612db0565b61286c565b6102ad6105f7366004612db0565b6128e5565b60085461048e906001600160a01b031681565b6102ad61061d366004612ea4565b61298a565b6102c2610630366004612db0565b612b53565b336106486000546001600160a01b031690565b6001600160a01b03161480610661575061066133611321565b6106865760405162461bcd60e51b815260040161067d90612f6d565b60405180910390fd5b610691600282612b60565b60408051808201825260158152742932b3b4b9ba393ca0b2323932b9b9a9b2ba3a32b960591b602082015290516001600160a01b038316906000805160206131df833981519152906106e4908490612fa4565b60405180910390a25050565b60006106fd600483612be2565b92915050565b336107166000546001600160a01b031690565b6001600160a01b0316148061072f575061072f33611321565b61074b5760405162461bcd60e51b815260040161067d90612f6d565b600860009054906101000a90046001600160a01b03166001600160a01b0316636290865d6040518163ffffffff1660e01b8152600401602060405180830381865afa15801561079e573d6000803e3d6000fd5b505050506040513d601f19601f820116820180604052508101906107c29190612ff9565b604051637bcf048760e01b81526001600160a01b0383811660048301529190911690637bcf0487906024015b600060405180830381600087803b15801561080857600080fd5b505af115801561081c573d6000803e3d6000fd5b5050505050565b60006106fd600783612be2565b336108436000546001600160a01b031690565b6001600160a01b0316148061085c575061085c33611321565b6108785760405162461bcd60e51b815260040161067d90612f6d565b600854604051630b422d8360e41b81526001600160a01b0383811660048301529091169063b422d830906024016107ee565b336108bd6000546001600160a01b031690565b6001600160a01b031614806108d657506108d633611321565b6108f25760405162461bcd60e51b815260040161067d90612f6d565b600854604051635dc7a3cb60e01b81526001600160a01b03838116600483015290911690635dc7a3cb906024016107ee565b61092d81610823565b80156109ca5750604080513360208201526001600160a01b0383169163d202158d910160408051601f198184030181529082905280516020909101206001600160e01b031960e084901b168252600482015260026024820152604401602060405180830381865afa1580156109a6573d6000803e3d6000fd5b505050506040513d601f19601f820116820180604052508101906109ca9190613016565b6109e65760405162461bcd60e51b815260040161067d90613038565b600854604051635c26412360e11b81526001600160a01b039091169063b84c824690610a189086908690600401613085565b600060405180830381600087803b158015610a3257600080fd5b505af1158015610a46573d6000803e3d6000fd5b50505050505050565b610a5881610d4d565b8015610af55750604080513360208201526001600160a01b0383169163d202158d910160408051601f198184030181529082905280516020909101206001600160e01b031960e084901b168252600482015260026024820152604401602060405180830381865afa158015610ad1573d6000803e3d6000fd5b505050506040513d601f19601f82011682018060405250810190610af59190613016565b610b115760405162461bcd60e51b815260040161067d906130b4565b600860009054906101000a90046001600160a01b03166001600160a01b031663134e18f46040518163ffffffff1660e01b8152600401602060405180830381865afa158015610b64573d6000803e3d6000fd5b505050506040513d601f19601f82011682018060405250810190610b889190612ff9565b6001600160a01b0316633b3e12f46040518163ffffffff1660e01b8152600401602060405180830381865afa158015610bc5573d6000803e3d6000fd5b505050506040513d601f19601f82011682018060405250810190610be99190612ff9565b6001600160a01b03166308297846836040518263ffffffff1660e01b8152600401610c1691815260200190565b600060405180830381600087803b158015610c3057600080fd5b505af1158015610c44573d6000803e3d6000fd5b505050505050565b610c5581610823565b8015610cf25750604080513360208201526001600160a01b0383169163d202158d910160408051601f198184030181529082905280516020909101206001600160e01b031960e084901b168252600482015260026024820152604401602060405180830381865afa158015610cce573d6000803e3d6000fd5b505050506040513d601f19601f82011682018060405250810190610cf29190613016565b610d0e5760405162461bcd60e51b815260040161067d90613038565b60085460405163c47f002760e01b81526001600160a01b039091169063c47f002790610a189086908690600401613085565b60006106fd600383612be2565b60006106fd600583612be2565b33610d6d6000546001600160a01b031690565b6001600160a01b03161480610d865750610d8633611321565b610da25760405162461bcd60e51b815260040161067d90612f6d565b610dad600382612b60565b604080518082018252601081526f21b7b6b83634b0b731b2a9b2ba3a32b960811b602082015290516001600160a01b038316906000805160206131df833981519152906106e4908490612fa4565b33610e0e6000546001600160a01b031690565b6001600160a01b03161480610e275750610e2733611321565b610e435760405162461bcd60e51b815260040161067d90612f6d565b610e4e600482612b60565b604080518082018252601181527021b7b6b83634b0b731b2a6b0b730b3b2b960791b602082015290516001600160a01b038316906000805160206131df833981519152906106e4908490612fa4565b610ea681612b53565b8015610f435750604080513360208201526001600160a01b0383169163d202158d910160408051601f198184030181529082905280516020909101206001600160e01b031960e084901b168252600482015260026024820152604401602060405180830381865afa158015610f1f573d6000803e3d6000fd5b505050506040513d601f19601f82011682018060405250810190610f439190613016565b610f5f5760405162461bcd60e51b815260040161067d906130fc565b600860009054906101000a90046001600160a01b03166001600160a01b031663134e18f46040518163ffffffff1660e01b8152600401602060405180830381865afa158015610fb2573d6000803e3d6000fd5b505050506040513d601f19601f82011682018060405250810190610fd69190612ff9565b6001600160a01b031663b4f3fcb76040518163ffffffff1660e01b8152600401602060405180830381865afa158015611013573d6000803e3d6000fd5b505050506040513d601f19601f820116820180604052508101906110379190612ff9565b6001600160a01b03166304bc7e848585856040518463ffffffff1660e01b815260040161106693929190613146565b600060405180830381600087803b15801561108057600080fd5b505af1158015611094573d6000803e3d6000fd5b5050505050505050565b336110b16000546001600160a01b031690565b6001600160a01b031614806110ca57506110ca33611321565b6110e65760405162461bcd60e51b815260040161067d90612f6d565b6110f1600182612b60565b604080518082018252600a81526927bbb732b920b236b4b760b11b602082015290516001600160a01b038316906000805160206131df833981519152906106e4908490612fa4565b611142816106f0565b80156111df5750604080513360208201526001600160a01b0383169163d202158d910160408051601f198184030181529082905280516020909101206001600160e01b031960e084901b168252600482015260026024820152604401602060405180830381865afa1580156111bb573d6000803e3d6000fd5b505050506040513d601f19601f820116820180604052508101906111df9190613016565b61123a5760405162461bcd60e51b815260206004820152602660248201527f526f6c653a2053656e646572206973204e4f5420436f6d706c69616e6365204d60448201526530b730b3b2b960d11b606482015260840161067d565b60085460408051636290865d60e01b815290516000926001600160a01b031691636290865d9160048083019260209291908290030181865afa158015611284573d6000803e3d6000fd5b505050506040513d601f19601f820116820180604052508101906112a89190612ff9565b90506040518385823760008085836000865af16112c9573d6000803e3d6000fd5b50806001600160a01b03167f5779a24d18a4639b1d59461e68c00fb0cd02533a4c5a6ff3ca6363e23e2fff566112ff8686612c65565b6040516001600160e01b0319909116815260200160405180910390a250505050565b60006106fd600183612be2565b336113416000546001600160a01b031690565b6001600160a01b0316148061135a575061135a33611321565b6113765760405162461bcd60e51b815260040161067d90612f6d565b611381600682612b60565b604080518082018252601681527524b9b9bab2b939a932b3b4b9ba393ca6b0b730b3b2b960511b602082015290516001600160a01b038316906000805160206131df833981519152906106e4908490612fa4565b6113dd612c75565b6113e76000612ccf565b565b336113fc6000546001600160a01b031690565b6001600160a01b03161480611415575061141533611321565b6114315760405162461bcd60e51b815260040161067d90612f6d565b600860009054906101000a90046001600160a01b03166001600160a01b031663134e18f46040518163ffffffff1660e01b8152600401602060405180830381865afa158015611484573d6000803e3d6000fd5b505050506040513d601f19601f820116820180604052508101906114a89190612ff9565b604051635e5741f360e01b81526001600160a01b0383811660048301529190911690635e5741f3906024016107ee565b336114eb6000546001600160a01b031690565b6001600160a01b03161480611504575061150433611321565b6115205760405162461bcd60e51b815260040161067d90612f6d565b600860009054906101000a90046001600160a01b03166001600160a01b031663134e18f46040518163ffffffff1660e01b8152600401602060405180830381865afa158015611573573d6000803e3d6000fd5b505050506040513d601f19601f820116820180604052508101906115979190612ff9565b6001600160a01b0316633b3e12f46040518163ffffffff1660e01b8152600401602060405180830381865afa1580156115d4573d6000803e3d6000fd5b505050506040513d601f19601f820116820180604052508101906115f89190612ff9565b604051636a8a223960e11b81526001600160a01b038381166004830152919091169063d5144472906024016107ee565b60006106fd600283612be2565b336116486000546001600160a01b031690565b6001600160a01b03161480611661575061166133611321565b61167d5760405162461bcd60e51b815260040161067d90612f6d565b600860009054906101000a90046001600160a01b03166001600160a01b031663134e18f46040518163ffffffff1660e01b8152600401602060405180830381865afa1580156116d0573d6000803e3d6000fd5b505050506040513d601f19601f820116820180604052508101906116f49190612ff9565b60405163285e3ded60e11b81526001600160a01b03838116600483015291909116906350bc7bda906024016107ee565b61172d81610823565b80156117ca5750604080513360208201526001600160a01b0383169163d202158d910160408051601f198184030181529082905280516020909101206001600160e01b031960e084901b168252600482015260026024820152604401602060405180830381865afa1580156117a6573d6000803e3d6000fd5b505050506040513d601f19601f820116820180604052508101906117ca9190613016565b6117e65760405162461bcd60e51b815260040161067d90613038565b600854604051633d1ddc5b60e01b81526001600160a01b03848116600483015290911690633d1ddc5b90602401610c16565b3361182b6000546001600160a01b031690565b6001600160a01b03161480611844575061184433611321565b6118605760405162461bcd60e51b815260040161067d90612f6d565b61186b600782612b60565b604080518082018252601081526f2a37b5b2b724b73337a6b0b730b3b2b960811b602082015290516001600160a01b038316906000805160206131df833981519152906106e4908490612fa4565b336118cc6000546001600160a01b031690565b6001600160a01b031614806118e557506118e533611321565b6119015760405162461bcd60e51b815260040161067d90612f6d565b61190c600182612d1f565b604080518082018252600a81526927bbb732b920b236b4b760b11b602082015290516001600160a01b038316906000805160206131ff833981519152906106e4908490612fa4565b336119676000546001600160a01b031690565b6001600160a01b03161480611980575061198033611321565b61199c5760405162461bcd60e51b815260040161067d90612f6d565b6119a7600782612d1f565b604080518082018252601081526f2a37b5b2b724b73337a6b0b730b3b2b960811b602082015290516001600160a01b038316906000805160206131ff833981519152906106e4908490612fa4565b6119fe81610d40565b8015611a9b5750604080513360208201526001600160a01b0383169163d202158d910160408051601f198184030181529082905280516020909101206001600160e01b031960e084901b168252600482015260026024820152604401602060405180830381865afa158015611a77573d6000803e3d6000fd5b505050506040513d601f19601f82011682018060405250810190611a9b9190613016565b611af55760405162461bcd60e51b815260206004820152602560248201527f526f6c653a2053656e646572206973204e4f5420436f6d706c69616e6365205360448201526432ba3a32b960d91b606482015260840161067d565b60085460405163f898178960e01b81526001600160a01b0384811660048301529091169063f898178990602401610c16565b33611b3a6000546001600160a01b031690565b6001600160a01b03161480611b535750611b5333611321565b611b6f5760405162461bcd60e51b815260040161067d90612f6d565b600860009054906101000a90046001600160a01b03166001600160a01b031663134e18f46040518163ffffffff1660e01b8152600401602060405180830381865afa158015611bc2573d6000803e3d6000fd5b505050506040513d601f19601f82011682018060405250810190611be69190612ff9565b6001600160a01b031663b4f3fcb76040518163ffffffff1660e01b8152600401602060405180830381865afa158015611c23573d6000803e3d6000fd5b505050506040513d601f19601f82011682018060405250810190611c479190612ff9565b604051631c6db9c560e31b81526001600160a01b038381166004830152919091169063e36dce28906024016107ee565b611c8081612b53565b8015611d1d5750604080513360208201526001600160a01b0383169163d202158d910160408051601f198184030181529082905280516020909101206001600160e01b031960e084901b168252600482015260026024820152604401602060405180830381865afa158015611cf9573d6000803e3d6000fd5b505050506040513d601f19601f82011682018060405250810190611d1d9190613016565b611d395760405162461bcd60e51b815260040161067d906130fc565b600860009054906101000a90046001600160a01b03166001600160a01b031663134e18f46040518163ffffffff1660e01b8152600401602060405180830381865afa158015611d8c573d6000803e3d6000fd5b505050506040513d601f19601f82011682018060405250810190611db09190612ff9565b6001600160a01b031663b4f3fcb76040518163ffffffff1660e01b8152600401602060405180830381865afa158015611ded573d6000803e3d6000fd5b505050506040513d601f19601f82011682018060405250810190611e119190612ff9565b60405163b93d28eb60e01b81526001600160a01b038481166004830152919091169063b93d28eb90602401610c16565b611e4a81611628565b8015611ee75750604080513360208201526001600160a01b0383169163d202158d910160408051601f198184030181529082905280516020909101206001600160e01b031960e084901b168252600482015260026024820152604401602060405180830381865afa158015611ec3573d6000803e3d6000fd5b505050506040513d601f19601f82011682018060405250810190611ee79190613016565b611f035760405162461bcd60e51b815260040161067d90613193565b60085460405163cbf3f86160e01b81526001600160a01b0384811660048301529091169063cbf3f86190602401610c16565b33611f486000546001600160a01b031690565b6001600160a01b03161480611f615750611f6133611321565b611f7d5760405162461bcd60e51b815260040161067d90612f6d565b611f88600482612d1f565b604080518082018252601181527021b7b6b83634b0b731b2a6b0b730b3b2b960791b602082015290516001600160a01b038316906000805160206131ff833981519152906106e4908490612fa4565b33611fea6000546001600160a01b031690565b6001600160a01b03161480612003575061200333611321565b61201f5760405162461bcd60e51b815260040161067d90612f6d565b6008546040516351411b3360e01b81526001600160a01b038381166004830152909116906351411b33906024016107ee565b336120646000546001600160a01b031690565b6001600160a01b0316148061207d575061207d33611321565b6120995760405162461bcd60e51b815260040161067d90612f6d565b6120a4600682612d1f565b604080518082018252601681527524b9b9bab2b939a932b3b4b9ba393ca6b0b730b3b2b960511b602082015290516001600160a01b038316906000805160206131ff833981519152906106e4908490612fa4565b3361210b6000546001600160a01b031690565b6001600160a01b03161480612124575061212433611321565b6121405760405162461bcd60e51b815260040161067d90612f6d565b61214b600282612d1f565b60408051808201825260158152742932b3b4b9ba393ca0b2323932b9b9a9b2ba3a32b960591b602082015290516001600160a01b038316906000805160206131ff833981519152906106e4908490612fa4565b336121b16000546001600160a01b031690565b6001600160a01b031614806121ca57506121ca33611321565b6121e65760405162461bcd60e51b815260040161067d90612f6d565b6121f1600382612d1f565b604080518082018252601081526f21b7b6b83634b0b731b2a9b2ba3a32b960811b602082015290516001600160a01b038316906000805160206131ff833981519152906106e4908490612fa4565b61224881610d4d565b80156122e55750604080513360208201526001600160a01b0383169163d202158d910160408051601f198184030181529082905280516020909101206001600160e01b031960e084901b168252600482015260026024820152604401602060405180830381865afa1580156122c1573d6000803e3d6000fd5b505050506040513d601f19601f820116820180604052508101906122e59190613016565b6123015760405162461bcd60e51b815260040161067d906130b4565b600860009054906101000a90046001600160a01b03166001600160a01b031663134e18f46040518163ffffffff1660e01b8152600401602060405180830381865afa158015612354573d6000803e3d6000fd5b505050506040513d601f19601f820116820180604052508101906123789190612ff9565b6001600160a01b0316633b3e12f46040518163ffffffff1660e01b8152600401602060405180830381865afa1580156123b5573d6000803e3d6000fd5b505050506040513d601f19601f820116820180604052508101906123d99190612ff9565b6001600160a01b031663c7b22551836040518263ffffffff1660e01b8152600401610c1691815260200190565b336124196000546001600160a01b031690565b6001600160a01b03161480612432575061243233611321565b61244e5760405162461bcd60e51b815260040161067d90612f6d565b612459600582612b60565b604080518082018252601481527321b630b4b6a932b3b4b9ba393ca6b0b730b3b2b960611b602082015290516001600160a01b038316906000805160206131df833981519152906106e4908490612fa4565b336124be6000546001600160a01b031690565b6001600160a01b031614806124d757506124d733611321565b6124f35760405162461bcd60e51b815260040161067d90612f6d565b600860009054906101000a90046001600160a01b03166001600160a01b031663134e18f46040518163ffffffff1660e01b8152600401602060405180830381865afa158015612546573d6000803e3d6000fd5b505050506040513d601f19601f8201168201806040525081019061256a9190612ff9565b604051633389036760e21b81526001600160a01b038381166004830152919091169063ce240d9c906024016107ee565b6125a381611628565b80156126405750604080513360208201526001600160a01b0383169163d202158d910160408051601f198184030181529082905280516020909101206001600160e01b031960e084901b168252600482015260026024820152604401602060405180830381865afa15801561261c573d6000803e3d6000fd5b505050506040513d601f19601f820116820180604052508101906126409190613016565b61265c5760405162461bcd60e51b815260040161067d90613193565b600860009054906101000a90046001600160a01b03166001600160a01b031663134e18f46040518163ffffffff1660e01b8152600401602060405180830381865afa1580156126af573d6000803e3d6000fd5b505050506040513d601f19601f820116820180604052508101906126d39190612ff9565b60405163670af6a960e01b81526001600160a01b038481166004830152919091169063670af6a990602401610c16565b61270c81611628565b80156127a95750604080513360208201526001600160a01b0383169163d202158d910160408051601f198184030181529082905280516020909101206001600160e01b031960e084901b168252600482015260026024820152604401602060405180830381865afa158015612785573d6000803e3d6000fd5b505050506040513d601f19601f820116820180604052508101906127a99190613016565b6127c55760405162461bcd60e51b815260040161067d90613193565b600860009054906101000a90046001600160a01b03166001600160a01b031663134e18f46040518163ffffffff1660e01b8152600401602060405180830381865afa158015612818573d6000803e3d6000fd5b505050506040513d601f19601f8201168201806040525081019061283c9190612ff9565b60405163e744d78960e01b81526001600160a01b038481166004830152919091169063e744d78990602401610c16565b612874612c75565b6001600160a01b0381166128d95760405162461bcd60e51b815260206004820152602660248201527f4f776e61626c653a206e6577206f776e657220697320746865207a65726f206160448201526564647265737360d01b606482015260840161067d565b6128e281612ccf565b50565b336128f86000546001600160a01b031690565b6001600160a01b03161480612911575061291133611321565b61292d5760405162461bcd60e51b815260040161067d90612f6d565b612938600582612d1f565b604080518082018252601481527321b630b4b6a932b3b4b9ba393ca6b0b730b3b2b960611b602082015290516001600160a01b038316906000805160206131ff833981519152906106e4908490612fa4565b61299381612b53565b8015612a305750604080513360208201526001600160a01b0383169163d202158d910160408051601f198184030181529082905280516020909101206001600160e01b031960e084901b168252600482015260026024820152604401602060405180830381865afa158015612a0c573d6000803e3d6000fd5b505050506040513d601f19601f82011682018060405250810190612a309190613016565b612a4c5760405162461bcd60e51b815260040161067d906130fc565b600860009054906101000a90046001600160a01b03166001600160a01b031663134e18f46040518163ffffffff1660e01b8152600401602060405180830381865afa158015612a9f573d6000803e3d6000fd5b505050506040513d601f19601f82011682018060405250810190612ac39190612ff9565b6001600160a01b031663b4f3fcb76040518163ffffffff1660e01b8152600401602060405180830381865afa158015612b00573d6000803e3d6000fd5b505050506040513d601f19601f82011682018060405250810190612b249190612ff9565b6001600160a01b0316639f63ea988585856040518463ffffffff1660e01b815260040161106693929190613146565b60006106fd600683612be2565b612b6a8282612be2565b612bc05760405162461bcd60e51b815260206004820152602160248201527f526f6c65733a206163636f756e7420646f6573206e6f74206861766520726f6c6044820152606560f81b606482015260840161067d565b6001600160a01b0316600090815260209190915260409020805460ff19169055565b60006001600160a01b038216612c455760405162461bcd60e51b815260206004820152602260248201527f526f6c65733a206163636f756e7420697320746865207a65726f206164647265604482015261737360f01b606482015260840161067d565b506001600160a01b03166000908152602091909152604090205460ff1690565b6000600482106106fd5750503590565b6000546001600160a01b031633146113e75760405162461bcd60e51b815260206004820181905260248201527f4f776e61626c653a2063616c6c6572206973206e6f7420746865206f776e6572604482015260640161067d565b600080546001600160a01b038381166001600160a01b0319831681178455604051919092169283917f8be0079c531659141344cd1fd0a4f28419497f9722a3daafe3b4186f6b6457e09190a35050565b612d298282612be2565b15612d765760405162461bcd60e51b815260206004820152601f60248201527f526f6c65733a206163636f756e7420616c72656164792068617320726f6c6500604482015260640161067d565b6001600160a01b0316600090815260209190915260409020805460ff19166001179055565b6001600160a01b03811681146128e257600080fd5b600060208284031215612dc257600080fd5b8135612dcd81612d9b565b9392505050565b60008083601f840112612de657600080fd5b50813567ffffffffffffffff811115612dfe57600080fd5b602083019150836020828501011115612e1657600080fd5b9250929050565b600080600060408486031215612e3257600080fd5b833567ffffffffffffffff811115612e4957600080fd5b612e5586828701612dd4565b9094509250506020840135612e6981612d9b565b809150509250925092565b60008060408385031215612e8757600080fd5b823591506020830135612e9981612d9b565b809150509250929050565b60008060008060608587031215612eba57600080fd5b8435612ec581612d9b565b9350602085013567ffffffffffffffff80821115612ee257600080fd5b818701915087601f830112612ef657600080fd5b813581811115612f0557600080fd5b8860208260051b8501011115612f1a57600080fd5b6020830195508094505050506040850135612f3481612d9b565b939692955090935050565b60008060408385031215612f5257600080fd5b8235612f5d81612d9b565b91506020830135612e9981612d9b565b60208082526019908201527f526f6c653a2053656e646572206973204e4f542041646d696e00000000000000604082015260600190565b600060208083528351808285015260005b81811015612fd157858101830151858201604001528201612fb5565b81811115612fe3576000604083870101525b50601f01601f1916929092016040019392505050565b60006020828403121561300b57600080fd5b8151612dcd81612d9b565b60006020828403121561302857600080fd5b81518015158114612dcd57600080fd5b6020808252602d908201527f526f6c653a2053656e646572206973204e4f5420546f6b656e20496e666f726d60408201526c30ba34b7b71026b0b730b3b2b960991b606082015260800190565b60208152816020820152818360408301376000818301604090810191909152601f909201601f19160101919050565b60208082526028908201527f526f6c653a2053656e646572206973204e4f5420436c61696d526567697374726040820152673ca6b0b730b3b2b960c11b606082015260800190565b6020808252602a908201527f526f6c653a2053656e646572206973204e4f54204973737565727352656769736040820152693a393ca6b0b730b3b2b960b11b606082015260800190565b6001600160a01b0384168152604060208201819052810182905260006001600160fb1b0383111561317657600080fd5b8260051b8085606085013760009201606001918252509392505050565b6020808252602b908201527f526f6c653a2053656e646572206973204e4f542052656769737472792041646460408201526a3932b9b99029b2ba3a32b960a91b60608201526080019056fed211483f91fc6eff862467f8de606587a30c8fc9981056f051b897a418df803abfec83d64eaa953f2708271a023ab9ee82057f8f3578d548c1a4ba0b5b700489a2646970667358221220d3965af2de1c340262921f02ac4e05dc73b7fb24a7bf4265f79f6e18bba9cc7064736f6c634300080f0033",
  "immutableReferences": {},
  "source": "// SPDX-License-Identifier: GPL-3.0\n/**\n *     NOTICE\n *\n *     The T-REX software is licensed under a proprietary license or the GPL v.3.\n *     If you choose to receive it under the GPL v.3 license, the following applies:\n *     T-REX is a suite of smart contracts developed by Tokeny to manage and transfer financial assets on the ethereum blockchain\n *\n *     Copyright (C) 2021, Tokeny srl.\n *\n *     This program is free software: you can redistribute it and/or modify\n *     it under the terms of the GNU General Public License as published by\n *     the Free Software Foundation, either version 3 of the License, or\n *     (at your option) any later version.\n *\n *     This program is distributed in the hope that it will be useful,\n *     but WITHOUT ANY WARRANTY; without even the implied warranty of\n *     MERCHANTABILITY or FITNESS FOR A PARTICULAR PURPOSE.  See the\n *     GNU General Public License for more details.\n *\n *     You should have received a copy of the GNU General Public License\n *     along with this program.  If not, see <https://www.gnu.org/licenses/>.\n */\n\npragma solidity ^0.8.0;\n\nimport '../token/IToken.sol';\nimport '../registry/IIdentityRegistry.sol';\nimport '../registry/ITrustedIssuersRegistry.sol';\nimport '../registry/IClaimTopicsRegistry.sol';\nimport '../compliance/ICompliance.sol';\nimport './OwnerRoles.sol';\nimport '@onchain-id/solidity/contracts/interface/IIdentity.sol';\nimport '@onchain-id/solidity/contracts/interface/IClaimIssuer.sol';\n\ncontract OwnerManager is OwnerRoles {\n    /// @dev the token that is managed by this OwnerManager Contract\n    IToken public token;\n\n    /// @dev Event emitted for each executed interaction with the compliance contract.\n    ///\n    /// For gas efficiency, only the interaction calldata selector (first 4\n    /// bytes) is included in the event. For interactions without calldata or\n    /// whose calldata is shorter than 4 bytes, the selector will be `0`.\n    event ComplianceInteraction(address indexed target, bytes4 selector);\n\n    /**\n     *  @dev the constructor initiates the OwnerManager contract\n     *  and sets msg.sender as owner of the contract\n     *  @param _token the token managed by this OwnerManager contract\n     */\n    constructor(address _token) {\n        token = IToken(_token);\n    }\n\n    /**\n     *  @dev calls the `setIdentityRegistry` function on the token contract\n     *  OwnerManager has to be set as owner on the token smart contract to process this function\n     *  See {IToken-setIdentityRegistry}.\n     *  Requires that `_onchainID` is set as RegistryAddressSetter on the OwnerManager contract\n     *  Requires that msg.sender is an ACTION KEY on `_onchainID`\n     *  @param _onchainID the _onchainID contract of the caller, e.g. \"i call this function and i am Bob\"\n     */\n    function callSetIdentityRegistry(address _identityRegistry, IIdentity _onchainID) external {\n        require(\n            isRegistryAddressSetter(address(_onchainID)) && _onchainID.keyHasPurpose(keccak256(abi.encode(msg.sender)), 2),\n            'Role: Sender is NOT Registry Address Setter'\n        );\n        token.setIdentityRegistry(_identityRegistry);\n    }\n\n    /**\n     *  @dev calls the `setCompliance` function on the token contract\n     *  OwnerManager has to be set as owner on the token smart contract to process this function\n     *  See {IToken-setCompliance}.\n     *  Requires that `_onchainID` is set as ComplianceSetter on the OwnerManager contract\n     *  Requires that msg.sender is a MANAGEMENT KEY on `_onchainID`\n     *  @param _onchainID the _onchainID contract of the caller, e.g. \"i call this function and i am Bob\"\n     */\n    function callSetCompliance(address _compliance, IIdentity _onchainID) external {\n        require(\n            isComplianceSetter(address(_onchainID)) && _onchainID.keyHasPurpose(keccak256(abi.encode(msg.sender)), 2),\n            'Role: Sender is NOT Compliance Setter'\n        );\n        token.setCompliance(_compliance);\n    }\n\n    /**\n     *  @dev calls any onlyOwner function available on the compliance contract\n     *  OwnerManager has to be set as owner on the compliance smart contract to process this function\n     *  Requires that `_onchainID` is set as ComplianceManager on the OwnerManager contract\n     *  Requires that msg.sender is an ACTION KEY on `_onchainID`\n     *  @param _onchainID the _onchainID contract of the caller, e.g. \"i call this function and i am Bob\"\n     */\n    function callComplianceFunction(bytes calldata callData, IIdentity _onchainID) external {\n        require(\n            isComplianceManager(address(_onchainID)) && _onchainID.keyHasPurpose(keccak256(abi.encode(msg.sender)), 2),\n            'Role: Sender is NOT Compliance Manager');\n        address target = address(token.compliance());\n\n        // NOTE: Use assembly to call the interaction instead of a low level\n        // call for two reasons:\n        // - We don't want to copy the return data, since we discard it for\n        // interactions.\n        // - Solidity will under certain conditions generate code to copy input\n        // calldata twice to memory (the second being a \"memcopy loop\").\n        // solhint-disable-next-line no-inline-assembly\n        assembly {\n            let freeMemoryPointer := mload(0x40)\n            calldatacopy(freeMemoryPointer, callData.offset, callData.length)\n            if iszero(\n                call(\n                    gas(),\n                    target,\n                    0,\n                    freeMemoryPointer,\n                    callData.length,\n                    0,\n                    0\n                    ))\n                {\n                    returndatacopy(0, 0, returndatasize())\n                    revert(0, returndatasize())\n                }\n            }\n\n        emit ComplianceInteraction(target, selector(callData));\n\n        }\n\n    /// @dev Extracts the Solidity ABI selector for the specified interaction.\n    /// @param callData Interaction data.\n    /// @return result The 4 byte function selector of the call encoded in\n    /// this interaction.\n    function selector(bytes calldata callData) internal pure returns (bytes4 result) {\n        if (callData.length >= 4) {\n        // NOTE: Read the first word of the interaction's calldata. The\n        // value does not need to be shifted since `bytesN` values are left\n        // aligned, and the value does not need to be masked since masking\n        // occurs when the value is accessed and not stored:\n        // <https://docs.soliditylang.org/en/v0.7.6/abi-spec.html#encoding-of-indexed-event-parameters>\n        // <https://docs.soliditylang.org/en/v0.7.6/assembly.html#access-to-external-variables-functions-and-libraries>\n        // solhint-disable-next-line no-inline-assembly\n            assembly {\n                result := calldataload(callData.offset)\n                }\n            }\n        }\n\n    /**\n     *  @dev calls the `setName` function on the token contract\n     *  OwnerManager has to be set as owner on the token smart contract to process this function\n     *  See {IToken-setName}.\n     *  Requires that `_onchainID` is set as TokenInfoManager on the OwnerManager contract\n     *  Requires that msg.sender is an ACTION KEY on `_onchainID`\n     *  @param _onchainID the _onchainID contract of the caller, e.g. \"i call this function and i am Bob\"\n     */\n    function callSetTokenName(string calldata _name, IIdentity _onchainID) external {\n        require(\n            isTokenInfoManager(address(_onchainID)) && _onchainID.keyHasPurpose(keccak256(abi.encode(msg.sender)), 2),\n            'Role: Sender is NOT Token Information Manager'\n        );\n        token.setName(_name);\n    }\n\n    /**\n     *  @dev calls the `setSymbol` function on the token contract\n     *  OwnerManager has to be set as owner on the token smart contract to process this function\n     *  See {IToken-setSymbol}.\n     *  Requires that `_onchainID` is set as TokenInfoManager on the OwnerManager contract\n     *  Requires that msg.sender is an ACTION KEY on `_onchainID`\n     *  @param _onchainID the _onchainID contract of the caller, e.g. \"i call this function and i am Bob\"\n     */\n    function callSetTokenSymbol(string calldata _symbol, IIdentity _onchainID) external {\n        require(\n            isTokenInfoManager(address(_onchainID)) && _onchainID.keyHasPurpose(keccak256(abi.encode(msg.sender)), 2),\n            'Role: Sender is NOT Token Information Manager'\n        );\n        token.setSymbol(_symbol);\n    }\n\n    /**\n     *  @dev calls the `setOnchainID` function on the token contract\n     *  OwnerManager has to be set as owner on the token smart contract to process this function\n     *  See {IToken-setOnchainID}.\n     *  Requires that `_tokenOnchainID` is set as TokenInfoManager on the OwnerManager contract\n     *  Requires that msg.sender is an ACTION KEY on `_onchainID`\n     *  @param _onchainID the onchainID contract of the caller, e.g. \"i call this function and i am Bob\"\n     */\n    function callSetTokenOnchainID(address _tokenOnchainID, IIdentity _onchainID) external {\n        require(\n            isTokenInfoManager(address(_onchainID)) && _onchainID.keyHasPurpose(keccak256(abi.encode(msg.sender)), 2),\n            'Role: Sender is NOT Token Information Manager'\n        );\n        token.setOnchainID(_tokenOnchainID);\n    }\n\n    /**\n     *  @dev calls the `setClaimTopicsRegistry` function on the Identity Registry contract\n     *  OwnerManager has to be set as owner on the Identity Registry smart contract to process this function\n     *  See {IIdentityRegistry-setClaimTopicsRegistry}.\n     *  Requires that `_onchainID` is set as RegistryAddressSetter on the OwnerManager contract\n     *  Requires that msg.sender is an ACTION KEY on `_onchainID`\n     *  @param _onchainID the _onchainID contract of the caller, e.g. \"i call this function and i am Bob\"\n     */\n    function callSetClaimTopicsRegistry(address _claimTopicsRegistry, IIdentity _onchainID) external {\n        require(\n            isRegistryAddressSetter(address(_onchainID)) && _onchainID.keyHasPurpose(keccak256(abi.encode(msg.sender)), 2),\n            'Role: Sender is NOT Registry Address Setter'\n        );\n        token.identityRegistry().setClaimTopicsRegistry(_claimTopicsRegistry);\n    }\n\n    /**\n     *  @dev calls the `setTrustedIssuersRegistry` function on the Identity Registry contract\n     *  OwnerManager has to be set as owner on the Identity Registry smart contract to process this function\n     *  See {IIdentityRegistry-setTrustedIssuersRegistry}.\n     *  Requires that `_onchainID` is set as RegistryAddressSetter on the OwnerManager contract\n     *  Requires that msg.sender is an ACTION KEY on `_onchainID`\n     *  @param _onchainID the _onchainID contract of the caller, e.g. \"i call this function and i am Bob\"\n     */\n    function callSetTrustedIssuersRegistry(address _trustedIssuersRegistry, IIdentity _onchainID) external {\n        require(\n            isRegistryAddressSetter(address(_onchainID)) && _onchainID.keyHasPurpose(keccak256(abi.encode(msg.sender)), 2),\n            'Role: Sender is NOT Registry Address Setter'\n        );\n        token.identityRegistry().setTrustedIssuersRegistry(_trustedIssuersRegistry);\n    }\n\n    /**\n     *  @dev calls the `addTrustedIssuer` function on the Trusted Issuers Registry contract\n     *  OwnerManager has to be set as owner on the Trusted Issuers Registry smart contract to process this function\n     *  See {ITrustedIssuersRegistry-addTrustedIssuer}.\n     *  Requires that `_onchainID` is set as IssuersRegistryManager on the OwnerManager contract\n     *  Requires that msg.sender is an ACTION KEY on `_onchainID`\n     *  @param _onchainID the _onchainID contract of the caller, e.g. \"i call this function and i am Bob\"\n     */\n    function callAddTrustedIssuer(\n        IClaimIssuer _trustedIssuer,\n        uint256[] calldata _claimTopics,\n        IIdentity _onchainID\n    ) external {\n        require(\n            isIssuersRegistryManager(address(_onchainID)) && _onchainID.keyHasPurpose(keccak256(abi.encode(msg.sender)), 2),\n            'Role: Sender is NOT IssuersRegistryManager'\n        );\n        token.identityRegistry().issuersRegistry().addTrustedIssuer(_trustedIssuer, _claimTopics);\n    }\n\n    /**\n     *  @dev calls the `removeTrustedIssuer` function on the Trusted Issuers Registry contract\n     *  OwnerManager has to be set as owner on the Trusted Issuers Registry smart contract to process this function\n     *  See {ITrustedIssuersRegistry-removeTrustedIssuer}.\n     *  Requires that `_onchainID` is set as IssuersRegistryManager on the OwnerManager contract\n     *  Requires that msg.sender is an ACTION KEY on `_onchainID`\n     *  @param _onchainID the _onchainID contract of the caller, e.g. \"i call this function and i am Bob\"\n     */\n    function callRemoveTrustedIssuer(IClaimIssuer _trustedIssuer, IIdentity _onchainID) external {\n        require(\n            isIssuersRegistryManager(address(_onchainID)) && _onchainID.keyHasPurpose(keccak256(abi.encode(msg.sender)), 2),\n            'Role: Sender is NOT IssuersRegistryManager'\n        );\n        token.identityRegistry().issuersRegistry().removeTrustedIssuer(_trustedIssuer);\n    }\n\n    /**\n     *  @dev calls the `updateIssuerClaimTopics` function on the Trusted Issuers Registry contract\n     *  OwnerManager has to be set as owner on the Trusted Issuers Registry smart contract to process this function\n     *  See {ITrustedIssuersRegistry-updateIssuerClaimTopics}.\n     *  Requires that `_onchainID` is set as IssuersRegistryManager on the OwnerManager contract\n     *  Requires that msg.sender is an ACTION KEY on `_onchainID`\n     *  @param _onchainID the _onchainID contract of the caller, e.g. \"i call this function and i am Bob\"\n     */\n    function callUpdateIssuerClaimTopics(\n        IClaimIssuer _trustedIssuer,\n        uint256[] calldata _claimTopics,\n        IIdentity _onchainID\n    ) external {\n        require(\n            isIssuersRegistryManager(address(_onchainID)) && _onchainID.keyHasPurpose(keccak256(abi.encode(msg.sender)), 2),\n            'Role: Sender is NOT IssuersRegistryManager'\n        );\n        token.identityRegistry().issuersRegistry().updateIssuerClaimTopics(_trustedIssuer, _claimTopics);\n    }\n\n    /**\n     *  @dev calls the `addClaimTopic` function on the Claim Topics Registry contract\n     *  OwnerManager has to be set as owner on the Claim Topics Registry smart contract to process this function\n     *  See {IClaimTopicsRegistry-addClaimTopic}.\n     *  Requires that `_onchainID` is set as ClaimRegistryManager on the OwnerManager contract\n     *  Requires that msg.sender is an ACTION KEY on `_onchainID`\n     *  @param _onchainID the _onchainID contract of the caller, e.g. \"i call this function and i am Bob\"\n     */\n    function callAddClaimTopic(uint256 _claimTopic, IIdentity _onchainID) external {\n        require(\n            isClaimRegistryManager(address(_onchainID)) && _onchainID.keyHasPurpose(keccak256(abi.encode(msg.sender)), 2),\n            'Role: Sender is NOT ClaimRegistryManager'\n        );\n        token.identityRegistry().topicsRegistry().addClaimTopic(_claimTopic);\n    }\n\n    /**\n     *  @dev calls the `removeClaimTopic` function on the Claim Topics Registry contract\n     *  OwnerManager has to be set as owner on the Claim Topics Registry smart contract to process this function\n     *  See {IClaimTopicsRegistry-removeClaimTopic}.\n     *  Requires that `_onchainID` is set as ClaimRegistryManager on the OwnerManager contract\n     *  Requires that msg.sender is an ACTION KEY on `_onchainID`\n     *  @param _onchainID the _onchainID contract of the caller, e.g. \"i call this function and i am Bob\"\n     */\n    function callRemoveClaimTopic(uint256 _claimTopic, IIdentity _onchainID) external {\n        require(\n            isClaimRegistryManager(address(_onchainID)) && _onchainID.keyHasPurpose(keccak256(abi.encode(msg.sender)), 2),\n            'Role: Sender is NOT ClaimRegistryManager'\n        );\n        token.identityRegistry().topicsRegistry().removeClaimTopic(_claimTopic);\n    }\n\n    /**\n     *  @dev calls the `transferOwnershipOnTokenContract` function on the token contract\n     *  OwnerManager has to be set as owner on the token smart contract to process this function\n     *  See {IToken-transferOwnershipOnTokenContract}.\n     *  Requires that msg.sender is an Admin of the OwnerManager contract\n     */\n    function callTransferOwnershipOnTokenContract(address _newOwner) external onlyAdmin {\n        token.transferOwnershipOnTokenContract(_newOwner);\n    }\n\n    /**\n     *  @dev calls the `transferOwnershipOnIdentityRegistryContract` function on the Identity Registry contract\n     *  OwnerManager has to be set as owner on the Identity Registry smart contract to process this function\n     *  See {IIdentityRegistry-transferOwnershipOnIdentityRegistryContract}.\n     *  Requires that msg.sender is an Admin of the OwnerManager contract\n     */\n    function callTransferOwnershipOnIdentityRegistryContract(address _newOwner) external onlyAdmin {\n        token.identityRegistry().transferOwnershipOnIdentityRegistryContract(_newOwner);\n    }\n\n    /**\n     *  @dev calls the `transferOwnershipOnComplianceContract` function on the Compliance contract\n     *  OwnerManager has to be set as owner on the Compliance smart contract to process this function\n     *  See {ICompliance-transferOwnershipOnComplianceContract}.\n     *  Requires that msg.sender is an Admin of the OwnerManager contract\n     */\n    function callTransferOwnershipOnComplianceContract(address _newOwner) external onlyAdmin {\n        token.compliance().transferOwnershipOnComplianceContract(_newOwner);\n    }\n\n    /**\n     *  @dev calls the `transferOwnershipOnClaimTopicsRegistryContract` function on the Claim Topics Registry contract\n     *  OwnerManager has to be set as owner on the Claim Topics registry smart contract to process this function\n     *  See {IClaimTopicsRegistry-transferOwnershipOnClaimTopicsRegistryContract}.\n     *  Requires that msg.sender is an Admin of the OwnerManager contract\n     */\n    function callTransferOwnershipOnClaimTopicsRegistryContract(address _newOwner) external onlyAdmin {\n        token.identityRegistry().topicsRegistry().transferOwnershipOnClaimTopicsRegistryContract(_newOwner);\n    }\n\n    /**\n     *  @dev calls the `transferOwnershipOnIssuersRegistryContract` function on the Trusted Issuers Registry contract\n     *  OwnerManager has to be set as owner on the Trusted Issuers registry smart contract to process this function\n     *  See {ITrustedIssuersRegistry-transferOwnershipOnIssuersRegistryContract}.\n     *  Requires that msg.sender is an Admin of the OwnerManager contract\n     */\n    function callTransferOwnershipOnIssuersRegistryContract(address _newOwner) external onlyAdmin {\n        token.identityRegistry().issuersRegistry().transferOwnershipOnIssuersRegistryContract(_newOwner);\n    }\n\n    /**\n     *  @dev calls the `addAgentOnTokenContract` function on the token contract\n     *  OwnerManager has to be set as owner on the token smart contract to process this function\n     *  See {IToken-addAgentOnTokenContract}.\n     *  Requires that msg.sender is an Admin of the OwnerManager contract\n     */\n    function callAddAgentOnTokenContract(address _agent) external onlyAdmin {\n        token.addAgentOnTokenContract(_agent);\n    }\n\n    /**\n     *  @dev calls the `removeAgentOnTokenContract` function on the token contract\n     *  OwnerManager has to be set as owner on the token smart contract to process this function\n     *  See {IToken-removeAgentOnTokenContract}.\n     *  Requires that msg.sender is an Admin of the OwnerManager contract\n     */\n    function callRemoveAgentOnTokenContract(address _agent) external onlyAdmin {\n        token.removeAgentOnTokenContract(_agent);\n    }\n\n    /**\n     *  @dev calls the `addAgentOnIdentityRegistryContract` function on the Identity Registry contract\n     *  OwnerManager has to be set as owner on the Identity Registry smart contract to process this function\n     *  See {IIdentityRegistry-addAgentOnIdentityRegistryContract}.\n     *  Requires that msg.sender is an Admin of the OwnerManager contract\n     */\n    function callAddAgentOnIdentityRegistryContract(address _agent) external onlyAdmin {\n        token.identityRegistry().addAgentOnIdentityRegistryContract(_agent);\n    }\n\n    /**\n     *  @dev calls the `removeAgentOnIdentityRegistryContract` function on the Identity Registry contract\n     *  OwnerManager has to be set as owner on the Identity Registry smart contract to process this function\n     *  See {IIdentityRegistry-removeAgentOnIdentityRegistryContract}.\n     *  Requires that msg.sender is an Admin of the OwnerManager contract\n     */\n    function callRemoveAgentOnIdentityRegistryContract(address _agent) external onlyAdmin {\n        token.identityRegistry().removeAgentOnIdentityRegistryContract(_agent);\n    }\n}\n",
  "sourcePath": "/home/mayank/Desktop/security-token-5/Prototype--Craye-Realstate/T-REX/contracts/roles/OwnerManager.sol",
  "compiler": {
    "name": "solc",
    "version": "0.8.15+commit.e14f2714.Emscripten.clang"
  },
  "schemaVersion": "3.4.6",
  "updatedAt": "2022-08-03T10:43:51.472Z",
  "devdoc": {
    "events": {
      "ComplianceInteraction(address,bytes4)": {
        "details": "Event emitted for each executed interaction with the compliance contract. For gas efficiency, only the interaction calldata selector (first 4 bytes) is included in the event. For interactions without calldata or whose calldata is shorter than 4 bytes, the selector will be `0`."
      }
    },
    "kind": "dev",
    "methods": {
      "callAddAgentOnIdentityRegistryContract(address)": {
        "details": "calls the `addAgentOnIdentityRegistryContract` function on the Identity Registry contract  OwnerManager has to be set as owner on the Identity Registry smart contract to process this function  See {IIdentityRegistry-addAgentOnIdentityRegistryContract}.  Requires that msg.sender is an Admin of the OwnerManager contract"
      },
      "callAddAgentOnTokenContract(address)": {
        "details": "calls the `addAgentOnTokenContract` function on the token contract  OwnerManager has to be set as owner on the token smart contract to process this function  See {IToken-addAgentOnTokenContract}.  Requires that msg.sender is an Admin of the OwnerManager contract"
      },
      "callAddClaimTopic(uint256,address)": {
        "details": "calls the `addClaimTopic` function on the Claim Topics Registry contract  OwnerManager has to be set as owner on the Claim Topics Registry smart contract to process this function  See {IClaimTopicsRegistry-addClaimTopic}.  Requires that `_onchainID` is set as ClaimRegistryManager on the OwnerManager contract  Requires that msg.sender is an ACTION KEY on `_onchainID`",
        "params": {
          "_onchainID": "the _onchainID contract of the caller, e.g. \"i call this function and i am Bob\""
        }
      },
      "callAddTrustedIssuer(address,uint256[],address)": {
        "details": "calls the `addTrustedIssuer` function on the Trusted Issuers Registry contract  OwnerManager has to be set as owner on the Trusted Issuers Registry smart contract to process this function  See {ITrustedIssuersRegistry-addTrustedIssuer}.  Requires that `_onchainID` is set as IssuersRegistryManager on the OwnerManager contract  Requires that msg.sender is an ACTION KEY on `_onchainID`",
        "params": {
          "_onchainID": "the _onchainID contract of the caller, e.g. \"i call this function and i am Bob\""
        }
      },
      "callComplianceFunction(bytes,address)": {
        "details": "calls any onlyOwner function available on the compliance contract  OwnerManager has to be set as owner on the compliance smart contract to process this function  Requires that `_onchainID` is set as ComplianceManager on the OwnerManager contract  Requires that msg.sender is an ACTION KEY on `_onchainID`",
        "params": {
          "_onchainID": "the _onchainID contract of the caller, e.g. \"i call this function and i am Bob\""
        }
      },
      "callRemoveAgentOnIdentityRegistryContract(address)": {
        "details": "calls the `removeAgentOnIdentityRegistryContract` function on the Identity Registry contract  OwnerManager has to be set as owner on the Identity Registry smart contract to process this function  See {IIdentityRegistry-removeAgentOnIdentityRegistryContract}.  Requires that msg.sender is an Admin of the OwnerManager contract"
      },
      "callRemoveAgentOnTokenContract(address)": {
        "details": "calls the `removeAgentOnTokenContract` function on the token contract  OwnerManager has to be set as owner on the token smart contract to process this function  See {IToken-removeAgentOnTokenContract}.  Requires that msg.sender is an Admin of the OwnerManager contract"
      },
      "callRemoveClaimTopic(uint256,address)": {
        "details": "calls the `removeClaimTopic` function on the Claim Topics Registry contract  OwnerManager has to be set as owner on the Claim Topics Registry smart contract to process this function  See {IClaimTopicsRegistry-removeClaimTopic}.  Requires that `_onchainID` is set as ClaimRegistryManager on the OwnerManager contract  Requires that msg.sender is an ACTION KEY on `_onchainID`",
        "params": {
          "_onchainID": "the _onchainID contract of the caller, e.g. \"i call this function and i am Bob\""
        }
      },
      "callRemoveTrustedIssuer(address,address)": {
        "details": "calls the `removeTrustedIssuer` function on the Trusted Issuers Registry contract  OwnerManager has to be set as owner on the Trusted Issuers Registry smart contract to process this function  See {ITrustedIssuersRegistry-removeTrustedIssuer}.  Requires that `_onchainID` is set as IssuersRegistryManager on the OwnerManager contract  Requires that msg.sender is an ACTION KEY on `_onchainID`",
        "params": {
          "_onchainID": "the _onchainID contract of the caller, e.g. \"i call this function and i am Bob\""
        }
      },
      "callSetClaimTopicsRegistry(address,address)": {
        "details": "calls the `setClaimTopicsRegistry` function on the Identity Registry contract  OwnerManager has to be set as owner on the Identity Registry smart contract to process this function  See {IIdentityRegistry-setClaimTopicsRegistry}.  Requires that `_onchainID` is set as RegistryAddressSetter on the OwnerManager contract  Requires that msg.sender is an ACTION KEY on `_onchainID`",
        "params": {
          "_onchainID": "the _onchainID contract of the caller, e.g. \"i call this function and i am Bob\""
        }
      },
      "callSetCompliance(address,address)": {
        "details": "calls the `setCompliance` function on the token contract  OwnerManager has to be set as owner on the token smart contract to process this function  See {IToken-setCompliance}.  Requires that `_onchainID` is set as ComplianceSetter on the OwnerManager contract  Requires that msg.sender is a MANAGEMENT KEY on `_onchainID`",
        "params": {
          "_onchainID": "the _onchainID contract of the caller, e.g. \"i call this function and i am Bob\""
        }
      },
      "callSetIdentityRegistry(address,address)": {
        "details": "calls the `setIdentityRegistry` function on the token contract  OwnerManager has to be set as owner on the token smart contract to process this function  See {IToken-setIdentityRegistry}.  Requires that `_onchainID` is set as RegistryAddressSetter on the OwnerManager contract  Requires that msg.sender is an ACTION KEY on `_onchainID`",
        "params": {
          "_onchainID": "the _onchainID contract of the caller, e.g. \"i call this function and i am Bob\""
        }
      },
      "callSetTokenName(string,address)": {
        "details": "calls the `setName` function on the token contract  OwnerManager has to be set as owner on the token smart contract to process this function  See {IToken-setName}.  Requires that `_onchainID` is set as TokenInfoManager on the OwnerManager contract  Requires that msg.sender is an ACTION KEY on `_onchainID`",
        "params": {
          "_onchainID": "the _onchainID contract of the caller, e.g. \"i call this function and i am Bob\""
        }
      },
      "callSetTokenOnchainID(address,address)": {
        "details": "calls the `setOnchainID` function on the token contract  OwnerManager has to be set as owner on the token smart contract to process this function  See {IToken-setOnchainID}.  Requires that `_tokenOnchainID` is set as TokenInfoManager on the OwnerManager contract  Requires that msg.sender is an ACTION KEY on `_onchainID`",
        "params": {
          "_onchainID": "the onchainID contract of the caller, e.g. \"i call this function and i am Bob\""
        }
      },
      "callSetTokenSymbol(string,address)": {
        "details": "calls the `setSymbol` function on the token contract  OwnerManager has to be set as owner on the token smart contract to process this function  See {IToken-setSymbol}.  Requires that `_onchainID` is set as TokenInfoManager on the OwnerManager contract  Requires that msg.sender is an ACTION KEY on `_onchainID`",
        "params": {
          "_onchainID": "the _onchainID contract of the caller, e.g. \"i call this function and i am Bob\""
        }
      },
      "callSetTrustedIssuersRegistry(address,address)": {
        "details": "calls the `setTrustedIssuersRegistry` function on the Identity Registry contract  OwnerManager has to be set as owner on the Identity Registry smart contract to process this function  See {IIdentityRegistry-setTrustedIssuersRegistry}.  Requires that `_onchainID` is set as RegistryAddressSetter on the OwnerManager contract  Requires that msg.sender is an ACTION KEY on `_onchainID`",
        "params": {
          "_onchainID": "the _onchainID contract of the caller, e.g. \"i call this function and i am Bob\""
        }
      },
      "callTransferOwnershipOnClaimTopicsRegistryContract(address)": {
        "details": "calls the `transferOwnershipOnClaimTopicsRegistryContract` function on the Claim Topics Registry contract  OwnerManager has to be set as owner on the Claim Topics registry smart contract to process this function  See {IClaimTopicsRegistry-transferOwnershipOnClaimTopicsRegistryContract}.  Requires that msg.sender is an Admin of the OwnerManager contract"
      },
      "callTransferOwnershipOnComplianceContract(address)": {
        "details": "calls the `transferOwnershipOnComplianceContract` function on the Compliance contract  OwnerManager has to be set as owner on the Compliance smart contract to process this function  See {ICompliance-transferOwnershipOnComplianceContract}.  Requires that msg.sender is an Admin of the OwnerManager contract"
      },
      "callTransferOwnershipOnIdentityRegistryContract(address)": {
        "details": "calls the `transferOwnershipOnIdentityRegistryContract` function on the Identity Registry contract  OwnerManager has to be set as owner on the Identity Registry smart contract to process this function  See {IIdentityRegistry-transferOwnershipOnIdentityRegistryContract}.  Requires that msg.sender is an Admin of the OwnerManager contract"
      },
      "callTransferOwnershipOnIssuersRegistryContract(address)": {
        "details": "calls the `transferOwnershipOnIssuersRegistryContract` function on the Trusted Issuers Registry contract  OwnerManager has to be set as owner on the Trusted Issuers registry smart contract to process this function  See {ITrustedIssuersRegistry-transferOwnershipOnIssuersRegistryContract}.  Requires that msg.sender is an Admin of the OwnerManager contract"
      },
      "callTransferOwnershipOnTokenContract(address)": {
        "details": "calls the `transferOwnershipOnTokenContract` function on the token contract  OwnerManager has to be set as owner on the token smart contract to process this function  See {IToken-transferOwnershipOnTokenContract}.  Requires that msg.sender is an Admin of the OwnerManager contract"
      },
      "callUpdateIssuerClaimTopics(address,uint256[],address)": {
        "details": "calls the `updateIssuerClaimTopics` function on the Trusted Issuers Registry contract  OwnerManager has to be set as owner on the Trusted Issuers Registry smart contract to process this function  See {ITrustedIssuersRegistry-updateIssuerClaimTopics}.  Requires that `_onchainID` is set as IssuersRegistryManager on the OwnerManager contract  Requires that msg.sender is an ACTION KEY on `_onchainID`",
        "params": {
          "_onchainID": "the _onchainID contract of the caller, e.g. \"i call this function and i am Bob\""
        }
      },
      "constructor": {
        "details": "the constructor initiates the OwnerManager contract  and sets msg.sender as owner of the contract",
        "params": {
          "_token": "the token managed by this OwnerManager contract"
        }
      },
      "isClaimRegistryManager(address)": {
        "details": "ClaimRegistryManager Role _claimRegistryManager"
      },
      "isComplianceManager(address)": {
        "details": "ComplianceManager Role _complianceManager"
      },
      "isComplianceSetter(address)": {
        "details": "ComplianceSetter Role _complianceSetter"
      },
      "isIssuersRegistryManager(address)": {
        "details": "IssuersRegistryManager Role _issuersRegistryManager"
      },
      "isOwnerAdmin(address)": {
        "details": "OwnerAdmin Role _ownerAdmin"
      },
      "isRegistryAddressSetter(address)": {
        "details": "RegistryAddressSetter Role _registryAddressSetter"
      },
      "isTokenInfoManager(address)": {
        "details": "TokenInfoManager Role _tokenInfoManager"
      },
      "owner()": {
        "details": "Returns the address of the current owner."
      },
      "renounceOwnership()": {
        "details": "Leaves the contract without owner. It will not be possible to call `onlyOwner` functions anymore. Can only be called by the current owner. NOTE: Renouncing ownership will leave the contract without an owner, thereby removing any functionality that is only available to the owner."
      },
      "transferOwnership(address)": {
        "details": "Transfers ownership of the contract to a new account (`newOwner`). Can only be called by the current owner."
      }
    },
    "stateVariables": {
      "token": {
        "details": "the token that is managed by this OwnerManager Contract"
      }
    },
    "version": 1
  },
  "userdoc": {
    "kind": "user",
    "methods": {},
    "version": 1
  }
}