{
  "contractName": "OwnerRolesUpgradeable",
  "abi": [
    {
      "anonymous": false,
      "inputs": [
        {
          "indexed": true,
          "internalType": "address",
          "name": "previousOwner",
          "type": "address"
        },
        {
          "indexed": true,
          "internalType": "address",
          "name": "newOwner",
          "type": "address"
        }
      ],
      "name": "OwnershipTransferred",
      "type": "event"
    },
    {
      "anonymous": false,
      "inputs": [
        {
          "indexed": true,
          "internalType": "address",
          "name": "_owner",
          "type": "address"
        },
        {
          "indexed": false,
          "internalType": "string",
          "name": "_role",
          "type": "string"
        }
      ],
      "name": "RoleAdded",
      "type": "event"
    },
    {
      "anonymous": false,
      "inputs": [
        {
          "indexed": true,
          "internalType": "address",
          "name": "_owner",
          "type": "address"
        },
        {
          "indexed": false,
          "internalType": "string",
          "name": "_role",
          "type": "string"
        }
      ],
      "name": "RoleRemoved",
      "type": "event"
    },
    {
      "inputs": [],
      "name": "owner",
      "outputs": [
        {
          "internalType": "address",
          "name": "",
          "type": "address"
        }
      ],
      "stateMutability": "view",
      "type": "function"
    },
    {
      "inputs": [],
      "name": "renounceOwnership",
      "outputs": [],
      "stateMutability": "nonpayable",
      "type": "function"
    },
    {
      "inputs": [
        {
          "internalType": "address",
          "name": "newOwner",
          "type": "address"
        }
      ],
      "name": "transferOwnership",
      "outputs": [],
      "stateMutability": "nonpayable",
      "type": "function"
    },
    {
      "inputs": [
        {
          "internalType": "address",
          "name": "_owner",
          "type": "address"
        }
      ],
      "name": "isOwnerAdmin",
      "outputs": [
        {
          "internalType": "bool",
          "name": "",
          "type": "bool"
        }
      ],
      "stateMutability": "view",
      "type": "function"
    },
    {
      "inputs": [
        {
          "internalType": "address",
          "name": "_owner",
          "type": "address"
        }
      ],
      "name": "addOwnerAdmin",
      "outputs": [],
      "stateMutability": "nonpayable",
      "type": "function"
    },
    {
      "inputs": [
        {
          "internalType": "address",
          "name": "_owner",
          "type": "address"
        }
      ],
      "name": "removeOwnerAdmin",
      "outputs": [],
      "stateMutability": "nonpayable",
      "type": "function"
    },
    {
      "inputs": [
        {
          "internalType": "address",
          "name": "_owner",
          "type": "address"
        }
      ],
      "name": "isRegistryAddressSetter",
      "outputs": [
        {
          "internalType": "bool",
          "name": "",
          "type": "bool"
        }
      ],
      "stateMutability": "view",
      "type": "function"
    },
    {
      "inputs": [
        {
          "internalType": "address",
          "name": "_owner",
          "type": "address"
        }
      ],
      "name": "addRegistryAddressSetter",
      "outputs": [],
      "stateMutability": "nonpayable",
      "type": "function"
    },
    {
      "inputs": [
        {
          "internalType": "address",
          "name": "_owner",
          "type": "address"
        }
      ],
      "name": "removeRegistryAddressSetter",
      "outputs": [],
      "stateMutability": "nonpayable",
      "type": "function"
    },
    {
      "inputs": [
        {
          "internalType": "address",
          "name": "_owner",
          "type": "address"
        }
      ],
      "name": "isComplianceSetter",
      "outputs": [
        {
          "internalType": "bool",
          "name": "",
          "type": "bool"
        }
      ],
      "stateMutability": "view",
      "type": "function"
    },
    {
      "inputs": [
        {
          "internalType": "address",
          "name": "_owner",
          "type": "address"
        }
      ],
      "name": "addComplianceSetter",
      "outputs": [],
      "stateMutability": "nonpayable",
      "type": "function"
    },
    {
      "inputs": [
        {
          "internalType": "address",
          "name": "_owner",
          "type": "address"
        }
      ],
      "name": "removeComplianceSetter",
      "outputs": [],
      "stateMutability": "nonpayable",
      "type": "function"
    },
    {
      "inputs": [
        {
          "internalType": "address",
          "name": "_owner",
          "type": "address"
        }
      ],
      "name": "isClaimRegistryManager",
      "outputs": [
        {
          "internalType": "bool",
          "name": "",
          "type": "bool"
        }
      ],
      "stateMutability": "view",
      "type": "function"
    },
    {
      "inputs": [
        {
          "internalType": "address",
          "name": "_owner",
          "type": "address"
        }
      ],
      "name": "addClaimRegistryManager",
      "outputs": [],
      "stateMutability": "nonpayable",
      "type": "function"
    },
    {
      "inputs": [
        {
          "internalType": "address",
          "name": "_owner",
          "type": "address"
        }
      ],
      "name": "removeClaimRegistryManager",
      "outputs": [],
      "stateMutability": "nonpayable",
      "type": "function"
    },
    {
      "inputs": [
        {
          "internalType": "address",
          "name": "_owner",
          "type": "address"
        }
      ],
      "name": "isIssuersRegistryManager",
      "outputs": [
        {
          "internalType": "bool",
          "name": "",
          "type": "bool"
        }
      ],
      "stateMutability": "view",
      "type": "function"
    },
    {
      "inputs": [
        {
          "internalType": "address",
          "name": "_owner",
          "type": "address"
        }
      ],
      "name": "addIssuersRegistryManager",
      "outputs": [],
      "stateMutability": "nonpayable",
      "type": "function"
    },
    {
      "inputs": [
        {
          "internalType": "address",
          "name": "_owner",
          "type": "address"
        }
      ],
      "name": "removeIssuersRegistryManager",
      "outputs": [],
      "stateMutability": "nonpayable",
      "type": "function"
    },
    {
      "inputs": [
        {
          "internalType": "address",
          "name": "_owner",
          "type": "address"
        }
      ],
      "name": "isTokenInfoManager",
      "outputs": [
        {
          "internalType": "bool",
          "name": "",
          "type": "bool"
        }
      ],
      "stateMutability": "view",
      "type": "function"
    },
    {
      "inputs": [
        {
          "internalType": "address",
          "name": "_owner",
          "type": "address"
        }
      ],
      "name": "addTokenInfoManager",
      "outputs": [],
      "stateMutability": "nonpayable",
      "type": "function"
    },
    {
      "inputs": [
        {
          "internalType": "address",
          "name": "_owner",
          "type": "address"
        }
      ],
      "name": "removeTokenInfoManager",
      "outputs": [],
      "stateMutability": "nonpayable",
      "type": "function"
    }
  ],
  "bytecode": "0x608060405234801561001057600080fd5b50610f58806100206000396000f3fe608060405234801561001057600080fd5b50600436106101375760003560e01c8063882fc6ca116100b8578063ae5aaa3b1161007c578063ae5aaa3b1461026d578063ce4bdac714610280578063e110255b14610293578063f2fde38b146102a6578063faed696a146102b9578063ff806311146102cc57600080fd5b8063882fc6ca146102065780638da5cb5b14610219578063934b2da41461023457806394e69f1b14610247578063ac95fc911461025a57600080fd5b806354b9797f116100ff57806354b9797f146101b257806362cdd482146101c55780636ff7bff7146101d8578063715018a6146101eb57806382870937146101f357600080fd5b8063039ec2cd1461013c5780632447e50b146101515780633ba7c75e146101795780633c734ce81461018c578063405225541461019f575b600080fd5b61014f61014a366004610e26565b6102df565b005b61016461015f366004610e26565b61039a565b60405190151581526020015b60405180910390f35b610164610187366004610e26565b6103ad565b61016461019a366004610e26565b6103ba565b61014f6101ad366004610e26565b6103c7565b61014f6101c0366004610e26565b610468565b6101646101d3366004610e26565b610503565b61014f6101e6366004610e26565b610510565b61014f6105b7565b610164610201366004610e26565b61065b565b61014f610214366004610e26565b610668565b6033546040516001600160a01b039091168152602001610170565b61014f610242366004610e26565b610709565b61014f610255366004610e26565b6107a4565b61014f610268366004610e26565b610845565b61014f61027b366004610e26565b6108ec565b61014f61028e366004610e26565b610992565b61014f6102a1366004610e26565b610a33565b61014f6102b4366004610e26565b610ad8565b61014f6102c7366004610e26565b610bf3565b6101646102da366004610e26565b610c98565b336102f26033546001600160a01b031690565b6001600160a01b0316148061030b575061030b33610503565b6103305760405162461bcd60e51b815260040161032790610e56565b60405180910390fd5b61033b606682610ca5565b60408051808201825260158152742932b3b4b9ba393ca0b2323932b9b9a9b2ba3a32b960591b602082015290516001600160a01b03831690600080516020610ee38339815191529061038e908490610e8d565b60405180910390a25050565b60006103a7606a83610d27565b92915050565b60006103a7606783610d27565b60006103a7606883610d27565b336103da6033546001600160a01b031690565b6001600160a01b031614806103f357506103f333610503565b61040f5760405162461bcd60e51b815260040161032790610e56565b61041a606782610ca5565b604080518082018252601081526f21b7b6b83634b0b731b2a9b2ba3a32b960811b602082015290516001600160a01b03831690600080516020610ee38339815191529061038e908490610e8d565b3361047b6033546001600160a01b031690565b6001600160a01b03161480610494575061049433610503565b6104b05760405162461bcd60e51b815260040161032790610e56565b6104bb606582610ca5565b604080518082018252600a81526927bbb732b920b236b4b760b11b602082015290516001600160a01b03831690600080516020610ee38339815191529061038e908490610e8d565b60006103a7606583610d27565b336105236033546001600160a01b031690565b6001600160a01b0316148061053c575061053c33610503565b6105585760405162461bcd60e51b815260040161032790610e56565b610563606982610ca5565b604080518082018252601681527524b9b9bab2b939a932b3b4b9ba393ca6b0b730b3b2b960511b602082015290516001600160a01b03831690600080516020610ee38339815191529061038e908490610e8d565b6033546001600160a01b031633146106115760405162461bcd60e51b815260206004820181905260248201527f4f776e61626c653a2063616c6c6572206973206e6f7420746865206f776e65726044820152606401610327565b6033546040516000916001600160a01b0316907f8be0079c531659141344cd1fd0a4f28419497f9722a3daafe3b4186f6b6457e0908390a3603380546001600160a01b0319169055565b60006103a7606683610d27565b3361067b6033546001600160a01b031690565b6001600160a01b03161480610694575061069433610503565b6106b05760405162461bcd60e51b815260040161032790610e56565b6106bb606a82610ca5565b604080518082018252601081526f2a37b5b2b724b73337a6b0b730b3b2b960811b602082015290516001600160a01b03831690600080516020610ee38339815191529061038e908490610e8d565b3361071c6033546001600160a01b031690565b6001600160a01b03161480610735575061073533610503565b6107515760405162461bcd60e51b815260040161032790610e56565b61075c606582610daa565b604080518082018252600a81526927bbb732b920b236b4b760b11b602082015290516001600160a01b03831690600080516020610f038339815191529061038e908490610e8d565b336107b76033546001600160a01b031690565b6001600160a01b031614806107d057506107d033610503565b6107ec5760405162461bcd60e51b815260040161032790610e56565b6107f7606a82610daa565b604080518082018252601081526f2a37b5b2b724b73337a6b0b730b3b2b960811b602082015290516001600160a01b03831690600080516020610f038339815191529061038e908490610e8d565b336108586033546001600160a01b031690565b6001600160a01b03161480610871575061087133610503565b61088d5760405162461bcd60e51b815260040161032790610e56565b610898606982610daa565b604080518082018252601681527524b9b9bab2b939a932b3b4b9ba393ca6b0b730b3b2b960511b602082015290516001600160a01b03831690600080516020610f038339815191529061038e908490610e8d565b336108ff6033546001600160a01b031690565b6001600160a01b03161480610918575061091833610503565b6109345760405162461bcd60e51b815260040161032790610e56565b61093f606682610daa565b60408051808201825260158152742932b3b4b9ba393ca0b2323932b9b9a9b2ba3a32b960591b602082015290516001600160a01b03831690600080516020610f038339815191529061038e908490610e8d565b336109a56033546001600160a01b031690565b6001600160a01b031614806109be57506109be33610503565b6109da5760405162461bcd60e51b815260040161032790610e56565b6109e5606782610daa565b604080518082018252601081526f21b7b6b83634b0b731b2a9b2ba3a32b960811b602082015290516001600160a01b03831690600080516020610f038339815191529061038e908490610e8d565b33610a466033546001600160a01b031690565b6001600160a01b03161480610a5f5750610a5f33610503565b610a7b5760405162461bcd60e51b815260040161032790610e56565b610a86606882610ca5565b604080518082018252601481527321b630b4b6a932b3b4b9ba393ca6b0b730b3b2b960611b602082015290516001600160a01b03831690600080516020610ee38339815191529061038e908490610e8d565b6033546001600160a01b03163314610b325760405162461bcd60e51b815260206004820181905260248201527f4f776e61626c653a2063616c6c6572206973206e6f7420746865206f776e65726044820152606401610327565b6001600160a01b038116610b975760405162461bcd60e51b815260206004820152602660248201527f4f776e61626c653a206e6577206f776e657220697320746865207a65726f206160448201526564647265737360d01b6064820152608401610327565b6033546040516001600160a01b038084169216907f8be0079c531659141344cd1fd0a4f28419497f9722a3daafe3b4186f6b6457e090600090a3603380546001600160a01b0319166001600160a01b0392909216919091179055565b33610c066033546001600160a01b031690565b6001600160a01b03161480610c1f5750610c1f33610503565b610c3b5760405162461bcd60e51b815260040161032790610e56565b610c46606882610daa565b604080518082018252601481527321b630b4b6a932b3b4b9ba393ca6b0b730b3b2b960611b602082015290516001600160a01b03831690600080516020610f038339815191529061038e908490610e8d565b60006103a7606983610d27565b610caf8282610d27565b610d055760405162461bcd60e51b815260206004820152602160248201527f526f6c65733a206163636f756e7420646f6573206e6f74206861766520726f6c6044820152606560f81b6064820152608401610327565b6001600160a01b0316600090815260209190915260409020805460ff19169055565b60006001600160a01b038216610d8a5760405162461bcd60e51b815260206004820152602260248201527f526f6c65733a206163636f756e7420697320746865207a65726f206164647265604482015261737360f01b6064820152608401610327565b506001600160a01b03166000908152602091909152604090205460ff1690565b610db48282610d27565b15610e015760405162461bcd60e51b815260206004820152601f60248201527f526f6c65733a206163636f756e7420616c72656164792068617320726f6c65006044820152606401610327565b6001600160a01b0316600090815260209190915260409020805460ff19166001179055565b600060208284031215610e3857600080fd5b81356001600160a01b0381168114610e4f57600080fd5b9392505050565b60208082526019908201527f526f6c653a2053656e646572206973204e4f542041646d696e00000000000000604082015260600190565b600060208083528351808285015260005b81811015610eba57858101830151858201604001528201610e9e565b81811115610ecc576000604083870101525b50601f01601f191692909201604001939250505056fed211483f91fc6eff862467f8de606587a30c8fc9981056f051b897a418df803abfec83d64eaa953f2708271a023ab9ee82057f8f3578d548c1a4ba0b5b700489a2646970667358221220234f8a871b9892e2d45687ca17c382d2f7ee989345459050462bb030ea55856664736f6c634300080f0033",
  "immutableReferences": {},
  "source": "// SPDX-License-Identifier: GPL-3.0\n/**\n *     NOTICE\n *\n *     The T-REX software is licensed under a proprietary license or the GPL v.3.\n *     If you choose to receive it under the GPL v.3 license, the following applies:\n *     T-REX is a suite of smart contracts developed by Tokeny to manage and transfer financial assets on the ethereum blockchain\n *\n *     Copyright (C) 2021, Tokeny srl.\n *\n *     This program is free software: you can redistribute it and/or modify\n *     it under the terms of the GNU General Public License as published by\n *     the Free Software Foundation, either version 3 of the License, or\n *     (at your option) any later version.\n *\n *     This program is distributed in the hope that it will be useful,\n *     but WITHOUT ANY WARRANTY; without even the implied warranty of\n *     MERCHANTABILITY or FITNESS FOR A PARTICULAR PURPOSE.  See the\n *     GNU General Public License for more details.\n *\n *     You should have received a copy of the GNU General Public License\n *     along with this program.  If not, see <https://www.gnu.org/licenses/>.\n */\n\npragma solidity ^0.8.0;\n\nimport '@openzeppelin/contracts-upgradeable/access/OwnableUpgradeable.sol';\n\nimport './Roles.sol';\n\ncontract OwnerRolesUpgradeable is OwnableUpgradeable\n\n {\n    using Roles for Roles.Role;\n\n    event RoleAdded(address indexed _owner, string _role);\n    event RoleRemoved(address indexed _owner, string _role);\n\n    Roles.Role private _ownerAdmin;\n    Roles.Role private _registryAddressSetter;\n    Roles.Role private _complianceSetter;\n    Roles.Role private _claimRegistryManager;\n    Roles.Role private _issuersRegistryManager;\n    Roles.Role private _tokenInfoManager;\n\n    modifier onlyAdmin() {\n        require(owner() == msg.sender || isOwnerAdmin(_msgSender()), 'Role: Sender is NOT Admin');\n        _;\n    }\n\n    /// @dev OwnerAdmin Role _ownerAdmin\n\n    function isOwnerAdmin(address _owner) public view returns (bool) {\n        return _ownerAdmin.has(_owner);\n    }\n\n    function addOwnerAdmin(address _owner) external onlyAdmin {\n        _ownerAdmin.add(_owner);\n        string memory _role = 'OwnerAdmin';\n        emit RoleAdded(_owner, _role);\n    }\n\n    function removeOwnerAdmin(address _owner) external onlyAdmin {\n        _ownerAdmin.remove(_owner);\n        string memory _role = 'OwnerAdmin';\n        emit RoleRemoved(_owner, _role);\n    }\n\n    /// @dev RegistryAddressSetter Role _registryAddressSetter\n\n    function isRegistryAddressSetter(address _owner) public view returns (bool) {\n        return _registryAddressSetter.has(_owner);\n    }\n\n    function addRegistryAddressSetter(address _owner) external onlyAdmin {\n        _registryAddressSetter.add(_owner);\n        string memory _role = 'RegistryAddressSetter';\n        emit RoleAdded(_owner, _role);\n    }\n\n    function removeRegistryAddressSetter(address _owner) external onlyAdmin {\n        _registryAddressSetter.remove(_owner);\n        string memory _role = 'RegistryAddressSetter';\n        emit RoleRemoved(_owner, _role);\n    }\n\n    /// @dev ComplianceSetter Role _complianceSetter\n\n    function isComplianceSetter(address _owner) public view returns (bool) {\n        return _complianceSetter.has(_owner);\n    }\n\n    function addComplianceSetter(address _owner) external onlyAdmin {\n        _complianceSetter.add(_owner);\n        string memory _role = 'ComplianceSetter';\n        emit RoleAdded(_owner, _role);\n    }\n\n    function removeComplianceSetter(address _owner) external onlyAdmin {\n        _complianceSetter.remove(_owner);\n        string memory _role = 'ComplianceSetter';\n        emit RoleRemoved(_owner, _role);\n    }\n\n    /// @dev ClaimRegistryManager Role _claimRegistryManager\n\n    function isClaimRegistryManager(address _owner) public view returns (bool) {\n        return _claimRegistryManager.has(_owner);\n    }\n\n    function addClaimRegistryManager(address _owner) external onlyAdmin {\n        _claimRegistryManager.add(_owner);\n        string memory _role = 'ClaimRegistryManager';\n        emit RoleAdded(_owner, _role);\n    }\n\n    function removeClaimRegistryManager(address _owner) external onlyAdmin {\n        _claimRegistryManager.remove(_owner);\n        string memory _role = 'ClaimRegistryManager';\n        emit RoleRemoved(_owner, _role);\n    }\n\n    /// @dev IssuersRegistryManager Role _issuersRegistryManager\n\n    function isIssuersRegistryManager(address _owner) public view returns (bool) {\n        return _issuersRegistryManager.has(_owner);\n    }\n\n    function addIssuersRegistryManager(address _owner) external onlyAdmin {\n        _issuersRegistryManager.add(_owner);\n        string memory _role = 'IssuersRegistryManager';\n        emit RoleAdded(_owner, _role);\n    }\n\n    function removeIssuersRegistryManager(address _owner) external onlyAdmin {\n        _issuersRegistryManager.remove(_owner);\n        string memory _role = 'IssuersRegistryManager';\n        emit RoleRemoved(_owner, _role);\n    }\n\n    /// @dev TokenInfoManager Role _tokenInfoManager\n\n    function isTokenInfoManager(address _owner) public view returns (bool) {\n        return _tokenInfoManager.has(_owner);\n    }\n\n    function addTokenInfoManager(address _owner) external onlyAdmin {\n        _tokenInfoManager.add(_owner);\n        string memory _role = 'TokenInfoManager';\n        emit RoleAdded(_owner, _role);\n    }\n\n    function removeTokenInfoManager(address _owner) external onlyAdmin {\n        _tokenInfoManager.remove(_owner);\n        string memory _role = 'TokenInfoManager';\n        emit RoleRemoved(_owner, _role);\n    }\n}\n",
  "sourcePath": "/home/mayank/Desktop/security-token-5/Prototype--Craye-Realstate/T-REX/contracts/roles/OwnerRolesUpgradeable.sol",
  "compiler": {
    "name": "solc",
    "version": "0.8.15+commit.e14f2714.Emscripten.clang"
  },
  "schemaVersion": "3.4.6",
  "updatedAt": "2022-08-03T10:43:51.508Z",
  "devdoc": {
    "kind": "dev",
    "methods": {
      "isClaimRegistryManager(address)": {
        "details": "ClaimRegistryManager Role _claimRegistryManager"
      },
      "isComplianceSetter(address)": {
        "details": "ComplianceSetter Role _complianceSetter"
      },
      "isIssuersRegistryManager(address)": {
        "details": "IssuersRegistryManager Role _issuersRegistryManager"
      },
      "isOwnerAdmin(address)": {
        "details": "OwnerAdmin Role _ownerAdmin"
      },
      "isRegistryAddressSetter(address)": {
        "details": "RegistryAddressSetter Role _registryAddressSetter"
      },
      "isTokenInfoManager(address)": {
        "details": "TokenInfoManager Role _tokenInfoManager"
      },
      "owner()": {
        "details": "Returns the address of the current owner."
      },
      "renounceOwnership()": {
        "details": "Leaves the contract without owner. It will not be possible to call `onlyOwner` functions anymore. Can only be called by the current owner. NOTE: Renouncing ownership will leave the contract without an owner, thereby removing any functionality that is only available to the owner."
      },
      "transferOwnership(address)": {
        "details": "Transfers ownership of the contract to a new account (`newOwner`). Can only be called by the current owner."
      }
    },
    "version": 1
  },
  "userdoc": {
    "kind": "user",
    "methods": {},
    "version": 1
  }
}