{
  "contractName": "TokenProxy",
  "abi": [
    {
      "inputs": [
        {
          "internalType": "address",
          "name": "_implementationAuthority",
          "type": "address"
        },
        {
          "internalType": "address",
          "name": "_identityRegistry",
          "type": "address"
        },
        {
          "internalType": "address",
          "name": "_compliance",
          "type": "address"
        },
        {
          "internalType": "string",
          "name": "_name",
          "type": "string"
        },
        {
          "internalType": "string",
          "name": "_symbol",
          "type": "string"
        },
        {
          "internalType": "uint8",
          "name": "_decimals",
          "type": "uint8"
        },
        {
          "internalType": "address",
          "name": "_onchainID",
          "type": "address"
        }
      ],
      "stateMutability": "nonpayable",
      "type": "constructor"
    },
    {
      "stateMutability": "payable",
      "type": "fallback"
    },
    {
      "inputs": [],
      "name": "implementationAuthority",
      "outputs": [
        {
          "internalType": "address",
          "name": "",
          "type": "address"
        }
      ],
      "stateMutability": "view",
      "type": "function"
    }
  ],
  "bytecode": "0x608060405234801561001057600080fd5b5060405161058b38038061058b83398101604081905261002f91610295565b600080546001600160a01b0319166001600160a01b03891690811782556040805163557887a160e11b8152905163aaf10f42916004808201926020929091908290030181865afa158015610087573d6000803e3d6000fd5b505050506040513d601f19601f820116820180604052508101906100ab9190610354565b90506000816001600160a01b03168888888888886040516024016100d4969594939291906103a2565b60408051601f198184030181529181526020820180516001600160e01b0316633e46d86760e21b1790525161010991906103fd565b600060405180830381855af49150503d8060008114610144576040519150601f19603f3d011682016040523d82523d6000602084013e610149565b606091505b505090508061019e5760405162461bcd60e51b815260206004820152601660248201527f496e697469616c697a6174696f6e206661696c65642e00000000000000000000604482015260640160405180910390fd5b505050505050505050610419565b80516001600160a01b03811681146101c357600080fd5b919050565b634e487b7160e01b600052604160045260246000fd5b60005b838110156101f95781810151838201526020016101e1565b83811115610208576000848401525b50505050565b600082601f83011261021f57600080fd5b81516001600160401b0380821115610239576102396101c8565b604051601f8301601f19908116603f01168101908282118183101715610261576102616101c8565b8160405283815286602085880101111561027a57600080fd5b61028b8460208301602089016101de565b9695505050505050565b600080600080600080600060e0888a0312156102b057600080fd5b6102b9886101ac565b96506102c7602089016101ac565b95506102d5604089016101ac565b60608901519095506001600160401b03808211156102f257600080fd5b6102fe8b838c0161020e565b955060808a015191508082111561031457600080fd5b506103218a828b0161020e565b93505060a088015160ff8116811461033857600080fd5b915061034660c089016101ac565b905092959891949750929550565b60006020828403121561036657600080fd5b61036f826101ac565b9392505050565b6000815180845261038e8160208601602086016101de565b601f01601f19169290920160200192915050565b600060018060a01b038089168352808816602084015260c060408401526103cc60c0840188610376565b83810360608501526103de8188610376565b60ff969096166080850152509290921660a09091015250949350505050565b6000825161040f8184602087016101de565b9190910192915050565b610163806104286000396000f3fe60806040526004361061001e5760003560e01c80632307f882146100c1575b60008060009054906101000a90046001600160a01b03166001600160a01b031663aaf10f426040518163ffffffff1660e01b8152600401602060405180830381865afa158015610072573d6000803e3d6000fd5b505050506040513d601f19601f8201168201806040525081019061009691906100fd565b90503660008037600080366000846127105a03f43d806000803e8180156100bc57816000f35b816000fd5b3480156100cd57600080fd5b506000546100e1906001600160a01b031681565b6040516001600160a01b03909116815260200160405180910390f35b60006020828403121561010f57600080fd5b81516001600160a01b038116811461012657600080fd5b939250505056fea26469706673582212201fcf487a23911be535901314819d2ab5814c6c9d20be597a718980229167a98c64736f6c634300080f0033",
  "immutableReferences": {},
  "source": "// SPDX-License-Identifier: GPL-3.0\n/**\n *     NOTICE\n *\n *     The T-REX software is licensed under a proprietary license or the GPL v.3.\n *     If you choose to receive it under the GPL v.3 license, the following applies:\n *     T-REX is a suite of smart contracts developed by Tokeny to manage and transfer financial assets on the ethereum blockchain\n *\n *     Copyright (C) 2021, Tokeny srl.\n *\n *     This program is free software: you can redistribute it and/or modify\n *     it under the terms of the GNU General Public License as published by\n *     the Free Software Foundation, either version 3 of the License, or\n *     (at your option) any later version.\n *\n *     This program is distributed in the hope that it will be useful,\n *     but WITHOUT ANY WARRANTY; without even the implied warranty of\n *     MERCHANTABILITY or FITNESS FOR A PARTICULAR PURPOSE.  See the\n *     GNU General Public License for more details.\n *\n *     You should have received a copy of the GNU General Public License\n *     along with this program.  If not, see <https://www.gnu.org/licenses/>.\n */\n\npragma solidity ^0.8.0;\n\ninterface IImplementationAuthority {\n    function getImplementation() external view returns (address);\n}\n\ncontract TokenProxy {\n    address public implementationAuthority;\n\n    constructor(\n        address _implementationAuthority,\n        address _identityRegistry,\n        address _compliance,\n        string memory _name,\n        string memory _symbol,\n        uint8 _decimals,\n        address _onchainID\n    ) {\n        implementationAuthority = _implementationAuthority;\n\n        address logic = IImplementationAuthority(implementationAuthority).getImplementation();\n\n        // solhint-disable-next-line avoid-low-level-calls\n        (bool success, ) =\n            logic.delegatecall(\n                abi.encodeWithSignature(\n                    'init(address,address,string,string,uint8,address)',\n                    _identityRegistry,\n                    _compliance,\n                    _name,\n                    _symbol,\n                    _decimals,\n                    _onchainID\n                )\n            );\n        require(success, 'Initialization failed.');\n    }\n\n    fallback() external payable {\n        address logic = IImplementationAuthority(implementationAuthority).getImplementation();\n\n        assembly {\n            // solium-disable-line\n            calldatacopy(0x0, 0x0, calldatasize())\n            let success := delegatecall(sub(gas(), 10000), logic, 0x0, calldatasize(), 0, 0)\n            let retSz := returndatasize()\n            returndatacopy(0, 0, retSz)\n            switch success\n                case 0 {\n                    revert(0, retSz)\n                }\n                default {\n                    return(0, retSz)\n                }\n        }\n    }\n}\n",
  "sourcePath": "/home/mayank/Desktop/security-token-5/Prototype--Craye-Realstate/T-REX/contracts/proxy/TokenProxy.sol",
  "compiler": {
    "name": "solc",
    "version": "0.8.15+commit.e14f2714.Emscripten.clang"
  },
  "schemaVersion": "3.4.6",
  "updatedAt": "2022-08-03T10:43:51.324Z",
  "devdoc": {
    "kind": "dev",
    "methods": {},
    "version": 1
  },
  "userdoc": {
    "kind": "user",
    "methods": {},
    "version": 1
  }
}