{
  "contractName": "Token",
  "abi": [
    {
      "inputs": [
        {
          "internalType": "string",
          "name": "name",
          "type": "string"
        }
      ],
      "stateMutability": "nonpayable",
      "type": "constructor"
    },
    {
      "anonymous": false,
      "inputs": [
        {
          "indexed": true,
          "internalType": "address",
          "name": "_userAddress",
          "type": "address"
        },
        {
          "indexed": true,
          "internalType": "bool",
          "name": "_isFrozen",
          "type": "bool"
        },
        {
          "indexed": true,
          "internalType": "address",
          "name": "_owner",
          "type": "address"
        }
      ],
      "name": "AddressFrozen",
      "type": "event"
    },
    {
      "anonymous": false,
      "inputs": [
        {
          "indexed": true,
          "internalType": "address",
          "name": "_agent",
          "type": "address"
        }
      ],
      "name": "AgentAdded",
      "type": "event"
    },
    {
      "anonymous": false,
      "inputs": [
        {
          "indexed": true,
          "internalType": "address",
          "name": "_agent",
          "type": "address"
        }
      ],
      "name": "AgentRemoved",
      "type": "event"
    },
    {
      "anonymous": false,
      "inputs": [
        {
          "indexed": true,
          "internalType": "address",
          "name": "owner",
          "type": "address"
        },
        {
          "indexed": true,
          "internalType": "address",
          "name": "spender",
          "type": "address"
        },
        {
          "indexed": false,
          "internalType": "uint256",
          "name": "value",
          "type": "uint256"
        }
      ],
      "name": "Approval",
      "type": "event"
    },
    {
      "anonymous": false,
      "inputs": [
        {
          "indexed": true,
          "internalType": "address",
          "name": "_compliance",
          "type": "address"
        }
      ],
      "name": "ComplianceAdded",
      "type": "event"
    },
    {
      "anonymous": false,
      "inputs": [
        {
          "indexed": true,
          "internalType": "address",
          "name": "delegator",
          "type": "address"
        },
        {
          "indexed": true,
          "internalType": "address",
          "name": "fromDelegate",
          "type": "address"
        },
        {
          "indexed": true,
          "internalType": "address",
          "name": "toDelegate",
          "type": "address"
        }
      ],
      "name": "DelegateChanged",
      "type": "event"
    },
    {
      "anonymous": false,
      "inputs": [
        {
          "indexed": true,
          "internalType": "address",
          "name": "delegate",
          "type": "address"
        },
        {
          "indexed": false,
          "internalType": "uint256",
          "name": "previousBalance",
          "type": "uint256"
        },
        {
          "indexed": false,
          "internalType": "uint256",
          "name": "newBalance",
          "type": "uint256"
        }
      ],
      "name": "DelegateVotesChanged",
      "type": "event"
    },
    {
      "anonymous": false,
      "inputs": [
        {
          "indexed": true,
          "internalType": "address",
          "name": "_identityRegistry",
          "type": "address"
        }
      ],
      "name": "IdentityRegistryAdded",
      "type": "event"
    },
    {
      "anonymous": false,
      "inputs": [
        {
          "indexed": true,
          "internalType": "address",
          "name": "previousOwner",
          "type": "address"
        },
        {
          "indexed": true,
          "internalType": "address",
          "name": "newOwner",
          "type": "address"
        }
      ],
      "name": "OwnershipTransferred",
      "type": "event"
    },
    {
      "anonymous": false,
      "inputs": [
        {
          "indexed": false,
          "internalType": "address",
          "name": "_userAddress",
          "type": "address"
        }
      ],
      "name": "Paused",
      "type": "event"
    },
    {
      "anonymous": false,
      "inputs": [
        {
          "indexed": false,
          "internalType": "address",
          "name": "_lostWallet",
          "type": "address"
        },
        {
          "indexed": false,
          "internalType": "address",
          "name": "_newWallet",
          "type": "address"
        },
        {
          "indexed": false,
          "internalType": "address",
          "name": "_investorOnchainID",
          "type": "address"
        }
      ],
      "name": "RecoverySuccess",
      "type": "event"
    },
    {
      "anonymous": false,
      "inputs": [
        {
          "indexed": true,
          "internalType": "address",
          "name": "_userAddress",
          "type": "address"
        },
        {
          "indexed": false,
          "internalType": "uint256",
          "name": "_amount",
          "type": "uint256"
        }
      ],
      "name": "TokensFrozen",
      "type": "event"
    },
    {
      "anonymous": false,
      "inputs": [
        {
          "indexed": true,
          "internalType": "address",
          "name": "_userAddress",
          "type": "address"
        },
        {
          "indexed": false,
          "internalType": "uint256",
          "name": "_amount",
          "type": "uint256"
        }
      ],
      "name": "TokensUnfrozen",
      "type": "event"
    },
    {
      "anonymous": false,
      "inputs": [
        {
          "indexed": true,
          "internalType": "address",
          "name": "from",
          "type": "address"
        },
        {
          "indexed": true,
          "internalType": "address",
          "name": "to",
          "type": "address"
        },
        {
          "indexed": false,
          "internalType": "uint256",
          "name": "value",
          "type": "uint256"
        }
      ],
      "name": "Transfer",
      "type": "event"
    },
    {
      "anonymous": false,
      "inputs": [
        {
          "indexed": false,
          "internalType": "address",
          "name": "_userAddress",
          "type": "address"
        }
      ],
      "name": "Unpaused",
      "type": "event"
    },
    {
      "anonymous": false,
      "inputs": [
        {
          "indexed": false,
          "internalType": "string",
          "name": "_newName",
          "type": "string"
        },
        {
          "indexed": false,
          "internalType": "string",
          "name": "_newSymbol",
          "type": "string"
        },
        {
          "indexed": false,
          "internalType": "uint8",
          "name": "_newDecimals",
          "type": "uint8"
        },
        {
          "indexed": false,
          "internalType": "string",
          "name": "_newVersion",
          "type": "string"
        },
        {
          "indexed": false,
          "internalType": "address",
          "name": "_newOnchainID",
          "type": "address"
        }
      ],
      "name": "UpdatedTokenInformation",
      "type": "event"
    },
    {
      "inputs": [
        {
          "internalType": "address",
          "name": "_agent",
          "type": "address"
        }
      ],
      "name": "addAgent",
      "outputs": [],
      "stateMutability": "nonpayable",
      "type": "function"
    },
    {
      "inputs": [
        {
          "internalType": "address",
          "name": "_agent",
          "type": "address"
        }
      ],
      "name": "isAgent",
      "outputs": [
        {
          "internalType": "bool",
          "name": "",
          "type": "bool"
        }
      ],
      "stateMutability": "view",
      "type": "function"
    },
    {
      "inputs": [],
      "name": "owner",
      "outputs": [
        {
          "internalType": "address",
          "name": "",
          "type": "address"
        }
      ],
      "stateMutability": "view",
      "type": "function"
    },
    {
      "inputs": [
        {
          "internalType": "address",
          "name": "_agent",
          "type": "address"
        }
      ],
      "name": "removeAgent",
      "outputs": [],
      "stateMutability": "nonpayable",
      "type": "function"
    },
    {
      "inputs": [],
      "name": "renounceOwnership",
      "outputs": [],
      "stateMutability": "nonpayable",
      "type": "function"
    },
    {
      "inputs": [
        {
          "internalType": "address",
          "name": "newOwner",
          "type": "address"
        }
      ],
      "name": "transferOwnership",
      "outputs": [],
      "stateMutability": "nonpayable",
      "type": "function"
    },
    {
      "inputs": [
        {
          "internalType": "address",
          "name": "_identityRegistry",
          "type": "address"
        },
        {
          "internalType": "address",
          "name": "_compliance",
          "type": "address"
        },
        {
          "internalType": "string",
          "name": "_name",
          "type": "string"
        },
        {
          "internalType": "string",
          "name": "_symbol",
          "type": "string"
        },
        {
          "internalType": "uint8",
          "name": "_decimals",
          "type": "uint8"
        },
        {
          "internalType": "address",
          "name": "_onchainID",
          "type": "address"
        }
      ],
      "name": "init",
      "outputs": [],
      "stateMutability": "nonpayable",
      "type": "function"
    },
    {
      "inputs": [],
      "name": "totalSupply",
      "outputs": [
        {
          "internalType": "uint256",
          "name": "",
          "type": "uint256"
        }
      ],
      "stateMutability": "view",
      "type": "function"
    },
    {
      "inputs": [
        {
          "internalType": "address",
          "name": "_userAddress",
          "type": "address"
        }
      ],
      "name": "balanceOf",
      "outputs": [
        {
          "internalType": "uint256",
          "name": "",
          "type": "uint256"
        }
      ],
      "stateMutability": "view",
      "type": "function"
    },
    {
      "inputs": [
        {
          "internalType": "address",
          "name": "_owner",
          "type": "address"
        },
        {
          "internalType": "address",
          "name": "_spender",
          "type": "address"
        }
      ],
      "name": "allowance",
      "outputs": [
        {
          "internalType": "uint256",
          "name": "",
          "type": "uint256"
        }
      ],
      "stateMutability": "view",
      "type": "function"
    },
    {
      "inputs": [
        {
          "internalType": "address",
          "name": "_spender",
          "type": "address"
        },
        {
          "internalType": "uint256",
          "name": "_amount",
          "type": "uint256"
        }
      ],
      "name": "approve",
      "outputs": [
        {
          "internalType": "bool",
          "name": "",
          "type": "bool"
        }
      ],
      "stateMutability": "nonpayable",
      "type": "function"
    },
    {
      "inputs": [
        {
          "internalType": "address",
          "name": "_spender",
          "type": "address"
        },
        {
          "internalType": "uint256",
          "name": "_addedValue",
          "type": "uint256"
        }
      ],
      "name": "increaseAllowance",
      "outputs": [
        {
          "internalType": "bool",
          "name": "",
          "type": "bool"
        }
      ],
      "stateMutability": "nonpayable",
      "type": "function"
    },
    {
      "inputs": [
        {
          "internalType": "address",
          "name": "_spender",
          "type": "address"
        },
        {
          "internalType": "uint256",
          "name": "_subtractedValue",
          "type": "uint256"
        }
      ],
      "name": "decreaseAllowance",
      "outputs": [
        {
          "internalType": "bool",
          "name": "",
          "type": "bool"
        }
      ],
      "stateMutability": "nonpayable",
      "type": "function"
    },
    {
      "inputs": [],
      "name": "decimals",
      "outputs": [
        {
          "internalType": "uint8",
          "name": "",
          "type": "uint8"
        }
      ],
      "stateMutability": "view",
      "type": "function"
    },
    {
      "inputs": [],
      "name": "name",
      "outputs": [
        {
          "internalType": "string",
          "name": "",
          "type": "string"
        }
      ],
      "stateMutability": "view",
      "type": "function"
    },
    {
      "inputs": [],
      "name": "onchainID",
      "outputs": [
        {
          "internalType": "address",
          "name": "",
          "type": "address"
        }
      ],
      "stateMutability": "view",
      "type": "function"
    },
    {
      "inputs": [],
      "name": "symbol",
      "outputs": [
        {
          "internalType": "string",
          "name": "",
          "type": "string"
        }
      ],
      "stateMutability": "view",
      "type": "function"
    },
    {
      "inputs": [],
      "name": "version",
      "outputs": [
        {
          "internalType": "string",
          "name": "",
          "type": "string"
        }
      ],
      "stateMutability": "view",
      "type": "function"
    },
    {
      "inputs": [
        {
          "internalType": "string",
          "name": "_name",
          "type": "string"
        }
      ],
      "name": "setName",
      "outputs": [],
      "stateMutability": "nonpayable",
      "type": "function"
    },
    {
      "inputs": [
        {
          "internalType": "string",
          "name": "_symbol",
          "type": "string"
        }
      ],
      "name": "setSymbol",
      "outputs": [],
      "stateMutability": "nonpayable",
      "type": "function"
    },
    {
      "inputs": [
        {
          "internalType": "address",
          "name": "_onchainID",
          "type": "address"
        }
      ],
      "name": "setOnchainID",
      "outputs": [],
      "stateMutability": "nonpayable",
      "type": "function"
    },
    {
      "inputs": [],
      "name": "paused",
      "outputs": [
        {
          "internalType": "bool",
          "name": "",
          "type": "bool"
        }
      ],
      "stateMutability": "view",
      "type": "function"
    },
    {
      "inputs": [
        {
          "internalType": "address",
          "name": "_userAddress",
          "type": "address"
        }
      ],
      "name": "isFrozen",
      "outputs": [
        {
          "internalType": "bool",
          "name": "",
          "type": "bool"
        }
      ],
      "stateMutability": "view",
      "type": "function"
    },
    {
      "inputs": [
        {
          "internalType": "address",
          "name": "_userAddress",
          "type": "address"
        }
      ],
      "name": "getFrozenTokens",
      "outputs": [
        {
          "internalType": "uint256",
          "name": "",
          "type": "uint256"
        }
      ],
      "stateMutability": "view",
      "type": "function"
    },
    {
      "inputs": [
        {
          "internalType": "address",
          "name": "_to",
          "type": "address"
        },
        {
          "internalType": "uint256",
          "name": "_amount",
          "type": "uint256"
        }
      ],
      "name": "transfer",
      "outputs": [
        {
          "internalType": "bool",
          "name": "",
          "type": "bool"
        }
      ],
      "stateMutability": "nonpayable",
      "type": "function"
    },
    {
      "inputs": [],
      "name": "pause",
      "outputs": [],
      "stateMutability": "nonpayable",
      "type": "function"
    },
    {
      "inputs": [],
      "name": "unpause",
      "outputs": [],
      "stateMutability": "nonpayable",
      "type": "function"
    },
    {
      "inputs": [],
      "name": "identityRegistry",
      "outputs": [
        {
          "internalType": "contract IIdentityRegistry",
          "name": "",
          "type": "address"
        }
      ],
      "stateMutability": "view",
      "type": "function"
    },
    {
      "inputs": [],
      "name": "compliance",
      "outputs": [
        {
          "internalType": "contract ICompliance",
          "name": "",
          "type": "address"
        }
      ],
      "stateMutability": "view",
      "type": "function"
    },
    {
      "inputs": [
        {
          "internalType": "address[]",
          "name": "_toList",
          "type": "address[]"
        },
        {
          "internalType": "uint256[]",
          "name": "_amounts",
          "type": "uint256[]"
        }
      ],
      "name": "batchTransfer",
      "outputs": [],
      "stateMutability": "nonpayable",
      "type": "function"
    },
    {
      "inputs": [
        {
          "internalType": "address",
          "name": "_from",
          "type": "address"
        },
        {
          "internalType": "address",
          "name": "_to",
          "type": "address"
        },
        {
          "internalType": "uint256",
          "name": "_amount",
          "type": "uint256"
        }
      ],
      "name": "transferFrom",
      "outputs": [
        {
          "internalType": "bool",
          "name": "",
          "type": "bool"
        }
      ],
      "stateMutability": "nonpayable",
      "type": "function"
    },
    {
      "inputs": [
        {
          "internalType": "address",
          "name": "_from",
          "type": "address"
        },
        {
          "internalType": "address",
          "name": "_to",
          "type": "address"
        },
        {
          "internalType": "uint256",
          "name": "_amount",
          "type": "uint256"
        }
      ],
      "name": "forcedTransfer",
      "outputs": [
        {
          "internalType": "bool",
          "name": "",
          "type": "bool"
        }
      ],
      "stateMutability": "nonpayable",
      "type": "function"
    },
    {
      "inputs": [
        {
          "internalType": "address[]",
          "name": "_fromList",
          "type": "address[]"
        },
        {
          "internalType": "address[]",
          "name": "_toList",
          "type": "address[]"
        },
        {
          "internalType": "uint256[]",
          "name": "_amounts",
          "type": "uint256[]"
        }
      ],
      "name": "batchForcedTransfer",
      "outputs": [],
      "stateMutability": "nonpayable",
      "type": "function"
    },
    {
      "inputs": [
        {
          "internalType": "address",
          "name": "_to",
          "type": "address"
        },
        {
          "internalType": "uint256",
          "name": "_amount",
          "type": "uint256"
        }
      ],
      "name": "mint",
      "outputs": [],
      "stateMutability": "nonpayable",
      "type": "function"
    },
    {
      "inputs": [
        {
          "internalType": "address[]",
          "name": "_toList",
          "type": "address[]"
        },
        {
          "internalType": "uint256[]",
          "name": "_amounts",
          "type": "uint256[]"
        }
      ],
      "name": "batchMint",
      "outputs": [],
      "stateMutability": "nonpayable",
      "type": "function"
    },
    {
      "inputs": [
        {
          "internalType": "address",
          "name": "_userAddress",
          "type": "address"
        },
        {
          "internalType": "uint256",
          "name": "_amount",
          "type": "uint256"
        }
      ],
      "name": "burn",
      "outputs": [],
      "stateMutability": "nonpayable",
      "type": "function"
    },
    {
      "inputs": [
        {
          "internalType": "address[]",
          "name": "_userAddresses",
          "type": "address[]"
        },
        {
          "internalType": "uint256[]",
          "name": "_amounts",
          "type": "uint256[]"
        }
      ],
      "name": "batchBurn",
      "outputs": [],
      "stateMutability": "nonpayable",
      "type": "function"
    },
    {
      "inputs": [
        {
          "internalType": "address",
          "name": "_userAddress",
          "type": "address"
        },
        {
          "internalType": "bool",
          "name": "_freeze",
          "type": "bool"
        }
      ],
      "name": "setAddressFrozen",
      "outputs": [],
      "stateMutability": "nonpayable",
      "type": "function"
    },
    {
      "inputs": [
        {
          "internalType": "address[]",
          "name": "_userAddresses",
          "type": "address[]"
        },
        {
          "internalType": "bool[]",
          "name": "_freeze",
          "type": "bool[]"
        }
      ],
      "name": "batchSetAddressFrozen",
      "outputs": [],
      "stateMutability": "nonpayable",
      "type": "function"
    },
    {
      "inputs": [
        {
          "internalType": "address",
          "name": "_userAddress",
          "type": "address"
        },
        {
          "internalType": "uint256",
          "name": "_amount",
          "type": "uint256"
        }
      ],
      "name": "freezePartialTokens",
      "outputs": [],
      "stateMutability": "nonpayable",
      "type": "function"
    },
    {
      "inputs": [
        {
          "internalType": "address[]",
          "name": "_userAddresses",
          "type": "address[]"
        },
        {
          "internalType": "uint256[]",
          "name": "_amounts",
          "type": "uint256[]"
        }
      ],
      "name": "batchFreezePartialTokens",
      "outputs": [],
      "stateMutability": "nonpayable",
      "type": "function"
    },
    {
      "inputs": [
        {
          "internalType": "address",
          "name": "_userAddress",
          "type": "address"
        },
        {
          "internalType": "uint256",
          "name": "_amount",
          "type": "uint256"
        }
      ],
      "name": "unfreezePartialTokens",
      "outputs": [],
      "stateMutability": "nonpayable",
      "type": "function"
    },
    {
      "inputs": [
        {
          "internalType": "address[]",
          "name": "_userAddresses",
          "type": "address[]"
        },
        {
          "internalType": "uint256[]",
          "name": "_amounts",
          "type": "uint256[]"
        }
      ],
      "name": "batchUnfreezePartialTokens",
      "outputs": [],
      "stateMutability": "nonpayable",
      "type": "function"
    },
    {
      "inputs": [
        {
          "internalType": "address",
          "name": "_identityRegistry",
          "type": "address"
        }
      ],
      "name": "setIdentityRegistry",
      "outputs": [],
      "stateMutability": "nonpayable",
      "type": "function"
    },
    {
      "inputs": [
        {
          "internalType": "address",
          "name": "_compliance",
          "type": "address"
        }
      ],
      "name": "setCompliance",
      "outputs": [],
      "stateMutability": "nonpayable",
      "type": "function"
    },
    {
      "inputs": [
        {
          "internalType": "address",
          "name": "_lostWallet",
          "type": "address"
        },
        {
          "internalType": "address",
          "name": "_newWallet",
          "type": "address"
        },
        {
          "internalType": "address",
          "name": "_investorOnchainID",
          "type": "address"
        }
      ],
      "name": "recoveryAddress",
      "outputs": [
        {
          "internalType": "bool",
          "name": "",
          "type": "bool"
        }
      ],
      "stateMutability": "nonpayable",
      "type": "function"
    },
    {
      "inputs": [
        {
          "internalType": "address",
          "name": "_newOwner",
          "type": "address"
        }
      ],
      "name": "transferOwnershipOnTokenContract",
      "outputs": [],
      "stateMutability": "nonpayable",
      "type": "function"
    },
    {
      "inputs": [
        {
          "internalType": "address",
          "name": "_agent",
          "type": "address"
        }
      ],
      "name": "addAgentOnTokenContract",
      "outputs": [],
      "stateMutability": "nonpayable",
      "type": "function"
    },
    {
      "inputs": [
        {
          "internalType": "address",
          "name": "_agent",
          "type": "address"
        }
      ],
      "name": "removeAgentOnTokenContract",
      "outputs": [],
      "stateMutability": "nonpayable",
      "type": "function"
    },
    {
      "inputs": [
        {
          "internalType": "address",
          "name": "account",
          "type": "address"
        },
        {
          "internalType": "uint32",
          "name": "pos",
          "type": "uint32"
        }
      ],
      "name": "checkpoints",
      "outputs": [
        {
          "components": [
            {
              "internalType": "uint32",
              "name": "fromBlock",
              "type": "uint32"
            },
            {
              "internalType": "uint224",
              "name": "votes",
              "type": "uint224"
            }
          ],
          "internalType": "struct Token.Checkpoint",
          "name": "",
          "type": "tuple"
        }
      ],
      "stateMutability": "view",
      "type": "function"
    },
    {
      "inputs": [
        {
          "internalType": "address",
          "name": "account",
          "type": "address"
        }
      ],
      "name": "numCheckpoints",
      "outputs": [
        {
          "internalType": "uint32",
          "name": "",
          "type": "uint32"
        }
      ],
      "stateMutability": "view",
      "type": "function"
    },
    {
      "inputs": [
        {
          "internalType": "address",
          "name": "account",
          "type": "address"
        }
      ],
      "name": "delegates",
      "outputs": [
        {
          "internalType": "address",
          "name": "",
          "type": "address"
        }
      ],
      "stateMutability": "view",
      "type": "function"
    },
    {
      "inputs": [
        {
          "internalType": "address",
          "name": "account",
          "type": "address"
        }
      ],
      "name": "getVotes",
      "outputs": [
        {
          "internalType": "uint256",
          "name": "",
          "type": "uint256"
        }
      ],
      "stateMutability": "view",
      "type": "function"
    },
    {
      "inputs": [
        {
          "internalType": "address",
          "name": "account",
          "type": "address"
        },
        {
          "internalType": "uint256",
          "name": "blockNumber",
          "type": "uint256"
        }
      ],
      "name": "getPastVotes",
      "outputs": [
        {
          "internalType": "uint256",
          "name": "",
          "type": "uint256"
        }
      ],
      "stateMutability": "view",
      "type": "function"
    },
    {
      "inputs": [
        {
          "internalType": "uint256",
          "name": "blockNumber",
          "type": "uint256"
        }
      ],
      "name": "getPastTotalSupply",
      "outputs": [
        {
          "internalType": "uint256",
          "name": "",
          "type": "uint256"
        }
      ],
      "stateMutability": "view",
      "type": "function"
    },
    {
      "inputs": [
        {
          "internalType": "address",
          "name": "delegatee",
          "type": "address"
        }
      ],
      "name": "delegate",
      "outputs": [],
      "stateMutability": "nonpayable",
      "type": "function"
    },
    {
      "inputs": [
        {
          "internalType": "address",
          "name": "owner",
          "type": "address"
        },
        {
          "internalType": "address",
          "name": "spender",
          "type": "address"
        },
        {
          "internalType": "uint256",
          "name": "value",
          "type": "uint256"
        },
        {
          "internalType": "uint256",
          "name": "deadline",
          "type": "uint256"
        },
        {
          "internalType": "uint8",
          "name": "v",
          "type": "uint8"
        },
        {
          "internalType": "bytes32",
          "name": "r",
          "type": "bytes32"
        },
        {
          "internalType": "bytes32",
          "name": "s",
          "type": "bytes32"
        }
      ],
      "name": "permit",
      "outputs": [],
      "stateMutability": "nonpayable",
      "type": "function"
    },
    {
      "inputs": [
        {
          "internalType": "address",
          "name": "owner",
          "type": "address"
        }
      ],
      "name": "nonces",
      "outputs": [
        {
          "internalType": "uint256",
          "name": "",
          "type": "uint256"
        }
      ],
      "stateMutability": "view",
      "type": "function"
    },
    {
      "inputs": [],
      "name": "DOMAIN_SEPARATOR",
      "outputs": [
        {
          "internalType": "bytes32",
          "name": "",
          "type": "bytes32"
        }
      ],
      "stateMutability": "view",
      "type": "function"
    },
    {
      "inputs": [
        {
          "internalType": "address",
          "name": "delegatee",
          "type": "address"
        },
        {
          "internalType": "uint256",
          "name": "nonce",
          "type": "uint256"
        },
        {
          "internalType": "uint256",
          "name": "expiry",
          "type": "uint256"
        },
        {
          "internalType": "uint8",
          "name": "v",
          "type": "uint8"
        },
        {
          "internalType": "bytes32",
          "name": "r",
          "type": "bytes32"
        },
        {
          "internalType": "bytes32",
          "name": "s",
          "type": "bytes32"
        }
      ],
      "name": "delegateBySig",
      "outputs": [],
      "stateMutability": "nonpayable",
      "type": "function"
    }
  ],
  "bytecode": "0x610140604052606e805460ff191690553480156200001c57600080fd5b5060405162004959380380620049598339810160408190526200003f9162000119565b60408051808201825260018152603160f81b60209182015282519281019290922060e08190527fc89efdaa54c0f20c7adf612882df0950f5a951637e0307cdcb4c672f298b8bc66101008190524660a081815284517f8b73c3c69bb8fe3d512ecc4cf759cc79239f7b179b0ffacaa9a75d522b39400f818801819052818701959095526060810193909352608080840192909252308382018190528551808503909201825260c09384019095528051950194909420909352915261012052620001f5565b634e487b7160e01b600052604160045260246000fd5b600060208083850312156200012d57600080fd5b82516001600160401b03808211156200014557600080fd5b818501915085601f8301126200015a57600080fd5b8151818111156200016f576200016f62000103565b604051601f8201601f19908116603f011681019083821181831017156200019a576200019a62000103565b816040528281528886848701011115620001b357600080fd5b600093505b82841015620001d75784840186015181850187015292850192620001b8565b82841115620001e95760008684830101525b98975050505050505050565b60805160a05160c05160e0516101005161012051614714620002456000396000612e8c01526000612edb01526000612eb601526000612e0f01526000612e3901526000612e6301526147146000f3fe608060405234801561001057600080fd5b50600436106103a45760003560e01c8063715018a6116101e9578063aba637051161010f578063d505accf116100ad578063f2fde38b1161007c578063f2fde38b14610885578063f898178914610898578063f91b619c146108ab578063fc7e5fa8146108be57600080fd5b8063d505accf146107d0578063dd62ed3e146107e3578063e58398361461081c578063f1127ed81461084857600080fd5b8063c3cda520116100e9578063c3cda52014610784578063c47f002714610797578063c69c09cf146107aa578063cbf3f861146107bd57600080fd5b8063aba6370514610748578063b422d8301461075e578063b84c82461461077157600080fd5b80639285948a116101875780639dc29fac116101565780639dc29fac146106fc5780639fc1d0e71461070f578063a457c2d714610722578063a9059cbb1461073557600080fd5b80639285948a146106bb57806395d89b41146106ce57806397a6278e146106d65780639ab24eb0146106e957600080fd5b806384e79842116101c357806384e798421461067157806388d695b2146106845780638da5cb5b146106975780638e539e8c146106a857600080fd5b8063715018a61461064e5780637ecebe00146106565780638456cb591461066957600080fd5b80633f4ba83a116102ce578063587cde1e1161026c5780636290865d1161023b5780636290865d146105ef57806368573107146106005780636fcfff451461061357806370a082311461063b57600080fd5b8063587cde1e146105925780635c19a95c146105be5780635c975abb146105d15780635dc7a3cb146105dc57600080fd5b80634710362d116102a85780634710362d146105385780634a6cc6771461054b57806351411b331461055e57806354fd4d501461057157600080fd5b80633f4ba83a1461050a57806340c10f191461051257806342a47abc1461052557600080fd5b80631fe56f7d116103465780633644e515116103155780633644e515146104c957806339509351146104d15780633a46b1a8146104e45780633d1ddc5b146104f757600080fd5b80631fe56f7d1461047b5780631ffbb0641461048e57806323b872dd146104a1578063313ce567146104b457600080fd5b8063134e18f411610382578063134e18f4146103ff578063158b1a571461042957806318160ddd146104605780631a7af3791461046857600080fd5b806306fdde03146103a9578063095ea7b3146103c7578063125c4a33146103ea575b600080fd5b6103b16108d1565b6040516103be9190613c49565b60405180910390f35b6103da6103d5366004613c78565b610963565b60405190151581526020016103be565b6103fd6103f8366004613c78565b61097a565b005b606e5461010090046001600160a01b03165b6040516001600160a01b0390911681526020016103be565b610452610437366004613ca2565b6001600160a01b03166000908152606d602052604090205490565b6040519081526020016103be565b606854610452565b6103fd610476366004613d09565b610aa9565b6103fd610489366004613c78565b610b1e565b6103da61049c366004613ca2565b610c47565b6103da6104af366004613d75565b610c54565b606b5460405160ff90911681526020016103be565b610452610f5d565b6103da6104df366004613c78565b610f6c565b6104526104f2366004613c78565b610fa3565b6103fd610505366004613ca2565b611016565b6103fd6110d2565b6103fd610520366004613c78565b611180565b6103fd610533366004613db1565b61139a565b6103fd610546366004613d09565b611430565b6103fd610559366004613d09565b611495565b6103fd61056c366004613ca2565b6114fa565b604080518082019091526005815264332e352e3160d81b60208201526103b1565b6104116105a0366004613ca2565b6001600160a01b039081166000908152607060205260409020541690565b6103fd6105cc366004613ca2565b611530565b606e5460ff166103da565b6103fd6105ea366004613ca2565b61153a565b606f546001600160a01b0316610411565b6103fd61060e366004613d09565b611543565b610626610621366004613ca2565b6115a8565b60405163ffffffff90911681526020016103be565b610452610649366004613ca2565b6115ca565b6103fd6115e5565b610452610664366004613ca2565b611659565b6103fd611677565b6103fd61067f366004613ca2565b6116fc565b6103fd610692366004613d09565b611768565b6033546001600160a01b0316610411565b6104526106b6366004613e4b565b6117ce565b6103da6106c9366004613e64565b61182a565b6103b1611b9a565b6103fd6106e4366004613ca2565b611ba9565b6104526106f7366004613ca2565b611c15565b6103fd61070a366004613c78565b611c9c565b6103da61071d366004613d75565b611def565b6103da610730366004613c78565b611fcc565b6103da610743366004613c78565b612003565b606b5461010090046001600160a01b0316610411565b6103fd61076c366004613ca2565b612279565b6103fd61077f366004613ea7565b612282565b6103fd610792366004613f2a565b61232d565b6103fd6107a5366004613ea7565b61245a565b6103fd6107b8366004613f90565b612491565b6103fd6107cb366004613ca2565b61250b565b6103fd6107de366004613fc7565b612587565b6104526107f1366004614031565b6001600160a01b03918216600090815260676020908152604080832093909416825291909152205490565b6103da61082a366004613ca2565b6001600160a01b03166000908152606c602052604090205460ff1690565b61085b610856366004614064565b6126eb565b60408051825163ffffffff1681526020928301516001600160e01b031692810192909252016103be565b6103fd610893366004613ca2565b61276f565b6103fd6108a6366004613ca2565b61285a565b6103fd6108b936600461413c565b6128ce565b6103fd6108cc366004613d09565b612a87565b6060606980546108e0906141e1565b80601f016020809104026020016040519081016040528092919081815260200182805461090c906141e1565b80156109595780601f1061092e57610100808354040283529160200191610959565b820191906000526020600020905b81548152906001019060200180831161093c57829003601f168201915b5050505050905090565b6000610970338484612aec565b5060015b92915050565b61098333610c47565b6109a85760405162461bcd60e51b815260040161099f90614215565b60405180910390fd5b60006109b3836115ca565b6001600160a01b0384166000908152606d60205260409020549091506109da908390614279565b811015610a295760405162461bcd60e51b815260206004820181905260248201527f416d6f756e74206578636565647320617661696c61626c652062616c616e6365604482015260640161099f565b6001600160a01b0383166000908152606d6020526040902054610a4d908390614279565b6001600160a01b0384166000818152606d6020526040908190209290925590517fa065e63c631c86f1b9f66a4a2f63f2093bf1c2168d23290259dbd969e0222a4590610a9c9085815260200190565b60405180910390a2505050565b60005b83811015610b1757610b05858583818110610ac957610ac9614291565b9050602002016020810190610ade9190613ca2565b848484818110610af057610af0614291565b90506020020160208101906107b891906142a7565b80610b0f816142c4565b915050610aac565b5050505050565b610b2733610c47565b610b435760405162461bcd60e51b815260040161099f90614215565b6001600160a01b0382166000908152606d6020526040902054811115610bc85760405162461bcd60e51b815260206004820152603460248201527f416d6f756e742073686f756c64206265206c657373207468616e206f7220657160448201527375616c20746f2066726f7a656e20746f6b656e7360601b606482015260840161099f565b6001600160a01b0382166000908152606d6020526040902054610bec9082906142dd565b6001600160a01b0383166000818152606d6020526040908190209290925590517f9bed35cb62ad0dba04f9d5bfee4b5bc91443e77da8a65c4c84834c51bb08b0d690610c3b9084815260200190565b60405180910390a25050565b6000610974606583612c11565b606e5460009060ff1615610c7a5760405162461bcd60e51b815260040161099f906142f4565b6001600160a01b0383166000908152606c602052604090205460ff16158015610cbc57506001600160a01b0384166000908152606c602052604090205460ff16155b610cfb5760405162461bcd60e51b815260206004820152601060248201526f3bb0b63632ba1034b990333937bd32b760811b604482015260640161099f565b6001600160a01b0384166000908152606d6020526040902054610d1d856115ca565b610d2791906142dd565b821115610d6d5760405162461bcd60e51b8152602060048201526014602482015273496e73756666696369656e742042616c616e636560601b604482015260640161099f565b606e5460405163b9209e3360e01b81526001600160a01b0385811660048301526101009092049091169063b9209e3390602401602060405180830381865afa158015610dbd573d6000803e3d6000fd5b505050506040513d601f19601f82011682018060405250810190610de1919061431e565b8015610e5d5750606f546040516372331c7360e11b81526001600160a01b039091169063e46638e690610e1c9087908790879060040161433b565b602060405180830381865afa158015610e39573d6000803e3d6000fd5b505050506040513d601f19601f82011682018060405250810190610e5d919061431e565b15610f1657606f546040516322ebca6d60e21b81526001600160a01b0390911690638baf29b490610e969087908790879060040161433b565b600060405180830381600087803b158015610eb057600080fd5b505af1158015610ec4573d6000803e3d6000fd5b50505050610ed3848484612c94565b6001600160a01b038416600090815260676020908152604080832033808552925290912054610f0e918691610f099086906142dd565b612aec565b506001610f56565b60405162461bcd60e51b81526020600482015260156024820152745472616e73666572206e6f7420706f737369626c6560581b604482015260640161099f565b9392505050565b6000610f67612e02565b905090565b3360008181526067602090815260408083206001600160a01b03871684529091528120549091610970918590610f09908690614279565b6000438210610ff45760405162461bcd60e51b815260206004820152601f60248201527f4552433230566f7465733a20626c6f636b206e6f7420796574206d696e656400604482015260640161099f565b6001600160a01b0383166000908152607160205260409020610f569083612f29565b6033546001600160a01b031633146110405760405162461bcd60e51b815260040161099f9061435f565b606b80546001600160a01b03808416610100908102610100600160a81b031984168117948590556040805180820182526005815264332e352e3160d81b602082015290517f6a1105ac8148a3c319adbc369f9072573e8a11d3a3d195e067e7c40767ec54d1966110c796606996606a9660ff96871696909216959095179491041690614411565b60405180910390a150565b6110db33610c47565b6110f75760405162461bcd60e51b815260040161099f90614215565b606e5460ff166111405760405162461bcd60e51b815260206004820152601460248201527314185d5cd8589b194e881b9bdd081c185d5cd95960621b604482015260640161099f565b606e805460ff191690556040513381527f5db9ee0a495bf2e6ff9c91a7834c1ba4fdd244a5e8aa4e537bd38aeae4b073aa906020015b60405180910390a1565b61118933610c47565b6111a55760405162461bcd60e51b815260040161099f90614215565b606e5460405163b9209e3360e01b81526001600160a01b0384811660048301526101009092049091169063b9209e3390602401602060405180830381865afa1580156111f5573d6000803e3d6000fd5b505050506040513d601f19601f82011682018060405250810190611219919061431e565b6112655760405162461bcd60e51b815260206004820152601960248201527f4964656e74697479206973206e6f742076657269666965642e00000000000000604482015260640161099f565b606f546040516372331c7360e11b81526001600160a01b039091169063e46638e6906112999033908690869060040161433b565b602060405180830381865afa1580156112b6573d6000803e3d6000fd5b505050506040513d601f19601f820116820180604052508101906112da919061431e565b6113265760405162461bcd60e51b815260206004820152601760248201527f436f6d706c69616e6365206e6f7420666f6c6c6f776564000000000000000000604482015260640161099f565b6113308282612fe6565b606f54604051635f8dead360e01b81526001600160a01b0384811660048301526024820184905290911690635f8dead390604401600060405180830381600087803b15801561137e57600080fd5b505af1158015611392573d6000803e3d6000fd5b505050505050565b60005b85811015611427576114148787838181106113ba576113ba614291565b90506020020160208101906113cf9190613ca2565b8686848181106113e1576113e1614291565b90506020020160208101906113f69190613ca2565b85858581811061140857611408614291565b90506020020135611def565b508061141f816142c4565b91505061139d565b50505050505050565b60005b83811015610b175761148385858381811061145057611450614291565b90506020020160208101906114659190613ca2565b84848481811061147757611477614291565b90506020020135610b1e565b8061148d816142c4565b915050611433565b60005b83811015610b17576114e88585838181106114b5576114b5614291565b90506020020160208101906114ca9190613ca2565b8484848181106114dc576114dc614291565b90506020020135611c9c565b806114f2816142c4565b915050611498565b6033546001600160a01b031633146115245760405162461bcd60e51b815260040161099f9061435f565b61152d8161276f565b50565b61152d33826130de565b61152d81611ba9565b60005b83811015610b175761159685858381811061156357611563614291565b90506020020160208101906115789190613ca2565b84848481811061158a5761158a614291565b90506020020135611180565b806115a0816142c4565b915050611546565b6001600160a01b0381166000908152607160205260408120546109749061316d565b6001600160a01b031660009081526066602052604090205490565b6033546001600160a01b0316331461160f5760405162461bcd60e51b815260040161099f9061435f565b6033546040516000916001600160a01b0316907f8be0079c531659141344cd1fd0a4f28419497f9722a3daafe3b4186f6b6457e0908390a3603380546001600160a01b0319169055565b6001600160a01b038116600090815260736020526040812054610974565b61168033610c47565b61169c5760405162461bcd60e51b815260040161099f90614215565b606e5460ff16156116bf5760405162461bcd60e51b815260040161099f906142f4565b606e805460ff191660011790556040513381527f62e78cea01bee320cd4e420270b5ea74000d11b0c9f74754ebdbfc544b05a25890602001611176565b6033546001600160a01b031633146117265760405162461bcd60e51b815260040161099f9061435f565b6117316065826131d6565b6040516001600160a01b038216907ff68e73cec97f2d70aa641fb26e87a4383686e2efacb648f2165aeb02ac562ec590600090a250565b60005b83811015610b17576117bb85858381811061178857611788614291565b905060200201602081019061179d9190613ca2565b8484848181106117af576117af614291565b90506020020135612003565b50806117c6816142c4565b91505061176b565b600043821061181f5760405162461bcd60e51b815260206004820152601f60248201527f4552433230566f7465733a20626c6f636b206e6f7420796574206d696e656400604482015260640161099f565b610974607283612f29565b600061183533610c47565b6118515760405162461bcd60e51b815260040161099f90614215565b61185a846115ca565b6000036118a05760405162461bcd60e51b81526020600482015260146024820152733737903a37b5b2b739903a37903932b1b7bb32b960611b604482015260640161099f565b604080516001600160a01b038516602082015283916000910160408051808303601f1901815290829052805160209091012063d202158d60e01b8252600482018190526001602483015291506001600160a01b0383169063d202158d90604401602060405180830381865afa15801561191d573d6000803e3d6000fd5b505050506040513d601f19601f82011682018060405250810190611941919061431e565b15611b5a576000611951876115ca565b6001600160a01b038881166000818152606d60205260409081902054606e549151637e42683b60e01b8152600481019390935293945061010090049091169063454a03e090899087908490637e42683b90602401602060405180830381865afa1580156119c2573d6000803e3d6000fd5b505050506040513d601f19601f820116820180604052508101906119e6919061446e565b6040516001600160e01b031960e086901b1681526001600160a01b03938416600482015292909116602483015261ffff166044820152606401600060405180830381600087803b158015611a3957600080fd5b505af1158015611a4d573d6000803e3d6000fd5b5050606e5460405163a8d29d1d60e01b81526001600160a01b038c81166004830152610100909204909116925063a8d29d1d9150602401600060405180830381600087803b158015611a9e57600080fd5b505af1158015611ab2573d6000803e3d6000fd5b50505050611ac1888884611def565b508015611ad257611ad2878261097a565b6001600160a01b0388166000908152606c602052604090205460ff161515600103611b0257611b02876001612491565b604080516001600160a01b038a81168252898116602083015288168183015290517ff0c9129a94f30f1caaceb63e44b9811d0a3edf1d6c23757f346093af5553fed09181900360600190a16001945050505050610f56565b60405162461bcd60e51b81526020600482015260156024820152745265636f76657279206e6f7420706f737369626c6560581b604482015260640161099f565b6060606a80546108e0906141e1565b6033546001600160a01b03163314611bd35760405162461bcd60e51b815260040161099f9061435f565b611bde606582613252565b6040516001600160a01b038216907fed9c8ad8d5a0a66898ea49d2956929c93ae2e8bd50281b2ed897c5d1a6737e0b90600090a250565b6001600160a01b0381166000908152607160205260408120548015611c89576001600160a01b0383166000908152607160205260409020611c576001836142dd565b81548110611c6757611c67614291565b60009182526020909120015464010000000090046001600160e01b0316611c8c565b60005b6001600160e01b03169392505050565b611ca533610c47565b611cc15760405162461bcd60e51b815260040161099f90614215565b6001600160a01b0382166000908152606d6020526040812054611ce3846115ca565b611ced91906142dd565b905080821115611d83576000611d0382846142dd565b6001600160a01b0385166000908152606d6020526040902054909150611d2a9082906142dd565b6001600160a01b0385166000818152606d6020526040908190209290925590517f9bed35cb62ad0dba04f9d5bfee4b5bc91443e77da8a65c4c84834c51bb08b0d690611d799084815260200190565b60405180910390a2505b611d8d83836132d4565b606f5460405163469753b960e11b81526001600160a01b0385811660048301526024820185905290911690638d2ea77290604401600060405180830381600087803b158015611ddb57600080fd5b505af1158015611427573d6000803e3d6000fd5b6000611dfa33610c47565b611e165760405162461bcd60e51b815260040161099f90614215565b6001600160a01b0384166000908152606d6020526040812054611e38866115ca565b611e4291906142dd565b905080831115611ed8576000611e5882856142dd565b6001600160a01b0387166000908152606d6020526040902054909150611e7f9082906142dd565b6001600160a01b0387166000818152606d6020526040908190209290925590517f9bed35cb62ad0dba04f9d5bfee4b5bc91443e77da8a65c4c84834c51bb08b0d690611ece9084815260200190565b60405180910390a2505b606e5460405163b9209e3360e01b81526001600160a01b0386811660048301526101009092049091169063b9209e3390602401602060405180830381865afa158015611f28573d6000803e3d6000fd5b505050506040513d601f19601f82011682018060405250810190611f4c919061431e565b15610f1657606f546040516322ebca6d60e21b81526001600160a01b0390911690638baf29b490611f859088908890889060040161433b565b600060405180830381600087803b158015611f9f57600080fd5b505af1158015611fb3573d6000803e3d6000fd5b50505050611fc2858585612c94565b6001915050610f56565b3360008181526067602090815260408083206001600160a01b03871684529091528120549091610970918590610f099086906142dd565b606e5460009060ff16156120295760405162461bcd60e51b815260040161099f906142f4565b6001600160a01b0383166000908152606c602052604090205460ff161580156120625750336000908152606c602052604090205460ff16155b6120a15760405162461bcd60e51b815260206004820152601060248201526f3bb0b63632ba1034b990333937bd32b760811b604482015260640161099f565b336000818152606d6020526040902054906120bb906115ca565b6120c591906142dd565b82111561210b5760405162461bcd60e51b8152602060048201526014602482015273496e73756666696369656e742042616c616e636560601b604482015260640161099f565b606e5460405163b9209e3360e01b81526001600160a01b0385811660048301526101009092049091169063b9209e3390602401602060405180830381865afa15801561215b573d6000803e3d6000fd5b505050506040513d601f19601f8201168201806040525081019061217f919061431e565b80156121fb5750606f546040516372331c7360e11b81526001600160a01b039091169063e46638e6906121ba9033908790879060040161433b565b602060405180830381865afa1580156121d7573d6000803e3d6000fd5b505050506040513d601f19601f820116820180604052508101906121fb919061431e565b15610f1657606f546040516322ebca6d60e21b81526001600160a01b0390911690638baf29b4906122349033908790879060040161433b565b600060405180830381600087803b15801561224e57600080fd5b505af1158015612262573d6000803e3d6000fd5b50505050612271338484612c94565b506001610974565b61152d816116fc565b6033546001600160a01b031633146122ac5760405162461bcd60e51b815260040161099f9061435f565b606a6122b98284836144d8565b50606b546040805180820182526005815264332e352e3160d81b602082015290517f6a1105ac8148a3c319adbc369f9072573e8a11d3a3d195e067e7c40767ec54d19261232192606992606a9260ff811692916101009091046001600160a01b031690614411565b60405180910390a15050565b8342111561237d5760405162461bcd60e51b815260206004820152601d60248201527f4552433230566f7465733a207369676e61747572652065787069726564000000604482015260640161099f565b604080517fe48329057bfd03d55e49b547132e39cffd9c1820ad7b9d4c5307691425d15adf60208201526001600160a01b0388169181019190915260608101869052608081018590526000906123f7906123ef9060a001604051602081830303815290604052805190602001206133d1565b85858561341f565b905061240281613447565b86146124505760405162461bcd60e51b815260206004820152601960248201527f4552433230566f7465733a20696e76616c6964206e6f6e636500000000000000604482015260640161099f565b61142781886130de565b6033546001600160a01b031633146124845760405162461bcd60e51b815260040161099f9061435f565b60696122b98284836144d8565b61249a33610c47565b6124b65760405162461bcd60e51b815260040161099f90614215565b6001600160a01b0382166000818152606c6020526040808220805460ff19168515159081179091559051339391927f7fa523c84ab8d7fc5b72f08b9e46dbbf10c39e119a075b3e317002d14bc9f43691a45050565b6033546001600160a01b031633146125355760405162461bcd60e51b815260040161099f9061435f565b606e8054610100600160a81b0319166101006001600160a01b038416908102919091179091556040517fd2be862d755bca7e0d39772b2cab3a5578da9c285f69199f4c063c2294a7f36c90600090a250565b834211156125d75760405162461bcd60e51b815260206004820152601d60248201527f45524332305065726d69743a206578706972656420646561646c696e65000000604482015260640161099f565b60007f6e71edae12b1b97f4d1f60370fef10105fa2faae0126114a169c64845d6126c98888886126068c613447565b6040805160208101969096526001600160a01b0394851690860152929091166060840152608083015260a082015260c0810186905260e0016040516020818303038152906040528051906020012090506000612661826133d1565b905060006126718287878761341f565b9050896001600160a01b0316816001600160a01b0316146126d45760405162461bcd60e51b815260206004820152601e60248201527f45524332305065726d69743a20696e76616c6964207369676e61747572650000604482015260640161099f565b6126df8a8a8a612aec565b50505050505050505050565b60408051808201909152600080825260208201526001600160a01b0383166000908152607160205260409020805463ffffffff841690811061272f5761272f614291565b60009182526020918290206040805180820190915291015463ffffffff8116825264010000000090046001600160e01b0316918101919091529392505050565b6033546001600160a01b031633146127995760405162461bcd60e51b815260040161099f9061435f565b6001600160a01b0381166127fe5760405162461bcd60e51b815260206004820152602660248201527f4f776e61626c653a206e6577206f776e657220697320746865207a65726f206160448201526564647265737360d01b606482015260840161099f565b6033546040516001600160a01b038084169216907f8be0079c531659141344cd1fd0a4f28419497f9722a3daafe3b4186f6b6457e090600090a3603380546001600160a01b0319166001600160a01b0392909216919091179055565b6033546001600160a01b031633146128845760405162461bcd60e51b815260040161099f9061435f565b606f80546001600160a01b0319166001600160a01b0383169081179091556040517f7f3a888862559648ec01d97deb7b5012bff86dc91e654a1de397170db40e35b690600090a250565b600054610100900460ff16806128e7575060005460ff16155b6129035760405162461bcd60e51b815260040161099f90614598565b600054610100900460ff16158015612925576000805461ffff19166101011790555b606961293186826145e6565b50606a61293e85826145e6565b50606b805460ff85166001600160a81b0319909116176101006001600160a01b03858116820292909217909255606e8054610100600160a81b031916918a169283029190911790556040517fd2be862d755bca7e0d39772b2cab3a5578da9c285f69199f4c063c2294a7f36c90600090a2606f80546001600160a01b0319166001600160a01b0388169081179091556040517f7f3a888862559648ec01d97deb7b5012bff86dc91e654a1de397170db40e35b690600090a2606b546040805180820182526005815264332e352e3160d81b602082015290517f6a1105ac8148a3c319adbc369f9072573e8a11d3a3d195e067e7c40767ec54d192612a5d92606992606a9260ff811692916101009091046001600160a01b031690614411565b60405180910390a1612a6d61346f565b8015611427576000805461ff001916905550505050505050565b60005b83811015610b1757612ada858583818110612aa757612aa7614291565b9050602002016020810190612abc9190613ca2565b848484818110612ace57612ace614291565b9050602002013561097a565b80612ae4816142c4565b915050612a8a565b6001600160a01b038316612b4e5760405162461bcd60e51b8152602060048201526024808201527f45524332303a20617070726f76652066726f6d20746865207a65726f206164646044820152637265737360e01b606482015260840161099f565b6001600160a01b038216612baf5760405162461bcd60e51b815260206004820152602260248201527f45524332303a20617070726f766520746f20746865207a65726f206164647265604482015261737360f01b606482015260840161099f565b6001600160a01b0383811660008181526067602090815260408083209487168084529482529182902085905590518481527f8c5be1e5ebec7d5bd14f71427d1e84f3dd0314c0f7b2291e5b200ac8c7c3b92591015b60405180910390a3505050565b60006001600160a01b038216612c745760405162461bcd60e51b815260206004820152602260248201527f526f6c65733a206163636f756e7420697320746865207a65726f206164647265604482015261737360f01b606482015260840161099f565b506001600160a01b03166000908152602091909152604090205460ff1690565b6001600160a01b038316612cf85760405162461bcd60e51b815260206004820152602560248201527f45524332303a207472616e736665722066726f6d20746865207a65726f206164604482015264647265737360d81b606482015260840161099f565b6001600160a01b038216612d5a5760405162461bcd60e51b815260206004820152602360248201527f45524332303a207472616e7366657220746f20746865207a65726f206164647260448201526265737360e81b606482015260840161099f565b6001600160a01b038316600090815260666020526040902054612d7e9082906142dd565b6001600160a01b038085166000908152606660205260408082209390935590841681522054612dae908290614279565b6001600160a01b0380841660008181526066602052604090819020939093559151908516907fddf252ad1be2c89b69c2b068fc378daa952ba7f163c4a11628f55a4df523b3ef90612c049085815260200190565b6000306001600160a01b037f000000000000000000000000000000000000000000000000000000000000000016148015612e5b57507f000000000000000000000000000000000000000000000000000000000000000046145b15612e8557507f000000000000000000000000000000000000000000000000000000000000000090565b50604080517f00000000000000000000000000000000000000000000000000000000000000006020808301919091527f0000000000000000000000000000000000000000000000000000000000000000828401527f000000000000000000000000000000000000000000000000000000000000000060608301524660808301523060a0808401919091528351808403909101815260c0909201909252805191012090565b8154600090815b81811015612f8d576000612f4482846134ef565b905084868281548110612f5957612f59614291565b60009182526020909120015463ffffffff161115612f7957809250612f87565b612f84816001614279565b91505b50612f30565b8115612fd15784612f9f6001846142dd565b81548110612faf57612faf614291565b60009182526020909120015464010000000090046001600160e01b0316612fd4565b60005b6001600160e01b031695945050505050565b6001600160a01b03821661303c5760405162461bcd60e51b815260206004820152601f60248201527f45524332303a206d696e7420746f20746865207a65726f206164647265737300604482015260640161099f565b8060685461304a9190614279565b6068556001600160a01b038216600090815260666020526040902054613071908290614279565b6001600160a01b0383166000818152606660205260408082209390935591519091907fddf252ad1be2c89b69c2b068fc378daa952ba7f163c4a11628f55a4df523b3ef906130c29085815260200190565b60405180910390a36130d8607261350a83613516565b50505050565b6001600160a01b0382811660009081526070602052604081205490911690613105846115ca565b6001600160a01b0385811660008181526070602052604080822080546001600160a01b031916898616908117909155905194955093928616927f3134e8a2e6d97e929a7e54011ea5485d7d196dd5f0ba4d4ef95803e8e3fc257f9190a46130d882848361368f565b600063ffffffff8211156131d25760405162461bcd60e51b815260206004820152602660248201527f53616665436173743a2076616c756520646f65736e27742066697420696e203360448201526532206269747360d01b606482015260840161099f565b5090565b6131e08282612c11565b1561322d5760405162461bcd60e51b815260206004820152601f60248201527f526f6c65733a206163636f756e7420616c72656164792068617320726f6c6500604482015260640161099f565b6001600160a01b0316600090815260209190915260409020805460ff19166001179055565b61325c8282612c11565b6132b25760405162461bcd60e51b815260206004820152602160248201527f526f6c65733a206163636f756e7420646f6573206e6f74206861766520726f6c6044820152606560f81b606482015260840161099f565b6001600160a01b0316600090815260209190915260409020805460ff19169055565b6001600160a01b0382166133345760405162461bcd60e51b815260206004820152602160248201527f45524332303a206275726e2066726f6d20746865207a65726f206164647265736044820152607360f81b606482015260840161099f565b6001600160a01b0382166000908152606660205260409020546133589082906142dd565b6001600160a01b03831660009081526066602052604090205560685461337f9082906142dd565b6068556040518181526000906001600160a01b038416907fddf252ad1be2c89b69c2b068fc378daa952ba7f163c4a11628f55a4df523b3ef9060200160405180910390a36130d860726137cc83613516565b60006109746133de612e02565b8360405161190160f01b6020820152602281018390526042810182905260009060620160405160208183030381529060405280519060200120905092915050565b6000806000613430878787876137d8565b9150915061343d816138c5565b5095945050505050565b6001600160a01b03811660009081526073602052604090208054600181018255905b50919050565b600054610100900460ff1680613488575060005460ff16155b6134a45760405162461bcd60e51b815260040161099f90614598565b600054610100900460ff161580156134c6576000805461ffff19166101011790555b6134ce613a7b565b6134d6613ae5565b801561152d576000805461ff001916905550565b505050565b60006134fe60028484186146a6565b610f5690848416614279565b6000610f568284614279565b825460009081908015613561578561352f6001836142dd565b8154811061353f5761353f614291565b60009182526020909120015464010000000090046001600160e01b0316613564565b60005b6001600160e01b0316925061357d83858763ffffffff16565b91506000811180156135bb575043866135976001846142dd565b815481106135a7576135a7614291565b60009182526020909120015463ffffffff16145b1561361b576135c982613b93565b866135d56001846142dd565b815481106135e5576135e5614291565b9060005260206000200160000160046101000a8154816001600160e01b0302191690836001600160e01b03160217905550613686565b8560405180604001604052806136304361316d565b63ffffffff16815260200161364485613b93565b6001600160e01b0390811690915282546001810184556000938452602093849020835194909301519091166401000000000263ffffffff909316929092179101555b50935093915050565b816001600160a01b0316836001600160a01b0316141580156136b15750600081115b156134ea576001600160a01b0383161561373f576001600160a01b038316600090815260716020526040812081906136ec906137cc85613516565b91509150846001600160a01b03167fdec2bacdd2f05b59de34da9b523dff8be42e5e38e818c82fdb0bae774387a7248383604051613734929190918252602082015260400190565b60405180910390a250505b6001600160a01b038216156134ea576001600160a01b038216600090815260716020526040812081906137759061350a85613516565b91509150836001600160a01b03167fdec2bacdd2f05b59de34da9b523dff8be42e5e38e818c82fdb0bae774387a72483836040516137bd929190918252602082015260400190565b60405180910390a25050505050565b6000610f5682846142dd565b6000807f7fffffffffffffffffffffffffffffff5d576e7357a4501ddfe92f46681b20a083111561380f57506000905060036138bc565b8460ff16601b1415801561382757508460ff16601c14155b1561383857506000905060046138bc565b6040805160008082526020820180845289905260ff881692820192909252606081018690526080810185905260019060a0016020604051602081039080840390855afa15801561388c573d6000803e3d6000fd5b5050604051601f1901519150506001600160a01b0381166138b5576000600192509250506138bc565b9150600090505b94509492505050565b60008160048111156138d9576138d96146c8565b036138e15750565b60018160048111156138f5576138f56146c8565b036139425760405162461bcd60e51b815260206004820152601860248201527f45434453413a20696e76616c6964207369676e61747572650000000000000000604482015260640161099f565b6002816004811115613956576139566146c8565b036139a35760405162461bcd60e51b815260206004820152601f60248201527f45434453413a20696e76616c6964207369676e6174757265206c656e67746800604482015260640161099f565b60038160048111156139b7576139b76146c8565b03613a0f5760405162461bcd60e51b815260206004820152602260248201527f45434453413a20696e76616c6964207369676e6174757265202773272076616c604482015261756560f01b606482015260840161099f565b6004816004811115613a2357613a236146c8565b0361152d5760405162461bcd60e51b815260206004820152602260248201527f45434453413a20696e76616c6964207369676e6174757265202776272076616c604482015261756560f01b606482015260840161099f565b600054610100900460ff1680613a94575060005460ff16155b613ab05760405162461bcd60e51b815260040161099f90614598565b600054610100900460ff161580156134d6576000805461ffff1916610101179055801561152d576000805461ff001916905550565b600054610100900460ff1680613afe575060005460ff16155b613b1a5760405162461bcd60e51b815260040161099f90614598565b600054610100900460ff16158015613b3c576000805461ffff19166101011790555b603380546001600160a01b0319163390811790915560405181906000907f8be0079c531659141344cd1fd0a4f28419497f9722a3daafe3b4186f6b6457e0908290a350801561152d576000805461ff001916905550565b60006001600160e01b038211156131d25760405162461bcd60e51b815260206004820152602760248201527f53616665436173743a2076616c756520646f65736e27742066697420696e20326044820152663234206269747360c81b606482015260840161099f565b6000815180845260005b81811015613c2257602081850181015186830182015201613c06565b81811115613c34576000602083870101525b50601f01601f19169290920160200192915050565b602081526000610f566020830184613bfc565b80356001600160a01b0381168114613c7357600080fd5b919050565b60008060408385031215613c8b57600080fd5b613c9483613c5c565b946020939093013593505050565b600060208284031215613cb457600080fd5b610f5682613c5c565b60008083601f840112613ccf57600080fd5b50813567ffffffffffffffff811115613ce757600080fd5b6020830191508360208260051b8501011115613d0257600080fd5b9250929050565b60008060008060408587031215613d1f57600080fd5b843567ffffffffffffffff80821115613d3757600080fd5b613d4388838901613cbd565b90965094506020870135915080821115613d5c57600080fd5b50613d6987828801613cbd565b95989497509550505050565b600080600060608486031215613d8a57600080fd5b613d9384613c5c565b9250613da160208501613c5c565b9150604084013590509250925092565b60008060008060008060608789031215613dca57600080fd5b863567ffffffffffffffff80821115613de257600080fd5b613dee8a838b01613cbd565b90985096506020890135915080821115613e0757600080fd5b613e138a838b01613cbd565b90965094506040890135915080821115613e2c57600080fd5b50613e3989828a01613cbd565b979a9699509497509295939492505050565b600060208284031215613e5d57600080fd5b5035919050565b600080600060608486031215613e7957600080fd5b613e8284613c5c565b9250613e9060208501613c5c565b9150613e9e60408501613c5c565b90509250925092565b60008060208385031215613eba57600080fd5b823567ffffffffffffffff80821115613ed257600080fd5b818501915085601f830112613ee657600080fd5b813581811115613ef557600080fd5b866020828501011115613f0757600080fd5b60209290920196919550909350505050565b803560ff81168114613c7357600080fd5b60008060008060008060c08789031215613f4357600080fd5b613f4c87613c5c565b95506020870135945060408701359350613f6860608801613f19565b92506080870135915060a087013590509295509295509295565b801515811461152d57600080fd5b60008060408385031215613fa357600080fd5b613fac83613c5c565b91506020830135613fbc81613f82565b809150509250929050565b600080600080600080600060e0888a031215613fe257600080fd5b613feb88613c5c565b9650613ff960208901613c5c565b9550604088013594506060880135935061401560808901613f19565b925060a0880135915060c0880135905092959891949750929550565b6000806040838503121561404457600080fd5b61404d83613c5c565b915061405b60208401613c5c565b90509250929050565b6000806040838503121561407757600080fd5b61408083613c5c565b9150602083013563ffffffff81168114613fbc57600080fd5b634e487b7160e01b600052604160045260246000fd5b600082601f8301126140c057600080fd5b813567ffffffffffffffff808211156140db576140db614099565b604051601f8301601f19908116603f0116810190828211818310171561410357614103614099565b8160405283815286602085880101111561411c57600080fd5b836020870160208301376000602085830101528094505050505092915050565b60008060008060008060c0878903121561415557600080fd5b61415e87613c5c565b955061416c60208801613c5c565b9450604087013567ffffffffffffffff8082111561418957600080fd5b6141958a838b016140af565b955060608901359150808211156141ab57600080fd5b506141b889828a016140af565b9350506141c760808801613f19565b91506141d560a08801613c5c565b90509295509295509295565b600181811c908216806141f557607f821691505b60208210810361346957634e487b7160e01b600052602260045260246000fd5b6020808252602e908201527f4167656e74526f6c653a2063616c6c657220646f6573206e6f7420686176652060408201526d746865204167656e7420726f6c6560901b606082015260800190565b634e487b7160e01b600052601160045260246000fd5b6000821982111561428c5761428c614263565b500190565b634e487b7160e01b600052603260045260246000fd5b6000602082840312156142b957600080fd5b8135610f5681613f82565b6000600182016142d6576142d6614263565b5060010190565b6000828210156142ef576142ef614263565b500390565b60208082526010908201526f14185d5cd8589b194e881c185d5cd95960821b604082015260600190565b60006020828403121561433057600080fd5b8151610f5681613f82565b6001600160a01b039384168152919092166020820152604081019190915260600190565b6020808252818101527f4f776e61626c653a2063616c6c6572206973206e6f7420746865206f776e6572604082015260600190565b600081546143a1816141e1565b8085526020600183811680156143be57600181146143d857614406565b60ff1985168884015283151560051b880183019550614406565b866000528260002060005b858110156143fe5781548a82018601529083019084016143e3565b890184019650505b505050505092915050565b60a08152600061442460a0830188614394565b82810360208401526144368188614394565b905060ff8616604084015282810360608401526144538186613bfc565b91505060018060a01b03831660808301529695505050505050565b60006020828403121561448057600080fd5b815161ffff81168114610f5657600080fd5b601f8211156134ea57600081815260208120601f850160051c810160208610156144b95750805b601f850160051c820191505b81811015611392578281556001016144c5565b67ffffffffffffffff8311156144f0576144f0614099565b614504836144fe83546141e1565b83614492565b6000601f84116001811461453857600085156145205750838201355b600019600387901b1c1916600186901b178355610b17565b600083815260209020601f19861690835b828110156145695786850135825560209485019460019092019101614549565b50868210156145865760001960f88860031b161c19848701351681555b505060018560011b0183555050505050565b6020808252602e908201527f496e697469616c697a61626c653a20636f6e747261637420697320616c72656160408201526d191e481a5b9a5d1a585b1a5e995960921b606082015260800190565b815167ffffffffffffffff81111561460057614600614099565b6146148161460e84546141e1565b84614492565b602080601f83116001811461464957600084156146315750858301515b600019600386901b1c1916600185901b178555611392565b600085815260208120601f198616915b8281101561467857888601518255948401946001909101908401614659565b50858210156146965787850151600019600388901b60f8161c191681555b5050505050600190811b01905550565b6000826146c357634e487b7160e01b600052601260045260246000fd5b500490565b634e487b7160e01b600052602160045260246000fdfea264697066735822122049a41932030687d0834409f656b0d97d3a685043722a0895ffb21e0b25d2b3c264736f6c634300080f0033",
  "immutableReferences": {
    "3291": [
      {
        "length": 32,
        "start": 11875
      }
    ],
    "3293": [
      {
        "length": 32,
        "start": 11833
      }
    ],
    "3295": [
      {
        "length": 32,
        "start": 11791
      }
    ],
    "3297": [
      {
        "length": 32,
        "start": 11958
      }
    ],
    "3299": [
      {
        "length": 32,
        "start": 11995
      }
    ],
    "3301": [
      {
        "length": 32,
        "start": 11916
      }
    ]
  },
  "source": "// SPDX-License-Identifier: GPL-3.0\n/**\n *     NOTICE\n *\n *     The T-REX software is licensed under a proprietary license or the GPL v.3.\n *     If you choose to receive it under the GPL v.3 license, the following applies:\n *     T-REX is a suite of smart contracts developed by Tokeny to manage and transfer financial assets on the ethereum blockchain\n *\n *     Copyright (C) 2021, Tokeny srl.\n *\n *     This program is free software: you can redistribute it and/or modify\n *     it under the terms of the GNU General Public License as published by\n *     the Free Software Foundation, either version 3 of the License, or\n *     (at your option) any later version.\n *\n *     This program is distributed in the hope that it will be useful,\n *     but WITHOUT ANY WARRANTY; without even the implied warranty of\n *     MERCHANTABILITY or FITNESS FOR A PARTICULAR PURPOSE.  See the\n *     GNU General Public License for more details.\n *\n *     You should have received a copy of the GNU General Public License\n *     along with this program.  If not, see <https://www.gnu.org/licenses/>.\n */\n\npragma solidity ^0.8.0;\n\nimport './IToken.sol';\nimport '@onchain-id/solidity/contracts/interface/IERC734.sol';\nimport '@onchain-id/solidity/contracts/interface/IERC735.sol';\nimport '@onchain-id/solidity/contracts/interface/IIdentity.sol';\nimport '@openzeppelin/contracts/token/ERC20/extensions/ERC20Votes.sol';\nimport '@openzeppelin/contracts/token/ERC20/extensions/draft-IERC20Permit.sol';\nimport '../registry/IClaimTopicsRegistry.sol';\nimport '../registry/IIdentityRegistry.sol';\nimport '../compliance/ICompliance.sol';\nimport './Storage.sol';\nimport '../roles/AgentRoleUpgradeable.sol';\nimport '@openzeppelin/contracts/utils/math/Math.sol';\nimport '@openzeppelin/contracts/governance/utils/IVotes.sol';\nimport '@openzeppelin/contracts/utils/math/SafeCast.sol';\nimport '@openzeppelin/contracts/utils/cryptography/ECDSA.sol';\n\ncontract Token is IVotes, IToken, AgentRoleUpgradeable, TokenStorage, EIP712, IERC20Permit {\n    /**\n     *  @dev the constructor initiates the token contract\n     *  msg.sender is set automatically as the owner of the smart contract\n     *  @param _identityRegistry the address of the Identity registry linked to the token\n     *  @param _compliance the address of the compliance contract linked to the token\n     *  @param _name the name of the token\n     *  @param _symbol the symbol of the token\n     *  @param _decimals the decimals of the token\n     *  @param _onchainID the address of the onchainID of the token\n     *  emits an `UpdatedTokenInformation` event\n     *  emits an `IdentityRegistryAdded` event\n     *  emits a `ComplianceAdded` event\n     */\n    function init(\n        address _identityRegistry,\n        address _compliance,\n        string memory _name,\n        string memory _symbol,\n        uint8 _decimals,\n        address _onchainID\n    ) public initializer {\n        tokenName = _name;\n        tokenSymbol = _symbol;\n        tokenDecimals = _decimals;\n        tokenOnchainID = _onchainID;\n        tokenIdentityRegistry = IIdentityRegistry(_identityRegistry);\n        emit IdentityRegistryAdded(_identityRegistry);\n        tokenCompliance = ICompliance(_compliance);\n        emit ComplianceAdded(_compliance);\n        emit UpdatedTokenInformation(tokenName, tokenSymbol, tokenDecimals, TOKEN_VERSION, tokenOnchainID);\n        __Ownable_init();\n    }\n\n    /// @dev Modifier to make a function callable only when the contract is not paused.\n    modifier whenNotPaused() {\n        require(!tokenPaused, 'Pausable: paused');\n        _;\n    }\n\n    /// @dev Modifier to make a function callable only when the contract is paused.\n    modifier whenPaused() {\n        require(tokenPaused, 'Pausable: not paused');\n        _;\n    }\n\n    /**\n     *  @dev See {IERC20-totalSupply}.\n     */\n    function totalSupply() external view override returns (uint256) {\n        return _totalSupply;\n    }\n\n    /**\n     *  @dev See {IERC20-balanceOf}.\n     */\n    function balanceOf(address _userAddress) public view override returns (uint256) {\n        return _balances[_userAddress];\n    }\n\n    /**\n     *  @dev See {IERC20-allowance}.\n     */\n    function allowance(address _owner, address _spender) external view virtual override returns (uint256) {\n        return _allowances[_owner][_spender];\n    }\n\n    /**\n     *  @dev See {IERC20-approve}.\n     */\n    function approve(address _spender, uint256 _amount) external virtual override returns (bool) {\n        _approve(msg.sender, _spender, _amount);\n        return true;\n    }\n\n    /**\n     *  @dev See {ERC20-increaseAllowance}.\n     */\n    function increaseAllowance(address _spender, uint256 _addedValue) external virtual returns (bool) {\n        _approve(msg.sender, _spender, _allowances[msg.sender][_spender] + (_addedValue));\n        return true;\n    }\n\n    /**\n     *  @dev See {ERC20-decreaseAllowance}.\n     */\n    function decreaseAllowance(address _spender, uint256 _subtractedValue) external virtual returns (bool) {\n        _approve(msg.sender, _spender, _allowances[msg.sender][_spender] - _subtractedValue);\n        return true;\n    }\n\n    /**\n     *  @dev See {ERC20-_mint}.\n     */\n    function _transfer(\n        address _from,\n        address _to,\n        uint256 _amount\n    ) internal virtual {\n        require(_from != address(0), 'ERC20: transfer from the zero address');\n        require(_to != address(0), 'ERC20: transfer to the zero address');\n\n        _beforeTokenTransfer(_from, _to, _amount);\n\n        _balances[_from] = _balances[_from] - _amount;\n        _balances[_to] = _balances[_to] + _amount;\n        emit Transfer(_from, _to, _amount);\n    }\n\n    /**\n     *  @dev See {ERC20-_mint}.\n     */\n    function _mint(address _userAddress, uint256 _amount) internal virtual {\n        require(_userAddress != address(0), 'ERC20: mint to the zero address');\n\n        _beforeTokenTransfer(address(0), _userAddress, _amount);\n\n        _totalSupply = _totalSupply + _amount;\n        _balances[_userAddress] = _balances[_userAddress] + _amount;\n        emit Transfer(address(0), _userAddress, _amount);\n\n        _writeCheckpoint(_totalSupplyCheckpoints, _add, _amount);\n    }\n\n    /**\n     *  @dev See {ERC20-_burn}.\n     */\n    function _burn(address _userAddress, uint256 _amount) internal virtual {\n        require(_userAddress != address(0), 'ERC20: burn from the zero address');\n\n        _beforeTokenTransfer(_userAddress, address(0), _amount);\n\n        _balances[_userAddress] = _balances[_userAddress] - _amount;\n        _totalSupply = _totalSupply - _amount;\n        emit Transfer(_userAddress, address(0), _amount);\n        _writeCheckpoint(_totalSupplyCheckpoints, _subtract, _amount);\n    }\n\n    /**\n     *  @dev See {ERC20-_approve}.\n     */\n    function _approve(\n        address _owner,\n        address _spender,\n        uint256 _amount\n    ) internal virtual {\n        require(_owner != address(0), 'ERC20: approve from the zero address');\n        require(_spender != address(0), 'ERC20: approve to the zero address');\n\n        _allowances[_owner][_spender] = _amount;\n        emit Approval(_owner, _spender, _amount);\n    }\n\n    /**\n     *  @dev See {ERC20-_beforeTokenTransfer}.\n     */\n    function _beforeTokenTransfer(\n        address _from,\n        address _to,\n        uint256 _amount\n    ) internal virtual {}\n\n    /**\n     *  @dev See {IToken-decimals}.\n     */\n    function decimals() external view override returns (uint8) {\n        return tokenDecimals;\n    }\n\n    /**\n     *  @dev See {IToken-name}.\n     */\n    function name() external view override returns (string memory) {\n        return tokenName;\n    }\n\n    /**\n     *  @dev See {IToken-onchainID}.\n     */\n    function onchainID() external view override returns (address) {\n        return tokenOnchainID;\n    }\n\n    /**\n     *  @dev See {IToken-symbol}.\n     */\n    function symbol() external view override returns (string memory) {\n        return tokenSymbol;\n    }\n\n    /**\n     *  @dev See {IToken-version}.\n     */\n    function version() external view override returns (string memory) {\n        return TOKEN_VERSION;\n    }\n\n    /**\n     *  @dev See {IToken-setName}.\n     */\n    function setName(string calldata _name) external override onlyOwner {\n        tokenName = _name;\n        emit UpdatedTokenInformation(tokenName, tokenSymbol, tokenDecimals, TOKEN_VERSION, tokenOnchainID);\n    }\n\n    /**\n     *  @dev See {IToken-setSymbol}.\n     */\n    function setSymbol(string calldata _symbol) external override onlyOwner {\n        tokenSymbol = _symbol;\n        emit UpdatedTokenInformation(tokenName, tokenSymbol, tokenDecimals, TOKEN_VERSION, tokenOnchainID);\n    }\n\n    /**\n     *  @dev See {IToken-setOnchainID}.\n     */\n    function setOnchainID(address _onchainID) external override onlyOwner {\n        tokenOnchainID = _onchainID;\n        emit UpdatedTokenInformation(tokenName, tokenSymbol, tokenDecimals, TOKEN_VERSION, tokenOnchainID);\n    }\n\n    /**\n     *  @dev See {IToken-paused}.\n     */\n    function paused() external view override returns (bool) {\n        return tokenPaused;\n    }\n\n    /**\n     *  @dev See {IToken-isFrozen}.\n     */\n    function isFrozen(address _userAddress) external view override returns (bool) {\n        return frozen[_userAddress];\n    }\n\n    /**\n     *  @dev See {IToken-getFrozenTokens}.\n     */\n    function getFrozenTokens(address _userAddress) external view override returns (uint256) {\n        return frozenTokens[_userAddress];\n    }\n\n    /**\n     *  @notice ERC-20 overridden function that include logic to check for trade validity.\n     *  Require that the msg.sender and to addresses are not frozen.\n     *  Require that the value should not exceed available balance .\n     *  Require that the to address is a verified address\n     *  @param _to The address of the receiver\n     *  @param _amount The number of tokens to transfer\n     *  @return `true` if successful and revert if unsuccessful\n     */\n    function transfer(address _to, uint256 _amount) public override whenNotPaused returns (bool) {\n        require(!frozen[_to] && !frozen[msg.sender], 'wallet is frozen');\n        require(_amount <= balanceOf(msg.sender) - (frozenTokens[msg.sender]), 'Insufficient Balance');\n        if (tokenIdentityRegistry.isVerified(_to) && tokenCompliance.canTransfer(msg.sender, _to, _amount)) {\n            tokenCompliance.transferred(msg.sender, _to, _amount);\n            _transfer(msg.sender, _to, _amount);\n            return true;\n        }\n        revert('Transfer not possible');\n    }\n\n    /**\n     *  @dev See {IToken-pause}.\n     */\n    function pause() external override onlyAgent whenNotPaused {\n        tokenPaused = true;\n        emit Paused(msg.sender);\n    }\n\n    /**\n     *  @dev See {IToken-unpause}.\n     */\n    function unpause() external override onlyAgent whenPaused {\n        tokenPaused = false;\n        emit Unpaused(msg.sender);\n    }\n\n    /**\n     *  @dev See {IToken-identityRegistry}.\n     */\n    function identityRegistry() external view override returns (IIdentityRegistry) {\n        return tokenIdentityRegistry;\n    }\n\n    /**\n     *  @dev See {IToken-compliance}.\n     */\n    function compliance() external view override returns (ICompliance) {\n        return tokenCompliance;\n    }\n\n    /**\n     *  @dev See {IToken-batchTransfer}.\n     */\n    function batchTransfer(address[] calldata _toList, uint256[] calldata _amounts) external override {\n        for (uint256 i = 0; i < _toList.length; i++) {\n            transfer(_toList[i], _amounts[i]);\n        }\n    }\n\n    /**\n     *  @notice ERC-20 overridden function that include logic to check for trade validity.\n     *  Require that the from and to addresses are not frozen.\n     *  Require that the value should not exceed available balance .\n     *  Require that the to address is a verified address\n     *  @param _from The address of the sender\n     *  @param _to The address of the receiver\n     *  @param _amount The number of tokens to transfer\n     *  @return `true` if successful and revert if unsuccessful\n     */\n    function transferFrom(\n        address _from,\n        address _to,\n        uint256 _amount\n    ) external override whenNotPaused returns (bool) {\n        require(!frozen[_to] && !frozen[_from], 'wallet is frozen');\n        require(_amount <= balanceOf(_from) - (frozenTokens[_from]), 'Insufficient Balance');\n        if (tokenIdentityRegistry.isVerified(_to) && tokenCompliance.canTransfer(_from, _to, _amount)) {\n            tokenCompliance.transferred(_from, _to, _amount);\n            _transfer(_from, _to, _amount);\n            _approve(_from, msg.sender, _allowances[_from][msg.sender] - (_amount));\n            return true;\n        }\n\n        revert('Transfer not possible');\n    }\n\n    /**\n     *  @dev See {IToken-forcedTransfer}.\n     */\n    function forcedTransfer(\n        address _from,\n        address _to,\n        uint256 _amount\n    ) public override onlyAgent returns (bool) {\n        uint256 freeBalance = balanceOf(_from) - (frozenTokens[_from]);\n        if (_amount > freeBalance) {\n            uint256 tokensToUnfreeze = _amount - (freeBalance);\n            frozenTokens[_from] = frozenTokens[_from] - (tokensToUnfreeze);\n            emit TokensUnfrozen(_from, tokensToUnfreeze);\n        }\n        if (tokenIdentityRegistry.isVerified(_to)) {\n            tokenCompliance.transferred(_from, _to, _amount);\n            _transfer(_from, _to, _amount);\n            return true;\n        }\n        revert('Transfer not possible');\n    }\n\n    /**\n     *  @dev See {IToken-batchForcedTransfer}.\n     */\n    function batchForcedTransfer(\n        address[] calldata _fromList,\n        address[] calldata _toList,\n        uint256[] calldata _amounts\n    ) external override {\n        for (uint256 i = 0; i < _fromList.length; i++) {\n            forcedTransfer(_fromList[i], _toList[i], _amounts[i]);\n        }\n    }\n\n    /**\n     *  @dev See {IToken-mint}.\n     */\n    function mint(address _to, uint256 _amount) public override onlyAgent {\n        require(tokenIdentityRegistry.isVerified(_to), 'Identity is not verified.');\n        require(tokenCompliance.canTransfer(msg.sender, _to, _amount), 'Compliance not followed');\n        _mint(_to, _amount);\n        tokenCompliance.created(_to, _amount);\n    }\n\n    /**\n     *  @dev See {IToken-batchMint}.\n     */\n    function batchMint(address[] calldata _toList, uint256[] calldata _amounts) external override {\n        for (uint256 i = 0; i < _toList.length; i++) {\n            mint(_toList[i], _amounts[i]);\n        }\n    }\n\n    /**\n     *  @dev See {IToken-burn}.\n     */\n    function burn(address _userAddress, uint256 _amount) public override onlyAgent {\n        uint256 freeBalance = balanceOf(_userAddress) - frozenTokens[_userAddress];\n        if (_amount > freeBalance) {\n            uint256 tokensToUnfreeze = _amount - (freeBalance);\n            frozenTokens[_userAddress] = frozenTokens[_userAddress] - (tokensToUnfreeze);\n            emit TokensUnfrozen(_userAddress, tokensToUnfreeze);\n        }\n        _burn(_userAddress, _amount);\n        tokenCompliance.destroyed(_userAddress, _amount);\n    }\n\n    /**\n     *  @dev See {IToken-batchBurn}.\n     */\n    function batchBurn(address[] calldata _userAddresses, uint256[] calldata _amounts) external override {\n        for (uint256 i = 0; i < _userAddresses.length; i++) {\n            burn(_userAddresses[i], _amounts[i]);\n        }\n    }\n\n    /**\n     *  @dev See {IToken-setAddressFrozen}.\n     */\n    function setAddressFrozen(address _userAddress, bool _freeze) public override onlyAgent {\n        frozen[_userAddress] = _freeze;\n\n        emit AddressFrozen(_userAddress, _freeze, msg.sender);\n    }\n\n    /**\n     *  @dev See {IToken-batchSetAddressFrozen}.\n     */\n    function batchSetAddressFrozen(address[] calldata _userAddresses, bool[] calldata _freeze) external override {\n        for (uint256 i = 0; i < _userAddresses.length; i++) {\n            setAddressFrozen(_userAddresses[i], _freeze[i]);\n        }\n    }\n\n    /**\n     *  @dev See {IToken-freezePartialTokens}.\n     */\n    function freezePartialTokens(address _userAddress, uint256 _amount) public override onlyAgent {\n        uint256 balance = balanceOf(_userAddress);\n        require(balance >= frozenTokens[_userAddress] + _amount, 'Amount exceeds available balance');\n        frozenTokens[_userAddress] = frozenTokens[_userAddress] + (_amount);\n        emit TokensFrozen(_userAddress, _amount);\n    }\n\n    /**\n     *  @dev See {IToken-batchFreezePartialTokens}.\n     */\n    function batchFreezePartialTokens(address[] calldata _userAddresses, uint256[] calldata _amounts) external override {\n        for (uint256 i = 0; i < _userAddresses.length; i++) {\n            freezePartialTokens(_userAddresses[i], _amounts[i]);\n        }\n    }\n\n    /**\n     *  @dev See {IToken-unfreezePartialTokens}.\n     */\n    function unfreezePartialTokens(address _userAddress, uint256 _amount) public override onlyAgent {\n        require(frozenTokens[_userAddress] >= _amount, 'Amount should be less than or equal to frozen tokens');\n        frozenTokens[_userAddress] = frozenTokens[_userAddress] - (_amount);\n        emit TokensUnfrozen(_userAddress, _amount);\n    }\n\n    /**\n     *  @dev See {IToken-batchUnfreezePartialTokens}.\n     */\n    function batchUnfreezePartialTokens(address[] calldata _userAddresses, uint256[] calldata _amounts) external override {\n        for (uint256 i = 0; i < _userAddresses.length; i++) {\n            unfreezePartialTokens(_userAddresses[i], _amounts[i]);\n        }\n    }\n\n    /**\n     *  @dev See {IToken-setIdentityRegistry}.\n     */\n    function setIdentityRegistry(address _identityRegistry) external override onlyOwner {\n        tokenIdentityRegistry = IIdentityRegistry(_identityRegistry);\n        emit IdentityRegistryAdded(_identityRegistry);\n    }\n\n    /**\n     *  @dev See {IToken-setCompliance}.\n     */\n    function setCompliance(address _compliance) external override onlyOwner {\n        tokenCompliance = ICompliance(_compliance);\n        emit ComplianceAdded(_compliance);\n    }\n\n    /**\n     *  @dev See {IToken-recoveryAddress}.\n     */\n    function recoveryAddress(\n        address _lostWallet,\n        address _newWallet,\n        address _investorOnchainID\n    ) external override onlyAgent returns (bool) {\n        require(balanceOf(_lostWallet) != 0, 'no tokens to recover');\n        IIdentity _onchainID = IIdentity(_investorOnchainID);\n        bytes32 _key = keccak256(abi.encode(_newWallet));\n        if (_onchainID.keyHasPurpose(_key, 1)) {\n            uint256 investorTokens = balanceOf(_lostWallet);\n            uint256 _frozenTokens = frozenTokens[_lostWallet];\n            tokenIdentityRegistry.registerIdentity(_newWallet, _onchainID, tokenIdentityRegistry.investorCountry(_lostWallet));\n            tokenIdentityRegistry.deleteIdentity(_lostWallet);\n            forcedTransfer(_lostWallet, _newWallet, investorTokens);\n            if (_frozenTokens > 0) {\n                freezePartialTokens(_newWallet, _frozenTokens);\n            }\n            if (frozen[_lostWallet] == true) {\n                setAddressFrozen(_newWallet, true);\n            }\n            emit RecoverySuccess(_lostWallet, _newWallet, _investorOnchainID);\n            return true;\n        }\n        revert('Recovery not possible');\n    }\n\n    /**\n     *  @dev See {IToken-transferOwnershipOnTokenContract}.\n     */\n    function transferOwnershipOnTokenContract(address _newOwner) external override onlyOwner {\n        transferOwnership(_newOwner);\n    }\n\n    /**\n     *  @dev See {IToken-addAgentOnTokenContract}.\n     */\n    function addAgentOnTokenContract(address _agent) external override {\n        addAgent(_agent);\n    }\n\n    /**\n     *  @dev See {IToken-removeAgentOnTokenContract}.\n     */\n    function removeAgentOnTokenContract(address _agent) external override {\n        removeAgent(_agent);\n    }\n\n    //Voting impl\n\n    struct Checkpoint {\n        uint32 fromBlock;\n        uint224 votes;\n    }\n\n    bytes32 private constant _DELEGATION_TYPEHASH = keccak256('Delegation(address delegatee,uint256 nonce,uint256 expiry)');\n\n    mapping(address => address) private _delegates;\n    mapping(address => Checkpoint[]) private _checkpoints;\n    Checkpoint[] private _totalSupplyCheckpoints;\n\n    /**\n     * @dev Get the `pos`-th checkpoint for `account`.\n     */\n    function checkpoints(address account, uint32 pos) public view virtual returns (Checkpoint memory) {\n        return _checkpoints[account][pos];\n    }\n\n    /**\n     * @dev Get number of checkpoints for `account`.\n     */\n    function numCheckpoints(address account) public view virtual returns (uint32) {\n        return SafeCast.toUint32(_checkpoints[account].length);\n    }\n\n    /**\n     * @dev Get the address `account` is currently delegating to.\n     */\n    function delegates(address account) public view virtual override returns (address) {\n        return _delegates[account];\n    }\n\n    /**\n     * @dev Gets the current votes balance for `account`\n     */\n    function getVotes(address account) public view virtual override returns (uint256) {\n        uint256 pos = _checkpoints[account].length;\n        return pos == 0 ? 0 : _checkpoints[account][pos - 1].votes;\n    }\n\n    /**\n     * @dev Retrieve the number of votes for `account` at the end of `blockNumber`.\n     *\n     * Requirements:\n     *\n     * - `blockNumber` must have been already mined\n     */\n    function getPastVotes(address account, uint256 blockNumber) public view virtual override returns (uint256) {\n        require(blockNumber < block.number, 'ERC20Votes: block not yet mined');\n        return _checkpointsLookup(_checkpoints[account], blockNumber);\n    }\n\n    /**\n     * @dev Retrieve the `totalSupply` at the end of `blockNumber`. Note, this value is the sum of all balances.\n     * It is but NOT the sum of all the delegated votes!\n     *\n     * Requirements:\n     *\n     * - `blockNumber` must have been already mined\n     */\n    function getPastTotalSupply(uint256 blockNumber) public view virtual override returns (uint256) {\n        require(blockNumber < block.number, 'ERC20Votes: block not yet mined');\n        return _checkpointsLookup(_totalSupplyCheckpoints, blockNumber);\n    }\n\n    /**\n     * @dev Lookup a value in a list of (sorted) checkpoints.\n     */\n    function _checkpointsLookup(Checkpoint[] storage ckpts, uint256 blockNumber) private view returns (uint256) {\n        // We run a binary search to look for the earliest checkpoint taken after `blockNumber`.\n        //\n        // During the loop, the index of the wanted checkpoint remains in the range [low-1, high).\n        // With each iteration, either `low` or `high` is moved towards the middle of the range to maintain the invariant.\n        // - If the middle checkpoint is after `blockNumber`, we look in [low, mid)\n        // - If the middle checkpoint is before or equal to `blockNumber`, we look in [mid+1, high)\n        // Once we reach a single value (when low == high), we've found the right checkpoint at the index high-1, if not\n        // out of bounds (in which case we're looking too far in the past and the result is 0).\n        // Note that if the latest checkpoint available is exactly for `blockNumber`, we end up with an index that is\n        // past the end of the array, so we technically don't find a checkpoint after `blockNumber`, but it works out\n        // the same.\n        uint256 high = ckpts.length;\n        uint256 low = 0;\n        while (low < high) {\n            uint256 mid = Math.average(low, high);\n            if (ckpts[mid].fromBlock > blockNumber) {\n                high = mid;\n            } else {\n                low = mid + 1;\n            }\n        }\n\n        return high == 0 ? 0 : ckpts[high - 1].votes;\n    }\n\n    /**\n     * @dev Delegate votes from the sender to `delegatee`.\n     */\n    function delegate(address delegatee) public virtual override {\n        _delegate(_msgSender(), delegatee);\n    }\n\n    // Permit Impl\n    using Counters for Counters.Counter;\n\n    mapping(address => Counters.Counter) private _nonces;\n\n    // solhint-disable-next-line var-name-mixedcase\n    bytes32 private constant _PERMIT_TYPEHASH = keccak256('Permit(address owner,address spender,uint256 value,uint256 nonce,uint256 deadline)');\n    /**\n     * @dev In previous versions `_PERMIT_TYPEHASH` was declared as `immutable`.\n     * However, to ensure consistency with the upgradeable transpiler, we will continue\n     * to reserve a slot.\n     * @custom:oz-renamed-from _PERMIT_TYPEHASH\n     */\n    // solhint-disable-next-line var-name-mixedcase\n    bytes32 private _PERMIT_TYPEHASH_DEPRECATED_SLOT;\n\n    /**\n     * @dev Initializes the {EIP712} domain separator using the `name` parameter, and setting `version` to `\"1\"`.\n     *\n     * It's a good idea to use the same `name` that is defined as the ERC20 token name.\n     */\n    constructor(string memory name) EIP712(name, '1') {}\n\n    /**\n     * @dev See {IERC20Permit-permit}.\n     */\n    function permit(\n        address owner,\n        address spender,\n        uint256 value,\n        uint256 deadline,\n        uint8 v,\n        bytes32 r,\n        bytes32 s\n    ) public virtual override {\n        require(block.timestamp <= deadline, 'ERC20Permit: expired deadline');\n\n        bytes32 structHash = keccak256(abi.encode(_PERMIT_TYPEHASH, owner, spender, value, _useNonce(owner), deadline));\n\n        bytes32 hash = _hashTypedDataV4(structHash);\n\n        address signer = ECDSA.recover(hash, v, r, s);\n        require(signer == owner, 'ERC20Permit: invalid signature');\n\n        _approve(owner, spender, value);\n    }\n\n    /**\n     * @dev See {IERC20Permit-nonces}.\n     */\n    function nonces(address owner) public view virtual override returns (uint256) {\n        return _nonces[owner].current();\n    }\n\n    /**\n     * @dev See {IERC20Permit-DOMAIN_SEPARATOR}.\n     */\n    // solhint-disable-next-line func-name-mixedcase\n    function DOMAIN_SEPARATOR() external view override returns (bytes32) {\n        return _domainSeparatorV4();\n    }\n\n    /**\n     * @dev \"Consume a nonce\": return the current value and increment.\n     *\n     * _Available since v4.1._\n     */\n    function _useNonce(address owner) internal virtual returns (uint256 current) {\n        Counters.Counter storage nonce = _nonces[owner];\n        current = nonce.current();\n        nonce.increment();\n    }\n\n    /**\n     * @dev Delegates votes from signer to `delegatee`\n     */\n    function delegateBySig(\n        address delegatee,\n        uint256 nonce,\n        uint256 expiry,\n        uint8 v,\n        bytes32 r,\n        bytes32 s\n    ) public virtual override {\n        require(block.timestamp <= expiry, 'ERC20Votes: signature expired');\n        address signer = ECDSA.recover(_hashTypedDataV4(keccak256(abi.encode(_DELEGATION_TYPEHASH, delegatee, nonce, expiry))), v, r, s);\n        require(nonce == _useNonce(signer), 'ERC20Votes: invalid nonce');\n        _delegate(signer, delegatee);\n    }\n\n    /**\n     * @dev Maximum token supply. Defaults to `type(uint224).max` (2^224^ - 1).\n     */\n    function _maxSupply() internal view virtual returns (uint224) {\n        return type(uint224).max;\n    }\n\n    /**\n     * @dev Snapshots the totalSupply after it has been increased.\n     */\n    // function _mint(address account, uint256 amount) internal virtual override {\n    //     super._mint(account, amount);\n    //     require(_totalSupply() <= _maxSupply(), 'ERC20Votes: total supply risks overflowing votes');\n\n    //     _writeCheckpoint(_totalSupplyCheckpoints, _add, amount);\n    // }\n\n    /**\n     * @dev Snapshots the totalSupply after it has been decreased.\n     */\n    // function _burn(address account, uint256 amount) internal virtual override {\n    //     super._burn(account, amount);\n\n    //     _writeCheckpoint(_totalSupplyCheckpoints, _subtract, amount);\n    // }\n\n    function __afterTokenTransfer(\n        address from,\n        address to,\n        uint256 amount\n    ) internal virtual {}\n\n    /**\n     * @dev Move voting power when tokens are transferred.\n     *\n     * Emits a {DelegateVotesChanged} event.\n     */\n    function _afterTokenTransfer(\n        address from,\n        address to,\n        uint256 amount\n    ) internal virtual {\n        __afterTokenTransfer(from, to, amount);\n\n        _moveVotingPower(delegates(from), delegates(to), amount);\n    }\n\n    /**\n     * @dev Change delegation for `delegator` to `delegatee`.\n     *\n     * Emits events {DelegateChanged} and {DelegateVotesChanged}.\n     */\n    function _delegate(address delegator, address delegatee) internal virtual {\n        address currentDelegate = delegates(delegator);\n        uint256 delegatorBalance = balanceOf(delegator);\n        _delegates[delegator] = delegatee;\n\n        emit DelegateChanged(delegator, currentDelegate, delegatee);\n\n        _moveVotingPower(currentDelegate, delegatee, delegatorBalance);\n    }\n\n    function _moveVotingPower(\n        address src,\n        address dst,\n        uint256 amount\n    ) private {\n        if (src != dst && amount > 0) {\n            if (src != address(0)) {\n                (uint256 oldWeight, uint256 newWeight) = _writeCheckpoint(_checkpoints[src], _subtract, amount);\n                emit DelegateVotesChanged(src, oldWeight, newWeight);\n            }\n\n            if (dst != address(0)) {\n                (uint256 oldWeight, uint256 newWeight) = _writeCheckpoint(_checkpoints[dst], _add, amount);\n                emit DelegateVotesChanged(dst, oldWeight, newWeight);\n            }\n        }\n    }\n\n    function _writeCheckpoint(\n        Checkpoint[] storage ckpts,\n        function(uint256, uint256) view returns (uint256) op,\n        uint256 delta\n    ) private returns (uint256 oldWeight, uint256 newWeight) {\n        uint256 pos = ckpts.length;\n        oldWeight = pos == 0 ? 0 : ckpts[pos - 1].votes;\n        newWeight = op(oldWeight, delta);\n\n        if (pos > 0 && ckpts[pos - 1].fromBlock == block.number) {\n            ckpts[pos - 1].votes = SafeCast.toUint224(newWeight);\n        } else {\n            ckpts.push(Checkpoint({fromBlock: SafeCast.toUint32(block.number), votes: SafeCast.toUint224(newWeight)}));\n        }\n    }\n\n    function _add(uint256 a, uint256 b) private pure returns (uint256) {\n        return a + b;\n    }\n\n    function _subtract(uint256 a, uint256 b) private pure returns (uint256) {\n        return a - b;\n    }\n}\n",
  "sourcePath": "/home/mayank/Desktop/security-token-5/Prototype--Craye-Realstate/T-REX/contracts/token/Token.sol",
  "compiler": {
    "name": "solc",
    "version": "0.8.15+commit.e14f2714.Emscripten.clang"
  },
  "schemaVersion": "3.4.6",
  "updatedAt": "2022-08-03T12:59:44.684Z",
  "devdoc": {
    "kind": "dev",
    "methods": {
      "DOMAIN_SEPARATOR()": {
        "details": "See {IERC20Permit-DOMAIN_SEPARATOR}."
      },
      "addAgentOnTokenContract(address)": {
        "details": "See {IToken-addAgentOnTokenContract}."
      },
      "allowance(address,address)": {
        "details": "See {IERC20-allowance}."
      },
      "approve(address,uint256)": {
        "details": "See {IERC20-approve}."
      },
      "balanceOf(address)": {
        "details": "See {IERC20-balanceOf}."
      },
      "batchBurn(address[],uint256[])": {
        "details": "See {IToken-batchBurn}."
      },
      "batchForcedTransfer(address[],address[],uint256[])": {
        "details": "See {IToken-batchForcedTransfer}."
      },
      "batchFreezePartialTokens(address[],uint256[])": {
        "details": "See {IToken-batchFreezePartialTokens}."
      },
      "batchMint(address[],uint256[])": {
        "details": "See {IToken-batchMint}."
      },
      "batchSetAddressFrozen(address[],bool[])": {
        "details": "See {IToken-batchSetAddressFrozen}."
      },
      "batchTransfer(address[],uint256[])": {
        "details": "See {IToken-batchTransfer}."
      },
      "batchUnfreezePartialTokens(address[],uint256[])": {
        "details": "See {IToken-batchUnfreezePartialTokens}."
      },
      "burn(address,uint256)": {
        "details": "See {IToken-burn}."
      },
      "checkpoints(address,uint32)": {
        "details": "Get the `pos`-th checkpoint for `account`."
      },
      "compliance()": {
        "details": "See {IToken-compliance}."
      },
      "constructor": {
        "details": "Initializes the {EIP712} domain separator using the `name` parameter, and setting `version` to `\"1\"`. It's a good idea to use the same `name` that is defined as the ERC20 token name."
      },
      "decimals()": {
        "details": "See {IToken-decimals}."
      },
      "decreaseAllowance(address,uint256)": {
        "details": "See {ERC20-decreaseAllowance}."
      },
      "delegate(address)": {
        "details": "Delegate votes from the sender to `delegatee`."
      },
      "delegateBySig(address,uint256,uint256,uint8,bytes32,bytes32)": {
        "details": "Delegates votes from signer to `delegatee`"
      },
      "delegates(address)": {
        "details": "Get the address `account` is currently delegating to."
      },
      "forcedTransfer(address,address,uint256)": {
        "details": "See {IToken-forcedTransfer}."
      },
      "freezePartialTokens(address,uint256)": {
        "details": "See {IToken-freezePartialTokens}."
      },
      "getFrozenTokens(address)": {
        "details": "See {IToken-getFrozenTokens}."
      },
      "getPastTotalSupply(uint256)": {
        "details": "Retrieve the `totalSupply` at the end of `blockNumber`. Note, this value is the sum of all balances. It is but NOT the sum of all the delegated votes! Requirements: - `blockNumber` must have been already mined"
      },
      "getPastVotes(address,uint256)": {
        "details": "Retrieve the number of votes for `account` at the end of `blockNumber`. Requirements: - `blockNumber` must have been already mined"
      },
      "getVotes(address)": {
        "details": "Gets the current votes balance for `account`"
      },
      "identityRegistry()": {
        "details": "See {IToken-identityRegistry}."
      },
      "increaseAllowance(address,uint256)": {
        "details": "See {ERC20-increaseAllowance}."
      },
      "init(address,address,string,string,uint8,address)": {
        "details": "the constructor initiates the token contract  msg.sender is set automatically as the owner of the smart contract",
        "params": {
          "_compliance": "the address of the compliance contract linked to the token",
          "_decimals": "the decimals of the token",
          "_identityRegistry": "the address of the Identity registry linked to the token",
          "_name": "the name of the token",
          "_onchainID": "the address of the onchainID of the token  emits an `UpdatedTokenInformation` event  emits an `IdentityRegistryAdded` event  emits a `ComplianceAdded` event",
          "_symbol": "the symbol of the token"
        }
      },
      "isFrozen(address)": {
        "details": "See {IToken-isFrozen}."
      },
      "mint(address,uint256)": {
        "details": "See {IToken-mint}."
      },
      "name()": {
        "details": "See {IToken-name}."
      },
      "nonces(address)": {
        "details": "See {IERC20Permit-nonces}."
      },
      "numCheckpoints(address)": {
        "details": "Get number of checkpoints for `account`."
      },
      "onchainID()": {
        "details": "See {IToken-onchainID}."
      },
      "owner()": {
        "details": "Returns the address of the current owner."
      },
      "pause()": {
        "details": "See {IToken-pause}."
      },
      "paused()": {
        "details": "See {IToken-paused}."
      },
      "permit(address,address,uint256,uint256,uint8,bytes32,bytes32)": {
        "details": "See {IERC20Permit-permit}."
      },
      "recoveryAddress(address,address,address)": {
        "details": "See {IToken-recoveryAddress}."
      },
      "removeAgentOnTokenContract(address)": {
        "details": "See {IToken-removeAgentOnTokenContract}."
      },
      "renounceOwnership()": {
        "details": "Leaves the contract without owner. It will not be possible to call `onlyOwner` functions anymore. Can only be called by the current owner. NOTE: Renouncing ownership will leave the contract without an owner, thereby removing any functionality that is only available to the owner."
      },
      "setAddressFrozen(address,bool)": {
        "details": "See {IToken-setAddressFrozen}."
      },
      "setCompliance(address)": {
        "details": "See {IToken-setCompliance}."
      },
      "setIdentityRegistry(address)": {
        "details": "See {IToken-setIdentityRegistry}."
      },
      "setName(string)": {
        "details": "See {IToken-setName}."
      },
      "setOnchainID(address)": {
        "details": "See {IToken-setOnchainID}."
      },
      "setSymbol(string)": {
        "details": "See {IToken-setSymbol}."
      },
      "symbol()": {
        "details": "See {IToken-symbol}."
      },
      "totalSupply()": {
        "details": "See {IERC20-totalSupply}."
      },
      "transfer(address,uint256)": {
        "params": {
          "_amount": "The number of tokens to transfer",
          "_to": "The address of the receiver"
        },
        "returns": {
          "_0": "`true` if successful and revert if unsuccessful"
        }
      },
      "transferFrom(address,address,uint256)": {
        "params": {
          "_amount": "The number of tokens to transfer",
          "_from": "The address of the sender",
          "_to": "The address of the receiver"
        },
        "returns": {
          "_0": "`true` if successful and revert if unsuccessful"
        }
      },
      "transferOwnership(address)": {
        "details": "Transfers ownership of the contract to a new account (`newOwner`). Can only be called by the current owner."
      },
      "transferOwnershipOnTokenContract(address)": {
        "details": "See {IToken-transferOwnershipOnTokenContract}."
      },
      "unfreezePartialTokens(address,uint256)": {
        "details": "See {IToken-unfreezePartialTokens}."
      },
      "unpause()": {
        "details": "See {IToken-unpause}."
      },
      "version()": {
        "details": "See {IToken-version}."
      }
    },
    "stateVariables": {
      "_PERMIT_TYPEHASH_DEPRECATED_SLOT": {
        "custom:oz-renamed-from": "_PERMIT_TYPEHASH",
        "details": "In previous versions `_PERMIT_TYPEHASH` was declared as `immutable`. However, to ensure consistency with the upgradeable transpiler, we will continue to reserve a slot."
      }
    },
    "version": 1
  },
  "userdoc": {
    "events": {
      "AddressFrozen(address,bool,address)": {
        "notice": "this event is emitted when the wallet of an investor is frozen or unfrozen  the event is emitted by setAddressFrozen and batchSetAddressFrozen functions  `_userAddress` is the wallet of the investor that is concerned by the freezing status  `_isFrozen` is the freezing status of the wallet  if `_isFrozen` equals `true` the wallet is frozen after emission of the event  if `_isFrozen` equals `false` the wallet is unfrozen after emission of the event  `_owner` is the address of the agent who called the function to freeze the wallet"
      },
      "ComplianceAdded(address)": {
        "notice": "this event is emitted when the Compliance has been set for the token  the event is emitted by the token constructor and by the setCompliance function  `_compliance` is the address of the Compliance contract of the token"
      },
      "IdentityRegistryAdded(address)": {
        "notice": "this event is emitted when the IdentityRegistry has been set for the token  the event is emitted by the token constructor and by the setIdentityRegistry function  `_identityRegistry` is the address of the Identity Registry of the token"
      },
      "Paused(address)": {
        "notice": "this event is emitted when the token is paused  the event is emitted by the pause function  `_userAddress` is the address of the wallet that called the pause function"
      },
      "RecoverySuccess(address,address,address)": {
        "notice": "this event is emitted when an investor successfully recovers his tokens  the event is emitted by the recoveryAddress function  `_lostWallet` is the address of the wallet that the investor lost access to  `_newWallet` is the address of the wallet that the investor provided for the recovery  `_investorOnchainID` is the address of the onchainID of the investor who asked for a recovery"
      },
      "TokensFrozen(address,uint256)": {
        "notice": "this event is emitted when a certain amount of tokens is frozen on a wallet  the event is emitted by freezePartialTokens and batchFreezePartialTokens functions  `_userAddress` is the wallet of the investor that is concerned by the freezing status  `_amount` is the amount of tokens that are frozen"
      },
      "TokensUnfrozen(address,uint256)": {
        "notice": "this event is emitted when a certain amount of tokens is unfrozen on a wallet  the event is emitted by unfreezePartialTokens and batchUnfreezePartialTokens functions  `_userAddress` is the wallet of the investor that is concerned by the freezing status  `_amount` is the amount of tokens that are unfrozen"
      },
      "Unpaused(address)": {
        "notice": "this event is emitted when the token is unpaused  the event is emitted by the unpause function  `_userAddress` is the address of the wallet that called the unpause function"
      },
      "UpdatedTokenInformation(string,string,uint8,string,address)": {
        "notice": "this event is emitted when the token information is updated.  the event is emitted by the token constructor and by the setTokenInformation function  `_newName` is the name of the token  `_newSymbol` is the symbol of the token  `_newDecimals` is the decimals of the token  `_newVersion` is the version of the token, current version is 3.0  `_newOnchainID` is the address of the onchainID of the token"
      }
    },
    "kind": "user",
    "methods": {
      "transfer(address,uint256)": {
        "notice": "ERC-20 overridden function that include logic to check for trade validity.  Require that the msg.sender and to addresses are not frozen.  Require that the value should not exceed available balance .  Require that the to address is a verified address"
      },
      "transferFrom(address,address,uint256)": {
        "notice": "ERC-20 overridden function that include logic to check for trade validity.  Require that the from and to addresses are not frozen.  Require that the value should not exceed available balance .  Require that the to address is a verified address"
      }
    },
    "version": 1
  }
}