{
  "contractName": "TrustedIssuersRegistry",
  "abi": [
    {
      "anonymous": false,
      "inputs": [
        {
          "indexed": true,
          "internalType": "contract IClaimIssuer",
          "name": "trustedIssuer",
          "type": "address"
        },
        {
          "indexed": false,
          "internalType": "uint256[]",
          "name": "claimTopics",
          "type": "uint256[]"
        }
      ],
      "name": "ClaimTopicsUpdated",
      "type": "event"
    },
    {
      "anonymous": false,
      "inputs": [
        {
          "indexed": true,
          "internalType": "address",
          "name": "previousOwner",
          "type": "address"
        },
        {
          "indexed": true,
          "internalType": "address",
          "name": "newOwner",
          "type": "address"
        }
      ],
      "name": "OwnershipTransferred",
      "type": "event"
    },
    {
      "anonymous": false,
      "inputs": [
        {
          "indexed": true,
          "internalType": "contract IClaimIssuer",
          "name": "trustedIssuer",
          "type": "address"
        },
        {
          "indexed": false,
          "internalType": "uint256[]",
          "name": "claimTopics",
          "type": "uint256[]"
        }
      ],
      "name": "TrustedIssuerAdded",
      "type": "event"
    },
    {
      "anonymous": false,
      "inputs": [
        {
          "indexed": true,
          "internalType": "contract IClaimIssuer",
          "name": "trustedIssuer",
          "type": "address"
        }
      ],
      "name": "TrustedIssuerRemoved",
      "type": "event"
    },
    {
      "inputs": [],
      "name": "owner",
      "outputs": [
        {
          "internalType": "address",
          "name": "",
          "type": "address"
        }
      ],
      "stateMutability": "view",
      "type": "function"
    },
    {
      "inputs": [],
      "name": "renounceOwnership",
      "outputs": [],
      "stateMutability": "nonpayable",
      "type": "function"
    },
    {
      "inputs": [
        {
          "internalType": "address",
          "name": "newOwner",
          "type": "address"
        }
      ],
      "name": "transferOwnership",
      "outputs": [],
      "stateMutability": "nonpayable",
      "type": "function"
    },
    {
      "inputs": [
        {
          "internalType": "contract IClaimIssuer",
          "name": "_trustedIssuer",
          "type": "address"
        },
        {
          "internalType": "uint256[]",
          "name": "_claimTopics",
          "type": "uint256[]"
        }
      ],
      "name": "addTrustedIssuer",
      "outputs": [],
      "stateMutability": "nonpayable",
      "type": "function"
    },
    {
      "inputs": [
        {
          "internalType": "contract IClaimIssuer",
          "name": "_trustedIssuer",
          "type": "address"
        }
      ],
      "name": "removeTrustedIssuer",
      "outputs": [],
      "stateMutability": "nonpayable",
      "type": "function"
    },
    {
      "inputs": [
        {
          "internalType": "contract IClaimIssuer",
          "name": "_trustedIssuer",
          "type": "address"
        },
        {
          "internalType": "uint256[]",
          "name": "_claimTopics",
          "type": "uint256[]"
        }
      ],
      "name": "updateIssuerClaimTopics",
      "outputs": [],
      "stateMutability": "nonpayable",
      "type": "function"
    },
    {
      "inputs": [],
      "name": "getTrustedIssuers",
      "outputs": [
        {
          "internalType": "contract IClaimIssuer[]",
          "name": "",
          "type": "address[]"
        }
      ],
      "stateMutability": "view",
      "type": "function"
    },
    {
      "inputs": [
        {
          "internalType": "address",
          "name": "_issuer",
          "type": "address"
        }
      ],
      "name": "isTrustedIssuer",
      "outputs": [
        {
          "internalType": "bool",
          "name": "",
          "type": "bool"
        }
      ],
      "stateMutability": "view",
      "type": "function"
    },
    {
      "inputs": [
        {
          "internalType": "contract IClaimIssuer",
          "name": "_trustedIssuer",
          "type": "address"
        }
      ],
      "name": "getTrustedIssuerClaimTopics",
      "outputs": [
        {
          "internalType": "uint256[]",
          "name": "",
          "type": "uint256[]"
        }
      ],
      "stateMutability": "view",
      "type": "function"
    },
    {
      "inputs": [
        {
          "internalType": "address",
          "name": "_issuer",
          "type": "address"
        },
        {
          "internalType": "uint256",
          "name": "_claimTopic",
          "type": "uint256"
        }
      ],
      "name": "hasClaimTopic",
      "outputs": [
        {
          "internalType": "bool",
          "name": "",
          "type": "bool"
        }
      ],
      "stateMutability": "view",
      "type": "function"
    },
    {
      "inputs": [
        {
          "internalType": "address",
          "name": "_newOwner",
          "type": "address"
        }
      ],
      "name": "transferOwnershipOnIssuersRegistryContract",
      "outputs": [],
      "stateMutability": "nonpayable",
      "type": "function"
    }
  ],
  "bytecode": "0x608060405234801561001057600080fd5b5061001a3361001f565b61006f565b600080546001600160a01b038381166001600160a01b0319831681178455604051919092169283917f8be0079c531659141344cd1fd0a4f28419497f9722a3daafe3b4186f6b6457e09190a35050565b610c268061007e6000396000f3fe608060405234801561001057600080fd5b50600436106100a95760003560e01c8063b93d28eb11610071578063b93d28eb14610121578063c28fb27814610134578063d9dd24c514610154578063e36dce2814610169578063ef2ed1a41461017c578063f2fde38b1461018f57600080fd5b806304bc7e84146100ae57806334a89987146100c3578063715018a6146100eb5780638da5cb5b146100f35780639f63ea981461010e575b600080fd5b6100c16100bc3660046109ae565b6101a2565b005b6100d66100d1366004610a36565b6102a3565b60405190151581526020015b60405180910390f35b6100c1610363565b6000546040516001600160a01b0390911681526020016100e2565b6100c161011c3660046109ae565b610377565b6100c161012f366004610a62565b6104db565b610147610142366004610a62565b610679565b6040516100e29190610a86565b61015c61071c565b6040516100e29190610aca565b6100c1610177366004610a62565b61077e565b6100d661018a366004610a62565b610792565b6100c161019d366004610a62565b6107ff565b6101aa610875565b6001600160a01b03831660009081526002602052604081205490036101ea5760405162461bcd60e51b81526004016101e190610b0b565b60405180910390fd5b806102375760405162461bcd60e51b815260206004820152601c60248201527f636c61696d20746f706963732063616e6e6f7420626520656d7074790000000060448201526064016101e1565b6001600160a01b038316600090815260026020526040902061025a90838361091f565b50826001600160a01b03167fec753cfc52044f61676f18a11e500093a9f2b1cd5e4942bc476f2b0438159bcf8383604051610296929190610b42565b60405180910390a2505050565b6001600160a01b038216600090815260026020908152604080832080548251818502810185019093528083529284929190849083018282801561030557602002820191906000526020600020905b8154815260200190600101908083116102f1575b5050505050905060005b82811015610355578482828151811061032a5761032a610b7e565b602002602001015103610343576001935050505061035d565b8061034d81610baa565b91505061030f565b506000925050505b92915050565b61036b610875565b61037560006108cf565b565b61037f610875565b6001600160a01b038316600090815260026020526040902054156103e55760405162461bcd60e51b815260206004820152601d60248201527f747275737465642049737375657220616c72656164792065786973747300000060448201526064016101e1565b8061043e5760405162461bcd60e51b8152602060048201526024808201527f7472757374656420636c61696d20746f706963732063616e6e6f7420626520656044820152636d70747960e01b60648201526084016101e1565b600180548082019091557fb10e2d527612073b26eecdfd717e6a320cf44b4afac2b0732d9fcbe2b7fa0cf60180546001600160a01b0319166001600160a01b038516908117909155600090815260026020526040902061049f90838361091f565b50826001600160a01b03167ffedc33fd34859594822c0ff6f3f4f9fc279cc6d5cae53068f706a088e45008728383604051610296929190610b42565b6104e3610875565b6001600160a01b038116600090815260026020526040812054900361051a5760405162461bcd60e51b81526004016101e190610b0b565b60015460005b8181101561061f57826001600160a01b03166001828154811061054557610545610b7e565b6000918252602090912001546001600160a01b03160361060d57600161056b8184610bc3565b8154811061057b5761057b610b7e565b600091825260209091200154600180546001600160a01b0390921691839081106105a7576105a7610b7e565b9060005260206000200160006101000a8154816001600160a01b0302191690836001600160a01b0316021790555060018054806105e6576105e6610bda565b600082815260209020810160001990810180546001600160a01b031916905501905561061f565b8061061781610baa565b915050610520565b506001600160a01b03821660009081526002602052604081206106419161096a565b6040516001600160a01b038316907f2214ded40113cc3fb63fc206cafee88270b0a903dac7245d54efdde30ebb032190600090a25050565b6001600160a01b038116600090815260026020526040812054606091036106b25760405162461bcd60e51b81526004016101e190610b0b565b6001600160a01b0382166000908152600260209081526040918290208054835181840281018401909452808452909183018282801561071057602002820191906000526020600020905b8154815260200190600101908083116106fc575b50505050509050919050565b6060600180548060200260200160405190810160405280929190818152602001828054801561077457602002820191906000526020600020905b81546001600160a01b03168152600190910190602001808311610756575b5050505050905090565b610786610875565b61078f816107ff565b50565b600154600090815b818110156107f557836001600160a01b0316600182815481106107bf576107bf610b7e565b6000918252602090912001546001600160a01b0316036107e3575060019392505050565b806107ed81610baa565b91505061079a565b5060009392505050565b610807610875565b6001600160a01b03811661086c5760405162461bcd60e51b815260206004820152602660248201527f4f776e61626c653a206e6577206f776e657220697320746865207a65726f206160448201526564647265737360d01b60648201526084016101e1565b61078f816108cf565b6000546001600160a01b031633146103755760405162461bcd60e51b815260206004820181905260248201527f4f776e61626c653a2063616c6c6572206973206e6f7420746865206f776e657260448201526064016101e1565b600080546001600160a01b038381166001600160a01b0319831681178455604051919092169283917f8be0079c531659141344cd1fd0a4f28419497f9722a3daafe3b4186f6b6457e09190a35050565b82805482825590600052602060002090810192821561095a579160200282015b8281111561095a57823582559160200191906001019061093f565b50610966929150610984565b5090565b508054600082559060005260206000209081019061078f91905b5b808211156109665760008155600101610985565b6001600160a01b038116811461078f57600080fd5b6000806000604084860312156109c357600080fd5b83356109ce81610999565b9250602084013567ffffffffffffffff808211156109eb57600080fd5b818601915086601f8301126109ff57600080fd5b813581811115610a0e57600080fd5b8760208260051b8501011115610a2357600080fd5b6020830194508093505050509250925092565b60008060408385031215610a4957600080fd5b8235610a5481610999565b946020939093013593505050565b600060208284031215610a7457600080fd5b8135610a7f81610999565b9392505050565b6020808252825182820181905260009190848201906040850190845b81811015610abe57835183529284019291840191600101610aa2565b50909695505050505050565b6020808252825182820181905260009190848201906040850190845b81811015610abe5783516001600160a01b031683529284019291840191600101610ae6565b6020808252601c908201527f747275737465642049737375657220646f65736e277420657869737400000000604082015260600190565b6020808252810182905260006001600160fb1b03831115610b6257600080fd5b8260051b80856040850137600092016040019182525092915050565b634e487b7160e01b600052603260045260246000fd5b634e487b7160e01b600052601160045260246000fd5b600060018201610bbc57610bbc610b94565b5060010190565b600082821015610bd557610bd5610b94565b500390565b634e487b7160e01b600052603160045260246000fdfea2646970667358221220b92740af00e2b477f23785aad886c32e783992a10919228fb2920306795df5c064736f6c634300080f0033",
  "immutableReferences": {},
  "source": "// SPDX-License-Identifier: GPL-3.0\n/**\n *     NOTICE\n *\n *     The T-REX software is licensed under a proprietary license or the GPL v.3.\n *     If you choose to receive it under the GPL v.3 license, the following applies:\n *     T-REX is a suite of smart contracts developed by Tokeny to manage and transfer financial assets on the ethereum blockchain\n *\n *     Copyright (C) 2021, Tokeny srl.\n *\n *     This program is free software: you can redistribute it and/or modify\n *     it under the terms of the GNU General Public License as published by\n *     the Free Software Foundation, either version 3 of the License, or\n *     (at your option) any later version.\n *\n *     This program is distributed in the hope that it will be useful,\n *     but WITHOUT ANY WARRANTY; without even the implied warranty of\n *     MERCHANTABILITY or FITNESS FOR A PARTICULAR PURPOSE.  See the\n *     GNU General Public License for more details.\n *\n *     You should have received a copy of the GNU General Public License\n *     along with this program.  If not, see <https://www.gnu.org/licenses/>.\n */\n\npragma solidity ^0.8.0;\n\nimport '@onchain-id/solidity/contracts/interface/IClaimIssuer.sol';\nimport '@openzeppelin/contracts/access/Ownable.sol';\n\nimport '../registry/ITrustedIssuersRegistry.sol';\n\n\ncontract TrustedIssuersRegistry is ITrustedIssuersRegistry, Ownable {\n    /// @dev Array containing all TrustedIssuers identity contract address.\n    IClaimIssuer[] private trustedIssuers;\n\n    /// @dev Mapping between a trusted issuer index and its corresponding claimTopics.\n    mapping(address => uint256[]) private trustedIssuerClaimTopics;\n\n    /**\n     *  @dev See {ITrustedIssuersRegistry-addTrustedIssuer}.\n     */\n    function addTrustedIssuer(IClaimIssuer _trustedIssuer, uint256[] calldata _claimTopics) external override onlyOwner {\n        require(trustedIssuerClaimTopics[address(_trustedIssuer)].length == 0, 'trusted Issuer already exists');\n        require(_claimTopics.length > 0, 'trusted claim topics cannot be empty');\n        trustedIssuers.push(_trustedIssuer);\n        trustedIssuerClaimTopics[address(_trustedIssuer)] = _claimTopics;\n        emit TrustedIssuerAdded(_trustedIssuer, _claimTopics);\n    }\n\n    /**\n     *  @dev See {ITrustedIssuersRegistry-removeTrustedIssuer}.\n     */\n    function removeTrustedIssuer(IClaimIssuer _trustedIssuer) external override onlyOwner {\n        require(trustedIssuerClaimTopics[address(_trustedIssuer)].length != 0, 'trusted Issuer doesn\\'t exist');\n        uint256 length = trustedIssuers.length;\n        for (uint256 i = 0; i < length; i++) {\n            if (trustedIssuers[i] == _trustedIssuer) {\n                trustedIssuers[i] = trustedIssuers[length - 1];\n                trustedIssuers.pop();\n                break;\n            }\n        }\n        delete trustedIssuerClaimTopics[address(_trustedIssuer)];\n        emit TrustedIssuerRemoved(_trustedIssuer);\n    }\n\n    /**\n     *  @dev See {ITrustedIssuersRegistry-updateIssuerClaimTopics}.\n     */\n    function updateIssuerClaimTopics(IClaimIssuer _trustedIssuer, uint256[] calldata _claimTopics) external override onlyOwner {\n        require(trustedIssuerClaimTopics[address(_trustedIssuer)].length != 0, 'trusted Issuer doesn\\'t exist');\n        require(_claimTopics.length > 0, 'claim topics cannot be empty');\n        trustedIssuerClaimTopics[address(_trustedIssuer)] = _claimTopics;\n        emit ClaimTopicsUpdated(_trustedIssuer, _claimTopics);\n    }\n\n    /**\n     *  @dev See {ITrustedIssuersRegistry-getTrustedIssuers}.\n     */\n    function getTrustedIssuers() external view override returns (IClaimIssuer[] memory) {\n        return trustedIssuers;\n    }\n\n    /**\n     *  @dev See {ITrustedIssuersRegistry-isTrustedIssuer}.\n     */\n    function isTrustedIssuer(address _issuer) external view override returns (bool) {\n        uint256 length = trustedIssuers.length;\n        for (uint256 i = 0; i < length; i++) {\n            if (address(trustedIssuers[i]) == _issuer) {\n                return true;\n            }\n        }\n        return false;\n    }\n\n    /**\n     *  @dev See {ITrustedIssuersRegistry-getTrustedIssuerClaimTopics}.\n     */\n    function getTrustedIssuerClaimTopics(IClaimIssuer _trustedIssuer) external view override returns (uint256[] memory) {\n        require(trustedIssuerClaimTopics[address(_trustedIssuer)].length != 0, 'trusted Issuer doesn\\'t exist');\n        return trustedIssuerClaimTopics[address(_trustedIssuer)];\n    }\n\n    /**\n     *  @dev See {ITrustedIssuersRegistry-hasClaimTopic}.\n     */\n    function hasClaimTopic(address _issuer, uint256 _claimTopic) external view override returns (bool) {\n        uint256 length = trustedIssuerClaimTopics[_issuer].length;\n        uint256[] memory claimTopics = trustedIssuerClaimTopics[_issuer];\n        for (uint256 i = 0; i < length; i++) {\n            if (claimTopics[i] == _claimTopic) {\n                return true;\n            }\n        }\n        return false;\n    }\n\n    /**\n     *  @dev See {ITrustedIssuersRegistry-transferOwnershipOnIssuersRegistryContract}.\n     */\n    function transferOwnershipOnIssuersRegistryContract(address _newOwner) external override onlyOwner {\n        transferOwnership(_newOwner);\n    }\n}\n",
  "sourcePath": "/home/mayank/Desktop/security-token-5/Prototype--Craye-Realstate/T-REX/contracts/registry/TrustedIssuersRegistry.sol",
  "compiler": {
    "name": "solc",
    "version": "0.8.15+commit.e14f2714.Emscripten.clang"
  },
  "schemaVersion": "3.4.6",
  "updatedAt": "2022-08-03T10:43:51.388Z",
  "devdoc": {
    "kind": "dev",
    "methods": {
      "addTrustedIssuer(address,uint256[])": {
        "details": "See {ITrustedIssuersRegistry-addTrustedIssuer}."
      },
      "getTrustedIssuerClaimTopics(address)": {
        "details": "See {ITrustedIssuersRegistry-getTrustedIssuerClaimTopics}."
      },
      "getTrustedIssuers()": {
        "details": "See {ITrustedIssuersRegistry-getTrustedIssuers}."
      },
      "hasClaimTopic(address,uint256)": {
        "details": "See {ITrustedIssuersRegistry-hasClaimTopic}."
      },
      "isTrustedIssuer(address)": {
        "details": "See {ITrustedIssuersRegistry-isTrustedIssuer}."
      },
      "owner()": {
        "details": "Returns the address of the current owner."
      },
      "removeTrustedIssuer(address)": {
        "details": "See {ITrustedIssuersRegistry-removeTrustedIssuer}."
      },
      "renounceOwnership()": {
        "details": "Leaves the contract without owner. It will not be possible to call `onlyOwner` functions anymore. Can only be called by the current owner. NOTE: Renouncing ownership will leave the contract without an owner, thereby removing any functionality that is only available to the owner."
      },
      "transferOwnership(address)": {
        "details": "Transfers ownership of the contract to a new account (`newOwner`). Can only be called by the current owner."
      },
      "transferOwnershipOnIssuersRegistryContract(address)": {
        "details": "See {ITrustedIssuersRegistry-transferOwnershipOnIssuersRegistryContract}."
      },
      "updateIssuerClaimTopics(address,uint256[])": {
        "details": "See {ITrustedIssuersRegistry-updateIssuerClaimTopics}."
      }
    },
    "stateVariables": {
      "trustedIssuerClaimTopics": {
        "details": "Mapping between a trusted issuer index and its corresponding claimTopics."
      },
      "trustedIssuers": {
        "details": "Array containing all TrustedIssuers identity contract address."
      }
    },
    "version": 1
  },
  "userdoc": {
    "events": {
      "ClaimTopicsUpdated(address,uint256[])": {
        "notice": "this event is emitted when the set of claim topics is changed for a given trusted issuer.  the event is emitted by the updateIssuerClaimTopics function  `trustedIssuer` is the address of the trusted issuer's ClaimIssuer contract  `claimTopics` is the set of claims that the trusted issuer is allowed to emit"
      },
      "TrustedIssuerAdded(address,uint256[])": {
        "notice": "this event is emitted when a trusted issuer is added in the registry.  the event is emitted by the addTrustedIssuer function  `trustedIssuer` is the address of the trusted issuer's ClaimIssuer contract  `claimTopics` is the set of claims that the trusted issuer is allowed to emit"
      },
      "TrustedIssuerRemoved(address)": {
        "notice": "this event is emitted when a trusted issuer is removed from the registry.  the event is emitted by the removeTrustedIssuer function  `trustedIssuer` is the address of the trusted issuer's ClaimIssuer contract"
      }
    },
    "kind": "user",
    "methods": {},
    "version": 1
  }
}