{
  "contractName": "Wildcard",
  "abi": [
    {
      "inputs": [
        {
          "internalType": "uint256",
          "name": "_initialSupply",
          "type": "uint256"
        },
        {
          "internalType": "address",
          "name": "_propertyTokensOwner",
          "type": "address"
        },
        {
          "internalType": "address",
          "name": "_token",
          "type": "address"
        }
      ],
      "stateMutability": "nonpayable",
      "type": "constructor"
    },
    {
      "anonymous": false,
      "inputs": [
        {
          "indexed": true,
          "internalType": "address",
          "name": "owner",
          "type": "address"
        },
        {
          "indexed": true,
          "internalType": "address",
          "name": "spender",
          "type": "address"
        },
        {
          "indexed": false,
          "internalType": "uint256",
          "name": "value",
          "type": "uint256"
        }
      ],
      "name": "Approval",
      "type": "event"
    },
    {
      "anonymous": false,
      "inputs": [
        {
          "indexed": true,
          "internalType": "address",
          "name": "previousOwner",
          "type": "address"
        },
        {
          "indexed": true,
          "internalType": "address",
          "name": "newOwner",
          "type": "address"
        }
      ],
      "name": "OwnershipTransferred",
      "type": "event"
    },
    {
      "anonymous": false,
      "inputs": [
        {
          "indexed": true,
          "internalType": "address",
          "name": "from",
          "type": "address"
        },
        {
          "indexed": true,
          "internalType": "address",
          "name": "to",
          "type": "address"
        },
        {
          "indexed": false,
          "internalType": "uint256",
          "name": "value",
          "type": "uint256"
        }
      ],
      "name": "Transfer",
      "type": "event"
    },
    {
      "anonymous": false,
      "inputs": [
        {
          "indexed": false,
          "internalType": "address",
          "name": "",
          "type": "address"
        },
        {
          "indexed": false,
          "internalType": "uint256",
          "name": "",
          "type": "uint256"
        }
      ],
      "name": "failedAirdrop",
      "type": "event"
    },
    {
      "anonymous": false,
      "inputs": [
        {
          "indexed": false,
          "internalType": "address",
          "name": "",
          "type": "address"
        },
        {
          "indexed": false,
          "internalType": "uint256",
          "name": "",
          "type": "uint256"
        }
      ],
      "name": "propertTokenClaim",
      "type": "event"
    },
    {
      "anonymous": false,
      "inputs": [
        {
          "indexed": false,
          "internalType": "address",
          "name": "",
          "type": "address"
        },
        {
          "indexed": false,
          "internalType": "uint256",
          "name": "",
          "type": "uint256"
        }
      ],
      "name": "successfulAirdrop",
      "type": "event"
    },
    {
      "anonymous": false,
      "inputs": [
        {
          "indexed": false,
          "internalType": "address",
          "name": "",
          "type": "address"
        },
        {
          "indexed": false,
          "internalType": "uint256",
          "name": "",
          "type": "uint256"
        }
      ],
      "name": "successfulTransfer",
      "type": "event"
    },
    {
      "inputs": [
        {
          "internalType": "address",
          "name": "owner",
          "type": "address"
        },
        {
          "internalType": "address",
          "name": "spender",
          "type": "address"
        }
      ],
      "name": "allowance",
      "outputs": [
        {
          "internalType": "uint256",
          "name": "",
          "type": "uint256"
        }
      ],
      "stateMutability": "view",
      "type": "function"
    },
    {
      "inputs": [
        {
          "internalType": "address",
          "name": "spender",
          "type": "address"
        },
        {
          "internalType": "uint256",
          "name": "amount",
          "type": "uint256"
        }
      ],
      "name": "approve",
      "outputs": [
        {
          "internalType": "bool",
          "name": "",
          "type": "bool"
        }
      ],
      "stateMutability": "nonpayable",
      "type": "function"
    },
    {
      "inputs": [
        {
          "internalType": "address",
          "name": "account",
          "type": "address"
        }
      ],
      "name": "balanceOf",
      "outputs": [
        {
          "internalType": "uint256",
          "name": "",
          "type": "uint256"
        }
      ],
      "stateMutability": "view",
      "type": "function"
    },
    {
      "inputs": [
        {
          "internalType": "uint256",
          "name": "amount",
          "type": "uint256"
        }
      ],
      "name": "burn",
      "outputs": [],
      "stateMutability": "nonpayable",
      "type": "function"
    },
    {
      "inputs": [
        {
          "internalType": "address",
          "name": "account",
          "type": "address"
        },
        {
          "internalType": "uint256",
          "name": "amount",
          "type": "uint256"
        }
      ],
      "name": "burnFrom",
      "outputs": [],
      "stateMutability": "nonpayable",
      "type": "function"
    },
    {
      "inputs": [],
      "name": "decimals",
      "outputs": [
        {
          "internalType": "uint8",
          "name": "",
          "type": "uint8"
        }
      ],
      "stateMutability": "view",
      "type": "function"
    },
    {
      "inputs": [
        {
          "internalType": "address",
          "name": "spender",
          "type": "address"
        },
        {
          "internalType": "uint256",
          "name": "subtractedValue",
          "type": "uint256"
        }
      ],
      "name": "decreaseAllowance",
      "outputs": [
        {
          "internalType": "bool",
          "name": "",
          "type": "bool"
        }
      ],
      "stateMutability": "nonpayable",
      "type": "function"
    },
    {
      "inputs": [
        {
          "internalType": "address",
          "name": "spender",
          "type": "address"
        },
        {
          "internalType": "uint256",
          "name": "addedValue",
          "type": "uint256"
        }
      ],
      "name": "increaseAllowance",
      "outputs": [
        {
          "internalType": "bool",
          "name": "",
          "type": "bool"
        }
      ],
      "stateMutability": "nonpayable",
      "type": "function"
    },
    {
      "inputs": [],
      "name": "name",
      "outputs": [
        {
          "internalType": "string",
          "name": "",
          "type": "string"
        }
      ],
      "stateMutability": "view",
      "type": "function"
    },
    {
      "inputs": [],
      "name": "owner",
      "outputs": [
        {
          "internalType": "address",
          "name": "",
          "type": "address"
        }
      ],
      "stateMutability": "view",
      "type": "function"
    },
    {
      "inputs": [],
      "name": "renounceOwnership",
      "outputs": [],
      "stateMutability": "nonpayable",
      "type": "function"
    },
    {
      "inputs": [],
      "name": "symbol",
      "outputs": [
        {
          "internalType": "string",
          "name": "",
          "type": "string"
        }
      ],
      "stateMutability": "view",
      "type": "function"
    },
    {
      "inputs": [],
      "name": "totalSupply",
      "outputs": [
        {
          "internalType": "uint256",
          "name": "",
          "type": "uint256"
        }
      ],
      "stateMutability": "view",
      "type": "function"
    },
    {
      "inputs": [
        {
          "internalType": "address",
          "name": "to",
          "type": "address"
        },
        {
          "internalType": "uint256",
          "name": "amount",
          "type": "uint256"
        }
      ],
      "name": "transfer",
      "outputs": [
        {
          "internalType": "bool",
          "name": "",
          "type": "bool"
        }
      ],
      "stateMutability": "nonpayable",
      "type": "function"
    },
    {
      "inputs": [
        {
          "internalType": "address",
          "name": "from",
          "type": "address"
        },
        {
          "internalType": "address",
          "name": "to",
          "type": "address"
        },
        {
          "internalType": "uint256",
          "name": "amount",
          "type": "uint256"
        }
      ],
      "name": "transferFrom",
      "outputs": [
        {
          "internalType": "bool",
          "name": "",
          "type": "bool"
        }
      ],
      "stateMutability": "nonpayable",
      "type": "function"
    },
    {
      "inputs": [
        {
          "internalType": "address",
          "name": "newOwner",
          "type": "address"
        }
      ],
      "name": "transferOwnership",
      "outputs": [],
      "stateMutability": "nonpayable",
      "type": "function"
    },
    {
      "inputs": [
        {
          "internalType": "address",
          "name": "_token",
          "type": "address"
        }
      ],
      "name": "setAddress",
      "outputs": [],
      "stateMutability": "nonpayable",
      "type": "function"
    },
    {
      "inputs": [
        {
          "internalType": "uint256",
          "name": "_noOfPropertyTokens",
          "type": "uint256"
        }
      ],
      "name": "claimPropertyTokens",
      "outputs": [
        {
          "internalType": "bool",
          "name": "",
          "type": "bool"
        }
      ],
      "stateMutability": "nonpayable",
      "type": "function"
    },
    {
      "inputs": [
        {
          "internalType": "uint256",
          "name": "_amount",
          "type": "uint256"
        }
      ],
      "name": "mint",
      "outputs": [],
      "stateMutability": "nonpayable",
      "type": "function"
    },
    {
      "inputs": [
        {
          "internalType": "address",
          "name": "_address",
          "type": "address"
        },
        {
          "internalType": "uint256",
          "name": "_amount",
          "type": "uint256"
        }
      ],
      "name": "_singleAddressTransfer",
      "outputs": [
        {
          "internalType": "bool",
          "name": "",
          "type": "bool"
        }
      ],
      "stateMutability": "nonpayable",
      "type": "function"
    },
    {
      "inputs": [
        {
          "internalType": "address[]",
          "name": "_addresses",
          "type": "address[]"
        },
        {
          "internalType": "uint256",
          "name": "_amount",
          "type": "uint256"
        }
      ],
      "name": "_airdrop",
      "outputs": [
        {
          "internalType": "bool",
          "name": "",
          "type": "bool"
        }
      ],
      "stateMutability": "nonpayable",
      "type": "function"
    },
    {
      "inputs": [
        {
          "internalType": "address",
          "name": "_buyerAddress",
          "type": "address"
        },
        {
          "internalType": "uint256",
          "name": "_noOfPropertyTokens",
          "type": "uint256"
        }
      ],
      "name": "wildCardBurn",
      "outputs": [],
      "stateMutability": "nonpayable",
      "type": "function"
    }
  ],
  "bytecode": "0x60806040523480156200001157600080fd5b50604051620017883803806200178883398101604081905262000034916200025d565b6040518060400160405280600881526020016715da5b1910d85c9960c21b8152506040518060400160405280600381526020016215d0d160ea1b815250816003908162000082919062000342565b50600462000091828262000342565b505050620000ae620000a8620000fd60201b60201c565b62000101565b600680546001600160a01b0319166001600160a01b038316179055620000d5338462000153565b50600780546001600160a01b0319166001600160a01b03929092169190911790555062000435565b3390565b600580546001600160a01b038381166001600160a01b0319831681179093556040519116919082907f8be0079c531659141344cd1fd0a4f28419497f9722a3daafe3b4186f6b6457e090600090a35050565b6001600160a01b038216620001ae5760405162461bcd60e51b815260206004820152601f60248201527f45524332303a206d696e7420746f20746865207a65726f206164647265737300604482015260640160405180910390fd5b8060026000828254620001c291906200040e565b90915550506001600160a01b03821660009081526020819052604081208054839290620001f19084906200040e565b90915550506040518181526001600160a01b038316906000907fddf252ad1be2c89b69c2b068fc378daa952ba7f163c4a11628f55a4df523b3ef9060200160405180910390a35050565b505050565b80516001600160a01b03811681146200025857600080fd5b919050565b6000806000606084860312156200027357600080fd5b83519250620002856020850162000240565b9150620002956040850162000240565b90509250925092565b634e487b7160e01b600052604160045260246000fd5b600181811c90821680620002c957607f821691505b602082108103620002ea57634e487b7160e01b600052602260045260246000fd5b50919050565b601f8211156200023b57600081815260208120601f850160051c81016020861015620003195750805b601f850160051c820191505b818110156200033a5782815560010162000325565b505050505050565b81516001600160401b038111156200035e576200035e6200029e565b62000376816200036f8454620002b4565b84620002f0565b602080601f831160018114620003ae5760008415620003955750858301515b600019600386901b1c1916600185901b1785556200033a565b600085815260208120601f198616915b82811015620003df57888601518255948401946001909101908401620003be565b5085821015620003fe5787850151600019600388901b60f8161c191681555b5050505050600190811b01905550565b600082198211156200043057634e487b7160e01b600052601160045260246000fd5b500190565b61134380620004456000396000f3fe608060405234801561001057600080fd5b50600436106101425760003560e01c80637e070c35116100b8578063a457c2d71161007c578063a457c2d714610297578063a9059cbb146102aa578063dd62ed3e146102bd578063e30081a0146102d0578063f2fde38b14610300578063fe9d1b511461031357600080fd5b80637e070c351461023b57806389d6751a1461024e5780638da5cb5b1461026157806395d89b411461027c578063a0712d681461028457600080fd5b8063313ce5671161010a578063313ce567146101c057806339509351146101cf57806342966c68146101e257806370a08231146101f7578063715018a61461022057806379cc67901461022857600080fd5b806306fdde0314610147578063095ea7b3146101655780630ff6dbdb1461018857806318160ddd1461019b57806323b872dd146101ad575b600080fd5b61014f610326565b60405161015c919061105e565b60405180910390f35b6101786101733660046110cf565b6103b8565b604051901515815260200161015c565b6101786101963660046110cf565b6103d0565b6002545b60405190815260200161015c565b6101786101bb3660046110f9565b6104a6565b6040516012815260200161015c565b6101786101dd3660046110cf565b6104ca565b6101f56101f0366004611135565b6104ec565b005b61019f61020536600461114e565b6001600160a01b031660009081526020819052604090205490565b6101f56104f9565b6101f56102363660046110cf565b61050d565b610178610249366004611135565b610526565b61017861025c366004611170565b61065d565b6005546040516001600160a01b03909116815260200161015c565b61014f610850565b6101f5610292366004611135565b61085f565b6101786102a53660046110cf565b610871565b6101786102b83660046110cf565b6108ec565b61019f6102cb3660046111eb565b6108fa565b6101f56102de36600461114e565b600680546001600160a01b0319166001600160a01b0392909216919091179055565b6101f561030e36600461114e565b610925565b6101f56103213660046110cf565b61099b565b6060600380546103359061121e565b80601f01602080910402602001604051908101604052809291908181526020018280546103619061121e565b80156103ae5780601f10610383576101008083540402835291602001916103ae565b820191906000526020600020905b81548152906001019060200180831161039157829003601f168201915b5050505050905090565b6000336103c6818585610a20565b5060019392505050565b336000908152602081905260408120548281101561044f5760405162461bcd60e51b815260206004820152603160248201527f5472616e7366657220616d6f756e7420657863656564732031303025206f6620604482015270417661696c61626c6520546f6b656e732160781b60648201526084015b60405180910390fd5b61045984846108ec565b50604080516001600160a01b0386168152602081018590527fdc2d3ba549a0db1e652397f3646145050f9578752d701217fee6e2298d26b244910160405180910390a15060019392505050565b6000336104b4858285610b45565b6104bf858585610bbf565b506001949350505050565b6000336103c68185856104dd83836108fa565b6104e7919061126e565b610a20565b6104f63382610d8d565b50565b610501610ed3565b61050b6000610f2d565b565b610518823383610b45565b6105228282610d8d565b5050565b336000908152602081905260408120548211156105855760405162461bcd60e51b815260206004820152601e60248201527f57696c64204361726420546f6b656e7320496e73756666696369656e742100006044820152606401610446565b6006546001600160a01b031661059b338461099b565b6007546040516323b872dd60e01b81526001600160a01b039182166004820152336024820152604481018590526000918316906323b872dd906064016020604051808303816000875af11580156105f6573d6000803e3d6000fd5b505050506040513d601f19601f8201168201806040525081019061061a9190611286565b60408051338152602081018790529192507fb914e5cdd7ac85cf8d2537902ba6ee0c0adb620b22bf6fd3c7bb1cc00a08a218910160405180910390a19392505050565b60008061066a83856112a8565b33600090815260208190526040902054909150818110156106e65760405162461bcd60e51b815260206004820152603060248201527f41697264726f7020616d6f756e7420657863656564732031303025206f66204160448201526f7661696c61626c6520546f6b656e732160801b6064820152608401610446565b60005b85811015610843576000878783818110610705576107056112c7565b905060200201602081019061071a919061114e565b6001600160a01b0316146107c75761075887878381811061073d5761073d6112c7565b9050602002016020810190610752919061114e565b866108ec565b507fc2893dd35610f09037bcc148fda6905e1160b5bf3c96601325e312a480c6496c87878381811061078c5761078c6112c7565b90506020020160208101906107a1919061114e565b604080516001600160a01b039092168252602082018890520160405180910390a1610831565b7f568f0a6416a7f912ee64c8c041fafce73e393764b906d946323f19a4b5c157858787838181106107fa576107fa6112c7565b905060200201602081019061080f919061114e565b604080516001600160a01b039092168252602082018890520160405180910390a15b8061083b816112dd565b9150506106e9565b5060019695505050505050565b6060600480546103359061121e565b610867610ed3565b6104f63382610f7f565b6000338161087f82866108fa565b9050838110156108df5760405162461bcd60e51b815260206004820152602560248201527f45524332303a2064656372656173656420616c6c6f77616e63652062656c6f77604482015264207a65726f60d81b6064820152608401610446565b6104bf8286868403610a20565b6000336103c6818585610bbf565b6001600160a01b03918216600090815260016020908152604080832093909416825291909152205490565b61092d610ed3565b6001600160a01b0381166109925760405162461bcd60e51b815260206004820152602660248201527f4f776e61626c653a206e6577206f776e657220697320746865207a65726f206160448201526564647265737360d01b6064820152608401610446565b6104f681610f2d565b806000036109d85760405162461bcd60e51b815260206004820152600a60248201526904e756d626572203c20360b41b6044820152606401610446565b6001600160a01b0382166105185760405162461bcd60e51b815260206004820152600f60248201526e496e76616c6964204164647265737360881b6044820152606401610446565b6001600160a01b038316610a825760405162461bcd60e51b8152602060048201526024808201527f45524332303a20617070726f76652066726f6d20746865207a65726f206164646044820152637265737360e01b6064820152608401610446565b6001600160a01b038216610ae35760405162461bcd60e51b815260206004820152602260248201527f45524332303a20617070726f766520746f20746865207a65726f206164647265604482015261737360f01b6064820152608401610446565b6001600160a01b0383811660008181526001602090815260408083209487168084529482529182902085905590518481527f8c5be1e5ebec7d5bd14f71427d1e84f3dd0314c0f7b2291e5b200ac8c7c3b92591015b60405180910390a3505050565b6000610b5184846108fa565b90506000198114610bb95781811015610bac5760405162461bcd60e51b815260206004820152601d60248201527f45524332303a20696e73756666696369656e7420616c6c6f77616e63650000006044820152606401610446565b610bb98484848403610a20565b50505050565b6001600160a01b038316610c235760405162461bcd60e51b815260206004820152602560248201527f45524332303a207472616e736665722066726f6d20746865207a65726f206164604482015264647265737360d81b6064820152608401610446565b6001600160a01b038216610c855760405162461bcd60e51b815260206004820152602360248201527f45524332303a207472616e7366657220746f20746865207a65726f206164647260448201526265737360e81b6064820152608401610446565b6001600160a01b03831660009081526020819052604090205481811015610cfd5760405162461bcd60e51b815260206004820152602660248201527f45524332303a207472616e7366657220616d6f756e7420657863656564732062604482015265616c616e636560d01b6064820152608401610446565b6001600160a01b03808516600090815260208190526040808220858503905591851681529081208054849290610d3490849061126e565b92505081905550826001600160a01b0316846001600160a01b03167fddf252ad1be2c89b69c2b068fc378daa952ba7f163c4a11628f55a4df523b3ef84604051610d8091815260200190565b60405180910390a3610bb9565b6001600160a01b038216610ded5760405162461bcd60e51b815260206004820152602160248201527f45524332303a206275726e2066726f6d20746865207a65726f206164647265736044820152607360f81b6064820152608401610446565b6001600160a01b03821660009081526020819052604090205481811015610e615760405162461bcd60e51b815260206004820152602260248201527f45524332303a206275726e20616d6f756e7420657863656564732062616c616e604482015261636560f01b6064820152608401610446565b6001600160a01b0383166000908152602081905260408120838303905560028054849290610e909084906112f6565b90915550506040518281526000906001600160a01b038516907fddf252ad1be2c89b69c2b068fc378daa952ba7f163c4a11628f55a4df523b3ef90602001610b38565b6005546001600160a01b0316331461050b5760405162461bcd60e51b815260206004820181905260248201527f4f776e61626c653a2063616c6c6572206973206e6f7420746865206f776e65726044820152606401610446565b600580546001600160a01b038381166001600160a01b0319831681179093556040519116919082907f8be0079c531659141344cd1fd0a4f28419497f9722a3daafe3b4186f6b6457e090600090a35050565b6001600160a01b038216610fd55760405162461bcd60e51b815260206004820152601f60248201527f45524332303a206d696e7420746f20746865207a65726f2061646472657373006044820152606401610446565b8060026000828254610fe7919061126e565b90915550506001600160a01b0382166000908152602081905260408120805483929061101490849061126e565b90915550506040518181526001600160a01b038316906000907fddf252ad1be2c89b69c2b068fc378daa952ba7f163c4a11628f55a4df523b3ef9060200160405180910390a35050565b600060208083528351808285015260005b8181101561108b5785810183015185820160400152820161106f565b8181111561109d576000604083870101525b50601f01601f1916929092016040019392505050565b80356001600160a01b03811681146110ca57600080fd5b919050565b600080604083850312156110e257600080fd5b6110eb836110b3565b946020939093013593505050565b60008060006060848603121561110e57600080fd5b611117846110b3565b9250611125602085016110b3565b9150604084013590509250925092565b60006020828403121561114757600080fd5b5035919050565b60006020828403121561116057600080fd5b611169826110b3565b9392505050565b60008060006040848603121561118557600080fd5b833567ffffffffffffffff8082111561119d57600080fd5b818601915086601f8301126111b157600080fd5b8135818111156111c057600080fd5b8760208260051b85010111156111d557600080fd5b6020928301989097509590910135949350505050565b600080604083850312156111fe57600080fd5b611207836110b3565b9150611215602084016110b3565b90509250929050565b600181811c9082168061123257607f821691505b60208210810361125257634e487b7160e01b600052602260045260246000fd5b50919050565b634e487b7160e01b600052601160045260246000fd5b6000821982111561128157611281611258565b500190565b60006020828403121561129857600080fd5b8151801515811461116957600080fd5b60008160001904831182151516156112c2576112c2611258565b500290565b634e487b7160e01b600052603260045260246000fd5b6000600182016112ef576112ef611258565b5060010190565b60008282101561130857611308611258565b50039056fea264697066735822122073cc0750ba2aa03fda95ea71c1caa0cfcb7ca731303c91e5ec60a34a9f68205a64736f6c634300080f0033",
  "immutableReferences": {},
  "source": "// SPDX-License-Identifier: MIT\npragma solidity ^0.8.0;\n\nimport '@openzeppelin/contracts/token/ERC20/ERC20.sol';\nimport '@openzeppelin/contracts/token/ERC20/extensions/ERC20Burnable.sol';\nimport '@openzeppelin/contracts/access/Ownable.sol';\nimport '../token/Token.sol';\n\ncontract Wildcard is ERC20, ERC20Burnable, Ownable {\n    // event logs for failed and successful Airdrops\n    event failedAirdrop(address, uint256);\n    event successfulAirdrop(address, uint256);\n    event successfulTransfer(address, uint256);\n    event propertTokenClaim(address, uint256);\n\n    address private propertyToken;\n    address private propertyTokensOwner;\n\n    function setAddress(address _token) external {\n        propertyToken = _token;\n    }\n\n    // deploying the contract by giving the token a name, a symbol,\n    // and minting an initial amount to the owner's wallet\n    constructor(\n        uint256 _initialSupply,\n        address _propertyTokensOwner,\n        address _token\n    ) ERC20('WildCard', 'WCD') {\n        propertyToken = _token;\n        _mint(msg.sender, _initialSupply);\n        propertyTokensOwner = _propertyTokensOwner;\n    }\n\n    function claimPropertyTokens(uint256 _noOfPropertyTokens) external returns (bool) {\n        //check if the user has the required number of Wild Card tokens or not\n        require(balanceOf(msg.sender) >= _noOfPropertyTokens, 'Wild Card Tokens Insufficient!');\n        //create an instance of Property Tokens SC\n        Token property = Token(propertyToken);\n        //burn the equivalent number of Wild Card tokens\n        wildCardBurn(msg.sender, _noOfPropertyTokens);\n        //transfer the Property Tokens\n        bool success = property.transferFrom(propertyTokensOwner, msg.sender, _noOfPropertyTokens);\n        emit propertTokenClaim(msg.sender, _noOfPropertyTokens);\n        return success;\n    }\n\n    // function to mint more tokens when owner is out of balance\n    function mint(uint256 _amount) public onlyOwner {\n        _mint(msg.sender, _amount);\n    }\n\n    // function to airdrop a certain amount of tokens to an address\n\n    function _singleAddressTransfer(address _address, uint256 _amount) public returns (bool) {\n        uint256 totalAvailable = balanceOf(msg.sender);\n        require(\n            // total balance of owner's wallet must suffice\n            // the required amount of tokens for the transfer\n            totalAvailable >= _amount,\n            'Transfer amount exceeds 100% of Available Tokens!'\n        );\n        transfer(_address, _amount);\n        emit successfulTransfer(_address, _amount);\n        return true;\n    }\n\n    // function to airdrop a certain amount of tokens to each address of an array\n\n    function _airdrop(address[] calldata _addresses, uint256 _amount)\n        public\n        returns (\n            /*onlyOwner*/\n            bool\n        )\n    {\n        // total required amount of tokens for a successful airdrop =\n        // number of addresses * amount to be airdropped per address\n        uint256 totalRequired = _addresses.length * _amount;\n        uint256 totalAvailable = balanceOf(msg.sender);\n\n        require(\n            // total balance of owner's wallet must suffice\n            // the required amount of tokens for the airdrop\n            totalAvailable >= totalRequired,\n            'Airdrop amount exceeds 100% of Available Tokens!'\n        );\n\n        // transferring the given amount of tokens to all the addresses\n        for (uint256 i = 0; i < _addresses.length; i++) {\n            // checking if a given address is valid/invalid\n            if (_addresses[i] != address(0)) {\n                // transferring the given amount of tokens to target address\n                // transferFrom(msg.sender, _addresses[i], _amount);\n                transfer(_addresses[i], _amount);\n\n                // event log on successful airdrop\n                emit successfulAirdrop(_addresses[i], _amount);\n            }\n            // event log on failed airdrop\n            else emit failedAirdrop(_addresses[i], _amount);\n        }\n\n        // message at successful completion of airdrop\n        return true;\n    }\n\n    function wildCardBurn(\n        //takes address to burn from\n        address _buyerAddress,\n        //takes number of property tokens claimed\n        uint256 _noOfPropertyTokens\n    ) public {\n        //check for valid inputs\n        require(_noOfPropertyTokens != 0, 'Number < 0');\n        require(_buyerAddress != address(0), 'Invalid Address');\n        //burn the given number of tokens\n        _burn(_buyerAddress, _noOfPropertyTokens);\n    }\n}\n",
  "sourcePath": "/home/mayank/Desktop/security-token-5/Prototype--Craye-Realstate/T-REX/contracts/Wildcard/Wildcard.sol",
  "compiler": {
    "name": "solc",
    "version": "0.8.15+commit.e14f2714.Emscripten.clang"
  },
  "schemaVersion": "3.4.6",
  "updatedAt": "2022-08-03T12:59:44.662Z",
  "devdoc": {
    "kind": "dev",
    "methods": {
      "allowance(address,address)": {
        "details": "See {IERC20-allowance}."
      },
      "approve(address,uint256)": {
        "details": "See {IERC20-approve}. NOTE: If `amount` is the maximum `uint256`, the allowance is not updated on `transferFrom`. This is semantically equivalent to an infinite approval. Requirements: - `spender` cannot be the zero address."
      },
      "balanceOf(address)": {
        "details": "See {IERC20-balanceOf}."
      },
      "burn(uint256)": {
        "details": "Destroys `amount` tokens from the caller. See {ERC20-_burn}."
      },
      "burnFrom(address,uint256)": {
        "details": "Destroys `amount` tokens from `account`, deducting from the caller's allowance. See {ERC20-_burn} and {ERC20-allowance}. Requirements: - the caller must have allowance for ``accounts``'s tokens of at least `amount`."
      },
      "decimals()": {
        "details": "Returns the number of decimals used to get its user representation. For example, if `decimals` equals `2`, a balance of `505` tokens should be displayed to a user as `5.05` (`505 / 10 ** 2`). Tokens usually opt for a value of 18, imitating the relationship between Ether and Wei. This is the value {ERC20} uses, unless this function is overridden; NOTE: This information is only used for _display_ purposes: it in no way affects any of the arithmetic of the contract, including {IERC20-balanceOf} and {IERC20-transfer}."
      },
      "decreaseAllowance(address,uint256)": {
        "details": "Atomically decreases the allowance granted to `spender` by the caller. This is an alternative to {approve} that can be used as a mitigation for problems described in {IERC20-approve}. Emits an {Approval} event indicating the updated allowance. Requirements: - `spender` cannot be the zero address. - `spender` must have allowance for the caller of at least `subtractedValue`."
      },
      "increaseAllowance(address,uint256)": {
        "details": "Atomically increases the allowance granted to `spender` by the caller. This is an alternative to {approve} that can be used as a mitigation for problems described in {IERC20-approve}. Emits an {Approval} event indicating the updated allowance. Requirements: - `spender` cannot be the zero address."
      },
      "name()": {
        "details": "Returns the name of the token."
      },
      "owner()": {
        "details": "Returns the address of the current owner."
      },
      "renounceOwnership()": {
        "details": "Leaves the contract without owner. It will not be possible to call `onlyOwner` functions anymore. Can only be called by the current owner. NOTE: Renouncing ownership will leave the contract without an owner, thereby removing any functionality that is only available to the owner."
      },
      "symbol()": {
        "details": "Returns the symbol of the token, usually a shorter version of the name."
      },
      "totalSupply()": {
        "details": "See {IERC20-totalSupply}."
      },
      "transfer(address,uint256)": {
        "details": "See {IERC20-transfer}. Requirements: - `to` cannot be the zero address. - the caller must have a balance of at least `amount`."
      },
      "transferFrom(address,address,uint256)": {
        "details": "See {IERC20-transferFrom}. Emits an {Approval} event indicating the updated allowance. This is not required by the EIP. See the note at the beginning of {ERC20}. NOTE: Does not update the allowance if the current allowance is the maximum `uint256`. Requirements: - `from` and `to` cannot be the zero address. - `from` must have a balance of at least `amount`. - the caller must have allowance for ``from``'s tokens of at least `amount`."
      },
      "transferOwnership(address)": {
        "details": "Transfers ownership of the contract to a new account (`newOwner`). Can only be called by the current owner."
      }
    },
    "version": 1
  },
  "userdoc": {
    "kind": "user",
    "methods": {},
    "version": 1
  }
}