{
	"contracts/compliance/DefaultCompliance.sol": {
		"DefaultCompliance": {
			"abi": [
				{
					"anonymous": false,
					"inputs": [
						{
							"indexed": true,
							"internalType": "address",
							"name": "previousOwner",
							"type": "address"
						},
						{
							"indexed": true,
							"internalType": "address",
							"name": "newOwner",
							"type": "address"
						}
					],
					"name": "OwnershipTransferred",
					"type": "event"
				},
				{
					"anonymous": false,
					"inputs": [
						{
							"indexed": false,
							"internalType": "address",
							"name": "_agentAddress",
							"type": "address"
						}
					],
					"name": "TokenAgentAdded",
					"type": "event"
				},
				{
					"anonymous": false,
					"inputs": [
						{
							"indexed": false,
							"internalType": "address",
							"name": "_agentAddress",
							"type": "address"
						}
					],
					"name": "TokenAgentRemoved",
					"type": "event"
				},
				{
					"anonymous": false,
					"inputs": [
						{
							"indexed": false,
							"internalType": "address",
							"name": "_token",
							"type": "address"
						}
					],
					"name": "TokenBound",
					"type": "event"
				},
				{
					"anonymous": false,
					"inputs": [
						{
							"indexed": false,
							"internalType": "address",
							"name": "_token",
							"type": "address"
						}
					],
					"name": "TokenUnbound",
					"type": "event"
				},
				{
					"inputs": [
						{
							"internalType": "address",
							"name": "_agentAddress",
							"type": "address"
						}
					],
					"name": "addTokenAgent",
					"outputs": [],
					"stateMutability": "nonpayable",
					"type": "function"
				},
				{
					"inputs": [
						{
							"internalType": "address",
							"name": "_token",
							"type": "address"
						}
					],
					"name": "bindToken",
					"outputs": [],
					"stateMutability": "nonpayable",
					"type": "function"
				},
				{
					"inputs": [
						{
							"internalType": "address",
							"name": "",
							"type": "address"
						},
						{
							"internalType": "address",
							"name": "",
							"type": "address"
						},
						{
							"internalType": "uint256",
							"name": "",
							"type": "uint256"
						}
					],
					"name": "canTransfer",
					"outputs": [
						{
							"internalType": "bool",
							"name": "",
							"type": "bool"
						}
					],
					"stateMutability": "view",
					"type": "function"
				},
				{
					"inputs": [
						{
							"internalType": "address",
							"name": "",
							"type": "address"
						},
						{
							"internalType": "uint256",
							"name": "",
							"type": "uint256"
						}
					],
					"name": "created",
					"outputs": [],
					"stateMutability": "nonpayable",
					"type": "function"
				},
				{
					"inputs": [
						{
							"internalType": "address",
							"name": "",
							"type": "address"
						},
						{
							"internalType": "uint256",
							"name": "",
							"type": "uint256"
						}
					],
					"name": "destroyed",
					"outputs": [],
					"stateMutability": "nonpayable",
					"type": "function"
				},
				{
					"inputs": [
						{
							"internalType": "address",
							"name": "_agentAddress",
							"type": "address"
						}
					],
					"name": "isTokenAgent",
					"outputs": [
						{
							"internalType": "bool",
							"name": "",
							"type": "bool"
						}
					],
					"stateMutability": "view",
					"type": "function"
				},
				{
					"inputs": [
						{
							"internalType": "address",
							"name": "_token",
							"type": "address"
						}
					],
					"name": "isTokenBound",
					"outputs": [
						{
							"internalType": "bool",
							"name": "",
							"type": "bool"
						}
					],
					"stateMutability": "view",
					"type": "function"
				},
				{
					"inputs": [],
					"name": "owner",
					"outputs": [
						{
							"internalType": "address",
							"name": "",
							"type": "address"
						}
					],
					"stateMutability": "view",
					"type": "function"
				},
				{
					"inputs": [
						{
							"internalType": "address",
							"name": "_agentAddress",
							"type": "address"
						}
					],
					"name": "removeTokenAgent",
					"outputs": [],
					"stateMutability": "nonpayable",
					"type": "function"
				},
				{
					"inputs": [],
					"name": "renounceOwnership",
					"outputs": [],
					"stateMutability": "nonpayable",
					"type": "function"
				},
				{
					"inputs": [
						{
							"internalType": "address",
							"name": "newOwner",
							"type": "address"
						}
					],
					"name": "transferOwnership",
					"outputs": [],
					"stateMutability": "nonpayable",
					"type": "function"
				},
				{
					"inputs": [
						{
							"internalType": "address",
							"name": "newOwner",
							"type": "address"
						}
					],
					"name": "transferOwnershipOnComplianceContract",
					"outputs": [],
					"stateMutability": "nonpayable",
					"type": "function"
				},
				{
					"inputs": [
						{
							"internalType": "address",
							"name": "",
							"type": "address"
						},
						{
							"internalType": "address",
							"name": "",
							"type": "address"
						},
						{
							"internalType": "uint256",
							"name": "",
							"type": "uint256"
						}
					],
					"name": "transferred",
					"outputs": [],
					"stateMutability": "nonpayable",
					"type": "function"
				},
				{
					"inputs": [
						{
							"internalType": "address",
							"name": "_token",
							"type": "address"
						}
					],
					"name": "unbindToken",
					"outputs": [],
					"stateMutability": "nonpayable",
					"type": "function"
				}
			],
			"devdoc": {
				"kind": "dev",
				"methods": {
					"addTokenAgent(address)": {
						"details": "See {ICompliance-addTokenAgent}."
					},
					"bindToken(address)": {
						"details": "See {ICompliance-isTokenAgent}."
					},
					"canTransfer(address,address,uint256)": {
						"details": "See {ICompliance-canTransfer}."
					},
					"created(address,uint256)": {
						"details": "See {ICompliance-created}."
					},
					"destroyed(address,uint256)": {
						"details": "See {ICompliance-destroyed}."
					},
					"isTokenAgent(address)": {
						"details": "See {ICompliance-isTokenAgent}."
					},
					"isTokenBound(address)": {
						"details": "See {ICompliance-isTokenBound}."
					},
					"owner()": {
						"details": "Returns the address of the current owner."
					},
					"removeTokenAgent(address)": {
						"details": "See {ICompliance-isTokenAgent}."
					},
					"renounceOwnership()": {
						"details": "Leaves the contract without owner. It will not be possible to call `onlyOwner` functions anymore. Can only be called by the current owner. NOTE: Renouncing ownership will leave the contract without an owner, thereby removing any functionality that is only available to the owner."
					},
					"transferOwnership(address)": {
						"details": "Transfers ownership of the contract to a new account (`newOwner`). Can only be called by the current owner."
					},
					"transferOwnershipOnComplianceContract(address)": {
						"details": "See {ICompliance-transferOwnershipOnComplianceContract}."
					},
					"transferred(address,address,uint256)": {
						"details": "See {ICompliance-transferred}."
					},
					"unbindToken(address)": {
						"details": "See {ICompliance-isTokenAgent}."
					}
				},
				"stateVariables": {
					"_tokenAgentsList": {
						"details": "Mapping between agents and their statuses"
					},
					"_tokensBound": {
						"details": "Mapping of tokens linked to the compliance contract"
					}
				},
				"version": 1
			},
			"evm": {
				"assembly": "    /* \"contracts/compliance/DefaultCompliance.sol\":1202:4056  contract DefaultCompliance is ICompliance, Ownable {... */\n  mstore(0x40, 0x80)\n  callvalue\n  dup1\n  iszero\n  tag_1\n  jumpi\n  0x00\n  dup1\n  revert\ntag_1:\n  pop\n    /* \"@openzeppelin/contracts/access/Ownable.sol\":936:968  _transferOwnership(_msgSender()) */\n  tag_4\n    /* \"@openzeppelin/contracts/access/Ownable.sol\":955:967  _msgSender() */\n  tag_5\n    /* \"@openzeppelin/contracts/access/Ownable.sol\":955:965  _msgSender */\n  shl(0x20, tag_6)\n    /* \"@openzeppelin/contracts/access/Ownable.sol\":955:967  _msgSender() */\n  0x20\n  shr\n  jump\t// in\ntag_5:\n    /* \"@openzeppelin/contracts/access/Ownable.sol\":936:954  _transferOwnership */\n  shl(0x20, tag_7)\n    /* \"@openzeppelin/contracts/access/Ownable.sol\":936:968  _transferOwnership(_msgSender()) */\n  0x20\n  shr\n  jump\t// in\ntag_4:\n    /* \"contracts/compliance/DefaultCompliance.sol\":1202:4056  contract DefaultCompliance is ICompliance, Ownable {... */\n  jump(tag_8)\n    /* \"@openzeppelin/contracts/utils/Context.sol\":640:736  function _msgSender() internal view virtual returns (address) {... */\ntag_6:\n    /* \"@openzeppelin/contracts/utils/Context.sol\":693:700  address */\n  0x00\n    /* \"@openzeppelin/contracts/utils/Context.sol\":719:729  msg.sender */\n  caller\n    /* \"@openzeppelin/contracts/utils/Context.sol\":712:729  return msg.sender */\n  swap1\n  pop\n    /* \"@openzeppelin/contracts/utils/Context.sol\":640:736  function _msgSender() internal view virtual returns (address) {... */\n  swap1\n  jump\t// out\n    /* \"@openzeppelin/contracts/access/Ownable.sol\":2433:2620  function _transferOwnership(address newOwner) internal virtual {... */\ntag_7:\n    /* \"@openzeppelin/contracts/access/Ownable.sol\":2506:2522  address oldOwner */\n  0x00\n    /* \"@openzeppelin/contracts/access/Ownable.sol\":2525:2531  _owner */\n  dup1\n  0x00\n  swap1\n  sload\n  swap1\n  0x0100\n  exp\n  swap1\n  div\n  0xffffffffffffffffffffffffffffffffffffffff\n  and\n    /* \"@openzeppelin/contracts/access/Ownable.sol\":2506:2531  address oldOwner = _owner */\n  swap1\n  pop\n    /* \"@openzeppelin/contracts/access/Ownable.sol\":2550:2558  newOwner */\n  dup2\n    /* \"@openzeppelin/contracts/access/Ownable.sol\":2541:2547  _owner */\n  0x00\n  dup1\n    /* \"@openzeppelin/contracts/access/Ownable.sol\":2541:2558  _owner = newOwner */\n  0x0100\n  exp\n  dup2\n  sload\n  dup2\n  0xffffffffffffffffffffffffffffffffffffffff\n  mul\n  not\n  and\n  swap1\n  dup4\n  0xffffffffffffffffffffffffffffffffffffffff\n  and\n  mul\n  or\n  swap1\n  sstore\n  pop\n    /* \"@openzeppelin/contracts/access/Ownable.sol\":2604:2612  newOwner */\n  dup2\n    /* \"@openzeppelin/contracts/access/Ownable.sol\":2573:2613  OwnershipTransferred(oldOwner, newOwner) */\n  0xffffffffffffffffffffffffffffffffffffffff\n  and\n    /* \"@openzeppelin/contracts/access/Ownable.sol\":2594:2602  oldOwner */\n  dup2\n    /* \"@openzeppelin/contracts/access/Ownable.sol\":2573:2613  OwnershipTransferred(oldOwner, newOwner) */\n  0xffffffffffffffffffffffffffffffffffffffff\n  and\n  0x8be0079c531659141344cd1fd0a4f28419497f9722a3daafe3b4186f6b6457e0\n  mload(0x40)\n  mload(0x40)\n  dup1\n  swap2\n  sub\n  swap1\n  log3\n    /* \"@openzeppelin/contracts/access/Ownable.sol\":2496:2620  {... */\n  pop\n    /* \"@openzeppelin/contracts/access/Ownable.sol\":2433:2620  function _transferOwnership(address newOwner) internal virtual {... */\n  pop\n  jump\t// out\n    /* \"contracts/compliance/DefaultCompliance.sol\":1202:4056  contract DefaultCompliance is ICompliance, Ownable {... */\ntag_8:\n  dataSize(sub_0)\n  dup1\n  dataOffset(sub_0)\n  0x00\n  codecopy\n  0x00\n  return\nstop\n\nsub_0: assembly {\n        /* \"contracts/compliance/DefaultCompliance.sol\":1202:4056  contract DefaultCompliance is ICompliance, Ownable {... */\n      mstore(0x40, 0x80)\n      callvalue\n      dup1\n      iszero\n      tag_1\n      jumpi\n      0x00\n      dup1\n      revert\n    tag_1:\n      pop\n      jumpi(tag_2, lt(calldatasize, 0x04))\n      shr(0xe0, calldataload(0x00))\n      dup1\n      0x8d2ea772\n      gt\n      tag_17\n      jumpi\n      dup1\n      0xcdde2932\n      gt\n      tag_18\n      jumpi\n      dup1\n      0xcdde2932\n      eq\n      tag_13\n      jumpi\n      dup1\n      0xe46638e6\n      eq\n      tag_14\n      jumpi\n      dup1\n      0xf2fde38b\n      eq\n      tag_15\n      jumpi\n      dup1\n      0xff3e6954\n      eq\n      tag_16\n      jumpi\n      jump(tag_2)\n    tag_18:\n      dup1\n      0x8d2ea772\n      eq\n      tag_10\n      jumpi\n      dup1\n      0x8da5cb5b\n      eq\n      tag_11\n      jumpi\n      dup1\n      0x993e8b95\n      eq\n      tag_12\n      jumpi\n      jump(tag_2)\n    tag_17:\n      dup1\n      0x5f8dead3\n      gt\n      tag_19\n      jumpi\n      dup1\n      0x5f8dead3\n      eq\n      tag_6\n      jumpi\n      dup1\n      0x715018a6\n      eq\n      tag_7\n      jumpi\n      dup1\n      0x7bcf0487\n      eq\n      tag_8\n      jumpi\n      dup1\n      0x8baf29b4\n      eq\n      tag_9\n      jumpi\n      jump(tag_2)\n    tag_19:\n      dup1\n      0x346531fa\n      eq\n      tag_3\n      jumpi\n      dup1\n      0x3ff5aa02\n      eq\n      tag_4\n      jumpi\n      dup1\n      0x40db3b50\n      eq\n      tag_5\n      jumpi\n    tag_2:\n      0x00\n      dup1\n      revert\n        /* \"contracts/compliance/DefaultCompliance.sol\":1548:1686  function isTokenAgent(address _agentAddress) public view override returns (bool) {... */\n    tag_3:\n      tag_20\n      0x04\n      dup1\n      calldatasize\n      sub\n      dup2\n      add\n      swap1\n      tag_21\n      swap2\n      swap1\n      tag_22\n      jump\t// in\n    tag_21:\n      tag_23\n      jump\t// in\n    tag_20:\n      mload(0x40)\n      tag_24\n      swap2\n      swap1\n      tag_25\n      jump\t// in\n    tag_24:\n      mload(0x40)\n      dup1\n      swap2\n      sub\n      swap1\n      return\n        /* \"contracts/compliance/DefaultCompliance.sol\":2602:2813  function bindToken(address _token) external override onlyOwner {... */\n    tag_4:\n      tag_26\n      0x04\n      dup1\n      calldatasize\n      sub\n      dup2\n      add\n      swap1\n      tag_27\n      swap2\n      swap1\n      tag_22\n      jump\t// in\n    tag_27:\n      tag_28\n      jump\t// in\n    tag_26:\n      stop\n        /* \"contracts/compliance/DefaultCompliance.sol\":2880:3095  function unbindToken(address _token) external override onlyOwner {... */\n    tag_5:\n      tag_29\n      0x04\n      dup1\n      calldatasize\n      sub\n      dup2\n      add\n      swap1\n      tag_30\n      swap2\n      swap1\n      tag_22\n      jump\t// in\n    tag_30:\n      tag_31\n      jump\t// in\n    tag_29:\n      stop\n        /* \"contracts/compliance/DefaultCompliance.sol\":3601:3679  function created(address /* _to */, uint256 /* _value */) external override {} */\n    tag_6:\n      tag_32\n      0x04\n      dup1\n      calldatasize\n      sub\n      dup2\n      add\n      swap1\n      tag_33\n      swap2\n      swap1\n      tag_34\n      jump\t// in\n    tag_33:\n      tag_35\n      jump\t// in\n    tag_32:\n      stop\n        /* \"@openzeppelin/contracts/access/Ownable.sol\":1831:1932  function renounceOwnership() public virtual onlyOwner {... */\n    tag_7:\n      tag_36\n      tag_37\n      jump\t// in\n    tag_36:\n      stop\n        /* \"contracts/compliance/DefaultCompliance.sol\":3917:4054  function transferOwnershipOnComplianceContract(address newOwner) external override onlyOwner {... */\n    tag_8:\n      tag_38\n      0x04\n      dup1\n      calldatasize\n      sub\n      dup2\n      add\n      swap1\n      tag_39\n      swap2\n      swap1\n      tag_22\n      jump\t// in\n    tag_39:\n      tag_40\n      jump\t// in\n    tag_38:\n      stop\n        /* \"contracts/compliance/DefaultCompliance.sol\":3406:3539  function transferred(... */\n    tag_9:\n      tag_41\n      0x04\n      dup1\n      calldatasize\n      sub\n      dup2\n      add\n      swap1\n      tag_42\n      swap2\n      swap1\n      tag_43\n      jump\t// in\n    tag_42:\n      tag_44\n      jump\t// in\n    tag_41:\n      stop\n        /* \"contracts/compliance/DefaultCompliance.sol\":3743:3825  function destroyed(address /* _from */, uint256 /* _value */) external override {} */\n    tag_10:\n      tag_45\n      0x04\n      dup1\n      calldatasize\n      sub\n      dup2\n      add\n      swap1\n      tag_46\n      swap2\n      swap1\n      tag_34\n      jump\t// in\n    tag_46:\n      tag_47\n      jump\t// in\n    tag_45:\n      stop\n        /* \"@openzeppelin/contracts/access/Ownable.sol\":1201:1286  function owner() public view virtual returns (address) {... */\n    tag_11:\n      tag_48\n      tag_49\n      jump\t// in\n    tag_48:\n      mload(0x40)\n      tag_50\n      swap2\n      swap1\n      tag_51\n      jump\t// in\n    tag_50:\n      mload(0x40)\n      dup1\n      swap2\n      sub\n      swap1\n      return\n        /* \"contracts/compliance/DefaultCompliance.sol\":1753:1873  function isTokenBound(address _token) public view override returns (bool) {... */\n    tag_12:\n      tag_52\n      0x04\n      dup1\n      calldatasize\n      sub\n      dup2\n      add\n      swap1\n      tag_53\n      swap2\n      swap1\n      tag_22\n      jump\t// in\n    tag_53:\n      tag_54\n      jump\t// in\n    tag_52:\n      mload(0x40)\n      tag_55\n      swap2\n      swap1\n      tag_25\n      jump\t// in\n    tag_55:\n      mload(0x40)\n      dup1\n      swap2\n      sub\n      swap1\n      return\n        /* \"contracts/compliance/DefaultCompliance.sol\":2269:2535  function removeTokenAgent(address _agentAddress) external override onlyOwner {... */\n    tag_13:\n      tag_56\n      0x04\n      dup1\n      calldatasize\n      sub\n      dup2\n      add\n      swap1\n      tag_57\n      swap2\n      swap1\n      tag_22\n      jump\t// in\n    tag_57:\n      tag_58\n      jump\t// in\n    tag_56:\n      stop\n        /* \"contracts/compliance/DefaultCompliance.sol\":3161:3340  function canTransfer(... */\n    tag_14:\n      tag_59\n      0x04\n      dup1\n      calldatasize\n      sub\n      dup2\n      add\n      swap1\n      tag_60\n      swap2\n      swap1\n      tag_43\n      jump\t// in\n    tag_60:\n      tag_61\n      jump\t// in\n    tag_59:\n      mload(0x40)\n      tag_62\n      swap2\n      swap1\n      tag_25\n      jump\t// in\n    tag_62:\n      mload(0x40)\n      dup1\n      swap2\n      sub\n      swap1\n      return\n        /* \"@openzeppelin/contracts/access/Ownable.sol\":2081:2279  function transferOwnership(address newOwner) public virtual onlyOwner {... */\n    tag_15:\n      tag_63\n      0x04\n      dup1\n      calldatasize\n      sub\n      dup2\n      add\n      swap1\n      tag_64\n      swap2\n      swap1\n      tag_22\n      jump\t// in\n    tag_64:\n      tag_65\n      jump\t// in\n    tag_63:\n      stop\n        /* \"contracts/compliance/DefaultCompliance.sol\":1941:2202  function addTokenAgent(address _agentAddress) external override onlyOwner {... */\n    tag_16:\n      tag_66\n      0x04\n      dup1\n      calldatasize\n      sub\n      dup2\n      add\n      swap1\n      tag_67\n      swap2\n      swap1\n      tag_22\n      jump\t// in\n    tag_67:\n      tag_68\n      jump\t// in\n    tag_66:\n      stop\n        /* \"contracts/compliance/DefaultCompliance.sol\":1548:1686  function isTokenAgent(address _agentAddress) public view override returns (bool) {... */\n    tag_23:\n        /* \"contracts/compliance/DefaultCompliance.sol\":1623:1627  bool */\n      0x00\n        /* \"contracts/compliance/DefaultCompliance.sol\":1647:1663  _tokenAgentsList */\n      0x01\n        /* \"contracts/compliance/DefaultCompliance.sol\":1647:1678  _tokenAgentsList[_agentAddress] */\n      0x00\n        /* \"contracts/compliance/DefaultCompliance.sol\":1664:1677  _agentAddress */\n      dup4\n        /* \"contracts/compliance/DefaultCompliance.sol\":1647:1678  _tokenAgentsList[_agentAddress] */\n      0xffffffffffffffffffffffffffffffffffffffff\n      and\n      0xffffffffffffffffffffffffffffffffffffffff\n      and\n      dup2\n      mstore\n      0x20\n      add\n      swap1\n      dup2\n      mstore\n      0x20\n      add\n      0x00\n      keccak256\n      0x00\n      swap1\n      sload\n      swap1\n      0x0100\n      exp\n      swap1\n      div\n      0xff\n      and\n        /* \"contracts/compliance/DefaultCompliance.sol\":1639:1679  return (_tokenAgentsList[_agentAddress]) */\n      swap1\n      pop\n        /* \"contracts/compliance/DefaultCompliance.sol\":1548:1686  function isTokenAgent(address _agentAddress) public view override returns (bool) {... */\n      swap2\n      swap1\n      pop\n      jump\t// out\n        /* \"contracts/compliance/DefaultCompliance.sol\":2602:2813  function bindToken(address _token) external override onlyOwner {... */\n    tag_28:\n        /* \"@openzeppelin/contracts/access/Ownable.sol\":1094:1107  _checkOwner() */\n      tag_71\n        /* \"@openzeppelin/contracts/access/Ownable.sol\":1094:1105  _checkOwner */\n      tag_72\n        /* \"@openzeppelin/contracts/access/Ownable.sol\":1094:1107  _checkOwner() */\n      jump\t// in\n    tag_71:\n        /* \"contracts/compliance/DefaultCompliance.sol\":2684:2696  _tokensBound */\n      0x02\n        /* \"contracts/compliance/DefaultCompliance.sol\":2684:2704  _tokensBound[_token] */\n      0x00\n        /* \"contracts/compliance/DefaultCompliance.sol\":2697:2703  _token */\n      dup3\n        /* \"contracts/compliance/DefaultCompliance.sol\":2684:2704  _tokensBound[_token] */\n      0xffffffffffffffffffffffffffffffffffffffff\n      and\n      0xffffffffffffffffffffffffffffffffffffffff\n      and\n      dup2\n      mstore\n      0x20\n      add\n      swap1\n      dup2\n      mstore\n      0x20\n      add\n      0x00\n      keccak256\n      0x00\n      swap1\n      sload\n      swap1\n      0x0100\n      exp\n      swap1\n      div\n      0xff\n      and\n        /* \"contracts/compliance/DefaultCompliance.sol\":2683:2704  !_tokensBound[_token] */\n      iszero\n        /* \"contracts/compliance/DefaultCompliance.sol\":2675:2736  require(!_tokensBound[_token], 'This token is already bound') */\n      tag_74\n      jumpi\n      mload(0x40)\n      0x08c379a000000000000000000000000000000000000000000000000000000000\n      dup2\n      mstore\n      0x04\n      add\n      tag_75\n      swap1\n      tag_76\n      jump\t// in\n    tag_75:\n      mload(0x40)\n      dup1\n      swap2\n      sub\n      swap1\n      revert\n    tag_74:\n        /* \"contracts/compliance/DefaultCompliance.sol\":2769:2773  true */\n      0x01\n        /* \"contracts/compliance/DefaultCompliance.sol\":2746:2758  _tokensBound */\n      0x02\n        /* \"contracts/compliance/DefaultCompliance.sol\":2746:2766  _tokensBound[_token] */\n      0x00\n        /* \"contracts/compliance/DefaultCompliance.sol\":2759:2765  _token */\n      dup4\n        /* \"contracts/compliance/DefaultCompliance.sol\":2746:2766  _tokensBound[_token] */\n      0xffffffffffffffffffffffffffffffffffffffff\n      and\n      0xffffffffffffffffffffffffffffffffffffffff\n      and\n      dup2\n      mstore\n      0x20\n      add\n      swap1\n      dup2\n      mstore\n      0x20\n      add\n      0x00\n      keccak256\n      0x00\n        /* \"contracts/compliance/DefaultCompliance.sol\":2746:2773  _tokensBound[_token] = true */\n      0x0100\n      exp\n      dup2\n      sload\n      dup2\n      0xff\n      mul\n      not\n      and\n      swap1\n      dup4\n      iszero\n      iszero\n      mul\n      or\n      swap1\n      sstore\n      pop\n        /* \"contracts/compliance/DefaultCompliance.sol\":2788:2806  TokenBound(_token) */\n      0x2de35142b19ed5a07796cf30791959c592018f70b1d2d7c460eef8ffe713692b\n        /* \"contracts/compliance/DefaultCompliance.sol\":2799:2805  _token */\n      dup2\n        /* \"contracts/compliance/DefaultCompliance.sol\":2788:2806  TokenBound(_token) */\n      mload(0x40)\n      tag_77\n      swap2\n      swap1\n      tag_51\n      jump\t// in\n    tag_77:\n      mload(0x40)\n      dup1\n      swap2\n      sub\n      swap1\n      log1\n        /* \"contracts/compliance/DefaultCompliance.sol\":2602:2813  function bindToken(address _token) external override onlyOwner {... */\n      pop\n      jump\t// out\n        /* \"contracts/compliance/DefaultCompliance.sol\":2880:3095  function unbindToken(address _token) external override onlyOwner {... */\n    tag_31:\n        /* \"@openzeppelin/contracts/access/Ownable.sol\":1094:1107  _checkOwner() */\n      tag_79\n        /* \"@openzeppelin/contracts/access/Ownable.sol\":1094:1105  _checkOwner */\n      tag_72\n        /* \"@openzeppelin/contracts/access/Ownable.sol\":1094:1107  _checkOwner() */\n      jump\t// in\n    tag_79:\n        /* \"contracts/compliance/DefaultCompliance.sol\":2963:2975  _tokensBound */\n      0x02\n        /* \"contracts/compliance/DefaultCompliance.sol\":2963:2983  _tokensBound[_token] */\n      0x00\n        /* \"contracts/compliance/DefaultCompliance.sol\":2976:2982  _token */\n      dup3\n        /* \"contracts/compliance/DefaultCompliance.sol\":2963:2983  _tokensBound[_token] */\n      0xffffffffffffffffffffffffffffffffffffffff\n      and\n      0xffffffffffffffffffffffffffffffffffffffff\n      and\n      dup2\n      mstore\n      0x20\n      add\n      swap1\n      dup2\n      mstore\n      0x20\n      add\n      0x00\n      keccak256\n      0x00\n      swap1\n      sload\n      swap1\n      0x0100\n      exp\n      swap1\n      div\n      0xff\n      and\n        /* \"contracts/compliance/DefaultCompliance.sol\":2955:3015  require(_tokensBound[_token], 'This token is not bound yet') */\n      tag_81\n      jumpi\n      mload(0x40)\n      0x08c379a000000000000000000000000000000000000000000000000000000000\n      dup2\n      mstore\n      0x04\n      add\n      tag_82\n      swap1\n      tag_83\n      jump\t// in\n    tag_82:\n      mload(0x40)\n      dup1\n      swap2\n      sub\n      swap1\n      revert\n    tag_81:\n        /* \"contracts/compliance/DefaultCompliance.sol\":3048:3053  false */\n      0x00\n        /* \"contracts/compliance/DefaultCompliance.sol\":3025:3037  _tokensBound */\n      0x02\n        /* \"contracts/compliance/DefaultCompliance.sol\":3025:3045  _tokensBound[_token] */\n      0x00\n        /* \"contracts/compliance/DefaultCompliance.sol\":3038:3044  _token */\n      dup4\n        /* \"contracts/compliance/DefaultCompliance.sol\":3025:3045  _tokensBound[_token] */\n      0xffffffffffffffffffffffffffffffffffffffff\n      and\n      0xffffffffffffffffffffffffffffffffffffffff\n      and\n      dup2\n      mstore\n      0x20\n      add\n      swap1\n      dup2\n      mstore\n      0x20\n      add\n      0x00\n      keccak256\n      0x00\n        /* \"contracts/compliance/DefaultCompliance.sol\":3025:3053  _tokensBound[_token] = false */\n      0x0100\n      exp\n      dup2\n      sload\n      dup2\n      0xff\n      mul\n      not\n      and\n      swap1\n      dup4\n      iszero\n      iszero\n      mul\n      or\n      swap1\n      sstore\n      pop\n        /* \"contracts/compliance/DefaultCompliance.sol\":3068:3088  TokenUnbound(_token) */\n      0x28a4ca7134a3b3f9aff286e79ad3daadb4a06d1b43d037a3a98bdc074edd9b7a\n        /* \"contracts/compliance/DefaultCompliance.sol\":3081:3087  _token */\n      dup2\n        /* \"contracts/compliance/DefaultCompliance.sol\":3068:3088  TokenUnbound(_token) */\n      mload(0x40)\n      tag_84\n      swap2\n      swap1\n      tag_51\n      jump\t// in\n    tag_84:\n      mload(0x40)\n      dup1\n      swap2\n      sub\n      swap1\n      log1\n        /* \"contracts/compliance/DefaultCompliance.sol\":2880:3095  function unbindToken(address _token) external override onlyOwner {... */\n      pop\n      jump\t// out\n        /* \"contracts/compliance/DefaultCompliance.sol\":3601:3679  function created(address /* _to */, uint256 /* _value */) external override {} */\n    tag_35:\n      pop\n      pop\n      jump\t// out\n        /* \"@openzeppelin/contracts/access/Ownable.sol\":1831:1932  function renounceOwnership() public virtual onlyOwner {... */\n    tag_37:\n        /* \"@openzeppelin/contracts/access/Ownable.sol\":1094:1107  _checkOwner() */\n      tag_87\n        /* \"@openzeppelin/contracts/access/Ownable.sol\":1094:1105  _checkOwner */\n      tag_72\n        /* \"@openzeppelin/contracts/access/Ownable.sol\":1094:1107  _checkOwner() */\n      jump\t// in\n    tag_87:\n        /* \"@openzeppelin/contracts/access/Ownable.sol\":1895:1925  _transferOwnership(address(0)) */\n      tag_89\n        /* \"@openzeppelin/contracts/access/Ownable.sol\":1922:1923  0 */\n      0x00\n        /* \"@openzeppelin/contracts/access/Ownable.sol\":1895:1913  _transferOwnership */\n      tag_90\n        /* \"@openzeppelin/contracts/access/Ownable.sol\":1895:1925  _transferOwnership(address(0)) */\n      jump\t// in\n    tag_89:\n        /* \"@openzeppelin/contracts/access/Ownable.sol\":1831:1932  function renounceOwnership() public virtual onlyOwner {... */\n      jump\t// out\n        /* \"contracts/compliance/DefaultCompliance.sol\":3917:4054  function transferOwnershipOnComplianceContract(address newOwner) external override onlyOwner {... */\n    tag_40:\n        /* \"@openzeppelin/contracts/access/Ownable.sol\":1094:1107  _checkOwner() */\n      tag_92\n        /* \"@openzeppelin/contracts/access/Ownable.sol\":1094:1105  _checkOwner */\n      tag_72\n        /* \"@openzeppelin/contracts/access/Ownable.sol\":1094:1107  _checkOwner() */\n      jump\t// in\n    tag_92:\n        /* \"contracts/compliance/DefaultCompliance.sol\":4020:4047  transferOwnership(newOwner) */\n      tag_94\n        /* \"contracts/compliance/DefaultCompliance.sol\":4038:4046  newOwner */\n      dup2\n        /* \"contracts/compliance/DefaultCompliance.sol\":4020:4037  transferOwnership */\n      tag_65\n        /* \"contracts/compliance/DefaultCompliance.sol\":4020:4047  transferOwnership(newOwner) */\n      jump\t// in\n    tag_94:\n        /* \"contracts/compliance/DefaultCompliance.sol\":3917:4054  function transferOwnershipOnComplianceContract(address newOwner) external override onlyOwner {... */\n      pop\n      jump\t// out\n        /* \"contracts/compliance/DefaultCompliance.sol\":3406:3539  function transferred(... */\n    tag_44:\n      pop\n      pop\n      pop\n      jump\t// out\n        /* \"contracts/compliance/DefaultCompliance.sol\":3743:3825  function destroyed(address /* _from */, uint256 /* _value */) external override {} */\n    tag_47:\n      pop\n      pop\n      jump\t// out\n        /* \"@openzeppelin/contracts/access/Ownable.sol\":1201:1286  function owner() public view virtual returns (address) {... */\n    tag_49:\n        /* \"@openzeppelin/contracts/access/Ownable.sol\":1247:1254  address */\n      0x00\n        /* \"@openzeppelin/contracts/access/Ownable.sol\":1273:1279  _owner */\n      dup1\n      0x00\n      swap1\n      sload\n      swap1\n      0x0100\n      exp\n      swap1\n      div\n      0xffffffffffffffffffffffffffffffffffffffff\n      and\n        /* \"@openzeppelin/contracts/access/Ownable.sol\":1266:1279  return _owner */\n      swap1\n      pop\n        /* \"@openzeppelin/contracts/access/Ownable.sol\":1201:1286  function owner() public view virtual returns (address) {... */\n      swap1\n      jump\t// out\n        /* \"contracts/compliance/DefaultCompliance.sol\":1753:1873  function isTokenBound(address _token) public view override returns (bool) {... */\n    tag_54:\n        /* \"contracts/compliance/DefaultCompliance.sol\":1821:1825  bool */\n      0x00\n        /* \"contracts/compliance/DefaultCompliance.sol\":1845:1857  _tokensBound */\n      0x02\n        /* \"contracts/compliance/DefaultCompliance.sol\":1845:1865  _tokensBound[_token] */\n      0x00\n        /* \"contracts/compliance/DefaultCompliance.sol\":1858:1864  _token */\n      dup4\n        /* \"contracts/compliance/DefaultCompliance.sol\":1845:1865  _tokensBound[_token] */\n      0xffffffffffffffffffffffffffffffffffffffff\n      and\n      0xffffffffffffffffffffffffffffffffffffffff\n      and\n      dup2\n      mstore\n      0x20\n      add\n      swap1\n      dup2\n      mstore\n      0x20\n      add\n      0x00\n      keccak256\n      0x00\n      swap1\n      sload\n      swap1\n      0x0100\n      exp\n      swap1\n      div\n      0xff\n      and\n        /* \"contracts/compliance/DefaultCompliance.sol\":1837:1866  return (_tokensBound[_token]) */\n      swap1\n      pop\n        /* \"contracts/compliance/DefaultCompliance.sol\":1753:1873  function isTokenBound(address _token) public view override returns (bool) {... */\n      swap2\n      swap1\n      pop\n      jump\t// out\n        /* \"contracts/compliance/DefaultCompliance.sol\":2269:2535  function removeTokenAgent(address _agentAddress) external override onlyOwner {... */\n    tag_58:\n        /* \"@openzeppelin/contracts/access/Ownable.sol\":1094:1107  _checkOwner() */\n      tag_100\n        /* \"@openzeppelin/contracts/access/Ownable.sol\":1094:1105  _checkOwner */\n      tag_72\n        /* \"@openzeppelin/contracts/access/Ownable.sol\":1094:1107  _checkOwner() */\n      jump\t// in\n    tag_100:\n        /* \"contracts/compliance/DefaultCompliance.sol\":2364:2380  _tokenAgentsList */\n      0x01\n        /* \"contracts/compliance/DefaultCompliance.sol\":2364:2395  _tokenAgentsList[_agentAddress] */\n      0x00\n        /* \"contracts/compliance/DefaultCompliance.sol\":2381:2394  _agentAddress */\n      dup3\n        /* \"contracts/compliance/DefaultCompliance.sol\":2364:2395  _tokenAgentsList[_agentAddress] */\n      0xffffffffffffffffffffffffffffffffffffffff\n      and\n      0xffffffffffffffffffffffffffffffffffffffff\n      and\n      dup2\n      mstore\n      0x20\n      add\n      swap1\n      dup2\n      mstore\n      0x20\n      add\n      0x00\n      keccak256\n      0x00\n      swap1\n      sload\n      swap1\n      0x0100\n      exp\n      swap1\n      div\n      0xff\n      and\n        /* \"contracts/compliance/DefaultCompliance.sol\":2356:2432  require(_tokenAgentsList[_agentAddress], 'This Agent is not registered yet') */\n      tag_102\n      jumpi\n      mload(0x40)\n      0x08c379a000000000000000000000000000000000000000000000000000000000\n      dup2\n      mstore\n      0x04\n      add\n      tag_103\n      swap1\n      tag_104\n      jump\t// in\n    tag_103:\n      mload(0x40)\n      dup1\n      swap2\n      sub\n      swap1\n      revert\n    tag_102:\n        /* \"contracts/compliance/DefaultCompliance.sol\":2476:2481  false */\n      0x00\n        /* \"contracts/compliance/DefaultCompliance.sol\":2442:2458  _tokenAgentsList */\n      0x01\n        /* \"contracts/compliance/DefaultCompliance.sol\":2442:2473  _tokenAgentsList[_agentAddress] */\n      0x00\n        /* \"contracts/compliance/DefaultCompliance.sol\":2459:2472  _agentAddress */\n      dup4\n        /* \"contracts/compliance/DefaultCompliance.sol\":2442:2473  _tokenAgentsList[_agentAddress] */\n      0xffffffffffffffffffffffffffffffffffffffff\n      and\n      0xffffffffffffffffffffffffffffffffffffffff\n      and\n      dup2\n      mstore\n      0x20\n      add\n      swap1\n      dup2\n      mstore\n      0x20\n      add\n      0x00\n      keccak256\n      0x00\n        /* \"contracts/compliance/DefaultCompliance.sol\":2442:2481  _tokenAgentsList[_agentAddress] = false */\n      0x0100\n      exp\n      dup2\n      sload\n      dup2\n      0xff\n      mul\n      not\n      and\n      swap1\n      dup4\n      iszero\n      iszero\n      mul\n      or\n      swap1\n      sstore\n      pop\n        /* \"contracts/compliance/DefaultCompliance.sol\":2496:2528  TokenAgentRemoved(_agentAddress) */\n      0x6a659bb87bb23efbdc295f8eed8ae8c4379bfb77660ced2ef0f3d7d26b05c6a6\n        /* \"contracts/compliance/DefaultCompliance.sol\":2514:2527  _agentAddress */\n      dup2\n        /* \"contracts/compliance/DefaultCompliance.sol\":2496:2528  TokenAgentRemoved(_agentAddress) */\n      mload(0x40)\n      tag_105\n      swap2\n      swap1\n      tag_51\n      jump\t// in\n    tag_105:\n      mload(0x40)\n      dup1\n      swap2\n      sub\n      swap1\n      log1\n        /* \"contracts/compliance/DefaultCompliance.sol\":2269:2535  function removeTokenAgent(address _agentAddress) external override onlyOwner {... */\n      pop\n      jump\t// out\n        /* \"contracts/compliance/DefaultCompliance.sol\":3161:3340  function canTransfer(... */\n    tag_61:\n        /* \"contracts/compliance/DefaultCompliance.sol\":3306:3310  bool */\n      0x00\n        /* \"contracts/compliance/DefaultCompliance.sol\":3329:3333  true */\n      0x01\n        /* \"contracts/compliance/DefaultCompliance.sol\":3322:3333  return true */\n      swap1\n      pop\n        /* \"contracts/compliance/DefaultCompliance.sol\":3161:3340  function canTransfer(... */\n      swap4\n      swap3\n      pop\n      pop\n      pop\n      jump\t// out\n        /* \"@openzeppelin/contracts/access/Ownable.sol\":2081:2279  function transferOwnership(address newOwner) public virtual onlyOwner {... */\n    tag_65:\n        /* \"@openzeppelin/contracts/access/Ownable.sol\":1094:1107  _checkOwner() */\n      tag_108\n        /* \"@openzeppelin/contracts/access/Ownable.sol\":1094:1105  _checkOwner */\n      tag_72\n        /* \"@openzeppelin/contracts/access/Ownable.sol\":1094:1107  _checkOwner() */\n      jump\t// in\n    tag_108:\n        /* \"@openzeppelin/contracts/access/Ownable.sol\":2189:2190  0 */\n      0x00\n        /* \"@openzeppelin/contracts/access/Ownable.sol\":2169:2191  newOwner != address(0) */\n      0xffffffffffffffffffffffffffffffffffffffff\n      and\n        /* \"@openzeppelin/contracts/access/Ownable.sol\":2169:2177  newOwner */\n      dup2\n        /* \"@openzeppelin/contracts/access/Ownable.sol\":2169:2191  newOwner != address(0) */\n      0xffffffffffffffffffffffffffffffffffffffff\n      and\n      eq\n      iszero\n        /* \"@openzeppelin/contracts/access/Ownable.sol\":2161:2234  require(newOwner != address(0), \"Ownable: new owner is the zero address\") */\n      tag_110\n      jumpi\n      mload(0x40)\n      0x08c379a000000000000000000000000000000000000000000000000000000000\n      dup2\n      mstore\n      0x04\n      add\n      tag_111\n      swap1\n      tag_112\n      jump\t// in\n    tag_111:\n      mload(0x40)\n      dup1\n      swap2\n      sub\n      swap1\n      revert\n    tag_110:\n        /* \"@openzeppelin/contracts/access/Ownable.sol\":2244:2272  _transferOwnership(newOwner) */\n      tag_113\n        /* \"@openzeppelin/contracts/access/Ownable.sol\":2263:2271  newOwner */\n      dup2\n        /* \"@openzeppelin/contracts/access/Ownable.sol\":2244:2262  _transferOwnership */\n      tag_90\n        /* \"@openzeppelin/contracts/access/Ownable.sol\":2244:2272  _transferOwnership(newOwner) */\n      jump\t// in\n    tag_113:\n        /* \"@openzeppelin/contracts/access/Ownable.sol\":2081:2279  function transferOwnership(address newOwner) public virtual onlyOwner {... */\n      pop\n      jump\t// out\n        /* \"contracts/compliance/DefaultCompliance.sol\":1941:2202  function addTokenAgent(address _agentAddress) external override onlyOwner {... */\n    tag_68:\n        /* \"@openzeppelin/contracts/access/Ownable.sol\":1094:1107  _checkOwner() */\n      tag_115\n        /* \"@openzeppelin/contracts/access/Ownable.sol\":1094:1105  _checkOwner */\n      tag_72\n        /* \"@openzeppelin/contracts/access/Ownable.sol\":1094:1107  _checkOwner() */\n      jump\t// in\n    tag_115:\n        /* \"contracts/compliance/DefaultCompliance.sol\":2034:2050  _tokenAgentsList */\n      0x01\n        /* \"contracts/compliance/DefaultCompliance.sol\":2034:2065  _tokenAgentsList[_agentAddress] */\n      0x00\n        /* \"contracts/compliance/DefaultCompliance.sol\":2051:2064  _agentAddress */\n      dup3\n        /* \"contracts/compliance/DefaultCompliance.sol\":2034:2065  _tokenAgentsList[_agentAddress] */\n      0xffffffffffffffffffffffffffffffffffffffff\n      and\n      0xffffffffffffffffffffffffffffffffffffffff\n      and\n      dup2\n      mstore\n      0x20\n      add\n      swap1\n      dup2\n      mstore\n      0x20\n      add\n      0x00\n      keccak256\n      0x00\n      swap1\n      sload\n      swap1\n      0x0100\n      exp\n      swap1\n      div\n      0xff\n      and\n        /* \"contracts/compliance/DefaultCompliance.sol\":2033:2065  !_tokenAgentsList[_agentAddress] */\n      iszero\n        /* \"contracts/compliance/DefaultCompliance.sol\":2025:2102  require(!_tokenAgentsList[_agentAddress], 'This Agent is already registered') */\n      tag_117\n      jumpi\n      mload(0x40)\n      0x08c379a000000000000000000000000000000000000000000000000000000000\n      dup2\n      mstore\n      0x04\n      add\n      tag_118\n      swap1\n      tag_119\n      jump\t// in\n    tag_118:\n      mload(0x40)\n      dup1\n      swap2\n      sub\n      swap1\n      revert\n    tag_117:\n        /* \"contracts/compliance/DefaultCompliance.sol\":2146:2150  true */\n      0x01\n        /* \"contracts/compliance/DefaultCompliance.sol\":2112:2128  _tokenAgentsList */\n      dup1\n        /* \"contracts/compliance/DefaultCompliance.sol\":2112:2143  _tokenAgentsList[_agentAddress] */\n      0x00\n        /* \"contracts/compliance/DefaultCompliance.sol\":2129:2142  _agentAddress */\n      dup4\n        /* \"contracts/compliance/DefaultCompliance.sol\":2112:2143  _tokenAgentsList[_agentAddress] */\n      0xffffffffffffffffffffffffffffffffffffffff\n      and\n      0xffffffffffffffffffffffffffffffffffffffff\n      and\n      dup2\n      mstore\n      0x20\n      add\n      swap1\n      dup2\n      mstore\n      0x20\n      add\n      0x00\n      keccak256\n      0x00\n        /* \"contracts/compliance/DefaultCompliance.sol\":2112:2150  _tokenAgentsList[_agentAddress] = true */\n      0x0100\n      exp\n      dup2\n      sload\n      dup2\n      0xff\n      mul\n      not\n      and\n      swap1\n      dup4\n      iszero\n      iszero\n      mul\n      or\n      swap1\n      sstore\n      pop\n        /* \"contracts/compliance/DefaultCompliance.sol\":2165:2195  TokenAgentAdded(_agentAddress) */\n      0xd62c45e13ac30396aceb3ad37c89bd1ba9048032fe61679000e92eb93dbfd67d\n        /* \"contracts/compliance/DefaultCompliance.sol\":2181:2194  _agentAddress */\n      dup2\n        /* \"contracts/compliance/DefaultCompliance.sol\":2165:2195  TokenAgentAdded(_agentAddress) */\n      mload(0x40)\n      tag_120\n      swap2\n      swap1\n      tag_51\n      jump\t// in\n    tag_120:\n      mload(0x40)\n      dup1\n      swap2\n      sub\n      swap1\n      log1\n        /* \"contracts/compliance/DefaultCompliance.sol\":1941:2202  function addTokenAgent(address _agentAddress) external override onlyOwner {... */\n      pop\n      jump\t// out\n        /* \"@openzeppelin/contracts/access/Ownable.sol\":1359:1489  function _checkOwner() internal view virtual {... */\n    tag_72:\n        /* \"@openzeppelin/contracts/access/Ownable.sol\":1433:1445  _msgSender() */\n      tag_122\n        /* \"@openzeppelin/contracts/access/Ownable.sol\":1433:1443  _msgSender */\n      tag_123\n        /* \"@openzeppelin/contracts/access/Ownable.sol\":1433:1445  _msgSender() */\n      jump\t// in\n    tag_122:\n        /* \"@openzeppelin/contracts/access/Ownable.sol\":1422:1445  owner() == _msgSender() */\n      0xffffffffffffffffffffffffffffffffffffffff\n      and\n        /* \"@openzeppelin/contracts/access/Ownable.sol\":1422:1429  owner() */\n      tag_124\n        /* \"@openzeppelin/contracts/access/Ownable.sol\":1422:1427  owner */\n      tag_49\n        /* \"@openzeppelin/contracts/access/Ownable.sol\":1422:1429  owner() */\n      jump\t// in\n    tag_124:\n        /* \"@openzeppelin/contracts/access/Ownable.sol\":1422:1445  owner() == _msgSender() */\n      0xffffffffffffffffffffffffffffffffffffffff\n      and\n      eq\n        /* \"@openzeppelin/contracts/access/Ownable.sol\":1414:1482  require(owner() == _msgSender(), \"Ownable: caller is not the owner\") */\n      tag_125\n      jumpi\n      mload(0x40)\n      0x08c379a000000000000000000000000000000000000000000000000000000000\n      dup2\n      mstore\n      0x04\n      add\n      tag_126\n      swap1\n      tag_127\n      jump\t// in\n    tag_126:\n      mload(0x40)\n      dup1\n      swap2\n      sub\n      swap1\n      revert\n    tag_125:\n        /* \"@openzeppelin/contracts/access/Ownable.sol\":1359:1489  function _checkOwner() internal view virtual {... */\n      jump\t// out\n        /* \"@openzeppelin/contracts/access/Ownable.sol\":2433:2620  function _transferOwnership(address newOwner) internal virtual {... */\n    tag_90:\n        /* \"@openzeppelin/contracts/access/Ownable.sol\":2506:2522  address oldOwner */\n      0x00\n        /* \"@openzeppelin/contracts/access/Ownable.sol\":2525:2531  _owner */\n      dup1\n      0x00\n      swap1\n      sload\n      swap1\n      0x0100\n      exp\n      swap1\n      div\n      0xffffffffffffffffffffffffffffffffffffffff\n      and\n        /* \"@openzeppelin/contracts/access/Ownable.sol\":2506:2531  address oldOwner = _owner */\n      swap1\n      pop\n        /* \"@openzeppelin/contracts/access/Ownable.sol\":2550:2558  newOwner */\n      dup2\n        /* \"@openzeppelin/contracts/access/Ownable.sol\":2541:2547  _owner */\n      0x00\n      dup1\n        /* \"@openzeppelin/contracts/access/Ownable.sol\":2541:2558  _owner = newOwner */\n      0x0100\n      exp\n      dup2\n      sload\n      dup2\n      0xffffffffffffffffffffffffffffffffffffffff\n      mul\n      not\n      and\n      swap1\n      dup4\n      0xffffffffffffffffffffffffffffffffffffffff\n      and\n      mul\n      or\n      swap1\n      sstore\n      pop\n        /* \"@openzeppelin/contracts/access/Ownable.sol\":2604:2612  newOwner */\n      dup2\n        /* \"@openzeppelin/contracts/access/Ownable.sol\":2573:2613  OwnershipTransferred(oldOwner, newOwner) */\n      0xffffffffffffffffffffffffffffffffffffffff\n      and\n        /* \"@openzeppelin/contracts/access/Ownable.sol\":2594:2602  oldOwner */\n      dup2\n        /* \"@openzeppelin/contracts/access/Ownable.sol\":2573:2613  OwnershipTransferred(oldOwner, newOwner) */\n      0xffffffffffffffffffffffffffffffffffffffff\n      and\n      0x8be0079c531659141344cd1fd0a4f28419497f9722a3daafe3b4186f6b6457e0\n      mload(0x40)\n      mload(0x40)\n      dup1\n      swap2\n      sub\n      swap1\n      log3\n        /* \"@openzeppelin/contracts/access/Ownable.sol\":2496:2620  {... */\n      pop\n        /* \"@openzeppelin/contracts/access/Ownable.sol\":2433:2620  function _transferOwnership(address newOwner) internal virtual {... */\n      pop\n      jump\t// out\n        /* \"@openzeppelin/contracts/utils/Context.sol\":640:736  function _msgSender() internal view virtual returns (address) {... */\n    tag_123:\n        /* \"@openzeppelin/contracts/utils/Context.sol\":693:700  address */\n      0x00\n        /* \"@openzeppelin/contracts/utils/Context.sol\":719:729  msg.sender */\n      caller\n        /* \"@openzeppelin/contracts/utils/Context.sol\":712:729  return msg.sender */\n      swap1\n      pop\n        /* \"@openzeppelin/contracts/utils/Context.sol\":640:736  function _msgSender() internal view virtual returns (address) {... */\n      swap1\n      jump\t// out\n        /* \"#utility.yul\":7:146   */\n    tag_131:\n        /* \"#utility.yul\":53:58   */\n      0x00\n        /* \"#utility.yul\":91:97   */\n      dup2\n        /* \"#utility.yul\":78:98   */\n      calldataload\n        /* \"#utility.yul\":69:98   */\n      swap1\n      pop\n        /* \"#utility.yul\":107:140   */\n      tag_133\n        /* \"#utility.yul\":134:139   */\n      dup2\n        /* \"#utility.yul\":107:140   */\n      tag_134\n      jump\t// in\n    tag_133:\n        /* \"#utility.yul\":7:146   */\n      swap3\n      swap2\n      pop\n      pop\n      jump\t// out\n        /* \"#utility.yul\":152:291   */\n    tag_135:\n        /* \"#utility.yul\":198:203   */\n      0x00\n        /* \"#utility.yul\":236:242   */\n      dup2\n        /* \"#utility.yul\":223:243   */\n      calldataload\n        /* \"#utility.yul\":214:243   */\n      swap1\n      pop\n        /* \"#utility.yul\":252:285   */\n      tag_137\n        /* \"#utility.yul\":279:284   */\n      dup2\n        /* \"#utility.yul\":252:285   */\n      tag_138\n      jump\t// in\n    tag_137:\n        /* \"#utility.yul\":152:291   */\n      swap3\n      swap2\n      pop\n      pop\n      jump\t// out\n        /* \"#utility.yul\":297:626   */\n    tag_22:\n        /* \"#utility.yul\":356:362   */\n      0x00\n        /* \"#utility.yul\":405:407   */\n      0x20\n        /* \"#utility.yul\":393:402   */\n      dup3\n        /* \"#utility.yul\":384:391   */\n      dup5\n        /* \"#utility.yul\":380:403   */\n      sub\n        /* \"#utility.yul\":376:408   */\n      slt\n        /* \"#utility.yul\":373:492   */\n      iszero\n      tag_140\n      jumpi\n        /* \"#utility.yul\":411:490   */\n      tag_141\n      tag_142\n      jump\t// in\n    tag_141:\n        /* \"#utility.yul\":373:492   */\n    tag_140:\n        /* \"#utility.yul\":531:532   */\n      0x00\n        /* \"#utility.yul\":556:609   */\n      tag_143\n        /* \"#utility.yul\":601:608   */\n      dup5\n        /* \"#utility.yul\":592:598   */\n      dup3\n        /* \"#utility.yul\":581:590   */\n      dup6\n        /* \"#utility.yul\":577:599   */\n      add\n        /* \"#utility.yul\":556:609   */\n      tag_131\n      jump\t// in\n    tag_143:\n        /* \"#utility.yul\":546:609   */\n      swap2\n      pop\n        /* \"#utility.yul\":502:619   */\n      pop\n        /* \"#utility.yul\":297:626   */\n      swap3\n      swap2\n      pop\n      pop\n      jump\t// out\n        /* \"#utility.yul\":632:1251   */\n    tag_43:\n        /* \"#utility.yul\":709:715   */\n      0x00\n        /* \"#utility.yul\":717:723   */\n      dup1\n        /* \"#utility.yul\":725:731   */\n      0x00\n        /* \"#utility.yul\":774:776   */\n      0x60\n        /* \"#utility.yul\":762:771   */\n      dup5\n        /* \"#utility.yul\":753:760   */\n      dup7\n        /* \"#utility.yul\":749:772   */\n      sub\n        /* \"#utility.yul\":745:777   */\n      slt\n        /* \"#utility.yul\":742:861   */\n      iszero\n      tag_145\n      jumpi\n        /* \"#utility.yul\":780:859   */\n      tag_146\n      tag_142\n      jump\t// in\n    tag_146:\n        /* \"#utility.yul\":742:861   */\n    tag_145:\n        /* \"#utility.yul\":900:901   */\n      0x00\n        /* \"#utility.yul\":925:978   */\n      tag_147\n        /* \"#utility.yul\":970:977   */\n      dup7\n        /* \"#utility.yul\":961:967   */\n      dup3\n        /* \"#utility.yul\":950:959   */\n      dup8\n        /* \"#utility.yul\":946:968   */\n      add\n        /* \"#utility.yul\":925:978   */\n      tag_131\n      jump\t// in\n    tag_147:\n        /* \"#utility.yul\":915:978   */\n      swap4\n      pop\n        /* \"#utility.yul\":871:988   */\n      pop\n        /* \"#utility.yul\":1027:1029   */\n      0x20\n        /* \"#utility.yul\":1053:1106   */\n      tag_148\n        /* \"#utility.yul\":1098:1105   */\n      dup7\n        /* \"#utility.yul\":1089:1095   */\n      dup3\n        /* \"#utility.yul\":1078:1087   */\n      dup8\n        /* \"#utility.yul\":1074:1096   */\n      add\n        /* \"#utility.yul\":1053:1106   */\n      tag_131\n      jump\t// in\n    tag_148:\n        /* \"#utility.yul\":1043:1106   */\n      swap3\n      pop\n        /* \"#utility.yul\":998:1116   */\n      pop\n        /* \"#utility.yul\":1155:1157   */\n      0x40\n        /* \"#utility.yul\":1181:1234   */\n      tag_149\n        /* \"#utility.yul\":1226:1233   */\n      dup7\n        /* \"#utility.yul\":1217:1223   */\n      dup3\n        /* \"#utility.yul\":1206:1215   */\n      dup8\n        /* \"#utility.yul\":1202:1224   */\n      add\n        /* \"#utility.yul\":1181:1234   */\n      tag_135\n      jump\t// in\n    tag_149:\n        /* \"#utility.yul\":1171:1234   */\n      swap2\n      pop\n        /* \"#utility.yul\":1126:1244   */\n      pop\n        /* \"#utility.yul\":632:1251   */\n      swap3\n      pop\n      swap3\n      pop\n      swap3\n      jump\t// out\n        /* \"#utility.yul\":1257:1731   */\n    tag_34:\n        /* \"#utility.yul\":1325:1331   */\n      0x00\n        /* \"#utility.yul\":1333:1339   */\n      dup1\n        /* \"#utility.yul\":1382:1384   */\n      0x40\n        /* \"#utility.yul\":1370:1379   */\n      dup4\n        /* \"#utility.yul\":1361:1368   */\n      dup6\n        /* \"#utility.yul\":1357:1380   */\n      sub\n        /* \"#utility.yul\":1353:1385   */\n      slt\n        /* \"#utility.yul\":1350:1469   */\n      iszero\n      tag_151\n      jumpi\n        /* \"#utility.yul\":1388:1467   */\n      tag_152\n      tag_142\n      jump\t// in\n    tag_152:\n        /* \"#utility.yul\":1350:1469   */\n    tag_151:\n        /* \"#utility.yul\":1508:1509   */\n      0x00\n        /* \"#utility.yul\":1533:1586   */\n      tag_153\n        /* \"#utility.yul\":1578:1585   */\n      dup6\n        /* \"#utility.yul\":1569:1575   */\n      dup3\n        /* \"#utility.yul\":1558:1567   */\n      dup7\n        /* \"#utility.yul\":1554:1576   */\n      add\n        /* \"#utility.yul\":1533:1586   */\n      tag_131\n      jump\t// in\n    tag_153:\n        /* \"#utility.yul\":1523:1586   */\n      swap3\n      pop\n        /* \"#utility.yul\":1479:1596   */\n      pop\n        /* \"#utility.yul\":1635:1637   */\n      0x20\n        /* \"#utility.yul\":1661:1714   */\n      tag_154\n        /* \"#utility.yul\":1706:1713   */\n      dup6\n        /* \"#utility.yul\":1697:1703   */\n      dup3\n        /* \"#utility.yul\":1686:1695   */\n      dup7\n        /* \"#utility.yul\":1682:1704   */\n      add\n        /* \"#utility.yul\":1661:1714   */\n      tag_135\n      jump\t// in\n    tag_154:\n        /* \"#utility.yul\":1651:1714   */\n      swap2\n      pop\n        /* \"#utility.yul\":1606:1724   */\n      pop\n        /* \"#utility.yul\":1257:1731   */\n      swap3\n      pop\n      swap3\n      swap1\n      pop\n      jump\t// out\n        /* \"#utility.yul\":1737:1855   */\n    tag_155:\n        /* \"#utility.yul\":1824:1848   */\n      tag_157\n        /* \"#utility.yul\":1842:1847   */\n      dup2\n        /* \"#utility.yul\":1824:1848   */\n      tag_158\n      jump\t// in\n    tag_157:\n        /* \"#utility.yul\":1819:1822   */\n      dup3\n        /* \"#utility.yul\":1812:1849   */\n      mstore\n        /* \"#utility.yul\":1737:1855   */\n      pop\n      pop\n      jump\t// out\n        /* \"#utility.yul\":1861:1970   */\n    tag_159:\n        /* \"#utility.yul\":1942:1963   */\n      tag_161\n        /* \"#utility.yul\":1957:1962   */\n      dup2\n        /* \"#utility.yul\":1942:1963   */\n      tag_162\n      jump\t// in\n    tag_161:\n        /* \"#utility.yul\":1937:1940   */\n      dup3\n        /* \"#utility.yul\":1930:1964   */\n      mstore\n        /* \"#utility.yul\":1861:1970   */\n      pop\n      pop\n      jump\t// out\n        /* \"#utility.yul\":1976:2342   */\n    tag_163:\n        /* \"#utility.yul\":2118:2121   */\n      0x00\n        /* \"#utility.yul\":2139:2206   */\n      tag_165\n        /* \"#utility.yul\":2203:2205   */\n      0x26\n        /* \"#utility.yul\":2198:2201   */\n      dup4\n        /* \"#utility.yul\":2139:2206   */\n      tag_166\n      jump\t// in\n    tag_165:\n        /* \"#utility.yul\":2132:2206   */\n      swap2\n      pop\n        /* \"#utility.yul\":2215:2308   */\n      tag_167\n        /* \"#utility.yul\":2304:2307   */\n      dup3\n        /* \"#utility.yul\":2215:2308   */\n      tag_168\n      jump\t// in\n    tag_167:\n        /* \"#utility.yul\":2333:2335   */\n      0x40\n        /* \"#utility.yul\":2328:2331   */\n      dup3\n        /* \"#utility.yul\":2324:2336   */\n      add\n        /* \"#utility.yul\":2317:2336   */\n      swap1\n      pop\n        /* \"#utility.yul\":1976:2342   */\n      swap2\n      swap1\n      pop\n      jump\t// out\n        /* \"#utility.yul\":2348:2714   */\n    tag_169:\n        /* \"#utility.yul\":2490:2493   */\n      0x00\n        /* \"#utility.yul\":2511:2578   */\n      tag_171\n        /* \"#utility.yul\":2575:2577   */\n      0x20\n        /* \"#utility.yul\":2570:2573   */\n      dup4\n        /* \"#utility.yul\":2511:2578   */\n      tag_166\n      jump\t// in\n    tag_171:\n        /* \"#utility.yul\":2504:2578   */\n      swap2\n      pop\n        /* \"#utility.yul\":2587:2680   */\n      tag_172\n        /* \"#utility.yul\":2676:2679   */\n      dup3\n        /* \"#utility.yul\":2587:2680   */\n      tag_173\n      jump\t// in\n    tag_172:\n        /* \"#utility.yul\":2705:2707   */\n      0x20\n        /* \"#utility.yul\":2700:2703   */\n      dup3\n        /* \"#utility.yul\":2696:2708   */\n      add\n        /* \"#utility.yul\":2689:2708   */\n      swap1\n      pop\n        /* \"#utility.yul\":2348:2714   */\n      swap2\n      swap1\n      pop\n      jump\t// out\n        /* \"#utility.yul\":2720:3086   */\n    tag_174:\n        /* \"#utility.yul\":2862:2865   */\n      0x00\n        /* \"#utility.yul\":2883:2950   */\n      tag_176\n        /* \"#utility.yul\":2947:2949   */\n      0x1b\n        /* \"#utility.yul\":2942:2945   */\n      dup4\n        /* \"#utility.yul\":2883:2950   */\n      tag_166\n      jump\t// in\n    tag_176:\n        /* \"#utility.yul\":2876:2950   */\n      swap2\n      pop\n        /* \"#utility.yul\":2959:3052   */\n      tag_177\n        /* \"#utility.yul\":3048:3051   */\n      dup3\n        /* \"#utility.yul\":2959:3052   */\n      tag_178\n      jump\t// in\n    tag_177:\n        /* \"#utility.yul\":3077:3079   */\n      0x20\n        /* \"#utility.yul\":3072:3075   */\n      dup3\n        /* \"#utility.yul\":3068:3080   */\n      add\n        /* \"#utility.yul\":3061:3080   */\n      swap1\n      pop\n        /* \"#utility.yul\":2720:3086   */\n      swap2\n      swap1\n      pop\n      jump\t// out\n        /* \"#utility.yul\":3092:3458   */\n    tag_179:\n        /* \"#utility.yul\":3234:3237   */\n      0x00\n        /* \"#utility.yul\":3255:3322   */\n      tag_181\n        /* \"#utility.yul\":3319:3321   */\n      0x1b\n        /* \"#utility.yul\":3314:3317   */\n      dup4\n        /* \"#utility.yul\":3255:3322   */\n      tag_166\n      jump\t// in\n    tag_181:\n        /* \"#utility.yul\":3248:3322   */\n      swap2\n      pop\n        /* \"#utility.yul\":3331:3424   */\n      tag_182\n        /* \"#utility.yul\":3420:3423   */\n      dup3\n        /* \"#utility.yul\":3331:3424   */\n      tag_183\n      jump\t// in\n    tag_182:\n        /* \"#utility.yul\":3449:3451   */\n      0x20\n        /* \"#utility.yul\":3444:3447   */\n      dup3\n        /* \"#utility.yul\":3440:3452   */\n      add\n        /* \"#utility.yul\":3433:3452   */\n      swap1\n      pop\n        /* \"#utility.yul\":3092:3458   */\n      swap2\n      swap1\n      pop\n      jump\t// out\n        /* \"#utility.yul\":3464:3830   */\n    tag_184:\n        /* \"#utility.yul\":3606:3609   */\n      0x00\n        /* \"#utility.yul\":3627:3694   */\n      tag_186\n        /* \"#utility.yul\":3691:3693   */\n      0x20\n        /* \"#utility.yul\":3686:3689   */\n      dup4\n        /* \"#utility.yul\":3627:3694   */\n      tag_166\n      jump\t// in\n    tag_186:\n        /* \"#utility.yul\":3620:3694   */\n      swap2\n      pop\n        /* \"#utility.yul\":3703:3796   */\n      tag_187\n        /* \"#utility.yul\":3792:3795   */\n      dup3\n        /* \"#utility.yul\":3703:3796   */\n      tag_188\n      jump\t// in\n    tag_187:\n        /* \"#utility.yul\":3821:3823   */\n      0x20\n        /* \"#utility.yul\":3816:3819   */\n      dup3\n        /* \"#utility.yul\":3812:3824   */\n      add\n        /* \"#utility.yul\":3805:3824   */\n      swap1\n      pop\n        /* \"#utility.yul\":3464:3830   */\n      swap2\n      swap1\n      pop\n      jump\t// out\n        /* \"#utility.yul\":3836:4202   */\n    tag_189:\n        /* \"#utility.yul\":3978:3981   */\n      0x00\n        /* \"#utility.yul\":3999:4066   */\n      tag_191\n        /* \"#utility.yul\":4063:4065   */\n      0x20\n        /* \"#utility.yul\":4058:4061   */\n      dup4\n        /* \"#utility.yul\":3999:4066   */\n      tag_166\n      jump\t// in\n    tag_191:\n        /* \"#utility.yul\":3992:4066   */\n      swap2\n      pop\n        /* \"#utility.yul\":4075:4168   */\n      tag_192\n        /* \"#utility.yul\":4164:4167   */\n      dup3\n        /* \"#utility.yul\":4075:4168   */\n      tag_193\n      jump\t// in\n    tag_192:\n        /* \"#utility.yul\":4193:4195   */\n      0x20\n        /* \"#utility.yul\":4188:4191   */\n      dup3\n        /* \"#utility.yul\":4184:4196   */\n      add\n        /* \"#utility.yul\":4177:4196   */\n      swap1\n      pop\n        /* \"#utility.yul\":3836:4202   */\n      swap2\n      swap1\n      pop\n      jump\t// out\n        /* \"#utility.yul\":4208:4430   */\n    tag_51:\n        /* \"#utility.yul\":4301:4305   */\n      0x00\n        /* \"#utility.yul\":4339:4341   */\n      0x20\n        /* \"#utility.yul\":4328:4337   */\n      dup3\n        /* \"#utility.yul\":4324:4342   */\n      add\n        /* \"#utility.yul\":4316:4342   */\n      swap1\n      pop\n        /* \"#utility.yul\":4352:4423   */\n      tag_195\n        /* \"#utility.yul\":4420:4421   */\n      0x00\n        /* \"#utility.yul\":4409:4418   */\n      dup4\n        /* \"#utility.yul\":4405:4422   */\n      add\n        /* \"#utility.yul\":4396:4402   */\n      dup5\n        /* \"#utility.yul\":4352:4423   */\n      tag_155\n      jump\t// in\n    tag_195:\n        /* \"#utility.yul\":4208:4430   */\n      swap3\n      swap2\n      pop\n      pop\n      jump\t// out\n        /* \"#utility.yul\":4436:4646   */\n    tag_25:\n        /* \"#utility.yul\":4523:4527   */\n      0x00\n        /* \"#utility.yul\":4561:4563   */\n      0x20\n        /* \"#utility.yul\":4550:4559   */\n      dup3\n        /* \"#utility.yul\":4546:4564   */\n      add\n        /* \"#utility.yul\":4538:4564   */\n      swap1\n      pop\n        /* \"#utility.yul\":4574:4639   */\n      tag_197\n        /* \"#utility.yul\":4636:4637   */\n      0x00\n        /* \"#utility.yul\":4625:4634   */\n      dup4\n        /* \"#utility.yul\":4621:4638   */\n      add\n        /* \"#utility.yul\":4612:4618   */\n      dup5\n        /* \"#utility.yul\":4574:4639   */\n      tag_159\n      jump\t// in\n    tag_197:\n        /* \"#utility.yul\":4436:4646   */\n      swap3\n      swap2\n      pop\n      pop\n      jump\t// out\n        /* \"#utility.yul\":4652:5071   */\n    tag_112:\n        /* \"#utility.yul\":4818:4822   */\n      0x00\n        /* \"#utility.yul\":4856:4858   */\n      0x20\n        /* \"#utility.yul\":4845:4854   */\n      dup3\n        /* \"#utility.yul\":4841:4859   */\n      add\n        /* \"#utility.yul\":4833:4859   */\n      swap1\n      pop\n        /* \"#utility.yul\":4905:4914   */\n      dup2\n        /* \"#utility.yul\":4899:4903   */\n      dup2\n        /* \"#utility.yul\":4895:4915   */\n      sub\n        /* \"#utility.yul\":4891:4892   */\n      0x00\n        /* \"#utility.yul\":4880:4889   */\n      dup4\n        /* \"#utility.yul\":4876:4893   */\n      add\n        /* \"#utility.yul\":4869:4916   */\n      mstore\n        /* \"#utility.yul\":4933:5064   */\n      tag_199\n        /* \"#utility.yul\":5059:5063   */\n      dup2\n        /* \"#utility.yul\":4933:5064   */\n      tag_163\n      jump\t// in\n    tag_199:\n        /* \"#utility.yul\":4925:5064   */\n      swap1\n      pop\n        /* \"#utility.yul\":4652:5071   */\n      swap2\n      swap1\n      pop\n      jump\t// out\n        /* \"#utility.yul\":5077:5496   */\n    tag_104:\n        /* \"#utility.yul\":5243:5247   */\n      0x00\n        /* \"#utility.yul\":5281:5283   */\n      0x20\n        /* \"#utility.yul\":5270:5279   */\n      dup3\n        /* \"#utility.yul\":5266:5284   */\n      add\n        /* \"#utility.yul\":5258:5284   */\n      swap1\n      pop\n        /* \"#utility.yul\":5330:5339   */\n      dup2\n        /* \"#utility.yul\":5324:5328   */\n      dup2\n        /* \"#utility.yul\":5320:5340   */\n      sub\n        /* \"#utility.yul\":5316:5317   */\n      0x00\n        /* \"#utility.yul\":5305:5314   */\n      dup4\n        /* \"#utility.yul\":5301:5318   */\n      add\n        /* \"#utility.yul\":5294:5341   */\n      mstore\n        /* \"#utility.yul\":5358:5489   */\n      tag_201\n        /* \"#utility.yul\":5484:5488   */\n      dup2\n        /* \"#utility.yul\":5358:5489   */\n      tag_169\n      jump\t// in\n    tag_201:\n        /* \"#utility.yul\":5350:5489   */\n      swap1\n      pop\n        /* \"#utility.yul\":5077:5496   */\n      swap2\n      swap1\n      pop\n      jump\t// out\n        /* \"#utility.yul\":5502:5921   */\n    tag_83:\n        /* \"#utility.yul\":5668:5672   */\n      0x00\n        /* \"#utility.yul\":5706:5708   */\n      0x20\n        /* \"#utility.yul\":5695:5704   */\n      dup3\n        /* \"#utility.yul\":5691:5709   */\n      add\n        /* \"#utility.yul\":5683:5709   */\n      swap1\n      pop\n        /* \"#utility.yul\":5755:5764   */\n      dup2\n        /* \"#utility.yul\":5749:5753   */\n      dup2\n        /* \"#utility.yul\":5745:5765   */\n      sub\n        /* \"#utility.yul\":5741:5742   */\n      0x00\n        /* \"#utility.yul\":5730:5739   */\n      dup4\n        /* \"#utility.yul\":5726:5743   */\n      add\n        /* \"#utility.yul\":5719:5766   */\n      mstore\n        /* \"#utility.yul\":5783:5914   */\n      tag_203\n        /* \"#utility.yul\":5909:5913   */\n      dup2\n        /* \"#utility.yul\":5783:5914   */\n      tag_174\n      jump\t// in\n    tag_203:\n        /* \"#utility.yul\":5775:5914   */\n      swap1\n      pop\n        /* \"#utility.yul\":5502:5921   */\n      swap2\n      swap1\n      pop\n      jump\t// out\n        /* \"#utility.yul\":5927:6346   */\n    tag_76:\n        /* \"#utility.yul\":6093:6097   */\n      0x00\n        /* \"#utility.yul\":6131:6133   */\n      0x20\n        /* \"#utility.yul\":6120:6129   */\n      dup3\n        /* \"#utility.yul\":6116:6134   */\n      add\n        /* \"#utility.yul\":6108:6134   */\n      swap1\n      pop\n        /* \"#utility.yul\":6180:6189   */\n      dup2\n        /* \"#utility.yul\":6174:6178   */\n      dup2\n        /* \"#utility.yul\":6170:6190   */\n      sub\n        /* \"#utility.yul\":6166:6167   */\n      0x00\n        /* \"#utility.yul\":6155:6164   */\n      dup4\n        /* \"#utility.yul\":6151:6168   */\n      add\n        /* \"#utility.yul\":6144:6191   */\n      mstore\n        /* \"#utility.yul\":6208:6339   */\n      tag_205\n        /* \"#utility.yul\":6334:6338   */\n      dup2\n        /* \"#utility.yul\":6208:6339   */\n      tag_179\n      jump\t// in\n    tag_205:\n        /* \"#utility.yul\":6200:6339   */\n      swap1\n      pop\n        /* \"#utility.yul\":5927:6346   */\n      swap2\n      swap1\n      pop\n      jump\t// out\n        /* \"#utility.yul\":6352:6771   */\n    tag_119:\n        /* \"#utility.yul\":6518:6522   */\n      0x00\n        /* \"#utility.yul\":6556:6558   */\n      0x20\n        /* \"#utility.yul\":6545:6554   */\n      dup3\n        /* \"#utility.yul\":6541:6559   */\n      add\n        /* \"#utility.yul\":6533:6559   */\n      swap1\n      pop\n        /* \"#utility.yul\":6605:6614   */\n      dup2\n        /* \"#utility.yul\":6599:6603   */\n      dup2\n        /* \"#utility.yul\":6595:6615   */\n      sub\n        /* \"#utility.yul\":6591:6592   */\n      0x00\n        /* \"#utility.yul\":6580:6589   */\n      dup4\n        /* \"#utility.yul\":6576:6593   */\n      add\n        /* \"#utility.yul\":6569:6616   */\n      mstore\n        /* \"#utility.yul\":6633:6764   */\n      tag_207\n        /* \"#utility.yul\":6759:6763   */\n      dup2\n        /* \"#utility.yul\":6633:6764   */\n      tag_184\n      jump\t// in\n    tag_207:\n        /* \"#utility.yul\":6625:6764   */\n      swap1\n      pop\n        /* \"#utility.yul\":6352:6771   */\n      swap2\n      swap1\n      pop\n      jump\t// out\n        /* \"#utility.yul\":6777:7196   */\n    tag_127:\n        /* \"#utility.yul\":6943:6947   */\n      0x00\n        /* \"#utility.yul\":6981:6983   */\n      0x20\n        /* \"#utility.yul\":6970:6979   */\n      dup3\n        /* \"#utility.yul\":6966:6984   */\n      add\n        /* \"#utility.yul\":6958:6984   */\n      swap1\n      pop\n        /* \"#utility.yul\":7030:7039   */\n      dup2\n        /* \"#utility.yul\":7024:7028   */\n      dup2\n        /* \"#utility.yul\":7020:7040   */\n      sub\n        /* \"#utility.yul\":7016:7017   */\n      0x00\n        /* \"#utility.yul\":7005:7014   */\n      dup4\n        /* \"#utility.yul\":7001:7018   */\n      add\n        /* \"#utility.yul\":6994:7041   */\n      mstore\n        /* \"#utility.yul\":7058:7189   */\n      tag_209\n        /* \"#utility.yul\":7184:7188   */\n      dup2\n        /* \"#utility.yul\":7058:7189   */\n      tag_189\n      jump\t// in\n    tag_209:\n        /* \"#utility.yul\":7050:7189   */\n      swap1\n      pop\n        /* \"#utility.yul\":6777:7196   */\n      swap2\n      swap1\n      pop\n      jump\t// out\n        /* \"#utility.yul\":7283:7452   */\n    tag_166:\n        /* \"#utility.yul\":7367:7378   */\n      0x00\n        /* \"#utility.yul\":7401:7407   */\n      dup3\n        /* \"#utility.yul\":7396:7399   */\n      dup3\n        /* \"#utility.yul\":7389:7408   */\n      mstore\n        /* \"#utility.yul\":7441:7445   */\n      0x20\n        /* \"#utility.yul\":7436:7439   */\n      dup3\n        /* \"#utility.yul\":7432:7446   */\n      add\n        /* \"#utility.yul\":7417:7446   */\n      swap1\n      pop\n        /* \"#utility.yul\":7283:7452   */\n      swap3\n      swap2\n      pop\n      pop\n      jump\t// out\n        /* \"#utility.yul\":7458:7554   */\n    tag_158:\n        /* \"#utility.yul\":7495:7502   */\n      0x00\n        /* \"#utility.yul\":7524:7548   */\n      tag_214\n        /* \"#utility.yul\":7542:7547   */\n      dup3\n        /* \"#utility.yul\":7524:7548   */\n      tag_215\n      jump\t// in\n    tag_214:\n        /* \"#utility.yul\":7513:7548   */\n      swap1\n      pop\n        /* \"#utility.yul\":7458:7554   */\n      swap2\n      swap1\n      pop\n      jump\t// out\n        /* \"#utility.yul\":7560:7650   */\n    tag_162:\n        /* \"#utility.yul\":7594:7601   */\n      0x00\n        /* \"#utility.yul\":7637:7642   */\n      dup2\n        /* \"#utility.yul\":7630:7643   */\n      iszero\n        /* \"#utility.yul\":7623:7644   */\n      iszero\n        /* \"#utility.yul\":7612:7644   */\n      swap1\n      pop\n        /* \"#utility.yul\":7560:7650   */\n      swap2\n      swap1\n      pop\n      jump\t// out\n        /* \"#utility.yul\":7656:7782   */\n    tag_215:\n        /* \"#utility.yul\":7693:7700   */\n      0x00\n        /* \"#utility.yul\":7733:7775   */\n      0xffffffffffffffffffffffffffffffffffffffff\n        /* \"#utility.yul\":7726:7731   */\n      dup3\n        /* \"#utility.yul\":7722:7776   */\n      and\n        /* \"#utility.yul\":7711:7776   */\n      swap1\n      pop\n        /* \"#utility.yul\":7656:7782   */\n      swap2\n      swap1\n      pop\n      jump\t// out\n        /* \"#utility.yul\":7788:7865   */\n    tag_218:\n        /* \"#utility.yul\":7825:7832   */\n      0x00\n        /* \"#utility.yul\":7854:7859   */\n      dup2\n        /* \"#utility.yul\":7843:7859   */\n      swap1\n      pop\n        /* \"#utility.yul\":7788:7865   */\n      swap2\n      swap1\n      pop\n      jump\t// out\n        /* \"#utility.yul\":7994:8111   */\n    tag_142:\n        /* \"#utility.yul\":8103:8104   */\n      0x00\n        /* \"#utility.yul\":8100:8101   */\n      dup1\n        /* \"#utility.yul\":8093:8105   */\n      revert\n        /* \"#utility.yul\":8117:8342   */\n    tag_168:\n        /* \"#utility.yul\":8257:8291   */\n      0x4f776e61626c653a206e6577206f776e657220697320746865207a65726f2061\n        /* \"#utility.yul\":8253:8254   */\n      0x00\n        /* \"#utility.yul\":8245:8251   */\n      dup3\n        /* \"#utility.yul\":8241:8255   */\n      add\n        /* \"#utility.yul\":8234:8292   */\n      mstore\n        /* \"#utility.yul\":8326:8334   */\n      0x6464726573730000000000000000000000000000000000000000000000000000\n        /* \"#utility.yul\":8321:8323   */\n      0x20\n        /* \"#utility.yul\":8313:8319   */\n      dup3\n        /* \"#utility.yul\":8309:8324   */\n      add\n        /* \"#utility.yul\":8302:8335   */\n      mstore\n        /* \"#utility.yul\":8117:8342   */\n      pop\n      jump\t// out\n        /* \"#utility.yul\":8348:8530   */\n    tag_173:\n        /* \"#utility.yul\":8488:8522   */\n      0x54686973204167656e74206973206e6f74207265676973746572656420796574\n        /* \"#utility.yul\":8484:8485   */\n      0x00\n        /* \"#utility.yul\":8476:8482   */\n      dup3\n        /* \"#utility.yul\":8472:8486   */\n      add\n        /* \"#utility.yul\":8465:8523   */\n      mstore\n        /* \"#utility.yul\":8348:8530   */\n      pop\n      jump\t// out\n        /* \"#utility.yul\":8536:8713   */\n    tag_178:\n        /* \"#utility.yul\":8676:8705   */\n      0x5468697320746f6b656e206973206e6f7420626f756e64207965740000000000\n        /* \"#utility.yul\":8672:8673   */\n      0x00\n        /* \"#utility.yul\":8664:8670   */\n      dup3\n        /* \"#utility.yul\":8660:8674   */\n      add\n        /* \"#utility.yul\":8653:8706   */\n      mstore\n        /* \"#utility.yul\":8536:8713   */\n      pop\n      jump\t// out\n        /* \"#utility.yul\":8719:8896   */\n    tag_183:\n        /* \"#utility.yul\":8859:8888   */\n      0x5468697320746f6b656e20697320616c726561647920626f756e640000000000\n        /* \"#utility.yul\":8855:8856   */\n      0x00\n        /* \"#utility.yul\":8847:8853   */\n      dup3\n        /* \"#utility.yul\":8843:8857   */\n      add\n        /* \"#utility.yul\":8836:8889   */\n      mstore\n        /* \"#utility.yul\":8719:8896   */\n      pop\n      jump\t// out\n        /* \"#utility.yul\":8902:9084   */\n    tag_188:\n        /* \"#utility.yul\":9042:9076   */\n      0x54686973204167656e7420697320616c72656164792072656769737465726564\n        /* \"#utility.yul\":9038:9039   */\n      0x00\n        /* \"#utility.yul\":9030:9036   */\n      dup3\n        /* \"#utility.yul\":9026:9040   */\n      add\n        /* \"#utility.yul\":9019:9077   */\n      mstore\n        /* \"#utility.yul\":8902:9084   */\n      pop\n      jump\t// out\n        /* \"#utility.yul\":9090:9272   */\n    tag_193:\n        /* \"#utility.yul\":9230:9264   */\n      0x4f776e61626c653a2063616c6c6572206973206e6f7420746865206f776e6572\n        /* \"#utility.yul\":9226:9227   */\n      0x00\n        /* \"#utility.yul\":9218:9224   */\n      dup3\n        /* \"#utility.yul\":9214:9228   */\n      add\n        /* \"#utility.yul\":9207:9265   */\n      mstore\n        /* \"#utility.yul\":9090:9272   */\n      pop\n      jump\t// out\n        /* \"#utility.yul\":9278:9400   */\n    tag_134:\n        /* \"#utility.yul\":9351:9375   */\n      tag_230\n        /* \"#utility.yul\":9369:9374   */\n      dup2\n        /* \"#utility.yul\":9351:9375   */\n      tag_158\n      jump\t// in\n    tag_230:\n        /* \"#utility.yul\":9344:9349   */\n      dup2\n        /* \"#utility.yul\":9341:9376   */\n      eq\n        /* \"#utility.yul\":9331:9394   */\n      tag_231\n      jumpi\n        /* \"#utility.yul\":9390:9391   */\n      0x00\n        /* \"#utility.yul\":9387:9388   */\n      dup1\n        /* \"#utility.yul\":9380:9392   */\n      revert\n        /* \"#utility.yul\":9331:9394   */\n    tag_231:\n        /* \"#utility.yul\":9278:9400   */\n      pop\n      jump\t// out\n        /* \"#utility.yul\":9406:9528   */\n    tag_138:\n        /* \"#utility.yul\":9479:9503   */\n      tag_233\n        /* \"#utility.yul\":9497:9502   */\n      dup2\n        /* \"#utility.yul\":9479:9503   */\n      tag_218\n      jump\t// in\n    tag_233:\n        /* \"#utility.yul\":9472:9477   */\n      dup2\n        /* \"#utility.yul\":9469:9504   */\n      eq\n        /* \"#utility.yul\":9459:9522   */\n      tag_234\n      jumpi\n        /* \"#utility.yul\":9518:9519   */\n      0x00\n        /* \"#utility.yul\":9515:9516   */\n      dup1\n        /* \"#utility.yul\":9508:9520   */\n      revert\n        /* \"#utility.yul\":9459:9522   */\n    tag_234:\n        /* \"#utility.yul\":9406:9528   */\n      pop\n      jump\t// out\n\n    auxdata: 0xa264697066735822122052a60cbdc019229469b39b54f394062db45e1b5530dfd08e9f3308da74d9c5ee64736f6c63430008070033\n}\n",
				"bytecode": {
					"linkReferences": {},
					"object": "608060405234801561001057600080fd5b5061002d61002261003260201b60201c565b61003a60201b60201c565b6100fe565b600033905090565b60008060009054906101000a900473ffffffffffffffffffffffffffffffffffffffff169050816000806101000a81548173ffffffffffffffffffffffffffffffffffffffff021916908373ffffffffffffffffffffffffffffffffffffffff1602179055508173ffffffffffffffffffffffffffffffffffffffff168173ffffffffffffffffffffffffffffffffffffffff167f8be0079c531659141344cd1fd0a4f28419497f9722a3daafe3b4186f6b6457e060405160405180910390a35050565b610ecf8061010d6000396000f3fe608060405234801561001057600080fd5b50600436106100ea5760003560e01c80638d2ea7721161008c578063cdde293211610066578063cdde29321461021f578063e46638e61461023b578063f2fde38b1461026b578063ff3e695414610287576100ea565b80638d2ea772146101b55780638da5cb5b146101d1578063993e8b95146101ef576100ea565b80635f8dead3116100c85780635f8dead314610157578063715018a6146101735780637bcf04871461017d5780638baf29b414610199576100ea565b8063346531fa146100ef5780633ff5aa021461011f57806340db3b501461013b575b600080fd5b61010960048036038101906101049190610a4b565b6102a3565b6040516101169190610c16565b60405180910390f35b61013960048036038101906101349190610a4b565b6102f9565b005b61015560048036038101906101509190610a4b565b610420565b005b610171600480360381019061016c9190610acb565b610546565b005b61017b61054a565b005b61019760048036038101906101929190610a4b565b61055e565b005b6101b360048036038101906101ae9190610a78565b610572565b005b6101cf60048036038101906101ca9190610acb565b610577565b005b6101d961057b565b6040516101e69190610bfb565b60405180910390f35b61020960048036038101906102049190610a4b565b6105a4565b6040516102169190610c16565b60405180910390f35b61023960048036038101906102349190610a4b565b6105fa565b005b61025560048036038101906102509190610a78565b610720565b6040516102629190610c16565b60405180910390f35b61028560048036038101906102809190610a4b565b61072d565b005b6102a1600480360381019061029c9190610a4b565b6107b1565b005b6000600160008373ffffffffffffffffffffffffffffffffffffffff1673ffffffffffffffffffffffffffffffffffffffff16815260200190815260200160002060009054906101000a900460ff169050919050565b6103016108d7565b600260008273ffffffffffffffffffffffffffffffffffffffff1673ffffffffffffffffffffffffffffffffffffffff16815260200190815260200160002060009054906101000a900460ff161561038e576040517f08c379a000000000000000000000000000000000000000000000000000000000815260040161038590610c91565b60405180910390fd5b6001600260008373ffffffffffffffffffffffffffffffffffffffff1673ffffffffffffffffffffffffffffffffffffffff16815260200190815260200160002060006101000a81548160ff0219169083151502179055507f2de35142b19ed5a07796cf30791959c592018f70b1d2d7c460eef8ffe713692b816040516104159190610bfb565b60405180910390a150565b6104286108d7565b600260008273ffffffffffffffffffffffffffffffffffffffff1673ffffffffffffffffffffffffffffffffffffffff16815260200190815260200160002060009054906101000a900460ff166104b4576040517f08c379a00000000000000000000000000000000000000000000000000000000081526004016104ab90610c71565b60405180910390fd5b6000600260008373ffffffffffffffffffffffffffffffffffffffff1673ffffffffffffffffffffffffffffffffffffffff16815260200190815260200160002060006101000a81548160ff0219169083151502179055507f28a4ca7134a3b3f9aff286e79ad3daadb4a06d1b43d037a3a98bdc074edd9b7a8160405161053b9190610bfb565b60405180910390a150565b5050565b6105526108d7565b61055c6000610955565b565b6105666108d7565b61056f8161072d565b50565b505050565b5050565b60008060009054906101000a900473ffffffffffffffffffffffffffffffffffffffff16905090565b6000600260008373ffffffffffffffffffffffffffffffffffffffff1673ffffffffffffffffffffffffffffffffffffffff16815260200190815260200160002060009054906101000a900460ff169050919050565b6106026108d7565b600160008273ffffffffffffffffffffffffffffffffffffffff1673ffffffffffffffffffffffffffffffffffffffff16815260200190815260200160002060009054906101000a900460ff1661068e576040517f08c379a000000000000000000000000000000000000000000000000000000000815260040161068590610c51565b60405180910390fd5b6000600160008373ffffffffffffffffffffffffffffffffffffffff1673ffffffffffffffffffffffffffffffffffffffff16815260200190815260200160002060006101000a81548160ff0219169083151502179055507f6a659bb87bb23efbdc295f8eed8ae8c4379bfb77660ced2ef0f3d7d26b05c6a6816040516107159190610bfb565b60405180910390a150565b6000600190509392505050565b6107356108d7565b600073ffffffffffffffffffffffffffffffffffffffff168173ffffffffffffffffffffffffffffffffffffffff1614156107a5576040517f08c379a000000000000000000000000000000000000000000000000000000000815260040161079c90610c31565b60405180910390fd5b6107ae81610955565b50565b6107b96108d7565b600160008273ffffffffffffffffffffffffffffffffffffffff1673ffffffffffffffffffffffffffffffffffffffff16815260200190815260200160002060009054906101000a900460ff1615610846576040517f08c379a000000000000000000000000000000000000000000000000000000000815260040161083d90610cb1565b60405180910390fd5b60018060008373ffffffffffffffffffffffffffffffffffffffff1673ffffffffffffffffffffffffffffffffffffffff16815260200190815260200160002060006101000a81548160ff0219169083151502179055507fd62c45e13ac30396aceb3ad37c89bd1ba9048032fe61679000e92eb93dbfd67d816040516108cc9190610bfb565b60405180910390a150565b6108df610a19565b73ffffffffffffffffffffffffffffffffffffffff166108fd61057b565b73ffffffffffffffffffffffffffffffffffffffff1614610953576040517f08c379a000000000000000000000000000000000000000000000000000000000815260040161094a90610cd1565b60405180910390fd5b565b60008060009054906101000a900473ffffffffffffffffffffffffffffffffffffffff169050816000806101000a81548173ffffffffffffffffffffffffffffffffffffffff021916908373ffffffffffffffffffffffffffffffffffffffff1602179055508173ffffffffffffffffffffffffffffffffffffffff168173ffffffffffffffffffffffffffffffffffffffff167f8be0079c531659141344cd1fd0a4f28419497f9722a3daafe3b4186f6b6457e060405160405180910390a35050565b600033905090565b600081359050610a3081610e6b565b92915050565b600081359050610a4581610e82565b92915050565b600060208284031215610a6157610a60610d4a565b5b6000610a6f84828501610a21565b91505092915050565b600080600060608486031215610a9157610a90610d4a565b5b6000610a9f86828701610a21565b9350506020610ab086828701610a21565b9250506040610ac186828701610a36565b9150509250925092565b60008060408385031215610ae257610ae1610d4a565b5b6000610af085828601610a21565b9250506020610b0185828601610a36565b9150509250929050565b610b1481610d02565b82525050565b610b2381610d14565b82525050565b6000610b36602683610cf1565b9150610b4182610d4f565b604082019050919050565b6000610b59602083610cf1565b9150610b6482610d9e565b602082019050919050565b6000610b7c601b83610cf1565b9150610b8782610dc7565b602082019050919050565b6000610b9f601b83610cf1565b9150610baa82610df0565b602082019050919050565b6000610bc2602083610cf1565b9150610bcd82610e19565b602082019050919050565b6000610be5602083610cf1565b9150610bf082610e42565b602082019050919050565b6000602082019050610c106000830184610b0b565b92915050565b6000602082019050610c2b6000830184610b1a565b92915050565b60006020820190508181036000830152610c4a81610b29565b9050919050565b60006020820190508181036000830152610c6a81610b4c565b9050919050565b60006020820190508181036000830152610c8a81610b6f565b9050919050565b60006020820190508181036000830152610caa81610b92565b9050919050565b60006020820190508181036000830152610cca81610bb5565b9050919050565b60006020820190508181036000830152610cea81610bd8565b9050919050565b600082825260208201905092915050565b6000610d0d82610d20565b9050919050565b60008115159050919050565b600073ffffffffffffffffffffffffffffffffffffffff82169050919050565b6000819050919050565b600080fd5b7f4f776e61626c653a206e6577206f776e657220697320746865207a65726f206160008201527f6464726573730000000000000000000000000000000000000000000000000000602082015250565b7f54686973204167656e74206973206e6f74207265676973746572656420796574600082015250565b7f5468697320746f6b656e206973206e6f7420626f756e64207965740000000000600082015250565b7f5468697320746f6b656e20697320616c726561647920626f756e640000000000600082015250565b7f54686973204167656e7420697320616c72656164792072656769737465726564600082015250565b7f4f776e61626c653a2063616c6c6572206973206e6f7420746865206f776e6572600082015250565b610e7481610d02565b8114610e7f57600080fd5b50565b610e8b81610d40565b8114610e9657600080fd5b5056fea264697066735822122052a60cbdc019229469b39b54f394062db45e1b5530dfd08e9f3308da74d9c5ee64736f6c63430008070033",
					"opcodes": "PUSH1 0x80 PUSH1 0x40 MSTORE CALLVALUE DUP1 ISZERO PUSH2 0x10 JUMPI PUSH1 0x0 DUP1 REVERT JUMPDEST POP PUSH2 0x2D PUSH2 0x22 PUSH2 0x32 PUSH1 0x20 SHL PUSH1 0x20 SHR JUMP JUMPDEST PUSH2 0x3A PUSH1 0x20 SHL PUSH1 0x20 SHR JUMP JUMPDEST PUSH2 0xFE JUMP JUMPDEST PUSH1 0x0 CALLER SWAP1 POP SWAP1 JUMP JUMPDEST PUSH1 0x0 DUP1 PUSH1 0x0 SWAP1 SLOAD SWAP1 PUSH2 0x100 EXP SWAP1 DIV PUSH20 0xFFFFFFFFFFFFFFFFFFFFFFFFFFFFFFFFFFFFFFFF AND SWAP1 POP DUP2 PUSH1 0x0 DUP1 PUSH2 0x100 EXP DUP2 SLOAD DUP2 PUSH20 0xFFFFFFFFFFFFFFFFFFFFFFFFFFFFFFFFFFFFFFFF MUL NOT AND SWAP1 DUP4 PUSH20 0xFFFFFFFFFFFFFFFFFFFFFFFFFFFFFFFFFFFFFFFF AND MUL OR SWAP1 SSTORE POP DUP2 PUSH20 0xFFFFFFFFFFFFFFFFFFFFFFFFFFFFFFFFFFFFFFFF AND DUP2 PUSH20 0xFFFFFFFFFFFFFFFFFFFFFFFFFFFFFFFFFFFFFFFF AND PUSH32 0x8BE0079C531659141344CD1FD0A4F28419497F9722A3DAAFE3B4186F6B6457E0 PUSH1 0x40 MLOAD PUSH1 0x40 MLOAD DUP1 SWAP2 SUB SWAP1 LOG3 POP POP JUMP JUMPDEST PUSH2 0xECF DUP1 PUSH2 0x10D PUSH1 0x0 CODECOPY PUSH1 0x0 RETURN INVALID PUSH1 0x80 PUSH1 0x40 MSTORE CALLVALUE DUP1 ISZERO PUSH2 0x10 JUMPI PUSH1 0x0 DUP1 REVERT JUMPDEST POP PUSH1 0x4 CALLDATASIZE LT PUSH2 0xEA JUMPI PUSH1 0x0 CALLDATALOAD PUSH1 0xE0 SHR DUP1 PUSH4 0x8D2EA772 GT PUSH2 0x8C JUMPI DUP1 PUSH4 0xCDDE2932 GT PUSH2 0x66 JUMPI DUP1 PUSH4 0xCDDE2932 EQ PUSH2 0x21F JUMPI DUP1 PUSH4 0xE46638E6 EQ PUSH2 0x23B JUMPI DUP1 PUSH4 0xF2FDE38B EQ PUSH2 0x26B JUMPI DUP1 PUSH4 0xFF3E6954 EQ PUSH2 0x287 JUMPI PUSH2 0xEA JUMP JUMPDEST DUP1 PUSH4 0x8D2EA772 EQ PUSH2 0x1B5 JUMPI DUP1 PUSH4 0x8DA5CB5B EQ PUSH2 0x1D1 JUMPI DUP1 PUSH4 0x993E8B95 EQ PUSH2 0x1EF JUMPI PUSH2 0xEA JUMP JUMPDEST DUP1 PUSH4 0x5F8DEAD3 GT PUSH2 0xC8 JUMPI DUP1 PUSH4 0x5F8DEAD3 EQ PUSH2 0x157 JUMPI DUP1 PUSH4 0x715018A6 EQ PUSH2 0x173 JUMPI DUP1 PUSH4 0x7BCF0487 EQ PUSH2 0x17D JUMPI DUP1 PUSH4 0x8BAF29B4 EQ PUSH2 0x199 JUMPI PUSH2 0xEA JUMP JUMPDEST DUP1 PUSH4 0x346531FA EQ PUSH2 0xEF JUMPI DUP1 PUSH4 0x3FF5AA02 EQ PUSH2 0x11F JUMPI DUP1 PUSH4 0x40DB3B50 EQ PUSH2 0x13B JUMPI JUMPDEST PUSH1 0x0 DUP1 REVERT JUMPDEST PUSH2 0x109 PUSH1 0x4 DUP1 CALLDATASIZE SUB DUP2 ADD SWAP1 PUSH2 0x104 SWAP2 SWAP1 PUSH2 0xA4B JUMP JUMPDEST PUSH2 0x2A3 JUMP JUMPDEST PUSH1 0x40 MLOAD PUSH2 0x116 SWAP2 SWAP1 PUSH2 0xC16 JUMP JUMPDEST PUSH1 0x40 MLOAD DUP1 SWAP2 SUB SWAP1 RETURN JUMPDEST PUSH2 0x139 PUSH1 0x4 DUP1 CALLDATASIZE SUB DUP2 ADD SWAP1 PUSH2 0x134 SWAP2 SWAP1 PUSH2 0xA4B JUMP JUMPDEST PUSH2 0x2F9 JUMP JUMPDEST STOP JUMPDEST PUSH2 0x155 PUSH1 0x4 DUP1 CALLDATASIZE SUB DUP2 ADD SWAP1 PUSH2 0x150 SWAP2 SWAP1 PUSH2 0xA4B JUMP JUMPDEST PUSH2 0x420 JUMP JUMPDEST STOP JUMPDEST PUSH2 0x171 PUSH1 0x4 DUP1 CALLDATASIZE SUB DUP2 ADD SWAP1 PUSH2 0x16C SWAP2 SWAP1 PUSH2 0xACB JUMP JUMPDEST PUSH2 0x546 JUMP JUMPDEST STOP JUMPDEST PUSH2 0x17B PUSH2 0x54A JUMP JUMPDEST STOP JUMPDEST PUSH2 0x197 PUSH1 0x4 DUP1 CALLDATASIZE SUB DUP2 ADD SWAP1 PUSH2 0x192 SWAP2 SWAP1 PUSH2 0xA4B JUMP JUMPDEST PUSH2 0x55E JUMP JUMPDEST STOP JUMPDEST PUSH2 0x1B3 PUSH1 0x4 DUP1 CALLDATASIZE SUB DUP2 ADD SWAP1 PUSH2 0x1AE SWAP2 SWAP1 PUSH2 0xA78 JUMP JUMPDEST PUSH2 0x572 JUMP JUMPDEST STOP JUMPDEST PUSH2 0x1CF PUSH1 0x4 DUP1 CALLDATASIZE SUB DUP2 ADD SWAP1 PUSH2 0x1CA SWAP2 SWAP1 PUSH2 0xACB JUMP JUMPDEST PUSH2 0x577 JUMP JUMPDEST STOP JUMPDEST PUSH2 0x1D9 PUSH2 0x57B JUMP JUMPDEST PUSH1 0x40 MLOAD PUSH2 0x1E6 SWAP2 SWAP1 PUSH2 0xBFB JUMP JUMPDEST PUSH1 0x40 MLOAD DUP1 SWAP2 SUB SWAP1 RETURN JUMPDEST PUSH2 0x209 PUSH1 0x4 DUP1 CALLDATASIZE SUB DUP2 ADD SWAP1 PUSH2 0x204 SWAP2 SWAP1 PUSH2 0xA4B JUMP JUMPDEST PUSH2 0x5A4 JUMP JUMPDEST PUSH1 0x40 MLOAD PUSH2 0x216 SWAP2 SWAP1 PUSH2 0xC16 JUMP JUMPDEST PUSH1 0x40 MLOAD DUP1 SWAP2 SUB SWAP1 RETURN JUMPDEST PUSH2 0x239 PUSH1 0x4 DUP1 CALLDATASIZE SUB DUP2 ADD SWAP1 PUSH2 0x234 SWAP2 SWAP1 PUSH2 0xA4B JUMP JUMPDEST PUSH2 0x5FA JUMP JUMPDEST STOP JUMPDEST PUSH2 0x255 PUSH1 0x4 DUP1 CALLDATASIZE SUB DUP2 ADD SWAP1 PUSH2 0x250 SWAP2 SWAP1 PUSH2 0xA78 JUMP JUMPDEST PUSH2 0x720 JUMP JUMPDEST PUSH1 0x40 MLOAD PUSH2 0x262 SWAP2 SWAP1 PUSH2 0xC16 JUMP JUMPDEST PUSH1 0x40 MLOAD DUP1 SWAP2 SUB SWAP1 RETURN JUMPDEST PUSH2 0x285 PUSH1 0x4 DUP1 CALLDATASIZE SUB DUP2 ADD SWAP1 PUSH2 0x280 SWAP2 SWAP1 PUSH2 0xA4B JUMP JUMPDEST PUSH2 0x72D JUMP JUMPDEST STOP JUMPDEST PUSH2 0x2A1 PUSH1 0x4 DUP1 CALLDATASIZE SUB DUP2 ADD SWAP1 PUSH2 0x29C SWAP2 SWAP1 PUSH2 0xA4B JUMP JUMPDEST PUSH2 0x7B1 JUMP JUMPDEST STOP JUMPDEST PUSH1 0x0 PUSH1 0x1 PUSH1 0x0 DUP4 PUSH20 0xFFFFFFFFFFFFFFFFFFFFFFFFFFFFFFFFFFFFFFFF AND PUSH20 0xFFFFFFFFFFFFFFFFFFFFFFFFFFFFFFFFFFFFFFFF AND DUP2 MSTORE PUSH1 0x20 ADD SWAP1 DUP2 MSTORE PUSH1 0x20 ADD PUSH1 0x0 KECCAK256 PUSH1 0x0 SWAP1 SLOAD SWAP1 PUSH2 0x100 EXP SWAP1 DIV PUSH1 0xFF AND SWAP1 POP SWAP2 SWAP1 POP JUMP JUMPDEST PUSH2 0x301 PUSH2 0x8D7 JUMP JUMPDEST PUSH1 0x2 PUSH1 0x0 DUP3 PUSH20 0xFFFFFFFFFFFFFFFFFFFFFFFFFFFFFFFFFFFFFFFF AND PUSH20 0xFFFFFFFFFFFFFFFFFFFFFFFFFFFFFFFFFFFFFFFF AND DUP2 MSTORE PUSH1 0x20 ADD SWAP1 DUP2 MSTORE PUSH1 0x20 ADD PUSH1 0x0 KECCAK256 PUSH1 0x0 SWAP1 SLOAD SWAP1 PUSH2 0x100 EXP SWAP1 DIV PUSH1 0xFF AND ISZERO PUSH2 0x38E JUMPI PUSH1 0x40 MLOAD PUSH32 0x8C379A000000000000000000000000000000000000000000000000000000000 DUP2 MSTORE PUSH1 0x4 ADD PUSH2 0x385 SWAP1 PUSH2 0xC91 JUMP JUMPDEST PUSH1 0x40 MLOAD DUP1 SWAP2 SUB SWAP1 REVERT JUMPDEST PUSH1 0x1 PUSH1 0x2 PUSH1 0x0 DUP4 PUSH20 0xFFFFFFFFFFFFFFFFFFFFFFFFFFFFFFFFFFFFFFFF AND PUSH20 0xFFFFFFFFFFFFFFFFFFFFFFFFFFFFFFFFFFFFFFFF AND DUP2 MSTORE PUSH1 0x20 ADD SWAP1 DUP2 MSTORE PUSH1 0x20 ADD PUSH1 0x0 KECCAK256 PUSH1 0x0 PUSH2 0x100 EXP DUP2 SLOAD DUP2 PUSH1 0xFF MUL NOT AND SWAP1 DUP4 ISZERO ISZERO MUL OR SWAP1 SSTORE POP PUSH32 0x2DE35142B19ED5A07796CF30791959C592018F70B1D2D7C460EEF8FFE713692B DUP2 PUSH1 0x40 MLOAD PUSH2 0x415 SWAP2 SWAP1 PUSH2 0xBFB JUMP JUMPDEST PUSH1 0x40 MLOAD DUP1 SWAP2 SUB SWAP1 LOG1 POP JUMP JUMPDEST PUSH2 0x428 PUSH2 0x8D7 JUMP JUMPDEST PUSH1 0x2 PUSH1 0x0 DUP3 PUSH20 0xFFFFFFFFFFFFFFFFFFFFFFFFFFFFFFFFFFFFFFFF AND PUSH20 0xFFFFFFFFFFFFFFFFFFFFFFFFFFFFFFFFFFFFFFFF AND DUP2 MSTORE PUSH1 0x20 ADD SWAP1 DUP2 MSTORE PUSH1 0x20 ADD PUSH1 0x0 KECCAK256 PUSH1 0x0 SWAP1 SLOAD SWAP1 PUSH2 0x100 EXP SWAP1 DIV PUSH1 0xFF AND PUSH2 0x4B4 JUMPI PUSH1 0x40 MLOAD PUSH32 0x8C379A000000000000000000000000000000000000000000000000000000000 DUP2 MSTORE PUSH1 0x4 ADD PUSH2 0x4AB SWAP1 PUSH2 0xC71 JUMP JUMPDEST PUSH1 0x40 MLOAD DUP1 SWAP2 SUB SWAP1 REVERT JUMPDEST PUSH1 0x0 PUSH1 0x2 PUSH1 0x0 DUP4 PUSH20 0xFFFFFFFFFFFFFFFFFFFFFFFFFFFFFFFFFFFFFFFF AND PUSH20 0xFFFFFFFFFFFFFFFFFFFFFFFFFFFFFFFFFFFFFFFF AND DUP2 MSTORE PUSH1 0x20 ADD SWAP1 DUP2 MSTORE PUSH1 0x20 ADD PUSH1 0x0 KECCAK256 PUSH1 0x0 PUSH2 0x100 EXP DUP2 SLOAD DUP2 PUSH1 0xFF MUL NOT AND SWAP1 DUP4 ISZERO ISZERO MUL OR SWAP1 SSTORE POP PUSH32 0x28A4CA7134A3B3F9AFF286E79AD3DAADB4A06D1B43D037A3A98BDC074EDD9B7A DUP2 PUSH1 0x40 MLOAD PUSH2 0x53B SWAP2 SWAP1 PUSH2 0xBFB JUMP JUMPDEST PUSH1 0x40 MLOAD DUP1 SWAP2 SUB SWAP1 LOG1 POP JUMP JUMPDEST POP POP JUMP JUMPDEST PUSH2 0x552 PUSH2 0x8D7 JUMP JUMPDEST PUSH2 0x55C PUSH1 0x0 PUSH2 0x955 JUMP JUMPDEST JUMP JUMPDEST PUSH2 0x566 PUSH2 0x8D7 JUMP JUMPDEST PUSH2 0x56F DUP2 PUSH2 0x72D JUMP JUMPDEST POP JUMP JUMPDEST POP POP POP JUMP JUMPDEST POP POP JUMP JUMPDEST PUSH1 0x0 DUP1 PUSH1 0x0 SWAP1 SLOAD SWAP1 PUSH2 0x100 EXP SWAP1 DIV PUSH20 0xFFFFFFFFFFFFFFFFFFFFFFFFFFFFFFFFFFFFFFFF AND SWAP1 POP SWAP1 JUMP JUMPDEST PUSH1 0x0 PUSH1 0x2 PUSH1 0x0 DUP4 PUSH20 0xFFFFFFFFFFFFFFFFFFFFFFFFFFFFFFFFFFFFFFFF AND PUSH20 0xFFFFFFFFFFFFFFFFFFFFFFFFFFFFFFFFFFFFFFFF AND DUP2 MSTORE PUSH1 0x20 ADD SWAP1 DUP2 MSTORE PUSH1 0x20 ADD PUSH1 0x0 KECCAK256 PUSH1 0x0 SWAP1 SLOAD SWAP1 PUSH2 0x100 EXP SWAP1 DIV PUSH1 0xFF AND SWAP1 POP SWAP2 SWAP1 POP JUMP JUMPDEST PUSH2 0x602 PUSH2 0x8D7 JUMP JUMPDEST PUSH1 0x1 PUSH1 0x0 DUP3 PUSH20 0xFFFFFFFFFFFFFFFFFFFFFFFFFFFFFFFFFFFFFFFF AND PUSH20 0xFFFFFFFFFFFFFFFFFFFFFFFFFFFFFFFFFFFFFFFF AND DUP2 MSTORE PUSH1 0x20 ADD SWAP1 DUP2 MSTORE PUSH1 0x20 ADD PUSH1 0x0 KECCAK256 PUSH1 0x0 SWAP1 SLOAD SWAP1 PUSH2 0x100 EXP SWAP1 DIV PUSH1 0xFF AND PUSH2 0x68E JUMPI PUSH1 0x40 MLOAD PUSH32 0x8C379A000000000000000000000000000000000000000000000000000000000 DUP2 MSTORE PUSH1 0x4 ADD PUSH2 0x685 SWAP1 PUSH2 0xC51 JUMP JUMPDEST PUSH1 0x40 MLOAD DUP1 SWAP2 SUB SWAP1 REVERT JUMPDEST PUSH1 0x0 PUSH1 0x1 PUSH1 0x0 DUP4 PUSH20 0xFFFFFFFFFFFFFFFFFFFFFFFFFFFFFFFFFFFFFFFF AND PUSH20 0xFFFFFFFFFFFFFFFFFFFFFFFFFFFFFFFFFFFFFFFF AND DUP2 MSTORE PUSH1 0x20 ADD SWAP1 DUP2 MSTORE PUSH1 0x20 ADD PUSH1 0x0 KECCAK256 PUSH1 0x0 PUSH2 0x100 EXP DUP2 SLOAD DUP2 PUSH1 0xFF MUL NOT AND SWAP1 DUP4 ISZERO ISZERO MUL OR SWAP1 SSTORE POP PUSH32 0x6A659BB87BB23EFBDC295F8EED8AE8C4379BFB77660CED2EF0F3D7D26B05C6A6 DUP2 PUSH1 0x40 MLOAD PUSH2 0x715 SWAP2 SWAP1 PUSH2 0xBFB JUMP JUMPDEST PUSH1 0x40 MLOAD DUP1 SWAP2 SUB SWAP1 LOG1 POP JUMP JUMPDEST PUSH1 0x0 PUSH1 0x1 SWAP1 POP SWAP4 SWAP3 POP POP POP JUMP JUMPDEST PUSH2 0x735 PUSH2 0x8D7 JUMP JUMPDEST PUSH1 0x0 PUSH20 0xFFFFFFFFFFFFFFFFFFFFFFFFFFFFFFFFFFFFFFFF AND DUP2 PUSH20 0xFFFFFFFFFFFFFFFFFFFFFFFFFFFFFFFFFFFFFFFF AND EQ ISZERO PUSH2 0x7A5 JUMPI PUSH1 0x40 MLOAD PUSH32 0x8C379A000000000000000000000000000000000000000000000000000000000 DUP2 MSTORE PUSH1 0x4 ADD PUSH2 0x79C SWAP1 PUSH2 0xC31 JUMP JUMPDEST PUSH1 0x40 MLOAD DUP1 SWAP2 SUB SWAP1 REVERT JUMPDEST PUSH2 0x7AE DUP2 PUSH2 0x955 JUMP JUMPDEST POP JUMP JUMPDEST PUSH2 0x7B9 PUSH2 0x8D7 JUMP JUMPDEST PUSH1 0x1 PUSH1 0x0 DUP3 PUSH20 0xFFFFFFFFFFFFFFFFFFFFFFFFFFFFFFFFFFFFFFFF AND PUSH20 0xFFFFFFFFFFFFFFFFFFFFFFFFFFFFFFFFFFFFFFFF AND DUP2 MSTORE PUSH1 0x20 ADD SWAP1 DUP2 MSTORE PUSH1 0x20 ADD PUSH1 0x0 KECCAK256 PUSH1 0x0 SWAP1 SLOAD SWAP1 PUSH2 0x100 EXP SWAP1 DIV PUSH1 0xFF AND ISZERO PUSH2 0x846 JUMPI PUSH1 0x40 MLOAD PUSH32 0x8C379A000000000000000000000000000000000000000000000000000000000 DUP2 MSTORE PUSH1 0x4 ADD PUSH2 0x83D SWAP1 PUSH2 0xCB1 JUMP JUMPDEST PUSH1 0x40 MLOAD DUP1 SWAP2 SUB SWAP1 REVERT JUMPDEST PUSH1 0x1 DUP1 PUSH1 0x0 DUP4 PUSH20 0xFFFFFFFFFFFFFFFFFFFFFFFFFFFFFFFFFFFFFFFF AND PUSH20 0xFFFFFFFFFFFFFFFFFFFFFFFFFFFFFFFFFFFFFFFF AND DUP2 MSTORE PUSH1 0x20 ADD SWAP1 DUP2 MSTORE PUSH1 0x20 ADD PUSH1 0x0 KECCAK256 PUSH1 0x0 PUSH2 0x100 EXP DUP2 SLOAD DUP2 PUSH1 0xFF MUL NOT AND SWAP1 DUP4 ISZERO ISZERO MUL OR SWAP1 SSTORE POP PUSH32 0xD62C45E13AC30396ACEB3AD37C89BD1BA9048032FE61679000E92EB93DBFD67D DUP2 PUSH1 0x40 MLOAD PUSH2 0x8CC SWAP2 SWAP1 PUSH2 0xBFB JUMP JUMPDEST PUSH1 0x40 MLOAD DUP1 SWAP2 SUB SWAP1 LOG1 POP JUMP JUMPDEST PUSH2 0x8DF PUSH2 0xA19 JUMP JUMPDEST PUSH20 0xFFFFFFFFFFFFFFFFFFFFFFFFFFFFFFFFFFFFFFFF AND PUSH2 0x8FD PUSH2 0x57B JUMP JUMPDEST PUSH20 0xFFFFFFFFFFFFFFFFFFFFFFFFFFFFFFFFFFFFFFFF AND EQ PUSH2 0x953 JUMPI PUSH1 0x40 MLOAD PUSH32 0x8C379A000000000000000000000000000000000000000000000000000000000 DUP2 MSTORE PUSH1 0x4 ADD PUSH2 0x94A SWAP1 PUSH2 0xCD1 JUMP JUMPDEST PUSH1 0x40 MLOAD DUP1 SWAP2 SUB SWAP1 REVERT JUMPDEST JUMP JUMPDEST PUSH1 0x0 DUP1 PUSH1 0x0 SWAP1 SLOAD SWAP1 PUSH2 0x100 EXP SWAP1 DIV PUSH20 0xFFFFFFFFFFFFFFFFFFFFFFFFFFFFFFFFFFFFFFFF AND SWAP1 POP DUP2 PUSH1 0x0 DUP1 PUSH2 0x100 EXP DUP2 SLOAD DUP2 PUSH20 0xFFFFFFFFFFFFFFFFFFFFFFFFFFFFFFFFFFFFFFFF MUL NOT AND SWAP1 DUP4 PUSH20 0xFFFFFFFFFFFFFFFFFFFFFFFFFFFFFFFFFFFFFFFF AND MUL OR SWAP1 SSTORE POP DUP2 PUSH20 0xFFFFFFFFFFFFFFFFFFFFFFFFFFFFFFFFFFFFFFFF AND DUP2 PUSH20 0xFFFFFFFFFFFFFFFFFFFFFFFFFFFFFFFFFFFFFFFF AND PUSH32 0x8BE0079C531659141344CD1FD0A4F28419497F9722A3DAAFE3B4186F6B6457E0 PUSH1 0x40 MLOAD PUSH1 0x40 MLOAD DUP1 SWAP2 SUB SWAP1 LOG3 POP POP JUMP JUMPDEST PUSH1 0x0 CALLER SWAP1 POP SWAP1 JUMP JUMPDEST PUSH1 0x0 DUP2 CALLDATALOAD SWAP1 POP PUSH2 0xA30 DUP2 PUSH2 0xE6B JUMP JUMPDEST SWAP3 SWAP2 POP POP JUMP JUMPDEST PUSH1 0x0 DUP2 CALLDATALOAD SWAP1 POP PUSH2 0xA45 DUP2 PUSH2 0xE82 JUMP JUMPDEST SWAP3 SWAP2 POP POP JUMP JUMPDEST PUSH1 0x0 PUSH1 0x20 DUP3 DUP5 SUB SLT ISZERO PUSH2 0xA61 JUMPI PUSH2 0xA60 PUSH2 0xD4A JUMP JUMPDEST JUMPDEST PUSH1 0x0 PUSH2 0xA6F DUP5 DUP3 DUP6 ADD PUSH2 0xA21 JUMP JUMPDEST SWAP2 POP POP SWAP3 SWAP2 POP POP JUMP JUMPDEST PUSH1 0x0 DUP1 PUSH1 0x0 PUSH1 0x60 DUP5 DUP7 SUB SLT ISZERO PUSH2 0xA91 JUMPI PUSH2 0xA90 PUSH2 0xD4A JUMP JUMPDEST JUMPDEST PUSH1 0x0 PUSH2 0xA9F DUP7 DUP3 DUP8 ADD PUSH2 0xA21 JUMP JUMPDEST SWAP4 POP POP PUSH1 0x20 PUSH2 0xAB0 DUP7 DUP3 DUP8 ADD PUSH2 0xA21 JUMP JUMPDEST SWAP3 POP POP PUSH1 0x40 PUSH2 0xAC1 DUP7 DUP3 DUP8 ADD PUSH2 0xA36 JUMP JUMPDEST SWAP2 POP POP SWAP3 POP SWAP3 POP SWAP3 JUMP JUMPDEST PUSH1 0x0 DUP1 PUSH1 0x40 DUP4 DUP6 SUB SLT ISZERO PUSH2 0xAE2 JUMPI PUSH2 0xAE1 PUSH2 0xD4A JUMP JUMPDEST JUMPDEST PUSH1 0x0 PUSH2 0xAF0 DUP6 DUP3 DUP7 ADD PUSH2 0xA21 JUMP JUMPDEST SWAP3 POP POP PUSH1 0x20 PUSH2 0xB01 DUP6 DUP3 DUP7 ADD PUSH2 0xA36 JUMP JUMPDEST SWAP2 POP POP SWAP3 POP SWAP3 SWAP1 POP JUMP JUMPDEST PUSH2 0xB14 DUP2 PUSH2 0xD02 JUMP JUMPDEST DUP3 MSTORE POP POP JUMP JUMPDEST PUSH2 0xB23 DUP2 PUSH2 0xD14 JUMP JUMPDEST DUP3 MSTORE POP POP JUMP JUMPDEST PUSH1 0x0 PUSH2 0xB36 PUSH1 0x26 DUP4 PUSH2 0xCF1 JUMP JUMPDEST SWAP2 POP PUSH2 0xB41 DUP3 PUSH2 0xD4F JUMP JUMPDEST PUSH1 0x40 DUP3 ADD SWAP1 POP SWAP2 SWAP1 POP JUMP JUMPDEST PUSH1 0x0 PUSH2 0xB59 PUSH1 0x20 DUP4 PUSH2 0xCF1 JUMP JUMPDEST SWAP2 POP PUSH2 0xB64 DUP3 PUSH2 0xD9E JUMP JUMPDEST PUSH1 0x20 DUP3 ADD SWAP1 POP SWAP2 SWAP1 POP JUMP JUMPDEST PUSH1 0x0 PUSH2 0xB7C PUSH1 0x1B DUP4 PUSH2 0xCF1 JUMP JUMPDEST SWAP2 POP PUSH2 0xB87 DUP3 PUSH2 0xDC7 JUMP JUMPDEST PUSH1 0x20 DUP3 ADD SWAP1 POP SWAP2 SWAP1 POP JUMP JUMPDEST PUSH1 0x0 PUSH2 0xB9F PUSH1 0x1B DUP4 PUSH2 0xCF1 JUMP JUMPDEST SWAP2 POP PUSH2 0xBAA DUP3 PUSH2 0xDF0 JUMP JUMPDEST PUSH1 0x20 DUP3 ADD SWAP1 POP SWAP2 SWAP1 POP JUMP JUMPDEST PUSH1 0x0 PUSH2 0xBC2 PUSH1 0x20 DUP4 PUSH2 0xCF1 JUMP JUMPDEST SWAP2 POP PUSH2 0xBCD DUP3 PUSH2 0xE19 JUMP JUMPDEST PUSH1 0x20 DUP3 ADD SWAP1 POP SWAP2 SWAP1 POP JUMP JUMPDEST PUSH1 0x0 PUSH2 0xBE5 PUSH1 0x20 DUP4 PUSH2 0xCF1 JUMP JUMPDEST SWAP2 POP PUSH2 0xBF0 DUP3 PUSH2 0xE42 JUMP JUMPDEST PUSH1 0x20 DUP3 ADD SWAP1 POP SWAP2 SWAP1 POP JUMP JUMPDEST PUSH1 0x0 PUSH1 0x20 DUP3 ADD SWAP1 POP PUSH2 0xC10 PUSH1 0x0 DUP4 ADD DUP5 PUSH2 0xB0B JUMP JUMPDEST SWAP3 SWAP2 POP POP JUMP JUMPDEST PUSH1 0x0 PUSH1 0x20 DUP3 ADD SWAP1 POP PUSH2 0xC2B PUSH1 0x0 DUP4 ADD DUP5 PUSH2 0xB1A JUMP JUMPDEST SWAP3 SWAP2 POP POP JUMP JUMPDEST PUSH1 0x0 PUSH1 0x20 DUP3 ADD SWAP1 POP DUP2 DUP2 SUB PUSH1 0x0 DUP4 ADD MSTORE PUSH2 0xC4A DUP2 PUSH2 0xB29 JUMP JUMPDEST SWAP1 POP SWAP2 SWAP1 POP JUMP JUMPDEST PUSH1 0x0 PUSH1 0x20 DUP3 ADD SWAP1 POP DUP2 DUP2 SUB PUSH1 0x0 DUP4 ADD MSTORE PUSH2 0xC6A DUP2 PUSH2 0xB4C JUMP JUMPDEST SWAP1 POP SWAP2 SWAP1 POP JUMP JUMPDEST PUSH1 0x0 PUSH1 0x20 DUP3 ADD SWAP1 POP DUP2 DUP2 SUB PUSH1 0x0 DUP4 ADD MSTORE PUSH2 0xC8A DUP2 PUSH2 0xB6F JUMP JUMPDEST SWAP1 POP SWAP2 SWAP1 POP JUMP JUMPDEST PUSH1 0x0 PUSH1 0x20 DUP3 ADD SWAP1 POP DUP2 DUP2 SUB PUSH1 0x0 DUP4 ADD MSTORE PUSH2 0xCAA DUP2 PUSH2 0xB92 JUMP JUMPDEST SWAP1 POP SWAP2 SWAP1 POP JUMP JUMPDEST PUSH1 0x0 PUSH1 0x20 DUP3 ADD SWAP1 POP DUP2 DUP2 SUB PUSH1 0x0 DUP4 ADD MSTORE PUSH2 0xCCA DUP2 PUSH2 0xBB5 JUMP JUMPDEST SWAP1 POP SWAP2 SWAP1 POP JUMP JUMPDEST PUSH1 0x0 PUSH1 0x20 DUP3 ADD SWAP1 POP DUP2 DUP2 SUB PUSH1 0x0 DUP4 ADD MSTORE PUSH2 0xCEA DUP2 PUSH2 0xBD8 JUMP JUMPDEST SWAP1 POP SWAP2 SWAP1 POP JUMP JUMPDEST PUSH1 0x0 DUP3 DUP3 MSTORE PUSH1 0x20 DUP3 ADD SWAP1 POP SWAP3 SWAP2 POP POP JUMP JUMPDEST PUSH1 0x0 PUSH2 0xD0D DUP3 PUSH2 0xD20 JUMP JUMPDEST SWAP1 POP SWAP2 SWAP1 POP JUMP JUMPDEST PUSH1 0x0 DUP2 ISZERO ISZERO SWAP1 POP SWAP2 SWAP1 POP JUMP JUMPDEST PUSH1 0x0 PUSH20 0xFFFFFFFFFFFFFFFFFFFFFFFFFFFFFFFFFFFFFFFF DUP3 AND SWAP1 POP SWAP2 SWAP1 POP JUMP JUMPDEST PUSH1 0x0 DUP2 SWAP1 POP SWAP2 SWAP1 POP JUMP JUMPDEST PUSH1 0x0 DUP1 REVERT JUMPDEST PUSH32 0x4F776E61626C653A206E6577206F776E657220697320746865207A65726F2061 PUSH1 0x0 DUP3 ADD MSTORE PUSH32 0x6464726573730000000000000000000000000000000000000000000000000000 PUSH1 0x20 DUP3 ADD MSTORE POP JUMP JUMPDEST PUSH32 0x54686973204167656E74206973206E6F74207265676973746572656420796574 PUSH1 0x0 DUP3 ADD MSTORE POP JUMP JUMPDEST PUSH32 0x5468697320746F6B656E206973206E6F7420626F756E64207965740000000000 PUSH1 0x0 DUP3 ADD MSTORE POP JUMP JUMPDEST PUSH32 0x5468697320746F6B656E20697320616C726561647920626F756E640000000000 PUSH1 0x0 DUP3 ADD MSTORE POP JUMP JUMPDEST PUSH32 0x54686973204167656E7420697320616C72656164792072656769737465726564 PUSH1 0x0 DUP3 ADD MSTORE POP JUMP JUMPDEST PUSH32 0x4F776E61626C653A2063616C6C6572206973206E6F7420746865206F776E6572 PUSH1 0x0 DUP3 ADD MSTORE POP JUMP JUMPDEST PUSH2 0xE74 DUP2 PUSH2 0xD02 JUMP JUMPDEST DUP2 EQ PUSH2 0xE7F JUMPI PUSH1 0x0 DUP1 REVERT JUMPDEST POP JUMP JUMPDEST PUSH2 0xE8B DUP2 PUSH2 0xD40 JUMP JUMPDEST DUP2 EQ PUSH2 0xE96 JUMPI PUSH1 0x0 DUP1 REVERT JUMPDEST POP JUMP INVALID LOG2 PUSH5 0x6970667358 0x22 SLT KECCAK256 MSTORE 0xA6 0xC 0xBD 0xC0 NOT 0x22 SWAP5 PUSH10 0xB39B54F394062DB45E1B SSTORE ADDRESS 0xDF 0xD0 DUP15 SWAP16 CALLER ADDMOD 0xDA PUSH21 0xD9C5EE64736F6C6343000807003300000000000000 "
				},
				"gasEstimates": {
					"creation": {
						"codeDepositCost": "758200",
						"executionCost": "infinite",
						"totalCost": "infinite"
					},
					"external": {
						"addTokenAgent(address)": "infinite",
						"bindToken(address)": "infinite",
						"canTransfer(address,address,uint256)": "infinite",
						"created(address,uint256)": "651",
						"destroyed(address,uint256)": "651",
						"isTokenAgent(address)": "2907",
						"isTokenBound(address)": "2950",
						"owner()": "2567",
						"removeTokenAgent(address)": "infinite",
						"renounceOwnership()": "30443",
						"transferOwnership(address)": "30813",
						"transferOwnershipOnComplianceContract(address)": "infinite",
						"transferred(address,address,uint256)": "infinite",
						"unbindToken(address)": "infinite"
					}
				},
				"methodIdentifiers": {
					"addTokenAgent(address)": "ff3e6954",
					"bindToken(address)": "3ff5aa02",
					"canTransfer(address,address,uint256)": "e46638e6",
					"created(address,uint256)": "5f8dead3",
					"destroyed(address,uint256)": "8d2ea772",
					"isTokenAgent(address)": "346531fa",
					"isTokenBound(address)": "993e8b95",
					"owner()": "8da5cb5b",
					"removeTokenAgent(address)": "cdde2932",
					"renounceOwnership()": "715018a6",
					"transferOwnership(address)": "f2fde38b",
					"transferOwnershipOnComplianceContract(address)": "7bcf0487",
					"transferred(address,address,uint256)": "8baf29b4",
					"unbindToken(address)": "40db3b50"
				}
			},
			"storageLayout": {
				"storage": [
					{
						"astId": 7,
						"contract": "contracts/compliance/DefaultCompliance.sol:DefaultCompliance",
						"label": "_owner",
						"offset": 0,
						"slot": "0",
						"type": "t_address"
					},
					{
						"astId": 147,
						"contract": "contracts/compliance/DefaultCompliance.sol:DefaultCompliance",
						"label": "_tokenAgentsList",
						"offset": 0,
						"slot": "1",
						"type": "t_mapping(t_address,t_bool)"
					},
					{
						"astId": 152,
						"contract": "contracts/compliance/DefaultCompliance.sol:DefaultCompliance",
						"label": "_tokensBound",
						"offset": 0,
						"slot": "2",
						"type": "t_mapping(t_address,t_bool)"
					}
				],
				"types": {
					"t_address": {
						"encoding": "inplace",
						"label": "address",
						"numberOfBytes": "20"
					},
					"t_bool": {
						"encoding": "inplace",
						"label": "bool",
						"numberOfBytes": "1"
					},
					"t_mapping(t_address,t_bool)": {
						"encoding": "mapping",
						"key": "t_address",
						"label": "mapping(address => bool)",
						"numberOfBytes": "32",
						"value": "t_bool"
					}
				}
			},
			"userdoc": {
				"events": {
					"TokenAgentAdded(address)": {
						"notice": "this event is emitted when the Agent has been added on the allowedList of this Compliance.  the event is emitted by the Compliance constructor and by the addTokenAgent function  `_agentAddress` is the address of the Agent to add"
					},
					"TokenAgentRemoved(address)": {
						"notice": "this event is emitted when the Agent has been removed from the agent list of this Compliance.  the event is emitted by the Compliance constructor and by the removeTokenAgent function  `_agentAddress` is the address of the Agent to remove"
					},
					"TokenBound(address)": {
						"notice": "this event is emitted when a token has been bound to the compliance contract  the event is emitted by the bindToken function  `_token` is the address of the token to bind"
					},
					"TokenUnbound(address)": {
						"notice": "this event is emitted when a token has been unbound from the compliance contract  the event is emitted by the unbindToken function  `_token` is the address of the token to unbind"
					}
				},
				"kind": "user",
				"methods": {},
				"version": 1
			}
		}
	}
}